{
	"contracts/Voting.sol": {
		"Voting": {
			"abi": [
				{
					"inputs": [
						{
							"internalType": "bytes32",
							"name": "_name",
							"type": "bytes32"
						},
						{
							"internalType": "uint256",
							"name": "_startTime",
							"type": "uint256"
						},
						{
							"internalType": "uint256",
							"name": "_endTime",
							"type": "uint256"
						}
					],
					"stateMutability": "nonpayable",
					"type": "constructor"
				},
				{
					"inputs": [
						{
							"internalType": "address[]",
							"name": "_proposalsAddr",
							"type": "address[]"
						},
						{
							"internalType": "bytes32[]",
							"name": "_proposalsNames",
							"type": "bytes32[]"
						}
					],
					"name": "addProposals",
					"outputs": [],
					"stateMutability": "nonpayable",
					"type": "function"
				},
				{
					"inputs": [
						{
							"internalType": "address[]",
							"name": "_voters",
							"type": "address[]"
						}
					],
					"name": "addVoters",
					"outputs": [],
					"stateMutability": "nonpayable",
					"type": "function"
				},
				{
					"inputs": [
						{
							"internalType": "address",
							"name": "",
							"type": "address"
						}
					],
					"name": "proposals",
					"outputs": [
						{
							"internalType": "bytes32",
							"name": "",
							"type": "bytes32"
						}
					],
					"stateMutability": "view",
					"type": "function"
				},
				{
					"inputs": [
						{
							"internalType": "address",
							"name": "proposal",
							"type": "address"
						}
					],
					"name": "totalVotesFor",
					"outputs": [
						{
							"internalType": "uint256",
							"name": "",
							"type": "uint256"
						}
					],
					"stateMutability": "view",
					"type": "function"
				},
				{
					"inputs": [
						{
							"internalType": "address",
							"name": "proposal",
							"type": "address"
						}
					],
					"name": "vote",
					"outputs": [],
					"stateMutability": "nonpayable",
					"type": "function"
				}
			],
			"devdoc": {
				"kind": "dev",
				"methods": {},
				"version": 1
			},
			"evm": {
				"assembly": "    /* \"contracts/Voting.sol\":91:1687  contract Voting {\r... */\n  mstore(0x40, 0x80)\n    /* \"contracts/Voting.sol\":318:329  new Token() */\n  mload(0x40)\n  tag_1\n  swap1\n  tag_2\n  jump\t// in\ntag_1:\n  mload(0x40)\n  dup1\n  swap2\n  sub\n  swap1\n  0x00\n  create\n  dup1\n  iszero\n  dup1\n  iszero\n  tag_3\n  jumpi\n  returndatasize\n  0x00\n  dup1\n  returndatacopy\n  revert(0x00, returndatasize)\ntag_3:\n  pop\n    /* \"contracts/Voting.sol\":304:329  Token token = new Token() */\n  0x06\n  exp(0x0100, 0x00)\n  dup2\n  sload\n  dup2\n  0xffffffffffffffffffffffffffffffffffffffff\n  mul\n  not\n  and\n  swap1\n  dup4\n  0xffffffffffffffffffffffffffffffffffffffff\n  and\n  mul\n  or\n  swap1\n  sstore\n  pop\n    /* \"contracts/Voting.sol\":338:528  constructor (bytes32 _name, uint _startTime, uint _endTime) {\r... */\n  callvalue\n  dup1\n  iszero\n  tag_4\n  jumpi\n  0x00\n  dup1\n  revert\ntag_4:\n  pop\n  mload(0x40)\n  sub(codesize, bytecodeSize)\n  dup1\n  bytecodeSize\n  dup4\n  codecopy\n  dup2\n  dup2\n  add\n  0x40\n  mstore\n  dup2\n  add\n  swap1\n  tag_5\n  swap2\n  swap1\n  tag_6\n  jump\t// in\ntag_5:\n    /* \"contracts/Voting.sol\":425:435  msg.sender */\n  caller\n    /* \"contracts/Voting.sol\":411:422  chairperson */\n  0x05\n  0x00\n    /* \"contracts/Voting.sol\":411:435  chairperson = msg.sender */\n  0x0100\n  exp\n  dup2\n  sload\n  dup2\n  0xffffffffffffffffffffffffffffffffffffffff\n  mul\n  not\n  and\n  swap1\n  dup4\n  0xffffffffffffffffffffffffffffffffffffffff\n  and\n  mul\n  or\n  swap1\n  sstore\n  pop\n    /* \"contracts/Voting.sol\":453:458  _name */\n  dup3\n    /* \"contracts/Voting.sol\":446:450  name */\n  0x00\n    /* \"contracts/Voting.sol\":446:458  name = _name */\n  dup2\n  swap1\n  sstore\n  pop\n    /* \"contracts/Voting.sol\":481:491  _startTime */\n  dup2\n    /* \"contracts/Voting.sol\":469:478  startTime */\n  0x01\n    /* \"contracts/Voting.sol\":469:491  startTime = _startTime */\n  dup2\n  swap1\n  sstore\n  pop\n    /* \"contracts/Voting.sol\":512:520  _endTime */\n  dup1\n    /* \"contracts/Voting.sol\":502:509  endTime */\n  0x02\n    /* \"contracts/Voting.sol\":502:520  endTime = _endTime */\n  dup2\n  swap1\n  sstore\n  pop\n    /* \"contracts/Voting.sol\":338:528  constructor (bytes32 _name, uint _startTime, uint _endTime) {\r... */\n  pop\n  pop\n  pop\n    /* \"contracts/Voting.sol\":91:1687  contract Voting {\r... */\n  jump(tag_9)\ntag_2:\n  dataSize(sub_1)\n  dup1\n  dataOffset(sub_1)\n  dup4\n  codecopy\n  add\n  swap1\n  jump\t// out\n    /* \"#utility.yul\":7:150   */\ntag_11:\n    /* \"#utility.yul\":64:69   */\n  0x00\n    /* \"#utility.yul\":95:101   */\n  dup2\n    /* \"#utility.yul\":89:102   */\n  mload\n    /* \"#utility.yul\":80:102   */\n  swap1\n  pop\n    /* \"#utility.yul\":111:144   */\n  tag_13\n    /* \"#utility.yul\":138:143   */\n  dup2\n    /* \"#utility.yul\":111:144   */\n  tag_14\n  jump\t// in\ntag_13:\n    /* \"#utility.yul\":7:150   */\n  swap3\n  swap2\n  pop\n  pop\n  jump\t// out\n    /* \"#utility.yul\":156:299   */\ntag_15:\n    /* \"#utility.yul\":213:218   */\n  0x00\n    /* \"#utility.yul\":244:250   */\n  dup2\n    /* \"#utility.yul\":238:251   */\n  mload\n    /* \"#utility.yul\":229:251   */\n  swap1\n  pop\n    /* \"#utility.yul\":260:293   */\n  tag_17\n    /* \"#utility.yul\":287:292   */\n  dup2\n    /* \"#utility.yul\":260:293   */\n  tag_18\n  jump\t// in\ntag_17:\n    /* \"#utility.yul\":156:299   */\n  swap3\n  swap2\n  pop\n  pop\n  jump\t// out\n    /* \"#utility.yul\":305:968   */\ntag_6:\n    /* \"#utility.yul\":393:399   */\n  0x00\n    /* \"#utility.yul\":401:407   */\n  dup1\n    /* \"#utility.yul\":409:415   */\n  0x00\n    /* \"#utility.yul\":458:460   */\n  0x60\n    /* \"#utility.yul\":446:455   */\n  dup5\n    /* \"#utility.yul\":437:444   */\n  dup7\n    /* \"#utility.yul\":433:456   */\n  sub\n    /* \"#utility.yul\":429:461   */\n  slt\n    /* \"#utility.yul\":426:545   */\n  iszero\n  tag_20\n  jumpi\n    /* \"#utility.yul\":464:543   */\n  tag_21\n  tag_22\n  jump\t// in\ntag_21:\n    /* \"#utility.yul\":426:545   */\ntag_20:\n    /* \"#utility.yul\":584:585   */\n  0x00\n    /* \"#utility.yul\":609:673   */\n  tag_23\n    /* \"#utility.yul\":665:672   */\n  dup7\n    /* \"#utility.yul\":656:662   */\n  dup3\n    /* \"#utility.yul\":645:654   */\n  dup8\n    /* \"#utility.yul\":641:663   */\n  add\n    /* \"#utility.yul\":609:673   */\n  tag_11\n  jump\t// in\ntag_23:\n    /* \"#utility.yul\":599:673   */\n  swap4\n  pop\n    /* \"#utility.yul\":555:683   */\n  pop\n    /* \"#utility.yul\":722:724   */\n  0x20\n    /* \"#utility.yul\":748:812   */\n  tag_24\n    /* \"#utility.yul\":804:811   */\n  dup7\n    /* \"#utility.yul\":795:801   */\n  dup3\n    /* \"#utility.yul\":784:793   */\n  dup8\n    /* \"#utility.yul\":780:802   */\n  add\n    /* \"#utility.yul\":748:812   */\n  tag_15\n  jump\t// in\ntag_24:\n    /* \"#utility.yul\":738:812   */\n  swap3\n  pop\n    /* \"#utility.yul\":693:822   */\n  pop\n    /* \"#utility.yul\":861:863   */\n  0x40\n    /* \"#utility.yul\":887:951   */\n  tag_25\n    /* \"#utility.yul\":943:950   */\n  dup7\n    /* \"#utility.yul\":934:940   */\n  dup3\n    /* \"#utility.yul\":923:932   */\n  dup8\n    /* \"#utility.yul\":919:941   */\n  add\n    /* \"#utility.yul\":887:951   */\n  tag_15\n  jump\t// in\ntag_25:\n    /* \"#utility.yul\":877:951   */\n  swap2\n  pop\n    /* \"#utility.yul\":832:961   */\n  pop\n    /* \"#utility.yul\":305:968   */\n  swap3\n  pop\n  swap3\n  pop\n  swap3\n  jump\t// out\n    /* \"#utility.yul\":1055:1132   */\ntag_28:\n    /* \"#utility.yul\":1092:1099   */\n  0x00\n    /* \"#utility.yul\":1121:1126   */\n  dup2\n    /* \"#utility.yul\":1110:1126   */\n  swap1\n  pop\n    /* \"#utility.yul\":1055:1132   */\n  swap2\n  swap1\n  pop\n  jump\t// out\n    /* \"#utility.yul\":1138:1215   */\ntag_30:\n    /* \"#utility.yul\":1175:1182   */\n  0x00\n    /* \"#utility.yul\":1204:1209   */\n  dup2\n    /* \"#utility.yul\":1193:1209   */\n  swap1\n  pop\n    /* \"#utility.yul\":1138:1215   */\n  swap2\n  swap1\n  pop\n  jump\t// out\n    /* \"#utility.yul\":1344:1461   */\ntag_22:\n    /* \"#utility.yul\":1453:1454   */\n  0x00\n    /* \"#utility.yul\":1450:1451   */\n  dup1\n    /* \"#utility.yul\":1443:1455   */\n  revert\n    /* \"#utility.yul\":1467:1589   */\ntag_14:\n    /* \"#utility.yul\":1540:1564   */\n  tag_36\n    /* \"#utility.yul\":1558:1563   */\n  dup2\n    /* \"#utility.yul\":1540:1564   */\n  tag_28\n  jump\t// in\ntag_36:\n    /* \"#utility.yul\":1533:1538   */\n  dup2\n    /* \"#utility.yul\":1530:1565   */\n  eq\n    /* \"#utility.yul\":1520:1583   */\n  tag_37\n  jumpi\n    /* \"#utility.yul\":1579:1580   */\n  0x00\n    /* \"#utility.yul\":1576:1577   */\n  dup1\n    /* \"#utility.yul\":1569:1581   */\n  revert\n    /* \"#utility.yul\":1520:1583   */\ntag_37:\n    /* \"#utility.yul\":1467:1589   */\n  pop\n  jump\t// out\n    /* \"#utility.yul\":1595:1717   */\ntag_18:\n    /* \"#utility.yul\":1668:1692   */\n  tag_39\n    /* \"#utility.yul\":1686:1691   */\n  dup2\n    /* \"#utility.yul\":1668:1692   */\n  tag_30\n  jump\t// in\ntag_39:\n    /* \"#utility.yul\":1661:1666   */\n  dup2\n    /* \"#utility.yul\":1658:1693   */\n  eq\n    /* \"#utility.yul\":1648:1711   */\n  tag_40\n  jumpi\n    /* \"#utility.yul\":1707:1708   */\n  0x00\n    /* \"#utility.yul\":1704:1705   */\n  dup1\n    /* \"#utility.yul\":1697:1709   */\n  revert\n    /* \"#utility.yul\":1648:1711   */\ntag_40:\n    /* \"#utility.yul\":1595:1717   */\n  pop\n  jump\t// out\n    /* \"contracts/Voting.sol\":91:1687  contract Voting {\r... */\ntag_9:\n  dataSize(sub_0)\n  dup1\n  dataOffset(sub_0)\n  0x00\n  codecopy\n  0x00\n  return\nstop\n\nsub_0: assembly {\n        /* \"contracts/Voting.sol\":91:1687  contract Voting {\r... */\n      mstore(0x40, 0x80)\n      callvalue\n      dup1\n      iszero\n      tag_1\n      jumpi\n      0x00\n      dup1\n      revert\n    tag_1:\n      pop\n      jumpi(tag_2, lt(calldatasize, 0x04))\n      shr(0xe0, calldataload(0x00))\n      dup1\n      0x3341b445\n      eq\n      tag_3\n      jumpi\n      dup1\n      0x4041ef54\n      eq\n      tag_4\n      jumpi\n      dup1\n      0x6dd7d8ea\n      eq\n      tag_5\n      jumpi\n      dup1\n      0x8203373a\n      eq\n      tag_6\n      jumpi\n      dup1\n      0xea58d968\n      eq\n      tag_7\n      jumpi\n    tag_2:\n      0x00\n      dup1\n      revert\n        /* \"contracts/Voting.sol\":222:267  mapping (address => bytes32) public proposals */\n    tag_3:\n      tag_8\n      0x04\n      dup1\n      calldatasize\n      sub\n      dup2\n      add\n      swap1\n      tag_9\n      swap2\n      swap1\n      tag_10\n      jump\t// in\n    tag_9:\n      tag_11\n      jump\t// in\n    tag_8:\n      mload(0x40)\n      tag_12\n      swap2\n      swap1\n      tag_13\n      jump\t// in\n    tag_12:\n      mload(0x40)\n      dup1\n      swap2\n      sub\n      swap1\n      return\n        /* \"contracts/Voting.sol\":1561:1680  function totalVotesFor(address proposal) view public returns (uint) {\r... */\n    tag_4:\n      tag_14\n      0x04\n      dup1\n      calldatasize\n      sub\n      dup2\n      add\n      swap1\n      tag_15\n      swap2\n      swap1\n      tag_10\n      jump\t// in\n    tag_15:\n      tag_16\n      jump\t// in\n    tag_14:\n      mload(0x40)\n      tag_17\n      swap2\n      swap1\n      tag_18\n      jump\t// in\n    tag_17:\n      mload(0x40)\n      dup1\n      swap2\n      sub\n      swap1\n      return\n        /* \"contracts/Voting.sol\":1143:1553  function vote(address proposal) public {\r... */\n    tag_5:\n      tag_19\n      0x04\n      dup1\n      calldatasize\n      sub\n      dup2\n      add\n      swap1\n      tag_20\n      swap2\n      swap1\n      tag_10\n      jump\t// in\n    tag_20:\n      tag_21\n      jump\t// in\n    tag_19:\n      stop\n        /* \"contracts/Voting.sol\":536:790  function addVoters(address[] memory _voters) public {\r... */\n    tag_6:\n      tag_22\n      0x04\n      dup1\n      calldatasize\n      sub\n      dup2\n      add\n      swap1\n      tag_23\n      swap2\n      swap1\n      tag_24\n      jump\t// in\n    tag_23:\n      tag_25\n      jump\t// in\n    tag_22:\n      stop\n        /* \"contracts/Voting.sol\":798:1135  function addProposals(address[] memory _proposalsAddr, \r... */\n    tag_7:\n      tag_26\n      0x04\n      dup1\n      calldatasize\n      sub\n      dup2\n      add\n      swap1\n      tag_27\n      swap2\n      swap1\n      tag_28\n      jump\t// in\n    tag_27:\n      tag_29\n      jump\t// in\n    tag_26:\n      stop\n        /* \"contracts/Voting.sol\":222:267  mapping (address => bytes32) public proposals */\n    tag_11:\n      mstore(0x20, 0x04)\n      dup1\n      0x00\n      mstore\n      keccak256(0x00, 0x40)\n      0x00\n      swap2\n      pop\n      swap1\n      pop\n      sload\n      dup2\n      jump\t// out\n        /* \"contracts/Voting.sol\":1561:1680  function totalVotesFor(address proposal) view public returns (uint) {\r... */\n    tag_16:\n        /* \"contracts/Voting.sol\":1623:1627  uint */\n      0x00\n        /* \"contracts/Voting.sol\":1647:1652  token */\n      0x06\n      0x00\n      swap1\n      sload\n      swap1\n      0x0100\n      exp\n      swap1\n      div\n      0xffffffffffffffffffffffffffffffffffffffff\n      and\n        /* \"contracts/Voting.sol\":1647:1662  token.balanceOf */\n      0xffffffffffffffffffffffffffffffffffffffff\n      and\n      0x70a08231\n        /* \"contracts/Voting.sol\":1663:1671  proposal */\n      dup4\n        /* \"contracts/Voting.sol\":1647:1672  token.balanceOf(proposal) */\n      mload(0x40)\n      dup3\n      0xffffffff\n      and\n      0xe0\n      shl\n      dup2\n      mstore\n      0x04\n      add\n      tag_31\n      swap2\n      swap1\n      tag_32\n      jump\t// in\n    tag_31:\n      0x20\n      mload(0x40)\n      dup1\n      dup4\n      sub\n      dup2\n      dup7\n      dup1\n      extcodesize\n      iszero\n      dup1\n      iszero\n      tag_33\n      jumpi\n      0x00\n      dup1\n      revert\n    tag_33:\n      pop\n      gas\n      staticcall\n      iszero\n      dup1\n      iszero\n      tag_35\n      jumpi\n      returndatasize\n      0x00\n      dup1\n      returndatacopy\n      revert(0x00, returndatasize)\n    tag_35:\n      pop\n      pop\n      pop\n      pop\n      mload(0x40)\n      returndatasize\n      not(0x1f)\n      0x1f\n      dup3\n      add\n      and\n      dup3\n      add\n      dup1\n      0x40\n      mstore\n      pop\n      dup2\n      add\n      swap1\n      tag_36\n      swap2\n      swap1\n      tag_37\n      jump\t// in\n    tag_36:\n        /* \"contracts/Voting.sol\":1640:1672  return token.balanceOf(proposal) */\n      swap1\n      pop\n        /* \"contracts/Voting.sol\":1561:1680  function totalVotesFor(address proposal) view public returns (uint) {\r... */\n      swap2\n      swap1\n      pop\n      jump\t// out\n        /* \"contracts/Voting.sol\":1143:1553  function vote(address proposal) public {\r... */\n    tag_21:\n        /* \"contracts/Voting.sol\":1219:1226  endTime */\n      sload(0x02)\n        /* \"contracts/Voting.sol\":1201:1216  block.timestamp */\n      timestamp\n        /* \"contracts/Voting.sol\":1201:1226  block.timestamp > endTime */\n      gt\n        /* \"contracts/Voting.sol\":1193:1227  require(block.timestamp > endTime) */\n      tag_39\n      jumpi\n      0x00\n      dup1\n      revert\n    tag_39:\n        /* \"contracts/Voting.sol\":1246:1252  voters */\n      0x03\n        /* \"contracts/Voting.sol\":1246:1264  voters[msg.sender] */\n      0x00\n        /* \"contracts/Voting.sol\":1253:1263  msg.sender */\n      caller\n        /* \"contracts/Voting.sol\":1246:1264  voters[msg.sender] */\n      0xffffffffffffffffffffffffffffffffffffffff\n      and\n      0xffffffffffffffffffffffffffffffffffffffff\n      and\n      dup2\n      mstore\n      0x20\n      add\n      swap1\n      dup2\n      mstore\n      0x20\n      add\n      0x00\n      keccak256\n      0x00\n      swap1\n      sload\n      swap1\n      0x0100\n      exp\n      swap1\n      div\n      0xff\n      and\n        /* \"contracts/Voting.sol\":1238:1265  require(voters[msg.sender]) */\n      tag_40\n      jumpi\n      0x00\n      dup1\n      revert\n    tag_40:\n        /* \"contracts/Voting.sol\":1315:1316  0 */\n      0x00\n        /* \"contracts/Voting.sol\":1284:1289  token */\n      0x06\n      0x00\n      swap1\n      sload\n      swap1\n      0x0100\n      exp\n      swap1\n      div\n      0xffffffffffffffffffffffffffffffffffffffff\n      and\n        /* \"contracts/Voting.sol\":1284:1299  token.balanceOf */\n      0xffffffffffffffffffffffffffffffffffffffff\n      and\n      0x70a08231\n        /* \"contracts/Voting.sol\":1300:1310  msg.sender */\n      caller\n        /* \"contracts/Voting.sol\":1284:1311  token.balanceOf(msg.sender) */\n      mload(0x40)\n      dup3\n      0xffffffff\n      and\n      0xe0\n      shl\n      dup2\n      mstore\n      0x04\n      add\n      tag_41\n      swap2\n      swap1\n      tag_32\n      jump\t// in\n    tag_41:\n      0x20\n      mload(0x40)\n      dup1\n      dup4\n      sub\n      dup2\n      dup7\n      dup1\n      extcodesize\n      iszero\n      dup1\n      iszero\n      tag_42\n      jumpi\n      0x00\n      dup1\n      revert\n    tag_42:\n      pop\n      gas\n      staticcall\n      iszero\n      dup1\n      iszero\n      tag_44\n      jumpi\n      returndatasize\n      0x00\n      dup1\n      returndatacopy\n      revert(0x00, returndatasize)\n    tag_44:\n      pop\n      pop\n      pop\n      pop\n      mload(0x40)\n      returndatasize\n      not(0x1f)\n      0x1f\n      dup3\n      add\n      and\n      dup3\n      add\n      dup1\n      0x40\n      mstore\n      pop\n      dup2\n      add\n      swap1\n      tag_45\n      swap2\n      swap1\n      tag_37\n      jump\t// in\n    tag_45:\n        /* \"contracts/Voting.sol\":1284:1316  token.balanceOf(msg.sender) == 0 */\n      eq\n        /* \"contracts/Voting.sol\":1276:1317  require(token.balanceOf(msg.sender) == 0) */\n      tag_46\n      jumpi\n      0x00\n      dup1\n      revert\n    tag_46:\n        /* \"contracts/Voting.sol\":1466:1471  token */\n      0x06\n      0x00\n      swap1\n      sload\n      swap1\n      0x0100\n      exp\n      swap1\n      div\n      0xffffffffffffffffffffffffffffffffffffffff\n      and\n        /* \"contracts/Voting.sol\":1466:1484  token.transferFrom */\n      0xffffffffffffffffffffffffffffffffffffffff\n      and\n      0x23b872dd\n        /* \"contracts/Voting.sol\":1485:1495  msg.sender */\n      caller\n        /* \"contracts/Voting.sol\":1497:1505  proposal */\n      dup4\n        /* \"contracts/Voting.sol\":1507:1508  1 */\n      0x01\n        /* \"contracts/Voting.sol\":1466:1509  token.transferFrom(msg.sender, proposal, 1) */\n      mload(0x40)\n      dup5\n      0xffffffff\n      and\n      0xe0\n      shl\n      dup2\n      mstore\n      0x04\n      add\n      tag_47\n      swap4\n      swap3\n      swap2\n      swap1\n      tag_48\n      jump\t// in\n    tag_47:\n      0x00\n      mload(0x40)\n      dup1\n      dup4\n      sub\n      dup2\n      0x00\n      dup8\n      dup1\n      extcodesize\n      iszero\n      dup1\n      iszero\n      tag_49\n      jumpi\n      0x00\n      dup1\n      revert\n    tag_49:\n      pop\n      gas\n      call\n      iszero\n      dup1\n      iszero\n      tag_51\n      jumpi\n      returndatasize\n      0x00\n      dup1\n      returndatacopy\n      revert(0x00, returndatasize)\n    tag_51:\n      pop\n      pop\n      pop\n      pop\n        /* \"contracts/Voting.sol\":1541:1545  true */\n      0x01\n        /* \"contracts/Voting.sol\":1520:1526  voters */\n      0x03\n        /* \"contracts/Voting.sol\":1520:1538  voters[msg.sender] */\n      0x00\n        /* \"contracts/Voting.sol\":1527:1537  msg.sender */\n      caller\n        /* \"contracts/Voting.sol\":1520:1538  voters[msg.sender] */\n      0xffffffffffffffffffffffffffffffffffffffff\n      and\n      0xffffffffffffffffffffffffffffffffffffffff\n      and\n      dup2\n      mstore\n      0x20\n      add\n      swap1\n      dup2\n      mstore\n      0x20\n      add\n      0x00\n      keccak256\n      0x00\n        /* \"contracts/Voting.sol\":1520:1545  voters[msg.sender] = true */\n      0x0100\n      exp\n      dup2\n      sload\n      dup2\n      0xff\n      mul\n      not\n      and\n      swap1\n      dup4\n      iszero\n      iszero\n      mul\n      or\n      swap1\n      sstore\n      pop\n        /* \"contracts/Voting.sol\":1143:1553  function vote(address proposal) public {\r... */\n      pop\n      jump\t// out\n        /* \"contracts/Voting.sol\":536:790  function addVoters(address[] memory _voters) public {\r... */\n    tag_25:\n        /* \"contracts/Voting.sol\":614:620  uint i */\n      0x00\n        /* \"contracts/Voting.sol\":609:745  for (uint i = 0; i < _voters.length; i++) {\r... */\n    tag_53:\n        /* \"contracts/Voting.sol\":630:637  _voters */\n      dup2\n        /* \"contracts/Voting.sol\":630:644  _voters.length */\n      mload\n        /* \"contracts/Voting.sol\":626:627  i */\n      dup2\n        /* \"contracts/Voting.sol\":626:644  i < _voters.length */\n      lt\n        /* \"contracts/Voting.sol\":609:745  for (uint i = 0; i < _voters.length; i++) {\r... */\n      iszero\n      tag_54\n      jumpi\n        /* \"contracts/Voting.sol\":687:692  false */\n      0x00\n        /* \"contracts/Voting.sol\":666:672  voters */\n      0x03\n        /* \"contracts/Voting.sol\":666:684  voters[_voters[i]] */\n      0x00\n        /* \"contracts/Voting.sol\":673:680  _voters */\n      dup5\n        /* \"contracts/Voting.sol\":681:682  i */\n      dup5\n        /* \"contracts/Voting.sol\":673:683  _voters[i] */\n      dup2\n      mload\n      dup2\n      lt\n      tag_56\n      jumpi\n      tag_57\n      tag_58\n      jump\t// in\n    tag_57:\n    tag_56:\n      0x20\n      mul\n      0x20\n      add\n      add\n      mload\n        /* \"contracts/Voting.sol\":666:684  voters[_voters[i]] */\n      0xffffffffffffffffffffffffffffffffffffffff\n      and\n      0xffffffffffffffffffffffffffffffffffffffff\n      and\n      dup2\n      mstore\n      0x20\n      add\n      swap1\n      dup2\n      mstore\n      0x20\n      add\n      0x00\n      keccak256\n      0x00\n        /* \"contracts/Voting.sol\":666:692  voters[_voters[i]] = false */\n      0x0100\n      exp\n      dup2\n      sload\n      dup2\n      0xff\n      mul\n      not\n      and\n      swap1\n      dup4\n      iszero\n      iszero\n      mul\n      or\n      swap1\n      sstore\n      pop\n        /* \"contracts/Voting.sol\":707:712  token */\n      0x06\n      0x00\n      swap1\n      sload\n      swap1\n      0x0100\n      exp\n      swap1\n      div\n      0xffffffffffffffffffffffffffffffffffffffff\n      and\n        /* \"contracts/Voting.sol\":707:717  token.mint */\n      0xffffffffffffffffffffffffffffffffffffffff\n      and\n      0x40c10f19\n        /* \"contracts/Voting.sol\":718:725  _voters */\n      dup4\n        /* \"contracts/Voting.sol\":726:727  i */\n      dup4\n        /* \"contracts/Voting.sol\":718:728  _voters[i] */\n      dup2\n      mload\n      dup2\n      lt\n      tag_59\n      jumpi\n      tag_60\n      tag_58\n      jump\t// in\n    tag_60:\n    tag_59:\n      0x20\n      mul\n      0x20\n      add\n      add\n      mload\n        /* \"contracts/Voting.sol\":730:731  1 */\n      0x01\n        /* \"contracts/Voting.sol\":707:732  token.mint(_voters[i], 1) */\n      mload(0x40)\n      dup4\n      0xffffffff\n      and\n      0xe0\n      shl\n      dup2\n      mstore\n      0x04\n      add\n      tag_61\n      swap3\n      swap2\n      swap1\n      tag_62\n      jump\t// in\n    tag_61:\n      0x00\n      mload(0x40)\n      dup1\n      dup4\n      sub\n      dup2\n      0x00\n      dup8\n      dup1\n      extcodesize\n      iszero\n      dup1\n      iszero\n      tag_63\n      jumpi\n      0x00\n      dup1\n      revert\n    tag_63:\n      pop\n      gas\n      call\n      iszero\n      dup1\n      iszero\n      tag_65\n      jumpi\n      returndatasize\n      0x00\n      dup1\n      returndatacopy\n      revert(0x00, returndatasize)\n    tag_65:\n      pop\n      pop\n      pop\n      pop\n        /* \"contracts/Voting.sol\":646:649  i++ */\n      dup1\n      dup1\n      tag_66\n      swap1\n      tag_67\n      jump\t// in\n    tag_66:\n      swap2\n      pop\n      pop\n        /* \"contracts/Voting.sol\":609:745  for (uint i = 0; i < _voters.length; i++) {\r... */\n      jump(tag_53)\n    tag_54:\n      pop\n        /* \"contracts/Voting.sol\":755:760  token */\n      0x06\n      0x00\n      swap1\n      sload\n      swap1\n      0x0100\n      exp\n      swap1\n      div\n      0xffffffffffffffffffffffffffffffffffffffff\n      and\n        /* \"contracts/Voting.sol\":755:765  token.mint */\n      0xffffffffffffffffffffffffffffffffffffffff\n      and\n      0x40c10f19\n        /* \"contracts/Voting.sol\":766:777  chairperson */\n      0x05\n      0x00\n      swap1\n      sload\n      swap1\n      0x0100\n      exp\n      swap1\n      div\n      0xffffffffffffffffffffffffffffffffffffffff\n      and\n        /* \"contracts/Voting.sol\":779:780  1 */\n      0x01\n        /* \"contracts/Voting.sol\":755:781  token.mint(chairperson, 1) */\n      mload(0x40)\n      dup4\n      0xffffffff\n      and\n      0xe0\n      shl\n      dup2\n      mstore\n      0x04\n      add\n      tag_68\n      swap3\n      swap2\n      swap1\n      tag_62\n      jump\t// in\n    tag_68:\n      0x00\n      mload(0x40)\n      dup1\n      dup4\n      sub\n      dup2\n      0x00\n      dup8\n      dup1\n      extcodesize\n      iszero\n      dup1\n      iszero\n      tag_69\n      jumpi\n      0x00\n      dup1\n      revert\n    tag_69:\n      pop\n      gas\n      call\n      iszero\n      dup1\n      iszero\n      tag_71\n      jumpi\n      returndatasize\n      0x00\n      dup1\n      returndatacopy\n      revert(0x00, returndatasize)\n    tag_71:\n      pop\n      pop\n      pop\n      pop\n        /* \"contracts/Voting.sol\":536:790  function addVoters(address[] memory _voters) public {\r... */\n      pop\n      jump\t// out\n        /* \"contracts/Voting.sol\":798:1135  function addProposals(address[] memory _proposalsAddr, \r... */\n    tag_29:\n        /* \"contracts/Voting.sol\":967:982  _proposalsNames */\n      dup1\n        /* \"contracts/Voting.sol\":967:989  _proposalsNames.length */\n      mload\n        /* \"contracts/Voting.sol\":942:956  _proposalsAddr */\n      dup3\n        /* \"contracts/Voting.sol\":942:963  _proposalsAddr.length */\n      mload\n        /* \"contracts/Voting.sol\":942:989  _proposalsAddr.length != _proposalsNames.length */\n      eq\n      iszero\n        /* \"contracts/Voting.sol\":934:990  require(_proposalsAddr.length != _proposalsNames.length) */\n      tag_73\n      jumpi\n      0x00\n      dup1\n      revert\n    tag_73:\n        /* \"contracts/Voting.sol\":1008:1014  uint i */\n      0x00\n        /* \"contracts/Voting.sol\":1003:1128  for (uint i = 0; i < _proposalsAddr.length; i++) {\r... */\n    tag_74:\n        /* \"contracts/Voting.sol\":1024:1038  _proposalsAddr */\n      dup3\n        /* \"contracts/Voting.sol\":1024:1045  _proposalsAddr.length */\n      mload\n        /* \"contracts/Voting.sol\":1020:1021  i */\n      dup2\n        /* \"contracts/Voting.sol\":1020:1045  i < _proposalsAddr.length */\n      lt\n        /* \"contracts/Voting.sol\":1003:1128  for (uint i = 0; i < _proposalsAddr.length; i++) {\r... */\n      iszero\n      tag_75\n      jumpi\n        /* \"contracts/Voting.sol\":1098:1113  _proposalsNames */\n      dup2\n        /* \"contracts/Voting.sol\":1114:1115  i */\n      dup2\n        /* \"contracts/Voting.sol\":1098:1116  _proposalsNames[i] */\n      dup2\n      mload\n      dup2\n      lt\n      tag_77\n      jumpi\n      tag_78\n      tag_58\n      jump\t// in\n    tag_78:\n    tag_77:\n      0x20\n      mul\n      0x20\n      add\n      add\n      mload\n        /* \"contracts/Voting.sol\":1067:1076  proposals */\n      0x04\n        /* \"contracts/Voting.sol\":1067:1095  proposals[_proposalsAddr[i]] */\n      0x00\n        /* \"contracts/Voting.sol\":1077:1091  _proposalsAddr */\n      dup6\n        /* \"contracts/Voting.sol\":1092:1093  i */\n      dup5\n        /* \"contracts/Voting.sol\":1077:1094  _proposalsAddr[i] */\n      dup2\n      mload\n      dup2\n      lt\n      tag_79\n      jumpi\n      tag_80\n      tag_58\n      jump\t// in\n    tag_80:\n    tag_79:\n      0x20\n      mul\n      0x20\n      add\n      add\n      mload\n        /* \"contracts/Voting.sol\":1067:1095  proposals[_proposalsAddr[i]] */\n      0xffffffffffffffffffffffffffffffffffffffff\n      and\n      0xffffffffffffffffffffffffffffffffffffffff\n      and\n      dup2\n      mstore\n      0x20\n      add\n      swap1\n      dup2\n      mstore\n      0x20\n      add\n      0x00\n      keccak256\n        /* \"contracts/Voting.sol\":1067:1116  proposals[_proposalsAddr[i]] = _proposalsNames[i] */\n      dup2\n      swap1\n      sstore\n      pop\n        /* \"contracts/Voting.sol\":1047:1050  i++ */\n      dup1\n      dup1\n      tag_81\n      swap1\n      tag_67\n      jump\t// in\n    tag_81:\n      swap2\n      pop\n      pop\n        /* \"contracts/Voting.sol\":1003:1128  for (uint i = 0; i < _proposalsAddr.length; i++) {\r... */\n      jump(tag_74)\n    tag_75:\n      pop\n        /* \"contracts/Voting.sol\":798:1135  function addProposals(address[] memory _proposalsAddr, \r... */\n      pop\n      pop\n      jump\t// out\n        /* \"#utility.yul\":24:746   */\n    tag_83:\n        /* \"#utility.yul\":120:125   */\n      0x00\n        /* \"#utility.yul\":145:226   */\n      tag_85\n        /* \"#utility.yul\":161:225   */\n      tag_86\n        /* \"#utility.yul\":218:224   */\n      dup5\n        /* \"#utility.yul\":161:225   */\n      tag_87\n      jump\t// in\n    tag_86:\n        /* \"#utility.yul\":145:226   */\n      tag_88\n      jump\t// in\n    tag_85:\n        /* \"#utility.yul\":136:226   */\n      swap1\n      pop\n        /* \"#utility.yul\":246:251   */\n      dup1\n        /* \"#utility.yul\":275:281   */\n      dup4\n        /* \"#utility.yul\":268:273   */\n      dup3\n        /* \"#utility.yul\":261:282   */\n      mstore\n        /* \"#utility.yul\":309:313   */\n      0x20\n        /* \"#utility.yul\":302:307   */\n      dup3\n        /* \"#utility.yul\":298:314   */\n      add\n        /* \"#utility.yul\":291:314   */\n      swap1\n      pop\n        /* \"#utility.yul\":335:341   */\n      dup3\n        /* \"#utility.yul\":385:388   */\n      dup6\n        /* \"#utility.yul\":377:381   */\n      0x20\n        /* \"#utility.yul\":369:375   */\n      dup7\n        /* \"#utility.yul\":365:382   */\n      mul\n        /* \"#utility.yul\":360:363   */\n      dup3\n        /* \"#utility.yul\":356:383   */\n      add\n        /* \"#utility.yul\":353:389   */\n      gt\n        /* \"#utility.yul\":350:493   */\n      iszero\n      tag_89\n      jumpi\n        /* \"#utility.yul\":404:483   */\n      tag_90\n      tag_91\n      jump\t// in\n    tag_90:\n        /* \"#utility.yul\":350:493   */\n    tag_89:\n        /* \"#utility.yul\":517:518   */\n      0x00\n        /* \"#utility.yul\":502:740   */\n    tag_92:\n        /* \"#utility.yul\":527:533   */\n      dup6\n        /* \"#utility.yul\":524:525   */\n      dup2\n        /* \"#utility.yul\":521:534   */\n      lt\n        /* \"#utility.yul\":502:740   */\n      iszero\n      tag_94\n      jumpi\n        /* \"#utility.yul\":595:598   */\n      dup2\n        /* \"#utility.yul\":624:661   */\n      tag_95\n        /* \"#utility.yul\":657:660   */\n      dup9\n        /* \"#utility.yul\":645:655   */\n      dup3\n        /* \"#utility.yul\":624:661   */\n      tag_96\n      jump\t// in\n    tag_95:\n        /* \"#utility.yul\":619:622   */\n      dup5\n        /* \"#utility.yul\":612:662   */\n      mstore\n        /* \"#utility.yul\":691:695   */\n      0x20\n        /* \"#utility.yul\":686:689   */\n      dup5\n        /* \"#utility.yul\":682:696   */\n      add\n        /* \"#utility.yul\":675:696   */\n      swap4\n      pop\n        /* \"#utility.yul\":725:729   */\n      0x20\n        /* \"#utility.yul\":720:723   */\n      dup4\n        /* \"#utility.yul\":716:730   */\n      add\n        /* \"#utility.yul\":709:730   */\n      swap3\n      pop\n        /* \"#utility.yul\":562:740   */\n      pop\n        /* \"#utility.yul\":549:550   */\n      0x01\n        /* \"#utility.yul\":546:547   */\n      dup2\n        /* \"#utility.yul\":542:551   */\n      add\n        /* \"#utility.yul\":537:551   */\n      swap1\n      pop\n        /* \"#utility.yul\":502:740   */\n      jump(tag_92)\n    tag_94:\n        /* \"#utility.yul\":506:520   */\n      pop\n        /* \"#utility.yul\":126:746   */\n      pop\n      pop\n        /* \"#utility.yul\":24:746   */\n      swap4\n      swap3\n      pop\n      pop\n      pop\n      jump\t// out\n        /* \"#utility.yul\":769:1491   */\n    tag_97:\n        /* \"#utility.yul\":865:870   */\n      0x00\n        /* \"#utility.yul\":890:971   */\n      tag_99\n        /* \"#utility.yul\":906:970   */\n      tag_100\n        /* \"#utility.yul\":963:969   */\n      dup5\n        /* \"#utility.yul\":906:970   */\n      tag_101\n      jump\t// in\n    tag_100:\n        /* \"#utility.yul\":890:971   */\n      tag_88\n      jump\t// in\n    tag_99:\n        /* \"#utility.yul\":881:971   */\n      swap1\n      pop\n        /* \"#utility.yul\":991:996   */\n      dup1\n        /* \"#utility.yul\":1020:1026   */\n      dup4\n        /* \"#utility.yul\":1013:1018   */\n      dup3\n        /* \"#utility.yul\":1006:1027   */\n      mstore\n        /* \"#utility.yul\":1054:1058   */\n      0x20\n        /* \"#utility.yul\":1047:1052   */\n      dup3\n        /* \"#utility.yul\":1043:1059   */\n      add\n        /* \"#utility.yul\":1036:1059   */\n      swap1\n      pop\n        /* \"#utility.yul\":1080:1086   */\n      dup3\n        /* \"#utility.yul\":1130:1133   */\n      dup6\n        /* \"#utility.yul\":1122:1126   */\n      0x20\n        /* \"#utility.yul\":1114:1120   */\n      dup7\n        /* \"#utility.yul\":1110:1127   */\n      mul\n        /* \"#utility.yul\":1105:1108   */\n      dup3\n        /* \"#utility.yul\":1101:1128   */\n      add\n        /* \"#utility.yul\":1098:1134   */\n      gt\n        /* \"#utility.yul\":1095:1238   */\n      iszero\n      tag_102\n      jumpi\n        /* \"#utility.yul\":1149:1228   */\n      tag_103\n      tag_91\n      jump\t// in\n    tag_103:\n        /* \"#utility.yul\":1095:1238   */\n    tag_102:\n        /* \"#utility.yul\":1262:1263   */\n      0x00\n        /* \"#utility.yul\":1247:1485   */\n    tag_104:\n        /* \"#utility.yul\":1272:1278   */\n      dup6\n        /* \"#utility.yul\":1269:1270   */\n      dup2\n        /* \"#utility.yul\":1266:1279   */\n      lt\n        /* \"#utility.yul\":1247:1485   */\n      iszero\n      tag_106\n      jumpi\n        /* \"#utility.yul\":1340:1343   */\n      dup2\n        /* \"#utility.yul\":1369:1406   */\n      tag_107\n        /* \"#utility.yul\":1402:1405   */\n      dup9\n        /* \"#utility.yul\":1390:1400   */\n      dup3\n        /* \"#utility.yul\":1369:1406   */\n      tag_108\n      jump\t// in\n    tag_107:\n        /* \"#utility.yul\":1364:1367   */\n      dup5\n        /* \"#utility.yul\":1357:1407   */\n      mstore\n        /* \"#utility.yul\":1436:1440   */\n      0x20\n        /* \"#utility.yul\":1431:1434   */\n      dup5\n        /* \"#utility.yul\":1427:1441   */\n      add\n        /* \"#utility.yul\":1420:1441   */\n      swap4\n      pop\n        /* \"#utility.yul\":1470:1474   */\n      0x20\n        /* \"#utility.yul\":1465:1468   */\n      dup4\n        /* \"#utility.yul\":1461:1475   */\n      add\n        /* \"#utility.yul\":1454:1475   */\n      swap3\n      pop\n        /* \"#utility.yul\":1307:1485   */\n      pop\n        /* \"#utility.yul\":1294:1295   */\n      0x01\n        /* \"#utility.yul\":1291:1292   */\n      dup2\n        /* \"#utility.yul\":1287:1296   */\n      add\n        /* \"#utility.yul\":1282:1296   */\n      swap1\n      pop\n        /* \"#utility.yul\":1247:1485   */\n      jump(tag_104)\n    tag_106:\n        /* \"#utility.yul\":1251:1265   */\n      pop\n        /* \"#utility.yul\":871:1491   */\n      pop\n      pop\n        /* \"#utility.yul\":769:1491   */\n      swap4\n      swap3\n      pop\n      pop\n      pop\n      jump\t// out\n        /* \"#utility.yul\":1497:1636   */\n    tag_96:\n        /* \"#utility.yul\":1543:1548   */\n      0x00\n        /* \"#utility.yul\":1581:1587   */\n      dup2\n        /* \"#utility.yul\":1568:1588   */\n      calldataload\n        /* \"#utility.yul\":1559:1588   */\n      swap1\n      pop\n        /* \"#utility.yul\":1597:1630   */\n      tag_110\n        /* \"#utility.yul\":1624:1629   */\n      dup2\n        /* \"#utility.yul\":1597:1630   */\n      tag_111\n      jump\t// in\n    tag_110:\n        /* \"#utility.yul\":1497:1636   */\n      swap3\n      swap2\n      pop\n      pop\n      jump\t// out\n        /* \"#utility.yul\":1659:2029   */\n    tag_112:\n        /* \"#utility.yul\":1730:1735   */\n      0x00\n        /* \"#utility.yul\":1779:1782   */\n      dup3\n        /* \"#utility.yul\":1772:1776   */\n      0x1f\n        /* \"#utility.yul\":1764:1770   */\n      dup4\n        /* \"#utility.yul\":1760:1777   */\n      add\n        /* \"#utility.yul\":1756:1783   */\n      slt\n        /* \"#utility.yul\":1746:1868   */\n      tag_114\n      jumpi\n        /* \"#utility.yul\":1787:1866   */\n      tag_115\n      tag_116\n      jump\t// in\n    tag_115:\n        /* \"#utility.yul\":1746:1868   */\n    tag_114:\n        /* \"#utility.yul\":1904:1910   */\n      dup2\n        /* \"#utility.yul\":1891:1911   */\n      calldataload\n        /* \"#utility.yul\":1929:2023   */\n      tag_117\n        /* \"#utility.yul\":2019:2022   */\n      dup5\n        /* \"#utility.yul\":2011:2017   */\n      dup3\n        /* \"#utility.yul\":2004:2008   */\n      0x20\n        /* \"#utility.yul\":1996:2002   */\n      dup7\n        /* \"#utility.yul\":1992:2009   */\n      add\n        /* \"#utility.yul\":1929:2023   */\n      tag_83\n      jump\t// in\n    tag_117:\n        /* \"#utility.yul\":1920:2023   */\n      swap2\n      pop\n        /* \"#utility.yul\":1736:2029   */\n      pop\n        /* \"#utility.yul\":1659:2029   */\n      swap3\n      swap2\n      pop\n      pop\n      jump\t// out\n        /* \"#utility.yul\":2052:2422   */\n    tag_118:\n        /* \"#utility.yul\":2123:2128   */\n      0x00\n        /* \"#utility.yul\":2172:2175   */\n      dup3\n        /* \"#utility.yul\":2165:2169   */\n      0x1f\n        /* \"#utility.yul\":2157:2163   */\n      dup4\n        /* \"#utility.yul\":2153:2170   */\n      add\n        /* \"#utility.yul\":2149:2176   */\n      slt\n        /* \"#utility.yul\":2139:2261   */\n      tag_120\n      jumpi\n        /* \"#utility.yul\":2180:2259   */\n      tag_121\n      tag_116\n      jump\t// in\n    tag_121:\n        /* \"#utility.yul\":2139:2261   */\n    tag_120:\n        /* \"#utility.yul\":2297:2303   */\n      dup2\n        /* \"#utility.yul\":2284:2304   */\n      calldataload\n        /* \"#utility.yul\":2322:2416   */\n      tag_122\n        /* \"#utility.yul\":2412:2415   */\n      dup5\n        /* \"#utility.yul\":2404:2410   */\n      dup3\n        /* \"#utility.yul\":2397:2401   */\n      0x20\n        /* \"#utility.yul\":2389:2395   */\n      dup7\n        /* \"#utility.yul\":2385:2402   */\n      add\n        /* \"#utility.yul\":2322:2416   */\n      tag_97\n      jump\t// in\n    tag_122:\n        /* \"#utility.yul\":2313:2416   */\n      swap2\n      pop\n        /* \"#utility.yul\":2129:2422   */\n      pop\n        /* \"#utility.yul\":2052:2422   */\n      swap3\n      swap2\n      pop\n      pop\n      jump\t// out\n        /* \"#utility.yul\":2428:2567   */\n    tag_108:\n        /* \"#utility.yul\":2474:2479   */\n      0x00\n        /* \"#utility.yul\":2512:2518   */\n      dup2\n        /* \"#utility.yul\":2499:2519   */\n      calldataload\n        /* \"#utility.yul\":2490:2519   */\n      swap1\n      pop\n        /* \"#utility.yul\":2528:2561   */\n      tag_124\n        /* \"#utility.yul\":2555:2560   */\n      dup2\n        /* \"#utility.yul\":2528:2561   */\n      tag_125\n      jump\t// in\n    tag_124:\n        /* \"#utility.yul\":2428:2567   */\n      swap3\n      swap2\n      pop\n      pop\n      jump\t// out\n        /* \"#utility.yul\":2573:2716   */\n    tag_126:\n        /* \"#utility.yul\":2630:2635   */\n      0x00\n        /* \"#utility.yul\":2661:2667   */\n      dup2\n        /* \"#utility.yul\":2655:2668   */\n      mload\n        /* \"#utility.yul\":2646:2668   */\n      swap1\n      pop\n        /* \"#utility.yul\":2677:2710   */\n      tag_128\n        /* \"#utility.yul\":2704:2709   */\n      dup2\n        /* \"#utility.yul\":2677:2710   */\n      tag_129\n      jump\t// in\n    tag_128:\n        /* \"#utility.yul\":2573:2716   */\n      swap3\n      swap2\n      pop\n      pop\n      jump\t// out\n        /* \"#utility.yul\":2722:3051   */\n    tag_10:\n        /* \"#utility.yul\":2781:2787   */\n      0x00\n        /* \"#utility.yul\":2830:2832   */\n      0x20\n        /* \"#utility.yul\":2818:2827   */\n      dup3\n        /* \"#utility.yul\":2809:2816   */\n      dup5\n        /* \"#utility.yul\":2805:2828   */\n      sub\n        /* \"#utility.yul\":2801:2833   */\n      slt\n        /* \"#utility.yul\":2798:2917   */\n      iszero\n      tag_131\n      jumpi\n        /* \"#utility.yul\":2836:2915   */\n      tag_132\n      tag_133\n      jump\t// in\n    tag_132:\n        /* \"#utility.yul\":2798:2917   */\n    tag_131:\n        /* \"#utility.yul\":2956:2957   */\n      0x00\n        /* \"#utility.yul\":2981:3034   */\n      tag_134\n        /* \"#utility.yul\":3026:3033   */\n      dup5\n        /* \"#utility.yul\":3017:3023   */\n      dup3\n        /* \"#utility.yul\":3006:3015   */\n      dup6\n        /* \"#utility.yul\":3002:3024   */\n      add\n        /* \"#utility.yul\":2981:3034   */\n      tag_96\n      jump\t// in\n    tag_134:\n        /* \"#utility.yul\":2971:3034   */\n      swap2\n      pop\n        /* \"#utility.yul\":2927:3044   */\n      pop\n        /* \"#utility.yul\":2722:3051   */\n      swap3\n      swap2\n      pop\n      pop\n      jump\t// out\n        /* \"#utility.yul\":3057:3596   */\n    tag_24:\n        /* \"#utility.yul\":3141:3147   */\n      0x00\n        /* \"#utility.yul\":3190:3192   */\n      0x20\n        /* \"#utility.yul\":3178:3187   */\n      dup3\n        /* \"#utility.yul\":3169:3176   */\n      dup5\n        /* \"#utility.yul\":3165:3188   */\n      sub\n        /* \"#utility.yul\":3161:3193   */\n      slt\n        /* \"#utility.yul\":3158:3277   */\n      iszero\n      tag_136\n      jumpi\n        /* \"#utility.yul\":3196:3275   */\n      tag_137\n      tag_133\n      jump\t// in\n    tag_137:\n        /* \"#utility.yul\":3158:3277   */\n    tag_136:\n        /* \"#utility.yul\":3344:3345   */\n      0x00\n        /* \"#utility.yul\":3333:3342   */\n      dup3\n        /* \"#utility.yul\":3329:3346   */\n      add\n        /* \"#utility.yul\":3316:3347   */\n      calldataload\n        /* \"#utility.yul\":3374:3392   */\n      0xffffffffffffffff\n        /* \"#utility.yul\":3366:3372   */\n      dup2\n        /* \"#utility.yul\":3363:3393   */\n      gt\n        /* \"#utility.yul\":3360:3477   */\n      iszero\n      tag_138\n      jumpi\n        /* \"#utility.yul\":3396:3475   */\n      tag_139\n      tag_140\n      jump\t// in\n    tag_139:\n        /* \"#utility.yul\":3360:3477   */\n    tag_138:\n        /* \"#utility.yul\":3501:3579   */\n      tag_141\n        /* \"#utility.yul\":3571:3578   */\n      dup5\n        /* \"#utility.yul\":3562:3568   */\n      dup3\n        /* \"#utility.yul\":3551:3560   */\n      dup6\n        /* \"#utility.yul\":3547:3569   */\n      add\n        /* \"#utility.yul\":3501:3579   */\n      tag_112\n      jump\t// in\n    tag_141:\n        /* \"#utility.yul\":3491:3579   */\n      swap2\n      pop\n        /* \"#utility.yul\":3287:3589   */\n      pop\n        /* \"#utility.yul\":3057:3596   */\n      swap3\n      swap2\n      pop\n      pop\n      jump\t// out\n        /* \"#utility.yul\":3602:4496   */\n    tag_28:\n        /* \"#utility.yul\":3720:3726   */\n      0x00\n        /* \"#utility.yul\":3728:3734   */\n      dup1\n        /* \"#utility.yul\":3777:3779   */\n      0x40\n        /* \"#utility.yul\":3765:3774   */\n      dup4\n        /* \"#utility.yul\":3756:3763   */\n      dup6\n        /* \"#utility.yul\":3752:3775   */\n      sub\n        /* \"#utility.yul\":3748:3780   */\n      slt\n        /* \"#utility.yul\":3745:3864   */\n      iszero\n      tag_143\n      jumpi\n        /* \"#utility.yul\":3783:3862   */\n      tag_144\n      tag_133\n      jump\t// in\n    tag_144:\n        /* \"#utility.yul\":3745:3864   */\n    tag_143:\n        /* \"#utility.yul\":3931:3932   */\n      0x00\n        /* \"#utility.yul\":3920:3929   */\n      dup4\n        /* \"#utility.yul\":3916:3933   */\n      add\n        /* \"#utility.yul\":3903:3934   */\n      calldataload\n        /* \"#utility.yul\":3961:3979   */\n      0xffffffffffffffff\n        /* \"#utility.yul\":3953:3959   */\n      dup2\n        /* \"#utility.yul\":3950:3980   */\n      gt\n        /* \"#utility.yul\":3947:4064   */\n      iszero\n      tag_145\n      jumpi\n        /* \"#utility.yul\":3983:4062   */\n      tag_146\n      tag_140\n      jump\t// in\n    tag_146:\n        /* \"#utility.yul\":3947:4064   */\n    tag_145:\n        /* \"#utility.yul\":4088:4166   */\n      tag_147\n        /* \"#utility.yul\":4158:4165   */\n      dup6\n        /* \"#utility.yul\":4149:4155   */\n      dup3\n        /* \"#utility.yul\":4138:4147   */\n      dup7\n        /* \"#utility.yul\":4134:4156   */\n      add\n        /* \"#utility.yul\":4088:4166   */\n      tag_112\n      jump\t// in\n    tag_147:\n        /* \"#utility.yul\":4078:4166   */\n      swap3\n      pop\n        /* \"#utility.yul\":3874:4176   */\n      pop\n        /* \"#utility.yul\":4243:4245   */\n      0x20\n        /* \"#utility.yul\":4232:4241   */\n      dup4\n        /* \"#utility.yul\":4228:4246   */\n      add\n        /* \"#utility.yul\":4215:4247   */\n      calldataload\n        /* \"#utility.yul\":4274:4292   */\n      0xffffffffffffffff\n        /* \"#utility.yul\":4266:4272   */\n      dup2\n        /* \"#utility.yul\":4263:4293   */\n      gt\n        /* \"#utility.yul\":4260:4377   */\n      iszero\n      tag_148\n      jumpi\n        /* \"#utility.yul\":4296:4375   */\n      tag_149\n      tag_140\n      jump\t// in\n    tag_149:\n        /* \"#utility.yul\":4260:4377   */\n    tag_148:\n        /* \"#utility.yul\":4401:4479   */\n      tag_150\n        /* \"#utility.yul\":4471:4478   */\n      dup6\n        /* \"#utility.yul\":4462:4468   */\n      dup3\n        /* \"#utility.yul\":4451:4460   */\n      dup7\n        /* \"#utility.yul\":4447:4469   */\n      add\n        /* \"#utility.yul\":4401:4479   */\n      tag_118\n      jump\t// in\n    tag_150:\n        /* \"#utility.yul\":4391:4479   */\n      swap2\n      pop\n        /* \"#utility.yul\":4186:4489   */\n      pop\n        /* \"#utility.yul\":3602:4496   */\n      swap3\n      pop\n      swap3\n      swap1\n      pop\n      jump\t// out\n        /* \"#utility.yul\":4502:4853   */\n    tag_37:\n        /* \"#utility.yul\":4572:4578   */\n      0x00\n        /* \"#utility.yul\":4621:4623   */\n      0x20\n        /* \"#utility.yul\":4609:4618   */\n      dup3\n        /* \"#utility.yul\":4600:4607   */\n      dup5\n        /* \"#utility.yul\":4596:4619   */\n      sub\n        /* \"#utility.yul\":4592:4624   */\n      slt\n        /* \"#utility.yul\":4589:4708   */\n      iszero\n      tag_152\n      jumpi\n        /* \"#utility.yul\":4627:4706   */\n      tag_153\n      tag_133\n      jump\t// in\n    tag_153:\n        /* \"#utility.yul\":4589:4708   */\n    tag_152:\n        /* \"#utility.yul\":4747:4748   */\n      0x00\n        /* \"#utility.yul\":4772:4836   */\n      tag_154\n        /* \"#utility.yul\":4828:4835   */\n      dup5\n        /* \"#utility.yul\":4819:4825   */\n      dup3\n        /* \"#utility.yul\":4808:4817   */\n      dup6\n        /* \"#utility.yul\":4804:4826   */\n      add\n        /* \"#utility.yul\":4772:4836   */\n      tag_126\n      jump\t// in\n    tag_154:\n        /* \"#utility.yul\":4762:4836   */\n      swap2\n      pop\n        /* \"#utility.yul\":4718:4846   */\n      pop\n        /* \"#utility.yul\":4502:4853   */\n      swap3\n      swap2\n      pop\n      pop\n      jump\t// out\n        /* \"#utility.yul\":4859:4977   */\n    tag_155:\n        /* \"#utility.yul\":4946:4970   */\n      tag_157\n        /* \"#utility.yul\":4964:4969   */\n      dup2\n        /* \"#utility.yul\":4946:4970   */\n      tag_158\n      jump\t// in\n    tag_157:\n        /* \"#utility.yul\":4941:4944   */\n      dup3\n        /* \"#utility.yul\":4934:4971   */\n      mstore\n        /* \"#utility.yul\":4859:4977   */\n      pop\n      pop\n      jump\t// out\n        /* \"#utility.yul\":4983:5101   */\n    tag_159:\n        /* \"#utility.yul\":5070:5094   */\n      tag_161\n        /* \"#utility.yul\":5088:5093   */\n      dup2\n        /* \"#utility.yul\":5070:5094   */\n      tag_162\n      jump\t// in\n    tag_161:\n        /* \"#utility.yul\":5065:5068   */\n      dup3\n        /* \"#utility.yul\":5058:5095   */\n      mstore\n        /* \"#utility.yul\":4983:5101   */\n      pop\n      pop\n      jump\t// out\n        /* \"#utility.yul\":5107:5254   */\n    tag_163:\n        /* \"#utility.yul\":5202:5247   */\n      tag_165\n        /* \"#utility.yul\":5241:5246   */\n      dup2\n        /* \"#utility.yul\":5202:5247   */\n      tag_166\n      jump\t// in\n    tag_165:\n        /* \"#utility.yul\":5197:5200   */\n      dup3\n        /* \"#utility.yul\":5190:5248   */\n      mstore\n        /* \"#utility.yul\":5107:5254   */\n      pop\n      pop\n      jump\t// out\n        /* \"#utility.yul\":5260:5378   */\n    tag_167:\n        /* \"#utility.yul\":5347:5371   */\n      tag_169\n        /* \"#utility.yul\":5365:5370   */\n      dup2\n        /* \"#utility.yul\":5347:5371   */\n      tag_170\n      jump\t// in\n    tag_169:\n        /* \"#utility.yul\":5342:5345   */\n      dup3\n        /* \"#utility.yul\":5335:5372   */\n      mstore\n        /* \"#utility.yul\":5260:5378   */\n      pop\n      pop\n      jump\t// out\n        /* \"#utility.yul\":5384:5606   */\n    tag_32:\n        /* \"#utility.yul\":5477:5481   */\n      0x00\n        /* \"#utility.yul\":5515:5517   */\n      0x20\n        /* \"#utility.yul\":5504:5513   */\n      dup3\n        /* \"#utility.yul\":5500:5518   */\n      add\n        /* \"#utility.yul\":5492:5518   */\n      swap1\n      pop\n        /* \"#utility.yul\":5528:5599   */\n      tag_172\n        /* \"#utility.yul\":5596:5597   */\n      0x00\n        /* \"#utility.yul\":5585:5594   */\n      dup4\n        /* \"#utility.yul\":5581:5598   */\n      add\n        /* \"#utility.yul\":5572:5578   */\n      dup5\n        /* \"#utility.yul\":5528:5599   */\n      tag_155\n      jump\t// in\n    tag_172:\n        /* \"#utility.yul\":5384:5606   */\n      swap3\n      swap2\n      pop\n      pop\n      jump\t// out\n        /* \"#utility.yul\":5612:6070   */\n    tag_48:\n        /* \"#utility.yul\":5769:5773   */\n      0x00\n        /* \"#utility.yul\":5807:5809   */\n      0x60\n        /* \"#utility.yul\":5796:5805   */\n      dup3\n        /* \"#utility.yul\":5792:5810   */\n      add\n        /* \"#utility.yul\":5784:5810   */\n      swap1\n      pop\n        /* \"#utility.yul\":5820:5891   */\n      tag_174\n        /* \"#utility.yul\":5888:5889   */\n      0x00\n        /* \"#utility.yul\":5877:5886   */\n      dup4\n        /* \"#utility.yul\":5873:5890   */\n      add\n        /* \"#utility.yul\":5864:5870   */\n      dup7\n        /* \"#utility.yul\":5820:5891   */\n      tag_155\n      jump\t// in\n    tag_174:\n        /* \"#utility.yul\":5901:5973   */\n      tag_175\n        /* \"#utility.yul\":5969:5971   */\n      0x20\n        /* \"#utility.yul\":5958:5967   */\n      dup4\n        /* \"#utility.yul\":5954:5972   */\n      add\n        /* \"#utility.yul\":5945:5951   */\n      dup6\n        /* \"#utility.yul\":5901:5973   */\n      tag_155\n      jump\t// in\n    tag_175:\n        /* \"#utility.yul\":5983:6063   */\n      tag_176\n        /* \"#utility.yul\":6059:6061   */\n      0x40\n        /* \"#utility.yul\":6048:6057   */\n      dup4\n        /* \"#utility.yul\":6044:6062   */\n      add\n        /* \"#utility.yul\":6035:6041   */\n      dup5\n        /* \"#utility.yul\":5983:6063   */\n      tag_163\n      jump\t// in\n    tag_176:\n        /* \"#utility.yul\":5612:6070   */\n      swap5\n      swap4\n      pop\n      pop\n      pop\n      pop\n      jump\t// out\n        /* \"#utility.yul\":6076:6424   */\n    tag_62:\n        /* \"#utility.yul\":6205:6209   */\n      0x00\n        /* \"#utility.yul\":6243:6245   */\n      0x40\n        /* \"#utility.yul\":6232:6241   */\n      dup3\n        /* \"#utility.yul\":6228:6246   */\n      add\n        /* \"#utility.yul\":6220:6246   */\n      swap1\n      pop\n        /* \"#utility.yul\":6256:6327   */\n      tag_178\n        /* \"#utility.yul\":6324:6325   */\n      0x00\n        /* \"#utility.yul\":6313:6322   */\n      dup4\n        /* \"#utility.yul\":6309:6326   */\n      add\n        /* \"#utility.yul\":6300:6306   */\n      dup6\n        /* \"#utility.yul\":6256:6327   */\n      tag_155\n      jump\t// in\n    tag_178:\n        /* \"#utility.yul\":6337:6417   */\n      tag_179\n        /* \"#utility.yul\":6413:6415   */\n      0x20\n        /* \"#utility.yul\":6402:6411   */\n      dup4\n        /* \"#utility.yul\":6398:6416   */\n      add\n        /* \"#utility.yul\":6389:6395   */\n      dup5\n        /* \"#utility.yul\":6337:6417   */\n      tag_163\n      jump\t// in\n    tag_179:\n        /* \"#utility.yul\":6076:6424   */\n      swap4\n      swap3\n      pop\n      pop\n      pop\n      jump\t// out\n        /* \"#utility.yul\":6430:6652   */\n    tag_13:\n        /* \"#utility.yul\":6523:6527   */\n      0x00\n        /* \"#utility.yul\":6561:6563   */\n      0x20\n        /* \"#utility.yul\":6550:6559   */\n      dup3\n        /* \"#utility.yul\":6546:6564   */\n      add\n        /* \"#utility.yul\":6538:6564   */\n      swap1\n      pop\n        /* \"#utility.yul\":6574:6645   */\n      tag_181\n        /* \"#utility.yul\":6642:6643   */\n      0x00\n        /* \"#utility.yul\":6631:6640   */\n      dup4\n        /* \"#utility.yul\":6627:6644   */\n      add\n        /* \"#utility.yul\":6618:6624   */\n      dup5\n        /* \"#utility.yul\":6574:6645   */\n      tag_159\n      jump\t// in\n    tag_181:\n        /* \"#utility.yul\":6430:6652   */\n      swap3\n      swap2\n      pop\n      pop\n      jump\t// out\n        /* \"#utility.yul\":6658:6880   */\n    tag_18:\n        /* \"#utility.yul\":6751:6755   */\n      0x00\n        /* \"#utility.yul\":6789:6791   */\n      0x20\n        /* \"#utility.yul\":6778:6787   */\n      dup3\n        /* \"#utility.yul\":6774:6792   */\n      add\n        /* \"#utility.yul\":6766:6792   */\n      swap1\n      pop\n        /* \"#utility.yul\":6802:6873   */\n      tag_183\n        /* \"#utility.yul\":6870:6871   */\n      0x00\n        /* \"#utility.yul\":6859:6868   */\n      dup4\n        /* \"#utility.yul\":6855:6872   */\n      add\n        /* \"#utility.yul\":6846:6852   */\n      dup5\n        /* \"#utility.yul\":6802:6873   */\n      tag_167\n      jump\t// in\n    tag_183:\n        /* \"#utility.yul\":6658:6880   */\n      swap3\n      swap2\n      pop\n      pop\n      jump\t// out\n        /* \"#utility.yul\":6886:7015   */\n    tag_88:\n        /* \"#utility.yul\":6920:6926   */\n      0x00\n        /* \"#utility.yul\":6947:6967   */\n      tag_185\n      tag_186\n      jump\t// in\n    tag_185:\n        /* \"#utility.yul\":6937:6967   */\n      swap1\n      pop\n        /* \"#utility.yul\":6976:7009   */\n      tag_187\n        /* \"#utility.yul\":7004:7008   */\n      dup3\n        /* \"#utility.yul\":6996:7002   */\n      dup3\n        /* \"#utility.yul\":6976:7009   */\n      tag_188\n      jump\t// in\n    tag_187:\n        /* \"#utility.yul\":6886:7015   */\n      swap2\n      swap1\n      pop\n      jump\t// out\n        /* \"#utility.yul\":7021:7096   */\n    tag_186:\n        /* \"#utility.yul\":7054:7060   */\n      0x00\n        /* \"#utility.yul\":7087:7089   */\n      0x40\n        /* \"#utility.yul\":7081:7090   */\n      mload\n        /* \"#utility.yul\":7071:7090   */\n      swap1\n      pop\n        /* \"#utility.yul\":7021:7096   */\n      swap1\n      jump\t// out\n        /* \"#utility.yul\":7102:7413   */\n    tag_87:\n        /* \"#utility.yul\":7179:7183   */\n      0x00\n        /* \"#utility.yul\":7269:7287   */\n      0xffffffffffffffff\n        /* \"#utility.yul\":7261:7267   */\n      dup3\n        /* \"#utility.yul\":7258:7288   */\n      gt\n        /* \"#utility.yul\":7255:7311   */\n      iszero\n      tag_191\n      jumpi\n        /* \"#utility.yul\":7291:7309   */\n      tag_192\n      tag_193\n      jump\t// in\n    tag_192:\n        /* \"#utility.yul\":7255:7311   */\n    tag_191:\n        /* \"#utility.yul\":7341:7345   */\n      0x20\n        /* \"#utility.yul\":7333:7339   */\n      dup3\n        /* \"#utility.yul\":7329:7346   */\n      mul\n        /* \"#utility.yul\":7321:7346   */\n      swap1\n      pop\n        /* \"#utility.yul\":7401:7405   */\n      0x20\n        /* \"#utility.yul\":7395:7399   */\n      dup2\n        /* \"#utility.yul\":7391:7406   */\n      add\n        /* \"#utility.yul\":7383:7406   */\n      swap1\n      pop\n        /* \"#utility.yul\":7102:7413   */\n      swap2\n      swap1\n      pop\n      jump\t// out\n        /* \"#utility.yul\":7419:7730   */\n    tag_101:\n        /* \"#utility.yul\":7496:7500   */\n      0x00\n        /* \"#utility.yul\":7586:7604   */\n      0xffffffffffffffff\n        /* \"#utility.yul\":7578:7584   */\n      dup3\n        /* \"#utility.yul\":7575:7605   */\n      gt\n        /* \"#utility.yul\":7572:7628   */\n      iszero\n      tag_195\n      jumpi\n        /* \"#utility.yul\":7608:7626   */\n      tag_196\n      tag_193\n      jump\t// in\n    tag_196:\n        /* \"#utility.yul\":7572:7628   */\n    tag_195:\n        /* \"#utility.yul\":7658:7662   */\n      0x20\n        /* \"#utility.yul\":7650:7656   */\n      dup3\n        /* \"#utility.yul\":7646:7663   */\n      mul\n        /* \"#utility.yul\":7638:7663   */\n      swap1\n      pop\n        /* \"#utility.yul\":7718:7722   */\n      0x20\n        /* \"#utility.yul\":7712:7716   */\n      dup2\n        /* \"#utility.yul\":7708:7723   */\n      add\n        /* \"#utility.yul\":7700:7723   */\n      swap1\n      pop\n        /* \"#utility.yul\":7419:7730   */\n      swap2\n      swap1\n      pop\n      jump\t// out\n        /* \"#utility.yul\":7736:7832   */\n    tag_158:\n        /* \"#utility.yul\":7773:7780   */\n      0x00\n        /* \"#utility.yul\":7802:7826   */\n      tag_198\n        /* \"#utility.yul\":7820:7825   */\n      dup3\n        /* \"#utility.yul\":7802:7826   */\n      tag_199\n      jump\t// in\n    tag_198:\n        /* \"#utility.yul\":7791:7826   */\n      swap1\n      pop\n        /* \"#utility.yul\":7736:7832   */\n      swap2\n      swap1\n      pop\n      jump\t// out\n        /* \"#utility.yul\":7838:7915   */\n    tag_162:\n        /* \"#utility.yul\":7875:7882   */\n      0x00\n        /* \"#utility.yul\":7904:7909   */\n      dup2\n        /* \"#utility.yul\":7893:7909   */\n      swap1\n      pop\n        /* \"#utility.yul\":7838:7915   */\n      swap2\n      swap1\n      pop\n      jump\t// out\n        /* \"#utility.yul\":7921:8047   */\n    tag_199:\n        /* \"#utility.yul\":7958:7965   */\n      0x00\n        /* \"#utility.yul\":7998:8040   */\n      0xffffffffffffffffffffffffffffffffffffffff\n        /* \"#utility.yul\":7991:7996   */\n      dup3\n        /* \"#utility.yul\":7987:8041   */\n      and\n        /* \"#utility.yul\":7976:8041   */\n      swap1\n      pop\n        /* \"#utility.yul\":7921:8047   */\n      swap2\n      swap1\n      pop\n      jump\t// out\n        /* \"#utility.yul\":8053:8130   */\n    tag_170:\n        /* \"#utility.yul\":8090:8097   */\n      0x00\n        /* \"#utility.yul\":8119:8124   */\n      dup2\n        /* \"#utility.yul\":8108:8124   */\n      swap1\n      pop\n        /* \"#utility.yul\":8053:8130   */\n      swap2\n      swap1\n      pop\n      jump\t// out\n        /* \"#utility.yul\":8136:8257   */\n    tag_166:\n        /* \"#utility.yul\":8194:8203   */\n      0x00\n        /* \"#utility.yul\":8227:8251   */\n      tag_204\n        /* \"#utility.yul\":8245:8250   */\n      dup3\n        /* \"#utility.yul\":8227:8251   */\n      tag_170\n      jump\t// in\n    tag_204:\n        /* \"#utility.yul\":8214:8251   */\n      swap1\n      pop\n        /* \"#utility.yul\":8136:8257   */\n      swap2\n      swap1\n      pop\n      jump\t// out\n        /* \"#utility.yul\":8263:8544   */\n    tag_188:\n        /* \"#utility.yul\":8346:8373   */\n      tag_206\n        /* \"#utility.yul\":8368:8372   */\n      dup3\n        /* \"#utility.yul\":8346:8373   */\n      tag_207\n      jump\t// in\n    tag_206:\n        /* \"#utility.yul\":8338:8344   */\n      dup2\n        /* \"#utility.yul\":8334:8374   */\n      add\n        /* \"#utility.yul\":8476:8482   */\n      dup2\n        /* \"#utility.yul\":8464:8474   */\n      dup2\n        /* \"#utility.yul\":8461:8483   */\n      lt\n        /* \"#utility.yul\":8440:8458   */\n      0xffffffffffffffff\n        /* \"#utility.yul\":8428:8438   */\n      dup3\n        /* \"#utility.yul\":8425:8459   */\n      gt\n        /* \"#utility.yul\":8422:8484   */\n      or\n        /* \"#utility.yul\":8419:8507   */\n      iszero\n      tag_208\n      jumpi\n        /* \"#utility.yul\":8487:8505   */\n      tag_209\n      tag_193\n      jump\t// in\n    tag_209:\n        /* \"#utility.yul\":8419:8507   */\n    tag_208:\n        /* \"#utility.yul\":8527:8537   */\n      dup1\n        /* \"#utility.yul\":8523:8525   */\n      0x40\n        /* \"#utility.yul\":8516:8538   */\n      mstore\n        /* \"#utility.yul\":8306:8544   */\n      pop\n        /* \"#utility.yul\":8263:8544   */\n      pop\n      pop\n      jump\t// out\n        /* \"#utility.yul\":8550:8783   */\n    tag_67:\n        /* \"#utility.yul\":8589:8592   */\n      0x00\n        /* \"#utility.yul\":8612:8636   */\n      tag_211\n        /* \"#utility.yul\":8630:8635   */\n      dup3\n        /* \"#utility.yul\":8612:8636   */\n      tag_170\n      jump\t// in\n    tag_211:\n        /* \"#utility.yul\":8603:8636   */\n      swap2\n      pop\n        /* \"#utility.yul\":8658:8724   */\n      0xffffffffffffffffffffffffffffffffffffffffffffffffffffffffffffffff\n        /* \"#utility.yul\":8651:8656   */\n      dup3\n        /* \"#utility.yul\":8648:8725   */\n      eq\n        /* \"#utility.yul\":8645:8748   */\n      iszero\n      tag_212\n      jumpi\n        /* \"#utility.yul\":8728:8746   */\n      tag_213\n      tag_214\n      jump\t// in\n    tag_213:\n        /* \"#utility.yul\":8645:8748   */\n    tag_212:\n        /* \"#utility.yul\":8775:8776   */\n      0x01\n        /* \"#utility.yul\":8768:8773   */\n      dup3\n        /* \"#utility.yul\":8764:8777   */\n      add\n        /* \"#utility.yul\":8757:8777   */\n      swap1\n      pop\n        /* \"#utility.yul\":8550:8783   */\n      swap2\n      swap1\n      pop\n      jump\t// out\n        /* \"#utility.yul\":8789:8969   */\n    tag_214:\n        /* \"#utility.yul\":8837:8914   */\n      0x4e487b7100000000000000000000000000000000000000000000000000000000\n        /* \"#utility.yul\":8834:8835   */\n      0x00\n        /* \"#utility.yul\":8827:8915   */\n      mstore\n        /* \"#utility.yul\":8934:8938   */\n      0x11\n        /* \"#utility.yul\":8931:8932   */\n      0x04\n        /* \"#utility.yul\":8924:8939   */\n      mstore\n        /* \"#utility.yul\":8958:8962   */\n      0x24\n        /* \"#utility.yul\":8955:8956   */\n      0x00\n        /* \"#utility.yul\":8948:8963   */\n      revert\n        /* \"#utility.yul\":8975:9155   */\n    tag_58:\n        /* \"#utility.yul\":9023:9100   */\n      0x4e487b7100000000000000000000000000000000000000000000000000000000\n        /* \"#utility.yul\":9020:9021   */\n      0x00\n        /* \"#utility.yul\":9013:9101   */\n      mstore\n        /* \"#utility.yul\":9120:9124   */\n      0x32\n        /* \"#utility.yul\":9117:9118   */\n      0x04\n        /* \"#utility.yul\":9110:9125   */\n      mstore\n        /* \"#utility.yul\":9144:9148   */\n      0x24\n        /* \"#utility.yul\":9141:9142   */\n      0x00\n        /* \"#utility.yul\":9134:9149   */\n      revert\n        /* \"#utility.yul\":9161:9341   */\n    tag_193:\n        /* \"#utility.yul\":9209:9286   */\n      0x4e487b7100000000000000000000000000000000000000000000000000000000\n        /* \"#utility.yul\":9206:9207   */\n      0x00\n        /* \"#utility.yul\":9199:9287   */\n      mstore\n        /* \"#utility.yul\":9306:9310   */\n      0x41\n        /* \"#utility.yul\":9303:9304   */\n      0x04\n        /* \"#utility.yul\":9296:9311   */\n      mstore\n        /* \"#utility.yul\":9330:9334   */\n      0x24\n        /* \"#utility.yul\":9327:9328   */\n      0x00\n        /* \"#utility.yul\":9320:9335   */\n      revert\n        /* \"#utility.yul\":9347:9464   */\n    tag_116:\n        /* \"#utility.yul\":9456:9457   */\n      0x00\n        /* \"#utility.yul\":9453:9454   */\n      dup1\n        /* \"#utility.yul\":9446:9458   */\n      revert\n        /* \"#utility.yul\":9470:9587   */\n    tag_91:\n        /* \"#utility.yul\":9579:9580   */\n      0x00\n        /* \"#utility.yul\":9576:9577   */\n      dup1\n        /* \"#utility.yul\":9569:9581   */\n      revert\n        /* \"#utility.yul\":9593:9710   */\n    tag_140:\n        /* \"#utility.yul\":9702:9703   */\n      0x00\n        /* \"#utility.yul\":9699:9700   */\n      dup1\n        /* \"#utility.yul\":9692:9704   */\n      revert\n        /* \"#utility.yul\":9716:9833   */\n    tag_133:\n        /* \"#utility.yul\":9825:9826   */\n      0x00\n        /* \"#utility.yul\":9822:9823   */\n      dup1\n        /* \"#utility.yul\":9815:9827   */\n      revert\n        /* \"#utility.yul\":9839:9941   */\n    tag_207:\n        /* \"#utility.yul\":9880:9886   */\n      0x00\n        /* \"#utility.yul\":9931:9933   */\n      0x1f\n        /* \"#utility.yul\":9927:9934   */\n      not\n        /* \"#utility.yul\":9922:9924   */\n      0x1f\n        /* \"#utility.yul\":9915:9920   */\n      dup4\n        /* \"#utility.yul\":9911:9925   */\n      add\n        /* \"#utility.yul\":9907:9935   */\n      and\n        /* \"#utility.yul\":9897:9935   */\n      swap1\n      pop\n        /* \"#utility.yul\":9839:9941   */\n      swap2\n      swap1\n      pop\n      jump\t// out\n        /* \"#utility.yul\":9947:10069   */\n    tag_111:\n        /* \"#utility.yul\":10020:10044   */\n      tag_224\n        /* \"#utility.yul\":10038:10043   */\n      dup2\n        /* \"#utility.yul\":10020:10044   */\n      tag_158\n      jump\t// in\n    tag_224:\n        /* \"#utility.yul\":10013:10018   */\n      dup2\n        /* \"#utility.yul\":10010:10045   */\n      eq\n        /* \"#utility.yul\":10000:10063   */\n      tag_225\n      jumpi\n        /* \"#utility.yul\":10059:10060   */\n      0x00\n        /* \"#utility.yul\":10056:10057   */\n      dup1\n        /* \"#utility.yul\":10049:10061   */\n      revert\n        /* \"#utility.yul\":10000:10063   */\n    tag_225:\n        /* \"#utility.yul\":9947:10069   */\n      pop\n      jump\t// out\n        /* \"#utility.yul\":10075:10197   */\n    tag_125:\n        /* \"#utility.yul\":10148:10172   */\n      tag_227\n        /* \"#utility.yul\":10166:10171   */\n      dup2\n        /* \"#utility.yul\":10148:10172   */\n      tag_162\n      jump\t// in\n    tag_227:\n        /* \"#utility.yul\":10141:10146   */\n      dup2\n        /* \"#utility.yul\":10138:10173   */\n      eq\n        /* \"#utility.yul\":10128:10191   */\n      tag_228\n      jumpi\n        /* \"#utility.yul\":10187:10188   */\n      0x00\n        /* \"#utility.yul\":10184:10185   */\n      dup1\n        /* \"#utility.yul\":10177:10189   */\n      revert\n        /* \"#utility.yul\":10128:10191   */\n    tag_228:\n        /* \"#utility.yul\":10075:10197   */\n      pop\n      jump\t// out\n        /* \"#utility.yul\":10203:10325   */\n    tag_129:\n        /* \"#utility.yul\":10276:10300   */\n      tag_230\n        /* \"#utility.yul\":10294:10299   */\n      dup2\n        /* \"#utility.yul\":10276:10300   */\n      tag_170\n      jump\t// in\n    tag_230:\n        /* \"#utility.yul\":10269:10274   */\n      dup2\n        /* \"#utility.yul\":10266:10301   */\n      eq\n        /* \"#utility.yul\":10256:10319   */\n      tag_231\n      jumpi\n        /* \"#utility.yul\":10315:10316   */\n      0x00\n        /* \"#utility.yul\":10312:10313   */\n      dup1\n        /* \"#utility.yul\":10305:10317   */\n      revert\n        /* \"#utility.yul\":10256:10319   */\n    tag_231:\n        /* \"#utility.yul\":10203:10325   */\n      pop\n      jump\t// out\n\n    auxdata: 0xa2646970667358221220581079a0498fea837f69d3db1e09ce635df9463e631be1fff3c3875a74ab9ab164736f6c63430008070033\n}\n\nsub_1: assembly {\n        /* \"contracts/Token.sol\":99:316  contract Token is ERC20Standard {\r... */\n      mstore(0x40, 0x80)\n        /* \"contracts/Token.sol\":141:248  constructor() {\r... */\n      callvalue\n      dup1\n      iszero\n      tag_1\n      jumpi\n      0x00\n      dup1\n      revert\n    tag_1:\n      pop\n        /* \"contracts/Token.sol\":162:184  name = \"E-Voting coin\" */\n      mload(0x40)\n      dup1\n      0x40\n      add\n      0x40\n      mstore\n      dup1\n      0x0d\n      dup2\n      mstore\n      0x20\n      add\n      0x452d566f74696e6720636f696e00000000000000000000000000000000000000\n      dup2\n      mstore\n      pop\n        /* \"contracts/Token.sol\":162:166  name */\n      0x01\n        /* \"contracts/Token.sol\":162:184  name = \"E-Voting coin\" */\n      swap1\n      dup1\n      mload\n      swap1\n      0x20\n      add\n      swap1\n      tag_4\n      swap3\n      swap2\n      swap1\n      tag_5\n      jump\t// in\n    tag_4:\n      pop\n        /* \"contracts/Token.sol\":200:201  4 */\n      0x04\n        /* \"contracts/Token.sol\":189:197  decimals */\n      0x02\n      0x00\n        /* \"contracts/Token.sol\":189:201  decimals = 4 */\n      0x0100\n      exp\n      dup2\n      sload\n      dup2\n      0xff\n      mul\n      not\n      and\n      swap1\n      dup4\n      0xff\n      and\n      mul\n      or\n      swap1\n      sstore\n      pop\n        /* \"contracts/Token.sol\":206:220  symbol = \"EVC\" */\n      mload(0x40)\n      dup1\n      0x40\n      add\n      0x40\n      mstore\n      dup1\n      0x03\n      dup2\n      mstore\n      0x20\n      add\n      0x4556430000000000000000000000000000000000000000000000000000000000\n      dup2\n      mstore\n      pop\n        /* \"contracts/Token.sol\":206:212  symbol */\n      0x03\n        /* \"contracts/Token.sol\":206:220  symbol = \"EVC\" */\n      swap1\n      dup1\n      mload\n      swap1\n      0x20\n      add\n      swap1\n      tag_6\n      swap3\n      swap2\n      swap1\n      tag_5\n      jump\t// in\n    tag_6:\n      pop\n        /* \"contracts/Token.sol\":225:240  version = \"1.0\" */\n      mload(0x40)\n      dup1\n      0x40\n      add\n      0x40\n      mstore\n      dup1\n      0x03\n      dup2\n      mstore\n      0x20\n      add\n      0x312e300000000000000000000000000000000000000000000000000000000000\n      dup2\n      mstore\n      pop\n        /* \"contracts/Token.sol\":225:232  version */\n      0x04\n        /* \"contracts/Token.sol\":225:240  version = \"1.0\" */\n      swap1\n      dup1\n      mload\n      swap1\n      0x20\n      add\n      swap1\n      tag_7\n      swap3\n      swap2\n      swap1\n      tag_5\n      jump\t// in\n    tag_7:\n      pop\n        /* \"contracts/Token.sol\":99:316  contract Token is ERC20Standard {\r... */\n      jump(tag_8)\n    tag_5:\n      dup3\n      dup1\n      sload\n      tag_9\n      swap1\n      tag_10\n      jump\t// in\n    tag_9:\n      swap1\n      0x00\n      mstore\n      keccak256(0x00, 0x20)\n      swap1\n      0x1f\n      add\n      0x20\n      swap1\n      div\n      dup2\n      add\n      swap3\n      dup3\n      tag_12\n      jumpi\n      0x00\n      dup6\n      sstore\n      jump(tag_11)\n    tag_12:\n      dup3\n      0x1f\n      lt\n      tag_13\n      jumpi\n      dup1\n      mload\n      not(0xff)\n      and\n      dup4\n      dup1\n      add\n      or\n      dup6\n      sstore\n      jump(tag_11)\n    tag_13:\n      dup3\n      dup1\n      add\n      0x01\n      add\n      dup6\n      sstore\n      dup3\n      iszero\n      tag_11\n      jumpi\n      swap2\n      dup3\n      add\n    tag_14:\n      dup3\n      dup2\n      gt\n      iszero\n      tag_15\n      jumpi\n      dup3\n      mload\n      dup3\n      sstore\n      swap2\n      0x20\n      add\n      swap2\n      swap1\n      0x01\n      add\n      swap1\n      jump(tag_14)\n    tag_15:\n    tag_11:\n      pop\n      swap1\n      pop\n      tag_16\n      swap2\n      swap1\n      tag_17\n      jump\t// in\n    tag_16:\n      pop\n      swap1\n      jump\t// out\n    tag_17:\n    tag_18:\n      dup1\n      dup3\n      gt\n      iszero\n      tag_19\n      jumpi\n      0x00\n      dup2\n      0x00\n      swap1\n      sstore\n      pop\n      0x01\n      add\n      jump(tag_18)\n    tag_19:\n      pop\n      swap1\n      jump\t// out\n        /* \"#utility.yul\":7:327   */\n    tag_10:\n        /* \"#utility.yul\":51:57   */\n      0x00\n        /* \"#utility.yul\":88:89   */\n      0x02\n        /* \"#utility.yul\":82:86   */\n      dup3\n        /* \"#utility.yul\":78:90   */\n      div\n        /* \"#utility.yul\":68:90   */\n      swap1\n      pop\n        /* \"#utility.yul\":135:136   */\n      0x01\n        /* \"#utility.yul\":129:133   */\n      dup3\n        /* \"#utility.yul\":125:137   */\n      and\n        /* \"#utility.yul\":156:174   */\n      dup1\n        /* \"#utility.yul\":146:227   */\n      tag_22\n      jumpi\n        /* \"#utility.yul\":212:216   */\n      0x7f\n        /* \"#utility.yul\":204:210   */\n      dup3\n        /* \"#utility.yul\":200:217   */\n      and\n        /* \"#utility.yul\":190:217   */\n      swap2\n      pop\n        /* \"#utility.yul\":146:227   */\n    tag_22:\n        /* \"#utility.yul\":274:276   */\n      0x20\n        /* \"#utility.yul\":266:272   */\n      dup3\n        /* \"#utility.yul\":263:277   */\n      lt\n        /* \"#utility.yul\":243:261   */\n      dup2\n        /* \"#utility.yul\":240:278   */\n      eq\n        /* \"#utility.yul\":237:321   */\n      iszero\n      tag_23\n      jumpi\n        /* \"#utility.yul\":293:311   */\n      tag_24\n      tag_25\n      jump\t// in\n    tag_24:\n        /* \"#utility.yul\":237:321   */\n    tag_23:\n        /* \"#utility.yul\":58:327   */\n      pop\n        /* \"#utility.yul\":7:327   */\n      swap2\n      swap1\n      pop\n      jump\t// out\n        /* \"#utility.yul\":333:513   */\n    tag_25:\n        /* \"#utility.yul\":381:458   */\n      0x4e487b7100000000000000000000000000000000000000000000000000000000\n        /* \"#utility.yul\":378:379   */\n      0x00\n        /* \"#utility.yul\":371:459   */\n      mstore\n        /* \"#utility.yul\":478:482   */\n      0x22\n        /* \"#utility.yul\":475:476   */\n      0x04\n        /* \"#utility.yul\":468:483   */\n      mstore\n        /* \"#utility.yul\":502:506   */\n      0x24\n        /* \"#utility.yul\":499:500   */\n      0x00\n        /* \"#utility.yul\":492:507   */\n      revert\n        /* \"contracts/Token.sol\":99:316  contract Token is ERC20Standard {\r... */\n    tag_8:\n      dataSize(sub_0)\n      dup1\n      dataOffset(sub_0)\n      0x00\n      codecopy\n      0x00\n      return\n    stop\n\n    sub_0: assembly {\n            /* \"contracts/Token.sol\":99:316  contract Token is ERC20Standard {\r... */\n          mstore(0x40, 0x80)\n          callvalue\n          dup1\n          iszero\n          tag_1\n          jumpi\n          0x00\n          dup1\n          revert\n        tag_1:\n          pop\n          jumpi(tag_2, lt(calldatasize, 0x04))\n          shr(0xe0, calldataload(0x00))\n          dup1\n          0x40c10f19\n          gt\n          tag_14\n          jumpi\n          dup1\n          0x40c10f19\n          eq\n          tag_8\n          jumpi\n          dup1\n          0x54fd4d50\n          eq\n          tag_9\n          jumpi\n          dup1\n          0x70a08231\n          eq\n          tag_10\n          jumpi\n          dup1\n          0x95d89b41\n          eq\n          tag_11\n          jumpi\n          dup1\n          0xa9059cbb\n          eq\n          tag_12\n          jumpi\n          dup1\n          0xdd62ed3e\n          eq\n          tag_13\n          jumpi\n          jump(tag_2)\n        tag_14:\n          dup1\n          0x06fdde03\n          eq\n          tag_3\n          jumpi\n          dup1\n          0x095ea7b3\n          eq\n          tag_4\n          jumpi\n          dup1\n          0x18160ddd\n          eq\n          tag_5\n          jumpi\n          dup1\n          0x23b872dd\n          eq\n          tag_6\n          jumpi\n          dup1\n          0x313ce567\n          eq\n          tag_7\n          jumpi\n        tag_2:\n          0x00\n          dup1\n          revert\n            /* \"contracts/ERC20Standard.sol\":1005:1023  string public name */\n        tag_3:\n          tag_15\n          tag_16\n          jump\t// in\n        tag_15:\n          mload(0x40)\n          tag_17\n          swap2\n          swap1\n          tag_18\n          jump\t// in\n        tag_17:\n          mload(0x40)\n          dup1\n          swap2\n          sub\n          swap1\n          return\n            /* \"contracts/ERC20Standard.sol\":2227:2379  function  approve(address _spender, uint _value) public {\r... */\n        tag_4:\n          tag_19\n          0x04\n          dup1\n          calldatasize\n          sub\n          dup2\n          add\n          swap1\n          tag_20\n          swap2\n          swap1\n          tag_21\n          jump\t// in\n        tag_20:\n          tag_22\n          jump\t// in\n        tag_19:\n          stop\n            /* \"contracts/ERC20Standard.sol\":975:998  uint public totalSupply */\n        tag_5:\n          tag_23\n          tag_24\n          jump\t// in\n        tag_23:\n          mload(0x40)\n          tag_25\n          swap2\n          swap1\n          tag_26\n          jump\t// in\n        tag_25:\n          mload(0x40)\n          dup1\n          swap2\n          sub\n          swap1\n          return\n            /* \"contracts/ERC20Standard.sol\":1798:2222  function transferFrom(address _from, address _to, uint _value) public {\r... */\n        tag_6:\n          tag_27\n          0x04\n          dup1\n          calldatasize\n          sub\n          dup2\n          add\n          swap1\n          tag_28\n          swap2\n          swap1\n          tag_29\n          jump\t// in\n        tag_28:\n          tag_30\n          jump\t// in\n        tag_27:\n          stop\n            /* \"contracts/ERC20Standard.sol\":1027:1048  uint8 public decimals */\n        tag_7:\n          tag_31\n          tag_32\n          jump\t// in\n        tag_31:\n          mload(0x40)\n          tag_33\n          swap2\n          swap1\n          tag_34\n          jump\t// in\n        tag_33:\n          mload(0x40)\n          dup1\n          swap2\n          sub\n          swap1\n          return\n            /* \"contracts/Token.sol\":256:313  function mint(address addr, uint count) public {\r... */\n        tag_8:\n          tag_35\n          0x04\n          dup1\n          calldatasize\n          sub\n          dup2\n          add\n          swap1\n          tag_36\n          swap2\n          swap1\n          tag_21\n          jump\t// in\n        tag_36:\n          tag_37\n          jump\t// in\n        tag_35:\n          stop\n            /* \"contracts/ERC20Standard.sol\":1076:1097  string public version */\n        tag_9:\n          tag_38\n          tag_39\n          jump\t// in\n        tag_38:\n          mload(0x40)\n          tag_40\n          swap2\n          swap1\n          tag_18\n          jump\t// in\n        tag_40:\n          mload(0x40)\n          dup1\n          swap2\n          sub\n          swap1\n          return\n            /* \"contracts/ERC20Standard.sol\":1345:1448  function balanceOf(address _owner) public view returns (uint balance) {\r... */\n        tag_10:\n          tag_41\n          0x04\n          dup1\n          calldatasize\n          sub\n          dup2\n          add\n          swap1\n          tag_42\n          swap2\n          swap1\n          tag_43\n          jump\t// in\n        tag_42:\n          tag_44\n          jump\t// in\n        tag_41:\n          mload(0x40)\n          tag_45\n          swap2\n          swap1\n          tag_26\n          jump\t// in\n        tag_45:\n          mload(0x40)\n          dup1\n          swap2\n          sub\n          swap1\n          return\n            /* \"contracts/ERC20Standard.sol\":1052:1072  string public symbol */\n        tag_11:\n          tag_46\n          tag_47\n          jump\t// in\n        tag_46:\n          mload(0x40)\n          tag_48\n          swap2\n          swap1\n          tag_18\n          jump\t// in\n        tag_48:\n          mload(0x40)\n          dup1\n          swap2\n          sub\n          swap1\n          return\n            /* \"contracts/ERC20Standard.sol\":1453:1793  function transfer(address _recipient, uint _value) public onlyPayloadSize(2*32) {\r... */\n        tag_12:\n          tag_49\n          0x04\n          dup1\n          calldatasize\n          sub\n          dup2\n          add\n          swap1\n          tag_50\n          swap2\n          swap1\n          tag_21\n          jump\t// in\n        tag_50:\n          tag_51\n          jump\t// in\n        tag_49:\n          stop\n            /* \"contracts/ERC20Standard.sol\":2384:2514  function allowance(address _spender, address _owner) public view returns (uint balance) {\r... */\n        tag_13:\n          tag_52\n          0x04\n          dup1\n          calldatasize\n          sub\n          dup2\n          add\n          swap1\n          tag_53\n          swap2\n          swap1\n          tag_54\n          jump\t// in\n        tag_53:\n          tag_55\n          jump\t// in\n        tag_52:\n          mload(0x40)\n          tag_56\n          swap2\n          swap1\n          tag_26\n          jump\t// in\n        tag_56:\n          mload(0x40)\n          dup1\n          swap2\n          sub\n          swap1\n          return\n            /* \"contracts/ERC20Standard.sol\":1005:1023  string public name */\n        tag_16:\n          0x01\n          dup1\n          sload\n          tag_57\n          swap1\n          tag_58\n          jump\t// in\n        tag_57:\n          dup1\n          0x1f\n          add\n          0x20\n          dup1\n          swap2\n          div\n          mul\n          0x20\n          add\n          mload(0x40)\n          swap1\n          dup2\n          add\n          0x40\n          mstore\n          dup1\n          swap3\n          swap2\n          swap1\n          dup2\n          dup2\n          mstore\n          0x20\n          add\n          dup3\n          dup1\n          sload\n          tag_59\n          swap1\n          tag_58\n          jump\t// in\n        tag_59:\n          dup1\n          iszero\n          tag_60\n          jumpi\n          dup1\n          0x1f\n          lt\n          tag_61\n          jumpi\n          0x0100\n          dup1\n          dup4\n          sload\n          div\n          mul\n          dup4\n          mstore\n          swap2\n          0x20\n          add\n          swap2\n          jump(tag_60)\n        tag_61:\n          dup3\n          add\n          swap2\n          swap1\n          0x00\n          mstore\n          keccak256(0x00, 0x20)\n          swap1\n        tag_62:\n          dup2\n          sload\n          dup2\n          mstore\n          swap1\n          0x01\n          add\n          swap1\n          0x20\n          add\n          dup1\n          dup4\n          gt\n          tag_62\n          jumpi\n          dup3\n          swap1\n          sub\n          0x1f\n          and\n          dup3\n          add\n          swap2\n        tag_60:\n          pop\n          pop\n          pop\n          pop\n          pop\n          dup2\n          jump\t// out\n            /* \"contracts/ERC20Standard.sol\":2227:2379  function  approve(address _spender, uint _value) public {\r... */\n        tag_22:\n            /* \"contracts/ERC20Standard.sol\":2320:2326  _value */\n          dup1\n            /* \"contracts/ERC20Standard.sol\":2288:2295  allowed */\n          0x06\n            /* \"contracts/ERC20Standard.sol\":2288:2307  allowed[msg.sender] */\n          0x00\n            /* \"contracts/ERC20Standard.sol\":2296:2306  msg.sender */\n          caller\n            /* \"contracts/ERC20Standard.sol\":2288:2307  allowed[msg.sender] */\n          0xffffffffffffffffffffffffffffffffffffffff\n          and\n          0xffffffffffffffffffffffffffffffffffffffff\n          and\n          dup2\n          mstore\n          0x20\n          add\n          swap1\n          dup2\n          mstore\n          0x20\n          add\n          0x00\n          keccak256\n            /* \"contracts/ERC20Standard.sol\":2288:2317  allowed[msg.sender][_spender] */\n          0x00\n            /* \"contracts/ERC20Standard.sol\":2308:2316  _spender */\n          dup5\n            /* \"contracts/ERC20Standard.sol\":2288:2317  allowed[msg.sender][_spender] */\n          0xffffffffffffffffffffffffffffffffffffffff\n          and\n          0xffffffffffffffffffffffffffffffffffffffff\n          and\n          dup2\n          mstore\n          0x20\n          add\n          swap1\n          dup2\n          mstore\n          0x20\n          add\n          0x00\n          keccak256\n            /* \"contracts/ERC20Standard.sol\":2288:2326  allowed[msg.sender][_spender] = _value */\n          dup2\n          swap1\n          sstore\n          pop\n            /* \"contracts/ERC20Standard.sol\":2357:2365  _spender */\n          dup2\n            /* \"contracts/ERC20Standard.sol\":2336:2374  Approval(msg.sender, _spender, _value) */\n          0xffffffffffffffffffffffffffffffffffffffff\n          and\n            /* \"contracts/ERC20Standard.sol\":2345:2355  msg.sender */\n          caller\n            /* \"contracts/ERC20Standard.sol\":2336:2374  Approval(msg.sender, _spender, _value) */\n          0xffffffffffffffffffffffffffffffffffffffff\n          and\n          0x8c5be1e5ebec7d5bd14f71427d1e84f3dd0314c0f7b2291e5b200ac8c7c3b925\n            /* \"contracts/ERC20Standard.sol\":2367:2373  _value */\n          dup4\n            /* \"contracts/ERC20Standard.sol\":2336:2374  Approval(msg.sender, _spender, _value) */\n          mload(0x40)\n          tag_64\n          swap2\n          swap1\n          tag_26\n          jump\t// in\n        tag_64:\n          mload(0x40)\n          dup1\n          swap2\n          sub\n          swap1\n          log3\n            /* \"contracts/ERC20Standard.sol\":2227:2379  function  approve(address _spender, uint _value) public {\r... */\n          pop\n          pop\n          jump\t// out\n            /* \"contracts/ERC20Standard.sol\":975:998  uint public totalSupply */\n        tag_24:\n          sload(0x00)\n          dup2\n          jump\t// out\n            /* \"contracts/ERC20Standard.sol\":1798:2222  function transferFrom(address _from, address _to, uint _value) public {\r... */\n        tag_30:\n            /* \"contracts/ERC20Standard.sol\":1903:1909  _value */\n          dup1\n            /* \"contracts/ERC20Standard.sol\":1884:1892  balances */\n          0x05\n            /* \"contracts/ERC20Standard.sol\":1884:1899  balances[_from] */\n          0x00\n            /* \"contracts/ERC20Standard.sol\":1893:1898  _from */\n          dup6\n            /* \"contracts/ERC20Standard.sol\":1884:1899  balances[_from] */\n          0xffffffffffffffffffffffffffffffffffffffff\n          and\n          0xffffffffffffffffffffffffffffffffffffffff\n          and\n          dup2\n          mstore\n          0x20\n          add\n          swap1\n          dup2\n          mstore\n          0x20\n          add\n          0x00\n          keccak256\n          sload\n            /* \"contracts/ERC20Standard.sol\":1884:1909  balances[_from] >= _value */\n          lt\n          iszero\n            /* \"contracts/ERC20Standard.sol\":1884:1949  balances[_from] >= _value && allowed[_from][msg.sender] >= _value */\n          dup1\n          iszero\n          tag_66\n          jumpi\n          pop\n            /* \"contracts/ERC20Standard.sol\":1943:1949  _value */\n          dup1\n            /* \"contracts/ERC20Standard.sol\":1913:1920  allowed */\n          0x06\n            /* \"contracts/ERC20Standard.sol\":1913:1927  allowed[_from] */\n          0x00\n            /* \"contracts/ERC20Standard.sol\":1921:1926  _from */\n          dup6\n            /* \"contracts/ERC20Standard.sol\":1913:1927  allowed[_from] */\n          0xffffffffffffffffffffffffffffffffffffffff\n          and\n          0xffffffffffffffffffffffffffffffffffffffff\n          and\n          dup2\n          mstore\n          0x20\n          add\n          swap1\n          dup2\n          mstore\n          0x20\n          add\n          0x00\n          keccak256\n            /* \"contracts/ERC20Standard.sol\":1913:1939  allowed[_from][msg.sender] */\n          0x00\n            /* \"contracts/ERC20Standard.sol\":1928:1938  msg.sender */\n          caller\n            /* \"contracts/ERC20Standard.sol\":1913:1939  allowed[_from][msg.sender] */\n          0xffffffffffffffffffffffffffffffffffffffff\n          and\n          0xffffffffffffffffffffffffffffffffffffffff\n          and\n          dup2\n          mstore\n          0x20\n          add\n          swap1\n          dup2\n          mstore\n          0x20\n          add\n          0x00\n          keccak256\n          sload\n            /* \"contracts/ERC20Standard.sol\":1913:1949  allowed[_from][msg.sender] >= _value */\n          lt\n          iszero\n            /* \"contracts/ERC20Standard.sol\":1884:1949  balances[_from] >= _value && allowed[_from][msg.sender] >= _value */\n        tag_66:\n            /* \"contracts/ERC20Standard.sol\":1884:1963  balances[_from] >= _value && allowed[_from][msg.sender] >= _value && _value > 0 */\n          dup1\n          iszero\n          tag_67\n          jumpi\n          pop\n            /* \"contracts/ERC20Standard.sol\":1962:1963  0 */\n          0x00\n            /* \"contracts/ERC20Standard.sol\":1953:1959  _value */\n          dup2\n            /* \"contracts/ERC20Standard.sol\":1953:1963  _value > 0 */\n          gt\n            /* \"contracts/ERC20Standard.sol\":1884:1963  balances[_from] >= _value && allowed[_from][msg.sender] >= _value && _value > 0 */\n        tag_67:\n            /* \"contracts/ERC20Standard.sol\":1876:1964  require(balances[_from] >= _value && allowed[_from][msg.sender] >= _value && _value > 0) */\n          tag_68\n          jumpi\n          0x00\n          dup1\n          revert\n        tag_68:\n            /* \"contracts/ERC20Standard.sol\":1995:2020  balances[_to].add(_value) */\n          tag_69\n            /* \"contracts/ERC20Standard.sol\":2013:2019  _value */\n          dup2\n            /* \"contracts/ERC20Standard.sol\":1995:2003  balances */\n          0x05\n            /* \"contracts/ERC20Standard.sol\":1995:2008  balances[_to] */\n          0x00\n            /* \"contracts/ERC20Standard.sol\":2004:2007  _to */\n          dup6\n            /* \"contracts/ERC20Standard.sol\":1995:2008  balances[_to] */\n          0xffffffffffffffffffffffffffffffffffffffff\n          and\n          0xffffffffffffffffffffffffffffffffffffffff\n          and\n          dup2\n          mstore\n          0x20\n          add\n          swap1\n          dup2\n          mstore\n          0x20\n          add\n          0x00\n          keccak256\n          sload\n            /* \"contracts/ERC20Standard.sol\":1995:2012  balances[_to].add */\n          tag_70\n          swap1\n            /* \"contracts/ERC20Standard.sol\":1995:2020  balances[_to].add(_value) */\n          swap2\n          swap1\n          0xffffffff\n          and\n          jump\t// in\n        tag_69:\n            /* \"contracts/ERC20Standard.sol\":1979:1987  balances */\n          0x05\n            /* \"contracts/ERC20Standard.sol\":1979:1992  balances[_to] */\n          0x00\n            /* \"contracts/ERC20Standard.sol\":1988:1991  _to */\n          dup5\n            /* \"contracts/ERC20Standard.sol\":1979:1992  balances[_to] */\n          0xffffffffffffffffffffffffffffffffffffffff\n          and\n          0xffffffffffffffffffffffffffffffffffffffff\n          and\n          dup2\n          mstore\n          0x20\n          add\n          swap1\n          dup2\n          mstore\n          0x20\n          add\n          0x00\n          keccak256\n            /* \"contracts/ERC20Standard.sol\":1979:2020  balances[_to] = balances[_to].add(_value) */\n          dup2\n          swap1\n          sstore\n          pop\n            /* \"contracts/ERC20Standard.sol\":2053:2080  balances[_from].sub(_value) */\n          tag_71\n            /* \"contracts/ERC20Standard.sol\":2073:2079  _value */\n          dup2\n            /* \"contracts/ERC20Standard.sol\":2053:2061  balances */\n          0x05\n            /* \"contracts/ERC20Standard.sol\":2053:2068  balances[_from] */\n          0x00\n            /* \"contracts/ERC20Standard.sol\":2062:2067  _from */\n          dup7\n            /* \"contracts/ERC20Standard.sol\":2053:2068  balances[_from] */\n          0xffffffffffffffffffffffffffffffffffffffff\n          and\n          0xffffffffffffffffffffffffffffffffffffffff\n          and\n          dup2\n          mstore\n          0x20\n          add\n          swap1\n          dup2\n          mstore\n          0x20\n          add\n          0x00\n          keccak256\n          sload\n            /* \"contracts/ERC20Standard.sol\":2053:2072  balances[_from].sub */\n          tag_72\n          swap1\n            /* \"contracts/ERC20Standard.sol\":2053:2080  balances[_from].sub(_value) */\n          swap2\n          swap1\n          0xffffffff\n          and\n          jump\t// in\n        tag_71:\n            /* \"contracts/ERC20Standard.sol\":2035:2043  balances */\n          0x05\n            /* \"contracts/ERC20Standard.sol\":2035:2050  balances[_from] */\n          0x00\n            /* \"contracts/ERC20Standard.sol\":2044:2049  _from */\n          dup6\n            /* \"contracts/ERC20Standard.sol\":2035:2050  balances[_from] */\n          0xffffffffffffffffffffffffffffffffffffffff\n          and\n          0xffffffffffffffffffffffffffffffffffffffff\n          and\n          dup2\n          mstore\n          0x20\n          add\n          swap1\n          dup2\n          mstore\n          0x20\n          add\n          0x00\n          keccak256\n            /* \"contracts/ERC20Standard.sol\":2035:2080  balances[_from] = balances[_from].sub(_value) */\n          dup2\n          swap1\n          sstore\n          pop\n            /* \"contracts/ERC20Standard.sol\":2124:2162  allowed[_from][msg.sender].sub(_value) */\n          tag_73\n            /* \"contracts/ERC20Standard.sol\":2155:2161  _value */\n          dup2\n            /* \"contracts/ERC20Standard.sol\":2124:2131  allowed */\n          0x06\n            /* \"contracts/ERC20Standard.sol\":2124:2138  allowed[_from] */\n          0x00\n            /* \"contracts/ERC20Standard.sol\":2132:2137  _from */\n          dup7\n            /* \"contracts/ERC20Standard.sol\":2124:2138  allowed[_from] */\n          0xffffffffffffffffffffffffffffffffffffffff\n          and\n          0xffffffffffffffffffffffffffffffffffffffff\n          and\n          dup2\n          mstore\n          0x20\n          add\n          swap1\n          dup2\n          mstore\n          0x20\n          add\n          0x00\n          keccak256\n            /* \"contracts/ERC20Standard.sol\":2124:2150  allowed[_from][msg.sender] */\n          0x00\n            /* \"contracts/ERC20Standard.sol\":2139:2149  msg.sender */\n          caller\n            /* \"contracts/ERC20Standard.sol\":2124:2150  allowed[_from][msg.sender] */\n          0xffffffffffffffffffffffffffffffffffffffff\n          and\n          0xffffffffffffffffffffffffffffffffffffffff\n          and\n          dup2\n          mstore\n          0x20\n          add\n          swap1\n          dup2\n          mstore\n          0x20\n          add\n          0x00\n          keccak256\n          sload\n            /* \"contracts/ERC20Standard.sol\":2124:2154  allowed[_from][msg.sender].sub */\n          tag_72\n          swap1\n            /* \"contracts/ERC20Standard.sol\":2124:2162  allowed[_from][msg.sender].sub(_value) */\n          swap2\n          swap1\n          0xffffffff\n          and\n          jump\t// in\n        tag_73:\n            /* \"contracts/ERC20Standard.sol\":2095:2102  allowed */\n          0x06\n            /* \"contracts/ERC20Standard.sol\":2095:2109  allowed[_from] */\n          0x00\n            /* \"contracts/ERC20Standard.sol\":2103:2108  _from */\n          dup6\n            /* \"contracts/ERC20Standard.sol\":2095:2109  allowed[_from] */\n          0xffffffffffffffffffffffffffffffffffffffff\n          and\n          0xffffffffffffffffffffffffffffffffffffffff\n          and\n          dup2\n          mstore\n          0x20\n          add\n          swap1\n          dup2\n          mstore\n          0x20\n          add\n          0x00\n          keccak256\n            /* \"contracts/ERC20Standard.sol\":2095:2121  allowed[_from][msg.sender] */\n          0x00\n            /* \"contracts/ERC20Standard.sol\":2110:2120  msg.sender */\n          caller\n            /* \"contracts/ERC20Standard.sol\":2095:2121  allowed[_from][msg.sender] */\n          0xffffffffffffffffffffffffffffffffffffffff\n          and\n          0xffffffffffffffffffffffffffffffffffffffff\n          and\n          dup2\n          mstore\n          0x20\n          add\n          swap1\n          dup2\n          mstore\n          0x20\n          add\n          0x00\n          keccak256\n            /* \"contracts/ERC20Standard.sol\":2095:2162  allowed[_from][msg.sender] = allowed[_from][msg.sender].sub(_value) */\n          dup2\n          swap1\n          sstore\n          pop\n            /* \"contracts/ERC20Standard.sol\":2198:2201  _to */\n          dup2\n            /* \"contracts/ERC20Standard.sol\":2182:2210  Transfer(_from, _to, _value) */\n          0xffffffffffffffffffffffffffffffffffffffff\n          and\n            /* \"contracts/ERC20Standard.sol\":2191:2196  _from */\n          dup4\n            /* \"contracts/ERC20Standard.sol\":2182:2210  Transfer(_from, _to, _value) */\n          0xffffffffffffffffffffffffffffffffffffffff\n          and\n          0xddf252ad1be2c89b69c2b068fc378daa952ba7f163c4a11628f55a4df523b3ef\n            /* \"contracts/ERC20Standard.sol\":2203:2209  _value */\n          dup4\n            /* \"contracts/ERC20Standard.sol\":2182:2210  Transfer(_from, _to, _value) */\n          mload(0x40)\n          tag_74\n          swap2\n          swap1\n          tag_26\n          jump\t// in\n        tag_74:\n          mload(0x40)\n          dup1\n          swap2\n          sub\n          swap1\n          log3\n            /* \"contracts/ERC20Standard.sol\":1798:2222  function transferFrom(address _from, address _to, uint _value) public {\r... */\n          pop\n          pop\n          pop\n          jump\t// out\n            /* \"contracts/ERC20Standard.sol\":1027:1048  uint8 public decimals */\n        tag_32:\n          0x02\n          0x00\n          swap1\n          sload\n          swap1\n          0x0100\n          exp\n          swap1\n          div\n          0xff\n          and\n          dup2\n          jump\t// out\n            /* \"contracts/Token.sol\":256:313  function mint(address addr, uint count) public {\r... */\n        tag_37:\n          pop\n          pop\n          jump\t// out\n            /* \"contracts/ERC20Standard.sol\":1076:1097  string public version */\n        tag_39:\n          0x04\n          dup1\n          sload\n          tag_76\n          swap1\n          tag_58\n          jump\t// in\n        tag_76:\n          dup1\n          0x1f\n          add\n          0x20\n          dup1\n          swap2\n          div\n          mul\n          0x20\n          add\n          mload(0x40)\n          swap1\n          dup2\n          add\n          0x40\n          mstore\n          dup1\n          swap3\n          swap2\n          swap1\n          dup2\n          dup2\n          mstore\n          0x20\n          add\n          dup3\n          dup1\n          sload\n          tag_77\n          swap1\n          tag_58\n          jump\t// in\n        tag_77:\n          dup1\n          iszero\n          tag_78\n          jumpi\n          dup1\n          0x1f\n          lt\n          tag_79\n          jumpi\n          0x0100\n          dup1\n          dup4\n          sload\n          div\n          mul\n          dup4\n          mstore\n          swap2\n          0x20\n          add\n          swap2\n          jump(tag_78)\n        tag_79:\n          dup3\n          add\n          swap2\n          swap1\n          0x00\n          mstore\n          keccak256(0x00, 0x20)\n          swap1\n        tag_80:\n          dup2\n          sload\n          dup2\n          mstore\n          swap1\n          0x01\n          add\n          swap1\n          0x20\n          add\n          dup1\n          dup4\n          gt\n          tag_80\n          jumpi\n          dup3\n          swap1\n          sub\n          0x1f\n          and\n          dup3\n          add\n          swap2\n        tag_78:\n          pop\n          pop\n          pop\n          pop\n          pop\n          dup2\n          jump\t// out\n            /* \"contracts/ERC20Standard.sol\":1345:1448  function balanceOf(address _owner) public view returns (uint balance) {\r... */\n        tag_44:\n            /* \"contracts/ERC20Standard.sol\":1401:1413  uint balance */\n          0x00\n            /* \"contracts/ERC20Standard.sol\":1427:1435  balances */\n          0x05\n            /* \"contracts/ERC20Standard.sol\":1427:1443  balances[_owner] */\n          0x00\n            /* \"contracts/ERC20Standard.sol\":1436:1442  _owner */\n          dup4\n            /* \"contracts/ERC20Standard.sol\":1427:1443  balances[_owner] */\n          0xffffffffffffffffffffffffffffffffffffffff\n          and\n          0xffffffffffffffffffffffffffffffffffffffff\n          and\n          dup2\n          mstore\n          0x20\n          add\n          swap1\n          dup2\n          mstore\n          0x20\n          add\n          0x00\n          keccak256\n          sload\n            /* \"contracts/ERC20Standard.sol\":1420:1443  return balances[_owner] */\n          swap1\n          pop\n            /* \"contracts/ERC20Standard.sol\":1345:1448  function balanceOf(address _owner) public view returns (uint balance) {\r... */\n          swap2\n          swap1\n          pop\n          jump\t// out\n            /* \"contracts/ERC20Standard.sol\":1052:1072  string public symbol */\n        tag_47:\n          0x03\n          dup1\n          sload\n          tag_82\n          swap1\n          tag_58\n          jump\t// in\n        tag_82:\n          dup1\n          0x1f\n          add\n          0x20\n          dup1\n          swap2\n          div\n          mul\n          0x20\n          add\n          mload(0x40)\n          swap1\n          dup2\n          add\n          0x40\n          mstore\n          dup1\n          swap3\n          swap2\n          swap1\n          dup2\n          dup2\n          mstore\n          0x20\n          add\n          dup3\n          dup1\n          sload\n          tag_83\n          swap1\n          tag_58\n          jump\t// in\n        tag_83:\n          dup1\n          iszero\n          tag_84\n          jumpi\n          dup1\n          0x1f\n          lt\n          tag_85\n          jumpi\n          0x0100\n          dup1\n          dup4\n          sload\n          div\n          mul\n          dup4\n          mstore\n          swap2\n          0x20\n          add\n          swap2\n          jump(tag_84)\n        tag_85:\n          dup3\n          add\n          swap2\n          swap1\n          0x00\n          mstore\n          keccak256(0x00, 0x20)\n          swap1\n        tag_86:\n          dup2\n          sload\n          dup2\n          mstore\n          swap1\n          0x01\n          add\n          swap1\n          0x20\n          add\n          dup1\n          dup4\n          gt\n          tag_86\n          jumpi\n          dup3\n          swap1\n          sub\n          0x1f\n          and\n          dup3\n          add\n          swap2\n        tag_84:\n          pop\n          pop\n          pop\n          pop\n          pop\n          dup2\n          jump\t// out\n            /* \"contracts/ERC20Standard.sol\":1453:1793  function transfer(address _recipient, uint _value) public onlyPayloadSize(2*32) {\r... */\n        tag_51:\n            /* \"contracts/ERC20Standard.sol\":1527:1531  2*32 */\n          0x40\n            /* \"contracts/ERC20Standard.sol\":1326:1327  4 */\n          0x04\n            /* \"contracts/ERC20Standard.sol\":1319:1323  size */\n          dup2\n            /* \"contracts/ERC20Standard.sol\":1319:1327  size + 4 */\n          tag_88\n          swap2\n          swap1\n          tag_89\n          jump\t// in\n        tag_88:\n            /* \"contracts/ERC20Standard.sol\":1300:1308  msg.data */\n          0x00\n          calldatasize\n            /* \"contracts/ERC20Standard.sol\":1300:1315  msg.data.length */\n          swap1\n          pop\n            /* \"contracts/ERC20Standard.sol\":1300:1327  msg.data.length == size + 4 */\n          eq\n            /* \"contracts/ERC20Standard.sol\":1293:1328  assert(msg.data.length == size + 4) */\n          tag_90\n          jumpi\n          tag_91\n          tag_92\n          jump\t// in\n        tag_91:\n        tag_90:\n            /* \"contracts/ERC20Standard.sol\":1573:1579  _value */\n          dup2\n            /* \"contracts/ERC20Standard.sol\":1549:1557  balances */\n          0x05\n            /* \"contracts/ERC20Standard.sol\":1549:1569  balances[msg.sender] */\n          0x00\n            /* \"contracts/ERC20Standard.sol\":1558:1568  msg.sender */\n          caller\n            /* \"contracts/ERC20Standard.sol\":1549:1569  balances[msg.sender] */\n          0xffffffffffffffffffffffffffffffffffffffff\n          and\n          0xffffffffffffffffffffffffffffffffffffffff\n          and\n          dup2\n          mstore\n          0x20\n          add\n          swap1\n          dup2\n          mstore\n          0x20\n          add\n          0x00\n          keccak256\n          sload\n            /* \"contracts/ERC20Standard.sol\":1549:1579  balances[msg.sender] >= _value */\n          lt\n          iszero\n            /* \"contracts/ERC20Standard.sol\":1549:1593  balances[msg.sender] >= _value && _value > 0 */\n          dup1\n          iszero\n          tag_94\n          jumpi\n          pop\n            /* \"contracts/ERC20Standard.sol\":1592:1593  0 */\n          0x00\n            /* \"contracts/ERC20Standard.sol\":1583:1589  _value */\n          dup3\n            /* \"contracts/ERC20Standard.sol\":1583:1593  _value > 0 */\n          gt\n            /* \"contracts/ERC20Standard.sol\":1549:1593  balances[msg.sender] >= _value && _value > 0 */\n        tag_94:\n            /* \"contracts/ERC20Standard.sol\":1541:1594  require(balances[msg.sender] >= _value && _value > 0) */\n          tag_95\n          jumpi\n          0x00\n          dup1\n          revert\n        tag_95:\n            /* \"contracts/ERC20Standard.sol\":1625:1657  balances[msg.sender].sub(_value) */\n          tag_96\n            /* \"contracts/ERC20Standard.sol\":1650:1656  _value */\n          dup3\n            /* \"contracts/ERC20Standard.sol\":1625:1633  balances */\n          0x05\n            /* \"contracts/ERC20Standard.sol\":1625:1645  balances[msg.sender] */\n          0x00\n            /* \"contracts/ERC20Standard.sol\":1634:1644  msg.sender */\n          caller\n            /* \"contracts/ERC20Standard.sol\":1625:1645  balances[msg.sender] */\n          0xffffffffffffffffffffffffffffffffffffffff\n          and\n          0xffffffffffffffffffffffffffffffffffffffff\n          and\n          dup2\n          mstore\n          0x20\n          add\n          swap1\n          dup2\n          mstore\n          0x20\n          add\n          0x00\n          keccak256\n          sload\n            /* \"contracts/ERC20Standard.sol\":1625:1649  balances[msg.sender].sub */\n          tag_72\n          swap1\n            /* \"contracts/ERC20Standard.sol\":1625:1657  balances[msg.sender].sub(_value) */\n          swap2\n          swap1\n          0xffffffff\n          and\n          jump\t// in\n        tag_96:\n            /* \"contracts/ERC20Standard.sol\":1602:1610  balances */\n          0x05\n            /* \"contracts/ERC20Standard.sol\":1602:1622  balances[msg.sender] */\n          0x00\n            /* \"contracts/ERC20Standard.sol\":1611:1621  msg.sender */\n          caller\n            /* \"contracts/ERC20Standard.sol\":1602:1622  balances[msg.sender] */\n          0xffffffffffffffffffffffffffffffffffffffff\n          and\n          0xffffffffffffffffffffffffffffffffffffffff\n          and\n          dup2\n          mstore\n          0x20\n          add\n          swap1\n          dup2\n          mstore\n          0x20\n          add\n          0x00\n          keccak256\n            /* \"contracts/ERC20Standard.sol\":1602:1657  balances[msg.sender] = balances[msg.sender].sub(_value) */\n          dup2\n          swap1\n          sstore\n          pop\n            /* \"contracts/ERC20Standard.sol\":1688:1720  balances[_recipient].add(_value) */\n          tag_97\n            /* \"contracts/ERC20Standard.sol\":1713:1719  _value */\n          dup3\n            /* \"contracts/ERC20Standard.sol\":1688:1696  balances */\n          0x05\n            /* \"contracts/ERC20Standard.sol\":1688:1708  balances[_recipient] */\n          0x00\n            /* \"contracts/ERC20Standard.sol\":1697:1707  _recipient */\n          dup7\n            /* \"contracts/ERC20Standard.sol\":1688:1708  balances[_recipient] */\n          0xffffffffffffffffffffffffffffffffffffffff\n          and\n          0xffffffffffffffffffffffffffffffffffffffff\n          and\n          dup2\n          mstore\n          0x20\n          add\n          swap1\n          dup2\n          mstore\n          0x20\n          add\n          0x00\n          keccak256\n          sload\n            /* \"contracts/ERC20Standard.sol\":1688:1712  balances[_recipient].add */\n          tag_70\n          swap1\n            /* \"contracts/ERC20Standard.sol\":1688:1720  balances[_recipient].add(_value) */\n          swap2\n          swap1\n          0xffffffff\n          and\n          jump\t// in\n        tag_97:\n            /* \"contracts/ERC20Standard.sol\":1665:1673  balances */\n          0x05\n            /* \"contracts/ERC20Standard.sol\":1665:1685  balances[_recipient] */\n          0x00\n            /* \"contracts/ERC20Standard.sol\":1674:1684  _recipient */\n          dup6\n            /* \"contracts/ERC20Standard.sol\":1665:1685  balances[_recipient] */\n          0xffffffffffffffffffffffffffffffffffffffff\n          and\n          0xffffffffffffffffffffffffffffffffffffffff\n          and\n          dup2\n          mstore\n          0x20\n          add\n          swap1\n          dup2\n          mstore\n          0x20\n          add\n          0x00\n          keccak256\n            /* \"contracts/ERC20Standard.sol\":1665:1720  balances[_recipient] = balances[_recipient].add(_value) */\n          dup2\n          swap1\n          sstore\n          pop\n            /* \"contracts/ERC20Standard.sol\":1754:1764  _recipient */\n          dup3\n            /* \"contracts/ERC20Standard.sol\":1733:1773  Transfer(msg.sender, _recipient, _value) */\n          0xffffffffffffffffffffffffffffffffffffffff\n          and\n            /* \"contracts/ERC20Standard.sol\":1742:1752  msg.sender */\n          caller\n            /* \"contracts/ERC20Standard.sol\":1733:1773  Transfer(msg.sender, _recipient, _value) */\n          0xffffffffffffffffffffffffffffffffffffffff\n          and\n          0xddf252ad1be2c89b69c2b068fc378daa952ba7f163c4a11628f55a4df523b3ef\n            /* \"contracts/ERC20Standard.sol\":1766:1772  _value */\n          dup5\n            /* \"contracts/ERC20Standard.sol\":1733:1773  Transfer(msg.sender, _recipient, _value) */\n          mload(0x40)\n          tag_98\n          swap2\n          swap1\n          tag_26\n          jump\t// in\n        tag_98:\n          mload(0x40)\n          dup1\n          swap2\n          sub\n          swap1\n          log3\n            /* \"contracts/ERC20Standard.sol\":1453:1793  function transfer(address _recipient, uint _value) public onlyPayloadSize(2*32) {\r... */\n          pop\n          pop\n          pop\n          jump\t// out\n            /* \"contracts/ERC20Standard.sol\":2384:2514  function allowance(address _spender, address _owner) public view returns (uint balance) {\r... */\n        tag_55:\n            /* \"contracts/ERC20Standard.sol\":2458:2470  uint balance */\n          0x00\n            /* \"contracts/ERC20Standard.sol\":2484:2491  allowed */\n          0x06\n            /* \"contracts/ERC20Standard.sol\":2484:2499  allowed[_owner] */\n          0x00\n            /* \"contracts/ERC20Standard.sol\":2492:2498  _owner */\n          dup4\n            /* \"contracts/ERC20Standard.sol\":2484:2499  allowed[_owner] */\n          0xffffffffffffffffffffffffffffffffffffffff\n          and\n          0xffffffffffffffffffffffffffffffffffffffff\n          and\n          dup2\n          mstore\n          0x20\n          add\n          swap1\n          dup2\n          mstore\n          0x20\n          add\n          0x00\n          keccak256\n            /* \"contracts/ERC20Standard.sol\":2484:2509  allowed[_owner][_spender] */\n          0x00\n            /* \"contracts/ERC20Standard.sol\":2500:2508  _spender */\n          dup5\n            /* \"contracts/ERC20Standard.sol\":2484:2509  allowed[_owner][_spender] */\n          0xffffffffffffffffffffffffffffffffffffffff\n          and\n          0xffffffffffffffffffffffffffffffffffffffff\n          and\n          dup2\n          mstore\n          0x20\n          add\n          swap1\n          dup2\n          mstore\n          0x20\n          add\n          0x00\n          keccak256\n          sload\n            /* \"contracts/ERC20Standard.sol\":2477:2509  return allowed[_owner][_spender] */\n          swap1\n          pop\n            /* \"contracts/ERC20Standard.sol\":2384:2514  function allowance(address _spender, address _owner) public view returns (uint balance) {\r... */\n          swap3\n          swap2\n          pop\n          pop\n          jump\t// out\n            /* \"contracts/ERC20Standard.sol\":629:779  function add(uint256 a, uint256 b) internal pure returns (uint256) {\r... */\n        tag_70:\n            /* \"contracts/ERC20Standard.sol\":687:694  uint256 */\n          0x00\n            /* \"contracts/ERC20Standard.sol\":707:716  uint256 c */\n          dup1\n            /* \"contracts/ERC20Standard.sol\":723:724  b */\n          dup3\n            /* \"contracts/ERC20Standard.sol\":719:720  a */\n          dup5\n            /* \"contracts/ERC20Standard.sol\":719:724  a + b */\n          tag_101\n          swap2\n          swap1\n          tag_89\n          jump\t// in\n        tag_101:\n            /* \"contracts/ERC20Standard.sol\":707:724  uint256 c = a + b */\n          swap1\n          pop\n            /* \"contracts/ERC20Standard.sol\":748:749  a */\n          dup4\n            /* \"contracts/ERC20Standard.sol\":743:744  c */\n          dup2\n            /* \"contracts/ERC20Standard.sol\":743:749  c >= a */\n          lt\n          iszero\n            /* \"contracts/ERC20Standard.sol\":735:750  require(c >= a) */\n          tag_102\n          jumpi\n          0x00\n          dup1\n          revert\n        tag_102:\n            /* \"contracts/ERC20Standard.sol\":770:771  c */\n          dup1\n            /* \"contracts/ERC20Standard.sol\":763:771  return c */\n          swap2\n          pop\n          pop\n            /* \"contracts/ERC20Standard.sol\":629:779  function add(uint256 a, uint256 b) internal pure returns (uint256) {\r... */\n          swap3\n          swap2\n          pop\n          pop\n          jump\t// out\n            /* \"contracts/ERC20Standard.sol\":471:621  function sub(uint256 a, uint256 b) internal pure returns (uint256) {\r... */\n        tag_72:\n            /* \"contracts/ERC20Standard.sol\":529:536  uint256 */\n          0x00\n            /* \"contracts/ERC20Standard.sol\":562:563  a */\n          dup3\n            /* \"contracts/ERC20Standard.sol\":557:558  b */\n          dup3\n            /* \"contracts/ERC20Standard.sol\":557:563  b <= a */\n          gt\n          iszero\n            /* \"contracts/ERC20Standard.sol\":549:564  require(b <= a) */\n          tag_104\n          jumpi\n          0x00\n          dup1\n          revert\n        tag_104:\n            /* \"contracts/ERC20Standard.sol\":575:584  uint256 c */\n          0x00\n            /* \"contracts/ERC20Standard.sol\":591:592  b */\n          dup3\n            /* \"contracts/ERC20Standard.sol\":587:588  a */\n          dup5\n            /* \"contracts/ERC20Standard.sol\":587:592  a - b */\n          tag_105\n          swap2\n          swap1\n          tag_106\n          jump\t// in\n        tag_105:\n            /* \"contracts/ERC20Standard.sol\":575:592  uint256 c = a - b */\n          swap1\n          pop\n            /* \"contracts/ERC20Standard.sol\":612:613  c */\n          dup1\n            /* \"contracts/ERC20Standard.sol\":605:613  return c */\n          swap2\n          pop\n          pop\n            /* \"contracts/ERC20Standard.sol\":471:621  function sub(uint256 a, uint256 b) internal pure returns (uint256) {\r... */\n          swap3\n          swap2\n          pop\n          pop\n          jump\t// out\n            /* \"#utility.yul\":7:146   */\n        tag_108:\n            /* \"#utility.yul\":53:58   */\n          0x00\n            /* \"#utility.yul\":91:97   */\n          dup2\n            /* \"#utility.yul\":78:98   */\n          calldataload\n            /* \"#utility.yul\":69:98   */\n          swap1\n          pop\n            /* \"#utility.yul\":107:140   */\n          tag_110\n            /* \"#utility.yul\":134:139   */\n          dup2\n            /* \"#utility.yul\":107:140   */\n          tag_111\n          jump\t// in\n        tag_110:\n            /* \"#utility.yul\":7:146   */\n          swap3\n          swap2\n          pop\n          pop\n          jump\t// out\n            /* \"#utility.yul\":152:291   */\n        tag_112:\n            /* \"#utility.yul\":198:203   */\n          0x00\n            /* \"#utility.yul\":236:242   */\n          dup2\n            /* \"#utility.yul\":223:243   */\n          calldataload\n            /* \"#utility.yul\":214:243   */\n          swap1\n          pop\n            /* \"#utility.yul\":252:285   */\n          tag_114\n            /* \"#utility.yul\":279:284   */\n          dup2\n            /* \"#utility.yul\":252:285   */\n          tag_115\n          jump\t// in\n        tag_114:\n            /* \"#utility.yul\":152:291   */\n          swap3\n          swap2\n          pop\n          pop\n          jump\t// out\n            /* \"#utility.yul\":297:626   */\n        tag_43:\n            /* \"#utility.yul\":356:362   */\n          0x00\n            /* \"#utility.yul\":405:407   */\n          0x20\n            /* \"#utility.yul\":393:402   */\n          dup3\n            /* \"#utility.yul\":384:391   */\n          dup5\n            /* \"#utility.yul\":380:403   */\n          sub\n            /* \"#utility.yul\":376:408   */\n          slt\n            /* \"#utility.yul\":373:492   */\n          iszero\n          tag_117\n          jumpi\n            /* \"#utility.yul\":411:490   */\n          tag_118\n          tag_119\n          jump\t// in\n        tag_118:\n            /* \"#utility.yul\":373:492   */\n        tag_117:\n            /* \"#utility.yul\":531:532   */\n          0x00\n            /* \"#utility.yul\":556:609   */\n          tag_120\n            /* \"#utility.yul\":601:608   */\n          dup5\n            /* \"#utility.yul\":592:598   */\n          dup3\n            /* \"#utility.yul\":581:590   */\n          dup6\n            /* \"#utility.yul\":577:599   */\n          add\n            /* \"#utility.yul\":556:609   */\n          tag_108\n          jump\t// in\n        tag_120:\n            /* \"#utility.yul\":546:609   */\n          swap2\n          pop\n            /* \"#utility.yul\":502:619   */\n          pop\n            /* \"#utility.yul\":297:626   */\n          swap3\n          swap2\n          pop\n          pop\n          jump\t// out\n            /* \"#utility.yul\":632:1106   */\n        tag_54:\n            /* \"#utility.yul\":700:706   */\n          0x00\n            /* \"#utility.yul\":708:714   */\n          dup1\n            /* \"#utility.yul\":757:759   */\n          0x40\n            /* \"#utility.yul\":745:754   */\n          dup4\n            /* \"#utility.yul\":736:743   */\n          dup6\n            /* \"#utility.yul\":732:755   */\n          sub\n            /* \"#utility.yul\":728:760   */\n          slt\n            /* \"#utility.yul\":725:844   */\n          iszero\n          tag_122\n          jumpi\n            /* \"#utility.yul\":763:842   */\n          tag_123\n          tag_119\n          jump\t// in\n        tag_123:\n            /* \"#utility.yul\":725:844   */\n        tag_122:\n            /* \"#utility.yul\":883:884   */\n          0x00\n            /* \"#utility.yul\":908:961   */\n          tag_124\n            /* \"#utility.yul\":953:960   */\n          dup6\n            /* \"#utility.yul\":944:950   */\n          dup3\n            /* \"#utility.yul\":933:942   */\n          dup7\n            /* \"#utility.yul\":929:951   */\n          add\n            /* \"#utility.yul\":908:961   */\n          tag_108\n          jump\t// in\n        tag_124:\n            /* \"#utility.yul\":898:961   */\n          swap3\n          pop\n            /* \"#utility.yul\":854:971   */\n          pop\n            /* \"#utility.yul\":1010:1012   */\n          0x20\n            /* \"#utility.yul\":1036:1089   */\n          tag_125\n            /* \"#utility.yul\":1081:1088   */\n          dup6\n            /* \"#utility.yul\":1072:1078   */\n          dup3\n            /* \"#utility.yul\":1061:1070   */\n          dup7\n            /* \"#utility.yul\":1057:1079   */\n          add\n            /* \"#utility.yul\":1036:1089   */\n          tag_108\n          jump\t// in\n        tag_125:\n            /* \"#utility.yul\":1026:1089   */\n          swap2\n          pop\n            /* \"#utility.yul\":981:1099   */\n          pop\n            /* \"#utility.yul\":632:1106   */\n          swap3\n          pop\n          swap3\n          swap1\n          pop\n          jump\t// out\n            /* \"#utility.yul\":1112:1731   */\n        tag_29:\n            /* \"#utility.yul\":1189:1195   */\n          0x00\n            /* \"#utility.yul\":1197:1203   */\n          dup1\n            /* \"#utility.yul\":1205:1211   */\n          0x00\n            /* \"#utility.yul\":1254:1256   */\n          0x60\n            /* \"#utility.yul\":1242:1251   */\n          dup5\n            /* \"#utility.yul\":1233:1240   */\n          dup7\n            /* \"#utility.yul\":1229:1252   */\n          sub\n            /* \"#utility.yul\":1225:1257   */\n          slt\n            /* \"#utility.yul\":1222:1341   */\n          iszero\n          tag_127\n          jumpi\n            /* \"#utility.yul\":1260:1339   */\n          tag_128\n          tag_119\n          jump\t// in\n        tag_128:\n            /* \"#utility.yul\":1222:1341   */\n        tag_127:\n            /* \"#utility.yul\":1380:1381   */\n          0x00\n            /* \"#utility.yul\":1405:1458   */\n          tag_129\n            /* \"#utility.yul\":1450:1457   */\n          dup7\n            /* \"#utility.yul\":1441:1447   */\n          dup3\n            /* \"#utility.yul\":1430:1439   */\n          dup8\n            /* \"#utility.yul\":1426:1448   */\n          add\n            /* \"#utility.yul\":1405:1458   */\n          tag_108\n          jump\t// in\n        tag_129:\n            /* \"#utility.yul\":1395:1458   */\n          swap4\n          pop\n            /* \"#utility.yul\":1351:1468   */\n          pop\n            /* \"#utility.yul\":1507:1509   */\n          0x20\n            /* \"#utility.yul\":1533:1586   */\n          tag_130\n            /* \"#utility.yul\":1578:1585   */\n          dup7\n            /* \"#utility.yul\":1569:1575   */\n          dup3\n            /* \"#utility.yul\":1558:1567   */\n          dup8\n            /* \"#utility.yul\":1554:1576   */\n          add\n            /* \"#utility.yul\":1533:1586   */\n          tag_108\n          jump\t// in\n        tag_130:\n            /* \"#utility.yul\":1523:1586   */\n          swap3\n          pop\n            /* \"#utility.yul\":1478:1596   */\n          pop\n            /* \"#utility.yul\":1635:1637   */\n          0x40\n            /* \"#utility.yul\":1661:1714   */\n          tag_131\n            /* \"#utility.yul\":1706:1713   */\n          dup7\n            /* \"#utility.yul\":1697:1703   */\n          dup3\n            /* \"#utility.yul\":1686:1695   */\n          dup8\n            /* \"#utility.yul\":1682:1704   */\n          add\n            /* \"#utility.yul\":1661:1714   */\n          tag_112\n          jump\t// in\n        tag_131:\n            /* \"#utility.yul\":1651:1714   */\n          swap2\n          pop\n            /* \"#utility.yul\":1606:1724   */\n          pop\n            /* \"#utility.yul\":1112:1731   */\n          swap3\n          pop\n          swap3\n          pop\n          swap3\n          jump\t// out\n            /* \"#utility.yul\":1737:2211   */\n        tag_21:\n            /* \"#utility.yul\":1805:1811   */\n          0x00\n            /* \"#utility.yul\":1813:1819   */\n          dup1\n            /* \"#utility.yul\":1862:1864   */\n          0x40\n            /* \"#utility.yul\":1850:1859   */\n          dup4\n            /* \"#utility.yul\":1841:1848   */\n          dup6\n            /* \"#utility.yul\":1837:1860   */\n          sub\n            /* \"#utility.yul\":1833:1865   */\n          slt\n            /* \"#utility.yul\":1830:1949   */\n          iszero\n          tag_133\n          jumpi\n            /* \"#utility.yul\":1868:1947   */\n          tag_134\n          tag_119\n          jump\t// in\n        tag_134:\n            /* \"#utility.yul\":1830:1949   */\n        tag_133:\n            /* \"#utility.yul\":1988:1989   */\n          0x00\n            /* \"#utility.yul\":2013:2066   */\n          tag_135\n            /* \"#utility.yul\":2058:2065   */\n          dup6\n            /* \"#utility.yul\":2049:2055   */\n          dup3\n            /* \"#utility.yul\":2038:2047   */\n          dup7\n            /* \"#utility.yul\":2034:2056   */\n          add\n            /* \"#utility.yul\":2013:2066   */\n          tag_108\n          jump\t// in\n        tag_135:\n            /* \"#utility.yul\":2003:2066   */\n          swap3\n          pop\n            /* \"#utility.yul\":1959:2076   */\n          pop\n            /* \"#utility.yul\":2115:2117   */\n          0x20\n            /* \"#utility.yul\":2141:2194   */\n          tag_136\n            /* \"#utility.yul\":2186:2193   */\n          dup6\n            /* \"#utility.yul\":2177:2183   */\n          dup3\n            /* \"#utility.yul\":2166:2175   */\n          dup7\n            /* \"#utility.yul\":2162:2184   */\n          add\n            /* \"#utility.yul\":2141:2194   */\n          tag_112\n          jump\t// in\n        tag_136:\n            /* \"#utility.yul\":2131:2194   */\n          swap2\n          pop\n            /* \"#utility.yul\":2086:2204   */\n          pop\n            /* \"#utility.yul\":1737:2211   */\n          swap3\n          pop\n          swap3\n          swap1\n          pop\n          jump\t// out\n            /* \"#utility.yul\":2217:2581   */\n        tag_137:\n            /* \"#utility.yul\":2305:2308   */\n          0x00\n            /* \"#utility.yul\":2333:2372   */\n          tag_139\n            /* \"#utility.yul\":2366:2371   */\n          dup3\n            /* \"#utility.yul\":2333:2372   */\n          tag_140\n          jump\t// in\n        tag_139:\n            /* \"#utility.yul\":2388:2459   */\n          tag_141\n            /* \"#utility.yul\":2452:2458   */\n          dup2\n            /* \"#utility.yul\":2447:2450   */\n          dup6\n            /* \"#utility.yul\":2388:2459   */\n          tag_142\n          jump\t// in\n        tag_141:\n            /* \"#utility.yul\":2381:2459   */\n          swap4\n          pop\n            /* \"#utility.yul\":2468:2520   */\n          tag_143\n            /* \"#utility.yul\":2513:2519   */\n          dup2\n            /* \"#utility.yul\":2508:2511   */\n          dup6\n            /* \"#utility.yul\":2501:2505   */\n          0x20\n            /* \"#utility.yul\":2494:2499   */\n          dup7\n            /* \"#utility.yul\":2490:2506   */\n          add\n            /* \"#utility.yul\":2468:2520   */\n          tag_144\n          jump\t// in\n        tag_143:\n            /* \"#utility.yul\":2545:2574   */\n          tag_145\n            /* \"#utility.yul\":2567:2573   */\n          dup2\n            /* \"#utility.yul\":2545:2574   */\n          tag_146\n          jump\t// in\n        tag_145:\n            /* \"#utility.yul\":2540:2543   */\n          dup5\n            /* \"#utility.yul\":2536:2575   */\n          add\n            /* \"#utility.yul\":2529:2575   */\n          swap2\n          pop\n            /* \"#utility.yul\":2309:2581   */\n          pop\n            /* \"#utility.yul\":2217:2581   */\n          swap3\n          swap2\n          pop\n          pop\n          jump\t// out\n            /* \"#utility.yul\":2587:2705   */\n        tag_147:\n            /* \"#utility.yul\":2674:2698   */\n          tag_149\n            /* \"#utility.yul\":2692:2697   */\n          dup2\n            /* \"#utility.yul\":2674:2698   */\n          tag_150\n          jump\t// in\n        tag_149:\n            /* \"#utility.yul\":2669:2672   */\n          dup3\n            /* \"#utility.yul\":2662:2699   */\n          mstore\n            /* \"#utility.yul\":2587:2705   */\n          pop\n          pop\n          jump\t// out\n            /* \"#utility.yul\":2711:2823   */\n        tag_151:\n            /* \"#utility.yul\":2794:2816   */\n          tag_153\n            /* \"#utility.yul\":2810:2815   */\n          dup2\n            /* \"#utility.yul\":2794:2816   */\n          tag_154\n          jump\t// in\n        tag_153:\n            /* \"#utility.yul\":2789:2792   */\n          dup3\n            /* \"#utility.yul\":2782:2817   */\n          mstore\n            /* \"#utility.yul\":2711:2823   */\n          pop\n          pop\n          jump\t// out\n            /* \"#utility.yul\":2829:3142   */\n        tag_18:\n            /* \"#utility.yul\":2942:2946   */\n          0x00\n            /* \"#utility.yul\":2980:2982   */\n          0x20\n            /* \"#utility.yul\":2969:2978   */\n          dup3\n            /* \"#utility.yul\":2965:2983   */\n          add\n            /* \"#utility.yul\":2957:2983   */\n          swap1\n          pop\n            /* \"#utility.yul\":3029:3038   */\n          dup2\n            /* \"#utility.yul\":3023:3027   */\n          dup2\n            /* \"#utility.yul\":3019:3039   */\n          sub\n            /* \"#utility.yul\":3015:3016   */\n          0x00\n            /* \"#utility.yul\":3004:3013   */\n          dup4\n            /* \"#utility.yul\":3000:3017   */\n          add\n            /* \"#utility.yul\":2993:3040   */\n          mstore\n            /* \"#utility.yul\":3057:3135   */\n          tag_156\n            /* \"#utility.yul\":3130:3134   */\n          dup2\n            /* \"#utility.yul\":3121:3127   */\n          dup5\n            /* \"#utility.yul\":3057:3135   */\n          tag_137\n          jump\t// in\n        tag_156:\n            /* \"#utility.yul\":3049:3135   */\n          swap1\n          pop\n            /* \"#utility.yul\":2829:3142   */\n          swap3\n          swap2\n          pop\n          pop\n          jump\t// out\n            /* \"#utility.yul\":3148:3370   */\n        tag_26:\n            /* \"#utility.yul\":3241:3245   */\n          0x00\n            /* \"#utility.yul\":3279:3281   */\n          0x20\n            /* \"#utility.yul\":3268:3277   */\n          dup3\n            /* \"#utility.yul\":3264:3282   */\n          add\n            /* \"#utility.yul\":3256:3282   */\n          swap1\n          pop\n            /* \"#utility.yul\":3292:3363   */\n          tag_158\n            /* \"#utility.yul\":3360:3361   */\n          0x00\n            /* \"#utility.yul\":3349:3358   */\n          dup4\n            /* \"#utility.yul\":3345:3362   */\n          add\n            /* \"#utility.yul\":3336:3342   */\n          dup5\n            /* \"#utility.yul\":3292:3363   */\n          tag_147\n          jump\t// in\n        tag_158:\n            /* \"#utility.yul\":3148:3370   */\n          swap3\n          swap2\n          pop\n          pop\n          jump\t// out\n            /* \"#utility.yul\":3376:3590   */\n        tag_34:\n            /* \"#utility.yul\":3465:3469   */\n          0x00\n            /* \"#utility.yul\":3503:3505   */\n          0x20\n            /* \"#utility.yul\":3492:3501   */\n          dup3\n            /* \"#utility.yul\":3488:3506   */\n          add\n            /* \"#utility.yul\":3480:3506   */\n          swap1\n          pop\n            /* \"#utility.yul\":3516:3583   */\n          tag_160\n            /* \"#utility.yul\":3580:3581   */\n          0x00\n            /* \"#utility.yul\":3569:3578   */\n          dup4\n            /* \"#utility.yul\":3565:3582   */\n          add\n            /* \"#utility.yul\":3556:3562   */\n          dup5\n            /* \"#utility.yul\":3516:3583   */\n          tag_151\n          jump\t// in\n        tag_160:\n            /* \"#utility.yul\":3376:3590   */\n          swap3\n          swap2\n          pop\n          pop\n          jump\t// out\n            /* \"#utility.yul\":3677:3776   */\n        tag_140:\n            /* \"#utility.yul\":3729:3735   */\n          0x00\n            /* \"#utility.yul\":3763:3768   */\n          dup2\n            /* \"#utility.yul\":3757:3769   */\n          mload\n            /* \"#utility.yul\":3747:3769   */\n          swap1\n          pop\n            /* \"#utility.yul\":3677:3776   */\n          swap2\n          swap1\n          pop\n          jump\t// out\n            /* \"#utility.yul\":3782:3951   */\n        tag_142:\n            /* \"#utility.yul\":3866:3877   */\n          0x00\n            /* \"#utility.yul\":3900:3906   */\n          dup3\n            /* \"#utility.yul\":3895:3898   */\n          dup3\n            /* \"#utility.yul\":3888:3907   */\n          mstore\n            /* \"#utility.yul\":3940:3944   */\n          0x20\n            /* \"#utility.yul\":3935:3938   */\n          dup3\n            /* \"#utility.yul\":3931:3945   */\n          add\n            /* \"#utility.yul\":3916:3945   */\n          swap1\n          pop\n            /* \"#utility.yul\":3782:3951   */\n          swap3\n          swap2\n          pop\n          pop\n          jump\t// out\n            /* \"#utility.yul\":3957:4262   */\n        tag_89:\n            /* \"#utility.yul\":3997:4000   */\n          0x00\n            /* \"#utility.yul\":4016:4036   */\n          tag_166\n            /* \"#utility.yul\":4034:4035   */\n          dup3\n            /* \"#utility.yul\":4016:4036   */\n          tag_150\n          jump\t// in\n        tag_166:\n            /* \"#utility.yul\":4011:4036   */\n          swap2\n          pop\n            /* \"#utility.yul\":4050:4070   */\n          tag_167\n            /* \"#utility.yul\":4068:4069   */\n          dup4\n            /* \"#utility.yul\":4050:4070   */\n          tag_150\n          jump\t// in\n        tag_167:\n            /* \"#utility.yul\":4045:4070   */\n          swap3\n          pop\n            /* \"#utility.yul\":4204:4205   */\n          dup3\n            /* \"#utility.yul\":4136:4202   */\n          0xffffffffffffffffffffffffffffffffffffffffffffffffffffffffffffffff\n            /* \"#utility.yul\":4132:4206   */\n          sub\n            /* \"#utility.yul\":4129:4130   */\n          dup3\n            /* \"#utility.yul\":4126:4207   */\n          gt\n            /* \"#utility.yul\":4123:4230   */\n          iszero\n          tag_168\n          jumpi\n            /* \"#utility.yul\":4210:4228   */\n          tag_169\n          tag_170\n          jump\t// in\n        tag_169:\n            /* \"#utility.yul\":4123:4230   */\n        tag_168:\n            /* \"#utility.yul\":4254:4255   */\n          dup3\n            /* \"#utility.yul\":4251:4252   */\n          dup3\n            /* \"#utility.yul\":4247:4256   */\n          add\n            /* \"#utility.yul\":4240:4256   */\n          swap1\n          pop\n            /* \"#utility.yul\":3957:4262   */\n          swap3\n          swap2\n          pop\n          pop\n          jump\t// out\n            /* \"#utility.yul\":4268:4459   */\n        tag_106:\n            /* \"#utility.yul\":4308:4312   */\n          0x00\n            /* \"#utility.yul\":4328:4348   */\n          tag_172\n            /* \"#utility.yul\":4346:4347   */\n          dup3\n            /* \"#utility.yul\":4328:4348   */\n          tag_150\n          jump\t// in\n        tag_172:\n            /* \"#utility.yul\":4323:4348   */\n          swap2\n          pop\n            /* \"#utility.yul\":4362:4382   */\n          tag_173\n            /* \"#utility.yul\":4380:4381   */\n          dup4\n            /* \"#utility.yul\":4362:4382   */\n          tag_150\n          jump\t// in\n        tag_173:\n            /* \"#utility.yul\":4357:4382   */\n          swap3\n          pop\n            /* \"#utility.yul\":4401:4402   */\n          dup3\n            /* \"#utility.yul\":4398:4399   */\n          dup3\n            /* \"#utility.yul\":4395:4403   */\n          lt\n            /* \"#utility.yul\":4392:4426   */\n          iszero\n          tag_174\n          jumpi\n            /* \"#utility.yul\":4406:4424   */\n          tag_175\n          tag_170\n          jump\t// in\n        tag_175:\n            /* \"#utility.yul\":4392:4426   */\n        tag_174:\n            /* \"#utility.yul\":4451:4452   */\n          dup3\n            /* \"#utility.yul\":4448:4449   */\n          dup3\n            /* \"#utility.yul\":4444:4453   */\n          sub\n            /* \"#utility.yul\":4436:4453   */\n          swap1\n          pop\n            /* \"#utility.yul\":4268:4459   */\n          swap3\n          swap2\n          pop\n          pop\n          jump\t// out\n            /* \"#utility.yul\":4465:4561   */\n        tag_176:\n            /* \"#utility.yul\":4502:4509   */\n          0x00\n            /* \"#utility.yul\":4531:4555   */\n          tag_178\n            /* \"#utility.yul\":4549:4554   */\n          dup3\n            /* \"#utility.yul\":4531:4555   */\n          tag_179\n          jump\t// in\n        tag_178:\n            /* \"#utility.yul\":4520:4555   */\n          swap1\n          pop\n            /* \"#utility.yul\":4465:4561   */\n          swap2\n          swap1\n          pop\n          jump\t// out\n            /* \"#utility.yul\":4567:4693   */\n        tag_179:\n            /* \"#utility.yul\":4604:4611   */\n          0x00\n            /* \"#utility.yul\":4644:4686   */\n          0xffffffffffffffffffffffffffffffffffffffff\n            /* \"#utility.yul\":4637:4642   */\n          dup3\n            /* \"#utility.yul\":4633:4687   */\n          and\n            /* \"#utility.yul\":4622:4687   */\n          swap1\n          pop\n            /* \"#utility.yul\":4567:4693   */\n          swap2\n          swap1\n          pop\n          jump\t// out\n            /* \"#utility.yul\":4699:4776   */\n        tag_150:\n            /* \"#utility.yul\":4736:4743   */\n          0x00\n            /* \"#utility.yul\":4765:4770   */\n          dup2\n            /* \"#utility.yul\":4754:4770   */\n          swap1\n          pop\n            /* \"#utility.yul\":4699:4776   */\n          swap2\n          swap1\n          pop\n          jump\t// out\n            /* \"#utility.yul\":4782:4868   */\n        tag_154:\n            /* \"#utility.yul\":4817:4824   */\n          0x00\n            /* \"#utility.yul\":4857:4861   */\n          0xff\n            /* \"#utility.yul\":4850:4855   */\n          dup3\n            /* \"#utility.yul\":4846:4862   */\n          and\n            /* \"#utility.yul\":4835:4862   */\n          swap1\n          pop\n            /* \"#utility.yul\":4782:4868   */\n          swap2\n          swap1\n          pop\n          jump\t// out\n            /* \"#utility.yul\":4874:5181   */\n        tag_144:\n            /* \"#utility.yul\":4942:4943   */\n          0x00\n            /* \"#utility.yul\":4952:5065   */\n        tag_184:\n            /* \"#utility.yul\":4966:4972   */\n          dup4\n            /* \"#utility.yul\":4963:4964   */\n          dup2\n            /* \"#utility.yul\":4960:4973   */\n          lt\n            /* \"#utility.yul\":4952:5065   */\n          iszero\n          tag_186\n          jumpi\n            /* \"#utility.yul\":5051:5052   */\n          dup1\n            /* \"#utility.yul\":5046:5049   */\n          dup3\n            /* \"#utility.yul\":5042:5053   */\n          add\n            /* \"#utility.yul\":5036:5054   */\n          mload\n            /* \"#utility.yul\":5032:5033   */\n          dup2\n            /* \"#utility.yul\":5027:5030   */\n          dup5\n            /* \"#utility.yul\":5023:5034   */\n          add\n            /* \"#utility.yul\":5016:5055   */\n          mstore\n            /* \"#utility.yul\":4988:4990   */\n          0x20\n            /* \"#utility.yul\":4985:4986   */\n          dup2\n            /* \"#utility.yul\":4981:4991   */\n          add\n            /* \"#utility.yul\":4976:4991   */\n          swap1\n          pop\n            /* \"#utility.yul\":4952:5065   */\n          jump(tag_184)\n        tag_186:\n            /* \"#utility.yul\":5083:5089   */\n          dup4\n            /* \"#utility.yul\":5080:5081   */\n          dup2\n            /* \"#utility.yul\":5077:5090   */\n          gt\n            /* \"#utility.yul\":5074:5175   */\n          iszero\n          tag_187\n          jumpi\n            /* \"#utility.yul\":5163:5164   */\n          0x00\n            /* \"#utility.yul\":5154:5160   */\n          dup5\n            /* \"#utility.yul\":5149:5152   */\n          dup5\n            /* \"#utility.yul\":5145:5161   */\n          add\n            /* \"#utility.yul\":5138:5165   */\n          mstore\n            /* \"#utility.yul\":5074:5175   */\n        tag_187:\n            /* \"#utility.yul\":4923:5181   */\n          pop\n            /* \"#utility.yul\":4874:5181   */\n          pop\n          pop\n          pop\n          jump\t// out\n            /* \"#utility.yul\":5187:5507   */\n        tag_58:\n            /* \"#utility.yul\":5231:5237   */\n          0x00\n            /* \"#utility.yul\":5268:5269   */\n          0x02\n            /* \"#utility.yul\":5262:5266   */\n          dup3\n            /* \"#utility.yul\":5258:5270   */\n          div\n            /* \"#utility.yul\":5248:5270   */\n          swap1\n          pop\n            /* \"#utility.yul\":5315:5316   */\n          0x01\n            /* \"#utility.yul\":5309:5313   */\n          dup3\n            /* \"#utility.yul\":5305:5317   */\n          and\n            /* \"#utility.yul\":5336:5354   */\n          dup1\n            /* \"#utility.yul\":5326:5407   */\n          tag_189\n          jumpi\n            /* \"#utility.yul\":5392:5396   */\n          0x7f\n            /* \"#utility.yul\":5384:5390   */\n          dup3\n            /* \"#utility.yul\":5380:5397   */\n          and\n            /* \"#utility.yul\":5370:5397   */\n          swap2\n          pop\n            /* \"#utility.yul\":5326:5407   */\n        tag_189:\n            /* \"#utility.yul\":5454:5456   */\n          0x20\n            /* \"#utility.yul\":5446:5452   */\n          dup3\n            /* \"#utility.yul\":5443:5457   */\n          lt\n            /* \"#utility.yul\":5423:5441   */\n          dup2\n            /* \"#utility.yul\":5420:5458   */\n          eq\n            /* \"#utility.yul\":5417:5501   */\n          iszero\n          tag_190\n          jumpi\n            /* \"#utility.yul\":5473:5491   */\n          tag_191\n          tag_192\n          jump\t// in\n        tag_191:\n            /* \"#utility.yul\":5417:5501   */\n        tag_190:\n            /* \"#utility.yul\":5238:5507   */\n          pop\n            /* \"#utility.yul\":5187:5507   */\n          swap2\n          swap1\n          pop\n          jump\t// out\n            /* \"#utility.yul\":5513:5693   */\n        tag_92:\n            /* \"#utility.yul\":5561:5638   */\n          0x4e487b7100000000000000000000000000000000000000000000000000000000\n            /* \"#utility.yul\":5558:5559   */\n          0x00\n            /* \"#utility.yul\":5551:5639   */\n          mstore\n            /* \"#utility.yul\":5658:5662   */\n          0x01\n            /* \"#utility.yul\":5655:5656   */\n          0x04\n            /* \"#utility.yul\":5648:5663   */\n          mstore\n            /* \"#utility.yul\":5682:5686   */\n          0x24\n            /* \"#utility.yul\":5679:5680   */\n          0x00\n            /* \"#utility.yul\":5672:5687   */\n          revert\n            /* \"#utility.yul\":5699:5879   */\n        tag_170:\n            /* \"#utility.yul\":5747:5824   */\n          0x4e487b7100000000000000000000000000000000000000000000000000000000\n            /* \"#utility.yul\":5744:5745   */\n          0x00\n            /* \"#utility.yul\":5737:5825   */\n          mstore\n            /* \"#utility.yul\":5844:5848   */\n          0x11\n            /* \"#utility.yul\":5841:5842   */\n          0x04\n            /* \"#utility.yul\":5834:5849   */\n          mstore\n            /* \"#utility.yul\":5868:5872   */\n          0x24\n            /* \"#utility.yul\":5865:5866   */\n          0x00\n            /* \"#utility.yul\":5858:5873   */\n          revert\n            /* \"#utility.yul\":5885:6065   */\n        tag_192:\n            /* \"#utility.yul\":5933:6010   */\n          0x4e487b7100000000000000000000000000000000000000000000000000000000\n            /* \"#utility.yul\":5930:5931   */\n          0x00\n            /* \"#utility.yul\":5923:6011   */\n          mstore\n            /* \"#utility.yul\":6030:6034   */\n          0x22\n            /* \"#utility.yul\":6027:6028   */\n          0x04\n            /* \"#utility.yul\":6020:6035   */\n          mstore\n            /* \"#utility.yul\":6054:6058   */\n          0x24\n            /* \"#utility.yul\":6051:6052   */\n          0x00\n            /* \"#utility.yul\":6044:6059   */\n          revert\n            /* \"#utility.yul\":6194:6311   */\n        tag_119:\n            /* \"#utility.yul\":6303:6304   */\n          0x00\n            /* \"#utility.yul\":6300:6301   */\n          dup1\n            /* \"#utility.yul\":6293:6305   */\n          revert\n            /* \"#utility.yul\":6317:6419   */\n        tag_146:\n            /* \"#utility.yul\":6358:6364   */\n          0x00\n            /* \"#utility.yul\":6409:6411   */\n          0x1f\n            /* \"#utility.yul\":6405:6412   */\n          not\n            /* \"#utility.yul\":6400:6402   */\n          0x1f\n            /* \"#utility.yul\":6393:6398   */\n          dup4\n            /* \"#utility.yul\":6389:6403   */\n          add\n            /* \"#utility.yul\":6385:6413   */\n          and\n            /* \"#utility.yul\":6375:6413   */\n          swap1\n          pop\n            /* \"#utility.yul\":6317:6419   */\n          swap2\n          swap1\n          pop\n          jump\t// out\n            /* \"#utility.yul\":6425:6547   */\n        tag_111:\n            /* \"#utility.yul\":6498:6522   */\n          tag_201\n            /* \"#utility.yul\":6516:6521   */\n          dup2\n            /* \"#utility.yul\":6498:6522   */\n          tag_176\n          jump\t// in\n        tag_201:\n            /* \"#utility.yul\":6491:6496   */\n          dup2\n            /* \"#utility.yul\":6488:6523   */\n          eq\n            /* \"#utility.yul\":6478:6541   */\n          tag_202\n          jumpi\n            /* \"#utility.yul\":6537:6538   */\n          0x00\n            /* \"#utility.yul\":6534:6535   */\n          dup1\n            /* \"#utility.yul\":6527:6539   */\n          revert\n            /* \"#utility.yul\":6478:6541   */\n        tag_202:\n            /* \"#utility.yul\":6425:6547   */\n          pop\n          jump\t// out\n            /* \"#utility.yul\":6553:6675   */\n        tag_115:\n            /* \"#utility.yul\":6626:6650   */\n          tag_204\n            /* \"#utility.yul\":6644:6649   */\n          dup2\n            /* \"#utility.yul\":6626:6650   */\n          tag_150\n          jump\t// in\n        tag_204:\n            /* \"#utility.yul\":6619:6624   */\n          dup2\n            /* \"#utility.yul\":6616:6651   */\n          eq\n            /* \"#utility.yul\":6606:6669   */\n          tag_205\n          jumpi\n            /* \"#utility.yul\":6665:6666   */\n          0x00\n            /* \"#utility.yul\":6662:6663   */\n          dup1\n            /* \"#utility.yul\":6655:6667   */\n          revert\n            /* \"#utility.yul\":6606:6669   */\n        tag_205:\n            /* \"#utility.yul\":6553:6675   */\n          pop\n          jump\t// out\n\n        auxdata: 0xa264697066735822122043f14203fb0f60f4b9062db0ac5531c35471468b89fa8c4c8874bc0a8a5bd93664736f6c63430008070033\n    }\n}\n",
				"bytecode": {
					"linkReferences": {},
					"object": "6080604052604051620000129062000102565b604051809103906000f0801580156200002f573d6000803e3d6000fd5b50600660006101000a81548173ffffffffffffffffffffffffffffffffffffffff021916908373ffffffffffffffffffffffffffffffffffffffff1602179055503480156200007d57600080fd5b5060405162002064380380620020648339818101604052810190620000a391906200013e565b33600560006101000a81548173ffffffffffffffffffffffffffffffffffffffff021916908373ffffffffffffffffffffffffffffffffffffffff160217905550826000819055508160018190555080600281905550505050620001e7565b6111ee8062000e7683390190565b6000815190506200012181620001b3565b92915050565b6000815190506200013881620001cd565b92915050565b6000806000606084860312156200015a5762000159620001ae565b5b60006200016a8682870162000110565b93505060206200017d8682870162000127565b9250506040620001908682870162000127565b9150509250925092565b6000819050919050565b6000819050919050565b600080fd5b620001be816200019a565b8114620001ca57600080fd5b50565b620001d881620001a4565b8114620001e457600080fd5b50565b610c7f80620001f76000396000f3fe608060405234801561001057600080fd5b50600436106100575760003560e01c80633341b4451461005c5780634041ef541461008c5780636dd7d8ea146100bc5780638203373a146100d8578063ea58d968146100f4575b600080fd5b610076600480360381019061007191906107fb565b610110565b60405161008391906109cd565b60405180910390f35b6100a660048036038101906100a191906107fb565b610128565b6040516100b391906109e8565b60405180910390f35b6100d660048036038101906100d191906107fb565b6101dc565b005b6100f260048036038101906100ed9190610828565b6103e4565b005b61010e60048036038101906101099190610871565b6105d5565b005b60046020528060005260406000206000915090505481565b6000600660009054906101000a900473ffffffffffffffffffffffffffffffffffffffff1673ffffffffffffffffffffffffffffffffffffffff166370a08231836040518263ffffffff1660e01b81526004016101859190610952565b60206040518083038186803b15801561019d57600080fd5b505afa1580156101b1573d6000803e3d6000fd5b505050506040513d601f19601f820116820180604052508101906101d591906108e9565b9050919050565b60025442116101ea57600080fd5b600360003373ffffffffffffffffffffffffffffffffffffffff1673ffffffffffffffffffffffffffffffffffffffff16815260200190815260200160002060009054906101000a900460ff1661024057600080fd5b6000600660009054906101000a900473ffffffffffffffffffffffffffffffffffffffff1673ffffffffffffffffffffffffffffffffffffffff166370a08231336040518263ffffffff1660e01b815260040161029d9190610952565b60206040518083038186803b1580156102b557600080fd5b505afa1580156102c9573d6000803e3d6000fd5b505050506040513d601f19601f820116820180604052508101906102ed91906108e9565b146102f757600080fd5b600660009054906101000a900473ffffffffffffffffffffffffffffffffffffffff1673ffffffffffffffffffffffffffffffffffffffff166323b872dd338360016040518463ffffffff1660e01b81526004016103579392919061096d565b600060405180830381600087803b15801561037157600080fd5b505af1158015610385573d6000803e3d6000fd5b505050506001600360003373ffffffffffffffffffffffffffffffffffffffff1673ffffffffffffffffffffffffffffffffffffffff16815260200190815260200160002060006101000a81548160ff02191690831515021790555050565b60005b815181101561051f5760006003600084848151811061040957610408610b81565b5b602002602001015173ffffffffffffffffffffffffffffffffffffffff1673ffffffffffffffffffffffffffffffffffffffff16815260200190815260200160002060006101000a81548160ff021916908315150217905550600660009054906101000a900473ffffffffffffffffffffffffffffffffffffffff1673ffffffffffffffffffffffffffffffffffffffff166340c10f198383815181106104b3576104b2610b81565b5b602002602001015160016040518363ffffffff1660e01b81526004016104da9291906109a4565b600060405180830381600087803b1580156104f457600080fd5b505af1158015610508573d6000803e3d6000fd5b50505050808061051790610b09565b9150506103e7565b50600660009054906101000a900473ffffffffffffffffffffffffffffffffffffffff1673ffffffffffffffffffffffffffffffffffffffff166340c10f19600560009054906101000a900473ffffffffffffffffffffffffffffffffffffffff1660016040518363ffffffff1660e01b81526004016105a09291906109a4565b600060405180830381600087803b1580156105ba57600080fd5b505af11580156105ce573d6000803e3d6000fd5b5050505050565b8051825114156105e457600080fd5b60005b825181101561067b5781818151811061060357610602610b81565b5b60200260200101516004600085848151811061062257610621610b81565b5b602002602001015173ffffffffffffffffffffffffffffffffffffffff1673ffffffffffffffffffffffffffffffffffffffff16815260200190815260200160002081905550808061067390610b09565b9150506105e7565b505050565b600061069361068e84610a28565b610a03565b905080838252602082019050828560208602820111156106b6576106b5610be4565b5b60005b858110156106e657816106cc8882610760565b8452602084019350602083019250506001810190506106b9565b5050509392505050565b60006107036106fe84610a54565b610a03565b9050808382526020820190508285602086028201111561072657610725610be4565b5b60005b85811015610756578161073c88826107d1565b845260208401935060208301925050600181019050610729565b5050509392505050565b60008135905061076f81610c04565b92915050565b600082601f83011261078a57610789610bdf565b5b813561079a848260208601610680565b91505092915050565b600082601f8301126107b8576107b7610bdf565b5b81356107c88482602086016106f0565b91505092915050565b6000813590506107e081610c1b565b92915050565b6000815190506107f581610c32565b92915050565b60006020828403121561081157610810610bee565b5b600061081f84828501610760565b91505092915050565b60006020828403121561083e5761083d610bee565b5b600082013567ffffffffffffffff81111561085c5761085b610be9565b5b61086884828501610775565b91505092915050565b6000806040838503121561088857610887610bee565b5b600083013567ffffffffffffffff8111156108a6576108a5610be9565b5b6108b285828601610775565b925050602083013567ffffffffffffffff8111156108d3576108d2610be9565b5b6108df858286016107a3565b9150509250929050565b6000602082840312156108ff576108fe610bee565b5b600061090d848285016107e6565b91505092915050565b61091f81610a80565b82525050565b61092e81610a92565b82525050565b61093d81610ac6565b82525050565b61094c81610abc565b82525050565b60006020820190506109676000830184610916565b92915050565b60006060820190506109826000830186610916565b61098f6020830185610916565b61099c6040830184610934565b949350505050565b60006040820190506109b96000830185610916565b6109c66020830184610934565b9392505050565b60006020820190506109e26000830184610925565b92915050565b60006020820190506109fd6000830184610943565b92915050565b6000610a0d610a1e565b9050610a198282610ad8565b919050565b6000604051905090565b600067ffffffffffffffff821115610a4357610a42610bb0565b5b602082029050602081019050919050565b600067ffffffffffffffff821115610a6f57610a6e610bb0565b5b602082029050602081019050919050565b6000610a8b82610a9c565b9050919050565b6000819050919050565b600073ffffffffffffffffffffffffffffffffffffffff82169050919050565b6000819050919050565b6000610ad182610abc565b9050919050565b610ae182610bf3565b810181811067ffffffffffffffff82111715610b0057610aff610bb0565b5b80604052505050565b6000610b1482610abc565b91507fffffffffffffffffffffffffffffffffffffffffffffffffffffffffffffffff821415610b4757610b46610b52565b5b600182019050919050565b7f4e487b7100000000000000000000000000000000000000000000000000000000600052601160045260246000fd5b7f4e487b7100000000000000000000000000000000000000000000000000000000600052603260045260246000fd5b7f4e487b7100000000000000000000000000000000000000000000000000000000600052604160045260246000fd5b600080fd5b600080fd5b600080fd5b600080fd5b6000601f19601f8301169050919050565b610c0d81610a80565b8114610c1857600080fd5b50565b610c2481610a92565b8114610c2f57600080fd5b50565b610c3b81610abc565b8114610c4657600080fd5b5056fea2646970667358221220581079a0498fea837f69d3db1e09ce635df9463e631be1fff3c3875a74ab9ab164736f6c6343000807003360806040523480156200001157600080fd5b506040518060400160405280600d81526020017f452d566f74696e6720636f696e00000000000000000000000000000000000000815250600190805190602001906200005f9291906200011e565b506004600260006101000a81548160ff021916908360ff1602179055506040518060400160405280600381526020017f455643000000000000000000000000000000000000000000000000000000000081525060039080519060200190620000c99291906200011e565b506040518060400160405280600381526020017f312e30000000000000000000000000000000000000000000000000000000000081525060049080519060200190620001179291906200011e565b5062000233565b8280546200012c90620001ce565b90600052602060002090601f0160209004810192826200015057600085556200019c565b82601f106200016b57805160ff19168380011785556200019c565b828001600101855582156200019c579182015b828111156200019b5782518255916020019190600101906200017e565b5b509050620001ab9190620001af565b5090565b5b80821115620001ca576000816000905550600101620001b0565b5090565b60006002820490506001821680620001e757607f821691505b60208210811415620001fe57620001fd62000204565b5b50919050565b7f4e487b7100000000000000000000000000000000000000000000000000000000600052602260045260246000fd5b610fab80620002436000396000f3fe608060405234801561001057600080fd5b50600436106100a95760003560e01c806340c10f191161007157806340c10f191461014057806354fd4d501461015c57806370a082311461017a57806395d89b41146101aa578063a9059cbb146101c8578063dd62ed3e146101e4576100a9565b806306fdde03146100ae578063095ea7b3146100cc57806318160ddd146100e857806323b872dd14610106578063313ce56714610122575b600080fd5b6100b6610214565b6040516100c39190610cf8565b60405180910390f35b6100e660048036038101906100e19190610c61565b6102a2565b005b6100f061038c565b6040516100fd9190610d1a565b60405180910390f35b610120600480360381019061011b9190610c0e565b610392565b005b61012a610715565b6040516101379190610d35565b60405180910390f35b61015a60048036038101906101559190610c61565b610728565b005b61016461072c565b6040516101719190610cf8565b60405180910390f35b610194600480360381019061018f9190610ba1565b6107ba565b6040516101a19190610d1a565b60405180910390f35b6101b2610803565b6040516101bf9190610cf8565b60405180910390f35b6101e260048036038101906101dd9190610c61565b610891565b005b6101fe60048036038101906101f99190610bce565b610a9f565b60405161020b9190610d1a565b60405180910390f35b6001805461022190610e72565b80601f016020809104026020016040519081016040528092919081815260200182805461024d90610e72565b801561029a5780601f1061026f5761010080835404028352916020019161029a565b820191906000526020600020905b81548152906001019060200180831161027d57829003601f168201915b505050505081565b80600660003373ffffffffffffffffffffffffffffffffffffffff1673ffffffffffffffffffffffffffffffffffffffff16815260200190815260200160002060008473ffffffffffffffffffffffffffffffffffffffff1673ffffffffffffffffffffffffffffffffffffffff168152602001908152602001600020819055508173ffffffffffffffffffffffffffffffffffffffff163373ffffffffffffffffffffffffffffffffffffffff167f8c5be1e5ebec7d5bd14f71427d1e84f3dd0314c0f7b2291e5b200ac8c7c3b925836040516103809190610d1a565b60405180910390a35050565b60005481565b80600560008573ffffffffffffffffffffffffffffffffffffffff1673ffffffffffffffffffffffffffffffffffffffff168152602001908152602001600020541015801561045d575080600660008573ffffffffffffffffffffffffffffffffffffffff1673ffffffffffffffffffffffffffffffffffffffff16815260200190815260200160002060003373ffffffffffffffffffffffffffffffffffffffff1673ffffffffffffffffffffffffffffffffffffffff1681526020019081526020016000205410155b80156104695750600081115b61047257600080fd5b6104c481600560008573ffffffffffffffffffffffffffffffffffffffff1673ffffffffffffffffffffffffffffffffffffffff16815260200190815260200160002054610b2690919063ffffffff16565b600560008473ffffffffffffffffffffffffffffffffffffffff1673ffffffffffffffffffffffffffffffffffffffff1681526020019081526020016000208190555061055981600560008673ffffffffffffffffffffffffffffffffffffffff1673ffffffffffffffffffffffffffffffffffffffff16815260200190815260200160002054610b4e90919063ffffffff16565b600560008573ffffffffffffffffffffffffffffffffffffffff1673ffffffffffffffffffffffffffffffffffffffff1681526020019081526020016000208190555061062b81600660008673ffffffffffffffffffffffffffffffffffffffff1673ffffffffffffffffffffffffffffffffffffffff16815260200190815260200160002060003373ffffffffffffffffffffffffffffffffffffffff1673ffffffffffffffffffffffffffffffffffffffff16815260200190815260200160002054610b4e90919063ffffffff16565b600660008573ffffffffffffffffffffffffffffffffffffffff1673ffffffffffffffffffffffffffffffffffffffff16815260200190815260200160002060003373ffffffffffffffffffffffffffffffffffffffff1673ffffffffffffffffffffffffffffffffffffffff168152602001908152602001600020819055508173ffffffffffffffffffffffffffffffffffffffff168373ffffffffffffffffffffffffffffffffffffffff167fddf252ad1be2c89b69c2b068fc378daa952ba7f163c4a11628f55a4df523b3ef836040516107089190610d1a565b60405180910390a3505050565b600260009054906101000a900460ff1681565b5050565b6004805461073990610e72565b80601f016020809104026020016040519081016040528092919081815260200182805461076590610e72565b80156107b25780601f10610787576101008083540402835291602001916107b2565b820191906000526020600020905b81548152906001019060200180831161079557829003601f168201915b505050505081565b6000600560008373ffffffffffffffffffffffffffffffffffffffff1673ffffffffffffffffffffffffffffffffffffffff168152602001908152602001600020549050919050565b6003805461081090610e72565b80601f016020809104026020016040519081016040528092919081815260200182805461083c90610e72565b80156108895780601f1061085e57610100808354040283529160200191610889565b820191906000526020600020905b81548152906001019060200180831161086c57829003601f168201915b505050505081565b60406004816108a09190610d6c565b6000369050146108b3576108b2610ea4565b5b81600560003373ffffffffffffffffffffffffffffffffffffffff1673ffffffffffffffffffffffffffffffffffffffff16815260200190815260200160002054101580156109025750600082115b61090b57600080fd5b61095d82600560003373ffffffffffffffffffffffffffffffffffffffff1673ffffffffffffffffffffffffffffffffffffffff16815260200190815260200160002054610b4e90919063ffffffff16565b600560003373ffffffffffffffffffffffffffffffffffffffff1673ffffffffffffffffffffffffffffffffffffffff168152602001908152602001600020819055506109f282600560008673ffffffffffffffffffffffffffffffffffffffff1673ffffffffffffffffffffffffffffffffffffffff16815260200190815260200160002054610b2690919063ffffffff16565b600560008573ffffffffffffffffffffffffffffffffffffffff1673ffffffffffffffffffffffffffffffffffffffff168152602001908152602001600020819055508273ffffffffffffffffffffffffffffffffffffffff163373ffffffffffffffffffffffffffffffffffffffff167fddf252ad1be2c89b69c2b068fc378daa952ba7f163c4a11628f55a4df523b3ef84604051610a929190610d1a565b60405180910390a3505050565b6000600660008373ffffffffffffffffffffffffffffffffffffffff1673ffffffffffffffffffffffffffffffffffffffff16815260200190815260200160002060008473ffffffffffffffffffffffffffffffffffffffff1673ffffffffffffffffffffffffffffffffffffffff16815260200190815260200160002054905092915050565b6000808284610b359190610d6c565b905083811015610b4457600080fd5b8091505092915050565b600082821115610b5d57600080fd5b60008284610b6b9190610dc2565b90508091505092915050565b600081359050610b8681610f47565b92915050565b600081359050610b9b81610f5e565b92915050565b600060208284031215610bb757610bb6610f31565b5b6000610bc584828501610b77565b91505092915050565b60008060408385031215610be557610be4610f31565b5b6000610bf385828601610b77565b9250506020610c0485828601610b77565b9150509250929050565b600080600060608486031215610c2757610c26610f31565b5b6000610c3586828701610b77565b9350506020610c4686828701610b77565b9250506040610c5786828701610b8c565b9150509250925092565b60008060408385031215610c7857610c77610f31565b5b6000610c8685828601610b77565b9250506020610c9785828601610b8c565b9150509250929050565b6000610cac82610d50565b610cb68185610d5b565b9350610cc6818560208601610e3f565b610ccf81610f36565b840191505092915050565b610ce381610e28565b82525050565b610cf281610e32565b82525050565b60006020820190508181036000830152610d128184610ca1565b905092915050565b6000602082019050610d2f6000830184610cda565b92915050565b6000602082019050610d4a6000830184610ce9565b92915050565b600081519050919050565b600082825260208201905092915050565b6000610d7782610e28565b9150610d8283610e28565b9250827fffffffffffffffffffffffffffffffffffffffffffffffffffffffffffffffff03821115610db757610db6610ed3565b5b828201905092915050565b6000610dcd82610e28565b9150610dd883610e28565b925082821015610deb57610dea610ed3565b5b828203905092915050565b6000610e0182610e08565b9050919050565b600073ffffffffffffffffffffffffffffffffffffffff82169050919050565b6000819050919050565b600060ff82169050919050565b60005b83811015610e5d578082015181840152602081019050610e42565b83811115610e6c576000848401525b50505050565b60006002820490506001821680610e8a57607f821691505b60208210811415610e9e57610e9d610f02565b5b50919050565b7f4e487b7100000000000000000000000000000000000000000000000000000000600052600160045260246000fd5b7f4e487b7100000000000000000000000000000000000000000000000000000000600052601160045260246000fd5b7f4e487b7100000000000000000000000000000000000000000000000000000000600052602260045260246000fd5b600080fd5b6000601f19601f8301169050919050565b610f5081610df6565b8114610f5b57600080fd5b50565b610f6781610e28565b8114610f7257600080fd5b5056fea264697066735822122043f14203fb0f60f4b9062db0ac5531c35471468b89fa8c4c8874bc0a8a5bd93664736f6c63430008070033",
					"opcodes": "PUSH1 0x80 PUSH1 0x40 MSTORE PUSH1 0x40 MLOAD PUSH3 0x12 SWAP1 PUSH3 0x102 JUMP JUMPDEST PUSH1 0x40 MLOAD DUP1 SWAP2 SUB SWAP1 PUSH1 0x0 CREATE DUP1 ISZERO DUP1 ISZERO PUSH3 0x2F JUMPI RETURNDATASIZE PUSH1 0x0 DUP1 RETURNDATACOPY RETURNDATASIZE PUSH1 0x0 REVERT JUMPDEST POP PUSH1 0x6 PUSH1 0x0 PUSH2 0x100 EXP DUP2 SLOAD DUP2 PUSH20 0xFFFFFFFFFFFFFFFFFFFFFFFFFFFFFFFFFFFFFFFF MUL NOT AND SWAP1 DUP4 PUSH20 0xFFFFFFFFFFFFFFFFFFFFFFFFFFFFFFFFFFFFFFFF AND MUL OR SWAP1 SSTORE POP CALLVALUE DUP1 ISZERO PUSH3 0x7D JUMPI PUSH1 0x0 DUP1 REVERT JUMPDEST POP PUSH1 0x40 MLOAD PUSH3 0x2064 CODESIZE SUB DUP1 PUSH3 0x2064 DUP4 CODECOPY DUP2 DUP2 ADD PUSH1 0x40 MSTORE DUP2 ADD SWAP1 PUSH3 0xA3 SWAP2 SWAP1 PUSH3 0x13E JUMP JUMPDEST CALLER PUSH1 0x5 PUSH1 0x0 PUSH2 0x100 EXP DUP2 SLOAD DUP2 PUSH20 0xFFFFFFFFFFFFFFFFFFFFFFFFFFFFFFFFFFFFFFFF MUL NOT AND SWAP1 DUP4 PUSH20 0xFFFFFFFFFFFFFFFFFFFFFFFFFFFFFFFFFFFFFFFF AND MUL OR SWAP1 SSTORE POP DUP3 PUSH1 0x0 DUP2 SWAP1 SSTORE POP DUP2 PUSH1 0x1 DUP2 SWAP1 SSTORE POP DUP1 PUSH1 0x2 DUP2 SWAP1 SSTORE POP POP POP POP PUSH3 0x1E7 JUMP JUMPDEST PUSH2 0x11EE DUP1 PUSH3 0xE76 DUP4 CODECOPY ADD SWAP1 JUMP JUMPDEST PUSH1 0x0 DUP2 MLOAD SWAP1 POP PUSH3 0x121 DUP2 PUSH3 0x1B3 JUMP JUMPDEST SWAP3 SWAP2 POP POP JUMP JUMPDEST PUSH1 0x0 DUP2 MLOAD SWAP1 POP PUSH3 0x138 DUP2 PUSH3 0x1CD JUMP JUMPDEST SWAP3 SWAP2 POP POP JUMP JUMPDEST PUSH1 0x0 DUP1 PUSH1 0x0 PUSH1 0x60 DUP5 DUP7 SUB SLT ISZERO PUSH3 0x15A JUMPI PUSH3 0x159 PUSH3 0x1AE JUMP JUMPDEST JUMPDEST PUSH1 0x0 PUSH3 0x16A DUP7 DUP3 DUP8 ADD PUSH3 0x110 JUMP JUMPDEST SWAP4 POP POP PUSH1 0x20 PUSH3 0x17D DUP7 DUP3 DUP8 ADD PUSH3 0x127 JUMP JUMPDEST SWAP3 POP POP PUSH1 0x40 PUSH3 0x190 DUP7 DUP3 DUP8 ADD PUSH3 0x127 JUMP JUMPDEST SWAP2 POP POP SWAP3 POP SWAP3 POP SWAP3 JUMP JUMPDEST PUSH1 0x0 DUP2 SWAP1 POP SWAP2 SWAP1 POP JUMP JUMPDEST PUSH1 0x0 DUP2 SWAP1 POP SWAP2 SWAP1 POP JUMP JUMPDEST PUSH1 0x0 DUP1 REVERT JUMPDEST PUSH3 0x1BE DUP2 PUSH3 0x19A JUMP JUMPDEST DUP2 EQ PUSH3 0x1CA JUMPI PUSH1 0x0 DUP1 REVERT JUMPDEST POP JUMP JUMPDEST PUSH3 0x1D8 DUP2 PUSH3 0x1A4 JUMP JUMPDEST DUP2 EQ PUSH3 0x1E4 JUMPI PUSH1 0x0 DUP1 REVERT JUMPDEST POP JUMP JUMPDEST PUSH2 0xC7F DUP1 PUSH3 0x1F7 PUSH1 0x0 CODECOPY PUSH1 0x0 RETURN INVALID PUSH1 0x80 PUSH1 0x40 MSTORE CALLVALUE DUP1 ISZERO PUSH2 0x10 JUMPI PUSH1 0x0 DUP1 REVERT JUMPDEST POP PUSH1 0x4 CALLDATASIZE LT PUSH2 0x57 JUMPI PUSH1 0x0 CALLDATALOAD PUSH1 0xE0 SHR DUP1 PUSH4 0x3341B445 EQ PUSH2 0x5C JUMPI DUP1 PUSH4 0x4041EF54 EQ PUSH2 0x8C JUMPI DUP1 PUSH4 0x6DD7D8EA EQ PUSH2 0xBC JUMPI DUP1 PUSH4 0x8203373A EQ PUSH2 0xD8 JUMPI DUP1 PUSH4 0xEA58D968 EQ PUSH2 0xF4 JUMPI JUMPDEST PUSH1 0x0 DUP1 REVERT JUMPDEST PUSH2 0x76 PUSH1 0x4 DUP1 CALLDATASIZE SUB DUP2 ADD SWAP1 PUSH2 0x71 SWAP2 SWAP1 PUSH2 0x7FB JUMP JUMPDEST PUSH2 0x110 JUMP JUMPDEST PUSH1 0x40 MLOAD PUSH2 0x83 SWAP2 SWAP1 PUSH2 0x9CD JUMP JUMPDEST PUSH1 0x40 MLOAD DUP1 SWAP2 SUB SWAP1 RETURN JUMPDEST PUSH2 0xA6 PUSH1 0x4 DUP1 CALLDATASIZE SUB DUP2 ADD SWAP1 PUSH2 0xA1 SWAP2 SWAP1 PUSH2 0x7FB JUMP JUMPDEST PUSH2 0x128 JUMP JUMPDEST PUSH1 0x40 MLOAD PUSH2 0xB3 SWAP2 SWAP1 PUSH2 0x9E8 JUMP JUMPDEST PUSH1 0x40 MLOAD DUP1 SWAP2 SUB SWAP1 RETURN JUMPDEST PUSH2 0xD6 PUSH1 0x4 DUP1 CALLDATASIZE SUB DUP2 ADD SWAP1 PUSH2 0xD1 SWAP2 SWAP1 PUSH2 0x7FB JUMP JUMPDEST PUSH2 0x1DC JUMP JUMPDEST STOP JUMPDEST PUSH2 0xF2 PUSH1 0x4 DUP1 CALLDATASIZE SUB DUP2 ADD SWAP1 PUSH2 0xED SWAP2 SWAP1 PUSH2 0x828 JUMP JUMPDEST PUSH2 0x3E4 JUMP JUMPDEST STOP JUMPDEST PUSH2 0x10E PUSH1 0x4 DUP1 CALLDATASIZE SUB DUP2 ADD SWAP1 PUSH2 0x109 SWAP2 SWAP1 PUSH2 0x871 JUMP JUMPDEST PUSH2 0x5D5 JUMP JUMPDEST STOP JUMPDEST PUSH1 0x4 PUSH1 0x20 MSTORE DUP1 PUSH1 0x0 MSTORE PUSH1 0x40 PUSH1 0x0 KECCAK256 PUSH1 0x0 SWAP2 POP SWAP1 POP SLOAD DUP2 JUMP JUMPDEST PUSH1 0x0 PUSH1 0x6 PUSH1 0x0 SWAP1 SLOAD SWAP1 PUSH2 0x100 EXP SWAP1 DIV PUSH20 0xFFFFFFFFFFFFFFFFFFFFFFFFFFFFFFFFFFFFFFFF AND PUSH20 0xFFFFFFFFFFFFFFFFFFFFFFFFFFFFFFFFFFFFFFFF AND PUSH4 0x70A08231 DUP4 PUSH1 0x40 MLOAD DUP3 PUSH4 0xFFFFFFFF AND PUSH1 0xE0 SHL DUP2 MSTORE PUSH1 0x4 ADD PUSH2 0x185 SWAP2 SWAP1 PUSH2 0x952 JUMP JUMPDEST PUSH1 0x20 PUSH1 0x40 MLOAD DUP1 DUP4 SUB DUP2 DUP7 DUP1 EXTCODESIZE ISZERO DUP1 ISZERO PUSH2 0x19D JUMPI PUSH1 0x0 DUP1 REVERT JUMPDEST POP GAS STATICCALL ISZERO DUP1 ISZERO PUSH2 0x1B1 JUMPI RETURNDATASIZE PUSH1 0x0 DUP1 RETURNDATACOPY RETURNDATASIZE PUSH1 0x0 REVERT JUMPDEST POP POP POP POP PUSH1 0x40 MLOAD RETURNDATASIZE PUSH1 0x1F NOT PUSH1 0x1F DUP3 ADD AND DUP3 ADD DUP1 PUSH1 0x40 MSTORE POP DUP2 ADD SWAP1 PUSH2 0x1D5 SWAP2 SWAP1 PUSH2 0x8E9 JUMP JUMPDEST SWAP1 POP SWAP2 SWAP1 POP JUMP JUMPDEST PUSH1 0x2 SLOAD TIMESTAMP GT PUSH2 0x1EA JUMPI PUSH1 0x0 DUP1 REVERT JUMPDEST PUSH1 0x3 PUSH1 0x0 CALLER PUSH20 0xFFFFFFFFFFFFFFFFFFFFFFFFFFFFFFFFFFFFFFFF AND PUSH20 0xFFFFFFFFFFFFFFFFFFFFFFFFFFFFFFFFFFFFFFFF AND DUP2 MSTORE PUSH1 0x20 ADD SWAP1 DUP2 MSTORE PUSH1 0x20 ADD PUSH1 0x0 KECCAK256 PUSH1 0x0 SWAP1 SLOAD SWAP1 PUSH2 0x100 EXP SWAP1 DIV PUSH1 0xFF AND PUSH2 0x240 JUMPI PUSH1 0x0 DUP1 REVERT JUMPDEST PUSH1 0x0 PUSH1 0x6 PUSH1 0x0 SWAP1 SLOAD SWAP1 PUSH2 0x100 EXP SWAP1 DIV PUSH20 0xFFFFFFFFFFFFFFFFFFFFFFFFFFFFFFFFFFFFFFFF AND PUSH20 0xFFFFFFFFFFFFFFFFFFFFFFFFFFFFFFFFFFFFFFFF AND PUSH4 0x70A08231 CALLER PUSH1 0x40 MLOAD DUP3 PUSH4 0xFFFFFFFF AND PUSH1 0xE0 SHL DUP2 MSTORE PUSH1 0x4 ADD PUSH2 0x29D SWAP2 SWAP1 PUSH2 0x952 JUMP JUMPDEST PUSH1 0x20 PUSH1 0x40 MLOAD DUP1 DUP4 SUB DUP2 DUP7 DUP1 EXTCODESIZE ISZERO DUP1 ISZERO PUSH2 0x2B5 JUMPI PUSH1 0x0 DUP1 REVERT JUMPDEST POP GAS STATICCALL ISZERO DUP1 ISZERO PUSH2 0x2C9 JUMPI RETURNDATASIZE PUSH1 0x0 DUP1 RETURNDATACOPY RETURNDATASIZE PUSH1 0x0 REVERT JUMPDEST POP POP POP POP PUSH1 0x40 MLOAD RETURNDATASIZE PUSH1 0x1F NOT PUSH1 0x1F DUP3 ADD AND DUP3 ADD DUP1 PUSH1 0x40 MSTORE POP DUP2 ADD SWAP1 PUSH2 0x2ED SWAP2 SWAP1 PUSH2 0x8E9 JUMP JUMPDEST EQ PUSH2 0x2F7 JUMPI PUSH1 0x0 DUP1 REVERT JUMPDEST PUSH1 0x6 PUSH1 0x0 SWAP1 SLOAD SWAP1 PUSH2 0x100 EXP SWAP1 DIV PUSH20 0xFFFFFFFFFFFFFFFFFFFFFFFFFFFFFFFFFFFFFFFF AND PUSH20 0xFFFFFFFFFFFFFFFFFFFFFFFFFFFFFFFFFFFFFFFF AND PUSH4 0x23B872DD CALLER DUP4 PUSH1 0x1 PUSH1 0x40 MLOAD DUP5 PUSH4 0xFFFFFFFF AND PUSH1 0xE0 SHL DUP2 MSTORE PUSH1 0x4 ADD PUSH2 0x357 SWAP4 SWAP3 SWAP2 SWAP1 PUSH2 0x96D JUMP JUMPDEST PUSH1 0x0 PUSH1 0x40 MLOAD DUP1 DUP4 SUB DUP2 PUSH1 0x0 DUP8 DUP1 EXTCODESIZE ISZERO DUP1 ISZERO PUSH2 0x371 JUMPI PUSH1 0x0 DUP1 REVERT JUMPDEST POP GAS CALL ISZERO DUP1 ISZERO PUSH2 0x385 JUMPI RETURNDATASIZE PUSH1 0x0 DUP1 RETURNDATACOPY RETURNDATASIZE PUSH1 0x0 REVERT JUMPDEST POP POP POP POP PUSH1 0x1 PUSH1 0x3 PUSH1 0x0 CALLER PUSH20 0xFFFFFFFFFFFFFFFFFFFFFFFFFFFFFFFFFFFFFFFF AND PUSH20 0xFFFFFFFFFFFFFFFFFFFFFFFFFFFFFFFFFFFFFFFF AND DUP2 MSTORE PUSH1 0x20 ADD SWAP1 DUP2 MSTORE PUSH1 0x20 ADD PUSH1 0x0 KECCAK256 PUSH1 0x0 PUSH2 0x100 EXP DUP2 SLOAD DUP2 PUSH1 0xFF MUL NOT AND SWAP1 DUP4 ISZERO ISZERO MUL OR SWAP1 SSTORE POP POP JUMP JUMPDEST PUSH1 0x0 JUMPDEST DUP2 MLOAD DUP2 LT ISZERO PUSH2 0x51F JUMPI PUSH1 0x0 PUSH1 0x3 PUSH1 0x0 DUP5 DUP5 DUP2 MLOAD DUP2 LT PUSH2 0x409 JUMPI PUSH2 0x408 PUSH2 0xB81 JUMP JUMPDEST JUMPDEST PUSH1 0x20 MUL PUSH1 0x20 ADD ADD MLOAD PUSH20 0xFFFFFFFFFFFFFFFFFFFFFFFFFFFFFFFFFFFFFFFF AND PUSH20 0xFFFFFFFFFFFFFFFFFFFFFFFFFFFFFFFFFFFFFFFF AND DUP2 MSTORE PUSH1 0x20 ADD SWAP1 DUP2 MSTORE PUSH1 0x20 ADD PUSH1 0x0 KECCAK256 PUSH1 0x0 PUSH2 0x100 EXP DUP2 SLOAD DUP2 PUSH1 0xFF MUL NOT AND SWAP1 DUP4 ISZERO ISZERO MUL OR SWAP1 SSTORE POP PUSH1 0x6 PUSH1 0x0 SWAP1 SLOAD SWAP1 PUSH2 0x100 EXP SWAP1 DIV PUSH20 0xFFFFFFFFFFFFFFFFFFFFFFFFFFFFFFFFFFFFFFFF AND PUSH20 0xFFFFFFFFFFFFFFFFFFFFFFFFFFFFFFFFFFFFFFFF AND PUSH4 0x40C10F19 DUP4 DUP4 DUP2 MLOAD DUP2 LT PUSH2 0x4B3 JUMPI PUSH2 0x4B2 PUSH2 0xB81 JUMP JUMPDEST JUMPDEST PUSH1 0x20 MUL PUSH1 0x20 ADD ADD MLOAD PUSH1 0x1 PUSH1 0x40 MLOAD DUP4 PUSH4 0xFFFFFFFF AND PUSH1 0xE0 SHL DUP2 MSTORE PUSH1 0x4 ADD PUSH2 0x4DA SWAP3 SWAP2 SWAP1 PUSH2 0x9A4 JUMP JUMPDEST PUSH1 0x0 PUSH1 0x40 MLOAD DUP1 DUP4 SUB DUP2 PUSH1 0x0 DUP8 DUP1 EXTCODESIZE ISZERO DUP1 ISZERO PUSH2 0x4F4 JUMPI PUSH1 0x0 DUP1 REVERT JUMPDEST POP GAS CALL ISZERO DUP1 ISZERO PUSH2 0x508 JUMPI RETURNDATASIZE PUSH1 0x0 DUP1 RETURNDATACOPY RETURNDATASIZE PUSH1 0x0 REVERT JUMPDEST POP POP POP POP DUP1 DUP1 PUSH2 0x517 SWAP1 PUSH2 0xB09 JUMP JUMPDEST SWAP2 POP POP PUSH2 0x3E7 JUMP JUMPDEST POP PUSH1 0x6 PUSH1 0x0 SWAP1 SLOAD SWAP1 PUSH2 0x100 EXP SWAP1 DIV PUSH20 0xFFFFFFFFFFFFFFFFFFFFFFFFFFFFFFFFFFFFFFFF AND PUSH20 0xFFFFFFFFFFFFFFFFFFFFFFFFFFFFFFFFFFFFFFFF AND PUSH4 0x40C10F19 PUSH1 0x5 PUSH1 0x0 SWAP1 SLOAD SWAP1 PUSH2 0x100 EXP SWAP1 DIV PUSH20 0xFFFFFFFFFFFFFFFFFFFFFFFFFFFFFFFFFFFFFFFF AND PUSH1 0x1 PUSH1 0x40 MLOAD DUP4 PUSH4 0xFFFFFFFF AND PUSH1 0xE0 SHL DUP2 MSTORE PUSH1 0x4 ADD PUSH2 0x5A0 SWAP3 SWAP2 SWAP1 PUSH2 0x9A4 JUMP JUMPDEST PUSH1 0x0 PUSH1 0x40 MLOAD DUP1 DUP4 SUB DUP2 PUSH1 0x0 DUP8 DUP1 EXTCODESIZE ISZERO DUP1 ISZERO PUSH2 0x5BA JUMPI PUSH1 0x0 DUP1 REVERT JUMPDEST POP GAS CALL ISZERO DUP1 ISZERO PUSH2 0x5CE JUMPI RETURNDATASIZE PUSH1 0x0 DUP1 RETURNDATACOPY RETURNDATASIZE PUSH1 0x0 REVERT JUMPDEST POP POP POP POP POP JUMP JUMPDEST DUP1 MLOAD DUP3 MLOAD EQ ISZERO PUSH2 0x5E4 JUMPI PUSH1 0x0 DUP1 REVERT JUMPDEST PUSH1 0x0 JUMPDEST DUP3 MLOAD DUP2 LT ISZERO PUSH2 0x67B JUMPI DUP2 DUP2 DUP2 MLOAD DUP2 LT PUSH2 0x603 JUMPI PUSH2 0x602 PUSH2 0xB81 JUMP JUMPDEST JUMPDEST PUSH1 0x20 MUL PUSH1 0x20 ADD ADD MLOAD PUSH1 0x4 PUSH1 0x0 DUP6 DUP5 DUP2 MLOAD DUP2 LT PUSH2 0x622 JUMPI PUSH2 0x621 PUSH2 0xB81 JUMP JUMPDEST JUMPDEST PUSH1 0x20 MUL PUSH1 0x20 ADD ADD MLOAD PUSH20 0xFFFFFFFFFFFFFFFFFFFFFFFFFFFFFFFFFFFFFFFF AND PUSH20 0xFFFFFFFFFFFFFFFFFFFFFFFFFFFFFFFFFFFFFFFF AND DUP2 MSTORE PUSH1 0x20 ADD SWAP1 DUP2 MSTORE PUSH1 0x20 ADD PUSH1 0x0 KECCAK256 DUP2 SWAP1 SSTORE POP DUP1 DUP1 PUSH2 0x673 SWAP1 PUSH2 0xB09 JUMP JUMPDEST SWAP2 POP POP PUSH2 0x5E7 JUMP JUMPDEST POP POP POP JUMP JUMPDEST PUSH1 0x0 PUSH2 0x693 PUSH2 0x68E DUP5 PUSH2 0xA28 JUMP JUMPDEST PUSH2 0xA03 JUMP JUMPDEST SWAP1 POP DUP1 DUP4 DUP3 MSTORE PUSH1 0x20 DUP3 ADD SWAP1 POP DUP3 DUP6 PUSH1 0x20 DUP7 MUL DUP3 ADD GT ISZERO PUSH2 0x6B6 JUMPI PUSH2 0x6B5 PUSH2 0xBE4 JUMP JUMPDEST JUMPDEST PUSH1 0x0 JUMPDEST DUP6 DUP2 LT ISZERO PUSH2 0x6E6 JUMPI DUP2 PUSH2 0x6CC DUP9 DUP3 PUSH2 0x760 JUMP JUMPDEST DUP5 MSTORE PUSH1 0x20 DUP5 ADD SWAP4 POP PUSH1 0x20 DUP4 ADD SWAP3 POP POP PUSH1 0x1 DUP2 ADD SWAP1 POP PUSH2 0x6B9 JUMP JUMPDEST POP POP POP SWAP4 SWAP3 POP POP POP JUMP JUMPDEST PUSH1 0x0 PUSH2 0x703 PUSH2 0x6FE DUP5 PUSH2 0xA54 JUMP JUMPDEST PUSH2 0xA03 JUMP JUMPDEST SWAP1 POP DUP1 DUP4 DUP3 MSTORE PUSH1 0x20 DUP3 ADD SWAP1 POP DUP3 DUP6 PUSH1 0x20 DUP7 MUL DUP3 ADD GT ISZERO PUSH2 0x726 JUMPI PUSH2 0x725 PUSH2 0xBE4 JUMP JUMPDEST JUMPDEST PUSH1 0x0 JUMPDEST DUP6 DUP2 LT ISZERO PUSH2 0x756 JUMPI DUP2 PUSH2 0x73C DUP9 DUP3 PUSH2 0x7D1 JUMP JUMPDEST DUP5 MSTORE PUSH1 0x20 DUP5 ADD SWAP4 POP PUSH1 0x20 DUP4 ADD SWAP3 POP POP PUSH1 0x1 DUP2 ADD SWAP1 POP PUSH2 0x729 JUMP JUMPDEST POP POP POP SWAP4 SWAP3 POP POP POP JUMP JUMPDEST PUSH1 0x0 DUP2 CALLDATALOAD SWAP1 POP PUSH2 0x76F DUP2 PUSH2 0xC04 JUMP JUMPDEST SWAP3 SWAP2 POP POP JUMP JUMPDEST PUSH1 0x0 DUP3 PUSH1 0x1F DUP4 ADD SLT PUSH2 0x78A JUMPI PUSH2 0x789 PUSH2 0xBDF JUMP JUMPDEST JUMPDEST DUP2 CALLDATALOAD PUSH2 0x79A DUP5 DUP3 PUSH1 0x20 DUP7 ADD PUSH2 0x680 JUMP JUMPDEST SWAP2 POP POP SWAP3 SWAP2 POP POP JUMP JUMPDEST PUSH1 0x0 DUP3 PUSH1 0x1F DUP4 ADD SLT PUSH2 0x7B8 JUMPI PUSH2 0x7B7 PUSH2 0xBDF JUMP JUMPDEST JUMPDEST DUP2 CALLDATALOAD PUSH2 0x7C8 DUP5 DUP3 PUSH1 0x20 DUP7 ADD PUSH2 0x6F0 JUMP JUMPDEST SWAP2 POP POP SWAP3 SWAP2 POP POP JUMP JUMPDEST PUSH1 0x0 DUP2 CALLDATALOAD SWAP1 POP PUSH2 0x7E0 DUP2 PUSH2 0xC1B JUMP JUMPDEST SWAP3 SWAP2 POP POP JUMP JUMPDEST PUSH1 0x0 DUP2 MLOAD SWAP1 POP PUSH2 0x7F5 DUP2 PUSH2 0xC32 JUMP JUMPDEST SWAP3 SWAP2 POP POP JUMP JUMPDEST PUSH1 0x0 PUSH1 0x20 DUP3 DUP5 SUB SLT ISZERO PUSH2 0x811 JUMPI PUSH2 0x810 PUSH2 0xBEE JUMP JUMPDEST JUMPDEST PUSH1 0x0 PUSH2 0x81F DUP5 DUP3 DUP6 ADD PUSH2 0x760 JUMP JUMPDEST SWAP2 POP POP SWAP3 SWAP2 POP POP JUMP JUMPDEST PUSH1 0x0 PUSH1 0x20 DUP3 DUP5 SUB SLT ISZERO PUSH2 0x83E JUMPI PUSH2 0x83D PUSH2 0xBEE JUMP JUMPDEST JUMPDEST PUSH1 0x0 DUP3 ADD CALLDATALOAD PUSH8 0xFFFFFFFFFFFFFFFF DUP2 GT ISZERO PUSH2 0x85C JUMPI PUSH2 0x85B PUSH2 0xBE9 JUMP JUMPDEST JUMPDEST PUSH2 0x868 DUP5 DUP3 DUP6 ADD PUSH2 0x775 JUMP JUMPDEST SWAP2 POP POP SWAP3 SWAP2 POP POP JUMP JUMPDEST PUSH1 0x0 DUP1 PUSH1 0x40 DUP4 DUP6 SUB SLT ISZERO PUSH2 0x888 JUMPI PUSH2 0x887 PUSH2 0xBEE JUMP JUMPDEST JUMPDEST PUSH1 0x0 DUP4 ADD CALLDATALOAD PUSH8 0xFFFFFFFFFFFFFFFF DUP2 GT ISZERO PUSH2 0x8A6 JUMPI PUSH2 0x8A5 PUSH2 0xBE9 JUMP JUMPDEST JUMPDEST PUSH2 0x8B2 DUP6 DUP3 DUP7 ADD PUSH2 0x775 JUMP JUMPDEST SWAP3 POP POP PUSH1 0x20 DUP4 ADD CALLDATALOAD PUSH8 0xFFFFFFFFFFFFFFFF DUP2 GT ISZERO PUSH2 0x8D3 JUMPI PUSH2 0x8D2 PUSH2 0xBE9 JUMP JUMPDEST JUMPDEST PUSH2 0x8DF DUP6 DUP3 DUP7 ADD PUSH2 0x7A3 JUMP JUMPDEST SWAP2 POP POP SWAP3 POP SWAP3 SWAP1 POP JUMP JUMPDEST PUSH1 0x0 PUSH1 0x20 DUP3 DUP5 SUB SLT ISZERO PUSH2 0x8FF JUMPI PUSH2 0x8FE PUSH2 0xBEE JUMP JUMPDEST JUMPDEST PUSH1 0x0 PUSH2 0x90D DUP5 DUP3 DUP6 ADD PUSH2 0x7E6 JUMP JUMPDEST SWAP2 POP POP SWAP3 SWAP2 POP POP JUMP JUMPDEST PUSH2 0x91F DUP2 PUSH2 0xA80 JUMP JUMPDEST DUP3 MSTORE POP POP JUMP JUMPDEST PUSH2 0x92E DUP2 PUSH2 0xA92 JUMP JUMPDEST DUP3 MSTORE POP POP JUMP JUMPDEST PUSH2 0x93D DUP2 PUSH2 0xAC6 JUMP JUMPDEST DUP3 MSTORE POP POP JUMP JUMPDEST PUSH2 0x94C DUP2 PUSH2 0xABC JUMP JUMPDEST DUP3 MSTORE POP POP JUMP JUMPDEST PUSH1 0x0 PUSH1 0x20 DUP3 ADD SWAP1 POP PUSH2 0x967 PUSH1 0x0 DUP4 ADD DUP5 PUSH2 0x916 JUMP JUMPDEST SWAP3 SWAP2 POP POP JUMP JUMPDEST PUSH1 0x0 PUSH1 0x60 DUP3 ADD SWAP1 POP PUSH2 0x982 PUSH1 0x0 DUP4 ADD DUP7 PUSH2 0x916 JUMP JUMPDEST PUSH2 0x98F PUSH1 0x20 DUP4 ADD DUP6 PUSH2 0x916 JUMP JUMPDEST PUSH2 0x99C PUSH1 0x40 DUP4 ADD DUP5 PUSH2 0x934 JUMP JUMPDEST SWAP5 SWAP4 POP POP POP POP JUMP JUMPDEST PUSH1 0x0 PUSH1 0x40 DUP3 ADD SWAP1 POP PUSH2 0x9B9 PUSH1 0x0 DUP4 ADD DUP6 PUSH2 0x916 JUMP JUMPDEST PUSH2 0x9C6 PUSH1 0x20 DUP4 ADD DUP5 PUSH2 0x934 JUMP JUMPDEST SWAP4 SWAP3 POP POP POP JUMP JUMPDEST PUSH1 0x0 PUSH1 0x20 DUP3 ADD SWAP1 POP PUSH2 0x9E2 PUSH1 0x0 DUP4 ADD DUP5 PUSH2 0x925 JUMP JUMPDEST SWAP3 SWAP2 POP POP JUMP JUMPDEST PUSH1 0x0 PUSH1 0x20 DUP3 ADD SWAP1 POP PUSH2 0x9FD PUSH1 0x0 DUP4 ADD DUP5 PUSH2 0x943 JUMP JUMPDEST SWAP3 SWAP2 POP POP JUMP JUMPDEST PUSH1 0x0 PUSH2 0xA0D PUSH2 0xA1E JUMP JUMPDEST SWAP1 POP PUSH2 0xA19 DUP3 DUP3 PUSH2 0xAD8 JUMP JUMPDEST SWAP2 SWAP1 POP JUMP JUMPDEST PUSH1 0x0 PUSH1 0x40 MLOAD SWAP1 POP SWAP1 JUMP JUMPDEST PUSH1 0x0 PUSH8 0xFFFFFFFFFFFFFFFF DUP3 GT ISZERO PUSH2 0xA43 JUMPI PUSH2 0xA42 PUSH2 0xBB0 JUMP JUMPDEST JUMPDEST PUSH1 0x20 DUP3 MUL SWAP1 POP PUSH1 0x20 DUP2 ADD SWAP1 POP SWAP2 SWAP1 POP JUMP JUMPDEST PUSH1 0x0 PUSH8 0xFFFFFFFFFFFFFFFF DUP3 GT ISZERO PUSH2 0xA6F JUMPI PUSH2 0xA6E PUSH2 0xBB0 JUMP JUMPDEST JUMPDEST PUSH1 0x20 DUP3 MUL SWAP1 POP PUSH1 0x20 DUP2 ADD SWAP1 POP SWAP2 SWAP1 POP JUMP JUMPDEST PUSH1 0x0 PUSH2 0xA8B DUP3 PUSH2 0xA9C JUMP JUMPDEST SWAP1 POP SWAP2 SWAP1 POP JUMP JUMPDEST PUSH1 0x0 DUP2 SWAP1 POP SWAP2 SWAP1 POP JUMP JUMPDEST PUSH1 0x0 PUSH20 0xFFFFFFFFFFFFFFFFFFFFFFFFFFFFFFFFFFFFFFFF DUP3 AND SWAP1 POP SWAP2 SWAP1 POP JUMP JUMPDEST PUSH1 0x0 DUP2 SWAP1 POP SWAP2 SWAP1 POP JUMP JUMPDEST PUSH1 0x0 PUSH2 0xAD1 DUP3 PUSH2 0xABC JUMP JUMPDEST SWAP1 POP SWAP2 SWAP1 POP JUMP JUMPDEST PUSH2 0xAE1 DUP3 PUSH2 0xBF3 JUMP JUMPDEST DUP2 ADD DUP2 DUP2 LT PUSH8 0xFFFFFFFFFFFFFFFF DUP3 GT OR ISZERO PUSH2 0xB00 JUMPI PUSH2 0xAFF PUSH2 0xBB0 JUMP JUMPDEST JUMPDEST DUP1 PUSH1 0x40 MSTORE POP POP POP JUMP JUMPDEST PUSH1 0x0 PUSH2 0xB14 DUP3 PUSH2 0xABC JUMP JUMPDEST SWAP2 POP PUSH32 0xFFFFFFFFFFFFFFFFFFFFFFFFFFFFFFFFFFFFFFFFFFFFFFFFFFFFFFFFFFFFFFFF DUP3 EQ ISZERO PUSH2 0xB47 JUMPI PUSH2 0xB46 PUSH2 0xB52 JUMP JUMPDEST JUMPDEST PUSH1 0x1 DUP3 ADD SWAP1 POP SWAP2 SWAP1 POP JUMP JUMPDEST PUSH32 0x4E487B7100000000000000000000000000000000000000000000000000000000 PUSH1 0x0 MSTORE PUSH1 0x11 PUSH1 0x4 MSTORE PUSH1 0x24 PUSH1 0x0 REVERT JUMPDEST PUSH32 0x4E487B7100000000000000000000000000000000000000000000000000000000 PUSH1 0x0 MSTORE PUSH1 0x32 PUSH1 0x4 MSTORE PUSH1 0x24 PUSH1 0x0 REVERT JUMPDEST PUSH32 0x4E487B7100000000000000000000000000000000000000000000000000000000 PUSH1 0x0 MSTORE PUSH1 0x41 PUSH1 0x4 MSTORE PUSH1 0x24 PUSH1 0x0 REVERT JUMPDEST PUSH1 0x0 DUP1 REVERT JUMPDEST PUSH1 0x0 DUP1 REVERT JUMPDEST PUSH1 0x0 DUP1 REVERT JUMPDEST PUSH1 0x0 DUP1 REVERT JUMPDEST PUSH1 0x0 PUSH1 0x1F NOT PUSH1 0x1F DUP4 ADD AND SWAP1 POP SWAP2 SWAP1 POP JUMP JUMPDEST PUSH2 0xC0D DUP2 PUSH2 0xA80 JUMP JUMPDEST DUP2 EQ PUSH2 0xC18 JUMPI PUSH1 0x0 DUP1 REVERT JUMPDEST POP JUMP JUMPDEST PUSH2 0xC24 DUP2 PUSH2 0xA92 JUMP JUMPDEST DUP2 EQ PUSH2 0xC2F JUMPI PUSH1 0x0 DUP1 REVERT JUMPDEST POP JUMP JUMPDEST PUSH2 0xC3B DUP2 PUSH2 0xABC JUMP JUMPDEST DUP2 EQ PUSH2 0xC46 JUMPI PUSH1 0x0 DUP1 REVERT JUMPDEST POP JUMP INVALID LOG2 PUSH5 0x6970667358 0x22 SLT KECCAK256 PC LT PUSH26 0xA0498FEA837F69D3DB1E09CE635DF9463E631BE1FFF3C3875A74 0xAB SWAP11 0xB1 PUSH5 0x736F6C6343 STOP ADDMOD SMOD STOP CALLER PUSH1 0x80 PUSH1 0x40 MSTORE CALLVALUE DUP1 ISZERO PUSH3 0x11 JUMPI PUSH1 0x0 DUP1 REVERT JUMPDEST POP PUSH1 0x40 MLOAD DUP1 PUSH1 0x40 ADD PUSH1 0x40 MSTORE DUP1 PUSH1 0xD DUP2 MSTORE PUSH1 0x20 ADD PUSH32 0x452D566F74696E6720636F696E00000000000000000000000000000000000000 DUP2 MSTORE POP PUSH1 0x1 SWAP1 DUP1 MLOAD SWAP1 PUSH1 0x20 ADD SWAP1 PUSH3 0x5F SWAP3 SWAP2 SWAP1 PUSH3 0x11E JUMP JUMPDEST POP PUSH1 0x4 PUSH1 0x2 PUSH1 0x0 PUSH2 0x100 EXP DUP2 SLOAD DUP2 PUSH1 0xFF MUL NOT AND SWAP1 DUP4 PUSH1 0xFF AND MUL OR SWAP1 SSTORE POP PUSH1 0x40 MLOAD DUP1 PUSH1 0x40 ADD PUSH1 0x40 MSTORE DUP1 PUSH1 0x3 DUP2 MSTORE PUSH1 0x20 ADD PUSH32 0x4556430000000000000000000000000000000000000000000000000000000000 DUP2 MSTORE POP PUSH1 0x3 SWAP1 DUP1 MLOAD SWAP1 PUSH1 0x20 ADD SWAP1 PUSH3 0xC9 SWAP3 SWAP2 SWAP1 PUSH3 0x11E JUMP JUMPDEST POP PUSH1 0x40 MLOAD DUP1 PUSH1 0x40 ADD PUSH1 0x40 MSTORE DUP1 PUSH1 0x3 DUP2 MSTORE PUSH1 0x20 ADD PUSH32 0x312E300000000000000000000000000000000000000000000000000000000000 DUP2 MSTORE POP PUSH1 0x4 SWAP1 DUP1 MLOAD SWAP1 PUSH1 0x20 ADD SWAP1 PUSH3 0x117 SWAP3 SWAP2 SWAP1 PUSH3 0x11E JUMP JUMPDEST POP PUSH3 0x233 JUMP JUMPDEST DUP3 DUP1 SLOAD PUSH3 0x12C SWAP1 PUSH3 0x1CE JUMP JUMPDEST SWAP1 PUSH1 0x0 MSTORE PUSH1 0x20 PUSH1 0x0 KECCAK256 SWAP1 PUSH1 0x1F ADD PUSH1 0x20 SWAP1 DIV DUP2 ADD SWAP3 DUP3 PUSH3 0x150 JUMPI PUSH1 0x0 DUP6 SSTORE PUSH3 0x19C JUMP JUMPDEST DUP3 PUSH1 0x1F LT PUSH3 0x16B JUMPI DUP1 MLOAD PUSH1 0xFF NOT AND DUP4 DUP1 ADD OR DUP6 SSTORE PUSH3 0x19C JUMP JUMPDEST DUP3 DUP1 ADD PUSH1 0x1 ADD DUP6 SSTORE DUP3 ISZERO PUSH3 0x19C JUMPI SWAP2 DUP3 ADD JUMPDEST DUP3 DUP2 GT ISZERO PUSH3 0x19B JUMPI DUP3 MLOAD DUP3 SSTORE SWAP2 PUSH1 0x20 ADD SWAP2 SWAP1 PUSH1 0x1 ADD SWAP1 PUSH3 0x17E JUMP JUMPDEST JUMPDEST POP SWAP1 POP PUSH3 0x1AB SWAP2 SWAP1 PUSH3 0x1AF JUMP JUMPDEST POP SWAP1 JUMP JUMPDEST JUMPDEST DUP1 DUP3 GT ISZERO PUSH3 0x1CA JUMPI PUSH1 0x0 DUP2 PUSH1 0x0 SWAP1 SSTORE POP PUSH1 0x1 ADD PUSH3 0x1B0 JUMP JUMPDEST POP SWAP1 JUMP JUMPDEST PUSH1 0x0 PUSH1 0x2 DUP3 DIV SWAP1 POP PUSH1 0x1 DUP3 AND DUP1 PUSH3 0x1E7 JUMPI PUSH1 0x7F DUP3 AND SWAP2 POP JUMPDEST PUSH1 0x20 DUP3 LT DUP2 EQ ISZERO PUSH3 0x1FE JUMPI PUSH3 0x1FD PUSH3 0x204 JUMP JUMPDEST JUMPDEST POP SWAP2 SWAP1 POP JUMP JUMPDEST PUSH32 0x4E487B7100000000000000000000000000000000000000000000000000000000 PUSH1 0x0 MSTORE PUSH1 0x22 PUSH1 0x4 MSTORE PUSH1 0x24 PUSH1 0x0 REVERT JUMPDEST PUSH2 0xFAB DUP1 PUSH3 0x243 PUSH1 0x0 CODECOPY PUSH1 0x0 RETURN INVALID PUSH1 0x80 PUSH1 0x40 MSTORE CALLVALUE DUP1 ISZERO PUSH2 0x10 JUMPI PUSH1 0x0 DUP1 REVERT JUMPDEST POP PUSH1 0x4 CALLDATASIZE LT PUSH2 0xA9 JUMPI PUSH1 0x0 CALLDATALOAD PUSH1 0xE0 SHR DUP1 PUSH4 0x40C10F19 GT PUSH2 0x71 JUMPI DUP1 PUSH4 0x40C10F19 EQ PUSH2 0x140 JUMPI DUP1 PUSH4 0x54FD4D50 EQ PUSH2 0x15C JUMPI DUP1 PUSH4 0x70A08231 EQ PUSH2 0x17A JUMPI DUP1 PUSH4 0x95D89B41 EQ PUSH2 0x1AA JUMPI DUP1 PUSH4 0xA9059CBB EQ PUSH2 0x1C8 JUMPI DUP1 PUSH4 0xDD62ED3E EQ PUSH2 0x1E4 JUMPI PUSH2 0xA9 JUMP JUMPDEST DUP1 PUSH4 0x6FDDE03 EQ PUSH2 0xAE JUMPI DUP1 PUSH4 0x95EA7B3 EQ PUSH2 0xCC JUMPI DUP1 PUSH4 0x18160DDD EQ PUSH2 0xE8 JUMPI DUP1 PUSH4 0x23B872DD EQ PUSH2 0x106 JUMPI DUP1 PUSH4 0x313CE567 EQ PUSH2 0x122 JUMPI JUMPDEST PUSH1 0x0 DUP1 REVERT JUMPDEST PUSH2 0xB6 PUSH2 0x214 JUMP JUMPDEST PUSH1 0x40 MLOAD PUSH2 0xC3 SWAP2 SWAP1 PUSH2 0xCF8 JUMP JUMPDEST PUSH1 0x40 MLOAD DUP1 SWAP2 SUB SWAP1 RETURN JUMPDEST PUSH2 0xE6 PUSH1 0x4 DUP1 CALLDATASIZE SUB DUP2 ADD SWAP1 PUSH2 0xE1 SWAP2 SWAP1 PUSH2 0xC61 JUMP JUMPDEST PUSH2 0x2A2 JUMP JUMPDEST STOP JUMPDEST PUSH2 0xF0 PUSH2 0x38C JUMP JUMPDEST PUSH1 0x40 MLOAD PUSH2 0xFD SWAP2 SWAP1 PUSH2 0xD1A JUMP JUMPDEST PUSH1 0x40 MLOAD DUP1 SWAP2 SUB SWAP1 RETURN JUMPDEST PUSH2 0x120 PUSH1 0x4 DUP1 CALLDATASIZE SUB DUP2 ADD SWAP1 PUSH2 0x11B SWAP2 SWAP1 PUSH2 0xC0E JUMP JUMPDEST PUSH2 0x392 JUMP JUMPDEST STOP JUMPDEST PUSH2 0x12A PUSH2 0x715 JUMP JUMPDEST PUSH1 0x40 MLOAD PUSH2 0x137 SWAP2 SWAP1 PUSH2 0xD35 JUMP JUMPDEST PUSH1 0x40 MLOAD DUP1 SWAP2 SUB SWAP1 RETURN JUMPDEST PUSH2 0x15A PUSH1 0x4 DUP1 CALLDATASIZE SUB DUP2 ADD SWAP1 PUSH2 0x155 SWAP2 SWAP1 PUSH2 0xC61 JUMP JUMPDEST PUSH2 0x728 JUMP JUMPDEST STOP JUMPDEST PUSH2 0x164 PUSH2 0x72C JUMP JUMPDEST PUSH1 0x40 MLOAD PUSH2 0x171 SWAP2 SWAP1 PUSH2 0xCF8 JUMP JUMPDEST PUSH1 0x40 MLOAD DUP1 SWAP2 SUB SWAP1 RETURN JUMPDEST PUSH2 0x194 PUSH1 0x4 DUP1 CALLDATASIZE SUB DUP2 ADD SWAP1 PUSH2 0x18F SWAP2 SWAP1 PUSH2 0xBA1 JUMP JUMPDEST PUSH2 0x7BA JUMP JUMPDEST PUSH1 0x40 MLOAD PUSH2 0x1A1 SWAP2 SWAP1 PUSH2 0xD1A JUMP JUMPDEST PUSH1 0x40 MLOAD DUP1 SWAP2 SUB SWAP1 RETURN JUMPDEST PUSH2 0x1B2 PUSH2 0x803 JUMP JUMPDEST PUSH1 0x40 MLOAD PUSH2 0x1BF SWAP2 SWAP1 PUSH2 0xCF8 JUMP JUMPDEST PUSH1 0x40 MLOAD DUP1 SWAP2 SUB SWAP1 RETURN JUMPDEST PUSH2 0x1E2 PUSH1 0x4 DUP1 CALLDATASIZE SUB DUP2 ADD SWAP1 PUSH2 0x1DD SWAP2 SWAP1 PUSH2 0xC61 JUMP JUMPDEST PUSH2 0x891 JUMP JUMPDEST STOP JUMPDEST PUSH2 0x1FE PUSH1 0x4 DUP1 CALLDATASIZE SUB DUP2 ADD SWAP1 PUSH2 0x1F9 SWAP2 SWAP1 PUSH2 0xBCE JUMP JUMPDEST PUSH2 0xA9F JUMP JUMPDEST PUSH1 0x40 MLOAD PUSH2 0x20B SWAP2 SWAP1 PUSH2 0xD1A JUMP JUMPDEST PUSH1 0x40 MLOAD DUP1 SWAP2 SUB SWAP1 RETURN JUMPDEST PUSH1 0x1 DUP1 SLOAD PUSH2 0x221 SWAP1 PUSH2 0xE72 JUMP JUMPDEST DUP1 PUSH1 0x1F ADD PUSH1 0x20 DUP1 SWAP2 DIV MUL PUSH1 0x20 ADD PUSH1 0x40 MLOAD SWAP1 DUP2 ADD PUSH1 0x40 MSTORE DUP1 SWAP3 SWAP2 SWAP1 DUP2 DUP2 MSTORE PUSH1 0x20 ADD DUP3 DUP1 SLOAD PUSH2 0x24D SWAP1 PUSH2 0xE72 JUMP JUMPDEST DUP1 ISZERO PUSH2 0x29A JUMPI DUP1 PUSH1 0x1F LT PUSH2 0x26F JUMPI PUSH2 0x100 DUP1 DUP4 SLOAD DIV MUL DUP4 MSTORE SWAP2 PUSH1 0x20 ADD SWAP2 PUSH2 0x29A JUMP JUMPDEST DUP3 ADD SWAP2 SWAP1 PUSH1 0x0 MSTORE PUSH1 0x20 PUSH1 0x0 KECCAK256 SWAP1 JUMPDEST DUP2 SLOAD DUP2 MSTORE SWAP1 PUSH1 0x1 ADD SWAP1 PUSH1 0x20 ADD DUP1 DUP4 GT PUSH2 0x27D JUMPI DUP3 SWAP1 SUB PUSH1 0x1F AND DUP3 ADD SWAP2 JUMPDEST POP POP POP POP POP DUP2 JUMP JUMPDEST DUP1 PUSH1 0x6 PUSH1 0x0 CALLER PUSH20 0xFFFFFFFFFFFFFFFFFFFFFFFFFFFFFFFFFFFFFFFF AND PUSH20 0xFFFFFFFFFFFFFFFFFFFFFFFFFFFFFFFFFFFFFFFF AND DUP2 MSTORE PUSH1 0x20 ADD SWAP1 DUP2 MSTORE PUSH1 0x20 ADD PUSH1 0x0 KECCAK256 PUSH1 0x0 DUP5 PUSH20 0xFFFFFFFFFFFFFFFFFFFFFFFFFFFFFFFFFFFFFFFF AND PUSH20 0xFFFFFFFFFFFFFFFFFFFFFFFFFFFFFFFFFFFFFFFF AND DUP2 MSTORE PUSH1 0x20 ADD SWAP1 DUP2 MSTORE PUSH1 0x20 ADD PUSH1 0x0 KECCAK256 DUP2 SWAP1 SSTORE POP DUP2 PUSH20 0xFFFFFFFFFFFFFFFFFFFFFFFFFFFFFFFFFFFFFFFF AND CALLER PUSH20 0xFFFFFFFFFFFFFFFFFFFFFFFFFFFFFFFFFFFFFFFF AND PUSH32 0x8C5BE1E5EBEC7D5BD14F71427D1E84F3DD0314C0F7B2291E5B200AC8C7C3B925 DUP4 PUSH1 0x40 MLOAD PUSH2 0x380 SWAP2 SWAP1 PUSH2 0xD1A JUMP JUMPDEST PUSH1 0x40 MLOAD DUP1 SWAP2 SUB SWAP1 LOG3 POP POP JUMP JUMPDEST PUSH1 0x0 SLOAD DUP2 JUMP JUMPDEST DUP1 PUSH1 0x5 PUSH1 0x0 DUP6 PUSH20 0xFFFFFFFFFFFFFFFFFFFFFFFFFFFFFFFFFFFFFFFF AND PUSH20 0xFFFFFFFFFFFFFFFFFFFFFFFFFFFFFFFFFFFFFFFF AND DUP2 MSTORE PUSH1 0x20 ADD SWAP1 DUP2 MSTORE PUSH1 0x20 ADD PUSH1 0x0 KECCAK256 SLOAD LT ISZERO DUP1 ISZERO PUSH2 0x45D JUMPI POP DUP1 PUSH1 0x6 PUSH1 0x0 DUP6 PUSH20 0xFFFFFFFFFFFFFFFFFFFFFFFFFFFFFFFFFFFFFFFF AND PUSH20 0xFFFFFFFFFFFFFFFFFFFFFFFFFFFFFFFFFFFFFFFF AND DUP2 MSTORE PUSH1 0x20 ADD SWAP1 DUP2 MSTORE PUSH1 0x20 ADD PUSH1 0x0 KECCAK256 PUSH1 0x0 CALLER PUSH20 0xFFFFFFFFFFFFFFFFFFFFFFFFFFFFFFFFFFFFFFFF AND PUSH20 0xFFFFFFFFFFFFFFFFFFFFFFFFFFFFFFFFFFFFFFFF AND DUP2 MSTORE PUSH1 0x20 ADD SWAP1 DUP2 MSTORE PUSH1 0x20 ADD PUSH1 0x0 KECCAK256 SLOAD LT ISZERO JUMPDEST DUP1 ISZERO PUSH2 0x469 JUMPI POP PUSH1 0x0 DUP2 GT JUMPDEST PUSH2 0x472 JUMPI PUSH1 0x0 DUP1 REVERT JUMPDEST PUSH2 0x4C4 DUP2 PUSH1 0x5 PUSH1 0x0 DUP6 PUSH20 0xFFFFFFFFFFFFFFFFFFFFFFFFFFFFFFFFFFFFFFFF AND PUSH20 0xFFFFFFFFFFFFFFFFFFFFFFFFFFFFFFFFFFFFFFFF AND DUP2 MSTORE PUSH1 0x20 ADD SWAP1 DUP2 MSTORE PUSH1 0x20 ADD PUSH1 0x0 KECCAK256 SLOAD PUSH2 0xB26 SWAP1 SWAP2 SWAP1 PUSH4 0xFFFFFFFF AND JUMP JUMPDEST PUSH1 0x5 PUSH1 0x0 DUP5 PUSH20 0xFFFFFFFFFFFFFFFFFFFFFFFFFFFFFFFFFFFFFFFF AND PUSH20 0xFFFFFFFFFFFFFFFFFFFFFFFFFFFFFFFFFFFFFFFF AND DUP2 MSTORE PUSH1 0x20 ADD SWAP1 DUP2 MSTORE PUSH1 0x20 ADD PUSH1 0x0 KECCAK256 DUP2 SWAP1 SSTORE POP PUSH2 0x559 DUP2 PUSH1 0x5 PUSH1 0x0 DUP7 PUSH20 0xFFFFFFFFFFFFFFFFFFFFFFFFFFFFFFFFFFFFFFFF AND PUSH20 0xFFFFFFFFFFFFFFFFFFFFFFFFFFFFFFFFFFFFFFFF AND DUP2 MSTORE PUSH1 0x20 ADD SWAP1 DUP2 MSTORE PUSH1 0x20 ADD PUSH1 0x0 KECCAK256 SLOAD PUSH2 0xB4E SWAP1 SWAP2 SWAP1 PUSH4 0xFFFFFFFF AND JUMP JUMPDEST PUSH1 0x5 PUSH1 0x0 DUP6 PUSH20 0xFFFFFFFFFFFFFFFFFFFFFFFFFFFFFFFFFFFFFFFF AND PUSH20 0xFFFFFFFFFFFFFFFFFFFFFFFFFFFFFFFFFFFFFFFF AND DUP2 MSTORE PUSH1 0x20 ADD SWAP1 DUP2 MSTORE PUSH1 0x20 ADD PUSH1 0x0 KECCAK256 DUP2 SWAP1 SSTORE POP PUSH2 0x62B DUP2 PUSH1 0x6 PUSH1 0x0 DUP7 PUSH20 0xFFFFFFFFFFFFFFFFFFFFFFFFFFFFFFFFFFFFFFFF AND PUSH20 0xFFFFFFFFFFFFFFFFFFFFFFFFFFFFFFFFFFFFFFFF AND DUP2 MSTORE PUSH1 0x20 ADD SWAP1 DUP2 MSTORE PUSH1 0x20 ADD PUSH1 0x0 KECCAK256 PUSH1 0x0 CALLER PUSH20 0xFFFFFFFFFFFFFFFFFFFFFFFFFFFFFFFFFFFFFFFF AND PUSH20 0xFFFFFFFFFFFFFFFFFFFFFFFFFFFFFFFFFFFFFFFF AND DUP2 MSTORE PUSH1 0x20 ADD SWAP1 DUP2 MSTORE PUSH1 0x20 ADD PUSH1 0x0 KECCAK256 SLOAD PUSH2 0xB4E SWAP1 SWAP2 SWAP1 PUSH4 0xFFFFFFFF AND JUMP JUMPDEST PUSH1 0x6 PUSH1 0x0 DUP6 PUSH20 0xFFFFFFFFFFFFFFFFFFFFFFFFFFFFFFFFFFFFFFFF AND PUSH20 0xFFFFFFFFFFFFFFFFFFFFFFFFFFFFFFFFFFFFFFFF AND DUP2 MSTORE PUSH1 0x20 ADD SWAP1 DUP2 MSTORE PUSH1 0x20 ADD PUSH1 0x0 KECCAK256 PUSH1 0x0 CALLER PUSH20 0xFFFFFFFFFFFFFFFFFFFFFFFFFFFFFFFFFFFFFFFF AND PUSH20 0xFFFFFFFFFFFFFFFFFFFFFFFFFFFFFFFFFFFFFFFF AND DUP2 MSTORE PUSH1 0x20 ADD SWAP1 DUP2 MSTORE PUSH1 0x20 ADD PUSH1 0x0 KECCAK256 DUP2 SWAP1 SSTORE POP DUP2 PUSH20 0xFFFFFFFFFFFFFFFFFFFFFFFFFFFFFFFFFFFFFFFF AND DUP4 PUSH20 0xFFFFFFFFFFFFFFFFFFFFFFFFFFFFFFFFFFFFFFFF AND PUSH32 0xDDF252AD1BE2C89B69C2B068FC378DAA952BA7F163C4A11628F55A4DF523B3EF DUP4 PUSH1 0x40 MLOAD PUSH2 0x708 SWAP2 SWAP1 PUSH2 0xD1A JUMP JUMPDEST PUSH1 0x40 MLOAD DUP1 SWAP2 SUB SWAP1 LOG3 POP POP POP JUMP JUMPDEST PUSH1 0x2 PUSH1 0x0 SWAP1 SLOAD SWAP1 PUSH2 0x100 EXP SWAP1 DIV PUSH1 0xFF AND DUP2 JUMP JUMPDEST POP POP JUMP JUMPDEST PUSH1 0x4 DUP1 SLOAD PUSH2 0x739 SWAP1 PUSH2 0xE72 JUMP JUMPDEST DUP1 PUSH1 0x1F ADD PUSH1 0x20 DUP1 SWAP2 DIV MUL PUSH1 0x20 ADD PUSH1 0x40 MLOAD SWAP1 DUP2 ADD PUSH1 0x40 MSTORE DUP1 SWAP3 SWAP2 SWAP1 DUP2 DUP2 MSTORE PUSH1 0x20 ADD DUP3 DUP1 SLOAD PUSH2 0x765 SWAP1 PUSH2 0xE72 JUMP JUMPDEST DUP1 ISZERO PUSH2 0x7B2 JUMPI DUP1 PUSH1 0x1F LT PUSH2 0x787 JUMPI PUSH2 0x100 DUP1 DUP4 SLOAD DIV MUL DUP4 MSTORE SWAP2 PUSH1 0x20 ADD SWAP2 PUSH2 0x7B2 JUMP JUMPDEST DUP3 ADD SWAP2 SWAP1 PUSH1 0x0 MSTORE PUSH1 0x20 PUSH1 0x0 KECCAK256 SWAP1 JUMPDEST DUP2 SLOAD DUP2 MSTORE SWAP1 PUSH1 0x1 ADD SWAP1 PUSH1 0x20 ADD DUP1 DUP4 GT PUSH2 0x795 JUMPI DUP3 SWAP1 SUB PUSH1 0x1F AND DUP3 ADD SWAP2 JUMPDEST POP POP POP POP POP DUP2 JUMP JUMPDEST PUSH1 0x0 PUSH1 0x5 PUSH1 0x0 DUP4 PUSH20 0xFFFFFFFFFFFFFFFFFFFFFFFFFFFFFFFFFFFFFFFF AND PUSH20 0xFFFFFFFFFFFFFFFFFFFFFFFFFFFFFFFFFFFFFFFF AND DUP2 MSTORE PUSH1 0x20 ADD SWAP1 DUP2 MSTORE PUSH1 0x20 ADD PUSH1 0x0 KECCAK256 SLOAD SWAP1 POP SWAP2 SWAP1 POP JUMP JUMPDEST PUSH1 0x3 DUP1 SLOAD PUSH2 0x810 SWAP1 PUSH2 0xE72 JUMP JUMPDEST DUP1 PUSH1 0x1F ADD PUSH1 0x20 DUP1 SWAP2 DIV MUL PUSH1 0x20 ADD PUSH1 0x40 MLOAD SWAP1 DUP2 ADD PUSH1 0x40 MSTORE DUP1 SWAP3 SWAP2 SWAP1 DUP2 DUP2 MSTORE PUSH1 0x20 ADD DUP3 DUP1 SLOAD PUSH2 0x83C SWAP1 PUSH2 0xE72 JUMP JUMPDEST DUP1 ISZERO PUSH2 0x889 JUMPI DUP1 PUSH1 0x1F LT PUSH2 0x85E JUMPI PUSH2 0x100 DUP1 DUP4 SLOAD DIV MUL DUP4 MSTORE SWAP2 PUSH1 0x20 ADD SWAP2 PUSH2 0x889 JUMP JUMPDEST DUP3 ADD SWAP2 SWAP1 PUSH1 0x0 MSTORE PUSH1 0x20 PUSH1 0x0 KECCAK256 SWAP1 JUMPDEST DUP2 SLOAD DUP2 MSTORE SWAP1 PUSH1 0x1 ADD SWAP1 PUSH1 0x20 ADD DUP1 DUP4 GT PUSH2 0x86C JUMPI DUP3 SWAP1 SUB PUSH1 0x1F AND DUP3 ADD SWAP2 JUMPDEST POP POP POP POP POP DUP2 JUMP JUMPDEST PUSH1 0x40 PUSH1 0x4 DUP2 PUSH2 0x8A0 SWAP2 SWAP1 PUSH2 0xD6C JUMP JUMPDEST PUSH1 0x0 CALLDATASIZE SWAP1 POP EQ PUSH2 0x8B3 JUMPI PUSH2 0x8B2 PUSH2 0xEA4 JUMP JUMPDEST JUMPDEST DUP2 PUSH1 0x5 PUSH1 0x0 CALLER PUSH20 0xFFFFFFFFFFFFFFFFFFFFFFFFFFFFFFFFFFFFFFFF AND PUSH20 0xFFFFFFFFFFFFFFFFFFFFFFFFFFFFFFFFFFFFFFFF AND DUP2 MSTORE PUSH1 0x20 ADD SWAP1 DUP2 MSTORE PUSH1 0x20 ADD PUSH1 0x0 KECCAK256 SLOAD LT ISZERO DUP1 ISZERO PUSH2 0x902 JUMPI POP PUSH1 0x0 DUP3 GT JUMPDEST PUSH2 0x90B JUMPI PUSH1 0x0 DUP1 REVERT JUMPDEST PUSH2 0x95D DUP3 PUSH1 0x5 PUSH1 0x0 CALLER PUSH20 0xFFFFFFFFFFFFFFFFFFFFFFFFFFFFFFFFFFFFFFFF AND PUSH20 0xFFFFFFFFFFFFFFFFFFFFFFFFFFFFFFFFFFFFFFFF AND DUP2 MSTORE PUSH1 0x20 ADD SWAP1 DUP2 MSTORE PUSH1 0x20 ADD PUSH1 0x0 KECCAK256 SLOAD PUSH2 0xB4E SWAP1 SWAP2 SWAP1 PUSH4 0xFFFFFFFF AND JUMP JUMPDEST PUSH1 0x5 PUSH1 0x0 CALLER PUSH20 0xFFFFFFFFFFFFFFFFFFFFFFFFFFFFFFFFFFFFFFFF AND PUSH20 0xFFFFFFFFFFFFFFFFFFFFFFFFFFFFFFFFFFFFFFFF AND DUP2 MSTORE PUSH1 0x20 ADD SWAP1 DUP2 MSTORE PUSH1 0x20 ADD PUSH1 0x0 KECCAK256 DUP2 SWAP1 SSTORE POP PUSH2 0x9F2 DUP3 PUSH1 0x5 PUSH1 0x0 DUP7 PUSH20 0xFFFFFFFFFFFFFFFFFFFFFFFFFFFFFFFFFFFFFFFF AND PUSH20 0xFFFFFFFFFFFFFFFFFFFFFFFFFFFFFFFFFFFFFFFF AND DUP2 MSTORE PUSH1 0x20 ADD SWAP1 DUP2 MSTORE PUSH1 0x20 ADD PUSH1 0x0 KECCAK256 SLOAD PUSH2 0xB26 SWAP1 SWAP2 SWAP1 PUSH4 0xFFFFFFFF AND JUMP JUMPDEST PUSH1 0x5 PUSH1 0x0 DUP6 PUSH20 0xFFFFFFFFFFFFFFFFFFFFFFFFFFFFFFFFFFFFFFFF AND PUSH20 0xFFFFFFFFFFFFFFFFFFFFFFFFFFFFFFFFFFFFFFFF AND DUP2 MSTORE PUSH1 0x20 ADD SWAP1 DUP2 MSTORE PUSH1 0x20 ADD PUSH1 0x0 KECCAK256 DUP2 SWAP1 SSTORE POP DUP3 PUSH20 0xFFFFFFFFFFFFFFFFFFFFFFFFFFFFFFFFFFFFFFFF AND CALLER PUSH20 0xFFFFFFFFFFFFFFFFFFFFFFFFFFFFFFFFFFFFFFFF AND PUSH32 0xDDF252AD1BE2C89B69C2B068FC378DAA952BA7F163C4A11628F55A4DF523B3EF DUP5 PUSH1 0x40 MLOAD PUSH2 0xA92 SWAP2 SWAP1 PUSH2 0xD1A JUMP JUMPDEST PUSH1 0x40 MLOAD DUP1 SWAP2 SUB SWAP1 LOG3 POP POP POP JUMP JUMPDEST PUSH1 0x0 PUSH1 0x6 PUSH1 0x0 DUP4 PUSH20 0xFFFFFFFFFFFFFFFFFFFFFFFFFFFFFFFFFFFFFFFF AND PUSH20 0xFFFFFFFFFFFFFFFFFFFFFFFFFFFFFFFFFFFFFFFF AND DUP2 MSTORE PUSH1 0x20 ADD SWAP1 DUP2 MSTORE PUSH1 0x20 ADD PUSH1 0x0 KECCAK256 PUSH1 0x0 DUP5 PUSH20 0xFFFFFFFFFFFFFFFFFFFFFFFFFFFFFFFFFFFFFFFF AND PUSH20 0xFFFFFFFFFFFFFFFFFFFFFFFFFFFFFFFFFFFFFFFF AND DUP2 MSTORE PUSH1 0x20 ADD SWAP1 DUP2 MSTORE PUSH1 0x20 ADD PUSH1 0x0 KECCAK256 SLOAD SWAP1 POP SWAP3 SWAP2 POP POP JUMP JUMPDEST PUSH1 0x0 DUP1 DUP3 DUP5 PUSH2 0xB35 SWAP2 SWAP1 PUSH2 0xD6C JUMP JUMPDEST SWAP1 POP DUP4 DUP2 LT ISZERO PUSH2 0xB44 JUMPI PUSH1 0x0 DUP1 REVERT JUMPDEST DUP1 SWAP2 POP POP SWAP3 SWAP2 POP POP JUMP JUMPDEST PUSH1 0x0 DUP3 DUP3 GT ISZERO PUSH2 0xB5D JUMPI PUSH1 0x0 DUP1 REVERT JUMPDEST PUSH1 0x0 DUP3 DUP5 PUSH2 0xB6B SWAP2 SWAP1 PUSH2 0xDC2 JUMP JUMPDEST SWAP1 POP DUP1 SWAP2 POP POP SWAP3 SWAP2 POP POP JUMP JUMPDEST PUSH1 0x0 DUP2 CALLDATALOAD SWAP1 POP PUSH2 0xB86 DUP2 PUSH2 0xF47 JUMP JUMPDEST SWAP3 SWAP2 POP POP JUMP JUMPDEST PUSH1 0x0 DUP2 CALLDATALOAD SWAP1 POP PUSH2 0xB9B DUP2 PUSH2 0xF5E JUMP JUMPDEST SWAP3 SWAP2 POP POP JUMP JUMPDEST PUSH1 0x0 PUSH1 0x20 DUP3 DUP5 SUB SLT ISZERO PUSH2 0xBB7 JUMPI PUSH2 0xBB6 PUSH2 0xF31 JUMP JUMPDEST JUMPDEST PUSH1 0x0 PUSH2 0xBC5 DUP5 DUP3 DUP6 ADD PUSH2 0xB77 JUMP JUMPDEST SWAP2 POP POP SWAP3 SWAP2 POP POP JUMP JUMPDEST PUSH1 0x0 DUP1 PUSH1 0x40 DUP4 DUP6 SUB SLT ISZERO PUSH2 0xBE5 JUMPI PUSH2 0xBE4 PUSH2 0xF31 JUMP JUMPDEST JUMPDEST PUSH1 0x0 PUSH2 0xBF3 DUP6 DUP3 DUP7 ADD PUSH2 0xB77 JUMP JUMPDEST SWAP3 POP POP PUSH1 0x20 PUSH2 0xC04 DUP6 DUP3 DUP7 ADD PUSH2 0xB77 JUMP JUMPDEST SWAP2 POP POP SWAP3 POP SWAP3 SWAP1 POP JUMP JUMPDEST PUSH1 0x0 DUP1 PUSH1 0x0 PUSH1 0x60 DUP5 DUP7 SUB SLT ISZERO PUSH2 0xC27 JUMPI PUSH2 0xC26 PUSH2 0xF31 JUMP JUMPDEST JUMPDEST PUSH1 0x0 PUSH2 0xC35 DUP7 DUP3 DUP8 ADD PUSH2 0xB77 JUMP JUMPDEST SWAP4 POP POP PUSH1 0x20 PUSH2 0xC46 DUP7 DUP3 DUP8 ADD PUSH2 0xB77 JUMP JUMPDEST SWAP3 POP POP PUSH1 0x40 PUSH2 0xC57 DUP7 DUP3 DUP8 ADD PUSH2 0xB8C JUMP JUMPDEST SWAP2 POP POP SWAP3 POP SWAP3 POP SWAP3 JUMP JUMPDEST PUSH1 0x0 DUP1 PUSH1 0x40 DUP4 DUP6 SUB SLT ISZERO PUSH2 0xC78 JUMPI PUSH2 0xC77 PUSH2 0xF31 JUMP JUMPDEST JUMPDEST PUSH1 0x0 PUSH2 0xC86 DUP6 DUP3 DUP7 ADD PUSH2 0xB77 JUMP JUMPDEST SWAP3 POP POP PUSH1 0x20 PUSH2 0xC97 DUP6 DUP3 DUP7 ADD PUSH2 0xB8C JUMP JUMPDEST SWAP2 POP POP SWAP3 POP SWAP3 SWAP1 POP JUMP JUMPDEST PUSH1 0x0 PUSH2 0xCAC DUP3 PUSH2 0xD50 JUMP JUMPDEST PUSH2 0xCB6 DUP2 DUP6 PUSH2 0xD5B JUMP JUMPDEST SWAP4 POP PUSH2 0xCC6 DUP2 DUP6 PUSH1 0x20 DUP7 ADD PUSH2 0xE3F JUMP JUMPDEST PUSH2 0xCCF DUP2 PUSH2 0xF36 JUMP JUMPDEST DUP5 ADD SWAP2 POP POP SWAP3 SWAP2 POP POP JUMP JUMPDEST PUSH2 0xCE3 DUP2 PUSH2 0xE28 JUMP JUMPDEST DUP3 MSTORE POP POP JUMP JUMPDEST PUSH2 0xCF2 DUP2 PUSH2 0xE32 JUMP JUMPDEST DUP3 MSTORE POP POP JUMP JUMPDEST PUSH1 0x0 PUSH1 0x20 DUP3 ADD SWAP1 POP DUP2 DUP2 SUB PUSH1 0x0 DUP4 ADD MSTORE PUSH2 0xD12 DUP2 DUP5 PUSH2 0xCA1 JUMP JUMPDEST SWAP1 POP SWAP3 SWAP2 POP POP JUMP JUMPDEST PUSH1 0x0 PUSH1 0x20 DUP3 ADD SWAP1 POP PUSH2 0xD2F PUSH1 0x0 DUP4 ADD DUP5 PUSH2 0xCDA JUMP JUMPDEST SWAP3 SWAP2 POP POP JUMP JUMPDEST PUSH1 0x0 PUSH1 0x20 DUP3 ADD SWAP1 POP PUSH2 0xD4A PUSH1 0x0 DUP4 ADD DUP5 PUSH2 0xCE9 JUMP JUMPDEST SWAP3 SWAP2 POP POP JUMP JUMPDEST PUSH1 0x0 DUP2 MLOAD SWAP1 POP SWAP2 SWAP1 POP JUMP JUMPDEST PUSH1 0x0 DUP3 DUP3 MSTORE PUSH1 0x20 DUP3 ADD SWAP1 POP SWAP3 SWAP2 POP POP JUMP JUMPDEST PUSH1 0x0 PUSH2 0xD77 DUP3 PUSH2 0xE28 JUMP JUMPDEST SWAP2 POP PUSH2 0xD82 DUP4 PUSH2 0xE28 JUMP JUMPDEST SWAP3 POP DUP3 PUSH32 0xFFFFFFFFFFFFFFFFFFFFFFFFFFFFFFFFFFFFFFFFFFFFFFFFFFFFFFFFFFFFFFFF SUB DUP3 GT ISZERO PUSH2 0xDB7 JUMPI PUSH2 0xDB6 PUSH2 0xED3 JUMP JUMPDEST JUMPDEST DUP3 DUP3 ADD SWAP1 POP SWAP3 SWAP2 POP POP JUMP JUMPDEST PUSH1 0x0 PUSH2 0xDCD DUP3 PUSH2 0xE28 JUMP JUMPDEST SWAP2 POP PUSH2 0xDD8 DUP4 PUSH2 0xE28 JUMP JUMPDEST SWAP3 POP DUP3 DUP3 LT ISZERO PUSH2 0xDEB JUMPI PUSH2 0xDEA PUSH2 0xED3 JUMP JUMPDEST JUMPDEST DUP3 DUP3 SUB SWAP1 POP SWAP3 SWAP2 POP POP JUMP JUMPDEST PUSH1 0x0 PUSH2 0xE01 DUP3 PUSH2 0xE08 JUMP JUMPDEST SWAP1 POP SWAP2 SWAP1 POP JUMP JUMPDEST PUSH1 0x0 PUSH20 0xFFFFFFFFFFFFFFFFFFFFFFFFFFFFFFFFFFFFFFFF DUP3 AND SWAP1 POP SWAP2 SWAP1 POP JUMP JUMPDEST PUSH1 0x0 DUP2 SWAP1 POP SWAP2 SWAP1 POP JUMP JUMPDEST PUSH1 0x0 PUSH1 0xFF DUP3 AND SWAP1 POP SWAP2 SWAP1 POP JUMP JUMPDEST PUSH1 0x0 JUMPDEST DUP4 DUP2 LT ISZERO PUSH2 0xE5D JUMPI DUP1 DUP3 ADD MLOAD DUP2 DUP5 ADD MSTORE PUSH1 0x20 DUP2 ADD SWAP1 POP PUSH2 0xE42 JUMP JUMPDEST DUP4 DUP2 GT ISZERO PUSH2 0xE6C JUMPI PUSH1 0x0 DUP5 DUP5 ADD MSTORE JUMPDEST POP POP POP POP JUMP JUMPDEST PUSH1 0x0 PUSH1 0x2 DUP3 DIV SWAP1 POP PUSH1 0x1 DUP3 AND DUP1 PUSH2 0xE8A JUMPI PUSH1 0x7F DUP3 AND SWAP2 POP JUMPDEST PUSH1 0x20 DUP3 LT DUP2 EQ ISZERO PUSH2 0xE9E JUMPI PUSH2 0xE9D PUSH2 0xF02 JUMP JUMPDEST JUMPDEST POP SWAP2 SWAP1 POP JUMP JUMPDEST PUSH32 0x4E487B7100000000000000000000000000000000000000000000000000000000 PUSH1 0x0 MSTORE PUSH1 0x1 PUSH1 0x4 MSTORE PUSH1 0x24 PUSH1 0x0 REVERT JUMPDEST PUSH32 0x4E487B7100000000000000000000000000000000000000000000000000000000 PUSH1 0x0 MSTORE PUSH1 0x11 PUSH1 0x4 MSTORE PUSH1 0x24 PUSH1 0x0 REVERT JUMPDEST PUSH32 0x4E487B7100000000000000000000000000000000000000000000000000000000 PUSH1 0x0 MSTORE PUSH1 0x22 PUSH1 0x4 MSTORE PUSH1 0x24 PUSH1 0x0 REVERT JUMPDEST PUSH1 0x0 DUP1 REVERT JUMPDEST PUSH1 0x0 PUSH1 0x1F NOT PUSH1 0x1F DUP4 ADD AND SWAP1 POP SWAP2 SWAP1 POP JUMP JUMPDEST PUSH2 0xF50 DUP2 PUSH2 0xDF6 JUMP JUMPDEST DUP2 EQ PUSH2 0xF5B JUMPI PUSH1 0x0 DUP1 REVERT JUMPDEST POP JUMP JUMPDEST PUSH2 0xF67 DUP2 PUSH2 0xE28 JUMP JUMPDEST DUP2 EQ PUSH2 0xF72 JUMPI PUSH1 0x0 DUP1 REVERT JUMPDEST POP JUMP INVALID LOG2 PUSH5 0x6970667358 0x22 SLT KECCAK256 NUMBER CALL TIMESTAMP SUB 0xFB 0xF PUSH1 0xF4 0xB9 MOD 0x2D 0xB0 0xAC SSTORE BALANCE 0xC3 SLOAD PUSH18 0x468B89FA8C4C8874BC0A8A5BD93664736F6C PUSH4 0x43000807 STOP CALLER "
				},
				"gasEstimates": {
					"creation": {
						"codeDepositCost": "639800",
						"executionCost": "infinite",
						"totalCost": "infinite"
					},
					"external": {
						"addProposals(address[],bytes32[])": "infinite",
						"addVoters(address[])": "infinite",
						"proposals(address)": "2792",
						"totalVotesFor(address)": "infinite",
						"vote(address)": "infinite"
					}
				},
				"methodIdentifiers": {
					"addProposals(address[],bytes32[])": "ea58d968",
					"addVoters(address[])": "8203373a",
					"proposals(address)": "3341b445",
					"totalVotesFor(address)": "4041ef54",
					"vote(address)": "6dd7d8ea"
				}
			},
			"storageLayout": {
				"storage": [
					{
						"astId": 407,
						"contract": "contracts/Voting.sol:Voting",
						"label": "name",
						"offset": 0,
						"slot": "0",
						"type": "t_bytes32"
					},
					{
						"astId": 409,
						"contract": "contracts/Voting.sol:Voting",
						"label": "startTime",
						"offset": 0,
						"slot": "1",
						"type": "t_uint256"
					},
					{
						"astId": 411,
						"contract": "contracts/Voting.sol:Voting",
						"label": "endTime",
						"offset": 0,
						"slot": "2",
						"type": "t_uint256"
					},
					{
						"astId": 415,
						"contract": "contracts/Voting.sol:Voting",
						"label": "voters",
						"offset": 0,
						"slot": "3",
						"type": "t_mapping(t_address,t_bool)"
					},
					{
						"astId": 419,
						"contract": "contracts/Voting.sol:Voting",
						"label": "proposals",
						"offset": 0,
						"slot": "4",
						"type": "t_mapping(t_address,t_bytes32)"
					},
					{
						"astId": 421,
						"contract": "contracts/Voting.sol:Voting",
						"label": "chairperson",
						"offset": 0,
						"slot": "5",
						"type": "t_address"
					},
					{
						"astId": 428,
						"contract": "contracts/Voting.sol:Voting",
						"label": "token",
						"offset": 0,
						"slot": "6",
						"type": "t_contract(Token)402"
					}
				],
				"types": {
					"t_address": {
						"encoding": "inplace",
						"label": "address",
						"numberOfBytes": "20"
					},
					"t_bool": {
						"encoding": "inplace",
						"label": "bool",
						"numberOfBytes": "1"
					},
					"t_bytes32": {
						"encoding": "inplace",
						"label": "bytes32",
						"numberOfBytes": "32"
					},
					"t_contract(Token)402": {
						"encoding": "inplace",
						"label": "contract Token",
						"numberOfBytes": "20"
					},
					"t_mapping(t_address,t_bool)": {
						"encoding": "mapping",
						"key": "t_address",
						"label": "mapping(address => bool)",
						"numberOfBytes": "32",
						"value": "t_bool"
					},
					"t_mapping(t_address,t_bytes32)": {
						"encoding": "mapping",
						"key": "t_address",
						"label": "mapping(address => bytes32)",
						"numberOfBytes": "32",
						"value": "t_bytes32"
					},
					"t_uint256": {
						"encoding": "inplace",
						"label": "uint256",
						"numberOfBytes": "32"
					}
				}
			},
			"userdoc": {
				"kind": "user",
				"methods": {},
				"version": 1
			}
		}
	}
}