{
	"contracts/Voting.sol": {
		"Voting": {
			"abi": [
				{
					"inputs": [
						{
							"internalType": "uint256",
							"name": "_startTime",
							"type": "uint256"
						},
						{
							"internalType": "uint256",
							"name": "_endTime",
							"type": "uint256"
						}
					],
					"stateMutability": "nonpayable",
					"type": "constructor"
				},
				{
					"inputs": [
						{
							"internalType": "address[]",
							"name": "_proposalsAddr",
							"type": "address[]"
						},
						{
							"internalType": "string[]",
							"name": "_proposalsNames",
							"type": "string[]"
						}
					],
					"name": "addProposals",
					"outputs": [],
					"stateMutability": "nonpayable",
					"type": "function"
				},
				{
					"inputs": [
						{
							"internalType": "address[]",
							"name": "_voters",
							"type": "address[]"
						}
					],
					"name": "addVoters",
					"outputs": [],
					"stateMutability": "nonpayable",
					"type": "function"
				},
				{
					"inputs": [
						{
							"internalType": "address",
							"name": "proposal",
							"type": "address"
						}
					],
					"name": "totalVotesFor",
					"outputs": [
						{
							"internalType": "uint256",
							"name": "",
							"type": "uint256"
						}
					],
					"stateMutability": "view",
					"type": "function"
				},
				{
					"inputs": [
						{
							"internalType": "address",
							"name": "proposal",
							"type": "address"
						}
					],
					"name": "vote",
					"outputs": [],
					"stateMutability": "nonpayable",
					"type": "function"
				}
			],
			"devdoc": {
				"kind": "dev",
				"methods": {},
				"version": 1
			},
			"evm": {
				"assembly": "    /* \"contracts/Voting.sol\":91:1848  contract Voting {\r... */\n  mstore(0x40, 0x80)\n    /* \"contracts/Voting.sol\":289:300  new Token() */\n  mload(0x40)\n  tag_1\n  swap1\n  tag_2\n  jump\t// in\ntag_1:\n  mload(0x40)\n  dup1\n  swap2\n  sub\n  swap1\n  0x00\n  create\n  dup1\n  iszero\n  dup1\n  iszero\n  tag_3\n  jumpi\n  returndatasize\n  0x00\n  dup1\n  returndatacopy\n  revert(0x00, returndatasize)\ntag_3:\n  pop\n    /* \"contracts/Voting.sol\":275:300  Token token = new Token() */\n  0x05\n  exp(0x0100, 0x00)\n  dup2\n  sload\n  dup2\n  0xffffffffffffffffffffffffffffffffffffffff\n  mul\n  not\n  and\n  swap1\n  dup4\n  0xffffffffffffffffffffffffffffffffffffffff\n  and\n  mul\n  or\n  swap1\n  sstore\n  pop\n    /* \"contracts/Voting.sol\":309:498  constructor (uint _startTime, uint _endTime) {\r... */\n  callvalue\n  dup1\n  iszero\n  tag_4\n  jumpi\n  0x00\n  dup1\n  revert\ntag_4:\n  pop\n  mload(0x40)\n  sub(codesize, bytecodeSize)\n  dup1\n  bytecodeSize\n  dup4\n  codecopy\n  dup2\n  dup2\n  add\n  0x40\n  mstore\n  dup2\n  add\n  swap1\n  tag_5\n  swap2\n  swap1\n  tag_6\n  jump\t// in\ntag_5:\n    /* \"contracts/Voting.sol\":381:391  msg.sender */\n  caller\n    /* \"contracts/Voting.sol\":367:378  chairperson */\n  0x04\n  0x00\n    /* \"contracts/Voting.sol\":367:391  chairperson = msg.sender */\n  0x0100\n  exp\n  dup2\n  sload\n  dup2\n  0xffffffffffffffffffffffffffffffffffffffff\n  mul\n  not\n  and\n  swap1\n  dup4\n  0xffffffffffffffffffffffffffffffffffffffff\n  and\n  mul\n  or\n  swap1\n  sstore\n  pop\n    /* \"contracts/Voting.sol\":402:407  token */\n  0x05\n  0x00\n  swap1\n  sload\n  swap1\n  0x0100\n  exp\n  swap1\n  div\n  0xffffffffffffffffffffffffffffffffffffffff\n  and\n    /* \"contracts/Voting.sol\":402:412  token.mint */\n  0xffffffffffffffffffffffffffffffffffffffff\n  and\n  0x40c10f19\n    /* \"contracts/Voting.sol\":413:424  chairperson */\n  0x04\n  0x00\n  swap1\n  sload\n  swap1\n  0x0100\n  exp\n  swap1\n  div\n  0xffffffffffffffffffffffffffffffffffffffff\n  and\n    /* \"contracts/Voting.sol\":426:427  5 */\n  0x05\n    /* \"contracts/Voting.sol\":402:428  token.mint(chairperson, 5) */\n  mload(0x40)\n  dup4\n  0xffffffff\n  and\n  0xe0\n  shl\n  dup2\n  mstore\n  0x04\n  add\n  tag_9\n  swap3\n  swap2\n  swap1\n  tag_10\n  jump\t// in\ntag_9:\n  0x00\n  mload(0x40)\n  dup1\n  dup4\n  sub\n  dup2\n  0x00\n  dup8\n  dup1\n  extcodesize\n  iszero\n  dup1\n  iszero\n  tag_11\n  jumpi\n  0x00\n  dup1\n  revert\ntag_11:\n  pop\n  gas\n  call\n  iszero\n  dup1\n  iszero\n  tag_13\n  jumpi\n  returndatasize\n  0x00\n  dup1\n  returndatacopy\n  revert(0x00, returndatasize)\ntag_13:\n  pop\n  pop\n  pop\n  pop\n    /* \"contracts/Voting.sol\":451:461  _startTime */\n  dup2\n    /* \"contracts/Voting.sol\":439:448  startTime */\n  0x00\n    /* \"contracts/Voting.sol\":439:461  startTime = _startTime */\n  dup2\n  swap1\n  sstore\n  pop\n    /* \"contracts/Voting.sol\":482:490  _endTime */\n  dup1\n    /* \"contracts/Voting.sol\":472:479  endTime */\n  0x01\n    /* \"contracts/Voting.sol\":472:490  endTime = _endTime */\n  dup2\n  swap1\n  sstore\n  pop\n    /* \"contracts/Voting.sol\":309:498  constructor (uint _startTime, uint _endTime) {\r... */\n  pop\n  pop\n    /* \"contracts/Voting.sol\":91:1848  contract Voting {\r... */\n  jump(tag_14)\ntag_2:\n  dataSize(sub_1)\n  dup1\n  dataOffset(sub_1)\n  dup4\n  codecopy\n  add\n  swap1\n  jump\t// out\n    /* \"#utility.yul\":7:150   */\ntag_16:\n    /* \"#utility.yul\":64:69   */\n  0x00\n    /* \"#utility.yul\":95:101   */\n  dup2\n    /* \"#utility.yul\":89:102   */\n  mload\n    /* \"#utility.yul\":80:102   */\n  swap1\n  pop\n    /* \"#utility.yul\":111:144   */\n  tag_18\n    /* \"#utility.yul\":138:143   */\n  dup2\n    /* \"#utility.yul\":111:144   */\n  tag_19\n  jump\t// in\ntag_18:\n    /* \"#utility.yul\":7:150   */\n  swap3\n  swap2\n  pop\n  pop\n  jump\t// out\n    /* \"#utility.yul\":156:663   */\ntag_6:\n    /* \"#utility.yul\":235:241   */\n  0x00\n    /* \"#utility.yul\":243:249   */\n  dup1\n    /* \"#utility.yul\":292:294   */\n  0x40\n    /* \"#utility.yul\":280:289   */\n  dup4\n    /* \"#utility.yul\":271:278   */\n  dup6\n    /* \"#utility.yul\":267:290   */\n  sub\n    /* \"#utility.yul\":263:295   */\n  slt\n    /* \"#utility.yul\":260:379   */\n  iszero\n  tag_21\n  jumpi\n    /* \"#utility.yul\":298:377   */\n  tag_22\n  tag_23\n  jump\t// in\ntag_22:\n    /* \"#utility.yul\":260:379   */\ntag_21:\n    /* \"#utility.yul\":418:419   */\n  0x00\n    /* \"#utility.yul\":443:507   */\n  tag_24\n    /* \"#utility.yul\":499:506   */\n  dup6\n    /* \"#utility.yul\":490:496   */\n  dup3\n    /* \"#utility.yul\":479:488   */\n  dup7\n    /* \"#utility.yul\":475:497   */\n  add\n    /* \"#utility.yul\":443:507   */\n  tag_16\n  jump\t// in\ntag_24:\n    /* \"#utility.yul\":433:507   */\n  swap3\n  pop\n    /* \"#utility.yul\":389:517   */\n  pop\n    /* \"#utility.yul\":556:558   */\n  0x20\n    /* \"#utility.yul\":582:646   */\n  tag_25\n    /* \"#utility.yul\":638:645   */\n  dup6\n    /* \"#utility.yul\":629:635   */\n  dup3\n    /* \"#utility.yul\":618:627   */\n  dup7\n    /* \"#utility.yul\":614:636   */\n  add\n    /* \"#utility.yul\":582:646   */\n  tag_16\n  jump\t// in\ntag_25:\n    /* \"#utility.yul\":572:646   */\n  swap2\n  pop\n    /* \"#utility.yul\":527:656   */\n  pop\n    /* \"#utility.yul\":156:663   */\n  swap3\n  pop\n  swap3\n  swap1\n  pop\n  jump\t// out\n    /* \"#utility.yul\":669:787   */\ntag_26:\n    /* \"#utility.yul\":756:780   */\n  tag_28\n    /* \"#utility.yul\":774:779   */\n  dup2\n    /* \"#utility.yul\":756:780   */\n  tag_29\n  jump\t// in\ntag_28:\n    /* \"#utility.yul\":751:754   */\n  dup3\n    /* \"#utility.yul\":744:781   */\n  mstore\n    /* \"#utility.yul\":669:787   */\n  pop\n  pop\n  jump\t// out\n    /* \"#utility.yul\":793:940   */\ntag_30:\n    /* \"#utility.yul\":888:933   */\n  tag_32\n    /* \"#utility.yul\":927:932   */\n  dup2\n    /* \"#utility.yul\":888:933   */\n  tag_33\n  jump\t// in\ntag_32:\n    /* \"#utility.yul\":883:886   */\n  dup3\n    /* \"#utility.yul\":876:934   */\n  mstore\n    /* \"#utility.yul\":793:940   */\n  pop\n  pop\n  jump\t// out\n    /* \"#utility.yul\":946:1294   */\ntag_10:\n    /* \"#utility.yul\":1075:1079   */\n  0x00\n    /* \"#utility.yul\":1113:1115   */\n  0x40\n    /* \"#utility.yul\":1102:1111   */\n  dup3\n    /* \"#utility.yul\":1098:1116   */\n  add\n    /* \"#utility.yul\":1090:1116   */\n  swap1\n  pop\n    /* \"#utility.yul\":1126:1197   */\n  tag_35\n    /* \"#utility.yul\":1194:1195   */\n  0x00\n    /* \"#utility.yul\":1183:1192   */\n  dup4\n    /* \"#utility.yul\":1179:1196   */\n  add\n    /* \"#utility.yul\":1170:1176   */\n  dup6\n    /* \"#utility.yul\":1126:1197   */\n  tag_26\n  jump\t// in\ntag_35:\n    /* \"#utility.yul\":1207:1287   */\n  tag_36\n    /* \"#utility.yul\":1283:1285   */\n  0x20\n    /* \"#utility.yul\":1272:1281   */\n  dup4\n    /* \"#utility.yul\":1268:1286   */\n  add\n    /* \"#utility.yul\":1259:1265   */\n  dup5\n    /* \"#utility.yul\":1207:1287   */\n  tag_30\n  jump\t// in\ntag_36:\n    /* \"#utility.yul\":946:1294   */\n  swap4\n  swap3\n  pop\n  pop\n  pop\n  jump\t// out\n    /* \"#utility.yul\":1381:1477   */\ntag_29:\n    /* \"#utility.yul\":1418:1425   */\n  0x00\n    /* \"#utility.yul\":1447:1471   */\n  tag_40\n    /* \"#utility.yul\":1465:1470   */\n  dup3\n    /* \"#utility.yul\":1447:1471   */\n  tag_41\n  jump\t// in\ntag_40:\n    /* \"#utility.yul\":1436:1471   */\n  swap1\n  pop\n    /* \"#utility.yul\":1381:1477   */\n  swap2\n  swap1\n  pop\n  jump\t// out\n    /* \"#utility.yul\":1483:1609   */\ntag_41:\n    /* \"#utility.yul\":1520:1527   */\n  0x00\n    /* \"#utility.yul\":1560:1602   */\n  0xffffffffffffffffffffffffffffffffffffffff\n    /* \"#utility.yul\":1553:1558   */\n  dup3\n    /* \"#utility.yul\":1549:1603   */\n  and\n    /* \"#utility.yul\":1538:1603   */\n  swap1\n  pop\n    /* \"#utility.yul\":1483:1609   */\n  swap2\n  swap1\n  pop\n  jump\t// out\n    /* \"#utility.yul\":1615:1692   */\ntag_43:\n    /* \"#utility.yul\":1652:1659   */\n  0x00\n    /* \"#utility.yul\":1681:1686   */\n  dup2\n    /* \"#utility.yul\":1670:1686   */\n  swap1\n  pop\n    /* \"#utility.yul\":1615:1692   */\n  swap2\n  swap1\n  pop\n  jump\t// out\n    /* \"#utility.yul\":1698:1819   */\ntag_33:\n    /* \"#utility.yul\":1756:1765   */\n  0x00\n    /* \"#utility.yul\":1789:1813   */\n  tag_46\n    /* \"#utility.yul\":1807:1812   */\n  dup3\n    /* \"#utility.yul\":1789:1813   */\n  tag_43\n  jump\t// in\ntag_46:\n    /* \"#utility.yul\":1776:1813   */\n  swap1\n  pop\n    /* \"#utility.yul\":1698:1819   */\n  swap2\n  swap1\n  pop\n  jump\t// out\n    /* \"#utility.yul\":1948:2065   */\ntag_23:\n    /* \"#utility.yul\":2057:2058   */\n  0x00\n    /* \"#utility.yul\":2054:2055   */\n  dup1\n    /* \"#utility.yul\":2047:2059   */\n  revert\n    /* \"#utility.yul\":2071:2193   */\ntag_19:\n    /* \"#utility.yul\":2144:2168   */\n  tag_51\n    /* \"#utility.yul\":2162:2167   */\n  dup2\n    /* \"#utility.yul\":2144:2168   */\n  tag_43\n  jump\t// in\ntag_51:\n    /* \"#utility.yul\":2137:2142   */\n  dup2\n    /* \"#utility.yul\":2134:2169   */\n  eq\n    /* \"#utility.yul\":2124:2187   */\n  tag_52\n  jumpi\n    /* \"#utility.yul\":2183:2184   */\n  0x00\n    /* \"#utility.yul\":2180:2181   */\n  dup1\n    /* \"#utility.yul\":2173:2185   */\n  revert\n    /* \"#utility.yul\":2124:2187   */\ntag_52:\n    /* \"#utility.yul\":2071:2193   */\n  pop\n  jump\t// out\n    /* \"contracts/Voting.sol\":91:1848  contract Voting {\r... */\ntag_14:\n  dataSize(sub_0)\n  dup1\n  dataOffset(sub_0)\n  0x00\n  codecopy\n  0x00\n  return\nstop\n\nsub_0: assembly {\n        /* \"contracts/Voting.sol\":91:1848  contract Voting {\r... */\n      mstore(0x40, 0x80)\n      callvalue\n      dup1\n      iszero\n      tag_1\n      jumpi\n      0x00\n      dup1\n      revert\n    tag_1:\n      pop\n      jumpi(tag_2, lt(calldatasize, 0x04))\n      shr(0xe0, calldataload(0x00))\n      dup1\n      0x4041ef54\n      eq\n      tag_3\n      jumpi\n      dup1\n      0x633fff16\n      eq\n      tag_4\n      jumpi\n      dup1\n      0x6dd7d8ea\n      eq\n      tag_5\n      jumpi\n      dup1\n      0x8203373a\n      eq\n      tag_6\n      jumpi\n    tag_2:\n      0x00\n      dup1\n      revert\n        /* \"contracts/Voting.sol\":1629:1841  function totalVotesFor(address proposal) view public returns (uint) {\r... */\n    tag_3:\n      tag_7\n      0x04\n      dup1\n      calldatasize\n      sub\n      dup2\n      add\n      swap1\n      tag_8\n      swap2\n      swap1\n      tag_9\n      jump\t// in\n    tag_8:\n      tag_10\n      jump\t// in\n    tag_7:\n      mload(0x40)\n      tag_11\n      swap2\n      swap1\n      tag_12\n      jump\t// in\n    tag_11:\n      mload(0x40)\n      dup1\n      swap2\n      sub\n      swap1\n      return\n        /* \"contracts/Voting.sol\":819:1179  function addProposals(address[] memory _proposalsAddr, \r... */\n    tag_4:\n      tag_13\n      0x04\n      dup1\n      calldatasize\n      sub\n      dup2\n      add\n      swap1\n      tag_14\n      swap2\n      swap1\n      tag_15\n      jump\t// in\n    tag_14:\n      tag_16\n      jump\t// in\n    tag_13:\n      stop\n        /* \"contracts/Voting.sol\":1187:1621  function vote(address proposal) public {\r... */\n    tag_5:\n      tag_17\n      0x04\n      dup1\n      calldatasize\n      sub\n      dup2\n      add\n      swap1\n      tag_18\n      swap2\n      swap1\n      tag_9\n      jump\t// in\n    tag_18:\n      tag_19\n      jump\t// in\n    tag_17:\n      stop\n        /* \"contracts/Voting.sol\":506:811  function addVoters(address[] memory _voters) public {\r... */\n    tag_6:\n      tag_20\n      0x04\n      dup1\n      calldatasize\n      sub\n      dup2\n      add\n      swap1\n      tag_21\n      swap2\n      swap1\n      tag_22\n      jump\t// in\n    tag_21:\n      tag_23\n      jump\t// in\n    tag_20:\n      stop\n        /* \"contracts/Voting.sol\":1629:1841  function totalVotesFor(address proposal) view public returns (uint) {\r... */\n    tag_10:\n        /* \"contracts/Voting.sol\":1691:1695  uint */\n      0x00\n        /* \"contracts/Voting.sol\":1735:1742  endTime */\n      sload(0x01)\n        /* \"contracts/Voting.sol\":1716:1731  block.timestamp */\n      timestamp\n        /* \"contracts/Voting.sol\":1716:1742  block.timestamp >= endTime */\n      lt\n      iszero\n        /* \"contracts/Voting.sol\":1708:1743  require(block.timestamp >= endTime) */\n      tag_25\n      jumpi\n      0x00\n      dup1\n      revert\n    tag_25:\n        /* \"contracts/Voting.sol\":1776:1787  chairperson */\n      0x04\n      0x00\n      swap1\n      sload\n      swap1\n      0x0100\n      exp\n      swap1\n      div\n      0xffffffffffffffffffffffffffffffffffffffff\n      and\n        /* \"contracts/Voting.sol\":1762:1787  msg.sender == chairperson */\n      0xffffffffffffffffffffffffffffffffffffffff\n      and\n        /* \"contracts/Voting.sol\":1762:1772  msg.sender */\n      caller\n        /* \"contracts/Voting.sol\":1762:1787  msg.sender == chairperson */\n      0xffffffffffffffffffffffffffffffffffffffff\n      and\n      eq\n        /* \"contracts/Voting.sol\":1754:1788  require(msg.sender == chairperson) */\n      tag_26\n      jumpi\n      0x00\n      dup1\n      revert\n    tag_26:\n        /* \"contracts/Voting.sol\":1808:1813  token */\n      0x05\n      0x00\n      swap1\n      sload\n      swap1\n      0x0100\n      exp\n      swap1\n      div\n      0xffffffffffffffffffffffffffffffffffffffff\n      and\n        /* \"contracts/Voting.sol\":1808:1823  token.balanceOf */\n      0xffffffffffffffffffffffffffffffffffffffff\n      and\n      0x70a08231\n        /* \"contracts/Voting.sol\":1824:1832  proposal */\n      dup4\n        /* \"contracts/Voting.sol\":1808:1833  token.balanceOf(proposal) */\n      mload(0x40)\n      dup3\n      0xffffffff\n      and\n      0xe0\n      shl\n      dup2\n      mstore\n      0x04\n      add\n      tag_27\n      swap2\n      swap1\n      tag_28\n      jump\t// in\n    tag_27:\n      0x20\n      mload(0x40)\n      dup1\n      dup4\n      sub\n      dup2\n      dup7\n      dup1\n      extcodesize\n      iszero\n      dup1\n      iszero\n      tag_29\n      jumpi\n      0x00\n      dup1\n      revert\n    tag_29:\n      pop\n      gas\n      staticcall\n      iszero\n      dup1\n      iszero\n      tag_31\n      jumpi\n      returndatasize\n      0x00\n      dup1\n      returndatacopy\n      revert(0x00, returndatasize)\n    tag_31:\n      pop\n      pop\n      pop\n      pop\n      mload(0x40)\n      returndatasize\n      not(0x1f)\n      0x1f\n      dup3\n      add\n      and\n      dup3\n      add\n      dup1\n      0x40\n      mstore\n      pop\n      dup2\n      add\n      swap1\n      tag_32\n      swap2\n      swap1\n      tag_33\n      jump\t// in\n    tag_32:\n        /* \"contracts/Voting.sol\":1801:1833  return token.balanceOf(proposal) */\n      swap1\n      pop\n        /* \"contracts/Voting.sol\":1629:1841  function totalVotesFor(address proposal) view public returns (uint) {\r... */\n      swap2\n      swap1\n      pop\n      jump\t// out\n        /* \"contracts/Voting.sol\":819:1179  function addProposals(address[] memory _proposalsAddr, \r... */\n    tag_16:\n        /* \"contracts/Voting.sol\":987:1002  _proposalsNames */\n      dup1\n        /* \"contracts/Voting.sol\":987:1009  _proposalsNames.length */\n      mload\n        /* \"contracts/Voting.sol\":962:976  _proposalsAddr */\n      dup3\n        /* \"contracts/Voting.sol\":962:983  _proposalsAddr.length */\n      mload\n        /* \"contracts/Voting.sol\":962:1009  _proposalsAddr.length == _proposalsNames.length */\n      eq\n        /* \"contracts/Voting.sol\":954:1034  require(_proposalsAddr.length == _proposalsNames.length, \"Length is different.\") */\n      tag_35\n      jumpi\n      mload(0x40)\n      0x08c379a000000000000000000000000000000000000000000000000000000000\n      dup2\n      mstore\n      0x04\n      add\n      tag_36\n      swap1\n      tag_37\n      jump\t// in\n    tag_36:\n      mload(0x40)\n      dup1\n      swap2\n      sub\n      swap1\n      revert\n    tag_35:\n        /* \"contracts/Voting.sol\":1052:1058  uint i */\n      0x00\n        /* \"contracts/Voting.sol\":1047:1172  for (uint i = 0; i < _proposalsAddr.length; i++) {\r... */\n    tag_38:\n        /* \"contracts/Voting.sol\":1068:1082  _proposalsAddr */\n      dup3\n        /* \"contracts/Voting.sol\":1068:1089  _proposalsAddr.length */\n      mload\n        /* \"contracts/Voting.sol\":1064:1065  i */\n      dup2\n        /* \"contracts/Voting.sol\":1064:1089  i < _proposalsAddr.length */\n      lt\n        /* \"contracts/Voting.sol\":1047:1172  for (uint i = 0; i < _proposalsAddr.length; i++) {\r... */\n      iszero\n      tag_39\n      jumpi\n        /* \"contracts/Voting.sol\":1142:1157  _proposalsNames */\n      dup2\n        /* \"contracts/Voting.sol\":1158:1159  i */\n      dup2\n        /* \"contracts/Voting.sol\":1142:1160  _proposalsNames[i] */\n      dup2\n      mload\n      dup2\n      lt\n      tag_41\n      jumpi\n      tag_42\n      tag_43\n      jump\t// in\n    tag_42:\n    tag_41:\n      0x20\n      mul\n      0x20\n      add\n      add\n      mload\n        /* \"contracts/Voting.sol\":1111:1120  proposals */\n      0x03\n        /* \"contracts/Voting.sol\":1111:1139  proposals[_proposalsAddr[i]] */\n      0x00\n        /* \"contracts/Voting.sol\":1121:1135  _proposalsAddr */\n      dup6\n        /* \"contracts/Voting.sol\":1136:1137  i */\n      dup5\n        /* \"contracts/Voting.sol\":1121:1138  _proposalsAddr[i] */\n      dup2\n      mload\n      dup2\n      lt\n      tag_44\n      jumpi\n      tag_45\n      tag_43\n      jump\t// in\n    tag_45:\n    tag_44:\n      0x20\n      mul\n      0x20\n      add\n      add\n      mload\n        /* \"contracts/Voting.sol\":1111:1139  proposals[_proposalsAddr[i]] */\n      0xffffffffffffffffffffffffffffffffffffffff\n      and\n      0xffffffffffffffffffffffffffffffffffffffff\n      and\n      dup2\n      mstore\n      0x20\n      add\n      swap1\n      dup2\n      mstore\n      0x20\n      add\n      0x00\n      keccak256\n        /* \"contracts/Voting.sol\":1111:1160  proposals[_proposalsAddr[i]] = _proposalsNames[i] */\n      swap1\n      dup1\n      mload\n      swap1\n      0x20\n      add\n      swap1\n      tag_46\n      swap3\n      swap2\n      swap1\n      tag_47\n      jump\t// in\n    tag_46:\n      pop\n        /* \"contracts/Voting.sol\":1091:1094  i++ */\n      dup1\n      dup1\n      tag_48\n      swap1\n      tag_49\n      jump\t// in\n    tag_48:\n      swap2\n      pop\n      pop\n        /* \"contracts/Voting.sol\":1047:1172  for (uint i = 0; i < _proposalsAddr.length; i++) {\r... */\n      jump(tag_38)\n    tag_39:\n      pop\n        /* \"contracts/Voting.sol\":819:1179  function addProposals(address[] memory _proposalsAddr, \r... */\n      pop\n      pop\n      jump\t// out\n        /* \"contracts/Voting.sol\":1187:1621  function vote(address proposal) public {\r... */\n    tag_19:\n        /* \"contracts/Voting.sol\":1264:1271  endTime */\n      sload(0x01)\n        /* \"contracts/Voting.sol\":1245:1260  block.timestamp */\n      timestamp\n        /* \"contracts/Voting.sol\":1245:1271  block.timestamp <= endTime */\n      gt\n      iszero\n        /* \"contracts/Voting.sol\":1237:1288  require(block.timestamp <= endTime, \"Time is end.\") */\n      tag_51\n      jumpi\n      mload(0x40)\n      0x08c379a000000000000000000000000000000000000000000000000000000000\n      dup2\n      mstore\n      0x04\n      add\n      tag_52\n      swap1\n      tag_53\n      jump\t// in\n    tag_52:\n      mload(0x40)\n      dup1\n      swap2\n      sub\n      swap1\n      revert\n    tag_51:\n        /* \"contracts/Voting.sol\":1308:1314  voters */\n      0x02\n        /* \"contracts/Voting.sol\":1308:1326  voters[msg.sender] */\n      0x00\n        /* \"contracts/Voting.sol\":1315:1325  msg.sender */\n      caller\n        /* \"contracts/Voting.sol\":1308:1326  voters[msg.sender] */\n      0xffffffffffffffffffffffffffffffffffffffff\n      and\n      0xffffffffffffffffffffffffffffffffffffffff\n      and\n      dup2\n      mstore\n      0x20\n      add\n      swap1\n      dup2\n      mstore\n      0x20\n      add\n      0x00\n      keccak256\n      0x00\n      swap1\n      sload\n      swap1\n      0x0100\n      exp\n      swap1\n      div\n      0xff\n      and\n        /* \"contracts/Voting.sol\":1307:1326  !voters[msg.sender] */\n      iszero\n        /* \"contracts/Voting.sol\":1299:1351  require(!voters[msg.sender], \"Voter already voted.\") */\n      tag_54\n      jumpi\n      mload(0x40)\n      0x08c379a000000000000000000000000000000000000000000000000000000000\n      dup2\n      mstore\n      0x04\n      add\n      tag_55\n      swap1\n      tag_56\n      jump\t// in\n    tag_55:\n      mload(0x40)\n      dup1\n      swap2\n      sub\n      swap1\n      revert\n    tag_54:\n        /* \"contracts/Voting.sol\":1401:1402  0 */\n      0x00\n        /* \"contracts/Voting.sol\":1370:1375  token */\n      0x05\n      0x00\n      swap1\n      sload\n      swap1\n      0x0100\n      exp\n      swap1\n      div\n      0xffffffffffffffffffffffffffffffffffffffff\n      and\n        /* \"contracts/Voting.sol\":1370:1385  token.balanceOf */\n      0xffffffffffffffffffffffffffffffffffffffff\n      and\n      0x70a08231\n        /* \"contracts/Voting.sol\":1386:1396  msg.sender */\n      caller\n        /* \"contracts/Voting.sol\":1370:1397  token.balanceOf(msg.sender) */\n      mload(0x40)\n      dup3\n      0xffffffff\n      and\n      0xe0\n      shl\n      dup2\n      mstore\n      0x04\n      add\n      tag_57\n      swap2\n      swap1\n      tag_28\n      jump\t// in\n    tag_57:\n      0x20\n      mload(0x40)\n      dup1\n      dup4\n      sub\n      dup2\n      dup7\n      dup1\n      extcodesize\n      iszero\n      dup1\n      iszero\n      tag_58\n      jumpi\n      0x00\n      dup1\n      revert\n    tag_58:\n      pop\n      gas\n      staticcall\n      iszero\n      dup1\n      iszero\n      tag_60\n      jumpi\n      returndatasize\n      0x00\n      dup1\n      returndatacopy\n      revert(0x00, returndatasize)\n    tag_60:\n      pop\n      pop\n      pop\n      pop\n      mload(0x40)\n      returndatasize\n      not(0x1f)\n      0x1f\n      dup3\n      add\n      and\n      dup3\n      add\n      dup1\n      0x40\n      mstore\n      pop\n      dup2\n      add\n      swap1\n      tag_61\n      swap2\n      swap1\n      tag_33\n      jump\t// in\n    tag_61:\n        /* \"contracts/Voting.sol\":1370:1402  token.balanceOf(msg.sender) != 0 */\n      eq\n      iszero\n        /* \"contracts/Voting.sol\":1362:1427  require(token.balanceOf(msg.sender) != 0, \"Token doesn't exist.\") */\n      tag_62\n      jumpi\n      mload(0x40)\n      0x08c379a000000000000000000000000000000000000000000000000000000000\n      dup2\n      mstore\n      0x04\n      add\n      tag_63\n      swap1\n      tag_64\n      jump\t// in\n    tag_63:\n      mload(0x40)\n      dup1\n      swap2\n      sub\n      swap1\n      revert\n    tag_62:\n        /* \"contracts/Voting.sol\":1534:1539  token */\n      0x05\n      0x00\n      swap1\n      sload\n      swap1\n      0x0100\n      exp\n      swap1\n      div\n      0xffffffffffffffffffffffffffffffffffffffff\n      and\n        /* \"contracts/Voting.sol\":1534:1552  token.transferFrom */\n      0xffffffffffffffffffffffffffffffffffffffff\n      and\n      0x23b872dd\n        /* \"contracts/Voting.sol\":1553:1563  msg.sender */\n      caller\n        /* \"contracts/Voting.sol\":1565:1573  proposal */\n      dup4\n        /* \"contracts/Voting.sol\":1575:1576  1 */\n      0x01\n        /* \"contracts/Voting.sol\":1534:1577  token.transferFrom(msg.sender, proposal, 1) */\n      mload(0x40)\n      dup5\n      0xffffffff\n      and\n      0xe0\n      shl\n      dup2\n      mstore\n      0x04\n      add\n      tag_65\n      swap4\n      swap3\n      swap2\n      swap1\n      tag_66\n      jump\t// in\n    tag_65:\n      0x00\n      mload(0x40)\n      dup1\n      dup4\n      sub\n      dup2\n      0x00\n      dup8\n      dup1\n      extcodesize\n      iszero\n      dup1\n      iszero\n      tag_67\n      jumpi\n      0x00\n      dup1\n      revert\n    tag_67:\n      pop\n      gas\n      call\n      iszero\n      dup1\n      iszero\n      tag_69\n      jumpi\n      returndatasize\n      0x00\n      dup1\n      returndatacopy\n      revert(0x00, returndatasize)\n    tag_69:\n      pop\n      pop\n      pop\n      pop\n        /* \"contracts/Voting.sol\":1609:1613  true */\n      0x01\n        /* \"contracts/Voting.sol\":1588:1594  voters */\n      0x02\n        /* \"contracts/Voting.sol\":1588:1606  voters[msg.sender] */\n      0x00\n        /* \"contracts/Voting.sol\":1595:1605  msg.sender */\n      caller\n        /* \"contracts/Voting.sol\":1588:1606  voters[msg.sender] */\n      0xffffffffffffffffffffffffffffffffffffffff\n      and\n      0xffffffffffffffffffffffffffffffffffffffff\n      and\n      dup2\n      mstore\n      0x20\n      add\n      swap1\n      dup2\n      mstore\n      0x20\n      add\n      0x00\n      keccak256\n      0x00\n        /* \"contracts/Voting.sol\":1588:1613  voters[msg.sender] = true */\n      0x0100\n      exp\n      dup2\n      sload\n      dup2\n      0xff\n      mul\n      not\n      and\n      swap1\n      dup4\n      iszero\n      iszero\n      mul\n      or\n      swap1\n      sstore\n      pop\n        /* \"contracts/Voting.sol\":1187:1621  function vote(address proposal) public {\r... */\n      pop\n      jump\t// out\n        /* \"contracts/Voting.sol\":506:811  function addVoters(address[] memory _voters) public {\r... */\n    tag_23:\n        /* \"contracts/Voting.sol\":635:641  uint i */\n      0x00\n        /* \"contracts/Voting.sol\":630:766  for (uint i = 0; i < _voters.length; i++) {\r... */\n    tag_71:\n        /* \"contracts/Voting.sol\":651:658  _voters */\n      dup2\n        /* \"contracts/Voting.sol\":651:665  _voters.length */\n      mload\n        /* \"contracts/Voting.sol\":647:648  i */\n      dup2\n        /* \"contracts/Voting.sol\":647:665  i < _voters.length */\n      lt\n        /* \"contracts/Voting.sol\":630:766  for (uint i = 0; i < _voters.length; i++) {\r... */\n      iszero\n      tag_72\n      jumpi\n        /* \"contracts/Voting.sol\":708:713  false */\n      0x00\n        /* \"contracts/Voting.sol\":687:693  voters */\n      0x02\n        /* \"contracts/Voting.sol\":687:705  voters[_voters[i]] */\n      0x00\n        /* \"contracts/Voting.sol\":694:701  _voters */\n      dup5\n        /* \"contracts/Voting.sol\":702:703  i */\n      dup5\n        /* \"contracts/Voting.sol\":694:704  _voters[i] */\n      dup2\n      mload\n      dup2\n      lt\n      tag_74\n      jumpi\n      tag_75\n      tag_43\n      jump\t// in\n    tag_75:\n    tag_74:\n      0x20\n      mul\n      0x20\n      add\n      add\n      mload\n        /* \"contracts/Voting.sol\":687:705  voters[_voters[i]] */\n      0xffffffffffffffffffffffffffffffffffffffff\n      and\n      0xffffffffffffffffffffffffffffffffffffffff\n      and\n      dup2\n      mstore\n      0x20\n      add\n      swap1\n      dup2\n      mstore\n      0x20\n      add\n      0x00\n      keccak256\n      0x00\n        /* \"contracts/Voting.sol\":687:713  voters[_voters[i]] = false */\n      0x0100\n      exp\n      dup2\n      sload\n      dup2\n      0xff\n      mul\n      not\n      and\n      swap1\n      dup4\n      iszero\n      iszero\n      mul\n      or\n      swap1\n      sstore\n      pop\n        /* \"contracts/Voting.sol\":728:733  token */\n      0x05\n      0x00\n      swap1\n      sload\n      swap1\n      0x0100\n      exp\n      swap1\n      div\n      0xffffffffffffffffffffffffffffffffffffffff\n      and\n        /* \"contracts/Voting.sol\":728:738  token.mint */\n      0xffffffffffffffffffffffffffffffffffffffff\n      and\n      0x40c10f19\n        /* \"contracts/Voting.sol\":739:746  _voters */\n      dup4\n        /* \"contracts/Voting.sol\":747:748  i */\n      dup4\n        /* \"contracts/Voting.sol\":739:749  _voters[i] */\n      dup2\n      mload\n      dup2\n      lt\n      tag_76\n      jumpi\n      tag_77\n      tag_43\n      jump\t// in\n    tag_77:\n    tag_76:\n      0x20\n      mul\n      0x20\n      add\n      add\n      mload\n        /* \"contracts/Voting.sol\":751:752  1 */\n      0x01\n        /* \"contracts/Voting.sol\":728:753  token.mint(_voters[i], 1) */\n      mload(0x40)\n      dup4\n      0xffffffff\n      and\n      0xe0\n      shl\n      dup2\n      mstore\n      0x04\n      add\n      tag_78\n      swap3\n      swap2\n      swap1\n      tag_79\n      jump\t// in\n    tag_78:\n      0x00\n      mload(0x40)\n      dup1\n      dup4\n      sub\n      dup2\n      0x00\n      dup8\n      dup1\n      extcodesize\n      iszero\n      dup1\n      iszero\n      tag_80\n      jumpi\n      0x00\n      dup1\n      revert\n    tag_80:\n      pop\n      gas\n      call\n      iszero\n      dup1\n      iszero\n      tag_82\n      jumpi\n      returndatasize\n      0x00\n      dup1\n      returndatacopy\n      revert(0x00, returndatasize)\n    tag_82:\n      pop\n      pop\n      pop\n      pop\n        /* \"contracts/Voting.sol\":667:670  i++ */\n      dup1\n      dup1\n      tag_83\n      swap1\n      tag_49\n      jump\t// in\n    tag_83:\n      swap2\n      pop\n      pop\n        /* \"contracts/Voting.sol\":630:766  for (uint i = 0; i < _voters.length; i++) {\r... */\n      jump(tag_71)\n    tag_72:\n      pop\n        /* \"contracts/Voting.sol\":776:781  token */\n      0x05\n      0x00\n      swap1\n      sload\n      swap1\n      0x0100\n      exp\n      swap1\n      div\n      0xffffffffffffffffffffffffffffffffffffffff\n      and\n        /* \"contracts/Voting.sol\":776:786  token.mint */\n      0xffffffffffffffffffffffffffffffffffffffff\n      and\n      0x40c10f19\n        /* \"contracts/Voting.sol\":787:798  chairperson */\n      0x04\n      0x00\n      swap1\n      sload\n      swap1\n      0x0100\n      exp\n      swap1\n      div\n      0xffffffffffffffffffffffffffffffffffffffff\n      and\n        /* \"contracts/Voting.sol\":800:801  1 */\n      0x01\n        /* \"contracts/Voting.sol\":776:802  token.mint(chairperson, 1) */\n      mload(0x40)\n      dup4\n      0xffffffff\n      and\n      0xe0\n      shl\n      dup2\n      mstore\n      0x04\n      add\n      tag_84\n      swap3\n      swap2\n      swap1\n      tag_79\n      jump\t// in\n    tag_84:\n      0x00\n      mload(0x40)\n      dup1\n      dup4\n      sub\n      dup2\n      0x00\n      dup8\n      dup1\n      extcodesize\n      iszero\n      dup1\n      iszero\n      tag_85\n      jumpi\n      0x00\n      dup1\n      revert\n    tag_85:\n      pop\n      gas\n      call\n      iszero\n      dup1\n      iszero\n      tag_87\n      jumpi\n      returndatasize\n      0x00\n      dup1\n      returndatacopy\n      revert(0x00, returndatasize)\n    tag_87:\n      pop\n      pop\n      pop\n      pop\n        /* \"contracts/Voting.sol\":506:811  function addVoters(address[] memory _voters) public {\r... */\n      pop\n      jump\t// out\n    tag_47:\n      dup3\n      dup1\n      sload\n      tag_88\n      swap1\n      tag_89\n      jump\t// in\n    tag_88:\n      swap1\n      0x00\n      mstore\n      keccak256(0x00, 0x20)\n      swap1\n      0x1f\n      add\n      0x20\n      swap1\n      div\n      dup2\n      add\n      swap3\n      dup3\n      tag_91\n      jumpi\n      0x00\n      dup6\n      sstore\n      jump(tag_90)\n    tag_91:\n      dup3\n      0x1f\n      lt\n      tag_92\n      jumpi\n      dup1\n      mload\n      not(0xff)\n      and\n      dup4\n      dup1\n      add\n      or\n      dup6\n      sstore\n      jump(tag_90)\n    tag_92:\n      dup3\n      dup1\n      add\n      0x01\n      add\n      dup6\n      sstore\n      dup3\n      iszero\n      tag_90\n      jumpi\n      swap2\n      dup3\n      add\n    tag_93:\n      dup3\n      dup2\n      gt\n      iszero\n      tag_94\n      jumpi\n      dup3\n      mload\n      dup3\n      sstore\n      swap2\n      0x20\n      add\n      swap2\n      swap1\n      0x01\n      add\n      swap1\n      jump(tag_93)\n    tag_94:\n    tag_90:\n      pop\n      swap1\n      pop\n      tag_95\n      swap2\n      swap1\n      tag_96\n      jump\t// in\n    tag_95:\n      pop\n      swap1\n      jump\t// out\n    tag_96:\n    tag_97:\n      dup1\n      dup3\n      gt\n      iszero\n      tag_98\n      jumpi\n      0x00\n      dup2\n      0x00\n      swap1\n      sstore\n      pop\n      0x01\n      add\n      jump(tag_97)\n    tag_98:\n      pop\n      swap1\n      jump\t// out\n        /* \"#utility.yul\":24:746   */\n    tag_100:\n        /* \"#utility.yul\":120:125   */\n      0x00\n        /* \"#utility.yul\":145:226   */\n      tag_102\n        /* \"#utility.yul\":161:225   */\n      tag_103\n        /* \"#utility.yul\":218:224   */\n      dup5\n        /* \"#utility.yul\":161:225   */\n      tag_104\n      jump\t// in\n    tag_103:\n        /* \"#utility.yul\":145:226   */\n      tag_105\n      jump\t// in\n    tag_102:\n        /* \"#utility.yul\":136:226   */\n      swap1\n      pop\n        /* \"#utility.yul\":246:251   */\n      dup1\n        /* \"#utility.yul\":275:281   */\n      dup4\n        /* \"#utility.yul\":268:273   */\n      dup3\n        /* \"#utility.yul\":261:282   */\n      mstore\n        /* \"#utility.yul\":309:313   */\n      0x20\n        /* \"#utility.yul\":302:307   */\n      dup3\n        /* \"#utility.yul\":298:314   */\n      add\n        /* \"#utility.yul\":291:314   */\n      swap1\n      pop\n        /* \"#utility.yul\":335:341   */\n      dup3\n        /* \"#utility.yul\":385:388   */\n      dup6\n        /* \"#utility.yul\":377:381   */\n      0x20\n        /* \"#utility.yul\":369:375   */\n      dup7\n        /* \"#utility.yul\":365:382   */\n      mul\n        /* \"#utility.yul\":360:363   */\n      dup3\n        /* \"#utility.yul\":356:383   */\n      add\n        /* \"#utility.yul\":353:389   */\n      gt\n        /* \"#utility.yul\":350:493   */\n      iszero\n      tag_106\n      jumpi\n        /* \"#utility.yul\":404:483   */\n      tag_107\n      tag_108\n      jump\t// in\n    tag_107:\n        /* \"#utility.yul\":350:493   */\n    tag_106:\n        /* \"#utility.yul\":517:518   */\n      0x00\n        /* \"#utility.yul\":502:740   */\n    tag_109:\n        /* \"#utility.yul\":527:533   */\n      dup6\n        /* \"#utility.yul\":524:525   */\n      dup2\n        /* \"#utility.yul\":521:534   */\n      lt\n        /* \"#utility.yul\":502:740   */\n      iszero\n      tag_111\n      jumpi\n        /* \"#utility.yul\":595:598   */\n      dup2\n        /* \"#utility.yul\":624:661   */\n      tag_112\n        /* \"#utility.yul\":657:660   */\n      dup9\n        /* \"#utility.yul\":645:655   */\n      dup3\n        /* \"#utility.yul\":624:661   */\n      tag_113\n      jump\t// in\n    tag_112:\n        /* \"#utility.yul\":619:622   */\n      dup5\n        /* \"#utility.yul\":612:662   */\n      mstore\n        /* \"#utility.yul\":691:695   */\n      0x20\n        /* \"#utility.yul\":686:689   */\n      dup5\n        /* \"#utility.yul\":682:696   */\n      add\n        /* \"#utility.yul\":675:696   */\n      swap4\n      pop\n        /* \"#utility.yul\":725:729   */\n      0x20\n        /* \"#utility.yul\":720:723   */\n      dup4\n        /* \"#utility.yul\":716:730   */\n      add\n        /* \"#utility.yul\":709:730   */\n      swap3\n      pop\n        /* \"#utility.yul\":562:740   */\n      pop\n        /* \"#utility.yul\":549:550   */\n      0x01\n        /* \"#utility.yul\":546:547   */\n      dup2\n        /* \"#utility.yul\":542:551   */\n      add\n        /* \"#utility.yul\":537:551   */\n      swap1\n      pop\n        /* \"#utility.yul\":502:740   */\n      jump(tag_109)\n    tag_111:\n        /* \"#utility.yul\":506:520   */\n      pop\n        /* \"#utility.yul\":126:746   */\n      pop\n      pop\n        /* \"#utility.yul\":24:746   */\n      swap4\n      swap3\n      pop\n      pop\n      pop\n      jump\t// out\n        /* \"#utility.yul\":768:1725   */\n    tag_114:\n        /* \"#utility.yul\":874:879   */\n      0x00\n        /* \"#utility.yul\":899:990   */\n      tag_116\n        /* \"#utility.yul\":915:989   */\n      tag_117\n        /* \"#utility.yul\":982:988   */\n      dup5\n        /* \"#utility.yul\":915:989   */\n      tag_118\n      jump\t// in\n    tag_117:\n        /* \"#utility.yul\":899:990   */\n      tag_105\n      jump\t// in\n    tag_116:\n        /* \"#utility.yul\":890:990   */\n      swap1\n      pop\n        /* \"#utility.yul\":1010:1015   */\n      dup1\n        /* \"#utility.yul\":1039:1045   */\n      dup4\n        /* \"#utility.yul\":1032:1037   */\n      dup3\n        /* \"#utility.yul\":1025:1046   */\n      mstore\n        /* \"#utility.yul\":1073:1077   */\n      0x20\n        /* \"#utility.yul\":1066:1071   */\n      dup3\n        /* \"#utility.yul\":1062:1078   */\n      add\n        /* \"#utility.yul\":1055:1078   */\n      swap1\n      pop\n        /* \"#utility.yul\":1099:1105   */\n      dup3\n        /* \"#utility.yul\":1149:1152   */\n      dup6\n        /* \"#utility.yul\":1141:1145   */\n      0x20\n        /* \"#utility.yul\":1133:1139   */\n      dup7\n        /* \"#utility.yul\":1129:1146   */\n      mul\n        /* \"#utility.yul\":1124:1127   */\n      dup3\n        /* \"#utility.yul\":1120:1147   */\n      add\n        /* \"#utility.yul\":1117:1153   */\n      gt\n        /* \"#utility.yul\":1114:1257   */\n      iszero\n      tag_119\n      jumpi\n        /* \"#utility.yul\":1168:1247   */\n      tag_120\n      tag_108\n      jump\t// in\n    tag_120:\n        /* \"#utility.yul\":1114:1257   */\n    tag_119:\n        /* \"#utility.yul\":1281:1282   */\n      0x00\n        /* \"#utility.yul\":1266:1719   */\n    tag_121:\n        /* \"#utility.yul\":1291:1297   */\n      dup6\n        /* \"#utility.yul\":1288:1289   */\n      dup2\n        /* \"#utility.yul\":1285:1298   */\n      lt\n        /* \"#utility.yul\":1266:1719   */\n      iszero\n      tag_123\n      jumpi\n        /* \"#utility.yul\":1373:1376   */\n      dup2\n        /* \"#utility.yul\":1360:1377   */\n      calldataload\n        /* \"#utility.yul\":1409:1427   */\n      0xffffffffffffffff\n        /* \"#utility.yul\":1396:1407   */\n      dup2\n        /* \"#utility.yul\":1393:1428   */\n      gt\n        /* \"#utility.yul\":1390:1512   */\n      iszero\n      tag_124\n      jumpi\n        /* \"#utility.yul\":1431:1510   */\n      tag_125\n      tag_126\n      jump\t// in\n    tag_125:\n        /* \"#utility.yul\":1390:1512   */\n    tag_124:\n        /* \"#utility.yul\":1555:1566   */\n      dup1\n        /* \"#utility.yul\":1547:1553   */\n      dup7\n        /* \"#utility.yul\":1543:1567   */\n      add\n        /* \"#utility.yul\":1593:1640   */\n      tag_127\n        /* \"#utility.yul\":1636:1639   */\n      dup10\n        /* \"#utility.yul\":1624:1634   */\n      dup3\n        /* \"#utility.yul\":1593:1640   */\n      tag_128\n      jump\t// in\n    tag_127:\n        /* \"#utility.yul\":1588:1591   */\n      dup6\n        /* \"#utility.yul\":1581:1641   */\n      mstore\n        /* \"#utility.yul\":1670:1674   */\n      0x20\n        /* \"#utility.yul\":1665:1668   */\n      dup6\n        /* \"#utility.yul\":1661:1675   */\n      add\n        /* \"#utility.yul\":1654:1675   */\n      swap5\n      pop\n        /* \"#utility.yul\":1704:1708   */\n      0x20\n        /* \"#utility.yul\":1699:1702   */\n      dup5\n        /* \"#utility.yul\":1695:1709   */\n      add\n        /* \"#utility.yul\":1688:1709   */\n      swap4\n      pop\n        /* \"#utility.yul\":1326:1719   */\n      pop\n      pop\n        /* \"#utility.yul\":1313:1314   */\n      0x01\n        /* \"#utility.yul\":1310:1311   */\n      dup2\n        /* \"#utility.yul\":1306:1315   */\n      add\n        /* \"#utility.yul\":1301:1315   */\n      swap1\n      pop\n        /* \"#utility.yul\":1266:1719   */\n      jump(tag_121)\n    tag_123:\n        /* \"#utility.yul\":1270:1284   */\n      pop\n        /* \"#utility.yul\":880:1725   */\n      pop\n      pop\n        /* \"#utility.yul\":768:1725   */\n      swap4\n      swap3\n      pop\n      pop\n      pop\n      jump\t// out\n        /* \"#utility.yul\":1731:2143   */\n    tag_129:\n        /* \"#utility.yul\":1809:1814   */\n      0x00\n        /* \"#utility.yul\":1834:1900   */\n      tag_131\n        /* \"#utility.yul\":1850:1899   */\n      tag_132\n        /* \"#utility.yul\":1892:1898   */\n      dup5\n        /* \"#utility.yul\":1850:1899   */\n      tag_133\n      jump\t// in\n    tag_132:\n        /* \"#utility.yul\":1834:1900   */\n      tag_105\n      jump\t// in\n    tag_131:\n        /* \"#utility.yul\":1825:1900   */\n      swap1\n      pop\n        /* \"#utility.yul\":1923:1929   */\n      dup3\n        /* \"#utility.yul\":1916:1921   */\n      dup2\n        /* \"#utility.yul\":1909:1930   */\n      mstore\n        /* \"#utility.yul\":1961:1965   */\n      0x20\n        /* \"#utility.yul\":1954:1959   */\n      dup2\n        /* \"#utility.yul\":1950:1966   */\n      add\n        /* \"#utility.yul\":1999:2002   */\n      dup5\n        /* \"#utility.yul\":1990:1996   */\n      dup5\n        /* \"#utility.yul\":1985:1988   */\n      dup5\n        /* \"#utility.yul\":1981:1997   */\n      add\n        /* \"#utility.yul\":1978:2003   */\n      gt\n        /* \"#utility.yul\":1975:2087   */\n      iszero\n      tag_134\n      jumpi\n        /* \"#utility.yul\":2006:2085   */\n      tag_135\n      tag_136\n      jump\t// in\n    tag_135:\n        /* \"#utility.yul\":1975:2087   */\n    tag_134:\n        /* \"#utility.yul\":2096:2137   */\n      tag_137\n        /* \"#utility.yul\":2130:2136   */\n      dup5\n        /* \"#utility.yul\":2125:2128   */\n      dup3\n        /* \"#utility.yul\":2120:2123   */\n      dup6\n        /* \"#utility.yul\":2096:2137   */\n      tag_138\n      jump\t// in\n    tag_137:\n        /* \"#utility.yul\":1815:2143   */\n      pop\n        /* \"#utility.yul\":1731:2143   */\n      swap4\n      swap3\n      pop\n      pop\n      pop\n      jump\t// out\n        /* \"#utility.yul\":2149:2288   */\n    tag_113:\n        /* \"#utility.yul\":2195:2200   */\n      0x00\n        /* \"#utility.yul\":2233:2239   */\n      dup2\n        /* \"#utility.yul\":2220:2240   */\n      calldataload\n        /* \"#utility.yul\":2211:2240   */\n      swap1\n      pop\n        /* \"#utility.yul\":2249:2282   */\n      tag_140\n        /* \"#utility.yul\":2276:2281   */\n      dup2\n        /* \"#utility.yul\":2249:2282   */\n      tag_141\n      jump\t// in\n    tag_140:\n        /* \"#utility.yul\":2149:2288   */\n      swap3\n      swap2\n      pop\n      pop\n      jump\t// out\n        /* \"#utility.yul\":2311:2681   */\n    tag_142:\n        /* \"#utility.yul\":2382:2387   */\n      0x00\n        /* \"#utility.yul\":2431:2434   */\n      dup3\n        /* \"#utility.yul\":2424:2428   */\n      0x1f\n        /* \"#utility.yul\":2416:2422   */\n      dup4\n        /* \"#utility.yul\":2412:2429   */\n      add\n        /* \"#utility.yul\":2408:2435   */\n      slt\n        /* \"#utility.yul\":2398:2520   */\n      tag_144\n      jumpi\n        /* \"#utility.yul\":2439:2518   */\n      tag_145\n      tag_126\n      jump\t// in\n    tag_145:\n        /* \"#utility.yul\":2398:2520   */\n    tag_144:\n        /* \"#utility.yul\":2556:2562   */\n      dup2\n        /* \"#utility.yul\":2543:2563   */\n      calldataload\n        /* \"#utility.yul\":2581:2675   */\n      tag_146\n        /* \"#utility.yul\":2671:2674   */\n      dup5\n        /* \"#utility.yul\":2663:2669   */\n      dup3\n        /* \"#utility.yul\":2656:2660   */\n      0x20\n        /* \"#utility.yul\":2648:2654   */\n      dup7\n        /* \"#utility.yul\":2644:2661   */\n      add\n        /* \"#utility.yul\":2581:2675   */\n      tag_100\n      jump\t// in\n    tag_146:\n        /* \"#utility.yul\":2572:2675   */\n      swap2\n      pop\n        /* \"#utility.yul\":2388:2681   */\n      pop\n        /* \"#utility.yul\":2311:2681   */\n      swap3\n      swap2\n      pop\n      pop\n      jump\t// out\n        /* \"#utility.yul\":2703:3093   */\n    tag_147:\n        /* \"#utility.yul\":2784:2789   */\n      0x00\n        /* \"#utility.yul\":2833:2836   */\n      dup3\n        /* \"#utility.yul\":2826:2830   */\n      0x1f\n        /* \"#utility.yul\":2818:2824   */\n      dup4\n        /* \"#utility.yul\":2814:2831   */\n      add\n        /* \"#utility.yul\":2810:2837   */\n      slt\n        /* \"#utility.yul\":2800:2922   */\n      tag_149\n      jumpi\n        /* \"#utility.yul\":2841:2920   */\n      tag_150\n      tag_126\n      jump\t// in\n    tag_150:\n        /* \"#utility.yul\":2800:2922   */\n    tag_149:\n        /* \"#utility.yul\":2958:2964   */\n      dup2\n        /* \"#utility.yul\":2945:2965   */\n      calldataload\n        /* \"#utility.yul\":2983:3087   */\n      tag_151\n        /* \"#utility.yul\":3083:3086   */\n      dup5\n        /* \"#utility.yul\":3075:3081   */\n      dup3\n        /* \"#utility.yul\":3068:3072   */\n      0x20\n        /* \"#utility.yul\":3060:3066   */\n      dup7\n        /* \"#utility.yul\":3056:3073   */\n      add\n        /* \"#utility.yul\":2983:3087   */\n      tag_114\n      jump\t// in\n    tag_151:\n        /* \"#utility.yul\":2974:3087   */\n      swap2\n      pop\n        /* \"#utility.yul\":2790:3093   */\n      pop\n        /* \"#utility.yul\":2703:3093   */\n      swap3\n      swap2\n      pop\n      pop\n      jump\t// out\n        /* \"#utility.yul\":3113:3453   */\n    tag_128:\n        /* \"#utility.yul\":3169:3174   */\n      0x00\n        /* \"#utility.yul\":3218:3221   */\n      dup3\n        /* \"#utility.yul\":3211:3215   */\n      0x1f\n        /* \"#utility.yul\":3203:3209   */\n      dup4\n        /* \"#utility.yul\":3199:3216   */\n      add\n        /* \"#utility.yul\":3195:3222   */\n      slt\n        /* \"#utility.yul\":3185:3307   */\n      tag_153\n      jumpi\n        /* \"#utility.yul\":3226:3305   */\n      tag_154\n      tag_126\n      jump\t// in\n    tag_154:\n        /* \"#utility.yul\":3185:3307   */\n    tag_153:\n        /* \"#utility.yul\":3343:3349   */\n      dup2\n        /* \"#utility.yul\":3330:3350   */\n      calldataload\n        /* \"#utility.yul\":3368:3447   */\n      tag_155\n        /* \"#utility.yul\":3443:3446   */\n      dup5\n        /* \"#utility.yul\":3435:3441   */\n      dup3\n        /* \"#utility.yul\":3428:3432   */\n      0x20\n        /* \"#utility.yul\":3420:3426   */\n      dup7\n        /* \"#utility.yul\":3416:3433   */\n      add\n        /* \"#utility.yul\":3368:3447   */\n      tag_129\n      jump\t// in\n    tag_155:\n        /* \"#utility.yul\":3359:3447   */\n      swap2\n      pop\n        /* \"#utility.yul\":3175:3453   */\n      pop\n        /* \"#utility.yul\":3113:3453   */\n      swap3\n      swap2\n      pop\n      pop\n      jump\t// out\n        /* \"#utility.yul\":3459:3602   */\n    tag_156:\n        /* \"#utility.yul\":3516:3521   */\n      0x00\n        /* \"#utility.yul\":3547:3553   */\n      dup2\n        /* \"#utility.yul\":3541:3554   */\n      mload\n        /* \"#utility.yul\":3532:3554   */\n      swap1\n      pop\n        /* \"#utility.yul\":3563:3596   */\n      tag_158\n        /* \"#utility.yul\":3590:3595   */\n      dup2\n        /* \"#utility.yul\":3563:3596   */\n      tag_159\n      jump\t// in\n    tag_158:\n        /* \"#utility.yul\":3459:3602   */\n      swap3\n      swap2\n      pop\n      pop\n      jump\t// out\n        /* \"#utility.yul\":3608:3937   */\n    tag_9:\n        /* \"#utility.yul\":3667:3673   */\n      0x00\n        /* \"#utility.yul\":3716:3718   */\n      0x20\n        /* \"#utility.yul\":3704:3713   */\n      dup3\n        /* \"#utility.yul\":3695:3702   */\n      dup5\n        /* \"#utility.yul\":3691:3714   */\n      sub\n        /* \"#utility.yul\":3687:3719   */\n      slt\n        /* \"#utility.yul\":3684:3803   */\n      iszero\n      tag_161\n      jumpi\n        /* \"#utility.yul\":3722:3801   */\n      tag_162\n      tag_163\n      jump\t// in\n    tag_162:\n        /* \"#utility.yul\":3684:3803   */\n    tag_161:\n        /* \"#utility.yul\":3842:3843   */\n      0x00\n        /* \"#utility.yul\":3867:3920   */\n      tag_164\n        /* \"#utility.yul\":3912:3919   */\n      dup5\n        /* \"#utility.yul\":3903:3909   */\n      dup3\n        /* \"#utility.yul\":3892:3901   */\n      dup6\n        /* \"#utility.yul\":3888:3910   */\n      add\n        /* \"#utility.yul\":3867:3920   */\n      tag_113\n      jump\t// in\n    tag_164:\n        /* \"#utility.yul\":3857:3920   */\n      swap2\n      pop\n        /* \"#utility.yul\":3813:3930   */\n      pop\n        /* \"#utility.yul\":3608:3937   */\n      swap3\n      swap2\n      pop\n      pop\n      jump\t// out\n        /* \"#utility.yul\":3943:4482   */\n    tag_22:\n        /* \"#utility.yul\":4027:4033   */\n      0x00\n        /* \"#utility.yul\":4076:4078   */\n      0x20\n        /* \"#utility.yul\":4064:4073   */\n      dup3\n        /* \"#utility.yul\":4055:4062   */\n      dup5\n        /* \"#utility.yul\":4051:4074   */\n      sub\n        /* \"#utility.yul\":4047:4079   */\n      slt\n        /* \"#utility.yul\":4044:4163   */\n      iszero\n      tag_166\n      jumpi\n        /* \"#utility.yul\":4082:4161   */\n      tag_167\n      tag_163\n      jump\t// in\n    tag_167:\n        /* \"#utility.yul\":4044:4163   */\n    tag_166:\n        /* \"#utility.yul\":4230:4231   */\n      0x00\n        /* \"#utility.yul\":4219:4228   */\n      dup3\n        /* \"#utility.yul\":4215:4232   */\n      add\n        /* \"#utility.yul\":4202:4233   */\n      calldataload\n        /* \"#utility.yul\":4260:4278   */\n      0xffffffffffffffff\n        /* \"#utility.yul\":4252:4258   */\n      dup2\n        /* \"#utility.yul\":4249:4279   */\n      gt\n        /* \"#utility.yul\":4246:4363   */\n      iszero\n      tag_168\n      jumpi\n        /* \"#utility.yul\":4282:4361   */\n      tag_169\n      tag_170\n      jump\t// in\n    tag_169:\n        /* \"#utility.yul\":4246:4363   */\n    tag_168:\n        /* \"#utility.yul\":4387:4465   */\n      tag_171\n        /* \"#utility.yul\":4457:4464   */\n      dup5\n        /* \"#utility.yul\":4448:4454   */\n      dup3\n        /* \"#utility.yul\":4437:4446   */\n      dup6\n        /* \"#utility.yul\":4433:4455   */\n      add\n        /* \"#utility.yul\":4387:4465   */\n      tag_142\n      jump\t// in\n    tag_171:\n        /* \"#utility.yul\":4377:4465   */\n      swap2\n      pop\n        /* \"#utility.yul\":4173:4475   */\n      pop\n        /* \"#utility.yul\":3943:4482   */\n      swap3\n      swap2\n      pop\n      pop\n      jump\t// out\n        /* \"#utility.yul\":4488:5402   */\n    tag_15:\n        /* \"#utility.yul\":4616:4622   */\n      0x00\n        /* \"#utility.yul\":4624:4630   */\n      dup1\n        /* \"#utility.yul\":4673:4675   */\n      0x40\n        /* \"#utility.yul\":4661:4670   */\n      dup4\n        /* \"#utility.yul\":4652:4659   */\n      dup6\n        /* \"#utility.yul\":4648:4671   */\n      sub\n        /* \"#utility.yul\":4644:4676   */\n      slt\n        /* \"#utility.yul\":4641:4760   */\n      iszero\n      tag_173\n      jumpi\n        /* \"#utility.yul\":4679:4758   */\n      tag_174\n      tag_163\n      jump\t// in\n    tag_174:\n        /* \"#utility.yul\":4641:4760   */\n    tag_173:\n        /* \"#utility.yul\":4827:4828   */\n      0x00\n        /* \"#utility.yul\":4816:4825   */\n      dup4\n        /* \"#utility.yul\":4812:4829   */\n      add\n        /* \"#utility.yul\":4799:4830   */\n      calldataload\n        /* \"#utility.yul\":4857:4875   */\n      0xffffffffffffffff\n        /* \"#utility.yul\":4849:4855   */\n      dup2\n        /* \"#utility.yul\":4846:4876   */\n      gt\n        /* \"#utility.yul\":4843:4960   */\n      iszero\n      tag_175\n      jumpi\n        /* \"#utility.yul\":4879:4958   */\n      tag_176\n      tag_170\n      jump\t// in\n    tag_176:\n        /* \"#utility.yul\":4843:4960   */\n    tag_175:\n        /* \"#utility.yul\":4984:5062   */\n      tag_177\n        /* \"#utility.yul\":5054:5061   */\n      dup6\n        /* \"#utility.yul\":5045:5051   */\n      dup3\n        /* \"#utility.yul\":5034:5043   */\n      dup7\n        /* \"#utility.yul\":5030:5052   */\n      add\n        /* \"#utility.yul\":4984:5062   */\n      tag_142\n      jump\t// in\n    tag_177:\n        /* \"#utility.yul\":4974:5062   */\n      swap3\n      pop\n        /* \"#utility.yul\":4770:5072   */\n      pop\n        /* \"#utility.yul\":5139:5141   */\n      0x20\n        /* \"#utility.yul\":5128:5137   */\n      dup4\n        /* \"#utility.yul\":5124:5142   */\n      add\n        /* \"#utility.yul\":5111:5143   */\n      calldataload\n        /* \"#utility.yul\":5170:5188   */\n      0xffffffffffffffff\n        /* \"#utility.yul\":5162:5168   */\n      dup2\n        /* \"#utility.yul\":5159:5189   */\n      gt\n        /* \"#utility.yul\":5156:5273   */\n      iszero\n      tag_178\n      jumpi\n        /* \"#utility.yul\":5192:5271   */\n      tag_179\n      tag_170\n      jump\t// in\n    tag_179:\n        /* \"#utility.yul\":5156:5273   */\n    tag_178:\n        /* \"#utility.yul\":5297:5385   */\n      tag_180\n        /* \"#utility.yul\":5377:5384   */\n      dup6\n        /* \"#utility.yul\":5368:5374   */\n      dup3\n        /* \"#utility.yul\":5357:5366   */\n      dup7\n        /* \"#utility.yul\":5353:5375   */\n      add\n        /* \"#utility.yul\":5297:5385   */\n      tag_147\n      jump\t// in\n    tag_180:\n        /* \"#utility.yul\":5287:5385   */\n      swap2\n      pop\n        /* \"#utility.yul\":5082:5395   */\n      pop\n        /* \"#utility.yul\":4488:5402   */\n      swap3\n      pop\n      swap3\n      swap1\n      pop\n      jump\t// out\n        /* \"#utility.yul\":5408:5759   */\n    tag_33:\n        /* \"#utility.yul\":5478:5484   */\n      0x00\n        /* \"#utility.yul\":5527:5529   */\n      0x20\n        /* \"#utility.yul\":5515:5524   */\n      dup3\n        /* \"#utility.yul\":5506:5513   */\n      dup5\n        /* \"#utility.yul\":5502:5525   */\n      sub\n        /* \"#utility.yul\":5498:5530   */\n      slt\n        /* \"#utility.yul\":5495:5614   */\n      iszero\n      tag_182\n      jumpi\n        /* \"#utility.yul\":5533:5612   */\n      tag_183\n      tag_163\n      jump\t// in\n    tag_183:\n        /* \"#utility.yul\":5495:5614   */\n    tag_182:\n        /* \"#utility.yul\":5653:5654   */\n      0x00\n        /* \"#utility.yul\":5678:5742   */\n      tag_184\n        /* \"#utility.yul\":5734:5741   */\n      dup5\n        /* \"#utility.yul\":5725:5731   */\n      dup3\n        /* \"#utility.yul\":5714:5723   */\n      dup6\n        /* \"#utility.yul\":5710:5732   */\n      add\n        /* \"#utility.yul\":5678:5742   */\n      tag_156\n      jump\t// in\n    tag_184:\n        /* \"#utility.yul\":5668:5742   */\n      swap2\n      pop\n        /* \"#utility.yul\":5624:5752   */\n      pop\n        /* \"#utility.yul\":5408:5759   */\n      swap3\n      swap2\n      pop\n      pop\n      jump\t// out\n        /* \"#utility.yul\":5765:5883   */\n    tag_185:\n        /* \"#utility.yul\":5852:5876   */\n      tag_187\n        /* \"#utility.yul\":5870:5875   */\n      dup2\n        /* \"#utility.yul\":5852:5876   */\n      tag_188\n      jump\t// in\n    tag_187:\n        /* \"#utility.yul\":5847:5850   */\n      dup3\n        /* \"#utility.yul\":5840:5877   */\n      mstore\n        /* \"#utility.yul\":5765:5883   */\n      pop\n      pop\n      jump\t// out\n        /* \"#utility.yul\":5889:6036   */\n    tag_189:\n        /* \"#utility.yul\":5984:6029   */\n      tag_191\n        /* \"#utility.yul\":6023:6028   */\n      dup2\n        /* \"#utility.yul\":5984:6029   */\n      tag_192\n      jump\t// in\n    tag_191:\n        /* \"#utility.yul\":5979:5982   */\n      dup3\n        /* \"#utility.yul\":5972:6030   */\n      mstore\n        /* \"#utility.yul\":5889:6036   */\n      pop\n      pop\n      jump\t// out\n        /* \"#utility.yul\":6042:6408   */\n    tag_193:\n        /* \"#utility.yul\":6184:6187   */\n      0x00\n        /* \"#utility.yul\":6205:6272   */\n      tag_195\n        /* \"#utility.yul\":6269:6271   */\n      0x14\n        /* \"#utility.yul\":6264:6267   */\n      dup4\n        /* \"#utility.yul\":6205:6272   */\n      tag_196\n      jump\t// in\n    tag_195:\n        /* \"#utility.yul\":6198:6272   */\n      swap2\n      pop\n        /* \"#utility.yul\":6281:6374   */\n      tag_197\n        /* \"#utility.yul\":6370:6373   */\n      dup3\n        /* \"#utility.yul\":6281:6374   */\n      tag_198\n      jump\t// in\n    tag_197:\n        /* \"#utility.yul\":6399:6401   */\n      0x20\n        /* \"#utility.yul\":6394:6397   */\n      dup3\n        /* \"#utility.yul\":6390:6402   */\n      add\n        /* \"#utility.yul\":6383:6402   */\n      swap1\n      pop\n        /* \"#utility.yul\":6042:6408   */\n      swap2\n      swap1\n      pop\n      jump\t// out\n        /* \"#utility.yul\":6414:6780   */\n    tag_199:\n        /* \"#utility.yul\":6556:6559   */\n      0x00\n        /* \"#utility.yul\":6577:6644   */\n      tag_201\n        /* \"#utility.yul\":6641:6643   */\n      0x0c\n        /* \"#utility.yul\":6636:6639   */\n      dup4\n        /* \"#utility.yul\":6577:6644   */\n      tag_196\n      jump\t// in\n    tag_201:\n        /* \"#utility.yul\":6570:6644   */\n      swap2\n      pop\n        /* \"#utility.yul\":6653:6746   */\n      tag_202\n        /* \"#utility.yul\":6742:6745   */\n      dup3\n        /* \"#utility.yul\":6653:6746   */\n      tag_203\n      jump\t// in\n    tag_202:\n        /* \"#utility.yul\":6771:6773   */\n      0x20\n        /* \"#utility.yul\":6766:6769   */\n      dup3\n        /* \"#utility.yul\":6762:6774   */\n      add\n        /* \"#utility.yul\":6755:6774   */\n      swap1\n      pop\n        /* \"#utility.yul\":6414:6780   */\n      swap2\n      swap1\n      pop\n      jump\t// out\n        /* \"#utility.yul\":6786:7152   */\n    tag_204:\n        /* \"#utility.yul\":6928:6931   */\n      0x00\n        /* \"#utility.yul\":6949:7016   */\n      tag_206\n        /* \"#utility.yul\":7013:7015   */\n      0x14\n        /* \"#utility.yul\":7008:7011   */\n      dup4\n        /* \"#utility.yul\":6949:7016   */\n      tag_196\n      jump\t// in\n    tag_206:\n        /* \"#utility.yul\":6942:7016   */\n      swap2\n      pop\n        /* \"#utility.yul\":7025:7118   */\n      tag_207\n        /* \"#utility.yul\":7114:7117   */\n      dup3\n        /* \"#utility.yul\":7025:7118   */\n      tag_208\n      jump\t// in\n    tag_207:\n        /* \"#utility.yul\":7143:7145   */\n      0x20\n        /* \"#utility.yul\":7138:7141   */\n      dup3\n        /* \"#utility.yul\":7134:7146   */\n      add\n        /* \"#utility.yul\":7127:7146   */\n      swap1\n      pop\n        /* \"#utility.yul\":6786:7152   */\n      swap2\n      swap1\n      pop\n      jump\t// out\n        /* \"#utility.yul\":7158:7524   */\n    tag_209:\n        /* \"#utility.yul\":7300:7303   */\n      0x00\n        /* \"#utility.yul\":7321:7388   */\n      tag_211\n        /* \"#utility.yul\":7385:7387   */\n      0x14\n        /* \"#utility.yul\":7380:7383   */\n      dup4\n        /* \"#utility.yul\":7321:7388   */\n      tag_196\n      jump\t// in\n    tag_211:\n        /* \"#utility.yul\":7314:7388   */\n      swap2\n      pop\n        /* \"#utility.yul\":7397:7490   */\n      tag_212\n        /* \"#utility.yul\":7486:7489   */\n      dup3\n        /* \"#utility.yul\":7397:7490   */\n      tag_213\n      jump\t// in\n    tag_212:\n        /* \"#utility.yul\":7515:7517   */\n      0x20\n        /* \"#utility.yul\":7510:7513   */\n      dup3\n        /* \"#utility.yul\":7506:7518   */\n      add\n        /* \"#utility.yul\":7499:7518   */\n      swap1\n      pop\n        /* \"#utility.yul\":7158:7524   */\n      swap2\n      swap1\n      pop\n      jump\t// out\n        /* \"#utility.yul\":7530:7648   */\n    tag_214:\n        /* \"#utility.yul\":7617:7641   */\n      tag_216\n        /* \"#utility.yul\":7635:7640   */\n      dup2\n        /* \"#utility.yul\":7617:7641   */\n      tag_217\n      jump\t// in\n    tag_216:\n        /* \"#utility.yul\":7612:7615   */\n      dup3\n        /* \"#utility.yul\":7605:7642   */\n      mstore\n        /* \"#utility.yul\":7530:7648   */\n      pop\n      pop\n      jump\t// out\n        /* \"#utility.yul\":7654:7876   */\n    tag_28:\n        /* \"#utility.yul\":7747:7751   */\n      0x00\n        /* \"#utility.yul\":7785:7787   */\n      0x20\n        /* \"#utility.yul\":7774:7783   */\n      dup3\n        /* \"#utility.yul\":7770:7788   */\n      add\n        /* \"#utility.yul\":7762:7788   */\n      swap1\n      pop\n        /* \"#utility.yul\":7798:7869   */\n      tag_219\n        /* \"#utility.yul\":7866:7867   */\n      0x00\n        /* \"#utility.yul\":7855:7864   */\n      dup4\n        /* \"#utility.yul\":7851:7868   */\n      add\n        /* \"#utility.yul\":7842:7848   */\n      dup5\n        /* \"#utility.yul\":7798:7869   */\n      tag_185\n      jump\t// in\n    tag_219:\n        /* \"#utility.yul\":7654:7876   */\n      swap3\n      swap2\n      pop\n      pop\n      jump\t// out\n        /* \"#utility.yul\":7882:8340   */\n    tag_66:\n        /* \"#utility.yul\":8039:8043   */\n      0x00\n        /* \"#utility.yul\":8077:8079   */\n      0x60\n        /* \"#utility.yul\":8066:8075   */\n      dup3\n        /* \"#utility.yul\":8062:8080   */\n      add\n        /* \"#utility.yul\":8054:8080   */\n      swap1\n      pop\n        /* \"#utility.yul\":8090:8161   */\n      tag_221\n        /* \"#utility.yul\":8158:8159   */\n      0x00\n        /* \"#utility.yul\":8147:8156   */\n      dup4\n        /* \"#utility.yul\":8143:8160   */\n      add\n        /* \"#utility.yul\":8134:8140   */\n      dup7\n        /* \"#utility.yul\":8090:8161   */\n      tag_185\n      jump\t// in\n    tag_221:\n        /* \"#utility.yul\":8171:8243   */\n      tag_222\n        /* \"#utility.yul\":8239:8241   */\n      0x20\n        /* \"#utility.yul\":8228:8237   */\n      dup4\n        /* \"#utility.yul\":8224:8242   */\n      add\n        /* \"#utility.yul\":8215:8221   */\n      dup6\n        /* \"#utility.yul\":8171:8243   */\n      tag_185\n      jump\t// in\n    tag_222:\n        /* \"#utility.yul\":8253:8333   */\n      tag_223\n        /* \"#utility.yul\":8329:8331   */\n      0x40\n        /* \"#utility.yul\":8318:8327   */\n      dup4\n        /* \"#utility.yul\":8314:8332   */\n      add\n        /* \"#utility.yul\":8305:8311   */\n      dup5\n        /* \"#utility.yul\":8253:8333   */\n      tag_189\n      jump\t// in\n    tag_223:\n        /* \"#utility.yul\":7882:8340   */\n      swap5\n      swap4\n      pop\n      pop\n      pop\n      pop\n      jump\t// out\n        /* \"#utility.yul\":8346:8694   */\n    tag_79:\n        /* \"#utility.yul\":8475:8479   */\n      0x00\n        /* \"#utility.yul\":8513:8515   */\n      0x40\n        /* \"#utility.yul\":8502:8511   */\n      dup3\n        /* \"#utility.yul\":8498:8516   */\n      add\n        /* \"#utility.yul\":8490:8516   */\n      swap1\n      pop\n        /* \"#utility.yul\":8526:8597   */\n      tag_225\n        /* \"#utility.yul\":8594:8595   */\n      0x00\n        /* \"#utility.yul\":8583:8592   */\n      dup4\n        /* \"#utility.yul\":8579:8596   */\n      add\n        /* \"#utility.yul\":8570:8576   */\n      dup6\n        /* \"#utility.yul\":8526:8597   */\n      tag_185\n      jump\t// in\n    tag_225:\n        /* \"#utility.yul\":8607:8687   */\n      tag_226\n        /* \"#utility.yul\":8683:8685   */\n      0x20\n        /* \"#utility.yul\":8672:8681   */\n      dup4\n        /* \"#utility.yul\":8668:8686   */\n      add\n        /* \"#utility.yul\":8659:8665   */\n      dup5\n        /* \"#utility.yul\":8607:8687   */\n      tag_189\n      jump\t// in\n    tag_226:\n        /* \"#utility.yul\":8346:8694   */\n      swap4\n      swap3\n      pop\n      pop\n      pop\n      jump\t// out\n        /* \"#utility.yul\":8700:9119   */\n    tag_37:\n        /* \"#utility.yul\":8866:8870   */\n      0x00\n        /* \"#utility.yul\":8904:8906   */\n      0x20\n        /* \"#utility.yul\":8893:8902   */\n      dup3\n        /* \"#utility.yul\":8889:8907   */\n      add\n        /* \"#utility.yul\":8881:8907   */\n      swap1\n      pop\n        /* \"#utility.yul\":8953:8962   */\n      dup2\n        /* \"#utility.yul\":8947:8951   */\n      dup2\n        /* \"#utility.yul\":8943:8963   */\n      sub\n        /* \"#utility.yul\":8939:8940   */\n      0x00\n        /* \"#utility.yul\":8928:8937   */\n      dup4\n        /* \"#utility.yul\":8924:8941   */\n      add\n        /* \"#utility.yul\":8917:8964   */\n      mstore\n        /* \"#utility.yul\":8981:9112   */\n      tag_228\n        /* \"#utility.yul\":9107:9111   */\n      dup2\n        /* \"#utility.yul\":8981:9112   */\n      tag_193\n      jump\t// in\n    tag_228:\n        /* \"#utility.yul\":8973:9112   */\n      swap1\n      pop\n        /* \"#utility.yul\":8700:9119   */\n      swap2\n      swap1\n      pop\n      jump\t// out\n        /* \"#utility.yul\":9125:9544   */\n    tag_53:\n        /* \"#utility.yul\":9291:9295   */\n      0x00\n        /* \"#utility.yul\":9329:9331   */\n      0x20\n        /* \"#utility.yul\":9318:9327   */\n      dup3\n        /* \"#utility.yul\":9314:9332   */\n      add\n        /* \"#utility.yul\":9306:9332   */\n      swap1\n      pop\n        /* \"#utility.yul\":9378:9387   */\n      dup2\n        /* \"#utility.yul\":9372:9376   */\n      dup2\n        /* \"#utility.yul\":9368:9388   */\n      sub\n        /* \"#utility.yul\":9364:9365   */\n      0x00\n        /* \"#utility.yul\":9353:9362   */\n      dup4\n        /* \"#utility.yul\":9349:9366   */\n      add\n        /* \"#utility.yul\":9342:9389   */\n      mstore\n        /* \"#utility.yul\":9406:9537   */\n      tag_230\n        /* \"#utility.yul\":9532:9536   */\n      dup2\n        /* \"#utility.yul\":9406:9537   */\n      tag_199\n      jump\t// in\n    tag_230:\n        /* \"#utility.yul\":9398:9537   */\n      swap1\n      pop\n        /* \"#utility.yul\":9125:9544   */\n      swap2\n      swap1\n      pop\n      jump\t// out\n        /* \"#utility.yul\":9550:9969   */\n    tag_56:\n        /* \"#utility.yul\":9716:9720   */\n      0x00\n        /* \"#utility.yul\":9754:9756   */\n      0x20\n        /* \"#utility.yul\":9743:9752   */\n      dup3\n        /* \"#utility.yul\":9739:9757   */\n      add\n        /* \"#utility.yul\":9731:9757   */\n      swap1\n      pop\n        /* \"#utility.yul\":9803:9812   */\n      dup2\n        /* \"#utility.yul\":9797:9801   */\n      dup2\n        /* \"#utility.yul\":9793:9813   */\n      sub\n        /* \"#utility.yul\":9789:9790   */\n      0x00\n        /* \"#utility.yul\":9778:9787   */\n      dup4\n        /* \"#utility.yul\":9774:9791   */\n      add\n        /* \"#utility.yul\":9767:9814   */\n      mstore\n        /* \"#utility.yul\":9831:9962   */\n      tag_232\n        /* \"#utility.yul\":9957:9961   */\n      dup2\n        /* \"#utility.yul\":9831:9962   */\n      tag_204\n      jump\t// in\n    tag_232:\n        /* \"#utility.yul\":9823:9962   */\n      swap1\n      pop\n        /* \"#utility.yul\":9550:9969   */\n      swap2\n      swap1\n      pop\n      jump\t// out\n        /* \"#utility.yul\":9975:10394   */\n    tag_64:\n        /* \"#utility.yul\":10141:10145   */\n      0x00\n        /* \"#utility.yul\":10179:10181   */\n      0x20\n        /* \"#utility.yul\":10168:10177   */\n      dup3\n        /* \"#utility.yul\":10164:10182   */\n      add\n        /* \"#utility.yul\":10156:10182   */\n      swap1\n      pop\n        /* \"#utility.yul\":10228:10237   */\n      dup2\n        /* \"#utility.yul\":10222:10226   */\n      dup2\n        /* \"#utility.yul\":10218:10238   */\n      sub\n        /* \"#utility.yul\":10214:10215   */\n      0x00\n        /* \"#utility.yul\":10203:10212   */\n      dup4\n        /* \"#utility.yul\":10199:10216   */\n      add\n        /* \"#utility.yul\":10192:10239   */\n      mstore\n        /* \"#utility.yul\":10256:10387   */\n      tag_234\n        /* \"#utility.yul\":10382:10386   */\n      dup2\n        /* \"#utility.yul\":10256:10387   */\n      tag_209\n      jump\t// in\n    tag_234:\n        /* \"#utility.yul\":10248:10387   */\n      swap1\n      pop\n        /* \"#utility.yul\":9975:10394   */\n      swap2\n      swap1\n      pop\n      jump\t// out\n        /* \"#utility.yul\":10400:10622   */\n    tag_12:\n        /* \"#utility.yul\":10493:10497   */\n      0x00\n        /* \"#utility.yul\":10531:10533   */\n      0x20\n        /* \"#utility.yul\":10520:10529   */\n      dup3\n        /* \"#utility.yul\":10516:10534   */\n      add\n        /* \"#utility.yul\":10508:10534   */\n      swap1\n      pop\n        /* \"#utility.yul\":10544:10615   */\n      tag_236\n        /* \"#utility.yul\":10612:10613   */\n      0x00\n        /* \"#utility.yul\":10601:10610   */\n      dup4\n        /* \"#utility.yul\":10597:10614   */\n      add\n        /* \"#utility.yul\":10588:10594   */\n      dup5\n        /* \"#utility.yul\":10544:10615   */\n      tag_214\n      jump\t// in\n    tag_236:\n        /* \"#utility.yul\":10400:10622   */\n      swap3\n      swap2\n      pop\n      pop\n      jump\t// out\n        /* \"#utility.yul\":10628:10757   */\n    tag_105:\n        /* \"#utility.yul\":10662:10668   */\n      0x00\n        /* \"#utility.yul\":10689:10709   */\n      tag_238\n      tag_239\n      jump\t// in\n    tag_238:\n        /* \"#utility.yul\":10679:10709   */\n      swap1\n      pop\n        /* \"#utility.yul\":10718:10751   */\n      tag_240\n        /* \"#utility.yul\":10746:10750   */\n      dup3\n        /* \"#utility.yul\":10738:10744   */\n      dup3\n        /* \"#utility.yul\":10718:10751   */\n      tag_241\n      jump\t// in\n    tag_240:\n        /* \"#utility.yul\":10628:10757   */\n      swap2\n      swap1\n      pop\n      jump\t// out\n        /* \"#utility.yul\":10763:10838   */\n    tag_239:\n        /* \"#utility.yul\":10796:10802   */\n      0x00\n        /* \"#utility.yul\":10829:10831   */\n      0x40\n        /* \"#utility.yul\":10823:10832   */\n      mload\n        /* \"#utility.yul\":10813:10832   */\n      swap1\n      pop\n        /* \"#utility.yul\":10763:10838   */\n      swap1\n      jump\t// out\n        /* \"#utility.yul\":10844:11155   */\n    tag_104:\n        /* \"#utility.yul\":10921:10925   */\n      0x00\n        /* \"#utility.yul\":11011:11029   */\n      0xffffffffffffffff\n        /* \"#utility.yul\":11003:11009   */\n      dup3\n        /* \"#utility.yul\":11000:11030   */\n      gt\n        /* \"#utility.yul\":10997:11053   */\n      iszero\n      tag_244\n      jumpi\n        /* \"#utility.yul\":11033:11051   */\n      tag_245\n      tag_246\n      jump\t// in\n    tag_245:\n        /* \"#utility.yul\":10997:11053   */\n    tag_244:\n        /* \"#utility.yul\":11083:11087   */\n      0x20\n        /* \"#utility.yul\":11075:11081   */\n      dup3\n        /* \"#utility.yul\":11071:11088   */\n      mul\n        /* \"#utility.yul\":11063:11088   */\n      swap1\n      pop\n        /* \"#utility.yul\":11143:11147   */\n      0x20\n        /* \"#utility.yul\":11137:11141   */\n      dup2\n        /* \"#utility.yul\":11133:11148   */\n      add\n        /* \"#utility.yul\":11125:11148   */\n      swap1\n      pop\n        /* \"#utility.yul\":10844:11155   */\n      swap2\n      swap1\n      pop\n      jump\t// out\n        /* \"#utility.yul\":11161:11482   */\n    tag_118:\n        /* \"#utility.yul\":11248:11252   */\n      0x00\n        /* \"#utility.yul\":11338:11356   */\n      0xffffffffffffffff\n        /* \"#utility.yul\":11330:11336   */\n      dup3\n        /* \"#utility.yul\":11327:11357   */\n      gt\n        /* \"#utility.yul\":11324:11380   */\n      iszero\n      tag_248\n      jumpi\n        /* \"#utility.yul\":11360:11378   */\n      tag_249\n      tag_246\n      jump\t// in\n    tag_249:\n        /* \"#utility.yul\":11324:11380   */\n    tag_248:\n        /* \"#utility.yul\":11410:11414   */\n      0x20\n        /* \"#utility.yul\":11402:11408   */\n      dup3\n        /* \"#utility.yul\":11398:11415   */\n      mul\n        /* \"#utility.yul\":11390:11415   */\n      swap1\n      pop\n        /* \"#utility.yul\":11470:11474   */\n      0x20\n        /* \"#utility.yul\":11464:11468   */\n      dup2\n        /* \"#utility.yul\":11460:11475   */\n      add\n        /* \"#utility.yul\":11452:11475   */\n      swap1\n      pop\n        /* \"#utility.yul\":11161:11482   */\n      swap2\n      swap1\n      pop\n      jump\t// out\n        /* \"#utility.yul\":11488:11796   */\n    tag_133:\n        /* \"#utility.yul\":11550:11554   */\n      0x00\n        /* \"#utility.yul\":11640:11658   */\n      0xffffffffffffffff\n        /* \"#utility.yul\":11632:11638   */\n      dup3\n        /* \"#utility.yul\":11629:11659   */\n      gt\n        /* \"#utility.yul\":11626:11682   */\n      iszero\n      tag_251\n      jumpi\n        /* \"#utility.yul\":11662:11680   */\n      tag_252\n      tag_246\n      jump\t// in\n    tag_252:\n        /* \"#utility.yul\":11626:11682   */\n    tag_251:\n        /* \"#utility.yul\":11700:11729   */\n      tag_253\n        /* \"#utility.yul\":11722:11728   */\n      dup3\n        /* \"#utility.yul\":11700:11729   */\n      tag_254\n      jump\t// in\n    tag_253:\n        /* \"#utility.yul\":11692:11729   */\n      swap1\n      pop\n        /* \"#utility.yul\":11784:11788   */\n      0x20\n        /* \"#utility.yul\":11778:11782   */\n      dup2\n        /* \"#utility.yul\":11774:11789   */\n      add\n        /* \"#utility.yul\":11766:11789   */\n      swap1\n      pop\n        /* \"#utility.yul\":11488:11796   */\n      swap2\n      swap1\n      pop\n      jump\t// out\n        /* \"#utility.yul\":11802:11971   */\n    tag_196:\n        /* \"#utility.yul\":11886:11897   */\n      0x00\n        /* \"#utility.yul\":11920:11926   */\n      dup3\n        /* \"#utility.yul\":11915:11918   */\n      dup3\n        /* \"#utility.yul\":11908:11927   */\n      mstore\n        /* \"#utility.yul\":11960:11964   */\n      0x20\n        /* \"#utility.yul\":11955:11958   */\n      dup3\n        /* \"#utility.yul\":11951:11965   */\n      add\n        /* \"#utility.yul\":11936:11965   */\n      swap1\n      pop\n        /* \"#utility.yul\":11802:11971   */\n      swap3\n      swap2\n      pop\n      pop\n      jump\t// out\n        /* \"#utility.yul\":11977:12073   */\n    tag_188:\n        /* \"#utility.yul\":12014:12021   */\n      0x00\n        /* \"#utility.yul\":12043:12067   */\n      tag_257\n        /* \"#utility.yul\":12061:12066   */\n      dup3\n        /* \"#utility.yul\":12043:12067   */\n      tag_258\n      jump\t// in\n    tag_257:\n        /* \"#utility.yul\":12032:12067   */\n      swap1\n      pop\n        /* \"#utility.yul\":11977:12073   */\n      swap2\n      swap1\n      pop\n      jump\t// out\n        /* \"#utility.yul\":12079:12205   */\n    tag_258:\n        /* \"#utility.yul\":12116:12123   */\n      0x00\n        /* \"#utility.yul\":12156:12198   */\n      0xffffffffffffffffffffffffffffffffffffffff\n        /* \"#utility.yul\":12149:12154   */\n      dup3\n        /* \"#utility.yul\":12145:12199   */\n      and\n        /* \"#utility.yul\":12134:12199   */\n      swap1\n      pop\n        /* \"#utility.yul\":12079:12205   */\n      swap2\n      swap1\n      pop\n      jump\t// out\n        /* \"#utility.yul\":12211:12288   */\n    tag_217:\n        /* \"#utility.yul\":12248:12255   */\n      0x00\n        /* \"#utility.yul\":12277:12282   */\n      dup2\n        /* \"#utility.yul\":12266:12282   */\n      swap1\n      pop\n        /* \"#utility.yul\":12211:12288   */\n      swap2\n      swap1\n      pop\n      jump\t// out\n        /* \"#utility.yul\":12294:12415   */\n    tag_192:\n        /* \"#utility.yul\":12352:12361   */\n      0x00\n        /* \"#utility.yul\":12385:12409   */\n      tag_262\n        /* \"#utility.yul\":12403:12408   */\n      dup3\n        /* \"#utility.yul\":12385:12409   */\n      tag_217\n      jump\t// in\n    tag_262:\n        /* \"#utility.yul\":12372:12409   */\n      swap1\n      pop\n        /* \"#utility.yul\":12294:12415   */\n      swap2\n      swap1\n      pop\n      jump\t// out\n        /* \"#utility.yul\":12421:12575   */\n    tag_138:\n        /* \"#utility.yul\":12505:12511   */\n      dup3\n        /* \"#utility.yul\":12500:12503   */\n      dup2\n        /* \"#utility.yul\":12495:12498   */\n      dup4\n        /* \"#utility.yul\":12482:12512   */\n      calldatacopy\n        /* \"#utility.yul\":12567:12568   */\n      0x00\n        /* \"#utility.yul\":12558:12564   */\n      dup4\n        /* \"#utility.yul\":12553:12556   */\n      dup4\n        /* \"#utility.yul\":12549:12565   */\n      add\n        /* \"#utility.yul\":12542:12569   */\n      mstore\n        /* \"#utility.yul\":12421:12575   */\n      pop\n      pop\n      pop\n      jump\t// out\n        /* \"#utility.yul\":12581:12901   */\n    tag_89:\n        /* \"#utility.yul\":12625:12631   */\n      0x00\n        /* \"#utility.yul\":12662:12663   */\n      0x02\n        /* \"#utility.yul\":12656:12660   */\n      dup3\n        /* \"#utility.yul\":12652:12664   */\n      div\n        /* \"#utility.yul\":12642:12664   */\n      swap1\n      pop\n        /* \"#utility.yul\":12709:12710   */\n      0x01\n        /* \"#utility.yul\":12703:12707   */\n      dup3\n        /* \"#utility.yul\":12699:12711   */\n      and\n        /* \"#utility.yul\":12730:12748   */\n      dup1\n        /* \"#utility.yul\":12720:12801   */\n      tag_265\n      jumpi\n        /* \"#utility.yul\":12786:12790   */\n      0x7f\n        /* \"#utility.yul\":12778:12784   */\n      dup3\n        /* \"#utility.yul\":12774:12791   */\n      and\n        /* \"#utility.yul\":12764:12791   */\n      swap2\n      pop\n        /* \"#utility.yul\":12720:12801   */\n    tag_265:\n        /* \"#utility.yul\":12848:12850   */\n      0x20\n        /* \"#utility.yul\":12840:12846   */\n      dup3\n        /* \"#utility.yul\":12837:12851   */\n      lt\n        /* \"#utility.yul\":12817:12835   */\n      dup2\n        /* \"#utility.yul\":12814:12852   */\n      eq\n        /* \"#utility.yul\":12811:12895   */\n      iszero\n      tag_266\n      jumpi\n        /* \"#utility.yul\":12867:12885   */\n      tag_267\n      tag_268\n      jump\t// in\n    tag_267:\n        /* \"#utility.yul\":12811:12895   */\n    tag_266:\n        /* \"#utility.yul\":12632:12901   */\n      pop\n        /* \"#utility.yul\":12581:12901   */\n      swap2\n      swap1\n      pop\n      jump\t// out\n        /* \"#utility.yul\":12907:13188   */\n    tag_241:\n        /* \"#utility.yul\":12990:13017   */\n      tag_270\n        /* \"#utility.yul\":13012:13016   */\n      dup3\n        /* \"#utility.yul\":12990:13017   */\n      tag_254\n      jump\t// in\n    tag_270:\n        /* \"#utility.yul\":12982:12988   */\n      dup2\n        /* \"#utility.yul\":12978:13018   */\n      add\n        /* \"#utility.yul\":13120:13126   */\n      dup2\n        /* \"#utility.yul\":13108:13118   */\n      dup2\n        /* \"#utility.yul\":13105:13127   */\n      lt\n        /* \"#utility.yul\":13084:13102   */\n      0xffffffffffffffff\n        /* \"#utility.yul\":13072:13082   */\n      dup3\n        /* \"#utility.yul\":13069:13103   */\n      gt\n        /* \"#utility.yul\":13066:13128   */\n      or\n        /* \"#utility.yul\":13063:13151   */\n      iszero\n      tag_271\n      jumpi\n        /* \"#utility.yul\":13131:13149   */\n      tag_272\n      tag_246\n      jump\t// in\n    tag_272:\n        /* \"#utility.yul\":13063:13151   */\n    tag_271:\n        /* \"#utility.yul\":13171:13181   */\n      dup1\n        /* \"#utility.yul\":13167:13169   */\n      0x40\n        /* \"#utility.yul\":13160:13182   */\n      mstore\n        /* \"#utility.yul\":12950:13188   */\n      pop\n        /* \"#utility.yul\":12907:13188   */\n      pop\n      pop\n      jump\t// out\n        /* \"#utility.yul\":13194:13427   */\n    tag_49:\n        /* \"#utility.yul\":13233:13236   */\n      0x00\n        /* \"#utility.yul\":13256:13280   */\n      tag_274\n        /* \"#utility.yul\":13274:13279   */\n      dup3\n        /* \"#utility.yul\":13256:13280   */\n      tag_217\n      jump\t// in\n    tag_274:\n        /* \"#utility.yul\":13247:13280   */\n      swap2\n      pop\n        /* \"#utility.yul\":13302:13368   */\n      0xffffffffffffffffffffffffffffffffffffffffffffffffffffffffffffffff\n        /* \"#utility.yul\":13295:13300   */\n      dup3\n        /* \"#utility.yul\":13292:13369   */\n      eq\n        /* \"#utility.yul\":13289:13392   */\n      iszero\n      tag_275\n      jumpi\n        /* \"#utility.yul\":13372:13390   */\n      tag_276\n      tag_277\n      jump\t// in\n    tag_276:\n        /* \"#utility.yul\":13289:13392   */\n    tag_275:\n        /* \"#utility.yul\":13419:13420   */\n      0x01\n        /* \"#utility.yul\":13412:13417   */\n      dup3\n        /* \"#utility.yul\":13408:13421   */\n      add\n        /* \"#utility.yul\":13401:13421   */\n      swap1\n      pop\n        /* \"#utility.yul\":13194:13427   */\n      swap2\n      swap1\n      pop\n      jump\t// out\n        /* \"#utility.yul\":13433:13613   */\n    tag_277:\n        /* \"#utility.yul\":13481:13558   */\n      0x4e487b7100000000000000000000000000000000000000000000000000000000\n        /* \"#utility.yul\":13478:13479   */\n      0x00\n        /* \"#utility.yul\":13471:13559   */\n      mstore\n        /* \"#utility.yul\":13578:13582   */\n      0x11\n        /* \"#utility.yul\":13575:13576   */\n      0x04\n        /* \"#utility.yul\":13568:13583   */\n      mstore\n        /* \"#utility.yul\":13602:13606   */\n      0x24\n        /* \"#utility.yul\":13599:13600   */\n      0x00\n        /* \"#utility.yul\":13592:13607   */\n      revert\n        /* \"#utility.yul\":13619:13799   */\n    tag_268:\n        /* \"#utility.yul\":13667:13744   */\n      0x4e487b7100000000000000000000000000000000000000000000000000000000\n        /* \"#utility.yul\":13664:13665   */\n      0x00\n        /* \"#utility.yul\":13657:13745   */\n      mstore\n        /* \"#utility.yul\":13764:13768   */\n      0x22\n        /* \"#utility.yul\":13761:13762   */\n      0x04\n        /* \"#utility.yul\":13754:13769   */\n      mstore\n        /* \"#utility.yul\":13788:13792   */\n      0x24\n        /* \"#utility.yul\":13785:13786   */\n      0x00\n        /* \"#utility.yul\":13778:13793   */\n      revert\n        /* \"#utility.yul\":13805:13985   */\n    tag_43:\n        /* \"#utility.yul\":13853:13930   */\n      0x4e487b7100000000000000000000000000000000000000000000000000000000\n        /* \"#utility.yul\":13850:13851   */\n      0x00\n        /* \"#utility.yul\":13843:13931   */\n      mstore\n        /* \"#utility.yul\":13950:13954   */\n      0x32\n        /* \"#utility.yul\":13947:13948   */\n      0x04\n        /* \"#utility.yul\":13940:13955   */\n      mstore\n        /* \"#utility.yul\":13974:13978   */\n      0x24\n        /* \"#utility.yul\":13971:13972   */\n      0x00\n        /* \"#utility.yul\":13964:13979   */\n      revert\n        /* \"#utility.yul\":13991:14171   */\n    tag_246:\n        /* \"#utility.yul\":14039:14116   */\n      0x4e487b7100000000000000000000000000000000000000000000000000000000\n        /* \"#utility.yul\":14036:14037   */\n      0x00\n        /* \"#utility.yul\":14029:14117   */\n      mstore\n        /* \"#utility.yul\":14136:14140   */\n      0x41\n        /* \"#utility.yul\":14133:14134   */\n      0x04\n        /* \"#utility.yul\":14126:14141   */\n      mstore\n        /* \"#utility.yul\":14160:14164   */\n      0x24\n        /* \"#utility.yul\":14157:14158   */\n      0x00\n        /* \"#utility.yul\":14150:14165   */\n      revert\n        /* \"#utility.yul\":14177:14294   */\n    tag_126:\n        /* \"#utility.yul\":14286:14287   */\n      0x00\n        /* \"#utility.yul\":14283:14284   */\n      dup1\n        /* \"#utility.yul\":14276:14288   */\n      revert\n        /* \"#utility.yul\":14300:14417   */\n    tag_108:\n        /* \"#utility.yul\":14409:14410   */\n      0x00\n        /* \"#utility.yul\":14406:14407   */\n      dup1\n        /* \"#utility.yul\":14399:14411   */\n      revert\n        /* \"#utility.yul\":14423:14540   */\n    tag_136:\n        /* \"#utility.yul\":14532:14533   */\n      0x00\n        /* \"#utility.yul\":14529:14530   */\n      dup1\n        /* \"#utility.yul\":14522:14534   */\n      revert\n        /* \"#utility.yul\":14546:14663   */\n    tag_170:\n        /* \"#utility.yul\":14655:14656   */\n      0x00\n        /* \"#utility.yul\":14652:14653   */\n      dup1\n        /* \"#utility.yul\":14645:14657   */\n      revert\n        /* \"#utility.yul\":14669:14786   */\n    tag_163:\n        /* \"#utility.yul\":14778:14779   */\n      0x00\n        /* \"#utility.yul\":14775:14776   */\n      dup1\n        /* \"#utility.yul\":14768:14780   */\n      revert\n        /* \"#utility.yul\":14792:14894   */\n    tag_254:\n        /* \"#utility.yul\":14833:14839   */\n      0x00\n        /* \"#utility.yul\":14884:14886   */\n      0x1f\n        /* \"#utility.yul\":14880:14887   */\n      not\n        /* \"#utility.yul\":14875:14877   */\n      0x1f\n        /* \"#utility.yul\":14868:14873   */\n      dup4\n        /* \"#utility.yul\":14864:14878   */\n      add\n        /* \"#utility.yul\":14860:14888   */\n      and\n        /* \"#utility.yul\":14850:14888   */\n      swap1\n      pop\n        /* \"#utility.yul\":14792:14894   */\n      swap2\n      swap1\n      pop\n      jump\t// out\n        /* \"#utility.yul\":14900:15070   */\n    tag_198:\n        /* \"#utility.yul\":15040:15062   */\n      0x4c656e67746820697320646966666572656e742e000000000000000000000000\n        /* \"#utility.yul\":15036:15037   */\n      0x00\n        /* \"#utility.yul\":15028:15034   */\n      dup3\n        /* \"#utility.yul\":15024:15038   */\n      add\n        /* \"#utility.yul\":15017:15063   */\n      mstore\n        /* \"#utility.yul\":14900:15070   */\n      pop\n      jump\t// out\n        /* \"#utility.yul\":15076:15238   */\n    tag_203:\n        /* \"#utility.yul\":15216:15230   */\n      0x54696d6520697320656e642e0000000000000000000000000000000000000000\n        /* \"#utility.yul\":15212:15213   */\n      0x00\n        /* \"#utility.yul\":15204:15210   */\n      dup3\n        /* \"#utility.yul\":15200:15214   */\n      add\n        /* \"#utility.yul\":15193:15231   */\n      mstore\n        /* \"#utility.yul\":15076:15238   */\n      pop\n      jump\t// out\n        /* \"#utility.yul\":15244:15414   */\n    tag_208:\n        /* \"#utility.yul\":15384:15406   */\n      0x566f74657220616c726561647920766f7465642e000000000000000000000000\n        /* \"#utility.yul\":15380:15381   */\n      0x00\n        /* \"#utility.yul\":15372:15378   */\n      dup3\n        /* \"#utility.yul\":15368:15382   */\n      add\n        /* \"#utility.yul\":15361:15407   */\n      mstore\n        /* \"#utility.yul\":15244:15414   */\n      pop\n      jump\t// out\n        /* \"#utility.yul\":15420:15590   */\n    tag_213:\n        /* \"#utility.yul\":15560:15582   */\n      0x546f6b656e20646f65736e27742065786973742e000000000000000000000000\n        /* \"#utility.yul\":15556:15557   */\n      0x00\n        /* \"#utility.yul\":15548:15554   */\n      dup3\n        /* \"#utility.yul\":15544:15558   */\n      add\n        /* \"#utility.yul\":15537:15583   */\n      mstore\n        /* \"#utility.yul\":15420:15590   */\n      pop\n      jump\t// out\n        /* \"#utility.yul\":15596:15718   */\n    tag_141:\n        /* \"#utility.yul\":15669:15693   */\n      tag_293\n        /* \"#utility.yul\":15687:15692   */\n      dup2\n        /* \"#utility.yul\":15669:15693   */\n      tag_188\n      jump\t// in\n    tag_293:\n        /* \"#utility.yul\":15662:15667   */\n      dup2\n        /* \"#utility.yul\":15659:15694   */\n      eq\n        /* \"#utility.yul\":15649:15712   */\n      tag_294\n      jumpi\n        /* \"#utility.yul\":15708:15709   */\n      0x00\n        /* \"#utility.yul\":15705:15706   */\n      dup1\n        /* \"#utility.yul\":15698:15710   */\n      revert\n        /* \"#utility.yul\":15649:15712   */\n    tag_294:\n        /* \"#utility.yul\":15596:15718   */\n      pop\n      jump\t// out\n        /* \"#utility.yul\":15724:15846   */\n    tag_159:\n        /* \"#utility.yul\":15797:15821   */\n      tag_296\n        /* \"#utility.yul\":15815:15820   */\n      dup2\n        /* \"#utility.yul\":15797:15821   */\n      tag_217\n      jump\t// in\n    tag_296:\n        /* \"#utility.yul\":15790:15795   */\n      dup2\n        /* \"#utility.yul\":15787:15822   */\n      eq\n        /* \"#utility.yul\":15777:15840   */\n      tag_297\n      jumpi\n        /* \"#utility.yul\":15836:15837   */\n      0x00\n        /* \"#utility.yul\":15833:15834   */\n      dup1\n        /* \"#utility.yul\":15826:15838   */\n      revert\n        /* \"#utility.yul\":15777:15840   */\n    tag_297:\n        /* \"#utility.yul\":15724:15846   */\n      pop\n      jump\t// out\n\n    auxdata: 0xa2646970667358221220b2549dbedc0760bfb4ca8f44d59b0c4cfc20607bce83a8d760570720fa11f12064736f6c63430008070033\n}\n\nsub_1: assembly {\n        /* \"contracts/Token.sol\":99:289  contract Token is ERC20Standard {\r... */\n      mstore(0x40, 0x80)\n        /* \"contracts/Token.sol\":141:286  constructor() {\r... */\n      callvalue\n      dup1\n      iszero\n      tag_1\n      jumpi\n      0x00\n      dup1\n      revert\n    tag_1:\n      pop\n        /* \"contracts/Token.sol\":178:179  0 */\n      0x00\n        /* \"contracts/Token.sol\":164:175  totalSupply */\n      dup1\n        /* \"contracts/Token.sol\":164:179  totalSupply = 0 */\n      dup2\n      swap1\n      sstore\n      pop\n        /* \"contracts/Token.sol\":188:210  name = \"E-Voting coin\" */\n      mload(0x40)\n      dup1\n      0x40\n      add\n      0x40\n      mstore\n      dup1\n      0x0d\n      dup2\n      mstore\n      0x20\n      add\n      0x452d566f74696e6720636f696e00000000000000000000000000000000000000\n      dup2\n      mstore\n      pop\n        /* \"contracts/Token.sol\":188:192  name */\n      0x01\n        /* \"contracts/Token.sol\":188:210  name = \"E-Voting coin\" */\n      swap1\n      dup1\n      mload\n      swap1\n      0x20\n      add\n      swap1\n      tag_4\n      swap3\n      swap2\n      swap1\n      tag_5\n      jump\t// in\n    tag_4:\n      pop\n        /* \"contracts/Token.sol\":230:231  4 */\n      0x04\n        /* \"contracts/Token.sol\":219:227  decimals */\n      0x02\n      0x00\n        /* \"contracts/Token.sol\":219:231  decimals = 4 */\n      0x0100\n      exp\n      dup2\n      sload\n      dup2\n      0xff\n      mul\n      not\n      and\n      swap1\n      dup4\n      0xff\n      and\n      mul\n      or\n      swap1\n      sstore\n      pop\n        /* \"contracts/Token.sol\":240:254  symbol = \"EVC\" */\n      mload(0x40)\n      dup1\n      0x40\n      add\n      0x40\n      mstore\n      dup1\n      0x03\n      dup2\n      mstore\n      0x20\n      add\n      0x4556430000000000000000000000000000000000000000000000000000000000\n      dup2\n      mstore\n      pop\n        /* \"contracts/Token.sol\":240:246  symbol */\n      0x03\n        /* \"contracts/Token.sol\":240:254  symbol = \"EVC\" */\n      swap1\n      dup1\n      mload\n      swap1\n      0x20\n      add\n      swap1\n      tag_6\n      swap3\n      swap2\n      swap1\n      tag_5\n      jump\t// in\n    tag_6:\n      pop\n        /* \"contracts/Token.sol\":263:278  version = \"1.0\" */\n      mload(0x40)\n      dup1\n      0x40\n      add\n      0x40\n      mstore\n      dup1\n      0x03\n      dup2\n      mstore\n      0x20\n      add\n      0x312e300000000000000000000000000000000000000000000000000000000000\n      dup2\n      mstore\n      pop\n        /* \"contracts/Token.sol\":263:270  version */\n      0x04\n        /* \"contracts/Token.sol\":263:278  version = \"1.0\" */\n      swap1\n      dup1\n      mload\n      swap1\n      0x20\n      add\n      swap1\n      tag_7\n      swap3\n      swap2\n      swap1\n      tag_5\n      jump\t// in\n    tag_7:\n      pop\n        /* \"contracts/Token.sol\":99:289  contract Token is ERC20Standard {\r... */\n      jump(tag_8)\n    tag_5:\n      dup3\n      dup1\n      sload\n      tag_9\n      swap1\n      tag_10\n      jump\t// in\n    tag_9:\n      swap1\n      0x00\n      mstore\n      keccak256(0x00, 0x20)\n      swap1\n      0x1f\n      add\n      0x20\n      swap1\n      div\n      dup2\n      add\n      swap3\n      dup3\n      tag_12\n      jumpi\n      0x00\n      dup6\n      sstore\n      jump(tag_11)\n    tag_12:\n      dup3\n      0x1f\n      lt\n      tag_13\n      jumpi\n      dup1\n      mload\n      not(0xff)\n      and\n      dup4\n      dup1\n      add\n      or\n      dup6\n      sstore\n      jump(tag_11)\n    tag_13:\n      dup3\n      dup1\n      add\n      0x01\n      add\n      dup6\n      sstore\n      dup3\n      iszero\n      tag_11\n      jumpi\n      swap2\n      dup3\n      add\n    tag_14:\n      dup3\n      dup2\n      gt\n      iszero\n      tag_15\n      jumpi\n      dup3\n      mload\n      dup3\n      sstore\n      swap2\n      0x20\n      add\n      swap2\n      swap1\n      0x01\n      add\n      swap1\n      jump(tag_14)\n    tag_15:\n    tag_11:\n      pop\n      swap1\n      pop\n      tag_16\n      swap2\n      swap1\n      tag_17\n      jump\t// in\n    tag_16:\n      pop\n      swap1\n      jump\t// out\n    tag_17:\n    tag_18:\n      dup1\n      dup3\n      gt\n      iszero\n      tag_19\n      jumpi\n      0x00\n      dup2\n      0x00\n      swap1\n      sstore\n      pop\n      0x01\n      add\n      jump(tag_18)\n    tag_19:\n      pop\n      swap1\n      jump\t// out\n        /* \"#utility.yul\":7:327   */\n    tag_10:\n        /* \"#utility.yul\":51:57   */\n      0x00\n        /* \"#utility.yul\":88:89   */\n      0x02\n        /* \"#utility.yul\":82:86   */\n      dup3\n        /* \"#utility.yul\":78:90   */\n      div\n        /* \"#utility.yul\":68:90   */\n      swap1\n      pop\n        /* \"#utility.yul\":135:136   */\n      0x01\n        /* \"#utility.yul\":129:133   */\n      dup3\n        /* \"#utility.yul\":125:137   */\n      and\n        /* \"#utility.yul\":156:174   */\n      dup1\n        /* \"#utility.yul\":146:227   */\n      tag_22\n      jumpi\n        /* \"#utility.yul\":212:216   */\n      0x7f\n        /* \"#utility.yul\":204:210   */\n      dup3\n        /* \"#utility.yul\":200:217   */\n      and\n        /* \"#utility.yul\":190:217   */\n      swap2\n      pop\n        /* \"#utility.yul\":146:227   */\n    tag_22:\n        /* \"#utility.yul\":274:276   */\n      0x20\n        /* \"#utility.yul\":266:272   */\n      dup3\n        /* \"#utility.yul\":263:277   */\n      lt\n        /* \"#utility.yul\":243:261   */\n      dup2\n        /* \"#utility.yul\":240:278   */\n      eq\n        /* \"#utility.yul\":237:321   */\n      iszero\n      tag_23\n      jumpi\n        /* \"#utility.yul\":293:311   */\n      tag_24\n      tag_25\n      jump\t// in\n    tag_24:\n        /* \"#utility.yul\":237:321   */\n    tag_23:\n        /* \"#utility.yul\":58:327   */\n      pop\n        /* \"#utility.yul\":7:327   */\n      swap2\n      swap1\n      pop\n      jump\t// out\n        /* \"#utility.yul\":333:513   */\n    tag_25:\n        /* \"#utility.yul\":381:458   */\n      0x4e487b7100000000000000000000000000000000000000000000000000000000\n        /* \"#utility.yul\":378:379   */\n      0x00\n        /* \"#utility.yul\":371:459   */\n      mstore\n        /* \"#utility.yul\":478:482   */\n      0x22\n        /* \"#utility.yul\":475:476   */\n      0x04\n        /* \"#utility.yul\":468:483   */\n      mstore\n        /* \"#utility.yul\":502:506   */\n      0x24\n        /* \"#utility.yul\":499:500   */\n      0x00\n        /* \"#utility.yul\":492:507   */\n      revert\n        /* \"contracts/Token.sol\":99:289  contract Token is ERC20Standard {\r... */\n    tag_8:\n      dataSize(sub_0)\n      dup1\n      dataOffset(sub_0)\n      0x00\n      codecopy\n      0x00\n      return\n    stop\n\n    sub_0: assembly {\n            /* \"contracts/Token.sol\":99:289  contract Token is ERC20Standard {\r... */\n          mstore(0x40, 0x80)\n          callvalue\n          dup1\n          iszero\n          tag_1\n          jumpi\n          0x00\n          dup1\n          revert\n        tag_1:\n          pop\n          jumpi(tag_2, lt(calldatasize, 0x04))\n          shr(0xe0, calldataload(0x00))\n          dup1\n          0x40c10f19\n          gt\n          tag_14\n          jumpi\n          dup1\n          0x40c10f19\n          eq\n          tag_8\n          jumpi\n          dup1\n          0x54fd4d50\n          eq\n          tag_9\n          jumpi\n          dup1\n          0x70a08231\n          eq\n          tag_10\n          jumpi\n          dup1\n          0x95d89b41\n          eq\n          tag_11\n          jumpi\n          dup1\n          0xa9059cbb\n          eq\n          tag_12\n          jumpi\n          dup1\n          0xdd62ed3e\n          eq\n          tag_13\n          jumpi\n          jump(tag_2)\n        tag_14:\n          dup1\n          0x06fdde03\n          eq\n          tag_3\n          jumpi\n          dup1\n          0x095ea7b3\n          eq\n          tag_4\n          jumpi\n          dup1\n          0x18160ddd\n          eq\n          tag_5\n          jumpi\n          dup1\n          0x23b872dd\n          eq\n          tag_6\n          jumpi\n          dup1\n          0x313ce567\n          eq\n          tag_7\n          jumpi\n        tag_2:\n          0x00\n          dup1\n          revert\n            /* \"contracts/ERC20Standard.sol\":1005:1023  string public name */\n        tag_3:\n          tag_15\n          tag_16\n          jump\t// in\n        tag_15:\n          mload(0x40)\n          tag_17\n          swap2\n          swap1\n          tag_18\n          jump\t// in\n        tag_17:\n          mload(0x40)\n          dup1\n          swap2\n          sub\n          swap1\n          return\n            /* \"contracts/ERC20Standard.sol\":2429:2581  function  approve(address _spender, uint _value) public {\r... */\n        tag_4:\n          tag_19\n          0x04\n          dup1\n          calldatasize\n          sub\n          dup2\n          add\n          swap1\n          tag_20\n          swap2\n          swap1\n          tag_21\n          jump\t// in\n        tag_20:\n          tag_22\n          jump\t// in\n        tag_19:\n          stop\n            /* \"contracts/ERC20Standard.sol\":975:998  uint public totalSupply */\n        tag_5:\n          tag_23\n          tag_24\n          jump\t// in\n        tag_23:\n          mload(0x40)\n          tag_25\n          swap2\n          swap1\n          tag_26\n          jump\t// in\n        tag_25:\n          mload(0x40)\n          dup1\n          swap2\n          sub\n          swap1\n          return\n            /* \"contracts/ERC20Standard.sol\":1798:2182  function transferFrom(address _from, address _to, uint _value) public {\r... */\n        tag_6:\n          tag_27\n          0x04\n          dup1\n          calldatasize\n          sub\n          dup2\n          add\n          swap1\n          tag_28\n          swap2\n          swap1\n          tag_29\n          jump\t// in\n        tag_28:\n          tag_30\n          jump\t// in\n        tag_27:\n          stop\n            /* \"contracts/ERC20Standard.sol\":1027:1048  uint8 public decimals */\n        tag_7:\n          tag_31\n          tag_32\n          jump\t// in\n        tag_31:\n          mload(0x40)\n          tag_33\n          swap2\n          swap1\n          tag_34\n          jump\t// in\n        tag_33:\n          mload(0x40)\n          dup1\n          swap2\n          sub\n          swap1\n          return\n            /* \"contracts/ERC20Standard.sol\":2193:2424  function mint(address addr, uint amount) public {\r... */\n        tag_8:\n          tag_35\n          0x04\n          dup1\n          calldatasize\n          sub\n          dup2\n          add\n          swap1\n          tag_36\n          swap2\n          swap1\n          tag_21\n          jump\t// in\n        tag_36:\n          tag_37\n          jump\t// in\n        tag_35:\n          stop\n            /* \"contracts/ERC20Standard.sol\":1076:1097  string public version */\n        tag_9:\n          tag_38\n          tag_39\n          jump\t// in\n        tag_38:\n          mload(0x40)\n          tag_40\n          swap2\n          swap1\n          tag_18\n          jump\t// in\n        tag_40:\n          mload(0x40)\n          dup1\n          swap2\n          sub\n          swap1\n          return\n            /* \"contracts/ERC20Standard.sol\":1345:1448  function balanceOf(address _owner) public view returns (uint balance) {\r... */\n        tag_10:\n          tag_41\n          0x04\n          dup1\n          calldatasize\n          sub\n          dup2\n          add\n          swap1\n          tag_42\n          swap2\n          swap1\n          tag_43\n          jump\t// in\n        tag_42:\n          tag_44\n          jump\t// in\n        tag_41:\n          mload(0x40)\n          tag_45\n          swap2\n          swap1\n          tag_26\n          jump\t// in\n        tag_45:\n          mload(0x40)\n          dup1\n          swap2\n          sub\n          swap1\n          return\n            /* \"contracts/ERC20Standard.sol\":1052:1072  string public symbol */\n        tag_11:\n          tag_46\n          tag_47\n          jump\t// in\n        tag_46:\n          mload(0x40)\n          tag_48\n          swap2\n          swap1\n          tag_18\n          jump\t// in\n        tag_48:\n          mload(0x40)\n          dup1\n          swap2\n          sub\n          swap1\n          return\n            /* \"contracts/ERC20Standard.sol\":1453:1793  function transfer(address _recipient, uint _value) public onlyPayloadSize(2*32) {\r... */\n        tag_12:\n          tag_49\n          0x04\n          dup1\n          calldatasize\n          sub\n          dup2\n          add\n          swap1\n          tag_50\n          swap2\n          swap1\n          tag_21\n          jump\t// in\n        tag_50:\n          tag_51\n          jump\t// in\n        tag_49:\n          stop\n            /* \"contracts/ERC20Standard.sol\":2586:2716  function allowance(address _spender, address _owner) public view returns (uint balance) {\r... */\n        tag_13:\n          tag_52\n          0x04\n          dup1\n          calldatasize\n          sub\n          dup2\n          add\n          swap1\n          tag_53\n          swap2\n          swap1\n          tag_54\n          jump\t// in\n        tag_53:\n          tag_55\n          jump\t// in\n        tag_52:\n          mload(0x40)\n          tag_56\n          swap2\n          swap1\n          tag_26\n          jump\t// in\n        tag_56:\n          mload(0x40)\n          dup1\n          swap2\n          sub\n          swap1\n          return\n            /* \"contracts/ERC20Standard.sol\":1005:1023  string public name */\n        tag_16:\n          0x01\n          dup1\n          sload\n          tag_57\n          swap1\n          tag_58\n          jump\t// in\n        tag_57:\n          dup1\n          0x1f\n          add\n          0x20\n          dup1\n          swap2\n          div\n          mul\n          0x20\n          add\n          mload(0x40)\n          swap1\n          dup2\n          add\n          0x40\n          mstore\n          dup1\n          swap3\n          swap2\n          swap1\n          dup2\n          dup2\n          mstore\n          0x20\n          add\n          dup3\n          dup1\n          sload\n          tag_59\n          swap1\n          tag_58\n          jump\t// in\n        tag_59:\n          dup1\n          iszero\n          tag_60\n          jumpi\n          dup1\n          0x1f\n          lt\n          tag_61\n          jumpi\n          0x0100\n          dup1\n          dup4\n          sload\n          div\n          mul\n          dup4\n          mstore\n          swap2\n          0x20\n          add\n          swap2\n          jump(tag_60)\n        tag_61:\n          dup3\n          add\n          swap2\n          swap1\n          0x00\n          mstore\n          keccak256(0x00, 0x20)\n          swap1\n        tag_62:\n          dup2\n          sload\n          dup2\n          mstore\n          swap1\n          0x01\n          add\n          swap1\n          0x20\n          add\n          dup1\n          dup4\n          gt\n          tag_62\n          jumpi\n          dup3\n          swap1\n          sub\n          0x1f\n          and\n          dup3\n          add\n          swap2\n        tag_60:\n          pop\n          pop\n          pop\n          pop\n          pop\n          dup2\n          jump\t// out\n            /* \"contracts/ERC20Standard.sol\":2429:2581  function  approve(address _spender, uint _value) public {\r... */\n        tag_22:\n            /* \"contracts/ERC20Standard.sol\":2522:2528  _value */\n          dup1\n            /* \"contracts/ERC20Standard.sol\":2490:2497  allowed */\n          0x06\n            /* \"contracts/ERC20Standard.sol\":2490:2509  allowed[msg.sender] */\n          0x00\n            /* \"contracts/ERC20Standard.sol\":2498:2508  msg.sender */\n          caller\n            /* \"contracts/ERC20Standard.sol\":2490:2509  allowed[msg.sender] */\n          0xffffffffffffffffffffffffffffffffffffffff\n          and\n          0xffffffffffffffffffffffffffffffffffffffff\n          and\n          dup2\n          mstore\n          0x20\n          add\n          swap1\n          dup2\n          mstore\n          0x20\n          add\n          0x00\n          keccak256\n            /* \"contracts/ERC20Standard.sol\":2490:2519  allowed[msg.sender][_spender] */\n          0x00\n            /* \"contracts/ERC20Standard.sol\":2510:2518  _spender */\n          dup5\n            /* \"contracts/ERC20Standard.sol\":2490:2519  allowed[msg.sender][_spender] */\n          0xffffffffffffffffffffffffffffffffffffffff\n          and\n          0xffffffffffffffffffffffffffffffffffffffff\n          and\n          dup2\n          mstore\n          0x20\n          add\n          swap1\n          dup2\n          mstore\n          0x20\n          add\n          0x00\n          keccak256\n            /* \"contracts/ERC20Standard.sol\":2490:2528  allowed[msg.sender][_spender] = _value */\n          dup2\n          swap1\n          sstore\n          pop\n            /* \"contracts/ERC20Standard.sol\":2559:2567  _spender */\n          dup2\n            /* \"contracts/ERC20Standard.sol\":2538:2576  Approval(msg.sender, _spender, _value) */\n          0xffffffffffffffffffffffffffffffffffffffff\n          and\n            /* \"contracts/ERC20Standard.sol\":2547:2557  msg.sender */\n          caller\n            /* \"contracts/ERC20Standard.sol\":2538:2576  Approval(msg.sender, _spender, _value) */\n          0xffffffffffffffffffffffffffffffffffffffff\n          and\n          0x8c5be1e5ebec7d5bd14f71427d1e84f3dd0314c0f7b2291e5b200ac8c7c3b925\n            /* \"contracts/ERC20Standard.sol\":2569:2575  _value */\n          dup4\n            /* \"contracts/ERC20Standard.sol\":2538:2576  Approval(msg.sender, _spender, _value) */\n          mload(0x40)\n          tag_64\n          swap2\n          swap1\n          tag_26\n          jump\t// in\n        tag_64:\n          mload(0x40)\n          dup1\n          swap2\n          sub\n          swap1\n          log3\n            /* \"contracts/ERC20Standard.sol\":2429:2581  function  approve(address _spender, uint _value) public {\r... */\n          pop\n          pop\n          jump\t// out\n            /* \"contracts/ERC20Standard.sol\":975:998  uint public totalSupply */\n        tag_24:\n          sload(0x00)\n          dup2\n          jump\t// out\n            /* \"contracts/ERC20Standard.sol\":1798:2182  function transferFrom(address _from, address _to, uint _value) public {\r... */\n        tag_30:\n            /* \"contracts/ERC20Standard.sol\":1903:1909  _value */\n          dup1\n            /* \"contracts/ERC20Standard.sol\":1884:1892  balances */\n          0x05\n            /* \"contracts/ERC20Standard.sol\":1884:1899  balances[_from] */\n          0x00\n            /* \"contracts/ERC20Standard.sol\":1893:1898  _from */\n          dup6\n            /* \"contracts/ERC20Standard.sol\":1884:1899  balances[_from] */\n          0xffffffffffffffffffffffffffffffffffffffff\n          and\n          0xffffffffffffffffffffffffffffffffffffffff\n          and\n          dup2\n          mstore\n          0x20\n          add\n          swap1\n          dup2\n          mstore\n          0x20\n          add\n          0x00\n          keccak256\n          sload\n            /* \"contracts/ERC20Standard.sol\":1884:1909  balances[_from] >= _value */\n          lt\n          iszero\n            /* \"contracts/ERC20Standard.sol\":1884:1949  balances[_from] >= _value && allowed[_from][msg.sender] >= _value */\n          dup1\n          iszero\n          tag_66\n          jumpi\n          pop\n            /* \"contracts/ERC20Standard.sol\":1943:1949  _value */\n          dup1\n            /* \"contracts/ERC20Standard.sol\":1913:1920  allowed */\n          0x06\n            /* \"contracts/ERC20Standard.sol\":1913:1927  allowed[_from] */\n          0x00\n            /* \"contracts/ERC20Standard.sol\":1921:1926  _from */\n          dup6\n            /* \"contracts/ERC20Standard.sol\":1913:1927  allowed[_from] */\n          0xffffffffffffffffffffffffffffffffffffffff\n          and\n          0xffffffffffffffffffffffffffffffffffffffff\n          and\n          dup2\n          mstore\n          0x20\n          add\n          swap1\n          dup2\n          mstore\n          0x20\n          add\n          0x00\n          keccak256\n            /* \"contracts/ERC20Standard.sol\":1913:1939  allowed[_from][msg.sender] */\n          0x00\n            /* \"contracts/ERC20Standard.sol\":1928:1938  msg.sender */\n          caller\n            /* \"contracts/ERC20Standard.sol\":1913:1939  allowed[_from][msg.sender] */\n          0xffffffffffffffffffffffffffffffffffffffff\n          and\n          0xffffffffffffffffffffffffffffffffffffffff\n          and\n          dup2\n          mstore\n          0x20\n          add\n          swap1\n          dup2\n          mstore\n          0x20\n          add\n          0x00\n          keccak256\n          sload\n            /* \"contracts/ERC20Standard.sol\":1913:1949  allowed[_from][msg.sender] >= _value */\n          lt\n          iszero\n            /* \"contracts/ERC20Standard.sol\":1884:1949  balances[_from] >= _value && allowed[_from][msg.sender] >= _value */\n        tag_66:\n            /* \"contracts/ERC20Standard.sol\":1884:1963  balances[_from] >= _value && allowed[_from][msg.sender] >= _value && _value > 0 */\n          dup1\n          iszero\n          tag_67\n          jumpi\n          pop\n            /* \"contracts/ERC20Standard.sol\":1962:1963  0 */\n          0x00\n            /* \"contracts/ERC20Standard.sol\":1953:1959  _value */\n          dup2\n            /* \"contracts/ERC20Standard.sol\":1953:1963  _value > 0 */\n          gt\n            /* \"contracts/ERC20Standard.sol\":1884:1963  balances[_from] >= _value && allowed[_from][msg.sender] >= _value && _value > 0 */\n        tag_67:\n            /* \"contracts/ERC20Standard.sol\":1876:1964  require(balances[_from] >= _value && allowed[_from][msg.sender] >= _value && _value > 0) */\n          tag_68\n          jumpi\n          0x00\n          dup1\n          revert\n        tag_68:\n            /* \"contracts/ERC20Standard.sol\":1985:2010  balances[_to].add(_value) */\n          tag_69\n            /* \"contracts/ERC20Standard.sol\":2003:2009  _value */\n          dup2\n            /* \"contracts/ERC20Standard.sol\":1985:1993  balances */\n          0x05\n            /* \"contracts/ERC20Standard.sol\":1985:1998  balances[_to] */\n          0x00\n            /* \"contracts/ERC20Standard.sol\":1994:1997  _to */\n          dup6\n            /* \"contracts/ERC20Standard.sol\":1985:1998  balances[_to] */\n          0xffffffffffffffffffffffffffffffffffffffff\n          and\n          0xffffffffffffffffffffffffffffffffffffffff\n          and\n          dup2\n          mstore\n          0x20\n          add\n          swap1\n          dup2\n          mstore\n          0x20\n          add\n          0x00\n          keccak256\n          sload\n            /* \"contracts/ERC20Standard.sol\":1985:2002  balances[_to].add */\n          tag_70\n          swap1\n            /* \"contracts/ERC20Standard.sol\":1985:2010  balances[_to].add(_value) */\n          swap2\n          swap1\n          0xffffffff\n          and\n          jump\t// in\n        tag_69:\n            /* \"contracts/ERC20Standard.sol\":1969:1977  balances */\n          0x05\n            /* \"contracts/ERC20Standard.sol\":1969:1982  balances[_to] */\n          0x00\n            /* \"contracts/ERC20Standard.sol\":1978:1981  _to */\n          dup5\n            /* \"contracts/ERC20Standard.sol\":1969:1982  balances[_to] */\n          0xffffffffffffffffffffffffffffffffffffffff\n          and\n          0xffffffffffffffffffffffffffffffffffffffff\n          and\n          dup2\n          mstore\n          0x20\n          add\n          swap1\n          dup2\n          mstore\n          0x20\n          add\n          0x00\n          keccak256\n            /* \"contracts/ERC20Standard.sol\":1969:2010  balances[_to] = balances[_to].add(_value) */\n          dup2\n          swap1\n          sstore\n          pop\n            /* \"contracts/ERC20Standard.sol\":2033:2060  balances[_from].sub(_value) */\n          tag_71\n            /* \"contracts/ERC20Standard.sol\":2053:2059  _value */\n          dup2\n            /* \"contracts/ERC20Standard.sol\":2033:2041  balances */\n          0x05\n            /* \"contracts/ERC20Standard.sol\":2033:2048  balances[_from] */\n          0x00\n            /* \"contracts/ERC20Standard.sol\":2042:2047  _from */\n          dup7\n            /* \"contracts/ERC20Standard.sol\":2033:2048  balances[_from] */\n          0xffffffffffffffffffffffffffffffffffffffff\n          and\n          0xffffffffffffffffffffffffffffffffffffffff\n          and\n          dup2\n          mstore\n          0x20\n          add\n          swap1\n          dup2\n          mstore\n          0x20\n          add\n          0x00\n          keccak256\n          sload\n            /* \"contracts/ERC20Standard.sol\":2033:2052  balances[_from].sub */\n          tag_72\n          swap1\n            /* \"contracts/ERC20Standard.sol\":2033:2060  balances[_from].sub(_value) */\n          swap2\n          swap1\n          0xffffffff\n          and\n          jump\t// in\n        tag_71:\n            /* \"contracts/ERC20Standard.sol\":2015:2023  balances */\n          0x05\n            /* \"contracts/ERC20Standard.sol\":2015:2030  balances[_from] */\n          0x00\n            /* \"contracts/ERC20Standard.sol\":2024:2029  _from */\n          dup6\n            /* \"contracts/ERC20Standard.sol\":2015:2030  balances[_from] */\n          0xffffffffffffffffffffffffffffffffffffffff\n          and\n          0xffffffffffffffffffffffffffffffffffffffff\n          and\n          dup2\n          mstore\n          0x20\n          add\n          swap1\n          dup2\n          mstore\n          0x20\n          add\n          0x00\n          keccak256\n            /* \"contracts/ERC20Standard.sol\":2015:2060  balances[_from] = balances[_from].sub(_value) */\n          dup2\n          swap1\n          sstore\n          pop\n            /* \"contracts/ERC20Standard.sol\":2094:2132  allowed[_from][msg.sender].sub(_value) */\n          tag_73\n            /* \"contracts/ERC20Standard.sol\":2125:2131  _value */\n          dup2\n            /* \"contracts/ERC20Standard.sol\":2094:2101  allowed */\n          0x06\n            /* \"contracts/ERC20Standard.sol\":2094:2108  allowed[_from] */\n          0x00\n            /* \"contracts/ERC20Standard.sol\":2102:2107  _from */\n          dup7\n            /* \"contracts/ERC20Standard.sol\":2094:2108  allowed[_from] */\n          0xffffffffffffffffffffffffffffffffffffffff\n          and\n          0xffffffffffffffffffffffffffffffffffffffff\n          and\n          dup2\n          mstore\n          0x20\n          add\n          swap1\n          dup2\n          mstore\n          0x20\n          add\n          0x00\n          keccak256\n            /* \"contracts/ERC20Standard.sol\":2094:2120  allowed[_from][msg.sender] */\n          0x00\n            /* \"contracts/ERC20Standard.sol\":2109:2119  msg.sender */\n          caller\n            /* \"contracts/ERC20Standard.sol\":2094:2120  allowed[_from][msg.sender] */\n          0xffffffffffffffffffffffffffffffffffffffff\n          and\n          0xffffffffffffffffffffffffffffffffffffffff\n          and\n          dup2\n          mstore\n          0x20\n          add\n          swap1\n          dup2\n          mstore\n          0x20\n          add\n          0x00\n          keccak256\n          sload\n            /* \"contracts/ERC20Standard.sol\":2094:2124  allowed[_from][msg.sender].sub */\n          tag_72\n          swap1\n            /* \"contracts/ERC20Standard.sol\":2094:2132  allowed[_from][msg.sender].sub(_value) */\n          swap2\n          swap1\n          0xffffffff\n          and\n          jump\t// in\n        tag_73:\n            /* \"contracts/ERC20Standard.sol\":2065:2072  allowed */\n          0x06\n            /* \"contracts/ERC20Standard.sol\":2065:2079  allowed[_from] */\n          0x00\n            /* \"contracts/ERC20Standard.sol\":2073:2078  _from */\n          dup6\n            /* \"contracts/ERC20Standard.sol\":2065:2079  allowed[_from] */\n          0xffffffffffffffffffffffffffffffffffffffff\n          and\n          0xffffffffffffffffffffffffffffffffffffffff\n          and\n          dup2\n          mstore\n          0x20\n          add\n          swap1\n          dup2\n          mstore\n          0x20\n          add\n          0x00\n          keccak256\n            /* \"contracts/ERC20Standard.sol\":2065:2091  allowed[_from][msg.sender] */\n          0x00\n            /* \"contracts/ERC20Standard.sol\":2080:2090  msg.sender */\n          caller\n            /* \"contracts/ERC20Standard.sol\":2065:2091  allowed[_from][msg.sender] */\n          0xffffffffffffffffffffffffffffffffffffffff\n          and\n          0xffffffffffffffffffffffffffffffffffffffff\n          and\n          dup2\n          mstore\n          0x20\n          add\n          swap1\n          dup2\n          mstore\n          0x20\n          add\n          0x00\n          keccak256\n            /* \"contracts/ERC20Standard.sol\":2065:2132  allowed[_from][msg.sender] = allowed[_from][msg.sender].sub(_value) */\n          dup2\n          swap1\n          sstore\n          pop\n            /* \"contracts/ERC20Standard.sol\":2158:2161  _to */\n          dup2\n            /* \"contracts/ERC20Standard.sol\":2142:2170  Transfer(_from, _to, _value) */\n          0xffffffffffffffffffffffffffffffffffffffff\n          and\n            /* \"contracts/ERC20Standard.sol\":2151:2156  _from */\n          dup4\n            /* \"contracts/ERC20Standard.sol\":2142:2170  Transfer(_from, _to, _value) */\n          0xffffffffffffffffffffffffffffffffffffffff\n          and\n          0xddf252ad1be2c89b69c2b068fc378daa952ba7f163c4a11628f55a4df523b3ef\n            /* \"contracts/ERC20Standard.sol\":2163:2169  _value */\n          dup4\n            /* \"contracts/ERC20Standard.sol\":2142:2170  Transfer(_from, _to, _value) */\n          mload(0x40)\n          tag_74\n          swap2\n          swap1\n          tag_26\n          jump\t// in\n        tag_74:\n          mload(0x40)\n          dup1\n          swap2\n          sub\n          swap1\n          log3\n            /* \"contracts/ERC20Standard.sol\":1798:2182  function transferFrom(address _from, address _to, uint _value) public {\r... */\n          pop\n          pop\n          pop\n          jump\t// out\n            /* \"contracts/ERC20Standard.sol\":1027:1048  uint8 public decimals */\n        tag_32:\n          0x02\n          0x00\n          swap1\n          sload\n          swap1\n          0x0100\n          exp\n          swap1\n          div\n          0xff\n          and\n          dup2\n          jump\t// out\n            /* \"contracts/ERC20Standard.sol\":2193:2424  function mint(address addr, uint amount) public {\r... */\n        tag_37:\n            /* \"contracts/ERC20Standard.sol\":2270:2271  0 */\n          0x00\n            /* \"contracts/ERC20Standard.sol\":2254:2272  addr != address(0) */\n          0xffffffffffffffffffffffffffffffffffffffff\n          and\n            /* \"contracts/ERC20Standard.sol\":2254:2258  addr */\n          dup3\n            /* \"contracts/ERC20Standard.sol\":2254:2272  addr != address(0) */\n          0xffffffffffffffffffffffffffffffffffffffff\n          and\n          eq\n          iszero\n            /* \"contracts/ERC20Standard.sol\":2246:2308  require(addr != address(0), \"ERC20: mint to the zero address\") */\n          tag_76\n          jumpi\n          mload(0x40)\n          0x08c379a000000000000000000000000000000000000000000000000000000000\n          dup2\n          mstore\n          0x04\n          add\n          tag_77\n          swap1\n          tag_78\n          jump\t// in\n        tag_77:\n          mload(0x40)\n          dup1\n          swap2\n          sub\n          swap1\n          revert\n        tag_76:\n            /* \"contracts/ERC20Standard.sol\":2318:2341  totalSupply.add(amount) */\n          tag_79\n            /* \"contracts/ERC20Standard.sol\":2334:2340  amount */\n          dup2\n            /* \"contracts/ERC20Standard.sol\":2318:2329  totalSupply */\n          sload(0x00)\n            /* \"contracts/ERC20Standard.sol\":2318:2333  totalSupply.add */\n          tag_70\n          swap1\n            /* \"contracts/ERC20Standard.sol\":2318:2341  totalSupply.add(amount) */\n          swap2\n          swap1\n          0xffffffff\n          and\n          jump\t// in\n        tag_79:\n          pop\n            /* \"contracts/ERC20Standard.sol\":2346:2372  balances[addr].add(amount) */\n          tag_80\n            /* \"contracts/ERC20Standard.sol\":2365:2371  amount */\n          dup2\n            /* \"contracts/ERC20Standard.sol\":2346:2354  balances */\n          0x05\n            /* \"contracts/ERC20Standard.sol\":2346:2360  balances[addr] */\n          0x00\n            /* \"contracts/ERC20Standard.sol\":2355:2359  addr */\n          dup6\n            /* \"contracts/ERC20Standard.sol\":2346:2360  balances[addr] */\n          0xffffffffffffffffffffffffffffffffffffffff\n          and\n          0xffffffffffffffffffffffffffffffffffffffff\n          and\n          dup2\n          mstore\n          0x20\n          add\n          swap1\n          dup2\n          mstore\n          0x20\n          add\n          0x00\n          keccak256\n          sload\n            /* \"contracts/ERC20Standard.sol\":2346:2364  balances[addr].add */\n          tag_70\n          swap1\n            /* \"contracts/ERC20Standard.sol\":2346:2372  balances[addr].add(amount) */\n          swap2\n          swap1\n          0xffffffff\n          and\n          jump\t// in\n        tag_80:\n          pop\n            /* \"contracts/ERC20Standard.sol\":2403:2407  addr */\n          dup2\n            /* \"contracts/ERC20Standard.sol\":2382:2416  Transfer(address(0), addr, amount) */\n          0xffffffffffffffffffffffffffffffffffffffff\n          and\n            /* \"contracts/ERC20Standard.sol\":2399:2400  0 */\n          0x00\n            /* \"contracts/ERC20Standard.sol\":2382:2416  Transfer(address(0), addr, amount) */\n          0xffffffffffffffffffffffffffffffffffffffff\n          and\n          0xddf252ad1be2c89b69c2b068fc378daa952ba7f163c4a11628f55a4df523b3ef\n            /* \"contracts/ERC20Standard.sol\":2409:2415  amount */\n          dup4\n            /* \"contracts/ERC20Standard.sol\":2382:2416  Transfer(address(0), addr, amount) */\n          mload(0x40)\n          tag_81\n          swap2\n          swap1\n          tag_26\n          jump\t// in\n        tag_81:\n          mload(0x40)\n          dup1\n          swap2\n          sub\n          swap1\n          log3\n            /* \"contracts/ERC20Standard.sol\":2193:2424  function mint(address addr, uint amount) public {\r... */\n          pop\n          pop\n          jump\t// out\n            /* \"contracts/ERC20Standard.sol\":1076:1097  string public version */\n        tag_39:\n          0x04\n          dup1\n          sload\n          tag_82\n          swap1\n          tag_58\n          jump\t// in\n        tag_82:\n          dup1\n          0x1f\n          add\n          0x20\n          dup1\n          swap2\n          div\n          mul\n          0x20\n          add\n          mload(0x40)\n          swap1\n          dup2\n          add\n          0x40\n          mstore\n          dup1\n          swap3\n          swap2\n          swap1\n          dup2\n          dup2\n          mstore\n          0x20\n          add\n          dup3\n          dup1\n          sload\n          tag_83\n          swap1\n          tag_58\n          jump\t// in\n        tag_83:\n          dup1\n          iszero\n          tag_84\n          jumpi\n          dup1\n          0x1f\n          lt\n          tag_85\n          jumpi\n          0x0100\n          dup1\n          dup4\n          sload\n          div\n          mul\n          dup4\n          mstore\n          swap2\n          0x20\n          add\n          swap2\n          jump(tag_84)\n        tag_85:\n          dup3\n          add\n          swap2\n          swap1\n          0x00\n          mstore\n          keccak256(0x00, 0x20)\n          swap1\n        tag_86:\n          dup2\n          sload\n          dup2\n          mstore\n          swap1\n          0x01\n          add\n          swap1\n          0x20\n          add\n          dup1\n          dup4\n          gt\n          tag_86\n          jumpi\n          dup3\n          swap1\n          sub\n          0x1f\n          and\n          dup3\n          add\n          swap2\n        tag_84:\n          pop\n          pop\n          pop\n          pop\n          pop\n          dup2\n          jump\t// out\n            /* \"contracts/ERC20Standard.sol\":1345:1448  function balanceOf(address _owner) public view returns (uint balance) {\r... */\n        tag_44:\n            /* \"contracts/ERC20Standard.sol\":1401:1413  uint balance */\n          0x00\n            /* \"contracts/ERC20Standard.sol\":1427:1435  balances */\n          0x05\n            /* \"contracts/ERC20Standard.sol\":1427:1443  balances[_owner] */\n          0x00\n            /* \"contracts/ERC20Standard.sol\":1436:1442  _owner */\n          dup4\n            /* \"contracts/ERC20Standard.sol\":1427:1443  balances[_owner] */\n          0xffffffffffffffffffffffffffffffffffffffff\n          and\n          0xffffffffffffffffffffffffffffffffffffffff\n          and\n          dup2\n          mstore\n          0x20\n          add\n          swap1\n          dup2\n          mstore\n          0x20\n          add\n          0x00\n          keccak256\n          sload\n            /* \"contracts/ERC20Standard.sol\":1420:1443  return balances[_owner] */\n          swap1\n          pop\n            /* \"contracts/ERC20Standard.sol\":1345:1448  function balanceOf(address _owner) public view returns (uint balance) {\r... */\n          swap2\n          swap1\n          pop\n          jump\t// out\n            /* \"contracts/ERC20Standard.sol\":1052:1072  string public symbol */\n        tag_47:\n          0x03\n          dup1\n          sload\n          tag_88\n          swap1\n          tag_58\n          jump\t// in\n        tag_88:\n          dup1\n          0x1f\n          add\n          0x20\n          dup1\n          swap2\n          div\n          mul\n          0x20\n          add\n          mload(0x40)\n          swap1\n          dup2\n          add\n          0x40\n          mstore\n          dup1\n          swap3\n          swap2\n          swap1\n          dup2\n          dup2\n          mstore\n          0x20\n          add\n          dup3\n          dup1\n          sload\n          tag_89\n          swap1\n          tag_58\n          jump\t// in\n        tag_89:\n          dup1\n          iszero\n          tag_90\n          jumpi\n          dup1\n          0x1f\n          lt\n          tag_91\n          jumpi\n          0x0100\n          dup1\n          dup4\n          sload\n          div\n          mul\n          dup4\n          mstore\n          swap2\n          0x20\n          add\n          swap2\n          jump(tag_90)\n        tag_91:\n          dup3\n          add\n          swap2\n          swap1\n          0x00\n          mstore\n          keccak256(0x00, 0x20)\n          swap1\n        tag_92:\n          dup2\n          sload\n          dup2\n          mstore\n          swap1\n          0x01\n          add\n          swap1\n          0x20\n          add\n          dup1\n          dup4\n          gt\n          tag_92\n          jumpi\n          dup3\n          swap1\n          sub\n          0x1f\n          and\n          dup3\n          add\n          swap2\n        tag_90:\n          pop\n          pop\n          pop\n          pop\n          pop\n          dup2\n          jump\t// out\n            /* \"contracts/ERC20Standard.sol\":1453:1793  function transfer(address _recipient, uint _value) public onlyPayloadSize(2*32) {\r... */\n        tag_51:\n            /* \"contracts/ERC20Standard.sol\":1527:1531  2*32 */\n          0x40\n            /* \"contracts/ERC20Standard.sol\":1326:1327  4 */\n          0x04\n            /* \"contracts/ERC20Standard.sol\":1319:1323  size */\n          dup2\n            /* \"contracts/ERC20Standard.sol\":1319:1327  size + 4 */\n          tag_94\n          swap2\n          swap1\n          tag_95\n          jump\t// in\n        tag_94:\n            /* \"contracts/ERC20Standard.sol\":1300:1308  msg.data */\n          0x00\n          calldatasize\n            /* \"contracts/ERC20Standard.sol\":1300:1315  msg.data.length */\n          swap1\n          pop\n            /* \"contracts/ERC20Standard.sol\":1300:1327  msg.data.length == size + 4 */\n          eq\n            /* \"contracts/ERC20Standard.sol\":1293:1328  assert(msg.data.length == size + 4) */\n          tag_96\n          jumpi\n          tag_97\n          tag_98\n          jump\t// in\n        tag_97:\n        tag_96:\n            /* \"contracts/ERC20Standard.sol\":1573:1579  _value */\n          dup2\n            /* \"contracts/ERC20Standard.sol\":1549:1557  balances */\n          0x05\n            /* \"contracts/ERC20Standard.sol\":1549:1569  balances[msg.sender] */\n          0x00\n            /* \"contracts/ERC20Standard.sol\":1558:1568  msg.sender */\n          caller\n            /* \"contracts/ERC20Standard.sol\":1549:1569  balances[msg.sender] */\n          0xffffffffffffffffffffffffffffffffffffffff\n          and\n          0xffffffffffffffffffffffffffffffffffffffff\n          and\n          dup2\n          mstore\n          0x20\n          add\n          swap1\n          dup2\n          mstore\n          0x20\n          add\n          0x00\n          keccak256\n          sload\n            /* \"contracts/ERC20Standard.sol\":1549:1579  balances[msg.sender] >= _value */\n          lt\n          iszero\n            /* \"contracts/ERC20Standard.sol\":1549:1593  balances[msg.sender] >= _value && _value > 0 */\n          dup1\n          iszero\n          tag_100\n          jumpi\n          pop\n            /* \"contracts/ERC20Standard.sol\":1592:1593  0 */\n          0x00\n            /* \"contracts/ERC20Standard.sol\":1583:1589  _value */\n          dup3\n            /* \"contracts/ERC20Standard.sol\":1583:1593  _value > 0 */\n          gt\n            /* \"contracts/ERC20Standard.sol\":1549:1593  balances[msg.sender] >= _value && _value > 0 */\n        tag_100:\n            /* \"contracts/ERC20Standard.sol\":1541:1594  require(balances[msg.sender] >= _value && _value > 0) */\n          tag_101\n          jumpi\n          0x00\n          dup1\n          revert\n        tag_101:\n            /* \"contracts/ERC20Standard.sol\":1625:1657  balances[msg.sender].sub(_value) */\n          tag_102\n            /* \"contracts/ERC20Standard.sol\":1650:1656  _value */\n          dup3\n            /* \"contracts/ERC20Standard.sol\":1625:1633  balances */\n          0x05\n            /* \"contracts/ERC20Standard.sol\":1625:1645  balances[msg.sender] */\n          0x00\n            /* \"contracts/ERC20Standard.sol\":1634:1644  msg.sender */\n          caller\n            /* \"contracts/ERC20Standard.sol\":1625:1645  balances[msg.sender] */\n          0xffffffffffffffffffffffffffffffffffffffff\n          and\n          0xffffffffffffffffffffffffffffffffffffffff\n          and\n          dup2\n          mstore\n          0x20\n          add\n          swap1\n          dup2\n          mstore\n          0x20\n          add\n          0x00\n          keccak256\n          sload\n            /* \"contracts/ERC20Standard.sol\":1625:1649  balances[msg.sender].sub */\n          tag_72\n          swap1\n            /* \"contracts/ERC20Standard.sol\":1625:1657  balances[msg.sender].sub(_value) */\n          swap2\n          swap1\n          0xffffffff\n          and\n          jump\t// in\n        tag_102:\n            /* \"contracts/ERC20Standard.sol\":1602:1610  balances */\n          0x05\n            /* \"contracts/ERC20Standard.sol\":1602:1622  balances[msg.sender] */\n          0x00\n            /* \"contracts/ERC20Standard.sol\":1611:1621  msg.sender */\n          caller\n            /* \"contracts/ERC20Standard.sol\":1602:1622  balances[msg.sender] */\n          0xffffffffffffffffffffffffffffffffffffffff\n          and\n          0xffffffffffffffffffffffffffffffffffffffff\n          and\n          dup2\n          mstore\n          0x20\n          add\n          swap1\n          dup2\n          mstore\n          0x20\n          add\n          0x00\n          keccak256\n            /* \"contracts/ERC20Standard.sol\":1602:1657  balances[msg.sender] = balances[msg.sender].sub(_value) */\n          dup2\n          swap1\n          sstore\n          pop\n            /* \"contracts/ERC20Standard.sol\":1688:1720  balances[_recipient].add(_value) */\n          tag_103\n            /* \"contracts/ERC20Standard.sol\":1713:1719  _value */\n          dup3\n            /* \"contracts/ERC20Standard.sol\":1688:1696  balances */\n          0x05\n            /* \"contracts/ERC20Standard.sol\":1688:1708  balances[_recipient] */\n          0x00\n            /* \"contracts/ERC20Standard.sol\":1697:1707  _recipient */\n          dup7\n            /* \"contracts/ERC20Standard.sol\":1688:1708  balances[_recipient] */\n          0xffffffffffffffffffffffffffffffffffffffff\n          and\n          0xffffffffffffffffffffffffffffffffffffffff\n          and\n          dup2\n          mstore\n          0x20\n          add\n          swap1\n          dup2\n          mstore\n          0x20\n          add\n          0x00\n          keccak256\n          sload\n            /* \"contracts/ERC20Standard.sol\":1688:1712  balances[_recipient].add */\n          tag_70\n          swap1\n            /* \"contracts/ERC20Standard.sol\":1688:1720  balances[_recipient].add(_value) */\n          swap2\n          swap1\n          0xffffffff\n          and\n          jump\t// in\n        tag_103:\n            /* \"contracts/ERC20Standard.sol\":1665:1673  balances */\n          0x05\n            /* \"contracts/ERC20Standard.sol\":1665:1685  balances[_recipient] */\n          0x00\n            /* \"contracts/ERC20Standard.sol\":1674:1684  _recipient */\n          dup6\n            /* \"contracts/ERC20Standard.sol\":1665:1685  balances[_recipient] */\n          0xffffffffffffffffffffffffffffffffffffffff\n          and\n          0xffffffffffffffffffffffffffffffffffffffff\n          and\n          dup2\n          mstore\n          0x20\n          add\n          swap1\n          dup2\n          mstore\n          0x20\n          add\n          0x00\n          keccak256\n            /* \"contracts/ERC20Standard.sol\":1665:1720  balances[_recipient] = balances[_recipient].add(_value) */\n          dup2\n          swap1\n          sstore\n          pop\n            /* \"contracts/ERC20Standard.sol\":1754:1764  _recipient */\n          dup3\n            /* \"contracts/ERC20Standard.sol\":1733:1773  Transfer(msg.sender, _recipient, _value) */\n          0xffffffffffffffffffffffffffffffffffffffff\n          and\n            /* \"contracts/ERC20Standard.sol\":1742:1752  msg.sender */\n          caller\n            /* \"contracts/ERC20Standard.sol\":1733:1773  Transfer(msg.sender, _recipient, _value) */\n          0xffffffffffffffffffffffffffffffffffffffff\n          and\n          0xddf252ad1be2c89b69c2b068fc378daa952ba7f163c4a11628f55a4df523b3ef\n            /* \"contracts/ERC20Standard.sol\":1766:1772  _value */\n          dup5\n            /* \"contracts/ERC20Standard.sol\":1733:1773  Transfer(msg.sender, _recipient, _value) */\n          mload(0x40)\n          tag_104\n          swap2\n          swap1\n          tag_26\n          jump\t// in\n        tag_104:\n          mload(0x40)\n          dup1\n          swap2\n          sub\n          swap1\n          log3\n            /* \"contracts/ERC20Standard.sol\":1453:1793  function transfer(address _recipient, uint _value) public onlyPayloadSize(2*32) {\r... */\n          pop\n          pop\n          pop\n          jump\t// out\n            /* \"contracts/ERC20Standard.sol\":2586:2716  function allowance(address _spender, address _owner) public view returns (uint balance) {\r... */\n        tag_55:\n            /* \"contracts/ERC20Standard.sol\":2660:2672  uint balance */\n          0x00\n            /* \"contracts/ERC20Standard.sol\":2686:2693  allowed */\n          0x06\n            /* \"contracts/ERC20Standard.sol\":2686:2701  allowed[_owner] */\n          0x00\n            /* \"contracts/ERC20Standard.sol\":2694:2700  _owner */\n          dup4\n            /* \"contracts/ERC20Standard.sol\":2686:2701  allowed[_owner] */\n          0xffffffffffffffffffffffffffffffffffffffff\n          and\n          0xffffffffffffffffffffffffffffffffffffffff\n          and\n          dup2\n          mstore\n          0x20\n          add\n          swap1\n          dup2\n          mstore\n          0x20\n          add\n          0x00\n          keccak256\n            /* \"contracts/ERC20Standard.sol\":2686:2711  allowed[_owner][_spender] */\n          0x00\n            /* \"contracts/ERC20Standard.sol\":2702:2710  _spender */\n          dup5\n            /* \"contracts/ERC20Standard.sol\":2686:2711  allowed[_owner][_spender] */\n          0xffffffffffffffffffffffffffffffffffffffff\n          and\n          0xffffffffffffffffffffffffffffffffffffffff\n          and\n          dup2\n          mstore\n          0x20\n          add\n          swap1\n          dup2\n          mstore\n          0x20\n          add\n          0x00\n          keccak256\n          sload\n            /* \"contracts/ERC20Standard.sol\":2679:2711  return allowed[_owner][_spender] */\n          swap1\n          pop\n            /* \"contracts/ERC20Standard.sol\":2586:2716  function allowance(address _spender, address _owner) public view returns (uint balance) {\r... */\n          swap3\n          swap2\n          pop\n          pop\n          jump\t// out\n            /* \"contracts/ERC20Standard.sol\":629:779  function add(uint256 a, uint256 b) internal pure returns (uint256) {\r... */\n        tag_70:\n            /* \"contracts/ERC20Standard.sol\":687:694  uint256 */\n          0x00\n            /* \"contracts/ERC20Standard.sol\":707:716  uint256 c */\n          dup1\n            /* \"contracts/ERC20Standard.sol\":723:724  b */\n          dup3\n            /* \"contracts/ERC20Standard.sol\":719:720  a */\n          dup5\n            /* \"contracts/ERC20Standard.sol\":719:724  a + b */\n          tag_107\n          swap2\n          swap1\n          tag_95\n          jump\t// in\n        tag_107:\n            /* \"contracts/ERC20Standard.sol\":707:724  uint256 c = a + b */\n          swap1\n          pop\n            /* \"contracts/ERC20Standard.sol\":748:749  a */\n          dup4\n            /* \"contracts/ERC20Standard.sol\":743:744  c */\n          dup2\n            /* \"contracts/ERC20Standard.sol\":743:749  c >= a */\n          lt\n          iszero\n            /* \"contracts/ERC20Standard.sol\":735:750  require(c >= a) */\n          tag_108\n          jumpi\n          0x00\n          dup1\n          revert\n        tag_108:\n            /* \"contracts/ERC20Standard.sol\":770:771  c */\n          dup1\n            /* \"contracts/ERC20Standard.sol\":763:771  return c */\n          swap2\n          pop\n          pop\n            /* \"contracts/ERC20Standard.sol\":629:779  function add(uint256 a, uint256 b) internal pure returns (uint256) {\r... */\n          swap3\n          swap2\n          pop\n          pop\n          jump\t// out\n            /* \"contracts/ERC20Standard.sol\":471:621  function sub(uint256 a, uint256 b) internal pure returns (uint256) {\r... */\n        tag_72:\n            /* \"contracts/ERC20Standard.sol\":529:536  uint256 */\n          0x00\n            /* \"contracts/ERC20Standard.sol\":562:563  a */\n          dup3\n            /* \"contracts/ERC20Standard.sol\":557:558  b */\n          dup3\n            /* \"contracts/ERC20Standard.sol\":557:563  b <= a */\n          gt\n          iszero\n            /* \"contracts/ERC20Standard.sol\":549:564  require(b <= a) */\n          tag_110\n          jumpi\n          0x00\n          dup1\n          revert\n        tag_110:\n            /* \"contracts/ERC20Standard.sol\":575:584  uint256 c */\n          0x00\n            /* \"contracts/ERC20Standard.sol\":591:592  b */\n          dup3\n            /* \"contracts/ERC20Standard.sol\":587:588  a */\n          dup5\n            /* \"contracts/ERC20Standard.sol\":587:592  a - b */\n          tag_111\n          swap2\n          swap1\n          tag_112\n          jump\t// in\n        tag_111:\n            /* \"contracts/ERC20Standard.sol\":575:592  uint256 c = a - b */\n          swap1\n          pop\n            /* \"contracts/ERC20Standard.sol\":612:613  c */\n          dup1\n            /* \"contracts/ERC20Standard.sol\":605:613  return c */\n          swap2\n          pop\n          pop\n            /* \"contracts/ERC20Standard.sol\":471:621  function sub(uint256 a, uint256 b) internal pure returns (uint256) {\r... */\n          swap3\n          swap2\n          pop\n          pop\n          jump\t// out\n            /* \"#utility.yul\":7:146   */\n        tag_114:\n            /* \"#utility.yul\":53:58   */\n          0x00\n            /* \"#utility.yul\":91:97   */\n          dup2\n            /* \"#utility.yul\":78:98   */\n          calldataload\n            /* \"#utility.yul\":69:98   */\n          swap1\n          pop\n            /* \"#utility.yul\":107:140   */\n          tag_116\n            /* \"#utility.yul\":134:139   */\n          dup2\n            /* \"#utility.yul\":107:140   */\n          tag_117\n          jump\t// in\n        tag_116:\n            /* \"#utility.yul\":7:146   */\n          swap3\n          swap2\n          pop\n          pop\n          jump\t// out\n            /* \"#utility.yul\":152:291   */\n        tag_118:\n            /* \"#utility.yul\":198:203   */\n          0x00\n            /* \"#utility.yul\":236:242   */\n          dup2\n            /* \"#utility.yul\":223:243   */\n          calldataload\n            /* \"#utility.yul\":214:243   */\n          swap1\n          pop\n            /* \"#utility.yul\":252:285   */\n          tag_120\n            /* \"#utility.yul\":279:284   */\n          dup2\n            /* \"#utility.yul\":252:285   */\n          tag_121\n          jump\t// in\n        tag_120:\n            /* \"#utility.yul\":152:291   */\n          swap3\n          swap2\n          pop\n          pop\n          jump\t// out\n            /* \"#utility.yul\":297:626   */\n        tag_43:\n            /* \"#utility.yul\":356:362   */\n          0x00\n            /* \"#utility.yul\":405:407   */\n          0x20\n            /* \"#utility.yul\":393:402   */\n          dup3\n            /* \"#utility.yul\":384:391   */\n          dup5\n            /* \"#utility.yul\":380:403   */\n          sub\n            /* \"#utility.yul\":376:408   */\n          slt\n            /* \"#utility.yul\":373:492   */\n          iszero\n          tag_123\n          jumpi\n            /* \"#utility.yul\":411:490   */\n          tag_124\n          tag_125\n          jump\t// in\n        tag_124:\n            /* \"#utility.yul\":373:492   */\n        tag_123:\n            /* \"#utility.yul\":531:532   */\n          0x00\n            /* \"#utility.yul\":556:609   */\n          tag_126\n            /* \"#utility.yul\":601:608   */\n          dup5\n            /* \"#utility.yul\":592:598   */\n          dup3\n            /* \"#utility.yul\":581:590   */\n          dup6\n            /* \"#utility.yul\":577:599   */\n          add\n            /* \"#utility.yul\":556:609   */\n          tag_114\n          jump\t// in\n        tag_126:\n            /* \"#utility.yul\":546:609   */\n          swap2\n          pop\n            /* \"#utility.yul\":502:619   */\n          pop\n            /* \"#utility.yul\":297:626   */\n          swap3\n          swap2\n          pop\n          pop\n          jump\t// out\n            /* \"#utility.yul\":632:1106   */\n        tag_54:\n            /* \"#utility.yul\":700:706   */\n          0x00\n            /* \"#utility.yul\":708:714   */\n          dup1\n            /* \"#utility.yul\":757:759   */\n          0x40\n            /* \"#utility.yul\":745:754   */\n          dup4\n            /* \"#utility.yul\":736:743   */\n          dup6\n            /* \"#utility.yul\":732:755   */\n          sub\n            /* \"#utility.yul\":728:760   */\n          slt\n            /* \"#utility.yul\":725:844   */\n          iszero\n          tag_128\n          jumpi\n            /* \"#utility.yul\":763:842   */\n          tag_129\n          tag_125\n          jump\t// in\n        tag_129:\n            /* \"#utility.yul\":725:844   */\n        tag_128:\n            /* \"#utility.yul\":883:884   */\n          0x00\n            /* \"#utility.yul\":908:961   */\n          tag_130\n            /* \"#utility.yul\":953:960   */\n          dup6\n            /* \"#utility.yul\":944:950   */\n          dup3\n            /* \"#utility.yul\":933:942   */\n          dup7\n            /* \"#utility.yul\":929:951   */\n          add\n            /* \"#utility.yul\":908:961   */\n          tag_114\n          jump\t// in\n        tag_130:\n            /* \"#utility.yul\":898:961   */\n          swap3\n          pop\n            /* \"#utility.yul\":854:971   */\n          pop\n            /* \"#utility.yul\":1010:1012   */\n          0x20\n            /* \"#utility.yul\":1036:1089   */\n          tag_131\n            /* \"#utility.yul\":1081:1088   */\n          dup6\n            /* \"#utility.yul\":1072:1078   */\n          dup3\n            /* \"#utility.yul\":1061:1070   */\n          dup7\n            /* \"#utility.yul\":1057:1079   */\n          add\n            /* \"#utility.yul\":1036:1089   */\n          tag_114\n          jump\t// in\n        tag_131:\n            /* \"#utility.yul\":1026:1089   */\n          swap2\n          pop\n            /* \"#utility.yul\":981:1099   */\n          pop\n            /* \"#utility.yul\":632:1106   */\n          swap3\n          pop\n          swap3\n          swap1\n          pop\n          jump\t// out\n            /* \"#utility.yul\":1112:1731   */\n        tag_29:\n            /* \"#utility.yul\":1189:1195   */\n          0x00\n            /* \"#utility.yul\":1197:1203   */\n          dup1\n            /* \"#utility.yul\":1205:1211   */\n          0x00\n            /* \"#utility.yul\":1254:1256   */\n          0x60\n            /* \"#utility.yul\":1242:1251   */\n          dup5\n            /* \"#utility.yul\":1233:1240   */\n          dup7\n            /* \"#utility.yul\":1229:1252   */\n          sub\n            /* \"#utility.yul\":1225:1257   */\n          slt\n            /* \"#utility.yul\":1222:1341   */\n          iszero\n          tag_133\n          jumpi\n            /* \"#utility.yul\":1260:1339   */\n          tag_134\n          tag_125\n          jump\t// in\n        tag_134:\n            /* \"#utility.yul\":1222:1341   */\n        tag_133:\n            /* \"#utility.yul\":1380:1381   */\n          0x00\n            /* \"#utility.yul\":1405:1458   */\n          tag_135\n            /* \"#utility.yul\":1450:1457   */\n          dup7\n            /* \"#utility.yul\":1441:1447   */\n          dup3\n            /* \"#utility.yul\":1430:1439   */\n          dup8\n            /* \"#utility.yul\":1426:1448   */\n          add\n            /* \"#utility.yul\":1405:1458   */\n          tag_114\n          jump\t// in\n        tag_135:\n            /* \"#utility.yul\":1395:1458   */\n          swap4\n          pop\n            /* \"#utility.yul\":1351:1468   */\n          pop\n            /* \"#utility.yul\":1507:1509   */\n          0x20\n            /* \"#utility.yul\":1533:1586   */\n          tag_136\n            /* \"#utility.yul\":1578:1585   */\n          dup7\n            /* \"#utility.yul\":1569:1575   */\n          dup3\n            /* \"#utility.yul\":1558:1567   */\n          dup8\n            /* \"#utility.yul\":1554:1576   */\n          add\n            /* \"#utility.yul\":1533:1586   */\n          tag_114\n          jump\t// in\n        tag_136:\n            /* \"#utility.yul\":1523:1586   */\n          swap3\n          pop\n            /* \"#utility.yul\":1478:1596   */\n          pop\n            /* \"#utility.yul\":1635:1637   */\n          0x40\n            /* \"#utility.yul\":1661:1714   */\n          tag_137\n            /* \"#utility.yul\":1706:1713   */\n          dup7\n            /* \"#utility.yul\":1697:1703   */\n          dup3\n            /* \"#utility.yul\":1686:1695   */\n          dup8\n            /* \"#utility.yul\":1682:1704   */\n          add\n            /* \"#utility.yul\":1661:1714   */\n          tag_118\n          jump\t// in\n        tag_137:\n            /* \"#utility.yul\":1651:1714   */\n          swap2\n          pop\n            /* \"#utility.yul\":1606:1724   */\n          pop\n            /* \"#utility.yul\":1112:1731   */\n          swap3\n          pop\n          swap3\n          pop\n          swap3\n          jump\t// out\n            /* \"#utility.yul\":1737:2211   */\n        tag_21:\n            /* \"#utility.yul\":1805:1811   */\n          0x00\n            /* \"#utility.yul\":1813:1819   */\n          dup1\n            /* \"#utility.yul\":1862:1864   */\n          0x40\n            /* \"#utility.yul\":1850:1859   */\n          dup4\n            /* \"#utility.yul\":1841:1848   */\n          dup6\n            /* \"#utility.yul\":1837:1860   */\n          sub\n            /* \"#utility.yul\":1833:1865   */\n          slt\n            /* \"#utility.yul\":1830:1949   */\n          iszero\n          tag_139\n          jumpi\n            /* \"#utility.yul\":1868:1947   */\n          tag_140\n          tag_125\n          jump\t// in\n        tag_140:\n            /* \"#utility.yul\":1830:1949   */\n        tag_139:\n            /* \"#utility.yul\":1988:1989   */\n          0x00\n            /* \"#utility.yul\":2013:2066   */\n          tag_141\n            /* \"#utility.yul\":2058:2065   */\n          dup6\n            /* \"#utility.yul\":2049:2055   */\n          dup3\n            /* \"#utility.yul\":2038:2047   */\n          dup7\n            /* \"#utility.yul\":2034:2056   */\n          add\n            /* \"#utility.yul\":2013:2066   */\n          tag_114\n          jump\t// in\n        tag_141:\n            /* \"#utility.yul\":2003:2066   */\n          swap3\n          pop\n            /* \"#utility.yul\":1959:2076   */\n          pop\n            /* \"#utility.yul\":2115:2117   */\n          0x20\n            /* \"#utility.yul\":2141:2194   */\n          tag_142\n            /* \"#utility.yul\":2186:2193   */\n          dup6\n            /* \"#utility.yul\":2177:2183   */\n          dup3\n            /* \"#utility.yul\":2166:2175   */\n          dup7\n            /* \"#utility.yul\":2162:2184   */\n          add\n            /* \"#utility.yul\":2141:2194   */\n          tag_118\n          jump\t// in\n        tag_142:\n            /* \"#utility.yul\":2131:2194   */\n          swap2\n          pop\n            /* \"#utility.yul\":2086:2204   */\n          pop\n            /* \"#utility.yul\":1737:2211   */\n          swap3\n          pop\n          swap3\n          swap1\n          pop\n          jump\t// out\n            /* \"#utility.yul\":2217:2581   */\n        tag_143:\n            /* \"#utility.yul\":2305:2308   */\n          0x00\n            /* \"#utility.yul\":2333:2372   */\n          tag_145\n            /* \"#utility.yul\":2366:2371   */\n          dup3\n            /* \"#utility.yul\":2333:2372   */\n          tag_146\n          jump\t// in\n        tag_145:\n            /* \"#utility.yul\":2388:2459   */\n          tag_147\n            /* \"#utility.yul\":2452:2458   */\n          dup2\n            /* \"#utility.yul\":2447:2450   */\n          dup6\n            /* \"#utility.yul\":2388:2459   */\n          tag_148\n          jump\t// in\n        tag_147:\n            /* \"#utility.yul\":2381:2459   */\n          swap4\n          pop\n            /* \"#utility.yul\":2468:2520   */\n          tag_149\n            /* \"#utility.yul\":2513:2519   */\n          dup2\n            /* \"#utility.yul\":2508:2511   */\n          dup6\n            /* \"#utility.yul\":2501:2505   */\n          0x20\n            /* \"#utility.yul\":2494:2499   */\n          dup7\n            /* \"#utility.yul\":2490:2506   */\n          add\n            /* \"#utility.yul\":2468:2520   */\n          tag_150\n          jump\t// in\n        tag_149:\n            /* \"#utility.yul\":2545:2574   */\n          tag_151\n            /* \"#utility.yul\":2567:2573   */\n          dup2\n            /* \"#utility.yul\":2545:2574   */\n          tag_152\n          jump\t// in\n        tag_151:\n            /* \"#utility.yul\":2540:2543   */\n          dup5\n            /* \"#utility.yul\":2536:2575   */\n          add\n            /* \"#utility.yul\":2529:2575   */\n          swap2\n          pop\n            /* \"#utility.yul\":2309:2581   */\n          pop\n            /* \"#utility.yul\":2217:2581   */\n          swap3\n          swap2\n          pop\n          pop\n          jump\t// out\n            /* \"#utility.yul\":2587:2953   */\n        tag_153:\n            /* \"#utility.yul\":2729:2732   */\n          0x00\n            /* \"#utility.yul\":2750:2817   */\n          tag_155\n            /* \"#utility.yul\":2814:2816   */\n          0x1f\n            /* \"#utility.yul\":2809:2812   */\n          dup4\n            /* \"#utility.yul\":2750:2817   */\n          tag_148\n          jump\t// in\n        tag_155:\n            /* \"#utility.yul\":2743:2817   */\n          swap2\n          pop\n            /* \"#utility.yul\":2826:2919   */\n          tag_156\n            /* \"#utility.yul\":2915:2918   */\n          dup3\n            /* \"#utility.yul\":2826:2919   */\n          tag_157\n          jump\t// in\n        tag_156:\n            /* \"#utility.yul\":2944:2946   */\n          0x20\n            /* \"#utility.yul\":2939:2942   */\n          dup3\n            /* \"#utility.yul\":2935:2947   */\n          add\n            /* \"#utility.yul\":2928:2947   */\n          swap1\n          pop\n            /* \"#utility.yul\":2587:2953   */\n          swap2\n          swap1\n          pop\n          jump\t// out\n            /* \"#utility.yul\":2959:3077   */\n        tag_158:\n            /* \"#utility.yul\":3046:3070   */\n          tag_160\n            /* \"#utility.yul\":3064:3069   */\n          dup2\n            /* \"#utility.yul\":3046:3070   */\n          tag_161\n          jump\t// in\n        tag_160:\n            /* \"#utility.yul\":3041:3044   */\n          dup3\n            /* \"#utility.yul\":3034:3071   */\n          mstore\n            /* \"#utility.yul\":2959:3077   */\n          pop\n          pop\n          jump\t// out\n            /* \"#utility.yul\":3083:3195   */\n        tag_162:\n            /* \"#utility.yul\":3166:3188   */\n          tag_164\n            /* \"#utility.yul\":3182:3187   */\n          dup2\n            /* \"#utility.yul\":3166:3188   */\n          tag_165\n          jump\t// in\n        tag_164:\n            /* \"#utility.yul\":3161:3164   */\n          dup3\n            /* \"#utility.yul\":3154:3189   */\n          mstore\n            /* \"#utility.yul\":3083:3195   */\n          pop\n          pop\n          jump\t// out\n            /* \"#utility.yul\":3201:3514   */\n        tag_18:\n            /* \"#utility.yul\":3314:3318   */\n          0x00\n            /* \"#utility.yul\":3352:3354   */\n          0x20\n            /* \"#utility.yul\":3341:3350   */\n          dup3\n            /* \"#utility.yul\":3337:3355   */\n          add\n            /* \"#utility.yul\":3329:3355   */\n          swap1\n          pop\n            /* \"#utility.yul\":3401:3410   */\n          dup2\n            /* \"#utility.yul\":3395:3399   */\n          dup2\n            /* \"#utility.yul\":3391:3411   */\n          sub\n            /* \"#utility.yul\":3387:3388   */\n          0x00\n            /* \"#utility.yul\":3376:3385   */\n          dup4\n            /* \"#utility.yul\":3372:3389   */\n          add\n            /* \"#utility.yul\":3365:3412   */\n          mstore\n            /* \"#utility.yul\":3429:3507   */\n          tag_167\n            /* \"#utility.yul\":3502:3506   */\n          dup2\n            /* \"#utility.yul\":3493:3499   */\n          dup5\n            /* \"#utility.yul\":3429:3507   */\n          tag_143\n          jump\t// in\n        tag_167:\n            /* \"#utility.yul\":3421:3507   */\n          swap1\n          pop\n            /* \"#utility.yul\":3201:3514   */\n          swap3\n          swap2\n          pop\n          pop\n          jump\t// out\n            /* \"#utility.yul\":3520:3939   */\n        tag_78:\n            /* \"#utility.yul\":3686:3690   */\n          0x00\n            /* \"#utility.yul\":3724:3726   */\n          0x20\n            /* \"#utility.yul\":3713:3722   */\n          dup3\n            /* \"#utility.yul\":3709:3727   */\n          add\n            /* \"#utility.yul\":3701:3727   */\n          swap1\n          pop\n            /* \"#utility.yul\":3773:3782   */\n          dup2\n            /* \"#utility.yul\":3767:3771   */\n          dup2\n            /* \"#utility.yul\":3763:3783   */\n          sub\n            /* \"#utility.yul\":3759:3760   */\n          0x00\n            /* \"#utility.yul\":3748:3757   */\n          dup4\n            /* \"#utility.yul\":3744:3761   */\n          add\n            /* \"#utility.yul\":3737:3784   */\n          mstore\n            /* \"#utility.yul\":3801:3932   */\n          tag_169\n            /* \"#utility.yul\":3927:3931   */\n          dup2\n            /* \"#utility.yul\":3801:3932   */\n          tag_153\n          jump\t// in\n        tag_169:\n            /* \"#utility.yul\":3793:3932   */\n          swap1\n          pop\n            /* \"#utility.yul\":3520:3939   */\n          swap2\n          swap1\n          pop\n          jump\t// out\n            /* \"#utility.yul\":3945:4167   */\n        tag_26:\n            /* \"#utility.yul\":4038:4042   */\n          0x00\n            /* \"#utility.yul\":4076:4078   */\n          0x20\n            /* \"#utility.yul\":4065:4074   */\n          dup3\n            /* \"#utility.yul\":4061:4079   */\n          add\n            /* \"#utility.yul\":4053:4079   */\n          swap1\n          pop\n            /* \"#utility.yul\":4089:4160   */\n          tag_171\n            /* \"#utility.yul\":4157:4158   */\n          0x00\n            /* \"#utility.yul\":4146:4155   */\n          dup4\n            /* \"#utility.yul\":4142:4159   */\n          add\n            /* \"#utility.yul\":4133:4139   */\n          dup5\n            /* \"#utility.yul\":4089:4160   */\n          tag_158\n          jump\t// in\n        tag_171:\n            /* \"#utility.yul\":3945:4167   */\n          swap3\n          swap2\n          pop\n          pop\n          jump\t// out\n            /* \"#utility.yul\":4173:4387   */\n        tag_34:\n            /* \"#utility.yul\":4262:4266   */\n          0x00\n            /* \"#utility.yul\":4300:4302   */\n          0x20\n            /* \"#utility.yul\":4289:4298   */\n          dup3\n            /* \"#utility.yul\":4285:4303   */\n          add\n            /* \"#utility.yul\":4277:4303   */\n          swap1\n          pop\n            /* \"#utility.yul\":4313:4380   */\n          tag_173\n            /* \"#utility.yul\":4377:4378   */\n          0x00\n            /* \"#utility.yul\":4366:4375   */\n          dup4\n            /* \"#utility.yul\":4362:4379   */\n          add\n            /* \"#utility.yul\":4353:4359   */\n          dup5\n            /* \"#utility.yul\":4313:4380   */\n          tag_162\n          jump\t// in\n        tag_173:\n            /* \"#utility.yul\":4173:4387   */\n          swap3\n          swap2\n          pop\n          pop\n          jump\t// out\n            /* \"#utility.yul\":4474:4573   */\n        tag_146:\n            /* \"#utility.yul\":4526:4532   */\n          0x00\n            /* \"#utility.yul\":4560:4565   */\n          dup2\n            /* \"#utility.yul\":4554:4566   */\n          mload\n            /* \"#utility.yul\":4544:4566   */\n          swap1\n          pop\n            /* \"#utility.yul\":4474:4573   */\n          swap2\n          swap1\n          pop\n          jump\t// out\n            /* \"#utility.yul\":4579:4748   */\n        tag_148:\n            /* \"#utility.yul\":4663:4674   */\n          0x00\n            /* \"#utility.yul\":4697:4703   */\n          dup3\n            /* \"#utility.yul\":4692:4695   */\n          dup3\n            /* \"#utility.yul\":4685:4704   */\n          mstore\n            /* \"#utility.yul\":4737:4741   */\n          0x20\n            /* \"#utility.yul\":4732:4735   */\n          dup3\n            /* \"#utility.yul\":4728:4742   */\n          add\n            /* \"#utility.yul\":4713:4742   */\n          swap1\n          pop\n            /* \"#utility.yul\":4579:4748   */\n          swap3\n          swap2\n          pop\n          pop\n          jump\t// out\n            /* \"#utility.yul\":4754:5059   */\n        tag_95:\n            /* \"#utility.yul\":4794:4797   */\n          0x00\n            /* \"#utility.yul\":4813:4833   */\n          tag_179\n            /* \"#utility.yul\":4831:4832   */\n          dup3\n            /* \"#utility.yul\":4813:4833   */\n          tag_161\n          jump\t// in\n        tag_179:\n            /* \"#utility.yul\":4808:4833   */\n          swap2\n          pop\n            /* \"#utility.yul\":4847:4867   */\n          tag_180\n            /* \"#utility.yul\":4865:4866   */\n          dup4\n            /* \"#utility.yul\":4847:4867   */\n          tag_161\n          jump\t// in\n        tag_180:\n            /* \"#utility.yul\":4842:4867   */\n          swap3\n          pop\n            /* \"#utility.yul\":5001:5002   */\n          dup3\n            /* \"#utility.yul\":4933:4999   */\n          0xffffffffffffffffffffffffffffffffffffffffffffffffffffffffffffffff\n            /* \"#utility.yul\":4929:5003   */\n          sub\n            /* \"#utility.yul\":4926:4927   */\n          dup3\n            /* \"#utility.yul\":4923:5004   */\n          gt\n            /* \"#utility.yul\":4920:5027   */\n          iszero\n          tag_181\n          jumpi\n            /* \"#utility.yul\":5007:5025   */\n          tag_182\n          tag_183\n          jump\t// in\n        tag_182:\n            /* \"#utility.yul\":4920:5027   */\n        tag_181:\n            /* \"#utility.yul\":5051:5052   */\n          dup3\n            /* \"#utility.yul\":5048:5049   */\n          dup3\n            /* \"#utility.yul\":5044:5053   */\n          add\n            /* \"#utility.yul\":5037:5053   */\n          swap1\n          pop\n            /* \"#utility.yul\":4754:5059   */\n          swap3\n          swap2\n          pop\n          pop\n          jump\t// out\n            /* \"#utility.yul\":5065:5256   */\n        tag_112:\n            /* \"#utility.yul\":5105:5109   */\n          0x00\n            /* \"#utility.yul\":5125:5145   */\n          tag_185\n            /* \"#utility.yul\":5143:5144   */\n          dup3\n            /* \"#utility.yul\":5125:5145   */\n          tag_161\n          jump\t// in\n        tag_185:\n            /* \"#utility.yul\":5120:5145   */\n          swap2\n          pop\n            /* \"#utility.yul\":5159:5179   */\n          tag_186\n            /* \"#utility.yul\":5177:5178   */\n          dup4\n            /* \"#utility.yul\":5159:5179   */\n          tag_161\n          jump\t// in\n        tag_186:\n            /* \"#utility.yul\":5154:5179   */\n          swap3\n          pop\n            /* \"#utility.yul\":5198:5199   */\n          dup3\n            /* \"#utility.yul\":5195:5196   */\n          dup3\n            /* \"#utility.yul\":5192:5200   */\n          lt\n            /* \"#utility.yul\":5189:5223   */\n          iszero\n          tag_187\n          jumpi\n            /* \"#utility.yul\":5203:5221   */\n          tag_188\n          tag_183\n          jump\t// in\n        tag_188:\n            /* \"#utility.yul\":5189:5223   */\n        tag_187:\n            /* \"#utility.yul\":5248:5249   */\n          dup3\n            /* \"#utility.yul\":5245:5246   */\n          dup3\n            /* \"#utility.yul\":5241:5250   */\n          sub\n            /* \"#utility.yul\":5233:5250   */\n          swap1\n          pop\n            /* \"#utility.yul\":5065:5256   */\n          swap3\n          swap2\n          pop\n          pop\n          jump\t// out\n            /* \"#utility.yul\":5262:5358   */\n        tag_189:\n            /* \"#utility.yul\":5299:5306   */\n          0x00\n            /* \"#utility.yul\":5328:5352   */\n          tag_191\n            /* \"#utility.yul\":5346:5351   */\n          dup3\n            /* \"#utility.yul\":5328:5352   */\n          tag_192\n          jump\t// in\n        tag_191:\n            /* \"#utility.yul\":5317:5352   */\n          swap1\n          pop\n            /* \"#utility.yul\":5262:5358   */\n          swap2\n          swap1\n          pop\n          jump\t// out\n            /* \"#utility.yul\":5364:5490   */\n        tag_192:\n            /* \"#utility.yul\":5401:5408   */\n          0x00\n            /* \"#utility.yul\":5441:5483   */\n          0xffffffffffffffffffffffffffffffffffffffff\n            /* \"#utility.yul\":5434:5439   */\n          dup3\n            /* \"#utility.yul\":5430:5484   */\n          and\n            /* \"#utility.yul\":5419:5484   */\n          swap1\n          pop\n            /* \"#utility.yul\":5364:5490   */\n          swap2\n          swap1\n          pop\n          jump\t// out\n            /* \"#utility.yul\":5496:5573   */\n        tag_161:\n            /* \"#utility.yul\":5533:5540   */\n          0x00\n            /* \"#utility.yul\":5562:5567   */\n          dup2\n            /* \"#utility.yul\":5551:5567   */\n          swap1\n          pop\n            /* \"#utility.yul\":5496:5573   */\n          swap2\n          swap1\n          pop\n          jump\t// out\n            /* \"#utility.yul\":5579:5665   */\n        tag_165:\n            /* \"#utility.yul\":5614:5621   */\n          0x00\n            /* \"#utility.yul\":5654:5658   */\n          0xff\n            /* \"#utility.yul\":5647:5652   */\n          dup3\n            /* \"#utility.yul\":5643:5659   */\n          and\n            /* \"#utility.yul\":5632:5659   */\n          swap1\n          pop\n            /* \"#utility.yul\":5579:5665   */\n          swap2\n          swap1\n          pop\n          jump\t// out\n            /* \"#utility.yul\":5671:5978   */\n        tag_150:\n            /* \"#utility.yul\":5739:5740   */\n          0x00\n            /* \"#utility.yul\":5749:5862   */\n        tag_197:\n            /* \"#utility.yul\":5763:5769   */\n          dup4\n            /* \"#utility.yul\":5760:5761   */\n          dup2\n            /* \"#utility.yul\":5757:5770   */\n          lt\n            /* \"#utility.yul\":5749:5862   */\n          iszero\n          tag_199\n          jumpi\n            /* \"#utility.yul\":5848:5849   */\n          dup1\n            /* \"#utility.yul\":5843:5846   */\n          dup3\n            /* \"#utility.yul\":5839:5850   */\n          add\n            /* \"#utility.yul\":5833:5851   */\n          mload\n            /* \"#utility.yul\":5829:5830   */\n          dup2\n            /* \"#utility.yul\":5824:5827   */\n          dup5\n            /* \"#utility.yul\":5820:5831   */\n          add\n            /* \"#utility.yul\":5813:5852   */\n          mstore\n            /* \"#utility.yul\":5785:5787   */\n          0x20\n            /* \"#utility.yul\":5782:5783   */\n          dup2\n            /* \"#utility.yul\":5778:5788   */\n          add\n            /* \"#utility.yul\":5773:5788   */\n          swap1\n          pop\n            /* \"#utility.yul\":5749:5862   */\n          jump(tag_197)\n        tag_199:\n            /* \"#utility.yul\":5880:5886   */\n          dup4\n            /* \"#utility.yul\":5877:5878   */\n          dup2\n            /* \"#utility.yul\":5874:5887   */\n          gt\n            /* \"#utility.yul\":5871:5972   */\n          iszero\n          tag_200\n          jumpi\n            /* \"#utility.yul\":5960:5961   */\n          0x00\n            /* \"#utility.yul\":5951:5957   */\n          dup5\n            /* \"#utility.yul\":5946:5949   */\n          dup5\n            /* \"#utility.yul\":5942:5958   */\n          add\n            /* \"#utility.yul\":5935:5962   */\n          mstore\n            /* \"#utility.yul\":5871:5972   */\n        tag_200:\n            /* \"#utility.yul\":5720:5978   */\n          pop\n            /* \"#utility.yul\":5671:5978   */\n          pop\n          pop\n          pop\n          jump\t// out\n            /* \"#utility.yul\":5984:6304   */\n        tag_58:\n            /* \"#utility.yul\":6028:6034   */\n          0x00\n            /* \"#utility.yul\":6065:6066   */\n          0x02\n            /* \"#utility.yul\":6059:6063   */\n          dup3\n            /* \"#utility.yul\":6055:6067   */\n          div\n            /* \"#utility.yul\":6045:6067   */\n          swap1\n          pop\n            /* \"#utility.yul\":6112:6113   */\n          0x01\n            /* \"#utility.yul\":6106:6110   */\n          dup3\n            /* \"#utility.yul\":6102:6114   */\n          and\n            /* \"#utility.yul\":6133:6151   */\n          dup1\n            /* \"#utility.yul\":6123:6204   */\n          tag_202\n          jumpi\n            /* \"#utility.yul\":6189:6193   */\n          0x7f\n            /* \"#utility.yul\":6181:6187   */\n          dup3\n            /* \"#utility.yul\":6177:6194   */\n          and\n            /* \"#utility.yul\":6167:6194   */\n          swap2\n          pop\n            /* \"#utility.yul\":6123:6204   */\n        tag_202:\n            /* \"#utility.yul\":6251:6253   */\n          0x20\n            /* \"#utility.yul\":6243:6249   */\n          dup3\n            /* \"#utility.yul\":6240:6254   */\n          lt\n            /* \"#utility.yul\":6220:6238   */\n          dup2\n            /* \"#utility.yul\":6217:6255   */\n          eq\n            /* \"#utility.yul\":6214:6298   */\n          iszero\n          tag_203\n          jumpi\n            /* \"#utility.yul\":6270:6288   */\n          tag_204\n          tag_205\n          jump\t// in\n        tag_204:\n            /* \"#utility.yul\":6214:6298   */\n        tag_203:\n            /* \"#utility.yul\":6035:6304   */\n          pop\n            /* \"#utility.yul\":5984:6304   */\n          swap2\n          swap1\n          pop\n          jump\t// out\n            /* \"#utility.yul\":6310:6490   */\n        tag_98:\n            /* \"#utility.yul\":6358:6435   */\n          0x4e487b7100000000000000000000000000000000000000000000000000000000\n            /* \"#utility.yul\":6355:6356   */\n          0x00\n            /* \"#utility.yul\":6348:6436   */\n          mstore\n            /* \"#utility.yul\":6455:6459   */\n          0x01\n            /* \"#utility.yul\":6452:6453   */\n          0x04\n            /* \"#utility.yul\":6445:6460   */\n          mstore\n            /* \"#utility.yul\":6479:6483   */\n          0x24\n            /* \"#utility.yul\":6476:6477   */\n          0x00\n            /* \"#utility.yul\":6469:6484   */\n          revert\n            /* \"#utility.yul\":6496:6676   */\n        tag_183:\n            /* \"#utility.yul\":6544:6621   */\n          0x4e487b7100000000000000000000000000000000000000000000000000000000\n            /* \"#utility.yul\":6541:6542   */\n          0x00\n            /* \"#utility.yul\":6534:6622   */\n          mstore\n            /* \"#utility.yul\":6641:6645   */\n          0x11\n            /* \"#utility.yul\":6638:6639   */\n          0x04\n            /* \"#utility.yul\":6631:6646   */\n          mstore\n            /* \"#utility.yul\":6665:6669   */\n          0x24\n            /* \"#utility.yul\":6662:6663   */\n          0x00\n            /* \"#utility.yul\":6655:6670   */\n          revert\n            /* \"#utility.yul\":6682:6862   */\n        tag_205:\n            /* \"#utility.yul\":6730:6807   */\n          0x4e487b7100000000000000000000000000000000000000000000000000000000\n            /* \"#utility.yul\":6727:6728   */\n          0x00\n            /* \"#utility.yul\":6720:6808   */\n          mstore\n            /* \"#utility.yul\":6827:6831   */\n          0x22\n            /* \"#utility.yul\":6824:6825   */\n          0x04\n            /* \"#utility.yul\":6817:6832   */\n          mstore\n            /* \"#utility.yul\":6851:6855   */\n          0x24\n            /* \"#utility.yul\":6848:6849   */\n          0x00\n            /* \"#utility.yul\":6841:6856   */\n          revert\n            /* \"#utility.yul\":6991:7108   */\n        tag_125:\n            /* \"#utility.yul\":7100:7101   */\n          0x00\n            /* \"#utility.yul\":7097:7098   */\n          dup1\n            /* \"#utility.yul\":7090:7102   */\n          revert\n            /* \"#utility.yul\":7114:7216   */\n        tag_152:\n            /* \"#utility.yul\":7155:7161   */\n          0x00\n            /* \"#utility.yul\":7206:7208   */\n          0x1f\n            /* \"#utility.yul\":7202:7209   */\n          not\n            /* \"#utility.yul\":7197:7199   */\n          0x1f\n            /* \"#utility.yul\":7190:7195   */\n          dup4\n            /* \"#utility.yul\":7186:7200   */\n          add\n            /* \"#utility.yul\":7182:7210   */\n          and\n            /* \"#utility.yul\":7172:7210   */\n          swap1\n          pop\n            /* \"#utility.yul\":7114:7216   */\n          swap2\n          swap1\n          pop\n          jump\t// out\n            /* \"#utility.yul\":7222:7403   */\n        tag_157:\n            /* \"#utility.yul\":7362:7395   */\n          0x45524332303a206d696e7420746f20746865207a65726f206164647265737300\n            /* \"#utility.yul\":7358:7359   */\n          0x00\n            /* \"#utility.yul\":7350:7356   */\n          dup3\n            /* \"#utility.yul\":7346:7360   */\n          add\n            /* \"#utility.yul\":7339:7396   */\n          mstore\n            /* \"#utility.yul\":7222:7403   */\n          pop\n          jump\t// out\n            /* \"#utility.yul\":7409:7531   */\n        tag_117:\n            /* \"#utility.yul\":7482:7506   */\n          tag_215\n            /* \"#utility.yul\":7500:7505   */\n          dup2\n            /* \"#utility.yul\":7482:7506   */\n          tag_189\n          jump\t// in\n        tag_215:\n            /* \"#utility.yul\":7475:7480   */\n          dup2\n            /* \"#utility.yul\":7472:7507   */\n          eq\n            /* \"#utility.yul\":7462:7525   */\n          tag_216\n          jumpi\n            /* \"#utility.yul\":7521:7522   */\n          0x00\n            /* \"#utility.yul\":7518:7519   */\n          dup1\n            /* \"#utility.yul\":7511:7523   */\n          revert\n            /* \"#utility.yul\":7462:7525   */\n        tag_216:\n            /* \"#utility.yul\":7409:7531   */\n          pop\n          jump\t// out\n            /* \"#utility.yul\":7537:7659   */\n        tag_121:\n            /* \"#utility.yul\":7610:7634   */\n          tag_218\n            /* \"#utility.yul\":7628:7633   */\n          dup2\n            /* \"#utility.yul\":7610:7634   */\n          tag_161\n          jump\t// in\n        tag_218:\n            /* \"#utility.yul\":7603:7608   */\n          dup2\n            /* \"#utility.yul\":7600:7635   */\n          eq\n            /* \"#utility.yul\":7590:7653   */\n          tag_219\n          jumpi\n            /* \"#utility.yul\":7649:7650   */\n          0x00\n            /* \"#utility.yul\":7646:7647   */\n          dup1\n            /* \"#utility.yul\":7639:7651   */\n          revert\n            /* \"#utility.yul\":7590:7653   */\n        tag_219:\n            /* \"#utility.yul\":7537:7659   */\n          pop\n          jump\t// out\n\n        auxdata: 0xa2646970667358221220223b12833e3aad76cbcf7360605dc18ea4b58a81ef39e218b1a06f301cfee73e64736f6c63430008070033\n    }\n}\n",
				"bytecode": {
					"linkReferences": {},
					"object": "60806040526040516200001290620001b0565b604051809103906000f0801580156200002f573d6000803e3d6000fd5b50600560006101000a81548173ffffffffffffffffffffffffffffffffffffffff021916908373ffffffffffffffffffffffffffffffffffffffff1602179055503480156200007d57600080fd5b5060405162002743380380620027438339818101604052810190620000a39190620001d5565b33600460006101000a81548173ffffffffffffffffffffffffffffffffffffffff021916908373ffffffffffffffffffffffffffffffffffffffff160217905550600560009054906101000a900473ffffffffffffffffffffffffffffffffffffffff1673ffffffffffffffffffffffffffffffffffffffff166340c10f19600460009054906101000a900473ffffffffffffffffffffffffffffffffffffffff1660056040518363ffffffff1660e01b8152600401620001669291906200023e565b600060405180830381600087803b1580156200018157600080fd5b505af115801562000196573d6000803e3d6000fd5b5050505081600081905550806001819055505050620002dc565b6113a080620013a383390190565b600081519050620001cf81620002c2565b92915050565b60008060408385031215620001ef57620001ee620002bd565b5b6000620001ff85828601620001be565b92505060206200021285828601620001be565b9150509250929050565b62000227816200026b565b82525050565b6200023881620002a9565b82525050565b60006040820190506200025560008301856200021c565b6200026460208301846200022d565b9392505050565b600062000278826200027f565b9050919050565b600073ffffffffffffffffffffffffffffffffffffffff82169050919050565b6000819050919050565b6000620002b6826200029f565b9050919050565b600080fd5b620002cd816200029f565b8114620002d957600080fd5b50565b6110b780620002ec6000396000f3fe608060405234801561001057600080fd5b506004361061004c5760003560e01c80634041ef5414610051578063633fff16146100815780636dd7d8ea1461009d5780638203373a146100b9575b600080fd5b61006b60048036038101906100669190610a17565b6100d5565b6040516100789190610ce6565b60405180910390f35b61009b60048036038101906100969190610a8d565b6101f2565b005b6100b760048036038101906100b29190610a17565b6102e2565b005b6100d360048036038101906100ce9190610a44565b61058f565b005b60006001544210156100e657600080fd5b600460009054906101000a900473ffffffffffffffffffffffffffffffffffffffff1673ffffffffffffffffffffffffffffffffffffffff163373ffffffffffffffffffffffffffffffffffffffff161461014057600080fd5b600560009054906101000a900473ffffffffffffffffffffffffffffffffffffffff1673ffffffffffffffffffffffffffffffffffffffff166370a08231836040518263ffffffff1660e01b815260040161019b9190610beb565b60206040518083038186803b1580156101b357600080fd5b505afa1580156101c7573d6000803e3d6000fd5b505050506040513d601f19601f820116820180604052508101906101eb9190610b05565b9050919050565b8051825114610236576040517f08c379a000000000000000000000000000000000000000000000000000000000815260040161022d90610c66565b60405180910390fd5b60005b82518110156102dd5781818151811061025557610254610f27565b5b60200260200101516003600085848151811061027457610273610f27565b5b602002602001015173ffffffffffffffffffffffffffffffffffffffff1673ffffffffffffffffffffffffffffffffffffffff16815260200190815260200160002090805190602001906102c9929190610780565b5080806102d590610e80565b915050610239565b505050565b600154421115610327576040517f08c379a000000000000000000000000000000000000000000000000000000000815260040161031e90610c86565b60405180910390fd5b600260003373ffffffffffffffffffffffffffffffffffffffff1673ffffffffffffffffffffffffffffffffffffffff16815260200190815260200160002060009054906101000a900460ff16156103b4576040517f08c379a00000000000000000000000000000000000000000000000000000000081526004016103ab90610ca6565b60405180910390fd5b6000600560009054906101000a900473ffffffffffffffffffffffffffffffffffffffff1673ffffffffffffffffffffffffffffffffffffffff166370a08231336040518263ffffffff1660e01b81526004016104119190610beb565b60206040518083038186803b15801561042957600080fd5b505afa15801561043d573d6000803e3d6000fd5b505050506040513d601f19601f820116820180604052508101906104619190610b05565b14156104a2576040517f08c379a000000000000000000000000000000000000000000000000000000000815260040161049990610cc6565b60405180910390fd5b600560009054906101000a900473ffffffffffffffffffffffffffffffffffffffff1673ffffffffffffffffffffffffffffffffffffffff166323b872dd338360016040518463ffffffff1660e01b815260040161050293929190610c06565b600060405180830381600087803b15801561051c57600080fd5b505af1158015610530573d6000803e3d6000fd5b505050506001600260003373ffffffffffffffffffffffffffffffffffffffff1673ffffffffffffffffffffffffffffffffffffffff16815260200190815260200160002060006101000a81548160ff02191690831515021790555050565b60005b81518110156106ca576000600260008484815181106105b4576105b3610f27565b5b602002602001015173ffffffffffffffffffffffffffffffffffffffff1673ffffffffffffffffffffffffffffffffffffffff16815260200190815260200160002060006101000a81548160ff021916908315150217905550600560009054906101000a900473ffffffffffffffffffffffffffffffffffffffff1673ffffffffffffffffffffffffffffffffffffffff166340c10f1983838151811061065e5761065d610f27565b5b602002602001015160016040518363ffffffff1660e01b8152600401610685929190610c3d565b600060405180830381600087803b15801561069f57600080fd5b505af11580156106b3573d6000803e3d6000fd5b5050505080806106c290610e80565b915050610592565b50600560009054906101000a900473ffffffffffffffffffffffffffffffffffffffff1673ffffffffffffffffffffffffffffffffffffffff166340c10f19600460009054906101000a900473ffffffffffffffffffffffffffffffffffffffff1660016040518363ffffffff1660e01b815260040161074b929190610c3d565b600060405180830381600087803b15801561076557600080fd5b505af1158015610779573d6000803e3d6000fd5b5050505050565b82805461078c90610e1d565b90600052602060002090601f0160209004810192826107ae57600085556107f5565b82601f106107c757805160ff19168380011785556107f5565b828001600101855582156107f5579182015b828111156107f45782518255916020019190600101906107d9565b5b5090506108029190610806565b5090565b5b8082111561081f576000816000905550600101610807565b5090565b600061083661083184610d26565b610d01565b9050808382526020820190508285602086028201111561085957610858610f8a565b5b60005b85811015610889578161086f8882610963565b84526020840193506020830192505060018101905061085c565b5050509392505050565b60006108a66108a184610d52565b610d01565b905080838252602082019050828560208602820111156108c9576108c8610f8a565b5b60005b8581101561091757813567ffffffffffffffff8111156108ef576108ee610f85565b5b8086016108fc89826109d4565b855260208501945060208401935050506001810190506108cc565b5050509392505050565b600061093461092f84610d7e565b610d01565b9050828152602081018484840111156109505761094f610f8f565b5b61095b848285610e0e565b509392505050565b60008135905061097281611053565b92915050565b600082601f83011261098d5761098c610f85565b5b813561099d848260208601610823565b91505092915050565b600082601f8301126109bb576109ba610f85565b5b81356109cb848260208601610893565b91505092915050565b600082601f8301126109e9576109e8610f85565b5b81356109f9848260208601610921565b91505092915050565b600081519050610a118161106a565b92915050565b600060208284031215610a2d57610a2c610f99565b5b6000610a3b84828501610963565b91505092915050565b600060208284031215610a5a57610a59610f99565b5b600082013567ffffffffffffffff811115610a7857610a77610f94565b5b610a8484828501610978565b91505092915050565b60008060408385031215610aa457610aa3610f99565b5b600083013567ffffffffffffffff811115610ac257610ac1610f94565b5b610ace85828601610978565b925050602083013567ffffffffffffffff811115610aef57610aee610f94565b5b610afb858286016109a6565b9150509250929050565b600060208284031215610b1b57610b1a610f99565b5b6000610b2984828501610a02565b91505092915050565b610b3b81610dc0565b82525050565b610b4a81610dfc565b82525050565b6000610b5d601483610daf565b9150610b6882610faf565b602082019050919050565b6000610b80600c83610daf565b9150610b8b82610fd8565b602082019050919050565b6000610ba3601483610daf565b9150610bae82611001565b602082019050919050565b6000610bc6601483610daf565b9150610bd18261102a565b602082019050919050565b610be581610df2565b82525050565b6000602082019050610c006000830184610b32565b92915050565b6000606082019050610c1b6000830186610b32565b610c286020830185610b32565b610c356040830184610b41565b949350505050565b6000604082019050610c526000830185610b32565b610c5f6020830184610b41565b9392505050565b60006020820190508181036000830152610c7f81610b50565b9050919050565b60006020820190508181036000830152610c9f81610b73565b9050919050565b60006020820190508181036000830152610cbf81610b96565b9050919050565b60006020820190508181036000830152610cdf81610bb9565b9050919050565b6000602082019050610cfb6000830184610bdc565b92915050565b6000610d0b610d1c565b9050610d178282610e4f565b919050565b6000604051905090565b600067ffffffffffffffff821115610d4157610d40610f56565b5b602082029050602081019050919050565b600067ffffffffffffffff821115610d6d57610d6c610f56565b5b602082029050602081019050919050565b600067ffffffffffffffff821115610d9957610d98610f56565b5b610da282610f9e565b9050602081019050919050565b600082825260208201905092915050565b6000610dcb82610dd2565b9050919050565b600073ffffffffffffffffffffffffffffffffffffffff82169050919050565b6000819050919050565b6000610e0782610df2565b9050919050565b82818337600083830152505050565b60006002820490506001821680610e3557607f821691505b60208210811415610e4957610e48610ef8565b5b50919050565b610e5882610f9e565b810181811067ffffffffffffffff82111715610e7757610e76610f56565b5b80604052505050565b6000610e8b82610df2565b91507fffffffffffffffffffffffffffffffffffffffffffffffffffffffffffffffff821415610ebe57610ebd610ec9565b5b600182019050919050565b7f4e487b7100000000000000000000000000000000000000000000000000000000600052601160045260246000fd5b7f4e487b7100000000000000000000000000000000000000000000000000000000600052602260045260246000fd5b7f4e487b7100000000000000000000000000000000000000000000000000000000600052603260045260246000fd5b7f4e487b7100000000000000000000000000000000000000000000000000000000600052604160045260246000fd5b600080fd5b600080fd5b600080fd5b600080fd5b600080fd5b6000601f19601f8301169050919050565b7f4c656e67746820697320646966666572656e742e000000000000000000000000600082015250565b7f54696d6520697320656e642e0000000000000000000000000000000000000000600082015250565b7f566f74657220616c726561647920766f7465642e000000000000000000000000600082015250565b7f546f6b656e20646f65736e27742065786973742e000000000000000000000000600082015250565b61105c81610dc0565b811461106757600080fd5b50565b61107381610df2565b811461107e57600080fd5b5056fea2646970667358221220b2549dbedc0760bfb4ca8f44d59b0c4cfc20607bce83a8d760570720fa11f12064736f6c6343000807003360806040523480156200001157600080fd5b50600080819055506040518060400160405280600d81526020017f452d566f74696e6720636f696e00000000000000000000000000000000000000815250600190805190602001906200006692919062000125565b506004600260006101000a81548160ff021916908360ff1602179055506040518060400160405280600381526020017f455643000000000000000000000000000000000000000000000000000000000081525060039080519060200190620000d092919062000125565b506040518060400160405280600381526020017f312e300000000000000000000000000000000000000000000000000000000000815250600490805190602001906200011e92919062000125565b506200023a565b8280546200013390620001d5565b90600052602060002090601f016020900481019282620001575760008555620001a3565b82601f106200017257805160ff1916838001178555620001a3565b82800160010185558215620001a3579182015b82811115620001a257825182559160200191906001019062000185565b5b509050620001b29190620001b6565b5090565b5b80821115620001d1576000816000905550600101620001b7565b5090565b60006002820490506001821680620001ee57607f821691505b602082108114156200020557620002046200020b565b5b50919050565b7f4e487b7100000000000000000000000000000000000000000000000000000000600052602260045260246000fd5b611156806200024a6000396000f3fe608060405234801561001057600080fd5b50600436106100a95760003560e01c806340c10f191161007157806340c10f191461014057806354fd4d501461015c57806370a082311461017a57806395d89b41146101aa578063a9059cbb146101c8578063dd62ed3e146101e4576100a9565b806306fdde03146100ae578063095ea7b3146100cc57806318160ddd146100e857806323b872dd14610106578063313ce56714610122575b600080fd5b6100b6610214565b6040516100c39190610e5a565b60405180910390f35b6100e660048036038101906100e19190610da0565b6102a2565b005b6100f061038c565b6040516100fd9190610e9c565b60405180910390f35b610120600480360381019061011b9190610d4d565b610392565b005b61012a610715565b6040516101379190610eb7565b60405180910390f35b61015a60048036038101906101559190610da0565b610728565b005b61016461086b565b6040516101719190610e5a565b60405180910390f35b610194600480360381019061018f9190610ce0565b6108f9565b6040516101a19190610e9c565b60405180910390f35b6101b2610942565b6040516101bf9190610e5a565b60405180910390f35b6101e260048036038101906101dd9190610da0565b6109d0565b005b6101fe60048036038101906101f99190610d0d565b610bde565b60405161020b9190610e9c565b60405180910390f35b6001805461022190610ff4565b80601f016020809104026020016040519081016040528092919081815260200182805461024d90610ff4565b801561029a5780601f1061026f5761010080835404028352916020019161029a565b820191906000526020600020905b81548152906001019060200180831161027d57829003601f168201915b505050505081565b80600660003373ffffffffffffffffffffffffffffffffffffffff1673ffffffffffffffffffffffffffffffffffffffff16815260200190815260200160002060008473ffffffffffffffffffffffffffffffffffffffff1673ffffffffffffffffffffffffffffffffffffffff168152602001908152602001600020819055508173ffffffffffffffffffffffffffffffffffffffff163373ffffffffffffffffffffffffffffffffffffffff167f8c5be1e5ebec7d5bd14f71427d1e84f3dd0314c0f7b2291e5b200ac8c7c3b925836040516103809190610e9c565b60405180910390a35050565b60005481565b80600560008573ffffffffffffffffffffffffffffffffffffffff1673ffffffffffffffffffffffffffffffffffffffff168152602001908152602001600020541015801561045d575080600660008573ffffffffffffffffffffffffffffffffffffffff1673ffffffffffffffffffffffffffffffffffffffff16815260200190815260200160002060003373ffffffffffffffffffffffffffffffffffffffff1673ffffffffffffffffffffffffffffffffffffffff1681526020019081526020016000205410155b80156104695750600081115b61047257600080fd5b6104c481600560008573ffffffffffffffffffffffffffffffffffffffff1673ffffffffffffffffffffffffffffffffffffffff16815260200190815260200160002054610c6590919063ffffffff16565b600560008473ffffffffffffffffffffffffffffffffffffffff1673ffffffffffffffffffffffffffffffffffffffff1681526020019081526020016000208190555061055981600560008673ffffffffffffffffffffffffffffffffffffffff1673ffffffffffffffffffffffffffffffffffffffff16815260200190815260200160002054610c8d90919063ffffffff16565b600560008573ffffffffffffffffffffffffffffffffffffffff1673ffffffffffffffffffffffffffffffffffffffff1681526020019081526020016000208190555061062b81600660008673ffffffffffffffffffffffffffffffffffffffff1673ffffffffffffffffffffffffffffffffffffffff16815260200190815260200160002060003373ffffffffffffffffffffffffffffffffffffffff1673ffffffffffffffffffffffffffffffffffffffff16815260200190815260200160002054610c8d90919063ffffffff16565b600660008573ffffffffffffffffffffffffffffffffffffffff1673ffffffffffffffffffffffffffffffffffffffff16815260200190815260200160002060003373ffffffffffffffffffffffffffffffffffffffff1673ffffffffffffffffffffffffffffffffffffffff168152602001908152602001600020819055508173ffffffffffffffffffffffffffffffffffffffff168373ffffffffffffffffffffffffffffffffffffffff167fddf252ad1be2c89b69c2b068fc378daa952ba7f163c4a11628f55a4df523b3ef836040516107089190610e9c565b60405180910390a3505050565b600260009054906101000a900460ff1681565b600073ffffffffffffffffffffffffffffffffffffffff168273ffffffffffffffffffffffffffffffffffffffff161415610798576040517f08c379a000000000000000000000000000000000000000000000000000000000815260040161078f90610e7c565b60405180910390fd5b6107ad81600054610c6590919063ffffffff16565b5061080081600560008573ffffffffffffffffffffffffffffffffffffffff1673ffffffffffffffffffffffffffffffffffffffff16815260200190815260200160002054610c6590919063ffffffff16565b508173ffffffffffffffffffffffffffffffffffffffff16600073ffffffffffffffffffffffffffffffffffffffff167fddf252ad1be2c89b69c2b068fc378daa952ba7f163c4a11628f55a4df523b3ef8360405161085f9190610e9c565b60405180910390a35050565b6004805461087890610ff4565b80601f01602080910402602001604051908101604052809291908181526020018280546108a490610ff4565b80156108f15780601f106108c6576101008083540402835291602001916108f1565b820191906000526020600020905b8154815290600101906020018083116108d457829003601f168201915b505050505081565b6000600560008373ffffffffffffffffffffffffffffffffffffffff1673ffffffffffffffffffffffffffffffffffffffff168152602001908152602001600020549050919050565b6003805461094f90610ff4565b80601f016020809104026020016040519081016040528092919081815260200182805461097b90610ff4565b80156109c85780601f1061099d576101008083540402835291602001916109c8565b820191906000526020600020905b8154815290600101906020018083116109ab57829003601f168201915b505050505081565b60406004816109df9190610eee565b6000369050146109f2576109f1611026565b5b81600560003373ffffffffffffffffffffffffffffffffffffffff1673ffffffffffffffffffffffffffffffffffffffff1681526020019081526020016000205410158015610a415750600082115b610a4a57600080fd5b610a9c82600560003373ffffffffffffffffffffffffffffffffffffffff1673ffffffffffffffffffffffffffffffffffffffff16815260200190815260200160002054610c8d90919063ffffffff16565b600560003373ffffffffffffffffffffffffffffffffffffffff1673ffffffffffffffffffffffffffffffffffffffff16815260200190815260200160002081905550610b3182600560008673ffffffffffffffffffffffffffffffffffffffff1673ffffffffffffffffffffffffffffffffffffffff16815260200190815260200160002054610c6590919063ffffffff16565b600560008573ffffffffffffffffffffffffffffffffffffffff1673ffffffffffffffffffffffffffffffffffffffff168152602001908152602001600020819055508273ffffffffffffffffffffffffffffffffffffffff163373ffffffffffffffffffffffffffffffffffffffff167fddf252ad1be2c89b69c2b068fc378daa952ba7f163c4a11628f55a4df523b3ef84604051610bd19190610e9c565b60405180910390a3505050565b6000600660008373ffffffffffffffffffffffffffffffffffffffff1673ffffffffffffffffffffffffffffffffffffffff16815260200190815260200160002060008473ffffffffffffffffffffffffffffffffffffffff1673ffffffffffffffffffffffffffffffffffffffff16815260200190815260200160002054905092915050565b6000808284610c749190610eee565b905083811015610c8357600080fd5b8091505092915050565b600082821115610c9c57600080fd5b60008284610caa9190610f44565b90508091505092915050565b600081359050610cc5816110f2565b92915050565b600081359050610cda81611109565b92915050565b600060208284031215610cf657610cf56110b3565b5b6000610d0484828501610cb6565b91505092915050565b60008060408385031215610d2457610d236110b3565b5b6000610d3285828601610cb6565b9250506020610d4385828601610cb6565b9150509250929050565b600080600060608486031215610d6657610d656110b3565b5b6000610d7486828701610cb6565b9350506020610d8586828701610cb6565b9250506040610d9686828701610ccb565b9150509250925092565b60008060408385031215610db757610db66110b3565b5b6000610dc585828601610cb6565b9250506020610dd685828601610ccb565b9150509250929050565b6000610deb82610ed2565b610df58185610edd565b9350610e05818560208601610fc1565b610e0e816110b8565b840191505092915050565b6000610e26601f83610edd565b9150610e31826110c9565b602082019050919050565b610e4581610faa565b82525050565b610e5481610fb4565b82525050565b60006020820190508181036000830152610e748184610de0565b905092915050565b60006020820190508181036000830152610e9581610e19565b9050919050565b6000602082019050610eb16000830184610e3c565b92915050565b6000602082019050610ecc6000830184610e4b565b92915050565b600081519050919050565b600082825260208201905092915050565b6000610ef982610faa565b9150610f0483610faa565b9250827fffffffffffffffffffffffffffffffffffffffffffffffffffffffffffffffff03821115610f3957610f38611055565b5b828201905092915050565b6000610f4f82610faa565b9150610f5a83610faa565b925082821015610f6d57610f6c611055565b5b828203905092915050565b6000610f8382610f8a565b9050919050565b600073ffffffffffffffffffffffffffffffffffffffff82169050919050565b6000819050919050565b600060ff82169050919050565b60005b83811015610fdf578082015181840152602081019050610fc4565b83811115610fee576000848401525b50505050565b6000600282049050600182168061100c57607f821691505b602082108114156110205761101f611084565b5b50919050565b7f4e487b7100000000000000000000000000000000000000000000000000000000600052600160045260246000fd5b7f4e487b7100000000000000000000000000000000000000000000000000000000600052601160045260246000fd5b7f4e487b7100000000000000000000000000000000000000000000000000000000600052602260045260246000fd5b600080fd5b6000601f19601f8301169050919050565b7f45524332303a206d696e7420746f20746865207a65726f206164647265737300600082015250565b6110fb81610f78565b811461110657600080fd5b50565b61111281610faa565b811461111d57600080fd5b5056fea2646970667358221220223b12833e3aad76cbcf7360605dc18ea4b58a81ef39e218b1a06f301cfee73e64736f6c63430008070033",
					"opcodes": "PUSH1 0x80 PUSH1 0x40 MSTORE PUSH1 0x40 MLOAD PUSH3 0x12 SWAP1 PUSH3 0x1B0 JUMP JUMPDEST PUSH1 0x40 MLOAD DUP1 SWAP2 SUB SWAP1 PUSH1 0x0 CREATE DUP1 ISZERO DUP1 ISZERO PUSH3 0x2F JUMPI RETURNDATASIZE PUSH1 0x0 DUP1 RETURNDATACOPY RETURNDATASIZE PUSH1 0x0 REVERT JUMPDEST POP PUSH1 0x5 PUSH1 0x0 PUSH2 0x100 EXP DUP2 SLOAD DUP2 PUSH20 0xFFFFFFFFFFFFFFFFFFFFFFFFFFFFFFFFFFFFFFFF MUL NOT AND SWAP1 DUP4 PUSH20 0xFFFFFFFFFFFFFFFFFFFFFFFFFFFFFFFFFFFFFFFF AND MUL OR SWAP1 SSTORE POP CALLVALUE DUP1 ISZERO PUSH3 0x7D JUMPI PUSH1 0x0 DUP1 REVERT JUMPDEST POP PUSH1 0x40 MLOAD PUSH3 0x2743 CODESIZE SUB DUP1 PUSH3 0x2743 DUP4 CODECOPY DUP2 DUP2 ADD PUSH1 0x40 MSTORE DUP2 ADD SWAP1 PUSH3 0xA3 SWAP2 SWAP1 PUSH3 0x1D5 JUMP JUMPDEST CALLER PUSH1 0x4 PUSH1 0x0 PUSH2 0x100 EXP DUP2 SLOAD DUP2 PUSH20 0xFFFFFFFFFFFFFFFFFFFFFFFFFFFFFFFFFFFFFFFF MUL NOT AND SWAP1 DUP4 PUSH20 0xFFFFFFFFFFFFFFFFFFFFFFFFFFFFFFFFFFFFFFFF AND MUL OR SWAP1 SSTORE POP PUSH1 0x5 PUSH1 0x0 SWAP1 SLOAD SWAP1 PUSH2 0x100 EXP SWAP1 DIV PUSH20 0xFFFFFFFFFFFFFFFFFFFFFFFFFFFFFFFFFFFFFFFF AND PUSH20 0xFFFFFFFFFFFFFFFFFFFFFFFFFFFFFFFFFFFFFFFF AND PUSH4 0x40C10F19 PUSH1 0x4 PUSH1 0x0 SWAP1 SLOAD SWAP1 PUSH2 0x100 EXP SWAP1 DIV PUSH20 0xFFFFFFFFFFFFFFFFFFFFFFFFFFFFFFFFFFFFFFFF AND PUSH1 0x5 PUSH1 0x40 MLOAD DUP4 PUSH4 0xFFFFFFFF AND PUSH1 0xE0 SHL DUP2 MSTORE PUSH1 0x4 ADD PUSH3 0x166 SWAP3 SWAP2 SWAP1 PUSH3 0x23E JUMP JUMPDEST PUSH1 0x0 PUSH1 0x40 MLOAD DUP1 DUP4 SUB DUP2 PUSH1 0x0 DUP8 DUP1 EXTCODESIZE ISZERO DUP1 ISZERO PUSH3 0x181 JUMPI PUSH1 0x0 DUP1 REVERT JUMPDEST POP GAS CALL ISZERO DUP1 ISZERO PUSH3 0x196 JUMPI RETURNDATASIZE PUSH1 0x0 DUP1 RETURNDATACOPY RETURNDATASIZE PUSH1 0x0 REVERT JUMPDEST POP POP POP POP DUP2 PUSH1 0x0 DUP2 SWAP1 SSTORE POP DUP1 PUSH1 0x1 DUP2 SWAP1 SSTORE POP POP POP PUSH3 0x2DC JUMP JUMPDEST PUSH2 0x13A0 DUP1 PUSH3 0x13A3 DUP4 CODECOPY ADD SWAP1 JUMP JUMPDEST PUSH1 0x0 DUP2 MLOAD SWAP1 POP PUSH3 0x1CF DUP2 PUSH3 0x2C2 JUMP JUMPDEST SWAP3 SWAP2 POP POP JUMP JUMPDEST PUSH1 0x0 DUP1 PUSH1 0x40 DUP4 DUP6 SUB SLT ISZERO PUSH3 0x1EF JUMPI PUSH3 0x1EE PUSH3 0x2BD JUMP JUMPDEST JUMPDEST PUSH1 0x0 PUSH3 0x1FF DUP6 DUP3 DUP7 ADD PUSH3 0x1BE JUMP JUMPDEST SWAP3 POP POP PUSH1 0x20 PUSH3 0x212 DUP6 DUP3 DUP7 ADD PUSH3 0x1BE JUMP JUMPDEST SWAP2 POP POP SWAP3 POP SWAP3 SWAP1 POP JUMP JUMPDEST PUSH3 0x227 DUP2 PUSH3 0x26B JUMP JUMPDEST DUP3 MSTORE POP POP JUMP JUMPDEST PUSH3 0x238 DUP2 PUSH3 0x2A9 JUMP JUMPDEST DUP3 MSTORE POP POP JUMP JUMPDEST PUSH1 0x0 PUSH1 0x40 DUP3 ADD SWAP1 POP PUSH3 0x255 PUSH1 0x0 DUP4 ADD DUP6 PUSH3 0x21C JUMP JUMPDEST PUSH3 0x264 PUSH1 0x20 DUP4 ADD DUP5 PUSH3 0x22D JUMP JUMPDEST SWAP4 SWAP3 POP POP POP JUMP JUMPDEST PUSH1 0x0 PUSH3 0x278 DUP3 PUSH3 0x27F JUMP JUMPDEST SWAP1 POP SWAP2 SWAP1 POP JUMP JUMPDEST PUSH1 0x0 PUSH20 0xFFFFFFFFFFFFFFFFFFFFFFFFFFFFFFFFFFFFFFFF DUP3 AND SWAP1 POP SWAP2 SWAP1 POP JUMP JUMPDEST PUSH1 0x0 DUP2 SWAP1 POP SWAP2 SWAP1 POP JUMP JUMPDEST PUSH1 0x0 PUSH3 0x2B6 DUP3 PUSH3 0x29F JUMP JUMPDEST SWAP1 POP SWAP2 SWAP1 POP JUMP JUMPDEST PUSH1 0x0 DUP1 REVERT JUMPDEST PUSH3 0x2CD DUP2 PUSH3 0x29F JUMP JUMPDEST DUP2 EQ PUSH3 0x2D9 JUMPI PUSH1 0x0 DUP1 REVERT JUMPDEST POP JUMP JUMPDEST PUSH2 0x10B7 DUP1 PUSH3 0x2EC PUSH1 0x0 CODECOPY PUSH1 0x0 RETURN INVALID PUSH1 0x80 PUSH1 0x40 MSTORE CALLVALUE DUP1 ISZERO PUSH2 0x10 JUMPI PUSH1 0x0 DUP1 REVERT JUMPDEST POP PUSH1 0x4 CALLDATASIZE LT PUSH2 0x4C JUMPI PUSH1 0x0 CALLDATALOAD PUSH1 0xE0 SHR DUP1 PUSH4 0x4041EF54 EQ PUSH2 0x51 JUMPI DUP1 PUSH4 0x633FFF16 EQ PUSH2 0x81 JUMPI DUP1 PUSH4 0x6DD7D8EA EQ PUSH2 0x9D JUMPI DUP1 PUSH4 0x8203373A EQ PUSH2 0xB9 JUMPI JUMPDEST PUSH1 0x0 DUP1 REVERT JUMPDEST PUSH2 0x6B PUSH1 0x4 DUP1 CALLDATASIZE SUB DUP2 ADD SWAP1 PUSH2 0x66 SWAP2 SWAP1 PUSH2 0xA17 JUMP JUMPDEST PUSH2 0xD5 JUMP JUMPDEST PUSH1 0x40 MLOAD PUSH2 0x78 SWAP2 SWAP1 PUSH2 0xCE6 JUMP JUMPDEST PUSH1 0x40 MLOAD DUP1 SWAP2 SUB SWAP1 RETURN JUMPDEST PUSH2 0x9B PUSH1 0x4 DUP1 CALLDATASIZE SUB DUP2 ADD SWAP1 PUSH2 0x96 SWAP2 SWAP1 PUSH2 0xA8D JUMP JUMPDEST PUSH2 0x1F2 JUMP JUMPDEST STOP JUMPDEST PUSH2 0xB7 PUSH1 0x4 DUP1 CALLDATASIZE SUB DUP2 ADD SWAP1 PUSH2 0xB2 SWAP2 SWAP1 PUSH2 0xA17 JUMP JUMPDEST PUSH2 0x2E2 JUMP JUMPDEST STOP JUMPDEST PUSH2 0xD3 PUSH1 0x4 DUP1 CALLDATASIZE SUB DUP2 ADD SWAP1 PUSH2 0xCE SWAP2 SWAP1 PUSH2 0xA44 JUMP JUMPDEST PUSH2 0x58F JUMP JUMPDEST STOP JUMPDEST PUSH1 0x0 PUSH1 0x1 SLOAD TIMESTAMP LT ISZERO PUSH2 0xE6 JUMPI PUSH1 0x0 DUP1 REVERT JUMPDEST PUSH1 0x4 PUSH1 0x0 SWAP1 SLOAD SWAP1 PUSH2 0x100 EXP SWAP1 DIV PUSH20 0xFFFFFFFFFFFFFFFFFFFFFFFFFFFFFFFFFFFFFFFF AND PUSH20 0xFFFFFFFFFFFFFFFFFFFFFFFFFFFFFFFFFFFFFFFF AND CALLER PUSH20 0xFFFFFFFFFFFFFFFFFFFFFFFFFFFFFFFFFFFFFFFF AND EQ PUSH2 0x140 JUMPI PUSH1 0x0 DUP1 REVERT JUMPDEST PUSH1 0x5 PUSH1 0x0 SWAP1 SLOAD SWAP1 PUSH2 0x100 EXP SWAP1 DIV PUSH20 0xFFFFFFFFFFFFFFFFFFFFFFFFFFFFFFFFFFFFFFFF AND PUSH20 0xFFFFFFFFFFFFFFFFFFFFFFFFFFFFFFFFFFFFFFFF AND PUSH4 0x70A08231 DUP4 PUSH1 0x40 MLOAD DUP3 PUSH4 0xFFFFFFFF AND PUSH1 0xE0 SHL DUP2 MSTORE PUSH1 0x4 ADD PUSH2 0x19B SWAP2 SWAP1 PUSH2 0xBEB JUMP JUMPDEST PUSH1 0x20 PUSH1 0x40 MLOAD DUP1 DUP4 SUB DUP2 DUP7 DUP1 EXTCODESIZE ISZERO DUP1 ISZERO PUSH2 0x1B3 JUMPI PUSH1 0x0 DUP1 REVERT JUMPDEST POP GAS STATICCALL ISZERO DUP1 ISZERO PUSH2 0x1C7 JUMPI RETURNDATASIZE PUSH1 0x0 DUP1 RETURNDATACOPY RETURNDATASIZE PUSH1 0x0 REVERT JUMPDEST POP POP POP POP PUSH1 0x40 MLOAD RETURNDATASIZE PUSH1 0x1F NOT PUSH1 0x1F DUP3 ADD AND DUP3 ADD DUP1 PUSH1 0x40 MSTORE POP DUP2 ADD SWAP1 PUSH2 0x1EB SWAP2 SWAP1 PUSH2 0xB05 JUMP JUMPDEST SWAP1 POP SWAP2 SWAP1 POP JUMP JUMPDEST DUP1 MLOAD DUP3 MLOAD EQ PUSH2 0x236 JUMPI PUSH1 0x40 MLOAD PUSH32 0x8C379A000000000000000000000000000000000000000000000000000000000 DUP2 MSTORE PUSH1 0x4 ADD PUSH2 0x22D SWAP1 PUSH2 0xC66 JUMP JUMPDEST PUSH1 0x40 MLOAD DUP1 SWAP2 SUB SWAP1 REVERT JUMPDEST PUSH1 0x0 JUMPDEST DUP3 MLOAD DUP2 LT ISZERO PUSH2 0x2DD JUMPI DUP2 DUP2 DUP2 MLOAD DUP2 LT PUSH2 0x255 JUMPI PUSH2 0x254 PUSH2 0xF27 JUMP JUMPDEST JUMPDEST PUSH1 0x20 MUL PUSH1 0x20 ADD ADD MLOAD PUSH1 0x3 PUSH1 0x0 DUP6 DUP5 DUP2 MLOAD DUP2 LT PUSH2 0x274 JUMPI PUSH2 0x273 PUSH2 0xF27 JUMP JUMPDEST JUMPDEST PUSH1 0x20 MUL PUSH1 0x20 ADD ADD MLOAD PUSH20 0xFFFFFFFFFFFFFFFFFFFFFFFFFFFFFFFFFFFFFFFF AND PUSH20 0xFFFFFFFFFFFFFFFFFFFFFFFFFFFFFFFFFFFFFFFF AND DUP2 MSTORE PUSH1 0x20 ADD SWAP1 DUP2 MSTORE PUSH1 0x20 ADD PUSH1 0x0 KECCAK256 SWAP1 DUP1 MLOAD SWAP1 PUSH1 0x20 ADD SWAP1 PUSH2 0x2C9 SWAP3 SWAP2 SWAP1 PUSH2 0x780 JUMP JUMPDEST POP DUP1 DUP1 PUSH2 0x2D5 SWAP1 PUSH2 0xE80 JUMP JUMPDEST SWAP2 POP POP PUSH2 0x239 JUMP JUMPDEST POP POP POP JUMP JUMPDEST PUSH1 0x1 SLOAD TIMESTAMP GT ISZERO PUSH2 0x327 JUMPI PUSH1 0x40 MLOAD PUSH32 0x8C379A000000000000000000000000000000000000000000000000000000000 DUP2 MSTORE PUSH1 0x4 ADD PUSH2 0x31E SWAP1 PUSH2 0xC86 JUMP JUMPDEST PUSH1 0x40 MLOAD DUP1 SWAP2 SUB SWAP1 REVERT JUMPDEST PUSH1 0x2 PUSH1 0x0 CALLER PUSH20 0xFFFFFFFFFFFFFFFFFFFFFFFFFFFFFFFFFFFFFFFF AND PUSH20 0xFFFFFFFFFFFFFFFFFFFFFFFFFFFFFFFFFFFFFFFF AND DUP2 MSTORE PUSH1 0x20 ADD SWAP1 DUP2 MSTORE PUSH1 0x20 ADD PUSH1 0x0 KECCAK256 PUSH1 0x0 SWAP1 SLOAD SWAP1 PUSH2 0x100 EXP SWAP1 DIV PUSH1 0xFF AND ISZERO PUSH2 0x3B4 JUMPI PUSH1 0x40 MLOAD PUSH32 0x8C379A000000000000000000000000000000000000000000000000000000000 DUP2 MSTORE PUSH1 0x4 ADD PUSH2 0x3AB SWAP1 PUSH2 0xCA6 JUMP JUMPDEST PUSH1 0x40 MLOAD DUP1 SWAP2 SUB SWAP1 REVERT JUMPDEST PUSH1 0x0 PUSH1 0x5 PUSH1 0x0 SWAP1 SLOAD SWAP1 PUSH2 0x100 EXP SWAP1 DIV PUSH20 0xFFFFFFFFFFFFFFFFFFFFFFFFFFFFFFFFFFFFFFFF AND PUSH20 0xFFFFFFFFFFFFFFFFFFFFFFFFFFFFFFFFFFFFFFFF AND PUSH4 0x70A08231 CALLER PUSH1 0x40 MLOAD DUP3 PUSH4 0xFFFFFFFF AND PUSH1 0xE0 SHL DUP2 MSTORE PUSH1 0x4 ADD PUSH2 0x411 SWAP2 SWAP1 PUSH2 0xBEB JUMP JUMPDEST PUSH1 0x20 PUSH1 0x40 MLOAD DUP1 DUP4 SUB DUP2 DUP7 DUP1 EXTCODESIZE ISZERO DUP1 ISZERO PUSH2 0x429 JUMPI PUSH1 0x0 DUP1 REVERT JUMPDEST POP GAS STATICCALL ISZERO DUP1 ISZERO PUSH2 0x43D JUMPI RETURNDATASIZE PUSH1 0x0 DUP1 RETURNDATACOPY RETURNDATASIZE PUSH1 0x0 REVERT JUMPDEST POP POP POP POP PUSH1 0x40 MLOAD RETURNDATASIZE PUSH1 0x1F NOT PUSH1 0x1F DUP3 ADD AND DUP3 ADD DUP1 PUSH1 0x40 MSTORE POP DUP2 ADD SWAP1 PUSH2 0x461 SWAP2 SWAP1 PUSH2 0xB05 JUMP JUMPDEST EQ ISZERO PUSH2 0x4A2 JUMPI PUSH1 0x40 MLOAD PUSH32 0x8C379A000000000000000000000000000000000000000000000000000000000 DUP2 MSTORE PUSH1 0x4 ADD PUSH2 0x499 SWAP1 PUSH2 0xCC6 JUMP JUMPDEST PUSH1 0x40 MLOAD DUP1 SWAP2 SUB SWAP1 REVERT JUMPDEST PUSH1 0x5 PUSH1 0x0 SWAP1 SLOAD SWAP1 PUSH2 0x100 EXP SWAP1 DIV PUSH20 0xFFFFFFFFFFFFFFFFFFFFFFFFFFFFFFFFFFFFFFFF AND PUSH20 0xFFFFFFFFFFFFFFFFFFFFFFFFFFFFFFFFFFFFFFFF AND PUSH4 0x23B872DD CALLER DUP4 PUSH1 0x1 PUSH1 0x40 MLOAD DUP5 PUSH4 0xFFFFFFFF AND PUSH1 0xE0 SHL DUP2 MSTORE PUSH1 0x4 ADD PUSH2 0x502 SWAP4 SWAP3 SWAP2 SWAP1 PUSH2 0xC06 JUMP JUMPDEST PUSH1 0x0 PUSH1 0x40 MLOAD DUP1 DUP4 SUB DUP2 PUSH1 0x0 DUP8 DUP1 EXTCODESIZE ISZERO DUP1 ISZERO PUSH2 0x51C JUMPI PUSH1 0x0 DUP1 REVERT JUMPDEST POP GAS CALL ISZERO DUP1 ISZERO PUSH2 0x530 JUMPI RETURNDATASIZE PUSH1 0x0 DUP1 RETURNDATACOPY RETURNDATASIZE PUSH1 0x0 REVERT JUMPDEST POP POP POP POP PUSH1 0x1 PUSH1 0x2 PUSH1 0x0 CALLER PUSH20 0xFFFFFFFFFFFFFFFFFFFFFFFFFFFFFFFFFFFFFFFF AND PUSH20 0xFFFFFFFFFFFFFFFFFFFFFFFFFFFFFFFFFFFFFFFF AND DUP2 MSTORE PUSH1 0x20 ADD SWAP1 DUP2 MSTORE PUSH1 0x20 ADD PUSH1 0x0 KECCAK256 PUSH1 0x0 PUSH2 0x100 EXP DUP2 SLOAD DUP2 PUSH1 0xFF MUL NOT AND SWAP1 DUP4 ISZERO ISZERO MUL OR SWAP1 SSTORE POP POP JUMP JUMPDEST PUSH1 0x0 JUMPDEST DUP2 MLOAD DUP2 LT ISZERO PUSH2 0x6CA JUMPI PUSH1 0x0 PUSH1 0x2 PUSH1 0x0 DUP5 DUP5 DUP2 MLOAD DUP2 LT PUSH2 0x5B4 JUMPI PUSH2 0x5B3 PUSH2 0xF27 JUMP JUMPDEST JUMPDEST PUSH1 0x20 MUL PUSH1 0x20 ADD ADD MLOAD PUSH20 0xFFFFFFFFFFFFFFFFFFFFFFFFFFFFFFFFFFFFFFFF AND PUSH20 0xFFFFFFFFFFFFFFFFFFFFFFFFFFFFFFFFFFFFFFFF AND DUP2 MSTORE PUSH1 0x20 ADD SWAP1 DUP2 MSTORE PUSH1 0x20 ADD PUSH1 0x0 KECCAK256 PUSH1 0x0 PUSH2 0x100 EXP DUP2 SLOAD DUP2 PUSH1 0xFF MUL NOT AND SWAP1 DUP4 ISZERO ISZERO MUL OR SWAP1 SSTORE POP PUSH1 0x5 PUSH1 0x0 SWAP1 SLOAD SWAP1 PUSH2 0x100 EXP SWAP1 DIV PUSH20 0xFFFFFFFFFFFFFFFFFFFFFFFFFFFFFFFFFFFFFFFF AND PUSH20 0xFFFFFFFFFFFFFFFFFFFFFFFFFFFFFFFFFFFFFFFF AND PUSH4 0x40C10F19 DUP4 DUP4 DUP2 MLOAD DUP2 LT PUSH2 0x65E JUMPI PUSH2 0x65D PUSH2 0xF27 JUMP JUMPDEST JUMPDEST PUSH1 0x20 MUL PUSH1 0x20 ADD ADD MLOAD PUSH1 0x1 PUSH1 0x40 MLOAD DUP4 PUSH4 0xFFFFFFFF AND PUSH1 0xE0 SHL DUP2 MSTORE PUSH1 0x4 ADD PUSH2 0x685 SWAP3 SWAP2 SWAP1 PUSH2 0xC3D JUMP JUMPDEST PUSH1 0x0 PUSH1 0x40 MLOAD DUP1 DUP4 SUB DUP2 PUSH1 0x0 DUP8 DUP1 EXTCODESIZE ISZERO DUP1 ISZERO PUSH2 0x69F JUMPI PUSH1 0x0 DUP1 REVERT JUMPDEST POP GAS CALL ISZERO DUP1 ISZERO PUSH2 0x6B3 JUMPI RETURNDATASIZE PUSH1 0x0 DUP1 RETURNDATACOPY RETURNDATASIZE PUSH1 0x0 REVERT JUMPDEST POP POP POP POP DUP1 DUP1 PUSH2 0x6C2 SWAP1 PUSH2 0xE80 JUMP JUMPDEST SWAP2 POP POP PUSH2 0x592 JUMP JUMPDEST POP PUSH1 0x5 PUSH1 0x0 SWAP1 SLOAD SWAP1 PUSH2 0x100 EXP SWAP1 DIV PUSH20 0xFFFFFFFFFFFFFFFFFFFFFFFFFFFFFFFFFFFFFFFF AND PUSH20 0xFFFFFFFFFFFFFFFFFFFFFFFFFFFFFFFFFFFFFFFF AND PUSH4 0x40C10F19 PUSH1 0x4 PUSH1 0x0 SWAP1 SLOAD SWAP1 PUSH2 0x100 EXP SWAP1 DIV PUSH20 0xFFFFFFFFFFFFFFFFFFFFFFFFFFFFFFFFFFFFFFFF AND PUSH1 0x1 PUSH1 0x40 MLOAD DUP4 PUSH4 0xFFFFFFFF AND PUSH1 0xE0 SHL DUP2 MSTORE PUSH1 0x4 ADD PUSH2 0x74B SWAP3 SWAP2 SWAP1 PUSH2 0xC3D JUMP JUMPDEST PUSH1 0x0 PUSH1 0x40 MLOAD DUP1 DUP4 SUB DUP2 PUSH1 0x0 DUP8 DUP1 EXTCODESIZE ISZERO DUP1 ISZERO PUSH2 0x765 JUMPI PUSH1 0x0 DUP1 REVERT JUMPDEST POP GAS CALL ISZERO DUP1 ISZERO PUSH2 0x779 JUMPI RETURNDATASIZE PUSH1 0x0 DUP1 RETURNDATACOPY RETURNDATASIZE PUSH1 0x0 REVERT JUMPDEST POP POP POP POP POP JUMP JUMPDEST DUP3 DUP1 SLOAD PUSH2 0x78C SWAP1 PUSH2 0xE1D JUMP JUMPDEST SWAP1 PUSH1 0x0 MSTORE PUSH1 0x20 PUSH1 0x0 KECCAK256 SWAP1 PUSH1 0x1F ADD PUSH1 0x20 SWAP1 DIV DUP2 ADD SWAP3 DUP3 PUSH2 0x7AE JUMPI PUSH1 0x0 DUP6 SSTORE PUSH2 0x7F5 JUMP JUMPDEST DUP3 PUSH1 0x1F LT PUSH2 0x7C7 JUMPI DUP1 MLOAD PUSH1 0xFF NOT AND DUP4 DUP1 ADD OR DUP6 SSTORE PUSH2 0x7F5 JUMP JUMPDEST DUP3 DUP1 ADD PUSH1 0x1 ADD DUP6 SSTORE DUP3 ISZERO PUSH2 0x7F5 JUMPI SWAP2 DUP3 ADD JUMPDEST DUP3 DUP2 GT ISZERO PUSH2 0x7F4 JUMPI DUP3 MLOAD DUP3 SSTORE SWAP2 PUSH1 0x20 ADD SWAP2 SWAP1 PUSH1 0x1 ADD SWAP1 PUSH2 0x7D9 JUMP JUMPDEST JUMPDEST POP SWAP1 POP PUSH2 0x802 SWAP2 SWAP1 PUSH2 0x806 JUMP JUMPDEST POP SWAP1 JUMP JUMPDEST JUMPDEST DUP1 DUP3 GT ISZERO PUSH2 0x81F JUMPI PUSH1 0x0 DUP2 PUSH1 0x0 SWAP1 SSTORE POP PUSH1 0x1 ADD PUSH2 0x807 JUMP JUMPDEST POP SWAP1 JUMP JUMPDEST PUSH1 0x0 PUSH2 0x836 PUSH2 0x831 DUP5 PUSH2 0xD26 JUMP JUMPDEST PUSH2 0xD01 JUMP JUMPDEST SWAP1 POP DUP1 DUP4 DUP3 MSTORE PUSH1 0x20 DUP3 ADD SWAP1 POP DUP3 DUP6 PUSH1 0x20 DUP7 MUL DUP3 ADD GT ISZERO PUSH2 0x859 JUMPI PUSH2 0x858 PUSH2 0xF8A JUMP JUMPDEST JUMPDEST PUSH1 0x0 JUMPDEST DUP6 DUP2 LT ISZERO PUSH2 0x889 JUMPI DUP2 PUSH2 0x86F DUP9 DUP3 PUSH2 0x963 JUMP JUMPDEST DUP5 MSTORE PUSH1 0x20 DUP5 ADD SWAP4 POP PUSH1 0x20 DUP4 ADD SWAP3 POP POP PUSH1 0x1 DUP2 ADD SWAP1 POP PUSH2 0x85C JUMP JUMPDEST POP POP POP SWAP4 SWAP3 POP POP POP JUMP JUMPDEST PUSH1 0x0 PUSH2 0x8A6 PUSH2 0x8A1 DUP5 PUSH2 0xD52 JUMP JUMPDEST PUSH2 0xD01 JUMP JUMPDEST SWAP1 POP DUP1 DUP4 DUP3 MSTORE PUSH1 0x20 DUP3 ADD SWAP1 POP DUP3 DUP6 PUSH1 0x20 DUP7 MUL DUP3 ADD GT ISZERO PUSH2 0x8C9 JUMPI PUSH2 0x8C8 PUSH2 0xF8A JUMP JUMPDEST JUMPDEST PUSH1 0x0 JUMPDEST DUP6 DUP2 LT ISZERO PUSH2 0x917 JUMPI DUP2 CALLDATALOAD PUSH8 0xFFFFFFFFFFFFFFFF DUP2 GT ISZERO PUSH2 0x8EF JUMPI PUSH2 0x8EE PUSH2 0xF85 JUMP JUMPDEST JUMPDEST DUP1 DUP7 ADD PUSH2 0x8FC DUP10 DUP3 PUSH2 0x9D4 JUMP JUMPDEST DUP6 MSTORE PUSH1 0x20 DUP6 ADD SWAP5 POP PUSH1 0x20 DUP5 ADD SWAP4 POP POP POP PUSH1 0x1 DUP2 ADD SWAP1 POP PUSH2 0x8CC JUMP JUMPDEST POP POP POP SWAP4 SWAP3 POP POP POP JUMP JUMPDEST PUSH1 0x0 PUSH2 0x934 PUSH2 0x92F DUP5 PUSH2 0xD7E JUMP JUMPDEST PUSH2 0xD01 JUMP JUMPDEST SWAP1 POP DUP3 DUP2 MSTORE PUSH1 0x20 DUP2 ADD DUP5 DUP5 DUP5 ADD GT ISZERO PUSH2 0x950 JUMPI PUSH2 0x94F PUSH2 0xF8F JUMP JUMPDEST JUMPDEST PUSH2 0x95B DUP5 DUP3 DUP6 PUSH2 0xE0E JUMP JUMPDEST POP SWAP4 SWAP3 POP POP POP JUMP JUMPDEST PUSH1 0x0 DUP2 CALLDATALOAD SWAP1 POP PUSH2 0x972 DUP2 PUSH2 0x1053 JUMP JUMPDEST SWAP3 SWAP2 POP POP JUMP JUMPDEST PUSH1 0x0 DUP3 PUSH1 0x1F DUP4 ADD SLT PUSH2 0x98D JUMPI PUSH2 0x98C PUSH2 0xF85 JUMP JUMPDEST JUMPDEST DUP2 CALLDATALOAD PUSH2 0x99D DUP5 DUP3 PUSH1 0x20 DUP7 ADD PUSH2 0x823 JUMP JUMPDEST SWAP2 POP POP SWAP3 SWAP2 POP POP JUMP JUMPDEST PUSH1 0x0 DUP3 PUSH1 0x1F DUP4 ADD SLT PUSH2 0x9BB JUMPI PUSH2 0x9BA PUSH2 0xF85 JUMP JUMPDEST JUMPDEST DUP2 CALLDATALOAD PUSH2 0x9CB DUP5 DUP3 PUSH1 0x20 DUP7 ADD PUSH2 0x893 JUMP JUMPDEST SWAP2 POP POP SWAP3 SWAP2 POP POP JUMP JUMPDEST PUSH1 0x0 DUP3 PUSH1 0x1F DUP4 ADD SLT PUSH2 0x9E9 JUMPI PUSH2 0x9E8 PUSH2 0xF85 JUMP JUMPDEST JUMPDEST DUP2 CALLDATALOAD PUSH2 0x9F9 DUP5 DUP3 PUSH1 0x20 DUP7 ADD PUSH2 0x921 JUMP JUMPDEST SWAP2 POP POP SWAP3 SWAP2 POP POP JUMP JUMPDEST PUSH1 0x0 DUP2 MLOAD SWAP1 POP PUSH2 0xA11 DUP2 PUSH2 0x106A JUMP JUMPDEST SWAP3 SWAP2 POP POP JUMP JUMPDEST PUSH1 0x0 PUSH1 0x20 DUP3 DUP5 SUB SLT ISZERO PUSH2 0xA2D JUMPI PUSH2 0xA2C PUSH2 0xF99 JUMP JUMPDEST JUMPDEST PUSH1 0x0 PUSH2 0xA3B DUP5 DUP3 DUP6 ADD PUSH2 0x963 JUMP JUMPDEST SWAP2 POP POP SWAP3 SWAP2 POP POP JUMP JUMPDEST PUSH1 0x0 PUSH1 0x20 DUP3 DUP5 SUB SLT ISZERO PUSH2 0xA5A JUMPI PUSH2 0xA59 PUSH2 0xF99 JUMP JUMPDEST JUMPDEST PUSH1 0x0 DUP3 ADD CALLDATALOAD PUSH8 0xFFFFFFFFFFFFFFFF DUP2 GT ISZERO PUSH2 0xA78 JUMPI PUSH2 0xA77 PUSH2 0xF94 JUMP JUMPDEST JUMPDEST PUSH2 0xA84 DUP5 DUP3 DUP6 ADD PUSH2 0x978 JUMP JUMPDEST SWAP2 POP POP SWAP3 SWAP2 POP POP JUMP JUMPDEST PUSH1 0x0 DUP1 PUSH1 0x40 DUP4 DUP6 SUB SLT ISZERO PUSH2 0xAA4 JUMPI PUSH2 0xAA3 PUSH2 0xF99 JUMP JUMPDEST JUMPDEST PUSH1 0x0 DUP4 ADD CALLDATALOAD PUSH8 0xFFFFFFFFFFFFFFFF DUP2 GT ISZERO PUSH2 0xAC2 JUMPI PUSH2 0xAC1 PUSH2 0xF94 JUMP JUMPDEST JUMPDEST PUSH2 0xACE DUP6 DUP3 DUP7 ADD PUSH2 0x978 JUMP JUMPDEST SWAP3 POP POP PUSH1 0x20 DUP4 ADD CALLDATALOAD PUSH8 0xFFFFFFFFFFFFFFFF DUP2 GT ISZERO PUSH2 0xAEF JUMPI PUSH2 0xAEE PUSH2 0xF94 JUMP JUMPDEST JUMPDEST PUSH2 0xAFB DUP6 DUP3 DUP7 ADD PUSH2 0x9A6 JUMP JUMPDEST SWAP2 POP POP SWAP3 POP SWAP3 SWAP1 POP JUMP JUMPDEST PUSH1 0x0 PUSH1 0x20 DUP3 DUP5 SUB SLT ISZERO PUSH2 0xB1B JUMPI PUSH2 0xB1A PUSH2 0xF99 JUMP JUMPDEST JUMPDEST PUSH1 0x0 PUSH2 0xB29 DUP5 DUP3 DUP6 ADD PUSH2 0xA02 JUMP JUMPDEST SWAP2 POP POP SWAP3 SWAP2 POP POP JUMP JUMPDEST PUSH2 0xB3B DUP2 PUSH2 0xDC0 JUMP JUMPDEST DUP3 MSTORE POP POP JUMP JUMPDEST PUSH2 0xB4A DUP2 PUSH2 0xDFC JUMP JUMPDEST DUP3 MSTORE POP POP JUMP JUMPDEST PUSH1 0x0 PUSH2 0xB5D PUSH1 0x14 DUP4 PUSH2 0xDAF JUMP JUMPDEST SWAP2 POP PUSH2 0xB68 DUP3 PUSH2 0xFAF JUMP JUMPDEST PUSH1 0x20 DUP3 ADD SWAP1 POP SWAP2 SWAP1 POP JUMP JUMPDEST PUSH1 0x0 PUSH2 0xB80 PUSH1 0xC DUP4 PUSH2 0xDAF JUMP JUMPDEST SWAP2 POP PUSH2 0xB8B DUP3 PUSH2 0xFD8 JUMP JUMPDEST PUSH1 0x20 DUP3 ADD SWAP1 POP SWAP2 SWAP1 POP JUMP JUMPDEST PUSH1 0x0 PUSH2 0xBA3 PUSH1 0x14 DUP4 PUSH2 0xDAF JUMP JUMPDEST SWAP2 POP PUSH2 0xBAE DUP3 PUSH2 0x1001 JUMP JUMPDEST PUSH1 0x20 DUP3 ADD SWAP1 POP SWAP2 SWAP1 POP JUMP JUMPDEST PUSH1 0x0 PUSH2 0xBC6 PUSH1 0x14 DUP4 PUSH2 0xDAF JUMP JUMPDEST SWAP2 POP PUSH2 0xBD1 DUP3 PUSH2 0x102A JUMP JUMPDEST PUSH1 0x20 DUP3 ADD SWAP1 POP SWAP2 SWAP1 POP JUMP JUMPDEST PUSH2 0xBE5 DUP2 PUSH2 0xDF2 JUMP JUMPDEST DUP3 MSTORE POP POP JUMP JUMPDEST PUSH1 0x0 PUSH1 0x20 DUP3 ADD SWAP1 POP PUSH2 0xC00 PUSH1 0x0 DUP4 ADD DUP5 PUSH2 0xB32 JUMP JUMPDEST SWAP3 SWAP2 POP POP JUMP JUMPDEST PUSH1 0x0 PUSH1 0x60 DUP3 ADD SWAP1 POP PUSH2 0xC1B PUSH1 0x0 DUP4 ADD DUP7 PUSH2 0xB32 JUMP JUMPDEST PUSH2 0xC28 PUSH1 0x20 DUP4 ADD DUP6 PUSH2 0xB32 JUMP JUMPDEST PUSH2 0xC35 PUSH1 0x40 DUP4 ADD DUP5 PUSH2 0xB41 JUMP JUMPDEST SWAP5 SWAP4 POP POP POP POP JUMP JUMPDEST PUSH1 0x0 PUSH1 0x40 DUP3 ADD SWAP1 POP PUSH2 0xC52 PUSH1 0x0 DUP4 ADD DUP6 PUSH2 0xB32 JUMP JUMPDEST PUSH2 0xC5F PUSH1 0x20 DUP4 ADD DUP5 PUSH2 0xB41 JUMP JUMPDEST SWAP4 SWAP3 POP POP POP JUMP JUMPDEST PUSH1 0x0 PUSH1 0x20 DUP3 ADD SWAP1 POP DUP2 DUP2 SUB PUSH1 0x0 DUP4 ADD MSTORE PUSH2 0xC7F DUP2 PUSH2 0xB50 JUMP JUMPDEST SWAP1 POP SWAP2 SWAP1 POP JUMP JUMPDEST PUSH1 0x0 PUSH1 0x20 DUP3 ADD SWAP1 POP DUP2 DUP2 SUB PUSH1 0x0 DUP4 ADD MSTORE PUSH2 0xC9F DUP2 PUSH2 0xB73 JUMP JUMPDEST SWAP1 POP SWAP2 SWAP1 POP JUMP JUMPDEST PUSH1 0x0 PUSH1 0x20 DUP3 ADD SWAP1 POP DUP2 DUP2 SUB PUSH1 0x0 DUP4 ADD MSTORE PUSH2 0xCBF DUP2 PUSH2 0xB96 JUMP JUMPDEST SWAP1 POP SWAP2 SWAP1 POP JUMP JUMPDEST PUSH1 0x0 PUSH1 0x20 DUP3 ADD SWAP1 POP DUP2 DUP2 SUB PUSH1 0x0 DUP4 ADD MSTORE PUSH2 0xCDF DUP2 PUSH2 0xBB9 JUMP JUMPDEST SWAP1 POP SWAP2 SWAP1 POP JUMP JUMPDEST PUSH1 0x0 PUSH1 0x20 DUP3 ADD SWAP1 POP PUSH2 0xCFB PUSH1 0x0 DUP4 ADD DUP5 PUSH2 0xBDC JUMP JUMPDEST SWAP3 SWAP2 POP POP JUMP JUMPDEST PUSH1 0x0 PUSH2 0xD0B PUSH2 0xD1C JUMP JUMPDEST SWAP1 POP PUSH2 0xD17 DUP3 DUP3 PUSH2 0xE4F JUMP JUMPDEST SWAP2 SWAP1 POP JUMP JUMPDEST PUSH1 0x0 PUSH1 0x40 MLOAD SWAP1 POP SWAP1 JUMP JUMPDEST PUSH1 0x0 PUSH8 0xFFFFFFFFFFFFFFFF DUP3 GT ISZERO PUSH2 0xD41 JUMPI PUSH2 0xD40 PUSH2 0xF56 JUMP JUMPDEST JUMPDEST PUSH1 0x20 DUP3 MUL SWAP1 POP PUSH1 0x20 DUP2 ADD SWAP1 POP SWAP2 SWAP1 POP JUMP JUMPDEST PUSH1 0x0 PUSH8 0xFFFFFFFFFFFFFFFF DUP3 GT ISZERO PUSH2 0xD6D JUMPI PUSH2 0xD6C PUSH2 0xF56 JUMP JUMPDEST JUMPDEST PUSH1 0x20 DUP3 MUL SWAP1 POP PUSH1 0x20 DUP2 ADD SWAP1 POP SWAP2 SWAP1 POP JUMP JUMPDEST PUSH1 0x0 PUSH8 0xFFFFFFFFFFFFFFFF DUP3 GT ISZERO PUSH2 0xD99 JUMPI PUSH2 0xD98 PUSH2 0xF56 JUMP JUMPDEST JUMPDEST PUSH2 0xDA2 DUP3 PUSH2 0xF9E JUMP JUMPDEST SWAP1 POP PUSH1 0x20 DUP2 ADD SWAP1 POP SWAP2 SWAP1 POP JUMP JUMPDEST PUSH1 0x0 DUP3 DUP3 MSTORE PUSH1 0x20 DUP3 ADD SWAP1 POP SWAP3 SWAP2 POP POP JUMP JUMPDEST PUSH1 0x0 PUSH2 0xDCB DUP3 PUSH2 0xDD2 JUMP JUMPDEST SWAP1 POP SWAP2 SWAP1 POP JUMP JUMPDEST PUSH1 0x0 PUSH20 0xFFFFFFFFFFFFFFFFFFFFFFFFFFFFFFFFFFFFFFFF DUP3 AND SWAP1 POP SWAP2 SWAP1 POP JUMP JUMPDEST PUSH1 0x0 DUP2 SWAP1 POP SWAP2 SWAP1 POP JUMP JUMPDEST PUSH1 0x0 PUSH2 0xE07 DUP3 PUSH2 0xDF2 JUMP JUMPDEST SWAP1 POP SWAP2 SWAP1 POP JUMP JUMPDEST DUP3 DUP2 DUP4 CALLDATACOPY PUSH1 0x0 DUP4 DUP4 ADD MSTORE POP POP POP JUMP JUMPDEST PUSH1 0x0 PUSH1 0x2 DUP3 DIV SWAP1 POP PUSH1 0x1 DUP3 AND DUP1 PUSH2 0xE35 JUMPI PUSH1 0x7F DUP3 AND SWAP2 POP JUMPDEST PUSH1 0x20 DUP3 LT DUP2 EQ ISZERO PUSH2 0xE49 JUMPI PUSH2 0xE48 PUSH2 0xEF8 JUMP JUMPDEST JUMPDEST POP SWAP2 SWAP1 POP JUMP JUMPDEST PUSH2 0xE58 DUP3 PUSH2 0xF9E JUMP JUMPDEST DUP2 ADD DUP2 DUP2 LT PUSH8 0xFFFFFFFFFFFFFFFF DUP3 GT OR ISZERO PUSH2 0xE77 JUMPI PUSH2 0xE76 PUSH2 0xF56 JUMP JUMPDEST JUMPDEST DUP1 PUSH1 0x40 MSTORE POP POP POP JUMP JUMPDEST PUSH1 0x0 PUSH2 0xE8B DUP3 PUSH2 0xDF2 JUMP JUMPDEST SWAP2 POP PUSH32 0xFFFFFFFFFFFFFFFFFFFFFFFFFFFFFFFFFFFFFFFFFFFFFFFFFFFFFFFFFFFFFFFF DUP3 EQ ISZERO PUSH2 0xEBE JUMPI PUSH2 0xEBD PUSH2 0xEC9 JUMP JUMPDEST JUMPDEST PUSH1 0x1 DUP3 ADD SWAP1 POP SWAP2 SWAP1 POP JUMP JUMPDEST PUSH32 0x4E487B7100000000000000000000000000000000000000000000000000000000 PUSH1 0x0 MSTORE PUSH1 0x11 PUSH1 0x4 MSTORE PUSH1 0x24 PUSH1 0x0 REVERT JUMPDEST PUSH32 0x4E487B7100000000000000000000000000000000000000000000000000000000 PUSH1 0x0 MSTORE PUSH1 0x22 PUSH1 0x4 MSTORE PUSH1 0x24 PUSH1 0x0 REVERT JUMPDEST PUSH32 0x4E487B7100000000000000000000000000000000000000000000000000000000 PUSH1 0x0 MSTORE PUSH1 0x32 PUSH1 0x4 MSTORE PUSH1 0x24 PUSH1 0x0 REVERT JUMPDEST PUSH32 0x4E487B7100000000000000000000000000000000000000000000000000000000 PUSH1 0x0 MSTORE PUSH1 0x41 PUSH1 0x4 MSTORE PUSH1 0x24 PUSH1 0x0 REVERT JUMPDEST PUSH1 0x0 DUP1 REVERT JUMPDEST PUSH1 0x0 DUP1 REVERT JUMPDEST PUSH1 0x0 DUP1 REVERT JUMPDEST PUSH1 0x0 DUP1 REVERT JUMPDEST PUSH1 0x0 DUP1 REVERT JUMPDEST PUSH1 0x0 PUSH1 0x1F NOT PUSH1 0x1F DUP4 ADD AND SWAP1 POP SWAP2 SWAP1 POP JUMP JUMPDEST PUSH32 0x4C656E67746820697320646966666572656E742E000000000000000000000000 PUSH1 0x0 DUP3 ADD MSTORE POP JUMP JUMPDEST PUSH32 0x54696D6520697320656E642E0000000000000000000000000000000000000000 PUSH1 0x0 DUP3 ADD MSTORE POP JUMP JUMPDEST PUSH32 0x566F74657220616C726561647920766F7465642E000000000000000000000000 PUSH1 0x0 DUP3 ADD MSTORE POP JUMP JUMPDEST PUSH32 0x546F6B656E20646F65736E27742065786973742E000000000000000000000000 PUSH1 0x0 DUP3 ADD MSTORE POP JUMP JUMPDEST PUSH2 0x105C DUP2 PUSH2 0xDC0 JUMP JUMPDEST DUP2 EQ PUSH2 0x1067 JUMPI PUSH1 0x0 DUP1 REVERT JUMPDEST POP JUMP JUMPDEST PUSH2 0x1073 DUP2 PUSH2 0xDF2 JUMP JUMPDEST DUP2 EQ PUSH2 0x107E JUMPI PUSH1 0x0 DUP1 REVERT JUMPDEST POP JUMP INVALID LOG2 PUSH5 0x6970667358 0x22 SLT KECCAK256 0xB2 SLOAD SWAP14 0xBE 0xDC SMOD PUSH1 0xBF 0xB4 0xCA DUP16 DIFFICULTY 0xD5 SWAP12 0xC 0x4C 0xFC KECCAK256 PUSH1 0x7B 0xCE DUP4 0xA8 0xD7 PUSH1 0x57 SMOD KECCAK256 STATICCALL GT CALL KECCAK256 PUSH5 0x736F6C6343 STOP ADDMOD SMOD STOP CALLER PUSH1 0x80 PUSH1 0x40 MSTORE CALLVALUE DUP1 ISZERO PUSH3 0x11 JUMPI PUSH1 0x0 DUP1 REVERT JUMPDEST POP PUSH1 0x0 DUP1 DUP2 SWAP1 SSTORE POP PUSH1 0x40 MLOAD DUP1 PUSH1 0x40 ADD PUSH1 0x40 MSTORE DUP1 PUSH1 0xD DUP2 MSTORE PUSH1 0x20 ADD PUSH32 0x452D566F74696E6720636F696E00000000000000000000000000000000000000 DUP2 MSTORE POP PUSH1 0x1 SWAP1 DUP1 MLOAD SWAP1 PUSH1 0x20 ADD SWAP1 PUSH3 0x66 SWAP3 SWAP2 SWAP1 PUSH3 0x125 JUMP JUMPDEST POP PUSH1 0x4 PUSH1 0x2 PUSH1 0x0 PUSH2 0x100 EXP DUP2 SLOAD DUP2 PUSH1 0xFF MUL NOT AND SWAP1 DUP4 PUSH1 0xFF AND MUL OR SWAP1 SSTORE POP PUSH1 0x40 MLOAD DUP1 PUSH1 0x40 ADD PUSH1 0x40 MSTORE DUP1 PUSH1 0x3 DUP2 MSTORE PUSH1 0x20 ADD PUSH32 0x4556430000000000000000000000000000000000000000000000000000000000 DUP2 MSTORE POP PUSH1 0x3 SWAP1 DUP1 MLOAD SWAP1 PUSH1 0x20 ADD SWAP1 PUSH3 0xD0 SWAP3 SWAP2 SWAP1 PUSH3 0x125 JUMP JUMPDEST POP PUSH1 0x40 MLOAD DUP1 PUSH1 0x40 ADD PUSH1 0x40 MSTORE DUP1 PUSH1 0x3 DUP2 MSTORE PUSH1 0x20 ADD PUSH32 0x312E300000000000000000000000000000000000000000000000000000000000 DUP2 MSTORE POP PUSH1 0x4 SWAP1 DUP1 MLOAD SWAP1 PUSH1 0x20 ADD SWAP1 PUSH3 0x11E SWAP3 SWAP2 SWAP1 PUSH3 0x125 JUMP JUMPDEST POP PUSH3 0x23A JUMP JUMPDEST DUP3 DUP1 SLOAD PUSH3 0x133 SWAP1 PUSH3 0x1D5 JUMP JUMPDEST SWAP1 PUSH1 0x0 MSTORE PUSH1 0x20 PUSH1 0x0 KECCAK256 SWAP1 PUSH1 0x1F ADD PUSH1 0x20 SWAP1 DIV DUP2 ADD SWAP3 DUP3 PUSH3 0x157 JUMPI PUSH1 0x0 DUP6 SSTORE PUSH3 0x1A3 JUMP JUMPDEST DUP3 PUSH1 0x1F LT PUSH3 0x172 JUMPI DUP1 MLOAD PUSH1 0xFF NOT AND DUP4 DUP1 ADD OR DUP6 SSTORE PUSH3 0x1A3 JUMP JUMPDEST DUP3 DUP1 ADD PUSH1 0x1 ADD DUP6 SSTORE DUP3 ISZERO PUSH3 0x1A3 JUMPI SWAP2 DUP3 ADD JUMPDEST DUP3 DUP2 GT ISZERO PUSH3 0x1A2 JUMPI DUP3 MLOAD DUP3 SSTORE SWAP2 PUSH1 0x20 ADD SWAP2 SWAP1 PUSH1 0x1 ADD SWAP1 PUSH3 0x185 JUMP JUMPDEST JUMPDEST POP SWAP1 POP PUSH3 0x1B2 SWAP2 SWAP1 PUSH3 0x1B6 JUMP JUMPDEST POP SWAP1 JUMP JUMPDEST JUMPDEST DUP1 DUP3 GT ISZERO PUSH3 0x1D1 JUMPI PUSH1 0x0 DUP2 PUSH1 0x0 SWAP1 SSTORE POP PUSH1 0x1 ADD PUSH3 0x1B7 JUMP JUMPDEST POP SWAP1 JUMP JUMPDEST PUSH1 0x0 PUSH1 0x2 DUP3 DIV SWAP1 POP PUSH1 0x1 DUP3 AND DUP1 PUSH3 0x1EE JUMPI PUSH1 0x7F DUP3 AND SWAP2 POP JUMPDEST PUSH1 0x20 DUP3 LT DUP2 EQ ISZERO PUSH3 0x205 JUMPI PUSH3 0x204 PUSH3 0x20B JUMP JUMPDEST JUMPDEST POP SWAP2 SWAP1 POP JUMP JUMPDEST PUSH32 0x4E487B7100000000000000000000000000000000000000000000000000000000 PUSH1 0x0 MSTORE PUSH1 0x22 PUSH1 0x4 MSTORE PUSH1 0x24 PUSH1 0x0 REVERT JUMPDEST PUSH2 0x1156 DUP1 PUSH3 0x24A PUSH1 0x0 CODECOPY PUSH1 0x0 RETURN INVALID PUSH1 0x80 PUSH1 0x40 MSTORE CALLVALUE DUP1 ISZERO PUSH2 0x10 JUMPI PUSH1 0x0 DUP1 REVERT JUMPDEST POP PUSH1 0x4 CALLDATASIZE LT PUSH2 0xA9 JUMPI PUSH1 0x0 CALLDATALOAD PUSH1 0xE0 SHR DUP1 PUSH4 0x40C10F19 GT PUSH2 0x71 JUMPI DUP1 PUSH4 0x40C10F19 EQ PUSH2 0x140 JUMPI DUP1 PUSH4 0x54FD4D50 EQ PUSH2 0x15C JUMPI DUP1 PUSH4 0x70A08231 EQ PUSH2 0x17A JUMPI DUP1 PUSH4 0x95D89B41 EQ PUSH2 0x1AA JUMPI DUP1 PUSH4 0xA9059CBB EQ PUSH2 0x1C8 JUMPI DUP1 PUSH4 0xDD62ED3E EQ PUSH2 0x1E4 JUMPI PUSH2 0xA9 JUMP JUMPDEST DUP1 PUSH4 0x6FDDE03 EQ PUSH2 0xAE JUMPI DUP1 PUSH4 0x95EA7B3 EQ PUSH2 0xCC JUMPI DUP1 PUSH4 0x18160DDD EQ PUSH2 0xE8 JUMPI DUP1 PUSH4 0x23B872DD EQ PUSH2 0x106 JUMPI DUP1 PUSH4 0x313CE567 EQ PUSH2 0x122 JUMPI JUMPDEST PUSH1 0x0 DUP1 REVERT JUMPDEST PUSH2 0xB6 PUSH2 0x214 JUMP JUMPDEST PUSH1 0x40 MLOAD PUSH2 0xC3 SWAP2 SWAP1 PUSH2 0xE5A JUMP JUMPDEST PUSH1 0x40 MLOAD DUP1 SWAP2 SUB SWAP1 RETURN JUMPDEST PUSH2 0xE6 PUSH1 0x4 DUP1 CALLDATASIZE SUB DUP2 ADD SWAP1 PUSH2 0xE1 SWAP2 SWAP1 PUSH2 0xDA0 JUMP JUMPDEST PUSH2 0x2A2 JUMP JUMPDEST STOP JUMPDEST PUSH2 0xF0 PUSH2 0x38C JUMP JUMPDEST PUSH1 0x40 MLOAD PUSH2 0xFD SWAP2 SWAP1 PUSH2 0xE9C JUMP JUMPDEST PUSH1 0x40 MLOAD DUP1 SWAP2 SUB SWAP1 RETURN JUMPDEST PUSH2 0x120 PUSH1 0x4 DUP1 CALLDATASIZE SUB DUP2 ADD SWAP1 PUSH2 0x11B SWAP2 SWAP1 PUSH2 0xD4D JUMP JUMPDEST PUSH2 0x392 JUMP JUMPDEST STOP JUMPDEST PUSH2 0x12A PUSH2 0x715 JUMP JUMPDEST PUSH1 0x40 MLOAD PUSH2 0x137 SWAP2 SWAP1 PUSH2 0xEB7 JUMP JUMPDEST PUSH1 0x40 MLOAD DUP1 SWAP2 SUB SWAP1 RETURN JUMPDEST PUSH2 0x15A PUSH1 0x4 DUP1 CALLDATASIZE SUB DUP2 ADD SWAP1 PUSH2 0x155 SWAP2 SWAP1 PUSH2 0xDA0 JUMP JUMPDEST PUSH2 0x728 JUMP JUMPDEST STOP JUMPDEST PUSH2 0x164 PUSH2 0x86B JUMP JUMPDEST PUSH1 0x40 MLOAD PUSH2 0x171 SWAP2 SWAP1 PUSH2 0xE5A JUMP JUMPDEST PUSH1 0x40 MLOAD DUP1 SWAP2 SUB SWAP1 RETURN JUMPDEST PUSH2 0x194 PUSH1 0x4 DUP1 CALLDATASIZE SUB DUP2 ADD SWAP1 PUSH2 0x18F SWAP2 SWAP1 PUSH2 0xCE0 JUMP JUMPDEST PUSH2 0x8F9 JUMP JUMPDEST PUSH1 0x40 MLOAD PUSH2 0x1A1 SWAP2 SWAP1 PUSH2 0xE9C JUMP JUMPDEST PUSH1 0x40 MLOAD DUP1 SWAP2 SUB SWAP1 RETURN JUMPDEST PUSH2 0x1B2 PUSH2 0x942 JUMP JUMPDEST PUSH1 0x40 MLOAD PUSH2 0x1BF SWAP2 SWAP1 PUSH2 0xE5A JUMP JUMPDEST PUSH1 0x40 MLOAD DUP1 SWAP2 SUB SWAP1 RETURN JUMPDEST PUSH2 0x1E2 PUSH1 0x4 DUP1 CALLDATASIZE SUB DUP2 ADD SWAP1 PUSH2 0x1DD SWAP2 SWAP1 PUSH2 0xDA0 JUMP JUMPDEST PUSH2 0x9D0 JUMP JUMPDEST STOP JUMPDEST PUSH2 0x1FE PUSH1 0x4 DUP1 CALLDATASIZE SUB DUP2 ADD SWAP1 PUSH2 0x1F9 SWAP2 SWAP1 PUSH2 0xD0D JUMP JUMPDEST PUSH2 0xBDE JUMP JUMPDEST PUSH1 0x40 MLOAD PUSH2 0x20B SWAP2 SWAP1 PUSH2 0xE9C JUMP JUMPDEST PUSH1 0x40 MLOAD DUP1 SWAP2 SUB SWAP1 RETURN JUMPDEST PUSH1 0x1 DUP1 SLOAD PUSH2 0x221 SWAP1 PUSH2 0xFF4 JUMP JUMPDEST DUP1 PUSH1 0x1F ADD PUSH1 0x20 DUP1 SWAP2 DIV MUL PUSH1 0x20 ADD PUSH1 0x40 MLOAD SWAP1 DUP2 ADD PUSH1 0x40 MSTORE DUP1 SWAP3 SWAP2 SWAP1 DUP2 DUP2 MSTORE PUSH1 0x20 ADD DUP3 DUP1 SLOAD PUSH2 0x24D SWAP1 PUSH2 0xFF4 JUMP JUMPDEST DUP1 ISZERO PUSH2 0x29A JUMPI DUP1 PUSH1 0x1F LT PUSH2 0x26F JUMPI PUSH2 0x100 DUP1 DUP4 SLOAD DIV MUL DUP4 MSTORE SWAP2 PUSH1 0x20 ADD SWAP2 PUSH2 0x29A JUMP JUMPDEST DUP3 ADD SWAP2 SWAP1 PUSH1 0x0 MSTORE PUSH1 0x20 PUSH1 0x0 KECCAK256 SWAP1 JUMPDEST DUP2 SLOAD DUP2 MSTORE SWAP1 PUSH1 0x1 ADD SWAP1 PUSH1 0x20 ADD DUP1 DUP4 GT PUSH2 0x27D JUMPI DUP3 SWAP1 SUB PUSH1 0x1F AND DUP3 ADD SWAP2 JUMPDEST POP POP POP POP POP DUP2 JUMP JUMPDEST DUP1 PUSH1 0x6 PUSH1 0x0 CALLER PUSH20 0xFFFFFFFFFFFFFFFFFFFFFFFFFFFFFFFFFFFFFFFF AND PUSH20 0xFFFFFFFFFFFFFFFFFFFFFFFFFFFFFFFFFFFFFFFF AND DUP2 MSTORE PUSH1 0x20 ADD SWAP1 DUP2 MSTORE PUSH1 0x20 ADD PUSH1 0x0 KECCAK256 PUSH1 0x0 DUP5 PUSH20 0xFFFFFFFFFFFFFFFFFFFFFFFFFFFFFFFFFFFFFFFF AND PUSH20 0xFFFFFFFFFFFFFFFFFFFFFFFFFFFFFFFFFFFFFFFF AND DUP2 MSTORE PUSH1 0x20 ADD SWAP1 DUP2 MSTORE PUSH1 0x20 ADD PUSH1 0x0 KECCAK256 DUP2 SWAP1 SSTORE POP DUP2 PUSH20 0xFFFFFFFFFFFFFFFFFFFFFFFFFFFFFFFFFFFFFFFF AND CALLER PUSH20 0xFFFFFFFFFFFFFFFFFFFFFFFFFFFFFFFFFFFFFFFF AND PUSH32 0x8C5BE1E5EBEC7D5BD14F71427D1E84F3DD0314C0F7B2291E5B200AC8C7C3B925 DUP4 PUSH1 0x40 MLOAD PUSH2 0x380 SWAP2 SWAP1 PUSH2 0xE9C JUMP JUMPDEST PUSH1 0x40 MLOAD DUP1 SWAP2 SUB SWAP1 LOG3 POP POP JUMP JUMPDEST PUSH1 0x0 SLOAD DUP2 JUMP JUMPDEST DUP1 PUSH1 0x5 PUSH1 0x0 DUP6 PUSH20 0xFFFFFFFFFFFFFFFFFFFFFFFFFFFFFFFFFFFFFFFF AND PUSH20 0xFFFFFFFFFFFFFFFFFFFFFFFFFFFFFFFFFFFFFFFF AND DUP2 MSTORE PUSH1 0x20 ADD SWAP1 DUP2 MSTORE PUSH1 0x20 ADD PUSH1 0x0 KECCAK256 SLOAD LT ISZERO DUP1 ISZERO PUSH2 0x45D JUMPI POP DUP1 PUSH1 0x6 PUSH1 0x0 DUP6 PUSH20 0xFFFFFFFFFFFFFFFFFFFFFFFFFFFFFFFFFFFFFFFF AND PUSH20 0xFFFFFFFFFFFFFFFFFFFFFFFFFFFFFFFFFFFFFFFF AND DUP2 MSTORE PUSH1 0x20 ADD SWAP1 DUP2 MSTORE PUSH1 0x20 ADD PUSH1 0x0 KECCAK256 PUSH1 0x0 CALLER PUSH20 0xFFFFFFFFFFFFFFFFFFFFFFFFFFFFFFFFFFFFFFFF AND PUSH20 0xFFFFFFFFFFFFFFFFFFFFFFFFFFFFFFFFFFFFFFFF AND DUP2 MSTORE PUSH1 0x20 ADD SWAP1 DUP2 MSTORE PUSH1 0x20 ADD PUSH1 0x0 KECCAK256 SLOAD LT ISZERO JUMPDEST DUP1 ISZERO PUSH2 0x469 JUMPI POP PUSH1 0x0 DUP2 GT JUMPDEST PUSH2 0x472 JUMPI PUSH1 0x0 DUP1 REVERT JUMPDEST PUSH2 0x4C4 DUP2 PUSH1 0x5 PUSH1 0x0 DUP6 PUSH20 0xFFFFFFFFFFFFFFFFFFFFFFFFFFFFFFFFFFFFFFFF AND PUSH20 0xFFFFFFFFFFFFFFFFFFFFFFFFFFFFFFFFFFFFFFFF AND DUP2 MSTORE PUSH1 0x20 ADD SWAP1 DUP2 MSTORE PUSH1 0x20 ADD PUSH1 0x0 KECCAK256 SLOAD PUSH2 0xC65 SWAP1 SWAP2 SWAP1 PUSH4 0xFFFFFFFF AND JUMP JUMPDEST PUSH1 0x5 PUSH1 0x0 DUP5 PUSH20 0xFFFFFFFFFFFFFFFFFFFFFFFFFFFFFFFFFFFFFFFF AND PUSH20 0xFFFFFFFFFFFFFFFFFFFFFFFFFFFFFFFFFFFFFFFF AND DUP2 MSTORE PUSH1 0x20 ADD SWAP1 DUP2 MSTORE PUSH1 0x20 ADD PUSH1 0x0 KECCAK256 DUP2 SWAP1 SSTORE POP PUSH2 0x559 DUP2 PUSH1 0x5 PUSH1 0x0 DUP7 PUSH20 0xFFFFFFFFFFFFFFFFFFFFFFFFFFFFFFFFFFFFFFFF AND PUSH20 0xFFFFFFFFFFFFFFFFFFFFFFFFFFFFFFFFFFFFFFFF AND DUP2 MSTORE PUSH1 0x20 ADD SWAP1 DUP2 MSTORE PUSH1 0x20 ADD PUSH1 0x0 KECCAK256 SLOAD PUSH2 0xC8D SWAP1 SWAP2 SWAP1 PUSH4 0xFFFFFFFF AND JUMP JUMPDEST PUSH1 0x5 PUSH1 0x0 DUP6 PUSH20 0xFFFFFFFFFFFFFFFFFFFFFFFFFFFFFFFFFFFFFFFF AND PUSH20 0xFFFFFFFFFFFFFFFFFFFFFFFFFFFFFFFFFFFFFFFF AND DUP2 MSTORE PUSH1 0x20 ADD SWAP1 DUP2 MSTORE PUSH1 0x20 ADD PUSH1 0x0 KECCAK256 DUP2 SWAP1 SSTORE POP PUSH2 0x62B DUP2 PUSH1 0x6 PUSH1 0x0 DUP7 PUSH20 0xFFFFFFFFFFFFFFFFFFFFFFFFFFFFFFFFFFFFFFFF AND PUSH20 0xFFFFFFFFFFFFFFFFFFFFFFFFFFFFFFFFFFFFFFFF AND DUP2 MSTORE PUSH1 0x20 ADD SWAP1 DUP2 MSTORE PUSH1 0x20 ADD PUSH1 0x0 KECCAK256 PUSH1 0x0 CALLER PUSH20 0xFFFFFFFFFFFFFFFFFFFFFFFFFFFFFFFFFFFFFFFF AND PUSH20 0xFFFFFFFFFFFFFFFFFFFFFFFFFFFFFFFFFFFFFFFF AND DUP2 MSTORE PUSH1 0x20 ADD SWAP1 DUP2 MSTORE PUSH1 0x20 ADD PUSH1 0x0 KECCAK256 SLOAD PUSH2 0xC8D SWAP1 SWAP2 SWAP1 PUSH4 0xFFFFFFFF AND JUMP JUMPDEST PUSH1 0x6 PUSH1 0x0 DUP6 PUSH20 0xFFFFFFFFFFFFFFFFFFFFFFFFFFFFFFFFFFFFFFFF AND PUSH20 0xFFFFFFFFFFFFFFFFFFFFFFFFFFFFFFFFFFFFFFFF AND DUP2 MSTORE PUSH1 0x20 ADD SWAP1 DUP2 MSTORE PUSH1 0x20 ADD PUSH1 0x0 KECCAK256 PUSH1 0x0 CALLER PUSH20 0xFFFFFFFFFFFFFFFFFFFFFFFFFFFFFFFFFFFFFFFF AND PUSH20 0xFFFFFFFFFFFFFFFFFFFFFFFFFFFFFFFFFFFFFFFF AND DUP2 MSTORE PUSH1 0x20 ADD SWAP1 DUP2 MSTORE PUSH1 0x20 ADD PUSH1 0x0 KECCAK256 DUP2 SWAP1 SSTORE POP DUP2 PUSH20 0xFFFFFFFFFFFFFFFFFFFFFFFFFFFFFFFFFFFFFFFF AND DUP4 PUSH20 0xFFFFFFFFFFFFFFFFFFFFFFFFFFFFFFFFFFFFFFFF AND PUSH32 0xDDF252AD1BE2C89B69C2B068FC378DAA952BA7F163C4A11628F55A4DF523B3EF DUP4 PUSH1 0x40 MLOAD PUSH2 0x708 SWAP2 SWAP1 PUSH2 0xE9C JUMP JUMPDEST PUSH1 0x40 MLOAD DUP1 SWAP2 SUB SWAP1 LOG3 POP POP POP JUMP JUMPDEST PUSH1 0x2 PUSH1 0x0 SWAP1 SLOAD SWAP1 PUSH2 0x100 EXP SWAP1 DIV PUSH1 0xFF AND DUP2 JUMP JUMPDEST PUSH1 0x0 PUSH20 0xFFFFFFFFFFFFFFFFFFFFFFFFFFFFFFFFFFFFFFFF AND DUP3 PUSH20 0xFFFFFFFFFFFFFFFFFFFFFFFFFFFFFFFFFFFFFFFF AND EQ ISZERO PUSH2 0x798 JUMPI PUSH1 0x40 MLOAD PUSH32 0x8C379A000000000000000000000000000000000000000000000000000000000 DUP2 MSTORE PUSH1 0x4 ADD PUSH2 0x78F SWAP1 PUSH2 0xE7C JUMP JUMPDEST PUSH1 0x40 MLOAD DUP1 SWAP2 SUB SWAP1 REVERT JUMPDEST PUSH2 0x7AD DUP2 PUSH1 0x0 SLOAD PUSH2 0xC65 SWAP1 SWAP2 SWAP1 PUSH4 0xFFFFFFFF AND JUMP JUMPDEST POP PUSH2 0x800 DUP2 PUSH1 0x5 PUSH1 0x0 DUP6 PUSH20 0xFFFFFFFFFFFFFFFFFFFFFFFFFFFFFFFFFFFFFFFF AND PUSH20 0xFFFFFFFFFFFFFFFFFFFFFFFFFFFFFFFFFFFFFFFF AND DUP2 MSTORE PUSH1 0x20 ADD SWAP1 DUP2 MSTORE PUSH1 0x20 ADD PUSH1 0x0 KECCAK256 SLOAD PUSH2 0xC65 SWAP1 SWAP2 SWAP1 PUSH4 0xFFFFFFFF AND JUMP JUMPDEST POP DUP2 PUSH20 0xFFFFFFFFFFFFFFFFFFFFFFFFFFFFFFFFFFFFFFFF AND PUSH1 0x0 PUSH20 0xFFFFFFFFFFFFFFFFFFFFFFFFFFFFFFFFFFFFFFFF AND PUSH32 0xDDF252AD1BE2C89B69C2B068FC378DAA952BA7F163C4A11628F55A4DF523B3EF DUP4 PUSH1 0x40 MLOAD PUSH2 0x85F SWAP2 SWAP1 PUSH2 0xE9C JUMP JUMPDEST PUSH1 0x40 MLOAD DUP1 SWAP2 SUB SWAP1 LOG3 POP POP JUMP JUMPDEST PUSH1 0x4 DUP1 SLOAD PUSH2 0x878 SWAP1 PUSH2 0xFF4 JUMP JUMPDEST DUP1 PUSH1 0x1F ADD PUSH1 0x20 DUP1 SWAP2 DIV MUL PUSH1 0x20 ADD PUSH1 0x40 MLOAD SWAP1 DUP2 ADD PUSH1 0x40 MSTORE DUP1 SWAP3 SWAP2 SWAP1 DUP2 DUP2 MSTORE PUSH1 0x20 ADD DUP3 DUP1 SLOAD PUSH2 0x8A4 SWAP1 PUSH2 0xFF4 JUMP JUMPDEST DUP1 ISZERO PUSH2 0x8F1 JUMPI DUP1 PUSH1 0x1F LT PUSH2 0x8C6 JUMPI PUSH2 0x100 DUP1 DUP4 SLOAD DIV MUL DUP4 MSTORE SWAP2 PUSH1 0x20 ADD SWAP2 PUSH2 0x8F1 JUMP JUMPDEST DUP3 ADD SWAP2 SWAP1 PUSH1 0x0 MSTORE PUSH1 0x20 PUSH1 0x0 KECCAK256 SWAP1 JUMPDEST DUP2 SLOAD DUP2 MSTORE SWAP1 PUSH1 0x1 ADD SWAP1 PUSH1 0x20 ADD DUP1 DUP4 GT PUSH2 0x8D4 JUMPI DUP3 SWAP1 SUB PUSH1 0x1F AND DUP3 ADD SWAP2 JUMPDEST POP POP POP POP POP DUP2 JUMP JUMPDEST PUSH1 0x0 PUSH1 0x5 PUSH1 0x0 DUP4 PUSH20 0xFFFFFFFFFFFFFFFFFFFFFFFFFFFFFFFFFFFFFFFF AND PUSH20 0xFFFFFFFFFFFFFFFFFFFFFFFFFFFFFFFFFFFFFFFF AND DUP2 MSTORE PUSH1 0x20 ADD SWAP1 DUP2 MSTORE PUSH1 0x20 ADD PUSH1 0x0 KECCAK256 SLOAD SWAP1 POP SWAP2 SWAP1 POP JUMP JUMPDEST PUSH1 0x3 DUP1 SLOAD PUSH2 0x94F SWAP1 PUSH2 0xFF4 JUMP JUMPDEST DUP1 PUSH1 0x1F ADD PUSH1 0x20 DUP1 SWAP2 DIV MUL PUSH1 0x20 ADD PUSH1 0x40 MLOAD SWAP1 DUP2 ADD PUSH1 0x40 MSTORE DUP1 SWAP3 SWAP2 SWAP1 DUP2 DUP2 MSTORE PUSH1 0x20 ADD DUP3 DUP1 SLOAD PUSH2 0x97B SWAP1 PUSH2 0xFF4 JUMP JUMPDEST DUP1 ISZERO PUSH2 0x9C8 JUMPI DUP1 PUSH1 0x1F LT PUSH2 0x99D JUMPI PUSH2 0x100 DUP1 DUP4 SLOAD DIV MUL DUP4 MSTORE SWAP2 PUSH1 0x20 ADD SWAP2 PUSH2 0x9C8 JUMP JUMPDEST DUP3 ADD SWAP2 SWAP1 PUSH1 0x0 MSTORE PUSH1 0x20 PUSH1 0x0 KECCAK256 SWAP1 JUMPDEST DUP2 SLOAD DUP2 MSTORE SWAP1 PUSH1 0x1 ADD SWAP1 PUSH1 0x20 ADD DUP1 DUP4 GT PUSH2 0x9AB JUMPI DUP3 SWAP1 SUB PUSH1 0x1F AND DUP3 ADD SWAP2 JUMPDEST POP POP POP POP POP DUP2 JUMP JUMPDEST PUSH1 0x40 PUSH1 0x4 DUP2 PUSH2 0x9DF SWAP2 SWAP1 PUSH2 0xEEE JUMP JUMPDEST PUSH1 0x0 CALLDATASIZE SWAP1 POP EQ PUSH2 0x9F2 JUMPI PUSH2 0x9F1 PUSH2 0x1026 JUMP JUMPDEST JUMPDEST DUP2 PUSH1 0x5 PUSH1 0x0 CALLER PUSH20 0xFFFFFFFFFFFFFFFFFFFFFFFFFFFFFFFFFFFFFFFF AND PUSH20 0xFFFFFFFFFFFFFFFFFFFFFFFFFFFFFFFFFFFFFFFF AND DUP2 MSTORE PUSH1 0x20 ADD SWAP1 DUP2 MSTORE PUSH1 0x20 ADD PUSH1 0x0 KECCAK256 SLOAD LT ISZERO DUP1 ISZERO PUSH2 0xA41 JUMPI POP PUSH1 0x0 DUP3 GT JUMPDEST PUSH2 0xA4A JUMPI PUSH1 0x0 DUP1 REVERT JUMPDEST PUSH2 0xA9C DUP3 PUSH1 0x5 PUSH1 0x0 CALLER PUSH20 0xFFFFFFFFFFFFFFFFFFFFFFFFFFFFFFFFFFFFFFFF AND PUSH20 0xFFFFFFFFFFFFFFFFFFFFFFFFFFFFFFFFFFFFFFFF AND DUP2 MSTORE PUSH1 0x20 ADD SWAP1 DUP2 MSTORE PUSH1 0x20 ADD PUSH1 0x0 KECCAK256 SLOAD PUSH2 0xC8D SWAP1 SWAP2 SWAP1 PUSH4 0xFFFFFFFF AND JUMP JUMPDEST PUSH1 0x5 PUSH1 0x0 CALLER PUSH20 0xFFFFFFFFFFFFFFFFFFFFFFFFFFFFFFFFFFFFFFFF AND PUSH20 0xFFFFFFFFFFFFFFFFFFFFFFFFFFFFFFFFFFFFFFFF AND DUP2 MSTORE PUSH1 0x20 ADD SWAP1 DUP2 MSTORE PUSH1 0x20 ADD PUSH1 0x0 KECCAK256 DUP2 SWAP1 SSTORE POP PUSH2 0xB31 DUP3 PUSH1 0x5 PUSH1 0x0 DUP7 PUSH20 0xFFFFFFFFFFFFFFFFFFFFFFFFFFFFFFFFFFFFFFFF AND PUSH20 0xFFFFFFFFFFFFFFFFFFFFFFFFFFFFFFFFFFFFFFFF AND DUP2 MSTORE PUSH1 0x20 ADD SWAP1 DUP2 MSTORE PUSH1 0x20 ADD PUSH1 0x0 KECCAK256 SLOAD PUSH2 0xC65 SWAP1 SWAP2 SWAP1 PUSH4 0xFFFFFFFF AND JUMP JUMPDEST PUSH1 0x5 PUSH1 0x0 DUP6 PUSH20 0xFFFFFFFFFFFFFFFFFFFFFFFFFFFFFFFFFFFFFFFF AND PUSH20 0xFFFFFFFFFFFFFFFFFFFFFFFFFFFFFFFFFFFFFFFF AND DUP2 MSTORE PUSH1 0x20 ADD SWAP1 DUP2 MSTORE PUSH1 0x20 ADD PUSH1 0x0 KECCAK256 DUP2 SWAP1 SSTORE POP DUP3 PUSH20 0xFFFFFFFFFFFFFFFFFFFFFFFFFFFFFFFFFFFFFFFF AND CALLER PUSH20 0xFFFFFFFFFFFFFFFFFFFFFFFFFFFFFFFFFFFFFFFF AND PUSH32 0xDDF252AD1BE2C89B69C2B068FC378DAA952BA7F163C4A11628F55A4DF523B3EF DUP5 PUSH1 0x40 MLOAD PUSH2 0xBD1 SWAP2 SWAP1 PUSH2 0xE9C JUMP JUMPDEST PUSH1 0x40 MLOAD DUP1 SWAP2 SUB SWAP1 LOG3 POP POP POP JUMP JUMPDEST PUSH1 0x0 PUSH1 0x6 PUSH1 0x0 DUP4 PUSH20 0xFFFFFFFFFFFFFFFFFFFFFFFFFFFFFFFFFFFFFFFF AND PUSH20 0xFFFFFFFFFFFFFFFFFFFFFFFFFFFFFFFFFFFFFFFF AND DUP2 MSTORE PUSH1 0x20 ADD SWAP1 DUP2 MSTORE PUSH1 0x20 ADD PUSH1 0x0 KECCAK256 PUSH1 0x0 DUP5 PUSH20 0xFFFFFFFFFFFFFFFFFFFFFFFFFFFFFFFFFFFFFFFF AND PUSH20 0xFFFFFFFFFFFFFFFFFFFFFFFFFFFFFFFFFFFFFFFF AND DUP2 MSTORE PUSH1 0x20 ADD SWAP1 DUP2 MSTORE PUSH1 0x20 ADD PUSH1 0x0 KECCAK256 SLOAD SWAP1 POP SWAP3 SWAP2 POP POP JUMP JUMPDEST PUSH1 0x0 DUP1 DUP3 DUP5 PUSH2 0xC74 SWAP2 SWAP1 PUSH2 0xEEE JUMP JUMPDEST SWAP1 POP DUP4 DUP2 LT ISZERO PUSH2 0xC83 JUMPI PUSH1 0x0 DUP1 REVERT JUMPDEST DUP1 SWAP2 POP POP SWAP3 SWAP2 POP POP JUMP JUMPDEST PUSH1 0x0 DUP3 DUP3 GT ISZERO PUSH2 0xC9C JUMPI PUSH1 0x0 DUP1 REVERT JUMPDEST PUSH1 0x0 DUP3 DUP5 PUSH2 0xCAA SWAP2 SWAP1 PUSH2 0xF44 JUMP JUMPDEST SWAP1 POP DUP1 SWAP2 POP POP SWAP3 SWAP2 POP POP JUMP JUMPDEST PUSH1 0x0 DUP2 CALLDATALOAD SWAP1 POP PUSH2 0xCC5 DUP2 PUSH2 0x10F2 JUMP JUMPDEST SWAP3 SWAP2 POP POP JUMP JUMPDEST PUSH1 0x0 DUP2 CALLDATALOAD SWAP1 POP PUSH2 0xCDA DUP2 PUSH2 0x1109 JUMP JUMPDEST SWAP3 SWAP2 POP POP JUMP JUMPDEST PUSH1 0x0 PUSH1 0x20 DUP3 DUP5 SUB SLT ISZERO PUSH2 0xCF6 JUMPI PUSH2 0xCF5 PUSH2 0x10B3 JUMP JUMPDEST JUMPDEST PUSH1 0x0 PUSH2 0xD04 DUP5 DUP3 DUP6 ADD PUSH2 0xCB6 JUMP JUMPDEST SWAP2 POP POP SWAP3 SWAP2 POP POP JUMP JUMPDEST PUSH1 0x0 DUP1 PUSH1 0x40 DUP4 DUP6 SUB SLT ISZERO PUSH2 0xD24 JUMPI PUSH2 0xD23 PUSH2 0x10B3 JUMP JUMPDEST JUMPDEST PUSH1 0x0 PUSH2 0xD32 DUP6 DUP3 DUP7 ADD PUSH2 0xCB6 JUMP JUMPDEST SWAP3 POP POP PUSH1 0x20 PUSH2 0xD43 DUP6 DUP3 DUP7 ADD PUSH2 0xCB6 JUMP JUMPDEST SWAP2 POP POP SWAP3 POP SWAP3 SWAP1 POP JUMP JUMPDEST PUSH1 0x0 DUP1 PUSH1 0x0 PUSH1 0x60 DUP5 DUP7 SUB SLT ISZERO PUSH2 0xD66 JUMPI PUSH2 0xD65 PUSH2 0x10B3 JUMP JUMPDEST JUMPDEST PUSH1 0x0 PUSH2 0xD74 DUP7 DUP3 DUP8 ADD PUSH2 0xCB6 JUMP JUMPDEST SWAP4 POP POP PUSH1 0x20 PUSH2 0xD85 DUP7 DUP3 DUP8 ADD PUSH2 0xCB6 JUMP JUMPDEST SWAP3 POP POP PUSH1 0x40 PUSH2 0xD96 DUP7 DUP3 DUP8 ADD PUSH2 0xCCB JUMP JUMPDEST SWAP2 POP POP SWAP3 POP SWAP3 POP SWAP3 JUMP JUMPDEST PUSH1 0x0 DUP1 PUSH1 0x40 DUP4 DUP6 SUB SLT ISZERO PUSH2 0xDB7 JUMPI PUSH2 0xDB6 PUSH2 0x10B3 JUMP JUMPDEST JUMPDEST PUSH1 0x0 PUSH2 0xDC5 DUP6 DUP3 DUP7 ADD PUSH2 0xCB6 JUMP JUMPDEST SWAP3 POP POP PUSH1 0x20 PUSH2 0xDD6 DUP6 DUP3 DUP7 ADD PUSH2 0xCCB JUMP JUMPDEST SWAP2 POP POP SWAP3 POP SWAP3 SWAP1 POP JUMP JUMPDEST PUSH1 0x0 PUSH2 0xDEB DUP3 PUSH2 0xED2 JUMP JUMPDEST PUSH2 0xDF5 DUP2 DUP6 PUSH2 0xEDD JUMP JUMPDEST SWAP4 POP PUSH2 0xE05 DUP2 DUP6 PUSH1 0x20 DUP7 ADD PUSH2 0xFC1 JUMP JUMPDEST PUSH2 0xE0E DUP2 PUSH2 0x10B8 JUMP JUMPDEST DUP5 ADD SWAP2 POP POP SWAP3 SWAP2 POP POP JUMP JUMPDEST PUSH1 0x0 PUSH2 0xE26 PUSH1 0x1F DUP4 PUSH2 0xEDD JUMP JUMPDEST SWAP2 POP PUSH2 0xE31 DUP3 PUSH2 0x10C9 JUMP JUMPDEST PUSH1 0x20 DUP3 ADD SWAP1 POP SWAP2 SWAP1 POP JUMP JUMPDEST PUSH2 0xE45 DUP2 PUSH2 0xFAA JUMP JUMPDEST DUP3 MSTORE POP POP JUMP JUMPDEST PUSH2 0xE54 DUP2 PUSH2 0xFB4 JUMP JUMPDEST DUP3 MSTORE POP POP JUMP JUMPDEST PUSH1 0x0 PUSH1 0x20 DUP3 ADD SWAP1 POP DUP2 DUP2 SUB PUSH1 0x0 DUP4 ADD MSTORE PUSH2 0xE74 DUP2 DUP5 PUSH2 0xDE0 JUMP JUMPDEST SWAP1 POP SWAP3 SWAP2 POP POP JUMP JUMPDEST PUSH1 0x0 PUSH1 0x20 DUP3 ADD SWAP1 POP DUP2 DUP2 SUB PUSH1 0x0 DUP4 ADD MSTORE PUSH2 0xE95 DUP2 PUSH2 0xE19 JUMP JUMPDEST SWAP1 POP SWAP2 SWAP1 POP JUMP JUMPDEST PUSH1 0x0 PUSH1 0x20 DUP3 ADD SWAP1 POP PUSH2 0xEB1 PUSH1 0x0 DUP4 ADD DUP5 PUSH2 0xE3C JUMP JUMPDEST SWAP3 SWAP2 POP POP JUMP JUMPDEST PUSH1 0x0 PUSH1 0x20 DUP3 ADD SWAP1 POP PUSH2 0xECC PUSH1 0x0 DUP4 ADD DUP5 PUSH2 0xE4B JUMP JUMPDEST SWAP3 SWAP2 POP POP JUMP JUMPDEST PUSH1 0x0 DUP2 MLOAD SWAP1 POP SWAP2 SWAP1 POP JUMP JUMPDEST PUSH1 0x0 DUP3 DUP3 MSTORE PUSH1 0x20 DUP3 ADD SWAP1 POP SWAP3 SWAP2 POP POP JUMP JUMPDEST PUSH1 0x0 PUSH2 0xEF9 DUP3 PUSH2 0xFAA JUMP JUMPDEST SWAP2 POP PUSH2 0xF04 DUP4 PUSH2 0xFAA JUMP JUMPDEST SWAP3 POP DUP3 PUSH32 0xFFFFFFFFFFFFFFFFFFFFFFFFFFFFFFFFFFFFFFFFFFFFFFFFFFFFFFFFFFFFFFFF SUB DUP3 GT ISZERO PUSH2 0xF39 JUMPI PUSH2 0xF38 PUSH2 0x1055 JUMP JUMPDEST JUMPDEST DUP3 DUP3 ADD SWAP1 POP SWAP3 SWAP2 POP POP JUMP JUMPDEST PUSH1 0x0 PUSH2 0xF4F DUP3 PUSH2 0xFAA JUMP JUMPDEST SWAP2 POP PUSH2 0xF5A DUP4 PUSH2 0xFAA JUMP JUMPDEST SWAP3 POP DUP3 DUP3 LT ISZERO PUSH2 0xF6D JUMPI PUSH2 0xF6C PUSH2 0x1055 JUMP JUMPDEST JUMPDEST DUP3 DUP3 SUB SWAP1 POP SWAP3 SWAP2 POP POP JUMP JUMPDEST PUSH1 0x0 PUSH2 0xF83 DUP3 PUSH2 0xF8A JUMP JUMPDEST SWAP1 POP SWAP2 SWAP1 POP JUMP JUMPDEST PUSH1 0x0 PUSH20 0xFFFFFFFFFFFFFFFFFFFFFFFFFFFFFFFFFFFFFFFF DUP3 AND SWAP1 POP SWAP2 SWAP1 POP JUMP JUMPDEST PUSH1 0x0 DUP2 SWAP1 POP SWAP2 SWAP1 POP JUMP JUMPDEST PUSH1 0x0 PUSH1 0xFF DUP3 AND SWAP1 POP SWAP2 SWAP1 POP JUMP JUMPDEST PUSH1 0x0 JUMPDEST DUP4 DUP2 LT ISZERO PUSH2 0xFDF JUMPI DUP1 DUP3 ADD MLOAD DUP2 DUP5 ADD MSTORE PUSH1 0x20 DUP2 ADD SWAP1 POP PUSH2 0xFC4 JUMP JUMPDEST DUP4 DUP2 GT ISZERO PUSH2 0xFEE JUMPI PUSH1 0x0 DUP5 DUP5 ADD MSTORE JUMPDEST POP POP POP POP JUMP JUMPDEST PUSH1 0x0 PUSH1 0x2 DUP3 DIV SWAP1 POP PUSH1 0x1 DUP3 AND DUP1 PUSH2 0x100C JUMPI PUSH1 0x7F DUP3 AND SWAP2 POP JUMPDEST PUSH1 0x20 DUP3 LT DUP2 EQ ISZERO PUSH2 0x1020 JUMPI PUSH2 0x101F PUSH2 0x1084 JUMP JUMPDEST JUMPDEST POP SWAP2 SWAP1 POP JUMP JUMPDEST PUSH32 0x4E487B7100000000000000000000000000000000000000000000000000000000 PUSH1 0x0 MSTORE PUSH1 0x1 PUSH1 0x4 MSTORE PUSH1 0x24 PUSH1 0x0 REVERT JUMPDEST PUSH32 0x4E487B7100000000000000000000000000000000000000000000000000000000 PUSH1 0x0 MSTORE PUSH1 0x11 PUSH1 0x4 MSTORE PUSH1 0x24 PUSH1 0x0 REVERT JUMPDEST PUSH32 0x4E487B7100000000000000000000000000000000000000000000000000000000 PUSH1 0x0 MSTORE PUSH1 0x22 PUSH1 0x4 MSTORE PUSH1 0x24 PUSH1 0x0 REVERT JUMPDEST PUSH1 0x0 DUP1 REVERT JUMPDEST PUSH1 0x0 PUSH1 0x1F NOT PUSH1 0x1F DUP4 ADD AND SWAP1 POP SWAP2 SWAP1 POP JUMP JUMPDEST PUSH32 0x45524332303A206D696E7420746F20746865207A65726F206164647265737300 PUSH1 0x0 DUP3 ADD MSTORE POP JUMP JUMPDEST PUSH2 0x10FB DUP2 PUSH2 0xF78 JUMP JUMPDEST DUP2 EQ PUSH2 0x1106 JUMPI PUSH1 0x0 DUP1 REVERT JUMPDEST POP JUMP JUMPDEST PUSH2 0x1112 DUP2 PUSH2 0xFAA JUMP JUMPDEST DUP2 EQ PUSH2 0x111D JUMPI PUSH1 0x0 DUP1 REVERT JUMPDEST POP JUMP INVALID LOG2 PUSH5 0x6970667358 0x22 SLT KECCAK256 0x22 EXTCODESIZE SLT DUP4 RETURNDATACOPY GASPRICE 0xAD PUSH23 0xCBCF7360605DC18EA4B58A81EF39E218B1A06F301CFEE7 RETURNDATACOPY PUSH5 0x736F6C6343 STOP ADDMOD SMOD STOP CALLER "
				},
				"gasEstimates": {
					"creation": {
						"codeDepositCost": "855800",
						"executionCost": "infinite",
						"totalCost": "infinite"
					},
					"external": {
						"addProposals(address[],string[])": "infinite",
						"addVoters(address[])": "infinite",
						"totalVotesFor(address)": "infinite",
						"vote(address)": "infinite"
					}
				},
				"methodIdentifiers": {
					"addProposals(address[],string[])": "633fff16",
					"addVoters(address[])": "8203373a",
					"totalVotesFor(address)": "4041ef54",
					"vote(address)": "6dd7d8ea"
				}
			},
			"storageLayout": {
				"storage": [
					{
						"astId": 443,
						"contract": "contracts/Voting.sol:Voting",
						"label": "startTime",
						"offset": 0,
						"slot": "0",
						"type": "t_uint256"
					},
					{
						"astId": 445,
						"contract": "contracts/Voting.sol:Voting",
						"label": "endTime",
						"offset": 0,
						"slot": "1",
						"type": "t_uint256"
					},
					{
						"astId": 449,
						"contract": "contracts/Voting.sol:Voting",
						"label": "voters",
						"offset": 0,
						"slot": "2",
						"type": "t_mapping(t_address,t_bool)"
					},
					{
						"astId": 453,
						"contract": "contracts/Voting.sol:Voting",
						"label": "proposals",
						"offset": 0,
						"slot": "3",
						"type": "t_mapping(t_address,t_string_storage)"
					},
					{
						"astId": 455,
						"contract": "contracts/Voting.sol:Voting",
						"label": "chairperson",
						"offset": 0,
						"slot": "4",
						"type": "t_address"
					},
					{
						"astId": 462,
						"contract": "contracts/Voting.sol:Voting",
						"label": "token",
						"offset": 0,
						"slot": "5",
						"type": "t_contract(Token)438"
					}
				],
				"types": {
					"t_address": {
						"encoding": "inplace",
						"label": "address",
						"numberOfBytes": "20"
					},
					"t_bool": {
						"encoding": "inplace",
						"label": "bool",
						"numberOfBytes": "1"
					},
					"t_contract(Token)438": {
						"encoding": "inplace",
						"label": "contract Token",
						"numberOfBytes": "20"
					},
					"t_mapping(t_address,t_bool)": {
						"encoding": "mapping",
						"key": "t_address",
						"label": "mapping(address => bool)",
						"numberOfBytes": "32",
						"value": "t_bool"
					},
					"t_mapping(t_address,t_string_storage)": {
						"encoding": "mapping",
						"key": "t_address",
						"label": "mapping(address => string)",
						"numberOfBytes": "32",
						"value": "t_string_storage"
					},
					"t_string_storage": {
						"encoding": "bytes",
						"label": "string",
						"numberOfBytes": "32"
					},
					"t_uint256": {
						"encoding": "inplace",
						"label": "uint256",
						"numberOfBytes": "32"
					}
				}
			},
			"userdoc": {
				"kind": "user",
				"methods": {},
				"version": 1
			}
		}
	}
}