{
	"contracts/Voting.sol": {
		"Voting": {
			"abi": [
				{
					"inputs": [],
					"stateMutability": "nonpayable",
					"type": "constructor"
				},
				{
					"inputs": [
						{
							"internalType": "address[]",
							"name": "_proposalsAddr",
							"type": "address[]"
						},
						{
							"internalType": "string[]",
							"name": "_proposalsNames",
							"type": "string[]"
						}
					],
					"name": "addProposals",
					"outputs": [],
					"stateMutability": "nonpayable",
					"type": "function"
				},
				{
					"inputs": [
						{
							"internalType": "address",
							"name": "voter",
							"type": "address"
						}
					],
					"name": "addVote",
					"outputs": [],
					"stateMutability": "nonpayable",
					"type": "function"
				},
				{
					"inputs": [
						{
							"internalType": "address[]",
							"name": "_voters",
							"type": "address[]"
						}
					],
					"name": "addVoters",
					"outputs": [],
					"stateMutability": "nonpayable",
					"type": "function"
				},
				{
					"inputs": [],
					"name": "balanceAndAmount",
					"outputs": [
						{
							"internalType": "uint256",
							"name": "",
							"type": "uint256"
						},
						{
							"internalType": "uint256",
							"name": "",
							"type": "uint256"
						},
						{
							"internalType": "bool",
							"name": "",
							"type": "bool"
						}
					],
					"stateMutability": "view",
					"type": "function"
				},
				{
					"inputs": [],
					"name": "getTotalSupply",
					"outputs": [
						{
							"internalType": "uint256",
							"name": "",
							"type": "uint256"
						}
					],
					"stateMutability": "view",
					"type": "function"
				},
				{
					"inputs": [
						{
							"internalType": "address",
							"name": "proposal",
							"type": "address"
						}
					],
					"name": "totalVotesFor",
					"outputs": [
						{
							"internalType": "uint256",
							"name": "",
							"type": "uint256"
						}
					],
					"stateMutability": "view",
					"type": "function"
				},
				{
					"inputs": [
						{
							"internalType": "address",
							"name": "proposal",
							"type": "address"
						}
					],
					"name": "vote",
					"outputs": [],
					"stateMutability": "nonpayable",
					"type": "function"
				}
			],
			"devdoc": {
				"kind": "dev",
				"methods": {},
				"version": 1
			},
			"evm": {
				"assembly": "    /* \"contracts/Voting.sol\":91:2221  contract Voting {\r... */\n  mstore(0x40, 0x80)\n    /* \"contracts/Voting.sol\":289:300  new Token() */\n  mload(0x40)\n  tag_1\n  swap1\n  tag_2\n  jump\t// in\ntag_1:\n  mload(0x40)\n  dup1\n  swap2\n  sub\n  swap1\n  0x00\n  create\n  dup1\n  iszero\n  dup1\n  iszero\n  tag_3\n  jumpi\n  returndatasize\n  0x00\n  dup1\n  returndatacopy\n  revert(0x00, returndatasize)\ntag_3:\n  pop\n    /* \"contracts/Voting.sol\":275:300  Token token = new Token() */\n  0x05\n  exp(0x0100, 0x00)\n  dup2\n  sload\n  dup2\n  0xffffffffffffffffffffffffffffffffffffffff\n  mul\n  not\n  and\n  swap1\n  dup4\n  0xffffffffffffffffffffffffffffffffffffffff\n  and\n  mul\n  or\n  swap1\n  sstore\n  pop\n    /* \"contracts/Voting.sol\":309:441  constructor () {\r... */\n  callvalue\n  dup1\n  iszero\n  tag_4\n  jumpi\n  0x00\n  dup1\n  revert\ntag_4:\n  pop\n    /* \"contracts/Voting.sol\":351:361  msg.sender */\n  caller\n    /* \"contracts/Voting.sol\":337:348  chairperson */\n  0x04\n  0x00\n    /* \"contracts/Voting.sol\":337:361  chairperson = msg.sender */\n  0x0100\n  exp\n  dup2\n  sload\n  dup2\n  0xffffffffffffffffffffffffffffffffffffffff\n  mul\n  not\n  and\n  swap1\n  dup4\n  0xffffffffffffffffffffffffffffffffffffffff\n  and\n  mul\n  or\n  swap1\n  sstore\n  pop\n    /* \"contracts/Voting.sol\":384:394  1650398218 */\n  0x625f140a\n    /* \"contracts/Voting.sol\":372:381  startTime */\n  0x00\n    /* \"contracts/Voting.sol\":372:394  startTime = 1650398218 */\n  dup2\n  swap1\n  sstore\n  pop\n    /* \"contracts/Voting.sol\":427:433  5 days */\n  0x069780\n    /* \"contracts/Voting.sol\":415:424  startTime */\n  sload(0x00)\n    /* \"contracts/Voting.sol\":415:433  startTime + 5 days */\n  tag_7\n  swap2\n  swap1\n  tag_8\n  jump\t// in\ntag_7:\n    /* \"contracts/Voting.sol\":405:412  endTime */\n  0x01\n    /* \"contracts/Voting.sol\":405:433  endTime = startTime + 5 days */\n  dup2\n  swap1\n  sstore\n  pop\n    /* \"contracts/Voting.sol\":91:2221  contract Voting {\r... */\n  jump(tag_9)\ntag_2:\n  dataSize(sub_1)\n  dup1\n  dataOffset(sub_1)\n  dup4\n  codecopy\n  add\n  swap1\n  jump\t// out\n    /* \"#utility.yul\":7:312   */\ntag_8:\n    /* \"#utility.yul\":47:50   */\n  0x00\n    /* \"#utility.yul\":66:86   */\n  tag_12\n    /* \"#utility.yul\":84:85   */\n  dup3\n    /* \"#utility.yul\":66:86   */\n  tag_13\n  jump\t// in\ntag_12:\n    /* \"#utility.yul\":61:86   */\n  swap2\n  pop\n    /* \"#utility.yul\":100:120   */\n  tag_14\n    /* \"#utility.yul\":118:119   */\n  dup4\n    /* \"#utility.yul\":100:120   */\n  tag_13\n  jump\t// in\ntag_14:\n    /* \"#utility.yul\":95:120   */\n  swap3\n  pop\n    /* \"#utility.yul\":254:255   */\n  dup3\n    /* \"#utility.yul\":186:252   */\n  0xffffffffffffffffffffffffffffffffffffffffffffffffffffffffffffffff\n    /* \"#utility.yul\":182:256   */\n  sub\n    /* \"#utility.yul\":179:180   */\n  dup3\n    /* \"#utility.yul\":176:257   */\n  gt\n    /* \"#utility.yul\":173:280   */\n  iszero\n  tag_15\n  jumpi\n    /* \"#utility.yul\":260:278   */\n  tag_16\n  tag_17\n  jump\t// in\ntag_16:\n    /* \"#utility.yul\":173:280   */\ntag_15:\n    /* \"#utility.yul\":304:305   */\n  dup3\n    /* \"#utility.yul\":301:302   */\n  dup3\n    /* \"#utility.yul\":297:306   */\n  add\n    /* \"#utility.yul\":290:306   */\n  swap1\n  pop\n    /* \"#utility.yul\":7:312   */\n  swap3\n  swap2\n  pop\n  pop\n  jump\t// out\n    /* \"#utility.yul\":318:395   */\ntag_13:\n    /* \"#utility.yul\":355:362   */\n  0x00\n    /* \"#utility.yul\":384:389   */\n  dup2\n    /* \"#utility.yul\":373:389   */\n  swap1\n  pop\n    /* \"#utility.yul\":318:395   */\n  swap2\n  swap1\n  pop\n  jump\t// out\n    /* \"#utility.yul\":401:581   */\ntag_17:\n    /* \"#utility.yul\":449:526   */\n  0x4e487b7100000000000000000000000000000000000000000000000000000000\n    /* \"#utility.yul\":446:447   */\n  0x00\n    /* \"#utility.yul\":439:527   */\n  mstore\n    /* \"#utility.yul\":546:550   */\n  0x11\n    /* \"#utility.yul\":543:544   */\n  0x04\n    /* \"#utility.yul\":536:551   */\n  mstore\n    /* \"#utility.yul\":570:574   */\n  0x24\n    /* \"#utility.yul\":567:568   */\n  0x00\n    /* \"#utility.yul\":560:575   */\n  revert\n    /* \"contracts/Voting.sol\":91:2221  contract Voting {\r... */\ntag_9:\n  dataSize(sub_0)\n  dup1\n  dataOffset(sub_0)\n  0x00\n  codecopy\n  0x00\n  return\nstop\n\nsub_0: assembly {\n        /* \"contracts/Voting.sol\":91:2221  contract Voting {\r... */\n      mstore(0x40, 0x80)\n      callvalue\n      dup1\n      iszero\n      tag_1\n      jumpi\n      0x00\n      dup1\n      revert\n    tag_1:\n      pop\n      jumpi(tag_2, lt(calldatasize, 0x04))\n      shr(0xe0, calldataload(0x00))\n      dup1\n      0x6cea0e46\n      gt\n      tag_10\n      jumpi\n      dup1\n      0x6cea0e46\n      eq\n      tag_6\n      jumpi\n      dup1\n      0x6dd7d8ea\n      eq\n      tag_7\n      jumpi\n      dup1\n      0x8203373a\n      eq\n      tag_8\n      jumpi\n      dup1\n      0xc4e41b22\n      eq\n      tag_9\n      jumpi\n      jump(tag_2)\n    tag_10:\n      dup1\n      0x21214986\n      eq\n      tag_3\n      jumpi\n      dup1\n      0x4041ef54\n      eq\n      tag_4\n      jumpi\n      dup1\n      0x633fff16\n      eq\n      tag_5\n      jumpi\n    tag_2:\n      0x00\n      dup1\n      revert\n        /* \"contracts/Voting.sol\":1667:1875  function balanceAndAmount() view public returns (uint, uint, bool) {\r... */\n    tag_3:\n      tag_11\n      tag_12\n      jump\t// in\n    tag_11:\n      mload(0x40)\n      tag_13\n      swap4\n      swap3\n      swap2\n      swap1\n      tag_14\n      jump\t// in\n    tag_13:\n      mload(0x40)\n      dup1\n      swap2\n      sub\n      swap1\n      return\n        /* \"contracts/Voting.sol\":1883:2102  function totalVotesFor(address proposal) view public returns (uint256) {\r... */\n    tag_4:\n      tag_15\n      0x04\n      dup1\n      calldatasize\n      sub\n      dup2\n      add\n      swap1\n      tag_16\n      swap2\n      swap1\n      tag_17\n      jump\t// in\n    tag_16:\n      tag_18\n      jump\t// in\n    tag_15:\n      mload(0x40)\n      tag_19\n      swap2\n      swap1\n      tag_20\n      jump\t// in\n    tag_19:\n      mload(0x40)\n      dup1\n      swap2\n      sub\n      swap1\n      return\n        /* \"contracts/Voting.sol\":871:1231  function addProposals(address[] memory _proposalsAddr, \r... */\n    tag_5:\n      tag_21\n      0x04\n      dup1\n      calldatasize\n      sub\n      dup2\n      add\n      swap1\n      tag_22\n      swap2\n      swap1\n      tag_23\n      jump\t// in\n    tag_22:\n      tag_24\n      jump\t// in\n    tag_21:\n      stop\n        /* \"contracts/Voting.sol\":1239:1318  function addVote(address voter) public {\r... */\n    tag_6:\n      tag_25\n      0x04\n      dup1\n      calldatasize\n      sub\n      dup2\n      add\n      swap1\n      tag_26\n      swap2\n      swap1\n      tag_17\n      jump\t// in\n    tag_26:\n      tag_27\n      jump\t// in\n    tag_25:\n      stop\n        /* \"contracts/Voting.sol\":1326:1659  function vote(address proposal) public {\r... */\n    tag_7:\n      tag_28\n      0x04\n      dup1\n      calldatasize\n      sub\n      dup2\n      add\n      swap1\n      tag_29\n      swap2\n      swap1\n      tag_17\n      jump\t// in\n    tag_29:\n      tag_30\n      jump\t// in\n    tag_28:\n      stop\n        /* \"contracts/Voting.sol\":449:863  function addVoters(address[] memory _voters) public {\r... */\n    tag_8:\n      tag_31\n      0x04\n      dup1\n      calldatasize\n      sub\n      dup2\n      add\n      swap1\n      tag_32\n      swap2\n      swap1\n      tag_33\n      jump\t// in\n    tag_32:\n      tag_34\n      jump\t// in\n    tag_31:\n      stop\n        /* \"contracts/Voting.sol\":2110:2214  function getTotalSupply() view public returns (uint256) {\r... */\n    tag_9:\n      tag_35\n      tag_36\n      jump\t// in\n    tag_35:\n      mload(0x40)\n      tag_37\n      swap2\n      swap1\n      tag_20\n      jump\t// in\n    tag_37:\n      mload(0x40)\n      dup1\n      swap2\n      sub\n      swap1\n      return\n        /* \"contracts/Voting.sol\":1667:1875  function balanceAndAmount() view public returns (uint, uint, bool) {\r... */\n    tag_12:\n        /* \"contracts/Voting.sol\":1716:1720  uint */\n      0x00\n        /* \"contracts/Voting.sol\":1722:1726  uint */\n      dup1\n        /* \"contracts/Voting.sol\":1728:1732  bool */\n      0x00\n        /* \"contracts/Voting.sol\":1745:1757  uint balance */\n      dup1\n        /* \"contracts/Voting.sol\":1760:1765  token */\n      0x05\n      0x00\n      swap1\n      sload\n      swap1\n      0x0100\n      exp\n      swap1\n      div\n      0xffffffffffffffffffffffffffffffffffffffff\n      and\n        /* \"contracts/Voting.sol\":1760:1775  token.balanceOf */\n      0xffffffffffffffffffffffffffffffffffffffff\n      and\n      0x70a08231\n        /* \"contracts/Voting.sol\":1776:1786  msg.sender */\n      caller\n        /* \"contracts/Voting.sol\":1760:1787  token.balanceOf(msg.sender) */\n      mload(0x40)\n      dup3\n      0xffffffff\n      and\n      0xe0\n      shl\n      dup2\n      mstore\n      0x04\n      add\n      tag_39\n      swap2\n      swap1\n      tag_40\n      jump\t// in\n    tag_39:\n      0x20\n      mload(0x40)\n      dup1\n      dup4\n      sub\n      dup2\n      dup7\n      dup1\n      extcodesize\n      iszero\n      dup1\n      iszero\n      tag_41\n      jumpi\n      0x00\n      dup1\n      revert\n    tag_41:\n      pop\n      gas\n      staticcall\n      iszero\n      dup1\n      iszero\n      tag_43\n      jumpi\n      returndatasize\n      0x00\n      dup1\n      returndatacopy\n      revert(0x00, returndatasize)\n    tag_43:\n      pop\n      pop\n      pop\n      pop\n      mload(0x40)\n      returndatasize\n      not(0x1f)\n      0x1f\n      dup3\n      add\n      and\n      dup3\n      add\n      dup1\n      0x40\n      mstore\n      pop\n      dup2\n      add\n      swap1\n      tag_44\n      swap2\n      swap1\n      tag_45\n      jump\t// in\n    tag_44:\n        /* \"contracts/Voting.sol\":1745:1787  uint balance = token.balanceOf(msg.sender) */\n      swap1\n      pop\n        /* \"contracts/Voting.sol\":1798:1809  uint amount */\n      0x00\n        /* \"contracts/Voting.sol\":1812:1813  1 */\n      0x01\n        /* \"contracts/Voting.sol\":1798:1813  uint amount = 1 */\n      swap1\n      pop\n        /* \"contracts/Voting.sol\":1832:1839  balance */\n      dup2\n        /* \"contracts/Voting.sol\":1841:1847  amount */\n      dup2\n        /* \"contracts/Voting.sol\":1860:1866  amount */\n      dup3\n        /* \"contracts/Voting.sol\":1849:1856  balance */\n      dup5\n        /* \"contracts/Voting.sol\":1849:1866  balance == amount */\n      eq\n        /* \"contracts/Voting.sol\":1824:1867  return (balance, amount, balance == amount) */\n      swap5\n      pop\n      swap5\n      pop\n      swap5\n      pop\n      pop\n      pop\n        /* \"contracts/Voting.sol\":1667:1875  function balanceAndAmount() view public returns (uint, uint, bool) {\r... */\n      swap1\n      swap2\n      swap3\n      jump\t// out\n        /* \"contracts/Voting.sol\":1883:2102  function totalVotesFor(address proposal) view public returns (uint256) {\r... */\n    tag_18:\n        /* \"contracts/Voting.sol\":1945:1952  uint256 */\n      0x00\n        /* \"contracts/Voting.sol\":2069:2074  token */\n      0x05\n      0x00\n      swap1\n      sload\n      swap1\n      0x0100\n      exp\n      swap1\n      div\n      0xffffffffffffffffffffffffffffffffffffffff\n      and\n        /* \"contracts/Voting.sol\":2069:2084  token.balanceOf */\n      0xffffffffffffffffffffffffffffffffffffffff\n      and\n      0x70a08231\n        /* \"contracts/Voting.sol\":2085:2093  proposal */\n      dup4\n        /* \"contracts/Voting.sol\":2069:2094  token.balanceOf(proposal) */\n      mload(0x40)\n      dup3\n      0xffffffff\n      and\n      0xe0\n      shl\n      dup2\n      mstore\n      0x04\n      add\n      tag_47\n      swap2\n      swap1\n      tag_40\n      jump\t// in\n    tag_47:\n      0x20\n      mload(0x40)\n      dup1\n      dup4\n      sub\n      dup2\n      dup7\n      dup1\n      extcodesize\n      iszero\n      dup1\n      iszero\n      tag_48\n      jumpi\n      0x00\n      dup1\n      revert\n    tag_48:\n      pop\n      gas\n      staticcall\n      iszero\n      dup1\n      iszero\n      tag_50\n      jumpi\n      returndatasize\n      0x00\n      dup1\n      returndatacopy\n      revert(0x00, returndatasize)\n    tag_50:\n      pop\n      pop\n      pop\n      pop\n      mload(0x40)\n      returndatasize\n      not(0x1f)\n      0x1f\n      dup3\n      add\n      and\n      dup3\n      add\n      dup1\n      0x40\n      mstore\n      pop\n      dup2\n      add\n      swap1\n      tag_51\n      swap2\n      swap1\n      tag_45\n      jump\t// in\n    tag_51:\n        /* \"contracts/Voting.sol\":2062:2094  return token.balanceOf(proposal) */\n      swap1\n      pop\n        /* \"contracts/Voting.sol\":1883:2102  function totalVotesFor(address proposal) view public returns (uint256) {\r... */\n      swap2\n      swap1\n      pop\n      jump\t// out\n        /* \"contracts/Voting.sol\":871:1231  function addProposals(address[] memory _proposalsAddr, \r... */\n    tag_24:\n        /* \"contracts/Voting.sol\":1039:1054  _proposalsNames */\n      dup1\n        /* \"contracts/Voting.sol\":1039:1061  _proposalsNames.length */\n      mload\n        /* \"contracts/Voting.sol\":1014:1028  _proposalsAddr */\n      dup3\n        /* \"contracts/Voting.sol\":1014:1035  _proposalsAddr.length */\n      mload\n        /* \"contracts/Voting.sol\":1014:1061  _proposalsAddr.length == _proposalsNames.length */\n      eq\n        /* \"contracts/Voting.sol\":1006:1086  require(_proposalsAddr.length == _proposalsNames.length, \"Length is different.\") */\n      tag_53\n      jumpi\n      mload(0x40)\n      0x08c379a000000000000000000000000000000000000000000000000000000000\n      dup2\n      mstore\n      0x04\n      add\n      tag_54\n      swap1\n      tag_55\n      jump\t// in\n    tag_54:\n      mload(0x40)\n      dup1\n      swap2\n      sub\n      swap1\n      revert\n    tag_53:\n        /* \"contracts/Voting.sol\":1104:1110  uint i */\n      0x00\n        /* \"contracts/Voting.sol\":1099:1224  for (uint i = 0; i < _proposalsAddr.length; i++) {\r... */\n    tag_56:\n        /* \"contracts/Voting.sol\":1120:1134  _proposalsAddr */\n      dup3\n        /* \"contracts/Voting.sol\":1120:1141  _proposalsAddr.length */\n      mload\n        /* \"contracts/Voting.sol\":1116:1117  i */\n      dup2\n        /* \"contracts/Voting.sol\":1116:1141  i < _proposalsAddr.length */\n      lt\n        /* \"contracts/Voting.sol\":1099:1224  for (uint i = 0; i < _proposalsAddr.length; i++) {\r... */\n      iszero\n      tag_57\n      jumpi\n        /* \"contracts/Voting.sol\":1194:1209  _proposalsNames */\n      dup2\n        /* \"contracts/Voting.sol\":1210:1211  i */\n      dup2\n        /* \"contracts/Voting.sol\":1194:1212  _proposalsNames[i] */\n      dup2\n      mload\n      dup2\n      lt\n      tag_59\n      jumpi\n      tag_60\n      tag_61\n      jump\t// in\n    tag_60:\n    tag_59:\n      0x20\n      mul\n      0x20\n      add\n      add\n      mload\n        /* \"contracts/Voting.sol\":1163:1172  proposals */\n      0x03\n        /* \"contracts/Voting.sol\":1163:1191  proposals[_proposalsAddr[i]] */\n      0x00\n        /* \"contracts/Voting.sol\":1173:1187  _proposalsAddr */\n      dup6\n        /* \"contracts/Voting.sol\":1188:1189  i */\n      dup5\n        /* \"contracts/Voting.sol\":1173:1190  _proposalsAddr[i] */\n      dup2\n      mload\n      dup2\n      lt\n      tag_62\n      jumpi\n      tag_63\n      tag_61\n      jump\t// in\n    tag_63:\n    tag_62:\n      0x20\n      mul\n      0x20\n      add\n      add\n      mload\n        /* \"contracts/Voting.sol\":1163:1191  proposals[_proposalsAddr[i]] */\n      0xffffffffffffffffffffffffffffffffffffffff\n      and\n      0xffffffffffffffffffffffffffffffffffffffff\n      and\n      dup2\n      mstore\n      0x20\n      add\n      swap1\n      dup2\n      mstore\n      0x20\n      add\n      0x00\n      keccak256\n        /* \"contracts/Voting.sol\":1163:1212  proposals[_proposalsAddr[i]] = _proposalsNames[i] */\n      swap1\n      dup1\n      mload\n      swap1\n      0x20\n      add\n      swap1\n      tag_64\n      swap3\n      swap2\n      swap1\n      tag_65\n      jump\t// in\n    tag_64:\n      pop\n        /* \"contracts/Voting.sol\":1143:1146  i++ */\n      dup1\n      dup1\n      tag_66\n      swap1\n      tag_67\n      jump\t// in\n    tag_66:\n      swap2\n      pop\n      pop\n        /* \"contracts/Voting.sol\":1099:1224  for (uint i = 0; i < _proposalsAddr.length; i++) {\r... */\n      jump(tag_56)\n    tag_57:\n      pop\n        /* \"contracts/Voting.sol\":871:1231  function addProposals(address[] memory _proposalsAddr, \r... */\n      pop\n      pop\n      jump\t// out\n        /* \"contracts/Voting.sol\":1239:1318  function addVote(address voter) public {\r... */\n    tag_27:\n        /* \"contracts/Voting.sol\":1289:1294  token */\n      0x05\n      0x00\n      swap1\n      sload\n      swap1\n      0x0100\n      exp\n      swap1\n      div\n      0xffffffffffffffffffffffffffffffffffffffff\n      and\n        /* \"contracts/Voting.sol\":1289:1299  token.mint */\n      0xffffffffffffffffffffffffffffffffffffffff\n      and\n      0x40c10f19\n        /* \"contracts/Voting.sol\":1300:1305  voter */\n      dup3\n        /* \"contracts/Voting.sol\":1307:1308  1 */\n      0x01\n        /* \"contracts/Voting.sol\":1289:1309  token.mint(voter, 1) */\n      mload(0x40)\n      dup4\n      0xffffffff\n      and\n      0xe0\n      shl\n      dup2\n      mstore\n      0x04\n      add\n      tag_69\n      swap3\n      swap2\n      swap1\n      tag_70\n      jump\t// in\n    tag_69:\n      0x00\n      mload(0x40)\n      dup1\n      dup4\n      sub\n      dup2\n      0x00\n      dup8\n      dup1\n      extcodesize\n      iszero\n      dup1\n      iszero\n      tag_71\n      jumpi\n      0x00\n      dup1\n      revert\n    tag_71:\n      pop\n      gas\n      call\n      iszero\n      dup1\n      iszero\n      tag_73\n      jumpi\n      returndatasize\n      0x00\n      dup1\n      returndatacopy\n      revert(0x00, returndatasize)\n    tag_73:\n      pop\n      pop\n      pop\n      pop\n        /* \"contracts/Voting.sol\":1239:1318  function addVote(address voter) public {\r... */\n      pop\n      jump\t// out\n        /* \"contracts/Voting.sol\":1326:1659  function vote(address proposal) public {\r... */\n    tag_30:\n        /* \"contracts/Voting.sol\":1403:1410  endTime */\n      sload(0x01)\n        /* \"contracts/Voting.sol\":1384:1399  block.timestamp */\n      timestamp\n        /* \"contracts/Voting.sol\":1384:1410  block.timestamp <= endTime */\n      gt\n      iszero\n        /* \"contracts/Voting.sol\":1376:1427  require(block.timestamp <= endTime, \"Time is end.\") */\n      tag_75\n      jumpi\n      mload(0x40)\n      0x08c379a000000000000000000000000000000000000000000000000000000000\n      dup2\n      mstore\n      0x04\n      add\n      tag_76\n      swap1\n      tag_77\n      jump\t// in\n    tag_76:\n      mload(0x40)\n      dup1\n      swap2\n      sub\n      swap1\n      revert\n    tag_75:\n        /* \"contracts/Voting.sol\":1447:1453  voters */\n      0x02\n        /* \"contracts/Voting.sol\":1447:1465  voters[msg.sender] */\n      0x00\n        /* \"contracts/Voting.sol\":1454:1464  msg.sender */\n      caller\n        /* \"contracts/Voting.sol\":1447:1465  voters[msg.sender] */\n      0xffffffffffffffffffffffffffffffffffffffff\n      and\n      0xffffffffffffffffffffffffffffffffffffffff\n      and\n      dup2\n      mstore\n      0x20\n      add\n      swap1\n      dup2\n      mstore\n      0x20\n      add\n      0x00\n      keccak256\n      0x00\n      swap1\n      sload\n      swap1\n      0x0100\n      exp\n      swap1\n      div\n      0xff\n      and\n        /* \"contracts/Voting.sol\":1446:1465  !voters[msg.sender] */\n      iszero\n        /* \"contracts/Voting.sol\":1438:1490  require(!voters[msg.sender], \"Voter already voted.\") */\n      tag_78\n      jumpi\n      mload(0x40)\n      0x08c379a000000000000000000000000000000000000000000000000000000000\n      dup2\n      mstore\n      0x04\n      add\n      tag_79\n      swap1\n      tag_80\n      jump\t// in\n    tag_79:\n      mload(0x40)\n      dup1\n      swap2\n      sub\n      swap1\n      revert\n    tag_78:\n        /* \"contracts/Voting.sol\":1540:1541  1 */\n      0x01\n        /* \"contracts/Voting.sol\":1509:1514  token */\n      0x05\n      0x00\n      swap1\n      sload\n      swap1\n      0x0100\n      exp\n      swap1\n      div\n      0xffffffffffffffffffffffffffffffffffffffff\n      and\n        /* \"contracts/Voting.sol\":1509:1524  token.balanceOf */\n      0xffffffffffffffffffffffffffffffffffffffff\n      and\n      0x70a08231\n        /* \"contracts/Voting.sol\":1525:1535  msg.sender */\n      caller\n        /* \"contracts/Voting.sol\":1509:1536  token.balanceOf(msg.sender) */\n      mload(0x40)\n      dup3\n      0xffffffff\n      and\n      0xe0\n      shl\n      dup2\n      mstore\n      0x04\n      add\n      tag_81\n      swap2\n      swap1\n      tag_40\n      jump\t// in\n    tag_81:\n      0x20\n      mload(0x40)\n      dup1\n      dup4\n      sub\n      dup2\n      dup7\n      dup1\n      extcodesize\n      iszero\n      dup1\n      iszero\n      tag_82\n      jumpi\n      0x00\n      dup1\n      revert\n    tag_82:\n      pop\n      gas\n      staticcall\n      iszero\n      dup1\n      iszero\n      tag_84\n      jumpi\n      returndatasize\n      0x00\n      dup1\n      returndatacopy\n      revert(0x00, returndatasize)\n    tag_84:\n      pop\n      pop\n      pop\n      pop\n      mload(0x40)\n      returndatasize\n      not(0x1f)\n      0x1f\n      dup3\n      add\n      and\n      dup3\n      add\n      dup1\n      0x40\n      mstore\n      pop\n      dup2\n      add\n      swap1\n      tag_85\n      swap2\n      swap1\n      tag_45\n      jump\t// in\n    tag_85:\n        /* \"contracts/Voting.sol\":1509:1541  token.balanceOf(msg.sender) == 1 */\n      eq\n        /* \"contracts/Voting.sol\":1501:1566  require(token.balanceOf(msg.sender) == 1, \"Token doesn't exist.\") */\n      tag_86\n      jumpi\n      mload(0x40)\n      0x08c379a000000000000000000000000000000000000000000000000000000000\n      dup2\n      mstore\n      0x04\n      add\n      tag_87\n      swap1\n      tag_88\n      jump\t// in\n    tag_87:\n      mload(0x40)\n      dup1\n      swap2\n      sub\n      swap1\n      revert\n    tag_86:\n        /* \"contracts/Voting.sol\":1588:1593  token */\n      0x05\n      0x00\n      swap1\n      sload\n      swap1\n      0x0100\n      exp\n      swap1\n      div\n      0xffffffffffffffffffffffffffffffffffffffff\n      and\n        /* \"contracts/Voting.sol\":1588:1602  token.transfer */\n      0xffffffffffffffffffffffffffffffffffffffff\n      and\n      0xa9059cbb\n        /* \"contracts/Voting.sol\":1603:1611  proposal */\n      dup3\n        /* \"contracts/Voting.sol\":1613:1614  1 */\n      0x01\n        /* \"contracts/Voting.sol\":1588:1615  token.transfer(proposal, 1) */\n      mload(0x40)\n      dup4\n      0xffffffff\n      and\n      0xe0\n      shl\n      dup2\n      mstore\n      0x04\n      add\n      tag_89\n      swap3\n      swap2\n      swap1\n      tag_70\n      jump\t// in\n    tag_89:\n      0x00\n      mload(0x40)\n      dup1\n      dup4\n      sub\n      dup2\n      0x00\n      dup8\n      dup1\n      extcodesize\n      iszero\n      dup1\n      iszero\n      tag_90\n      jumpi\n      0x00\n      dup1\n      revert\n    tag_90:\n      pop\n      gas\n      call\n      iszero\n      dup1\n      iszero\n      tag_92\n      jumpi\n      returndatasize\n      0x00\n      dup1\n      returndatacopy\n      revert(0x00, returndatasize)\n    tag_92:\n      pop\n      pop\n      pop\n      pop\n        /* \"contracts/Voting.sol\":1647:1651  true */\n      0x01\n        /* \"contracts/Voting.sol\":1626:1632  voters */\n      0x02\n        /* \"contracts/Voting.sol\":1626:1644  voters[msg.sender] */\n      0x00\n        /* \"contracts/Voting.sol\":1633:1643  msg.sender */\n      caller\n        /* \"contracts/Voting.sol\":1626:1644  voters[msg.sender] */\n      0xffffffffffffffffffffffffffffffffffffffff\n      and\n      0xffffffffffffffffffffffffffffffffffffffff\n      and\n      dup2\n      mstore\n      0x20\n      add\n      swap1\n      dup2\n      mstore\n      0x20\n      add\n      0x00\n      keccak256\n      0x00\n        /* \"contracts/Voting.sol\":1626:1651  voters[msg.sender] = true */\n      0x0100\n      exp\n      dup2\n      sload\n      dup2\n      0xff\n      mul\n      not\n      and\n      swap1\n      dup4\n      iszero\n      iszero\n      mul\n      or\n      swap1\n      sstore\n      pop\n        /* \"contracts/Voting.sol\":1326:1659  function vote(address proposal) public {\r... */\n      pop\n      jump\t// out\n        /* \"contracts/Voting.sol\":449:863  function addVoters(address[] memory _voters) public {\r... */\n    tag_34:\n        /* \"contracts/Voting.sol\":534:545  chairperson */\n      0x04\n      0x00\n      swap1\n      sload\n      swap1\n      0x0100\n      exp\n      swap1\n      div\n      0xffffffffffffffffffffffffffffffffffffffff\n      and\n        /* \"contracts/Voting.sol\":520:545  msg.sender == chairperson */\n      0xffffffffffffffffffffffffffffffffffffffff\n      and\n        /* \"contracts/Voting.sol\":520:530  msg.sender */\n      caller\n        /* \"contracts/Voting.sol\":520:545  msg.sender == chairperson */\n      0xffffffffffffffffffffffffffffffffffffffff\n      and\n      eq\n        /* \"contracts/Voting.sol\":512:577  require(msg.sender == chairperson, \"It is not from chairperson.\") */\n      tag_94\n      jumpi\n      mload(0x40)\n      0x08c379a000000000000000000000000000000000000000000000000000000000\n      dup2\n      mstore\n      0x04\n      add\n      tag_95\n      swap1\n      tag_96\n      jump\t// in\n    tag_95:\n      mload(0x40)\n      dup1\n      swap2\n      sub\n      swap1\n      revert\n    tag_94:\n        /* \"contracts/Voting.sol\":687:693  uint i */\n      0x00\n        /* \"contracts/Voting.sol\":682:818  for (uint i = 0; i < _voters.length; i++) {\r... */\n    tag_97:\n        /* \"contracts/Voting.sol\":703:710  _voters */\n      dup2\n        /* \"contracts/Voting.sol\":703:717  _voters.length */\n      mload\n        /* \"contracts/Voting.sol\":699:700  i */\n      dup2\n        /* \"contracts/Voting.sol\":699:717  i < _voters.length */\n      lt\n        /* \"contracts/Voting.sol\":682:818  for (uint i = 0; i < _voters.length; i++) {\r... */\n      iszero\n      tag_98\n      jumpi\n        /* \"contracts/Voting.sol\":760:765  false */\n      0x00\n        /* \"contracts/Voting.sol\":739:745  voters */\n      0x02\n        /* \"contracts/Voting.sol\":739:757  voters[_voters[i]] */\n      0x00\n        /* \"contracts/Voting.sol\":746:753  _voters */\n      dup5\n        /* \"contracts/Voting.sol\":754:755  i */\n      dup5\n        /* \"contracts/Voting.sol\":746:756  _voters[i] */\n      dup2\n      mload\n      dup2\n      lt\n      tag_100\n      jumpi\n      tag_101\n      tag_61\n      jump\t// in\n    tag_101:\n    tag_100:\n      0x20\n      mul\n      0x20\n      add\n      add\n      mload\n        /* \"contracts/Voting.sol\":739:757  voters[_voters[i]] */\n      0xffffffffffffffffffffffffffffffffffffffff\n      and\n      0xffffffffffffffffffffffffffffffffffffffff\n      and\n      dup2\n      mstore\n      0x20\n      add\n      swap1\n      dup2\n      mstore\n      0x20\n      add\n      0x00\n      keccak256\n      0x00\n        /* \"contracts/Voting.sol\":739:765  voters[_voters[i]] = false */\n      0x0100\n      exp\n      dup2\n      sload\n      dup2\n      0xff\n      mul\n      not\n      and\n      swap1\n      dup4\n      iszero\n      iszero\n      mul\n      or\n      swap1\n      sstore\n      pop\n        /* \"contracts/Voting.sol\":780:785  token */\n      0x05\n      0x00\n      swap1\n      sload\n      swap1\n      0x0100\n      exp\n      swap1\n      div\n      0xffffffffffffffffffffffffffffffffffffffff\n      and\n        /* \"contracts/Voting.sol\":780:790  token.mint */\n      0xffffffffffffffffffffffffffffffffffffffff\n      and\n      0x40c10f19\n        /* \"contracts/Voting.sol\":791:798  _voters */\n      dup4\n        /* \"contracts/Voting.sol\":799:800  i */\n      dup4\n        /* \"contracts/Voting.sol\":791:801  _voters[i] */\n      dup2\n      mload\n      dup2\n      lt\n      tag_102\n      jumpi\n      tag_103\n      tag_61\n      jump\t// in\n    tag_103:\n    tag_102:\n      0x20\n      mul\n      0x20\n      add\n      add\n      mload\n        /* \"contracts/Voting.sol\":803:804  1 */\n      0x01\n        /* \"contracts/Voting.sol\":780:805  token.mint(_voters[i], 1) */\n      mload(0x40)\n      dup4\n      0xffffffff\n      and\n      0xe0\n      shl\n      dup2\n      mstore\n      0x04\n      add\n      tag_104\n      swap3\n      swap2\n      swap1\n      tag_70\n      jump\t// in\n    tag_104:\n      0x00\n      mload(0x40)\n      dup1\n      dup4\n      sub\n      dup2\n      0x00\n      dup8\n      dup1\n      extcodesize\n      iszero\n      dup1\n      iszero\n      tag_105\n      jumpi\n      0x00\n      dup1\n      revert\n    tag_105:\n      pop\n      gas\n      call\n      iszero\n      dup1\n      iszero\n      tag_107\n      jumpi\n      returndatasize\n      0x00\n      dup1\n      returndatacopy\n      revert(0x00, returndatasize)\n    tag_107:\n      pop\n      pop\n      pop\n      pop\n        /* \"contracts/Voting.sol\":719:722  i++ */\n      dup1\n      dup1\n      tag_108\n      swap1\n      tag_67\n      jump\t// in\n    tag_108:\n      swap2\n      pop\n      pop\n        /* \"contracts/Voting.sol\":682:818  for (uint i = 0; i < _voters.length; i++) {\r... */\n      jump(tag_97)\n    tag_98:\n      pop\n        /* \"contracts/Voting.sol\":828:833  token */\n      0x05\n      0x00\n      swap1\n      sload\n      swap1\n      0x0100\n      exp\n      swap1\n      div\n      0xffffffffffffffffffffffffffffffffffffffff\n      and\n        /* \"contracts/Voting.sol\":828:838  token.mint */\n      0xffffffffffffffffffffffffffffffffffffffff\n      and\n      0x40c10f19\n        /* \"contracts/Voting.sol\":839:850  chairperson */\n      0x04\n      0x00\n      swap1\n      sload\n      swap1\n      0x0100\n      exp\n      swap1\n      div\n      0xffffffffffffffffffffffffffffffffffffffff\n      and\n        /* \"contracts/Voting.sol\":852:853  1 */\n      0x01\n        /* \"contracts/Voting.sol\":828:854  token.mint(chairperson, 1) */\n      mload(0x40)\n      dup4\n      0xffffffff\n      and\n      0xe0\n      shl\n      dup2\n      mstore\n      0x04\n      add\n      tag_109\n      swap3\n      swap2\n      swap1\n      tag_70\n      jump\t// in\n    tag_109:\n      0x00\n      mload(0x40)\n      dup1\n      dup4\n      sub\n      dup2\n      0x00\n      dup8\n      dup1\n      extcodesize\n      iszero\n      dup1\n      iszero\n      tag_110\n      jumpi\n      0x00\n      dup1\n      revert\n    tag_110:\n      pop\n      gas\n      call\n      iszero\n      dup1\n      iszero\n      tag_112\n      jumpi\n      returndatasize\n      0x00\n      dup1\n      returndatacopy\n      revert(0x00, returndatasize)\n    tag_112:\n      pop\n      pop\n      pop\n      pop\n        /* \"contracts/Voting.sol\":449:863  function addVoters(address[] memory _voters) public {\r... */\n      pop\n      jump\t// out\n        /* \"contracts/Voting.sol\":2110:2214  function getTotalSupply() view public returns (uint256) {\r... */\n    tag_36:\n        /* \"contracts/Voting.sol\":2157:2164  uint256 */\n      0x00\n        /* \"contracts/Voting.sol\":2184:2189  token */\n      0x05\n      0x00\n      swap1\n      sload\n      swap1\n      0x0100\n      exp\n      swap1\n      div\n      0xffffffffffffffffffffffffffffffffffffffff\n      and\n        /* \"contracts/Voting.sol\":2184:2204  token.getTotalSupply */\n      0xffffffffffffffffffffffffffffffffffffffff\n      and\n      0xc4e41b22\n        /* \"contracts/Voting.sol\":2184:2206  token.getTotalSupply() */\n      mload(0x40)\n      dup2\n      0xffffffff\n      and\n      0xe0\n      shl\n      dup2\n      mstore\n      0x04\n      add\n      0x20\n      mload(0x40)\n      dup1\n      dup4\n      sub\n      dup2\n      dup7\n      dup1\n      extcodesize\n      iszero\n      dup1\n      iszero\n      tag_114\n      jumpi\n      0x00\n      dup1\n      revert\n    tag_114:\n      pop\n      gas\n      staticcall\n      iszero\n      dup1\n      iszero\n      tag_116\n      jumpi\n      returndatasize\n      0x00\n      dup1\n      returndatacopy\n      revert(0x00, returndatasize)\n    tag_116:\n      pop\n      pop\n      pop\n      pop\n      mload(0x40)\n      returndatasize\n      not(0x1f)\n      0x1f\n      dup3\n      add\n      and\n      dup3\n      add\n      dup1\n      0x40\n      mstore\n      pop\n      dup2\n      add\n      swap1\n      tag_117\n      swap2\n      swap1\n      tag_45\n      jump\t// in\n    tag_117:\n        /* \"contracts/Voting.sol\":2177:2206  return token.getTotalSupply() */\n      swap1\n      pop\n        /* \"contracts/Voting.sol\":2110:2214  function getTotalSupply() view public returns (uint256) {\r... */\n      swap1\n      jump\t// out\n    tag_65:\n      dup3\n      dup1\n      sload\n      tag_118\n      swap1\n      tag_119\n      jump\t// in\n    tag_118:\n      swap1\n      0x00\n      mstore\n      keccak256(0x00, 0x20)\n      swap1\n      0x1f\n      add\n      0x20\n      swap1\n      div\n      dup2\n      add\n      swap3\n      dup3\n      tag_121\n      jumpi\n      0x00\n      dup6\n      sstore\n      jump(tag_120)\n    tag_121:\n      dup3\n      0x1f\n      lt\n      tag_122\n      jumpi\n      dup1\n      mload\n      not(0xff)\n      and\n      dup4\n      dup1\n      add\n      or\n      dup6\n      sstore\n      jump(tag_120)\n    tag_122:\n      dup3\n      dup1\n      add\n      0x01\n      add\n      dup6\n      sstore\n      dup3\n      iszero\n      tag_120\n      jumpi\n      swap2\n      dup3\n      add\n    tag_123:\n      dup3\n      dup2\n      gt\n      iszero\n      tag_124\n      jumpi\n      dup3\n      mload\n      dup3\n      sstore\n      swap2\n      0x20\n      add\n      swap2\n      swap1\n      0x01\n      add\n      swap1\n      jump(tag_123)\n    tag_124:\n    tag_120:\n      pop\n      swap1\n      pop\n      tag_125\n      swap2\n      swap1\n      tag_126\n      jump\t// in\n    tag_125:\n      pop\n      swap1\n      jump\t// out\n    tag_126:\n    tag_127:\n      dup1\n      dup3\n      gt\n      iszero\n      tag_128\n      jumpi\n      0x00\n      dup2\n      0x00\n      swap1\n      sstore\n      pop\n      0x01\n      add\n      jump(tag_127)\n    tag_128:\n      pop\n      swap1\n      jump\t// out\n        /* \"#utility.yul\":24:746   */\n    tag_130:\n        /* \"#utility.yul\":120:125   */\n      0x00\n        /* \"#utility.yul\":145:226   */\n      tag_132\n        /* \"#utility.yul\":161:225   */\n      tag_133\n        /* \"#utility.yul\":218:224   */\n      dup5\n        /* \"#utility.yul\":161:225   */\n      tag_134\n      jump\t// in\n    tag_133:\n        /* \"#utility.yul\":145:226   */\n      tag_135\n      jump\t// in\n    tag_132:\n        /* \"#utility.yul\":136:226   */\n      swap1\n      pop\n        /* \"#utility.yul\":246:251   */\n      dup1\n        /* \"#utility.yul\":275:281   */\n      dup4\n        /* \"#utility.yul\":268:273   */\n      dup3\n        /* \"#utility.yul\":261:282   */\n      mstore\n        /* \"#utility.yul\":309:313   */\n      0x20\n        /* \"#utility.yul\":302:307   */\n      dup3\n        /* \"#utility.yul\":298:314   */\n      add\n        /* \"#utility.yul\":291:314   */\n      swap1\n      pop\n        /* \"#utility.yul\":335:341   */\n      dup3\n        /* \"#utility.yul\":385:388   */\n      dup6\n        /* \"#utility.yul\":377:381   */\n      0x20\n        /* \"#utility.yul\":369:375   */\n      dup7\n        /* \"#utility.yul\":365:382   */\n      mul\n        /* \"#utility.yul\":360:363   */\n      dup3\n        /* \"#utility.yul\":356:383   */\n      add\n        /* \"#utility.yul\":353:389   */\n      gt\n        /* \"#utility.yul\":350:493   */\n      iszero\n      tag_136\n      jumpi\n        /* \"#utility.yul\":404:483   */\n      tag_137\n      tag_138\n      jump\t// in\n    tag_137:\n        /* \"#utility.yul\":350:493   */\n    tag_136:\n        /* \"#utility.yul\":517:518   */\n      0x00\n        /* \"#utility.yul\":502:740   */\n    tag_139:\n        /* \"#utility.yul\":527:533   */\n      dup6\n        /* \"#utility.yul\":524:525   */\n      dup2\n        /* \"#utility.yul\":521:534   */\n      lt\n        /* \"#utility.yul\":502:740   */\n      iszero\n      tag_141\n      jumpi\n        /* \"#utility.yul\":595:598   */\n      dup2\n        /* \"#utility.yul\":624:661   */\n      tag_142\n        /* \"#utility.yul\":657:660   */\n      dup9\n        /* \"#utility.yul\":645:655   */\n      dup3\n        /* \"#utility.yul\":624:661   */\n      tag_143\n      jump\t// in\n    tag_142:\n        /* \"#utility.yul\":619:622   */\n      dup5\n        /* \"#utility.yul\":612:662   */\n      mstore\n        /* \"#utility.yul\":691:695   */\n      0x20\n        /* \"#utility.yul\":686:689   */\n      dup5\n        /* \"#utility.yul\":682:696   */\n      add\n        /* \"#utility.yul\":675:696   */\n      swap4\n      pop\n        /* \"#utility.yul\":725:729   */\n      0x20\n        /* \"#utility.yul\":720:723   */\n      dup4\n        /* \"#utility.yul\":716:730   */\n      add\n        /* \"#utility.yul\":709:730   */\n      swap3\n      pop\n        /* \"#utility.yul\":562:740   */\n      pop\n        /* \"#utility.yul\":549:550   */\n      0x01\n        /* \"#utility.yul\":546:547   */\n      dup2\n        /* \"#utility.yul\":542:551   */\n      add\n        /* \"#utility.yul\":537:551   */\n      swap1\n      pop\n        /* \"#utility.yul\":502:740   */\n      jump(tag_139)\n    tag_141:\n        /* \"#utility.yul\":506:520   */\n      pop\n        /* \"#utility.yul\":126:746   */\n      pop\n      pop\n        /* \"#utility.yul\":24:746   */\n      swap4\n      swap3\n      pop\n      pop\n      pop\n      jump\t// out\n        /* \"#utility.yul\":768:1725   */\n    tag_144:\n        /* \"#utility.yul\":874:879   */\n      0x00\n        /* \"#utility.yul\":899:990   */\n      tag_146\n        /* \"#utility.yul\":915:989   */\n      tag_147\n        /* \"#utility.yul\":982:988   */\n      dup5\n        /* \"#utility.yul\":915:989   */\n      tag_148\n      jump\t// in\n    tag_147:\n        /* \"#utility.yul\":899:990   */\n      tag_135\n      jump\t// in\n    tag_146:\n        /* \"#utility.yul\":890:990   */\n      swap1\n      pop\n        /* \"#utility.yul\":1010:1015   */\n      dup1\n        /* \"#utility.yul\":1039:1045   */\n      dup4\n        /* \"#utility.yul\":1032:1037   */\n      dup3\n        /* \"#utility.yul\":1025:1046   */\n      mstore\n        /* \"#utility.yul\":1073:1077   */\n      0x20\n        /* \"#utility.yul\":1066:1071   */\n      dup3\n        /* \"#utility.yul\":1062:1078   */\n      add\n        /* \"#utility.yul\":1055:1078   */\n      swap1\n      pop\n        /* \"#utility.yul\":1099:1105   */\n      dup3\n        /* \"#utility.yul\":1149:1152   */\n      dup6\n        /* \"#utility.yul\":1141:1145   */\n      0x20\n        /* \"#utility.yul\":1133:1139   */\n      dup7\n        /* \"#utility.yul\":1129:1146   */\n      mul\n        /* \"#utility.yul\":1124:1127   */\n      dup3\n        /* \"#utility.yul\":1120:1147   */\n      add\n        /* \"#utility.yul\":1117:1153   */\n      gt\n        /* \"#utility.yul\":1114:1257   */\n      iszero\n      tag_149\n      jumpi\n        /* \"#utility.yul\":1168:1247   */\n      tag_150\n      tag_138\n      jump\t// in\n    tag_150:\n        /* \"#utility.yul\":1114:1257   */\n    tag_149:\n        /* \"#utility.yul\":1281:1282   */\n      0x00\n        /* \"#utility.yul\":1266:1719   */\n    tag_151:\n        /* \"#utility.yul\":1291:1297   */\n      dup6\n        /* \"#utility.yul\":1288:1289   */\n      dup2\n        /* \"#utility.yul\":1285:1298   */\n      lt\n        /* \"#utility.yul\":1266:1719   */\n      iszero\n      tag_153\n      jumpi\n        /* \"#utility.yul\":1373:1376   */\n      dup2\n        /* \"#utility.yul\":1360:1377   */\n      calldataload\n        /* \"#utility.yul\":1409:1427   */\n      0xffffffffffffffff\n        /* \"#utility.yul\":1396:1407   */\n      dup2\n        /* \"#utility.yul\":1393:1428   */\n      gt\n        /* \"#utility.yul\":1390:1512   */\n      iszero\n      tag_154\n      jumpi\n        /* \"#utility.yul\":1431:1510   */\n      tag_155\n      tag_156\n      jump\t// in\n    tag_155:\n        /* \"#utility.yul\":1390:1512   */\n    tag_154:\n        /* \"#utility.yul\":1555:1566   */\n      dup1\n        /* \"#utility.yul\":1547:1553   */\n      dup7\n        /* \"#utility.yul\":1543:1567   */\n      add\n        /* \"#utility.yul\":1593:1640   */\n      tag_157\n        /* \"#utility.yul\":1636:1639   */\n      dup10\n        /* \"#utility.yul\":1624:1634   */\n      dup3\n        /* \"#utility.yul\":1593:1640   */\n      tag_158\n      jump\t// in\n    tag_157:\n        /* \"#utility.yul\":1588:1591   */\n      dup6\n        /* \"#utility.yul\":1581:1641   */\n      mstore\n        /* \"#utility.yul\":1670:1674   */\n      0x20\n        /* \"#utility.yul\":1665:1668   */\n      dup6\n        /* \"#utility.yul\":1661:1675   */\n      add\n        /* \"#utility.yul\":1654:1675   */\n      swap5\n      pop\n        /* \"#utility.yul\":1704:1708   */\n      0x20\n        /* \"#utility.yul\":1699:1702   */\n      dup5\n        /* \"#utility.yul\":1695:1709   */\n      add\n        /* \"#utility.yul\":1688:1709   */\n      swap4\n      pop\n        /* \"#utility.yul\":1326:1719   */\n      pop\n      pop\n        /* \"#utility.yul\":1313:1314   */\n      0x01\n        /* \"#utility.yul\":1310:1311   */\n      dup2\n        /* \"#utility.yul\":1306:1315   */\n      add\n        /* \"#utility.yul\":1301:1315   */\n      swap1\n      pop\n        /* \"#utility.yul\":1266:1719   */\n      jump(tag_151)\n    tag_153:\n        /* \"#utility.yul\":1270:1284   */\n      pop\n        /* \"#utility.yul\":880:1725   */\n      pop\n      pop\n        /* \"#utility.yul\":768:1725   */\n      swap4\n      swap3\n      pop\n      pop\n      pop\n      jump\t// out\n        /* \"#utility.yul\":1731:2143   */\n    tag_159:\n        /* \"#utility.yul\":1809:1814   */\n      0x00\n        /* \"#utility.yul\":1834:1900   */\n      tag_161\n        /* \"#utility.yul\":1850:1899   */\n      tag_162\n        /* \"#utility.yul\":1892:1898   */\n      dup5\n        /* \"#utility.yul\":1850:1899   */\n      tag_163\n      jump\t// in\n    tag_162:\n        /* \"#utility.yul\":1834:1900   */\n      tag_135\n      jump\t// in\n    tag_161:\n        /* \"#utility.yul\":1825:1900   */\n      swap1\n      pop\n        /* \"#utility.yul\":1923:1929   */\n      dup3\n        /* \"#utility.yul\":1916:1921   */\n      dup2\n        /* \"#utility.yul\":1909:1930   */\n      mstore\n        /* \"#utility.yul\":1961:1965   */\n      0x20\n        /* \"#utility.yul\":1954:1959   */\n      dup2\n        /* \"#utility.yul\":1950:1966   */\n      add\n        /* \"#utility.yul\":1999:2002   */\n      dup5\n        /* \"#utility.yul\":1990:1996   */\n      dup5\n        /* \"#utility.yul\":1985:1988   */\n      dup5\n        /* \"#utility.yul\":1981:1997   */\n      add\n        /* \"#utility.yul\":1978:2003   */\n      gt\n        /* \"#utility.yul\":1975:2087   */\n      iszero\n      tag_164\n      jumpi\n        /* \"#utility.yul\":2006:2085   */\n      tag_165\n      tag_166\n      jump\t// in\n    tag_165:\n        /* \"#utility.yul\":1975:2087   */\n    tag_164:\n        /* \"#utility.yul\":2096:2137   */\n      tag_167\n        /* \"#utility.yul\":2130:2136   */\n      dup5\n        /* \"#utility.yul\":2125:2128   */\n      dup3\n        /* \"#utility.yul\":2120:2123   */\n      dup6\n        /* \"#utility.yul\":2096:2137   */\n      tag_168\n      jump\t// in\n    tag_167:\n        /* \"#utility.yul\":1815:2143   */\n      pop\n        /* \"#utility.yul\":1731:2143   */\n      swap4\n      swap3\n      pop\n      pop\n      pop\n      jump\t// out\n        /* \"#utility.yul\":2149:2288   */\n    tag_143:\n        /* \"#utility.yul\":2195:2200   */\n      0x00\n        /* \"#utility.yul\":2233:2239   */\n      dup2\n        /* \"#utility.yul\":2220:2240   */\n      calldataload\n        /* \"#utility.yul\":2211:2240   */\n      swap1\n      pop\n        /* \"#utility.yul\":2249:2282   */\n      tag_170\n        /* \"#utility.yul\":2276:2281   */\n      dup2\n        /* \"#utility.yul\":2249:2282   */\n      tag_171\n      jump\t// in\n    tag_170:\n        /* \"#utility.yul\":2149:2288   */\n      swap3\n      swap2\n      pop\n      pop\n      jump\t// out\n        /* \"#utility.yul\":2311:2681   */\n    tag_172:\n        /* \"#utility.yul\":2382:2387   */\n      0x00\n        /* \"#utility.yul\":2431:2434   */\n      dup3\n        /* \"#utility.yul\":2424:2428   */\n      0x1f\n        /* \"#utility.yul\":2416:2422   */\n      dup4\n        /* \"#utility.yul\":2412:2429   */\n      add\n        /* \"#utility.yul\":2408:2435   */\n      slt\n        /* \"#utility.yul\":2398:2520   */\n      tag_174\n      jumpi\n        /* \"#utility.yul\":2439:2518   */\n      tag_175\n      tag_156\n      jump\t// in\n    tag_175:\n        /* \"#utility.yul\":2398:2520   */\n    tag_174:\n        /* \"#utility.yul\":2556:2562   */\n      dup2\n        /* \"#utility.yul\":2543:2563   */\n      calldataload\n        /* \"#utility.yul\":2581:2675   */\n      tag_176\n        /* \"#utility.yul\":2671:2674   */\n      dup5\n        /* \"#utility.yul\":2663:2669   */\n      dup3\n        /* \"#utility.yul\":2656:2660   */\n      0x20\n        /* \"#utility.yul\":2648:2654   */\n      dup7\n        /* \"#utility.yul\":2644:2661   */\n      add\n        /* \"#utility.yul\":2581:2675   */\n      tag_130\n      jump\t// in\n    tag_176:\n        /* \"#utility.yul\":2572:2675   */\n      swap2\n      pop\n        /* \"#utility.yul\":2388:2681   */\n      pop\n        /* \"#utility.yul\":2311:2681   */\n      swap3\n      swap2\n      pop\n      pop\n      jump\t// out\n        /* \"#utility.yul\":2703:3093   */\n    tag_177:\n        /* \"#utility.yul\":2784:2789   */\n      0x00\n        /* \"#utility.yul\":2833:2836   */\n      dup3\n        /* \"#utility.yul\":2826:2830   */\n      0x1f\n        /* \"#utility.yul\":2818:2824   */\n      dup4\n        /* \"#utility.yul\":2814:2831   */\n      add\n        /* \"#utility.yul\":2810:2837   */\n      slt\n        /* \"#utility.yul\":2800:2922   */\n      tag_179\n      jumpi\n        /* \"#utility.yul\":2841:2920   */\n      tag_180\n      tag_156\n      jump\t// in\n    tag_180:\n        /* \"#utility.yul\":2800:2922   */\n    tag_179:\n        /* \"#utility.yul\":2958:2964   */\n      dup2\n        /* \"#utility.yul\":2945:2965   */\n      calldataload\n        /* \"#utility.yul\":2983:3087   */\n      tag_181\n        /* \"#utility.yul\":3083:3086   */\n      dup5\n        /* \"#utility.yul\":3075:3081   */\n      dup3\n        /* \"#utility.yul\":3068:3072   */\n      0x20\n        /* \"#utility.yul\":3060:3066   */\n      dup7\n        /* \"#utility.yul\":3056:3073   */\n      add\n        /* \"#utility.yul\":2983:3087   */\n      tag_144\n      jump\t// in\n    tag_181:\n        /* \"#utility.yul\":2974:3087   */\n      swap2\n      pop\n        /* \"#utility.yul\":2790:3093   */\n      pop\n        /* \"#utility.yul\":2703:3093   */\n      swap3\n      swap2\n      pop\n      pop\n      jump\t// out\n        /* \"#utility.yul\":3113:3453   */\n    tag_158:\n        /* \"#utility.yul\":3169:3174   */\n      0x00\n        /* \"#utility.yul\":3218:3221   */\n      dup3\n        /* \"#utility.yul\":3211:3215   */\n      0x1f\n        /* \"#utility.yul\":3203:3209   */\n      dup4\n        /* \"#utility.yul\":3199:3216   */\n      add\n        /* \"#utility.yul\":3195:3222   */\n      slt\n        /* \"#utility.yul\":3185:3307   */\n      tag_183\n      jumpi\n        /* \"#utility.yul\":3226:3305   */\n      tag_184\n      tag_156\n      jump\t// in\n    tag_184:\n        /* \"#utility.yul\":3185:3307   */\n    tag_183:\n        /* \"#utility.yul\":3343:3349   */\n      dup2\n        /* \"#utility.yul\":3330:3350   */\n      calldataload\n        /* \"#utility.yul\":3368:3447   */\n      tag_185\n        /* \"#utility.yul\":3443:3446   */\n      dup5\n        /* \"#utility.yul\":3435:3441   */\n      dup3\n        /* \"#utility.yul\":3428:3432   */\n      0x20\n        /* \"#utility.yul\":3420:3426   */\n      dup7\n        /* \"#utility.yul\":3416:3433   */\n      add\n        /* \"#utility.yul\":3368:3447   */\n      tag_159\n      jump\t// in\n    tag_185:\n        /* \"#utility.yul\":3359:3447   */\n      swap2\n      pop\n        /* \"#utility.yul\":3175:3453   */\n      pop\n        /* \"#utility.yul\":3113:3453   */\n      swap3\n      swap2\n      pop\n      pop\n      jump\t// out\n        /* \"#utility.yul\":3459:3602   */\n    tag_186:\n        /* \"#utility.yul\":3516:3521   */\n      0x00\n        /* \"#utility.yul\":3547:3553   */\n      dup2\n        /* \"#utility.yul\":3541:3554   */\n      mload\n        /* \"#utility.yul\":3532:3554   */\n      swap1\n      pop\n        /* \"#utility.yul\":3563:3596   */\n      tag_188\n        /* \"#utility.yul\":3590:3595   */\n      dup2\n        /* \"#utility.yul\":3563:3596   */\n      tag_189\n      jump\t// in\n    tag_188:\n        /* \"#utility.yul\":3459:3602   */\n      swap3\n      swap2\n      pop\n      pop\n      jump\t// out\n        /* \"#utility.yul\":3608:3937   */\n    tag_17:\n        /* \"#utility.yul\":3667:3673   */\n      0x00\n        /* \"#utility.yul\":3716:3718   */\n      0x20\n        /* \"#utility.yul\":3704:3713   */\n      dup3\n        /* \"#utility.yul\":3695:3702   */\n      dup5\n        /* \"#utility.yul\":3691:3714   */\n      sub\n        /* \"#utility.yul\":3687:3719   */\n      slt\n        /* \"#utility.yul\":3684:3803   */\n      iszero\n      tag_191\n      jumpi\n        /* \"#utility.yul\":3722:3801   */\n      tag_192\n      tag_193\n      jump\t// in\n    tag_192:\n        /* \"#utility.yul\":3684:3803   */\n    tag_191:\n        /* \"#utility.yul\":3842:3843   */\n      0x00\n        /* \"#utility.yul\":3867:3920   */\n      tag_194\n        /* \"#utility.yul\":3912:3919   */\n      dup5\n        /* \"#utility.yul\":3903:3909   */\n      dup3\n        /* \"#utility.yul\":3892:3901   */\n      dup6\n        /* \"#utility.yul\":3888:3910   */\n      add\n        /* \"#utility.yul\":3867:3920   */\n      tag_143\n      jump\t// in\n    tag_194:\n        /* \"#utility.yul\":3857:3920   */\n      swap2\n      pop\n        /* \"#utility.yul\":3813:3930   */\n      pop\n        /* \"#utility.yul\":3608:3937   */\n      swap3\n      swap2\n      pop\n      pop\n      jump\t// out\n        /* \"#utility.yul\":3943:4482   */\n    tag_33:\n        /* \"#utility.yul\":4027:4033   */\n      0x00\n        /* \"#utility.yul\":4076:4078   */\n      0x20\n        /* \"#utility.yul\":4064:4073   */\n      dup3\n        /* \"#utility.yul\":4055:4062   */\n      dup5\n        /* \"#utility.yul\":4051:4074   */\n      sub\n        /* \"#utility.yul\":4047:4079   */\n      slt\n        /* \"#utility.yul\":4044:4163   */\n      iszero\n      tag_196\n      jumpi\n        /* \"#utility.yul\":4082:4161   */\n      tag_197\n      tag_193\n      jump\t// in\n    tag_197:\n        /* \"#utility.yul\":4044:4163   */\n    tag_196:\n        /* \"#utility.yul\":4230:4231   */\n      0x00\n        /* \"#utility.yul\":4219:4228   */\n      dup3\n        /* \"#utility.yul\":4215:4232   */\n      add\n        /* \"#utility.yul\":4202:4233   */\n      calldataload\n        /* \"#utility.yul\":4260:4278   */\n      0xffffffffffffffff\n        /* \"#utility.yul\":4252:4258   */\n      dup2\n        /* \"#utility.yul\":4249:4279   */\n      gt\n        /* \"#utility.yul\":4246:4363   */\n      iszero\n      tag_198\n      jumpi\n        /* \"#utility.yul\":4282:4361   */\n      tag_199\n      tag_200\n      jump\t// in\n    tag_199:\n        /* \"#utility.yul\":4246:4363   */\n    tag_198:\n        /* \"#utility.yul\":4387:4465   */\n      tag_201\n        /* \"#utility.yul\":4457:4464   */\n      dup5\n        /* \"#utility.yul\":4448:4454   */\n      dup3\n        /* \"#utility.yul\":4437:4446   */\n      dup6\n        /* \"#utility.yul\":4433:4455   */\n      add\n        /* \"#utility.yul\":4387:4465   */\n      tag_172\n      jump\t// in\n    tag_201:\n        /* \"#utility.yul\":4377:4465   */\n      swap2\n      pop\n        /* \"#utility.yul\":4173:4475   */\n      pop\n        /* \"#utility.yul\":3943:4482   */\n      swap3\n      swap2\n      pop\n      pop\n      jump\t// out\n        /* \"#utility.yul\":4488:5402   */\n    tag_23:\n        /* \"#utility.yul\":4616:4622   */\n      0x00\n        /* \"#utility.yul\":4624:4630   */\n      dup1\n        /* \"#utility.yul\":4673:4675   */\n      0x40\n        /* \"#utility.yul\":4661:4670   */\n      dup4\n        /* \"#utility.yul\":4652:4659   */\n      dup6\n        /* \"#utility.yul\":4648:4671   */\n      sub\n        /* \"#utility.yul\":4644:4676   */\n      slt\n        /* \"#utility.yul\":4641:4760   */\n      iszero\n      tag_203\n      jumpi\n        /* \"#utility.yul\":4679:4758   */\n      tag_204\n      tag_193\n      jump\t// in\n    tag_204:\n        /* \"#utility.yul\":4641:4760   */\n    tag_203:\n        /* \"#utility.yul\":4827:4828   */\n      0x00\n        /* \"#utility.yul\":4816:4825   */\n      dup4\n        /* \"#utility.yul\":4812:4829   */\n      add\n        /* \"#utility.yul\":4799:4830   */\n      calldataload\n        /* \"#utility.yul\":4857:4875   */\n      0xffffffffffffffff\n        /* \"#utility.yul\":4849:4855   */\n      dup2\n        /* \"#utility.yul\":4846:4876   */\n      gt\n        /* \"#utility.yul\":4843:4960   */\n      iszero\n      tag_205\n      jumpi\n        /* \"#utility.yul\":4879:4958   */\n      tag_206\n      tag_200\n      jump\t// in\n    tag_206:\n        /* \"#utility.yul\":4843:4960   */\n    tag_205:\n        /* \"#utility.yul\":4984:5062   */\n      tag_207\n        /* \"#utility.yul\":5054:5061   */\n      dup6\n        /* \"#utility.yul\":5045:5051   */\n      dup3\n        /* \"#utility.yul\":5034:5043   */\n      dup7\n        /* \"#utility.yul\":5030:5052   */\n      add\n        /* \"#utility.yul\":4984:5062   */\n      tag_172\n      jump\t// in\n    tag_207:\n        /* \"#utility.yul\":4974:5062   */\n      swap3\n      pop\n        /* \"#utility.yul\":4770:5072   */\n      pop\n        /* \"#utility.yul\":5139:5141   */\n      0x20\n        /* \"#utility.yul\":5128:5137   */\n      dup4\n        /* \"#utility.yul\":5124:5142   */\n      add\n        /* \"#utility.yul\":5111:5143   */\n      calldataload\n        /* \"#utility.yul\":5170:5188   */\n      0xffffffffffffffff\n        /* \"#utility.yul\":5162:5168   */\n      dup2\n        /* \"#utility.yul\":5159:5189   */\n      gt\n        /* \"#utility.yul\":5156:5273   */\n      iszero\n      tag_208\n      jumpi\n        /* \"#utility.yul\":5192:5271   */\n      tag_209\n      tag_200\n      jump\t// in\n    tag_209:\n        /* \"#utility.yul\":5156:5273   */\n    tag_208:\n        /* \"#utility.yul\":5297:5385   */\n      tag_210\n        /* \"#utility.yul\":5377:5384   */\n      dup6\n        /* \"#utility.yul\":5368:5374   */\n      dup3\n        /* \"#utility.yul\":5357:5366   */\n      dup7\n        /* \"#utility.yul\":5353:5375   */\n      add\n        /* \"#utility.yul\":5297:5385   */\n      tag_177\n      jump\t// in\n    tag_210:\n        /* \"#utility.yul\":5287:5385   */\n      swap2\n      pop\n        /* \"#utility.yul\":5082:5395   */\n      pop\n        /* \"#utility.yul\":4488:5402   */\n      swap3\n      pop\n      swap3\n      swap1\n      pop\n      jump\t// out\n        /* \"#utility.yul\":5408:5759   */\n    tag_45:\n        /* \"#utility.yul\":5478:5484   */\n      0x00\n        /* \"#utility.yul\":5527:5529   */\n      0x20\n        /* \"#utility.yul\":5515:5524   */\n      dup3\n        /* \"#utility.yul\":5506:5513   */\n      dup5\n        /* \"#utility.yul\":5502:5525   */\n      sub\n        /* \"#utility.yul\":5498:5530   */\n      slt\n        /* \"#utility.yul\":5495:5614   */\n      iszero\n      tag_212\n      jumpi\n        /* \"#utility.yul\":5533:5612   */\n      tag_213\n      tag_193\n      jump\t// in\n    tag_213:\n        /* \"#utility.yul\":5495:5614   */\n    tag_212:\n        /* \"#utility.yul\":5653:5654   */\n      0x00\n        /* \"#utility.yul\":5678:5742   */\n      tag_214\n        /* \"#utility.yul\":5734:5741   */\n      dup5\n        /* \"#utility.yul\":5725:5731   */\n      dup3\n        /* \"#utility.yul\":5714:5723   */\n      dup6\n        /* \"#utility.yul\":5710:5732   */\n      add\n        /* \"#utility.yul\":5678:5742   */\n      tag_186\n      jump\t// in\n    tag_214:\n        /* \"#utility.yul\":5668:5742   */\n      swap2\n      pop\n        /* \"#utility.yul\":5624:5752   */\n      pop\n        /* \"#utility.yul\":5408:5759   */\n      swap3\n      swap2\n      pop\n      pop\n      jump\t// out\n        /* \"#utility.yul\":5765:5883   */\n    tag_215:\n        /* \"#utility.yul\":5852:5876   */\n      tag_217\n        /* \"#utility.yul\":5870:5875   */\n      dup2\n        /* \"#utility.yul\":5852:5876   */\n      tag_218\n      jump\t// in\n    tag_217:\n        /* \"#utility.yul\":5847:5850   */\n      dup3\n        /* \"#utility.yul\":5840:5877   */\n      mstore\n        /* \"#utility.yul\":5765:5883   */\n      pop\n      pop\n      jump\t// out\n        /* \"#utility.yul\":5889:5998   */\n    tag_219:\n        /* \"#utility.yul\":5970:5991   */\n      tag_221\n        /* \"#utility.yul\":5985:5990   */\n      dup2\n        /* \"#utility.yul\":5970:5991   */\n      tag_222\n      jump\t// in\n    tag_221:\n        /* \"#utility.yul\":5965:5968   */\n      dup3\n        /* \"#utility.yul\":5958:5992   */\n      mstore\n        /* \"#utility.yul\":5889:5998   */\n      pop\n      pop\n      jump\t// out\n        /* \"#utility.yul\":6004:6151   */\n    tag_223:\n        /* \"#utility.yul\":6099:6144   */\n      tag_225\n        /* \"#utility.yul\":6138:6143   */\n      dup2\n        /* \"#utility.yul\":6099:6144   */\n      tag_226\n      jump\t// in\n    tag_225:\n        /* \"#utility.yul\":6094:6097   */\n      dup3\n        /* \"#utility.yul\":6087:6145   */\n      mstore\n        /* \"#utility.yul\":6004:6151   */\n      pop\n      pop\n      jump\t// out\n        /* \"#utility.yul\":6157:6523   */\n    tag_227:\n        /* \"#utility.yul\":6299:6302   */\n      0x00\n        /* \"#utility.yul\":6320:6387   */\n      tag_229\n        /* \"#utility.yul\":6384:6386   */\n      0x14\n        /* \"#utility.yul\":6379:6382   */\n      dup4\n        /* \"#utility.yul\":6320:6387   */\n      tag_230\n      jump\t// in\n    tag_229:\n        /* \"#utility.yul\":6313:6387   */\n      swap2\n      pop\n        /* \"#utility.yul\":6396:6489   */\n      tag_231\n        /* \"#utility.yul\":6485:6488   */\n      dup3\n        /* \"#utility.yul\":6396:6489   */\n      tag_232\n      jump\t// in\n    tag_231:\n        /* \"#utility.yul\":6514:6516   */\n      0x20\n        /* \"#utility.yul\":6509:6512   */\n      dup3\n        /* \"#utility.yul\":6505:6517   */\n      add\n        /* \"#utility.yul\":6498:6517   */\n      swap1\n      pop\n        /* \"#utility.yul\":6157:6523   */\n      swap2\n      swap1\n      pop\n      jump\t// out\n        /* \"#utility.yul\":6529:6895   */\n    tag_233:\n        /* \"#utility.yul\":6671:6674   */\n      0x00\n        /* \"#utility.yul\":6692:6759   */\n      tag_235\n        /* \"#utility.yul\":6756:6758   */\n      0x0c\n        /* \"#utility.yul\":6751:6754   */\n      dup4\n        /* \"#utility.yul\":6692:6759   */\n      tag_230\n      jump\t// in\n    tag_235:\n        /* \"#utility.yul\":6685:6759   */\n      swap2\n      pop\n        /* \"#utility.yul\":6768:6861   */\n      tag_236\n        /* \"#utility.yul\":6857:6860   */\n      dup3\n        /* \"#utility.yul\":6768:6861   */\n      tag_237\n      jump\t// in\n    tag_236:\n        /* \"#utility.yul\":6886:6888   */\n      0x20\n        /* \"#utility.yul\":6881:6884   */\n      dup3\n        /* \"#utility.yul\":6877:6889   */\n      add\n        /* \"#utility.yul\":6870:6889   */\n      swap1\n      pop\n        /* \"#utility.yul\":6529:6895   */\n      swap2\n      swap1\n      pop\n      jump\t// out\n        /* \"#utility.yul\":6901:7267   */\n    tag_238:\n        /* \"#utility.yul\":7043:7046   */\n      0x00\n        /* \"#utility.yul\":7064:7131   */\n      tag_240\n        /* \"#utility.yul\":7128:7130   */\n      0x1b\n        /* \"#utility.yul\":7123:7126   */\n      dup4\n        /* \"#utility.yul\":7064:7131   */\n      tag_230\n      jump\t// in\n    tag_240:\n        /* \"#utility.yul\":7057:7131   */\n      swap2\n      pop\n        /* \"#utility.yul\":7140:7233   */\n      tag_241\n        /* \"#utility.yul\":7229:7232   */\n      dup3\n        /* \"#utility.yul\":7140:7233   */\n      tag_242\n      jump\t// in\n    tag_241:\n        /* \"#utility.yul\":7258:7260   */\n      0x20\n        /* \"#utility.yul\":7253:7256   */\n      dup3\n        /* \"#utility.yul\":7249:7261   */\n      add\n        /* \"#utility.yul\":7242:7261   */\n      swap1\n      pop\n        /* \"#utility.yul\":6901:7267   */\n      swap2\n      swap1\n      pop\n      jump\t// out\n        /* \"#utility.yul\":7273:7639   */\n    tag_243:\n        /* \"#utility.yul\":7415:7418   */\n      0x00\n        /* \"#utility.yul\":7436:7503   */\n      tag_245\n        /* \"#utility.yul\":7500:7502   */\n      0x14\n        /* \"#utility.yul\":7495:7498   */\n      dup4\n        /* \"#utility.yul\":7436:7503   */\n      tag_230\n      jump\t// in\n    tag_245:\n        /* \"#utility.yul\":7429:7503   */\n      swap2\n      pop\n        /* \"#utility.yul\":7512:7605   */\n      tag_246\n        /* \"#utility.yul\":7601:7604   */\n      dup3\n        /* \"#utility.yul\":7512:7605   */\n      tag_247\n      jump\t// in\n    tag_246:\n        /* \"#utility.yul\":7630:7632   */\n      0x20\n        /* \"#utility.yul\":7625:7628   */\n      dup3\n        /* \"#utility.yul\":7621:7633   */\n      add\n        /* \"#utility.yul\":7614:7633   */\n      swap1\n      pop\n        /* \"#utility.yul\":7273:7639   */\n      swap2\n      swap1\n      pop\n      jump\t// out\n        /* \"#utility.yul\":7645:8011   */\n    tag_248:\n        /* \"#utility.yul\":7787:7790   */\n      0x00\n        /* \"#utility.yul\":7808:7875   */\n      tag_250\n        /* \"#utility.yul\":7872:7874   */\n      0x14\n        /* \"#utility.yul\":7867:7870   */\n      dup4\n        /* \"#utility.yul\":7808:7875   */\n      tag_230\n      jump\t// in\n    tag_250:\n        /* \"#utility.yul\":7801:7875   */\n      swap2\n      pop\n        /* \"#utility.yul\":7884:7977   */\n      tag_251\n        /* \"#utility.yul\":7973:7976   */\n      dup3\n        /* \"#utility.yul\":7884:7977   */\n      tag_252\n      jump\t// in\n    tag_251:\n        /* \"#utility.yul\":8002:8004   */\n      0x20\n        /* \"#utility.yul\":7997:8000   */\n      dup3\n        /* \"#utility.yul\":7993:8005   */\n      add\n        /* \"#utility.yul\":7986:8005   */\n      swap1\n      pop\n        /* \"#utility.yul\":7645:8011   */\n      swap2\n      swap1\n      pop\n      jump\t// out\n        /* \"#utility.yul\":8017:8135   */\n    tag_253:\n        /* \"#utility.yul\":8104:8128   */\n      tag_255\n        /* \"#utility.yul\":8122:8127   */\n      dup2\n        /* \"#utility.yul\":8104:8128   */\n      tag_256\n      jump\t// in\n    tag_255:\n        /* \"#utility.yul\":8099:8102   */\n      dup3\n        /* \"#utility.yul\":8092:8129   */\n      mstore\n        /* \"#utility.yul\":8017:8135   */\n      pop\n      pop\n      jump\t// out\n        /* \"#utility.yul\":8141:8363   */\n    tag_40:\n        /* \"#utility.yul\":8234:8238   */\n      0x00\n        /* \"#utility.yul\":8272:8274   */\n      0x20\n        /* \"#utility.yul\":8261:8270   */\n      dup3\n        /* \"#utility.yul\":8257:8275   */\n      add\n        /* \"#utility.yul\":8249:8275   */\n      swap1\n      pop\n        /* \"#utility.yul\":8285:8356   */\n      tag_258\n        /* \"#utility.yul\":8353:8354   */\n      0x00\n        /* \"#utility.yul\":8342:8351   */\n      dup4\n        /* \"#utility.yul\":8338:8355   */\n      add\n        /* \"#utility.yul\":8329:8335   */\n      dup5\n        /* \"#utility.yul\":8285:8356   */\n      tag_215\n      jump\t// in\n    tag_258:\n        /* \"#utility.yul\":8141:8363   */\n      swap3\n      swap2\n      pop\n      pop\n      jump\t// out\n        /* \"#utility.yul\":8369:8717   */\n    tag_70:\n        /* \"#utility.yul\":8498:8502   */\n      0x00\n        /* \"#utility.yul\":8536:8538   */\n      0x40\n        /* \"#utility.yul\":8525:8534   */\n      dup3\n        /* \"#utility.yul\":8521:8539   */\n      add\n        /* \"#utility.yul\":8513:8539   */\n      swap1\n      pop\n        /* \"#utility.yul\":8549:8620   */\n      tag_260\n        /* \"#utility.yul\":8617:8618   */\n      0x00\n        /* \"#utility.yul\":8606:8615   */\n      dup4\n        /* \"#utility.yul\":8602:8619   */\n      add\n        /* \"#utility.yul\":8593:8599   */\n      dup6\n        /* \"#utility.yul\":8549:8620   */\n      tag_215\n      jump\t// in\n    tag_260:\n        /* \"#utility.yul\":8630:8710   */\n      tag_261\n        /* \"#utility.yul\":8706:8708   */\n      0x20\n        /* \"#utility.yul\":8695:8704   */\n      dup4\n        /* \"#utility.yul\":8691:8709   */\n      add\n        /* \"#utility.yul\":8682:8688   */\n      dup5\n        /* \"#utility.yul\":8630:8710   */\n      tag_223\n      jump\t// in\n    tag_261:\n        /* \"#utility.yul\":8369:8717   */\n      swap4\n      swap3\n      pop\n      pop\n      pop\n      jump\t// out\n        /* \"#utility.yul\":8723:9142   */\n    tag_55:\n        /* \"#utility.yul\":8889:8893   */\n      0x00\n        /* \"#utility.yul\":8927:8929   */\n      0x20\n        /* \"#utility.yul\":8916:8925   */\n      dup3\n        /* \"#utility.yul\":8912:8930   */\n      add\n        /* \"#utility.yul\":8904:8930   */\n      swap1\n      pop\n        /* \"#utility.yul\":8976:8985   */\n      dup2\n        /* \"#utility.yul\":8970:8974   */\n      dup2\n        /* \"#utility.yul\":8966:8986   */\n      sub\n        /* \"#utility.yul\":8962:8963   */\n      0x00\n        /* \"#utility.yul\":8951:8960   */\n      dup4\n        /* \"#utility.yul\":8947:8964   */\n      add\n        /* \"#utility.yul\":8940:8987   */\n      mstore\n        /* \"#utility.yul\":9004:9135   */\n      tag_263\n        /* \"#utility.yul\":9130:9134   */\n      dup2\n        /* \"#utility.yul\":9004:9135   */\n      tag_227\n      jump\t// in\n    tag_263:\n        /* \"#utility.yul\":8996:9135   */\n      swap1\n      pop\n        /* \"#utility.yul\":8723:9142   */\n      swap2\n      swap1\n      pop\n      jump\t// out\n        /* \"#utility.yul\":9148:9567   */\n    tag_77:\n        /* \"#utility.yul\":9314:9318   */\n      0x00\n        /* \"#utility.yul\":9352:9354   */\n      0x20\n        /* \"#utility.yul\":9341:9350   */\n      dup3\n        /* \"#utility.yul\":9337:9355   */\n      add\n        /* \"#utility.yul\":9329:9355   */\n      swap1\n      pop\n        /* \"#utility.yul\":9401:9410   */\n      dup2\n        /* \"#utility.yul\":9395:9399   */\n      dup2\n        /* \"#utility.yul\":9391:9411   */\n      sub\n        /* \"#utility.yul\":9387:9388   */\n      0x00\n        /* \"#utility.yul\":9376:9385   */\n      dup4\n        /* \"#utility.yul\":9372:9389   */\n      add\n        /* \"#utility.yul\":9365:9412   */\n      mstore\n        /* \"#utility.yul\":9429:9560   */\n      tag_265\n        /* \"#utility.yul\":9555:9559   */\n      dup2\n        /* \"#utility.yul\":9429:9560   */\n      tag_233\n      jump\t// in\n    tag_265:\n        /* \"#utility.yul\":9421:9560   */\n      swap1\n      pop\n        /* \"#utility.yul\":9148:9567   */\n      swap2\n      swap1\n      pop\n      jump\t// out\n        /* \"#utility.yul\":9573:9992   */\n    tag_96:\n        /* \"#utility.yul\":9739:9743   */\n      0x00\n        /* \"#utility.yul\":9777:9779   */\n      0x20\n        /* \"#utility.yul\":9766:9775   */\n      dup3\n        /* \"#utility.yul\":9762:9780   */\n      add\n        /* \"#utility.yul\":9754:9780   */\n      swap1\n      pop\n        /* \"#utility.yul\":9826:9835   */\n      dup2\n        /* \"#utility.yul\":9820:9824   */\n      dup2\n        /* \"#utility.yul\":9816:9836   */\n      sub\n        /* \"#utility.yul\":9812:9813   */\n      0x00\n        /* \"#utility.yul\":9801:9810   */\n      dup4\n        /* \"#utility.yul\":9797:9814   */\n      add\n        /* \"#utility.yul\":9790:9837   */\n      mstore\n        /* \"#utility.yul\":9854:9985   */\n      tag_267\n        /* \"#utility.yul\":9980:9984   */\n      dup2\n        /* \"#utility.yul\":9854:9985   */\n      tag_238\n      jump\t// in\n    tag_267:\n        /* \"#utility.yul\":9846:9985   */\n      swap1\n      pop\n        /* \"#utility.yul\":9573:9992   */\n      swap2\n      swap1\n      pop\n      jump\t// out\n        /* \"#utility.yul\":9998:10417   */\n    tag_80:\n        /* \"#utility.yul\":10164:10168   */\n      0x00\n        /* \"#utility.yul\":10202:10204   */\n      0x20\n        /* \"#utility.yul\":10191:10200   */\n      dup3\n        /* \"#utility.yul\":10187:10205   */\n      add\n        /* \"#utility.yul\":10179:10205   */\n      swap1\n      pop\n        /* \"#utility.yul\":10251:10260   */\n      dup2\n        /* \"#utility.yul\":10245:10249   */\n      dup2\n        /* \"#utility.yul\":10241:10261   */\n      sub\n        /* \"#utility.yul\":10237:10238   */\n      0x00\n        /* \"#utility.yul\":10226:10235   */\n      dup4\n        /* \"#utility.yul\":10222:10239   */\n      add\n        /* \"#utility.yul\":10215:10262   */\n      mstore\n        /* \"#utility.yul\":10279:10410   */\n      tag_269\n        /* \"#utility.yul\":10405:10409   */\n      dup2\n        /* \"#utility.yul\":10279:10410   */\n      tag_243\n      jump\t// in\n    tag_269:\n        /* \"#utility.yul\":10271:10410   */\n      swap1\n      pop\n        /* \"#utility.yul\":9998:10417   */\n      swap2\n      swap1\n      pop\n      jump\t// out\n        /* \"#utility.yul\":10423:10842   */\n    tag_88:\n        /* \"#utility.yul\":10589:10593   */\n      0x00\n        /* \"#utility.yul\":10627:10629   */\n      0x20\n        /* \"#utility.yul\":10616:10625   */\n      dup3\n        /* \"#utility.yul\":10612:10630   */\n      add\n        /* \"#utility.yul\":10604:10630   */\n      swap1\n      pop\n        /* \"#utility.yul\":10676:10685   */\n      dup2\n        /* \"#utility.yul\":10670:10674   */\n      dup2\n        /* \"#utility.yul\":10666:10686   */\n      sub\n        /* \"#utility.yul\":10662:10663   */\n      0x00\n        /* \"#utility.yul\":10651:10660   */\n      dup4\n        /* \"#utility.yul\":10647:10664   */\n      add\n        /* \"#utility.yul\":10640:10687   */\n      mstore\n        /* \"#utility.yul\":10704:10835   */\n      tag_271\n        /* \"#utility.yul\":10830:10834   */\n      dup2\n        /* \"#utility.yul\":10704:10835   */\n      tag_248\n      jump\t// in\n    tag_271:\n        /* \"#utility.yul\":10696:10835   */\n      swap1\n      pop\n        /* \"#utility.yul\":10423:10842   */\n      swap2\n      swap1\n      pop\n      jump\t// out\n        /* \"#utility.yul\":10848:11070   */\n    tag_20:\n        /* \"#utility.yul\":10941:10945   */\n      0x00\n        /* \"#utility.yul\":10979:10981   */\n      0x20\n        /* \"#utility.yul\":10968:10977   */\n      dup3\n        /* \"#utility.yul\":10964:10982   */\n      add\n        /* \"#utility.yul\":10956:10982   */\n      swap1\n      pop\n        /* \"#utility.yul\":10992:11063   */\n      tag_273\n        /* \"#utility.yul\":11060:11061   */\n      0x00\n        /* \"#utility.yul\":11049:11058   */\n      dup4\n        /* \"#utility.yul\":11045:11062   */\n      add\n        /* \"#utility.yul\":11036:11042   */\n      dup5\n        /* \"#utility.yul\":10992:11063   */\n      tag_253\n      jump\t// in\n    tag_273:\n        /* \"#utility.yul\":10848:11070   */\n      swap3\n      swap2\n      pop\n      pop\n      jump\t// out\n        /* \"#utility.yul\":11076:11506   */\n    tag_14:\n        /* \"#utility.yul\":11219:11223   */\n      0x00\n        /* \"#utility.yul\":11257:11259   */\n      0x60\n        /* \"#utility.yul\":11246:11255   */\n      dup3\n        /* \"#utility.yul\":11242:11260   */\n      add\n        /* \"#utility.yul\":11234:11260   */\n      swap1\n      pop\n        /* \"#utility.yul\":11270:11341   */\n      tag_275\n        /* \"#utility.yul\":11338:11339   */\n      0x00\n        /* \"#utility.yul\":11327:11336   */\n      dup4\n        /* \"#utility.yul\":11323:11340   */\n      add\n        /* \"#utility.yul\":11314:11320   */\n      dup7\n        /* \"#utility.yul\":11270:11341   */\n      tag_253\n      jump\t// in\n    tag_275:\n        /* \"#utility.yul\":11351:11423   */\n      tag_276\n        /* \"#utility.yul\":11419:11421   */\n      0x20\n        /* \"#utility.yul\":11408:11417   */\n      dup4\n        /* \"#utility.yul\":11404:11422   */\n      add\n        /* \"#utility.yul\":11395:11401   */\n      dup6\n        /* \"#utility.yul\":11351:11423   */\n      tag_253\n      jump\t// in\n    tag_276:\n        /* \"#utility.yul\":11433:11499   */\n      tag_277\n        /* \"#utility.yul\":11495:11497   */\n      0x40\n        /* \"#utility.yul\":11484:11493   */\n      dup4\n        /* \"#utility.yul\":11480:11498   */\n      add\n        /* \"#utility.yul\":11471:11477   */\n      dup5\n        /* \"#utility.yul\":11433:11499   */\n      tag_219\n      jump\t// in\n    tag_277:\n        /* \"#utility.yul\":11076:11506   */\n      swap5\n      swap4\n      pop\n      pop\n      pop\n      pop\n      jump\t// out\n        /* \"#utility.yul\":11512:11641   */\n    tag_135:\n        /* \"#utility.yul\":11546:11552   */\n      0x00\n        /* \"#utility.yul\":11573:11593   */\n      tag_279\n      tag_280\n      jump\t// in\n    tag_279:\n        /* \"#utility.yul\":11563:11593   */\n      swap1\n      pop\n        /* \"#utility.yul\":11602:11635   */\n      tag_281\n        /* \"#utility.yul\":11630:11634   */\n      dup3\n        /* \"#utility.yul\":11622:11628   */\n      dup3\n        /* \"#utility.yul\":11602:11635   */\n      tag_282\n      jump\t// in\n    tag_281:\n        /* \"#utility.yul\":11512:11641   */\n      swap2\n      swap1\n      pop\n      jump\t// out\n        /* \"#utility.yul\":11647:11722   */\n    tag_280:\n        /* \"#utility.yul\":11680:11686   */\n      0x00\n        /* \"#utility.yul\":11713:11715   */\n      0x40\n        /* \"#utility.yul\":11707:11716   */\n      mload\n        /* \"#utility.yul\":11697:11716   */\n      swap1\n      pop\n        /* \"#utility.yul\":11647:11722   */\n      swap1\n      jump\t// out\n        /* \"#utility.yul\":11728:12039   */\n    tag_134:\n        /* \"#utility.yul\":11805:11809   */\n      0x00\n        /* \"#utility.yul\":11895:11913   */\n      0xffffffffffffffff\n        /* \"#utility.yul\":11887:11893   */\n      dup3\n        /* \"#utility.yul\":11884:11914   */\n      gt\n        /* \"#utility.yul\":11881:11937   */\n      iszero\n      tag_285\n      jumpi\n        /* \"#utility.yul\":11917:11935   */\n      tag_286\n      tag_287\n      jump\t// in\n    tag_286:\n        /* \"#utility.yul\":11881:11937   */\n    tag_285:\n        /* \"#utility.yul\":11967:11971   */\n      0x20\n        /* \"#utility.yul\":11959:11965   */\n      dup3\n        /* \"#utility.yul\":11955:11972   */\n      mul\n        /* \"#utility.yul\":11947:11972   */\n      swap1\n      pop\n        /* \"#utility.yul\":12027:12031   */\n      0x20\n        /* \"#utility.yul\":12021:12025   */\n      dup2\n        /* \"#utility.yul\":12017:12032   */\n      add\n        /* \"#utility.yul\":12009:12032   */\n      swap1\n      pop\n        /* \"#utility.yul\":11728:12039   */\n      swap2\n      swap1\n      pop\n      jump\t// out\n        /* \"#utility.yul\":12045:12366   */\n    tag_148:\n        /* \"#utility.yul\":12132:12136   */\n      0x00\n        /* \"#utility.yul\":12222:12240   */\n      0xffffffffffffffff\n        /* \"#utility.yul\":12214:12220   */\n      dup3\n        /* \"#utility.yul\":12211:12241   */\n      gt\n        /* \"#utility.yul\":12208:12264   */\n      iszero\n      tag_289\n      jumpi\n        /* \"#utility.yul\":12244:12262   */\n      tag_290\n      tag_287\n      jump\t// in\n    tag_290:\n        /* \"#utility.yul\":12208:12264   */\n    tag_289:\n        /* \"#utility.yul\":12294:12298   */\n      0x20\n        /* \"#utility.yul\":12286:12292   */\n      dup3\n        /* \"#utility.yul\":12282:12299   */\n      mul\n        /* \"#utility.yul\":12274:12299   */\n      swap1\n      pop\n        /* \"#utility.yul\":12354:12358   */\n      0x20\n        /* \"#utility.yul\":12348:12352   */\n      dup2\n        /* \"#utility.yul\":12344:12359   */\n      add\n        /* \"#utility.yul\":12336:12359   */\n      swap1\n      pop\n        /* \"#utility.yul\":12045:12366   */\n      swap2\n      swap1\n      pop\n      jump\t// out\n        /* \"#utility.yul\":12372:12680   */\n    tag_163:\n        /* \"#utility.yul\":12434:12438   */\n      0x00\n        /* \"#utility.yul\":12524:12542   */\n      0xffffffffffffffff\n        /* \"#utility.yul\":12516:12522   */\n      dup3\n        /* \"#utility.yul\":12513:12543   */\n      gt\n        /* \"#utility.yul\":12510:12566   */\n      iszero\n      tag_292\n      jumpi\n        /* \"#utility.yul\":12546:12564   */\n      tag_293\n      tag_287\n      jump\t// in\n    tag_293:\n        /* \"#utility.yul\":12510:12566   */\n    tag_292:\n        /* \"#utility.yul\":12584:12613   */\n      tag_294\n        /* \"#utility.yul\":12606:12612   */\n      dup3\n        /* \"#utility.yul\":12584:12613   */\n      tag_295\n      jump\t// in\n    tag_294:\n        /* \"#utility.yul\":12576:12613   */\n      swap1\n      pop\n        /* \"#utility.yul\":12668:12672   */\n      0x20\n        /* \"#utility.yul\":12662:12666   */\n      dup2\n        /* \"#utility.yul\":12658:12673   */\n      add\n        /* \"#utility.yul\":12650:12673   */\n      swap1\n      pop\n        /* \"#utility.yul\":12372:12680   */\n      swap2\n      swap1\n      pop\n      jump\t// out\n        /* \"#utility.yul\":12686:12855   */\n    tag_230:\n        /* \"#utility.yul\":12770:12781   */\n      0x00\n        /* \"#utility.yul\":12804:12810   */\n      dup3\n        /* \"#utility.yul\":12799:12802   */\n      dup3\n        /* \"#utility.yul\":12792:12811   */\n      mstore\n        /* \"#utility.yul\":12844:12848   */\n      0x20\n        /* \"#utility.yul\":12839:12842   */\n      dup3\n        /* \"#utility.yul\":12835:12849   */\n      add\n        /* \"#utility.yul\":12820:12849   */\n      swap1\n      pop\n        /* \"#utility.yul\":12686:12855   */\n      swap3\n      swap2\n      pop\n      pop\n      jump\t// out\n        /* \"#utility.yul\":12861:12957   */\n    tag_218:\n        /* \"#utility.yul\":12898:12905   */\n      0x00\n        /* \"#utility.yul\":12927:12951   */\n      tag_298\n        /* \"#utility.yul\":12945:12950   */\n      dup3\n        /* \"#utility.yul\":12927:12951   */\n      tag_299\n      jump\t// in\n    tag_298:\n        /* \"#utility.yul\":12916:12951   */\n      swap1\n      pop\n        /* \"#utility.yul\":12861:12957   */\n      swap2\n      swap1\n      pop\n      jump\t// out\n        /* \"#utility.yul\":12963:13053   */\n    tag_222:\n        /* \"#utility.yul\":12997:13004   */\n      0x00\n        /* \"#utility.yul\":13040:13045   */\n      dup2\n        /* \"#utility.yul\":13033:13046   */\n      iszero\n        /* \"#utility.yul\":13026:13047   */\n      iszero\n        /* \"#utility.yul\":13015:13047   */\n      swap1\n      pop\n        /* \"#utility.yul\":12963:13053   */\n      swap2\n      swap1\n      pop\n      jump\t// out\n        /* \"#utility.yul\":13059:13185   */\n    tag_299:\n        /* \"#utility.yul\":13096:13103   */\n      0x00\n        /* \"#utility.yul\":13136:13178   */\n      0xffffffffffffffffffffffffffffffffffffffff\n        /* \"#utility.yul\":13129:13134   */\n      dup3\n        /* \"#utility.yul\":13125:13179   */\n      and\n        /* \"#utility.yul\":13114:13179   */\n      swap1\n      pop\n        /* \"#utility.yul\":13059:13185   */\n      swap2\n      swap1\n      pop\n      jump\t// out\n        /* \"#utility.yul\":13191:13268   */\n    tag_256:\n        /* \"#utility.yul\":13228:13235   */\n      0x00\n        /* \"#utility.yul\":13257:13262   */\n      dup2\n        /* \"#utility.yul\":13246:13262   */\n      swap1\n      pop\n        /* \"#utility.yul\":13191:13268   */\n      swap2\n      swap1\n      pop\n      jump\t// out\n        /* \"#utility.yul\":13274:13395   */\n    tag_226:\n        /* \"#utility.yul\":13332:13341   */\n      0x00\n        /* \"#utility.yul\":13365:13389   */\n      tag_304\n        /* \"#utility.yul\":13383:13388   */\n      dup3\n        /* \"#utility.yul\":13365:13389   */\n      tag_256\n      jump\t// in\n    tag_304:\n        /* \"#utility.yul\":13352:13389   */\n      swap1\n      pop\n        /* \"#utility.yul\":13274:13395   */\n      swap2\n      swap1\n      pop\n      jump\t// out\n        /* \"#utility.yul\":13401:13555   */\n    tag_168:\n        /* \"#utility.yul\":13485:13491   */\n      dup3\n        /* \"#utility.yul\":13480:13483   */\n      dup2\n        /* \"#utility.yul\":13475:13478   */\n      dup4\n        /* \"#utility.yul\":13462:13492   */\n      calldatacopy\n        /* \"#utility.yul\":13547:13548   */\n      0x00\n        /* \"#utility.yul\":13538:13544   */\n      dup4\n        /* \"#utility.yul\":13533:13536   */\n      dup4\n        /* \"#utility.yul\":13529:13545   */\n      add\n        /* \"#utility.yul\":13522:13549   */\n      mstore\n        /* \"#utility.yul\":13401:13555   */\n      pop\n      pop\n      pop\n      jump\t// out\n        /* \"#utility.yul\":13561:13881   */\n    tag_119:\n        /* \"#utility.yul\":13605:13611   */\n      0x00\n        /* \"#utility.yul\":13642:13643   */\n      0x02\n        /* \"#utility.yul\":13636:13640   */\n      dup3\n        /* \"#utility.yul\":13632:13644   */\n      div\n        /* \"#utility.yul\":13622:13644   */\n      swap1\n      pop\n        /* \"#utility.yul\":13689:13690   */\n      0x01\n        /* \"#utility.yul\":13683:13687   */\n      dup3\n        /* \"#utility.yul\":13679:13691   */\n      and\n        /* \"#utility.yul\":13710:13728   */\n      dup1\n        /* \"#utility.yul\":13700:13781   */\n      tag_307\n      jumpi\n        /* \"#utility.yul\":13766:13770   */\n      0x7f\n        /* \"#utility.yul\":13758:13764   */\n      dup3\n        /* \"#utility.yul\":13754:13771   */\n      and\n        /* \"#utility.yul\":13744:13771   */\n      swap2\n      pop\n        /* \"#utility.yul\":13700:13781   */\n    tag_307:\n        /* \"#utility.yul\":13828:13830   */\n      0x20\n        /* \"#utility.yul\":13820:13826   */\n      dup3\n        /* \"#utility.yul\":13817:13831   */\n      lt\n        /* \"#utility.yul\":13797:13815   */\n      dup2\n        /* \"#utility.yul\":13794:13832   */\n      eq\n        /* \"#utility.yul\":13791:13875   */\n      iszero\n      tag_308\n      jumpi\n        /* \"#utility.yul\":13847:13865   */\n      tag_309\n      tag_310\n      jump\t// in\n    tag_309:\n        /* \"#utility.yul\":13791:13875   */\n    tag_308:\n        /* \"#utility.yul\":13612:13881   */\n      pop\n        /* \"#utility.yul\":13561:13881   */\n      swap2\n      swap1\n      pop\n      jump\t// out\n        /* \"#utility.yul\":13887:14168   */\n    tag_282:\n        /* \"#utility.yul\":13970:13997   */\n      tag_312\n        /* \"#utility.yul\":13992:13996   */\n      dup3\n        /* \"#utility.yul\":13970:13997   */\n      tag_295\n      jump\t// in\n    tag_312:\n        /* \"#utility.yul\":13962:13968   */\n      dup2\n        /* \"#utility.yul\":13958:13998   */\n      add\n        /* \"#utility.yul\":14100:14106   */\n      dup2\n        /* \"#utility.yul\":14088:14098   */\n      dup2\n        /* \"#utility.yul\":14085:14107   */\n      lt\n        /* \"#utility.yul\":14064:14082   */\n      0xffffffffffffffff\n        /* \"#utility.yul\":14052:14062   */\n      dup3\n        /* \"#utility.yul\":14049:14083   */\n      gt\n        /* \"#utility.yul\":14046:14108   */\n      or\n        /* \"#utility.yul\":14043:14131   */\n      iszero\n      tag_313\n      jumpi\n        /* \"#utility.yul\":14111:14129   */\n      tag_314\n      tag_287\n      jump\t// in\n    tag_314:\n        /* \"#utility.yul\":14043:14131   */\n    tag_313:\n        /* \"#utility.yul\":14151:14161   */\n      dup1\n        /* \"#utility.yul\":14147:14149   */\n      0x40\n        /* \"#utility.yul\":14140:14162   */\n      mstore\n        /* \"#utility.yul\":13930:14168   */\n      pop\n        /* \"#utility.yul\":13887:14168   */\n      pop\n      pop\n      jump\t// out\n        /* \"#utility.yul\":14174:14407   */\n    tag_67:\n        /* \"#utility.yul\":14213:14216   */\n      0x00\n        /* \"#utility.yul\":14236:14260   */\n      tag_316\n        /* \"#utility.yul\":14254:14259   */\n      dup3\n        /* \"#utility.yul\":14236:14260   */\n      tag_256\n      jump\t// in\n    tag_316:\n        /* \"#utility.yul\":14227:14260   */\n      swap2\n      pop\n        /* \"#utility.yul\":14282:14348   */\n      0xffffffffffffffffffffffffffffffffffffffffffffffffffffffffffffffff\n        /* \"#utility.yul\":14275:14280   */\n      dup3\n        /* \"#utility.yul\":14272:14349   */\n      eq\n        /* \"#utility.yul\":14269:14372   */\n      iszero\n      tag_317\n      jumpi\n        /* \"#utility.yul\":14352:14370   */\n      tag_318\n      tag_319\n      jump\t// in\n    tag_318:\n        /* \"#utility.yul\":14269:14372   */\n    tag_317:\n        /* \"#utility.yul\":14399:14400   */\n      0x01\n        /* \"#utility.yul\":14392:14397   */\n      dup3\n        /* \"#utility.yul\":14388:14401   */\n      add\n        /* \"#utility.yul\":14381:14401   */\n      swap1\n      pop\n        /* \"#utility.yul\":14174:14407   */\n      swap2\n      swap1\n      pop\n      jump\t// out\n        /* \"#utility.yul\":14413:14593   */\n    tag_319:\n        /* \"#utility.yul\":14461:14538   */\n      0x4e487b7100000000000000000000000000000000000000000000000000000000\n        /* \"#utility.yul\":14458:14459   */\n      0x00\n        /* \"#utility.yul\":14451:14539   */\n      mstore\n        /* \"#utility.yul\":14558:14562   */\n      0x11\n        /* \"#utility.yul\":14555:14556   */\n      0x04\n        /* \"#utility.yul\":14548:14563   */\n      mstore\n        /* \"#utility.yul\":14582:14586   */\n      0x24\n        /* \"#utility.yul\":14579:14580   */\n      0x00\n        /* \"#utility.yul\":14572:14587   */\n      revert\n        /* \"#utility.yul\":14599:14779   */\n    tag_310:\n        /* \"#utility.yul\":14647:14724   */\n      0x4e487b7100000000000000000000000000000000000000000000000000000000\n        /* \"#utility.yul\":14644:14645   */\n      0x00\n        /* \"#utility.yul\":14637:14725   */\n      mstore\n        /* \"#utility.yul\":14744:14748   */\n      0x22\n        /* \"#utility.yul\":14741:14742   */\n      0x04\n        /* \"#utility.yul\":14734:14749   */\n      mstore\n        /* \"#utility.yul\":14768:14772   */\n      0x24\n        /* \"#utility.yul\":14765:14766   */\n      0x00\n        /* \"#utility.yul\":14758:14773   */\n      revert\n        /* \"#utility.yul\":14785:14965   */\n    tag_61:\n        /* \"#utility.yul\":14833:14910   */\n      0x4e487b7100000000000000000000000000000000000000000000000000000000\n        /* \"#utility.yul\":14830:14831   */\n      0x00\n        /* \"#utility.yul\":14823:14911   */\n      mstore\n        /* \"#utility.yul\":14930:14934   */\n      0x32\n        /* \"#utility.yul\":14927:14928   */\n      0x04\n        /* \"#utility.yul\":14920:14935   */\n      mstore\n        /* \"#utility.yul\":14954:14958   */\n      0x24\n        /* \"#utility.yul\":14951:14952   */\n      0x00\n        /* \"#utility.yul\":14944:14959   */\n      revert\n        /* \"#utility.yul\":14971:15151   */\n    tag_287:\n        /* \"#utility.yul\":15019:15096   */\n      0x4e487b7100000000000000000000000000000000000000000000000000000000\n        /* \"#utility.yul\":15016:15017   */\n      0x00\n        /* \"#utility.yul\":15009:15097   */\n      mstore\n        /* \"#utility.yul\":15116:15120   */\n      0x41\n        /* \"#utility.yul\":15113:15114   */\n      0x04\n        /* \"#utility.yul\":15106:15121   */\n      mstore\n        /* \"#utility.yul\":15140:15144   */\n      0x24\n        /* \"#utility.yul\":15137:15138   */\n      0x00\n        /* \"#utility.yul\":15130:15145   */\n      revert\n        /* \"#utility.yul\":15157:15274   */\n    tag_156:\n        /* \"#utility.yul\":15266:15267   */\n      0x00\n        /* \"#utility.yul\":15263:15264   */\n      dup1\n        /* \"#utility.yul\":15256:15268   */\n      revert\n        /* \"#utility.yul\":15280:15397   */\n    tag_138:\n        /* \"#utility.yul\":15389:15390   */\n      0x00\n        /* \"#utility.yul\":15386:15387   */\n      dup1\n        /* \"#utility.yul\":15379:15391   */\n      revert\n        /* \"#utility.yul\":15403:15520   */\n    tag_166:\n        /* \"#utility.yul\":15512:15513   */\n      0x00\n        /* \"#utility.yul\":15509:15510   */\n      dup1\n        /* \"#utility.yul\":15502:15514   */\n      revert\n        /* \"#utility.yul\":15526:15643   */\n    tag_200:\n        /* \"#utility.yul\":15635:15636   */\n      0x00\n        /* \"#utility.yul\":15632:15633   */\n      dup1\n        /* \"#utility.yul\":15625:15637   */\n      revert\n        /* \"#utility.yul\":15649:15766   */\n    tag_193:\n        /* \"#utility.yul\":15758:15759   */\n      0x00\n        /* \"#utility.yul\":15755:15756   */\n      dup1\n        /* \"#utility.yul\":15748:15760   */\n      revert\n        /* \"#utility.yul\":15772:15874   */\n    tag_295:\n        /* \"#utility.yul\":15813:15819   */\n      0x00\n        /* \"#utility.yul\":15864:15866   */\n      0x1f\n        /* \"#utility.yul\":15860:15867   */\n      not\n        /* \"#utility.yul\":15855:15857   */\n      0x1f\n        /* \"#utility.yul\":15848:15853   */\n      dup4\n        /* \"#utility.yul\":15844:15858   */\n      add\n        /* \"#utility.yul\":15840:15868   */\n      and\n        /* \"#utility.yul\":15830:15868   */\n      swap1\n      pop\n        /* \"#utility.yul\":15772:15874   */\n      swap2\n      swap1\n      pop\n      jump\t// out\n        /* \"#utility.yul\":15880:16050   */\n    tag_232:\n        /* \"#utility.yul\":16020:16042   */\n      0x4c656e67746820697320646966666572656e742e000000000000000000000000\n        /* \"#utility.yul\":16016:16017   */\n      0x00\n        /* \"#utility.yul\":16008:16014   */\n      dup3\n        /* \"#utility.yul\":16004:16018   */\n      add\n        /* \"#utility.yul\":15997:16043   */\n      mstore\n        /* \"#utility.yul\":15880:16050   */\n      pop\n      jump\t// out\n        /* \"#utility.yul\":16056:16218   */\n    tag_237:\n        /* \"#utility.yul\":16196:16210   */\n      0x54696d6520697320656e642e0000000000000000000000000000000000000000\n        /* \"#utility.yul\":16192:16193   */\n      0x00\n        /* \"#utility.yul\":16184:16190   */\n      dup3\n        /* \"#utility.yul\":16180:16194   */\n      add\n        /* \"#utility.yul\":16173:16211   */\n      mstore\n        /* \"#utility.yul\":16056:16218   */\n      pop\n      jump\t// out\n        /* \"#utility.yul\":16224:16401   */\n    tag_242:\n        /* \"#utility.yul\":16364:16393   */\n      0x4974206973206e6f742066726f6d206368616972706572736f6e2e0000000000\n        /* \"#utility.yul\":16360:16361   */\n      0x00\n        /* \"#utility.yul\":16352:16358   */\n      dup3\n        /* \"#utility.yul\":16348:16362   */\n      add\n        /* \"#utility.yul\":16341:16394   */\n      mstore\n        /* \"#utility.yul\":16224:16401   */\n      pop\n      jump\t// out\n        /* \"#utility.yul\":16407:16577   */\n    tag_247:\n        /* \"#utility.yul\":16547:16569   */\n      0x566f74657220616c726561647920766f7465642e000000000000000000000000\n        /* \"#utility.yul\":16543:16544   */\n      0x00\n        /* \"#utility.yul\":16535:16541   */\n      dup3\n        /* \"#utility.yul\":16531:16545   */\n      add\n        /* \"#utility.yul\":16524:16570   */\n      mstore\n        /* \"#utility.yul\":16407:16577   */\n      pop\n      jump\t// out\n        /* \"#utility.yul\":16583:16753   */\n    tag_252:\n        /* \"#utility.yul\":16723:16745   */\n      0x546f6b656e20646f65736e27742065786973742e000000000000000000000000\n        /* \"#utility.yul\":16719:16720   */\n      0x00\n        /* \"#utility.yul\":16711:16717   */\n      dup3\n        /* \"#utility.yul\":16707:16721   */\n      add\n        /* \"#utility.yul\":16700:16746   */\n      mstore\n        /* \"#utility.yul\":16583:16753   */\n      pop\n      jump\t// out\n        /* \"#utility.yul\":16759:16881   */\n    tag_171:\n        /* \"#utility.yul\":16832:16856   */\n      tag_336\n        /* \"#utility.yul\":16850:16855   */\n      dup2\n        /* \"#utility.yul\":16832:16856   */\n      tag_218\n      jump\t// in\n    tag_336:\n        /* \"#utility.yul\":16825:16830   */\n      dup2\n        /* \"#utility.yul\":16822:16857   */\n      eq\n        /* \"#utility.yul\":16812:16875   */\n      tag_337\n      jumpi\n        /* \"#utility.yul\":16871:16872   */\n      0x00\n        /* \"#utility.yul\":16868:16869   */\n      dup1\n        /* \"#utility.yul\":16861:16873   */\n      revert\n        /* \"#utility.yul\":16812:16875   */\n    tag_337:\n        /* \"#utility.yul\":16759:16881   */\n      pop\n      jump\t// out\n        /* \"#utility.yul\":16887:17009   */\n    tag_189:\n        /* \"#utility.yul\":16960:16984   */\n      tag_339\n        /* \"#utility.yul\":16978:16983   */\n      dup2\n        /* \"#utility.yul\":16960:16984   */\n      tag_256\n      jump\t// in\n    tag_339:\n        /* \"#utility.yul\":16953:16958   */\n      dup2\n        /* \"#utility.yul\":16950:16985   */\n      eq\n        /* \"#utility.yul\":16940:17003   */\n      tag_340\n      jumpi\n        /* \"#utility.yul\":16999:17000   */\n      0x00\n        /* \"#utility.yul\":16996:16997   */\n      dup1\n        /* \"#utility.yul\":16989:17001   */\n      revert\n        /* \"#utility.yul\":16940:17003   */\n    tag_340:\n        /* \"#utility.yul\":16887:17009   */\n      pop\n      jump\t// out\n\n    auxdata: 0xa26469706673582212208265aee5af055ee55343c71383591e39a123d38f31b433ab1599e208c0a2e61564736f6c63430008070033\n}\n\nsub_1: assembly {\n        /* \"contracts/Token.sol\":99:241  contract Token is ERC20Standard {\r... */\n      mstore(0x40, 0x80)\n        /* \"contracts/Token.sol\":141:238  constructor() {\r... */\n      callvalue\n      dup1\n      iszero\n      tag_1\n      jumpi\n      0x00\n      dup1\n      revert\n    tag_1:\n      pop\n        /* \"contracts/Token.sol\":164:186  name = \"E-Voting coin\" */\n      mload(0x40)\n      dup1\n      0x40\n      add\n      0x40\n      mstore\n      dup1\n      0x0d\n      dup2\n      mstore\n      0x20\n      add\n      0x452d566f74696e6720636f696e00000000000000000000000000000000000000\n      dup2\n      mstore\n      pop\n        /* \"contracts/Token.sol\":164:168  name */\n      0x01\n        /* \"contracts/Token.sol\":164:186  name = \"E-Voting coin\" */\n      swap1\n      dup1\n      mload\n      swap1\n      0x20\n      add\n      swap1\n      tag_4\n      swap3\n      swap2\n      swap1\n      tag_5\n      jump\t// in\n    tag_4:\n      pop\n        /* \"contracts/Token.sol\":206:207  0 */\n      0x00\n        /* \"contracts/Token.sol\":195:203  decimals */\n      0x02\n      0x00\n        /* \"contracts/Token.sol\":195:207  decimals = 0 */\n      0x0100\n      exp\n      dup2\n      sload\n      dup2\n      0xff\n      mul\n      not\n      and\n      swap1\n      dup4\n      0xff\n      and\n      mul\n      or\n      swap1\n      sstore\n      pop\n        /* \"contracts/Token.sol\":216:230  symbol = \"EVC\" */\n      mload(0x40)\n      dup1\n      0x40\n      add\n      0x40\n      mstore\n      dup1\n      0x03\n      dup2\n      mstore\n      0x20\n      add\n      0x4556430000000000000000000000000000000000000000000000000000000000\n      dup2\n      mstore\n      pop\n        /* \"contracts/Token.sol\":216:222  symbol */\n      0x03\n        /* \"contracts/Token.sol\":216:230  symbol = \"EVC\" */\n      swap1\n      dup1\n      mload\n      swap1\n      0x20\n      add\n      swap1\n      tag_6\n      swap3\n      swap2\n      swap1\n      tag_5\n      jump\t// in\n    tag_6:\n      pop\n        /* \"contracts/Token.sol\":99:241  contract Token is ERC20Standard {\r... */\n      jump(tag_7)\n    tag_5:\n      dup3\n      dup1\n      sload\n      tag_8\n      swap1\n      tag_9\n      jump\t// in\n    tag_8:\n      swap1\n      0x00\n      mstore\n      keccak256(0x00, 0x20)\n      swap1\n      0x1f\n      add\n      0x20\n      swap1\n      div\n      dup2\n      add\n      swap3\n      dup3\n      tag_11\n      jumpi\n      0x00\n      dup6\n      sstore\n      jump(tag_10)\n    tag_11:\n      dup3\n      0x1f\n      lt\n      tag_12\n      jumpi\n      dup1\n      mload\n      not(0xff)\n      and\n      dup4\n      dup1\n      add\n      or\n      dup6\n      sstore\n      jump(tag_10)\n    tag_12:\n      dup3\n      dup1\n      add\n      0x01\n      add\n      dup6\n      sstore\n      dup3\n      iszero\n      tag_10\n      jumpi\n      swap2\n      dup3\n      add\n    tag_13:\n      dup3\n      dup2\n      gt\n      iszero\n      tag_14\n      jumpi\n      dup3\n      mload\n      dup3\n      sstore\n      swap2\n      0x20\n      add\n      swap2\n      swap1\n      0x01\n      add\n      swap1\n      jump(tag_13)\n    tag_14:\n    tag_10:\n      pop\n      swap1\n      pop\n      tag_15\n      swap2\n      swap1\n      tag_16\n      jump\t// in\n    tag_15:\n      pop\n      swap1\n      jump\t// out\n    tag_16:\n    tag_17:\n      dup1\n      dup3\n      gt\n      iszero\n      tag_18\n      jumpi\n      0x00\n      dup2\n      0x00\n      swap1\n      sstore\n      pop\n      0x01\n      add\n      jump(tag_17)\n    tag_18:\n      pop\n      swap1\n      jump\t// out\n        /* \"#utility.yul\":7:327   */\n    tag_9:\n        /* \"#utility.yul\":51:57   */\n      0x00\n        /* \"#utility.yul\":88:89   */\n      0x02\n        /* \"#utility.yul\":82:86   */\n      dup3\n        /* \"#utility.yul\":78:90   */\n      div\n        /* \"#utility.yul\":68:90   */\n      swap1\n      pop\n        /* \"#utility.yul\":135:136   */\n      0x01\n        /* \"#utility.yul\":129:133   */\n      dup3\n        /* \"#utility.yul\":125:137   */\n      and\n        /* \"#utility.yul\":156:174   */\n      dup1\n        /* \"#utility.yul\":146:227   */\n      tag_21\n      jumpi\n        /* \"#utility.yul\":212:216   */\n      0x7f\n        /* \"#utility.yul\":204:210   */\n      dup3\n        /* \"#utility.yul\":200:217   */\n      and\n        /* \"#utility.yul\":190:217   */\n      swap2\n      pop\n        /* \"#utility.yul\":146:227   */\n    tag_21:\n        /* \"#utility.yul\":274:276   */\n      0x20\n        /* \"#utility.yul\":266:272   */\n      dup3\n        /* \"#utility.yul\":263:277   */\n      lt\n        /* \"#utility.yul\":243:261   */\n      dup2\n        /* \"#utility.yul\":240:278   */\n      eq\n        /* \"#utility.yul\":237:321   */\n      iszero\n      tag_22\n      jumpi\n        /* \"#utility.yul\":293:311   */\n      tag_23\n      tag_24\n      jump\t// in\n    tag_23:\n        /* \"#utility.yul\":237:321   */\n    tag_22:\n        /* \"#utility.yul\":58:327   */\n      pop\n        /* \"#utility.yul\":7:327   */\n      swap2\n      swap1\n      pop\n      jump\t// out\n        /* \"#utility.yul\":333:513   */\n    tag_24:\n        /* \"#utility.yul\":381:458   */\n      0x4e487b7100000000000000000000000000000000000000000000000000000000\n        /* \"#utility.yul\":378:379   */\n      0x00\n        /* \"#utility.yul\":371:459   */\n      mstore\n        /* \"#utility.yul\":478:482   */\n      0x22\n        /* \"#utility.yul\":475:476   */\n      0x04\n        /* \"#utility.yul\":468:483   */\n      mstore\n        /* \"#utility.yul\":502:506   */\n      0x24\n        /* \"#utility.yul\":499:500   */\n      0x00\n        /* \"#utility.yul\":492:507   */\n      revert\n        /* \"contracts/Token.sol\":99:241  contract Token is ERC20Standard {\r... */\n    tag_7:\n      dataSize(sub_0)\n      dup1\n      dataOffset(sub_0)\n      0x00\n      codecopy\n      0x00\n      return\n    stop\n\n    sub_0: assembly {\n            /* \"contracts/Token.sol\":99:241  contract Token is ERC20Standard {\r... */\n          mstore(0x40, 0x80)\n          callvalue\n          dup1\n          iszero\n          tag_1\n          jumpi\n          0x00\n          dup1\n          revert\n        tag_1:\n          pop\n          jumpi(tag_2, lt(calldatasize, 0x04))\n          shr(0xe0, calldataload(0x00))\n          dup1\n          0x54fd4d50\n          gt\n          tag_15\n          jumpi\n          dup1\n          0x54fd4d50\n          eq\n          tag_9\n          jumpi\n          dup1\n          0x70a08231\n          eq\n          tag_10\n          jumpi\n          dup1\n          0x95d89b41\n          eq\n          tag_11\n          jumpi\n          dup1\n          0xa9059cbb\n          eq\n          tag_12\n          jumpi\n          dup1\n          0xc4e41b22\n          eq\n          tag_13\n          jumpi\n          dup1\n          0xdd62ed3e\n          eq\n          tag_14\n          jumpi\n          jump(tag_2)\n        tag_15:\n          dup1\n          0x06fdde03\n          eq\n          tag_3\n          jumpi\n          dup1\n          0x095ea7b3\n          eq\n          tag_4\n          jumpi\n          dup1\n          0x18160ddd\n          eq\n          tag_5\n          jumpi\n          dup1\n          0x23b872dd\n          eq\n          tag_6\n          jumpi\n          dup1\n          0x313ce567\n          eq\n          tag_7\n          jumpi\n          dup1\n          0x40c10f19\n          eq\n          tag_8\n          jumpi\n        tag_2:\n          0x00\n          dup1\n          revert\n            /* \"contracts/ERC20Standard.sol\":1005:1023  string public name */\n        tag_3:\n          tag_16\n          tag_17\n          jump\t// in\n        tag_16:\n          mload(0x40)\n          tag_18\n          swap2\n          swap1\n          tag_19\n          jump\t// in\n        tag_18:\n          mload(0x40)\n          dup1\n          swap2\n          sub\n          swap1\n          return\n            /* \"contracts/ERC20Standard.sol\":2784:2936  function  approve(address _spender, uint _value) public {\r... */\n        tag_4:\n          tag_20\n          0x04\n          dup1\n          calldatasize\n          sub\n          dup2\n          add\n          swap1\n          tag_21\n          swap2\n          swap1\n          tag_22\n          jump\t// in\n        tag_21:\n          tag_23\n          jump\t// in\n        tag_20:\n          stop\n            /* \"contracts/ERC20Standard.sol\":975:998  uint public totalSupply */\n        tag_5:\n          tag_24\n          tag_25\n          jump\t// in\n        tag_24:\n          mload(0x40)\n          tag_26\n          swap2\n          swap1\n          tag_27\n          jump\t// in\n        tag_26:\n          mload(0x40)\n          dup1\n          swap2\n          sub\n          swap1\n          return\n            /* \"contracts/ERC20Standard.sol\":1931:2388  function transferFrom(address _from, address _to, uint _value) public {\r... */\n        tag_6:\n          tag_28\n          0x04\n          dup1\n          calldatasize\n          sub\n          dup2\n          add\n          swap1\n          tag_29\n          swap2\n          swap1\n          tag_30\n          jump\t// in\n        tag_29:\n          tag_31\n          jump\t// in\n        tag_28:\n          stop\n            /* \"contracts/ERC20Standard.sol\":1027:1048  uint8 public decimals */\n        tag_7:\n          tag_32\n          tag_33\n          jump\t// in\n        tag_32:\n          mload(0x40)\n          tag_34\n          swap2\n          swap1\n          tag_35\n          jump\t// in\n        tag_34:\n          mload(0x40)\n          dup1\n          swap2\n          sub\n          swap1\n          return\n            /* \"contracts/ERC20Standard.sol\":2393:2779  function mint(address account, uint256 amount) public {\r... */\n        tag_8:\n          tag_36\n          0x04\n          dup1\n          calldatasize\n          sub\n          dup2\n          add\n          swap1\n          tag_37\n          swap2\n          swap1\n          tag_22\n          jump\t// in\n        tag_37:\n          tag_38\n          jump\t// in\n        tag_36:\n          stop\n            /* \"contracts/ERC20Standard.sol\":1076:1097  string public version */\n        tag_9:\n          tag_39\n          tag_40\n          jump\t// in\n        tag_39:\n          mload(0x40)\n          tag_41\n          swap2\n          swap1\n          tag_19\n          jump\t// in\n        tag_41:\n          mload(0x40)\n          dup1\n          swap2\n          sub\n          swap1\n          return\n            /* \"contracts/ERC20Standard.sol\":1345:1448  function balanceOf(address _owner) public view returns (uint balance) {\r... */\n        tag_10:\n          tag_42\n          0x04\n          dup1\n          calldatasize\n          sub\n          dup2\n          add\n          swap1\n          tag_43\n          swap2\n          swap1\n          tag_44\n          jump\t// in\n        tag_43:\n          tag_45\n          jump\t// in\n        tag_42:\n          mload(0x40)\n          tag_46\n          swap2\n          swap1\n          tag_27\n          jump\t// in\n        tag_46:\n          mload(0x40)\n          dup1\n          swap2\n          sub\n          swap1\n          return\n            /* \"contracts/ERC20Standard.sol\":1052:1072  string public symbol */\n        tag_11:\n          tag_47\n          tag_48\n          jump\t// in\n        tag_47:\n          mload(0x40)\n          tag_49\n          swap2\n          swap1\n          tag_19\n          jump\t// in\n        tag_49:\n          mload(0x40)\n          dup1\n          swap2\n          sub\n          swap1\n          return\n            /* \"contracts/ERC20Standard.sol\":1539:1926  function transfer(address _recipient, uint _value) public onlyPayloadSize(2*32) {\r... */\n        tag_12:\n          tag_50\n          0x04\n          dup1\n          calldatasize\n          sub\n          dup2\n          add\n          swap1\n          tag_51\n          swap2\n          swap1\n          tag_22\n          jump\t// in\n        tag_51:\n          tag_52\n          jump\t// in\n        tag_50:\n          stop\n            /* \"contracts/ERC20Standard.sol\":1453:1534  function getTotalSupply() public view returns (uint) {\r... */\n        tag_13:\n          tag_53\n          tag_54\n          jump\t// in\n        tag_53:\n          mload(0x40)\n          tag_55\n          swap2\n          swap1\n          tag_27\n          jump\t// in\n        tag_55:\n          mload(0x40)\n          dup1\n          swap2\n          sub\n          swap1\n          return\n            /* \"contracts/ERC20Standard.sol\":2941:3071  function allowance(address _spender, address _owner) public view returns (uint balance) {\r... */\n        tag_14:\n          tag_56\n          0x04\n          dup1\n          calldatasize\n          sub\n          dup2\n          add\n          swap1\n          tag_57\n          swap2\n          swap1\n          tag_58\n          jump\t// in\n        tag_57:\n          tag_59\n          jump\t// in\n        tag_56:\n          mload(0x40)\n          tag_60\n          swap2\n          swap1\n          tag_27\n          jump\t// in\n        tag_60:\n          mload(0x40)\n          dup1\n          swap2\n          sub\n          swap1\n          return\n            /* \"contracts/ERC20Standard.sol\":1005:1023  string public name */\n        tag_17:\n          0x01\n          dup1\n          sload\n          tag_61\n          swap1\n          tag_62\n          jump\t// in\n        tag_61:\n          dup1\n          0x1f\n          add\n          0x20\n          dup1\n          swap2\n          div\n          mul\n          0x20\n          add\n          mload(0x40)\n          swap1\n          dup2\n          add\n          0x40\n          mstore\n          dup1\n          swap3\n          swap2\n          swap1\n          dup2\n          dup2\n          mstore\n          0x20\n          add\n          dup3\n          dup1\n          sload\n          tag_63\n          swap1\n          tag_62\n          jump\t// in\n        tag_63:\n          dup1\n          iszero\n          tag_64\n          jumpi\n          dup1\n          0x1f\n          lt\n          tag_65\n          jumpi\n          0x0100\n          dup1\n          dup4\n          sload\n          div\n          mul\n          dup4\n          mstore\n          swap2\n          0x20\n          add\n          swap2\n          jump(tag_64)\n        tag_65:\n          dup3\n          add\n          swap2\n          swap1\n          0x00\n          mstore\n          keccak256(0x00, 0x20)\n          swap1\n        tag_66:\n          dup2\n          sload\n          dup2\n          mstore\n          swap1\n          0x01\n          add\n          swap1\n          0x20\n          add\n          dup1\n          dup4\n          gt\n          tag_66\n          jumpi\n          dup3\n          swap1\n          sub\n          0x1f\n          and\n          dup3\n          add\n          swap2\n        tag_64:\n          pop\n          pop\n          pop\n          pop\n          pop\n          dup2\n          jump\t// out\n            /* \"contracts/ERC20Standard.sol\":2784:2936  function  approve(address _spender, uint _value) public {\r... */\n        tag_23:\n            /* \"contracts/ERC20Standard.sol\":2877:2883  _value */\n          dup1\n            /* \"contracts/ERC20Standard.sol\":2845:2852  allowed */\n          0x06\n            /* \"contracts/ERC20Standard.sol\":2845:2864  allowed[msg.sender] */\n          0x00\n            /* \"contracts/ERC20Standard.sol\":2853:2863  msg.sender */\n          caller\n            /* \"contracts/ERC20Standard.sol\":2845:2864  allowed[msg.sender] */\n          0xffffffffffffffffffffffffffffffffffffffff\n          and\n          0xffffffffffffffffffffffffffffffffffffffff\n          and\n          dup2\n          mstore\n          0x20\n          add\n          swap1\n          dup2\n          mstore\n          0x20\n          add\n          0x00\n          keccak256\n            /* \"contracts/ERC20Standard.sol\":2845:2874  allowed[msg.sender][_spender] */\n          0x00\n            /* \"contracts/ERC20Standard.sol\":2865:2873  _spender */\n          dup5\n            /* \"contracts/ERC20Standard.sol\":2845:2874  allowed[msg.sender][_spender] */\n          0xffffffffffffffffffffffffffffffffffffffff\n          and\n          0xffffffffffffffffffffffffffffffffffffffff\n          and\n          dup2\n          mstore\n          0x20\n          add\n          swap1\n          dup2\n          mstore\n          0x20\n          add\n          0x00\n          keccak256\n            /* \"contracts/ERC20Standard.sol\":2845:2883  allowed[msg.sender][_spender] = _value */\n          dup2\n          swap1\n          sstore\n          pop\n            /* \"contracts/ERC20Standard.sol\":2914:2922  _spender */\n          dup2\n            /* \"contracts/ERC20Standard.sol\":2893:2931  Approval(msg.sender, _spender, _value) */\n          0xffffffffffffffffffffffffffffffffffffffff\n          and\n            /* \"contracts/ERC20Standard.sol\":2902:2912  msg.sender */\n          caller\n            /* \"contracts/ERC20Standard.sol\":2893:2931  Approval(msg.sender, _spender, _value) */\n          0xffffffffffffffffffffffffffffffffffffffff\n          and\n          0x8c5be1e5ebec7d5bd14f71427d1e84f3dd0314c0f7b2291e5b200ac8c7c3b925\n            /* \"contracts/ERC20Standard.sol\":2924:2930  _value */\n          dup4\n            /* \"contracts/ERC20Standard.sol\":2893:2931  Approval(msg.sender, _spender, _value) */\n          mload(0x40)\n          tag_68\n          swap2\n          swap1\n          tag_27\n          jump\t// in\n        tag_68:\n          mload(0x40)\n          dup1\n          swap2\n          sub\n          swap1\n          log3\n            /* \"contracts/ERC20Standard.sol\":2784:2936  function  approve(address _spender, uint _value) public {\r... */\n          pop\n          pop\n          jump\t// out\n            /* \"contracts/ERC20Standard.sol\":975:998  uint public totalSupply */\n        tag_25:\n          sload(0x00)\n          dup2\n          jump\t// out\n            /* \"contracts/ERC20Standard.sol\":1931:2388  function transferFrom(address _from, address _to, uint _value) public {\r... */\n        tag_31:\n            /* \"contracts/ERC20Standard.sol\":2023:2024  0 */\n          0x00\n            /* \"contracts/ERC20Standard.sol\":2014:2020  _value */\n          dup2\n            /* \"contracts/ERC20Standard.sol\":2014:2024  _value > 0 */\n          gt\n            /* \"contracts/ERC20Standard.sol\":2006:2040  require(_value > 0, \"Amount <= 0\") */\n          tag_70\n          jumpi\n          mload(0x40)\n          0x08c379a000000000000000000000000000000000000000000000000000000000\n          dup2\n          mstore\n          0x04\n          add\n          tag_71\n          swap1\n          tag_72\n          jump\t// in\n        tag_71:\n          mload(0x40)\n          dup1\n          swap2\n          sub\n          swap1\n          revert\n        tag_70:\n            /* \"contracts/ERC20Standard.sol\":2075:2081  _value */\n          dup1\n            /* \"contracts/ERC20Standard.sol\":2056:2064  balances */\n          0x05\n            /* \"contracts/ERC20Standard.sol\":2056:2071  balances[_from] */\n          0x00\n            /* \"contracts/ERC20Standard.sol\":2065:2070  _from */\n          dup6\n            /* \"contracts/ERC20Standard.sol\":2056:2071  balances[_from] */\n          0xffffffffffffffffffffffffffffffffffffffff\n          and\n          0xffffffffffffffffffffffffffffffffffffffff\n          and\n          dup2\n          mstore\n          0x20\n          add\n          swap1\n          dup2\n          mstore\n          0x20\n          add\n          0x00\n          keccak256\n          sload\n            /* \"contracts/ERC20Standard.sol\":2056:2081  balances[_from] >= _value */\n          lt\n          iszero\n            /* \"contracts/ERC20Standard.sol\":2048:2102  require(balances[_from] >= _value, \"Balance < amount\") */\n          tag_73\n          jumpi\n          mload(0x40)\n          0x08c379a000000000000000000000000000000000000000000000000000000000\n          dup2\n          mstore\n          0x04\n          add\n          tag_74\n          swap1\n          tag_75\n          jump\t// in\n        tag_74:\n          mload(0x40)\n          dup1\n          swap2\n          sub\n          swap1\n          revert\n        tag_73:\n            /* \"contracts/ERC20Standard.sol\":2145:2151  _value */\n          dup1\n            /* \"contracts/ERC20Standard.sol\":2115:2122  allowed */\n          0x06\n            /* \"contracts/ERC20Standard.sol\":2115:2129  allowed[_from] */\n          0x00\n            /* \"contracts/ERC20Standard.sol\":2123:2128  _from */\n          dup6\n            /* \"contracts/ERC20Standard.sol\":2115:2129  allowed[_from] */\n          0xffffffffffffffffffffffffffffffffffffffff\n          and\n          0xffffffffffffffffffffffffffffffffffffffff\n          and\n          dup2\n          mstore\n          0x20\n          add\n          swap1\n          dup2\n          mstore\n          0x20\n          add\n          0x00\n          keccak256\n            /* \"contracts/ERC20Standard.sol\":2115:2141  allowed[_from][msg.sender] */\n          0x00\n            /* \"contracts/ERC20Standard.sol\":2130:2140  msg.sender */\n          caller\n            /* \"contracts/ERC20Standard.sol\":2115:2141  allowed[_from][msg.sender] */\n          0xffffffffffffffffffffffffffffffffffffffff\n          and\n          0xffffffffffffffffffffffffffffffffffffffff\n          and\n          dup2\n          mstore\n          0x20\n          add\n          swap1\n          dup2\n          mstore\n          0x20\n          add\n          0x00\n          keccak256\n          sload\n            /* \"contracts/ERC20Standard.sol\":2115:2151  allowed[_from][msg.sender] >= _value */\n          lt\n          iszero\n            /* \"contracts/ERC20Standard.sol\":2107:2170  require(allowed[_from][msg.sender] >= _value, \"Don't allowed.\") */\n          tag_76\n          jumpi\n          mload(0x40)\n          0x08c379a000000000000000000000000000000000000000000000000000000000\n          dup2\n          mstore\n          0x04\n          add\n          tag_77\n          swap1\n          tag_78\n          jump\t// in\n        tag_77:\n          mload(0x40)\n          dup1\n          swap2\n          sub\n          swap1\n          revert\n        tag_76:\n            /* \"contracts/ERC20Standard.sol\":2191:2216  balances[_to].add(_value) */\n          tag_79\n            /* \"contracts/ERC20Standard.sol\":2209:2215  _value */\n          dup2\n            /* \"contracts/ERC20Standard.sol\":2191:2199  balances */\n          0x05\n            /* \"contracts/ERC20Standard.sol\":2191:2204  balances[_to] */\n          0x00\n            /* \"contracts/ERC20Standard.sol\":2200:2203  _to */\n          dup6\n            /* \"contracts/ERC20Standard.sol\":2191:2204  balances[_to] */\n          0xffffffffffffffffffffffffffffffffffffffff\n          and\n          0xffffffffffffffffffffffffffffffffffffffff\n          and\n          dup2\n          mstore\n          0x20\n          add\n          swap1\n          dup2\n          mstore\n          0x20\n          add\n          0x00\n          keccak256\n          sload\n            /* \"contracts/ERC20Standard.sol\":2191:2208  balances[_to].add */\n          tag_80\n          swap1\n            /* \"contracts/ERC20Standard.sol\":2191:2216  balances[_to].add(_value) */\n          swap2\n          swap1\n          0xffffffff\n          and\n          jump\t// in\n        tag_79:\n            /* \"contracts/ERC20Standard.sol\":2175:2183  balances */\n          0x05\n            /* \"contracts/ERC20Standard.sol\":2175:2188  balances[_to] */\n          0x00\n            /* \"contracts/ERC20Standard.sol\":2184:2187  _to */\n          dup5\n            /* \"contracts/ERC20Standard.sol\":2175:2188  balances[_to] */\n          0xffffffffffffffffffffffffffffffffffffffff\n          and\n          0xffffffffffffffffffffffffffffffffffffffff\n          and\n          dup2\n          mstore\n          0x20\n          add\n          swap1\n          dup2\n          mstore\n          0x20\n          add\n          0x00\n          keccak256\n            /* \"contracts/ERC20Standard.sol\":2175:2216  balances[_to] = balances[_to].add(_value) */\n          dup2\n          swap1\n          sstore\n          pop\n            /* \"contracts/ERC20Standard.sol\":2239:2266  balances[_from].sub(_value) */\n          tag_81\n            /* \"contracts/ERC20Standard.sol\":2259:2265  _value */\n          dup2\n            /* \"contracts/ERC20Standard.sol\":2239:2247  balances */\n          0x05\n            /* \"contracts/ERC20Standard.sol\":2239:2254  balances[_from] */\n          0x00\n            /* \"contracts/ERC20Standard.sol\":2248:2253  _from */\n          dup7\n            /* \"contracts/ERC20Standard.sol\":2239:2254  balances[_from] */\n          0xffffffffffffffffffffffffffffffffffffffff\n          and\n          0xffffffffffffffffffffffffffffffffffffffff\n          and\n          dup2\n          mstore\n          0x20\n          add\n          swap1\n          dup2\n          mstore\n          0x20\n          add\n          0x00\n          keccak256\n          sload\n            /* \"contracts/ERC20Standard.sol\":2239:2258  balances[_from].sub */\n          tag_82\n          swap1\n            /* \"contracts/ERC20Standard.sol\":2239:2266  balances[_from].sub(_value) */\n          swap2\n          swap1\n          0xffffffff\n          and\n          jump\t// in\n        tag_81:\n            /* \"contracts/ERC20Standard.sol\":2221:2229  balances */\n          0x05\n            /* \"contracts/ERC20Standard.sol\":2221:2236  balances[_from] */\n          0x00\n            /* \"contracts/ERC20Standard.sol\":2230:2235  _from */\n          dup6\n            /* \"contracts/ERC20Standard.sol\":2221:2236  balances[_from] */\n          0xffffffffffffffffffffffffffffffffffffffff\n          and\n          0xffffffffffffffffffffffffffffffffffffffff\n          and\n          dup2\n          mstore\n          0x20\n          add\n          swap1\n          dup2\n          mstore\n          0x20\n          add\n          0x00\n          keccak256\n            /* \"contracts/ERC20Standard.sol\":2221:2266  balances[_from] = balances[_from].sub(_value) */\n          dup2\n          swap1\n          sstore\n          pop\n            /* \"contracts/ERC20Standard.sol\":2300:2338  allowed[_from][msg.sender].sub(_value) */\n          tag_83\n            /* \"contracts/ERC20Standard.sol\":2331:2337  _value */\n          dup2\n            /* \"contracts/ERC20Standard.sol\":2300:2307  allowed */\n          0x06\n            /* \"contracts/ERC20Standard.sol\":2300:2314  allowed[_from] */\n          0x00\n            /* \"contracts/ERC20Standard.sol\":2308:2313  _from */\n          dup7\n            /* \"contracts/ERC20Standard.sol\":2300:2314  allowed[_from] */\n          0xffffffffffffffffffffffffffffffffffffffff\n          and\n          0xffffffffffffffffffffffffffffffffffffffff\n          and\n          dup2\n          mstore\n          0x20\n          add\n          swap1\n          dup2\n          mstore\n          0x20\n          add\n          0x00\n          keccak256\n            /* \"contracts/ERC20Standard.sol\":2300:2326  allowed[_from][msg.sender] */\n          0x00\n            /* \"contracts/ERC20Standard.sol\":2315:2325  msg.sender */\n          caller\n            /* \"contracts/ERC20Standard.sol\":2300:2326  allowed[_from][msg.sender] */\n          0xffffffffffffffffffffffffffffffffffffffff\n          and\n          0xffffffffffffffffffffffffffffffffffffffff\n          and\n          dup2\n          mstore\n          0x20\n          add\n          swap1\n          dup2\n          mstore\n          0x20\n          add\n          0x00\n          keccak256\n          sload\n            /* \"contracts/ERC20Standard.sol\":2300:2330  allowed[_from][msg.sender].sub */\n          tag_82\n          swap1\n            /* \"contracts/ERC20Standard.sol\":2300:2338  allowed[_from][msg.sender].sub(_value) */\n          swap2\n          swap1\n          0xffffffff\n          and\n          jump\t// in\n        tag_83:\n            /* \"contracts/ERC20Standard.sol\":2271:2278  allowed */\n          0x06\n            /* \"contracts/ERC20Standard.sol\":2271:2285  allowed[_from] */\n          0x00\n            /* \"contracts/ERC20Standard.sol\":2279:2284  _from */\n          dup6\n            /* \"contracts/ERC20Standard.sol\":2271:2285  allowed[_from] */\n          0xffffffffffffffffffffffffffffffffffffffff\n          and\n          0xffffffffffffffffffffffffffffffffffffffff\n          and\n          dup2\n          mstore\n          0x20\n          add\n          swap1\n          dup2\n          mstore\n          0x20\n          add\n          0x00\n          keccak256\n            /* \"contracts/ERC20Standard.sol\":2271:2297  allowed[_from][msg.sender] */\n          0x00\n            /* \"contracts/ERC20Standard.sol\":2286:2296  msg.sender */\n          caller\n            /* \"contracts/ERC20Standard.sol\":2271:2297  allowed[_from][msg.sender] */\n          0xffffffffffffffffffffffffffffffffffffffff\n          and\n          0xffffffffffffffffffffffffffffffffffffffff\n          and\n          dup2\n          mstore\n          0x20\n          add\n          swap1\n          dup2\n          mstore\n          0x20\n          add\n          0x00\n          keccak256\n            /* \"contracts/ERC20Standard.sol\":2271:2338  allowed[_from][msg.sender] = allowed[_from][msg.sender].sub(_value) */\n          dup2\n          swap1\n          sstore\n          pop\n            /* \"contracts/ERC20Standard.sol\":2364:2367  _to */\n          dup2\n            /* \"contracts/ERC20Standard.sol\":2348:2376  Transfer(_from, _to, _value) */\n          0xffffffffffffffffffffffffffffffffffffffff\n          and\n            /* \"contracts/ERC20Standard.sol\":2357:2362  _from */\n          dup4\n            /* \"contracts/ERC20Standard.sol\":2348:2376  Transfer(_from, _to, _value) */\n          0xffffffffffffffffffffffffffffffffffffffff\n          and\n          0xddf252ad1be2c89b69c2b068fc378daa952ba7f163c4a11628f55a4df523b3ef\n            /* \"contracts/ERC20Standard.sol\":2369:2375  _value */\n          dup4\n            /* \"contracts/ERC20Standard.sol\":2348:2376  Transfer(_from, _to, _value) */\n          mload(0x40)\n          tag_84\n          swap2\n          swap1\n          tag_27\n          jump\t// in\n        tag_84:\n          mload(0x40)\n          dup1\n          swap2\n          sub\n          swap1\n          log3\n            /* \"contracts/ERC20Standard.sol\":1931:2388  function transferFrom(address _from, address _to, uint _value) public {\r... */\n          pop\n          pop\n          pop\n          jump\t// out\n            /* \"contracts/ERC20Standard.sol\":1027:1048  uint8 public decimals */\n        tag_33:\n          0x02\n          0x00\n          swap1\n          sload\n          swap1\n          0x0100\n          exp\n          swap1\n          div\n          0xff\n          and\n          dup2\n          jump\t// out\n            /* \"contracts/ERC20Standard.sol\":2393:2779  function mint(address account, uint256 amount) public {\r... */\n        tag_38:\n            /* \"contracts/ERC20Standard.sol\":2485:2486  0 */\n          0x00\n            /* \"contracts/ERC20Standard.sol\":2466:2487  account != address(0) */\n          0xffffffffffffffffffffffffffffffffffffffff\n          and\n            /* \"contracts/ERC20Standard.sol\":2466:2473  account */\n          dup3\n            /* \"contracts/ERC20Standard.sol\":2466:2487  account != address(0) */\n          0xffffffffffffffffffffffffffffffffffffffff\n          and\n          eq\n          iszero\n            /* \"contracts/ERC20Standard.sol\":2458:2523  require(account != address(0), \"ERC20: mint to the zero address\") */\n          tag_86\n          jumpi\n          mload(0x40)\n          0x08c379a000000000000000000000000000000000000000000000000000000000\n          dup2\n          mstore\n          0x04\n          add\n          tag_87\n          swap1\n          tag_88\n          jump\t// in\n        tag_87:\n          mload(0x40)\n          dup1\n          swap2\n          sub\n          swap1\n          revert\n        tag_86:\n            /* \"contracts/ERC20Standard.sol\":2536:2585  _beforeTokenTransfer(address(0), account, amount) */\n          tag_89\n            /* \"contracts/ERC20Standard.sol\":2565:2566  0 */\n          0x00\n            /* \"contracts/ERC20Standard.sol\":2569:2576  account */\n          dup4\n            /* \"contracts/ERC20Standard.sol\":2578:2584  amount */\n          dup4\n            /* \"contracts/ERC20Standard.sol\":2536:2556  _beforeTokenTransfer */\n          tag_90\n            /* \"contracts/ERC20Standard.sol\":2536:2585  _beforeTokenTransfer(address(0), account, amount) */\n          jump\t// in\n        tag_89:\n            /* \"contracts/ERC20Standard.sol\":2613:2619  amount */\n          dup1\n            /* \"contracts/ERC20Standard.sol\":2598:2609  totalSupply */\n          0x00\n          dup1\n            /* \"contracts/ERC20Standard.sol\":2598:2619  totalSupply += amount */\n          dup3\n          dup3\n          sload\n          tag_91\n          swap2\n          swap1\n          tag_92\n          jump\t// in\n        tag_91:\n          swap3\n          pop\n          pop\n          dup2\n          swap1\n          sstore\n          pop\n            /* \"contracts/ERC20Standard.sol\":2651:2657  amount */\n          dup1\n            /* \"contracts/ERC20Standard.sol\":2630:2638  balances */\n          0x05\n            /* \"contracts/ERC20Standard.sol\":2630:2647  balances[account] */\n          0x00\n            /* \"contracts/ERC20Standard.sol\":2639:2646  account */\n          dup5\n            /* \"contracts/ERC20Standard.sol\":2630:2647  balances[account] */\n          0xffffffffffffffffffffffffffffffffffffffff\n          and\n          0xffffffffffffffffffffffffffffffffffffffff\n          and\n          dup2\n          mstore\n          0x20\n          add\n          swap1\n          dup2\n          mstore\n          0x20\n          add\n          0x00\n          keccak256\n          0x00\n            /* \"contracts/ERC20Standard.sol\":2630:2657  balances[account] += amount */\n          dup3\n          dup3\n          sload\n          tag_93\n          swap2\n          swap1\n          tag_92\n          jump\t// in\n        tag_93:\n          swap3\n          pop\n          pop\n          dup2\n          swap1\n          sstore\n          pop\n            /* \"contracts/ERC20Standard.sol\":2694:2701  account */\n          dup2\n            /* \"contracts/ERC20Standard.sol\":2673:2710  Transfer(address(0), account, amount) */\n          0xffffffffffffffffffffffffffffffffffffffff\n          and\n            /* \"contracts/ERC20Standard.sol\":2690:2691  0 */\n          0x00\n            /* \"contracts/ERC20Standard.sol\":2673:2710  Transfer(address(0), account, amount) */\n          0xffffffffffffffffffffffffffffffffffffffff\n          and\n          0xddf252ad1be2c89b69c2b068fc378daa952ba7f163c4a11628f55a4df523b3ef\n            /* \"contracts/ERC20Standard.sol\":2703:2709  amount */\n          dup4\n            /* \"contracts/ERC20Standard.sol\":2673:2710  Transfer(address(0), account, amount) */\n          mload(0x40)\n          tag_94\n          swap2\n          swap1\n          tag_27\n          jump\t// in\n        tag_94:\n          mload(0x40)\n          dup1\n          swap2\n          sub\n          swap1\n          log3\n            /* \"contracts/ERC20Standard.sol\":2723:2771  _afterTokenTransfer(address(0), account, amount) */\n          tag_95\n            /* \"contracts/ERC20Standard.sol\":2751:2752  0 */\n          0x00\n            /* \"contracts/ERC20Standard.sol\":2755:2762  account */\n          dup4\n            /* \"contracts/ERC20Standard.sol\":2764:2770  amount */\n          dup4\n            /* \"contracts/ERC20Standard.sol\":2723:2742  _afterTokenTransfer */\n          tag_96\n            /* \"contracts/ERC20Standard.sol\":2723:2771  _afterTokenTransfer(address(0), account, amount) */\n          jump\t// in\n        tag_95:\n            /* \"contracts/ERC20Standard.sol\":2393:2779  function mint(address account, uint256 amount) public {\r... */\n          pop\n          pop\n          jump\t// out\n            /* \"contracts/ERC20Standard.sol\":1076:1097  string public version */\n        tag_40:\n          0x04\n          dup1\n          sload\n          tag_97\n          swap1\n          tag_62\n          jump\t// in\n        tag_97:\n          dup1\n          0x1f\n          add\n          0x20\n          dup1\n          swap2\n          div\n          mul\n          0x20\n          add\n          mload(0x40)\n          swap1\n          dup2\n          add\n          0x40\n          mstore\n          dup1\n          swap3\n          swap2\n          swap1\n          dup2\n          dup2\n          mstore\n          0x20\n          add\n          dup3\n          dup1\n          sload\n          tag_98\n          swap1\n          tag_62\n          jump\t// in\n        tag_98:\n          dup1\n          iszero\n          tag_99\n          jumpi\n          dup1\n          0x1f\n          lt\n          tag_100\n          jumpi\n          0x0100\n          dup1\n          dup4\n          sload\n          div\n          mul\n          dup4\n          mstore\n          swap2\n          0x20\n          add\n          swap2\n          jump(tag_99)\n        tag_100:\n          dup3\n          add\n          swap2\n          swap1\n          0x00\n          mstore\n          keccak256(0x00, 0x20)\n          swap1\n        tag_101:\n          dup2\n          sload\n          dup2\n          mstore\n          swap1\n          0x01\n          add\n          swap1\n          0x20\n          add\n          dup1\n          dup4\n          gt\n          tag_101\n          jumpi\n          dup3\n          swap1\n          sub\n          0x1f\n          and\n          dup3\n          add\n          swap2\n        tag_99:\n          pop\n          pop\n          pop\n          pop\n          pop\n          dup2\n          jump\t// out\n            /* \"contracts/ERC20Standard.sol\":1345:1448  function balanceOf(address _owner) public view returns (uint balance) {\r... */\n        tag_45:\n            /* \"contracts/ERC20Standard.sol\":1401:1413  uint balance */\n          0x00\n            /* \"contracts/ERC20Standard.sol\":1427:1435  balances */\n          0x05\n            /* \"contracts/ERC20Standard.sol\":1427:1443  balances[_owner] */\n          0x00\n            /* \"contracts/ERC20Standard.sol\":1436:1442  _owner */\n          dup4\n            /* \"contracts/ERC20Standard.sol\":1427:1443  balances[_owner] */\n          0xffffffffffffffffffffffffffffffffffffffff\n          and\n          0xffffffffffffffffffffffffffffffffffffffff\n          and\n          dup2\n          mstore\n          0x20\n          add\n          swap1\n          dup2\n          mstore\n          0x20\n          add\n          0x00\n          keccak256\n          sload\n            /* \"contracts/ERC20Standard.sol\":1420:1443  return balances[_owner] */\n          swap1\n          pop\n            /* \"contracts/ERC20Standard.sol\":1345:1448  function balanceOf(address _owner) public view returns (uint balance) {\r... */\n          swap2\n          swap1\n          pop\n          jump\t// out\n            /* \"contracts/ERC20Standard.sol\":1052:1072  string public symbol */\n        tag_48:\n          0x03\n          dup1\n          sload\n          tag_103\n          swap1\n          tag_62\n          jump\t// in\n        tag_103:\n          dup1\n          0x1f\n          add\n          0x20\n          dup1\n          swap2\n          div\n          mul\n          0x20\n          add\n          mload(0x40)\n          swap1\n          dup2\n          add\n          0x40\n          mstore\n          dup1\n          swap3\n          swap2\n          swap1\n          dup2\n          dup2\n          mstore\n          0x20\n          add\n          dup3\n          dup1\n          sload\n          tag_104\n          swap1\n          tag_62\n          jump\t// in\n        tag_104:\n          dup1\n          iszero\n          tag_105\n          jumpi\n          dup1\n          0x1f\n          lt\n          tag_106\n          jumpi\n          0x0100\n          dup1\n          dup4\n          sload\n          div\n          mul\n          dup4\n          mstore\n          swap2\n          0x20\n          add\n          swap2\n          jump(tag_105)\n        tag_106:\n          dup3\n          add\n          swap2\n          swap1\n          0x00\n          mstore\n          keccak256(0x00, 0x20)\n          swap1\n        tag_107:\n          dup2\n          sload\n          dup2\n          mstore\n          swap1\n          0x01\n          add\n          swap1\n          0x20\n          add\n          dup1\n          dup4\n          gt\n          tag_107\n          jumpi\n          dup3\n          swap1\n          sub\n          0x1f\n          and\n          dup3\n          add\n          swap2\n        tag_105:\n          pop\n          pop\n          pop\n          pop\n          pop\n          dup2\n          jump\t// out\n            /* \"contracts/ERC20Standard.sol\":1539:1926  function transfer(address _recipient, uint _value) public onlyPayloadSize(2*32) {\r... */\n        tag_52:\n            /* \"contracts/ERC20Standard.sol\":1613:1617  2*32 */\n          0x40\n            /* \"contracts/ERC20Standard.sol\":1326:1327  4 */\n          0x04\n            /* \"contracts/ERC20Standard.sol\":1319:1323  size */\n          dup2\n            /* \"contracts/ERC20Standard.sol\":1319:1327  size + 4 */\n          tag_109\n          swap2\n          swap1\n          tag_92\n          jump\t// in\n        tag_109:\n            /* \"contracts/ERC20Standard.sol\":1300:1308  msg.data */\n          0x00\n          calldatasize\n            /* \"contracts/ERC20Standard.sol\":1300:1315  msg.data.length */\n          swap1\n          pop\n            /* \"contracts/ERC20Standard.sol\":1300:1327  msg.data.length == size + 4 */\n          eq\n            /* \"contracts/ERC20Standard.sol\":1293:1328  assert(msg.data.length == size + 4) */\n          tag_110\n          jumpi\n          tag_111\n          tag_112\n          jump\t// in\n        tag_111:\n        tag_110:\n            /* \"contracts/ERC20Standard.sol\":1641:1642  0 */\n          0x00\n            /* \"contracts/ERC20Standard.sol\":1632:1638  _value */\n          dup3\n            /* \"contracts/ERC20Standard.sol\":1632:1642  _value > 0 */\n          gt\n            /* \"contracts/ERC20Standard.sol\":1624:1658  require(_value > 0, \"Amount <= 0\") */\n          tag_114\n          jumpi\n          mload(0x40)\n          0x08c379a000000000000000000000000000000000000000000000000000000000\n          dup2\n          mstore\n          0x04\n          add\n          tag_115\n          swap1\n          tag_72\n          jump\t// in\n        tag_115:\n          mload(0x40)\n          dup1\n          swap2\n          sub\n          swap1\n          revert\n        tag_114:\n            /* \"contracts/ERC20Standard.sol\":1698:1704  _value */\n          dup2\n            /* \"contracts/ERC20Standard.sol\":1674:1682  balances */\n          0x05\n            /* \"contracts/ERC20Standard.sol\":1674:1694  balances[msg.sender] */\n          0x00\n            /* \"contracts/ERC20Standard.sol\":1683:1693  msg.sender */\n          caller\n            /* \"contracts/ERC20Standard.sol\":1674:1694  balances[msg.sender] */\n          0xffffffffffffffffffffffffffffffffffffffff\n          and\n          0xffffffffffffffffffffffffffffffffffffffff\n          and\n          dup2\n          mstore\n          0x20\n          add\n          swap1\n          dup2\n          mstore\n          0x20\n          add\n          0x00\n          keccak256\n          sload\n            /* \"contracts/ERC20Standard.sol\":1674:1704  balances[msg.sender] >= _value */\n          lt\n          iszero\n            /* \"contracts/ERC20Standard.sol\":1666:1725  require(balances[msg.sender] >= _value, \"Balance < amount\") */\n          tag_116\n          jumpi\n          mload(0x40)\n          0x08c379a000000000000000000000000000000000000000000000000000000000\n          dup2\n          mstore\n          0x04\n          add\n          tag_117\n          swap1\n          tag_75\n          jump\t// in\n        tag_117:\n          mload(0x40)\n          dup1\n          swap2\n          sub\n          swap1\n          revert\n        tag_116:\n            /* \"contracts/ERC20Standard.sol\":1758:1790  balances[msg.sender].sub(_value) */\n          tag_118\n            /* \"contracts/ERC20Standard.sol\":1783:1789  _value */\n          dup3\n            /* \"contracts/ERC20Standard.sol\":1758:1766  balances */\n          0x05\n            /* \"contracts/ERC20Standard.sol\":1758:1778  balances[msg.sender] */\n          0x00\n            /* \"contracts/ERC20Standard.sol\":1767:1777  msg.sender */\n          caller\n            /* \"contracts/ERC20Standard.sol\":1758:1778  balances[msg.sender] */\n          0xffffffffffffffffffffffffffffffffffffffff\n          and\n          0xffffffffffffffffffffffffffffffffffffffff\n          and\n          dup2\n          mstore\n          0x20\n          add\n          swap1\n          dup2\n          mstore\n          0x20\n          add\n          0x00\n          keccak256\n          sload\n            /* \"contracts/ERC20Standard.sol\":1758:1782  balances[msg.sender].sub */\n          tag_82\n          swap1\n            /* \"contracts/ERC20Standard.sol\":1758:1790  balances[msg.sender].sub(_value) */\n          swap2\n          swap1\n          0xffffffff\n          and\n          jump\t// in\n        tag_118:\n            /* \"contracts/ERC20Standard.sol\":1735:1743  balances */\n          0x05\n            /* \"contracts/ERC20Standard.sol\":1735:1755  balances[msg.sender] */\n          0x00\n            /* \"contracts/ERC20Standard.sol\":1744:1754  msg.sender */\n          caller\n            /* \"contracts/ERC20Standard.sol\":1735:1755  balances[msg.sender] */\n          0xffffffffffffffffffffffffffffffffffffffff\n          and\n          0xffffffffffffffffffffffffffffffffffffffff\n          and\n          dup2\n          mstore\n          0x20\n          add\n          swap1\n          dup2\n          mstore\n          0x20\n          add\n          0x00\n          keccak256\n            /* \"contracts/ERC20Standard.sol\":1735:1790  balances[msg.sender] = balances[msg.sender].sub(_value) */\n          dup2\n          swap1\n          sstore\n          pop\n            /* \"contracts/ERC20Standard.sol\":1821:1853  balances[_recipient].add(_value) */\n          tag_119\n            /* \"contracts/ERC20Standard.sol\":1846:1852  _value */\n          dup3\n            /* \"contracts/ERC20Standard.sol\":1821:1829  balances */\n          0x05\n            /* \"contracts/ERC20Standard.sol\":1821:1841  balances[_recipient] */\n          0x00\n            /* \"contracts/ERC20Standard.sol\":1830:1840  _recipient */\n          dup7\n            /* \"contracts/ERC20Standard.sol\":1821:1841  balances[_recipient] */\n          0xffffffffffffffffffffffffffffffffffffffff\n          and\n          0xffffffffffffffffffffffffffffffffffffffff\n          and\n          dup2\n          mstore\n          0x20\n          add\n          swap1\n          dup2\n          mstore\n          0x20\n          add\n          0x00\n          keccak256\n          sload\n            /* \"contracts/ERC20Standard.sol\":1821:1845  balances[_recipient].add */\n          tag_80\n          swap1\n            /* \"contracts/ERC20Standard.sol\":1821:1853  balances[_recipient].add(_value) */\n          swap2\n          swap1\n          0xffffffff\n          and\n          jump\t// in\n        tag_119:\n            /* \"contracts/ERC20Standard.sol\":1798:1806  balances */\n          0x05\n            /* \"contracts/ERC20Standard.sol\":1798:1818  balances[_recipient] */\n          0x00\n            /* \"contracts/ERC20Standard.sol\":1807:1817  _recipient */\n          dup6\n            /* \"contracts/ERC20Standard.sol\":1798:1818  balances[_recipient] */\n          0xffffffffffffffffffffffffffffffffffffffff\n          and\n          0xffffffffffffffffffffffffffffffffffffffff\n          and\n          dup2\n          mstore\n          0x20\n          add\n          swap1\n          dup2\n          mstore\n          0x20\n          add\n          0x00\n          keccak256\n            /* \"contracts/ERC20Standard.sol\":1798:1853  balances[_recipient] = balances[_recipient].add(_value) */\n          dup2\n          swap1\n          sstore\n          pop\n            /* \"contracts/ERC20Standard.sol\":1887:1897  _recipient */\n          dup3\n            /* \"contracts/ERC20Standard.sol\":1866:1906  Transfer(msg.sender, _recipient, _value) */\n          0xffffffffffffffffffffffffffffffffffffffff\n          and\n            /* \"contracts/ERC20Standard.sol\":1875:1885  msg.sender */\n          caller\n            /* \"contracts/ERC20Standard.sol\":1866:1906  Transfer(msg.sender, _recipient, _value) */\n          0xffffffffffffffffffffffffffffffffffffffff\n          and\n          0xddf252ad1be2c89b69c2b068fc378daa952ba7f163c4a11628f55a4df523b3ef\n            /* \"contracts/ERC20Standard.sol\":1899:1905  _value */\n          dup5\n            /* \"contracts/ERC20Standard.sol\":1866:1906  Transfer(msg.sender, _recipient, _value) */\n          mload(0x40)\n          tag_120\n          swap2\n          swap1\n          tag_27\n          jump\t// in\n        tag_120:\n          mload(0x40)\n          dup1\n          swap2\n          sub\n          swap1\n          log3\n            /* \"contracts/ERC20Standard.sol\":1539:1926  function transfer(address _recipient, uint _value) public onlyPayloadSize(2*32) {\r... */\n          pop\n          pop\n          pop\n          jump\t// out\n            /* \"contracts/ERC20Standard.sol\":1453:1534  function getTotalSupply() public view returns (uint) {\r... */\n        tag_54:\n            /* \"contracts/ERC20Standard.sol\":1500:1504  uint */\n          0x00\n            /* \"contracts/ERC20Standard.sol\":1518:1529  totalSupply */\n          dup1\n          sload\n            /* \"contracts/ERC20Standard.sol\":1511:1529  return totalSupply */\n          swap1\n          pop\n            /* \"contracts/ERC20Standard.sol\":1453:1534  function getTotalSupply() public view returns (uint) {\r... */\n          swap1\n          jump\t// out\n            /* \"contracts/ERC20Standard.sol\":2941:3071  function allowance(address _spender, address _owner) public view returns (uint balance) {\r... */\n        tag_59:\n            /* \"contracts/ERC20Standard.sol\":3015:3027  uint balance */\n          0x00\n            /* \"contracts/ERC20Standard.sol\":3041:3048  allowed */\n          0x06\n            /* \"contracts/ERC20Standard.sol\":3041:3056  allowed[_owner] */\n          0x00\n            /* \"contracts/ERC20Standard.sol\":3049:3055  _owner */\n          dup4\n            /* \"contracts/ERC20Standard.sol\":3041:3056  allowed[_owner] */\n          0xffffffffffffffffffffffffffffffffffffffff\n          and\n          0xffffffffffffffffffffffffffffffffffffffff\n          and\n          dup2\n          mstore\n          0x20\n          add\n          swap1\n          dup2\n          mstore\n          0x20\n          add\n          0x00\n          keccak256\n            /* \"contracts/ERC20Standard.sol\":3041:3066  allowed[_owner][_spender] */\n          0x00\n            /* \"contracts/ERC20Standard.sol\":3057:3065  _spender */\n          dup5\n            /* \"contracts/ERC20Standard.sol\":3041:3066  allowed[_owner][_spender] */\n          0xffffffffffffffffffffffffffffffffffffffff\n          and\n          0xffffffffffffffffffffffffffffffffffffffff\n          and\n          dup2\n          mstore\n          0x20\n          add\n          swap1\n          dup2\n          mstore\n          0x20\n          add\n          0x00\n          keccak256\n          sload\n            /* \"contracts/ERC20Standard.sol\":3034:3066  return allowed[_owner][_spender] */\n          swap1\n          pop\n            /* \"contracts/ERC20Standard.sol\":2941:3071  function allowance(address _spender, address _owner) public view returns (uint balance) {\r... */\n          swap3\n          swap2\n          pop\n          pop\n          jump\t// out\n            /* \"contracts/ERC20Standard.sol\":629:779  function add(uint256 a, uint256 b) internal pure returns (uint256) {\r... */\n        tag_80:\n            /* \"contracts/ERC20Standard.sol\":687:694  uint256 */\n          0x00\n            /* \"contracts/ERC20Standard.sol\":707:716  uint256 c */\n          dup1\n            /* \"contracts/ERC20Standard.sol\":723:724  b */\n          dup3\n            /* \"contracts/ERC20Standard.sol\":719:720  a */\n          dup5\n            /* \"contracts/ERC20Standard.sol\":719:724  a + b */\n          tag_124\n          swap2\n          swap1\n          tag_92\n          jump\t// in\n        tag_124:\n            /* \"contracts/ERC20Standard.sol\":707:724  uint256 c = a + b */\n          swap1\n          pop\n            /* \"contracts/ERC20Standard.sol\":748:749  a */\n          dup4\n            /* \"contracts/ERC20Standard.sol\":743:744  c */\n          dup2\n            /* \"contracts/ERC20Standard.sol\":743:749  c >= a */\n          lt\n          iszero\n            /* \"contracts/ERC20Standard.sol\":735:750  require(c >= a) */\n          tag_125\n          jumpi\n          0x00\n          dup1\n          revert\n        tag_125:\n            /* \"contracts/ERC20Standard.sol\":770:771  c */\n          dup1\n            /* \"contracts/ERC20Standard.sol\":763:771  return c */\n          swap2\n          pop\n          pop\n            /* \"contracts/ERC20Standard.sol\":629:779  function add(uint256 a, uint256 b) internal pure returns (uint256) {\r... */\n          swap3\n          swap2\n          pop\n          pop\n          jump\t// out\n            /* \"contracts/ERC20Standard.sol\":471:621  function sub(uint256 a, uint256 b) internal pure returns (uint256) {\r... */\n        tag_82:\n            /* \"contracts/ERC20Standard.sol\":529:536  uint256 */\n          0x00\n            /* \"contracts/ERC20Standard.sol\":562:563  a */\n          dup3\n            /* \"contracts/ERC20Standard.sol\":557:558  b */\n          dup3\n            /* \"contracts/ERC20Standard.sol\":557:563  b <= a */\n          gt\n          iszero\n            /* \"contracts/ERC20Standard.sol\":549:564  require(b <= a) */\n          tag_127\n          jumpi\n          0x00\n          dup1\n          revert\n        tag_127:\n            /* \"contracts/ERC20Standard.sol\":575:584  uint256 c */\n          0x00\n            /* \"contracts/ERC20Standard.sol\":591:592  b */\n          dup3\n            /* \"contracts/ERC20Standard.sol\":587:588  a */\n          dup5\n            /* \"contracts/ERC20Standard.sol\":587:592  a - b */\n          tag_128\n          swap2\n          swap1\n          tag_129\n          jump\t// in\n        tag_128:\n            /* \"contracts/ERC20Standard.sol\":575:592  uint256 c = a - b */\n          swap1\n          pop\n            /* \"contracts/ERC20Standard.sol\":612:613  c */\n          dup1\n            /* \"contracts/ERC20Standard.sol\":605:613  return c */\n          swap2\n          pop\n          pop\n            /* \"contracts/ERC20Standard.sol\":471:621  function sub(uint256 a, uint256 b) internal pure returns (uint256) {\r... */\n          swap3\n          swap2\n          pop\n          pop\n          jump\t// out\n            /* \"contracts/ERC20Standard.sol\":3435:3560  function _beforeTokenTransfer(\r... */\n        tag_90:\n          pop\n          pop\n          pop\n          jump\t// out\n            /* \"contracts/ERC20Standard.sol\":3569:3693  function _afterTokenTransfer(\r... */\n        tag_96:\n          pop\n          pop\n          pop\n          jump\t// out\n            /* \"#utility.yul\":7:146   */\n        tag_133:\n            /* \"#utility.yul\":53:58   */\n          0x00\n            /* \"#utility.yul\":91:97   */\n          dup2\n            /* \"#utility.yul\":78:98   */\n          calldataload\n            /* \"#utility.yul\":69:98   */\n          swap1\n          pop\n            /* \"#utility.yul\":107:140   */\n          tag_135\n            /* \"#utility.yul\":134:139   */\n          dup2\n            /* \"#utility.yul\":107:140   */\n          tag_136\n          jump\t// in\n        tag_135:\n            /* \"#utility.yul\":7:146   */\n          swap3\n          swap2\n          pop\n          pop\n          jump\t// out\n            /* \"#utility.yul\":152:291   */\n        tag_137:\n            /* \"#utility.yul\":198:203   */\n          0x00\n            /* \"#utility.yul\":236:242   */\n          dup2\n            /* \"#utility.yul\":223:243   */\n          calldataload\n            /* \"#utility.yul\":214:243   */\n          swap1\n          pop\n            /* \"#utility.yul\":252:285   */\n          tag_139\n            /* \"#utility.yul\":279:284   */\n          dup2\n            /* \"#utility.yul\":252:285   */\n          tag_140\n          jump\t// in\n        tag_139:\n            /* \"#utility.yul\":152:291   */\n          swap3\n          swap2\n          pop\n          pop\n          jump\t// out\n            /* \"#utility.yul\":297:626   */\n        tag_44:\n            /* \"#utility.yul\":356:362   */\n          0x00\n            /* \"#utility.yul\":405:407   */\n          0x20\n            /* \"#utility.yul\":393:402   */\n          dup3\n            /* \"#utility.yul\":384:391   */\n          dup5\n            /* \"#utility.yul\":380:403   */\n          sub\n            /* \"#utility.yul\":376:408   */\n          slt\n            /* \"#utility.yul\":373:492   */\n          iszero\n          tag_142\n          jumpi\n            /* \"#utility.yul\":411:490   */\n          tag_143\n          tag_144\n          jump\t// in\n        tag_143:\n            /* \"#utility.yul\":373:492   */\n        tag_142:\n            /* \"#utility.yul\":531:532   */\n          0x00\n            /* \"#utility.yul\":556:609   */\n          tag_145\n            /* \"#utility.yul\":601:608   */\n          dup5\n            /* \"#utility.yul\":592:598   */\n          dup3\n            /* \"#utility.yul\":581:590   */\n          dup6\n            /* \"#utility.yul\":577:599   */\n          add\n            /* \"#utility.yul\":556:609   */\n          tag_133\n          jump\t// in\n        tag_145:\n            /* \"#utility.yul\":546:609   */\n          swap2\n          pop\n            /* \"#utility.yul\":502:619   */\n          pop\n            /* \"#utility.yul\":297:626   */\n          swap3\n          swap2\n          pop\n          pop\n          jump\t// out\n            /* \"#utility.yul\":632:1106   */\n        tag_58:\n            /* \"#utility.yul\":700:706   */\n          0x00\n            /* \"#utility.yul\":708:714   */\n          dup1\n            /* \"#utility.yul\":757:759   */\n          0x40\n            /* \"#utility.yul\":745:754   */\n          dup4\n            /* \"#utility.yul\":736:743   */\n          dup6\n            /* \"#utility.yul\":732:755   */\n          sub\n            /* \"#utility.yul\":728:760   */\n          slt\n            /* \"#utility.yul\":725:844   */\n          iszero\n          tag_147\n          jumpi\n            /* \"#utility.yul\":763:842   */\n          tag_148\n          tag_144\n          jump\t// in\n        tag_148:\n            /* \"#utility.yul\":725:844   */\n        tag_147:\n            /* \"#utility.yul\":883:884   */\n          0x00\n            /* \"#utility.yul\":908:961   */\n          tag_149\n            /* \"#utility.yul\":953:960   */\n          dup6\n            /* \"#utility.yul\":944:950   */\n          dup3\n            /* \"#utility.yul\":933:942   */\n          dup7\n            /* \"#utility.yul\":929:951   */\n          add\n            /* \"#utility.yul\":908:961   */\n          tag_133\n          jump\t// in\n        tag_149:\n            /* \"#utility.yul\":898:961   */\n          swap3\n          pop\n            /* \"#utility.yul\":854:971   */\n          pop\n            /* \"#utility.yul\":1010:1012   */\n          0x20\n            /* \"#utility.yul\":1036:1089   */\n          tag_150\n            /* \"#utility.yul\":1081:1088   */\n          dup6\n            /* \"#utility.yul\":1072:1078   */\n          dup3\n            /* \"#utility.yul\":1061:1070   */\n          dup7\n            /* \"#utility.yul\":1057:1079   */\n          add\n            /* \"#utility.yul\":1036:1089   */\n          tag_133\n          jump\t// in\n        tag_150:\n            /* \"#utility.yul\":1026:1089   */\n          swap2\n          pop\n            /* \"#utility.yul\":981:1099   */\n          pop\n            /* \"#utility.yul\":632:1106   */\n          swap3\n          pop\n          swap3\n          swap1\n          pop\n          jump\t// out\n            /* \"#utility.yul\":1112:1731   */\n        tag_30:\n            /* \"#utility.yul\":1189:1195   */\n          0x00\n            /* \"#utility.yul\":1197:1203   */\n          dup1\n            /* \"#utility.yul\":1205:1211   */\n          0x00\n            /* \"#utility.yul\":1254:1256   */\n          0x60\n            /* \"#utility.yul\":1242:1251   */\n          dup5\n            /* \"#utility.yul\":1233:1240   */\n          dup7\n            /* \"#utility.yul\":1229:1252   */\n          sub\n            /* \"#utility.yul\":1225:1257   */\n          slt\n            /* \"#utility.yul\":1222:1341   */\n          iszero\n          tag_152\n          jumpi\n            /* \"#utility.yul\":1260:1339   */\n          tag_153\n          tag_144\n          jump\t// in\n        tag_153:\n            /* \"#utility.yul\":1222:1341   */\n        tag_152:\n            /* \"#utility.yul\":1380:1381   */\n          0x00\n            /* \"#utility.yul\":1405:1458   */\n          tag_154\n            /* \"#utility.yul\":1450:1457   */\n          dup7\n            /* \"#utility.yul\":1441:1447   */\n          dup3\n            /* \"#utility.yul\":1430:1439   */\n          dup8\n            /* \"#utility.yul\":1426:1448   */\n          add\n            /* \"#utility.yul\":1405:1458   */\n          tag_133\n          jump\t// in\n        tag_154:\n            /* \"#utility.yul\":1395:1458   */\n          swap4\n          pop\n            /* \"#utility.yul\":1351:1468   */\n          pop\n            /* \"#utility.yul\":1507:1509   */\n          0x20\n            /* \"#utility.yul\":1533:1586   */\n          tag_155\n            /* \"#utility.yul\":1578:1585   */\n          dup7\n            /* \"#utility.yul\":1569:1575   */\n          dup3\n            /* \"#utility.yul\":1558:1567   */\n          dup8\n            /* \"#utility.yul\":1554:1576   */\n          add\n            /* \"#utility.yul\":1533:1586   */\n          tag_133\n          jump\t// in\n        tag_155:\n            /* \"#utility.yul\":1523:1586   */\n          swap3\n          pop\n            /* \"#utility.yul\":1478:1596   */\n          pop\n            /* \"#utility.yul\":1635:1637   */\n          0x40\n            /* \"#utility.yul\":1661:1714   */\n          tag_156\n            /* \"#utility.yul\":1706:1713   */\n          dup7\n            /* \"#utility.yul\":1697:1703   */\n          dup3\n            /* \"#utility.yul\":1686:1695   */\n          dup8\n            /* \"#utility.yul\":1682:1704   */\n          add\n            /* \"#utility.yul\":1661:1714   */\n          tag_137\n          jump\t// in\n        tag_156:\n            /* \"#utility.yul\":1651:1714   */\n          swap2\n          pop\n            /* \"#utility.yul\":1606:1724   */\n          pop\n            /* \"#utility.yul\":1112:1731   */\n          swap3\n          pop\n          swap3\n          pop\n          swap3\n          jump\t// out\n            /* \"#utility.yul\":1737:2211   */\n        tag_22:\n            /* \"#utility.yul\":1805:1811   */\n          0x00\n            /* \"#utility.yul\":1813:1819   */\n          dup1\n            /* \"#utility.yul\":1862:1864   */\n          0x40\n            /* \"#utility.yul\":1850:1859   */\n          dup4\n            /* \"#utility.yul\":1841:1848   */\n          dup6\n            /* \"#utility.yul\":1837:1860   */\n          sub\n            /* \"#utility.yul\":1833:1865   */\n          slt\n            /* \"#utility.yul\":1830:1949   */\n          iszero\n          tag_158\n          jumpi\n            /* \"#utility.yul\":1868:1947   */\n          tag_159\n          tag_144\n          jump\t// in\n        tag_159:\n            /* \"#utility.yul\":1830:1949   */\n        tag_158:\n            /* \"#utility.yul\":1988:1989   */\n          0x00\n            /* \"#utility.yul\":2013:2066   */\n          tag_160\n            /* \"#utility.yul\":2058:2065   */\n          dup6\n            /* \"#utility.yul\":2049:2055   */\n          dup3\n            /* \"#utility.yul\":2038:2047   */\n          dup7\n            /* \"#utility.yul\":2034:2056   */\n          add\n            /* \"#utility.yul\":2013:2066   */\n          tag_133\n          jump\t// in\n        tag_160:\n            /* \"#utility.yul\":2003:2066   */\n          swap3\n          pop\n            /* \"#utility.yul\":1959:2076   */\n          pop\n            /* \"#utility.yul\":2115:2117   */\n          0x20\n            /* \"#utility.yul\":2141:2194   */\n          tag_161\n            /* \"#utility.yul\":2186:2193   */\n          dup6\n            /* \"#utility.yul\":2177:2183   */\n          dup3\n            /* \"#utility.yul\":2166:2175   */\n          dup7\n            /* \"#utility.yul\":2162:2184   */\n          add\n            /* \"#utility.yul\":2141:2194   */\n          tag_137\n          jump\t// in\n        tag_161:\n            /* \"#utility.yul\":2131:2194   */\n          swap2\n          pop\n            /* \"#utility.yul\":2086:2204   */\n          pop\n            /* \"#utility.yul\":1737:2211   */\n          swap3\n          pop\n          swap3\n          swap1\n          pop\n          jump\t// out\n            /* \"#utility.yul\":2217:2581   */\n        tag_162:\n            /* \"#utility.yul\":2305:2308   */\n          0x00\n            /* \"#utility.yul\":2333:2372   */\n          tag_164\n            /* \"#utility.yul\":2366:2371   */\n          dup3\n            /* \"#utility.yul\":2333:2372   */\n          tag_165\n          jump\t// in\n        tag_164:\n            /* \"#utility.yul\":2388:2459   */\n          tag_166\n            /* \"#utility.yul\":2452:2458   */\n          dup2\n            /* \"#utility.yul\":2447:2450   */\n          dup6\n            /* \"#utility.yul\":2388:2459   */\n          tag_167\n          jump\t// in\n        tag_166:\n            /* \"#utility.yul\":2381:2459   */\n          swap4\n          pop\n            /* \"#utility.yul\":2468:2520   */\n          tag_168\n            /* \"#utility.yul\":2513:2519   */\n          dup2\n            /* \"#utility.yul\":2508:2511   */\n          dup6\n            /* \"#utility.yul\":2501:2505   */\n          0x20\n            /* \"#utility.yul\":2494:2499   */\n          dup7\n            /* \"#utility.yul\":2490:2506   */\n          add\n            /* \"#utility.yul\":2468:2520   */\n          tag_169\n          jump\t// in\n        tag_168:\n            /* \"#utility.yul\":2545:2574   */\n          tag_170\n            /* \"#utility.yul\":2567:2573   */\n          dup2\n            /* \"#utility.yul\":2545:2574   */\n          tag_171\n          jump\t// in\n        tag_170:\n            /* \"#utility.yul\":2540:2543   */\n          dup5\n            /* \"#utility.yul\":2536:2575   */\n          add\n            /* \"#utility.yul\":2529:2575   */\n          swap2\n          pop\n            /* \"#utility.yul\":2309:2581   */\n          pop\n            /* \"#utility.yul\":2217:2581   */\n          swap3\n          swap2\n          pop\n          pop\n          jump\t// out\n            /* \"#utility.yul\":2587:2953   */\n        tag_172:\n            /* \"#utility.yul\":2729:2732   */\n          0x00\n            /* \"#utility.yul\":2750:2817   */\n          tag_174\n            /* \"#utility.yul\":2814:2816   */\n          0x10\n            /* \"#utility.yul\":2809:2812   */\n          dup4\n            /* \"#utility.yul\":2750:2817   */\n          tag_167\n          jump\t// in\n        tag_174:\n            /* \"#utility.yul\":2743:2817   */\n          swap2\n          pop\n            /* \"#utility.yul\":2826:2919   */\n          tag_175\n            /* \"#utility.yul\":2915:2918   */\n          dup3\n            /* \"#utility.yul\":2826:2919   */\n          tag_176\n          jump\t// in\n        tag_175:\n            /* \"#utility.yul\":2944:2946   */\n          0x20\n            /* \"#utility.yul\":2939:2942   */\n          dup3\n            /* \"#utility.yul\":2935:2947   */\n          add\n            /* \"#utility.yul\":2928:2947   */\n          swap1\n          pop\n            /* \"#utility.yul\":2587:2953   */\n          swap2\n          swap1\n          pop\n          jump\t// out\n            /* \"#utility.yul\":2959:3325   */\n        tag_177:\n            /* \"#utility.yul\":3101:3104   */\n          0x00\n            /* \"#utility.yul\":3122:3189   */\n          tag_179\n            /* \"#utility.yul\":3186:3188   */\n          0x0b\n            /* \"#utility.yul\":3181:3184   */\n          dup4\n            /* \"#utility.yul\":3122:3189   */\n          tag_167\n          jump\t// in\n        tag_179:\n            /* \"#utility.yul\":3115:3189   */\n          swap2\n          pop\n            /* \"#utility.yul\":3198:3291   */\n          tag_180\n            /* \"#utility.yul\":3287:3290   */\n          dup3\n            /* \"#utility.yul\":3198:3291   */\n          tag_181\n          jump\t// in\n        tag_180:\n            /* \"#utility.yul\":3316:3318   */\n          0x20\n            /* \"#utility.yul\":3311:3314   */\n          dup3\n            /* \"#utility.yul\":3307:3319   */\n          add\n            /* \"#utility.yul\":3300:3319   */\n          swap1\n          pop\n            /* \"#utility.yul\":2959:3325   */\n          swap2\n          swap1\n          pop\n          jump\t// out\n            /* \"#utility.yul\":3331:3697   */\n        tag_182:\n            /* \"#utility.yul\":3473:3476   */\n          0x00\n            /* \"#utility.yul\":3494:3561   */\n          tag_184\n            /* \"#utility.yul\":3558:3560   */\n          0x0e\n            /* \"#utility.yul\":3553:3556   */\n          dup4\n            /* \"#utility.yul\":3494:3561   */\n          tag_167\n          jump\t// in\n        tag_184:\n            /* \"#utility.yul\":3487:3561   */\n          swap2\n          pop\n            /* \"#utility.yul\":3570:3663   */\n          tag_185\n            /* \"#utility.yul\":3659:3662   */\n          dup3\n            /* \"#utility.yul\":3570:3663   */\n          tag_186\n          jump\t// in\n        tag_185:\n            /* \"#utility.yul\":3688:3690   */\n          0x20\n            /* \"#utility.yul\":3683:3686   */\n          dup3\n            /* \"#utility.yul\":3679:3691   */\n          add\n            /* \"#utility.yul\":3672:3691   */\n          swap1\n          pop\n            /* \"#utility.yul\":3331:3697   */\n          swap2\n          swap1\n          pop\n          jump\t// out\n            /* \"#utility.yul\":3703:4069   */\n        tag_187:\n            /* \"#utility.yul\":3845:3848   */\n          0x00\n            /* \"#utility.yul\":3866:3933   */\n          tag_189\n            /* \"#utility.yul\":3930:3932   */\n          0x1f\n            /* \"#utility.yul\":3925:3928   */\n          dup4\n            /* \"#utility.yul\":3866:3933   */\n          tag_167\n          jump\t// in\n        tag_189:\n            /* \"#utility.yul\":3859:3933   */\n          swap2\n          pop\n            /* \"#utility.yul\":3942:4035   */\n          tag_190\n            /* \"#utility.yul\":4031:4034   */\n          dup3\n            /* \"#utility.yul\":3942:4035   */\n          tag_191\n          jump\t// in\n        tag_190:\n            /* \"#utility.yul\":4060:4062   */\n          0x20\n            /* \"#utility.yul\":4055:4058   */\n          dup3\n            /* \"#utility.yul\":4051:4063   */\n          add\n            /* \"#utility.yul\":4044:4063   */\n          swap1\n          pop\n            /* \"#utility.yul\":3703:4069   */\n          swap2\n          swap1\n          pop\n          jump\t// out\n            /* \"#utility.yul\":4075:4193   */\n        tag_192:\n            /* \"#utility.yul\":4162:4186   */\n          tag_194\n            /* \"#utility.yul\":4180:4185   */\n          dup2\n            /* \"#utility.yul\":4162:4186   */\n          tag_195\n          jump\t// in\n        tag_194:\n            /* \"#utility.yul\":4157:4160   */\n          dup3\n            /* \"#utility.yul\":4150:4187   */\n          mstore\n            /* \"#utility.yul\":4075:4193   */\n          pop\n          pop\n          jump\t// out\n            /* \"#utility.yul\":4199:4311   */\n        tag_196:\n            /* \"#utility.yul\":4282:4304   */\n          tag_198\n            /* \"#utility.yul\":4298:4303   */\n          dup2\n            /* \"#utility.yul\":4282:4304   */\n          tag_199\n          jump\t// in\n        tag_198:\n            /* \"#utility.yul\":4277:4280   */\n          dup3\n            /* \"#utility.yul\":4270:4305   */\n          mstore\n            /* \"#utility.yul\":4199:4311   */\n          pop\n          pop\n          jump\t// out\n            /* \"#utility.yul\":4317:4630   */\n        tag_19:\n            /* \"#utility.yul\":4430:4434   */\n          0x00\n            /* \"#utility.yul\":4468:4470   */\n          0x20\n            /* \"#utility.yul\":4457:4466   */\n          dup3\n            /* \"#utility.yul\":4453:4471   */\n          add\n            /* \"#utility.yul\":4445:4471   */\n          swap1\n          pop\n            /* \"#utility.yul\":4517:4526   */\n          dup2\n            /* \"#utility.yul\":4511:4515   */\n          dup2\n            /* \"#utility.yul\":4507:4527   */\n          sub\n            /* \"#utility.yul\":4503:4504   */\n          0x00\n            /* \"#utility.yul\":4492:4501   */\n          dup4\n            /* \"#utility.yul\":4488:4505   */\n          add\n            /* \"#utility.yul\":4481:4528   */\n          mstore\n            /* \"#utility.yul\":4545:4623   */\n          tag_201\n            /* \"#utility.yul\":4618:4622   */\n          dup2\n            /* \"#utility.yul\":4609:4615   */\n          dup5\n            /* \"#utility.yul\":4545:4623   */\n          tag_162\n          jump\t// in\n        tag_201:\n            /* \"#utility.yul\":4537:4623   */\n          swap1\n          pop\n            /* \"#utility.yul\":4317:4630   */\n          swap3\n          swap2\n          pop\n          pop\n          jump\t// out\n            /* \"#utility.yul\":4636:5055   */\n        tag_75:\n            /* \"#utility.yul\":4802:4806   */\n          0x00\n            /* \"#utility.yul\":4840:4842   */\n          0x20\n            /* \"#utility.yul\":4829:4838   */\n          dup3\n            /* \"#utility.yul\":4825:4843   */\n          add\n            /* \"#utility.yul\":4817:4843   */\n          swap1\n          pop\n            /* \"#utility.yul\":4889:4898   */\n          dup2\n            /* \"#utility.yul\":4883:4887   */\n          dup2\n            /* \"#utility.yul\":4879:4899   */\n          sub\n            /* \"#utility.yul\":4875:4876   */\n          0x00\n            /* \"#utility.yul\":4864:4873   */\n          dup4\n            /* \"#utility.yul\":4860:4877   */\n          add\n            /* \"#utility.yul\":4853:4900   */\n          mstore\n            /* \"#utility.yul\":4917:5048   */\n          tag_203\n            /* \"#utility.yul\":5043:5047   */\n          dup2\n            /* \"#utility.yul\":4917:5048   */\n          tag_172\n          jump\t// in\n        tag_203:\n            /* \"#utility.yul\":4909:5048   */\n          swap1\n          pop\n            /* \"#utility.yul\":4636:5055   */\n          swap2\n          swap1\n          pop\n          jump\t// out\n            /* \"#utility.yul\":5061:5480   */\n        tag_72:\n            /* \"#utility.yul\":5227:5231   */\n          0x00\n            /* \"#utility.yul\":5265:5267   */\n          0x20\n            /* \"#utility.yul\":5254:5263   */\n          dup3\n            /* \"#utility.yul\":5250:5268   */\n          add\n            /* \"#utility.yul\":5242:5268   */\n          swap1\n          pop\n            /* \"#utility.yul\":5314:5323   */\n          dup2\n            /* \"#utility.yul\":5308:5312   */\n          dup2\n            /* \"#utility.yul\":5304:5324   */\n          sub\n            /* \"#utility.yul\":5300:5301   */\n          0x00\n            /* \"#utility.yul\":5289:5298   */\n          dup4\n            /* \"#utility.yul\":5285:5302   */\n          add\n            /* \"#utility.yul\":5278:5325   */\n          mstore\n            /* \"#utility.yul\":5342:5473   */\n          tag_205\n            /* \"#utility.yul\":5468:5472   */\n          dup2\n            /* \"#utility.yul\":5342:5473   */\n          tag_177\n          jump\t// in\n        tag_205:\n            /* \"#utility.yul\":5334:5473   */\n          swap1\n          pop\n            /* \"#utility.yul\":5061:5480   */\n          swap2\n          swap1\n          pop\n          jump\t// out\n            /* \"#utility.yul\":5486:5905   */\n        tag_78:\n            /* \"#utility.yul\":5652:5656   */\n          0x00\n            /* \"#utility.yul\":5690:5692   */\n          0x20\n            /* \"#utility.yul\":5679:5688   */\n          dup3\n            /* \"#utility.yul\":5675:5693   */\n          add\n            /* \"#utility.yul\":5667:5693   */\n          swap1\n          pop\n            /* \"#utility.yul\":5739:5748   */\n          dup2\n            /* \"#utility.yul\":5733:5737   */\n          dup2\n            /* \"#utility.yul\":5729:5749   */\n          sub\n            /* \"#utility.yul\":5725:5726   */\n          0x00\n            /* \"#utility.yul\":5714:5723   */\n          dup4\n            /* \"#utility.yul\":5710:5727   */\n          add\n            /* \"#utility.yul\":5703:5750   */\n          mstore\n            /* \"#utility.yul\":5767:5898   */\n          tag_207\n            /* \"#utility.yul\":5893:5897   */\n          dup2\n            /* \"#utility.yul\":5767:5898   */\n          tag_182\n          jump\t// in\n        tag_207:\n            /* \"#utility.yul\":5759:5898   */\n          swap1\n          pop\n            /* \"#utility.yul\":5486:5905   */\n          swap2\n          swap1\n          pop\n          jump\t// out\n            /* \"#utility.yul\":5911:6330   */\n        tag_88:\n            /* \"#utility.yul\":6077:6081   */\n          0x00\n            /* \"#utility.yul\":6115:6117   */\n          0x20\n            /* \"#utility.yul\":6104:6113   */\n          dup3\n            /* \"#utility.yul\":6100:6118   */\n          add\n            /* \"#utility.yul\":6092:6118   */\n          swap1\n          pop\n            /* \"#utility.yul\":6164:6173   */\n          dup2\n            /* \"#utility.yul\":6158:6162   */\n          dup2\n            /* \"#utility.yul\":6154:6174   */\n          sub\n            /* \"#utility.yul\":6150:6151   */\n          0x00\n            /* \"#utility.yul\":6139:6148   */\n          dup4\n            /* \"#utility.yul\":6135:6152   */\n          add\n            /* \"#utility.yul\":6128:6175   */\n          mstore\n            /* \"#utility.yul\":6192:6323   */\n          tag_209\n            /* \"#utility.yul\":6318:6322   */\n          dup2\n            /* \"#utility.yul\":6192:6323   */\n          tag_187\n          jump\t// in\n        tag_209:\n            /* \"#utility.yul\":6184:6323   */\n          swap1\n          pop\n            /* \"#utility.yul\":5911:6330   */\n          swap2\n          swap1\n          pop\n          jump\t// out\n            /* \"#utility.yul\":6336:6558   */\n        tag_27:\n            /* \"#utility.yul\":6429:6433   */\n          0x00\n            /* \"#utility.yul\":6467:6469   */\n          0x20\n            /* \"#utility.yul\":6456:6465   */\n          dup3\n            /* \"#utility.yul\":6452:6470   */\n          add\n            /* \"#utility.yul\":6444:6470   */\n          swap1\n          pop\n            /* \"#utility.yul\":6480:6551   */\n          tag_211\n            /* \"#utility.yul\":6548:6549   */\n          0x00\n            /* \"#utility.yul\":6537:6546   */\n          dup4\n            /* \"#utility.yul\":6533:6550   */\n          add\n            /* \"#utility.yul\":6524:6530   */\n          dup5\n            /* \"#utility.yul\":6480:6551   */\n          tag_192\n          jump\t// in\n        tag_211:\n            /* \"#utility.yul\":6336:6558   */\n          swap3\n          swap2\n          pop\n          pop\n          jump\t// out\n            /* \"#utility.yul\":6564:6778   */\n        tag_35:\n            /* \"#utility.yul\":6653:6657   */\n          0x00\n            /* \"#utility.yul\":6691:6693   */\n          0x20\n            /* \"#utility.yul\":6680:6689   */\n          dup3\n            /* \"#utility.yul\":6676:6694   */\n          add\n            /* \"#utility.yul\":6668:6694   */\n          swap1\n          pop\n            /* \"#utility.yul\":6704:6771   */\n          tag_213\n            /* \"#utility.yul\":6768:6769   */\n          0x00\n            /* \"#utility.yul\":6757:6766   */\n          dup4\n            /* \"#utility.yul\":6753:6770   */\n          add\n            /* \"#utility.yul\":6744:6750   */\n          dup5\n            /* \"#utility.yul\":6704:6771   */\n          tag_196\n          jump\t// in\n        tag_213:\n            /* \"#utility.yul\":6564:6778   */\n          swap3\n          swap2\n          pop\n          pop\n          jump\t// out\n            /* \"#utility.yul\":6865:6964   */\n        tag_165:\n            /* \"#utility.yul\":6917:6923   */\n          0x00\n            /* \"#utility.yul\":6951:6956   */\n          dup2\n            /* \"#utility.yul\":6945:6957   */\n          mload\n            /* \"#utility.yul\":6935:6957   */\n          swap1\n          pop\n            /* \"#utility.yul\":6865:6964   */\n          swap2\n          swap1\n          pop\n          jump\t// out\n            /* \"#utility.yul\":6970:7139   */\n        tag_167:\n            /* \"#utility.yul\":7054:7065   */\n          0x00\n            /* \"#utility.yul\":7088:7094   */\n          dup3\n            /* \"#utility.yul\":7083:7086   */\n          dup3\n            /* \"#utility.yul\":7076:7095   */\n          mstore\n            /* \"#utility.yul\":7128:7132   */\n          0x20\n            /* \"#utility.yul\":7123:7126   */\n          dup3\n            /* \"#utility.yul\":7119:7133   */\n          add\n            /* \"#utility.yul\":7104:7133   */\n          swap1\n          pop\n            /* \"#utility.yul\":6970:7139   */\n          swap3\n          swap2\n          pop\n          pop\n          jump\t// out\n            /* \"#utility.yul\":7145:7450   */\n        tag_92:\n            /* \"#utility.yul\":7185:7188   */\n          0x00\n            /* \"#utility.yul\":7204:7224   */\n          tag_219\n            /* \"#utility.yul\":7222:7223   */\n          dup3\n            /* \"#utility.yul\":7204:7224   */\n          tag_195\n          jump\t// in\n        tag_219:\n            /* \"#utility.yul\":7199:7224   */\n          swap2\n          pop\n            /* \"#utility.yul\":7238:7258   */\n          tag_220\n            /* \"#utility.yul\":7256:7257   */\n          dup4\n            /* \"#utility.yul\":7238:7258   */\n          tag_195\n          jump\t// in\n        tag_220:\n            /* \"#utility.yul\":7233:7258   */\n          swap3\n          pop\n            /* \"#utility.yul\":7392:7393   */\n          dup3\n            /* \"#utility.yul\":7324:7390   */\n          0xffffffffffffffffffffffffffffffffffffffffffffffffffffffffffffffff\n            /* \"#utility.yul\":7320:7394   */\n          sub\n            /* \"#utility.yul\":7317:7318   */\n          dup3\n            /* \"#utility.yul\":7314:7395   */\n          gt\n            /* \"#utility.yul\":7311:7418   */\n          iszero\n          tag_221\n          jumpi\n            /* \"#utility.yul\":7398:7416   */\n          tag_222\n          tag_223\n          jump\t// in\n        tag_222:\n            /* \"#utility.yul\":7311:7418   */\n        tag_221:\n            /* \"#utility.yul\":7442:7443   */\n          dup3\n            /* \"#utility.yul\":7439:7440   */\n          dup3\n            /* \"#utility.yul\":7435:7444   */\n          add\n            /* \"#utility.yul\":7428:7444   */\n          swap1\n          pop\n            /* \"#utility.yul\":7145:7450   */\n          swap3\n          swap2\n          pop\n          pop\n          jump\t// out\n            /* \"#utility.yul\":7456:7647   */\n        tag_129:\n            /* \"#utility.yul\":7496:7500   */\n          0x00\n            /* \"#utility.yul\":7516:7536   */\n          tag_225\n            /* \"#utility.yul\":7534:7535   */\n          dup3\n            /* \"#utility.yul\":7516:7536   */\n          tag_195\n          jump\t// in\n        tag_225:\n            /* \"#utility.yul\":7511:7536   */\n          swap2\n          pop\n            /* \"#utility.yul\":7550:7570   */\n          tag_226\n            /* \"#utility.yul\":7568:7569   */\n          dup4\n            /* \"#utility.yul\":7550:7570   */\n          tag_195\n          jump\t// in\n        tag_226:\n            /* \"#utility.yul\":7545:7570   */\n          swap3\n          pop\n            /* \"#utility.yul\":7589:7590   */\n          dup3\n            /* \"#utility.yul\":7586:7587   */\n          dup3\n            /* \"#utility.yul\":7583:7591   */\n          lt\n            /* \"#utility.yul\":7580:7614   */\n          iszero\n          tag_227\n          jumpi\n            /* \"#utility.yul\":7594:7612   */\n          tag_228\n          tag_223\n          jump\t// in\n        tag_228:\n            /* \"#utility.yul\":7580:7614   */\n        tag_227:\n            /* \"#utility.yul\":7639:7640   */\n          dup3\n            /* \"#utility.yul\":7636:7637   */\n          dup3\n            /* \"#utility.yul\":7632:7641   */\n          sub\n            /* \"#utility.yul\":7624:7641   */\n          swap1\n          pop\n            /* \"#utility.yul\":7456:7647   */\n          swap3\n          swap2\n          pop\n          pop\n          jump\t// out\n            /* \"#utility.yul\":7653:7749   */\n        tag_229:\n            /* \"#utility.yul\":7690:7697   */\n          0x00\n            /* \"#utility.yul\":7719:7743   */\n          tag_231\n            /* \"#utility.yul\":7737:7742   */\n          dup3\n            /* \"#utility.yul\":7719:7743   */\n          tag_232\n          jump\t// in\n        tag_231:\n            /* \"#utility.yul\":7708:7743   */\n          swap1\n          pop\n            /* \"#utility.yul\":7653:7749   */\n          swap2\n          swap1\n          pop\n          jump\t// out\n            /* \"#utility.yul\":7755:7881   */\n        tag_232:\n            /* \"#utility.yul\":7792:7799   */\n          0x00\n            /* \"#utility.yul\":7832:7874   */\n          0xffffffffffffffffffffffffffffffffffffffff\n            /* \"#utility.yul\":7825:7830   */\n          dup3\n            /* \"#utility.yul\":7821:7875   */\n          and\n            /* \"#utility.yul\":7810:7875   */\n          swap1\n          pop\n            /* \"#utility.yul\":7755:7881   */\n          swap2\n          swap1\n          pop\n          jump\t// out\n            /* \"#utility.yul\":7887:7964   */\n        tag_195:\n            /* \"#utility.yul\":7924:7931   */\n          0x00\n            /* \"#utility.yul\":7953:7958   */\n          dup2\n            /* \"#utility.yul\":7942:7958   */\n          swap1\n          pop\n            /* \"#utility.yul\":7887:7964   */\n          swap2\n          swap1\n          pop\n          jump\t// out\n            /* \"#utility.yul\":7970:8056   */\n        tag_199:\n            /* \"#utility.yul\":8005:8012   */\n          0x00\n            /* \"#utility.yul\":8045:8049   */\n          0xff\n            /* \"#utility.yul\":8038:8043   */\n          dup3\n            /* \"#utility.yul\":8034:8050   */\n          and\n            /* \"#utility.yul\":8023:8050   */\n          swap1\n          pop\n            /* \"#utility.yul\":7970:8056   */\n          swap2\n          swap1\n          pop\n          jump\t// out\n            /* \"#utility.yul\":8062:8369   */\n        tag_169:\n            /* \"#utility.yul\":8130:8131   */\n          0x00\n            /* \"#utility.yul\":8140:8253   */\n        tag_237:\n            /* \"#utility.yul\":8154:8160   */\n          dup4\n            /* \"#utility.yul\":8151:8152   */\n          dup2\n            /* \"#utility.yul\":8148:8161   */\n          lt\n            /* \"#utility.yul\":8140:8253   */\n          iszero\n          tag_239\n          jumpi\n            /* \"#utility.yul\":8239:8240   */\n          dup1\n            /* \"#utility.yul\":8234:8237   */\n          dup3\n            /* \"#utility.yul\":8230:8241   */\n          add\n            /* \"#utility.yul\":8224:8242   */\n          mload\n            /* \"#utility.yul\":8220:8221   */\n          dup2\n            /* \"#utility.yul\":8215:8218   */\n          dup5\n            /* \"#utility.yul\":8211:8222   */\n          add\n            /* \"#utility.yul\":8204:8243   */\n          mstore\n            /* \"#utility.yul\":8176:8178   */\n          0x20\n            /* \"#utility.yul\":8173:8174   */\n          dup2\n            /* \"#utility.yul\":8169:8179   */\n          add\n            /* \"#utility.yul\":8164:8179   */\n          swap1\n          pop\n            /* \"#utility.yul\":8140:8253   */\n          jump(tag_237)\n        tag_239:\n            /* \"#utility.yul\":8271:8277   */\n          dup4\n            /* \"#utility.yul\":8268:8269   */\n          dup2\n            /* \"#utility.yul\":8265:8278   */\n          gt\n            /* \"#utility.yul\":8262:8363   */\n          iszero\n          tag_240\n          jumpi\n            /* \"#utility.yul\":8351:8352   */\n          0x00\n            /* \"#utility.yul\":8342:8348   */\n          dup5\n            /* \"#utility.yul\":8337:8340   */\n          dup5\n            /* \"#utility.yul\":8333:8349   */\n          add\n            /* \"#utility.yul\":8326:8353   */\n          mstore\n            /* \"#utility.yul\":8262:8363   */\n        tag_240:\n            /* \"#utility.yul\":8111:8369   */\n          pop\n            /* \"#utility.yul\":8062:8369   */\n          pop\n          pop\n          pop\n          jump\t// out\n            /* \"#utility.yul\":8375:8695   */\n        tag_62:\n            /* \"#utility.yul\":8419:8425   */\n          0x00\n            /* \"#utility.yul\":8456:8457   */\n          0x02\n            /* \"#utility.yul\":8450:8454   */\n          dup3\n            /* \"#utility.yul\":8446:8458   */\n          div\n            /* \"#utility.yul\":8436:8458   */\n          swap1\n          pop\n            /* \"#utility.yul\":8503:8504   */\n          0x01\n            /* \"#utility.yul\":8497:8501   */\n          dup3\n            /* \"#utility.yul\":8493:8505   */\n          and\n            /* \"#utility.yul\":8524:8542   */\n          dup1\n            /* \"#utility.yul\":8514:8595   */\n          tag_242\n          jumpi\n            /* \"#utility.yul\":8580:8584   */\n          0x7f\n            /* \"#utility.yul\":8572:8578   */\n          dup3\n            /* \"#utility.yul\":8568:8585   */\n          and\n            /* \"#utility.yul\":8558:8585   */\n          swap2\n          pop\n            /* \"#utility.yul\":8514:8595   */\n        tag_242:\n            /* \"#utility.yul\":8642:8644   */\n          0x20\n            /* \"#utility.yul\":8634:8640   */\n          dup3\n            /* \"#utility.yul\":8631:8645   */\n          lt\n            /* \"#utility.yul\":8611:8629   */\n          dup2\n            /* \"#utility.yul\":8608:8646   */\n          eq\n            /* \"#utility.yul\":8605:8689   */\n          iszero\n          tag_243\n          jumpi\n            /* \"#utility.yul\":8661:8679   */\n          tag_244\n          tag_245\n          jump\t// in\n        tag_244:\n            /* \"#utility.yul\":8605:8689   */\n        tag_243:\n            /* \"#utility.yul\":8426:8695   */\n          pop\n            /* \"#utility.yul\":8375:8695   */\n          swap2\n          swap1\n          pop\n          jump\t// out\n            /* \"#utility.yul\":8701:8881   */\n        tag_112:\n            /* \"#utility.yul\":8749:8826   */\n          0x4e487b7100000000000000000000000000000000000000000000000000000000\n            /* \"#utility.yul\":8746:8747   */\n          0x00\n            /* \"#utility.yul\":8739:8827   */\n          mstore\n            /* \"#utility.yul\":8846:8850   */\n          0x01\n            /* \"#utility.yul\":8843:8844   */\n          0x04\n            /* \"#utility.yul\":8836:8851   */\n          mstore\n            /* \"#utility.yul\":8870:8874   */\n          0x24\n            /* \"#utility.yul\":8867:8868   */\n          0x00\n            /* \"#utility.yul\":8860:8875   */\n          revert\n            /* \"#utility.yul\":8887:9067   */\n        tag_223:\n            /* \"#utility.yul\":8935:9012   */\n          0x4e487b7100000000000000000000000000000000000000000000000000000000\n            /* \"#utility.yul\":8932:8933   */\n          0x00\n            /* \"#utility.yul\":8925:9013   */\n          mstore\n            /* \"#utility.yul\":9032:9036   */\n          0x11\n            /* \"#utility.yul\":9029:9030   */\n          0x04\n            /* \"#utility.yul\":9022:9037   */\n          mstore\n            /* \"#utility.yul\":9056:9060   */\n          0x24\n            /* \"#utility.yul\":9053:9054   */\n          0x00\n            /* \"#utility.yul\":9046:9061   */\n          revert\n            /* \"#utility.yul\":9073:9253   */\n        tag_245:\n            /* \"#utility.yul\":9121:9198   */\n          0x4e487b7100000000000000000000000000000000000000000000000000000000\n            /* \"#utility.yul\":9118:9119   */\n          0x00\n            /* \"#utility.yul\":9111:9199   */\n          mstore\n            /* \"#utility.yul\":9218:9222   */\n          0x22\n            /* \"#utility.yul\":9215:9216   */\n          0x04\n            /* \"#utility.yul\":9208:9223   */\n          mstore\n            /* \"#utility.yul\":9242:9246   */\n          0x24\n            /* \"#utility.yul\":9239:9240   */\n          0x00\n            /* \"#utility.yul\":9232:9247   */\n          revert\n            /* \"#utility.yul\":9382:9499   */\n        tag_144:\n            /* \"#utility.yul\":9491:9492   */\n          0x00\n            /* \"#utility.yul\":9488:9489   */\n          dup1\n            /* \"#utility.yul\":9481:9493   */\n          revert\n            /* \"#utility.yul\":9505:9607   */\n        tag_171:\n            /* \"#utility.yul\":9546:9552   */\n          0x00\n            /* \"#utility.yul\":9597:9599   */\n          0x1f\n            /* \"#utility.yul\":9593:9600   */\n          not\n            /* \"#utility.yul\":9588:9590   */\n          0x1f\n            /* \"#utility.yul\":9581:9586   */\n          dup4\n            /* \"#utility.yul\":9577:9591   */\n          add\n            /* \"#utility.yul\":9573:9601   */\n          and\n            /* \"#utility.yul\":9563:9601   */\n          swap1\n          pop\n            /* \"#utility.yul\":9505:9607   */\n          swap2\n          swap1\n          pop\n          jump\t// out\n            /* \"#utility.yul\":9613:9779   */\n        tag_176:\n            /* \"#utility.yul\":9753:9771   */\n          0x42616c616e6365203c20616d6f756e7400000000000000000000000000000000\n            /* \"#utility.yul\":9749:9750   */\n          0x00\n            /* \"#utility.yul\":9741:9747   */\n          dup3\n            /* \"#utility.yul\":9737:9751   */\n          add\n            /* \"#utility.yul\":9730:9772   */\n          mstore\n            /* \"#utility.yul\":9613:9779   */\n          pop\n          jump\t// out\n            /* \"#utility.yul\":9785:9946   */\n        tag_181:\n            /* \"#utility.yul\":9925:9938   */\n          0x416d6f756e74203c3d2030000000000000000000000000000000000000000000\n            /* \"#utility.yul\":9921:9922   */\n          0x00\n            /* \"#utility.yul\":9913:9919   */\n          dup3\n            /* \"#utility.yul\":9909:9923   */\n          add\n            /* \"#utility.yul\":9902:9939   */\n          mstore\n            /* \"#utility.yul\":9785:9946   */\n          pop\n          jump\t// out\n            /* \"#utility.yul\":9952:10116   */\n        tag_186:\n            /* \"#utility.yul\":10092:10108   */\n          0x446f6e277420616c6c6f7765642e000000000000000000000000000000000000\n            /* \"#utility.yul\":10088:10089   */\n          0x00\n            /* \"#utility.yul\":10080:10086   */\n          dup3\n            /* \"#utility.yul\":10076:10090   */\n          add\n            /* \"#utility.yul\":10069:10109   */\n          mstore\n            /* \"#utility.yul\":9952:10116   */\n          pop\n          jump\t// out\n            /* \"#utility.yul\":10122:10303   */\n        tag_191:\n            /* \"#utility.yul\":10262:10295   */\n          0x45524332303a206d696e7420746f20746865207a65726f206164647265737300\n            /* \"#utility.yul\":10258:10259   */\n          0x00\n            /* \"#utility.yul\":10250:10256   */\n          dup3\n            /* \"#utility.yul\":10246:10260   */\n          add\n            /* \"#utility.yul\":10239:10296   */\n          mstore\n            /* \"#utility.yul\":10122:10303   */\n          pop\n          jump\t// out\n            /* \"#utility.yul\":10309:10431   */\n        tag_136:\n            /* \"#utility.yul\":10382:10406   */\n          tag_258\n            /* \"#utility.yul\":10400:10405   */\n          dup2\n            /* \"#utility.yul\":10382:10406   */\n          tag_229\n          jump\t// in\n        tag_258:\n            /* \"#utility.yul\":10375:10380   */\n          dup2\n            /* \"#utility.yul\":10372:10407   */\n          eq\n            /* \"#utility.yul\":10362:10425   */\n          tag_259\n          jumpi\n            /* \"#utility.yul\":10421:10422   */\n          0x00\n            /* \"#utility.yul\":10418:10419   */\n          dup1\n            /* \"#utility.yul\":10411:10423   */\n          revert\n            /* \"#utility.yul\":10362:10425   */\n        tag_259:\n            /* \"#utility.yul\":10309:10431   */\n          pop\n          jump\t// out\n            /* \"#utility.yul\":10437:10559   */\n        tag_140:\n            /* \"#utility.yul\":10510:10534   */\n          tag_261\n            /* \"#utility.yul\":10528:10533   */\n          dup2\n            /* \"#utility.yul\":10510:10534   */\n          tag_195\n          jump\t// in\n        tag_261:\n            /* \"#utility.yul\":10503:10508   */\n          dup2\n            /* \"#utility.yul\":10500:10535   */\n          eq\n            /* \"#utility.yul\":10490:10553   */\n          tag_262\n          jumpi\n            /* \"#utility.yul\":10549:10550   */\n          0x00\n            /* \"#utility.yul\":10546:10547   */\n          dup1\n            /* \"#utility.yul\":10539:10551   */\n          revert\n            /* \"#utility.yul\":10490:10553   */\n        tag_262:\n            /* \"#utility.yul\":10437:10559   */\n          pop\n          jump\t// out\n\n        auxdata: 0xa2646970667358221220e9485a15ff463682a9856bf402ca5042263af51133e5abe3078a4e8653593f3464736f6c63430008070033\n    }\n}\n",
				"bytecode": {
					"linkReferences": {},
					"object": "60806040526040516200001290620000e9565b604051809103906000f0801580156200002f573d6000803e3d6000fd5b50600560006101000a81548173ffffffffffffffffffffffffffffffffffffffff021916908373ffffffffffffffffffffffffffffffffffffffff1602179055503480156200007d57600080fd5b5033600460006101000a81548173ffffffffffffffffffffffffffffffffffffffff021916908373ffffffffffffffffffffffffffffffffffffffff16021790555063625f140a60008190555062069780600054620000dd9190620000f7565b6001819055506200018d565b6115f9806200158f83390190565b6000620001048262000154565b9150620001118362000154565b9250827fffffffffffffffffffffffffffffffffffffffffffffffffffffffffffffffff038211156200014957620001486200015e565b5b828201905092915050565b6000819050919050565b7f4e487b7100000000000000000000000000000000000000000000000000000000600052601160045260246000fd5b6113f2806200019d6000396000f3fe608060405234801561001057600080fd5b506004361061007d5760003560e01c80636cea0e461161005b5780636cea0e46146100ee5780636dd7d8ea1461010a5780638203373a14610126578063c4e41b22146101425761007d565b806321214986146100825780634041ef54146100a2578063633fff16146100d2575b600080fd5b61008a610160565b60405161009993929190610fd0565b60405180910390f35b6100bc60048036038101906100b79190610ccb565b61022b565b6040516100c99190610fb5565b60405180910390f35b6100ec60048036038101906100e79190610d41565b6102df565b005b61010860048036038101906101039190610ccb565b6103cf565b005b610124600480360381019061011f9190610ccb565b610462565b005b610140600480360381019061013b9190610cf8565b61070c565b005b61014a61098d565b6040516101579190610fb5565b60405180910390f35b600080600080600560009054906101000a900473ffffffffffffffffffffffffffffffffffffffff1673ffffffffffffffffffffffffffffffffffffffff166370a08231336040518263ffffffff1660e01b81526004016101c19190610ed1565b60206040518083038186803b1580156101d957600080fd5b505afa1580156101ed573d6000803e3d6000fd5b505050506040513d601f19601f820116820180604052508101906102119190610db9565b905060006001905081818284149450945094505050909192565b6000600560009054906101000a900473ffffffffffffffffffffffffffffffffffffffff1673ffffffffffffffffffffffffffffffffffffffff166370a08231836040518263ffffffff1660e01b81526004016102889190610ed1565b60206040518083038186803b1580156102a057600080fd5b505afa1580156102b4573d6000803e3d6000fd5b505050506040513d601f19601f820116820180604052508101906102d89190610db9565b9050919050565b8051825114610323576040517f08c379a000000000000000000000000000000000000000000000000000000000815260040161031a90610f15565b60405180910390fd5b60005b82518110156103ca5781818151811061034257610341611239565b5b60200260200101516003600085848151811061036157610360611239565b5b602002602001015173ffffffffffffffffffffffffffffffffffffffff1673ffffffffffffffffffffffffffffffffffffffff16815260200190815260200160002090805190602001906103b6929190610a34565b5080806103c290611192565b915050610326565b505050565b600560009054906101000a900473ffffffffffffffffffffffffffffffffffffffff1673ffffffffffffffffffffffffffffffffffffffff166340c10f198260016040518363ffffffff1660e01b815260040161042d929190610eec565b600060405180830381600087803b15801561044757600080fd5b505af115801561045b573d6000803e3d6000fd5b5050505050565b6001544211156104a7576040517f08c379a000000000000000000000000000000000000000000000000000000000815260040161049e90610f35565b60405180910390fd5b600260003373ffffffffffffffffffffffffffffffffffffffff1673ffffffffffffffffffffffffffffffffffffffff16815260200190815260200160002060009054906101000a900460ff1615610534576040517f08c379a000000000000000000000000000000000000000000000000000000000815260040161052b90610f75565b60405180910390fd5b6001600560009054906101000a900473ffffffffffffffffffffffffffffffffffffffff1673ffffffffffffffffffffffffffffffffffffffff166370a08231336040518263ffffffff1660e01b81526004016105919190610ed1565b60206040518083038186803b1580156105a957600080fd5b505afa1580156105bd573d6000803e3d6000fd5b505050506040513d601f19601f820116820180604052508101906105e19190610db9565b14610621576040517f08c379a000000000000000000000000000000000000000000000000000000000815260040161061890610f95565b60405180910390fd5b600560009054906101000a900473ffffffffffffffffffffffffffffffffffffffff1673ffffffffffffffffffffffffffffffffffffffff1663a9059cbb8260016040518363ffffffff1660e01b815260040161067f929190610eec565b600060405180830381600087803b15801561069957600080fd5b505af11580156106ad573d6000803e3d6000fd5b505050506001600260003373ffffffffffffffffffffffffffffffffffffffff1673ffffffffffffffffffffffffffffffffffffffff16815260200190815260200160002060006101000a81548160ff02191690831515021790555050565b600460009054906101000a900473ffffffffffffffffffffffffffffffffffffffff1673ffffffffffffffffffffffffffffffffffffffff163373ffffffffffffffffffffffffffffffffffffffff161461079c576040517f08c379a000000000000000000000000000000000000000000000000000000000815260040161079390610f55565b60405180910390fd5b60005b81518110156108d7576000600260008484815181106107c1576107c0611239565b5b602002602001015173ffffffffffffffffffffffffffffffffffffffff1673ffffffffffffffffffffffffffffffffffffffff16815260200190815260200160002060006101000a81548160ff021916908315150217905550600560009054906101000a900473ffffffffffffffffffffffffffffffffffffffff1673ffffffffffffffffffffffffffffffffffffffff166340c10f1983838151811061086b5761086a611239565b5b602002602001015160016040518363ffffffff1660e01b8152600401610892929190610eec565b600060405180830381600087803b1580156108ac57600080fd5b505af11580156108c0573d6000803e3d6000fd5b5050505080806108cf90611192565b91505061079f565b50600560009054906101000a900473ffffffffffffffffffffffffffffffffffffffff1673ffffffffffffffffffffffffffffffffffffffff166340c10f19600460009054906101000a900473ffffffffffffffffffffffffffffffffffffffff1660016040518363ffffffff1660e01b8152600401610958929190610eec565b600060405180830381600087803b15801561097257600080fd5b505af1158015610986573d6000803e3d6000fd5b5050505050565b6000600560009054906101000a900473ffffffffffffffffffffffffffffffffffffffff1673ffffffffffffffffffffffffffffffffffffffff1663c4e41b226040518163ffffffff1660e01b815260040160206040518083038186803b1580156109f757600080fd5b505afa158015610a0b573d6000803e3d6000fd5b505050506040513d601f19601f82011682018060405250810190610a2f9190610db9565b905090565b828054610a409061112f565b90600052602060002090601f016020900481019282610a625760008555610aa9565b82601f10610a7b57805160ff1916838001178555610aa9565b82800160010185558215610aa9579182015b82811115610aa8578251825591602001919060010190610a8d565b5b509050610ab69190610aba565b5090565b5b80821115610ad3576000816000905550600101610abb565b5090565b6000610aea610ae58461102c565b611007565b90508083825260208201905082856020860282011115610b0d57610b0c61129c565b5b60005b85811015610b3d5781610b238882610c17565b845260208401935060208301925050600181019050610b10565b5050509392505050565b6000610b5a610b5584611058565b611007565b90508083825260208201905082856020860282011115610b7d57610b7c61129c565b5b60005b85811015610bcb57813567ffffffffffffffff811115610ba357610ba2611297565b5b808601610bb08982610c88565b85526020850194506020840193505050600181019050610b80565b5050509392505050565b6000610be8610be384611084565b611007565b905082815260208101848484011115610c0457610c036112a1565b5b610c0f848285611120565b509392505050565b600081359050610c268161138e565b92915050565b600082601f830112610c4157610c40611297565b5b8135610c51848260208601610ad7565b91505092915050565b600082601f830112610c6f57610c6e611297565b5b8135610c7f848260208601610b47565b91505092915050565b600082601f830112610c9d57610c9c611297565b5b8135610cad848260208601610bd5565b91505092915050565b600081519050610cc5816113a5565b92915050565b600060208284031215610ce157610ce06112ab565b5b6000610cef84828501610c17565b91505092915050565b600060208284031215610d0e57610d0d6112ab565b5b600082013567ffffffffffffffff811115610d2c57610d2b6112a6565b5b610d3884828501610c2c565b91505092915050565b60008060408385031215610d5857610d576112ab565b5b600083013567ffffffffffffffff811115610d7657610d756112a6565b5b610d8285828601610c2c565b925050602083013567ffffffffffffffff811115610da357610da26112a6565b5b610daf85828601610c5a565b9150509250929050565b600060208284031215610dcf57610dce6112ab565b5b6000610ddd84828501610cb6565b91505092915050565b610def816110c6565b82525050565b610dfe816110d8565b82525050565b610e0d8161110e565b82525050565b6000610e206014836110b5565b9150610e2b826112c1565b602082019050919050565b6000610e43600c836110b5565b9150610e4e826112ea565b602082019050919050565b6000610e66601b836110b5565b9150610e7182611313565b602082019050919050565b6000610e896014836110b5565b9150610e948261133c565b602082019050919050565b6000610eac6014836110b5565b9150610eb782611365565b602082019050919050565b610ecb81611104565b82525050565b6000602082019050610ee66000830184610de6565b92915050565b6000604082019050610f016000830185610de6565b610f0e6020830184610e04565b9392505050565b60006020820190508181036000830152610f2e81610e13565b9050919050565b60006020820190508181036000830152610f4e81610e36565b9050919050565b60006020820190508181036000830152610f6e81610e59565b9050919050565b60006020820190508181036000830152610f8e81610e7c565b9050919050565b60006020820190508181036000830152610fae81610e9f565b9050919050565b6000602082019050610fca6000830184610ec2565b92915050565b6000606082019050610fe56000830186610ec2565b610ff26020830185610ec2565b610fff6040830184610df5565b949350505050565b6000611011611022565b905061101d8282611161565b919050565b6000604051905090565b600067ffffffffffffffff82111561104757611046611268565b5b602082029050602081019050919050565b600067ffffffffffffffff82111561107357611072611268565b5b602082029050602081019050919050565b600067ffffffffffffffff82111561109f5761109e611268565b5b6110a8826112b0565b9050602081019050919050565b600082825260208201905092915050565b60006110d1826110e4565b9050919050565b60008115159050919050565b600073ffffffffffffffffffffffffffffffffffffffff82169050919050565b6000819050919050565b600061111982611104565b9050919050565b82818337600083830152505050565b6000600282049050600182168061114757607f821691505b6020821081141561115b5761115a61120a565b5b50919050565b61116a826112b0565b810181811067ffffffffffffffff8211171561118957611188611268565b5b80604052505050565b600061119d82611104565b91507fffffffffffffffffffffffffffffffffffffffffffffffffffffffffffffffff8214156111d0576111cf6111db565b5b600182019050919050565b7f4e487b7100000000000000000000000000000000000000000000000000000000600052601160045260246000fd5b7f4e487b7100000000000000000000000000000000000000000000000000000000600052602260045260246000fd5b7f4e487b7100000000000000000000000000000000000000000000000000000000600052603260045260246000fd5b7f4e487b7100000000000000000000000000000000000000000000000000000000600052604160045260246000fd5b600080fd5b600080fd5b600080fd5b600080fd5b600080fd5b6000601f19601f8301169050919050565b7f4c656e67746820697320646966666572656e742e000000000000000000000000600082015250565b7f54696d6520697320656e642e0000000000000000000000000000000000000000600082015250565b7f4974206973206e6f742066726f6d206368616972706572736f6e2e0000000000600082015250565b7f566f74657220616c726561647920766f7465642e000000000000000000000000600082015250565b7f546f6b656e20646f65736e27742065786973742e000000000000000000000000600082015250565b611397816110c6565b81146113a257600080fd5b50565b6113ae81611104565b81146113b957600080fd5b5056fea26469706673582212208265aee5af055ee55343c71383591e39a123d38f31b433ab1599e208c0a2e61564736f6c6343000807003360806040523480156200001157600080fd5b506040518060400160405280600d81526020017f452d566f74696e6720636f696e00000000000000000000000000000000000000815250600190805190602001906200005f929190620000d0565b506000600260006101000a81548160ff021916908360ff1602179055506040518060400160405280600381526020017f455643000000000000000000000000000000000000000000000000000000000081525060039080519060200190620000c9929190620000d0565b50620001e5565b828054620000de9062000180565b90600052602060002090601f0160209004810192826200010257600085556200014e565b82601f106200011d57805160ff19168380011785556200014e565b828001600101855582156200014e579182015b828111156200014d57825182559160200191906001019062000130565b5b5090506200015d919062000161565b5090565b5b808211156200017c57600081600090555060010162000162565b5090565b600060028204905060018216806200019957607f821691505b60208210811415620001b057620001af620001b6565b5b50919050565b7f4e487b7100000000000000000000000000000000000000000000000000000000600052602260045260246000fd5b61140480620001f56000396000f3fe608060405234801561001057600080fd5b50600436106100b45760003560e01c806354fd4d501161007157806354fd4d501461016757806370a082311461018557806395d89b41146101b5578063a9059cbb146101d3578063c4e41b22146101ef578063dd62ed3e1461020d576100b4565b806306fdde03146100b9578063095ea7b3146100d757806318160ddd146100f357806323b872dd14610111578063313ce5671461012d57806340c10f191461014b575b600080fd5b6100c161023d565b6040516100ce919061102d565b60405180910390f35b6100f160048036038101906100ec9190610f0a565b6102cb565b005b6100fb6103b5565b60405161010891906110cf565b60405180910390f35b61012b60048036038101906101269190610eb7565b6103bb565b005b6101356107e2565b60405161014291906110ea565b60405180910390f35b61016560048036038101906101609190610f0a565b6107f5565b005b61016f610955565b60405161017c919061102d565b60405180910390f35b61019f600480360381019061019a9190610e4a565b6109e3565b6040516101ac91906110cf565b60405180910390f35b6101bd610a2c565b6040516101ca919061102d565b60405180910390f35b6101ed60048036038101906101e89190610f0a565b610aba565b005b6101f7610d35565b60405161020491906110cf565b60405180910390f35b61022760048036038101906102229190610e77565b610d3e565b60405161023491906110cf565b60405180910390f35b6001805461024a90611227565b80601f016020809104026020016040519081016040528092919081815260200182805461027690611227565b80156102c35780601f10610298576101008083540402835291602001916102c3565b820191906000526020600020905b8154815290600101906020018083116102a657829003601f168201915b505050505081565b80600660003373ffffffffffffffffffffffffffffffffffffffff1673ffffffffffffffffffffffffffffffffffffffff16815260200190815260200160002060008473ffffffffffffffffffffffffffffffffffffffff1673ffffffffffffffffffffffffffffffffffffffff168152602001908152602001600020819055508173ffffffffffffffffffffffffffffffffffffffff163373ffffffffffffffffffffffffffffffffffffffff167f8c5be1e5ebec7d5bd14f71427d1e84f3dd0314c0f7b2291e5b200ac8c7c3b925836040516103a991906110cf565b60405180910390a35050565b60005481565b600081116103fe576040517f08c379a00000000000000000000000000000000000000000000000000000000081526004016103f59061106f565b60405180910390fd5b80600560008573ffffffffffffffffffffffffffffffffffffffff1673ffffffffffffffffffffffffffffffffffffffff168152602001908152602001600020541015610480576040517f08c379a00000000000000000000000000000000000000000000000000000000081526004016104779061104f565b60405180910390fd5b80600660008573ffffffffffffffffffffffffffffffffffffffff1673ffffffffffffffffffffffffffffffffffffffff16815260200190815260200160002060003373ffffffffffffffffffffffffffffffffffffffff1673ffffffffffffffffffffffffffffffffffffffff16815260200190815260200160002054101561053f576040517f08c379a00000000000000000000000000000000000000000000000000000000081526004016105369061108f565b60405180910390fd5b61059181600560008573ffffffffffffffffffffffffffffffffffffffff1673ffffffffffffffffffffffffffffffffffffffff16815260200190815260200160002054610dc590919063ffffffff16565b600560008473ffffffffffffffffffffffffffffffffffffffff1673ffffffffffffffffffffffffffffffffffffffff1681526020019081526020016000208190555061062681600560008673ffffffffffffffffffffffffffffffffffffffff1673ffffffffffffffffffffffffffffffffffffffff16815260200190815260200160002054610ded90919063ffffffff16565b600560008573ffffffffffffffffffffffffffffffffffffffff1673ffffffffffffffffffffffffffffffffffffffff168152602001908152602001600020819055506106f881600660008673ffffffffffffffffffffffffffffffffffffffff1673ffffffffffffffffffffffffffffffffffffffff16815260200190815260200160002060003373ffffffffffffffffffffffffffffffffffffffff1673ffffffffffffffffffffffffffffffffffffffff16815260200190815260200160002054610ded90919063ffffffff16565b600660008573ffffffffffffffffffffffffffffffffffffffff1673ffffffffffffffffffffffffffffffffffffffff16815260200190815260200160002060003373ffffffffffffffffffffffffffffffffffffffff1673ffffffffffffffffffffffffffffffffffffffff168152602001908152602001600020819055508173ffffffffffffffffffffffffffffffffffffffff168373ffffffffffffffffffffffffffffffffffffffff167fddf252ad1be2c89b69c2b068fc378daa952ba7f163c4a11628f55a4df523b3ef836040516107d591906110cf565b60405180910390a3505050565b600260009054906101000a900460ff1681565b600073ffffffffffffffffffffffffffffffffffffffff168273ffffffffffffffffffffffffffffffffffffffff161415610865576040517f08c379a000000000000000000000000000000000000000000000000000000000815260040161085c906110af565b60405180910390fd5b61087160008383610e16565b806000808282546108829190611121565b9250508190555080600560008473ffffffffffffffffffffffffffffffffffffffff1673ffffffffffffffffffffffffffffffffffffffff16815260200190815260200160002060008282546108d89190611121565b925050819055508173ffffffffffffffffffffffffffffffffffffffff16600073ffffffffffffffffffffffffffffffffffffffff167fddf252ad1be2c89b69c2b068fc378daa952ba7f163c4a11628f55a4df523b3ef8360405161093d91906110cf565b60405180910390a361095160008383610e1b565b5050565b6004805461096290611227565b80601f016020809104026020016040519081016040528092919081815260200182805461098e90611227565b80156109db5780601f106109b0576101008083540402835291602001916109db565b820191906000526020600020905b8154815290600101906020018083116109be57829003601f168201915b505050505081565b6000600560008373ffffffffffffffffffffffffffffffffffffffff1673ffffffffffffffffffffffffffffffffffffffff168152602001908152602001600020549050919050565b60038054610a3990611227565b80601f0160208091040260200160405190810160405280929190818152602001828054610a6590611227565b8015610ab25780601f10610a8757610100808354040283529160200191610ab2565b820191906000526020600020905b815481529060010190602001808311610a9557829003601f168201915b505050505081565b6040600481610ac99190611121565b600036905014610adc57610adb611259565b5b60008211610b1f576040517f08c379a0000000000000000000000000000000000000000000000000000000008152600401610b169061106f565b60405180910390fd5b81600560003373ffffffffffffffffffffffffffffffffffffffff1673ffffffffffffffffffffffffffffffffffffffff168152602001908152602001600020541015610ba1576040517f08c379a0000000000000000000000000000000000000000000000000000000008152600401610b989061104f565b60405180910390fd5b610bf382600560003373ffffffffffffffffffffffffffffffffffffffff1673ffffffffffffffffffffffffffffffffffffffff16815260200190815260200160002054610ded90919063ffffffff16565b600560003373ffffffffffffffffffffffffffffffffffffffff1673ffffffffffffffffffffffffffffffffffffffff16815260200190815260200160002081905550610c8882600560008673ffffffffffffffffffffffffffffffffffffffff1673ffffffffffffffffffffffffffffffffffffffff16815260200190815260200160002054610dc590919063ffffffff16565b600560008573ffffffffffffffffffffffffffffffffffffffff1673ffffffffffffffffffffffffffffffffffffffff168152602001908152602001600020819055508273ffffffffffffffffffffffffffffffffffffffff163373ffffffffffffffffffffffffffffffffffffffff167fddf252ad1be2c89b69c2b068fc378daa952ba7f163c4a11628f55a4df523b3ef84604051610d2891906110cf565b60405180910390a3505050565b60008054905090565b6000600660008373ffffffffffffffffffffffffffffffffffffffff1673ffffffffffffffffffffffffffffffffffffffff16815260200190815260200160002060008473ffffffffffffffffffffffffffffffffffffffff1673ffffffffffffffffffffffffffffffffffffffff16815260200190815260200160002054905092915050565b6000808284610dd49190611121565b905083811015610de357600080fd5b8091505092915050565b600082821115610dfc57600080fd5b60008284610e0a9190611177565b90508091505092915050565b505050565b505050565b600081359050610e2f816113a0565b92915050565b600081359050610e44816113b7565b92915050565b600060208284031215610e6057610e5f6112e6565b5b6000610e6e84828501610e20565b91505092915050565b60008060408385031215610e8e57610e8d6112e6565b5b6000610e9c85828601610e20565b9250506020610ead85828601610e20565b9150509250929050565b600080600060608486031215610ed057610ecf6112e6565b5b6000610ede86828701610e20565b9350506020610eef86828701610e20565b9250506040610f0086828701610e35565b9150509250925092565b60008060408385031215610f2157610f206112e6565b5b6000610f2f85828601610e20565b9250506020610f4085828601610e35565b9150509250929050565b6000610f5582611105565b610f5f8185611110565b9350610f6f8185602086016111f4565b610f78816112eb565b840191505092915050565b6000610f90601083611110565b9150610f9b826112fc565b602082019050919050565b6000610fb3600b83611110565b9150610fbe82611325565b602082019050919050565b6000610fd6600e83611110565b9150610fe18261134e565b602082019050919050565b6000610ff9601f83611110565b915061100482611377565b602082019050919050565b611018816111dd565b82525050565b611027816111e7565b82525050565b600060208201905081810360008301526110478184610f4a565b905092915050565b6000602082019050818103600083015261106881610f83565b9050919050565b6000602082019050818103600083015261108881610fa6565b9050919050565b600060208201905081810360008301526110a881610fc9565b9050919050565b600060208201905081810360008301526110c881610fec565b9050919050565b60006020820190506110e4600083018461100f565b92915050565b60006020820190506110ff600083018461101e565b92915050565b600081519050919050565b600082825260208201905092915050565b600061112c826111dd565b9150611137836111dd565b9250827fffffffffffffffffffffffffffffffffffffffffffffffffffffffffffffffff0382111561116c5761116b611288565b5b828201905092915050565b6000611182826111dd565b915061118d836111dd565b9250828210156111a05761119f611288565b5b828203905092915050565b60006111b6826111bd565b9050919050565b600073ffffffffffffffffffffffffffffffffffffffff82169050919050565b6000819050919050565b600060ff82169050919050565b60005b838110156112125780820151818401526020810190506111f7565b83811115611221576000848401525b50505050565b6000600282049050600182168061123f57607f821691505b60208210811415611253576112526112b7565b5b50919050565b7f4e487b7100000000000000000000000000000000000000000000000000000000600052600160045260246000fd5b7f4e487b7100000000000000000000000000000000000000000000000000000000600052601160045260246000fd5b7f4e487b7100000000000000000000000000000000000000000000000000000000600052602260045260246000fd5b600080fd5b6000601f19601f8301169050919050565b7f42616c616e6365203c20616d6f756e7400000000000000000000000000000000600082015250565b7f416d6f756e74203c3d2030000000000000000000000000000000000000000000600082015250565b7f446f6e277420616c6c6f7765642e000000000000000000000000000000000000600082015250565b7f45524332303a206d696e7420746f20746865207a65726f206164647265737300600082015250565b6113a9816111ab565b81146113b457600080fd5b50565b6113c0816111dd565b81146113cb57600080fd5b5056fea2646970667358221220e9485a15ff463682a9856bf402ca5042263af51133e5abe3078a4e8653593f3464736f6c63430008070033",
					"opcodes": "PUSH1 0x80 PUSH1 0x40 MSTORE PUSH1 0x40 MLOAD PUSH3 0x12 SWAP1 PUSH3 0xE9 JUMP JUMPDEST PUSH1 0x40 MLOAD DUP1 SWAP2 SUB SWAP1 PUSH1 0x0 CREATE DUP1 ISZERO DUP1 ISZERO PUSH3 0x2F JUMPI RETURNDATASIZE PUSH1 0x0 DUP1 RETURNDATACOPY RETURNDATASIZE PUSH1 0x0 REVERT JUMPDEST POP PUSH1 0x5 PUSH1 0x0 PUSH2 0x100 EXP DUP2 SLOAD DUP2 PUSH20 0xFFFFFFFFFFFFFFFFFFFFFFFFFFFFFFFFFFFFFFFF MUL NOT AND SWAP1 DUP4 PUSH20 0xFFFFFFFFFFFFFFFFFFFFFFFFFFFFFFFFFFFFFFFF AND MUL OR SWAP1 SSTORE POP CALLVALUE DUP1 ISZERO PUSH3 0x7D JUMPI PUSH1 0x0 DUP1 REVERT JUMPDEST POP CALLER PUSH1 0x4 PUSH1 0x0 PUSH2 0x100 EXP DUP2 SLOAD DUP2 PUSH20 0xFFFFFFFFFFFFFFFFFFFFFFFFFFFFFFFFFFFFFFFF MUL NOT AND SWAP1 DUP4 PUSH20 0xFFFFFFFFFFFFFFFFFFFFFFFFFFFFFFFFFFFFFFFF AND MUL OR SWAP1 SSTORE POP PUSH4 0x625F140A PUSH1 0x0 DUP2 SWAP1 SSTORE POP PUSH3 0x69780 PUSH1 0x0 SLOAD PUSH3 0xDD SWAP2 SWAP1 PUSH3 0xF7 JUMP JUMPDEST PUSH1 0x1 DUP2 SWAP1 SSTORE POP PUSH3 0x18D JUMP JUMPDEST PUSH2 0x15F9 DUP1 PUSH3 0x158F DUP4 CODECOPY ADD SWAP1 JUMP JUMPDEST PUSH1 0x0 PUSH3 0x104 DUP3 PUSH3 0x154 JUMP JUMPDEST SWAP2 POP PUSH3 0x111 DUP4 PUSH3 0x154 JUMP JUMPDEST SWAP3 POP DUP3 PUSH32 0xFFFFFFFFFFFFFFFFFFFFFFFFFFFFFFFFFFFFFFFFFFFFFFFFFFFFFFFFFFFFFFFF SUB DUP3 GT ISZERO PUSH3 0x149 JUMPI PUSH3 0x148 PUSH3 0x15E JUMP JUMPDEST JUMPDEST DUP3 DUP3 ADD SWAP1 POP SWAP3 SWAP2 POP POP JUMP JUMPDEST PUSH1 0x0 DUP2 SWAP1 POP SWAP2 SWAP1 POP JUMP JUMPDEST PUSH32 0x4E487B7100000000000000000000000000000000000000000000000000000000 PUSH1 0x0 MSTORE PUSH1 0x11 PUSH1 0x4 MSTORE PUSH1 0x24 PUSH1 0x0 REVERT JUMPDEST PUSH2 0x13F2 DUP1 PUSH3 0x19D PUSH1 0x0 CODECOPY PUSH1 0x0 RETURN INVALID PUSH1 0x80 PUSH1 0x40 MSTORE CALLVALUE DUP1 ISZERO PUSH2 0x10 JUMPI PUSH1 0x0 DUP1 REVERT JUMPDEST POP PUSH1 0x4 CALLDATASIZE LT PUSH2 0x7D JUMPI PUSH1 0x0 CALLDATALOAD PUSH1 0xE0 SHR DUP1 PUSH4 0x6CEA0E46 GT PUSH2 0x5B JUMPI DUP1 PUSH4 0x6CEA0E46 EQ PUSH2 0xEE JUMPI DUP1 PUSH4 0x6DD7D8EA EQ PUSH2 0x10A JUMPI DUP1 PUSH4 0x8203373A EQ PUSH2 0x126 JUMPI DUP1 PUSH4 0xC4E41B22 EQ PUSH2 0x142 JUMPI PUSH2 0x7D JUMP JUMPDEST DUP1 PUSH4 0x21214986 EQ PUSH2 0x82 JUMPI DUP1 PUSH4 0x4041EF54 EQ PUSH2 0xA2 JUMPI DUP1 PUSH4 0x633FFF16 EQ PUSH2 0xD2 JUMPI JUMPDEST PUSH1 0x0 DUP1 REVERT JUMPDEST PUSH2 0x8A PUSH2 0x160 JUMP JUMPDEST PUSH1 0x40 MLOAD PUSH2 0x99 SWAP4 SWAP3 SWAP2 SWAP1 PUSH2 0xFD0 JUMP JUMPDEST PUSH1 0x40 MLOAD DUP1 SWAP2 SUB SWAP1 RETURN JUMPDEST PUSH2 0xBC PUSH1 0x4 DUP1 CALLDATASIZE SUB DUP2 ADD SWAP1 PUSH2 0xB7 SWAP2 SWAP1 PUSH2 0xCCB JUMP JUMPDEST PUSH2 0x22B JUMP JUMPDEST PUSH1 0x40 MLOAD PUSH2 0xC9 SWAP2 SWAP1 PUSH2 0xFB5 JUMP JUMPDEST PUSH1 0x40 MLOAD DUP1 SWAP2 SUB SWAP1 RETURN JUMPDEST PUSH2 0xEC PUSH1 0x4 DUP1 CALLDATASIZE SUB DUP2 ADD SWAP1 PUSH2 0xE7 SWAP2 SWAP1 PUSH2 0xD41 JUMP JUMPDEST PUSH2 0x2DF JUMP JUMPDEST STOP JUMPDEST PUSH2 0x108 PUSH1 0x4 DUP1 CALLDATASIZE SUB DUP2 ADD SWAP1 PUSH2 0x103 SWAP2 SWAP1 PUSH2 0xCCB JUMP JUMPDEST PUSH2 0x3CF JUMP JUMPDEST STOP JUMPDEST PUSH2 0x124 PUSH1 0x4 DUP1 CALLDATASIZE SUB DUP2 ADD SWAP1 PUSH2 0x11F SWAP2 SWAP1 PUSH2 0xCCB JUMP JUMPDEST PUSH2 0x462 JUMP JUMPDEST STOP JUMPDEST PUSH2 0x140 PUSH1 0x4 DUP1 CALLDATASIZE SUB DUP2 ADD SWAP1 PUSH2 0x13B SWAP2 SWAP1 PUSH2 0xCF8 JUMP JUMPDEST PUSH2 0x70C JUMP JUMPDEST STOP JUMPDEST PUSH2 0x14A PUSH2 0x98D JUMP JUMPDEST PUSH1 0x40 MLOAD PUSH2 0x157 SWAP2 SWAP1 PUSH2 0xFB5 JUMP JUMPDEST PUSH1 0x40 MLOAD DUP1 SWAP2 SUB SWAP1 RETURN JUMPDEST PUSH1 0x0 DUP1 PUSH1 0x0 DUP1 PUSH1 0x5 PUSH1 0x0 SWAP1 SLOAD SWAP1 PUSH2 0x100 EXP SWAP1 DIV PUSH20 0xFFFFFFFFFFFFFFFFFFFFFFFFFFFFFFFFFFFFFFFF AND PUSH20 0xFFFFFFFFFFFFFFFFFFFFFFFFFFFFFFFFFFFFFFFF AND PUSH4 0x70A08231 CALLER PUSH1 0x40 MLOAD DUP3 PUSH4 0xFFFFFFFF AND PUSH1 0xE0 SHL DUP2 MSTORE PUSH1 0x4 ADD PUSH2 0x1C1 SWAP2 SWAP1 PUSH2 0xED1 JUMP JUMPDEST PUSH1 0x20 PUSH1 0x40 MLOAD DUP1 DUP4 SUB DUP2 DUP7 DUP1 EXTCODESIZE ISZERO DUP1 ISZERO PUSH2 0x1D9 JUMPI PUSH1 0x0 DUP1 REVERT JUMPDEST POP GAS STATICCALL ISZERO DUP1 ISZERO PUSH2 0x1ED JUMPI RETURNDATASIZE PUSH1 0x0 DUP1 RETURNDATACOPY RETURNDATASIZE PUSH1 0x0 REVERT JUMPDEST POP POP POP POP PUSH1 0x40 MLOAD RETURNDATASIZE PUSH1 0x1F NOT PUSH1 0x1F DUP3 ADD AND DUP3 ADD DUP1 PUSH1 0x40 MSTORE POP DUP2 ADD SWAP1 PUSH2 0x211 SWAP2 SWAP1 PUSH2 0xDB9 JUMP JUMPDEST SWAP1 POP PUSH1 0x0 PUSH1 0x1 SWAP1 POP DUP2 DUP2 DUP3 DUP5 EQ SWAP5 POP SWAP5 POP SWAP5 POP POP POP SWAP1 SWAP2 SWAP3 JUMP JUMPDEST PUSH1 0x0 PUSH1 0x5 PUSH1 0x0 SWAP1 SLOAD SWAP1 PUSH2 0x100 EXP SWAP1 DIV PUSH20 0xFFFFFFFFFFFFFFFFFFFFFFFFFFFFFFFFFFFFFFFF AND PUSH20 0xFFFFFFFFFFFFFFFFFFFFFFFFFFFFFFFFFFFFFFFF AND PUSH4 0x70A08231 DUP4 PUSH1 0x40 MLOAD DUP3 PUSH4 0xFFFFFFFF AND PUSH1 0xE0 SHL DUP2 MSTORE PUSH1 0x4 ADD PUSH2 0x288 SWAP2 SWAP1 PUSH2 0xED1 JUMP JUMPDEST PUSH1 0x20 PUSH1 0x40 MLOAD DUP1 DUP4 SUB DUP2 DUP7 DUP1 EXTCODESIZE ISZERO DUP1 ISZERO PUSH2 0x2A0 JUMPI PUSH1 0x0 DUP1 REVERT JUMPDEST POP GAS STATICCALL ISZERO DUP1 ISZERO PUSH2 0x2B4 JUMPI RETURNDATASIZE PUSH1 0x0 DUP1 RETURNDATACOPY RETURNDATASIZE PUSH1 0x0 REVERT JUMPDEST POP POP POP POP PUSH1 0x40 MLOAD RETURNDATASIZE PUSH1 0x1F NOT PUSH1 0x1F DUP3 ADD AND DUP3 ADD DUP1 PUSH1 0x40 MSTORE POP DUP2 ADD SWAP1 PUSH2 0x2D8 SWAP2 SWAP1 PUSH2 0xDB9 JUMP JUMPDEST SWAP1 POP SWAP2 SWAP1 POP JUMP JUMPDEST DUP1 MLOAD DUP3 MLOAD EQ PUSH2 0x323 JUMPI PUSH1 0x40 MLOAD PUSH32 0x8C379A000000000000000000000000000000000000000000000000000000000 DUP2 MSTORE PUSH1 0x4 ADD PUSH2 0x31A SWAP1 PUSH2 0xF15 JUMP JUMPDEST PUSH1 0x40 MLOAD DUP1 SWAP2 SUB SWAP1 REVERT JUMPDEST PUSH1 0x0 JUMPDEST DUP3 MLOAD DUP2 LT ISZERO PUSH2 0x3CA JUMPI DUP2 DUP2 DUP2 MLOAD DUP2 LT PUSH2 0x342 JUMPI PUSH2 0x341 PUSH2 0x1239 JUMP JUMPDEST JUMPDEST PUSH1 0x20 MUL PUSH1 0x20 ADD ADD MLOAD PUSH1 0x3 PUSH1 0x0 DUP6 DUP5 DUP2 MLOAD DUP2 LT PUSH2 0x361 JUMPI PUSH2 0x360 PUSH2 0x1239 JUMP JUMPDEST JUMPDEST PUSH1 0x20 MUL PUSH1 0x20 ADD ADD MLOAD PUSH20 0xFFFFFFFFFFFFFFFFFFFFFFFFFFFFFFFFFFFFFFFF AND PUSH20 0xFFFFFFFFFFFFFFFFFFFFFFFFFFFFFFFFFFFFFFFF AND DUP2 MSTORE PUSH1 0x20 ADD SWAP1 DUP2 MSTORE PUSH1 0x20 ADD PUSH1 0x0 KECCAK256 SWAP1 DUP1 MLOAD SWAP1 PUSH1 0x20 ADD SWAP1 PUSH2 0x3B6 SWAP3 SWAP2 SWAP1 PUSH2 0xA34 JUMP JUMPDEST POP DUP1 DUP1 PUSH2 0x3C2 SWAP1 PUSH2 0x1192 JUMP JUMPDEST SWAP2 POP POP PUSH2 0x326 JUMP JUMPDEST POP POP POP JUMP JUMPDEST PUSH1 0x5 PUSH1 0x0 SWAP1 SLOAD SWAP1 PUSH2 0x100 EXP SWAP1 DIV PUSH20 0xFFFFFFFFFFFFFFFFFFFFFFFFFFFFFFFFFFFFFFFF AND PUSH20 0xFFFFFFFFFFFFFFFFFFFFFFFFFFFFFFFFFFFFFFFF AND PUSH4 0x40C10F19 DUP3 PUSH1 0x1 PUSH1 0x40 MLOAD DUP4 PUSH4 0xFFFFFFFF AND PUSH1 0xE0 SHL DUP2 MSTORE PUSH1 0x4 ADD PUSH2 0x42D SWAP3 SWAP2 SWAP1 PUSH2 0xEEC JUMP JUMPDEST PUSH1 0x0 PUSH1 0x40 MLOAD DUP1 DUP4 SUB DUP2 PUSH1 0x0 DUP8 DUP1 EXTCODESIZE ISZERO DUP1 ISZERO PUSH2 0x447 JUMPI PUSH1 0x0 DUP1 REVERT JUMPDEST POP GAS CALL ISZERO DUP1 ISZERO PUSH2 0x45B JUMPI RETURNDATASIZE PUSH1 0x0 DUP1 RETURNDATACOPY RETURNDATASIZE PUSH1 0x0 REVERT JUMPDEST POP POP POP POP POP JUMP JUMPDEST PUSH1 0x1 SLOAD TIMESTAMP GT ISZERO PUSH2 0x4A7 JUMPI PUSH1 0x40 MLOAD PUSH32 0x8C379A000000000000000000000000000000000000000000000000000000000 DUP2 MSTORE PUSH1 0x4 ADD PUSH2 0x49E SWAP1 PUSH2 0xF35 JUMP JUMPDEST PUSH1 0x40 MLOAD DUP1 SWAP2 SUB SWAP1 REVERT JUMPDEST PUSH1 0x2 PUSH1 0x0 CALLER PUSH20 0xFFFFFFFFFFFFFFFFFFFFFFFFFFFFFFFFFFFFFFFF AND PUSH20 0xFFFFFFFFFFFFFFFFFFFFFFFFFFFFFFFFFFFFFFFF AND DUP2 MSTORE PUSH1 0x20 ADD SWAP1 DUP2 MSTORE PUSH1 0x20 ADD PUSH1 0x0 KECCAK256 PUSH1 0x0 SWAP1 SLOAD SWAP1 PUSH2 0x100 EXP SWAP1 DIV PUSH1 0xFF AND ISZERO PUSH2 0x534 JUMPI PUSH1 0x40 MLOAD PUSH32 0x8C379A000000000000000000000000000000000000000000000000000000000 DUP2 MSTORE PUSH1 0x4 ADD PUSH2 0x52B SWAP1 PUSH2 0xF75 JUMP JUMPDEST PUSH1 0x40 MLOAD DUP1 SWAP2 SUB SWAP1 REVERT JUMPDEST PUSH1 0x1 PUSH1 0x5 PUSH1 0x0 SWAP1 SLOAD SWAP1 PUSH2 0x100 EXP SWAP1 DIV PUSH20 0xFFFFFFFFFFFFFFFFFFFFFFFFFFFFFFFFFFFFFFFF AND PUSH20 0xFFFFFFFFFFFFFFFFFFFFFFFFFFFFFFFFFFFFFFFF AND PUSH4 0x70A08231 CALLER PUSH1 0x40 MLOAD DUP3 PUSH4 0xFFFFFFFF AND PUSH1 0xE0 SHL DUP2 MSTORE PUSH1 0x4 ADD PUSH2 0x591 SWAP2 SWAP1 PUSH2 0xED1 JUMP JUMPDEST PUSH1 0x20 PUSH1 0x40 MLOAD DUP1 DUP4 SUB DUP2 DUP7 DUP1 EXTCODESIZE ISZERO DUP1 ISZERO PUSH2 0x5A9 JUMPI PUSH1 0x0 DUP1 REVERT JUMPDEST POP GAS STATICCALL ISZERO DUP1 ISZERO PUSH2 0x5BD JUMPI RETURNDATASIZE PUSH1 0x0 DUP1 RETURNDATACOPY RETURNDATASIZE PUSH1 0x0 REVERT JUMPDEST POP POP POP POP PUSH1 0x40 MLOAD RETURNDATASIZE PUSH1 0x1F NOT PUSH1 0x1F DUP3 ADD AND DUP3 ADD DUP1 PUSH1 0x40 MSTORE POP DUP2 ADD SWAP1 PUSH2 0x5E1 SWAP2 SWAP1 PUSH2 0xDB9 JUMP JUMPDEST EQ PUSH2 0x621 JUMPI PUSH1 0x40 MLOAD PUSH32 0x8C379A000000000000000000000000000000000000000000000000000000000 DUP2 MSTORE PUSH1 0x4 ADD PUSH2 0x618 SWAP1 PUSH2 0xF95 JUMP JUMPDEST PUSH1 0x40 MLOAD DUP1 SWAP2 SUB SWAP1 REVERT JUMPDEST PUSH1 0x5 PUSH1 0x0 SWAP1 SLOAD SWAP1 PUSH2 0x100 EXP SWAP1 DIV PUSH20 0xFFFFFFFFFFFFFFFFFFFFFFFFFFFFFFFFFFFFFFFF AND PUSH20 0xFFFFFFFFFFFFFFFFFFFFFFFFFFFFFFFFFFFFFFFF AND PUSH4 0xA9059CBB DUP3 PUSH1 0x1 PUSH1 0x40 MLOAD DUP4 PUSH4 0xFFFFFFFF AND PUSH1 0xE0 SHL DUP2 MSTORE PUSH1 0x4 ADD PUSH2 0x67F SWAP3 SWAP2 SWAP1 PUSH2 0xEEC JUMP JUMPDEST PUSH1 0x0 PUSH1 0x40 MLOAD DUP1 DUP4 SUB DUP2 PUSH1 0x0 DUP8 DUP1 EXTCODESIZE ISZERO DUP1 ISZERO PUSH2 0x699 JUMPI PUSH1 0x0 DUP1 REVERT JUMPDEST POP GAS CALL ISZERO DUP1 ISZERO PUSH2 0x6AD JUMPI RETURNDATASIZE PUSH1 0x0 DUP1 RETURNDATACOPY RETURNDATASIZE PUSH1 0x0 REVERT JUMPDEST POP POP POP POP PUSH1 0x1 PUSH1 0x2 PUSH1 0x0 CALLER PUSH20 0xFFFFFFFFFFFFFFFFFFFFFFFFFFFFFFFFFFFFFFFF AND PUSH20 0xFFFFFFFFFFFFFFFFFFFFFFFFFFFFFFFFFFFFFFFF AND DUP2 MSTORE PUSH1 0x20 ADD SWAP1 DUP2 MSTORE PUSH1 0x20 ADD PUSH1 0x0 KECCAK256 PUSH1 0x0 PUSH2 0x100 EXP DUP2 SLOAD DUP2 PUSH1 0xFF MUL NOT AND SWAP1 DUP4 ISZERO ISZERO MUL OR SWAP1 SSTORE POP POP JUMP JUMPDEST PUSH1 0x4 PUSH1 0x0 SWAP1 SLOAD SWAP1 PUSH2 0x100 EXP SWAP1 DIV PUSH20 0xFFFFFFFFFFFFFFFFFFFFFFFFFFFFFFFFFFFFFFFF AND PUSH20 0xFFFFFFFFFFFFFFFFFFFFFFFFFFFFFFFFFFFFFFFF AND CALLER PUSH20 0xFFFFFFFFFFFFFFFFFFFFFFFFFFFFFFFFFFFFFFFF AND EQ PUSH2 0x79C JUMPI PUSH1 0x40 MLOAD PUSH32 0x8C379A000000000000000000000000000000000000000000000000000000000 DUP2 MSTORE PUSH1 0x4 ADD PUSH2 0x793 SWAP1 PUSH2 0xF55 JUMP JUMPDEST PUSH1 0x40 MLOAD DUP1 SWAP2 SUB SWAP1 REVERT JUMPDEST PUSH1 0x0 JUMPDEST DUP2 MLOAD DUP2 LT ISZERO PUSH2 0x8D7 JUMPI PUSH1 0x0 PUSH1 0x2 PUSH1 0x0 DUP5 DUP5 DUP2 MLOAD DUP2 LT PUSH2 0x7C1 JUMPI PUSH2 0x7C0 PUSH2 0x1239 JUMP JUMPDEST JUMPDEST PUSH1 0x20 MUL PUSH1 0x20 ADD ADD MLOAD PUSH20 0xFFFFFFFFFFFFFFFFFFFFFFFFFFFFFFFFFFFFFFFF AND PUSH20 0xFFFFFFFFFFFFFFFFFFFFFFFFFFFFFFFFFFFFFFFF AND DUP2 MSTORE PUSH1 0x20 ADD SWAP1 DUP2 MSTORE PUSH1 0x20 ADD PUSH1 0x0 KECCAK256 PUSH1 0x0 PUSH2 0x100 EXP DUP2 SLOAD DUP2 PUSH1 0xFF MUL NOT AND SWAP1 DUP4 ISZERO ISZERO MUL OR SWAP1 SSTORE POP PUSH1 0x5 PUSH1 0x0 SWAP1 SLOAD SWAP1 PUSH2 0x100 EXP SWAP1 DIV PUSH20 0xFFFFFFFFFFFFFFFFFFFFFFFFFFFFFFFFFFFFFFFF AND PUSH20 0xFFFFFFFFFFFFFFFFFFFFFFFFFFFFFFFFFFFFFFFF AND PUSH4 0x40C10F19 DUP4 DUP4 DUP2 MLOAD DUP2 LT PUSH2 0x86B JUMPI PUSH2 0x86A PUSH2 0x1239 JUMP JUMPDEST JUMPDEST PUSH1 0x20 MUL PUSH1 0x20 ADD ADD MLOAD PUSH1 0x1 PUSH1 0x40 MLOAD DUP4 PUSH4 0xFFFFFFFF AND PUSH1 0xE0 SHL DUP2 MSTORE PUSH1 0x4 ADD PUSH2 0x892 SWAP3 SWAP2 SWAP1 PUSH2 0xEEC JUMP JUMPDEST PUSH1 0x0 PUSH1 0x40 MLOAD DUP1 DUP4 SUB DUP2 PUSH1 0x0 DUP8 DUP1 EXTCODESIZE ISZERO DUP1 ISZERO PUSH2 0x8AC JUMPI PUSH1 0x0 DUP1 REVERT JUMPDEST POP GAS CALL ISZERO DUP1 ISZERO PUSH2 0x8C0 JUMPI RETURNDATASIZE PUSH1 0x0 DUP1 RETURNDATACOPY RETURNDATASIZE PUSH1 0x0 REVERT JUMPDEST POP POP POP POP DUP1 DUP1 PUSH2 0x8CF SWAP1 PUSH2 0x1192 JUMP JUMPDEST SWAP2 POP POP PUSH2 0x79F JUMP JUMPDEST POP PUSH1 0x5 PUSH1 0x0 SWAP1 SLOAD SWAP1 PUSH2 0x100 EXP SWAP1 DIV PUSH20 0xFFFFFFFFFFFFFFFFFFFFFFFFFFFFFFFFFFFFFFFF AND PUSH20 0xFFFFFFFFFFFFFFFFFFFFFFFFFFFFFFFFFFFFFFFF AND PUSH4 0x40C10F19 PUSH1 0x4 PUSH1 0x0 SWAP1 SLOAD SWAP1 PUSH2 0x100 EXP SWAP1 DIV PUSH20 0xFFFFFFFFFFFFFFFFFFFFFFFFFFFFFFFFFFFFFFFF AND PUSH1 0x1 PUSH1 0x40 MLOAD DUP4 PUSH4 0xFFFFFFFF AND PUSH1 0xE0 SHL DUP2 MSTORE PUSH1 0x4 ADD PUSH2 0x958 SWAP3 SWAP2 SWAP1 PUSH2 0xEEC JUMP JUMPDEST PUSH1 0x0 PUSH1 0x40 MLOAD DUP1 DUP4 SUB DUP2 PUSH1 0x0 DUP8 DUP1 EXTCODESIZE ISZERO DUP1 ISZERO PUSH2 0x972 JUMPI PUSH1 0x0 DUP1 REVERT JUMPDEST POP GAS CALL ISZERO DUP1 ISZERO PUSH2 0x986 JUMPI RETURNDATASIZE PUSH1 0x0 DUP1 RETURNDATACOPY RETURNDATASIZE PUSH1 0x0 REVERT JUMPDEST POP POP POP POP POP JUMP JUMPDEST PUSH1 0x0 PUSH1 0x5 PUSH1 0x0 SWAP1 SLOAD SWAP1 PUSH2 0x100 EXP SWAP1 DIV PUSH20 0xFFFFFFFFFFFFFFFFFFFFFFFFFFFFFFFFFFFFFFFF AND PUSH20 0xFFFFFFFFFFFFFFFFFFFFFFFFFFFFFFFFFFFFFFFF AND PUSH4 0xC4E41B22 PUSH1 0x40 MLOAD DUP2 PUSH4 0xFFFFFFFF AND PUSH1 0xE0 SHL DUP2 MSTORE PUSH1 0x4 ADD PUSH1 0x20 PUSH1 0x40 MLOAD DUP1 DUP4 SUB DUP2 DUP7 DUP1 EXTCODESIZE ISZERO DUP1 ISZERO PUSH2 0x9F7 JUMPI PUSH1 0x0 DUP1 REVERT JUMPDEST POP GAS STATICCALL ISZERO DUP1 ISZERO PUSH2 0xA0B JUMPI RETURNDATASIZE PUSH1 0x0 DUP1 RETURNDATACOPY RETURNDATASIZE PUSH1 0x0 REVERT JUMPDEST POP POP POP POP PUSH1 0x40 MLOAD RETURNDATASIZE PUSH1 0x1F NOT PUSH1 0x1F DUP3 ADD AND DUP3 ADD DUP1 PUSH1 0x40 MSTORE POP DUP2 ADD SWAP1 PUSH2 0xA2F SWAP2 SWAP1 PUSH2 0xDB9 JUMP JUMPDEST SWAP1 POP SWAP1 JUMP JUMPDEST DUP3 DUP1 SLOAD PUSH2 0xA40 SWAP1 PUSH2 0x112F JUMP JUMPDEST SWAP1 PUSH1 0x0 MSTORE PUSH1 0x20 PUSH1 0x0 KECCAK256 SWAP1 PUSH1 0x1F ADD PUSH1 0x20 SWAP1 DIV DUP2 ADD SWAP3 DUP3 PUSH2 0xA62 JUMPI PUSH1 0x0 DUP6 SSTORE PUSH2 0xAA9 JUMP JUMPDEST DUP3 PUSH1 0x1F LT PUSH2 0xA7B JUMPI DUP1 MLOAD PUSH1 0xFF NOT AND DUP4 DUP1 ADD OR DUP6 SSTORE PUSH2 0xAA9 JUMP JUMPDEST DUP3 DUP1 ADD PUSH1 0x1 ADD DUP6 SSTORE DUP3 ISZERO PUSH2 0xAA9 JUMPI SWAP2 DUP3 ADD JUMPDEST DUP3 DUP2 GT ISZERO PUSH2 0xAA8 JUMPI DUP3 MLOAD DUP3 SSTORE SWAP2 PUSH1 0x20 ADD SWAP2 SWAP1 PUSH1 0x1 ADD SWAP1 PUSH2 0xA8D JUMP JUMPDEST JUMPDEST POP SWAP1 POP PUSH2 0xAB6 SWAP2 SWAP1 PUSH2 0xABA JUMP JUMPDEST POP SWAP1 JUMP JUMPDEST JUMPDEST DUP1 DUP3 GT ISZERO PUSH2 0xAD3 JUMPI PUSH1 0x0 DUP2 PUSH1 0x0 SWAP1 SSTORE POP PUSH1 0x1 ADD PUSH2 0xABB JUMP JUMPDEST POP SWAP1 JUMP JUMPDEST PUSH1 0x0 PUSH2 0xAEA PUSH2 0xAE5 DUP5 PUSH2 0x102C JUMP JUMPDEST PUSH2 0x1007 JUMP JUMPDEST SWAP1 POP DUP1 DUP4 DUP3 MSTORE PUSH1 0x20 DUP3 ADD SWAP1 POP DUP3 DUP6 PUSH1 0x20 DUP7 MUL DUP3 ADD GT ISZERO PUSH2 0xB0D JUMPI PUSH2 0xB0C PUSH2 0x129C JUMP JUMPDEST JUMPDEST PUSH1 0x0 JUMPDEST DUP6 DUP2 LT ISZERO PUSH2 0xB3D JUMPI DUP2 PUSH2 0xB23 DUP9 DUP3 PUSH2 0xC17 JUMP JUMPDEST DUP5 MSTORE PUSH1 0x20 DUP5 ADD SWAP4 POP PUSH1 0x20 DUP4 ADD SWAP3 POP POP PUSH1 0x1 DUP2 ADD SWAP1 POP PUSH2 0xB10 JUMP JUMPDEST POP POP POP SWAP4 SWAP3 POP POP POP JUMP JUMPDEST PUSH1 0x0 PUSH2 0xB5A PUSH2 0xB55 DUP5 PUSH2 0x1058 JUMP JUMPDEST PUSH2 0x1007 JUMP JUMPDEST SWAP1 POP DUP1 DUP4 DUP3 MSTORE PUSH1 0x20 DUP3 ADD SWAP1 POP DUP3 DUP6 PUSH1 0x20 DUP7 MUL DUP3 ADD GT ISZERO PUSH2 0xB7D JUMPI PUSH2 0xB7C PUSH2 0x129C JUMP JUMPDEST JUMPDEST PUSH1 0x0 JUMPDEST DUP6 DUP2 LT ISZERO PUSH2 0xBCB JUMPI DUP2 CALLDATALOAD PUSH8 0xFFFFFFFFFFFFFFFF DUP2 GT ISZERO PUSH2 0xBA3 JUMPI PUSH2 0xBA2 PUSH2 0x1297 JUMP JUMPDEST JUMPDEST DUP1 DUP7 ADD PUSH2 0xBB0 DUP10 DUP3 PUSH2 0xC88 JUMP JUMPDEST DUP6 MSTORE PUSH1 0x20 DUP6 ADD SWAP5 POP PUSH1 0x20 DUP5 ADD SWAP4 POP POP POP PUSH1 0x1 DUP2 ADD SWAP1 POP PUSH2 0xB80 JUMP JUMPDEST POP POP POP SWAP4 SWAP3 POP POP POP JUMP JUMPDEST PUSH1 0x0 PUSH2 0xBE8 PUSH2 0xBE3 DUP5 PUSH2 0x1084 JUMP JUMPDEST PUSH2 0x1007 JUMP JUMPDEST SWAP1 POP DUP3 DUP2 MSTORE PUSH1 0x20 DUP2 ADD DUP5 DUP5 DUP5 ADD GT ISZERO PUSH2 0xC04 JUMPI PUSH2 0xC03 PUSH2 0x12A1 JUMP JUMPDEST JUMPDEST PUSH2 0xC0F DUP5 DUP3 DUP6 PUSH2 0x1120 JUMP JUMPDEST POP SWAP4 SWAP3 POP POP POP JUMP JUMPDEST PUSH1 0x0 DUP2 CALLDATALOAD SWAP1 POP PUSH2 0xC26 DUP2 PUSH2 0x138E JUMP JUMPDEST SWAP3 SWAP2 POP POP JUMP JUMPDEST PUSH1 0x0 DUP3 PUSH1 0x1F DUP4 ADD SLT PUSH2 0xC41 JUMPI PUSH2 0xC40 PUSH2 0x1297 JUMP JUMPDEST JUMPDEST DUP2 CALLDATALOAD PUSH2 0xC51 DUP5 DUP3 PUSH1 0x20 DUP7 ADD PUSH2 0xAD7 JUMP JUMPDEST SWAP2 POP POP SWAP3 SWAP2 POP POP JUMP JUMPDEST PUSH1 0x0 DUP3 PUSH1 0x1F DUP4 ADD SLT PUSH2 0xC6F JUMPI PUSH2 0xC6E PUSH2 0x1297 JUMP JUMPDEST JUMPDEST DUP2 CALLDATALOAD PUSH2 0xC7F DUP5 DUP3 PUSH1 0x20 DUP7 ADD PUSH2 0xB47 JUMP JUMPDEST SWAP2 POP POP SWAP3 SWAP2 POP POP JUMP JUMPDEST PUSH1 0x0 DUP3 PUSH1 0x1F DUP4 ADD SLT PUSH2 0xC9D JUMPI PUSH2 0xC9C PUSH2 0x1297 JUMP JUMPDEST JUMPDEST DUP2 CALLDATALOAD PUSH2 0xCAD DUP5 DUP3 PUSH1 0x20 DUP7 ADD PUSH2 0xBD5 JUMP JUMPDEST SWAP2 POP POP SWAP3 SWAP2 POP POP JUMP JUMPDEST PUSH1 0x0 DUP2 MLOAD SWAP1 POP PUSH2 0xCC5 DUP2 PUSH2 0x13A5 JUMP JUMPDEST SWAP3 SWAP2 POP POP JUMP JUMPDEST PUSH1 0x0 PUSH1 0x20 DUP3 DUP5 SUB SLT ISZERO PUSH2 0xCE1 JUMPI PUSH2 0xCE0 PUSH2 0x12AB JUMP JUMPDEST JUMPDEST PUSH1 0x0 PUSH2 0xCEF DUP5 DUP3 DUP6 ADD PUSH2 0xC17 JUMP JUMPDEST SWAP2 POP POP SWAP3 SWAP2 POP POP JUMP JUMPDEST PUSH1 0x0 PUSH1 0x20 DUP3 DUP5 SUB SLT ISZERO PUSH2 0xD0E JUMPI PUSH2 0xD0D PUSH2 0x12AB JUMP JUMPDEST JUMPDEST PUSH1 0x0 DUP3 ADD CALLDATALOAD PUSH8 0xFFFFFFFFFFFFFFFF DUP2 GT ISZERO PUSH2 0xD2C JUMPI PUSH2 0xD2B PUSH2 0x12A6 JUMP JUMPDEST JUMPDEST PUSH2 0xD38 DUP5 DUP3 DUP6 ADD PUSH2 0xC2C JUMP JUMPDEST SWAP2 POP POP SWAP3 SWAP2 POP POP JUMP JUMPDEST PUSH1 0x0 DUP1 PUSH1 0x40 DUP4 DUP6 SUB SLT ISZERO PUSH2 0xD58 JUMPI PUSH2 0xD57 PUSH2 0x12AB JUMP JUMPDEST JUMPDEST PUSH1 0x0 DUP4 ADD CALLDATALOAD PUSH8 0xFFFFFFFFFFFFFFFF DUP2 GT ISZERO PUSH2 0xD76 JUMPI PUSH2 0xD75 PUSH2 0x12A6 JUMP JUMPDEST JUMPDEST PUSH2 0xD82 DUP6 DUP3 DUP7 ADD PUSH2 0xC2C JUMP JUMPDEST SWAP3 POP POP PUSH1 0x20 DUP4 ADD CALLDATALOAD PUSH8 0xFFFFFFFFFFFFFFFF DUP2 GT ISZERO PUSH2 0xDA3 JUMPI PUSH2 0xDA2 PUSH2 0x12A6 JUMP JUMPDEST JUMPDEST PUSH2 0xDAF DUP6 DUP3 DUP7 ADD PUSH2 0xC5A JUMP JUMPDEST SWAP2 POP POP SWAP3 POP SWAP3 SWAP1 POP JUMP JUMPDEST PUSH1 0x0 PUSH1 0x20 DUP3 DUP5 SUB SLT ISZERO PUSH2 0xDCF JUMPI PUSH2 0xDCE PUSH2 0x12AB JUMP JUMPDEST JUMPDEST PUSH1 0x0 PUSH2 0xDDD DUP5 DUP3 DUP6 ADD PUSH2 0xCB6 JUMP JUMPDEST SWAP2 POP POP SWAP3 SWAP2 POP POP JUMP JUMPDEST PUSH2 0xDEF DUP2 PUSH2 0x10C6 JUMP JUMPDEST DUP3 MSTORE POP POP JUMP JUMPDEST PUSH2 0xDFE DUP2 PUSH2 0x10D8 JUMP JUMPDEST DUP3 MSTORE POP POP JUMP JUMPDEST PUSH2 0xE0D DUP2 PUSH2 0x110E JUMP JUMPDEST DUP3 MSTORE POP POP JUMP JUMPDEST PUSH1 0x0 PUSH2 0xE20 PUSH1 0x14 DUP4 PUSH2 0x10B5 JUMP JUMPDEST SWAP2 POP PUSH2 0xE2B DUP3 PUSH2 0x12C1 JUMP JUMPDEST PUSH1 0x20 DUP3 ADD SWAP1 POP SWAP2 SWAP1 POP JUMP JUMPDEST PUSH1 0x0 PUSH2 0xE43 PUSH1 0xC DUP4 PUSH2 0x10B5 JUMP JUMPDEST SWAP2 POP PUSH2 0xE4E DUP3 PUSH2 0x12EA JUMP JUMPDEST PUSH1 0x20 DUP3 ADD SWAP1 POP SWAP2 SWAP1 POP JUMP JUMPDEST PUSH1 0x0 PUSH2 0xE66 PUSH1 0x1B DUP4 PUSH2 0x10B5 JUMP JUMPDEST SWAP2 POP PUSH2 0xE71 DUP3 PUSH2 0x1313 JUMP JUMPDEST PUSH1 0x20 DUP3 ADD SWAP1 POP SWAP2 SWAP1 POP JUMP JUMPDEST PUSH1 0x0 PUSH2 0xE89 PUSH1 0x14 DUP4 PUSH2 0x10B5 JUMP JUMPDEST SWAP2 POP PUSH2 0xE94 DUP3 PUSH2 0x133C JUMP JUMPDEST PUSH1 0x20 DUP3 ADD SWAP1 POP SWAP2 SWAP1 POP JUMP JUMPDEST PUSH1 0x0 PUSH2 0xEAC PUSH1 0x14 DUP4 PUSH2 0x10B5 JUMP JUMPDEST SWAP2 POP PUSH2 0xEB7 DUP3 PUSH2 0x1365 JUMP JUMPDEST PUSH1 0x20 DUP3 ADD SWAP1 POP SWAP2 SWAP1 POP JUMP JUMPDEST PUSH2 0xECB DUP2 PUSH2 0x1104 JUMP JUMPDEST DUP3 MSTORE POP POP JUMP JUMPDEST PUSH1 0x0 PUSH1 0x20 DUP3 ADD SWAP1 POP PUSH2 0xEE6 PUSH1 0x0 DUP4 ADD DUP5 PUSH2 0xDE6 JUMP JUMPDEST SWAP3 SWAP2 POP POP JUMP JUMPDEST PUSH1 0x0 PUSH1 0x40 DUP3 ADD SWAP1 POP PUSH2 0xF01 PUSH1 0x0 DUP4 ADD DUP6 PUSH2 0xDE6 JUMP JUMPDEST PUSH2 0xF0E PUSH1 0x20 DUP4 ADD DUP5 PUSH2 0xE04 JUMP JUMPDEST SWAP4 SWAP3 POP POP POP JUMP JUMPDEST PUSH1 0x0 PUSH1 0x20 DUP3 ADD SWAP1 POP DUP2 DUP2 SUB PUSH1 0x0 DUP4 ADD MSTORE PUSH2 0xF2E DUP2 PUSH2 0xE13 JUMP JUMPDEST SWAP1 POP SWAP2 SWAP1 POP JUMP JUMPDEST PUSH1 0x0 PUSH1 0x20 DUP3 ADD SWAP1 POP DUP2 DUP2 SUB PUSH1 0x0 DUP4 ADD MSTORE PUSH2 0xF4E DUP2 PUSH2 0xE36 JUMP JUMPDEST SWAP1 POP SWAP2 SWAP1 POP JUMP JUMPDEST PUSH1 0x0 PUSH1 0x20 DUP3 ADD SWAP1 POP DUP2 DUP2 SUB PUSH1 0x0 DUP4 ADD MSTORE PUSH2 0xF6E DUP2 PUSH2 0xE59 JUMP JUMPDEST SWAP1 POP SWAP2 SWAP1 POP JUMP JUMPDEST PUSH1 0x0 PUSH1 0x20 DUP3 ADD SWAP1 POP DUP2 DUP2 SUB PUSH1 0x0 DUP4 ADD MSTORE PUSH2 0xF8E DUP2 PUSH2 0xE7C JUMP JUMPDEST SWAP1 POP SWAP2 SWAP1 POP JUMP JUMPDEST PUSH1 0x0 PUSH1 0x20 DUP3 ADD SWAP1 POP DUP2 DUP2 SUB PUSH1 0x0 DUP4 ADD MSTORE PUSH2 0xFAE DUP2 PUSH2 0xE9F JUMP JUMPDEST SWAP1 POP SWAP2 SWAP1 POP JUMP JUMPDEST PUSH1 0x0 PUSH1 0x20 DUP3 ADD SWAP1 POP PUSH2 0xFCA PUSH1 0x0 DUP4 ADD DUP5 PUSH2 0xEC2 JUMP JUMPDEST SWAP3 SWAP2 POP POP JUMP JUMPDEST PUSH1 0x0 PUSH1 0x60 DUP3 ADD SWAP1 POP PUSH2 0xFE5 PUSH1 0x0 DUP4 ADD DUP7 PUSH2 0xEC2 JUMP JUMPDEST PUSH2 0xFF2 PUSH1 0x20 DUP4 ADD DUP6 PUSH2 0xEC2 JUMP JUMPDEST PUSH2 0xFFF PUSH1 0x40 DUP4 ADD DUP5 PUSH2 0xDF5 JUMP JUMPDEST SWAP5 SWAP4 POP POP POP POP JUMP JUMPDEST PUSH1 0x0 PUSH2 0x1011 PUSH2 0x1022 JUMP JUMPDEST SWAP1 POP PUSH2 0x101D DUP3 DUP3 PUSH2 0x1161 JUMP JUMPDEST SWAP2 SWAP1 POP JUMP JUMPDEST PUSH1 0x0 PUSH1 0x40 MLOAD SWAP1 POP SWAP1 JUMP JUMPDEST PUSH1 0x0 PUSH8 0xFFFFFFFFFFFFFFFF DUP3 GT ISZERO PUSH2 0x1047 JUMPI PUSH2 0x1046 PUSH2 0x1268 JUMP JUMPDEST JUMPDEST PUSH1 0x20 DUP3 MUL SWAP1 POP PUSH1 0x20 DUP2 ADD SWAP1 POP SWAP2 SWAP1 POP JUMP JUMPDEST PUSH1 0x0 PUSH8 0xFFFFFFFFFFFFFFFF DUP3 GT ISZERO PUSH2 0x1073 JUMPI PUSH2 0x1072 PUSH2 0x1268 JUMP JUMPDEST JUMPDEST PUSH1 0x20 DUP3 MUL SWAP1 POP PUSH1 0x20 DUP2 ADD SWAP1 POP SWAP2 SWAP1 POP JUMP JUMPDEST PUSH1 0x0 PUSH8 0xFFFFFFFFFFFFFFFF DUP3 GT ISZERO PUSH2 0x109F JUMPI PUSH2 0x109E PUSH2 0x1268 JUMP JUMPDEST JUMPDEST PUSH2 0x10A8 DUP3 PUSH2 0x12B0 JUMP JUMPDEST SWAP1 POP PUSH1 0x20 DUP2 ADD SWAP1 POP SWAP2 SWAP1 POP JUMP JUMPDEST PUSH1 0x0 DUP3 DUP3 MSTORE PUSH1 0x20 DUP3 ADD SWAP1 POP SWAP3 SWAP2 POP POP JUMP JUMPDEST PUSH1 0x0 PUSH2 0x10D1 DUP3 PUSH2 0x10E4 JUMP JUMPDEST SWAP1 POP SWAP2 SWAP1 POP JUMP JUMPDEST PUSH1 0x0 DUP2 ISZERO ISZERO SWAP1 POP SWAP2 SWAP1 POP JUMP JUMPDEST PUSH1 0x0 PUSH20 0xFFFFFFFFFFFFFFFFFFFFFFFFFFFFFFFFFFFFFFFF DUP3 AND SWAP1 POP SWAP2 SWAP1 POP JUMP JUMPDEST PUSH1 0x0 DUP2 SWAP1 POP SWAP2 SWAP1 POP JUMP JUMPDEST PUSH1 0x0 PUSH2 0x1119 DUP3 PUSH2 0x1104 JUMP JUMPDEST SWAP1 POP SWAP2 SWAP1 POP JUMP JUMPDEST DUP3 DUP2 DUP4 CALLDATACOPY PUSH1 0x0 DUP4 DUP4 ADD MSTORE POP POP POP JUMP JUMPDEST PUSH1 0x0 PUSH1 0x2 DUP3 DIV SWAP1 POP PUSH1 0x1 DUP3 AND DUP1 PUSH2 0x1147 JUMPI PUSH1 0x7F DUP3 AND SWAP2 POP JUMPDEST PUSH1 0x20 DUP3 LT DUP2 EQ ISZERO PUSH2 0x115B JUMPI PUSH2 0x115A PUSH2 0x120A JUMP JUMPDEST JUMPDEST POP SWAP2 SWAP1 POP JUMP JUMPDEST PUSH2 0x116A DUP3 PUSH2 0x12B0 JUMP JUMPDEST DUP2 ADD DUP2 DUP2 LT PUSH8 0xFFFFFFFFFFFFFFFF DUP3 GT OR ISZERO PUSH2 0x1189 JUMPI PUSH2 0x1188 PUSH2 0x1268 JUMP JUMPDEST JUMPDEST DUP1 PUSH1 0x40 MSTORE POP POP POP JUMP JUMPDEST PUSH1 0x0 PUSH2 0x119D DUP3 PUSH2 0x1104 JUMP JUMPDEST SWAP2 POP PUSH32 0xFFFFFFFFFFFFFFFFFFFFFFFFFFFFFFFFFFFFFFFFFFFFFFFFFFFFFFFFFFFFFFFF DUP3 EQ ISZERO PUSH2 0x11D0 JUMPI PUSH2 0x11CF PUSH2 0x11DB JUMP JUMPDEST JUMPDEST PUSH1 0x1 DUP3 ADD SWAP1 POP SWAP2 SWAP1 POP JUMP JUMPDEST PUSH32 0x4E487B7100000000000000000000000000000000000000000000000000000000 PUSH1 0x0 MSTORE PUSH1 0x11 PUSH1 0x4 MSTORE PUSH1 0x24 PUSH1 0x0 REVERT JUMPDEST PUSH32 0x4E487B7100000000000000000000000000000000000000000000000000000000 PUSH1 0x0 MSTORE PUSH1 0x22 PUSH1 0x4 MSTORE PUSH1 0x24 PUSH1 0x0 REVERT JUMPDEST PUSH32 0x4E487B7100000000000000000000000000000000000000000000000000000000 PUSH1 0x0 MSTORE PUSH1 0x32 PUSH1 0x4 MSTORE PUSH1 0x24 PUSH1 0x0 REVERT JUMPDEST PUSH32 0x4E487B7100000000000000000000000000000000000000000000000000000000 PUSH1 0x0 MSTORE PUSH1 0x41 PUSH1 0x4 MSTORE PUSH1 0x24 PUSH1 0x0 REVERT JUMPDEST PUSH1 0x0 DUP1 REVERT JUMPDEST PUSH1 0x0 DUP1 REVERT JUMPDEST PUSH1 0x0 DUP1 REVERT JUMPDEST PUSH1 0x0 DUP1 REVERT JUMPDEST PUSH1 0x0 DUP1 REVERT JUMPDEST PUSH1 0x0 PUSH1 0x1F NOT PUSH1 0x1F DUP4 ADD AND SWAP1 POP SWAP2 SWAP1 POP JUMP JUMPDEST PUSH32 0x4C656E67746820697320646966666572656E742E000000000000000000000000 PUSH1 0x0 DUP3 ADD MSTORE POP JUMP JUMPDEST PUSH32 0x54696D6520697320656E642E0000000000000000000000000000000000000000 PUSH1 0x0 DUP3 ADD MSTORE POP JUMP JUMPDEST PUSH32 0x4974206973206E6F742066726F6D206368616972706572736F6E2E0000000000 PUSH1 0x0 DUP3 ADD MSTORE POP JUMP JUMPDEST PUSH32 0x566F74657220616C726561647920766F7465642E000000000000000000000000 PUSH1 0x0 DUP3 ADD MSTORE POP JUMP JUMPDEST PUSH32 0x546F6B656E20646F65736E27742065786973742E000000000000000000000000 PUSH1 0x0 DUP3 ADD MSTORE POP JUMP JUMPDEST PUSH2 0x1397 DUP2 PUSH2 0x10C6 JUMP JUMPDEST DUP2 EQ PUSH2 0x13A2 JUMPI PUSH1 0x0 DUP1 REVERT JUMPDEST POP JUMP JUMPDEST PUSH2 0x13AE DUP2 PUSH2 0x1104 JUMP JUMPDEST DUP2 EQ PUSH2 0x13B9 JUMPI PUSH1 0x0 DUP1 REVERT JUMPDEST POP JUMP INVALID LOG2 PUSH5 0x6970667358 0x22 SLT KECCAK256 DUP3 PUSH6 0xAEE5AF055EE5 MSTORE8 NUMBER 0xC7 SGT DUP4 MSIZE 0x1E CODECOPY LOG1 0x23 0xD3 DUP16 BALANCE 0xB4 CALLER 0xAB ISZERO SWAP10 0xE2 ADDMOD 0xC0 LOG2 0xE6 ISZERO PUSH5 0x736F6C6343 STOP ADDMOD SMOD STOP CALLER PUSH1 0x80 PUSH1 0x40 MSTORE CALLVALUE DUP1 ISZERO PUSH3 0x11 JUMPI PUSH1 0x0 DUP1 REVERT JUMPDEST POP PUSH1 0x40 MLOAD DUP1 PUSH1 0x40 ADD PUSH1 0x40 MSTORE DUP1 PUSH1 0xD DUP2 MSTORE PUSH1 0x20 ADD PUSH32 0x452D566F74696E6720636F696E00000000000000000000000000000000000000 DUP2 MSTORE POP PUSH1 0x1 SWAP1 DUP1 MLOAD SWAP1 PUSH1 0x20 ADD SWAP1 PUSH3 0x5F SWAP3 SWAP2 SWAP1 PUSH3 0xD0 JUMP JUMPDEST POP PUSH1 0x0 PUSH1 0x2 PUSH1 0x0 PUSH2 0x100 EXP DUP2 SLOAD DUP2 PUSH1 0xFF MUL NOT AND SWAP1 DUP4 PUSH1 0xFF AND MUL OR SWAP1 SSTORE POP PUSH1 0x40 MLOAD DUP1 PUSH1 0x40 ADD PUSH1 0x40 MSTORE DUP1 PUSH1 0x3 DUP2 MSTORE PUSH1 0x20 ADD PUSH32 0x4556430000000000000000000000000000000000000000000000000000000000 DUP2 MSTORE POP PUSH1 0x3 SWAP1 DUP1 MLOAD SWAP1 PUSH1 0x20 ADD SWAP1 PUSH3 0xC9 SWAP3 SWAP2 SWAP1 PUSH3 0xD0 JUMP JUMPDEST POP PUSH3 0x1E5 JUMP JUMPDEST DUP3 DUP1 SLOAD PUSH3 0xDE SWAP1 PUSH3 0x180 JUMP JUMPDEST SWAP1 PUSH1 0x0 MSTORE PUSH1 0x20 PUSH1 0x0 KECCAK256 SWAP1 PUSH1 0x1F ADD PUSH1 0x20 SWAP1 DIV DUP2 ADD SWAP3 DUP3 PUSH3 0x102 JUMPI PUSH1 0x0 DUP6 SSTORE PUSH3 0x14E JUMP JUMPDEST DUP3 PUSH1 0x1F LT PUSH3 0x11D JUMPI DUP1 MLOAD PUSH1 0xFF NOT AND DUP4 DUP1 ADD OR DUP6 SSTORE PUSH3 0x14E JUMP JUMPDEST DUP3 DUP1 ADD PUSH1 0x1 ADD DUP6 SSTORE DUP3 ISZERO PUSH3 0x14E JUMPI SWAP2 DUP3 ADD JUMPDEST DUP3 DUP2 GT ISZERO PUSH3 0x14D JUMPI DUP3 MLOAD DUP3 SSTORE SWAP2 PUSH1 0x20 ADD SWAP2 SWAP1 PUSH1 0x1 ADD SWAP1 PUSH3 0x130 JUMP JUMPDEST JUMPDEST POP SWAP1 POP PUSH3 0x15D SWAP2 SWAP1 PUSH3 0x161 JUMP JUMPDEST POP SWAP1 JUMP JUMPDEST JUMPDEST DUP1 DUP3 GT ISZERO PUSH3 0x17C JUMPI PUSH1 0x0 DUP2 PUSH1 0x0 SWAP1 SSTORE POP PUSH1 0x1 ADD PUSH3 0x162 JUMP JUMPDEST POP SWAP1 JUMP JUMPDEST PUSH1 0x0 PUSH1 0x2 DUP3 DIV SWAP1 POP PUSH1 0x1 DUP3 AND DUP1 PUSH3 0x199 JUMPI PUSH1 0x7F DUP3 AND SWAP2 POP JUMPDEST PUSH1 0x20 DUP3 LT DUP2 EQ ISZERO PUSH3 0x1B0 JUMPI PUSH3 0x1AF PUSH3 0x1B6 JUMP JUMPDEST JUMPDEST POP SWAP2 SWAP1 POP JUMP JUMPDEST PUSH32 0x4E487B7100000000000000000000000000000000000000000000000000000000 PUSH1 0x0 MSTORE PUSH1 0x22 PUSH1 0x4 MSTORE PUSH1 0x24 PUSH1 0x0 REVERT JUMPDEST PUSH2 0x1404 DUP1 PUSH3 0x1F5 PUSH1 0x0 CODECOPY PUSH1 0x0 RETURN INVALID PUSH1 0x80 PUSH1 0x40 MSTORE CALLVALUE DUP1 ISZERO PUSH2 0x10 JUMPI PUSH1 0x0 DUP1 REVERT JUMPDEST POP PUSH1 0x4 CALLDATASIZE LT PUSH2 0xB4 JUMPI PUSH1 0x0 CALLDATALOAD PUSH1 0xE0 SHR DUP1 PUSH4 0x54FD4D50 GT PUSH2 0x71 JUMPI DUP1 PUSH4 0x54FD4D50 EQ PUSH2 0x167 JUMPI DUP1 PUSH4 0x70A08231 EQ PUSH2 0x185 JUMPI DUP1 PUSH4 0x95D89B41 EQ PUSH2 0x1B5 JUMPI DUP1 PUSH4 0xA9059CBB EQ PUSH2 0x1D3 JUMPI DUP1 PUSH4 0xC4E41B22 EQ PUSH2 0x1EF JUMPI DUP1 PUSH4 0xDD62ED3E EQ PUSH2 0x20D JUMPI PUSH2 0xB4 JUMP JUMPDEST DUP1 PUSH4 0x6FDDE03 EQ PUSH2 0xB9 JUMPI DUP1 PUSH4 0x95EA7B3 EQ PUSH2 0xD7 JUMPI DUP1 PUSH4 0x18160DDD EQ PUSH2 0xF3 JUMPI DUP1 PUSH4 0x23B872DD EQ PUSH2 0x111 JUMPI DUP1 PUSH4 0x313CE567 EQ PUSH2 0x12D JUMPI DUP1 PUSH4 0x40C10F19 EQ PUSH2 0x14B JUMPI JUMPDEST PUSH1 0x0 DUP1 REVERT JUMPDEST PUSH2 0xC1 PUSH2 0x23D JUMP JUMPDEST PUSH1 0x40 MLOAD PUSH2 0xCE SWAP2 SWAP1 PUSH2 0x102D JUMP JUMPDEST PUSH1 0x40 MLOAD DUP1 SWAP2 SUB SWAP1 RETURN JUMPDEST PUSH2 0xF1 PUSH1 0x4 DUP1 CALLDATASIZE SUB DUP2 ADD SWAP1 PUSH2 0xEC SWAP2 SWAP1 PUSH2 0xF0A JUMP JUMPDEST PUSH2 0x2CB JUMP JUMPDEST STOP JUMPDEST PUSH2 0xFB PUSH2 0x3B5 JUMP JUMPDEST PUSH1 0x40 MLOAD PUSH2 0x108 SWAP2 SWAP1 PUSH2 0x10CF JUMP JUMPDEST PUSH1 0x40 MLOAD DUP1 SWAP2 SUB SWAP1 RETURN JUMPDEST PUSH2 0x12B PUSH1 0x4 DUP1 CALLDATASIZE SUB DUP2 ADD SWAP1 PUSH2 0x126 SWAP2 SWAP1 PUSH2 0xEB7 JUMP JUMPDEST PUSH2 0x3BB JUMP JUMPDEST STOP JUMPDEST PUSH2 0x135 PUSH2 0x7E2 JUMP JUMPDEST PUSH1 0x40 MLOAD PUSH2 0x142 SWAP2 SWAP1 PUSH2 0x10EA JUMP JUMPDEST PUSH1 0x40 MLOAD DUP1 SWAP2 SUB SWAP1 RETURN JUMPDEST PUSH2 0x165 PUSH1 0x4 DUP1 CALLDATASIZE SUB DUP2 ADD SWAP1 PUSH2 0x160 SWAP2 SWAP1 PUSH2 0xF0A JUMP JUMPDEST PUSH2 0x7F5 JUMP JUMPDEST STOP JUMPDEST PUSH2 0x16F PUSH2 0x955 JUMP JUMPDEST PUSH1 0x40 MLOAD PUSH2 0x17C SWAP2 SWAP1 PUSH2 0x102D JUMP JUMPDEST PUSH1 0x40 MLOAD DUP1 SWAP2 SUB SWAP1 RETURN JUMPDEST PUSH2 0x19F PUSH1 0x4 DUP1 CALLDATASIZE SUB DUP2 ADD SWAP1 PUSH2 0x19A SWAP2 SWAP1 PUSH2 0xE4A JUMP JUMPDEST PUSH2 0x9E3 JUMP JUMPDEST PUSH1 0x40 MLOAD PUSH2 0x1AC SWAP2 SWAP1 PUSH2 0x10CF JUMP JUMPDEST PUSH1 0x40 MLOAD DUP1 SWAP2 SUB SWAP1 RETURN JUMPDEST PUSH2 0x1BD PUSH2 0xA2C JUMP JUMPDEST PUSH1 0x40 MLOAD PUSH2 0x1CA SWAP2 SWAP1 PUSH2 0x102D JUMP JUMPDEST PUSH1 0x40 MLOAD DUP1 SWAP2 SUB SWAP1 RETURN JUMPDEST PUSH2 0x1ED PUSH1 0x4 DUP1 CALLDATASIZE SUB DUP2 ADD SWAP1 PUSH2 0x1E8 SWAP2 SWAP1 PUSH2 0xF0A JUMP JUMPDEST PUSH2 0xABA JUMP JUMPDEST STOP JUMPDEST PUSH2 0x1F7 PUSH2 0xD35 JUMP JUMPDEST PUSH1 0x40 MLOAD PUSH2 0x204 SWAP2 SWAP1 PUSH2 0x10CF JUMP JUMPDEST PUSH1 0x40 MLOAD DUP1 SWAP2 SUB SWAP1 RETURN JUMPDEST PUSH2 0x227 PUSH1 0x4 DUP1 CALLDATASIZE SUB DUP2 ADD SWAP1 PUSH2 0x222 SWAP2 SWAP1 PUSH2 0xE77 JUMP JUMPDEST PUSH2 0xD3E JUMP JUMPDEST PUSH1 0x40 MLOAD PUSH2 0x234 SWAP2 SWAP1 PUSH2 0x10CF JUMP JUMPDEST PUSH1 0x40 MLOAD DUP1 SWAP2 SUB SWAP1 RETURN JUMPDEST PUSH1 0x1 DUP1 SLOAD PUSH2 0x24A SWAP1 PUSH2 0x1227 JUMP JUMPDEST DUP1 PUSH1 0x1F ADD PUSH1 0x20 DUP1 SWAP2 DIV MUL PUSH1 0x20 ADD PUSH1 0x40 MLOAD SWAP1 DUP2 ADD PUSH1 0x40 MSTORE DUP1 SWAP3 SWAP2 SWAP1 DUP2 DUP2 MSTORE PUSH1 0x20 ADD DUP3 DUP1 SLOAD PUSH2 0x276 SWAP1 PUSH2 0x1227 JUMP JUMPDEST DUP1 ISZERO PUSH2 0x2C3 JUMPI DUP1 PUSH1 0x1F LT PUSH2 0x298 JUMPI PUSH2 0x100 DUP1 DUP4 SLOAD DIV MUL DUP4 MSTORE SWAP2 PUSH1 0x20 ADD SWAP2 PUSH2 0x2C3 JUMP JUMPDEST DUP3 ADD SWAP2 SWAP1 PUSH1 0x0 MSTORE PUSH1 0x20 PUSH1 0x0 KECCAK256 SWAP1 JUMPDEST DUP2 SLOAD DUP2 MSTORE SWAP1 PUSH1 0x1 ADD SWAP1 PUSH1 0x20 ADD DUP1 DUP4 GT PUSH2 0x2A6 JUMPI DUP3 SWAP1 SUB PUSH1 0x1F AND DUP3 ADD SWAP2 JUMPDEST POP POP POP POP POP DUP2 JUMP JUMPDEST DUP1 PUSH1 0x6 PUSH1 0x0 CALLER PUSH20 0xFFFFFFFFFFFFFFFFFFFFFFFFFFFFFFFFFFFFFFFF AND PUSH20 0xFFFFFFFFFFFFFFFFFFFFFFFFFFFFFFFFFFFFFFFF AND DUP2 MSTORE PUSH1 0x20 ADD SWAP1 DUP2 MSTORE PUSH1 0x20 ADD PUSH1 0x0 KECCAK256 PUSH1 0x0 DUP5 PUSH20 0xFFFFFFFFFFFFFFFFFFFFFFFFFFFFFFFFFFFFFFFF AND PUSH20 0xFFFFFFFFFFFFFFFFFFFFFFFFFFFFFFFFFFFFFFFF AND DUP2 MSTORE PUSH1 0x20 ADD SWAP1 DUP2 MSTORE PUSH1 0x20 ADD PUSH1 0x0 KECCAK256 DUP2 SWAP1 SSTORE POP DUP2 PUSH20 0xFFFFFFFFFFFFFFFFFFFFFFFFFFFFFFFFFFFFFFFF AND CALLER PUSH20 0xFFFFFFFFFFFFFFFFFFFFFFFFFFFFFFFFFFFFFFFF AND PUSH32 0x8C5BE1E5EBEC7D5BD14F71427D1E84F3DD0314C0F7B2291E5B200AC8C7C3B925 DUP4 PUSH1 0x40 MLOAD PUSH2 0x3A9 SWAP2 SWAP1 PUSH2 0x10CF JUMP JUMPDEST PUSH1 0x40 MLOAD DUP1 SWAP2 SUB SWAP1 LOG3 POP POP JUMP JUMPDEST PUSH1 0x0 SLOAD DUP2 JUMP JUMPDEST PUSH1 0x0 DUP2 GT PUSH2 0x3FE JUMPI PUSH1 0x40 MLOAD PUSH32 0x8C379A000000000000000000000000000000000000000000000000000000000 DUP2 MSTORE PUSH1 0x4 ADD PUSH2 0x3F5 SWAP1 PUSH2 0x106F JUMP JUMPDEST PUSH1 0x40 MLOAD DUP1 SWAP2 SUB SWAP1 REVERT JUMPDEST DUP1 PUSH1 0x5 PUSH1 0x0 DUP6 PUSH20 0xFFFFFFFFFFFFFFFFFFFFFFFFFFFFFFFFFFFFFFFF AND PUSH20 0xFFFFFFFFFFFFFFFFFFFFFFFFFFFFFFFFFFFFFFFF AND DUP2 MSTORE PUSH1 0x20 ADD SWAP1 DUP2 MSTORE PUSH1 0x20 ADD PUSH1 0x0 KECCAK256 SLOAD LT ISZERO PUSH2 0x480 JUMPI PUSH1 0x40 MLOAD PUSH32 0x8C379A000000000000000000000000000000000000000000000000000000000 DUP2 MSTORE PUSH1 0x4 ADD PUSH2 0x477 SWAP1 PUSH2 0x104F JUMP JUMPDEST PUSH1 0x40 MLOAD DUP1 SWAP2 SUB SWAP1 REVERT JUMPDEST DUP1 PUSH1 0x6 PUSH1 0x0 DUP6 PUSH20 0xFFFFFFFFFFFFFFFFFFFFFFFFFFFFFFFFFFFFFFFF AND PUSH20 0xFFFFFFFFFFFFFFFFFFFFFFFFFFFFFFFFFFFFFFFF AND DUP2 MSTORE PUSH1 0x20 ADD SWAP1 DUP2 MSTORE PUSH1 0x20 ADD PUSH1 0x0 KECCAK256 PUSH1 0x0 CALLER PUSH20 0xFFFFFFFFFFFFFFFFFFFFFFFFFFFFFFFFFFFFFFFF AND PUSH20 0xFFFFFFFFFFFFFFFFFFFFFFFFFFFFFFFFFFFFFFFF AND DUP2 MSTORE PUSH1 0x20 ADD SWAP1 DUP2 MSTORE PUSH1 0x20 ADD PUSH1 0x0 KECCAK256 SLOAD LT ISZERO PUSH2 0x53F JUMPI PUSH1 0x40 MLOAD PUSH32 0x8C379A000000000000000000000000000000000000000000000000000000000 DUP2 MSTORE PUSH1 0x4 ADD PUSH2 0x536 SWAP1 PUSH2 0x108F JUMP JUMPDEST PUSH1 0x40 MLOAD DUP1 SWAP2 SUB SWAP1 REVERT JUMPDEST PUSH2 0x591 DUP2 PUSH1 0x5 PUSH1 0x0 DUP6 PUSH20 0xFFFFFFFFFFFFFFFFFFFFFFFFFFFFFFFFFFFFFFFF AND PUSH20 0xFFFFFFFFFFFFFFFFFFFFFFFFFFFFFFFFFFFFFFFF AND DUP2 MSTORE PUSH1 0x20 ADD SWAP1 DUP2 MSTORE PUSH1 0x20 ADD PUSH1 0x0 KECCAK256 SLOAD PUSH2 0xDC5 SWAP1 SWAP2 SWAP1 PUSH4 0xFFFFFFFF AND JUMP JUMPDEST PUSH1 0x5 PUSH1 0x0 DUP5 PUSH20 0xFFFFFFFFFFFFFFFFFFFFFFFFFFFFFFFFFFFFFFFF AND PUSH20 0xFFFFFFFFFFFFFFFFFFFFFFFFFFFFFFFFFFFFFFFF AND DUP2 MSTORE PUSH1 0x20 ADD SWAP1 DUP2 MSTORE PUSH1 0x20 ADD PUSH1 0x0 KECCAK256 DUP2 SWAP1 SSTORE POP PUSH2 0x626 DUP2 PUSH1 0x5 PUSH1 0x0 DUP7 PUSH20 0xFFFFFFFFFFFFFFFFFFFFFFFFFFFFFFFFFFFFFFFF AND PUSH20 0xFFFFFFFFFFFFFFFFFFFFFFFFFFFFFFFFFFFFFFFF AND DUP2 MSTORE PUSH1 0x20 ADD SWAP1 DUP2 MSTORE PUSH1 0x20 ADD PUSH1 0x0 KECCAK256 SLOAD PUSH2 0xDED SWAP1 SWAP2 SWAP1 PUSH4 0xFFFFFFFF AND JUMP JUMPDEST PUSH1 0x5 PUSH1 0x0 DUP6 PUSH20 0xFFFFFFFFFFFFFFFFFFFFFFFFFFFFFFFFFFFFFFFF AND PUSH20 0xFFFFFFFFFFFFFFFFFFFFFFFFFFFFFFFFFFFFFFFF AND DUP2 MSTORE PUSH1 0x20 ADD SWAP1 DUP2 MSTORE PUSH1 0x20 ADD PUSH1 0x0 KECCAK256 DUP2 SWAP1 SSTORE POP PUSH2 0x6F8 DUP2 PUSH1 0x6 PUSH1 0x0 DUP7 PUSH20 0xFFFFFFFFFFFFFFFFFFFFFFFFFFFFFFFFFFFFFFFF AND PUSH20 0xFFFFFFFFFFFFFFFFFFFFFFFFFFFFFFFFFFFFFFFF AND DUP2 MSTORE PUSH1 0x20 ADD SWAP1 DUP2 MSTORE PUSH1 0x20 ADD PUSH1 0x0 KECCAK256 PUSH1 0x0 CALLER PUSH20 0xFFFFFFFFFFFFFFFFFFFFFFFFFFFFFFFFFFFFFFFF AND PUSH20 0xFFFFFFFFFFFFFFFFFFFFFFFFFFFFFFFFFFFFFFFF AND DUP2 MSTORE PUSH1 0x20 ADD SWAP1 DUP2 MSTORE PUSH1 0x20 ADD PUSH1 0x0 KECCAK256 SLOAD PUSH2 0xDED SWAP1 SWAP2 SWAP1 PUSH4 0xFFFFFFFF AND JUMP JUMPDEST PUSH1 0x6 PUSH1 0x0 DUP6 PUSH20 0xFFFFFFFFFFFFFFFFFFFFFFFFFFFFFFFFFFFFFFFF AND PUSH20 0xFFFFFFFFFFFFFFFFFFFFFFFFFFFFFFFFFFFFFFFF AND DUP2 MSTORE PUSH1 0x20 ADD SWAP1 DUP2 MSTORE PUSH1 0x20 ADD PUSH1 0x0 KECCAK256 PUSH1 0x0 CALLER PUSH20 0xFFFFFFFFFFFFFFFFFFFFFFFFFFFFFFFFFFFFFFFF AND PUSH20 0xFFFFFFFFFFFFFFFFFFFFFFFFFFFFFFFFFFFFFFFF AND DUP2 MSTORE PUSH1 0x20 ADD SWAP1 DUP2 MSTORE PUSH1 0x20 ADD PUSH1 0x0 KECCAK256 DUP2 SWAP1 SSTORE POP DUP2 PUSH20 0xFFFFFFFFFFFFFFFFFFFFFFFFFFFFFFFFFFFFFFFF AND DUP4 PUSH20 0xFFFFFFFFFFFFFFFFFFFFFFFFFFFFFFFFFFFFFFFF AND PUSH32 0xDDF252AD1BE2C89B69C2B068FC378DAA952BA7F163C4A11628F55A4DF523B3EF DUP4 PUSH1 0x40 MLOAD PUSH2 0x7D5 SWAP2 SWAP1 PUSH2 0x10CF JUMP JUMPDEST PUSH1 0x40 MLOAD DUP1 SWAP2 SUB SWAP1 LOG3 POP POP POP JUMP JUMPDEST PUSH1 0x2 PUSH1 0x0 SWAP1 SLOAD SWAP1 PUSH2 0x100 EXP SWAP1 DIV PUSH1 0xFF AND DUP2 JUMP JUMPDEST PUSH1 0x0 PUSH20 0xFFFFFFFFFFFFFFFFFFFFFFFFFFFFFFFFFFFFFFFF AND DUP3 PUSH20 0xFFFFFFFFFFFFFFFFFFFFFFFFFFFFFFFFFFFFFFFF AND EQ ISZERO PUSH2 0x865 JUMPI PUSH1 0x40 MLOAD PUSH32 0x8C379A000000000000000000000000000000000000000000000000000000000 DUP2 MSTORE PUSH1 0x4 ADD PUSH2 0x85C SWAP1 PUSH2 0x10AF JUMP JUMPDEST PUSH1 0x40 MLOAD DUP1 SWAP2 SUB SWAP1 REVERT JUMPDEST PUSH2 0x871 PUSH1 0x0 DUP4 DUP4 PUSH2 0xE16 JUMP JUMPDEST DUP1 PUSH1 0x0 DUP1 DUP3 DUP3 SLOAD PUSH2 0x882 SWAP2 SWAP1 PUSH2 0x1121 JUMP JUMPDEST SWAP3 POP POP DUP2 SWAP1 SSTORE POP DUP1 PUSH1 0x5 PUSH1 0x0 DUP5 PUSH20 0xFFFFFFFFFFFFFFFFFFFFFFFFFFFFFFFFFFFFFFFF AND PUSH20 0xFFFFFFFFFFFFFFFFFFFFFFFFFFFFFFFFFFFFFFFF AND DUP2 MSTORE PUSH1 0x20 ADD SWAP1 DUP2 MSTORE PUSH1 0x20 ADD PUSH1 0x0 KECCAK256 PUSH1 0x0 DUP3 DUP3 SLOAD PUSH2 0x8D8 SWAP2 SWAP1 PUSH2 0x1121 JUMP JUMPDEST SWAP3 POP POP DUP2 SWAP1 SSTORE POP DUP2 PUSH20 0xFFFFFFFFFFFFFFFFFFFFFFFFFFFFFFFFFFFFFFFF AND PUSH1 0x0 PUSH20 0xFFFFFFFFFFFFFFFFFFFFFFFFFFFFFFFFFFFFFFFF AND PUSH32 0xDDF252AD1BE2C89B69C2B068FC378DAA952BA7F163C4A11628F55A4DF523B3EF DUP4 PUSH1 0x40 MLOAD PUSH2 0x93D SWAP2 SWAP1 PUSH2 0x10CF JUMP JUMPDEST PUSH1 0x40 MLOAD DUP1 SWAP2 SUB SWAP1 LOG3 PUSH2 0x951 PUSH1 0x0 DUP4 DUP4 PUSH2 0xE1B JUMP JUMPDEST POP POP JUMP JUMPDEST PUSH1 0x4 DUP1 SLOAD PUSH2 0x962 SWAP1 PUSH2 0x1227 JUMP JUMPDEST DUP1 PUSH1 0x1F ADD PUSH1 0x20 DUP1 SWAP2 DIV MUL PUSH1 0x20 ADD PUSH1 0x40 MLOAD SWAP1 DUP2 ADD PUSH1 0x40 MSTORE DUP1 SWAP3 SWAP2 SWAP1 DUP2 DUP2 MSTORE PUSH1 0x20 ADD DUP3 DUP1 SLOAD PUSH2 0x98E SWAP1 PUSH2 0x1227 JUMP JUMPDEST DUP1 ISZERO PUSH2 0x9DB JUMPI DUP1 PUSH1 0x1F LT PUSH2 0x9B0 JUMPI PUSH2 0x100 DUP1 DUP4 SLOAD DIV MUL DUP4 MSTORE SWAP2 PUSH1 0x20 ADD SWAP2 PUSH2 0x9DB JUMP JUMPDEST DUP3 ADD SWAP2 SWAP1 PUSH1 0x0 MSTORE PUSH1 0x20 PUSH1 0x0 KECCAK256 SWAP1 JUMPDEST DUP2 SLOAD DUP2 MSTORE SWAP1 PUSH1 0x1 ADD SWAP1 PUSH1 0x20 ADD DUP1 DUP4 GT PUSH2 0x9BE JUMPI DUP3 SWAP1 SUB PUSH1 0x1F AND DUP3 ADD SWAP2 JUMPDEST POP POP POP POP POP DUP2 JUMP JUMPDEST PUSH1 0x0 PUSH1 0x5 PUSH1 0x0 DUP4 PUSH20 0xFFFFFFFFFFFFFFFFFFFFFFFFFFFFFFFFFFFFFFFF AND PUSH20 0xFFFFFFFFFFFFFFFFFFFFFFFFFFFFFFFFFFFFFFFF AND DUP2 MSTORE PUSH1 0x20 ADD SWAP1 DUP2 MSTORE PUSH1 0x20 ADD PUSH1 0x0 KECCAK256 SLOAD SWAP1 POP SWAP2 SWAP1 POP JUMP JUMPDEST PUSH1 0x3 DUP1 SLOAD PUSH2 0xA39 SWAP1 PUSH2 0x1227 JUMP JUMPDEST DUP1 PUSH1 0x1F ADD PUSH1 0x20 DUP1 SWAP2 DIV MUL PUSH1 0x20 ADD PUSH1 0x40 MLOAD SWAP1 DUP2 ADD PUSH1 0x40 MSTORE DUP1 SWAP3 SWAP2 SWAP1 DUP2 DUP2 MSTORE PUSH1 0x20 ADD DUP3 DUP1 SLOAD PUSH2 0xA65 SWAP1 PUSH2 0x1227 JUMP JUMPDEST DUP1 ISZERO PUSH2 0xAB2 JUMPI DUP1 PUSH1 0x1F LT PUSH2 0xA87 JUMPI PUSH2 0x100 DUP1 DUP4 SLOAD DIV MUL DUP4 MSTORE SWAP2 PUSH1 0x20 ADD SWAP2 PUSH2 0xAB2 JUMP JUMPDEST DUP3 ADD SWAP2 SWAP1 PUSH1 0x0 MSTORE PUSH1 0x20 PUSH1 0x0 KECCAK256 SWAP1 JUMPDEST DUP2 SLOAD DUP2 MSTORE SWAP1 PUSH1 0x1 ADD SWAP1 PUSH1 0x20 ADD DUP1 DUP4 GT PUSH2 0xA95 JUMPI DUP3 SWAP1 SUB PUSH1 0x1F AND DUP3 ADD SWAP2 JUMPDEST POP POP POP POP POP DUP2 JUMP JUMPDEST PUSH1 0x40 PUSH1 0x4 DUP2 PUSH2 0xAC9 SWAP2 SWAP1 PUSH2 0x1121 JUMP JUMPDEST PUSH1 0x0 CALLDATASIZE SWAP1 POP EQ PUSH2 0xADC JUMPI PUSH2 0xADB PUSH2 0x1259 JUMP JUMPDEST JUMPDEST PUSH1 0x0 DUP3 GT PUSH2 0xB1F JUMPI PUSH1 0x40 MLOAD PUSH32 0x8C379A000000000000000000000000000000000000000000000000000000000 DUP2 MSTORE PUSH1 0x4 ADD PUSH2 0xB16 SWAP1 PUSH2 0x106F JUMP JUMPDEST PUSH1 0x40 MLOAD DUP1 SWAP2 SUB SWAP1 REVERT JUMPDEST DUP2 PUSH1 0x5 PUSH1 0x0 CALLER PUSH20 0xFFFFFFFFFFFFFFFFFFFFFFFFFFFFFFFFFFFFFFFF AND PUSH20 0xFFFFFFFFFFFFFFFFFFFFFFFFFFFFFFFFFFFFFFFF AND DUP2 MSTORE PUSH1 0x20 ADD SWAP1 DUP2 MSTORE PUSH1 0x20 ADD PUSH1 0x0 KECCAK256 SLOAD LT ISZERO PUSH2 0xBA1 JUMPI PUSH1 0x40 MLOAD PUSH32 0x8C379A000000000000000000000000000000000000000000000000000000000 DUP2 MSTORE PUSH1 0x4 ADD PUSH2 0xB98 SWAP1 PUSH2 0x104F JUMP JUMPDEST PUSH1 0x40 MLOAD DUP1 SWAP2 SUB SWAP1 REVERT JUMPDEST PUSH2 0xBF3 DUP3 PUSH1 0x5 PUSH1 0x0 CALLER PUSH20 0xFFFFFFFFFFFFFFFFFFFFFFFFFFFFFFFFFFFFFFFF AND PUSH20 0xFFFFFFFFFFFFFFFFFFFFFFFFFFFFFFFFFFFFFFFF AND DUP2 MSTORE PUSH1 0x20 ADD SWAP1 DUP2 MSTORE PUSH1 0x20 ADD PUSH1 0x0 KECCAK256 SLOAD PUSH2 0xDED SWAP1 SWAP2 SWAP1 PUSH4 0xFFFFFFFF AND JUMP JUMPDEST PUSH1 0x5 PUSH1 0x0 CALLER PUSH20 0xFFFFFFFFFFFFFFFFFFFFFFFFFFFFFFFFFFFFFFFF AND PUSH20 0xFFFFFFFFFFFFFFFFFFFFFFFFFFFFFFFFFFFFFFFF AND DUP2 MSTORE PUSH1 0x20 ADD SWAP1 DUP2 MSTORE PUSH1 0x20 ADD PUSH1 0x0 KECCAK256 DUP2 SWAP1 SSTORE POP PUSH2 0xC88 DUP3 PUSH1 0x5 PUSH1 0x0 DUP7 PUSH20 0xFFFFFFFFFFFFFFFFFFFFFFFFFFFFFFFFFFFFFFFF AND PUSH20 0xFFFFFFFFFFFFFFFFFFFFFFFFFFFFFFFFFFFFFFFF AND DUP2 MSTORE PUSH1 0x20 ADD SWAP1 DUP2 MSTORE PUSH1 0x20 ADD PUSH1 0x0 KECCAK256 SLOAD PUSH2 0xDC5 SWAP1 SWAP2 SWAP1 PUSH4 0xFFFFFFFF AND JUMP JUMPDEST PUSH1 0x5 PUSH1 0x0 DUP6 PUSH20 0xFFFFFFFFFFFFFFFFFFFFFFFFFFFFFFFFFFFFFFFF AND PUSH20 0xFFFFFFFFFFFFFFFFFFFFFFFFFFFFFFFFFFFFFFFF AND DUP2 MSTORE PUSH1 0x20 ADD SWAP1 DUP2 MSTORE PUSH1 0x20 ADD PUSH1 0x0 KECCAK256 DUP2 SWAP1 SSTORE POP DUP3 PUSH20 0xFFFFFFFFFFFFFFFFFFFFFFFFFFFFFFFFFFFFFFFF AND CALLER PUSH20 0xFFFFFFFFFFFFFFFFFFFFFFFFFFFFFFFFFFFFFFFF AND PUSH32 0xDDF252AD1BE2C89B69C2B068FC378DAA952BA7F163C4A11628F55A4DF523B3EF DUP5 PUSH1 0x40 MLOAD PUSH2 0xD28 SWAP2 SWAP1 PUSH2 0x10CF JUMP JUMPDEST PUSH1 0x40 MLOAD DUP1 SWAP2 SUB SWAP1 LOG3 POP POP POP JUMP JUMPDEST PUSH1 0x0 DUP1 SLOAD SWAP1 POP SWAP1 JUMP JUMPDEST PUSH1 0x0 PUSH1 0x6 PUSH1 0x0 DUP4 PUSH20 0xFFFFFFFFFFFFFFFFFFFFFFFFFFFFFFFFFFFFFFFF AND PUSH20 0xFFFFFFFFFFFFFFFFFFFFFFFFFFFFFFFFFFFFFFFF AND DUP2 MSTORE PUSH1 0x20 ADD SWAP1 DUP2 MSTORE PUSH1 0x20 ADD PUSH1 0x0 KECCAK256 PUSH1 0x0 DUP5 PUSH20 0xFFFFFFFFFFFFFFFFFFFFFFFFFFFFFFFFFFFFFFFF AND PUSH20 0xFFFFFFFFFFFFFFFFFFFFFFFFFFFFFFFFFFFFFFFF AND DUP2 MSTORE PUSH1 0x20 ADD SWAP1 DUP2 MSTORE PUSH1 0x20 ADD PUSH1 0x0 KECCAK256 SLOAD SWAP1 POP SWAP3 SWAP2 POP POP JUMP JUMPDEST PUSH1 0x0 DUP1 DUP3 DUP5 PUSH2 0xDD4 SWAP2 SWAP1 PUSH2 0x1121 JUMP JUMPDEST SWAP1 POP DUP4 DUP2 LT ISZERO PUSH2 0xDE3 JUMPI PUSH1 0x0 DUP1 REVERT JUMPDEST DUP1 SWAP2 POP POP SWAP3 SWAP2 POP POP JUMP JUMPDEST PUSH1 0x0 DUP3 DUP3 GT ISZERO PUSH2 0xDFC JUMPI PUSH1 0x0 DUP1 REVERT JUMPDEST PUSH1 0x0 DUP3 DUP5 PUSH2 0xE0A SWAP2 SWAP1 PUSH2 0x1177 JUMP JUMPDEST SWAP1 POP DUP1 SWAP2 POP POP SWAP3 SWAP2 POP POP JUMP JUMPDEST POP POP POP JUMP JUMPDEST POP POP POP JUMP JUMPDEST PUSH1 0x0 DUP2 CALLDATALOAD SWAP1 POP PUSH2 0xE2F DUP2 PUSH2 0x13A0 JUMP JUMPDEST SWAP3 SWAP2 POP POP JUMP JUMPDEST PUSH1 0x0 DUP2 CALLDATALOAD SWAP1 POP PUSH2 0xE44 DUP2 PUSH2 0x13B7 JUMP JUMPDEST SWAP3 SWAP2 POP POP JUMP JUMPDEST PUSH1 0x0 PUSH1 0x20 DUP3 DUP5 SUB SLT ISZERO PUSH2 0xE60 JUMPI PUSH2 0xE5F PUSH2 0x12E6 JUMP JUMPDEST JUMPDEST PUSH1 0x0 PUSH2 0xE6E DUP5 DUP3 DUP6 ADD PUSH2 0xE20 JUMP JUMPDEST SWAP2 POP POP SWAP3 SWAP2 POP POP JUMP JUMPDEST PUSH1 0x0 DUP1 PUSH1 0x40 DUP4 DUP6 SUB SLT ISZERO PUSH2 0xE8E JUMPI PUSH2 0xE8D PUSH2 0x12E6 JUMP JUMPDEST JUMPDEST PUSH1 0x0 PUSH2 0xE9C DUP6 DUP3 DUP7 ADD PUSH2 0xE20 JUMP JUMPDEST SWAP3 POP POP PUSH1 0x20 PUSH2 0xEAD DUP6 DUP3 DUP7 ADD PUSH2 0xE20 JUMP JUMPDEST SWAP2 POP POP SWAP3 POP SWAP3 SWAP1 POP JUMP JUMPDEST PUSH1 0x0 DUP1 PUSH1 0x0 PUSH1 0x60 DUP5 DUP7 SUB SLT ISZERO PUSH2 0xED0 JUMPI PUSH2 0xECF PUSH2 0x12E6 JUMP JUMPDEST JUMPDEST PUSH1 0x0 PUSH2 0xEDE DUP7 DUP3 DUP8 ADD PUSH2 0xE20 JUMP JUMPDEST SWAP4 POP POP PUSH1 0x20 PUSH2 0xEEF DUP7 DUP3 DUP8 ADD PUSH2 0xE20 JUMP JUMPDEST SWAP3 POP POP PUSH1 0x40 PUSH2 0xF00 DUP7 DUP3 DUP8 ADD PUSH2 0xE35 JUMP JUMPDEST SWAP2 POP POP SWAP3 POP SWAP3 POP SWAP3 JUMP JUMPDEST PUSH1 0x0 DUP1 PUSH1 0x40 DUP4 DUP6 SUB SLT ISZERO PUSH2 0xF21 JUMPI PUSH2 0xF20 PUSH2 0x12E6 JUMP JUMPDEST JUMPDEST PUSH1 0x0 PUSH2 0xF2F DUP6 DUP3 DUP7 ADD PUSH2 0xE20 JUMP JUMPDEST SWAP3 POP POP PUSH1 0x20 PUSH2 0xF40 DUP6 DUP3 DUP7 ADD PUSH2 0xE35 JUMP JUMPDEST SWAP2 POP POP SWAP3 POP SWAP3 SWAP1 POP JUMP JUMPDEST PUSH1 0x0 PUSH2 0xF55 DUP3 PUSH2 0x1105 JUMP JUMPDEST PUSH2 0xF5F DUP2 DUP6 PUSH2 0x1110 JUMP JUMPDEST SWAP4 POP PUSH2 0xF6F DUP2 DUP6 PUSH1 0x20 DUP7 ADD PUSH2 0x11F4 JUMP JUMPDEST PUSH2 0xF78 DUP2 PUSH2 0x12EB JUMP JUMPDEST DUP5 ADD SWAP2 POP POP SWAP3 SWAP2 POP POP JUMP JUMPDEST PUSH1 0x0 PUSH2 0xF90 PUSH1 0x10 DUP4 PUSH2 0x1110 JUMP JUMPDEST SWAP2 POP PUSH2 0xF9B DUP3 PUSH2 0x12FC JUMP JUMPDEST PUSH1 0x20 DUP3 ADD SWAP1 POP SWAP2 SWAP1 POP JUMP JUMPDEST PUSH1 0x0 PUSH2 0xFB3 PUSH1 0xB DUP4 PUSH2 0x1110 JUMP JUMPDEST SWAP2 POP PUSH2 0xFBE DUP3 PUSH2 0x1325 JUMP JUMPDEST PUSH1 0x20 DUP3 ADD SWAP1 POP SWAP2 SWAP1 POP JUMP JUMPDEST PUSH1 0x0 PUSH2 0xFD6 PUSH1 0xE DUP4 PUSH2 0x1110 JUMP JUMPDEST SWAP2 POP PUSH2 0xFE1 DUP3 PUSH2 0x134E JUMP JUMPDEST PUSH1 0x20 DUP3 ADD SWAP1 POP SWAP2 SWAP1 POP JUMP JUMPDEST PUSH1 0x0 PUSH2 0xFF9 PUSH1 0x1F DUP4 PUSH2 0x1110 JUMP JUMPDEST SWAP2 POP PUSH2 0x1004 DUP3 PUSH2 0x1377 JUMP JUMPDEST PUSH1 0x20 DUP3 ADD SWAP1 POP SWAP2 SWAP1 POP JUMP JUMPDEST PUSH2 0x1018 DUP2 PUSH2 0x11DD JUMP JUMPDEST DUP3 MSTORE POP POP JUMP JUMPDEST PUSH2 0x1027 DUP2 PUSH2 0x11E7 JUMP JUMPDEST DUP3 MSTORE POP POP JUMP JUMPDEST PUSH1 0x0 PUSH1 0x20 DUP3 ADD SWAP1 POP DUP2 DUP2 SUB PUSH1 0x0 DUP4 ADD MSTORE PUSH2 0x1047 DUP2 DUP5 PUSH2 0xF4A JUMP JUMPDEST SWAP1 POP SWAP3 SWAP2 POP POP JUMP JUMPDEST PUSH1 0x0 PUSH1 0x20 DUP3 ADD SWAP1 POP DUP2 DUP2 SUB PUSH1 0x0 DUP4 ADD MSTORE PUSH2 0x1068 DUP2 PUSH2 0xF83 JUMP JUMPDEST SWAP1 POP SWAP2 SWAP1 POP JUMP JUMPDEST PUSH1 0x0 PUSH1 0x20 DUP3 ADD SWAP1 POP DUP2 DUP2 SUB PUSH1 0x0 DUP4 ADD MSTORE PUSH2 0x1088 DUP2 PUSH2 0xFA6 JUMP JUMPDEST SWAP1 POP SWAP2 SWAP1 POP JUMP JUMPDEST PUSH1 0x0 PUSH1 0x20 DUP3 ADD SWAP1 POP DUP2 DUP2 SUB PUSH1 0x0 DUP4 ADD MSTORE PUSH2 0x10A8 DUP2 PUSH2 0xFC9 JUMP JUMPDEST SWAP1 POP SWAP2 SWAP1 POP JUMP JUMPDEST PUSH1 0x0 PUSH1 0x20 DUP3 ADD SWAP1 POP DUP2 DUP2 SUB PUSH1 0x0 DUP4 ADD MSTORE PUSH2 0x10C8 DUP2 PUSH2 0xFEC JUMP JUMPDEST SWAP1 POP SWAP2 SWAP1 POP JUMP JUMPDEST PUSH1 0x0 PUSH1 0x20 DUP3 ADD SWAP1 POP PUSH2 0x10E4 PUSH1 0x0 DUP4 ADD DUP5 PUSH2 0x100F JUMP JUMPDEST SWAP3 SWAP2 POP POP JUMP JUMPDEST PUSH1 0x0 PUSH1 0x20 DUP3 ADD SWAP1 POP PUSH2 0x10FF PUSH1 0x0 DUP4 ADD DUP5 PUSH2 0x101E JUMP JUMPDEST SWAP3 SWAP2 POP POP JUMP JUMPDEST PUSH1 0x0 DUP2 MLOAD SWAP1 POP SWAP2 SWAP1 POP JUMP JUMPDEST PUSH1 0x0 DUP3 DUP3 MSTORE PUSH1 0x20 DUP3 ADD SWAP1 POP SWAP3 SWAP2 POP POP JUMP JUMPDEST PUSH1 0x0 PUSH2 0x112C DUP3 PUSH2 0x11DD JUMP JUMPDEST SWAP2 POP PUSH2 0x1137 DUP4 PUSH2 0x11DD JUMP JUMPDEST SWAP3 POP DUP3 PUSH32 0xFFFFFFFFFFFFFFFFFFFFFFFFFFFFFFFFFFFFFFFFFFFFFFFFFFFFFFFFFFFFFFFF SUB DUP3 GT ISZERO PUSH2 0x116C JUMPI PUSH2 0x116B PUSH2 0x1288 JUMP JUMPDEST JUMPDEST DUP3 DUP3 ADD SWAP1 POP SWAP3 SWAP2 POP POP JUMP JUMPDEST PUSH1 0x0 PUSH2 0x1182 DUP3 PUSH2 0x11DD JUMP JUMPDEST SWAP2 POP PUSH2 0x118D DUP4 PUSH2 0x11DD JUMP JUMPDEST SWAP3 POP DUP3 DUP3 LT ISZERO PUSH2 0x11A0 JUMPI PUSH2 0x119F PUSH2 0x1288 JUMP JUMPDEST JUMPDEST DUP3 DUP3 SUB SWAP1 POP SWAP3 SWAP2 POP POP JUMP JUMPDEST PUSH1 0x0 PUSH2 0x11B6 DUP3 PUSH2 0x11BD JUMP JUMPDEST SWAP1 POP SWAP2 SWAP1 POP JUMP JUMPDEST PUSH1 0x0 PUSH20 0xFFFFFFFFFFFFFFFFFFFFFFFFFFFFFFFFFFFFFFFF DUP3 AND SWAP1 POP SWAP2 SWAP1 POP JUMP JUMPDEST PUSH1 0x0 DUP2 SWAP1 POP SWAP2 SWAP1 POP JUMP JUMPDEST PUSH1 0x0 PUSH1 0xFF DUP3 AND SWAP1 POP SWAP2 SWAP1 POP JUMP JUMPDEST PUSH1 0x0 JUMPDEST DUP4 DUP2 LT ISZERO PUSH2 0x1212 JUMPI DUP1 DUP3 ADD MLOAD DUP2 DUP5 ADD MSTORE PUSH1 0x20 DUP2 ADD SWAP1 POP PUSH2 0x11F7 JUMP JUMPDEST DUP4 DUP2 GT ISZERO PUSH2 0x1221 JUMPI PUSH1 0x0 DUP5 DUP5 ADD MSTORE JUMPDEST POP POP POP POP JUMP JUMPDEST PUSH1 0x0 PUSH1 0x2 DUP3 DIV SWAP1 POP PUSH1 0x1 DUP3 AND DUP1 PUSH2 0x123F JUMPI PUSH1 0x7F DUP3 AND SWAP2 POP JUMPDEST PUSH1 0x20 DUP3 LT DUP2 EQ ISZERO PUSH2 0x1253 JUMPI PUSH2 0x1252 PUSH2 0x12B7 JUMP JUMPDEST JUMPDEST POP SWAP2 SWAP1 POP JUMP JUMPDEST PUSH32 0x4E487B7100000000000000000000000000000000000000000000000000000000 PUSH1 0x0 MSTORE PUSH1 0x1 PUSH1 0x4 MSTORE PUSH1 0x24 PUSH1 0x0 REVERT JUMPDEST PUSH32 0x4E487B7100000000000000000000000000000000000000000000000000000000 PUSH1 0x0 MSTORE PUSH1 0x11 PUSH1 0x4 MSTORE PUSH1 0x24 PUSH1 0x0 REVERT JUMPDEST PUSH32 0x4E487B7100000000000000000000000000000000000000000000000000000000 PUSH1 0x0 MSTORE PUSH1 0x22 PUSH1 0x4 MSTORE PUSH1 0x24 PUSH1 0x0 REVERT JUMPDEST PUSH1 0x0 DUP1 REVERT JUMPDEST PUSH1 0x0 PUSH1 0x1F NOT PUSH1 0x1F DUP4 ADD AND SWAP1 POP SWAP2 SWAP1 POP JUMP JUMPDEST PUSH32 0x42616C616E6365203C20616D6F756E7400000000000000000000000000000000 PUSH1 0x0 DUP3 ADD MSTORE POP JUMP JUMPDEST PUSH32 0x416D6F756E74203C3D2030000000000000000000000000000000000000000000 PUSH1 0x0 DUP3 ADD MSTORE POP JUMP JUMPDEST PUSH32 0x446F6E277420616C6C6F7765642E000000000000000000000000000000000000 PUSH1 0x0 DUP3 ADD MSTORE POP JUMP JUMPDEST PUSH32 0x45524332303A206D696E7420746F20746865207A65726F206164647265737300 PUSH1 0x0 DUP3 ADD MSTORE POP JUMP JUMPDEST PUSH2 0x13A9 DUP2 PUSH2 0x11AB JUMP JUMPDEST DUP2 EQ PUSH2 0x13B4 JUMPI PUSH1 0x0 DUP1 REVERT JUMPDEST POP JUMP JUMPDEST PUSH2 0x13C0 DUP2 PUSH2 0x11DD JUMP JUMPDEST DUP2 EQ PUSH2 0x13CB JUMPI PUSH1 0x0 DUP1 REVERT JUMPDEST POP JUMP INVALID LOG2 PUSH5 0x6970667358 0x22 SLT KECCAK256 0xE9 BASEFEE GAS ISZERO SELFDESTRUCT CHAINID CALLDATASIZE DUP3 0xA9 DUP6 PUSH12 0xF402CA5042263AF51133E5AB 0xE3 SMOD DUP11 0x4E DUP7 MSTORE8 MSIZE EXTCODEHASH CALLVALUE PUSH5 0x736F6C6343 STOP ADDMOD SMOD STOP CALLER "
				},
				"gasEstimates": {
					"creation": {
						"codeDepositCost": "1021200",
						"executionCost": "infinite",
						"totalCost": "infinite"
					},
					"external": {
						"addProposals(address[],string[])": "infinite",
						"addVote(address)": "infinite",
						"addVoters(address[])": "infinite",
						"balanceAndAmount()": "infinite",
						"getTotalSupply()": "infinite",
						"totalVotesFor(address)": "infinite",
						"vote(address)": "infinite"
					}
				},
				"methodIdentifiers": {
					"addProposals(address[],string[])": "633fff16",
					"addVote(address)": "6cea0e46",
					"addVoters(address[])": "8203373a",
					"balanceAndAmount()": "21214986",
					"getTotalSupply()": "c4e41b22",
					"totalVotesFor(address)": "4041ef54",
					"vote(address)": "6dd7d8ea"
				}
			},
			"storageLayout": {
				"storage": [
					{
						"astId": 489,
						"contract": "contracts/Voting.sol:Voting",
						"label": "startTime",
						"offset": 0,
						"slot": "0",
						"type": "t_uint256"
					},
					{
						"astId": 491,
						"contract": "contracts/Voting.sol:Voting",
						"label": "endTime",
						"offset": 0,
						"slot": "1",
						"type": "t_uint256"
					},
					{
						"astId": 495,
						"contract": "contracts/Voting.sol:Voting",
						"label": "voters",
						"offset": 0,
						"slot": "2",
						"type": "t_mapping(t_address,t_bool)"
					},
					{
						"astId": 499,
						"contract": "contracts/Voting.sol:Voting",
						"label": "proposals",
						"offset": 0,
						"slot": "3",
						"type": "t_mapping(t_address,t_string_storage)"
					},
					{
						"astId": 501,
						"contract": "contracts/Voting.sol:Voting",
						"label": "chairperson",
						"offset": 0,
						"slot": "4",
						"type": "t_address"
					},
					{
						"astId": 508,
						"contract": "contracts/Voting.sol:Voting",
						"label": "token",
						"offset": 0,
						"slot": "5",
						"type": "t_contract(Token)484"
					}
				],
				"types": {
					"t_address": {
						"encoding": "inplace",
						"label": "address",
						"numberOfBytes": "20"
					},
					"t_bool": {
						"encoding": "inplace",
						"label": "bool",
						"numberOfBytes": "1"
					},
					"t_contract(Token)484": {
						"encoding": "inplace",
						"label": "contract Token",
						"numberOfBytes": "20"
					},
					"t_mapping(t_address,t_bool)": {
						"encoding": "mapping",
						"key": "t_address",
						"label": "mapping(address => bool)",
						"numberOfBytes": "32",
						"value": "t_bool"
					},
					"t_mapping(t_address,t_string_storage)": {
						"encoding": "mapping",
						"key": "t_address",
						"label": "mapping(address => string)",
						"numberOfBytes": "32",
						"value": "t_string_storage"
					},
					"t_string_storage": {
						"encoding": "bytes",
						"label": "string",
						"numberOfBytes": "32"
					},
					"t_uint256": {
						"encoding": "inplace",
						"label": "uint256",
						"numberOfBytes": "32"
					}
				}
			},
			"userdoc": {
				"kind": "user",
				"methods": {},
				"version": 1
			}
		}
	}
}