{
	"contracts/Voting.sol": {
		"Voting": {
			"abi": [
				{
					"inputs": [
						{
							"internalType": "uint256",
							"name": "_startTime",
							"type": "uint256"
						},
						{
							"internalType": "uint256",
							"name": "_endTime",
							"type": "uint256"
						}
					],
					"stateMutability": "nonpayable",
					"type": "constructor"
				},
				{
					"inputs": [
						{
							"internalType": "address[]",
							"name": "_proposalsAddr",
							"type": "address[]"
						},
						{
							"internalType": "bytes32[]",
							"name": "_proposalsNames",
							"type": "bytes32[]"
						}
					],
					"name": "addProposals",
					"outputs": [],
					"stateMutability": "nonpayable",
					"type": "function"
				},
				{
					"inputs": [
						{
							"internalType": "address[]",
							"name": "_voters",
							"type": "address[]"
						}
					],
					"name": "addVoters",
					"outputs": [],
					"stateMutability": "nonpayable",
					"type": "function"
				},
				{
					"inputs": [
						{
							"internalType": "address",
							"name": "proposal",
							"type": "address"
						}
					],
					"name": "totalVotesFor",
					"outputs": [
						{
							"internalType": "uint256",
							"name": "",
							"type": "uint256"
						}
					],
					"stateMutability": "view",
					"type": "function"
				},
				{
					"inputs": [
						{
							"internalType": "address",
							"name": "proposal",
							"type": "address"
						}
					],
					"name": "vote",
					"outputs": [],
					"stateMutability": "nonpayable",
					"type": "function"
				}
			],
			"devdoc": {
				"kind": "dev",
				"methods": {},
				"version": 1
			},
			"evm": {
				"assembly": "    /* \"contracts/Voting.sol\":91:1713  contract Voting {\r... */\n  mstore(0x40, 0x80)\n    /* \"contracts/Voting.sol\":290:301  new Token() */\n  mload(0x40)\n  tag_1\n  swap1\n  tag_2\n  jump\t// in\ntag_1:\n  mload(0x40)\n  dup1\n  swap2\n  sub\n  swap1\n  0x00\n  create\n  dup1\n  iszero\n  dup1\n  iszero\n  tag_3\n  jumpi\n  returndatasize\n  0x00\n  dup1\n  returndatacopy\n  revert(0x00, returndatasize)\ntag_3:\n  pop\n    /* \"contracts/Voting.sol\":276:301  Token token = new Token() */\n  0x05\n  exp(0x0100, 0x00)\n  dup2\n  sload\n  dup2\n  0xffffffffffffffffffffffffffffffffffffffff\n  mul\n  not\n  and\n  swap1\n  dup4\n  0xffffffffffffffffffffffffffffffffffffffff\n  and\n  mul\n  or\n  swap1\n  sstore\n  pop\n    /* \"contracts/Voting.sol\":310:462  constructor (uint _startTime, uint _endTime) {\r... */\n  callvalue\n  dup1\n  iszero\n  tag_4\n  jumpi\n  0x00\n  dup1\n  revert\ntag_4:\n  pop\n  mload(0x40)\n  sub(codesize, bytecodeSize)\n  dup1\n  bytecodeSize\n  dup4\n  codecopy\n  dup2\n  dup2\n  add\n  0x40\n  mstore\n  dup2\n  add\n  swap1\n  tag_5\n  swap2\n  swap1\n  tag_6\n  jump\t// in\ntag_5:\n    /* \"contracts/Voting.sol\":382:392  msg.sender */\n  caller\n    /* \"contracts/Voting.sol\":368:379  chairperson */\n  0x04\n  0x00\n    /* \"contracts/Voting.sol\":368:392  chairperson = msg.sender */\n  0x0100\n  exp\n  dup2\n  sload\n  dup2\n  0xffffffffffffffffffffffffffffffffffffffff\n  mul\n  not\n  and\n  swap1\n  dup4\n  0xffffffffffffffffffffffffffffffffffffffff\n  and\n  mul\n  or\n  swap1\n  sstore\n  pop\n    /* \"contracts/Voting.sol\":415:425  _startTime */\n  dup2\n    /* \"contracts/Voting.sol\":403:412  startTime */\n  0x00\n    /* \"contracts/Voting.sol\":403:425  startTime = _startTime */\n  dup2\n  swap1\n  sstore\n  pop\n    /* \"contracts/Voting.sol\":446:454  _endTime */\n  dup1\n    /* \"contracts/Voting.sol\":436:443  endTime */\n  0x01\n    /* \"contracts/Voting.sol\":436:454  endTime = _endTime */\n  dup2\n  swap1\n  sstore\n  pop\n    /* \"contracts/Voting.sol\":310:462  constructor (uint _startTime, uint _endTime) {\r... */\n  pop\n  pop\n    /* \"contracts/Voting.sol\":91:1713  contract Voting {\r... */\n  jump(tag_9)\ntag_2:\n  dataSize(sub_1)\n  dup1\n  dataOffset(sub_1)\n  dup4\n  codecopy\n  add\n  swap1\n  jump\t// out\n    /* \"#utility.yul\":7:150   */\ntag_11:\n    /* \"#utility.yul\":64:69   */\n  0x00\n    /* \"#utility.yul\":95:101   */\n  dup2\n    /* \"#utility.yul\":89:102   */\n  mload\n    /* \"#utility.yul\":80:102   */\n  swap1\n  pop\n    /* \"#utility.yul\":111:144   */\n  tag_13\n    /* \"#utility.yul\":138:143   */\n  dup2\n    /* \"#utility.yul\":111:144   */\n  tag_14\n  jump\t// in\ntag_13:\n    /* \"#utility.yul\":7:150   */\n  swap3\n  swap2\n  pop\n  pop\n  jump\t// out\n    /* \"#utility.yul\":156:663   */\ntag_6:\n    /* \"#utility.yul\":235:241   */\n  0x00\n    /* \"#utility.yul\":243:249   */\n  dup1\n    /* \"#utility.yul\":292:294   */\n  0x40\n    /* \"#utility.yul\":280:289   */\n  dup4\n    /* \"#utility.yul\":271:278   */\n  dup6\n    /* \"#utility.yul\":267:290   */\n  sub\n    /* \"#utility.yul\":263:295   */\n  slt\n    /* \"#utility.yul\":260:379   */\n  iszero\n  tag_16\n  jumpi\n    /* \"#utility.yul\":298:377   */\n  tag_17\n  tag_18\n  jump\t// in\ntag_17:\n    /* \"#utility.yul\":260:379   */\ntag_16:\n    /* \"#utility.yul\":418:419   */\n  0x00\n    /* \"#utility.yul\":443:507   */\n  tag_19\n    /* \"#utility.yul\":499:506   */\n  dup6\n    /* \"#utility.yul\":490:496   */\n  dup3\n    /* \"#utility.yul\":479:488   */\n  dup7\n    /* \"#utility.yul\":475:497   */\n  add\n    /* \"#utility.yul\":443:507   */\n  tag_11\n  jump\t// in\ntag_19:\n    /* \"#utility.yul\":433:507   */\n  swap3\n  pop\n    /* \"#utility.yul\":389:517   */\n  pop\n    /* \"#utility.yul\":556:558   */\n  0x20\n    /* \"#utility.yul\":582:646   */\n  tag_20\n    /* \"#utility.yul\":638:645   */\n  dup6\n    /* \"#utility.yul\":629:635   */\n  dup3\n    /* \"#utility.yul\":618:627   */\n  dup7\n    /* \"#utility.yul\":614:636   */\n  add\n    /* \"#utility.yul\":582:646   */\n  tag_11\n  jump\t// in\ntag_20:\n    /* \"#utility.yul\":572:646   */\n  swap2\n  pop\n    /* \"#utility.yul\":527:656   */\n  pop\n    /* \"#utility.yul\":156:663   */\n  swap3\n  pop\n  swap3\n  swap1\n  pop\n  jump\t// out\n    /* \"#utility.yul\":750:827   */\ntag_23:\n    /* \"#utility.yul\":787:794   */\n  0x00\n    /* \"#utility.yul\":816:821   */\n  dup2\n    /* \"#utility.yul\":805:821   */\n  swap1\n  pop\n    /* \"#utility.yul\":750:827   */\n  swap2\n  swap1\n  pop\n  jump\t// out\n    /* \"#utility.yul\":956:1073   */\ntag_18:\n    /* \"#utility.yul\":1065:1066   */\n  0x00\n    /* \"#utility.yul\":1062:1063   */\n  dup1\n    /* \"#utility.yul\":1055:1067   */\n  revert\n    /* \"#utility.yul\":1079:1201   */\ntag_14:\n    /* \"#utility.yul\":1152:1176   */\n  tag_29\n    /* \"#utility.yul\":1170:1175   */\n  dup2\n    /* \"#utility.yul\":1152:1176   */\n  tag_23\n  jump\t// in\ntag_29:\n    /* \"#utility.yul\":1145:1150   */\n  dup2\n    /* \"#utility.yul\":1142:1177   */\n  eq\n    /* \"#utility.yul\":1132:1195   */\n  tag_30\n  jumpi\n    /* \"#utility.yul\":1191:1192   */\n  0x00\n    /* \"#utility.yul\":1188:1189   */\n  dup1\n    /* \"#utility.yul\":1181:1193   */\n  revert\n    /* \"#utility.yul\":1132:1195   */\ntag_30:\n    /* \"#utility.yul\":1079:1201   */\n  pop\n  jump\t// out\n    /* \"contracts/Voting.sol\":91:1713  contract Voting {\r... */\ntag_9:\n  dataSize(sub_0)\n  dup1\n  dataOffset(sub_0)\n  0x00\n  codecopy\n  0x00\n  return\nstop\n\nsub_0: assembly {\n        /* \"contracts/Voting.sol\":91:1713  contract Voting {\r... */\n      mstore(0x40, 0x80)\n      callvalue\n      dup1\n      iszero\n      tag_1\n      jumpi\n      0x00\n      dup1\n      revert\n    tag_1:\n      pop\n      jumpi(tag_2, lt(calldatasize, 0x04))\n      shr(0xe0, calldataload(0x00))\n      dup1\n      0x4041ef54\n      eq\n      tag_3\n      jumpi\n      dup1\n      0x6dd7d8ea\n      eq\n      tag_4\n      jumpi\n      dup1\n      0x8203373a\n      eq\n      tag_5\n      jumpi\n      dup1\n      0xea58d968\n      eq\n      tag_6\n      jumpi\n    tag_2:\n      0x00\n      dup1\n      revert\n        /* \"contracts/Voting.sol\":1495:1706  function totalVotesFor(address proposal) view public returns (uint) {\r... */\n    tag_3:\n      tag_7\n      0x04\n      dup1\n      calldatasize\n      sub\n      dup2\n      add\n      swap1\n      tag_8\n      swap2\n      swap1\n      tag_9\n      jump\t// in\n    tag_8:\n      tag_10\n      jump\t// in\n    tag_7:\n      mload(0x40)\n      tag_11\n      swap2\n      swap1\n      tag_12\n      jump\t// in\n    tag_11:\n      mload(0x40)\n      dup1\n      swap2\n      sub\n      swap1\n      return\n        /* \"contracts/Voting.sol\":1077:1487  function vote(address proposal) public {\r... */\n    tag_4:\n      tag_13\n      0x04\n      dup1\n      calldatasize\n      sub\n      dup2\n      add\n      swap1\n      tag_14\n      swap2\n      swap1\n      tag_9\n      jump\t// in\n    tag_14:\n      tag_15\n      jump\t// in\n    tag_13:\n      stop\n        /* \"contracts/Voting.sol\":470:724  function addVoters(address[] memory _voters) public {\r... */\n    tag_5:\n      tag_16\n      0x04\n      dup1\n      calldatasize\n      sub\n      dup2\n      add\n      swap1\n      tag_17\n      swap2\n      swap1\n      tag_18\n      jump\t// in\n    tag_17:\n      tag_19\n      jump\t// in\n    tag_16:\n      stop\n        /* \"contracts/Voting.sol\":732:1069  function addProposals(address[] memory _proposalsAddr, \r... */\n    tag_6:\n      tag_20\n      0x04\n      dup1\n      calldatasize\n      sub\n      dup2\n      add\n      swap1\n      tag_21\n      swap2\n      swap1\n      tag_22\n      jump\t// in\n    tag_21:\n      tag_23\n      jump\t// in\n    tag_20:\n      stop\n        /* \"contracts/Voting.sol\":1495:1706  function totalVotesFor(address proposal) view public returns (uint) {\r... */\n    tag_10:\n        /* \"contracts/Voting.sol\":1557:1561  uint */\n      0x00\n        /* \"contracts/Voting.sol\":1600:1607  endTime */\n      sload(0x01)\n        /* \"contracts/Voting.sol\":1582:1597  block.timestamp */\n      timestamp\n        /* \"contracts/Voting.sol\":1582:1607  block.timestamp < endTime */\n      lt\n        /* \"contracts/Voting.sol\":1574:1608  require(block.timestamp < endTime) */\n      tag_25\n      jumpi\n      0x00\n      dup1\n      revert\n    tag_25:\n        /* \"contracts/Voting.sol\":1641:1652  chairperson */\n      0x04\n      0x00\n      swap1\n      sload\n      swap1\n      0x0100\n      exp\n      swap1\n      div\n      0xffffffffffffffffffffffffffffffffffffffff\n      and\n        /* \"contracts/Voting.sol\":1627:1652  msg.sender != chairperson */\n      0xffffffffffffffffffffffffffffffffffffffff\n      and\n        /* \"contracts/Voting.sol\":1627:1637  msg.sender */\n      caller\n        /* \"contracts/Voting.sol\":1627:1652  msg.sender != chairperson */\n      0xffffffffffffffffffffffffffffffffffffffff\n      and\n      eq\n      iszero\n        /* \"contracts/Voting.sol\":1619:1653  require(msg.sender != chairperson) */\n      tag_26\n      jumpi\n      0x00\n      dup1\n      revert\n    tag_26:\n        /* \"contracts/Voting.sol\":1673:1678  token */\n      0x05\n      0x00\n      swap1\n      sload\n      swap1\n      0x0100\n      exp\n      swap1\n      div\n      0xffffffffffffffffffffffffffffffffffffffff\n      and\n        /* \"contracts/Voting.sol\":1673:1688  token.balanceOf */\n      0xffffffffffffffffffffffffffffffffffffffff\n      and\n      0x70a08231\n        /* \"contracts/Voting.sol\":1689:1697  proposal */\n      dup4\n        /* \"contracts/Voting.sol\":1673:1698  token.balanceOf(proposal) */\n      mload(0x40)\n      dup3\n      0xffffffff\n      and\n      0xe0\n      shl\n      dup2\n      mstore\n      0x04\n      add\n      tag_27\n      swap2\n      swap1\n      tag_28\n      jump\t// in\n    tag_27:\n      0x20\n      mload(0x40)\n      dup1\n      dup4\n      sub\n      dup2\n      dup7\n      dup1\n      extcodesize\n      iszero\n      dup1\n      iszero\n      tag_29\n      jumpi\n      0x00\n      dup1\n      revert\n    tag_29:\n      pop\n      gas\n      staticcall\n      iszero\n      dup1\n      iszero\n      tag_31\n      jumpi\n      returndatasize\n      0x00\n      dup1\n      returndatacopy\n      revert(0x00, returndatasize)\n    tag_31:\n      pop\n      pop\n      pop\n      pop\n      mload(0x40)\n      returndatasize\n      not(0x1f)\n      0x1f\n      dup3\n      add\n      and\n      dup3\n      add\n      dup1\n      0x40\n      mstore\n      pop\n      dup2\n      add\n      swap1\n      tag_32\n      swap2\n      swap1\n      tag_33\n      jump\t// in\n    tag_32:\n        /* \"contracts/Voting.sol\":1666:1698  return token.balanceOf(proposal) */\n      swap1\n      pop\n        /* \"contracts/Voting.sol\":1495:1706  function totalVotesFor(address proposal) view public returns (uint) {\r... */\n      swap2\n      swap1\n      pop\n      jump\t// out\n        /* \"contracts/Voting.sol\":1077:1487  function vote(address proposal) public {\r... */\n    tag_15:\n        /* \"contracts/Voting.sol\":1153:1160  endTime */\n      sload(0x01)\n        /* \"contracts/Voting.sol\":1135:1150  block.timestamp */\n      timestamp\n        /* \"contracts/Voting.sol\":1135:1160  block.timestamp > endTime */\n      gt\n        /* \"contracts/Voting.sol\":1127:1161  require(block.timestamp > endTime) */\n      tag_35\n      jumpi\n      0x00\n      dup1\n      revert\n    tag_35:\n        /* \"contracts/Voting.sol\":1180:1186  voters */\n      0x02\n        /* \"contracts/Voting.sol\":1180:1198  voters[msg.sender] */\n      0x00\n        /* \"contracts/Voting.sol\":1187:1197  msg.sender */\n      caller\n        /* \"contracts/Voting.sol\":1180:1198  voters[msg.sender] */\n      0xffffffffffffffffffffffffffffffffffffffff\n      and\n      0xffffffffffffffffffffffffffffffffffffffff\n      and\n      dup2\n      mstore\n      0x20\n      add\n      swap1\n      dup2\n      mstore\n      0x20\n      add\n      0x00\n      keccak256\n      0x00\n      swap1\n      sload\n      swap1\n      0x0100\n      exp\n      swap1\n      div\n      0xff\n      and\n        /* \"contracts/Voting.sol\":1172:1199  require(voters[msg.sender]) */\n      tag_36\n      jumpi\n      0x00\n      dup1\n      revert\n    tag_36:\n        /* \"contracts/Voting.sol\":1249:1250  0 */\n      0x00\n        /* \"contracts/Voting.sol\":1218:1223  token */\n      0x05\n      0x00\n      swap1\n      sload\n      swap1\n      0x0100\n      exp\n      swap1\n      div\n      0xffffffffffffffffffffffffffffffffffffffff\n      and\n        /* \"contracts/Voting.sol\":1218:1233  token.balanceOf */\n      0xffffffffffffffffffffffffffffffffffffffff\n      and\n      0x70a08231\n        /* \"contracts/Voting.sol\":1234:1244  msg.sender */\n      caller\n        /* \"contracts/Voting.sol\":1218:1245  token.balanceOf(msg.sender) */\n      mload(0x40)\n      dup3\n      0xffffffff\n      and\n      0xe0\n      shl\n      dup2\n      mstore\n      0x04\n      add\n      tag_37\n      swap2\n      swap1\n      tag_28\n      jump\t// in\n    tag_37:\n      0x20\n      mload(0x40)\n      dup1\n      dup4\n      sub\n      dup2\n      dup7\n      dup1\n      extcodesize\n      iszero\n      dup1\n      iszero\n      tag_38\n      jumpi\n      0x00\n      dup1\n      revert\n    tag_38:\n      pop\n      gas\n      staticcall\n      iszero\n      dup1\n      iszero\n      tag_40\n      jumpi\n      returndatasize\n      0x00\n      dup1\n      returndatacopy\n      revert(0x00, returndatasize)\n    tag_40:\n      pop\n      pop\n      pop\n      pop\n      mload(0x40)\n      returndatasize\n      not(0x1f)\n      0x1f\n      dup3\n      add\n      and\n      dup3\n      add\n      dup1\n      0x40\n      mstore\n      pop\n      dup2\n      add\n      swap1\n      tag_41\n      swap2\n      swap1\n      tag_33\n      jump\t// in\n    tag_41:\n        /* \"contracts/Voting.sol\":1218:1250  token.balanceOf(msg.sender) == 0 */\n      eq\n        /* \"contracts/Voting.sol\":1210:1251  require(token.balanceOf(msg.sender) == 0) */\n      tag_42\n      jumpi\n      0x00\n      dup1\n      revert\n    tag_42:\n        /* \"contracts/Voting.sol\":1400:1405  token */\n      0x05\n      0x00\n      swap1\n      sload\n      swap1\n      0x0100\n      exp\n      swap1\n      div\n      0xffffffffffffffffffffffffffffffffffffffff\n      and\n        /* \"contracts/Voting.sol\":1400:1418  token.transferFrom */\n      0xffffffffffffffffffffffffffffffffffffffff\n      and\n      0x23b872dd\n        /* \"contracts/Voting.sol\":1419:1429  msg.sender */\n      caller\n        /* \"contracts/Voting.sol\":1431:1439  proposal */\n      dup4\n        /* \"contracts/Voting.sol\":1441:1442  1 */\n      0x01\n        /* \"contracts/Voting.sol\":1400:1443  token.transferFrom(msg.sender, proposal, 1) */\n      mload(0x40)\n      dup5\n      0xffffffff\n      and\n      0xe0\n      shl\n      dup2\n      mstore\n      0x04\n      add\n      tag_43\n      swap4\n      swap3\n      swap2\n      swap1\n      tag_44\n      jump\t// in\n    tag_43:\n      0x00\n      mload(0x40)\n      dup1\n      dup4\n      sub\n      dup2\n      0x00\n      dup8\n      dup1\n      extcodesize\n      iszero\n      dup1\n      iszero\n      tag_45\n      jumpi\n      0x00\n      dup1\n      revert\n    tag_45:\n      pop\n      gas\n      call\n      iszero\n      dup1\n      iszero\n      tag_47\n      jumpi\n      returndatasize\n      0x00\n      dup1\n      returndatacopy\n      revert(0x00, returndatasize)\n    tag_47:\n      pop\n      pop\n      pop\n      pop\n        /* \"contracts/Voting.sol\":1475:1479  true */\n      0x01\n        /* \"contracts/Voting.sol\":1454:1460  voters */\n      0x02\n        /* \"contracts/Voting.sol\":1454:1472  voters[msg.sender] */\n      0x00\n        /* \"contracts/Voting.sol\":1461:1471  msg.sender */\n      caller\n        /* \"contracts/Voting.sol\":1454:1472  voters[msg.sender] */\n      0xffffffffffffffffffffffffffffffffffffffff\n      and\n      0xffffffffffffffffffffffffffffffffffffffff\n      and\n      dup2\n      mstore\n      0x20\n      add\n      swap1\n      dup2\n      mstore\n      0x20\n      add\n      0x00\n      keccak256\n      0x00\n        /* \"contracts/Voting.sol\":1454:1479  voters[msg.sender] = true */\n      0x0100\n      exp\n      dup2\n      sload\n      dup2\n      0xff\n      mul\n      not\n      and\n      swap1\n      dup4\n      iszero\n      iszero\n      mul\n      or\n      swap1\n      sstore\n      pop\n        /* \"contracts/Voting.sol\":1077:1487  function vote(address proposal) public {\r... */\n      pop\n      jump\t// out\n        /* \"contracts/Voting.sol\":470:724  function addVoters(address[] memory _voters) public {\r... */\n    tag_19:\n        /* \"contracts/Voting.sol\":548:554  uint i */\n      0x00\n        /* \"contracts/Voting.sol\":543:679  for (uint i = 0; i < _voters.length; i++) {\r... */\n    tag_49:\n        /* \"contracts/Voting.sol\":564:571  _voters */\n      dup2\n        /* \"contracts/Voting.sol\":564:578  _voters.length */\n      mload\n        /* \"contracts/Voting.sol\":560:561  i */\n      dup2\n        /* \"contracts/Voting.sol\":560:578  i < _voters.length */\n      lt\n        /* \"contracts/Voting.sol\":543:679  for (uint i = 0; i < _voters.length; i++) {\r... */\n      iszero\n      tag_50\n      jumpi\n        /* \"contracts/Voting.sol\":621:626  false */\n      0x00\n        /* \"contracts/Voting.sol\":600:606  voters */\n      0x02\n        /* \"contracts/Voting.sol\":600:618  voters[_voters[i]] */\n      0x00\n        /* \"contracts/Voting.sol\":607:614  _voters */\n      dup5\n        /* \"contracts/Voting.sol\":615:616  i */\n      dup5\n        /* \"contracts/Voting.sol\":607:617  _voters[i] */\n      dup2\n      mload\n      dup2\n      lt\n      tag_52\n      jumpi\n      tag_53\n      tag_54\n      jump\t// in\n    tag_53:\n    tag_52:\n      0x20\n      mul\n      0x20\n      add\n      add\n      mload\n        /* \"contracts/Voting.sol\":600:618  voters[_voters[i]] */\n      0xffffffffffffffffffffffffffffffffffffffff\n      and\n      0xffffffffffffffffffffffffffffffffffffffff\n      and\n      dup2\n      mstore\n      0x20\n      add\n      swap1\n      dup2\n      mstore\n      0x20\n      add\n      0x00\n      keccak256\n      0x00\n        /* \"contracts/Voting.sol\":600:626  voters[_voters[i]] = false */\n      0x0100\n      exp\n      dup2\n      sload\n      dup2\n      0xff\n      mul\n      not\n      and\n      swap1\n      dup4\n      iszero\n      iszero\n      mul\n      or\n      swap1\n      sstore\n      pop\n        /* \"contracts/Voting.sol\":641:646  token */\n      0x05\n      0x00\n      swap1\n      sload\n      swap1\n      0x0100\n      exp\n      swap1\n      div\n      0xffffffffffffffffffffffffffffffffffffffff\n      and\n        /* \"contracts/Voting.sol\":641:651  token.mint */\n      0xffffffffffffffffffffffffffffffffffffffff\n      and\n      0x40c10f19\n        /* \"contracts/Voting.sol\":652:659  _voters */\n      dup4\n        /* \"contracts/Voting.sol\":660:661  i */\n      dup4\n        /* \"contracts/Voting.sol\":652:662  _voters[i] */\n      dup2\n      mload\n      dup2\n      lt\n      tag_55\n      jumpi\n      tag_56\n      tag_54\n      jump\t// in\n    tag_56:\n    tag_55:\n      0x20\n      mul\n      0x20\n      add\n      add\n      mload\n        /* \"contracts/Voting.sol\":664:665  1 */\n      0x01\n        /* \"contracts/Voting.sol\":641:666  token.mint(_voters[i], 1) */\n      mload(0x40)\n      dup4\n      0xffffffff\n      and\n      0xe0\n      shl\n      dup2\n      mstore\n      0x04\n      add\n      tag_57\n      swap3\n      swap2\n      swap1\n      tag_58\n      jump\t// in\n    tag_57:\n      0x00\n      mload(0x40)\n      dup1\n      dup4\n      sub\n      dup2\n      0x00\n      dup8\n      dup1\n      extcodesize\n      iszero\n      dup1\n      iszero\n      tag_59\n      jumpi\n      0x00\n      dup1\n      revert\n    tag_59:\n      pop\n      gas\n      call\n      iszero\n      dup1\n      iszero\n      tag_61\n      jumpi\n      returndatasize\n      0x00\n      dup1\n      returndatacopy\n      revert(0x00, returndatasize)\n    tag_61:\n      pop\n      pop\n      pop\n      pop\n        /* \"contracts/Voting.sol\":580:583  i++ */\n      dup1\n      dup1\n      tag_62\n      swap1\n      tag_63\n      jump\t// in\n    tag_62:\n      swap2\n      pop\n      pop\n        /* \"contracts/Voting.sol\":543:679  for (uint i = 0; i < _voters.length; i++) {\r... */\n      jump(tag_49)\n    tag_50:\n      pop\n        /* \"contracts/Voting.sol\":689:694  token */\n      0x05\n      0x00\n      swap1\n      sload\n      swap1\n      0x0100\n      exp\n      swap1\n      div\n      0xffffffffffffffffffffffffffffffffffffffff\n      and\n        /* \"contracts/Voting.sol\":689:699  token.mint */\n      0xffffffffffffffffffffffffffffffffffffffff\n      and\n      0x40c10f19\n        /* \"contracts/Voting.sol\":700:711  chairperson */\n      0x04\n      0x00\n      swap1\n      sload\n      swap1\n      0x0100\n      exp\n      swap1\n      div\n      0xffffffffffffffffffffffffffffffffffffffff\n      and\n        /* \"contracts/Voting.sol\":713:714  1 */\n      0x01\n        /* \"contracts/Voting.sol\":689:715  token.mint(chairperson, 1) */\n      mload(0x40)\n      dup4\n      0xffffffff\n      and\n      0xe0\n      shl\n      dup2\n      mstore\n      0x04\n      add\n      tag_64\n      swap3\n      swap2\n      swap1\n      tag_58\n      jump\t// in\n    tag_64:\n      0x00\n      mload(0x40)\n      dup1\n      dup4\n      sub\n      dup2\n      0x00\n      dup8\n      dup1\n      extcodesize\n      iszero\n      dup1\n      iszero\n      tag_65\n      jumpi\n      0x00\n      dup1\n      revert\n    tag_65:\n      pop\n      gas\n      call\n      iszero\n      dup1\n      iszero\n      tag_67\n      jumpi\n      returndatasize\n      0x00\n      dup1\n      returndatacopy\n      revert(0x00, returndatasize)\n    tag_67:\n      pop\n      pop\n      pop\n      pop\n        /* \"contracts/Voting.sol\":470:724  function addVoters(address[] memory _voters) public {\r... */\n      pop\n      jump\t// out\n        /* \"contracts/Voting.sol\":732:1069  function addProposals(address[] memory _proposalsAddr, \r... */\n    tag_23:\n        /* \"contracts/Voting.sol\":901:916  _proposalsNames */\n      dup1\n        /* \"contracts/Voting.sol\":901:923  _proposalsNames.length */\n      mload\n        /* \"contracts/Voting.sol\":876:890  _proposalsAddr */\n      dup3\n        /* \"contracts/Voting.sol\":876:897  _proposalsAddr.length */\n      mload\n        /* \"contracts/Voting.sol\":876:923  _proposalsAddr.length != _proposalsNames.length */\n      eq\n      iszero\n        /* \"contracts/Voting.sol\":868:924  require(_proposalsAddr.length != _proposalsNames.length) */\n      tag_69\n      jumpi\n      0x00\n      dup1\n      revert\n    tag_69:\n        /* \"contracts/Voting.sol\":942:948  uint i */\n      0x00\n        /* \"contracts/Voting.sol\":937:1062  for (uint i = 0; i < _proposalsAddr.length; i++) {\r... */\n    tag_70:\n        /* \"contracts/Voting.sol\":958:972  _proposalsAddr */\n      dup3\n        /* \"contracts/Voting.sol\":958:979  _proposalsAddr.length */\n      mload\n        /* \"contracts/Voting.sol\":954:955  i */\n      dup2\n        /* \"contracts/Voting.sol\":954:979  i < _proposalsAddr.length */\n      lt\n        /* \"contracts/Voting.sol\":937:1062  for (uint i = 0; i < _proposalsAddr.length; i++) {\r... */\n      iszero\n      tag_71\n      jumpi\n        /* \"contracts/Voting.sol\":1032:1047  _proposalsNames */\n      dup2\n        /* \"contracts/Voting.sol\":1048:1049  i */\n      dup2\n        /* \"contracts/Voting.sol\":1032:1050  _proposalsNames[i] */\n      dup2\n      mload\n      dup2\n      lt\n      tag_73\n      jumpi\n      tag_74\n      tag_54\n      jump\t// in\n    tag_74:\n    tag_73:\n      0x20\n      mul\n      0x20\n      add\n      add\n      mload\n        /* \"contracts/Voting.sol\":1001:1010  proposals */\n      0x03\n        /* \"contracts/Voting.sol\":1001:1029  proposals[_proposalsAddr[i]] */\n      0x00\n        /* \"contracts/Voting.sol\":1011:1025  _proposalsAddr */\n      dup6\n        /* \"contracts/Voting.sol\":1026:1027  i */\n      dup5\n        /* \"contracts/Voting.sol\":1011:1028  _proposalsAddr[i] */\n      dup2\n      mload\n      dup2\n      lt\n      tag_75\n      jumpi\n      tag_76\n      tag_54\n      jump\t// in\n    tag_76:\n    tag_75:\n      0x20\n      mul\n      0x20\n      add\n      add\n      mload\n        /* \"contracts/Voting.sol\":1001:1029  proposals[_proposalsAddr[i]] */\n      0xffffffffffffffffffffffffffffffffffffffff\n      and\n      0xffffffffffffffffffffffffffffffffffffffff\n      and\n      dup2\n      mstore\n      0x20\n      add\n      swap1\n      dup2\n      mstore\n      0x20\n      add\n      0x00\n      keccak256\n        /* \"contracts/Voting.sol\":1001:1050  proposals[_proposalsAddr[i]] = _proposalsNames[i] */\n      dup2\n      swap1\n      sstore\n      pop\n        /* \"contracts/Voting.sol\":981:984  i++ */\n      dup1\n      dup1\n      tag_77\n      swap1\n      tag_63\n      jump\t// in\n    tag_77:\n      swap2\n      pop\n      pop\n        /* \"contracts/Voting.sol\":937:1062  for (uint i = 0; i < _proposalsAddr.length; i++) {\r... */\n      jump(tag_70)\n    tag_71:\n      pop\n        /* \"contracts/Voting.sol\":732:1069  function addProposals(address[] memory _proposalsAddr, \r... */\n      pop\n      pop\n      jump\t// out\n        /* \"#utility.yul\":24:746   */\n    tag_79:\n        /* \"#utility.yul\":120:125   */\n      0x00\n        /* \"#utility.yul\":145:226   */\n      tag_81\n        /* \"#utility.yul\":161:225   */\n      tag_82\n        /* \"#utility.yul\":218:224   */\n      dup5\n        /* \"#utility.yul\":161:225   */\n      tag_83\n      jump\t// in\n    tag_82:\n        /* \"#utility.yul\":145:226   */\n      tag_84\n      jump\t// in\n    tag_81:\n        /* \"#utility.yul\":136:226   */\n      swap1\n      pop\n        /* \"#utility.yul\":246:251   */\n      dup1\n        /* \"#utility.yul\":275:281   */\n      dup4\n        /* \"#utility.yul\":268:273   */\n      dup3\n        /* \"#utility.yul\":261:282   */\n      mstore\n        /* \"#utility.yul\":309:313   */\n      0x20\n        /* \"#utility.yul\":302:307   */\n      dup3\n        /* \"#utility.yul\":298:314   */\n      add\n        /* \"#utility.yul\":291:314   */\n      swap1\n      pop\n        /* \"#utility.yul\":335:341   */\n      dup3\n        /* \"#utility.yul\":385:388   */\n      dup6\n        /* \"#utility.yul\":377:381   */\n      0x20\n        /* \"#utility.yul\":369:375   */\n      dup7\n        /* \"#utility.yul\":365:382   */\n      mul\n        /* \"#utility.yul\":360:363   */\n      dup3\n        /* \"#utility.yul\":356:383   */\n      add\n        /* \"#utility.yul\":353:389   */\n      gt\n        /* \"#utility.yul\":350:493   */\n      iszero\n      tag_85\n      jumpi\n        /* \"#utility.yul\":404:483   */\n      tag_86\n      tag_87\n      jump\t// in\n    tag_86:\n        /* \"#utility.yul\":350:493   */\n    tag_85:\n        /* \"#utility.yul\":517:518   */\n      0x00\n        /* \"#utility.yul\":502:740   */\n    tag_88:\n        /* \"#utility.yul\":527:533   */\n      dup6\n        /* \"#utility.yul\":524:525   */\n      dup2\n        /* \"#utility.yul\":521:534   */\n      lt\n        /* \"#utility.yul\":502:740   */\n      iszero\n      tag_90\n      jumpi\n        /* \"#utility.yul\":595:598   */\n      dup2\n        /* \"#utility.yul\":624:661   */\n      tag_91\n        /* \"#utility.yul\":657:660   */\n      dup9\n        /* \"#utility.yul\":645:655   */\n      dup3\n        /* \"#utility.yul\":624:661   */\n      tag_92\n      jump\t// in\n    tag_91:\n        /* \"#utility.yul\":619:622   */\n      dup5\n        /* \"#utility.yul\":612:662   */\n      mstore\n        /* \"#utility.yul\":691:695   */\n      0x20\n        /* \"#utility.yul\":686:689   */\n      dup5\n        /* \"#utility.yul\":682:696   */\n      add\n        /* \"#utility.yul\":675:696   */\n      swap4\n      pop\n        /* \"#utility.yul\":725:729   */\n      0x20\n        /* \"#utility.yul\":720:723   */\n      dup4\n        /* \"#utility.yul\":716:730   */\n      add\n        /* \"#utility.yul\":709:730   */\n      swap3\n      pop\n        /* \"#utility.yul\":562:740   */\n      pop\n        /* \"#utility.yul\":549:550   */\n      0x01\n        /* \"#utility.yul\":546:547   */\n      dup2\n        /* \"#utility.yul\":542:551   */\n      add\n        /* \"#utility.yul\":537:551   */\n      swap1\n      pop\n        /* \"#utility.yul\":502:740   */\n      jump(tag_88)\n    tag_90:\n        /* \"#utility.yul\":506:520   */\n      pop\n        /* \"#utility.yul\":126:746   */\n      pop\n      pop\n        /* \"#utility.yul\":24:746   */\n      swap4\n      swap3\n      pop\n      pop\n      pop\n      jump\t// out\n        /* \"#utility.yul\":769:1491   */\n    tag_93:\n        /* \"#utility.yul\":865:870   */\n      0x00\n        /* \"#utility.yul\":890:971   */\n      tag_95\n        /* \"#utility.yul\":906:970   */\n      tag_96\n        /* \"#utility.yul\":963:969   */\n      dup5\n        /* \"#utility.yul\":906:970   */\n      tag_97\n      jump\t// in\n    tag_96:\n        /* \"#utility.yul\":890:971   */\n      tag_84\n      jump\t// in\n    tag_95:\n        /* \"#utility.yul\":881:971   */\n      swap1\n      pop\n        /* \"#utility.yul\":991:996   */\n      dup1\n        /* \"#utility.yul\":1020:1026   */\n      dup4\n        /* \"#utility.yul\":1013:1018   */\n      dup3\n        /* \"#utility.yul\":1006:1027   */\n      mstore\n        /* \"#utility.yul\":1054:1058   */\n      0x20\n        /* \"#utility.yul\":1047:1052   */\n      dup3\n        /* \"#utility.yul\":1043:1059   */\n      add\n        /* \"#utility.yul\":1036:1059   */\n      swap1\n      pop\n        /* \"#utility.yul\":1080:1086   */\n      dup3\n        /* \"#utility.yul\":1130:1133   */\n      dup6\n        /* \"#utility.yul\":1122:1126   */\n      0x20\n        /* \"#utility.yul\":1114:1120   */\n      dup7\n        /* \"#utility.yul\":1110:1127   */\n      mul\n        /* \"#utility.yul\":1105:1108   */\n      dup3\n        /* \"#utility.yul\":1101:1128   */\n      add\n        /* \"#utility.yul\":1098:1134   */\n      gt\n        /* \"#utility.yul\":1095:1238   */\n      iszero\n      tag_98\n      jumpi\n        /* \"#utility.yul\":1149:1228   */\n      tag_99\n      tag_87\n      jump\t// in\n    tag_99:\n        /* \"#utility.yul\":1095:1238   */\n    tag_98:\n        /* \"#utility.yul\":1262:1263   */\n      0x00\n        /* \"#utility.yul\":1247:1485   */\n    tag_100:\n        /* \"#utility.yul\":1272:1278   */\n      dup6\n        /* \"#utility.yul\":1269:1270   */\n      dup2\n        /* \"#utility.yul\":1266:1279   */\n      lt\n        /* \"#utility.yul\":1247:1485   */\n      iszero\n      tag_102\n      jumpi\n        /* \"#utility.yul\":1340:1343   */\n      dup2\n        /* \"#utility.yul\":1369:1406   */\n      tag_103\n        /* \"#utility.yul\":1402:1405   */\n      dup9\n        /* \"#utility.yul\":1390:1400   */\n      dup3\n        /* \"#utility.yul\":1369:1406   */\n      tag_104\n      jump\t// in\n    tag_103:\n        /* \"#utility.yul\":1364:1367   */\n      dup5\n        /* \"#utility.yul\":1357:1407   */\n      mstore\n        /* \"#utility.yul\":1436:1440   */\n      0x20\n        /* \"#utility.yul\":1431:1434   */\n      dup5\n        /* \"#utility.yul\":1427:1441   */\n      add\n        /* \"#utility.yul\":1420:1441   */\n      swap4\n      pop\n        /* \"#utility.yul\":1470:1474   */\n      0x20\n        /* \"#utility.yul\":1465:1468   */\n      dup4\n        /* \"#utility.yul\":1461:1475   */\n      add\n        /* \"#utility.yul\":1454:1475   */\n      swap3\n      pop\n        /* \"#utility.yul\":1307:1485   */\n      pop\n        /* \"#utility.yul\":1294:1295   */\n      0x01\n        /* \"#utility.yul\":1291:1292   */\n      dup2\n        /* \"#utility.yul\":1287:1296   */\n      add\n        /* \"#utility.yul\":1282:1296   */\n      swap1\n      pop\n        /* \"#utility.yul\":1247:1485   */\n      jump(tag_100)\n    tag_102:\n        /* \"#utility.yul\":1251:1265   */\n      pop\n        /* \"#utility.yul\":871:1491   */\n      pop\n      pop\n        /* \"#utility.yul\":769:1491   */\n      swap4\n      swap3\n      pop\n      pop\n      pop\n      jump\t// out\n        /* \"#utility.yul\":1497:1636   */\n    tag_92:\n        /* \"#utility.yul\":1543:1548   */\n      0x00\n        /* \"#utility.yul\":1581:1587   */\n      dup2\n        /* \"#utility.yul\":1568:1588   */\n      calldataload\n        /* \"#utility.yul\":1559:1588   */\n      swap1\n      pop\n        /* \"#utility.yul\":1597:1630   */\n      tag_106\n        /* \"#utility.yul\":1624:1629   */\n      dup2\n        /* \"#utility.yul\":1597:1630   */\n      tag_107\n      jump\t// in\n    tag_106:\n        /* \"#utility.yul\":1497:1636   */\n      swap3\n      swap2\n      pop\n      pop\n      jump\t// out\n        /* \"#utility.yul\":1659:2029   */\n    tag_108:\n        /* \"#utility.yul\":1730:1735   */\n      0x00\n        /* \"#utility.yul\":1779:1782   */\n      dup3\n        /* \"#utility.yul\":1772:1776   */\n      0x1f\n        /* \"#utility.yul\":1764:1770   */\n      dup4\n        /* \"#utility.yul\":1760:1777   */\n      add\n        /* \"#utility.yul\":1756:1783   */\n      slt\n        /* \"#utility.yul\":1746:1868   */\n      tag_110\n      jumpi\n        /* \"#utility.yul\":1787:1866   */\n      tag_111\n      tag_112\n      jump\t// in\n    tag_111:\n        /* \"#utility.yul\":1746:1868   */\n    tag_110:\n        /* \"#utility.yul\":1904:1910   */\n      dup2\n        /* \"#utility.yul\":1891:1911   */\n      calldataload\n        /* \"#utility.yul\":1929:2023   */\n      tag_113\n        /* \"#utility.yul\":2019:2022   */\n      dup5\n        /* \"#utility.yul\":2011:2017   */\n      dup3\n        /* \"#utility.yul\":2004:2008   */\n      0x20\n        /* \"#utility.yul\":1996:2002   */\n      dup7\n        /* \"#utility.yul\":1992:2009   */\n      add\n        /* \"#utility.yul\":1929:2023   */\n      tag_79\n      jump\t// in\n    tag_113:\n        /* \"#utility.yul\":1920:2023   */\n      swap2\n      pop\n        /* \"#utility.yul\":1736:2029   */\n      pop\n        /* \"#utility.yul\":1659:2029   */\n      swap3\n      swap2\n      pop\n      pop\n      jump\t// out\n        /* \"#utility.yul\":2052:2422   */\n    tag_114:\n        /* \"#utility.yul\":2123:2128   */\n      0x00\n        /* \"#utility.yul\":2172:2175   */\n      dup3\n        /* \"#utility.yul\":2165:2169   */\n      0x1f\n        /* \"#utility.yul\":2157:2163   */\n      dup4\n        /* \"#utility.yul\":2153:2170   */\n      add\n        /* \"#utility.yul\":2149:2176   */\n      slt\n        /* \"#utility.yul\":2139:2261   */\n      tag_116\n      jumpi\n        /* \"#utility.yul\":2180:2259   */\n      tag_117\n      tag_112\n      jump\t// in\n    tag_117:\n        /* \"#utility.yul\":2139:2261   */\n    tag_116:\n        /* \"#utility.yul\":2297:2303   */\n      dup2\n        /* \"#utility.yul\":2284:2304   */\n      calldataload\n        /* \"#utility.yul\":2322:2416   */\n      tag_118\n        /* \"#utility.yul\":2412:2415   */\n      dup5\n        /* \"#utility.yul\":2404:2410   */\n      dup3\n        /* \"#utility.yul\":2397:2401   */\n      0x20\n        /* \"#utility.yul\":2389:2395   */\n      dup7\n        /* \"#utility.yul\":2385:2402   */\n      add\n        /* \"#utility.yul\":2322:2416   */\n      tag_93\n      jump\t// in\n    tag_118:\n        /* \"#utility.yul\":2313:2416   */\n      swap2\n      pop\n        /* \"#utility.yul\":2129:2422   */\n      pop\n        /* \"#utility.yul\":2052:2422   */\n      swap3\n      swap2\n      pop\n      pop\n      jump\t// out\n        /* \"#utility.yul\":2428:2567   */\n    tag_104:\n        /* \"#utility.yul\":2474:2479   */\n      0x00\n        /* \"#utility.yul\":2512:2518   */\n      dup2\n        /* \"#utility.yul\":2499:2519   */\n      calldataload\n        /* \"#utility.yul\":2490:2519   */\n      swap1\n      pop\n        /* \"#utility.yul\":2528:2561   */\n      tag_120\n        /* \"#utility.yul\":2555:2560   */\n      dup2\n        /* \"#utility.yul\":2528:2561   */\n      tag_121\n      jump\t// in\n    tag_120:\n        /* \"#utility.yul\":2428:2567   */\n      swap3\n      swap2\n      pop\n      pop\n      jump\t// out\n        /* \"#utility.yul\":2573:2716   */\n    tag_122:\n        /* \"#utility.yul\":2630:2635   */\n      0x00\n        /* \"#utility.yul\":2661:2667   */\n      dup2\n        /* \"#utility.yul\":2655:2668   */\n      mload\n        /* \"#utility.yul\":2646:2668   */\n      swap1\n      pop\n        /* \"#utility.yul\":2677:2710   */\n      tag_124\n        /* \"#utility.yul\":2704:2709   */\n      dup2\n        /* \"#utility.yul\":2677:2710   */\n      tag_125\n      jump\t// in\n    tag_124:\n        /* \"#utility.yul\":2573:2716   */\n      swap3\n      swap2\n      pop\n      pop\n      jump\t// out\n        /* \"#utility.yul\":2722:3051   */\n    tag_9:\n        /* \"#utility.yul\":2781:2787   */\n      0x00\n        /* \"#utility.yul\":2830:2832   */\n      0x20\n        /* \"#utility.yul\":2818:2827   */\n      dup3\n        /* \"#utility.yul\":2809:2816   */\n      dup5\n        /* \"#utility.yul\":2805:2828   */\n      sub\n        /* \"#utility.yul\":2801:2833   */\n      slt\n        /* \"#utility.yul\":2798:2917   */\n      iszero\n      tag_127\n      jumpi\n        /* \"#utility.yul\":2836:2915   */\n      tag_128\n      tag_129\n      jump\t// in\n    tag_128:\n        /* \"#utility.yul\":2798:2917   */\n    tag_127:\n        /* \"#utility.yul\":2956:2957   */\n      0x00\n        /* \"#utility.yul\":2981:3034   */\n      tag_130\n        /* \"#utility.yul\":3026:3033   */\n      dup5\n        /* \"#utility.yul\":3017:3023   */\n      dup3\n        /* \"#utility.yul\":3006:3015   */\n      dup6\n        /* \"#utility.yul\":3002:3024   */\n      add\n        /* \"#utility.yul\":2981:3034   */\n      tag_92\n      jump\t// in\n    tag_130:\n        /* \"#utility.yul\":2971:3034   */\n      swap2\n      pop\n        /* \"#utility.yul\":2927:3044   */\n      pop\n        /* \"#utility.yul\":2722:3051   */\n      swap3\n      swap2\n      pop\n      pop\n      jump\t// out\n        /* \"#utility.yul\":3057:3596   */\n    tag_18:\n        /* \"#utility.yul\":3141:3147   */\n      0x00\n        /* \"#utility.yul\":3190:3192   */\n      0x20\n        /* \"#utility.yul\":3178:3187   */\n      dup3\n        /* \"#utility.yul\":3169:3176   */\n      dup5\n        /* \"#utility.yul\":3165:3188   */\n      sub\n        /* \"#utility.yul\":3161:3193   */\n      slt\n        /* \"#utility.yul\":3158:3277   */\n      iszero\n      tag_132\n      jumpi\n        /* \"#utility.yul\":3196:3275   */\n      tag_133\n      tag_129\n      jump\t// in\n    tag_133:\n        /* \"#utility.yul\":3158:3277   */\n    tag_132:\n        /* \"#utility.yul\":3344:3345   */\n      0x00\n        /* \"#utility.yul\":3333:3342   */\n      dup3\n        /* \"#utility.yul\":3329:3346   */\n      add\n        /* \"#utility.yul\":3316:3347   */\n      calldataload\n        /* \"#utility.yul\":3374:3392   */\n      0xffffffffffffffff\n        /* \"#utility.yul\":3366:3372   */\n      dup2\n        /* \"#utility.yul\":3363:3393   */\n      gt\n        /* \"#utility.yul\":3360:3477   */\n      iszero\n      tag_134\n      jumpi\n        /* \"#utility.yul\":3396:3475   */\n      tag_135\n      tag_136\n      jump\t// in\n    tag_135:\n        /* \"#utility.yul\":3360:3477   */\n    tag_134:\n        /* \"#utility.yul\":3501:3579   */\n      tag_137\n        /* \"#utility.yul\":3571:3578   */\n      dup5\n        /* \"#utility.yul\":3562:3568   */\n      dup3\n        /* \"#utility.yul\":3551:3560   */\n      dup6\n        /* \"#utility.yul\":3547:3569   */\n      add\n        /* \"#utility.yul\":3501:3579   */\n      tag_108\n      jump\t// in\n    tag_137:\n        /* \"#utility.yul\":3491:3579   */\n      swap2\n      pop\n        /* \"#utility.yul\":3287:3589   */\n      pop\n        /* \"#utility.yul\":3057:3596   */\n      swap3\n      swap2\n      pop\n      pop\n      jump\t// out\n        /* \"#utility.yul\":3602:4496   */\n    tag_22:\n        /* \"#utility.yul\":3720:3726   */\n      0x00\n        /* \"#utility.yul\":3728:3734   */\n      dup1\n        /* \"#utility.yul\":3777:3779   */\n      0x40\n        /* \"#utility.yul\":3765:3774   */\n      dup4\n        /* \"#utility.yul\":3756:3763   */\n      dup6\n        /* \"#utility.yul\":3752:3775   */\n      sub\n        /* \"#utility.yul\":3748:3780   */\n      slt\n        /* \"#utility.yul\":3745:3864   */\n      iszero\n      tag_139\n      jumpi\n        /* \"#utility.yul\":3783:3862   */\n      tag_140\n      tag_129\n      jump\t// in\n    tag_140:\n        /* \"#utility.yul\":3745:3864   */\n    tag_139:\n        /* \"#utility.yul\":3931:3932   */\n      0x00\n        /* \"#utility.yul\":3920:3929   */\n      dup4\n        /* \"#utility.yul\":3916:3933   */\n      add\n        /* \"#utility.yul\":3903:3934   */\n      calldataload\n        /* \"#utility.yul\":3961:3979   */\n      0xffffffffffffffff\n        /* \"#utility.yul\":3953:3959   */\n      dup2\n        /* \"#utility.yul\":3950:3980   */\n      gt\n        /* \"#utility.yul\":3947:4064   */\n      iszero\n      tag_141\n      jumpi\n        /* \"#utility.yul\":3983:4062   */\n      tag_142\n      tag_136\n      jump\t// in\n    tag_142:\n        /* \"#utility.yul\":3947:4064   */\n    tag_141:\n        /* \"#utility.yul\":4088:4166   */\n      tag_143\n        /* \"#utility.yul\":4158:4165   */\n      dup6\n        /* \"#utility.yul\":4149:4155   */\n      dup3\n        /* \"#utility.yul\":4138:4147   */\n      dup7\n        /* \"#utility.yul\":4134:4156   */\n      add\n        /* \"#utility.yul\":4088:4166   */\n      tag_108\n      jump\t// in\n    tag_143:\n        /* \"#utility.yul\":4078:4166   */\n      swap3\n      pop\n        /* \"#utility.yul\":3874:4176   */\n      pop\n        /* \"#utility.yul\":4243:4245   */\n      0x20\n        /* \"#utility.yul\":4232:4241   */\n      dup4\n        /* \"#utility.yul\":4228:4246   */\n      add\n        /* \"#utility.yul\":4215:4247   */\n      calldataload\n        /* \"#utility.yul\":4274:4292   */\n      0xffffffffffffffff\n        /* \"#utility.yul\":4266:4272   */\n      dup2\n        /* \"#utility.yul\":4263:4293   */\n      gt\n        /* \"#utility.yul\":4260:4377   */\n      iszero\n      tag_144\n      jumpi\n        /* \"#utility.yul\":4296:4375   */\n      tag_145\n      tag_136\n      jump\t// in\n    tag_145:\n        /* \"#utility.yul\":4260:4377   */\n    tag_144:\n        /* \"#utility.yul\":4401:4479   */\n      tag_146\n        /* \"#utility.yul\":4471:4478   */\n      dup6\n        /* \"#utility.yul\":4462:4468   */\n      dup3\n        /* \"#utility.yul\":4451:4460   */\n      dup7\n        /* \"#utility.yul\":4447:4469   */\n      add\n        /* \"#utility.yul\":4401:4479   */\n      tag_114\n      jump\t// in\n    tag_146:\n        /* \"#utility.yul\":4391:4479   */\n      swap2\n      pop\n        /* \"#utility.yul\":4186:4489   */\n      pop\n        /* \"#utility.yul\":3602:4496   */\n      swap3\n      pop\n      swap3\n      swap1\n      pop\n      jump\t// out\n        /* \"#utility.yul\":4502:4853   */\n    tag_33:\n        /* \"#utility.yul\":4572:4578   */\n      0x00\n        /* \"#utility.yul\":4621:4623   */\n      0x20\n        /* \"#utility.yul\":4609:4618   */\n      dup3\n        /* \"#utility.yul\":4600:4607   */\n      dup5\n        /* \"#utility.yul\":4596:4619   */\n      sub\n        /* \"#utility.yul\":4592:4624   */\n      slt\n        /* \"#utility.yul\":4589:4708   */\n      iszero\n      tag_148\n      jumpi\n        /* \"#utility.yul\":4627:4706   */\n      tag_149\n      tag_129\n      jump\t// in\n    tag_149:\n        /* \"#utility.yul\":4589:4708   */\n    tag_148:\n        /* \"#utility.yul\":4747:4748   */\n      0x00\n        /* \"#utility.yul\":4772:4836   */\n      tag_150\n        /* \"#utility.yul\":4828:4835   */\n      dup5\n        /* \"#utility.yul\":4819:4825   */\n      dup3\n        /* \"#utility.yul\":4808:4817   */\n      dup6\n        /* \"#utility.yul\":4804:4826   */\n      add\n        /* \"#utility.yul\":4772:4836   */\n      tag_122\n      jump\t// in\n    tag_150:\n        /* \"#utility.yul\":4762:4836   */\n      swap2\n      pop\n        /* \"#utility.yul\":4718:4846   */\n      pop\n        /* \"#utility.yul\":4502:4853   */\n      swap3\n      swap2\n      pop\n      pop\n      jump\t// out\n        /* \"#utility.yul\":4859:4977   */\n    tag_151:\n        /* \"#utility.yul\":4946:4970   */\n      tag_153\n        /* \"#utility.yul\":4964:4969   */\n      dup2\n        /* \"#utility.yul\":4946:4970   */\n      tag_154\n      jump\t// in\n    tag_153:\n        /* \"#utility.yul\":4941:4944   */\n      dup3\n        /* \"#utility.yul\":4934:4971   */\n      mstore\n        /* \"#utility.yul\":4859:4977   */\n      pop\n      pop\n      jump\t// out\n        /* \"#utility.yul\":4983:5130   */\n    tag_155:\n        /* \"#utility.yul\":5078:5123   */\n      tag_157\n        /* \"#utility.yul\":5117:5122   */\n      dup2\n        /* \"#utility.yul\":5078:5123   */\n      tag_158\n      jump\t// in\n    tag_157:\n        /* \"#utility.yul\":5073:5076   */\n      dup3\n        /* \"#utility.yul\":5066:5124   */\n      mstore\n        /* \"#utility.yul\":4983:5130   */\n      pop\n      pop\n      jump\t// out\n        /* \"#utility.yul\":5136:5254   */\n    tag_159:\n        /* \"#utility.yul\":5223:5247   */\n      tag_161\n        /* \"#utility.yul\":5241:5246   */\n      dup2\n        /* \"#utility.yul\":5223:5247   */\n      tag_162\n      jump\t// in\n    tag_161:\n        /* \"#utility.yul\":5218:5221   */\n      dup3\n        /* \"#utility.yul\":5211:5248   */\n      mstore\n        /* \"#utility.yul\":5136:5254   */\n      pop\n      pop\n      jump\t// out\n        /* \"#utility.yul\":5260:5482   */\n    tag_28:\n        /* \"#utility.yul\":5353:5357   */\n      0x00\n        /* \"#utility.yul\":5391:5393   */\n      0x20\n        /* \"#utility.yul\":5380:5389   */\n      dup3\n        /* \"#utility.yul\":5376:5394   */\n      add\n        /* \"#utility.yul\":5368:5394   */\n      swap1\n      pop\n        /* \"#utility.yul\":5404:5475   */\n      tag_164\n        /* \"#utility.yul\":5472:5473   */\n      0x00\n        /* \"#utility.yul\":5461:5470   */\n      dup4\n        /* \"#utility.yul\":5457:5474   */\n      add\n        /* \"#utility.yul\":5448:5454   */\n      dup5\n        /* \"#utility.yul\":5404:5475   */\n      tag_151\n      jump\t// in\n    tag_164:\n        /* \"#utility.yul\":5260:5482   */\n      swap3\n      swap2\n      pop\n      pop\n      jump\t// out\n        /* \"#utility.yul\":5488:5946   */\n    tag_44:\n        /* \"#utility.yul\":5645:5649   */\n      0x00\n        /* \"#utility.yul\":5683:5685   */\n      0x60\n        /* \"#utility.yul\":5672:5681   */\n      dup3\n        /* \"#utility.yul\":5668:5686   */\n      add\n        /* \"#utility.yul\":5660:5686   */\n      swap1\n      pop\n        /* \"#utility.yul\":5696:5767   */\n      tag_166\n        /* \"#utility.yul\":5764:5765   */\n      0x00\n        /* \"#utility.yul\":5753:5762   */\n      dup4\n        /* \"#utility.yul\":5749:5766   */\n      add\n        /* \"#utility.yul\":5740:5746   */\n      dup7\n        /* \"#utility.yul\":5696:5767   */\n      tag_151\n      jump\t// in\n    tag_166:\n        /* \"#utility.yul\":5777:5849   */\n      tag_167\n        /* \"#utility.yul\":5845:5847   */\n      0x20\n        /* \"#utility.yul\":5834:5843   */\n      dup4\n        /* \"#utility.yul\":5830:5848   */\n      add\n        /* \"#utility.yul\":5821:5827   */\n      dup6\n        /* \"#utility.yul\":5777:5849   */\n      tag_151\n      jump\t// in\n    tag_167:\n        /* \"#utility.yul\":5859:5939   */\n      tag_168\n        /* \"#utility.yul\":5935:5937   */\n      0x40\n        /* \"#utility.yul\":5924:5933   */\n      dup4\n        /* \"#utility.yul\":5920:5938   */\n      add\n        /* \"#utility.yul\":5911:5917   */\n      dup5\n        /* \"#utility.yul\":5859:5939   */\n      tag_155\n      jump\t// in\n    tag_168:\n        /* \"#utility.yul\":5488:5946   */\n      swap5\n      swap4\n      pop\n      pop\n      pop\n      pop\n      jump\t// out\n        /* \"#utility.yul\":5952:6300   */\n    tag_58:\n        /* \"#utility.yul\":6081:6085   */\n      0x00\n        /* \"#utility.yul\":6119:6121   */\n      0x40\n        /* \"#utility.yul\":6108:6117   */\n      dup3\n        /* \"#utility.yul\":6104:6122   */\n      add\n        /* \"#utility.yul\":6096:6122   */\n      swap1\n      pop\n        /* \"#utility.yul\":6132:6203   */\n      tag_170\n        /* \"#utility.yul\":6200:6201   */\n      0x00\n        /* \"#utility.yul\":6189:6198   */\n      dup4\n        /* \"#utility.yul\":6185:6202   */\n      add\n        /* \"#utility.yul\":6176:6182   */\n      dup6\n        /* \"#utility.yul\":6132:6203   */\n      tag_151\n      jump\t// in\n    tag_170:\n        /* \"#utility.yul\":6213:6293   */\n      tag_171\n        /* \"#utility.yul\":6289:6291   */\n      0x20\n        /* \"#utility.yul\":6278:6287   */\n      dup4\n        /* \"#utility.yul\":6274:6292   */\n      add\n        /* \"#utility.yul\":6265:6271   */\n      dup5\n        /* \"#utility.yul\":6213:6293   */\n      tag_155\n      jump\t// in\n    tag_171:\n        /* \"#utility.yul\":5952:6300   */\n      swap4\n      swap3\n      pop\n      pop\n      pop\n      jump\t// out\n        /* \"#utility.yul\":6306:6528   */\n    tag_12:\n        /* \"#utility.yul\":6399:6403   */\n      0x00\n        /* \"#utility.yul\":6437:6439   */\n      0x20\n        /* \"#utility.yul\":6426:6435   */\n      dup3\n        /* \"#utility.yul\":6422:6440   */\n      add\n        /* \"#utility.yul\":6414:6440   */\n      swap1\n      pop\n        /* \"#utility.yul\":6450:6521   */\n      tag_173\n        /* \"#utility.yul\":6518:6519   */\n      0x00\n        /* \"#utility.yul\":6507:6516   */\n      dup4\n        /* \"#utility.yul\":6503:6520   */\n      add\n        /* \"#utility.yul\":6494:6500   */\n      dup5\n        /* \"#utility.yul\":6450:6521   */\n      tag_159\n      jump\t// in\n    tag_173:\n        /* \"#utility.yul\":6306:6528   */\n      swap3\n      swap2\n      pop\n      pop\n      jump\t// out\n        /* \"#utility.yul\":6534:6663   */\n    tag_84:\n        /* \"#utility.yul\":6568:6574   */\n      0x00\n        /* \"#utility.yul\":6595:6615   */\n      tag_175\n      tag_176\n      jump\t// in\n    tag_175:\n        /* \"#utility.yul\":6585:6615   */\n      swap1\n      pop\n        /* \"#utility.yul\":6624:6657   */\n      tag_177\n        /* \"#utility.yul\":6652:6656   */\n      dup3\n        /* \"#utility.yul\":6644:6650   */\n      dup3\n        /* \"#utility.yul\":6624:6657   */\n      tag_178\n      jump\t// in\n    tag_177:\n        /* \"#utility.yul\":6534:6663   */\n      swap2\n      swap1\n      pop\n      jump\t// out\n        /* \"#utility.yul\":6669:6744   */\n    tag_176:\n        /* \"#utility.yul\":6702:6708   */\n      0x00\n        /* \"#utility.yul\":6735:6737   */\n      0x40\n        /* \"#utility.yul\":6729:6738   */\n      mload\n        /* \"#utility.yul\":6719:6738   */\n      swap1\n      pop\n        /* \"#utility.yul\":6669:6744   */\n      swap1\n      jump\t// out\n        /* \"#utility.yul\":6750:7061   */\n    tag_83:\n        /* \"#utility.yul\":6827:6831   */\n      0x00\n        /* \"#utility.yul\":6917:6935   */\n      0xffffffffffffffff\n        /* \"#utility.yul\":6909:6915   */\n      dup3\n        /* \"#utility.yul\":6906:6936   */\n      gt\n        /* \"#utility.yul\":6903:6959   */\n      iszero\n      tag_181\n      jumpi\n        /* \"#utility.yul\":6939:6957   */\n      tag_182\n      tag_183\n      jump\t// in\n    tag_182:\n        /* \"#utility.yul\":6903:6959   */\n    tag_181:\n        /* \"#utility.yul\":6989:6993   */\n      0x20\n        /* \"#utility.yul\":6981:6987   */\n      dup3\n        /* \"#utility.yul\":6977:6994   */\n      mul\n        /* \"#utility.yul\":6969:6994   */\n      swap1\n      pop\n        /* \"#utility.yul\":7049:7053   */\n      0x20\n        /* \"#utility.yul\":7043:7047   */\n      dup2\n        /* \"#utility.yul\":7039:7054   */\n      add\n        /* \"#utility.yul\":7031:7054   */\n      swap1\n      pop\n        /* \"#utility.yul\":6750:7061   */\n      swap2\n      swap1\n      pop\n      jump\t// out\n        /* \"#utility.yul\":7067:7378   */\n    tag_97:\n        /* \"#utility.yul\":7144:7148   */\n      0x00\n        /* \"#utility.yul\":7234:7252   */\n      0xffffffffffffffff\n        /* \"#utility.yul\":7226:7232   */\n      dup3\n        /* \"#utility.yul\":7223:7253   */\n      gt\n        /* \"#utility.yul\":7220:7276   */\n      iszero\n      tag_185\n      jumpi\n        /* \"#utility.yul\":7256:7274   */\n      tag_186\n      tag_183\n      jump\t// in\n    tag_186:\n        /* \"#utility.yul\":7220:7276   */\n    tag_185:\n        /* \"#utility.yul\":7306:7310   */\n      0x20\n        /* \"#utility.yul\":7298:7304   */\n      dup3\n        /* \"#utility.yul\":7294:7311   */\n      mul\n        /* \"#utility.yul\":7286:7311   */\n      swap1\n      pop\n        /* \"#utility.yul\":7366:7370   */\n      0x20\n        /* \"#utility.yul\":7360:7364   */\n      dup2\n        /* \"#utility.yul\":7356:7371   */\n      add\n        /* \"#utility.yul\":7348:7371   */\n      swap1\n      pop\n        /* \"#utility.yul\":7067:7378   */\n      swap2\n      swap1\n      pop\n      jump\t// out\n        /* \"#utility.yul\":7384:7480   */\n    tag_154:\n        /* \"#utility.yul\":7421:7428   */\n      0x00\n        /* \"#utility.yul\":7450:7474   */\n      tag_188\n        /* \"#utility.yul\":7468:7473   */\n      dup3\n        /* \"#utility.yul\":7450:7474   */\n      tag_189\n      jump\t// in\n    tag_188:\n        /* \"#utility.yul\":7439:7474   */\n      swap1\n      pop\n        /* \"#utility.yul\":7384:7480   */\n      swap2\n      swap1\n      pop\n      jump\t// out\n        /* \"#utility.yul\":7486:7563   */\n    tag_190:\n        /* \"#utility.yul\":7523:7530   */\n      0x00\n        /* \"#utility.yul\":7552:7557   */\n      dup2\n        /* \"#utility.yul\":7541:7557   */\n      swap1\n      pop\n        /* \"#utility.yul\":7486:7563   */\n      swap2\n      swap1\n      pop\n      jump\t// out\n        /* \"#utility.yul\":7569:7695   */\n    tag_189:\n        /* \"#utility.yul\":7606:7613   */\n      0x00\n        /* \"#utility.yul\":7646:7688   */\n      0xffffffffffffffffffffffffffffffffffffffff\n        /* \"#utility.yul\":7639:7644   */\n      dup3\n        /* \"#utility.yul\":7635:7689   */\n      and\n        /* \"#utility.yul\":7624:7689   */\n      swap1\n      pop\n        /* \"#utility.yul\":7569:7695   */\n      swap2\n      swap1\n      pop\n      jump\t// out\n        /* \"#utility.yul\":7701:7778   */\n    tag_162:\n        /* \"#utility.yul\":7738:7745   */\n      0x00\n        /* \"#utility.yul\":7767:7772   */\n      dup2\n        /* \"#utility.yul\":7756:7772   */\n      swap1\n      pop\n        /* \"#utility.yul\":7701:7778   */\n      swap2\n      swap1\n      pop\n      jump\t// out\n        /* \"#utility.yul\":7784:7905   */\n    tag_158:\n        /* \"#utility.yul\":7842:7851   */\n      0x00\n        /* \"#utility.yul\":7875:7899   */\n      tag_195\n        /* \"#utility.yul\":7893:7898   */\n      dup3\n        /* \"#utility.yul\":7875:7899   */\n      tag_162\n      jump\t// in\n    tag_195:\n        /* \"#utility.yul\":7862:7899   */\n      swap1\n      pop\n        /* \"#utility.yul\":7784:7905   */\n      swap2\n      swap1\n      pop\n      jump\t// out\n        /* \"#utility.yul\":7911:8192   */\n    tag_178:\n        /* \"#utility.yul\":7994:8021   */\n      tag_197\n        /* \"#utility.yul\":8016:8020   */\n      dup3\n        /* \"#utility.yul\":7994:8021   */\n      tag_198\n      jump\t// in\n    tag_197:\n        /* \"#utility.yul\":7986:7992   */\n      dup2\n        /* \"#utility.yul\":7982:8022   */\n      add\n        /* \"#utility.yul\":8124:8130   */\n      dup2\n        /* \"#utility.yul\":8112:8122   */\n      dup2\n        /* \"#utility.yul\":8109:8131   */\n      lt\n        /* \"#utility.yul\":8088:8106   */\n      0xffffffffffffffff\n        /* \"#utility.yul\":8076:8086   */\n      dup3\n        /* \"#utility.yul\":8073:8107   */\n      gt\n        /* \"#utility.yul\":8070:8132   */\n      or\n        /* \"#utility.yul\":8067:8155   */\n      iszero\n      tag_199\n      jumpi\n        /* \"#utility.yul\":8135:8153   */\n      tag_200\n      tag_183\n      jump\t// in\n    tag_200:\n        /* \"#utility.yul\":8067:8155   */\n    tag_199:\n        /* \"#utility.yul\":8175:8185   */\n      dup1\n        /* \"#utility.yul\":8171:8173   */\n      0x40\n        /* \"#utility.yul\":8164:8186   */\n      mstore\n        /* \"#utility.yul\":7954:8192   */\n      pop\n        /* \"#utility.yul\":7911:8192   */\n      pop\n      pop\n      jump\t// out\n        /* \"#utility.yul\":8198:8431   */\n    tag_63:\n        /* \"#utility.yul\":8237:8240   */\n      0x00\n        /* \"#utility.yul\":8260:8284   */\n      tag_202\n        /* \"#utility.yul\":8278:8283   */\n      dup3\n        /* \"#utility.yul\":8260:8284   */\n      tag_162\n      jump\t// in\n    tag_202:\n        /* \"#utility.yul\":8251:8284   */\n      swap2\n      pop\n        /* \"#utility.yul\":8306:8372   */\n      0xffffffffffffffffffffffffffffffffffffffffffffffffffffffffffffffff\n        /* \"#utility.yul\":8299:8304   */\n      dup3\n        /* \"#utility.yul\":8296:8373   */\n      eq\n        /* \"#utility.yul\":8293:8396   */\n      iszero\n      tag_203\n      jumpi\n        /* \"#utility.yul\":8376:8394   */\n      tag_204\n      tag_205\n      jump\t// in\n    tag_204:\n        /* \"#utility.yul\":8293:8396   */\n    tag_203:\n        /* \"#utility.yul\":8423:8424   */\n      0x01\n        /* \"#utility.yul\":8416:8421   */\n      dup3\n        /* \"#utility.yul\":8412:8425   */\n      add\n        /* \"#utility.yul\":8405:8425   */\n      swap1\n      pop\n        /* \"#utility.yul\":8198:8431   */\n      swap2\n      swap1\n      pop\n      jump\t// out\n        /* \"#utility.yul\":8437:8617   */\n    tag_205:\n        /* \"#utility.yul\":8485:8562   */\n      0x4e487b7100000000000000000000000000000000000000000000000000000000\n        /* \"#utility.yul\":8482:8483   */\n      0x00\n        /* \"#utility.yul\":8475:8563   */\n      mstore\n        /* \"#utility.yul\":8582:8586   */\n      0x11\n        /* \"#utility.yul\":8579:8580   */\n      0x04\n        /* \"#utility.yul\":8572:8587   */\n      mstore\n        /* \"#utility.yul\":8606:8610   */\n      0x24\n        /* \"#utility.yul\":8603:8604   */\n      0x00\n        /* \"#utility.yul\":8596:8611   */\n      revert\n        /* \"#utility.yul\":8623:8803   */\n    tag_54:\n        /* \"#utility.yul\":8671:8748   */\n      0x4e487b7100000000000000000000000000000000000000000000000000000000\n        /* \"#utility.yul\":8668:8669   */\n      0x00\n        /* \"#utility.yul\":8661:8749   */\n      mstore\n        /* \"#utility.yul\":8768:8772   */\n      0x32\n        /* \"#utility.yul\":8765:8766   */\n      0x04\n        /* \"#utility.yul\":8758:8773   */\n      mstore\n        /* \"#utility.yul\":8792:8796   */\n      0x24\n        /* \"#utility.yul\":8789:8790   */\n      0x00\n        /* \"#utility.yul\":8782:8797   */\n      revert\n        /* \"#utility.yul\":8809:8989   */\n    tag_183:\n        /* \"#utility.yul\":8857:8934   */\n      0x4e487b7100000000000000000000000000000000000000000000000000000000\n        /* \"#utility.yul\":8854:8855   */\n      0x00\n        /* \"#utility.yul\":8847:8935   */\n      mstore\n        /* \"#utility.yul\":8954:8958   */\n      0x41\n        /* \"#utility.yul\":8951:8952   */\n      0x04\n        /* \"#utility.yul\":8944:8959   */\n      mstore\n        /* \"#utility.yul\":8978:8982   */\n      0x24\n        /* \"#utility.yul\":8975:8976   */\n      0x00\n        /* \"#utility.yul\":8968:8983   */\n      revert\n        /* \"#utility.yul\":8995:9112   */\n    tag_112:\n        /* \"#utility.yul\":9104:9105   */\n      0x00\n        /* \"#utility.yul\":9101:9102   */\n      dup1\n        /* \"#utility.yul\":9094:9106   */\n      revert\n        /* \"#utility.yul\":9118:9235   */\n    tag_87:\n        /* \"#utility.yul\":9227:9228   */\n      0x00\n        /* \"#utility.yul\":9224:9225   */\n      dup1\n        /* \"#utility.yul\":9217:9229   */\n      revert\n        /* \"#utility.yul\":9241:9358   */\n    tag_136:\n        /* \"#utility.yul\":9350:9351   */\n      0x00\n        /* \"#utility.yul\":9347:9348   */\n      dup1\n        /* \"#utility.yul\":9340:9352   */\n      revert\n        /* \"#utility.yul\":9364:9481   */\n    tag_129:\n        /* \"#utility.yul\":9473:9474   */\n      0x00\n        /* \"#utility.yul\":9470:9471   */\n      dup1\n        /* \"#utility.yul\":9463:9475   */\n      revert\n        /* \"#utility.yul\":9487:9589   */\n    tag_198:\n        /* \"#utility.yul\":9528:9534   */\n      0x00\n        /* \"#utility.yul\":9579:9581   */\n      0x1f\n        /* \"#utility.yul\":9575:9582   */\n      not\n        /* \"#utility.yul\":9570:9572   */\n      0x1f\n        /* \"#utility.yul\":9563:9568   */\n      dup4\n        /* \"#utility.yul\":9559:9573   */\n      add\n        /* \"#utility.yul\":9555:9583   */\n      and\n        /* \"#utility.yul\":9545:9583   */\n      swap1\n      pop\n        /* \"#utility.yul\":9487:9589   */\n      swap2\n      swap1\n      pop\n      jump\t// out\n        /* \"#utility.yul\":9595:9717   */\n    tag_107:\n        /* \"#utility.yul\":9668:9692   */\n      tag_215\n        /* \"#utility.yul\":9686:9691   */\n      dup2\n        /* \"#utility.yul\":9668:9692   */\n      tag_154\n      jump\t// in\n    tag_215:\n        /* \"#utility.yul\":9661:9666   */\n      dup2\n        /* \"#utility.yul\":9658:9693   */\n      eq\n        /* \"#utility.yul\":9648:9711   */\n      tag_216\n      jumpi\n        /* \"#utility.yul\":9707:9708   */\n      0x00\n        /* \"#utility.yul\":9704:9705   */\n      dup1\n        /* \"#utility.yul\":9697:9709   */\n      revert\n        /* \"#utility.yul\":9648:9711   */\n    tag_216:\n        /* \"#utility.yul\":9595:9717   */\n      pop\n      jump\t// out\n        /* \"#utility.yul\":9723:9845   */\n    tag_121:\n        /* \"#utility.yul\":9796:9820   */\n      tag_218\n        /* \"#utility.yul\":9814:9819   */\n      dup2\n        /* \"#utility.yul\":9796:9820   */\n      tag_190\n      jump\t// in\n    tag_218:\n        /* \"#utility.yul\":9789:9794   */\n      dup2\n        /* \"#utility.yul\":9786:9821   */\n      eq\n        /* \"#utility.yul\":9776:9839   */\n      tag_219\n      jumpi\n        /* \"#utility.yul\":9835:9836   */\n      0x00\n        /* \"#utility.yul\":9832:9833   */\n      dup1\n        /* \"#utility.yul\":9825:9837   */\n      revert\n        /* \"#utility.yul\":9776:9839   */\n    tag_219:\n        /* \"#utility.yul\":9723:9845   */\n      pop\n      jump\t// out\n        /* \"#utility.yul\":9851:9973   */\n    tag_125:\n        /* \"#utility.yul\":9924:9948   */\n      tag_221\n        /* \"#utility.yul\":9942:9947   */\n      dup2\n        /* \"#utility.yul\":9924:9948   */\n      tag_162\n      jump\t// in\n    tag_221:\n        /* \"#utility.yul\":9917:9922   */\n      dup2\n        /* \"#utility.yul\":9914:9949   */\n      eq\n        /* \"#utility.yul\":9904:9967   */\n      tag_222\n      jumpi\n        /* \"#utility.yul\":9963:9964   */\n      0x00\n        /* \"#utility.yul\":9960:9961   */\n      dup1\n        /* \"#utility.yul\":9953:9965   */\n      revert\n        /* \"#utility.yul\":9904:9967   */\n    tag_222:\n        /* \"#utility.yul\":9851:9973   */\n      pop\n      jump\t// out\n\n    auxdata: 0xa26469706673582212208b71a039c32134eff0cd239fd3d30a36484acb2f92dc261f7be5094dbbfc808a64736f6c63430008070033\n}\n\nsub_1: assembly {\n        /* \"contracts/Token.sol\":99:289  contract Token is ERC20Standard {\r... */\n      mstore(0x40, 0x80)\n        /* \"contracts/Token.sol\":141:286  constructor() {\r... */\n      callvalue\n      dup1\n      iszero\n      tag_1\n      jumpi\n      0x00\n      dup1\n      revert\n    tag_1:\n      pop\n        /* \"contracts/Token.sol\":178:179  0 */\n      0x00\n        /* \"contracts/Token.sol\":164:175  totalSupply */\n      dup1\n        /* \"contracts/Token.sol\":164:179  totalSupply = 0 */\n      dup2\n      swap1\n      sstore\n      pop\n        /* \"contracts/Token.sol\":188:210  name = \"E-Voting coin\" */\n      mload(0x40)\n      dup1\n      0x40\n      add\n      0x40\n      mstore\n      dup1\n      0x0d\n      dup2\n      mstore\n      0x20\n      add\n      0x452d566f74696e6720636f696e00000000000000000000000000000000000000\n      dup2\n      mstore\n      pop\n        /* \"contracts/Token.sol\":188:192  name */\n      0x01\n        /* \"contracts/Token.sol\":188:210  name = \"E-Voting coin\" */\n      swap1\n      dup1\n      mload\n      swap1\n      0x20\n      add\n      swap1\n      tag_4\n      swap3\n      swap2\n      swap1\n      tag_5\n      jump\t// in\n    tag_4:\n      pop\n        /* \"contracts/Token.sol\":230:231  4 */\n      0x04\n        /* \"contracts/Token.sol\":219:227  decimals */\n      0x02\n      0x00\n        /* \"contracts/Token.sol\":219:231  decimals = 4 */\n      0x0100\n      exp\n      dup2\n      sload\n      dup2\n      0xff\n      mul\n      not\n      and\n      swap1\n      dup4\n      0xff\n      and\n      mul\n      or\n      swap1\n      sstore\n      pop\n        /* \"contracts/Token.sol\":240:254  symbol = \"EVC\" */\n      mload(0x40)\n      dup1\n      0x40\n      add\n      0x40\n      mstore\n      dup1\n      0x03\n      dup2\n      mstore\n      0x20\n      add\n      0x4556430000000000000000000000000000000000000000000000000000000000\n      dup2\n      mstore\n      pop\n        /* \"contracts/Token.sol\":240:246  symbol */\n      0x03\n        /* \"contracts/Token.sol\":240:254  symbol = \"EVC\" */\n      swap1\n      dup1\n      mload\n      swap1\n      0x20\n      add\n      swap1\n      tag_6\n      swap3\n      swap2\n      swap1\n      tag_5\n      jump\t// in\n    tag_6:\n      pop\n        /* \"contracts/Token.sol\":263:278  version = \"1.0\" */\n      mload(0x40)\n      dup1\n      0x40\n      add\n      0x40\n      mstore\n      dup1\n      0x03\n      dup2\n      mstore\n      0x20\n      add\n      0x312e300000000000000000000000000000000000000000000000000000000000\n      dup2\n      mstore\n      pop\n        /* \"contracts/Token.sol\":263:270  version */\n      0x04\n        /* \"contracts/Token.sol\":263:278  version = \"1.0\" */\n      swap1\n      dup1\n      mload\n      swap1\n      0x20\n      add\n      swap1\n      tag_7\n      swap3\n      swap2\n      swap1\n      tag_5\n      jump\t// in\n    tag_7:\n      pop\n        /* \"contracts/Token.sol\":99:289  contract Token is ERC20Standard {\r... */\n      jump(tag_8)\n    tag_5:\n      dup3\n      dup1\n      sload\n      tag_9\n      swap1\n      tag_10\n      jump\t// in\n    tag_9:\n      swap1\n      0x00\n      mstore\n      keccak256(0x00, 0x20)\n      swap1\n      0x1f\n      add\n      0x20\n      swap1\n      div\n      dup2\n      add\n      swap3\n      dup3\n      tag_12\n      jumpi\n      0x00\n      dup6\n      sstore\n      jump(tag_11)\n    tag_12:\n      dup3\n      0x1f\n      lt\n      tag_13\n      jumpi\n      dup1\n      mload\n      not(0xff)\n      and\n      dup4\n      dup1\n      add\n      or\n      dup6\n      sstore\n      jump(tag_11)\n    tag_13:\n      dup3\n      dup1\n      add\n      0x01\n      add\n      dup6\n      sstore\n      dup3\n      iszero\n      tag_11\n      jumpi\n      swap2\n      dup3\n      add\n    tag_14:\n      dup3\n      dup2\n      gt\n      iszero\n      tag_15\n      jumpi\n      dup3\n      mload\n      dup3\n      sstore\n      swap2\n      0x20\n      add\n      swap2\n      swap1\n      0x01\n      add\n      swap1\n      jump(tag_14)\n    tag_15:\n    tag_11:\n      pop\n      swap1\n      pop\n      tag_16\n      swap2\n      swap1\n      tag_17\n      jump\t// in\n    tag_16:\n      pop\n      swap1\n      jump\t// out\n    tag_17:\n    tag_18:\n      dup1\n      dup3\n      gt\n      iszero\n      tag_19\n      jumpi\n      0x00\n      dup2\n      0x00\n      swap1\n      sstore\n      pop\n      0x01\n      add\n      jump(tag_18)\n    tag_19:\n      pop\n      swap1\n      jump\t// out\n        /* \"#utility.yul\":7:327   */\n    tag_10:\n        /* \"#utility.yul\":51:57   */\n      0x00\n        /* \"#utility.yul\":88:89   */\n      0x02\n        /* \"#utility.yul\":82:86   */\n      dup3\n        /* \"#utility.yul\":78:90   */\n      div\n        /* \"#utility.yul\":68:90   */\n      swap1\n      pop\n        /* \"#utility.yul\":135:136   */\n      0x01\n        /* \"#utility.yul\":129:133   */\n      dup3\n        /* \"#utility.yul\":125:137   */\n      and\n        /* \"#utility.yul\":156:174   */\n      dup1\n        /* \"#utility.yul\":146:227   */\n      tag_22\n      jumpi\n        /* \"#utility.yul\":212:216   */\n      0x7f\n        /* \"#utility.yul\":204:210   */\n      dup3\n        /* \"#utility.yul\":200:217   */\n      and\n        /* \"#utility.yul\":190:217   */\n      swap2\n      pop\n        /* \"#utility.yul\":146:227   */\n    tag_22:\n        /* \"#utility.yul\":274:276   */\n      0x20\n        /* \"#utility.yul\":266:272   */\n      dup3\n        /* \"#utility.yul\":263:277   */\n      lt\n        /* \"#utility.yul\":243:261   */\n      dup2\n        /* \"#utility.yul\":240:278   */\n      eq\n        /* \"#utility.yul\":237:321   */\n      iszero\n      tag_23\n      jumpi\n        /* \"#utility.yul\":293:311   */\n      tag_24\n      tag_25\n      jump\t// in\n    tag_24:\n        /* \"#utility.yul\":237:321   */\n    tag_23:\n        /* \"#utility.yul\":58:327   */\n      pop\n        /* \"#utility.yul\":7:327   */\n      swap2\n      swap1\n      pop\n      jump\t// out\n        /* \"#utility.yul\":333:513   */\n    tag_25:\n        /* \"#utility.yul\":381:458   */\n      0x4e487b7100000000000000000000000000000000000000000000000000000000\n        /* \"#utility.yul\":378:379   */\n      0x00\n        /* \"#utility.yul\":371:459   */\n      mstore\n        /* \"#utility.yul\":478:482   */\n      0x22\n        /* \"#utility.yul\":475:476   */\n      0x04\n        /* \"#utility.yul\":468:483   */\n      mstore\n        /* \"#utility.yul\":502:506   */\n      0x24\n        /* \"#utility.yul\":499:500   */\n      0x00\n        /* \"#utility.yul\":492:507   */\n      revert\n        /* \"contracts/Token.sol\":99:289  contract Token is ERC20Standard {\r... */\n    tag_8:\n      dataSize(sub_0)\n      dup1\n      dataOffset(sub_0)\n      0x00\n      codecopy\n      0x00\n      return\n    stop\n\n    sub_0: assembly {\n            /* \"contracts/Token.sol\":99:289  contract Token is ERC20Standard {\r... */\n          mstore(0x40, 0x80)\n          callvalue\n          dup1\n          iszero\n          tag_1\n          jumpi\n          0x00\n          dup1\n          revert\n        tag_1:\n          pop\n          jumpi(tag_2, lt(calldatasize, 0x04))\n          shr(0xe0, calldataload(0x00))\n          dup1\n          0x40c10f19\n          gt\n          tag_14\n          jumpi\n          dup1\n          0x40c10f19\n          eq\n          tag_8\n          jumpi\n          dup1\n          0x54fd4d50\n          eq\n          tag_9\n          jumpi\n          dup1\n          0x70a08231\n          eq\n          tag_10\n          jumpi\n          dup1\n          0x95d89b41\n          eq\n          tag_11\n          jumpi\n          dup1\n          0xa9059cbb\n          eq\n          tag_12\n          jumpi\n          dup1\n          0xdd62ed3e\n          eq\n          tag_13\n          jumpi\n          jump(tag_2)\n        tag_14:\n          dup1\n          0x06fdde03\n          eq\n          tag_3\n          jumpi\n          dup1\n          0x095ea7b3\n          eq\n          tag_4\n          jumpi\n          dup1\n          0x18160ddd\n          eq\n          tag_5\n          jumpi\n          dup1\n          0x23b872dd\n          eq\n          tag_6\n          jumpi\n          dup1\n          0x313ce567\n          eq\n          tag_7\n          jumpi\n        tag_2:\n          0x00\n          dup1\n          revert\n            /* \"contracts/ERC20Standard.sol\":1005:1023  string public name */\n        tag_3:\n          tag_15\n          tag_16\n          jump\t// in\n        tag_15:\n          mload(0x40)\n          tag_17\n          swap2\n          swap1\n          tag_18\n          jump\t// in\n        tag_17:\n          mload(0x40)\n          dup1\n          swap2\n          sub\n          swap1\n          return\n            /* \"contracts/ERC20Standard.sol\":2425:2577  function  approve(address _spender, uint _value) public {\r... */\n        tag_4:\n          tag_19\n          0x04\n          dup1\n          calldatasize\n          sub\n          dup2\n          add\n          swap1\n          tag_20\n          swap2\n          swap1\n          tag_21\n          jump\t// in\n        tag_20:\n          tag_22\n          jump\t// in\n        tag_19:\n          stop\n            /* \"contracts/ERC20Standard.sol\":975:998  uint public totalSupply */\n        tag_5:\n          tag_23\n          tag_24\n          jump\t// in\n        tag_23:\n          mload(0x40)\n          tag_25\n          swap2\n          swap1\n          tag_26\n          jump\t// in\n        tag_25:\n          mload(0x40)\n          dup1\n          swap2\n          sub\n          swap1\n          return\n            /* \"contracts/ERC20Standard.sol\":1798:2182  function transferFrom(address _from, address _to, uint _value) public {\r... */\n        tag_6:\n          tag_27\n          0x04\n          dup1\n          calldatasize\n          sub\n          dup2\n          add\n          swap1\n          tag_28\n          swap2\n          swap1\n          tag_29\n          jump\t// in\n        tag_28:\n          tag_30\n          jump\t// in\n        tag_27:\n          stop\n            /* \"contracts/ERC20Standard.sol\":1027:1048  uint8 public decimals */\n        tag_7:\n          tag_31\n          tag_32\n          jump\t// in\n        tag_31:\n          mload(0x40)\n          tag_33\n          swap2\n          swap1\n          tag_34\n          jump\t// in\n        tag_33:\n          mload(0x40)\n          dup1\n          swap2\n          sub\n          swap1\n          return\n            /* \"contracts/ERC20Standard.sol\":2193:2420  function mint(address addr, uint amount) public {\r... */\n        tag_8:\n          tag_35\n          0x04\n          dup1\n          calldatasize\n          sub\n          dup2\n          add\n          swap1\n          tag_36\n          swap2\n          swap1\n          tag_21\n          jump\t// in\n        tag_36:\n          tag_37\n          jump\t// in\n        tag_35:\n          stop\n            /* \"contracts/ERC20Standard.sol\":1076:1097  string public version */\n        tag_9:\n          tag_38\n          tag_39\n          jump\t// in\n        tag_38:\n          mload(0x40)\n          tag_40\n          swap2\n          swap1\n          tag_18\n          jump\t// in\n        tag_40:\n          mload(0x40)\n          dup1\n          swap2\n          sub\n          swap1\n          return\n            /* \"contracts/ERC20Standard.sol\":1345:1448  function balanceOf(address _owner) public view returns (uint balance) {\r... */\n        tag_10:\n          tag_41\n          0x04\n          dup1\n          calldatasize\n          sub\n          dup2\n          add\n          swap1\n          tag_42\n          swap2\n          swap1\n          tag_43\n          jump\t// in\n        tag_42:\n          tag_44\n          jump\t// in\n        tag_41:\n          mload(0x40)\n          tag_45\n          swap2\n          swap1\n          tag_26\n          jump\t// in\n        tag_45:\n          mload(0x40)\n          dup1\n          swap2\n          sub\n          swap1\n          return\n            /* \"contracts/ERC20Standard.sol\":1052:1072  string public symbol */\n        tag_11:\n          tag_46\n          tag_47\n          jump\t// in\n        tag_46:\n          mload(0x40)\n          tag_48\n          swap2\n          swap1\n          tag_18\n          jump\t// in\n        tag_48:\n          mload(0x40)\n          dup1\n          swap2\n          sub\n          swap1\n          return\n            /* \"contracts/ERC20Standard.sol\":1453:1793  function transfer(address _recipient, uint _value) public onlyPayloadSize(2*32) {\r... */\n        tag_12:\n          tag_49\n          0x04\n          dup1\n          calldatasize\n          sub\n          dup2\n          add\n          swap1\n          tag_50\n          swap2\n          swap1\n          tag_21\n          jump\t// in\n        tag_50:\n          tag_51\n          jump\t// in\n        tag_49:\n          stop\n            /* \"contracts/ERC20Standard.sol\":2582:2712  function allowance(address _spender, address _owner) public view returns (uint balance) {\r... */\n        tag_13:\n          tag_52\n          0x04\n          dup1\n          calldatasize\n          sub\n          dup2\n          add\n          swap1\n          tag_53\n          swap2\n          swap1\n          tag_54\n          jump\t// in\n        tag_53:\n          tag_55\n          jump\t// in\n        tag_52:\n          mload(0x40)\n          tag_56\n          swap2\n          swap1\n          tag_26\n          jump\t// in\n        tag_56:\n          mload(0x40)\n          dup1\n          swap2\n          sub\n          swap1\n          return\n            /* \"contracts/ERC20Standard.sol\":1005:1023  string public name */\n        tag_16:\n          0x01\n          dup1\n          sload\n          tag_57\n          swap1\n          tag_58\n          jump\t// in\n        tag_57:\n          dup1\n          0x1f\n          add\n          0x20\n          dup1\n          swap2\n          div\n          mul\n          0x20\n          add\n          mload(0x40)\n          swap1\n          dup2\n          add\n          0x40\n          mstore\n          dup1\n          swap3\n          swap2\n          swap1\n          dup2\n          dup2\n          mstore\n          0x20\n          add\n          dup3\n          dup1\n          sload\n          tag_59\n          swap1\n          tag_58\n          jump\t// in\n        tag_59:\n          dup1\n          iszero\n          tag_60\n          jumpi\n          dup1\n          0x1f\n          lt\n          tag_61\n          jumpi\n          0x0100\n          dup1\n          dup4\n          sload\n          div\n          mul\n          dup4\n          mstore\n          swap2\n          0x20\n          add\n          swap2\n          jump(tag_60)\n        tag_61:\n          dup3\n          add\n          swap2\n          swap1\n          0x00\n          mstore\n          keccak256(0x00, 0x20)\n          swap1\n        tag_62:\n          dup2\n          sload\n          dup2\n          mstore\n          swap1\n          0x01\n          add\n          swap1\n          0x20\n          add\n          dup1\n          dup4\n          gt\n          tag_62\n          jumpi\n          dup3\n          swap1\n          sub\n          0x1f\n          and\n          dup3\n          add\n          swap2\n        tag_60:\n          pop\n          pop\n          pop\n          pop\n          pop\n          dup2\n          jump\t// out\n            /* \"contracts/ERC20Standard.sol\":2425:2577  function  approve(address _spender, uint _value) public {\r... */\n        tag_22:\n            /* \"contracts/ERC20Standard.sol\":2518:2524  _value */\n          dup1\n            /* \"contracts/ERC20Standard.sol\":2486:2493  allowed */\n          0x06\n            /* \"contracts/ERC20Standard.sol\":2486:2505  allowed[msg.sender] */\n          0x00\n            /* \"contracts/ERC20Standard.sol\":2494:2504  msg.sender */\n          caller\n            /* \"contracts/ERC20Standard.sol\":2486:2505  allowed[msg.sender] */\n          0xffffffffffffffffffffffffffffffffffffffff\n          and\n          0xffffffffffffffffffffffffffffffffffffffff\n          and\n          dup2\n          mstore\n          0x20\n          add\n          swap1\n          dup2\n          mstore\n          0x20\n          add\n          0x00\n          keccak256\n            /* \"contracts/ERC20Standard.sol\":2486:2515  allowed[msg.sender][_spender] */\n          0x00\n            /* \"contracts/ERC20Standard.sol\":2506:2514  _spender */\n          dup5\n            /* \"contracts/ERC20Standard.sol\":2486:2515  allowed[msg.sender][_spender] */\n          0xffffffffffffffffffffffffffffffffffffffff\n          and\n          0xffffffffffffffffffffffffffffffffffffffff\n          and\n          dup2\n          mstore\n          0x20\n          add\n          swap1\n          dup2\n          mstore\n          0x20\n          add\n          0x00\n          keccak256\n            /* \"contracts/ERC20Standard.sol\":2486:2524  allowed[msg.sender][_spender] = _value */\n          dup2\n          swap1\n          sstore\n          pop\n            /* \"contracts/ERC20Standard.sol\":2555:2563  _spender */\n          dup2\n            /* \"contracts/ERC20Standard.sol\":2534:2572  Approval(msg.sender, _spender, _value) */\n          0xffffffffffffffffffffffffffffffffffffffff\n          and\n            /* \"contracts/ERC20Standard.sol\":2543:2553  msg.sender */\n          caller\n            /* \"contracts/ERC20Standard.sol\":2534:2572  Approval(msg.sender, _spender, _value) */\n          0xffffffffffffffffffffffffffffffffffffffff\n          and\n          0x8c5be1e5ebec7d5bd14f71427d1e84f3dd0314c0f7b2291e5b200ac8c7c3b925\n            /* \"contracts/ERC20Standard.sol\":2565:2571  _value */\n          dup4\n            /* \"contracts/ERC20Standard.sol\":2534:2572  Approval(msg.sender, _spender, _value) */\n          mload(0x40)\n          tag_64\n          swap2\n          swap1\n          tag_26\n          jump\t// in\n        tag_64:\n          mload(0x40)\n          dup1\n          swap2\n          sub\n          swap1\n          log3\n            /* \"contracts/ERC20Standard.sol\":2425:2577  function  approve(address _spender, uint _value) public {\r... */\n          pop\n          pop\n          jump\t// out\n            /* \"contracts/ERC20Standard.sol\":975:998  uint public totalSupply */\n        tag_24:\n          sload(0x00)\n          dup2\n          jump\t// out\n            /* \"contracts/ERC20Standard.sol\":1798:2182  function transferFrom(address _from, address _to, uint _value) public {\r... */\n        tag_30:\n            /* \"contracts/ERC20Standard.sol\":1903:1909  _value */\n          dup1\n            /* \"contracts/ERC20Standard.sol\":1884:1892  balances */\n          0x05\n            /* \"contracts/ERC20Standard.sol\":1884:1899  balances[_from] */\n          0x00\n            /* \"contracts/ERC20Standard.sol\":1893:1898  _from */\n          dup6\n            /* \"contracts/ERC20Standard.sol\":1884:1899  balances[_from] */\n          0xffffffffffffffffffffffffffffffffffffffff\n          and\n          0xffffffffffffffffffffffffffffffffffffffff\n          and\n          dup2\n          mstore\n          0x20\n          add\n          swap1\n          dup2\n          mstore\n          0x20\n          add\n          0x00\n          keccak256\n          sload\n            /* \"contracts/ERC20Standard.sol\":1884:1909  balances[_from] >= _value */\n          lt\n          iszero\n            /* \"contracts/ERC20Standard.sol\":1884:1949  balances[_from] >= _value && allowed[_from][msg.sender] >= _value */\n          dup1\n          iszero\n          tag_66\n          jumpi\n          pop\n            /* \"contracts/ERC20Standard.sol\":1943:1949  _value */\n          dup1\n            /* \"contracts/ERC20Standard.sol\":1913:1920  allowed */\n          0x06\n            /* \"contracts/ERC20Standard.sol\":1913:1927  allowed[_from] */\n          0x00\n            /* \"contracts/ERC20Standard.sol\":1921:1926  _from */\n          dup6\n            /* \"contracts/ERC20Standard.sol\":1913:1927  allowed[_from] */\n          0xffffffffffffffffffffffffffffffffffffffff\n          and\n          0xffffffffffffffffffffffffffffffffffffffff\n          and\n          dup2\n          mstore\n          0x20\n          add\n          swap1\n          dup2\n          mstore\n          0x20\n          add\n          0x00\n          keccak256\n            /* \"contracts/ERC20Standard.sol\":1913:1939  allowed[_from][msg.sender] */\n          0x00\n            /* \"contracts/ERC20Standard.sol\":1928:1938  msg.sender */\n          caller\n            /* \"contracts/ERC20Standard.sol\":1913:1939  allowed[_from][msg.sender] */\n          0xffffffffffffffffffffffffffffffffffffffff\n          and\n          0xffffffffffffffffffffffffffffffffffffffff\n          and\n          dup2\n          mstore\n          0x20\n          add\n          swap1\n          dup2\n          mstore\n          0x20\n          add\n          0x00\n          keccak256\n          sload\n            /* \"contracts/ERC20Standard.sol\":1913:1949  allowed[_from][msg.sender] >= _value */\n          lt\n          iszero\n            /* \"contracts/ERC20Standard.sol\":1884:1949  balances[_from] >= _value && allowed[_from][msg.sender] >= _value */\n        tag_66:\n            /* \"contracts/ERC20Standard.sol\":1884:1963  balances[_from] >= _value && allowed[_from][msg.sender] >= _value && _value > 0 */\n          dup1\n          iszero\n          tag_67\n          jumpi\n          pop\n            /* \"contracts/ERC20Standard.sol\":1962:1963  0 */\n          0x00\n            /* \"contracts/ERC20Standard.sol\":1953:1959  _value */\n          dup2\n            /* \"contracts/ERC20Standard.sol\":1953:1963  _value > 0 */\n          gt\n            /* \"contracts/ERC20Standard.sol\":1884:1963  balances[_from] >= _value && allowed[_from][msg.sender] >= _value && _value > 0 */\n        tag_67:\n            /* \"contracts/ERC20Standard.sol\":1876:1964  require(balances[_from] >= _value && allowed[_from][msg.sender] >= _value && _value > 0) */\n          tag_68\n          jumpi\n          0x00\n          dup1\n          revert\n        tag_68:\n            /* \"contracts/ERC20Standard.sol\":1985:2010  balances[_to].add(_value) */\n          tag_69\n            /* \"contracts/ERC20Standard.sol\":2003:2009  _value */\n          dup2\n            /* \"contracts/ERC20Standard.sol\":1985:1993  balances */\n          0x05\n            /* \"contracts/ERC20Standard.sol\":1985:1998  balances[_to] */\n          0x00\n            /* \"contracts/ERC20Standard.sol\":1994:1997  _to */\n          dup6\n            /* \"contracts/ERC20Standard.sol\":1985:1998  balances[_to] */\n          0xffffffffffffffffffffffffffffffffffffffff\n          and\n          0xffffffffffffffffffffffffffffffffffffffff\n          and\n          dup2\n          mstore\n          0x20\n          add\n          swap1\n          dup2\n          mstore\n          0x20\n          add\n          0x00\n          keccak256\n          sload\n            /* \"contracts/ERC20Standard.sol\":1985:2002  balances[_to].add */\n          tag_70\n          swap1\n            /* \"contracts/ERC20Standard.sol\":1985:2010  balances[_to].add(_value) */\n          swap2\n          swap1\n          0xffffffff\n          and\n          jump\t// in\n        tag_69:\n            /* \"contracts/ERC20Standard.sol\":1969:1977  balances */\n          0x05\n            /* \"contracts/ERC20Standard.sol\":1969:1982  balances[_to] */\n          0x00\n            /* \"contracts/ERC20Standard.sol\":1978:1981  _to */\n          dup5\n            /* \"contracts/ERC20Standard.sol\":1969:1982  balances[_to] */\n          0xffffffffffffffffffffffffffffffffffffffff\n          and\n          0xffffffffffffffffffffffffffffffffffffffff\n          and\n          dup2\n          mstore\n          0x20\n          add\n          swap1\n          dup2\n          mstore\n          0x20\n          add\n          0x00\n          keccak256\n            /* \"contracts/ERC20Standard.sol\":1969:2010  balances[_to] = balances[_to].add(_value) */\n          dup2\n          swap1\n          sstore\n          pop\n            /* \"contracts/ERC20Standard.sol\":2033:2060  balances[_from].sub(_value) */\n          tag_71\n            /* \"contracts/ERC20Standard.sol\":2053:2059  _value */\n          dup2\n            /* \"contracts/ERC20Standard.sol\":2033:2041  balances */\n          0x05\n            /* \"contracts/ERC20Standard.sol\":2033:2048  balances[_from] */\n          0x00\n            /* \"contracts/ERC20Standard.sol\":2042:2047  _from */\n          dup7\n            /* \"contracts/ERC20Standard.sol\":2033:2048  balances[_from] */\n          0xffffffffffffffffffffffffffffffffffffffff\n          and\n          0xffffffffffffffffffffffffffffffffffffffff\n          and\n          dup2\n          mstore\n          0x20\n          add\n          swap1\n          dup2\n          mstore\n          0x20\n          add\n          0x00\n          keccak256\n          sload\n            /* \"contracts/ERC20Standard.sol\":2033:2052  balances[_from].sub */\n          tag_72\n          swap1\n            /* \"contracts/ERC20Standard.sol\":2033:2060  balances[_from].sub(_value) */\n          swap2\n          swap1\n          0xffffffff\n          and\n          jump\t// in\n        tag_71:\n            /* \"contracts/ERC20Standard.sol\":2015:2023  balances */\n          0x05\n            /* \"contracts/ERC20Standard.sol\":2015:2030  balances[_from] */\n          0x00\n            /* \"contracts/ERC20Standard.sol\":2024:2029  _from */\n          dup6\n            /* \"contracts/ERC20Standard.sol\":2015:2030  balances[_from] */\n          0xffffffffffffffffffffffffffffffffffffffff\n          and\n          0xffffffffffffffffffffffffffffffffffffffff\n          and\n          dup2\n          mstore\n          0x20\n          add\n          swap1\n          dup2\n          mstore\n          0x20\n          add\n          0x00\n          keccak256\n            /* \"contracts/ERC20Standard.sol\":2015:2060  balances[_from] = balances[_from].sub(_value) */\n          dup2\n          swap1\n          sstore\n          pop\n            /* \"contracts/ERC20Standard.sol\":2094:2132  allowed[_from][msg.sender].sub(_value) */\n          tag_73\n            /* \"contracts/ERC20Standard.sol\":2125:2131  _value */\n          dup2\n            /* \"contracts/ERC20Standard.sol\":2094:2101  allowed */\n          0x06\n            /* \"contracts/ERC20Standard.sol\":2094:2108  allowed[_from] */\n          0x00\n            /* \"contracts/ERC20Standard.sol\":2102:2107  _from */\n          dup7\n            /* \"contracts/ERC20Standard.sol\":2094:2108  allowed[_from] */\n          0xffffffffffffffffffffffffffffffffffffffff\n          and\n          0xffffffffffffffffffffffffffffffffffffffff\n          and\n          dup2\n          mstore\n          0x20\n          add\n          swap1\n          dup2\n          mstore\n          0x20\n          add\n          0x00\n          keccak256\n            /* \"contracts/ERC20Standard.sol\":2094:2120  allowed[_from][msg.sender] */\n          0x00\n            /* \"contracts/ERC20Standard.sol\":2109:2119  msg.sender */\n          caller\n            /* \"contracts/ERC20Standard.sol\":2094:2120  allowed[_from][msg.sender] */\n          0xffffffffffffffffffffffffffffffffffffffff\n          and\n          0xffffffffffffffffffffffffffffffffffffffff\n          and\n          dup2\n          mstore\n          0x20\n          add\n          swap1\n          dup2\n          mstore\n          0x20\n          add\n          0x00\n          keccak256\n          sload\n            /* \"contracts/ERC20Standard.sol\":2094:2124  allowed[_from][msg.sender].sub */\n          tag_72\n          swap1\n            /* \"contracts/ERC20Standard.sol\":2094:2132  allowed[_from][msg.sender].sub(_value) */\n          swap2\n          swap1\n          0xffffffff\n          and\n          jump\t// in\n        tag_73:\n            /* \"contracts/ERC20Standard.sol\":2065:2072  allowed */\n          0x06\n            /* \"contracts/ERC20Standard.sol\":2065:2079  allowed[_from] */\n          0x00\n            /* \"contracts/ERC20Standard.sol\":2073:2078  _from */\n          dup6\n            /* \"contracts/ERC20Standard.sol\":2065:2079  allowed[_from] */\n          0xffffffffffffffffffffffffffffffffffffffff\n          and\n          0xffffffffffffffffffffffffffffffffffffffff\n          and\n          dup2\n          mstore\n          0x20\n          add\n          swap1\n          dup2\n          mstore\n          0x20\n          add\n          0x00\n          keccak256\n            /* \"contracts/ERC20Standard.sol\":2065:2091  allowed[_from][msg.sender] */\n          0x00\n            /* \"contracts/ERC20Standard.sol\":2080:2090  msg.sender */\n          caller\n            /* \"contracts/ERC20Standard.sol\":2065:2091  allowed[_from][msg.sender] */\n          0xffffffffffffffffffffffffffffffffffffffff\n          and\n          0xffffffffffffffffffffffffffffffffffffffff\n          and\n          dup2\n          mstore\n          0x20\n          add\n          swap1\n          dup2\n          mstore\n          0x20\n          add\n          0x00\n          keccak256\n            /* \"contracts/ERC20Standard.sol\":2065:2132  allowed[_from][msg.sender] = allowed[_from][msg.sender].sub(_value) */\n          dup2\n          swap1\n          sstore\n          pop\n            /* \"contracts/ERC20Standard.sol\":2158:2161  _to */\n          dup2\n            /* \"contracts/ERC20Standard.sol\":2142:2170  Transfer(_from, _to, _value) */\n          0xffffffffffffffffffffffffffffffffffffffff\n          and\n            /* \"contracts/ERC20Standard.sol\":2151:2156  _from */\n          dup4\n            /* \"contracts/ERC20Standard.sol\":2142:2170  Transfer(_from, _to, _value) */\n          0xffffffffffffffffffffffffffffffffffffffff\n          and\n          0xddf252ad1be2c89b69c2b068fc378daa952ba7f163c4a11628f55a4df523b3ef\n            /* \"contracts/ERC20Standard.sol\":2163:2169  _value */\n          dup4\n            /* \"contracts/ERC20Standard.sol\":2142:2170  Transfer(_from, _to, _value) */\n          mload(0x40)\n          tag_74\n          swap2\n          swap1\n          tag_26\n          jump\t// in\n        tag_74:\n          mload(0x40)\n          dup1\n          swap2\n          sub\n          swap1\n          log3\n            /* \"contracts/ERC20Standard.sol\":1798:2182  function transferFrom(address _from, address _to, uint _value) public {\r... */\n          pop\n          pop\n          pop\n          jump\t// out\n            /* \"contracts/ERC20Standard.sol\":1027:1048  uint8 public decimals */\n        tag_32:\n          0x02\n          0x00\n          swap1\n          sload\n          swap1\n          0x0100\n          exp\n          swap1\n          div\n          0xff\n          and\n          dup2\n          jump\t// out\n            /* \"contracts/ERC20Standard.sol\":2193:2420  function mint(address addr, uint amount) public {\r... */\n        tag_37:\n            /* \"contracts/ERC20Standard.sol\":2270:2271  0 */\n          0x00\n            /* \"contracts/ERC20Standard.sol\":2254:2272  addr != address(0) */\n          0xffffffffffffffffffffffffffffffffffffffff\n          and\n            /* \"contracts/ERC20Standard.sol\":2254:2258  addr */\n          dup3\n            /* \"contracts/ERC20Standard.sol\":2254:2272  addr != address(0) */\n          0xffffffffffffffffffffffffffffffffffffffff\n          and\n          eq\n          iszero\n            /* \"contracts/ERC20Standard.sol\":2246:2308  require(addr != address(0), \"ERC20: mint to the zero address\") */\n          tag_76\n          jumpi\n          mload(0x40)\n          0x08c379a000000000000000000000000000000000000000000000000000000000\n          dup2\n          mstore\n          0x04\n          add\n          tag_77\n          swap1\n          tag_78\n          jump\t// in\n        tag_77:\n          mload(0x40)\n          dup1\n          swap2\n          sub\n          swap1\n          revert\n        tag_76:\n            /* \"contracts/ERC20Standard.sol\":2333:2339  amount */\n          dup1\n            /* \"contracts/ERC20Standard.sol\":2318:2329  totalSupply */\n          0x00\n          dup1\n            /* \"contracts/ERC20Standard.sol\":2318:2339  totalSupply += amount */\n          dup3\n          dup3\n          sload\n          tag_79\n          swap2\n          swap1\n          tag_80\n          jump\t// in\n        tag_79:\n          swap3\n          pop\n          pop\n          dup2\n          swap1\n          sstore\n          pop\n            /* \"contracts/ERC20Standard.sol\":2362:2368  amount */\n          dup1\n            /* \"contracts/ERC20Standard.sol\":2344:2352  balances */\n          0x05\n            /* \"contracts/ERC20Standard.sol\":2344:2358  balances[addr] */\n          0x00\n            /* \"contracts/ERC20Standard.sol\":2353:2357  addr */\n          dup5\n            /* \"contracts/ERC20Standard.sol\":2344:2358  balances[addr] */\n          0xffffffffffffffffffffffffffffffffffffffff\n          and\n          0xffffffffffffffffffffffffffffffffffffffff\n          and\n          dup2\n          mstore\n          0x20\n          add\n          swap1\n          dup2\n          mstore\n          0x20\n          add\n          0x00\n          keccak256\n          0x00\n            /* \"contracts/ERC20Standard.sol\":2344:2368  balances[addr] += amount */\n          dup3\n          dup3\n          sload\n          tag_81\n          swap2\n          swap1\n          tag_80\n          jump\t// in\n        tag_81:\n          swap3\n          pop\n          pop\n          dup2\n          swap1\n          sstore\n          pop\n            /* \"contracts/ERC20Standard.sol\":2399:2403  addr */\n          dup2\n            /* \"contracts/ERC20Standard.sol\":2378:2412  Transfer(address(0), addr, amount) */\n          0xffffffffffffffffffffffffffffffffffffffff\n          and\n            /* \"contracts/ERC20Standard.sol\":2395:2396  0 */\n          0x00\n            /* \"contracts/ERC20Standard.sol\":2378:2412  Transfer(address(0), addr, amount) */\n          0xffffffffffffffffffffffffffffffffffffffff\n          and\n          0xddf252ad1be2c89b69c2b068fc378daa952ba7f163c4a11628f55a4df523b3ef\n            /* \"contracts/ERC20Standard.sol\":2405:2411  amount */\n          dup4\n            /* \"contracts/ERC20Standard.sol\":2378:2412  Transfer(address(0), addr, amount) */\n          mload(0x40)\n          tag_82\n          swap2\n          swap1\n          tag_26\n          jump\t// in\n        tag_82:\n          mload(0x40)\n          dup1\n          swap2\n          sub\n          swap1\n          log3\n            /* \"contracts/ERC20Standard.sol\":2193:2420  function mint(address addr, uint amount) public {\r... */\n          pop\n          pop\n          jump\t// out\n            /* \"contracts/ERC20Standard.sol\":1076:1097  string public version */\n        tag_39:\n          0x04\n          dup1\n          sload\n          tag_83\n          swap1\n          tag_58\n          jump\t// in\n        tag_83:\n          dup1\n          0x1f\n          add\n          0x20\n          dup1\n          swap2\n          div\n          mul\n          0x20\n          add\n          mload(0x40)\n          swap1\n          dup2\n          add\n          0x40\n          mstore\n          dup1\n          swap3\n          swap2\n          swap1\n          dup2\n          dup2\n          mstore\n          0x20\n          add\n          dup3\n          dup1\n          sload\n          tag_84\n          swap1\n          tag_58\n          jump\t// in\n        tag_84:\n          dup1\n          iszero\n          tag_85\n          jumpi\n          dup1\n          0x1f\n          lt\n          tag_86\n          jumpi\n          0x0100\n          dup1\n          dup4\n          sload\n          div\n          mul\n          dup4\n          mstore\n          swap2\n          0x20\n          add\n          swap2\n          jump(tag_85)\n        tag_86:\n          dup3\n          add\n          swap2\n          swap1\n          0x00\n          mstore\n          keccak256(0x00, 0x20)\n          swap1\n        tag_87:\n          dup2\n          sload\n          dup2\n          mstore\n          swap1\n          0x01\n          add\n          swap1\n          0x20\n          add\n          dup1\n          dup4\n          gt\n          tag_87\n          jumpi\n          dup3\n          swap1\n          sub\n          0x1f\n          and\n          dup3\n          add\n          swap2\n        tag_85:\n          pop\n          pop\n          pop\n          pop\n          pop\n          dup2\n          jump\t// out\n            /* \"contracts/ERC20Standard.sol\":1345:1448  function balanceOf(address _owner) public view returns (uint balance) {\r... */\n        tag_44:\n            /* \"contracts/ERC20Standard.sol\":1401:1413  uint balance */\n          0x00\n            /* \"contracts/ERC20Standard.sol\":1427:1435  balances */\n          0x05\n            /* \"contracts/ERC20Standard.sol\":1427:1443  balances[_owner] */\n          0x00\n            /* \"contracts/ERC20Standard.sol\":1436:1442  _owner */\n          dup4\n            /* \"contracts/ERC20Standard.sol\":1427:1443  balances[_owner] */\n          0xffffffffffffffffffffffffffffffffffffffff\n          and\n          0xffffffffffffffffffffffffffffffffffffffff\n          and\n          dup2\n          mstore\n          0x20\n          add\n          swap1\n          dup2\n          mstore\n          0x20\n          add\n          0x00\n          keccak256\n          sload\n            /* \"contracts/ERC20Standard.sol\":1420:1443  return balances[_owner] */\n          swap1\n          pop\n            /* \"contracts/ERC20Standard.sol\":1345:1448  function balanceOf(address _owner) public view returns (uint balance) {\r... */\n          swap2\n          swap1\n          pop\n          jump\t// out\n            /* \"contracts/ERC20Standard.sol\":1052:1072  string public symbol */\n        tag_47:\n          0x03\n          dup1\n          sload\n          tag_89\n          swap1\n          tag_58\n          jump\t// in\n        tag_89:\n          dup1\n          0x1f\n          add\n          0x20\n          dup1\n          swap2\n          div\n          mul\n          0x20\n          add\n          mload(0x40)\n          swap1\n          dup2\n          add\n          0x40\n          mstore\n          dup1\n          swap3\n          swap2\n          swap1\n          dup2\n          dup2\n          mstore\n          0x20\n          add\n          dup3\n          dup1\n          sload\n          tag_90\n          swap1\n          tag_58\n          jump\t// in\n        tag_90:\n          dup1\n          iszero\n          tag_91\n          jumpi\n          dup1\n          0x1f\n          lt\n          tag_92\n          jumpi\n          0x0100\n          dup1\n          dup4\n          sload\n          div\n          mul\n          dup4\n          mstore\n          swap2\n          0x20\n          add\n          swap2\n          jump(tag_91)\n        tag_92:\n          dup3\n          add\n          swap2\n          swap1\n          0x00\n          mstore\n          keccak256(0x00, 0x20)\n          swap1\n        tag_93:\n          dup2\n          sload\n          dup2\n          mstore\n          swap1\n          0x01\n          add\n          swap1\n          0x20\n          add\n          dup1\n          dup4\n          gt\n          tag_93\n          jumpi\n          dup3\n          swap1\n          sub\n          0x1f\n          and\n          dup3\n          add\n          swap2\n        tag_91:\n          pop\n          pop\n          pop\n          pop\n          pop\n          dup2\n          jump\t// out\n            /* \"contracts/ERC20Standard.sol\":1453:1793  function transfer(address _recipient, uint _value) public onlyPayloadSize(2*32) {\r... */\n        tag_51:\n            /* \"contracts/ERC20Standard.sol\":1527:1531  2*32 */\n          0x40\n            /* \"contracts/ERC20Standard.sol\":1326:1327  4 */\n          0x04\n            /* \"contracts/ERC20Standard.sol\":1319:1323  size */\n          dup2\n            /* \"contracts/ERC20Standard.sol\":1319:1327  size + 4 */\n          tag_95\n          swap2\n          swap1\n          tag_80\n          jump\t// in\n        tag_95:\n            /* \"contracts/ERC20Standard.sol\":1300:1308  msg.data */\n          0x00\n          calldatasize\n            /* \"contracts/ERC20Standard.sol\":1300:1315  msg.data.length */\n          swap1\n          pop\n            /* \"contracts/ERC20Standard.sol\":1300:1327  msg.data.length == size + 4 */\n          eq\n            /* \"contracts/ERC20Standard.sol\":1293:1328  assert(msg.data.length == size + 4) */\n          tag_96\n          jumpi\n          tag_97\n          tag_98\n          jump\t// in\n        tag_97:\n        tag_96:\n            /* \"contracts/ERC20Standard.sol\":1573:1579  _value */\n          dup2\n            /* \"contracts/ERC20Standard.sol\":1549:1557  balances */\n          0x05\n            /* \"contracts/ERC20Standard.sol\":1549:1569  balances[msg.sender] */\n          0x00\n            /* \"contracts/ERC20Standard.sol\":1558:1568  msg.sender */\n          caller\n            /* \"contracts/ERC20Standard.sol\":1549:1569  balances[msg.sender] */\n          0xffffffffffffffffffffffffffffffffffffffff\n          and\n          0xffffffffffffffffffffffffffffffffffffffff\n          and\n          dup2\n          mstore\n          0x20\n          add\n          swap1\n          dup2\n          mstore\n          0x20\n          add\n          0x00\n          keccak256\n          sload\n            /* \"contracts/ERC20Standard.sol\":1549:1579  balances[msg.sender] >= _value */\n          lt\n          iszero\n            /* \"contracts/ERC20Standard.sol\":1549:1593  balances[msg.sender] >= _value && _value > 0 */\n          dup1\n          iszero\n          tag_100\n          jumpi\n          pop\n            /* \"contracts/ERC20Standard.sol\":1592:1593  0 */\n          0x00\n            /* \"contracts/ERC20Standard.sol\":1583:1589  _value */\n          dup3\n            /* \"contracts/ERC20Standard.sol\":1583:1593  _value > 0 */\n          gt\n            /* \"contracts/ERC20Standard.sol\":1549:1593  balances[msg.sender] >= _value && _value > 0 */\n        tag_100:\n            /* \"contracts/ERC20Standard.sol\":1541:1594  require(balances[msg.sender] >= _value && _value > 0) */\n          tag_101\n          jumpi\n          0x00\n          dup1\n          revert\n        tag_101:\n            /* \"contracts/ERC20Standard.sol\":1625:1657  balances[msg.sender].sub(_value) */\n          tag_102\n            /* \"contracts/ERC20Standard.sol\":1650:1656  _value */\n          dup3\n            /* \"contracts/ERC20Standard.sol\":1625:1633  balances */\n          0x05\n            /* \"contracts/ERC20Standard.sol\":1625:1645  balances[msg.sender] */\n          0x00\n            /* \"contracts/ERC20Standard.sol\":1634:1644  msg.sender */\n          caller\n            /* \"contracts/ERC20Standard.sol\":1625:1645  balances[msg.sender] */\n          0xffffffffffffffffffffffffffffffffffffffff\n          and\n          0xffffffffffffffffffffffffffffffffffffffff\n          and\n          dup2\n          mstore\n          0x20\n          add\n          swap1\n          dup2\n          mstore\n          0x20\n          add\n          0x00\n          keccak256\n          sload\n            /* \"contracts/ERC20Standard.sol\":1625:1649  balances[msg.sender].sub */\n          tag_72\n          swap1\n            /* \"contracts/ERC20Standard.sol\":1625:1657  balances[msg.sender].sub(_value) */\n          swap2\n          swap1\n          0xffffffff\n          and\n          jump\t// in\n        tag_102:\n            /* \"contracts/ERC20Standard.sol\":1602:1610  balances */\n          0x05\n            /* \"contracts/ERC20Standard.sol\":1602:1622  balances[msg.sender] */\n          0x00\n            /* \"contracts/ERC20Standard.sol\":1611:1621  msg.sender */\n          caller\n            /* \"contracts/ERC20Standard.sol\":1602:1622  balances[msg.sender] */\n          0xffffffffffffffffffffffffffffffffffffffff\n          and\n          0xffffffffffffffffffffffffffffffffffffffff\n          and\n          dup2\n          mstore\n          0x20\n          add\n          swap1\n          dup2\n          mstore\n          0x20\n          add\n          0x00\n          keccak256\n            /* \"contracts/ERC20Standard.sol\":1602:1657  balances[msg.sender] = balances[msg.sender].sub(_value) */\n          dup2\n          swap1\n          sstore\n          pop\n            /* \"contracts/ERC20Standard.sol\":1688:1720  balances[_recipient].add(_value) */\n          tag_103\n            /* \"contracts/ERC20Standard.sol\":1713:1719  _value */\n          dup3\n            /* \"contracts/ERC20Standard.sol\":1688:1696  balances */\n          0x05\n            /* \"contracts/ERC20Standard.sol\":1688:1708  balances[_recipient] */\n          0x00\n            /* \"contracts/ERC20Standard.sol\":1697:1707  _recipient */\n          dup7\n            /* \"contracts/ERC20Standard.sol\":1688:1708  balances[_recipient] */\n          0xffffffffffffffffffffffffffffffffffffffff\n          and\n          0xffffffffffffffffffffffffffffffffffffffff\n          and\n          dup2\n          mstore\n          0x20\n          add\n          swap1\n          dup2\n          mstore\n          0x20\n          add\n          0x00\n          keccak256\n          sload\n            /* \"contracts/ERC20Standard.sol\":1688:1712  balances[_recipient].add */\n          tag_70\n          swap1\n            /* \"contracts/ERC20Standard.sol\":1688:1720  balances[_recipient].add(_value) */\n          swap2\n          swap1\n          0xffffffff\n          and\n          jump\t// in\n        tag_103:\n            /* \"contracts/ERC20Standard.sol\":1665:1673  balances */\n          0x05\n            /* \"contracts/ERC20Standard.sol\":1665:1685  balances[_recipient] */\n          0x00\n            /* \"contracts/ERC20Standard.sol\":1674:1684  _recipient */\n          dup6\n            /* \"contracts/ERC20Standard.sol\":1665:1685  balances[_recipient] */\n          0xffffffffffffffffffffffffffffffffffffffff\n          and\n          0xffffffffffffffffffffffffffffffffffffffff\n          and\n          dup2\n          mstore\n          0x20\n          add\n          swap1\n          dup2\n          mstore\n          0x20\n          add\n          0x00\n          keccak256\n            /* \"contracts/ERC20Standard.sol\":1665:1720  balances[_recipient] = balances[_recipient].add(_value) */\n          dup2\n          swap1\n          sstore\n          pop\n            /* \"contracts/ERC20Standard.sol\":1754:1764  _recipient */\n          dup3\n            /* \"contracts/ERC20Standard.sol\":1733:1773  Transfer(msg.sender, _recipient, _value) */\n          0xffffffffffffffffffffffffffffffffffffffff\n          and\n            /* \"contracts/ERC20Standard.sol\":1742:1752  msg.sender */\n          caller\n            /* \"contracts/ERC20Standard.sol\":1733:1773  Transfer(msg.sender, _recipient, _value) */\n          0xffffffffffffffffffffffffffffffffffffffff\n          and\n          0xddf252ad1be2c89b69c2b068fc378daa952ba7f163c4a11628f55a4df523b3ef\n            /* \"contracts/ERC20Standard.sol\":1766:1772  _value */\n          dup5\n            /* \"contracts/ERC20Standard.sol\":1733:1773  Transfer(msg.sender, _recipient, _value) */\n          mload(0x40)\n          tag_104\n          swap2\n          swap1\n          tag_26\n          jump\t// in\n        tag_104:\n          mload(0x40)\n          dup1\n          swap2\n          sub\n          swap1\n          log3\n            /* \"contracts/ERC20Standard.sol\":1453:1793  function transfer(address _recipient, uint _value) public onlyPayloadSize(2*32) {\r... */\n          pop\n          pop\n          pop\n          jump\t// out\n            /* \"contracts/ERC20Standard.sol\":2582:2712  function allowance(address _spender, address _owner) public view returns (uint balance) {\r... */\n        tag_55:\n            /* \"contracts/ERC20Standard.sol\":2656:2668  uint balance */\n          0x00\n            /* \"contracts/ERC20Standard.sol\":2682:2689  allowed */\n          0x06\n            /* \"contracts/ERC20Standard.sol\":2682:2697  allowed[_owner] */\n          0x00\n            /* \"contracts/ERC20Standard.sol\":2690:2696  _owner */\n          dup4\n            /* \"contracts/ERC20Standard.sol\":2682:2697  allowed[_owner] */\n          0xffffffffffffffffffffffffffffffffffffffff\n          and\n          0xffffffffffffffffffffffffffffffffffffffff\n          and\n          dup2\n          mstore\n          0x20\n          add\n          swap1\n          dup2\n          mstore\n          0x20\n          add\n          0x00\n          keccak256\n            /* \"contracts/ERC20Standard.sol\":2682:2707  allowed[_owner][_spender] */\n          0x00\n            /* \"contracts/ERC20Standard.sol\":2698:2706  _spender */\n          dup5\n            /* \"contracts/ERC20Standard.sol\":2682:2707  allowed[_owner][_spender] */\n          0xffffffffffffffffffffffffffffffffffffffff\n          and\n          0xffffffffffffffffffffffffffffffffffffffff\n          and\n          dup2\n          mstore\n          0x20\n          add\n          swap1\n          dup2\n          mstore\n          0x20\n          add\n          0x00\n          keccak256\n          sload\n            /* \"contracts/ERC20Standard.sol\":2675:2707  return allowed[_owner][_spender] */\n          swap1\n          pop\n            /* \"contracts/ERC20Standard.sol\":2582:2712  function allowance(address _spender, address _owner) public view returns (uint balance) {\r... */\n          swap3\n          swap2\n          pop\n          pop\n          jump\t// out\n            /* \"contracts/ERC20Standard.sol\":629:779  function add(uint256 a, uint256 b) internal pure returns (uint256) {\r... */\n        tag_70:\n            /* \"contracts/ERC20Standard.sol\":687:694  uint256 */\n          0x00\n            /* \"contracts/ERC20Standard.sol\":707:716  uint256 c */\n          dup1\n            /* \"contracts/ERC20Standard.sol\":723:724  b */\n          dup3\n            /* \"contracts/ERC20Standard.sol\":719:720  a */\n          dup5\n            /* \"contracts/ERC20Standard.sol\":719:724  a + b */\n          tag_107\n          swap2\n          swap1\n          tag_80\n          jump\t// in\n        tag_107:\n            /* \"contracts/ERC20Standard.sol\":707:724  uint256 c = a + b */\n          swap1\n          pop\n            /* \"contracts/ERC20Standard.sol\":748:749  a */\n          dup4\n            /* \"contracts/ERC20Standard.sol\":743:744  c */\n          dup2\n            /* \"contracts/ERC20Standard.sol\":743:749  c >= a */\n          lt\n          iszero\n            /* \"contracts/ERC20Standard.sol\":735:750  require(c >= a) */\n          tag_108\n          jumpi\n          0x00\n          dup1\n          revert\n        tag_108:\n            /* \"contracts/ERC20Standard.sol\":770:771  c */\n          dup1\n            /* \"contracts/ERC20Standard.sol\":763:771  return c */\n          swap2\n          pop\n          pop\n            /* \"contracts/ERC20Standard.sol\":629:779  function add(uint256 a, uint256 b) internal pure returns (uint256) {\r... */\n          swap3\n          swap2\n          pop\n          pop\n          jump\t// out\n            /* \"contracts/ERC20Standard.sol\":471:621  function sub(uint256 a, uint256 b) internal pure returns (uint256) {\r... */\n        tag_72:\n            /* \"contracts/ERC20Standard.sol\":529:536  uint256 */\n          0x00\n            /* \"contracts/ERC20Standard.sol\":562:563  a */\n          dup3\n            /* \"contracts/ERC20Standard.sol\":557:558  b */\n          dup3\n            /* \"contracts/ERC20Standard.sol\":557:563  b <= a */\n          gt\n          iszero\n            /* \"contracts/ERC20Standard.sol\":549:564  require(b <= a) */\n          tag_110\n          jumpi\n          0x00\n          dup1\n          revert\n        tag_110:\n            /* \"contracts/ERC20Standard.sol\":575:584  uint256 c */\n          0x00\n            /* \"contracts/ERC20Standard.sol\":591:592  b */\n          dup3\n            /* \"contracts/ERC20Standard.sol\":587:588  a */\n          dup5\n            /* \"contracts/ERC20Standard.sol\":587:592  a - b */\n          tag_111\n          swap2\n          swap1\n          tag_112\n          jump\t// in\n        tag_111:\n            /* \"contracts/ERC20Standard.sol\":575:592  uint256 c = a - b */\n          swap1\n          pop\n            /* \"contracts/ERC20Standard.sol\":612:613  c */\n          dup1\n            /* \"contracts/ERC20Standard.sol\":605:613  return c */\n          swap2\n          pop\n          pop\n            /* \"contracts/ERC20Standard.sol\":471:621  function sub(uint256 a, uint256 b) internal pure returns (uint256) {\r... */\n          swap3\n          swap2\n          pop\n          pop\n          jump\t// out\n            /* \"#utility.yul\":7:146   */\n        tag_114:\n            /* \"#utility.yul\":53:58   */\n          0x00\n            /* \"#utility.yul\":91:97   */\n          dup2\n            /* \"#utility.yul\":78:98   */\n          calldataload\n            /* \"#utility.yul\":69:98   */\n          swap1\n          pop\n            /* \"#utility.yul\":107:140   */\n          tag_116\n            /* \"#utility.yul\":134:139   */\n          dup2\n            /* \"#utility.yul\":107:140   */\n          tag_117\n          jump\t// in\n        tag_116:\n            /* \"#utility.yul\":7:146   */\n          swap3\n          swap2\n          pop\n          pop\n          jump\t// out\n            /* \"#utility.yul\":152:291   */\n        tag_118:\n            /* \"#utility.yul\":198:203   */\n          0x00\n            /* \"#utility.yul\":236:242   */\n          dup2\n            /* \"#utility.yul\":223:243   */\n          calldataload\n            /* \"#utility.yul\":214:243   */\n          swap1\n          pop\n            /* \"#utility.yul\":252:285   */\n          tag_120\n            /* \"#utility.yul\":279:284   */\n          dup2\n            /* \"#utility.yul\":252:285   */\n          tag_121\n          jump\t// in\n        tag_120:\n            /* \"#utility.yul\":152:291   */\n          swap3\n          swap2\n          pop\n          pop\n          jump\t// out\n            /* \"#utility.yul\":297:626   */\n        tag_43:\n            /* \"#utility.yul\":356:362   */\n          0x00\n            /* \"#utility.yul\":405:407   */\n          0x20\n            /* \"#utility.yul\":393:402   */\n          dup3\n            /* \"#utility.yul\":384:391   */\n          dup5\n            /* \"#utility.yul\":380:403   */\n          sub\n            /* \"#utility.yul\":376:408   */\n          slt\n            /* \"#utility.yul\":373:492   */\n          iszero\n          tag_123\n          jumpi\n            /* \"#utility.yul\":411:490   */\n          tag_124\n          tag_125\n          jump\t// in\n        tag_124:\n            /* \"#utility.yul\":373:492   */\n        tag_123:\n            /* \"#utility.yul\":531:532   */\n          0x00\n            /* \"#utility.yul\":556:609   */\n          tag_126\n            /* \"#utility.yul\":601:608   */\n          dup5\n            /* \"#utility.yul\":592:598   */\n          dup3\n            /* \"#utility.yul\":581:590   */\n          dup6\n            /* \"#utility.yul\":577:599   */\n          add\n            /* \"#utility.yul\":556:609   */\n          tag_114\n          jump\t// in\n        tag_126:\n            /* \"#utility.yul\":546:609   */\n          swap2\n          pop\n            /* \"#utility.yul\":502:619   */\n          pop\n            /* \"#utility.yul\":297:626   */\n          swap3\n          swap2\n          pop\n          pop\n          jump\t// out\n            /* \"#utility.yul\":632:1106   */\n        tag_54:\n            /* \"#utility.yul\":700:706   */\n          0x00\n            /* \"#utility.yul\":708:714   */\n          dup1\n            /* \"#utility.yul\":757:759   */\n          0x40\n            /* \"#utility.yul\":745:754   */\n          dup4\n            /* \"#utility.yul\":736:743   */\n          dup6\n            /* \"#utility.yul\":732:755   */\n          sub\n            /* \"#utility.yul\":728:760   */\n          slt\n            /* \"#utility.yul\":725:844   */\n          iszero\n          tag_128\n          jumpi\n            /* \"#utility.yul\":763:842   */\n          tag_129\n          tag_125\n          jump\t// in\n        tag_129:\n            /* \"#utility.yul\":725:844   */\n        tag_128:\n            /* \"#utility.yul\":883:884   */\n          0x00\n            /* \"#utility.yul\":908:961   */\n          tag_130\n            /* \"#utility.yul\":953:960   */\n          dup6\n            /* \"#utility.yul\":944:950   */\n          dup3\n            /* \"#utility.yul\":933:942   */\n          dup7\n            /* \"#utility.yul\":929:951   */\n          add\n            /* \"#utility.yul\":908:961   */\n          tag_114\n          jump\t// in\n        tag_130:\n            /* \"#utility.yul\":898:961   */\n          swap3\n          pop\n            /* \"#utility.yul\":854:971   */\n          pop\n            /* \"#utility.yul\":1010:1012   */\n          0x20\n            /* \"#utility.yul\":1036:1089   */\n          tag_131\n            /* \"#utility.yul\":1081:1088   */\n          dup6\n            /* \"#utility.yul\":1072:1078   */\n          dup3\n            /* \"#utility.yul\":1061:1070   */\n          dup7\n            /* \"#utility.yul\":1057:1079   */\n          add\n            /* \"#utility.yul\":1036:1089   */\n          tag_114\n          jump\t// in\n        tag_131:\n            /* \"#utility.yul\":1026:1089   */\n          swap2\n          pop\n            /* \"#utility.yul\":981:1099   */\n          pop\n            /* \"#utility.yul\":632:1106   */\n          swap3\n          pop\n          swap3\n          swap1\n          pop\n          jump\t// out\n            /* \"#utility.yul\":1112:1731   */\n        tag_29:\n            /* \"#utility.yul\":1189:1195   */\n          0x00\n            /* \"#utility.yul\":1197:1203   */\n          dup1\n            /* \"#utility.yul\":1205:1211   */\n          0x00\n            /* \"#utility.yul\":1254:1256   */\n          0x60\n            /* \"#utility.yul\":1242:1251   */\n          dup5\n            /* \"#utility.yul\":1233:1240   */\n          dup7\n            /* \"#utility.yul\":1229:1252   */\n          sub\n            /* \"#utility.yul\":1225:1257   */\n          slt\n            /* \"#utility.yul\":1222:1341   */\n          iszero\n          tag_133\n          jumpi\n            /* \"#utility.yul\":1260:1339   */\n          tag_134\n          tag_125\n          jump\t// in\n        tag_134:\n            /* \"#utility.yul\":1222:1341   */\n        tag_133:\n            /* \"#utility.yul\":1380:1381   */\n          0x00\n            /* \"#utility.yul\":1405:1458   */\n          tag_135\n            /* \"#utility.yul\":1450:1457   */\n          dup7\n            /* \"#utility.yul\":1441:1447   */\n          dup3\n            /* \"#utility.yul\":1430:1439   */\n          dup8\n            /* \"#utility.yul\":1426:1448   */\n          add\n            /* \"#utility.yul\":1405:1458   */\n          tag_114\n          jump\t// in\n        tag_135:\n            /* \"#utility.yul\":1395:1458   */\n          swap4\n          pop\n            /* \"#utility.yul\":1351:1468   */\n          pop\n            /* \"#utility.yul\":1507:1509   */\n          0x20\n            /* \"#utility.yul\":1533:1586   */\n          tag_136\n            /* \"#utility.yul\":1578:1585   */\n          dup7\n            /* \"#utility.yul\":1569:1575   */\n          dup3\n            /* \"#utility.yul\":1558:1567   */\n          dup8\n            /* \"#utility.yul\":1554:1576   */\n          add\n            /* \"#utility.yul\":1533:1586   */\n          tag_114\n          jump\t// in\n        tag_136:\n            /* \"#utility.yul\":1523:1586   */\n          swap3\n          pop\n            /* \"#utility.yul\":1478:1596   */\n          pop\n            /* \"#utility.yul\":1635:1637   */\n          0x40\n            /* \"#utility.yul\":1661:1714   */\n          tag_137\n            /* \"#utility.yul\":1706:1713   */\n          dup7\n            /* \"#utility.yul\":1697:1703   */\n          dup3\n            /* \"#utility.yul\":1686:1695   */\n          dup8\n            /* \"#utility.yul\":1682:1704   */\n          add\n            /* \"#utility.yul\":1661:1714   */\n          tag_118\n          jump\t// in\n        tag_137:\n            /* \"#utility.yul\":1651:1714   */\n          swap2\n          pop\n            /* \"#utility.yul\":1606:1724   */\n          pop\n            /* \"#utility.yul\":1112:1731   */\n          swap3\n          pop\n          swap3\n          pop\n          swap3\n          jump\t// out\n            /* \"#utility.yul\":1737:2211   */\n        tag_21:\n            /* \"#utility.yul\":1805:1811   */\n          0x00\n            /* \"#utility.yul\":1813:1819   */\n          dup1\n            /* \"#utility.yul\":1862:1864   */\n          0x40\n            /* \"#utility.yul\":1850:1859   */\n          dup4\n            /* \"#utility.yul\":1841:1848   */\n          dup6\n            /* \"#utility.yul\":1837:1860   */\n          sub\n            /* \"#utility.yul\":1833:1865   */\n          slt\n            /* \"#utility.yul\":1830:1949   */\n          iszero\n          tag_139\n          jumpi\n            /* \"#utility.yul\":1868:1947   */\n          tag_140\n          tag_125\n          jump\t// in\n        tag_140:\n            /* \"#utility.yul\":1830:1949   */\n        tag_139:\n            /* \"#utility.yul\":1988:1989   */\n          0x00\n            /* \"#utility.yul\":2013:2066   */\n          tag_141\n            /* \"#utility.yul\":2058:2065   */\n          dup6\n            /* \"#utility.yul\":2049:2055   */\n          dup3\n            /* \"#utility.yul\":2038:2047   */\n          dup7\n            /* \"#utility.yul\":2034:2056   */\n          add\n            /* \"#utility.yul\":2013:2066   */\n          tag_114\n          jump\t// in\n        tag_141:\n            /* \"#utility.yul\":2003:2066   */\n          swap3\n          pop\n            /* \"#utility.yul\":1959:2076   */\n          pop\n            /* \"#utility.yul\":2115:2117   */\n          0x20\n            /* \"#utility.yul\":2141:2194   */\n          tag_142\n            /* \"#utility.yul\":2186:2193   */\n          dup6\n            /* \"#utility.yul\":2177:2183   */\n          dup3\n            /* \"#utility.yul\":2166:2175   */\n          dup7\n            /* \"#utility.yul\":2162:2184   */\n          add\n            /* \"#utility.yul\":2141:2194   */\n          tag_118\n          jump\t// in\n        tag_142:\n            /* \"#utility.yul\":2131:2194   */\n          swap2\n          pop\n            /* \"#utility.yul\":2086:2204   */\n          pop\n            /* \"#utility.yul\":1737:2211   */\n          swap3\n          pop\n          swap3\n          swap1\n          pop\n          jump\t// out\n            /* \"#utility.yul\":2217:2581   */\n        tag_143:\n            /* \"#utility.yul\":2305:2308   */\n          0x00\n            /* \"#utility.yul\":2333:2372   */\n          tag_145\n            /* \"#utility.yul\":2366:2371   */\n          dup3\n            /* \"#utility.yul\":2333:2372   */\n          tag_146\n          jump\t// in\n        tag_145:\n            /* \"#utility.yul\":2388:2459   */\n          tag_147\n            /* \"#utility.yul\":2452:2458   */\n          dup2\n            /* \"#utility.yul\":2447:2450   */\n          dup6\n            /* \"#utility.yul\":2388:2459   */\n          tag_148\n          jump\t// in\n        tag_147:\n            /* \"#utility.yul\":2381:2459   */\n          swap4\n          pop\n            /* \"#utility.yul\":2468:2520   */\n          tag_149\n            /* \"#utility.yul\":2513:2519   */\n          dup2\n            /* \"#utility.yul\":2508:2511   */\n          dup6\n            /* \"#utility.yul\":2501:2505   */\n          0x20\n            /* \"#utility.yul\":2494:2499   */\n          dup7\n            /* \"#utility.yul\":2490:2506   */\n          add\n            /* \"#utility.yul\":2468:2520   */\n          tag_150\n          jump\t// in\n        tag_149:\n            /* \"#utility.yul\":2545:2574   */\n          tag_151\n            /* \"#utility.yul\":2567:2573   */\n          dup2\n            /* \"#utility.yul\":2545:2574   */\n          tag_152\n          jump\t// in\n        tag_151:\n            /* \"#utility.yul\":2540:2543   */\n          dup5\n            /* \"#utility.yul\":2536:2575   */\n          add\n            /* \"#utility.yul\":2529:2575   */\n          swap2\n          pop\n            /* \"#utility.yul\":2309:2581   */\n          pop\n            /* \"#utility.yul\":2217:2581   */\n          swap3\n          swap2\n          pop\n          pop\n          jump\t// out\n            /* \"#utility.yul\":2587:2953   */\n        tag_153:\n            /* \"#utility.yul\":2729:2732   */\n          0x00\n            /* \"#utility.yul\":2750:2817   */\n          tag_155\n            /* \"#utility.yul\":2814:2816   */\n          0x1f\n            /* \"#utility.yul\":2809:2812   */\n          dup4\n            /* \"#utility.yul\":2750:2817   */\n          tag_148\n          jump\t// in\n        tag_155:\n            /* \"#utility.yul\":2743:2817   */\n          swap2\n          pop\n            /* \"#utility.yul\":2826:2919   */\n          tag_156\n            /* \"#utility.yul\":2915:2918   */\n          dup3\n            /* \"#utility.yul\":2826:2919   */\n          tag_157\n          jump\t// in\n        tag_156:\n            /* \"#utility.yul\":2944:2946   */\n          0x20\n            /* \"#utility.yul\":2939:2942   */\n          dup3\n            /* \"#utility.yul\":2935:2947   */\n          add\n            /* \"#utility.yul\":2928:2947   */\n          swap1\n          pop\n            /* \"#utility.yul\":2587:2953   */\n          swap2\n          swap1\n          pop\n          jump\t// out\n            /* \"#utility.yul\":2959:3077   */\n        tag_158:\n            /* \"#utility.yul\":3046:3070   */\n          tag_160\n            /* \"#utility.yul\":3064:3069   */\n          dup2\n            /* \"#utility.yul\":3046:3070   */\n          tag_161\n          jump\t// in\n        tag_160:\n            /* \"#utility.yul\":3041:3044   */\n          dup3\n            /* \"#utility.yul\":3034:3071   */\n          mstore\n            /* \"#utility.yul\":2959:3077   */\n          pop\n          pop\n          jump\t// out\n            /* \"#utility.yul\":3083:3195   */\n        tag_162:\n            /* \"#utility.yul\":3166:3188   */\n          tag_164\n            /* \"#utility.yul\":3182:3187   */\n          dup2\n            /* \"#utility.yul\":3166:3188   */\n          tag_165\n          jump\t// in\n        tag_164:\n            /* \"#utility.yul\":3161:3164   */\n          dup3\n            /* \"#utility.yul\":3154:3189   */\n          mstore\n            /* \"#utility.yul\":3083:3195   */\n          pop\n          pop\n          jump\t// out\n            /* \"#utility.yul\":3201:3514   */\n        tag_18:\n            /* \"#utility.yul\":3314:3318   */\n          0x00\n            /* \"#utility.yul\":3352:3354   */\n          0x20\n            /* \"#utility.yul\":3341:3350   */\n          dup3\n            /* \"#utility.yul\":3337:3355   */\n          add\n            /* \"#utility.yul\":3329:3355   */\n          swap1\n          pop\n            /* \"#utility.yul\":3401:3410   */\n          dup2\n            /* \"#utility.yul\":3395:3399   */\n          dup2\n            /* \"#utility.yul\":3391:3411   */\n          sub\n            /* \"#utility.yul\":3387:3388   */\n          0x00\n            /* \"#utility.yul\":3376:3385   */\n          dup4\n            /* \"#utility.yul\":3372:3389   */\n          add\n            /* \"#utility.yul\":3365:3412   */\n          mstore\n            /* \"#utility.yul\":3429:3507   */\n          tag_167\n            /* \"#utility.yul\":3502:3506   */\n          dup2\n            /* \"#utility.yul\":3493:3499   */\n          dup5\n            /* \"#utility.yul\":3429:3507   */\n          tag_143\n          jump\t// in\n        tag_167:\n            /* \"#utility.yul\":3421:3507   */\n          swap1\n          pop\n            /* \"#utility.yul\":3201:3514   */\n          swap3\n          swap2\n          pop\n          pop\n          jump\t// out\n            /* \"#utility.yul\":3520:3939   */\n        tag_78:\n            /* \"#utility.yul\":3686:3690   */\n          0x00\n            /* \"#utility.yul\":3724:3726   */\n          0x20\n            /* \"#utility.yul\":3713:3722   */\n          dup3\n            /* \"#utility.yul\":3709:3727   */\n          add\n            /* \"#utility.yul\":3701:3727   */\n          swap1\n          pop\n            /* \"#utility.yul\":3773:3782   */\n          dup2\n            /* \"#utility.yul\":3767:3771   */\n          dup2\n            /* \"#utility.yul\":3763:3783   */\n          sub\n            /* \"#utility.yul\":3759:3760   */\n          0x00\n            /* \"#utility.yul\":3748:3757   */\n          dup4\n            /* \"#utility.yul\":3744:3761   */\n          add\n            /* \"#utility.yul\":3737:3784   */\n          mstore\n            /* \"#utility.yul\":3801:3932   */\n          tag_169\n            /* \"#utility.yul\":3927:3931   */\n          dup2\n            /* \"#utility.yul\":3801:3932   */\n          tag_153\n          jump\t// in\n        tag_169:\n            /* \"#utility.yul\":3793:3932   */\n          swap1\n          pop\n            /* \"#utility.yul\":3520:3939   */\n          swap2\n          swap1\n          pop\n          jump\t// out\n            /* \"#utility.yul\":3945:4167   */\n        tag_26:\n            /* \"#utility.yul\":4038:4042   */\n          0x00\n            /* \"#utility.yul\":4076:4078   */\n          0x20\n            /* \"#utility.yul\":4065:4074   */\n          dup3\n            /* \"#utility.yul\":4061:4079   */\n          add\n            /* \"#utility.yul\":4053:4079   */\n          swap1\n          pop\n            /* \"#utility.yul\":4089:4160   */\n          tag_171\n            /* \"#utility.yul\":4157:4158   */\n          0x00\n            /* \"#utility.yul\":4146:4155   */\n          dup4\n            /* \"#utility.yul\":4142:4159   */\n          add\n            /* \"#utility.yul\":4133:4139   */\n          dup5\n            /* \"#utility.yul\":4089:4160   */\n          tag_158\n          jump\t// in\n        tag_171:\n            /* \"#utility.yul\":3945:4167   */\n          swap3\n          swap2\n          pop\n          pop\n          jump\t// out\n            /* \"#utility.yul\":4173:4387   */\n        tag_34:\n            /* \"#utility.yul\":4262:4266   */\n          0x00\n            /* \"#utility.yul\":4300:4302   */\n          0x20\n            /* \"#utility.yul\":4289:4298   */\n          dup3\n            /* \"#utility.yul\":4285:4303   */\n          add\n            /* \"#utility.yul\":4277:4303   */\n          swap1\n          pop\n            /* \"#utility.yul\":4313:4380   */\n          tag_173\n            /* \"#utility.yul\":4377:4378   */\n          0x00\n            /* \"#utility.yul\":4366:4375   */\n          dup4\n            /* \"#utility.yul\":4362:4379   */\n          add\n            /* \"#utility.yul\":4353:4359   */\n          dup5\n            /* \"#utility.yul\":4313:4380   */\n          tag_162\n          jump\t// in\n        tag_173:\n            /* \"#utility.yul\":4173:4387   */\n          swap3\n          swap2\n          pop\n          pop\n          jump\t// out\n            /* \"#utility.yul\":4474:4573   */\n        tag_146:\n            /* \"#utility.yul\":4526:4532   */\n          0x00\n            /* \"#utility.yul\":4560:4565   */\n          dup2\n            /* \"#utility.yul\":4554:4566   */\n          mload\n            /* \"#utility.yul\":4544:4566   */\n          swap1\n          pop\n            /* \"#utility.yul\":4474:4573   */\n          swap2\n          swap1\n          pop\n          jump\t// out\n            /* \"#utility.yul\":4579:4748   */\n        tag_148:\n            /* \"#utility.yul\":4663:4674   */\n          0x00\n            /* \"#utility.yul\":4697:4703   */\n          dup3\n            /* \"#utility.yul\":4692:4695   */\n          dup3\n            /* \"#utility.yul\":4685:4704   */\n          mstore\n            /* \"#utility.yul\":4737:4741   */\n          0x20\n            /* \"#utility.yul\":4732:4735   */\n          dup3\n            /* \"#utility.yul\":4728:4742   */\n          add\n            /* \"#utility.yul\":4713:4742   */\n          swap1\n          pop\n            /* \"#utility.yul\":4579:4748   */\n          swap3\n          swap2\n          pop\n          pop\n          jump\t// out\n            /* \"#utility.yul\":4754:5059   */\n        tag_80:\n            /* \"#utility.yul\":4794:4797   */\n          0x00\n            /* \"#utility.yul\":4813:4833   */\n          tag_179\n            /* \"#utility.yul\":4831:4832   */\n          dup3\n            /* \"#utility.yul\":4813:4833   */\n          tag_161\n          jump\t// in\n        tag_179:\n            /* \"#utility.yul\":4808:4833   */\n          swap2\n          pop\n            /* \"#utility.yul\":4847:4867   */\n          tag_180\n            /* \"#utility.yul\":4865:4866   */\n          dup4\n            /* \"#utility.yul\":4847:4867   */\n          tag_161\n          jump\t// in\n        tag_180:\n            /* \"#utility.yul\":4842:4867   */\n          swap3\n          pop\n            /* \"#utility.yul\":5001:5002   */\n          dup3\n            /* \"#utility.yul\":4933:4999   */\n          0xffffffffffffffffffffffffffffffffffffffffffffffffffffffffffffffff\n            /* \"#utility.yul\":4929:5003   */\n          sub\n            /* \"#utility.yul\":4926:4927   */\n          dup3\n            /* \"#utility.yul\":4923:5004   */\n          gt\n            /* \"#utility.yul\":4920:5027   */\n          iszero\n          tag_181\n          jumpi\n            /* \"#utility.yul\":5007:5025   */\n          tag_182\n          tag_183\n          jump\t// in\n        tag_182:\n            /* \"#utility.yul\":4920:5027   */\n        tag_181:\n            /* \"#utility.yul\":5051:5052   */\n          dup3\n            /* \"#utility.yul\":5048:5049   */\n          dup3\n            /* \"#utility.yul\":5044:5053   */\n          add\n            /* \"#utility.yul\":5037:5053   */\n          swap1\n          pop\n            /* \"#utility.yul\":4754:5059   */\n          swap3\n          swap2\n          pop\n          pop\n          jump\t// out\n            /* \"#utility.yul\":5065:5256   */\n        tag_112:\n            /* \"#utility.yul\":5105:5109   */\n          0x00\n            /* \"#utility.yul\":5125:5145   */\n          tag_185\n            /* \"#utility.yul\":5143:5144   */\n          dup3\n            /* \"#utility.yul\":5125:5145   */\n          tag_161\n          jump\t// in\n        tag_185:\n            /* \"#utility.yul\":5120:5145   */\n          swap2\n          pop\n            /* \"#utility.yul\":5159:5179   */\n          tag_186\n            /* \"#utility.yul\":5177:5178   */\n          dup4\n            /* \"#utility.yul\":5159:5179   */\n          tag_161\n          jump\t// in\n        tag_186:\n            /* \"#utility.yul\":5154:5179   */\n          swap3\n          pop\n            /* \"#utility.yul\":5198:5199   */\n          dup3\n            /* \"#utility.yul\":5195:5196   */\n          dup3\n            /* \"#utility.yul\":5192:5200   */\n          lt\n            /* \"#utility.yul\":5189:5223   */\n          iszero\n          tag_187\n          jumpi\n            /* \"#utility.yul\":5203:5221   */\n          tag_188\n          tag_183\n          jump\t// in\n        tag_188:\n            /* \"#utility.yul\":5189:5223   */\n        tag_187:\n            /* \"#utility.yul\":5248:5249   */\n          dup3\n            /* \"#utility.yul\":5245:5246   */\n          dup3\n            /* \"#utility.yul\":5241:5250   */\n          sub\n            /* \"#utility.yul\":5233:5250   */\n          swap1\n          pop\n            /* \"#utility.yul\":5065:5256   */\n          swap3\n          swap2\n          pop\n          pop\n          jump\t// out\n            /* \"#utility.yul\":5262:5358   */\n        tag_189:\n            /* \"#utility.yul\":5299:5306   */\n          0x00\n            /* \"#utility.yul\":5328:5352   */\n          tag_191\n            /* \"#utility.yul\":5346:5351   */\n          dup3\n            /* \"#utility.yul\":5328:5352   */\n          tag_192\n          jump\t// in\n        tag_191:\n            /* \"#utility.yul\":5317:5352   */\n          swap1\n          pop\n            /* \"#utility.yul\":5262:5358   */\n          swap2\n          swap1\n          pop\n          jump\t// out\n            /* \"#utility.yul\":5364:5490   */\n        tag_192:\n            /* \"#utility.yul\":5401:5408   */\n          0x00\n            /* \"#utility.yul\":5441:5483   */\n          0xffffffffffffffffffffffffffffffffffffffff\n            /* \"#utility.yul\":5434:5439   */\n          dup3\n            /* \"#utility.yul\":5430:5484   */\n          and\n            /* \"#utility.yul\":5419:5484   */\n          swap1\n          pop\n            /* \"#utility.yul\":5364:5490   */\n          swap2\n          swap1\n          pop\n          jump\t// out\n            /* \"#utility.yul\":5496:5573   */\n        tag_161:\n            /* \"#utility.yul\":5533:5540   */\n          0x00\n            /* \"#utility.yul\":5562:5567   */\n          dup2\n            /* \"#utility.yul\":5551:5567   */\n          swap1\n          pop\n            /* \"#utility.yul\":5496:5573   */\n          swap2\n          swap1\n          pop\n          jump\t// out\n            /* \"#utility.yul\":5579:5665   */\n        tag_165:\n            /* \"#utility.yul\":5614:5621   */\n          0x00\n            /* \"#utility.yul\":5654:5658   */\n          0xff\n            /* \"#utility.yul\":5647:5652   */\n          dup3\n            /* \"#utility.yul\":5643:5659   */\n          and\n            /* \"#utility.yul\":5632:5659   */\n          swap1\n          pop\n            /* \"#utility.yul\":5579:5665   */\n          swap2\n          swap1\n          pop\n          jump\t// out\n            /* \"#utility.yul\":5671:5978   */\n        tag_150:\n            /* \"#utility.yul\":5739:5740   */\n          0x00\n            /* \"#utility.yul\":5749:5862   */\n        tag_197:\n            /* \"#utility.yul\":5763:5769   */\n          dup4\n            /* \"#utility.yul\":5760:5761   */\n          dup2\n            /* \"#utility.yul\":5757:5770   */\n          lt\n            /* \"#utility.yul\":5749:5862   */\n          iszero\n          tag_199\n          jumpi\n            /* \"#utility.yul\":5848:5849   */\n          dup1\n            /* \"#utility.yul\":5843:5846   */\n          dup3\n            /* \"#utility.yul\":5839:5850   */\n          add\n            /* \"#utility.yul\":5833:5851   */\n          mload\n            /* \"#utility.yul\":5829:5830   */\n          dup2\n            /* \"#utility.yul\":5824:5827   */\n          dup5\n            /* \"#utility.yul\":5820:5831   */\n          add\n            /* \"#utility.yul\":5813:5852   */\n          mstore\n            /* \"#utility.yul\":5785:5787   */\n          0x20\n            /* \"#utility.yul\":5782:5783   */\n          dup2\n            /* \"#utility.yul\":5778:5788   */\n          add\n            /* \"#utility.yul\":5773:5788   */\n          swap1\n          pop\n            /* \"#utility.yul\":5749:5862   */\n          jump(tag_197)\n        tag_199:\n            /* \"#utility.yul\":5880:5886   */\n          dup4\n            /* \"#utility.yul\":5877:5878   */\n          dup2\n            /* \"#utility.yul\":5874:5887   */\n          gt\n            /* \"#utility.yul\":5871:5972   */\n          iszero\n          tag_200\n          jumpi\n            /* \"#utility.yul\":5960:5961   */\n          0x00\n            /* \"#utility.yul\":5951:5957   */\n          dup5\n            /* \"#utility.yul\":5946:5949   */\n          dup5\n            /* \"#utility.yul\":5942:5958   */\n          add\n            /* \"#utility.yul\":5935:5962   */\n          mstore\n            /* \"#utility.yul\":5871:5972   */\n        tag_200:\n            /* \"#utility.yul\":5720:5978   */\n          pop\n            /* \"#utility.yul\":5671:5978   */\n          pop\n          pop\n          pop\n          jump\t// out\n            /* \"#utility.yul\":5984:6304   */\n        tag_58:\n            /* \"#utility.yul\":6028:6034   */\n          0x00\n            /* \"#utility.yul\":6065:6066   */\n          0x02\n            /* \"#utility.yul\":6059:6063   */\n          dup3\n            /* \"#utility.yul\":6055:6067   */\n          div\n            /* \"#utility.yul\":6045:6067   */\n          swap1\n          pop\n            /* \"#utility.yul\":6112:6113   */\n          0x01\n            /* \"#utility.yul\":6106:6110   */\n          dup3\n            /* \"#utility.yul\":6102:6114   */\n          and\n            /* \"#utility.yul\":6133:6151   */\n          dup1\n            /* \"#utility.yul\":6123:6204   */\n          tag_202\n          jumpi\n            /* \"#utility.yul\":6189:6193   */\n          0x7f\n            /* \"#utility.yul\":6181:6187   */\n          dup3\n            /* \"#utility.yul\":6177:6194   */\n          and\n            /* \"#utility.yul\":6167:6194   */\n          swap2\n          pop\n            /* \"#utility.yul\":6123:6204   */\n        tag_202:\n            /* \"#utility.yul\":6251:6253   */\n          0x20\n            /* \"#utility.yul\":6243:6249   */\n          dup3\n            /* \"#utility.yul\":6240:6254   */\n          lt\n            /* \"#utility.yul\":6220:6238   */\n          dup2\n            /* \"#utility.yul\":6217:6255   */\n          eq\n            /* \"#utility.yul\":6214:6298   */\n          iszero\n          tag_203\n          jumpi\n            /* \"#utility.yul\":6270:6288   */\n          tag_204\n          tag_205\n          jump\t// in\n        tag_204:\n            /* \"#utility.yul\":6214:6298   */\n        tag_203:\n            /* \"#utility.yul\":6035:6304   */\n          pop\n            /* \"#utility.yul\":5984:6304   */\n          swap2\n          swap1\n          pop\n          jump\t// out\n            /* \"#utility.yul\":6310:6490   */\n        tag_98:\n            /* \"#utility.yul\":6358:6435   */\n          0x4e487b7100000000000000000000000000000000000000000000000000000000\n            /* \"#utility.yul\":6355:6356   */\n          0x00\n            /* \"#utility.yul\":6348:6436   */\n          mstore\n            /* \"#utility.yul\":6455:6459   */\n          0x01\n            /* \"#utility.yul\":6452:6453   */\n          0x04\n            /* \"#utility.yul\":6445:6460   */\n          mstore\n            /* \"#utility.yul\":6479:6483   */\n          0x24\n            /* \"#utility.yul\":6476:6477   */\n          0x00\n            /* \"#utility.yul\":6469:6484   */\n          revert\n            /* \"#utility.yul\":6496:6676   */\n        tag_183:\n            /* \"#utility.yul\":6544:6621   */\n          0x4e487b7100000000000000000000000000000000000000000000000000000000\n            /* \"#utility.yul\":6541:6542   */\n          0x00\n            /* \"#utility.yul\":6534:6622   */\n          mstore\n            /* \"#utility.yul\":6641:6645   */\n          0x11\n            /* \"#utility.yul\":6638:6639   */\n          0x04\n            /* \"#utility.yul\":6631:6646   */\n          mstore\n            /* \"#utility.yul\":6665:6669   */\n          0x24\n            /* \"#utility.yul\":6662:6663   */\n          0x00\n            /* \"#utility.yul\":6655:6670   */\n          revert\n            /* \"#utility.yul\":6682:6862   */\n        tag_205:\n            /* \"#utility.yul\":6730:6807   */\n          0x4e487b7100000000000000000000000000000000000000000000000000000000\n            /* \"#utility.yul\":6727:6728   */\n          0x00\n            /* \"#utility.yul\":6720:6808   */\n          mstore\n            /* \"#utility.yul\":6827:6831   */\n          0x22\n            /* \"#utility.yul\":6824:6825   */\n          0x04\n            /* \"#utility.yul\":6817:6832   */\n          mstore\n            /* \"#utility.yul\":6851:6855   */\n          0x24\n            /* \"#utility.yul\":6848:6849   */\n          0x00\n            /* \"#utility.yul\":6841:6856   */\n          revert\n            /* \"#utility.yul\":6991:7108   */\n        tag_125:\n            /* \"#utility.yul\":7100:7101   */\n          0x00\n            /* \"#utility.yul\":7097:7098   */\n          dup1\n            /* \"#utility.yul\":7090:7102   */\n          revert\n            /* \"#utility.yul\":7114:7216   */\n        tag_152:\n            /* \"#utility.yul\":7155:7161   */\n          0x00\n            /* \"#utility.yul\":7206:7208   */\n          0x1f\n            /* \"#utility.yul\":7202:7209   */\n          not\n            /* \"#utility.yul\":7197:7199   */\n          0x1f\n            /* \"#utility.yul\":7190:7195   */\n          dup4\n            /* \"#utility.yul\":7186:7200   */\n          add\n            /* \"#utility.yul\":7182:7210   */\n          and\n            /* \"#utility.yul\":7172:7210   */\n          swap1\n          pop\n            /* \"#utility.yul\":7114:7216   */\n          swap2\n          swap1\n          pop\n          jump\t// out\n            /* \"#utility.yul\":7222:7403   */\n        tag_157:\n            /* \"#utility.yul\":7362:7395   */\n          0x45524332303a206d696e7420746f20746865207a65726f206164647265737300\n            /* \"#utility.yul\":7358:7359   */\n          0x00\n            /* \"#utility.yul\":7350:7356   */\n          dup3\n            /* \"#utility.yul\":7346:7360   */\n          add\n            /* \"#utility.yul\":7339:7396   */\n          mstore\n            /* \"#utility.yul\":7222:7403   */\n          pop\n          jump\t// out\n            /* \"#utility.yul\":7409:7531   */\n        tag_117:\n            /* \"#utility.yul\":7482:7506   */\n          tag_215\n            /* \"#utility.yul\":7500:7505   */\n          dup2\n            /* \"#utility.yul\":7482:7506   */\n          tag_189\n          jump\t// in\n        tag_215:\n            /* \"#utility.yul\":7475:7480   */\n          dup2\n            /* \"#utility.yul\":7472:7507   */\n          eq\n            /* \"#utility.yul\":7462:7525   */\n          tag_216\n          jumpi\n            /* \"#utility.yul\":7521:7522   */\n          0x00\n            /* \"#utility.yul\":7518:7519   */\n          dup1\n            /* \"#utility.yul\":7511:7523   */\n          revert\n            /* \"#utility.yul\":7462:7525   */\n        tag_216:\n            /* \"#utility.yul\":7409:7531   */\n          pop\n          jump\t// out\n            /* \"#utility.yul\":7537:7659   */\n        tag_121:\n            /* \"#utility.yul\":7610:7634   */\n          tag_218\n            /* \"#utility.yul\":7628:7633   */\n          dup2\n            /* \"#utility.yul\":7610:7634   */\n          tag_161\n          jump\t// in\n        tag_218:\n            /* \"#utility.yul\":7603:7608   */\n          dup2\n            /* \"#utility.yul\":7600:7635   */\n          eq\n            /* \"#utility.yul\":7590:7653   */\n          tag_219\n          jumpi\n            /* \"#utility.yul\":7649:7650   */\n          0x00\n            /* \"#utility.yul\":7646:7647   */\n          dup1\n            /* \"#utility.yul\":7639:7651   */\n          revert\n            /* \"#utility.yul\":7590:7653   */\n        tag_219:\n            /* \"#utility.yul\":7537:7659   */\n          pop\n          jump\t// out\n\n        auxdata: 0xa26469706673582212209ab2a3b490bbdd55bd1f92579735f1cbff07c6bf64831a8fb42faa93bb2900c564736f6c63430008070033\n    }\n}\n",
				"bytecode": {
					"linkReferences": {},
					"object": "60806040526040516200001290620000fa565b604051809103906000f0801580156200002f573d6000803e3d6000fd5b50600560006101000a81548173ffffffffffffffffffffffffffffffffffffffff021916908373ffffffffffffffffffffffffffffffffffffffff1602179055503480156200007d57600080fd5b50604051620021af380380620021af8339818101604052810190620000a391906200011f565b33600460006101000a81548173ffffffffffffffffffffffffffffffffffffffff021916908373ffffffffffffffffffffffffffffffffffffffff160217905550816000819055508060018190555050506200018f565b6113a58062000e0a83390190565b600081519050620001198162000175565b92915050565b6000806040838503121562000139576200013862000170565b5b6000620001498582860162000108565b92505060206200015c8582860162000108565b9150509250929050565b6000819050919050565b600080fd5b620001808162000166565b81146200018c57600080fd5b50565b610c6b806200019f6000396000f3fe608060405234801561001057600080fd5b506004361061004c5760003560e01c80634041ef54146100515780636dd7d8ea146100815780638203373a1461009d578063ea58d968146100b9575b600080fd5b61006b60048036038101906100669190610811565b6100d5565b60405161007891906109d4565b60405180910390f35b61009b60048036038101906100969190610811565b6101f2565b005b6100b760048036038101906100b2919061083e565b6103fa565b005b6100d360048036038101906100ce9190610887565b6105eb565b005b600060015442106100e557600080fd5b600460009054906101000a900473ffffffffffffffffffffffffffffffffffffffff1673ffffffffffffffffffffffffffffffffffffffff163373ffffffffffffffffffffffffffffffffffffffff16141561014057600080fd5b600560009054906101000a900473ffffffffffffffffffffffffffffffffffffffff1673ffffffffffffffffffffffffffffffffffffffff166370a08231836040518263ffffffff1660e01b815260040161019b9190610959565b60206040518083038186803b1580156101b357600080fd5b505afa1580156101c7573d6000803e3d6000fd5b505050506040513d601f19601f820116820180604052508101906101eb91906108ff565b9050919050565b600154421161020057600080fd5b600260003373ffffffffffffffffffffffffffffffffffffffff1673ffffffffffffffffffffffffffffffffffffffff16815260200190815260200160002060009054906101000a900460ff1661025657600080fd5b6000600560009054906101000a900473ffffffffffffffffffffffffffffffffffffffff1673ffffffffffffffffffffffffffffffffffffffff166370a08231336040518263ffffffff1660e01b81526004016102b39190610959565b60206040518083038186803b1580156102cb57600080fd5b505afa1580156102df573d6000803e3d6000fd5b505050506040513d601f19601f8201168201806040525081019061030391906108ff565b1461030d57600080fd5b600560009054906101000a900473ffffffffffffffffffffffffffffffffffffffff1673ffffffffffffffffffffffffffffffffffffffff166323b872dd338360016040518463ffffffff1660e01b815260040161036d93929190610974565b600060405180830381600087803b15801561038757600080fd5b505af115801561039b573d6000803e3d6000fd5b505050506001600260003373ffffffffffffffffffffffffffffffffffffffff1673ffffffffffffffffffffffffffffffffffffffff16815260200190815260200160002060006101000a81548160ff02191690831515021790555050565b60005b81518110156105355760006002600084848151811061041f5761041e610b6d565b5b602002602001015173ffffffffffffffffffffffffffffffffffffffff1673ffffffffffffffffffffffffffffffffffffffff16815260200190815260200160002060006101000a81548160ff021916908315150217905550600560009054906101000a900473ffffffffffffffffffffffffffffffffffffffff1673ffffffffffffffffffffffffffffffffffffffff166340c10f198383815181106104c9576104c8610b6d565b5b602002602001015160016040518363ffffffff1660e01b81526004016104f09291906109ab565b600060405180830381600087803b15801561050a57600080fd5b505af115801561051e573d6000803e3d6000fd5b50505050808061052d90610af5565b9150506103fd565b50600560009054906101000a900473ffffffffffffffffffffffffffffffffffffffff1673ffffffffffffffffffffffffffffffffffffffff166340c10f19600460009054906101000a900473ffffffffffffffffffffffffffffffffffffffff1660016040518363ffffffff1660e01b81526004016105b69291906109ab565b600060405180830381600087803b1580156105d057600080fd5b505af11580156105e4573d6000803e3d6000fd5b5050505050565b8051825114156105fa57600080fd5b60005b82518110156106915781818151811061061957610618610b6d565b5b60200260200101516003600085848151811061063857610637610b6d565b5b602002602001015173ffffffffffffffffffffffffffffffffffffffff1673ffffffffffffffffffffffffffffffffffffffff16815260200190815260200160002081905550808061068990610af5565b9150506105fd565b505050565b60006106a96106a484610a14565b6109ef565b905080838252602082019050828560208602820111156106cc576106cb610bd0565b5b60005b858110156106fc57816106e28882610776565b8452602084019350602083019250506001810190506106cf565b5050509392505050565b600061071961071484610a40565b6109ef565b9050808382526020820190508285602086028201111561073c5761073b610bd0565b5b60005b8581101561076c578161075288826107e7565b84526020840193506020830192505060018101905061073f565b5050509392505050565b60008135905061078581610bf0565b92915050565b600082601f8301126107a05761079f610bcb565b5b81356107b0848260208601610696565b91505092915050565b600082601f8301126107ce576107cd610bcb565b5b81356107de848260208601610706565b91505092915050565b6000813590506107f681610c07565b92915050565b60008151905061080b81610c1e565b92915050565b60006020828403121561082757610826610bda565b5b600061083584828501610776565b91505092915050565b60006020828403121561085457610853610bda565b5b600082013567ffffffffffffffff81111561087257610871610bd5565b5b61087e8482850161078b565b91505092915050565b6000806040838503121561089e5761089d610bda565b5b600083013567ffffffffffffffff8111156108bc576108bb610bd5565b5b6108c88582860161078b565b925050602083013567ffffffffffffffff8111156108e9576108e8610bd5565b5b6108f5858286016107b9565b9150509250929050565b60006020828403121561091557610914610bda565b5b6000610923848285016107fc565b91505092915050565b61093581610a6c565b82525050565b61094481610ab2565b82525050565b61095381610aa8565b82525050565b600060208201905061096e600083018461092c565b92915050565b6000606082019050610989600083018661092c565b610996602083018561092c565b6109a3604083018461093b565b949350505050565b60006040820190506109c0600083018561092c565b6109cd602083018461093b565b9392505050565b60006020820190506109e9600083018461094a565b92915050565b60006109f9610a0a565b9050610a058282610ac4565b919050565b6000604051905090565b600067ffffffffffffffff821115610a2f57610a2e610b9c565b5b602082029050602081019050919050565b600067ffffffffffffffff821115610a5b57610a5a610b9c565b5b602082029050602081019050919050565b6000610a7782610a88565b9050919050565b6000819050919050565b600073ffffffffffffffffffffffffffffffffffffffff82169050919050565b6000819050919050565b6000610abd82610aa8565b9050919050565b610acd82610bdf565b810181811067ffffffffffffffff82111715610aec57610aeb610b9c565b5b80604052505050565b6000610b0082610aa8565b91507fffffffffffffffffffffffffffffffffffffffffffffffffffffffffffffffff821415610b3357610b32610b3e565b5b600182019050919050565b7f4e487b7100000000000000000000000000000000000000000000000000000000600052601160045260246000fd5b7f4e487b7100000000000000000000000000000000000000000000000000000000600052603260045260246000fd5b7f4e487b7100000000000000000000000000000000000000000000000000000000600052604160045260246000fd5b600080fd5b600080fd5b600080fd5b600080fd5b6000601f19601f8301169050919050565b610bf981610a6c565b8114610c0457600080fd5b50565b610c1081610a7e565b8114610c1b57600080fd5b50565b610c2781610aa8565b8114610c3257600080fd5b5056fea26469706673582212208b71a039c32134eff0cd239fd3d30a36484acb2f92dc261f7be5094dbbfc808a64736f6c6343000807003360806040523480156200001157600080fd5b50600080819055506040518060400160405280600d81526020017f452d566f74696e6720636f696e00000000000000000000000000000000000000815250600190805190602001906200006692919062000125565b506004600260006101000a81548160ff021916908360ff1602179055506040518060400160405280600381526020017f455643000000000000000000000000000000000000000000000000000000000081525060039080519060200190620000d092919062000125565b506040518060400160405280600381526020017f312e300000000000000000000000000000000000000000000000000000000000815250600490805190602001906200011e92919062000125565b506200023a565b8280546200013390620001d5565b90600052602060002090601f016020900481019282620001575760008555620001a3565b82601f106200017257805160ff1916838001178555620001a3565b82800160010185558215620001a3579182015b82811115620001a257825182559160200191906001019062000185565b5b509050620001b29190620001b6565b5090565b5b80821115620001d1576000816000905550600101620001b7565b5090565b60006002820490506001821680620001ee57607f821691505b602082108114156200020557620002046200020b565b5b50919050565b7f4e487b7100000000000000000000000000000000000000000000000000000000600052602260045260246000fd5b61115b806200024a6000396000f3fe608060405234801561001057600080fd5b50600436106100a95760003560e01c806340c10f191161007157806340c10f191461014057806354fd4d501461015c57806370a082311461017a57806395d89b41146101aa578063a9059cbb146101c8578063dd62ed3e146101e4576100a9565b806306fdde03146100ae578063095ea7b3146100cc57806318160ddd146100e857806323b872dd14610106578063313ce56714610122575b600080fd5b6100b6610214565b6040516100c39190610e5f565b60405180910390f35b6100e660048036038101906100e19190610da5565b6102a2565b005b6100f061038c565b6040516100fd9190610ea1565b60405180910390f35b610120600480360381019061011b9190610d52565b610392565b005b61012a610715565b6040516101379190610ebc565b60405180910390f35b61015a60048036038101906101559190610da5565b610728565b005b610164610870565b6040516101719190610e5f565b60405180910390f35b610194600480360381019061018f9190610ce5565b6108fe565b6040516101a19190610ea1565b60405180910390f35b6101b2610947565b6040516101bf9190610e5f565b60405180910390f35b6101e260048036038101906101dd9190610da5565b6109d5565b005b6101fe60048036038101906101f99190610d12565b610be3565b60405161020b9190610ea1565b60405180910390f35b6001805461022190610ff9565b80601f016020809104026020016040519081016040528092919081815260200182805461024d90610ff9565b801561029a5780601f1061026f5761010080835404028352916020019161029a565b820191906000526020600020905b81548152906001019060200180831161027d57829003601f168201915b505050505081565b80600660003373ffffffffffffffffffffffffffffffffffffffff1673ffffffffffffffffffffffffffffffffffffffff16815260200190815260200160002060008473ffffffffffffffffffffffffffffffffffffffff1673ffffffffffffffffffffffffffffffffffffffff168152602001908152602001600020819055508173ffffffffffffffffffffffffffffffffffffffff163373ffffffffffffffffffffffffffffffffffffffff167f8c5be1e5ebec7d5bd14f71427d1e84f3dd0314c0f7b2291e5b200ac8c7c3b925836040516103809190610ea1565b60405180910390a35050565b60005481565b80600560008573ffffffffffffffffffffffffffffffffffffffff1673ffffffffffffffffffffffffffffffffffffffff168152602001908152602001600020541015801561045d575080600660008573ffffffffffffffffffffffffffffffffffffffff1673ffffffffffffffffffffffffffffffffffffffff16815260200190815260200160002060003373ffffffffffffffffffffffffffffffffffffffff1673ffffffffffffffffffffffffffffffffffffffff1681526020019081526020016000205410155b80156104695750600081115b61047257600080fd5b6104c481600560008573ffffffffffffffffffffffffffffffffffffffff1673ffffffffffffffffffffffffffffffffffffffff16815260200190815260200160002054610c6a90919063ffffffff16565b600560008473ffffffffffffffffffffffffffffffffffffffff1673ffffffffffffffffffffffffffffffffffffffff1681526020019081526020016000208190555061055981600560008673ffffffffffffffffffffffffffffffffffffffff1673ffffffffffffffffffffffffffffffffffffffff16815260200190815260200160002054610c9290919063ffffffff16565b600560008573ffffffffffffffffffffffffffffffffffffffff1673ffffffffffffffffffffffffffffffffffffffff1681526020019081526020016000208190555061062b81600660008673ffffffffffffffffffffffffffffffffffffffff1673ffffffffffffffffffffffffffffffffffffffff16815260200190815260200160002060003373ffffffffffffffffffffffffffffffffffffffff1673ffffffffffffffffffffffffffffffffffffffff16815260200190815260200160002054610c9290919063ffffffff16565b600660008573ffffffffffffffffffffffffffffffffffffffff1673ffffffffffffffffffffffffffffffffffffffff16815260200190815260200160002060003373ffffffffffffffffffffffffffffffffffffffff1673ffffffffffffffffffffffffffffffffffffffff168152602001908152602001600020819055508173ffffffffffffffffffffffffffffffffffffffff168373ffffffffffffffffffffffffffffffffffffffff167fddf252ad1be2c89b69c2b068fc378daa952ba7f163c4a11628f55a4df523b3ef836040516107089190610ea1565b60405180910390a3505050565b600260009054906101000a900460ff1681565b600073ffffffffffffffffffffffffffffffffffffffff168273ffffffffffffffffffffffffffffffffffffffff161415610798576040517f08c379a000000000000000000000000000000000000000000000000000000000815260040161078f90610e81565b60405180910390fd5b806000808282546107a99190610ef3565b9250508190555080600560008473ffffffffffffffffffffffffffffffffffffffff1673ffffffffffffffffffffffffffffffffffffffff16815260200190815260200160002060008282546107ff9190610ef3565b925050819055508173ffffffffffffffffffffffffffffffffffffffff16600073ffffffffffffffffffffffffffffffffffffffff167fddf252ad1be2c89b69c2b068fc378daa952ba7f163c4a11628f55a4df523b3ef836040516108649190610ea1565b60405180910390a35050565b6004805461087d90610ff9565b80601f01602080910402602001604051908101604052809291908181526020018280546108a990610ff9565b80156108f65780601f106108cb576101008083540402835291602001916108f6565b820191906000526020600020905b8154815290600101906020018083116108d957829003601f168201915b505050505081565b6000600560008373ffffffffffffffffffffffffffffffffffffffff1673ffffffffffffffffffffffffffffffffffffffff168152602001908152602001600020549050919050565b6003805461095490610ff9565b80601f016020809104026020016040519081016040528092919081815260200182805461098090610ff9565b80156109cd5780601f106109a2576101008083540402835291602001916109cd565b820191906000526020600020905b8154815290600101906020018083116109b057829003601f168201915b505050505081565b60406004816109e49190610ef3565b6000369050146109f7576109f661102b565b5b81600560003373ffffffffffffffffffffffffffffffffffffffff1673ffffffffffffffffffffffffffffffffffffffff1681526020019081526020016000205410158015610a465750600082115b610a4f57600080fd5b610aa182600560003373ffffffffffffffffffffffffffffffffffffffff1673ffffffffffffffffffffffffffffffffffffffff16815260200190815260200160002054610c9290919063ffffffff16565b600560003373ffffffffffffffffffffffffffffffffffffffff1673ffffffffffffffffffffffffffffffffffffffff16815260200190815260200160002081905550610b3682600560008673ffffffffffffffffffffffffffffffffffffffff1673ffffffffffffffffffffffffffffffffffffffff16815260200190815260200160002054610c6a90919063ffffffff16565b600560008573ffffffffffffffffffffffffffffffffffffffff1673ffffffffffffffffffffffffffffffffffffffff168152602001908152602001600020819055508273ffffffffffffffffffffffffffffffffffffffff163373ffffffffffffffffffffffffffffffffffffffff167fddf252ad1be2c89b69c2b068fc378daa952ba7f163c4a11628f55a4df523b3ef84604051610bd69190610ea1565b60405180910390a3505050565b6000600660008373ffffffffffffffffffffffffffffffffffffffff1673ffffffffffffffffffffffffffffffffffffffff16815260200190815260200160002060008473ffffffffffffffffffffffffffffffffffffffff1673ffffffffffffffffffffffffffffffffffffffff16815260200190815260200160002054905092915050565b6000808284610c799190610ef3565b905083811015610c8857600080fd5b8091505092915050565b600082821115610ca157600080fd5b60008284610caf9190610f49565b90508091505092915050565b600081359050610cca816110f7565b92915050565b600081359050610cdf8161110e565b92915050565b600060208284031215610cfb57610cfa6110b8565b5b6000610d0984828501610cbb565b91505092915050565b60008060408385031215610d2957610d286110b8565b5b6000610d3785828601610cbb565b9250506020610d4885828601610cbb565b9150509250929050565b600080600060608486031215610d6b57610d6a6110b8565b5b6000610d7986828701610cbb565b9350506020610d8a86828701610cbb565b9250506040610d9b86828701610cd0565b9150509250925092565b60008060408385031215610dbc57610dbb6110b8565b5b6000610dca85828601610cbb565b9250506020610ddb85828601610cd0565b9150509250929050565b6000610df082610ed7565b610dfa8185610ee2565b9350610e0a818560208601610fc6565b610e13816110bd565b840191505092915050565b6000610e2b601f83610ee2565b9150610e36826110ce565b602082019050919050565b610e4a81610faf565b82525050565b610e5981610fb9565b82525050565b60006020820190508181036000830152610e798184610de5565b905092915050565b60006020820190508181036000830152610e9a81610e1e565b9050919050565b6000602082019050610eb66000830184610e41565b92915050565b6000602082019050610ed16000830184610e50565b92915050565b600081519050919050565b600082825260208201905092915050565b6000610efe82610faf565b9150610f0983610faf565b9250827fffffffffffffffffffffffffffffffffffffffffffffffffffffffffffffffff03821115610f3e57610f3d61105a565b5b828201905092915050565b6000610f5482610faf565b9150610f5f83610faf565b925082821015610f7257610f7161105a565b5b828203905092915050565b6000610f8882610f8f565b9050919050565b600073ffffffffffffffffffffffffffffffffffffffff82169050919050565b6000819050919050565b600060ff82169050919050565b60005b83811015610fe4578082015181840152602081019050610fc9565b83811115610ff3576000848401525b50505050565b6000600282049050600182168061101157607f821691505b6020821081141561102557611024611089565b5b50919050565b7f4e487b7100000000000000000000000000000000000000000000000000000000600052600160045260246000fd5b7f4e487b7100000000000000000000000000000000000000000000000000000000600052601160045260246000fd5b7f4e487b7100000000000000000000000000000000000000000000000000000000600052602260045260246000fd5b600080fd5b6000601f19601f8301169050919050565b7f45524332303a206d696e7420746f20746865207a65726f206164647265737300600082015250565b61110081610f7d565b811461110b57600080fd5b50565b61111781610faf565b811461112257600080fd5b5056fea26469706673582212209ab2a3b490bbdd55bd1f92579735f1cbff07c6bf64831a8fb42faa93bb2900c564736f6c63430008070033",
					"opcodes": "PUSH1 0x80 PUSH1 0x40 MSTORE PUSH1 0x40 MLOAD PUSH3 0x12 SWAP1 PUSH3 0xFA JUMP JUMPDEST PUSH1 0x40 MLOAD DUP1 SWAP2 SUB SWAP1 PUSH1 0x0 CREATE DUP1 ISZERO DUP1 ISZERO PUSH3 0x2F JUMPI RETURNDATASIZE PUSH1 0x0 DUP1 RETURNDATACOPY RETURNDATASIZE PUSH1 0x0 REVERT JUMPDEST POP PUSH1 0x5 PUSH1 0x0 PUSH2 0x100 EXP DUP2 SLOAD DUP2 PUSH20 0xFFFFFFFFFFFFFFFFFFFFFFFFFFFFFFFFFFFFFFFF MUL NOT AND SWAP1 DUP4 PUSH20 0xFFFFFFFFFFFFFFFFFFFFFFFFFFFFFFFFFFFFFFFF AND MUL OR SWAP1 SSTORE POP CALLVALUE DUP1 ISZERO PUSH3 0x7D JUMPI PUSH1 0x0 DUP1 REVERT JUMPDEST POP PUSH1 0x40 MLOAD PUSH3 0x21AF CODESIZE SUB DUP1 PUSH3 0x21AF DUP4 CODECOPY DUP2 DUP2 ADD PUSH1 0x40 MSTORE DUP2 ADD SWAP1 PUSH3 0xA3 SWAP2 SWAP1 PUSH3 0x11F JUMP JUMPDEST CALLER PUSH1 0x4 PUSH1 0x0 PUSH2 0x100 EXP DUP2 SLOAD DUP2 PUSH20 0xFFFFFFFFFFFFFFFFFFFFFFFFFFFFFFFFFFFFFFFF MUL NOT AND SWAP1 DUP4 PUSH20 0xFFFFFFFFFFFFFFFFFFFFFFFFFFFFFFFFFFFFFFFF AND MUL OR SWAP1 SSTORE POP DUP2 PUSH1 0x0 DUP2 SWAP1 SSTORE POP DUP1 PUSH1 0x1 DUP2 SWAP1 SSTORE POP POP POP PUSH3 0x18F JUMP JUMPDEST PUSH2 0x13A5 DUP1 PUSH3 0xE0A DUP4 CODECOPY ADD SWAP1 JUMP JUMPDEST PUSH1 0x0 DUP2 MLOAD SWAP1 POP PUSH3 0x119 DUP2 PUSH3 0x175 JUMP JUMPDEST SWAP3 SWAP2 POP POP JUMP JUMPDEST PUSH1 0x0 DUP1 PUSH1 0x40 DUP4 DUP6 SUB SLT ISZERO PUSH3 0x139 JUMPI PUSH3 0x138 PUSH3 0x170 JUMP JUMPDEST JUMPDEST PUSH1 0x0 PUSH3 0x149 DUP6 DUP3 DUP7 ADD PUSH3 0x108 JUMP JUMPDEST SWAP3 POP POP PUSH1 0x20 PUSH3 0x15C DUP6 DUP3 DUP7 ADD PUSH3 0x108 JUMP JUMPDEST SWAP2 POP POP SWAP3 POP SWAP3 SWAP1 POP JUMP JUMPDEST PUSH1 0x0 DUP2 SWAP1 POP SWAP2 SWAP1 POP JUMP JUMPDEST PUSH1 0x0 DUP1 REVERT JUMPDEST PUSH3 0x180 DUP2 PUSH3 0x166 JUMP JUMPDEST DUP2 EQ PUSH3 0x18C JUMPI PUSH1 0x0 DUP1 REVERT JUMPDEST POP JUMP JUMPDEST PUSH2 0xC6B DUP1 PUSH3 0x19F PUSH1 0x0 CODECOPY PUSH1 0x0 RETURN INVALID PUSH1 0x80 PUSH1 0x40 MSTORE CALLVALUE DUP1 ISZERO PUSH2 0x10 JUMPI PUSH1 0x0 DUP1 REVERT JUMPDEST POP PUSH1 0x4 CALLDATASIZE LT PUSH2 0x4C JUMPI PUSH1 0x0 CALLDATALOAD PUSH1 0xE0 SHR DUP1 PUSH4 0x4041EF54 EQ PUSH2 0x51 JUMPI DUP1 PUSH4 0x6DD7D8EA EQ PUSH2 0x81 JUMPI DUP1 PUSH4 0x8203373A EQ PUSH2 0x9D JUMPI DUP1 PUSH4 0xEA58D968 EQ PUSH2 0xB9 JUMPI JUMPDEST PUSH1 0x0 DUP1 REVERT JUMPDEST PUSH2 0x6B PUSH1 0x4 DUP1 CALLDATASIZE SUB DUP2 ADD SWAP1 PUSH2 0x66 SWAP2 SWAP1 PUSH2 0x811 JUMP JUMPDEST PUSH2 0xD5 JUMP JUMPDEST PUSH1 0x40 MLOAD PUSH2 0x78 SWAP2 SWAP1 PUSH2 0x9D4 JUMP JUMPDEST PUSH1 0x40 MLOAD DUP1 SWAP2 SUB SWAP1 RETURN JUMPDEST PUSH2 0x9B PUSH1 0x4 DUP1 CALLDATASIZE SUB DUP2 ADD SWAP1 PUSH2 0x96 SWAP2 SWAP1 PUSH2 0x811 JUMP JUMPDEST PUSH2 0x1F2 JUMP JUMPDEST STOP JUMPDEST PUSH2 0xB7 PUSH1 0x4 DUP1 CALLDATASIZE SUB DUP2 ADD SWAP1 PUSH2 0xB2 SWAP2 SWAP1 PUSH2 0x83E JUMP JUMPDEST PUSH2 0x3FA JUMP JUMPDEST STOP JUMPDEST PUSH2 0xD3 PUSH1 0x4 DUP1 CALLDATASIZE SUB DUP2 ADD SWAP1 PUSH2 0xCE SWAP2 SWAP1 PUSH2 0x887 JUMP JUMPDEST PUSH2 0x5EB JUMP JUMPDEST STOP JUMPDEST PUSH1 0x0 PUSH1 0x1 SLOAD TIMESTAMP LT PUSH2 0xE5 JUMPI PUSH1 0x0 DUP1 REVERT JUMPDEST PUSH1 0x4 PUSH1 0x0 SWAP1 SLOAD SWAP1 PUSH2 0x100 EXP SWAP1 DIV PUSH20 0xFFFFFFFFFFFFFFFFFFFFFFFFFFFFFFFFFFFFFFFF AND PUSH20 0xFFFFFFFFFFFFFFFFFFFFFFFFFFFFFFFFFFFFFFFF AND CALLER PUSH20 0xFFFFFFFFFFFFFFFFFFFFFFFFFFFFFFFFFFFFFFFF AND EQ ISZERO PUSH2 0x140 JUMPI PUSH1 0x0 DUP1 REVERT JUMPDEST PUSH1 0x5 PUSH1 0x0 SWAP1 SLOAD SWAP1 PUSH2 0x100 EXP SWAP1 DIV PUSH20 0xFFFFFFFFFFFFFFFFFFFFFFFFFFFFFFFFFFFFFFFF AND PUSH20 0xFFFFFFFFFFFFFFFFFFFFFFFFFFFFFFFFFFFFFFFF AND PUSH4 0x70A08231 DUP4 PUSH1 0x40 MLOAD DUP3 PUSH4 0xFFFFFFFF AND PUSH1 0xE0 SHL DUP2 MSTORE PUSH1 0x4 ADD PUSH2 0x19B SWAP2 SWAP1 PUSH2 0x959 JUMP JUMPDEST PUSH1 0x20 PUSH1 0x40 MLOAD DUP1 DUP4 SUB DUP2 DUP7 DUP1 EXTCODESIZE ISZERO DUP1 ISZERO PUSH2 0x1B3 JUMPI PUSH1 0x0 DUP1 REVERT JUMPDEST POP GAS STATICCALL ISZERO DUP1 ISZERO PUSH2 0x1C7 JUMPI RETURNDATASIZE PUSH1 0x0 DUP1 RETURNDATACOPY RETURNDATASIZE PUSH1 0x0 REVERT JUMPDEST POP POP POP POP PUSH1 0x40 MLOAD RETURNDATASIZE PUSH1 0x1F NOT PUSH1 0x1F DUP3 ADD AND DUP3 ADD DUP1 PUSH1 0x40 MSTORE POP DUP2 ADD SWAP1 PUSH2 0x1EB SWAP2 SWAP1 PUSH2 0x8FF JUMP JUMPDEST SWAP1 POP SWAP2 SWAP1 POP JUMP JUMPDEST PUSH1 0x1 SLOAD TIMESTAMP GT PUSH2 0x200 JUMPI PUSH1 0x0 DUP1 REVERT JUMPDEST PUSH1 0x2 PUSH1 0x0 CALLER PUSH20 0xFFFFFFFFFFFFFFFFFFFFFFFFFFFFFFFFFFFFFFFF AND PUSH20 0xFFFFFFFFFFFFFFFFFFFFFFFFFFFFFFFFFFFFFFFF AND DUP2 MSTORE PUSH1 0x20 ADD SWAP1 DUP2 MSTORE PUSH1 0x20 ADD PUSH1 0x0 KECCAK256 PUSH1 0x0 SWAP1 SLOAD SWAP1 PUSH2 0x100 EXP SWAP1 DIV PUSH1 0xFF AND PUSH2 0x256 JUMPI PUSH1 0x0 DUP1 REVERT JUMPDEST PUSH1 0x0 PUSH1 0x5 PUSH1 0x0 SWAP1 SLOAD SWAP1 PUSH2 0x100 EXP SWAP1 DIV PUSH20 0xFFFFFFFFFFFFFFFFFFFFFFFFFFFFFFFFFFFFFFFF AND PUSH20 0xFFFFFFFFFFFFFFFFFFFFFFFFFFFFFFFFFFFFFFFF AND PUSH4 0x70A08231 CALLER PUSH1 0x40 MLOAD DUP3 PUSH4 0xFFFFFFFF AND PUSH1 0xE0 SHL DUP2 MSTORE PUSH1 0x4 ADD PUSH2 0x2B3 SWAP2 SWAP1 PUSH2 0x959 JUMP JUMPDEST PUSH1 0x20 PUSH1 0x40 MLOAD DUP1 DUP4 SUB DUP2 DUP7 DUP1 EXTCODESIZE ISZERO DUP1 ISZERO PUSH2 0x2CB JUMPI PUSH1 0x0 DUP1 REVERT JUMPDEST POP GAS STATICCALL ISZERO DUP1 ISZERO PUSH2 0x2DF JUMPI RETURNDATASIZE PUSH1 0x0 DUP1 RETURNDATACOPY RETURNDATASIZE PUSH1 0x0 REVERT JUMPDEST POP POP POP POP PUSH1 0x40 MLOAD RETURNDATASIZE PUSH1 0x1F NOT PUSH1 0x1F DUP3 ADD AND DUP3 ADD DUP1 PUSH1 0x40 MSTORE POP DUP2 ADD SWAP1 PUSH2 0x303 SWAP2 SWAP1 PUSH2 0x8FF JUMP JUMPDEST EQ PUSH2 0x30D JUMPI PUSH1 0x0 DUP1 REVERT JUMPDEST PUSH1 0x5 PUSH1 0x0 SWAP1 SLOAD SWAP1 PUSH2 0x100 EXP SWAP1 DIV PUSH20 0xFFFFFFFFFFFFFFFFFFFFFFFFFFFFFFFFFFFFFFFF AND PUSH20 0xFFFFFFFFFFFFFFFFFFFFFFFFFFFFFFFFFFFFFFFF AND PUSH4 0x23B872DD CALLER DUP4 PUSH1 0x1 PUSH1 0x40 MLOAD DUP5 PUSH4 0xFFFFFFFF AND PUSH1 0xE0 SHL DUP2 MSTORE PUSH1 0x4 ADD PUSH2 0x36D SWAP4 SWAP3 SWAP2 SWAP1 PUSH2 0x974 JUMP JUMPDEST PUSH1 0x0 PUSH1 0x40 MLOAD DUP1 DUP4 SUB DUP2 PUSH1 0x0 DUP8 DUP1 EXTCODESIZE ISZERO DUP1 ISZERO PUSH2 0x387 JUMPI PUSH1 0x0 DUP1 REVERT JUMPDEST POP GAS CALL ISZERO DUP1 ISZERO PUSH2 0x39B JUMPI RETURNDATASIZE PUSH1 0x0 DUP1 RETURNDATACOPY RETURNDATASIZE PUSH1 0x0 REVERT JUMPDEST POP POP POP POP PUSH1 0x1 PUSH1 0x2 PUSH1 0x0 CALLER PUSH20 0xFFFFFFFFFFFFFFFFFFFFFFFFFFFFFFFFFFFFFFFF AND PUSH20 0xFFFFFFFFFFFFFFFFFFFFFFFFFFFFFFFFFFFFFFFF AND DUP2 MSTORE PUSH1 0x20 ADD SWAP1 DUP2 MSTORE PUSH1 0x20 ADD PUSH1 0x0 KECCAK256 PUSH1 0x0 PUSH2 0x100 EXP DUP2 SLOAD DUP2 PUSH1 0xFF MUL NOT AND SWAP1 DUP4 ISZERO ISZERO MUL OR SWAP1 SSTORE POP POP JUMP JUMPDEST PUSH1 0x0 JUMPDEST DUP2 MLOAD DUP2 LT ISZERO PUSH2 0x535 JUMPI PUSH1 0x0 PUSH1 0x2 PUSH1 0x0 DUP5 DUP5 DUP2 MLOAD DUP2 LT PUSH2 0x41F JUMPI PUSH2 0x41E PUSH2 0xB6D JUMP JUMPDEST JUMPDEST PUSH1 0x20 MUL PUSH1 0x20 ADD ADD MLOAD PUSH20 0xFFFFFFFFFFFFFFFFFFFFFFFFFFFFFFFFFFFFFFFF AND PUSH20 0xFFFFFFFFFFFFFFFFFFFFFFFFFFFFFFFFFFFFFFFF AND DUP2 MSTORE PUSH1 0x20 ADD SWAP1 DUP2 MSTORE PUSH1 0x20 ADD PUSH1 0x0 KECCAK256 PUSH1 0x0 PUSH2 0x100 EXP DUP2 SLOAD DUP2 PUSH1 0xFF MUL NOT AND SWAP1 DUP4 ISZERO ISZERO MUL OR SWAP1 SSTORE POP PUSH1 0x5 PUSH1 0x0 SWAP1 SLOAD SWAP1 PUSH2 0x100 EXP SWAP1 DIV PUSH20 0xFFFFFFFFFFFFFFFFFFFFFFFFFFFFFFFFFFFFFFFF AND PUSH20 0xFFFFFFFFFFFFFFFFFFFFFFFFFFFFFFFFFFFFFFFF AND PUSH4 0x40C10F19 DUP4 DUP4 DUP2 MLOAD DUP2 LT PUSH2 0x4C9 JUMPI PUSH2 0x4C8 PUSH2 0xB6D JUMP JUMPDEST JUMPDEST PUSH1 0x20 MUL PUSH1 0x20 ADD ADD MLOAD PUSH1 0x1 PUSH1 0x40 MLOAD DUP4 PUSH4 0xFFFFFFFF AND PUSH1 0xE0 SHL DUP2 MSTORE PUSH1 0x4 ADD PUSH2 0x4F0 SWAP3 SWAP2 SWAP1 PUSH2 0x9AB JUMP JUMPDEST PUSH1 0x0 PUSH1 0x40 MLOAD DUP1 DUP4 SUB DUP2 PUSH1 0x0 DUP8 DUP1 EXTCODESIZE ISZERO DUP1 ISZERO PUSH2 0x50A JUMPI PUSH1 0x0 DUP1 REVERT JUMPDEST POP GAS CALL ISZERO DUP1 ISZERO PUSH2 0x51E JUMPI RETURNDATASIZE PUSH1 0x0 DUP1 RETURNDATACOPY RETURNDATASIZE PUSH1 0x0 REVERT JUMPDEST POP POP POP POP DUP1 DUP1 PUSH2 0x52D SWAP1 PUSH2 0xAF5 JUMP JUMPDEST SWAP2 POP POP PUSH2 0x3FD JUMP JUMPDEST POP PUSH1 0x5 PUSH1 0x0 SWAP1 SLOAD SWAP1 PUSH2 0x100 EXP SWAP1 DIV PUSH20 0xFFFFFFFFFFFFFFFFFFFFFFFFFFFFFFFFFFFFFFFF AND PUSH20 0xFFFFFFFFFFFFFFFFFFFFFFFFFFFFFFFFFFFFFFFF AND PUSH4 0x40C10F19 PUSH1 0x4 PUSH1 0x0 SWAP1 SLOAD SWAP1 PUSH2 0x100 EXP SWAP1 DIV PUSH20 0xFFFFFFFFFFFFFFFFFFFFFFFFFFFFFFFFFFFFFFFF AND PUSH1 0x1 PUSH1 0x40 MLOAD DUP4 PUSH4 0xFFFFFFFF AND PUSH1 0xE0 SHL DUP2 MSTORE PUSH1 0x4 ADD PUSH2 0x5B6 SWAP3 SWAP2 SWAP1 PUSH2 0x9AB JUMP JUMPDEST PUSH1 0x0 PUSH1 0x40 MLOAD DUP1 DUP4 SUB DUP2 PUSH1 0x0 DUP8 DUP1 EXTCODESIZE ISZERO DUP1 ISZERO PUSH2 0x5D0 JUMPI PUSH1 0x0 DUP1 REVERT JUMPDEST POP GAS CALL ISZERO DUP1 ISZERO PUSH2 0x5E4 JUMPI RETURNDATASIZE PUSH1 0x0 DUP1 RETURNDATACOPY RETURNDATASIZE PUSH1 0x0 REVERT JUMPDEST POP POP POP POP POP JUMP JUMPDEST DUP1 MLOAD DUP3 MLOAD EQ ISZERO PUSH2 0x5FA JUMPI PUSH1 0x0 DUP1 REVERT JUMPDEST PUSH1 0x0 JUMPDEST DUP3 MLOAD DUP2 LT ISZERO PUSH2 0x691 JUMPI DUP2 DUP2 DUP2 MLOAD DUP2 LT PUSH2 0x619 JUMPI PUSH2 0x618 PUSH2 0xB6D JUMP JUMPDEST JUMPDEST PUSH1 0x20 MUL PUSH1 0x20 ADD ADD MLOAD PUSH1 0x3 PUSH1 0x0 DUP6 DUP5 DUP2 MLOAD DUP2 LT PUSH2 0x638 JUMPI PUSH2 0x637 PUSH2 0xB6D JUMP JUMPDEST JUMPDEST PUSH1 0x20 MUL PUSH1 0x20 ADD ADD MLOAD PUSH20 0xFFFFFFFFFFFFFFFFFFFFFFFFFFFFFFFFFFFFFFFF AND PUSH20 0xFFFFFFFFFFFFFFFFFFFFFFFFFFFFFFFFFFFFFFFF AND DUP2 MSTORE PUSH1 0x20 ADD SWAP1 DUP2 MSTORE PUSH1 0x20 ADD PUSH1 0x0 KECCAK256 DUP2 SWAP1 SSTORE POP DUP1 DUP1 PUSH2 0x689 SWAP1 PUSH2 0xAF5 JUMP JUMPDEST SWAP2 POP POP PUSH2 0x5FD JUMP JUMPDEST POP POP POP JUMP JUMPDEST PUSH1 0x0 PUSH2 0x6A9 PUSH2 0x6A4 DUP5 PUSH2 0xA14 JUMP JUMPDEST PUSH2 0x9EF JUMP JUMPDEST SWAP1 POP DUP1 DUP4 DUP3 MSTORE PUSH1 0x20 DUP3 ADD SWAP1 POP DUP3 DUP6 PUSH1 0x20 DUP7 MUL DUP3 ADD GT ISZERO PUSH2 0x6CC JUMPI PUSH2 0x6CB PUSH2 0xBD0 JUMP JUMPDEST JUMPDEST PUSH1 0x0 JUMPDEST DUP6 DUP2 LT ISZERO PUSH2 0x6FC JUMPI DUP2 PUSH2 0x6E2 DUP9 DUP3 PUSH2 0x776 JUMP JUMPDEST DUP5 MSTORE PUSH1 0x20 DUP5 ADD SWAP4 POP PUSH1 0x20 DUP4 ADD SWAP3 POP POP PUSH1 0x1 DUP2 ADD SWAP1 POP PUSH2 0x6CF JUMP JUMPDEST POP POP POP SWAP4 SWAP3 POP POP POP JUMP JUMPDEST PUSH1 0x0 PUSH2 0x719 PUSH2 0x714 DUP5 PUSH2 0xA40 JUMP JUMPDEST PUSH2 0x9EF JUMP JUMPDEST SWAP1 POP DUP1 DUP4 DUP3 MSTORE PUSH1 0x20 DUP3 ADD SWAP1 POP DUP3 DUP6 PUSH1 0x20 DUP7 MUL DUP3 ADD GT ISZERO PUSH2 0x73C JUMPI PUSH2 0x73B PUSH2 0xBD0 JUMP JUMPDEST JUMPDEST PUSH1 0x0 JUMPDEST DUP6 DUP2 LT ISZERO PUSH2 0x76C JUMPI DUP2 PUSH2 0x752 DUP9 DUP3 PUSH2 0x7E7 JUMP JUMPDEST DUP5 MSTORE PUSH1 0x20 DUP5 ADD SWAP4 POP PUSH1 0x20 DUP4 ADD SWAP3 POP POP PUSH1 0x1 DUP2 ADD SWAP1 POP PUSH2 0x73F JUMP JUMPDEST POP POP POP SWAP4 SWAP3 POP POP POP JUMP JUMPDEST PUSH1 0x0 DUP2 CALLDATALOAD SWAP1 POP PUSH2 0x785 DUP2 PUSH2 0xBF0 JUMP JUMPDEST SWAP3 SWAP2 POP POP JUMP JUMPDEST PUSH1 0x0 DUP3 PUSH1 0x1F DUP4 ADD SLT PUSH2 0x7A0 JUMPI PUSH2 0x79F PUSH2 0xBCB JUMP JUMPDEST JUMPDEST DUP2 CALLDATALOAD PUSH2 0x7B0 DUP5 DUP3 PUSH1 0x20 DUP7 ADD PUSH2 0x696 JUMP JUMPDEST SWAP2 POP POP SWAP3 SWAP2 POP POP JUMP JUMPDEST PUSH1 0x0 DUP3 PUSH1 0x1F DUP4 ADD SLT PUSH2 0x7CE JUMPI PUSH2 0x7CD PUSH2 0xBCB JUMP JUMPDEST JUMPDEST DUP2 CALLDATALOAD PUSH2 0x7DE DUP5 DUP3 PUSH1 0x20 DUP7 ADD PUSH2 0x706 JUMP JUMPDEST SWAP2 POP POP SWAP3 SWAP2 POP POP JUMP JUMPDEST PUSH1 0x0 DUP2 CALLDATALOAD SWAP1 POP PUSH2 0x7F6 DUP2 PUSH2 0xC07 JUMP JUMPDEST SWAP3 SWAP2 POP POP JUMP JUMPDEST PUSH1 0x0 DUP2 MLOAD SWAP1 POP PUSH2 0x80B DUP2 PUSH2 0xC1E JUMP JUMPDEST SWAP3 SWAP2 POP POP JUMP JUMPDEST PUSH1 0x0 PUSH1 0x20 DUP3 DUP5 SUB SLT ISZERO PUSH2 0x827 JUMPI PUSH2 0x826 PUSH2 0xBDA JUMP JUMPDEST JUMPDEST PUSH1 0x0 PUSH2 0x835 DUP5 DUP3 DUP6 ADD PUSH2 0x776 JUMP JUMPDEST SWAP2 POP POP SWAP3 SWAP2 POP POP JUMP JUMPDEST PUSH1 0x0 PUSH1 0x20 DUP3 DUP5 SUB SLT ISZERO PUSH2 0x854 JUMPI PUSH2 0x853 PUSH2 0xBDA JUMP JUMPDEST JUMPDEST PUSH1 0x0 DUP3 ADD CALLDATALOAD PUSH8 0xFFFFFFFFFFFFFFFF DUP2 GT ISZERO PUSH2 0x872 JUMPI PUSH2 0x871 PUSH2 0xBD5 JUMP JUMPDEST JUMPDEST PUSH2 0x87E DUP5 DUP3 DUP6 ADD PUSH2 0x78B JUMP JUMPDEST SWAP2 POP POP SWAP3 SWAP2 POP POP JUMP JUMPDEST PUSH1 0x0 DUP1 PUSH1 0x40 DUP4 DUP6 SUB SLT ISZERO PUSH2 0x89E JUMPI PUSH2 0x89D PUSH2 0xBDA JUMP JUMPDEST JUMPDEST PUSH1 0x0 DUP4 ADD CALLDATALOAD PUSH8 0xFFFFFFFFFFFFFFFF DUP2 GT ISZERO PUSH2 0x8BC JUMPI PUSH2 0x8BB PUSH2 0xBD5 JUMP JUMPDEST JUMPDEST PUSH2 0x8C8 DUP6 DUP3 DUP7 ADD PUSH2 0x78B JUMP JUMPDEST SWAP3 POP POP PUSH1 0x20 DUP4 ADD CALLDATALOAD PUSH8 0xFFFFFFFFFFFFFFFF DUP2 GT ISZERO PUSH2 0x8E9 JUMPI PUSH2 0x8E8 PUSH2 0xBD5 JUMP JUMPDEST JUMPDEST PUSH2 0x8F5 DUP6 DUP3 DUP7 ADD PUSH2 0x7B9 JUMP JUMPDEST SWAP2 POP POP SWAP3 POP SWAP3 SWAP1 POP JUMP JUMPDEST PUSH1 0x0 PUSH1 0x20 DUP3 DUP5 SUB SLT ISZERO PUSH2 0x915 JUMPI PUSH2 0x914 PUSH2 0xBDA JUMP JUMPDEST JUMPDEST PUSH1 0x0 PUSH2 0x923 DUP5 DUP3 DUP6 ADD PUSH2 0x7FC JUMP JUMPDEST SWAP2 POP POP SWAP3 SWAP2 POP POP JUMP JUMPDEST PUSH2 0x935 DUP2 PUSH2 0xA6C JUMP JUMPDEST DUP3 MSTORE POP POP JUMP JUMPDEST PUSH2 0x944 DUP2 PUSH2 0xAB2 JUMP JUMPDEST DUP3 MSTORE POP POP JUMP JUMPDEST PUSH2 0x953 DUP2 PUSH2 0xAA8 JUMP JUMPDEST DUP3 MSTORE POP POP JUMP JUMPDEST PUSH1 0x0 PUSH1 0x20 DUP3 ADD SWAP1 POP PUSH2 0x96E PUSH1 0x0 DUP4 ADD DUP5 PUSH2 0x92C JUMP JUMPDEST SWAP3 SWAP2 POP POP JUMP JUMPDEST PUSH1 0x0 PUSH1 0x60 DUP3 ADD SWAP1 POP PUSH2 0x989 PUSH1 0x0 DUP4 ADD DUP7 PUSH2 0x92C JUMP JUMPDEST PUSH2 0x996 PUSH1 0x20 DUP4 ADD DUP6 PUSH2 0x92C JUMP JUMPDEST PUSH2 0x9A3 PUSH1 0x40 DUP4 ADD DUP5 PUSH2 0x93B JUMP JUMPDEST SWAP5 SWAP4 POP POP POP POP JUMP JUMPDEST PUSH1 0x0 PUSH1 0x40 DUP3 ADD SWAP1 POP PUSH2 0x9C0 PUSH1 0x0 DUP4 ADD DUP6 PUSH2 0x92C JUMP JUMPDEST PUSH2 0x9CD PUSH1 0x20 DUP4 ADD DUP5 PUSH2 0x93B JUMP JUMPDEST SWAP4 SWAP3 POP POP POP JUMP JUMPDEST PUSH1 0x0 PUSH1 0x20 DUP3 ADD SWAP1 POP PUSH2 0x9E9 PUSH1 0x0 DUP4 ADD DUP5 PUSH2 0x94A JUMP JUMPDEST SWAP3 SWAP2 POP POP JUMP JUMPDEST PUSH1 0x0 PUSH2 0x9F9 PUSH2 0xA0A JUMP JUMPDEST SWAP1 POP PUSH2 0xA05 DUP3 DUP3 PUSH2 0xAC4 JUMP JUMPDEST SWAP2 SWAP1 POP JUMP JUMPDEST PUSH1 0x0 PUSH1 0x40 MLOAD SWAP1 POP SWAP1 JUMP JUMPDEST PUSH1 0x0 PUSH8 0xFFFFFFFFFFFFFFFF DUP3 GT ISZERO PUSH2 0xA2F JUMPI PUSH2 0xA2E PUSH2 0xB9C JUMP JUMPDEST JUMPDEST PUSH1 0x20 DUP3 MUL SWAP1 POP PUSH1 0x20 DUP2 ADD SWAP1 POP SWAP2 SWAP1 POP JUMP JUMPDEST PUSH1 0x0 PUSH8 0xFFFFFFFFFFFFFFFF DUP3 GT ISZERO PUSH2 0xA5B JUMPI PUSH2 0xA5A PUSH2 0xB9C JUMP JUMPDEST JUMPDEST PUSH1 0x20 DUP3 MUL SWAP1 POP PUSH1 0x20 DUP2 ADD SWAP1 POP SWAP2 SWAP1 POP JUMP JUMPDEST PUSH1 0x0 PUSH2 0xA77 DUP3 PUSH2 0xA88 JUMP JUMPDEST SWAP1 POP SWAP2 SWAP1 POP JUMP JUMPDEST PUSH1 0x0 DUP2 SWAP1 POP SWAP2 SWAP1 POP JUMP JUMPDEST PUSH1 0x0 PUSH20 0xFFFFFFFFFFFFFFFFFFFFFFFFFFFFFFFFFFFFFFFF DUP3 AND SWAP1 POP SWAP2 SWAP1 POP JUMP JUMPDEST PUSH1 0x0 DUP2 SWAP1 POP SWAP2 SWAP1 POP JUMP JUMPDEST PUSH1 0x0 PUSH2 0xABD DUP3 PUSH2 0xAA8 JUMP JUMPDEST SWAP1 POP SWAP2 SWAP1 POP JUMP JUMPDEST PUSH2 0xACD DUP3 PUSH2 0xBDF JUMP JUMPDEST DUP2 ADD DUP2 DUP2 LT PUSH8 0xFFFFFFFFFFFFFFFF DUP3 GT OR ISZERO PUSH2 0xAEC JUMPI PUSH2 0xAEB PUSH2 0xB9C JUMP JUMPDEST JUMPDEST DUP1 PUSH1 0x40 MSTORE POP POP POP JUMP JUMPDEST PUSH1 0x0 PUSH2 0xB00 DUP3 PUSH2 0xAA8 JUMP JUMPDEST SWAP2 POP PUSH32 0xFFFFFFFFFFFFFFFFFFFFFFFFFFFFFFFFFFFFFFFFFFFFFFFFFFFFFFFFFFFFFFFF DUP3 EQ ISZERO PUSH2 0xB33 JUMPI PUSH2 0xB32 PUSH2 0xB3E JUMP JUMPDEST JUMPDEST PUSH1 0x1 DUP3 ADD SWAP1 POP SWAP2 SWAP1 POP JUMP JUMPDEST PUSH32 0x4E487B7100000000000000000000000000000000000000000000000000000000 PUSH1 0x0 MSTORE PUSH1 0x11 PUSH1 0x4 MSTORE PUSH1 0x24 PUSH1 0x0 REVERT JUMPDEST PUSH32 0x4E487B7100000000000000000000000000000000000000000000000000000000 PUSH1 0x0 MSTORE PUSH1 0x32 PUSH1 0x4 MSTORE PUSH1 0x24 PUSH1 0x0 REVERT JUMPDEST PUSH32 0x4E487B7100000000000000000000000000000000000000000000000000000000 PUSH1 0x0 MSTORE PUSH1 0x41 PUSH1 0x4 MSTORE PUSH1 0x24 PUSH1 0x0 REVERT JUMPDEST PUSH1 0x0 DUP1 REVERT JUMPDEST PUSH1 0x0 DUP1 REVERT JUMPDEST PUSH1 0x0 DUP1 REVERT JUMPDEST PUSH1 0x0 DUP1 REVERT JUMPDEST PUSH1 0x0 PUSH1 0x1F NOT PUSH1 0x1F DUP4 ADD AND SWAP1 POP SWAP2 SWAP1 POP JUMP JUMPDEST PUSH2 0xBF9 DUP2 PUSH2 0xA6C JUMP JUMPDEST DUP2 EQ PUSH2 0xC04 JUMPI PUSH1 0x0 DUP1 REVERT JUMPDEST POP JUMP JUMPDEST PUSH2 0xC10 DUP2 PUSH2 0xA7E JUMP JUMPDEST DUP2 EQ PUSH2 0xC1B JUMPI PUSH1 0x0 DUP1 REVERT JUMPDEST POP JUMP JUMPDEST PUSH2 0xC27 DUP2 PUSH2 0xAA8 JUMP JUMPDEST DUP2 EQ PUSH2 0xC32 JUMPI PUSH1 0x0 DUP1 REVERT JUMPDEST POP JUMP INVALID LOG2 PUSH5 0x6970667358 0x22 SLT KECCAK256 DUP12 PUSH18 0xA039C32134EFF0CD239FD3D30A36484ACB2F SWAP3 0xDC 0x26 0x1F PUSH28 0xE5094DBBFC808A64736F6C6343000807003360806040523480156200 STOP GT JUMPI PUSH1 0x0 DUP1 REVERT JUMPDEST POP PUSH1 0x0 DUP1 DUP2 SWAP1 SSTORE POP PUSH1 0x40 MLOAD DUP1 PUSH1 0x40 ADD PUSH1 0x40 MSTORE DUP1 PUSH1 0xD DUP2 MSTORE PUSH1 0x20 ADD PUSH32 0x452D566F74696E6720636F696E00000000000000000000000000000000000000 DUP2 MSTORE POP PUSH1 0x1 SWAP1 DUP1 MLOAD SWAP1 PUSH1 0x20 ADD SWAP1 PUSH3 0x66 SWAP3 SWAP2 SWAP1 PUSH3 0x125 JUMP JUMPDEST POP PUSH1 0x4 PUSH1 0x2 PUSH1 0x0 PUSH2 0x100 EXP DUP2 SLOAD DUP2 PUSH1 0xFF MUL NOT AND SWAP1 DUP4 PUSH1 0xFF AND MUL OR SWAP1 SSTORE POP PUSH1 0x40 MLOAD DUP1 PUSH1 0x40 ADD PUSH1 0x40 MSTORE DUP1 PUSH1 0x3 DUP2 MSTORE PUSH1 0x20 ADD PUSH32 0x4556430000000000000000000000000000000000000000000000000000000000 DUP2 MSTORE POP PUSH1 0x3 SWAP1 DUP1 MLOAD SWAP1 PUSH1 0x20 ADD SWAP1 PUSH3 0xD0 SWAP3 SWAP2 SWAP1 PUSH3 0x125 JUMP JUMPDEST POP PUSH1 0x40 MLOAD DUP1 PUSH1 0x40 ADD PUSH1 0x40 MSTORE DUP1 PUSH1 0x3 DUP2 MSTORE PUSH1 0x20 ADD PUSH32 0x312E300000000000000000000000000000000000000000000000000000000000 DUP2 MSTORE POP PUSH1 0x4 SWAP1 DUP1 MLOAD SWAP1 PUSH1 0x20 ADD SWAP1 PUSH3 0x11E SWAP3 SWAP2 SWAP1 PUSH3 0x125 JUMP JUMPDEST POP PUSH3 0x23A JUMP JUMPDEST DUP3 DUP1 SLOAD PUSH3 0x133 SWAP1 PUSH3 0x1D5 JUMP JUMPDEST SWAP1 PUSH1 0x0 MSTORE PUSH1 0x20 PUSH1 0x0 KECCAK256 SWAP1 PUSH1 0x1F ADD PUSH1 0x20 SWAP1 DIV DUP2 ADD SWAP3 DUP3 PUSH3 0x157 JUMPI PUSH1 0x0 DUP6 SSTORE PUSH3 0x1A3 JUMP JUMPDEST DUP3 PUSH1 0x1F LT PUSH3 0x172 JUMPI DUP1 MLOAD PUSH1 0xFF NOT AND DUP4 DUP1 ADD OR DUP6 SSTORE PUSH3 0x1A3 JUMP JUMPDEST DUP3 DUP1 ADD PUSH1 0x1 ADD DUP6 SSTORE DUP3 ISZERO PUSH3 0x1A3 JUMPI SWAP2 DUP3 ADD JUMPDEST DUP3 DUP2 GT ISZERO PUSH3 0x1A2 JUMPI DUP3 MLOAD DUP3 SSTORE SWAP2 PUSH1 0x20 ADD SWAP2 SWAP1 PUSH1 0x1 ADD SWAP1 PUSH3 0x185 JUMP JUMPDEST JUMPDEST POP SWAP1 POP PUSH3 0x1B2 SWAP2 SWAP1 PUSH3 0x1B6 JUMP JUMPDEST POP SWAP1 JUMP JUMPDEST JUMPDEST DUP1 DUP3 GT ISZERO PUSH3 0x1D1 JUMPI PUSH1 0x0 DUP2 PUSH1 0x0 SWAP1 SSTORE POP PUSH1 0x1 ADD PUSH3 0x1B7 JUMP JUMPDEST POP SWAP1 JUMP JUMPDEST PUSH1 0x0 PUSH1 0x2 DUP3 DIV SWAP1 POP PUSH1 0x1 DUP3 AND DUP1 PUSH3 0x1EE JUMPI PUSH1 0x7F DUP3 AND SWAP2 POP JUMPDEST PUSH1 0x20 DUP3 LT DUP2 EQ ISZERO PUSH3 0x205 JUMPI PUSH3 0x204 PUSH3 0x20B JUMP JUMPDEST JUMPDEST POP SWAP2 SWAP1 POP JUMP JUMPDEST PUSH32 0x4E487B7100000000000000000000000000000000000000000000000000000000 PUSH1 0x0 MSTORE PUSH1 0x22 PUSH1 0x4 MSTORE PUSH1 0x24 PUSH1 0x0 REVERT JUMPDEST PUSH2 0x115B DUP1 PUSH3 0x24A PUSH1 0x0 CODECOPY PUSH1 0x0 RETURN INVALID PUSH1 0x80 PUSH1 0x40 MSTORE CALLVALUE DUP1 ISZERO PUSH2 0x10 JUMPI PUSH1 0x0 DUP1 REVERT JUMPDEST POP PUSH1 0x4 CALLDATASIZE LT PUSH2 0xA9 JUMPI PUSH1 0x0 CALLDATALOAD PUSH1 0xE0 SHR DUP1 PUSH4 0x40C10F19 GT PUSH2 0x71 JUMPI DUP1 PUSH4 0x40C10F19 EQ PUSH2 0x140 JUMPI DUP1 PUSH4 0x54FD4D50 EQ PUSH2 0x15C JUMPI DUP1 PUSH4 0x70A08231 EQ PUSH2 0x17A JUMPI DUP1 PUSH4 0x95D89B41 EQ PUSH2 0x1AA JUMPI DUP1 PUSH4 0xA9059CBB EQ PUSH2 0x1C8 JUMPI DUP1 PUSH4 0xDD62ED3E EQ PUSH2 0x1E4 JUMPI PUSH2 0xA9 JUMP JUMPDEST DUP1 PUSH4 0x6FDDE03 EQ PUSH2 0xAE JUMPI DUP1 PUSH4 0x95EA7B3 EQ PUSH2 0xCC JUMPI DUP1 PUSH4 0x18160DDD EQ PUSH2 0xE8 JUMPI DUP1 PUSH4 0x23B872DD EQ PUSH2 0x106 JUMPI DUP1 PUSH4 0x313CE567 EQ PUSH2 0x122 JUMPI JUMPDEST PUSH1 0x0 DUP1 REVERT JUMPDEST PUSH2 0xB6 PUSH2 0x214 JUMP JUMPDEST PUSH1 0x40 MLOAD PUSH2 0xC3 SWAP2 SWAP1 PUSH2 0xE5F JUMP JUMPDEST PUSH1 0x40 MLOAD DUP1 SWAP2 SUB SWAP1 RETURN JUMPDEST PUSH2 0xE6 PUSH1 0x4 DUP1 CALLDATASIZE SUB DUP2 ADD SWAP1 PUSH2 0xE1 SWAP2 SWAP1 PUSH2 0xDA5 JUMP JUMPDEST PUSH2 0x2A2 JUMP JUMPDEST STOP JUMPDEST PUSH2 0xF0 PUSH2 0x38C JUMP JUMPDEST PUSH1 0x40 MLOAD PUSH2 0xFD SWAP2 SWAP1 PUSH2 0xEA1 JUMP JUMPDEST PUSH1 0x40 MLOAD DUP1 SWAP2 SUB SWAP1 RETURN JUMPDEST PUSH2 0x120 PUSH1 0x4 DUP1 CALLDATASIZE SUB DUP2 ADD SWAP1 PUSH2 0x11B SWAP2 SWAP1 PUSH2 0xD52 JUMP JUMPDEST PUSH2 0x392 JUMP JUMPDEST STOP JUMPDEST PUSH2 0x12A PUSH2 0x715 JUMP JUMPDEST PUSH1 0x40 MLOAD PUSH2 0x137 SWAP2 SWAP1 PUSH2 0xEBC JUMP JUMPDEST PUSH1 0x40 MLOAD DUP1 SWAP2 SUB SWAP1 RETURN JUMPDEST PUSH2 0x15A PUSH1 0x4 DUP1 CALLDATASIZE SUB DUP2 ADD SWAP1 PUSH2 0x155 SWAP2 SWAP1 PUSH2 0xDA5 JUMP JUMPDEST PUSH2 0x728 JUMP JUMPDEST STOP JUMPDEST PUSH2 0x164 PUSH2 0x870 JUMP JUMPDEST PUSH1 0x40 MLOAD PUSH2 0x171 SWAP2 SWAP1 PUSH2 0xE5F JUMP JUMPDEST PUSH1 0x40 MLOAD DUP1 SWAP2 SUB SWAP1 RETURN JUMPDEST PUSH2 0x194 PUSH1 0x4 DUP1 CALLDATASIZE SUB DUP2 ADD SWAP1 PUSH2 0x18F SWAP2 SWAP1 PUSH2 0xCE5 JUMP JUMPDEST PUSH2 0x8FE JUMP JUMPDEST PUSH1 0x40 MLOAD PUSH2 0x1A1 SWAP2 SWAP1 PUSH2 0xEA1 JUMP JUMPDEST PUSH1 0x40 MLOAD DUP1 SWAP2 SUB SWAP1 RETURN JUMPDEST PUSH2 0x1B2 PUSH2 0x947 JUMP JUMPDEST PUSH1 0x40 MLOAD PUSH2 0x1BF SWAP2 SWAP1 PUSH2 0xE5F JUMP JUMPDEST PUSH1 0x40 MLOAD DUP1 SWAP2 SUB SWAP1 RETURN JUMPDEST PUSH2 0x1E2 PUSH1 0x4 DUP1 CALLDATASIZE SUB DUP2 ADD SWAP1 PUSH2 0x1DD SWAP2 SWAP1 PUSH2 0xDA5 JUMP JUMPDEST PUSH2 0x9D5 JUMP JUMPDEST STOP JUMPDEST PUSH2 0x1FE PUSH1 0x4 DUP1 CALLDATASIZE SUB DUP2 ADD SWAP1 PUSH2 0x1F9 SWAP2 SWAP1 PUSH2 0xD12 JUMP JUMPDEST PUSH2 0xBE3 JUMP JUMPDEST PUSH1 0x40 MLOAD PUSH2 0x20B SWAP2 SWAP1 PUSH2 0xEA1 JUMP JUMPDEST PUSH1 0x40 MLOAD DUP1 SWAP2 SUB SWAP1 RETURN JUMPDEST PUSH1 0x1 DUP1 SLOAD PUSH2 0x221 SWAP1 PUSH2 0xFF9 JUMP JUMPDEST DUP1 PUSH1 0x1F ADD PUSH1 0x20 DUP1 SWAP2 DIV MUL PUSH1 0x20 ADD PUSH1 0x40 MLOAD SWAP1 DUP2 ADD PUSH1 0x40 MSTORE DUP1 SWAP3 SWAP2 SWAP1 DUP2 DUP2 MSTORE PUSH1 0x20 ADD DUP3 DUP1 SLOAD PUSH2 0x24D SWAP1 PUSH2 0xFF9 JUMP JUMPDEST DUP1 ISZERO PUSH2 0x29A JUMPI DUP1 PUSH1 0x1F LT PUSH2 0x26F JUMPI PUSH2 0x100 DUP1 DUP4 SLOAD DIV MUL DUP4 MSTORE SWAP2 PUSH1 0x20 ADD SWAP2 PUSH2 0x29A JUMP JUMPDEST DUP3 ADD SWAP2 SWAP1 PUSH1 0x0 MSTORE PUSH1 0x20 PUSH1 0x0 KECCAK256 SWAP1 JUMPDEST DUP2 SLOAD DUP2 MSTORE SWAP1 PUSH1 0x1 ADD SWAP1 PUSH1 0x20 ADD DUP1 DUP4 GT PUSH2 0x27D JUMPI DUP3 SWAP1 SUB PUSH1 0x1F AND DUP3 ADD SWAP2 JUMPDEST POP POP POP POP POP DUP2 JUMP JUMPDEST DUP1 PUSH1 0x6 PUSH1 0x0 CALLER PUSH20 0xFFFFFFFFFFFFFFFFFFFFFFFFFFFFFFFFFFFFFFFF AND PUSH20 0xFFFFFFFFFFFFFFFFFFFFFFFFFFFFFFFFFFFFFFFF AND DUP2 MSTORE PUSH1 0x20 ADD SWAP1 DUP2 MSTORE PUSH1 0x20 ADD PUSH1 0x0 KECCAK256 PUSH1 0x0 DUP5 PUSH20 0xFFFFFFFFFFFFFFFFFFFFFFFFFFFFFFFFFFFFFFFF AND PUSH20 0xFFFFFFFFFFFFFFFFFFFFFFFFFFFFFFFFFFFFFFFF AND DUP2 MSTORE PUSH1 0x20 ADD SWAP1 DUP2 MSTORE PUSH1 0x20 ADD PUSH1 0x0 KECCAK256 DUP2 SWAP1 SSTORE POP DUP2 PUSH20 0xFFFFFFFFFFFFFFFFFFFFFFFFFFFFFFFFFFFFFFFF AND CALLER PUSH20 0xFFFFFFFFFFFFFFFFFFFFFFFFFFFFFFFFFFFFFFFF AND PUSH32 0x8C5BE1E5EBEC7D5BD14F71427D1E84F3DD0314C0F7B2291E5B200AC8C7C3B925 DUP4 PUSH1 0x40 MLOAD PUSH2 0x380 SWAP2 SWAP1 PUSH2 0xEA1 JUMP JUMPDEST PUSH1 0x40 MLOAD DUP1 SWAP2 SUB SWAP1 LOG3 POP POP JUMP JUMPDEST PUSH1 0x0 SLOAD DUP2 JUMP JUMPDEST DUP1 PUSH1 0x5 PUSH1 0x0 DUP6 PUSH20 0xFFFFFFFFFFFFFFFFFFFFFFFFFFFFFFFFFFFFFFFF AND PUSH20 0xFFFFFFFFFFFFFFFFFFFFFFFFFFFFFFFFFFFFFFFF AND DUP2 MSTORE PUSH1 0x20 ADD SWAP1 DUP2 MSTORE PUSH1 0x20 ADD PUSH1 0x0 KECCAK256 SLOAD LT ISZERO DUP1 ISZERO PUSH2 0x45D JUMPI POP DUP1 PUSH1 0x6 PUSH1 0x0 DUP6 PUSH20 0xFFFFFFFFFFFFFFFFFFFFFFFFFFFFFFFFFFFFFFFF AND PUSH20 0xFFFFFFFFFFFFFFFFFFFFFFFFFFFFFFFFFFFFFFFF AND DUP2 MSTORE PUSH1 0x20 ADD SWAP1 DUP2 MSTORE PUSH1 0x20 ADD PUSH1 0x0 KECCAK256 PUSH1 0x0 CALLER PUSH20 0xFFFFFFFFFFFFFFFFFFFFFFFFFFFFFFFFFFFFFFFF AND PUSH20 0xFFFFFFFFFFFFFFFFFFFFFFFFFFFFFFFFFFFFFFFF AND DUP2 MSTORE PUSH1 0x20 ADD SWAP1 DUP2 MSTORE PUSH1 0x20 ADD PUSH1 0x0 KECCAK256 SLOAD LT ISZERO JUMPDEST DUP1 ISZERO PUSH2 0x469 JUMPI POP PUSH1 0x0 DUP2 GT JUMPDEST PUSH2 0x472 JUMPI PUSH1 0x0 DUP1 REVERT JUMPDEST PUSH2 0x4C4 DUP2 PUSH1 0x5 PUSH1 0x0 DUP6 PUSH20 0xFFFFFFFFFFFFFFFFFFFFFFFFFFFFFFFFFFFFFFFF AND PUSH20 0xFFFFFFFFFFFFFFFFFFFFFFFFFFFFFFFFFFFFFFFF AND DUP2 MSTORE PUSH1 0x20 ADD SWAP1 DUP2 MSTORE PUSH1 0x20 ADD PUSH1 0x0 KECCAK256 SLOAD PUSH2 0xC6A SWAP1 SWAP2 SWAP1 PUSH4 0xFFFFFFFF AND JUMP JUMPDEST PUSH1 0x5 PUSH1 0x0 DUP5 PUSH20 0xFFFFFFFFFFFFFFFFFFFFFFFFFFFFFFFFFFFFFFFF AND PUSH20 0xFFFFFFFFFFFFFFFFFFFFFFFFFFFFFFFFFFFFFFFF AND DUP2 MSTORE PUSH1 0x20 ADD SWAP1 DUP2 MSTORE PUSH1 0x20 ADD PUSH1 0x0 KECCAK256 DUP2 SWAP1 SSTORE POP PUSH2 0x559 DUP2 PUSH1 0x5 PUSH1 0x0 DUP7 PUSH20 0xFFFFFFFFFFFFFFFFFFFFFFFFFFFFFFFFFFFFFFFF AND PUSH20 0xFFFFFFFFFFFFFFFFFFFFFFFFFFFFFFFFFFFFFFFF AND DUP2 MSTORE PUSH1 0x20 ADD SWAP1 DUP2 MSTORE PUSH1 0x20 ADD PUSH1 0x0 KECCAK256 SLOAD PUSH2 0xC92 SWAP1 SWAP2 SWAP1 PUSH4 0xFFFFFFFF AND JUMP JUMPDEST PUSH1 0x5 PUSH1 0x0 DUP6 PUSH20 0xFFFFFFFFFFFFFFFFFFFFFFFFFFFFFFFFFFFFFFFF AND PUSH20 0xFFFFFFFFFFFFFFFFFFFFFFFFFFFFFFFFFFFFFFFF AND DUP2 MSTORE PUSH1 0x20 ADD SWAP1 DUP2 MSTORE PUSH1 0x20 ADD PUSH1 0x0 KECCAK256 DUP2 SWAP1 SSTORE POP PUSH2 0x62B DUP2 PUSH1 0x6 PUSH1 0x0 DUP7 PUSH20 0xFFFFFFFFFFFFFFFFFFFFFFFFFFFFFFFFFFFFFFFF AND PUSH20 0xFFFFFFFFFFFFFFFFFFFFFFFFFFFFFFFFFFFFFFFF AND DUP2 MSTORE PUSH1 0x20 ADD SWAP1 DUP2 MSTORE PUSH1 0x20 ADD PUSH1 0x0 KECCAK256 PUSH1 0x0 CALLER PUSH20 0xFFFFFFFFFFFFFFFFFFFFFFFFFFFFFFFFFFFFFFFF AND PUSH20 0xFFFFFFFFFFFFFFFFFFFFFFFFFFFFFFFFFFFFFFFF AND DUP2 MSTORE PUSH1 0x20 ADD SWAP1 DUP2 MSTORE PUSH1 0x20 ADD PUSH1 0x0 KECCAK256 SLOAD PUSH2 0xC92 SWAP1 SWAP2 SWAP1 PUSH4 0xFFFFFFFF AND JUMP JUMPDEST PUSH1 0x6 PUSH1 0x0 DUP6 PUSH20 0xFFFFFFFFFFFFFFFFFFFFFFFFFFFFFFFFFFFFFFFF AND PUSH20 0xFFFFFFFFFFFFFFFFFFFFFFFFFFFFFFFFFFFFFFFF AND DUP2 MSTORE PUSH1 0x20 ADD SWAP1 DUP2 MSTORE PUSH1 0x20 ADD PUSH1 0x0 KECCAK256 PUSH1 0x0 CALLER PUSH20 0xFFFFFFFFFFFFFFFFFFFFFFFFFFFFFFFFFFFFFFFF AND PUSH20 0xFFFFFFFFFFFFFFFFFFFFFFFFFFFFFFFFFFFFFFFF AND DUP2 MSTORE PUSH1 0x20 ADD SWAP1 DUP2 MSTORE PUSH1 0x20 ADD PUSH1 0x0 KECCAK256 DUP2 SWAP1 SSTORE POP DUP2 PUSH20 0xFFFFFFFFFFFFFFFFFFFFFFFFFFFFFFFFFFFFFFFF AND DUP4 PUSH20 0xFFFFFFFFFFFFFFFFFFFFFFFFFFFFFFFFFFFFFFFF AND PUSH32 0xDDF252AD1BE2C89B69C2B068FC378DAA952BA7F163C4A11628F55A4DF523B3EF DUP4 PUSH1 0x40 MLOAD PUSH2 0x708 SWAP2 SWAP1 PUSH2 0xEA1 JUMP JUMPDEST PUSH1 0x40 MLOAD DUP1 SWAP2 SUB SWAP1 LOG3 POP POP POP JUMP JUMPDEST PUSH1 0x2 PUSH1 0x0 SWAP1 SLOAD SWAP1 PUSH2 0x100 EXP SWAP1 DIV PUSH1 0xFF AND DUP2 JUMP JUMPDEST PUSH1 0x0 PUSH20 0xFFFFFFFFFFFFFFFFFFFFFFFFFFFFFFFFFFFFFFFF AND DUP3 PUSH20 0xFFFFFFFFFFFFFFFFFFFFFFFFFFFFFFFFFFFFFFFF AND EQ ISZERO PUSH2 0x798 JUMPI PUSH1 0x40 MLOAD PUSH32 0x8C379A000000000000000000000000000000000000000000000000000000000 DUP2 MSTORE PUSH1 0x4 ADD PUSH2 0x78F SWAP1 PUSH2 0xE81 JUMP JUMPDEST PUSH1 0x40 MLOAD DUP1 SWAP2 SUB SWAP1 REVERT JUMPDEST DUP1 PUSH1 0x0 DUP1 DUP3 DUP3 SLOAD PUSH2 0x7A9 SWAP2 SWAP1 PUSH2 0xEF3 JUMP JUMPDEST SWAP3 POP POP DUP2 SWAP1 SSTORE POP DUP1 PUSH1 0x5 PUSH1 0x0 DUP5 PUSH20 0xFFFFFFFFFFFFFFFFFFFFFFFFFFFFFFFFFFFFFFFF AND PUSH20 0xFFFFFFFFFFFFFFFFFFFFFFFFFFFFFFFFFFFFFFFF AND DUP2 MSTORE PUSH1 0x20 ADD SWAP1 DUP2 MSTORE PUSH1 0x20 ADD PUSH1 0x0 KECCAK256 PUSH1 0x0 DUP3 DUP3 SLOAD PUSH2 0x7FF SWAP2 SWAP1 PUSH2 0xEF3 JUMP JUMPDEST SWAP3 POP POP DUP2 SWAP1 SSTORE POP DUP2 PUSH20 0xFFFFFFFFFFFFFFFFFFFFFFFFFFFFFFFFFFFFFFFF AND PUSH1 0x0 PUSH20 0xFFFFFFFFFFFFFFFFFFFFFFFFFFFFFFFFFFFFFFFF AND PUSH32 0xDDF252AD1BE2C89B69C2B068FC378DAA952BA7F163C4A11628F55A4DF523B3EF DUP4 PUSH1 0x40 MLOAD PUSH2 0x864 SWAP2 SWAP1 PUSH2 0xEA1 JUMP JUMPDEST PUSH1 0x40 MLOAD DUP1 SWAP2 SUB SWAP1 LOG3 POP POP JUMP JUMPDEST PUSH1 0x4 DUP1 SLOAD PUSH2 0x87D SWAP1 PUSH2 0xFF9 JUMP JUMPDEST DUP1 PUSH1 0x1F ADD PUSH1 0x20 DUP1 SWAP2 DIV MUL PUSH1 0x20 ADD PUSH1 0x40 MLOAD SWAP1 DUP2 ADD PUSH1 0x40 MSTORE DUP1 SWAP3 SWAP2 SWAP1 DUP2 DUP2 MSTORE PUSH1 0x20 ADD DUP3 DUP1 SLOAD PUSH2 0x8A9 SWAP1 PUSH2 0xFF9 JUMP JUMPDEST DUP1 ISZERO PUSH2 0x8F6 JUMPI DUP1 PUSH1 0x1F LT PUSH2 0x8CB JUMPI PUSH2 0x100 DUP1 DUP4 SLOAD DIV MUL DUP4 MSTORE SWAP2 PUSH1 0x20 ADD SWAP2 PUSH2 0x8F6 JUMP JUMPDEST DUP3 ADD SWAP2 SWAP1 PUSH1 0x0 MSTORE PUSH1 0x20 PUSH1 0x0 KECCAK256 SWAP1 JUMPDEST DUP2 SLOAD DUP2 MSTORE SWAP1 PUSH1 0x1 ADD SWAP1 PUSH1 0x20 ADD DUP1 DUP4 GT PUSH2 0x8D9 JUMPI DUP3 SWAP1 SUB PUSH1 0x1F AND DUP3 ADD SWAP2 JUMPDEST POP POP POP POP POP DUP2 JUMP JUMPDEST PUSH1 0x0 PUSH1 0x5 PUSH1 0x0 DUP4 PUSH20 0xFFFFFFFFFFFFFFFFFFFFFFFFFFFFFFFFFFFFFFFF AND PUSH20 0xFFFFFFFFFFFFFFFFFFFFFFFFFFFFFFFFFFFFFFFF AND DUP2 MSTORE PUSH1 0x20 ADD SWAP1 DUP2 MSTORE PUSH1 0x20 ADD PUSH1 0x0 KECCAK256 SLOAD SWAP1 POP SWAP2 SWAP1 POP JUMP JUMPDEST PUSH1 0x3 DUP1 SLOAD PUSH2 0x954 SWAP1 PUSH2 0xFF9 JUMP JUMPDEST DUP1 PUSH1 0x1F ADD PUSH1 0x20 DUP1 SWAP2 DIV MUL PUSH1 0x20 ADD PUSH1 0x40 MLOAD SWAP1 DUP2 ADD PUSH1 0x40 MSTORE DUP1 SWAP3 SWAP2 SWAP1 DUP2 DUP2 MSTORE PUSH1 0x20 ADD DUP3 DUP1 SLOAD PUSH2 0x980 SWAP1 PUSH2 0xFF9 JUMP JUMPDEST DUP1 ISZERO PUSH2 0x9CD JUMPI DUP1 PUSH1 0x1F LT PUSH2 0x9A2 JUMPI PUSH2 0x100 DUP1 DUP4 SLOAD DIV MUL DUP4 MSTORE SWAP2 PUSH1 0x20 ADD SWAP2 PUSH2 0x9CD JUMP JUMPDEST DUP3 ADD SWAP2 SWAP1 PUSH1 0x0 MSTORE PUSH1 0x20 PUSH1 0x0 KECCAK256 SWAP1 JUMPDEST DUP2 SLOAD DUP2 MSTORE SWAP1 PUSH1 0x1 ADD SWAP1 PUSH1 0x20 ADD DUP1 DUP4 GT PUSH2 0x9B0 JUMPI DUP3 SWAP1 SUB PUSH1 0x1F AND DUP3 ADD SWAP2 JUMPDEST POP POP POP POP POP DUP2 JUMP JUMPDEST PUSH1 0x40 PUSH1 0x4 DUP2 PUSH2 0x9E4 SWAP2 SWAP1 PUSH2 0xEF3 JUMP JUMPDEST PUSH1 0x0 CALLDATASIZE SWAP1 POP EQ PUSH2 0x9F7 JUMPI PUSH2 0x9F6 PUSH2 0x102B JUMP JUMPDEST JUMPDEST DUP2 PUSH1 0x5 PUSH1 0x0 CALLER PUSH20 0xFFFFFFFFFFFFFFFFFFFFFFFFFFFFFFFFFFFFFFFF AND PUSH20 0xFFFFFFFFFFFFFFFFFFFFFFFFFFFFFFFFFFFFFFFF AND DUP2 MSTORE PUSH1 0x20 ADD SWAP1 DUP2 MSTORE PUSH1 0x20 ADD PUSH1 0x0 KECCAK256 SLOAD LT ISZERO DUP1 ISZERO PUSH2 0xA46 JUMPI POP PUSH1 0x0 DUP3 GT JUMPDEST PUSH2 0xA4F JUMPI PUSH1 0x0 DUP1 REVERT JUMPDEST PUSH2 0xAA1 DUP3 PUSH1 0x5 PUSH1 0x0 CALLER PUSH20 0xFFFFFFFFFFFFFFFFFFFFFFFFFFFFFFFFFFFFFFFF AND PUSH20 0xFFFFFFFFFFFFFFFFFFFFFFFFFFFFFFFFFFFFFFFF AND DUP2 MSTORE PUSH1 0x20 ADD SWAP1 DUP2 MSTORE PUSH1 0x20 ADD PUSH1 0x0 KECCAK256 SLOAD PUSH2 0xC92 SWAP1 SWAP2 SWAP1 PUSH4 0xFFFFFFFF AND JUMP JUMPDEST PUSH1 0x5 PUSH1 0x0 CALLER PUSH20 0xFFFFFFFFFFFFFFFFFFFFFFFFFFFFFFFFFFFFFFFF AND PUSH20 0xFFFFFFFFFFFFFFFFFFFFFFFFFFFFFFFFFFFFFFFF AND DUP2 MSTORE PUSH1 0x20 ADD SWAP1 DUP2 MSTORE PUSH1 0x20 ADD PUSH1 0x0 KECCAK256 DUP2 SWAP1 SSTORE POP PUSH2 0xB36 DUP3 PUSH1 0x5 PUSH1 0x0 DUP7 PUSH20 0xFFFFFFFFFFFFFFFFFFFFFFFFFFFFFFFFFFFFFFFF AND PUSH20 0xFFFFFFFFFFFFFFFFFFFFFFFFFFFFFFFFFFFFFFFF AND DUP2 MSTORE PUSH1 0x20 ADD SWAP1 DUP2 MSTORE PUSH1 0x20 ADD PUSH1 0x0 KECCAK256 SLOAD PUSH2 0xC6A SWAP1 SWAP2 SWAP1 PUSH4 0xFFFFFFFF AND JUMP JUMPDEST PUSH1 0x5 PUSH1 0x0 DUP6 PUSH20 0xFFFFFFFFFFFFFFFFFFFFFFFFFFFFFFFFFFFFFFFF AND PUSH20 0xFFFFFFFFFFFFFFFFFFFFFFFFFFFFFFFFFFFFFFFF AND DUP2 MSTORE PUSH1 0x20 ADD SWAP1 DUP2 MSTORE PUSH1 0x20 ADD PUSH1 0x0 KECCAK256 DUP2 SWAP1 SSTORE POP DUP3 PUSH20 0xFFFFFFFFFFFFFFFFFFFFFFFFFFFFFFFFFFFFFFFF AND CALLER PUSH20 0xFFFFFFFFFFFFFFFFFFFFFFFFFFFFFFFFFFFFFFFF AND PUSH32 0xDDF252AD1BE2C89B69C2B068FC378DAA952BA7F163C4A11628F55A4DF523B3EF DUP5 PUSH1 0x40 MLOAD PUSH2 0xBD6 SWAP2 SWAP1 PUSH2 0xEA1 JUMP JUMPDEST PUSH1 0x40 MLOAD DUP1 SWAP2 SUB SWAP1 LOG3 POP POP POP JUMP JUMPDEST PUSH1 0x0 PUSH1 0x6 PUSH1 0x0 DUP4 PUSH20 0xFFFFFFFFFFFFFFFFFFFFFFFFFFFFFFFFFFFFFFFF AND PUSH20 0xFFFFFFFFFFFFFFFFFFFFFFFFFFFFFFFFFFFFFFFF AND DUP2 MSTORE PUSH1 0x20 ADD SWAP1 DUP2 MSTORE PUSH1 0x20 ADD PUSH1 0x0 KECCAK256 PUSH1 0x0 DUP5 PUSH20 0xFFFFFFFFFFFFFFFFFFFFFFFFFFFFFFFFFFFFFFFF AND PUSH20 0xFFFFFFFFFFFFFFFFFFFFFFFFFFFFFFFFFFFFFFFF AND DUP2 MSTORE PUSH1 0x20 ADD SWAP1 DUP2 MSTORE PUSH1 0x20 ADD PUSH1 0x0 KECCAK256 SLOAD SWAP1 POP SWAP3 SWAP2 POP POP JUMP JUMPDEST PUSH1 0x0 DUP1 DUP3 DUP5 PUSH2 0xC79 SWAP2 SWAP1 PUSH2 0xEF3 JUMP JUMPDEST SWAP1 POP DUP4 DUP2 LT ISZERO PUSH2 0xC88 JUMPI PUSH1 0x0 DUP1 REVERT JUMPDEST DUP1 SWAP2 POP POP SWAP3 SWAP2 POP POP JUMP JUMPDEST PUSH1 0x0 DUP3 DUP3 GT ISZERO PUSH2 0xCA1 JUMPI PUSH1 0x0 DUP1 REVERT JUMPDEST PUSH1 0x0 DUP3 DUP5 PUSH2 0xCAF SWAP2 SWAP1 PUSH2 0xF49 JUMP JUMPDEST SWAP1 POP DUP1 SWAP2 POP POP SWAP3 SWAP2 POP POP JUMP JUMPDEST PUSH1 0x0 DUP2 CALLDATALOAD SWAP1 POP PUSH2 0xCCA DUP2 PUSH2 0x10F7 JUMP JUMPDEST SWAP3 SWAP2 POP POP JUMP JUMPDEST PUSH1 0x0 DUP2 CALLDATALOAD SWAP1 POP PUSH2 0xCDF DUP2 PUSH2 0x110E JUMP JUMPDEST SWAP3 SWAP2 POP POP JUMP JUMPDEST PUSH1 0x0 PUSH1 0x20 DUP3 DUP5 SUB SLT ISZERO PUSH2 0xCFB JUMPI PUSH2 0xCFA PUSH2 0x10B8 JUMP JUMPDEST JUMPDEST PUSH1 0x0 PUSH2 0xD09 DUP5 DUP3 DUP6 ADD PUSH2 0xCBB JUMP JUMPDEST SWAP2 POP POP SWAP3 SWAP2 POP POP JUMP JUMPDEST PUSH1 0x0 DUP1 PUSH1 0x40 DUP4 DUP6 SUB SLT ISZERO PUSH2 0xD29 JUMPI PUSH2 0xD28 PUSH2 0x10B8 JUMP JUMPDEST JUMPDEST PUSH1 0x0 PUSH2 0xD37 DUP6 DUP3 DUP7 ADD PUSH2 0xCBB JUMP JUMPDEST SWAP3 POP POP PUSH1 0x20 PUSH2 0xD48 DUP6 DUP3 DUP7 ADD PUSH2 0xCBB JUMP JUMPDEST SWAP2 POP POP SWAP3 POP SWAP3 SWAP1 POP JUMP JUMPDEST PUSH1 0x0 DUP1 PUSH1 0x0 PUSH1 0x60 DUP5 DUP7 SUB SLT ISZERO PUSH2 0xD6B JUMPI PUSH2 0xD6A PUSH2 0x10B8 JUMP JUMPDEST JUMPDEST PUSH1 0x0 PUSH2 0xD79 DUP7 DUP3 DUP8 ADD PUSH2 0xCBB JUMP JUMPDEST SWAP4 POP POP PUSH1 0x20 PUSH2 0xD8A DUP7 DUP3 DUP8 ADD PUSH2 0xCBB JUMP JUMPDEST SWAP3 POP POP PUSH1 0x40 PUSH2 0xD9B DUP7 DUP3 DUP8 ADD PUSH2 0xCD0 JUMP JUMPDEST SWAP2 POP POP SWAP3 POP SWAP3 POP SWAP3 JUMP JUMPDEST PUSH1 0x0 DUP1 PUSH1 0x40 DUP4 DUP6 SUB SLT ISZERO PUSH2 0xDBC JUMPI PUSH2 0xDBB PUSH2 0x10B8 JUMP JUMPDEST JUMPDEST PUSH1 0x0 PUSH2 0xDCA DUP6 DUP3 DUP7 ADD PUSH2 0xCBB JUMP JUMPDEST SWAP3 POP POP PUSH1 0x20 PUSH2 0xDDB DUP6 DUP3 DUP7 ADD PUSH2 0xCD0 JUMP JUMPDEST SWAP2 POP POP SWAP3 POP SWAP3 SWAP1 POP JUMP JUMPDEST PUSH1 0x0 PUSH2 0xDF0 DUP3 PUSH2 0xED7 JUMP JUMPDEST PUSH2 0xDFA DUP2 DUP6 PUSH2 0xEE2 JUMP JUMPDEST SWAP4 POP PUSH2 0xE0A DUP2 DUP6 PUSH1 0x20 DUP7 ADD PUSH2 0xFC6 JUMP JUMPDEST PUSH2 0xE13 DUP2 PUSH2 0x10BD JUMP JUMPDEST DUP5 ADD SWAP2 POP POP SWAP3 SWAP2 POP POP JUMP JUMPDEST PUSH1 0x0 PUSH2 0xE2B PUSH1 0x1F DUP4 PUSH2 0xEE2 JUMP JUMPDEST SWAP2 POP PUSH2 0xE36 DUP3 PUSH2 0x10CE JUMP JUMPDEST PUSH1 0x20 DUP3 ADD SWAP1 POP SWAP2 SWAP1 POP JUMP JUMPDEST PUSH2 0xE4A DUP2 PUSH2 0xFAF JUMP JUMPDEST DUP3 MSTORE POP POP JUMP JUMPDEST PUSH2 0xE59 DUP2 PUSH2 0xFB9 JUMP JUMPDEST DUP3 MSTORE POP POP JUMP JUMPDEST PUSH1 0x0 PUSH1 0x20 DUP3 ADD SWAP1 POP DUP2 DUP2 SUB PUSH1 0x0 DUP4 ADD MSTORE PUSH2 0xE79 DUP2 DUP5 PUSH2 0xDE5 JUMP JUMPDEST SWAP1 POP SWAP3 SWAP2 POP POP JUMP JUMPDEST PUSH1 0x0 PUSH1 0x20 DUP3 ADD SWAP1 POP DUP2 DUP2 SUB PUSH1 0x0 DUP4 ADD MSTORE PUSH2 0xE9A DUP2 PUSH2 0xE1E JUMP JUMPDEST SWAP1 POP SWAP2 SWAP1 POP JUMP JUMPDEST PUSH1 0x0 PUSH1 0x20 DUP3 ADD SWAP1 POP PUSH2 0xEB6 PUSH1 0x0 DUP4 ADD DUP5 PUSH2 0xE41 JUMP JUMPDEST SWAP3 SWAP2 POP POP JUMP JUMPDEST PUSH1 0x0 PUSH1 0x20 DUP3 ADD SWAP1 POP PUSH2 0xED1 PUSH1 0x0 DUP4 ADD DUP5 PUSH2 0xE50 JUMP JUMPDEST SWAP3 SWAP2 POP POP JUMP JUMPDEST PUSH1 0x0 DUP2 MLOAD SWAP1 POP SWAP2 SWAP1 POP JUMP JUMPDEST PUSH1 0x0 DUP3 DUP3 MSTORE PUSH1 0x20 DUP3 ADD SWAP1 POP SWAP3 SWAP2 POP POP JUMP JUMPDEST PUSH1 0x0 PUSH2 0xEFE DUP3 PUSH2 0xFAF JUMP JUMPDEST SWAP2 POP PUSH2 0xF09 DUP4 PUSH2 0xFAF JUMP JUMPDEST SWAP3 POP DUP3 PUSH32 0xFFFFFFFFFFFFFFFFFFFFFFFFFFFFFFFFFFFFFFFFFFFFFFFFFFFFFFFFFFFFFFFF SUB DUP3 GT ISZERO PUSH2 0xF3E JUMPI PUSH2 0xF3D PUSH2 0x105A JUMP JUMPDEST JUMPDEST DUP3 DUP3 ADD SWAP1 POP SWAP3 SWAP2 POP POP JUMP JUMPDEST PUSH1 0x0 PUSH2 0xF54 DUP3 PUSH2 0xFAF JUMP JUMPDEST SWAP2 POP PUSH2 0xF5F DUP4 PUSH2 0xFAF JUMP JUMPDEST SWAP3 POP DUP3 DUP3 LT ISZERO PUSH2 0xF72 JUMPI PUSH2 0xF71 PUSH2 0x105A JUMP JUMPDEST JUMPDEST DUP3 DUP3 SUB SWAP1 POP SWAP3 SWAP2 POP POP JUMP JUMPDEST PUSH1 0x0 PUSH2 0xF88 DUP3 PUSH2 0xF8F JUMP JUMPDEST SWAP1 POP SWAP2 SWAP1 POP JUMP JUMPDEST PUSH1 0x0 PUSH20 0xFFFFFFFFFFFFFFFFFFFFFFFFFFFFFFFFFFFFFFFF DUP3 AND SWAP1 POP SWAP2 SWAP1 POP JUMP JUMPDEST PUSH1 0x0 DUP2 SWAP1 POP SWAP2 SWAP1 POP JUMP JUMPDEST PUSH1 0x0 PUSH1 0xFF DUP3 AND SWAP1 POP SWAP2 SWAP1 POP JUMP JUMPDEST PUSH1 0x0 JUMPDEST DUP4 DUP2 LT ISZERO PUSH2 0xFE4 JUMPI DUP1 DUP3 ADD MLOAD DUP2 DUP5 ADD MSTORE PUSH1 0x20 DUP2 ADD SWAP1 POP PUSH2 0xFC9 JUMP JUMPDEST DUP4 DUP2 GT ISZERO PUSH2 0xFF3 JUMPI PUSH1 0x0 DUP5 DUP5 ADD MSTORE JUMPDEST POP POP POP POP JUMP JUMPDEST PUSH1 0x0 PUSH1 0x2 DUP3 DIV SWAP1 POP PUSH1 0x1 DUP3 AND DUP1 PUSH2 0x1011 JUMPI PUSH1 0x7F DUP3 AND SWAP2 POP JUMPDEST PUSH1 0x20 DUP3 LT DUP2 EQ ISZERO PUSH2 0x1025 JUMPI PUSH2 0x1024 PUSH2 0x1089 JUMP JUMPDEST JUMPDEST POP SWAP2 SWAP1 POP JUMP JUMPDEST PUSH32 0x4E487B7100000000000000000000000000000000000000000000000000000000 PUSH1 0x0 MSTORE PUSH1 0x1 PUSH1 0x4 MSTORE PUSH1 0x24 PUSH1 0x0 REVERT JUMPDEST PUSH32 0x4E487B7100000000000000000000000000000000000000000000000000000000 PUSH1 0x0 MSTORE PUSH1 0x11 PUSH1 0x4 MSTORE PUSH1 0x24 PUSH1 0x0 REVERT JUMPDEST PUSH32 0x4E487B7100000000000000000000000000000000000000000000000000000000 PUSH1 0x0 MSTORE PUSH1 0x22 PUSH1 0x4 MSTORE PUSH1 0x24 PUSH1 0x0 REVERT JUMPDEST PUSH1 0x0 DUP1 REVERT JUMPDEST PUSH1 0x0 PUSH1 0x1F NOT PUSH1 0x1F DUP4 ADD AND SWAP1 POP SWAP2 SWAP1 POP JUMP JUMPDEST PUSH32 0x45524332303A206D696E7420746F20746865207A65726F206164647265737300 PUSH1 0x0 DUP3 ADD MSTORE POP JUMP JUMPDEST PUSH2 0x1100 DUP2 PUSH2 0xF7D JUMP JUMPDEST DUP2 EQ PUSH2 0x110B JUMPI PUSH1 0x0 DUP1 REVERT JUMPDEST POP JUMP JUMPDEST PUSH2 0x1117 DUP2 PUSH2 0xFAF JUMP JUMPDEST DUP2 EQ PUSH2 0x1122 JUMPI PUSH1 0x0 DUP1 REVERT JUMPDEST POP JUMP INVALID LOG2 PUSH5 0x6970667358 0x22 SLT KECCAK256 SWAP11 0xB2 LOG3 0xB4 SWAP1 0xBB 0xDD SSTORE 0xBD 0x1F SWAP3 JUMPI SWAP8 CALLDATALOAD CALL 0xCB SELFDESTRUCT SMOD 0xC6 0xBF PUSH5 0x831A8FB42F 0xAA SWAP4 0xBB 0x29 STOP 0xC5 PUSH5 0x736F6C6343 STOP ADDMOD SMOD STOP CALLER "
				},
				"gasEstimates": {
					"creation": {
						"codeDepositCost": "635800",
						"executionCost": "infinite",
						"totalCost": "infinite"
					},
					"external": {
						"addProposals(address[],bytes32[])": "infinite",
						"addVoters(address[])": "infinite",
						"totalVotesFor(address)": "infinite",
						"vote(address)": "infinite"
					}
				},
				"methodIdentifiers": {
					"addProposals(address[],bytes32[])": "ea58d968",
					"addVoters(address[])": "8203373a",
					"totalVotesFor(address)": "4041ef54",
					"vote(address)": "6dd7d8ea"
				}
			},
			"storageLayout": {
				"storage": [
					{
						"astId": 440,
						"contract": "contracts/Voting.sol:Voting",
						"label": "startTime",
						"offset": 0,
						"slot": "0",
						"type": "t_uint256"
					},
					{
						"astId": 442,
						"contract": "contracts/Voting.sol:Voting",
						"label": "endTime",
						"offset": 0,
						"slot": "1",
						"type": "t_uint256"
					},
					{
						"astId": 446,
						"contract": "contracts/Voting.sol:Voting",
						"label": "voters",
						"offset": 0,
						"slot": "2",
						"type": "t_mapping(t_address,t_bool)"
					},
					{
						"astId": 450,
						"contract": "contracts/Voting.sol:Voting",
						"label": "proposals",
						"offset": 0,
						"slot": "3",
						"type": "t_mapping(t_address,t_bytes32)"
					},
					{
						"astId": 452,
						"contract": "contracts/Voting.sol:Voting",
						"label": "chairperson",
						"offset": 0,
						"slot": "4",
						"type": "t_address"
					},
					{
						"astId": 459,
						"contract": "contracts/Voting.sol:Voting",
						"label": "token",
						"offset": 0,
						"slot": "5",
						"type": "t_contract(Token)435"
					}
				],
				"types": {
					"t_address": {
						"encoding": "inplace",
						"label": "address",
						"numberOfBytes": "20"
					},
					"t_bool": {
						"encoding": "inplace",
						"label": "bool",
						"numberOfBytes": "1"
					},
					"t_bytes32": {
						"encoding": "inplace",
						"label": "bytes32",
						"numberOfBytes": "32"
					},
					"t_contract(Token)435": {
						"encoding": "inplace",
						"label": "contract Token",
						"numberOfBytes": "20"
					},
					"t_mapping(t_address,t_bool)": {
						"encoding": "mapping",
						"key": "t_address",
						"label": "mapping(address => bool)",
						"numberOfBytes": "32",
						"value": "t_bool"
					},
					"t_mapping(t_address,t_bytes32)": {
						"encoding": "mapping",
						"key": "t_address",
						"label": "mapping(address => bytes32)",
						"numberOfBytes": "32",
						"value": "t_bytes32"
					},
					"t_uint256": {
						"encoding": "inplace",
						"label": "uint256",
						"numberOfBytes": "32"
					}
				}
			},
			"userdoc": {
				"kind": "user",
				"methods": {},
				"version": 1
			}
		}
	}
}