{
	"contracts/Token.sol": {
		"Token": {
			"abi": [
				{
					"inputs": [
						{
							"internalType": "address",
							"name": "chairperson",
							"type": "address"
						}
					],
					"stateMutability": "nonpayable",
					"type": "constructor"
				},
				{
					"anonymous": false,
					"inputs": [
						{
							"indexed": true,
							"internalType": "address",
							"name": "_owner",
							"type": "address"
						},
						{
							"indexed": true,
							"internalType": "address",
							"name": "_spender",
							"type": "address"
						},
						{
							"indexed": false,
							"internalType": "uint256",
							"name": "_value",
							"type": "uint256"
						}
					],
					"name": "Approval",
					"type": "event"
				},
				{
					"anonymous": false,
					"inputs": [
						{
							"indexed": true,
							"internalType": "address",
							"name": "_from",
							"type": "address"
						},
						{
							"indexed": true,
							"internalType": "address",
							"name": "_to",
							"type": "address"
						},
						{
							"indexed": false,
							"internalType": "uint256",
							"name": "_value",
							"type": "uint256"
						}
					],
					"name": "Transfer",
					"type": "event"
				},
				{
					"inputs": [
						{
							"internalType": "address",
							"name": "_spender",
							"type": "address"
						},
						{
							"internalType": "address",
							"name": "_owner",
							"type": "address"
						}
					],
					"name": "allowance",
					"outputs": [
						{
							"internalType": "uint256",
							"name": "balance",
							"type": "uint256"
						}
					],
					"stateMutability": "view",
					"type": "function"
				},
				{
					"inputs": [
						{
							"internalType": "address",
							"name": "_spender",
							"type": "address"
						},
						{
							"internalType": "uint256",
							"name": "_value",
							"type": "uint256"
						}
					],
					"name": "approve",
					"outputs": [],
					"stateMutability": "nonpayable",
					"type": "function"
				},
				{
					"inputs": [
						{
							"internalType": "address",
							"name": "_owner",
							"type": "address"
						}
					],
					"name": "balanceOf",
					"outputs": [
						{
							"internalType": "uint256",
							"name": "balance",
							"type": "uint256"
						}
					],
					"stateMutability": "view",
					"type": "function"
				},
				{
					"inputs": [],
					"name": "decimals",
					"outputs": [
						{
							"internalType": "uint8",
							"name": "",
							"type": "uint8"
						}
					],
					"stateMutability": "view",
					"type": "function"
				},
				{
					"inputs": [
						{
							"internalType": "address",
							"name": "addr",
							"type": "address"
						},
						{
							"internalType": "uint256",
							"name": "amount",
							"type": "uint256"
						}
					],
					"name": "mint",
					"outputs": [],
					"stateMutability": "nonpayable",
					"type": "function"
				},
				{
					"inputs": [],
					"name": "name",
					"outputs": [
						{
							"internalType": "string",
							"name": "",
							"type": "string"
						}
					],
					"stateMutability": "view",
					"type": "function"
				},
				{
					"inputs": [],
					"name": "symbol",
					"outputs": [
						{
							"internalType": "string",
							"name": "",
							"type": "string"
						}
					],
					"stateMutability": "view",
					"type": "function"
				},
				{
					"inputs": [],
					"name": "totalSupply",
					"outputs": [
						{
							"internalType": "uint256",
							"name": "",
							"type": "uint256"
						}
					],
					"stateMutability": "view",
					"type": "function"
				},
				{
					"inputs": [
						{
							"internalType": "address",
							"name": "_recipient",
							"type": "address"
						},
						{
							"internalType": "uint256",
							"name": "_value",
							"type": "uint256"
						}
					],
					"name": "transfer",
					"outputs": [],
					"stateMutability": "nonpayable",
					"type": "function"
				},
				{
					"inputs": [
						{
							"internalType": "address",
							"name": "_from",
							"type": "address"
						},
						{
							"internalType": "address",
							"name": "_to",
							"type": "address"
						},
						{
							"internalType": "uint256",
							"name": "_value",
							"type": "uint256"
						}
					],
					"name": "transferFrom",
					"outputs": [],
					"stateMutability": "nonpayable",
					"type": "function"
				},
				{
					"inputs": [],
					"name": "version",
					"outputs": [
						{
							"internalType": "string",
							"name": "",
							"type": "string"
						}
					],
					"stateMutability": "view",
					"type": "function"
				}
			],
			"devdoc": {
				"kind": "dev",
				"methods": {},
				"version": 1
			},
			"evm": {
				"assembly": "    /* \"contracts/Token.sol\":99:342  contract Token is ERC20Standard {\r... */\n  mstore(0x40, 0x80)\n    /* \"contracts/Token.sol\":141:339  constructor(address chairperson) {\r... */\n  callvalue\n  dup1\n  iszero\n  tag_1\n  jumpi\n  0x00\n  dup1\n  revert\ntag_1:\n  pop\n  mload(0x40)\n  sub(codesize, bytecodeSize)\n  dup1\n  bytecodeSize\n  dup4\n  codecopy\n  dup2\n  dup2\n  add\n  0x40\n  mstore\n  dup2\n  add\n  swap1\n  tag_2\n  swap2\n  swap1\n  tag_3\n  jump\t// in\ntag_2:\n    /* \"contracts/Token.sol\":197:198  0 */\n  0x00\n    /* \"contracts/Token.sol\":183:194  totalSupply */\n  dup1\n    /* \"contracts/Token.sol\":183:198  totalSupply = 0 */\n  dup2\n  swap1\n  sstore\n  pop\n    /* \"contracts/Token.sol\":207:229  name = \"E-Voting coin\" */\n  mload(0x40)\n  dup1\n  0x40\n  add\n  0x40\n  mstore\n  dup1\n  0x0d\n  dup2\n  mstore\n  0x20\n  add\n  0x452d566f74696e6720636f696e00000000000000000000000000000000000000\n  dup2\n  mstore\n  pop\n    /* \"contracts/Token.sol\":207:211  name */\n  0x01\n    /* \"contracts/Token.sol\":207:229  name = \"E-Voting coin\" */\n  swap1\n  dup1\n  mload\n  swap1\n  0x20\n  add\n  swap1\n  tag_6\n  swap3\n  swap2\n  swap1\n  tag_7\n  jump\t// in\ntag_6:\n  pop\n    /* \"contracts/Token.sol\":249:250  4 */\n  0x04\n    /* \"contracts/Token.sol\":238:246  decimals */\n  0x02\n  0x00\n    /* \"contracts/Token.sol\":238:250  decimals = 4 */\n  0x0100\n  exp\n  dup2\n  sload\n  dup2\n  0xff\n  mul\n  not\n  and\n  swap1\n  dup4\n  0xff\n  and\n  mul\n  or\n  swap1\n  sstore\n  pop\n    /* \"contracts/Token.sol\":259:273  symbol = \"EVC\" */\n  mload(0x40)\n  dup1\n  0x40\n  add\n  0x40\n  mstore\n  dup1\n  0x03\n  dup2\n  mstore\n  0x20\n  add\n  0x4556430000000000000000000000000000000000000000000000000000000000\n  dup2\n  mstore\n  pop\n    /* \"contracts/Token.sol\":259:265  symbol */\n  0x03\n    /* \"contracts/Token.sol\":259:273  symbol = \"EVC\" */\n  swap1\n  dup1\n  mload\n  swap1\n  0x20\n  add\n  swap1\n  tag_8\n  swap3\n  swap2\n  swap1\n  tag_7\n  jump\t// in\ntag_8:\n  pop\n    /* \"contracts/Token.sol\":282:297  version = \"1.0\" */\n  mload(0x40)\n  dup1\n  0x40\n  add\n  0x40\n  mstore\n  dup1\n  0x03\n  dup2\n  mstore\n  0x20\n  add\n  0x312e300000000000000000000000000000000000000000000000000000000000\n  dup2\n  mstore\n  pop\n    /* \"contracts/Token.sol\":282:289  version */\n  0x04\n    /* \"contracts/Token.sol\":282:297  version = \"1.0\" */\n  swap1\n  dup1\n  mload\n  swap1\n  0x20\n  add\n  swap1\n  tag_9\n  swap3\n  swap2\n  swap1\n  tag_7\n  jump\t// in\ntag_9:\n  pop\n    /* \"contracts/Token.sol\":330:331  1 */\n  0x01\n    /* \"contracts/Token.sol\":306:314  balances */\n  0x05\n    /* \"contracts/Token.sol\":306:327  balances[chairperson] */\n  0x00\n    /* \"contracts/Token.sol\":315:326  chairperson */\n  dup4\n    /* \"contracts/Token.sol\":306:327  balances[chairperson] */\n  0xffffffffffffffffffffffffffffffffffffffff\n  and\n  0xffffffffffffffffffffffffffffffffffffffff\n  and\n  dup2\n  mstore\n  0x20\n  add\n  swap1\n  dup2\n  mstore\n  0x20\n  add\n  0x00\n  keccak256\n    /* \"contracts/Token.sol\":306:331  balances[chairperson] = 1 */\n  dup2\n  swap1\n  sstore\n  pop\n    /* \"contracts/Token.sol\":141:339  constructor(address chairperson) {\r... */\n  pop\n    /* \"contracts/Token.sol\":99:342  contract Token is ERC20Standard {\r... */\n  jump(tag_10)\ntag_7:\n  dup3\n  dup1\n  sload\n  tag_11\n  swap1\n  tag_12\n  jump\t// in\ntag_11:\n  swap1\n  0x00\n  mstore\n  keccak256(0x00, 0x20)\n  swap1\n  0x1f\n  add\n  0x20\n  swap1\n  div\n  dup2\n  add\n  swap3\n  dup3\n  tag_14\n  jumpi\n  0x00\n  dup6\n  sstore\n  jump(tag_13)\ntag_14:\n  dup3\n  0x1f\n  lt\n  tag_15\n  jumpi\n  dup1\n  mload\n  not(0xff)\n  and\n  dup4\n  dup1\n  add\n  or\n  dup6\n  sstore\n  jump(tag_13)\ntag_15:\n  dup3\n  dup1\n  add\n  0x01\n  add\n  dup6\n  sstore\n  dup3\n  iszero\n  tag_13\n  jumpi\n  swap2\n  dup3\n  add\ntag_16:\n  dup3\n  dup2\n  gt\n  iszero\n  tag_17\n  jumpi\n  dup3\n  mload\n  dup3\n  sstore\n  swap2\n  0x20\n  add\n  swap2\n  swap1\n  0x01\n  add\n  swap1\n  jump(tag_16)\ntag_17:\ntag_13:\n  pop\n  swap1\n  pop\n  tag_18\n  swap2\n  swap1\n  tag_19\n  jump\t// in\ntag_18:\n  pop\n  swap1\n  jump\t// out\ntag_19:\ntag_20:\n  dup1\n  dup3\n  gt\n  iszero\n  tag_21\n  jumpi\n  0x00\n  dup2\n  0x00\n  swap1\n  sstore\n  pop\n  0x01\n  add\n  jump(tag_20)\ntag_21:\n  pop\n  swap1\n  jump\t// out\n    /* \"#utility.yul\":7:150   */\ntag_23:\n    /* \"#utility.yul\":64:69   */\n  0x00\n    /* \"#utility.yul\":95:101   */\n  dup2\n    /* \"#utility.yul\":89:102   */\n  mload\n    /* \"#utility.yul\":80:102   */\n  swap1\n  pop\n    /* \"#utility.yul\":111:144   */\n  tag_25\n    /* \"#utility.yul\":138:143   */\n  dup2\n    /* \"#utility.yul\":111:144   */\n  tag_26\n  jump\t// in\ntag_25:\n    /* \"#utility.yul\":7:150   */\n  swap3\n  swap2\n  pop\n  pop\n  jump\t// out\n    /* \"#utility.yul\":156:507   */\ntag_3:\n    /* \"#utility.yul\":226:232   */\n  0x00\n    /* \"#utility.yul\":275:277   */\n  0x20\n    /* \"#utility.yul\":263:272   */\n  dup3\n    /* \"#utility.yul\":254:261   */\n  dup5\n    /* \"#utility.yul\":250:273   */\n  sub\n    /* \"#utility.yul\":246:278   */\n  slt\n    /* \"#utility.yul\":243:362   */\n  iszero\n  tag_28\n  jumpi\n    /* \"#utility.yul\":281:360   */\n  tag_29\n  tag_30\n  jump\t// in\ntag_29:\n    /* \"#utility.yul\":243:362   */\ntag_28:\n    /* \"#utility.yul\":401:402   */\n  0x00\n    /* \"#utility.yul\":426:490   */\n  tag_31\n    /* \"#utility.yul\":482:489   */\n  dup5\n    /* \"#utility.yul\":473:479   */\n  dup3\n    /* \"#utility.yul\":462:471   */\n  dup6\n    /* \"#utility.yul\":458:480   */\n  add\n    /* \"#utility.yul\":426:490   */\n  tag_23\n  jump\t// in\ntag_31:\n    /* \"#utility.yul\":416:490   */\n  swap2\n  pop\n    /* \"#utility.yul\":372:500   */\n  pop\n    /* \"#utility.yul\":156:507   */\n  swap3\n  swap2\n  pop\n  pop\n  jump\t// out\n    /* \"#utility.yul\":594:690   */\ntag_34:\n    /* \"#utility.yul\":631:638   */\n  0x00\n    /* \"#utility.yul\":660:684   */\n  tag_36\n    /* \"#utility.yul\":678:683   */\n  dup3\n    /* \"#utility.yul\":660:684   */\n  tag_37\n  jump\t// in\ntag_36:\n    /* \"#utility.yul\":649:684   */\n  swap1\n  pop\n    /* \"#utility.yul\":594:690   */\n  swap2\n  swap1\n  pop\n  jump\t// out\n    /* \"#utility.yul\":696:822   */\ntag_37:\n    /* \"#utility.yul\":733:740   */\n  0x00\n    /* \"#utility.yul\":773:815   */\n  0xffffffffffffffffffffffffffffffffffffffff\n    /* \"#utility.yul\":766:771   */\n  dup3\n    /* \"#utility.yul\":762:816   */\n  and\n    /* \"#utility.yul\":751:816   */\n  swap1\n  pop\n    /* \"#utility.yul\":696:822   */\n  swap2\n  swap1\n  pop\n  jump\t// out\n    /* \"#utility.yul\":828:1148   */\ntag_12:\n    /* \"#utility.yul\":872:878   */\n  0x00\n    /* \"#utility.yul\":909:910   */\n  0x02\n    /* \"#utility.yul\":903:907   */\n  dup3\n    /* \"#utility.yul\":899:911   */\n  div\n    /* \"#utility.yul\":889:911   */\n  swap1\n  pop\n    /* \"#utility.yul\":956:957   */\n  0x01\n    /* \"#utility.yul\":950:954   */\n  dup3\n    /* \"#utility.yul\":946:958   */\n  and\n    /* \"#utility.yul\":977:995   */\n  dup1\n    /* \"#utility.yul\":967:1048   */\n  tag_40\n  jumpi\n    /* \"#utility.yul\":1033:1037   */\n  0x7f\n    /* \"#utility.yul\":1025:1031   */\n  dup3\n    /* \"#utility.yul\":1021:1038   */\n  and\n    /* \"#utility.yul\":1011:1038   */\n  swap2\n  pop\n    /* \"#utility.yul\":967:1048   */\ntag_40:\n    /* \"#utility.yul\":1095:1097   */\n  0x20\n    /* \"#utility.yul\":1087:1093   */\n  dup3\n    /* \"#utility.yul\":1084:1098   */\n  lt\n    /* \"#utility.yul\":1064:1082   */\n  dup2\n    /* \"#utility.yul\":1061:1099   */\n  eq\n    /* \"#utility.yul\":1058:1142   */\n  iszero\n  tag_41\n  jumpi\n    /* \"#utility.yul\":1114:1132   */\n  tag_42\n  tag_43\n  jump\t// in\ntag_42:\n    /* \"#utility.yul\":1058:1142   */\ntag_41:\n    /* \"#utility.yul\":879:1148   */\n  pop\n    /* \"#utility.yul\":828:1148   */\n  swap2\n  swap1\n  pop\n  jump\t// out\n    /* \"#utility.yul\":1154:1334   */\ntag_43:\n    /* \"#utility.yul\":1202:1279   */\n  0x4e487b7100000000000000000000000000000000000000000000000000000000\n    /* \"#utility.yul\":1199:1200   */\n  0x00\n    /* \"#utility.yul\":1192:1280   */\n  mstore\n    /* \"#utility.yul\":1299:1303   */\n  0x22\n    /* \"#utility.yul\":1296:1297   */\n  0x04\n    /* \"#utility.yul\":1289:1304   */\n  mstore\n    /* \"#utility.yul\":1323:1327   */\n  0x24\n    /* \"#utility.yul\":1320:1321   */\n  0x00\n    /* \"#utility.yul\":1313:1328   */\n  revert\n    /* \"#utility.yul\":1463:1580   */\ntag_30:\n    /* \"#utility.yul\":1572:1573   */\n  0x00\n    /* \"#utility.yul\":1569:1570   */\n  dup1\n    /* \"#utility.yul\":1562:1574   */\n  revert\n    /* \"#utility.yul\":1586:1708   */\ntag_26:\n    /* \"#utility.yul\":1659:1683   */\n  tag_49\n    /* \"#utility.yul\":1677:1682   */\n  dup2\n    /* \"#utility.yul\":1659:1683   */\n  tag_34\n  jump\t// in\ntag_49:\n    /* \"#utility.yul\":1652:1657   */\n  dup2\n    /* \"#utility.yul\":1649:1684   */\n  eq\n    /* \"#utility.yul\":1639:1702   */\n  tag_50\n  jumpi\n    /* \"#utility.yul\":1698:1699   */\n  0x00\n    /* \"#utility.yul\":1695:1696   */\n  dup1\n    /* \"#utility.yul\":1688:1700   */\n  revert\n    /* \"#utility.yul\":1639:1702   */\ntag_50:\n    /* \"#utility.yul\":1586:1708   */\n  pop\n  jump\t// out\n    /* \"contracts/Token.sol\":99:342  contract Token is ERC20Standard {\r... */\ntag_10:\n  dataSize(sub_0)\n  dup1\n  dataOffset(sub_0)\n  0x00\n  codecopy\n  0x00\n  return\nstop\n\nsub_0: assembly {\n        /* \"contracts/Token.sol\":99:342  contract Token is ERC20Standard {\r... */\n      mstore(0x40, 0x80)\n      callvalue\n      dup1\n      iszero\n      tag_1\n      jumpi\n      0x00\n      dup1\n      revert\n    tag_1:\n      pop\n      jumpi(tag_2, lt(calldatasize, 0x04))\n      shr(0xe0, calldataload(0x00))\n      dup1\n      0x40c10f19\n      gt\n      tag_14\n      jumpi\n      dup1\n      0x40c10f19\n      eq\n      tag_8\n      jumpi\n      dup1\n      0x54fd4d50\n      eq\n      tag_9\n      jumpi\n      dup1\n      0x70a08231\n      eq\n      tag_10\n      jumpi\n      dup1\n      0x95d89b41\n      eq\n      tag_11\n      jumpi\n      dup1\n      0xa9059cbb\n      eq\n      tag_12\n      jumpi\n      dup1\n      0xdd62ed3e\n      eq\n      tag_13\n      jumpi\n      jump(tag_2)\n    tag_14:\n      dup1\n      0x06fdde03\n      eq\n      tag_3\n      jumpi\n      dup1\n      0x095ea7b3\n      eq\n      tag_4\n      jumpi\n      dup1\n      0x18160ddd\n      eq\n      tag_5\n      jumpi\n      dup1\n      0x23b872dd\n      eq\n      tag_6\n      jumpi\n      dup1\n      0x313ce567\n      eq\n      tag_7\n      jumpi\n    tag_2:\n      0x00\n      dup1\n      revert\n        /* \"contracts/ERC20Standard.sol\":1005:1023  string public name */\n    tag_3:\n      tag_15\n      tag_16\n      jump\t// in\n    tag_15:\n      mload(0x40)\n      tag_17\n      swap2\n      swap1\n      tag_18\n      jump\t// in\n    tag_17:\n      mload(0x40)\n      dup1\n      swap2\n      sub\n      swap1\n      return\n        /* \"contracts/ERC20Standard.sol\":2432:2584  function  approve(address _spender, uint _value) public {\r... */\n    tag_4:\n      tag_19\n      0x04\n      dup1\n      calldatasize\n      sub\n      dup2\n      add\n      swap1\n      tag_20\n      swap2\n      swap1\n      tag_21\n      jump\t// in\n    tag_20:\n      tag_22\n      jump\t// in\n    tag_19:\n      stop\n        /* \"contracts/ERC20Standard.sol\":975:998  uint public totalSupply */\n    tag_5:\n      tag_23\n      tag_24\n      jump\t// in\n    tag_23:\n      mload(0x40)\n      tag_25\n      swap2\n      swap1\n      tag_26\n      jump\t// in\n    tag_25:\n      mload(0x40)\n      dup1\n      swap2\n      sub\n      swap1\n      return\n        /* \"contracts/ERC20Standard.sol\":1798:2182  function transferFrom(address _from, address _to, uint _value) public {\r... */\n    tag_6:\n      tag_27\n      0x04\n      dup1\n      calldatasize\n      sub\n      dup2\n      add\n      swap1\n      tag_28\n      swap2\n      swap1\n      tag_29\n      jump\t// in\n    tag_28:\n      tag_30\n      jump\t// in\n    tag_27:\n      stop\n        /* \"contracts/ERC20Standard.sol\":1027:1048  uint8 public decimals */\n    tag_7:\n      tag_31\n      tag_32\n      jump\t// in\n    tag_31:\n      mload(0x40)\n      tag_33\n      swap2\n      swap1\n      tag_34\n      jump\t// in\n    tag_33:\n      mload(0x40)\n      dup1\n      swap2\n      sub\n      swap1\n      return\n        /* \"contracts/ERC20Standard.sol\":2193:2427  function mint(address addr, uint256 amount) public {\r... */\n    tag_8:\n      tag_35\n      0x04\n      dup1\n      calldatasize\n      sub\n      dup2\n      add\n      swap1\n      tag_36\n      swap2\n      swap1\n      tag_21\n      jump\t// in\n    tag_36:\n      tag_37\n      jump\t// in\n    tag_35:\n      stop\n        /* \"contracts/ERC20Standard.sol\":1076:1097  string public version */\n    tag_9:\n      tag_38\n      tag_39\n      jump\t// in\n    tag_38:\n      mload(0x40)\n      tag_40\n      swap2\n      swap1\n      tag_18\n      jump\t// in\n    tag_40:\n      mload(0x40)\n      dup1\n      swap2\n      sub\n      swap1\n      return\n        /* \"contracts/ERC20Standard.sol\":1345:1448  function balanceOf(address _owner) public view returns (uint balance) {\r... */\n    tag_10:\n      tag_41\n      0x04\n      dup1\n      calldatasize\n      sub\n      dup2\n      add\n      swap1\n      tag_42\n      swap2\n      swap1\n      tag_43\n      jump\t// in\n    tag_42:\n      tag_44\n      jump\t// in\n    tag_41:\n      mload(0x40)\n      tag_45\n      swap2\n      swap1\n      tag_26\n      jump\t// in\n    tag_45:\n      mload(0x40)\n      dup1\n      swap2\n      sub\n      swap1\n      return\n        /* \"contracts/ERC20Standard.sol\":1052:1072  string public symbol */\n    tag_11:\n      tag_46\n      tag_47\n      jump\t// in\n    tag_46:\n      mload(0x40)\n      tag_48\n      swap2\n      swap1\n      tag_18\n      jump\t// in\n    tag_48:\n      mload(0x40)\n      dup1\n      swap2\n      sub\n      swap1\n      return\n        /* \"contracts/ERC20Standard.sol\":1453:1793  function transfer(address _recipient, uint _value) public onlyPayloadSize(2*32) {\r... */\n    tag_12:\n      tag_49\n      0x04\n      dup1\n      calldatasize\n      sub\n      dup2\n      add\n      swap1\n      tag_50\n      swap2\n      swap1\n      tag_21\n      jump\t// in\n    tag_50:\n      tag_51\n      jump\t// in\n    tag_49:\n      stop\n        /* \"contracts/ERC20Standard.sol\":2589:2719  function allowance(address _spender, address _owner) public view returns (uint balance) {\r... */\n    tag_13:\n      tag_52\n      0x04\n      dup1\n      calldatasize\n      sub\n      dup2\n      add\n      swap1\n      tag_53\n      swap2\n      swap1\n      tag_54\n      jump\t// in\n    tag_53:\n      tag_55\n      jump\t// in\n    tag_52:\n      mload(0x40)\n      tag_56\n      swap2\n      swap1\n      tag_26\n      jump\t// in\n    tag_56:\n      mload(0x40)\n      dup1\n      swap2\n      sub\n      swap1\n      return\n        /* \"contracts/ERC20Standard.sol\":1005:1023  string public name */\n    tag_16:\n      0x01\n      dup1\n      sload\n      tag_57\n      swap1\n      tag_58\n      jump\t// in\n    tag_57:\n      dup1\n      0x1f\n      add\n      0x20\n      dup1\n      swap2\n      div\n      mul\n      0x20\n      add\n      mload(0x40)\n      swap1\n      dup2\n      add\n      0x40\n      mstore\n      dup1\n      swap3\n      swap2\n      swap1\n      dup2\n      dup2\n      mstore\n      0x20\n      add\n      dup3\n      dup1\n      sload\n      tag_59\n      swap1\n      tag_58\n      jump\t// in\n    tag_59:\n      dup1\n      iszero\n      tag_60\n      jumpi\n      dup1\n      0x1f\n      lt\n      tag_61\n      jumpi\n      0x0100\n      dup1\n      dup4\n      sload\n      div\n      mul\n      dup4\n      mstore\n      swap2\n      0x20\n      add\n      swap2\n      jump(tag_60)\n    tag_61:\n      dup3\n      add\n      swap2\n      swap1\n      0x00\n      mstore\n      keccak256(0x00, 0x20)\n      swap1\n    tag_62:\n      dup2\n      sload\n      dup2\n      mstore\n      swap1\n      0x01\n      add\n      swap1\n      0x20\n      add\n      dup1\n      dup4\n      gt\n      tag_62\n      jumpi\n      dup3\n      swap1\n      sub\n      0x1f\n      and\n      dup3\n      add\n      swap2\n    tag_60:\n      pop\n      pop\n      pop\n      pop\n      pop\n      dup2\n      jump\t// out\n        /* \"contracts/ERC20Standard.sol\":2432:2584  function  approve(address _spender, uint _value) public {\r... */\n    tag_22:\n        /* \"contracts/ERC20Standard.sol\":2525:2531  _value */\n      dup1\n        /* \"contracts/ERC20Standard.sol\":2493:2500  allowed */\n      0x06\n        /* \"contracts/ERC20Standard.sol\":2493:2512  allowed[msg.sender] */\n      0x00\n        /* \"contracts/ERC20Standard.sol\":2501:2511  msg.sender */\n      caller\n        /* \"contracts/ERC20Standard.sol\":2493:2512  allowed[msg.sender] */\n      0xffffffffffffffffffffffffffffffffffffffff\n      and\n      0xffffffffffffffffffffffffffffffffffffffff\n      and\n      dup2\n      mstore\n      0x20\n      add\n      swap1\n      dup2\n      mstore\n      0x20\n      add\n      0x00\n      keccak256\n        /* \"contracts/ERC20Standard.sol\":2493:2522  allowed[msg.sender][_spender] */\n      0x00\n        /* \"contracts/ERC20Standard.sol\":2513:2521  _spender */\n      dup5\n        /* \"contracts/ERC20Standard.sol\":2493:2522  allowed[msg.sender][_spender] */\n      0xffffffffffffffffffffffffffffffffffffffff\n      and\n      0xffffffffffffffffffffffffffffffffffffffff\n      and\n      dup2\n      mstore\n      0x20\n      add\n      swap1\n      dup2\n      mstore\n      0x20\n      add\n      0x00\n      keccak256\n        /* \"contracts/ERC20Standard.sol\":2493:2531  allowed[msg.sender][_spender] = _value */\n      dup2\n      swap1\n      sstore\n      pop\n        /* \"contracts/ERC20Standard.sol\":2562:2570  _spender */\n      dup2\n        /* \"contracts/ERC20Standard.sol\":2541:2579  Approval(msg.sender, _spender, _value) */\n      0xffffffffffffffffffffffffffffffffffffffff\n      and\n        /* \"contracts/ERC20Standard.sol\":2550:2560  msg.sender */\n      caller\n        /* \"contracts/ERC20Standard.sol\":2541:2579  Approval(msg.sender, _spender, _value) */\n      0xffffffffffffffffffffffffffffffffffffffff\n      and\n      0x8c5be1e5ebec7d5bd14f71427d1e84f3dd0314c0f7b2291e5b200ac8c7c3b925\n        /* \"contracts/ERC20Standard.sol\":2572:2578  _value */\n      dup4\n        /* \"contracts/ERC20Standard.sol\":2541:2579  Approval(msg.sender, _spender, _value) */\n      mload(0x40)\n      tag_64\n      swap2\n      swap1\n      tag_26\n      jump\t// in\n    tag_64:\n      mload(0x40)\n      dup1\n      swap2\n      sub\n      swap1\n      log3\n        /* \"contracts/ERC20Standard.sol\":2432:2584  function  approve(address _spender, uint _value) public {\r... */\n      pop\n      pop\n      jump\t// out\n        /* \"contracts/ERC20Standard.sol\":975:998  uint public totalSupply */\n    tag_24:\n      sload(0x00)\n      dup2\n      jump\t// out\n        /* \"contracts/ERC20Standard.sol\":1798:2182  function transferFrom(address _from, address _to, uint _value) public {\r... */\n    tag_30:\n        /* \"contracts/ERC20Standard.sol\":1903:1909  _value */\n      dup1\n        /* \"contracts/ERC20Standard.sol\":1884:1892  balances */\n      0x05\n        /* \"contracts/ERC20Standard.sol\":1884:1899  balances[_from] */\n      0x00\n        /* \"contracts/ERC20Standard.sol\":1893:1898  _from */\n      dup6\n        /* \"contracts/ERC20Standard.sol\":1884:1899  balances[_from] */\n      0xffffffffffffffffffffffffffffffffffffffff\n      and\n      0xffffffffffffffffffffffffffffffffffffffff\n      and\n      dup2\n      mstore\n      0x20\n      add\n      swap1\n      dup2\n      mstore\n      0x20\n      add\n      0x00\n      keccak256\n      sload\n        /* \"contracts/ERC20Standard.sol\":1884:1909  balances[_from] >= _value */\n      lt\n      iszero\n        /* \"contracts/ERC20Standard.sol\":1884:1949  balances[_from] >= _value && allowed[_from][msg.sender] >= _value */\n      dup1\n      iszero\n      tag_66\n      jumpi\n      pop\n        /* \"contracts/ERC20Standard.sol\":1943:1949  _value */\n      dup1\n        /* \"contracts/ERC20Standard.sol\":1913:1920  allowed */\n      0x06\n        /* \"contracts/ERC20Standard.sol\":1913:1927  allowed[_from] */\n      0x00\n        /* \"contracts/ERC20Standard.sol\":1921:1926  _from */\n      dup6\n        /* \"contracts/ERC20Standard.sol\":1913:1927  allowed[_from] */\n      0xffffffffffffffffffffffffffffffffffffffff\n      and\n      0xffffffffffffffffffffffffffffffffffffffff\n      and\n      dup2\n      mstore\n      0x20\n      add\n      swap1\n      dup2\n      mstore\n      0x20\n      add\n      0x00\n      keccak256\n        /* \"contracts/ERC20Standard.sol\":1913:1939  allowed[_from][msg.sender] */\n      0x00\n        /* \"contracts/ERC20Standard.sol\":1928:1938  msg.sender */\n      caller\n        /* \"contracts/ERC20Standard.sol\":1913:1939  allowed[_from][msg.sender] */\n      0xffffffffffffffffffffffffffffffffffffffff\n      and\n      0xffffffffffffffffffffffffffffffffffffffff\n      and\n      dup2\n      mstore\n      0x20\n      add\n      swap1\n      dup2\n      mstore\n      0x20\n      add\n      0x00\n      keccak256\n      sload\n        /* \"contracts/ERC20Standard.sol\":1913:1949  allowed[_from][msg.sender] >= _value */\n      lt\n      iszero\n        /* \"contracts/ERC20Standard.sol\":1884:1949  balances[_from] >= _value && allowed[_from][msg.sender] >= _value */\n    tag_66:\n        /* \"contracts/ERC20Standard.sol\":1884:1963  balances[_from] >= _value && allowed[_from][msg.sender] >= _value && _value > 0 */\n      dup1\n      iszero\n      tag_67\n      jumpi\n      pop\n        /* \"contracts/ERC20Standard.sol\":1962:1963  0 */\n      0x00\n        /* \"contracts/ERC20Standard.sol\":1953:1959  _value */\n      dup2\n        /* \"contracts/ERC20Standard.sol\":1953:1963  _value > 0 */\n      gt\n        /* \"contracts/ERC20Standard.sol\":1884:1963  balances[_from] >= _value && allowed[_from][msg.sender] >= _value && _value > 0 */\n    tag_67:\n        /* \"contracts/ERC20Standard.sol\":1876:1964  require(balances[_from] >= _value && allowed[_from][msg.sender] >= _value && _value > 0) */\n      tag_68\n      jumpi\n      0x00\n      dup1\n      revert\n    tag_68:\n        /* \"contracts/ERC20Standard.sol\":1985:2010  balances[_to].add(_value) */\n      tag_69\n        /* \"contracts/ERC20Standard.sol\":2003:2009  _value */\n      dup2\n        /* \"contracts/ERC20Standard.sol\":1985:1993  balances */\n      0x05\n        /* \"contracts/ERC20Standard.sol\":1985:1998  balances[_to] */\n      0x00\n        /* \"contracts/ERC20Standard.sol\":1994:1997  _to */\n      dup6\n        /* \"contracts/ERC20Standard.sol\":1985:1998  balances[_to] */\n      0xffffffffffffffffffffffffffffffffffffffff\n      and\n      0xffffffffffffffffffffffffffffffffffffffff\n      and\n      dup2\n      mstore\n      0x20\n      add\n      swap1\n      dup2\n      mstore\n      0x20\n      add\n      0x00\n      keccak256\n      sload\n        /* \"contracts/ERC20Standard.sol\":1985:2002  balances[_to].add */\n      tag_70\n      swap1\n        /* \"contracts/ERC20Standard.sol\":1985:2010  balances[_to].add(_value) */\n      swap2\n      swap1\n      0xffffffff\n      and\n      jump\t// in\n    tag_69:\n        /* \"contracts/ERC20Standard.sol\":1969:1977  balances */\n      0x05\n        /* \"contracts/ERC20Standard.sol\":1969:1982  balances[_to] */\n      0x00\n        /* \"contracts/ERC20Standard.sol\":1978:1981  _to */\n      dup5\n        /* \"contracts/ERC20Standard.sol\":1969:1982  balances[_to] */\n      0xffffffffffffffffffffffffffffffffffffffff\n      and\n      0xffffffffffffffffffffffffffffffffffffffff\n      and\n      dup2\n      mstore\n      0x20\n      add\n      swap1\n      dup2\n      mstore\n      0x20\n      add\n      0x00\n      keccak256\n        /* \"contracts/ERC20Standard.sol\":1969:2010  balances[_to] = balances[_to].add(_value) */\n      dup2\n      swap1\n      sstore\n      pop\n        /* \"contracts/ERC20Standard.sol\":2033:2060  balances[_from].sub(_value) */\n      tag_71\n        /* \"contracts/ERC20Standard.sol\":2053:2059  _value */\n      dup2\n        /* \"contracts/ERC20Standard.sol\":2033:2041  balances */\n      0x05\n        /* \"contracts/ERC20Standard.sol\":2033:2048  balances[_from] */\n      0x00\n        /* \"contracts/ERC20Standard.sol\":2042:2047  _from */\n      dup7\n        /* \"contracts/ERC20Standard.sol\":2033:2048  balances[_from] */\n      0xffffffffffffffffffffffffffffffffffffffff\n      and\n      0xffffffffffffffffffffffffffffffffffffffff\n      and\n      dup2\n      mstore\n      0x20\n      add\n      swap1\n      dup2\n      mstore\n      0x20\n      add\n      0x00\n      keccak256\n      sload\n        /* \"contracts/ERC20Standard.sol\":2033:2052  balances[_from].sub */\n      tag_72\n      swap1\n        /* \"contracts/ERC20Standard.sol\":2033:2060  balances[_from].sub(_value) */\n      swap2\n      swap1\n      0xffffffff\n      and\n      jump\t// in\n    tag_71:\n        /* \"contracts/ERC20Standard.sol\":2015:2023  balances */\n      0x05\n        /* \"contracts/ERC20Standard.sol\":2015:2030  balances[_from] */\n      0x00\n        /* \"contracts/ERC20Standard.sol\":2024:2029  _from */\n      dup6\n        /* \"contracts/ERC20Standard.sol\":2015:2030  balances[_from] */\n      0xffffffffffffffffffffffffffffffffffffffff\n      and\n      0xffffffffffffffffffffffffffffffffffffffff\n      and\n      dup2\n      mstore\n      0x20\n      add\n      swap1\n      dup2\n      mstore\n      0x20\n      add\n      0x00\n      keccak256\n        /* \"contracts/ERC20Standard.sol\":2015:2060  balances[_from] = balances[_from].sub(_value) */\n      dup2\n      swap1\n      sstore\n      pop\n        /* \"contracts/ERC20Standard.sol\":2094:2132  allowed[_from][msg.sender].sub(_value) */\n      tag_73\n        /* \"contracts/ERC20Standard.sol\":2125:2131  _value */\n      dup2\n        /* \"contracts/ERC20Standard.sol\":2094:2101  allowed */\n      0x06\n        /* \"contracts/ERC20Standard.sol\":2094:2108  allowed[_from] */\n      0x00\n        /* \"contracts/ERC20Standard.sol\":2102:2107  _from */\n      dup7\n        /* \"contracts/ERC20Standard.sol\":2094:2108  allowed[_from] */\n      0xffffffffffffffffffffffffffffffffffffffff\n      and\n      0xffffffffffffffffffffffffffffffffffffffff\n      and\n      dup2\n      mstore\n      0x20\n      add\n      swap1\n      dup2\n      mstore\n      0x20\n      add\n      0x00\n      keccak256\n        /* \"contracts/ERC20Standard.sol\":2094:2120  allowed[_from][msg.sender] */\n      0x00\n        /* \"contracts/ERC20Standard.sol\":2109:2119  msg.sender */\n      caller\n        /* \"contracts/ERC20Standard.sol\":2094:2120  allowed[_from][msg.sender] */\n      0xffffffffffffffffffffffffffffffffffffffff\n      and\n      0xffffffffffffffffffffffffffffffffffffffff\n      and\n      dup2\n      mstore\n      0x20\n      add\n      swap1\n      dup2\n      mstore\n      0x20\n      add\n      0x00\n      keccak256\n      sload\n        /* \"contracts/ERC20Standard.sol\":2094:2124  allowed[_from][msg.sender].sub */\n      tag_72\n      swap1\n        /* \"contracts/ERC20Standard.sol\":2094:2132  allowed[_from][msg.sender].sub(_value) */\n      swap2\n      swap1\n      0xffffffff\n      and\n      jump\t// in\n    tag_73:\n        /* \"contracts/ERC20Standard.sol\":2065:2072  allowed */\n      0x06\n        /* \"contracts/ERC20Standard.sol\":2065:2079  allowed[_from] */\n      0x00\n        /* \"contracts/ERC20Standard.sol\":2073:2078  _from */\n      dup6\n        /* \"contracts/ERC20Standard.sol\":2065:2079  allowed[_from] */\n      0xffffffffffffffffffffffffffffffffffffffff\n      and\n      0xffffffffffffffffffffffffffffffffffffffff\n      and\n      dup2\n      mstore\n      0x20\n      add\n      swap1\n      dup2\n      mstore\n      0x20\n      add\n      0x00\n      keccak256\n        /* \"contracts/ERC20Standard.sol\":2065:2091  allowed[_from][msg.sender] */\n      0x00\n        /* \"contracts/ERC20Standard.sol\":2080:2090  msg.sender */\n      caller\n        /* \"contracts/ERC20Standard.sol\":2065:2091  allowed[_from][msg.sender] */\n      0xffffffffffffffffffffffffffffffffffffffff\n      and\n      0xffffffffffffffffffffffffffffffffffffffff\n      and\n      dup2\n      mstore\n      0x20\n      add\n      swap1\n      dup2\n      mstore\n      0x20\n      add\n      0x00\n      keccak256\n        /* \"contracts/ERC20Standard.sol\":2065:2132  allowed[_from][msg.sender] = allowed[_from][msg.sender].sub(_value) */\n      dup2\n      swap1\n      sstore\n      pop\n        /* \"contracts/ERC20Standard.sol\":2158:2161  _to */\n      dup2\n        /* \"contracts/ERC20Standard.sol\":2142:2170  Transfer(_from, _to, _value) */\n      0xffffffffffffffffffffffffffffffffffffffff\n      and\n        /* \"contracts/ERC20Standard.sol\":2151:2156  _from */\n      dup4\n        /* \"contracts/ERC20Standard.sol\":2142:2170  Transfer(_from, _to, _value) */\n      0xffffffffffffffffffffffffffffffffffffffff\n      and\n      0xddf252ad1be2c89b69c2b068fc378daa952ba7f163c4a11628f55a4df523b3ef\n        /* \"contracts/ERC20Standard.sol\":2163:2169  _value */\n      dup4\n        /* \"contracts/ERC20Standard.sol\":2142:2170  Transfer(_from, _to, _value) */\n      mload(0x40)\n      tag_74\n      swap2\n      swap1\n      tag_26\n      jump\t// in\n    tag_74:\n      mload(0x40)\n      dup1\n      swap2\n      sub\n      swap1\n      log3\n        /* \"contracts/ERC20Standard.sol\":1798:2182  function transferFrom(address _from, address _to, uint _value) public {\r... */\n      pop\n      pop\n      pop\n      jump\t// out\n        /* \"contracts/ERC20Standard.sol\":1027:1048  uint8 public decimals */\n    tag_32:\n      0x02\n      0x00\n      swap1\n      sload\n      swap1\n      0x0100\n      exp\n      swap1\n      div\n      0xff\n      and\n      dup2\n      jump\t// out\n        /* \"contracts/ERC20Standard.sol\":2193:2427  function mint(address addr, uint256 amount) public {\r... */\n    tag_37:\n        /* \"contracts/ERC20Standard.sol\":2273:2274  0 */\n      0x00\n        /* \"contracts/ERC20Standard.sol\":2257:2275  addr != address(0) */\n      0xffffffffffffffffffffffffffffffffffffffff\n      and\n        /* \"contracts/ERC20Standard.sol\":2257:2261  addr */\n      dup3\n        /* \"contracts/ERC20Standard.sol\":2257:2275  addr != address(0) */\n      0xffffffffffffffffffffffffffffffffffffffff\n      and\n      eq\n      iszero\n        /* \"contracts/ERC20Standard.sol\":2249:2311  require(addr != address(0), \"ERC20: mint to the zero address\") */\n      tag_76\n      jumpi\n      mload(0x40)\n      0x08c379a000000000000000000000000000000000000000000000000000000000\n      dup2\n      mstore\n      0x04\n      add\n      tag_77\n      swap1\n      tag_78\n      jump\t// in\n    tag_77:\n      mload(0x40)\n      dup1\n      swap2\n      sub\n      swap1\n      revert\n    tag_76:\n        /* \"contracts/ERC20Standard.sol\":2340:2346  amount */\n      dup1\n        /* \"contracts/ERC20Standard.sol\":2325:2336  totalSupply */\n      0x00\n      dup1\n        /* \"contracts/ERC20Standard.sol\":2325:2346  totalSupply += amount */\n      dup3\n      dup3\n      sload\n      tag_79\n      swap2\n      swap1\n      tag_80\n      jump\t// in\n    tag_79:\n      swap3\n      pop\n      pop\n      dup2\n      swap1\n      sstore\n      pop\n        /* \"contracts/ERC20Standard.sol\":2369:2375  amount */\n      dup1\n        /* \"contracts/ERC20Standard.sol\":2351:2359  balances */\n      0x05\n        /* \"contracts/ERC20Standard.sol\":2351:2365  balances[addr] */\n      0x00\n        /* \"contracts/ERC20Standard.sol\":2360:2364  addr */\n      dup5\n        /* \"contracts/ERC20Standard.sol\":2351:2365  balances[addr] */\n      0xffffffffffffffffffffffffffffffffffffffff\n      and\n      0xffffffffffffffffffffffffffffffffffffffff\n      and\n      dup2\n      mstore\n      0x20\n      add\n      swap1\n      dup2\n      mstore\n      0x20\n      add\n      0x00\n      keccak256\n      0x00\n        /* \"contracts/ERC20Standard.sol\":2351:2375  balances[addr] += amount */\n      dup3\n      dup3\n      sload\n      tag_81\n      swap2\n      swap1\n      tag_80\n      jump\t// in\n    tag_81:\n      swap3\n      pop\n      pop\n      dup2\n      swap1\n      sstore\n      pop\n        /* \"contracts/ERC20Standard.sol\":2406:2410  addr */\n      dup2\n        /* \"contracts/ERC20Standard.sol\":2385:2419  Transfer(address(0), addr, amount) */\n      0xffffffffffffffffffffffffffffffffffffffff\n      and\n        /* \"contracts/ERC20Standard.sol\":2402:2403  0 */\n      0x00\n        /* \"contracts/ERC20Standard.sol\":2385:2419  Transfer(address(0), addr, amount) */\n      0xffffffffffffffffffffffffffffffffffffffff\n      and\n      0xddf252ad1be2c89b69c2b068fc378daa952ba7f163c4a11628f55a4df523b3ef\n        /* \"contracts/ERC20Standard.sol\":2412:2418  amount */\n      dup4\n        /* \"contracts/ERC20Standard.sol\":2385:2419  Transfer(address(0), addr, amount) */\n      mload(0x40)\n      tag_82\n      swap2\n      swap1\n      tag_26\n      jump\t// in\n    tag_82:\n      mload(0x40)\n      dup1\n      swap2\n      sub\n      swap1\n      log3\n        /* \"contracts/ERC20Standard.sol\":2193:2427  function mint(address addr, uint256 amount) public {\r... */\n      pop\n      pop\n      jump\t// out\n        /* \"contracts/ERC20Standard.sol\":1076:1097  string public version */\n    tag_39:\n      0x04\n      dup1\n      sload\n      tag_83\n      swap1\n      tag_58\n      jump\t// in\n    tag_83:\n      dup1\n      0x1f\n      add\n      0x20\n      dup1\n      swap2\n      div\n      mul\n      0x20\n      add\n      mload(0x40)\n      swap1\n      dup2\n      add\n      0x40\n      mstore\n      dup1\n      swap3\n      swap2\n      swap1\n      dup2\n      dup2\n      mstore\n      0x20\n      add\n      dup3\n      dup1\n      sload\n      tag_84\n      swap1\n      tag_58\n      jump\t// in\n    tag_84:\n      dup1\n      iszero\n      tag_85\n      jumpi\n      dup1\n      0x1f\n      lt\n      tag_86\n      jumpi\n      0x0100\n      dup1\n      dup4\n      sload\n      div\n      mul\n      dup4\n      mstore\n      swap2\n      0x20\n      add\n      swap2\n      jump(tag_85)\n    tag_86:\n      dup3\n      add\n      swap2\n      swap1\n      0x00\n      mstore\n      keccak256(0x00, 0x20)\n      swap1\n    tag_87:\n      dup2\n      sload\n      dup2\n      mstore\n      swap1\n      0x01\n      add\n      swap1\n      0x20\n      add\n      dup1\n      dup4\n      gt\n      tag_87\n      jumpi\n      dup3\n      swap1\n      sub\n      0x1f\n      and\n      dup3\n      add\n      swap2\n    tag_85:\n      pop\n      pop\n      pop\n      pop\n      pop\n      dup2\n      jump\t// out\n        /* \"contracts/ERC20Standard.sol\":1345:1448  function balanceOf(address _owner) public view returns (uint balance) {\r... */\n    tag_44:\n        /* \"contracts/ERC20Standard.sol\":1401:1413  uint balance */\n      0x00\n        /* \"contracts/ERC20Standard.sol\":1427:1435  balances */\n      0x05\n        /* \"contracts/ERC20Standard.sol\":1427:1443  balances[_owner] */\n      0x00\n        /* \"contracts/ERC20Standard.sol\":1436:1442  _owner */\n      dup4\n        /* \"contracts/ERC20Standard.sol\":1427:1443  balances[_owner] */\n      0xffffffffffffffffffffffffffffffffffffffff\n      and\n      0xffffffffffffffffffffffffffffffffffffffff\n      and\n      dup2\n      mstore\n      0x20\n      add\n      swap1\n      dup2\n      mstore\n      0x20\n      add\n      0x00\n      keccak256\n      sload\n        /* \"contracts/ERC20Standard.sol\":1420:1443  return balances[_owner] */\n      swap1\n      pop\n        /* \"contracts/ERC20Standard.sol\":1345:1448  function balanceOf(address _owner) public view returns (uint balance) {\r... */\n      swap2\n      swap1\n      pop\n      jump\t// out\n        /* \"contracts/ERC20Standard.sol\":1052:1072  string public symbol */\n    tag_47:\n      0x03\n      dup1\n      sload\n      tag_89\n      swap1\n      tag_58\n      jump\t// in\n    tag_89:\n      dup1\n      0x1f\n      add\n      0x20\n      dup1\n      swap2\n      div\n      mul\n      0x20\n      add\n      mload(0x40)\n      swap1\n      dup2\n      add\n      0x40\n      mstore\n      dup1\n      swap3\n      swap2\n      swap1\n      dup2\n      dup2\n      mstore\n      0x20\n      add\n      dup3\n      dup1\n      sload\n      tag_90\n      swap1\n      tag_58\n      jump\t// in\n    tag_90:\n      dup1\n      iszero\n      tag_91\n      jumpi\n      dup1\n      0x1f\n      lt\n      tag_92\n      jumpi\n      0x0100\n      dup1\n      dup4\n      sload\n      div\n      mul\n      dup4\n      mstore\n      swap2\n      0x20\n      add\n      swap2\n      jump(tag_91)\n    tag_92:\n      dup3\n      add\n      swap2\n      swap1\n      0x00\n      mstore\n      keccak256(0x00, 0x20)\n      swap1\n    tag_93:\n      dup2\n      sload\n      dup2\n      mstore\n      swap1\n      0x01\n      add\n      swap1\n      0x20\n      add\n      dup1\n      dup4\n      gt\n      tag_93\n      jumpi\n      dup3\n      swap1\n      sub\n      0x1f\n      and\n      dup3\n      add\n      swap2\n    tag_91:\n      pop\n      pop\n      pop\n      pop\n      pop\n      dup2\n      jump\t// out\n        /* \"contracts/ERC20Standard.sol\":1453:1793  function transfer(address _recipient, uint _value) public onlyPayloadSize(2*32) {\r... */\n    tag_51:\n        /* \"contracts/ERC20Standard.sol\":1527:1531  2*32 */\n      0x40\n        /* \"contracts/ERC20Standard.sol\":1326:1327  4 */\n      0x04\n        /* \"contracts/ERC20Standard.sol\":1319:1323  size */\n      dup2\n        /* \"contracts/ERC20Standard.sol\":1319:1327  size + 4 */\n      tag_95\n      swap2\n      swap1\n      tag_80\n      jump\t// in\n    tag_95:\n        /* \"contracts/ERC20Standard.sol\":1300:1308  msg.data */\n      0x00\n      calldatasize\n        /* \"contracts/ERC20Standard.sol\":1300:1315  msg.data.length */\n      swap1\n      pop\n        /* \"contracts/ERC20Standard.sol\":1300:1327  msg.data.length == size + 4 */\n      eq\n        /* \"contracts/ERC20Standard.sol\":1293:1328  assert(msg.data.length == size + 4) */\n      tag_96\n      jumpi\n      tag_97\n      tag_98\n      jump\t// in\n    tag_97:\n    tag_96:\n        /* \"contracts/ERC20Standard.sol\":1573:1579  _value */\n      dup2\n        /* \"contracts/ERC20Standard.sol\":1549:1557  balances */\n      0x05\n        /* \"contracts/ERC20Standard.sol\":1549:1569  balances[msg.sender] */\n      0x00\n        /* \"contracts/ERC20Standard.sol\":1558:1568  msg.sender */\n      caller\n        /* \"contracts/ERC20Standard.sol\":1549:1569  balances[msg.sender] */\n      0xffffffffffffffffffffffffffffffffffffffff\n      and\n      0xffffffffffffffffffffffffffffffffffffffff\n      and\n      dup2\n      mstore\n      0x20\n      add\n      swap1\n      dup2\n      mstore\n      0x20\n      add\n      0x00\n      keccak256\n      sload\n        /* \"contracts/ERC20Standard.sol\":1549:1579  balances[msg.sender] >= _value */\n      lt\n      iszero\n        /* \"contracts/ERC20Standard.sol\":1549:1593  balances[msg.sender] >= _value && _value > 0 */\n      dup1\n      iszero\n      tag_100\n      jumpi\n      pop\n        /* \"contracts/ERC20Standard.sol\":1592:1593  0 */\n      0x00\n        /* \"contracts/ERC20Standard.sol\":1583:1589  _value */\n      dup3\n        /* \"contracts/ERC20Standard.sol\":1583:1593  _value > 0 */\n      gt\n        /* \"contracts/ERC20Standard.sol\":1549:1593  balances[msg.sender] >= _value && _value > 0 */\n    tag_100:\n        /* \"contracts/ERC20Standard.sol\":1541:1594  require(balances[msg.sender] >= _value && _value > 0) */\n      tag_101\n      jumpi\n      0x00\n      dup1\n      revert\n    tag_101:\n        /* \"contracts/ERC20Standard.sol\":1625:1657  balances[msg.sender].sub(_value) */\n      tag_102\n        /* \"contracts/ERC20Standard.sol\":1650:1656  _value */\n      dup3\n        /* \"contracts/ERC20Standard.sol\":1625:1633  balances */\n      0x05\n        /* \"contracts/ERC20Standard.sol\":1625:1645  balances[msg.sender] */\n      0x00\n        /* \"contracts/ERC20Standard.sol\":1634:1644  msg.sender */\n      caller\n        /* \"contracts/ERC20Standard.sol\":1625:1645  balances[msg.sender] */\n      0xffffffffffffffffffffffffffffffffffffffff\n      and\n      0xffffffffffffffffffffffffffffffffffffffff\n      and\n      dup2\n      mstore\n      0x20\n      add\n      swap1\n      dup2\n      mstore\n      0x20\n      add\n      0x00\n      keccak256\n      sload\n        /* \"contracts/ERC20Standard.sol\":1625:1649  balances[msg.sender].sub */\n      tag_72\n      swap1\n        /* \"contracts/ERC20Standard.sol\":1625:1657  balances[msg.sender].sub(_value) */\n      swap2\n      swap1\n      0xffffffff\n      and\n      jump\t// in\n    tag_102:\n        /* \"contracts/ERC20Standard.sol\":1602:1610  balances */\n      0x05\n        /* \"contracts/ERC20Standard.sol\":1602:1622  balances[msg.sender] */\n      0x00\n        /* \"contracts/ERC20Standard.sol\":1611:1621  msg.sender */\n      caller\n        /* \"contracts/ERC20Standard.sol\":1602:1622  balances[msg.sender] */\n      0xffffffffffffffffffffffffffffffffffffffff\n      and\n      0xffffffffffffffffffffffffffffffffffffffff\n      and\n      dup2\n      mstore\n      0x20\n      add\n      swap1\n      dup2\n      mstore\n      0x20\n      add\n      0x00\n      keccak256\n        /* \"contracts/ERC20Standard.sol\":1602:1657  balances[msg.sender] = balances[msg.sender].sub(_value) */\n      dup2\n      swap1\n      sstore\n      pop\n        /* \"contracts/ERC20Standard.sol\":1688:1720  balances[_recipient].add(_value) */\n      tag_103\n        /* \"contracts/ERC20Standard.sol\":1713:1719  _value */\n      dup3\n        /* \"contracts/ERC20Standard.sol\":1688:1696  balances */\n      0x05\n        /* \"contracts/ERC20Standard.sol\":1688:1708  balances[_recipient] */\n      0x00\n        /* \"contracts/ERC20Standard.sol\":1697:1707  _recipient */\n      dup7\n        /* \"contracts/ERC20Standard.sol\":1688:1708  balances[_recipient] */\n      0xffffffffffffffffffffffffffffffffffffffff\n      and\n      0xffffffffffffffffffffffffffffffffffffffff\n      and\n      dup2\n      mstore\n      0x20\n      add\n      swap1\n      dup2\n      mstore\n      0x20\n      add\n      0x00\n      keccak256\n      sload\n        /* \"contracts/ERC20Standard.sol\":1688:1712  balances[_recipient].add */\n      tag_70\n      swap1\n        /* \"contracts/ERC20Standard.sol\":1688:1720  balances[_recipient].add(_value) */\n      swap2\n      swap1\n      0xffffffff\n      and\n      jump\t// in\n    tag_103:\n        /* \"contracts/ERC20Standard.sol\":1665:1673  balances */\n      0x05\n        /* \"contracts/ERC20Standard.sol\":1665:1685  balances[_recipient] */\n      0x00\n        /* \"contracts/ERC20Standard.sol\":1674:1684  _recipient */\n      dup6\n        /* \"contracts/ERC20Standard.sol\":1665:1685  balances[_recipient] */\n      0xffffffffffffffffffffffffffffffffffffffff\n      and\n      0xffffffffffffffffffffffffffffffffffffffff\n      and\n      dup2\n      mstore\n      0x20\n      add\n      swap1\n      dup2\n      mstore\n      0x20\n      add\n      0x00\n      keccak256\n        /* \"contracts/ERC20Standard.sol\":1665:1720  balances[_recipient] = balances[_recipient].add(_value) */\n      dup2\n      swap1\n      sstore\n      pop\n        /* \"contracts/ERC20Standard.sol\":1754:1764  _recipient */\n      dup3\n        /* \"contracts/ERC20Standard.sol\":1733:1773  Transfer(msg.sender, _recipient, _value) */\n      0xffffffffffffffffffffffffffffffffffffffff\n      and\n        /* \"contracts/ERC20Standard.sol\":1742:1752  msg.sender */\n      caller\n        /* \"contracts/ERC20Standard.sol\":1733:1773  Transfer(msg.sender, _recipient, _value) */\n      0xffffffffffffffffffffffffffffffffffffffff\n      and\n      0xddf252ad1be2c89b69c2b068fc378daa952ba7f163c4a11628f55a4df523b3ef\n        /* \"contracts/ERC20Standard.sol\":1766:1772  _value */\n      dup5\n        /* \"contracts/ERC20Standard.sol\":1733:1773  Transfer(msg.sender, _recipient, _value) */\n      mload(0x40)\n      tag_104\n      swap2\n      swap1\n      tag_26\n      jump\t// in\n    tag_104:\n      mload(0x40)\n      dup1\n      swap2\n      sub\n      swap1\n      log3\n        /* \"contracts/ERC20Standard.sol\":1453:1793  function transfer(address _recipient, uint _value) public onlyPayloadSize(2*32) {\r... */\n      pop\n      pop\n      pop\n      jump\t// out\n        /* \"contracts/ERC20Standard.sol\":2589:2719  function allowance(address _spender, address _owner) public view returns (uint balance) {\r... */\n    tag_55:\n        /* \"contracts/ERC20Standard.sol\":2663:2675  uint balance */\n      0x00\n        /* \"contracts/ERC20Standard.sol\":2689:2696  allowed */\n      0x06\n        /* \"contracts/ERC20Standard.sol\":2689:2704  allowed[_owner] */\n      0x00\n        /* \"contracts/ERC20Standard.sol\":2697:2703  _owner */\n      dup4\n        /* \"contracts/ERC20Standard.sol\":2689:2704  allowed[_owner] */\n      0xffffffffffffffffffffffffffffffffffffffff\n      and\n      0xffffffffffffffffffffffffffffffffffffffff\n      and\n      dup2\n      mstore\n      0x20\n      add\n      swap1\n      dup2\n      mstore\n      0x20\n      add\n      0x00\n      keccak256\n        /* \"contracts/ERC20Standard.sol\":2689:2714  allowed[_owner][_spender] */\n      0x00\n        /* \"contracts/ERC20Standard.sol\":2705:2713  _spender */\n      dup5\n        /* \"contracts/ERC20Standard.sol\":2689:2714  allowed[_owner][_spender] */\n      0xffffffffffffffffffffffffffffffffffffffff\n      and\n      0xffffffffffffffffffffffffffffffffffffffff\n      and\n      dup2\n      mstore\n      0x20\n      add\n      swap1\n      dup2\n      mstore\n      0x20\n      add\n      0x00\n      keccak256\n      sload\n        /* \"contracts/ERC20Standard.sol\":2682:2714  return allowed[_owner][_spender] */\n      swap1\n      pop\n        /* \"contracts/ERC20Standard.sol\":2589:2719  function allowance(address _spender, address _owner) public view returns (uint balance) {\r... */\n      swap3\n      swap2\n      pop\n      pop\n      jump\t// out\n        /* \"contracts/ERC20Standard.sol\":629:779  function add(uint256 a, uint256 b) internal pure returns (uint256) {\r... */\n    tag_70:\n        /* \"contracts/ERC20Standard.sol\":687:694  uint256 */\n      0x00\n        /* \"contracts/ERC20Standard.sol\":707:716  uint256 c */\n      dup1\n        /* \"contracts/ERC20Standard.sol\":723:724  b */\n      dup3\n        /* \"contracts/ERC20Standard.sol\":719:720  a */\n      dup5\n        /* \"contracts/ERC20Standard.sol\":719:724  a + b */\n      tag_107\n      swap2\n      swap1\n      tag_80\n      jump\t// in\n    tag_107:\n        /* \"contracts/ERC20Standard.sol\":707:724  uint256 c = a + b */\n      swap1\n      pop\n        /* \"contracts/ERC20Standard.sol\":748:749  a */\n      dup4\n        /* \"contracts/ERC20Standard.sol\":743:744  c */\n      dup2\n        /* \"contracts/ERC20Standard.sol\":743:749  c >= a */\n      lt\n      iszero\n        /* \"contracts/ERC20Standard.sol\":735:750  require(c >= a) */\n      tag_108\n      jumpi\n      0x00\n      dup1\n      revert\n    tag_108:\n        /* \"contracts/ERC20Standard.sol\":770:771  c */\n      dup1\n        /* \"contracts/ERC20Standard.sol\":763:771  return c */\n      swap2\n      pop\n      pop\n        /* \"contracts/ERC20Standard.sol\":629:779  function add(uint256 a, uint256 b) internal pure returns (uint256) {\r... */\n      swap3\n      swap2\n      pop\n      pop\n      jump\t// out\n        /* \"contracts/ERC20Standard.sol\":471:621  function sub(uint256 a, uint256 b) internal pure returns (uint256) {\r... */\n    tag_72:\n        /* \"contracts/ERC20Standard.sol\":529:536  uint256 */\n      0x00\n        /* \"contracts/ERC20Standard.sol\":562:563  a */\n      dup3\n        /* \"contracts/ERC20Standard.sol\":557:558  b */\n      dup3\n        /* \"contracts/ERC20Standard.sol\":557:563  b <= a */\n      gt\n      iszero\n        /* \"contracts/ERC20Standard.sol\":549:564  require(b <= a) */\n      tag_110\n      jumpi\n      0x00\n      dup1\n      revert\n    tag_110:\n        /* \"contracts/ERC20Standard.sol\":575:584  uint256 c */\n      0x00\n        /* \"contracts/ERC20Standard.sol\":591:592  b */\n      dup3\n        /* \"contracts/ERC20Standard.sol\":587:588  a */\n      dup5\n        /* \"contracts/ERC20Standard.sol\":587:592  a - b */\n      tag_111\n      swap2\n      swap1\n      tag_112\n      jump\t// in\n    tag_111:\n        /* \"contracts/ERC20Standard.sol\":575:592  uint256 c = a - b */\n      swap1\n      pop\n        /* \"contracts/ERC20Standard.sol\":612:613  c */\n      dup1\n        /* \"contracts/ERC20Standard.sol\":605:613  return c */\n      swap2\n      pop\n      pop\n        /* \"contracts/ERC20Standard.sol\":471:621  function sub(uint256 a, uint256 b) internal pure returns (uint256) {\r... */\n      swap3\n      swap2\n      pop\n      pop\n      jump\t// out\n        /* \"#utility.yul\":7:146   */\n    tag_114:\n        /* \"#utility.yul\":53:58   */\n      0x00\n        /* \"#utility.yul\":91:97   */\n      dup2\n        /* \"#utility.yul\":78:98   */\n      calldataload\n        /* \"#utility.yul\":69:98   */\n      swap1\n      pop\n        /* \"#utility.yul\":107:140   */\n      tag_116\n        /* \"#utility.yul\":134:139   */\n      dup2\n        /* \"#utility.yul\":107:140   */\n      tag_117\n      jump\t// in\n    tag_116:\n        /* \"#utility.yul\":7:146   */\n      swap3\n      swap2\n      pop\n      pop\n      jump\t// out\n        /* \"#utility.yul\":152:291   */\n    tag_118:\n        /* \"#utility.yul\":198:203   */\n      0x00\n        /* \"#utility.yul\":236:242   */\n      dup2\n        /* \"#utility.yul\":223:243   */\n      calldataload\n        /* \"#utility.yul\":214:243   */\n      swap1\n      pop\n        /* \"#utility.yul\":252:285   */\n      tag_120\n        /* \"#utility.yul\":279:284   */\n      dup2\n        /* \"#utility.yul\":252:285   */\n      tag_121\n      jump\t// in\n    tag_120:\n        /* \"#utility.yul\":152:291   */\n      swap3\n      swap2\n      pop\n      pop\n      jump\t// out\n        /* \"#utility.yul\":297:626   */\n    tag_43:\n        /* \"#utility.yul\":356:362   */\n      0x00\n        /* \"#utility.yul\":405:407   */\n      0x20\n        /* \"#utility.yul\":393:402   */\n      dup3\n        /* \"#utility.yul\":384:391   */\n      dup5\n        /* \"#utility.yul\":380:403   */\n      sub\n        /* \"#utility.yul\":376:408   */\n      slt\n        /* \"#utility.yul\":373:492   */\n      iszero\n      tag_123\n      jumpi\n        /* \"#utility.yul\":411:490   */\n      tag_124\n      tag_125\n      jump\t// in\n    tag_124:\n        /* \"#utility.yul\":373:492   */\n    tag_123:\n        /* \"#utility.yul\":531:532   */\n      0x00\n        /* \"#utility.yul\":556:609   */\n      tag_126\n        /* \"#utility.yul\":601:608   */\n      dup5\n        /* \"#utility.yul\":592:598   */\n      dup3\n        /* \"#utility.yul\":581:590   */\n      dup6\n        /* \"#utility.yul\":577:599   */\n      add\n        /* \"#utility.yul\":556:609   */\n      tag_114\n      jump\t// in\n    tag_126:\n        /* \"#utility.yul\":546:609   */\n      swap2\n      pop\n        /* \"#utility.yul\":502:619   */\n      pop\n        /* \"#utility.yul\":297:626   */\n      swap3\n      swap2\n      pop\n      pop\n      jump\t// out\n        /* \"#utility.yul\":632:1106   */\n    tag_54:\n        /* \"#utility.yul\":700:706   */\n      0x00\n        /* \"#utility.yul\":708:714   */\n      dup1\n        /* \"#utility.yul\":757:759   */\n      0x40\n        /* \"#utility.yul\":745:754   */\n      dup4\n        /* \"#utility.yul\":736:743   */\n      dup6\n        /* \"#utility.yul\":732:755   */\n      sub\n        /* \"#utility.yul\":728:760   */\n      slt\n        /* \"#utility.yul\":725:844   */\n      iszero\n      tag_128\n      jumpi\n        /* \"#utility.yul\":763:842   */\n      tag_129\n      tag_125\n      jump\t// in\n    tag_129:\n        /* \"#utility.yul\":725:844   */\n    tag_128:\n        /* \"#utility.yul\":883:884   */\n      0x00\n        /* \"#utility.yul\":908:961   */\n      tag_130\n        /* \"#utility.yul\":953:960   */\n      dup6\n        /* \"#utility.yul\":944:950   */\n      dup3\n        /* \"#utility.yul\":933:942   */\n      dup7\n        /* \"#utility.yul\":929:951   */\n      add\n        /* \"#utility.yul\":908:961   */\n      tag_114\n      jump\t// in\n    tag_130:\n        /* \"#utility.yul\":898:961   */\n      swap3\n      pop\n        /* \"#utility.yul\":854:971   */\n      pop\n        /* \"#utility.yul\":1010:1012   */\n      0x20\n        /* \"#utility.yul\":1036:1089   */\n      tag_131\n        /* \"#utility.yul\":1081:1088   */\n      dup6\n        /* \"#utility.yul\":1072:1078   */\n      dup3\n        /* \"#utility.yul\":1061:1070   */\n      dup7\n        /* \"#utility.yul\":1057:1079   */\n      add\n        /* \"#utility.yul\":1036:1089   */\n      tag_114\n      jump\t// in\n    tag_131:\n        /* \"#utility.yul\":1026:1089   */\n      swap2\n      pop\n        /* \"#utility.yul\":981:1099   */\n      pop\n        /* \"#utility.yul\":632:1106   */\n      swap3\n      pop\n      swap3\n      swap1\n      pop\n      jump\t// out\n        /* \"#utility.yul\":1112:1731   */\n    tag_29:\n        /* \"#utility.yul\":1189:1195   */\n      0x00\n        /* \"#utility.yul\":1197:1203   */\n      dup1\n        /* \"#utility.yul\":1205:1211   */\n      0x00\n        /* \"#utility.yul\":1254:1256   */\n      0x60\n        /* \"#utility.yul\":1242:1251   */\n      dup5\n        /* \"#utility.yul\":1233:1240   */\n      dup7\n        /* \"#utility.yul\":1229:1252   */\n      sub\n        /* \"#utility.yul\":1225:1257   */\n      slt\n        /* \"#utility.yul\":1222:1341   */\n      iszero\n      tag_133\n      jumpi\n        /* \"#utility.yul\":1260:1339   */\n      tag_134\n      tag_125\n      jump\t// in\n    tag_134:\n        /* \"#utility.yul\":1222:1341   */\n    tag_133:\n        /* \"#utility.yul\":1380:1381   */\n      0x00\n        /* \"#utility.yul\":1405:1458   */\n      tag_135\n        /* \"#utility.yul\":1450:1457   */\n      dup7\n        /* \"#utility.yul\":1441:1447   */\n      dup3\n        /* \"#utility.yul\":1430:1439   */\n      dup8\n        /* \"#utility.yul\":1426:1448   */\n      add\n        /* \"#utility.yul\":1405:1458   */\n      tag_114\n      jump\t// in\n    tag_135:\n        /* \"#utility.yul\":1395:1458   */\n      swap4\n      pop\n        /* \"#utility.yul\":1351:1468   */\n      pop\n        /* \"#utility.yul\":1507:1509   */\n      0x20\n        /* \"#utility.yul\":1533:1586   */\n      tag_136\n        /* \"#utility.yul\":1578:1585   */\n      dup7\n        /* \"#utility.yul\":1569:1575   */\n      dup3\n        /* \"#utility.yul\":1558:1567   */\n      dup8\n        /* \"#utility.yul\":1554:1576   */\n      add\n        /* \"#utility.yul\":1533:1586   */\n      tag_114\n      jump\t// in\n    tag_136:\n        /* \"#utility.yul\":1523:1586   */\n      swap3\n      pop\n        /* \"#utility.yul\":1478:1596   */\n      pop\n        /* \"#utility.yul\":1635:1637   */\n      0x40\n        /* \"#utility.yul\":1661:1714   */\n      tag_137\n        /* \"#utility.yul\":1706:1713   */\n      dup7\n        /* \"#utility.yul\":1697:1703   */\n      dup3\n        /* \"#utility.yul\":1686:1695   */\n      dup8\n        /* \"#utility.yul\":1682:1704   */\n      add\n        /* \"#utility.yul\":1661:1714   */\n      tag_118\n      jump\t// in\n    tag_137:\n        /* \"#utility.yul\":1651:1714   */\n      swap2\n      pop\n        /* \"#utility.yul\":1606:1724   */\n      pop\n        /* \"#utility.yul\":1112:1731   */\n      swap3\n      pop\n      swap3\n      pop\n      swap3\n      jump\t// out\n        /* \"#utility.yul\":1737:2211   */\n    tag_21:\n        /* \"#utility.yul\":1805:1811   */\n      0x00\n        /* \"#utility.yul\":1813:1819   */\n      dup1\n        /* \"#utility.yul\":1862:1864   */\n      0x40\n        /* \"#utility.yul\":1850:1859   */\n      dup4\n        /* \"#utility.yul\":1841:1848   */\n      dup6\n        /* \"#utility.yul\":1837:1860   */\n      sub\n        /* \"#utility.yul\":1833:1865   */\n      slt\n        /* \"#utility.yul\":1830:1949   */\n      iszero\n      tag_139\n      jumpi\n        /* \"#utility.yul\":1868:1947   */\n      tag_140\n      tag_125\n      jump\t// in\n    tag_140:\n        /* \"#utility.yul\":1830:1949   */\n    tag_139:\n        /* \"#utility.yul\":1988:1989   */\n      0x00\n        /* \"#utility.yul\":2013:2066   */\n      tag_141\n        /* \"#utility.yul\":2058:2065   */\n      dup6\n        /* \"#utility.yul\":2049:2055   */\n      dup3\n        /* \"#utility.yul\":2038:2047   */\n      dup7\n        /* \"#utility.yul\":2034:2056   */\n      add\n        /* \"#utility.yul\":2013:2066   */\n      tag_114\n      jump\t// in\n    tag_141:\n        /* \"#utility.yul\":2003:2066   */\n      swap3\n      pop\n        /* \"#utility.yul\":1959:2076   */\n      pop\n        /* \"#utility.yul\":2115:2117   */\n      0x20\n        /* \"#utility.yul\":2141:2194   */\n      tag_142\n        /* \"#utility.yul\":2186:2193   */\n      dup6\n        /* \"#utility.yul\":2177:2183   */\n      dup3\n        /* \"#utility.yul\":2166:2175   */\n      dup7\n        /* \"#utility.yul\":2162:2184   */\n      add\n        /* \"#utility.yul\":2141:2194   */\n      tag_118\n      jump\t// in\n    tag_142:\n        /* \"#utility.yul\":2131:2194   */\n      swap2\n      pop\n        /* \"#utility.yul\":2086:2204   */\n      pop\n        /* \"#utility.yul\":1737:2211   */\n      swap3\n      pop\n      swap3\n      swap1\n      pop\n      jump\t// out\n        /* \"#utility.yul\":2217:2581   */\n    tag_143:\n        /* \"#utility.yul\":2305:2308   */\n      0x00\n        /* \"#utility.yul\":2333:2372   */\n      tag_145\n        /* \"#utility.yul\":2366:2371   */\n      dup3\n        /* \"#utility.yul\":2333:2372   */\n      tag_146\n      jump\t// in\n    tag_145:\n        /* \"#utility.yul\":2388:2459   */\n      tag_147\n        /* \"#utility.yul\":2452:2458   */\n      dup2\n        /* \"#utility.yul\":2447:2450   */\n      dup6\n        /* \"#utility.yul\":2388:2459   */\n      tag_148\n      jump\t// in\n    tag_147:\n        /* \"#utility.yul\":2381:2459   */\n      swap4\n      pop\n        /* \"#utility.yul\":2468:2520   */\n      tag_149\n        /* \"#utility.yul\":2513:2519   */\n      dup2\n        /* \"#utility.yul\":2508:2511   */\n      dup6\n        /* \"#utility.yul\":2501:2505   */\n      0x20\n        /* \"#utility.yul\":2494:2499   */\n      dup7\n        /* \"#utility.yul\":2490:2506   */\n      add\n        /* \"#utility.yul\":2468:2520   */\n      tag_150\n      jump\t// in\n    tag_149:\n        /* \"#utility.yul\":2545:2574   */\n      tag_151\n        /* \"#utility.yul\":2567:2573   */\n      dup2\n        /* \"#utility.yul\":2545:2574   */\n      tag_152\n      jump\t// in\n    tag_151:\n        /* \"#utility.yul\":2540:2543   */\n      dup5\n        /* \"#utility.yul\":2536:2575   */\n      add\n        /* \"#utility.yul\":2529:2575   */\n      swap2\n      pop\n        /* \"#utility.yul\":2309:2581   */\n      pop\n        /* \"#utility.yul\":2217:2581   */\n      swap3\n      swap2\n      pop\n      pop\n      jump\t// out\n        /* \"#utility.yul\":2587:2953   */\n    tag_153:\n        /* \"#utility.yul\":2729:2732   */\n      0x00\n        /* \"#utility.yul\":2750:2817   */\n      tag_155\n        /* \"#utility.yul\":2814:2816   */\n      0x1f\n        /* \"#utility.yul\":2809:2812   */\n      dup4\n        /* \"#utility.yul\":2750:2817   */\n      tag_148\n      jump\t// in\n    tag_155:\n        /* \"#utility.yul\":2743:2817   */\n      swap2\n      pop\n        /* \"#utility.yul\":2826:2919   */\n      tag_156\n        /* \"#utility.yul\":2915:2918   */\n      dup3\n        /* \"#utility.yul\":2826:2919   */\n      tag_157\n      jump\t// in\n    tag_156:\n        /* \"#utility.yul\":2944:2946   */\n      0x20\n        /* \"#utility.yul\":2939:2942   */\n      dup3\n        /* \"#utility.yul\":2935:2947   */\n      add\n        /* \"#utility.yul\":2928:2947   */\n      swap1\n      pop\n        /* \"#utility.yul\":2587:2953   */\n      swap2\n      swap1\n      pop\n      jump\t// out\n        /* \"#utility.yul\":2959:3077   */\n    tag_158:\n        /* \"#utility.yul\":3046:3070   */\n      tag_160\n        /* \"#utility.yul\":3064:3069   */\n      dup2\n        /* \"#utility.yul\":3046:3070   */\n      tag_161\n      jump\t// in\n    tag_160:\n        /* \"#utility.yul\":3041:3044   */\n      dup3\n        /* \"#utility.yul\":3034:3071   */\n      mstore\n        /* \"#utility.yul\":2959:3077   */\n      pop\n      pop\n      jump\t// out\n        /* \"#utility.yul\":3083:3195   */\n    tag_162:\n        /* \"#utility.yul\":3166:3188   */\n      tag_164\n        /* \"#utility.yul\":3182:3187   */\n      dup2\n        /* \"#utility.yul\":3166:3188   */\n      tag_165\n      jump\t// in\n    tag_164:\n        /* \"#utility.yul\":3161:3164   */\n      dup3\n        /* \"#utility.yul\":3154:3189   */\n      mstore\n        /* \"#utility.yul\":3083:3195   */\n      pop\n      pop\n      jump\t// out\n        /* \"#utility.yul\":3201:3514   */\n    tag_18:\n        /* \"#utility.yul\":3314:3318   */\n      0x00\n        /* \"#utility.yul\":3352:3354   */\n      0x20\n        /* \"#utility.yul\":3341:3350   */\n      dup3\n        /* \"#utility.yul\":3337:3355   */\n      add\n        /* \"#utility.yul\":3329:3355   */\n      swap1\n      pop\n        /* \"#utility.yul\":3401:3410   */\n      dup2\n        /* \"#utility.yul\":3395:3399   */\n      dup2\n        /* \"#utility.yul\":3391:3411   */\n      sub\n        /* \"#utility.yul\":3387:3388   */\n      0x00\n        /* \"#utility.yul\":3376:3385   */\n      dup4\n        /* \"#utility.yul\":3372:3389   */\n      add\n        /* \"#utility.yul\":3365:3412   */\n      mstore\n        /* \"#utility.yul\":3429:3507   */\n      tag_167\n        /* \"#utility.yul\":3502:3506   */\n      dup2\n        /* \"#utility.yul\":3493:3499   */\n      dup5\n        /* \"#utility.yul\":3429:3507   */\n      tag_143\n      jump\t// in\n    tag_167:\n        /* \"#utility.yul\":3421:3507   */\n      swap1\n      pop\n        /* \"#utility.yul\":3201:3514   */\n      swap3\n      swap2\n      pop\n      pop\n      jump\t// out\n        /* \"#utility.yul\":3520:3939   */\n    tag_78:\n        /* \"#utility.yul\":3686:3690   */\n      0x00\n        /* \"#utility.yul\":3724:3726   */\n      0x20\n        /* \"#utility.yul\":3713:3722   */\n      dup3\n        /* \"#utility.yul\":3709:3727   */\n      add\n        /* \"#utility.yul\":3701:3727   */\n      swap1\n      pop\n        /* \"#utility.yul\":3773:3782   */\n      dup2\n        /* \"#utility.yul\":3767:3771   */\n      dup2\n        /* \"#utility.yul\":3763:3783   */\n      sub\n        /* \"#utility.yul\":3759:3760   */\n      0x00\n        /* \"#utility.yul\":3748:3757   */\n      dup4\n        /* \"#utility.yul\":3744:3761   */\n      add\n        /* \"#utility.yul\":3737:3784   */\n      mstore\n        /* \"#utility.yul\":3801:3932   */\n      tag_169\n        /* \"#utility.yul\":3927:3931   */\n      dup2\n        /* \"#utility.yul\":3801:3932   */\n      tag_153\n      jump\t// in\n    tag_169:\n        /* \"#utility.yul\":3793:3932   */\n      swap1\n      pop\n        /* \"#utility.yul\":3520:3939   */\n      swap2\n      swap1\n      pop\n      jump\t// out\n        /* \"#utility.yul\":3945:4167   */\n    tag_26:\n        /* \"#utility.yul\":4038:4042   */\n      0x00\n        /* \"#utility.yul\":4076:4078   */\n      0x20\n        /* \"#utility.yul\":4065:4074   */\n      dup3\n        /* \"#utility.yul\":4061:4079   */\n      add\n        /* \"#utility.yul\":4053:4079   */\n      swap1\n      pop\n        /* \"#utility.yul\":4089:4160   */\n      tag_171\n        /* \"#utility.yul\":4157:4158   */\n      0x00\n        /* \"#utility.yul\":4146:4155   */\n      dup4\n        /* \"#utility.yul\":4142:4159   */\n      add\n        /* \"#utility.yul\":4133:4139   */\n      dup5\n        /* \"#utility.yul\":4089:4160   */\n      tag_158\n      jump\t// in\n    tag_171:\n        /* \"#utility.yul\":3945:4167   */\n      swap3\n      swap2\n      pop\n      pop\n      jump\t// out\n        /* \"#utility.yul\":4173:4387   */\n    tag_34:\n        /* \"#utility.yul\":4262:4266   */\n      0x00\n        /* \"#utility.yul\":4300:4302   */\n      0x20\n        /* \"#utility.yul\":4289:4298   */\n      dup3\n        /* \"#utility.yul\":4285:4303   */\n      add\n        /* \"#utility.yul\":4277:4303   */\n      swap1\n      pop\n        /* \"#utility.yul\":4313:4380   */\n      tag_173\n        /* \"#utility.yul\":4377:4378   */\n      0x00\n        /* \"#utility.yul\":4366:4375   */\n      dup4\n        /* \"#utility.yul\":4362:4379   */\n      add\n        /* \"#utility.yul\":4353:4359   */\n      dup5\n        /* \"#utility.yul\":4313:4380   */\n      tag_162\n      jump\t// in\n    tag_173:\n        /* \"#utility.yul\":4173:4387   */\n      swap3\n      swap2\n      pop\n      pop\n      jump\t// out\n        /* \"#utility.yul\":4474:4573   */\n    tag_146:\n        /* \"#utility.yul\":4526:4532   */\n      0x00\n        /* \"#utility.yul\":4560:4565   */\n      dup2\n        /* \"#utility.yul\":4554:4566   */\n      mload\n        /* \"#utility.yul\":4544:4566   */\n      swap1\n      pop\n        /* \"#utility.yul\":4474:4573   */\n      swap2\n      swap1\n      pop\n      jump\t// out\n        /* \"#utility.yul\":4579:4748   */\n    tag_148:\n        /* \"#utility.yul\":4663:4674   */\n      0x00\n        /* \"#utility.yul\":4697:4703   */\n      dup3\n        /* \"#utility.yul\":4692:4695   */\n      dup3\n        /* \"#utility.yul\":4685:4704   */\n      mstore\n        /* \"#utility.yul\":4737:4741   */\n      0x20\n        /* \"#utility.yul\":4732:4735   */\n      dup3\n        /* \"#utility.yul\":4728:4742   */\n      add\n        /* \"#utility.yul\":4713:4742   */\n      swap1\n      pop\n        /* \"#utility.yul\":4579:4748   */\n      swap3\n      swap2\n      pop\n      pop\n      jump\t// out\n        /* \"#utility.yul\":4754:5059   */\n    tag_80:\n        /* \"#utility.yul\":4794:4797   */\n      0x00\n        /* \"#utility.yul\":4813:4833   */\n      tag_179\n        /* \"#utility.yul\":4831:4832   */\n      dup3\n        /* \"#utility.yul\":4813:4833   */\n      tag_161\n      jump\t// in\n    tag_179:\n        /* \"#utility.yul\":4808:4833   */\n      swap2\n      pop\n        /* \"#utility.yul\":4847:4867   */\n      tag_180\n        /* \"#utility.yul\":4865:4866   */\n      dup4\n        /* \"#utility.yul\":4847:4867   */\n      tag_161\n      jump\t// in\n    tag_180:\n        /* \"#utility.yul\":4842:4867   */\n      swap3\n      pop\n        /* \"#utility.yul\":5001:5002   */\n      dup3\n        /* \"#utility.yul\":4933:4999   */\n      0xffffffffffffffffffffffffffffffffffffffffffffffffffffffffffffffff\n        /* \"#utility.yul\":4929:5003   */\n      sub\n        /* \"#utility.yul\":4926:4927   */\n      dup3\n        /* \"#utility.yul\":4923:5004   */\n      gt\n        /* \"#utility.yul\":4920:5027   */\n      iszero\n      tag_181\n      jumpi\n        /* \"#utility.yul\":5007:5025   */\n      tag_182\n      tag_183\n      jump\t// in\n    tag_182:\n        /* \"#utility.yul\":4920:5027   */\n    tag_181:\n        /* \"#utility.yul\":5051:5052   */\n      dup3\n        /* \"#utility.yul\":5048:5049   */\n      dup3\n        /* \"#utility.yul\":5044:5053   */\n      add\n        /* \"#utility.yul\":5037:5053   */\n      swap1\n      pop\n        /* \"#utility.yul\":4754:5059   */\n      swap3\n      swap2\n      pop\n      pop\n      jump\t// out\n        /* \"#utility.yul\":5065:5256   */\n    tag_112:\n        /* \"#utility.yul\":5105:5109   */\n      0x00\n        /* \"#utility.yul\":5125:5145   */\n      tag_185\n        /* \"#utility.yul\":5143:5144   */\n      dup3\n        /* \"#utility.yul\":5125:5145   */\n      tag_161\n      jump\t// in\n    tag_185:\n        /* \"#utility.yul\":5120:5145   */\n      swap2\n      pop\n        /* \"#utility.yul\":5159:5179   */\n      tag_186\n        /* \"#utility.yul\":5177:5178   */\n      dup4\n        /* \"#utility.yul\":5159:5179   */\n      tag_161\n      jump\t// in\n    tag_186:\n        /* \"#utility.yul\":5154:5179   */\n      swap3\n      pop\n        /* \"#utility.yul\":5198:5199   */\n      dup3\n        /* \"#utility.yul\":5195:5196   */\n      dup3\n        /* \"#utility.yul\":5192:5200   */\n      lt\n        /* \"#utility.yul\":5189:5223   */\n      iszero\n      tag_187\n      jumpi\n        /* \"#utility.yul\":5203:5221   */\n      tag_188\n      tag_183\n      jump\t// in\n    tag_188:\n        /* \"#utility.yul\":5189:5223   */\n    tag_187:\n        /* \"#utility.yul\":5248:5249   */\n      dup3\n        /* \"#utility.yul\":5245:5246   */\n      dup3\n        /* \"#utility.yul\":5241:5250   */\n      sub\n        /* \"#utility.yul\":5233:5250   */\n      swap1\n      pop\n        /* \"#utility.yul\":5065:5256   */\n      swap3\n      swap2\n      pop\n      pop\n      jump\t// out\n        /* \"#utility.yul\":5262:5358   */\n    tag_189:\n        /* \"#utility.yul\":5299:5306   */\n      0x00\n        /* \"#utility.yul\":5328:5352   */\n      tag_191\n        /* \"#utility.yul\":5346:5351   */\n      dup3\n        /* \"#utility.yul\":5328:5352   */\n      tag_192\n      jump\t// in\n    tag_191:\n        /* \"#utility.yul\":5317:5352   */\n      swap1\n      pop\n        /* \"#utility.yul\":5262:5358   */\n      swap2\n      swap1\n      pop\n      jump\t// out\n        /* \"#utility.yul\":5364:5490   */\n    tag_192:\n        /* \"#utility.yul\":5401:5408   */\n      0x00\n        /* \"#utility.yul\":5441:5483   */\n      0xffffffffffffffffffffffffffffffffffffffff\n        /* \"#utility.yul\":5434:5439   */\n      dup3\n        /* \"#utility.yul\":5430:5484   */\n      and\n        /* \"#utility.yul\":5419:5484   */\n      swap1\n      pop\n        /* \"#utility.yul\":5364:5490   */\n      swap2\n      swap1\n      pop\n      jump\t// out\n        /* \"#utility.yul\":5496:5573   */\n    tag_161:\n        /* \"#utility.yul\":5533:5540   */\n      0x00\n        /* \"#utility.yul\":5562:5567   */\n      dup2\n        /* \"#utility.yul\":5551:5567   */\n      swap1\n      pop\n        /* \"#utility.yul\":5496:5573   */\n      swap2\n      swap1\n      pop\n      jump\t// out\n        /* \"#utility.yul\":5579:5665   */\n    tag_165:\n        /* \"#utility.yul\":5614:5621   */\n      0x00\n        /* \"#utility.yul\":5654:5658   */\n      0xff\n        /* \"#utility.yul\":5647:5652   */\n      dup3\n        /* \"#utility.yul\":5643:5659   */\n      and\n        /* \"#utility.yul\":5632:5659   */\n      swap1\n      pop\n        /* \"#utility.yul\":5579:5665   */\n      swap2\n      swap1\n      pop\n      jump\t// out\n        /* \"#utility.yul\":5671:5978   */\n    tag_150:\n        /* \"#utility.yul\":5739:5740   */\n      0x00\n        /* \"#utility.yul\":5749:5862   */\n    tag_197:\n        /* \"#utility.yul\":5763:5769   */\n      dup4\n        /* \"#utility.yul\":5760:5761   */\n      dup2\n        /* \"#utility.yul\":5757:5770   */\n      lt\n        /* \"#utility.yul\":5749:5862   */\n      iszero\n      tag_199\n      jumpi\n        /* \"#utility.yul\":5848:5849   */\n      dup1\n        /* \"#utility.yul\":5843:5846   */\n      dup3\n        /* \"#utility.yul\":5839:5850   */\n      add\n        /* \"#utility.yul\":5833:5851   */\n      mload\n        /* \"#utility.yul\":5829:5830   */\n      dup2\n        /* \"#utility.yul\":5824:5827   */\n      dup5\n        /* \"#utility.yul\":5820:5831   */\n      add\n        /* \"#utility.yul\":5813:5852   */\n      mstore\n        /* \"#utility.yul\":5785:5787   */\n      0x20\n        /* \"#utility.yul\":5782:5783   */\n      dup2\n        /* \"#utility.yul\":5778:5788   */\n      add\n        /* \"#utility.yul\":5773:5788   */\n      swap1\n      pop\n        /* \"#utility.yul\":5749:5862   */\n      jump(tag_197)\n    tag_199:\n        /* \"#utility.yul\":5880:5886   */\n      dup4\n        /* \"#utility.yul\":5877:5878   */\n      dup2\n        /* \"#utility.yul\":5874:5887   */\n      gt\n        /* \"#utility.yul\":5871:5972   */\n      iszero\n      tag_200\n      jumpi\n        /* \"#utility.yul\":5960:5961   */\n      0x00\n        /* \"#utility.yul\":5951:5957   */\n      dup5\n        /* \"#utility.yul\":5946:5949   */\n      dup5\n        /* \"#utility.yul\":5942:5958   */\n      add\n        /* \"#utility.yul\":5935:5962   */\n      mstore\n        /* \"#utility.yul\":5871:5972   */\n    tag_200:\n        /* \"#utility.yul\":5720:5978   */\n      pop\n        /* \"#utility.yul\":5671:5978   */\n      pop\n      pop\n      pop\n      jump\t// out\n        /* \"#utility.yul\":5984:6304   */\n    tag_58:\n        /* \"#utility.yul\":6028:6034   */\n      0x00\n        /* \"#utility.yul\":6065:6066   */\n      0x02\n        /* \"#utility.yul\":6059:6063   */\n      dup3\n        /* \"#utility.yul\":6055:6067   */\n      div\n        /* \"#utility.yul\":6045:6067   */\n      swap1\n      pop\n        /* \"#utility.yul\":6112:6113   */\n      0x01\n        /* \"#utility.yul\":6106:6110   */\n      dup3\n        /* \"#utility.yul\":6102:6114   */\n      and\n        /* \"#utility.yul\":6133:6151   */\n      dup1\n        /* \"#utility.yul\":6123:6204   */\n      tag_202\n      jumpi\n        /* \"#utility.yul\":6189:6193   */\n      0x7f\n        /* \"#utility.yul\":6181:6187   */\n      dup3\n        /* \"#utility.yul\":6177:6194   */\n      and\n        /* \"#utility.yul\":6167:6194   */\n      swap2\n      pop\n        /* \"#utility.yul\":6123:6204   */\n    tag_202:\n        /* \"#utility.yul\":6251:6253   */\n      0x20\n        /* \"#utility.yul\":6243:6249   */\n      dup3\n        /* \"#utility.yul\":6240:6254   */\n      lt\n        /* \"#utility.yul\":6220:6238   */\n      dup2\n        /* \"#utility.yul\":6217:6255   */\n      eq\n        /* \"#utility.yul\":6214:6298   */\n      iszero\n      tag_203\n      jumpi\n        /* \"#utility.yul\":6270:6288   */\n      tag_204\n      tag_205\n      jump\t// in\n    tag_204:\n        /* \"#utility.yul\":6214:6298   */\n    tag_203:\n        /* \"#utility.yul\":6035:6304   */\n      pop\n        /* \"#utility.yul\":5984:6304   */\n      swap2\n      swap1\n      pop\n      jump\t// out\n        /* \"#utility.yul\":6310:6490   */\n    tag_98:\n        /* \"#utility.yul\":6358:6435   */\n      0x4e487b7100000000000000000000000000000000000000000000000000000000\n        /* \"#utility.yul\":6355:6356   */\n      0x00\n        /* \"#utility.yul\":6348:6436   */\n      mstore\n        /* \"#utility.yul\":6455:6459   */\n      0x01\n        /* \"#utility.yul\":6452:6453   */\n      0x04\n        /* \"#utility.yul\":6445:6460   */\n      mstore\n        /* \"#utility.yul\":6479:6483   */\n      0x24\n        /* \"#utility.yul\":6476:6477   */\n      0x00\n        /* \"#utility.yul\":6469:6484   */\n      revert\n        /* \"#utility.yul\":6496:6676   */\n    tag_183:\n        /* \"#utility.yul\":6544:6621   */\n      0x4e487b7100000000000000000000000000000000000000000000000000000000\n        /* \"#utility.yul\":6541:6542   */\n      0x00\n        /* \"#utility.yul\":6534:6622   */\n      mstore\n        /* \"#utility.yul\":6641:6645   */\n      0x11\n        /* \"#utility.yul\":6638:6639   */\n      0x04\n        /* \"#utility.yul\":6631:6646   */\n      mstore\n        /* \"#utility.yul\":6665:6669   */\n      0x24\n        /* \"#utility.yul\":6662:6663   */\n      0x00\n        /* \"#utility.yul\":6655:6670   */\n      revert\n        /* \"#utility.yul\":6682:6862   */\n    tag_205:\n        /* \"#utility.yul\":6730:6807   */\n      0x4e487b7100000000000000000000000000000000000000000000000000000000\n        /* \"#utility.yul\":6727:6728   */\n      0x00\n        /* \"#utility.yul\":6720:6808   */\n      mstore\n        /* \"#utility.yul\":6827:6831   */\n      0x22\n        /* \"#utility.yul\":6824:6825   */\n      0x04\n        /* \"#utility.yul\":6817:6832   */\n      mstore\n        /* \"#utility.yul\":6851:6855   */\n      0x24\n        /* \"#utility.yul\":6848:6849   */\n      0x00\n        /* \"#utility.yul\":6841:6856   */\n      revert\n        /* \"#utility.yul\":6991:7108   */\n    tag_125:\n        /* \"#utility.yul\":7100:7101   */\n      0x00\n        /* \"#utility.yul\":7097:7098   */\n      dup1\n        /* \"#utility.yul\":7090:7102   */\n      revert\n        /* \"#utility.yul\":7114:7216   */\n    tag_152:\n        /* \"#utility.yul\":7155:7161   */\n      0x00\n        /* \"#utility.yul\":7206:7208   */\n      0x1f\n        /* \"#utility.yul\":7202:7209   */\n      not\n        /* \"#utility.yul\":7197:7199   */\n      0x1f\n        /* \"#utility.yul\":7190:7195   */\n      dup4\n        /* \"#utility.yul\":7186:7200   */\n      add\n        /* \"#utility.yul\":7182:7210   */\n      and\n        /* \"#utility.yul\":7172:7210   */\n      swap1\n      pop\n        /* \"#utility.yul\":7114:7216   */\n      swap2\n      swap1\n      pop\n      jump\t// out\n        /* \"#utility.yul\":7222:7403   */\n    tag_157:\n        /* \"#utility.yul\":7362:7395   */\n      0x45524332303a206d696e7420746f20746865207a65726f206164647265737300\n        /* \"#utility.yul\":7358:7359   */\n      0x00\n        /* \"#utility.yul\":7350:7356   */\n      dup3\n        /* \"#utility.yul\":7346:7360   */\n      add\n        /* \"#utility.yul\":7339:7396   */\n      mstore\n        /* \"#utility.yul\":7222:7403   */\n      pop\n      jump\t// out\n        /* \"#utility.yul\":7409:7531   */\n    tag_117:\n        /* \"#utility.yul\":7482:7506   */\n      tag_215\n        /* \"#utility.yul\":7500:7505   */\n      dup2\n        /* \"#utility.yul\":7482:7506   */\n      tag_189\n      jump\t// in\n    tag_215:\n        /* \"#utility.yul\":7475:7480   */\n      dup2\n        /* \"#utility.yul\":7472:7507   */\n      eq\n        /* \"#utility.yul\":7462:7525   */\n      tag_216\n      jumpi\n        /* \"#utility.yul\":7521:7522   */\n      0x00\n        /* \"#utility.yul\":7518:7519   */\n      dup1\n        /* \"#utility.yul\":7511:7523   */\n      revert\n        /* \"#utility.yul\":7462:7525   */\n    tag_216:\n        /* \"#utility.yul\":7409:7531   */\n      pop\n      jump\t// out\n        /* \"#utility.yul\":7537:7659   */\n    tag_121:\n        /* \"#utility.yul\":7610:7634   */\n      tag_218\n        /* \"#utility.yul\":7628:7633   */\n      dup2\n        /* \"#utility.yul\":7610:7634   */\n      tag_161\n      jump\t// in\n    tag_218:\n        /* \"#utility.yul\":7603:7608   */\n      dup2\n        /* \"#utility.yul\":7600:7635   */\n      eq\n        /* \"#utility.yul\":7590:7653   */\n      tag_219\n      jumpi\n        /* \"#utility.yul\":7649:7650   */\n      0x00\n        /* \"#utility.yul\":7646:7647   */\n      dup1\n        /* \"#utility.yul\":7639:7651   */\n      revert\n        /* \"#utility.yul\":7590:7653   */\n    tag_219:\n        /* \"#utility.yul\":7537:7659   */\n      pop\n      jump\t// out\n\n    auxdata: 0xa26469706673582212207ccd6f036695097b00eb606dac0fdd73c6fbb27a7fe22b80fc51c5838ddd577764736f6c63430008070033\n}\n",
				"bytecode": {
					"linkReferences": {},
					"object": "60806040523480156200001157600080fd5b50604051620014ac380380620014ac833981810160405281019062000037919062000257565b600080819055506040518060400160405280600d81526020017f452d566f74696e6720636f696e00000000000000000000000000000000000000815250600190805190602001906200008b92919062000190565b506004600260006101000a81548160ff021916908360ff1602179055506040518060400160405280600381526020017f455643000000000000000000000000000000000000000000000000000000000081525060039080519060200190620000f592919062000190565b506040518060400160405280600381526020017f312e300000000000000000000000000000000000000000000000000000000000815250600490805190602001906200014392919062000190565b506001600560008373ffffffffffffffffffffffffffffffffffffffff1673ffffffffffffffffffffffffffffffffffffffff168152602001908152602001600020819055505062000341565b8280546200019e90620002bd565b90600052602060002090601f016020900481019282620001c257600085556200020e565b82601f10620001dd57805160ff19168380011785556200020e565b828001600101855582156200020e579182015b828111156200020d578251825591602001919060010190620001f0565b5b5090506200021d919062000221565b5090565b5b808211156200023c57600081600090555060010162000222565b5090565b600081519050620002518162000327565b92915050565b60006020828403121562000270576200026f62000322565b5b6000620002808482850162000240565b91505092915050565b600062000296826200029d565b9050919050565b600073ffffffffffffffffffffffffffffffffffffffff82169050919050565b60006002820490506001821680620002d657607f821691505b60208210811415620002ed57620002ec620002f3565b5b50919050565b7f4e487b7100000000000000000000000000000000000000000000000000000000600052602260045260246000fd5b600080fd5b620003328162000289565b81146200033e57600080fd5b50565b61115b80620003516000396000f3fe608060405234801561001057600080fd5b50600436106100a95760003560e01c806340c10f191161007157806340c10f191461014057806354fd4d501461015c57806370a082311461017a57806395d89b41146101aa578063a9059cbb146101c8578063dd62ed3e146101e4576100a9565b806306fdde03146100ae578063095ea7b3146100cc57806318160ddd146100e857806323b872dd14610106578063313ce56714610122575b600080fd5b6100b6610214565b6040516100c39190610e5f565b60405180910390f35b6100e660048036038101906100e19190610da5565b6102a2565b005b6100f061038c565b6040516100fd9190610ea1565b60405180910390f35b610120600480360381019061011b9190610d52565b610392565b005b61012a610715565b6040516101379190610ebc565b60405180910390f35b61015a60048036038101906101559190610da5565b610728565b005b610164610870565b6040516101719190610e5f565b60405180910390f35b610194600480360381019061018f9190610ce5565b6108fe565b6040516101a19190610ea1565b60405180910390f35b6101b2610947565b6040516101bf9190610e5f565b60405180910390f35b6101e260048036038101906101dd9190610da5565b6109d5565b005b6101fe60048036038101906101f99190610d12565b610be3565b60405161020b9190610ea1565b60405180910390f35b6001805461022190610ff9565b80601f016020809104026020016040519081016040528092919081815260200182805461024d90610ff9565b801561029a5780601f1061026f5761010080835404028352916020019161029a565b820191906000526020600020905b81548152906001019060200180831161027d57829003601f168201915b505050505081565b80600660003373ffffffffffffffffffffffffffffffffffffffff1673ffffffffffffffffffffffffffffffffffffffff16815260200190815260200160002060008473ffffffffffffffffffffffffffffffffffffffff1673ffffffffffffffffffffffffffffffffffffffff168152602001908152602001600020819055508173ffffffffffffffffffffffffffffffffffffffff163373ffffffffffffffffffffffffffffffffffffffff167f8c5be1e5ebec7d5bd14f71427d1e84f3dd0314c0f7b2291e5b200ac8c7c3b925836040516103809190610ea1565b60405180910390a35050565b60005481565b80600560008573ffffffffffffffffffffffffffffffffffffffff1673ffffffffffffffffffffffffffffffffffffffff168152602001908152602001600020541015801561045d575080600660008573ffffffffffffffffffffffffffffffffffffffff1673ffffffffffffffffffffffffffffffffffffffff16815260200190815260200160002060003373ffffffffffffffffffffffffffffffffffffffff1673ffffffffffffffffffffffffffffffffffffffff1681526020019081526020016000205410155b80156104695750600081115b61047257600080fd5b6104c481600560008573ffffffffffffffffffffffffffffffffffffffff1673ffffffffffffffffffffffffffffffffffffffff16815260200190815260200160002054610c6a90919063ffffffff16565b600560008473ffffffffffffffffffffffffffffffffffffffff1673ffffffffffffffffffffffffffffffffffffffff1681526020019081526020016000208190555061055981600560008673ffffffffffffffffffffffffffffffffffffffff1673ffffffffffffffffffffffffffffffffffffffff16815260200190815260200160002054610c9290919063ffffffff16565b600560008573ffffffffffffffffffffffffffffffffffffffff1673ffffffffffffffffffffffffffffffffffffffff1681526020019081526020016000208190555061062b81600660008673ffffffffffffffffffffffffffffffffffffffff1673ffffffffffffffffffffffffffffffffffffffff16815260200190815260200160002060003373ffffffffffffffffffffffffffffffffffffffff1673ffffffffffffffffffffffffffffffffffffffff16815260200190815260200160002054610c9290919063ffffffff16565b600660008573ffffffffffffffffffffffffffffffffffffffff1673ffffffffffffffffffffffffffffffffffffffff16815260200190815260200160002060003373ffffffffffffffffffffffffffffffffffffffff1673ffffffffffffffffffffffffffffffffffffffff168152602001908152602001600020819055508173ffffffffffffffffffffffffffffffffffffffff168373ffffffffffffffffffffffffffffffffffffffff167fddf252ad1be2c89b69c2b068fc378daa952ba7f163c4a11628f55a4df523b3ef836040516107089190610ea1565b60405180910390a3505050565b600260009054906101000a900460ff1681565b600073ffffffffffffffffffffffffffffffffffffffff168273ffffffffffffffffffffffffffffffffffffffff161415610798576040517f08c379a000000000000000000000000000000000000000000000000000000000815260040161078f90610e81565b60405180910390fd5b806000808282546107a99190610ef3565b9250508190555080600560008473ffffffffffffffffffffffffffffffffffffffff1673ffffffffffffffffffffffffffffffffffffffff16815260200190815260200160002060008282546107ff9190610ef3565b925050819055508173ffffffffffffffffffffffffffffffffffffffff16600073ffffffffffffffffffffffffffffffffffffffff167fddf252ad1be2c89b69c2b068fc378daa952ba7f163c4a11628f55a4df523b3ef836040516108649190610ea1565b60405180910390a35050565b6004805461087d90610ff9565b80601f01602080910402602001604051908101604052809291908181526020018280546108a990610ff9565b80156108f65780601f106108cb576101008083540402835291602001916108f6565b820191906000526020600020905b8154815290600101906020018083116108d957829003601f168201915b505050505081565b6000600560008373ffffffffffffffffffffffffffffffffffffffff1673ffffffffffffffffffffffffffffffffffffffff168152602001908152602001600020549050919050565b6003805461095490610ff9565b80601f016020809104026020016040519081016040528092919081815260200182805461098090610ff9565b80156109cd5780601f106109a2576101008083540402835291602001916109cd565b820191906000526020600020905b8154815290600101906020018083116109b057829003601f168201915b505050505081565b60406004816109e49190610ef3565b6000369050146109f7576109f661102b565b5b81600560003373ffffffffffffffffffffffffffffffffffffffff1673ffffffffffffffffffffffffffffffffffffffff1681526020019081526020016000205410158015610a465750600082115b610a4f57600080fd5b610aa182600560003373ffffffffffffffffffffffffffffffffffffffff1673ffffffffffffffffffffffffffffffffffffffff16815260200190815260200160002054610c9290919063ffffffff16565b600560003373ffffffffffffffffffffffffffffffffffffffff1673ffffffffffffffffffffffffffffffffffffffff16815260200190815260200160002081905550610b3682600560008673ffffffffffffffffffffffffffffffffffffffff1673ffffffffffffffffffffffffffffffffffffffff16815260200190815260200160002054610c6a90919063ffffffff16565b600560008573ffffffffffffffffffffffffffffffffffffffff1673ffffffffffffffffffffffffffffffffffffffff168152602001908152602001600020819055508273ffffffffffffffffffffffffffffffffffffffff163373ffffffffffffffffffffffffffffffffffffffff167fddf252ad1be2c89b69c2b068fc378daa952ba7f163c4a11628f55a4df523b3ef84604051610bd69190610ea1565b60405180910390a3505050565b6000600660008373ffffffffffffffffffffffffffffffffffffffff1673ffffffffffffffffffffffffffffffffffffffff16815260200190815260200160002060008473ffffffffffffffffffffffffffffffffffffffff1673ffffffffffffffffffffffffffffffffffffffff16815260200190815260200160002054905092915050565b6000808284610c799190610ef3565b905083811015610c8857600080fd5b8091505092915050565b600082821115610ca157600080fd5b60008284610caf9190610f49565b90508091505092915050565b600081359050610cca816110f7565b92915050565b600081359050610cdf8161110e565b92915050565b600060208284031215610cfb57610cfa6110b8565b5b6000610d0984828501610cbb565b91505092915050565b60008060408385031215610d2957610d286110b8565b5b6000610d3785828601610cbb565b9250506020610d4885828601610cbb565b9150509250929050565b600080600060608486031215610d6b57610d6a6110b8565b5b6000610d7986828701610cbb565b9350506020610d8a86828701610cbb565b9250506040610d9b86828701610cd0565b9150509250925092565b60008060408385031215610dbc57610dbb6110b8565b5b6000610dca85828601610cbb565b9250506020610ddb85828601610cd0565b9150509250929050565b6000610df082610ed7565b610dfa8185610ee2565b9350610e0a818560208601610fc6565b610e13816110bd565b840191505092915050565b6000610e2b601f83610ee2565b9150610e36826110ce565b602082019050919050565b610e4a81610faf565b82525050565b610e5981610fb9565b82525050565b60006020820190508181036000830152610e798184610de5565b905092915050565b60006020820190508181036000830152610e9a81610e1e565b9050919050565b6000602082019050610eb66000830184610e41565b92915050565b6000602082019050610ed16000830184610e50565b92915050565b600081519050919050565b600082825260208201905092915050565b6000610efe82610faf565b9150610f0983610faf565b9250827fffffffffffffffffffffffffffffffffffffffffffffffffffffffffffffffff03821115610f3e57610f3d61105a565b5b828201905092915050565b6000610f5482610faf565b9150610f5f83610faf565b925082821015610f7257610f7161105a565b5b828203905092915050565b6000610f8882610f8f565b9050919050565b600073ffffffffffffffffffffffffffffffffffffffff82169050919050565b6000819050919050565b600060ff82169050919050565b60005b83811015610fe4578082015181840152602081019050610fc9565b83811115610ff3576000848401525b50505050565b6000600282049050600182168061101157607f821691505b6020821081141561102557611024611089565b5b50919050565b7f4e487b7100000000000000000000000000000000000000000000000000000000600052600160045260246000fd5b7f4e487b7100000000000000000000000000000000000000000000000000000000600052601160045260246000fd5b7f4e487b7100000000000000000000000000000000000000000000000000000000600052602260045260246000fd5b600080fd5b6000601f19601f8301169050919050565b7f45524332303a206d696e7420746f20746865207a65726f206164647265737300600082015250565b61110081610f7d565b811461110b57600080fd5b50565b61111781610faf565b811461112257600080fd5b5056fea26469706673582212207ccd6f036695097b00eb606dac0fdd73c6fbb27a7fe22b80fc51c5838ddd577764736f6c63430008070033",
					"opcodes": "PUSH1 0x80 PUSH1 0x40 MSTORE CALLVALUE DUP1 ISZERO PUSH3 0x11 JUMPI PUSH1 0x0 DUP1 REVERT JUMPDEST POP PUSH1 0x40 MLOAD PUSH3 0x14AC CODESIZE SUB DUP1 PUSH3 0x14AC DUP4 CODECOPY DUP2 DUP2 ADD PUSH1 0x40 MSTORE DUP2 ADD SWAP1 PUSH3 0x37 SWAP2 SWAP1 PUSH3 0x257 JUMP JUMPDEST PUSH1 0x0 DUP1 DUP2 SWAP1 SSTORE POP PUSH1 0x40 MLOAD DUP1 PUSH1 0x40 ADD PUSH1 0x40 MSTORE DUP1 PUSH1 0xD DUP2 MSTORE PUSH1 0x20 ADD PUSH32 0x452D566F74696E6720636F696E00000000000000000000000000000000000000 DUP2 MSTORE POP PUSH1 0x1 SWAP1 DUP1 MLOAD SWAP1 PUSH1 0x20 ADD SWAP1 PUSH3 0x8B SWAP3 SWAP2 SWAP1 PUSH3 0x190 JUMP JUMPDEST POP PUSH1 0x4 PUSH1 0x2 PUSH1 0x0 PUSH2 0x100 EXP DUP2 SLOAD DUP2 PUSH1 0xFF MUL NOT AND SWAP1 DUP4 PUSH1 0xFF AND MUL OR SWAP1 SSTORE POP PUSH1 0x40 MLOAD DUP1 PUSH1 0x40 ADD PUSH1 0x40 MSTORE DUP1 PUSH1 0x3 DUP2 MSTORE PUSH1 0x20 ADD PUSH32 0x4556430000000000000000000000000000000000000000000000000000000000 DUP2 MSTORE POP PUSH1 0x3 SWAP1 DUP1 MLOAD SWAP1 PUSH1 0x20 ADD SWAP1 PUSH3 0xF5 SWAP3 SWAP2 SWAP1 PUSH3 0x190 JUMP JUMPDEST POP PUSH1 0x40 MLOAD DUP1 PUSH1 0x40 ADD PUSH1 0x40 MSTORE DUP1 PUSH1 0x3 DUP2 MSTORE PUSH1 0x20 ADD PUSH32 0x312E300000000000000000000000000000000000000000000000000000000000 DUP2 MSTORE POP PUSH1 0x4 SWAP1 DUP1 MLOAD SWAP1 PUSH1 0x20 ADD SWAP1 PUSH3 0x143 SWAP3 SWAP2 SWAP1 PUSH3 0x190 JUMP JUMPDEST POP PUSH1 0x1 PUSH1 0x5 PUSH1 0x0 DUP4 PUSH20 0xFFFFFFFFFFFFFFFFFFFFFFFFFFFFFFFFFFFFFFFF AND PUSH20 0xFFFFFFFFFFFFFFFFFFFFFFFFFFFFFFFFFFFFFFFF AND DUP2 MSTORE PUSH1 0x20 ADD SWAP1 DUP2 MSTORE PUSH1 0x20 ADD PUSH1 0x0 KECCAK256 DUP2 SWAP1 SSTORE POP POP PUSH3 0x341 JUMP JUMPDEST DUP3 DUP1 SLOAD PUSH3 0x19E SWAP1 PUSH3 0x2BD JUMP JUMPDEST SWAP1 PUSH1 0x0 MSTORE PUSH1 0x20 PUSH1 0x0 KECCAK256 SWAP1 PUSH1 0x1F ADD PUSH1 0x20 SWAP1 DIV DUP2 ADD SWAP3 DUP3 PUSH3 0x1C2 JUMPI PUSH1 0x0 DUP6 SSTORE PUSH3 0x20E JUMP JUMPDEST DUP3 PUSH1 0x1F LT PUSH3 0x1DD JUMPI DUP1 MLOAD PUSH1 0xFF NOT AND DUP4 DUP1 ADD OR DUP6 SSTORE PUSH3 0x20E JUMP JUMPDEST DUP3 DUP1 ADD PUSH1 0x1 ADD DUP6 SSTORE DUP3 ISZERO PUSH3 0x20E JUMPI SWAP2 DUP3 ADD JUMPDEST DUP3 DUP2 GT ISZERO PUSH3 0x20D JUMPI DUP3 MLOAD DUP3 SSTORE SWAP2 PUSH1 0x20 ADD SWAP2 SWAP1 PUSH1 0x1 ADD SWAP1 PUSH3 0x1F0 JUMP JUMPDEST JUMPDEST POP SWAP1 POP PUSH3 0x21D SWAP2 SWAP1 PUSH3 0x221 JUMP JUMPDEST POP SWAP1 JUMP JUMPDEST JUMPDEST DUP1 DUP3 GT ISZERO PUSH3 0x23C JUMPI PUSH1 0x0 DUP2 PUSH1 0x0 SWAP1 SSTORE POP PUSH1 0x1 ADD PUSH3 0x222 JUMP JUMPDEST POP SWAP1 JUMP JUMPDEST PUSH1 0x0 DUP2 MLOAD SWAP1 POP PUSH3 0x251 DUP2 PUSH3 0x327 JUMP JUMPDEST SWAP3 SWAP2 POP POP JUMP JUMPDEST PUSH1 0x0 PUSH1 0x20 DUP3 DUP5 SUB SLT ISZERO PUSH3 0x270 JUMPI PUSH3 0x26F PUSH3 0x322 JUMP JUMPDEST JUMPDEST PUSH1 0x0 PUSH3 0x280 DUP5 DUP3 DUP6 ADD PUSH3 0x240 JUMP JUMPDEST SWAP2 POP POP SWAP3 SWAP2 POP POP JUMP JUMPDEST PUSH1 0x0 PUSH3 0x296 DUP3 PUSH3 0x29D JUMP JUMPDEST SWAP1 POP SWAP2 SWAP1 POP JUMP JUMPDEST PUSH1 0x0 PUSH20 0xFFFFFFFFFFFFFFFFFFFFFFFFFFFFFFFFFFFFFFFF DUP3 AND SWAP1 POP SWAP2 SWAP1 POP JUMP JUMPDEST PUSH1 0x0 PUSH1 0x2 DUP3 DIV SWAP1 POP PUSH1 0x1 DUP3 AND DUP1 PUSH3 0x2D6 JUMPI PUSH1 0x7F DUP3 AND SWAP2 POP JUMPDEST PUSH1 0x20 DUP3 LT DUP2 EQ ISZERO PUSH3 0x2ED JUMPI PUSH3 0x2EC PUSH3 0x2F3 JUMP JUMPDEST JUMPDEST POP SWAP2 SWAP1 POP JUMP JUMPDEST PUSH32 0x4E487B7100000000000000000000000000000000000000000000000000000000 PUSH1 0x0 MSTORE PUSH1 0x22 PUSH1 0x4 MSTORE PUSH1 0x24 PUSH1 0x0 REVERT JUMPDEST PUSH1 0x0 DUP1 REVERT JUMPDEST PUSH3 0x332 DUP2 PUSH3 0x289 JUMP JUMPDEST DUP2 EQ PUSH3 0x33E JUMPI PUSH1 0x0 DUP1 REVERT JUMPDEST POP JUMP JUMPDEST PUSH2 0x115B DUP1 PUSH3 0x351 PUSH1 0x0 CODECOPY PUSH1 0x0 RETURN INVALID PUSH1 0x80 PUSH1 0x40 MSTORE CALLVALUE DUP1 ISZERO PUSH2 0x10 JUMPI PUSH1 0x0 DUP1 REVERT JUMPDEST POP PUSH1 0x4 CALLDATASIZE LT PUSH2 0xA9 JUMPI PUSH1 0x0 CALLDATALOAD PUSH1 0xE0 SHR DUP1 PUSH4 0x40C10F19 GT PUSH2 0x71 JUMPI DUP1 PUSH4 0x40C10F19 EQ PUSH2 0x140 JUMPI DUP1 PUSH4 0x54FD4D50 EQ PUSH2 0x15C JUMPI DUP1 PUSH4 0x70A08231 EQ PUSH2 0x17A JUMPI DUP1 PUSH4 0x95D89B41 EQ PUSH2 0x1AA JUMPI DUP1 PUSH4 0xA9059CBB EQ PUSH2 0x1C8 JUMPI DUP1 PUSH4 0xDD62ED3E EQ PUSH2 0x1E4 JUMPI PUSH2 0xA9 JUMP JUMPDEST DUP1 PUSH4 0x6FDDE03 EQ PUSH2 0xAE JUMPI DUP1 PUSH4 0x95EA7B3 EQ PUSH2 0xCC JUMPI DUP1 PUSH4 0x18160DDD EQ PUSH2 0xE8 JUMPI DUP1 PUSH4 0x23B872DD EQ PUSH2 0x106 JUMPI DUP1 PUSH4 0x313CE567 EQ PUSH2 0x122 JUMPI JUMPDEST PUSH1 0x0 DUP1 REVERT JUMPDEST PUSH2 0xB6 PUSH2 0x214 JUMP JUMPDEST PUSH1 0x40 MLOAD PUSH2 0xC3 SWAP2 SWAP1 PUSH2 0xE5F JUMP JUMPDEST PUSH1 0x40 MLOAD DUP1 SWAP2 SUB SWAP1 RETURN JUMPDEST PUSH2 0xE6 PUSH1 0x4 DUP1 CALLDATASIZE SUB DUP2 ADD SWAP1 PUSH2 0xE1 SWAP2 SWAP1 PUSH2 0xDA5 JUMP JUMPDEST PUSH2 0x2A2 JUMP JUMPDEST STOP JUMPDEST PUSH2 0xF0 PUSH2 0x38C JUMP JUMPDEST PUSH1 0x40 MLOAD PUSH2 0xFD SWAP2 SWAP1 PUSH2 0xEA1 JUMP JUMPDEST PUSH1 0x40 MLOAD DUP1 SWAP2 SUB SWAP1 RETURN JUMPDEST PUSH2 0x120 PUSH1 0x4 DUP1 CALLDATASIZE SUB DUP2 ADD SWAP1 PUSH2 0x11B SWAP2 SWAP1 PUSH2 0xD52 JUMP JUMPDEST PUSH2 0x392 JUMP JUMPDEST STOP JUMPDEST PUSH2 0x12A PUSH2 0x715 JUMP JUMPDEST PUSH1 0x40 MLOAD PUSH2 0x137 SWAP2 SWAP1 PUSH2 0xEBC JUMP JUMPDEST PUSH1 0x40 MLOAD DUP1 SWAP2 SUB SWAP1 RETURN JUMPDEST PUSH2 0x15A PUSH1 0x4 DUP1 CALLDATASIZE SUB DUP2 ADD SWAP1 PUSH2 0x155 SWAP2 SWAP1 PUSH2 0xDA5 JUMP JUMPDEST PUSH2 0x728 JUMP JUMPDEST STOP JUMPDEST PUSH2 0x164 PUSH2 0x870 JUMP JUMPDEST PUSH1 0x40 MLOAD PUSH2 0x171 SWAP2 SWAP1 PUSH2 0xE5F JUMP JUMPDEST PUSH1 0x40 MLOAD DUP1 SWAP2 SUB SWAP1 RETURN JUMPDEST PUSH2 0x194 PUSH1 0x4 DUP1 CALLDATASIZE SUB DUP2 ADD SWAP1 PUSH2 0x18F SWAP2 SWAP1 PUSH2 0xCE5 JUMP JUMPDEST PUSH2 0x8FE JUMP JUMPDEST PUSH1 0x40 MLOAD PUSH2 0x1A1 SWAP2 SWAP1 PUSH2 0xEA1 JUMP JUMPDEST PUSH1 0x40 MLOAD DUP1 SWAP2 SUB SWAP1 RETURN JUMPDEST PUSH2 0x1B2 PUSH2 0x947 JUMP JUMPDEST PUSH1 0x40 MLOAD PUSH2 0x1BF SWAP2 SWAP1 PUSH2 0xE5F JUMP JUMPDEST PUSH1 0x40 MLOAD DUP1 SWAP2 SUB SWAP1 RETURN JUMPDEST PUSH2 0x1E2 PUSH1 0x4 DUP1 CALLDATASIZE SUB DUP2 ADD SWAP1 PUSH2 0x1DD SWAP2 SWAP1 PUSH2 0xDA5 JUMP JUMPDEST PUSH2 0x9D5 JUMP JUMPDEST STOP JUMPDEST PUSH2 0x1FE PUSH1 0x4 DUP1 CALLDATASIZE SUB DUP2 ADD SWAP1 PUSH2 0x1F9 SWAP2 SWAP1 PUSH2 0xD12 JUMP JUMPDEST PUSH2 0xBE3 JUMP JUMPDEST PUSH1 0x40 MLOAD PUSH2 0x20B SWAP2 SWAP1 PUSH2 0xEA1 JUMP JUMPDEST PUSH1 0x40 MLOAD DUP1 SWAP2 SUB SWAP1 RETURN JUMPDEST PUSH1 0x1 DUP1 SLOAD PUSH2 0x221 SWAP1 PUSH2 0xFF9 JUMP JUMPDEST DUP1 PUSH1 0x1F ADD PUSH1 0x20 DUP1 SWAP2 DIV MUL PUSH1 0x20 ADD PUSH1 0x40 MLOAD SWAP1 DUP2 ADD PUSH1 0x40 MSTORE DUP1 SWAP3 SWAP2 SWAP1 DUP2 DUP2 MSTORE PUSH1 0x20 ADD DUP3 DUP1 SLOAD PUSH2 0x24D SWAP1 PUSH2 0xFF9 JUMP JUMPDEST DUP1 ISZERO PUSH2 0x29A JUMPI DUP1 PUSH1 0x1F LT PUSH2 0x26F JUMPI PUSH2 0x100 DUP1 DUP4 SLOAD DIV MUL DUP4 MSTORE SWAP2 PUSH1 0x20 ADD SWAP2 PUSH2 0x29A JUMP JUMPDEST DUP3 ADD SWAP2 SWAP1 PUSH1 0x0 MSTORE PUSH1 0x20 PUSH1 0x0 KECCAK256 SWAP1 JUMPDEST DUP2 SLOAD DUP2 MSTORE SWAP1 PUSH1 0x1 ADD SWAP1 PUSH1 0x20 ADD DUP1 DUP4 GT PUSH2 0x27D JUMPI DUP3 SWAP1 SUB PUSH1 0x1F AND DUP3 ADD SWAP2 JUMPDEST POP POP POP POP POP DUP2 JUMP JUMPDEST DUP1 PUSH1 0x6 PUSH1 0x0 CALLER PUSH20 0xFFFFFFFFFFFFFFFFFFFFFFFFFFFFFFFFFFFFFFFF AND PUSH20 0xFFFFFFFFFFFFFFFFFFFFFFFFFFFFFFFFFFFFFFFF AND DUP2 MSTORE PUSH1 0x20 ADD SWAP1 DUP2 MSTORE PUSH1 0x20 ADD PUSH1 0x0 KECCAK256 PUSH1 0x0 DUP5 PUSH20 0xFFFFFFFFFFFFFFFFFFFFFFFFFFFFFFFFFFFFFFFF AND PUSH20 0xFFFFFFFFFFFFFFFFFFFFFFFFFFFFFFFFFFFFFFFF AND DUP2 MSTORE PUSH1 0x20 ADD SWAP1 DUP2 MSTORE PUSH1 0x20 ADD PUSH1 0x0 KECCAK256 DUP2 SWAP1 SSTORE POP DUP2 PUSH20 0xFFFFFFFFFFFFFFFFFFFFFFFFFFFFFFFFFFFFFFFF AND CALLER PUSH20 0xFFFFFFFFFFFFFFFFFFFFFFFFFFFFFFFFFFFFFFFF AND PUSH32 0x8C5BE1E5EBEC7D5BD14F71427D1E84F3DD0314C0F7B2291E5B200AC8C7C3B925 DUP4 PUSH1 0x40 MLOAD PUSH2 0x380 SWAP2 SWAP1 PUSH2 0xEA1 JUMP JUMPDEST PUSH1 0x40 MLOAD DUP1 SWAP2 SUB SWAP1 LOG3 POP POP JUMP JUMPDEST PUSH1 0x0 SLOAD DUP2 JUMP JUMPDEST DUP1 PUSH1 0x5 PUSH1 0x0 DUP6 PUSH20 0xFFFFFFFFFFFFFFFFFFFFFFFFFFFFFFFFFFFFFFFF AND PUSH20 0xFFFFFFFFFFFFFFFFFFFFFFFFFFFFFFFFFFFFFFFF AND DUP2 MSTORE PUSH1 0x20 ADD SWAP1 DUP2 MSTORE PUSH1 0x20 ADD PUSH1 0x0 KECCAK256 SLOAD LT ISZERO DUP1 ISZERO PUSH2 0x45D JUMPI POP DUP1 PUSH1 0x6 PUSH1 0x0 DUP6 PUSH20 0xFFFFFFFFFFFFFFFFFFFFFFFFFFFFFFFFFFFFFFFF AND PUSH20 0xFFFFFFFFFFFFFFFFFFFFFFFFFFFFFFFFFFFFFFFF AND DUP2 MSTORE PUSH1 0x20 ADD SWAP1 DUP2 MSTORE PUSH1 0x20 ADD PUSH1 0x0 KECCAK256 PUSH1 0x0 CALLER PUSH20 0xFFFFFFFFFFFFFFFFFFFFFFFFFFFFFFFFFFFFFFFF AND PUSH20 0xFFFFFFFFFFFFFFFFFFFFFFFFFFFFFFFFFFFFFFFF AND DUP2 MSTORE PUSH1 0x20 ADD SWAP1 DUP2 MSTORE PUSH1 0x20 ADD PUSH1 0x0 KECCAK256 SLOAD LT ISZERO JUMPDEST DUP1 ISZERO PUSH2 0x469 JUMPI POP PUSH1 0x0 DUP2 GT JUMPDEST PUSH2 0x472 JUMPI PUSH1 0x0 DUP1 REVERT JUMPDEST PUSH2 0x4C4 DUP2 PUSH1 0x5 PUSH1 0x0 DUP6 PUSH20 0xFFFFFFFFFFFFFFFFFFFFFFFFFFFFFFFFFFFFFFFF AND PUSH20 0xFFFFFFFFFFFFFFFFFFFFFFFFFFFFFFFFFFFFFFFF AND DUP2 MSTORE PUSH1 0x20 ADD SWAP1 DUP2 MSTORE PUSH1 0x20 ADD PUSH1 0x0 KECCAK256 SLOAD PUSH2 0xC6A SWAP1 SWAP2 SWAP1 PUSH4 0xFFFFFFFF AND JUMP JUMPDEST PUSH1 0x5 PUSH1 0x0 DUP5 PUSH20 0xFFFFFFFFFFFFFFFFFFFFFFFFFFFFFFFFFFFFFFFF AND PUSH20 0xFFFFFFFFFFFFFFFFFFFFFFFFFFFFFFFFFFFFFFFF AND DUP2 MSTORE PUSH1 0x20 ADD SWAP1 DUP2 MSTORE PUSH1 0x20 ADD PUSH1 0x0 KECCAK256 DUP2 SWAP1 SSTORE POP PUSH2 0x559 DUP2 PUSH1 0x5 PUSH1 0x0 DUP7 PUSH20 0xFFFFFFFFFFFFFFFFFFFFFFFFFFFFFFFFFFFFFFFF AND PUSH20 0xFFFFFFFFFFFFFFFFFFFFFFFFFFFFFFFFFFFFFFFF AND DUP2 MSTORE PUSH1 0x20 ADD SWAP1 DUP2 MSTORE PUSH1 0x20 ADD PUSH1 0x0 KECCAK256 SLOAD PUSH2 0xC92 SWAP1 SWAP2 SWAP1 PUSH4 0xFFFFFFFF AND JUMP JUMPDEST PUSH1 0x5 PUSH1 0x0 DUP6 PUSH20 0xFFFFFFFFFFFFFFFFFFFFFFFFFFFFFFFFFFFFFFFF AND PUSH20 0xFFFFFFFFFFFFFFFFFFFFFFFFFFFFFFFFFFFFFFFF AND DUP2 MSTORE PUSH1 0x20 ADD SWAP1 DUP2 MSTORE PUSH1 0x20 ADD PUSH1 0x0 KECCAK256 DUP2 SWAP1 SSTORE POP PUSH2 0x62B DUP2 PUSH1 0x6 PUSH1 0x0 DUP7 PUSH20 0xFFFFFFFFFFFFFFFFFFFFFFFFFFFFFFFFFFFFFFFF AND PUSH20 0xFFFFFFFFFFFFFFFFFFFFFFFFFFFFFFFFFFFFFFFF AND DUP2 MSTORE PUSH1 0x20 ADD SWAP1 DUP2 MSTORE PUSH1 0x20 ADD PUSH1 0x0 KECCAK256 PUSH1 0x0 CALLER PUSH20 0xFFFFFFFFFFFFFFFFFFFFFFFFFFFFFFFFFFFFFFFF AND PUSH20 0xFFFFFFFFFFFFFFFFFFFFFFFFFFFFFFFFFFFFFFFF AND DUP2 MSTORE PUSH1 0x20 ADD SWAP1 DUP2 MSTORE PUSH1 0x20 ADD PUSH1 0x0 KECCAK256 SLOAD PUSH2 0xC92 SWAP1 SWAP2 SWAP1 PUSH4 0xFFFFFFFF AND JUMP JUMPDEST PUSH1 0x6 PUSH1 0x0 DUP6 PUSH20 0xFFFFFFFFFFFFFFFFFFFFFFFFFFFFFFFFFFFFFFFF AND PUSH20 0xFFFFFFFFFFFFFFFFFFFFFFFFFFFFFFFFFFFFFFFF AND DUP2 MSTORE PUSH1 0x20 ADD SWAP1 DUP2 MSTORE PUSH1 0x20 ADD PUSH1 0x0 KECCAK256 PUSH1 0x0 CALLER PUSH20 0xFFFFFFFFFFFFFFFFFFFFFFFFFFFFFFFFFFFFFFFF AND PUSH20 0xFFFFFFFFFFFFFFFFFFFFFFFFFFFFFFFFFFFFFFFF AND DUP2 MSTORE PUSH1 0x20 ADD SWAP1 DUP2 MSTORE PUSH1 0x20 ADD PUSH1 0x0 KECCAK256 DUP2 SWAP1 SSTORE POP DUP2 PUSH20 0xFFFFFFFFFFFFFFFFFFFFFFFFFFFFFFFFFFFFFFFF AND DUP4 PUSH20 0xFFFFFFFFFFFFFFFFFFFFFFFFFFFFFFFFFFFFFFFF AND PUSH32 0xDDF252AD1BE2C89B69C2B068FC378DAA952BA7F163C4A11628F55A4DF523B3EF DUP4 PUSH1 0x40 MLOAD PUSH2 0x708 SWAP2 SWAP1 PUSH2 0xEA1 JUMP JUMPDEST PUSH1 0x40 MLOAD DUP1 SWAP2 SUB SWAP1 LOG3 POP POP POP JUMP JUMPDEST PUSH1 0x2 PUSH1 0x0 SWAP1 SLOAD SWAP1 PUSH2 0x100 EXP SWAP1 DIV PUSH1 0xFF AND DUP2 JUMP JUMPDEST PUSH1 0x0 PUSH20 0xFFFFFFFFFFFFFFFFFFFFFFFFFFFFFFFFFFFFFFFF AND DUP3 PUSH20 0xFFFFFFFFFFFFFFFFFFFFFFFFFFFFFFFFFFFFFFFF AND EQ ISZERO PUSH2 0x798 JUMPI PUSH1 0x40 MLOAD PUSH32 0x8C379A000000000000000000000000000000000000000000000000000000000 DUP2 MSTORE PUSH1 0x4 ADD PUSH2 0x78F SWAP1 PUSH2 0xE81 JUMP JUMPDEST PUSH1 0x40 MLOAD DUP1 SWAP2 SUB SWAP1 REVERT JUMPDEST DUP1 PUSH1 0x0 DUP1 DUP3 DUP3 SLOAD PUSH2 0x7A9 SWAP2 SWAP1 PUSH2 0xEF3 JUMP JUMPDEST SWAP3 POP POP DUP2 SWAP1 SSTORE POP DUP1 PUSH1 0x5 PUSH1 0x0 DUP5 PUSH20 0xFFFFFFFFFFFFFFFFFFFFFFFFFFFFFFFFFFFFFFFF AND PUSH20 0xFFFFFFFFFFFFFFFFFFFFFFFFFFFFFFFFFFFFFFFF AND DUP2 MSTORE PUSH1 0x20 ADD SWAP1 DUP2 MSTORE PUSH1 0x20 ADD PUSH1 0x0 KECCAK256 PUSH1 0x0 DUP3 DUP3 SLOAD PUSH2 0x7FF SWAP2 SWAP1 PUSH2 0xEF3 JUMP JUMPDEST SWAP3 POP POP DUP2 SWAP1 SSTORE POP DUP2 PUSH20 0xFFFFFFFFFFFFFFFFFFFFFFFFFFFFFFFFFFFFFFFF AND PUSH1 0x0 PUSH20 0xFFFFFFFFFFFFFFFFFFFFFFFFFFFFFFFFFFFFFFFF AND PUSH32 0xDDF252AD1BE2C89B69C2B068FC378DAA952BA7F163C4A11628F55A4DF523B3EF DUP4 PUSH1 0x40 MLOAD PUSH2 0x864 SWAP2 SWAP1 PUSH2 0xEA1 JUMP JUMPDEST PUSH1 0x40 MLOAD DUP1 SWAP2 SUB SWAP1 LOG3 POP POP JUMP JUMPDEST PUSH1 0x4 DUP1 SLOAD PUSH2 0x87D SWAP1 PUSH2 0xFF9 JUMP JUMPDEST DUP1 PUSH1 0x1F ADD PUSH1 0x20 DUP1 SWAP2 DIV MUL PUSH1 0x20 ADD PUSH1 0x40 MLOAD SWAP1 DUP2 ADD PUSH1 0x40 MSTORE DUP1 SWAP3 SWAP2 SWAP1 DUP2 DUP2 MSTORE PUSH1 0x20 ADD DUP3 DUP1 SLOAD PUSH2 0x8A9 SWAP1 PUSH2 0xFF9 JUMP JUMPDEST DUP1 ISZERO PUSH2 0x8F6 JUMPI DUP1 PUSH1 0x1F LT PUSH2 0x8CB JUMPI PUSH2 0x100 DUP1 DUP4 SLOAD DIV MUL DUP4 MSTORE SWAP2 PUSH1 0x20 ADD SWAP2 PUSH2 0x8F6 JUMP JUMPDEST DUP3 ADD SWAP2 SWAP1 PUSH1 0x0 MSTORE PUSH1 0x20 PUSH1 0x0 KECCAK256 SWAP1 JUMPDEST DUP2 SLOAD DUP2 MSTORE SWAP1 PUSH1 0x1 ADD SWAP1 PUSH1 0x20 ADD DUP1 DUP4 GT PUSH2 0x8D9 JUMPI DUP3 SWAP1 SUB PUSH1 0x1F AND DUP3 ADD SWAP2 JUMPDEST POP POP POP POP POP DUP2 JUMP JUMPDEST PUSH1 0x0 PUSH1 0x5 PUSH1 0x0 DUP4 PUSH20 0xFFFFFFFFFFFFFFFFFFFFFFFFFFFFFFFFFFFFFFFF AND PUSH20 0xFFFFFFFFFFFFFFFFFFFFFFFFFFFFFFFFFFFFFFFF AND DUP2 MSTORE PUSH1 0x20 ADD SWAP1 DUP2 MSTORE PUSH1 0x20 ADD PUSH1 0x0 KECCAK256 SLOAD SWAP1 POP SWAP2 SWAP1 POP JUMP JUMPDEST PUSH1 0x3 DUP1 SLOAD PUSH2 0x954 SWAP1 PUSH2 0xFF9 JUMP JUMPDEST DUP1 PUSH1 0x1F ADD PUSH1 0x20 DUP1 SWAP2 DIV MUL PUSH1 0x20 ADD PUSH1 0x40 MLOAD SWAP1 DUP2 ADD PUSH1 0x40 MSTORE DUP1 SWAP3 SWAP2 SWAP1 DUP2 DUP2 MSTORE PUSH1 0x20 ADD DUP3 DUP1 SLOAD PUSH2 0x980 SWAP1 PUSH2 0xFF9 JUMP JUMPDEST DUP1 ISZERO PUSH2 0x9CD JUMPI DUP1 PUSH1 0x1F LT PUSH2 0x9A2 JUMPI PUSH2 0x100 DUP1 DUP4 SLOAD DIV MUL DUP4 MSTORE SWAP2 PUSH1 0x20 ADD SWAP2 PUSH2 0x9CD JUMP JUMPDEST DUP3 ADD SWAP2 SWAP1 PUSH1 0x0 MSTORE PUSH1 0x20 PUSH1 0x0 KECCAK256 SWAP1 JUMPDEST DUP2 SLOAD DUP2 MSTORE SWAP1 PUSH1 0x1 ADD SWAP1 PUSH1 0x20 ADD DUP1 DUP4 GT PUSH2 0x9B0 JUMPI DUP3 SWAP1 SUB PUSH1 0x1F AND DUP3 ADD SWAP2 JUMPDEST POP POP POP POP POP DUP2 JUMP JUMPDEST PUSH1 0x40 PUSH1 0x4 DUP2 PUSH2 0x9E4 SWAP2 SWAP1 PUSH2 0xEF3 JUMP JUMPDEST PUSH1 0x0 CALLDATASIZE SWAP1 POP EQ PUSH2 0x9F7 JUMPI PUSH2 0x9F6 PUSH2 0x102B JUMP JUMPDEST JUMPDEST DUP2 PUSH1 0x5 PUSH1 0x0 CALLER PUSH20 0xFFFFFFFFFFFFFFFFFFFFFFFFFFFFFFFFFFFFFFFF AND PUSH20 0xFFFFFFFFFFFFFFFFFFFFFFFFFFFFFFFFFFFFFFFF AND DUP2 MSTORE PUSH1 0x20 ADD SWAP1 DUP2 MSTORE PUSH1 0x20 ADD PUSH1 0x0 KECCAK256 SLOAD LT ISZERO DUP1 ISZERO PUSH2 0xA46 JUMPI POP PUSH1 0x0 DUP3 GT JUMPDEST PUSH2 0xA4F JUMPI PUSH1 0x0 DUP1 REVERT JUMPDEST PUSH2 0xAA1 DUP3 PUSH1 0x5 PUSH1 0x0 CALLER PUSH20 0xFFFFFFFFFFFFFFFFFFFFFFFFFFFFFFFFFFFFFFFF AND PUSH20 0xFFFFFFFFFFFFFFFFFFFFFFFFFFFFFFFFFFFFFFFF AND DUP2 MSTORE PUSH1 0x20 ADD SWAP1 DUP2 MSTORE PUSH1 0x20 ADD PUSH1 0x0 KECCAK256 SLOAD PUSH2 0xC92 SWAP1 SWAP2 SWAP1 PUSH4 0xFFFFFFFF AND JUMP JUMPDEST PUSH1 0x5 PUSH1 0x0 CALLER PUSH20 0xFFFFFFFFFFFFFFFFFFFFFFFFFFFFFFFFFFFFFFFF AND PUSH20 0xFFFFFFFFFFFFFFFFFFFFFFFFFFFFFFFFFFFFFFFF AND DUP2 MSTORE PUSH1 0x20 ADD SWAP1 DUP2 MSTORE PUSH1 0x20 ADD PUSH1 0x0 KECCAK256 DUP2 SWAP1 SSTORE POP PUSH2 0xB36 DUP3 PUSH1 0x5 PUSH1 0x0 DUP7 PUSH20 0xFFFFFFFFFFFFFFFFFFFFFFFFFFFFFFFFFFFFFFFF AND PUSH20 0xFFFFFFFFFFFFFFFFFFFFFFFFFFFFFFFFFFFFFFFF AND DUP2 MSTORE PUSH1 0x20 ADD SWAP1 DUP2 MSTORE PUSH1 0x20 ADD PUSH1 0x0 KECCAK256 SLOAD PUSH2 0xC6A SWAP1 SWAP2 SWAP1 PUSH4 0xFFFFFFFF AND JUMP JUMPDEST PUSH1 0x5 PUSH1 0x0 DUP6 PUSH20 0xFFFFFFFFFFFFFFFFFFFFFFFFFFFFFFFFFFFFFFFF AND PUSH20 0xFFFFFFFFFFFFFFFFFFFFFFFFFFFFFFFFFFFFFFFF AND DUP2 MSTORE PUSH1 0x20 ADD SWAP1 DUP2 MSTORE PUSH1 0x20 ADD PUSH1 0x0 KECCAK256 DUP2 SWAP1 SSTORE POP DUP3 PUSH20 0xFFFFFFFFFFFFFFFFFFFFFFFFFFFFFFFFFFFFFFFF AND CALLER PUSH20 0xFFFFFFFFFFFFFFFFFFFFFFFFFFFFFFFFFFFFFFFF AND PUSH32 0xDDF252AD1BE2C89B69C2B068FC378DAA952BA7F163C4A11628F55A4DF523B3EF DUP5 PUSH1 0x40 MLOAD PUSH2 0xBD6 SWAP2 SWAP1 PUSH2 0xEA1 JUMP JUMPDEST PUSH1 0x40 MLOAD DUP1 SWAP2 SUB SWAP1 LOG3 POP POP POP JUMP JUMPDEST PUSH1 0x0 PUSH1 0x6 PUSH1 0x0 DUP4 PUSH20 0xFFFFFFFFFFFFFFFFFFFFFFFFFFFFFFFFFFFFFFFF AND PUSH20 0xFFFFFFFFFFFFFFFFFFFFFFFFFFFFFFFFFFFFFFFF AND DUP2 MSTORE PUSH1 0x20 ADD SWAP1 DUP2 MSTORE PUSH1 0x20 ADD PUSH1 0x0 KECCAK256 PUSH1 0x0 DUP5 PUSH20 0xFFFFFFFFFFFFFFFFFFFFFFFFFFFFFFFFFFFFFFFF AND PUSH20 0xFFFFFFFFFFFFFFFFFFFFFFFFFFFFFFFFFFFFFFFF AND DUP2 MSTORE PUSH1 0x20 ADD SWAP1 DUP2 MSTORE PUSH1 0x20 ADD PUSH1 0x0 KECCAK256 SLOAD SWAP1 POP SWAP3 SWAP2 POP POP JUMP JUMPDEST PUSH1 0x0 DUP1 DUP3 DUP5 PUSH2 0xC79 SWAP2 SWAP1 PUSH2 0xEF3 JUMP JUMPDEST SWAP1 POP DUP4 DUP2 LT ISZERO PUSH2 0xC88 JUMPI PUSH1 0x0 DUP1 REVERT JUMPDEST DUP1 SWAP2 POP POP SWAP3 SWAP2 POP POP JUMP JUMPDEST PUSH1 0x0 DUP3 DUP3 GT ISZERO PUSH2 0xCA1 JUMPI PUSH1 0x0 DUP1 REVERT JUMPDEST PUSH1 0x0 DUP3 DUP5 PUSH2 0xCAF SWAP2 SWAP1 PUSH2 0xF49 JUMP JUMPDEST SWAP1 POP DUP1 SWAP2 POP POP SWAP3 SWAP2 POP POP JUMP JUMPDEST PUSH1 0x0 DUP2 CALLDATALOAD SWAP1 POP PUSH2 0xCCA DUP2 PUSH2 0x10F7 JUMP JUMPDEST SWAP3 SWAP2 POP POP JUMP JUMPDEST PUSH1 0x0 DUP2 CALLDATALOAD SWAP1 POP PUSH2 0xCDF DUP2 PUSH2 0x110E JUMP JUMPDEST SWAP3 SWAP2 POP POP JUMP JUMPDEST PUSH1 0x0 PUSH1 0x20 DUP3 DUP5 SUB SLT ISZERO PUSH2 0xCFB JUMPI PUSH2 0xCFA PUSH2 0x10B8 JUMP JUMPDEST JUMPDEST PUSH1 0x0 PUSH2 0xD09 DUP5 DUP3 DUP6 ADD PUSH2 0xCBB JUMP JUMPDEST SWAP2 POP POP SWAP3 SWAP2 POP POP JUMP JUMPDEST PUSH1 0x0 DUP1 PUSH1 0x40 DUP4 DUP6 SUB SLT ISZERO PUSH2 0xD29 JUMPI PUSH2 0xD28 PUSH2 0x10B8 JUMP JUMPDEST JUMPDEST PUSH1 0x0 PUSH2 0xD37 DUP6 DUP3 DUP7 ADD PUSH2 0xCBB JUMP JUMPDEST SWAP3 POP POP PUSH1 0x20 PUSH2 0xD48 DUP6 DUP3 DUP7 ADD PUSH2 0xCBB JUMP JUMPDEST SWAP2 POP POP SWAP3 POP SWAP3 SWAP1 POP JUMP JUMPDEST PUSH1 0x0 DUP1 PUSH1 0x0 PUSH1 0x60 DUP5 DUP7 SUB SLT ISZERO PUSH2 0xD6B JUMPI PUSH2 0xD6A PUSH2 0x10B8 JUMP JUMPDEST JUMPDEST PUSH1 0x0 PUSH2 0xD79 DUP7 DUP3 DUP8 ADD PUSH2 0xCBB JUMP JUMPDEST SWAP4 POP POP PUSH1 0x20 PUSH2 0xD8A DUP7 DUP3 DUP8 ADD PUSH2 0xCBB JUMP JUMPDEST SWAP3 POP POP PUSH1 0x40 PUSH2 0xD9B DUP7 DUP3 DUP8 ADD PUSH2 0xCD0 JUMP JUMPDEST SWAP2 POP POP SWAP3 POP SWAP3 POP SWAP3 JUMP JUMPDEST PUSH1 0x0 DUP1 PUSH1 0x40 DUP4 DUP6 SUB SLT ISZERO PUSH2 0xDBC JUMPI PUSH2 0xDBB PUSH2 0x10B8 JUMP JUMPDEST JUMPDEST PUSH1 0x0 PUSH2 0xDCA DUP6 DUP3 DUP7 ADD PUSH2 0xCBB JUMP JUMPDEST SWAP3 POP POP PUSH1 0x20 PUSH2 0xDDB DUP6 DUP3 DUP7 ADD PUSH2 0xCD0 JUMP JUMPDEST SWAP2 POP POP SWAP3 POP SWAP3 SWAP1 POP JUMP JUMPDEST PUSH1 0x0 PUSH2 0xDF0 DUP3 PUSH2 0xED7 JUMP JUMPDEST PUSH2 0xDFA DUP2 DUP6 PUSH2 0xEE2 JUMP JUMPDEST SWAP4 POP PUSH2 0xE0A DUP2 DUP6 PUSH1 0x20 DUP7 ADD PUSH2 0xFC6 JUMP JUMPDEST PUSH2 0xE13 DUP2 PUSH2 0x10BD JUMP JUMPDEST DUP5 ADD SWAP2 POP POP SWAP3 SWAP2 POP POP JUMP JUMPDEST PUSH1 0x0 PUSH2 0xE2B PUSH1 0x1F DUP4 PUSH2 0xEE2 JUMP JUMPDEST SWAP2 POP PUSH2 0xE36 DUP3 PUSH2 0x10CE JUMP JUMPDEST PUSH1 0x20 DUP3 ADD SWAP1 POP SWAP2 SWAP1 POP JUMP JUMPDEST PUSH2 0xE4A DUP2 PUSH2 0xFAF JUMP JUMPDEST DUP3 MSTORE POP POP JUMP JUMPDEST PUSH2 0xE59 DUP2 PUSH2 0xFB9 JUMP JUMPDEST DUP3 MSTORE POP POP JUMP JUMPDEST PUSH1 0x0 PUSH1 0x20 DUP3 ADD SWAP1 POP DUP2 DUP2 SUB PUSH1 0x0 DUP4 ADD MSTORE PUSH2 0xE79 DUP2 DUP5 PUSH2 0xDE5 JUMP JUMPDEST SWAP1 POP SWAP3 SWAP2 POP POP JUMP JUMPDEST PUSH1 0x0 PUSH1 0x20 DUP3 ADD SWAP1 POP DUP2 DUP2 SUB PUSH1 0x0 DUP4 ADD MSTORE PUSH2 0xE9A DUP2 PUSH2 0xE1E JUMP JUMPDEST SWAP1 POP SWAP2 SWAP1 POP JUMP JUMPDEST PUSH1 0x0 PUSH1 0x20 DUP3 ADD SWAP1 POP PUSH2 0xEB6 PUSH1 0x0 DUP4 ADD DUP5 PUSH2 0xE41 JUMP JUMPDEST SWAP3 SWAP2 POP POP JUMP JUMPDEST PUSH1 0x0 PUSH1 0x20 DUP3 ADD SWAP1 POP PUSH2 0xED1 PUSH1 0x0 DUP4 ADD DUP5 PUSH2 0xE50 JUMP JUMPDEST SWAP3 SWAP2 POP POP JUMP JUMPDEST PUSH1 0x0 DUP2 MLOAD SWAP1 POP SWAP2 SWAP1 POP JUMP JUMPDEST PUSH1 0x0 DUP3 DUP3 MSTORE PUSH1 0x20 DUP3 ADD SWAP1 POP SWAP3 SWAP2 POP POP JUMP JUMPDEST PUSH1 0x0 PUSH2 0xEFE DUP3 PUSH2 0xFAF JUMP JUMPDEST SWAP2 POP PUSH2 0xF09 DUP4 PUSH2 0xFAF JUMP JUMPDEST SWAP3 POP DUP3 PUSH32 0xFFFFFFFFFFFFFFFFFFFFFFFFFFFFFFFFFFFFFFFFFFFFFFFFFFFFFFFFFFFFFFFF SUB DUP3 GT ISZERO PUSH2 0xF3E JUMPI PUSH2 0xF3D PUSH2 0x105A JUMP JUMPDEST JUMPDEST DUP3 DUP3 ADD SWAP1 POP SWAP3 SWAP2 POP POP JUMP JUMPDEST PUSH1 0x0 PUSH2 0xF54 DUP3 PUSH2 0xFAF JUMP JUMPDEST SWAP2 POP PUSH2 0xF5F DUP4 PUSH2 0xFAF JUMP JUMPDEST SWAP3 POP DUP3 DUP3 LT ISZERO PUSH2 0xF72 JUMPI PUSH2 0xF71 PUSH2 0x105A JUMP JUMPDEST JUMPDEST DUP3 DUP3 SUB SWAP1 POP SWAP3 SWAP2 POP POP JUMP JUMPDEST PUSH1 0x0 PUSH2 0xF88 DUP3 PUSH2 0xF8F JUMP JUMPDEST SWAP1 POP SWAP2 SWAP1 POP JUMP JUMPDEST PUSH1 0x0 PUSH20 0xFFFFFFFFFFFFFFFFFFFFFFFFFFFFFFFFFFFFFFFF DUP3 AND SWAP1 POP SWAP2 SWAP1 POP JUMP JUMPDEST PUSH1 0x0 DUP2 SWAP1 POP SWAP2 SWAP1 POP JUMP JUMPDEST PUSH1 0x0 PUSH1 0xFF DUP3 AND SWAP1 POP SWAP2 SWAP1 POP JUMP JUMPDEST PUSH1 0x0 JUMPDEST DUP4 DUP2 LT ISZERO PUSH2 0xFE4 JUMPI DUP1 DUP3 ADD MLOAD DUP2 DUP5 ADD MSTORE PUSH1 0x20 DUP2 ADD SWAP1 POP PUSH2 0xFC9 JUMP JUMPDEST DUP4 DUP2 GT ISZERO PUSH2 0xFF3 JUMPI PUSH1 0x0 DUP5 DUP5 ADD MSTORE JUMPDEST POP POP POP POP JUMP JUMPDEST PUSH1 0x0 PUSH1 0x2 DUP3 DIV SWAP1 POP PUSH1 0x1 DUP3 AND DUP1 PUSH2 0x1011 JUMPI PUSH1 0x7F DUP3 AND SWAP2 POP JUMPDEST PUSH1 0x20 DUP3 LT DUP2 EQ ISZERO PUSH2 0x1025 JUMPI PUSH2 0x1024 PUSH2 0x1089 JUMP JUMPDEST JUMPDEST POP SWAP2 SWAP1 POP JUMP JUMPDEST PUSH32 0x4E487B7100000000000000000000000000000000000000000000000000000000 PUSH1 0x0 MSTORE PUSH1 0x1 PUSH1 0x4 MSTORE PUSH1 0x24 PUSH1 0x0 REVERT JUMPDEST PUSH32 0x4E487B7100000000000000000000000000000000000000000000000000000000 PUSH1 0x0 MSTORE PUSH1 0x11 PUSH1 0x4 MSTORE PUSH1 0x24 PUSH1 0x0 REVERT JUMPDEST PUSH32 0x4E487B7100000000000000000000000000000000000000000000000000000000 PUSH1 0x0 MSTORE PUSH1 0x22 PUSH1 0x4 MSTORE PUSH1 0x24 PUSH1 0x0 REVERT JUMPDEST PUSH1 0x0 DUP1 REVERT JUMPDEST PUSH1 0x0 PUSH1 0x1F NOT PUSH1 0x1F DUP4 ADD AND SWAP1 POP SWAP2 SWAP1 POP JUMP JUMPDEST PUSH32 0x45524332303A206D696E7420746F20746865207A65726F206164647265737300 PUSH1 0x0 DUP3 ADD MSTORE POP JUMP JUMPDEST PUSH2 0x1100 DUP2 PUSH2 0xF7D JUMP JUMPDEST DUP2 EQ PUSH2 0x110B JUMPI PUSH1 0x0 DUP1 REVERT JUMPDEST POP JUMP JUMPDEST PUSH2 0x1117 DUP2 PUSH2 0xFAF JUMP JUMPDEST DUP2 EQ PUSH2 0x1122 JUMPI PUSH1 0x0 DUP1 REVERT JUMPDEST POP JUMP INVALID LOG2 PUSH5 0x6970667358 0x22 SLT KECCAK256 PUSH29 0xCD6F036695097B00EB606DAC0FDD73C6FBB27A7FE22B80FC51C5838DDD JUMPI PUSH24 0x64736F6C6343000807003300000000000000000000000000 "
				},
				"gasEstimates": {
					"creation": {
						"codeDepositCost": "888600",
						"executionCost": "infinite",
						"totalCost": "infinite"
					},
					"external": {
						"allowance(address,address)": "infinite",
						"approve(address,uint256)": "infinite",
						"balanceOf(address)": "2885",
						"decimals()": "2560",
						"mint(address,uint256)": "infinite",
						"name()": "infinite",
						"symbol()": "infinite",
						"totalSupply()": "2474",
						"transfer(address,uint256)": "infinite",
						"transferFrom(address,address,uint256)": "infinite",
						"version()": "infinite"
					}
				},
				"methodIdentifiers": {
					"allowance(address,address)": "dd62ed3e",
					"approve(address,uint256)": "095ea7b3",
					"balanceOf(address)": "70a08231",
					"decimals()": "313ce567",
					"mint(address,uint256)": "40c10f19",
					"name()": "06fdde03",
					"symbol()": "95d89b41",
					"totalSupply()": "18160ddd",
					"transfer(address,uint256)": "a9059cbb",
					"transferFrom(address,address,uint256)": "23b872dd",
					"version()": "54fd4d50"
				}
			},
			"storageLayout": {
				"storage": [
					{
						"astId": 132,
						"contract": "contracts/Token.sol:Token",
						"label": "totalSupply",
						"offset": 0,
						"slot": "0",
						"type": "t_uint256"
					},
					{
						"astId": 134,
						"contract": "contracts/Token.sol:Token",
						"label": "name",
						"offset": 0,
						"slot": "1",
						"type": "t_string_storage"
					},
					{
						"astId": 136,
						"contract": "contracts/Token.sol:Token",
						"label": "decimals",
						"offset": 0,
						"slot": "2",
						"type": "t_uint8"
					},
					{
						"astId": 138,
						"contract": "contracts/Token.sol:Token",
						"label": "symbol",
						"offset": 0,
						"slot": "3",
						"type": "t_string_storage"
					},
					{
						"astId": 140,
						"contract": "contracts/Token.sol:Token",
						"label": "version",
						"offset": 0,
						"slot": "4",
						"type": "t_string_storage"
					},
					{
						"astId": 144,
						"contract": "contracts/Token.sol:Token",
						"label": "balances",
						"offset": 0,
						"slot": "5",
						"type": "t_mapping(t_address,t_uint256)"
					},
					{
						"astId": 150,
						"contract": "contracts/Token.sol:Token",
						"label": "allowed",
						"offset": 0,
						"slot": "6",
						"type": "t_mapping(t_address,t_mapping(t_address,t_uint256))"
					}
				],
				"types": {
					"t_address": {
						"encoding": "inplace",
						"label": "address",
						"numberOfBytes": "20"
					},
					"t_mapping(t_address,t_mapping(t_address,t_uint256))": {
						"encoding": "mapping",
						"key": "t_address",
						"label": "mapping(address => mapping(address => uint256))",
						"numberOfBytes": "32",
						"value": "t_mapping(t_address,t_uint256)"
					},
					"t_mapping(t_address,t_uint256)": {
						"encoding": "mapping",
						"key": "t_address",
						"label": "mapping(address => uint256)",
						"numberOfBytes": "32",
						"value": "t_uint256"
					},
					"t_string_storage": {
						"encoding": "bytes",
						"label": "string",
						"numberOfBytes": "32"
					},
					"t_uint256": {
						"encoding": "inplace",
						"label": "uint256",
						"numberOfBytes": "32"
					},
					"t_uint8": {
						"encoding": "inplace",
						"label": "uint8",
						"numberOfBytes": "1"
					}
				}
			},
			"userdoc": {
				"kind": "user",
				"methods": {},
				"version": 1
			}
		}
	}
}