{
	"contracts/Voting.sol": {
		"Voting": {
			"abi": [
				{
					"inputs": [],
					"stateMutability": "nonpayable",
					"type": "constructor"
				},
				{
					"inputs": [
						{
							"internalType": "address[]",
							"name": "_proposalsAddr",
							"type": "address[]"
						},
						{
							"internalType": "string[]",
							"name": "_proposalsNames",
							"type": "string[]"
						}
					],
					"name": "addProposals",
					"outputs": [],
					"stateMutability": "nonpayable",
					"type": "function"
				},
				{
					"inputs": [
						{
							"internalType": "address[]",
							"name": "_voters",
							"type": "address[]"
						}
					],
					"name": "addVoters",
					"outputs": [],
					"stateMutability": "nonpayable",
					"type": "function"
				},
				{
					"inputs": [],
					"name": "token",
					"outputs": [
						{
							"internalType": "contract Token",
							"name": "",
							"type": "address"
						}
					],
					"stateMutability": "view",
					"type": "function"
				},
				{
					"inputs": [
						{
							"internalType": "address",
							"name": "proposal",
							"type": "address"
						}
					],
					"name": "totalVotesFor",
					"outputs": [
						{
							"internalType": "uint256",
							"name": "",
							"type": "uint256"
						}
					],
					"stateMutability": "view",
					"type": "function"
				},
				{
					"inputs": [
						{
							"internalType": "address",
							"name": "proposal",
							"type": "address"
						}
					],
					"name": "vote",
					"outputs": [],
					"stateMutability": "nonpayable",
					"type": "function"
				}
			],
			"devdoc": {
				"kind": "dev",
				"methods": {},
				"version": 1
			},
			"evm": {
				"assembly": "    /* \"contracts/Voting.sol\":91:1761  contract Voting {\r... */\n  mstore(0x40, 0x80)\n    /* \"contracts/Voting.sol\":296:307  new Token() */\n  mload(0x40)\n  tag_1\n  swap1\n  tag_2\n  jump\t// in\ntag_1:\n  mload(0x40)\n  dup1\n  swap2\n  sub\n  swap1\n  0x00\n  create\n  dup1\n  iszero\n  dup1\n  iszero\n  tag_3\n  jumpi\n  returndatasize\n  0x00\n  dup1\n  returndatacopy\n  revert(0x00, returndatasize)\ntag_3:\n  pop\n    /* \"contracts/Voting.sol\":275:307  Token public token = new Token() */\n  0x05\n  exp(0x0100, 0x00)\n  dup2\n  sload\n  dup2\n  0xffffffffffffffffffffffffffffffffffffffff\n  mul\n  not\n  and\n  swap1\n  dup4\n  0xffffffffffffffffffffffffffffffffffffffff\n  and\n  mul\n  or\n  swap1\n  sstore\n  pop\n    /* \"contracts/Voting.sol\":316:485  constructor () {\r... */\n  callvalue\n  dup1\n  iszero\n  tag_4\n  jumpi\n  0x00\n  dup1\n  revert\ntag_4:\n  pop\n    /* \"contracts/Voting.sol\":358:368  msg.sender */\n  caller\n    /* \"contracts/Voting.sol\":344:355  chairperson */\n  0x04\n  0x00\n    /* \"contracts/Voting.sol\":344:368  chairperson = msg.sender */\n  0x0100\n  exp\n  dup2\n  sload\n  dup2\n  0xffffffffffffffffffffffffffffffffffffffff\n  mul\n  not\n  and\n  swap1\n  dup4\n  0xffffffffffffffffffffffffffffffffffffffff\n  and\n  mul\n  or\n  swap1\n  sstore\n  pop\n    /* \"contracts/Voting.sol\":379:384  token */\n  0x05\n  0x00\n  swap1\n  sload\n  swap1\n  0x0100\n  exp\n  swap1\n  div\n  0xffffffffffffffffffffffffffffffffffffffff\n  and\n    /* \"contracts/Voting.sol\":379:389  token.mint */\n  0xffffffffffffffffffffffffffffffffffffffff\n  and\n  0x40c10f19\n    /* \"contracts/Voting.sol\":390:401  chairperson */\n  0x04\n  0x00\n  swap1\n  sload\n  swap1\n  0x0100\n  exp\n  swap1\n  div\n  0xffffffffffffffffffffffffffffffffffffffff\n  and\n    /* \"contracts/Voting.sol\":403:404  5 */\n  0x05\n    /* \"contracts/Voting.sol\":379:405  token.mint(chairperson, 5) */\n  mload(0x40)\n  dup4\n  0xffffffff\n  and\n  0xe0\n  shl\n  dup2\n  mstore\n  0x04\n  add\n  tag_7\n  swap3\n  swap2\n  swap1\n  tag_8\n  jump\t// in\ntag_7:\n  0x00\n  mload(0x40)\n  dup1\n  dup4\n  sub\n  dup2\n  0x00\n  dup8\n  dup1\n  extcodesize\n  iszero\n  dup1\n  iszero\n  tag_9\n  jumpi\n  0x00\n  dup1\n  revert\ntag_9:\n  pop\n  gas\n  call\n  iszero\n  dup1\n  iszero\n  tag_11\n  jumpi\n  returndatasize\n  0x00\n  dup1\n  returndatacopy\n  revert(0x00, returndatasize)\ntag_11:\n  pop\n  pop\n  pop\n  pop\n    /* \"contracts/Voting.sol\":428:438  1650398218 */\n  0x625f140a\n    /* \"contracts/Voting.sol\":416:425  startTime */\n  0x00\n    /* \"contracts/Voting.sol\":416:438  startTime = 1650398218 */\n  dup2\n  swap1\n  sstore\n  pop\n    /* \"contracts/Voting.sol\":471:477  5 days */\n  0x069780\n    /* \"contracts/Voting.sol\":459:468  startTime */\n  sload(0x00)\n    /* \"contracts/Voting.sol\":459:477  startTime + 5 days */\n  tag_12\n  swap2\n  swap1\n  tag_13\n  jump\t// in\ntag_12:\n    /* \"contracts/Voting.sol\":449:456  endTime */\n  0x01\n    /* \"contracts/Voting.sol\":449:477  endTime = startTime + 5 days */\n  dup2\n  swap1\n  sstore\n  pop\n    /* \"contracts/Voting.sol\":91:1761  contract Voting {\r... */\n  jump(tag_14)\ntag_2:\n  dataSize(sub_1)\n  dup1\n  dataOffset(sub_1)\n  dup4\n  codecopy\n  add\n  swap1\n  jump\t// out\n    /* \"#utility.yul\":7:125   */\ntag_16:\n    /* \"#utility.yul\":94:118   */\n  tag_18\n    /* \"#utility.yul\":112:117   */\n  dup2\n    /* \"#utility.yul\":94:118   */\n  tag_19\n  jump\t// in\ntag_18:\n    /* \"#utility.yul\":89:92   */\n  dup3\n    /* \"#utility.yul\":82:119   */\n  mstore\n    /* \"#utility.yul\":7:125   */\n  pop\n  pop\n  jump\t// out\n    /* \"#utility.yul\":131:278   */\ntag_20:\n    /* \"#utility.yul\":226:271   */\n  tag_22\n    /* \"#utility.yul\":265:270   */\n  dup2\n    /* \"#utility.yul\":226:271   */\n  tag_23\n  jump\t// in\ntag_22:\n    /* \"#utility.yul\":221:224   */\n  dup3\n    /* \"#utility.yul\":214:272   */\n  mstore\n    /* \"#utility.yul\":131:278   */\n  pop\n  pop\n  jump\t// out\n    /* \"#utility.yul\":284:632   */\ntag_8:\n    /* \"#utility.yul\":413:417   */\n  0x00\n    /* \"#utility.yul\":451:453   */\n  0x40\n    /* \"#utility.yul\":440:449   */\n  dup3\n    /* \"#utility.yul\":436:454   */\n  add\n    /* \"#utility.yul\":428:454   */\n  swap1\n  pop\n    /* \"#utility.yul\":464:535   */\n  tag_25\n    /* \"#utility.yul\":532:533   */\n  0x00\n    /* \"#utility.yul\":521:530   */\n  dup4\n    /* \"#utility.yul\":517:534   */\n  add\n    /* \"#utility.yul\":508:514   */\n  dup6\n    /* \"#utility.yul\":464:535   */\n  tag_16\n  jump\t// in\ntag_25:\n    /* \"#utility.yul\":545:625   */\n  tag_26\n    /* \"#utility.yul\":621:623   */\n  0x20\n    /* \"#utility.yul\":610:619   */\n  dup4\n    /* \"#utility.yul\":606:624   */\n  add\n    /* \"#utility.yul\":597:603   */\n  dup5\n    /* \"#utility.yul\":545:625   */\n  tag_20\n  jump\t// in\ntag_26:\n    /* \"#utility.yul\":284:632   */\n  swap4\n  swap3\n  pop\n  pop\n  pop\n  jump\t// out\n    /* \"#utility.yul\":638:943   */\ntag_13:\n    /* \"#utility.yul\":678:681   */\n  0x00\n    /* \"#utility.yul\":697:717   */\n  tag_28\n    /* \"#utility.yul\":715:716   */\n  dup3\n    /* \"#utility.yul\":697:717   */\n  tag_29\n  jump\t// in\ntag_28:\n    /* \"#utility.yul\":692:717   */\n  swap2\n  pop\n    /* \"#utility.yul\":731:751   */\n  tag_30\n    /* \"#utility.yul\":749:750   */\n  dup4\n    /* \"#utility.yul\":731:751   */\n  tag_29\n  jump\t// in\ntag_30:\n    /* \"#utility.yul\":726:751   */\n  swap3\n  pop\n    /* \"#utility.yul\":885:886   */\n  dup3\n    /* \"#utility.yul\":817:883   */\n  0xffffffffffffffffffffffffffffffffffffffffffffffffffffffffffffffff\n    /* \"#utility.yul\":813:887   */\n  sub\n    /* \"#utility.yul\":810:811   */\n  dup3\n    /* \"#utility.yul\":807:888   */\n  gt\n    /* \"#utility.yul\":804:911   */\n  iszero\n  tag_31\n  jumpi\n    /* \"#utility.yul\":891:909   */\n  tag_32\n  tag_33\n  jump\t// in\ntag_32:\n    /* \"#utility.yul\":804:911   */\ntag_31:\n    /* \"#utility.yul\":935:936   */\n  dup3\n    /* \"#utility.yul\":932:933   */\n  dup3\n    /* \"#utility.yul\":928:937   */\n  add\n    /* \"#utility.yul\":921:937   */\n  swap1\n  pop\n    /* \"#utility.yul\":638:943   */\n  swap3\n  swap2\n  pop\n  pop\n  jump\t// out\n    /* \"#utility.yul\":949:1045   */\ntag_19:\n    /* \"#utility.yul\":986:993   */\n  0x00\n    /* \"#utility.yul\":1015:1039   */\n  tag_35\n    /* \"#utility.yul\":1033:1038   */\n  dup3\n    /* \"#utility.yul\":1015:1039   */\n  tag_36\n  jump\t// in\ntag_35:\n    /* \"#utility.yul\":1004:1039   */\n  swap1\n  pop\n    /* \"#utility.yul\":949:1045   */\n  swap2\n  swap1\n  pop\n  jump\t// out\n    /* \"#utility.yul\":1051:1177   */\ntag_36:\n    /* \"#utility.yul\":1088:1095   */\n  0x00\n    /* \"#utility.yul\":1128:1170   */\n  0xffffffffffffffffffffffffffffffffffffffff\n    /* \"#utility.yul\":1121:1126   */\n  dup3\n    /* \"#utility.yul\":1117:1171   */\n  and\n    /* \"#utility.yul\":1106:1171   */\n  swap1\n  pop\n    /* \"#utility.yul\":1051:1177   */\n  swap2\n  swap1\n  pop\n  jump\t// out\n    /* \"#utility.yul\":1183:1260   */\ntag_29:\n    /* \"#utility.yul\":1220:1227   */\n  0x00\n    /* \"#utility.yul\":1249:1254   */\n  dup2\n    /* \"#utility.yul\":1238:1254   */\n  swap1\n  pop\n    /* \"#utility.yul\":1183:1260   */\n  swap2\n  swap1\n  pop\n  jump\t// out\n    /* \"#utility.yul\":1266:1387   */\ntag_23:\n    /* \"#utility.yul\":1324:1333   */\n  0x00\n    /* \"#utility.yul\":1357:1381   */\n  tag_40\n    /* \"#utility.yul\":1375:1380   */\n  dup3\n    /* \"#utility.yul\":1357:1381   */\n  tag_29\n  jump\t// in\ntag_40:\n    /* \"#utility.yul\":1344:1381   */\n  swap1\n  pop\n    /* \"#utility.yul\":1266:1387   */\n  swap2\n  swap1\n  pop\n  jump\t// out\n    /* \"#utility.yul\":1393:1573   */\ntag_33:\n    /* \"#utility.yul\":1441:1518   */\n  0x4e487b7100000000000000000000000000000000000000000000000000000000\n    /* \"#utility.yul\":1438:1439   */\n  0x00\n    /* \"#utility.yul\":1431:1519   */\n  mstore\n    /* \"#utility.yul\":1538:1542   */\n  0x11\n    /* \"#utility.yul\":1535:1536   */\n  0x04\n    /* \"#utility.yul\":1528:1543   */\n  mstore\n    /* \"#utility.yul\":1562:1566   */\n  0x24\n    /* \"#utility.yul\":1559:1560   */\n  0x00\n    /* \"#utility.yul\":1552:1567   */\n  revert\n    /* \"contracts/Voting.sol\":91:1761  contract Voting {\r... */\ntag_14:\n  dataSize(sub_0)\n  dup1\n  dataOffset(sub_0)\n  0x00\n  codecopy\n  0x00\n  return\nstop\n\nsub_0: assembly {\n        /* \"contracts/Voting.sol\":91:1761  contract Voting {\r... */\n      mstore(0x40, 0x80)\n      callvalue\n      dup1\n      iszero\n      tag_1\n      jumpi\n      0x00\n      dup1\n      revert\n    tag_1:\n      pop\n      jumpi(tag_2, lt(calldatasize, 0x04))\n      shr(0xe0, calldataload(0x00))\n      dup1\n      0x4041ef54\n      eq\n      tag_3\n      jumpi\n      dup1\n      0x633fff16\n      eq\n      tag_4\n      jumpi\n      dup1\n      0x6dd7d8ea\n      eq\n      tag_5\n      jumpi\n      dup1\n      0x8203373a\n      eq\n      tag_6\n      jumpi\n      dup1\n      0xfc0c546a\n      eq\n      tag_7\n      jumpi\n    tag_2:\n      0x00\n      dup1\n      revert\n        /* \"contracts/Voting.sol\":1538:1754  function totalVotesFor(address proposal) view public returns (uint) {\r... */\n    tag_3:\n      tag_8\n      0x04\n      dup1\n      calldatasize\n      sub\n      dup2\n      add\n      swap1\n      tag_9\n      swap2\n      swap1\n      tag_10\n      jump\t// in\n    tag_9:\n      tag_11\n      jump\t// in\n    tag_8:\n      mload(0x40)\n      tag_12\n      swap2\n      swap1\n      tag_13\n      jump\t// in\n    tag_12:\n      mload(0x40)\n      dup1\n      swap2\n      sub\n      swap1\n      return\n        /* \"contracts/Voting.sol\":837:1197  function addProposals(address[] memory _proposalsAddr, \r... */\n    tag_4:\n      tag_14\n      0x04\n      dup1\n      calldatasize\n      sub\n      dup2\n      add\n      swap1\n      tag_15\n      swap2\n      swap1\n      tag_16\n      jump\t// in\n    tag_15:\n      tag_17\n      jump\t// in\n    tag_14:\n      stop\n        /* \"contracts/Voting.sol\":1205:1530  function vote(address proposal) public {\r... */\n    tag_5:\n      tag_18\n      0x04\n      dup1\n      calldatasize\n      sub\n      dup2\n      add\n      swap1\n      tag_19\n      swap2\n      swap1\n      tag_10\n      jump\t// in\n    tag_19:\n      tag_20\n      jump\t// in\n    tag_18:\n      stop\n        /* \"contracts/Voting.sol\":493:829  function addVoters(address[] memory _voters) public {\r... */\n    tag_6:\n      tag_21\n      0x04\n      dup1\n      calldatasize\n      sub\n      dup2\n      add\n      swap1\n      tag_22\n      swap2\n      swap1\n      tag_23\n      jump\t// in\n    tag_22:\n      tag_24\n      jump\t// in\n    tag_21:\n      stop\n        /* \"contracts/Voting.sol\":275:307  Token public token = new Token() */\n    tag_7:\n      tag_25\n      tag_26\n      jump\t// in\n    tag_25:\n      mload(0x40)\n      tag_27\n      swap2\n      swap1\n      tag_28\n      jump\t// in\n    tag_27:\n      mload(0x40)\n      dup1\n      swap2\n      sub\n      swap1\n      return\n        /* \"contracts/Voting.sol\":1538:1754  function totalVotesFor(address proposal) view public returns (uint) {\r... */\n    tag_11:\n        /* \"contracts/Voting.sol\":1600:1604  uint */\n      0x00\n        /* \"contracts/Voting.sol\":1721:1726  token */\n      0x05\n      0x00\n      swap1\n      sload\n      swap1\n      0x0100\n      exp\n      swap1\n      div\n      0xffffffffffffffffffffffffffffffffffffffff\n      and\n        /* \"contracts/Voting.sol\":1721:1736  token.balanceOf */\n      0xffffffffffffffffffffffffffffffffffffffff\n      and\n      0x70a08231\n        /* \"contracts/Voting.sol\":1737:1745  proposal */\n      dup4\n        /* \"contracts/Voting.sol\":1721:1746  token.balanceOf(proposal) */\n      mload(0x40)\n      dup3\n      0xffffffff\n      and\n      0xe0\n      shl\n      dup2\n      mstore\n      0x04\n      add\n      tag_30\n      swap2\n      swap1\n      tag_31\n      jump\t// in\n    tag_30:\n      0x20\n      mload(0x40)\n      dup1\n      dup4\n      sub\n      dup2\n      dup7\n      dup1\n      extcodesize\n      iszero\n      dup1\n      iszero\n      tag_32\n      jumpi\n      0x00\n      dup1\n      revert\n    tag_32:\n      pop\n      gas\n      staticcall\n      iszero\n      dup1\n      iszero\n      tag_34\n      jumpi\n      returndatasize\n      0x00\n      dup1\n      returndatacopy\n      revert(0x00, returndatasize)\n    tag_34:\n      pop\n      pop\n      pop\n      pop\n      mload(0x40)\n      returndatasize\n      not(0x1f)\n      0x1f\n      dup3\n      add\n      and\n      dup3\n      add\n      dup1\n      0x40\n      mstore\n      pop\n      dup2\n      add\n      swap1\n      tag_35\n      swap2\n      swap1\n      tag_36\n      jump\t// in\n    tag_35:\n        /* \"contracts/Voting.sol\":1714:1746  return token.balanceOf(proposal) */\n      swap1\n      pop\n        /* \"contracts/Voting.sol\":1538:1754  function totalVotesFor(address proposal) view public returns (uint) {\r... */\n      swap2\n      swap1\n      pop\n      jump\t// out\n        /* \"contracts/Voting.sol\":837:1197  function addProposals(address[] memory _proposalsAddr, \r... */\n    tag_17:\n        /* \"contracts/Voting.sol\":1005:1020  _proposalsNames */\n      dup1\n        /* \"contracts/Voting.sol\":1005:1027  _proposalsNames.length */\n      mload\n        /* \"contracts/Voting.sol\":980:994  _proposalsAddr */\n      dup3\n        /* \"contracts/Voting.sol\":980:1001  _proposalsAddr.length */\n      mload\n        /* \"contracts/Voting.sol\":980:1027  _proposalsAddr.length == _proposalsNames.length */\n      eq\n        /* \"contracts/Voting.sol\":972:1052  require(_proposalsAddr.length == _proposalsNames.length, \"Length is different.\") */\n      tag_38\n      jumpi\n      mload(0x40)\n      0x08c379a000000000000000000000000000000000000000000000000000000000\n      dup2\n      mstore\n      0x04\n      add\n      tag_39\n      swap1\n      tag_40\n      jump\t// in\n    tag_39:\n      mload(0x40)\n      dup1\n      swap2\n      sub\n      swap1\n      revert\n    tag_38:\n        /* \"contracts/Voting.sol\":1070:1076  uint i */\n      0x00\n        /* \"contracts/Voting.sol\":1065:1190  for (uint i = 0; i < _proposalsAddr.length; i++) {\r... */\n    tag_41:\n        /* \"contracts/Voting.sol\":1086:1100  _proposalsAddr */\n      dup3\n        /* \"contracts/Voting.sol\":1086:1107  _proposalsAddr.length */\n      mload\n        /* \"contracts/Voting.sol\":1082:1083  i */\n      dup2\n        /* \"contracts/Voting.sol\":1082:1107  i < _proposalsAddr.length */\n      lt\n        /* \"contracts/Voting.sol\":1065:1190  for (uint i = 0; i < _proposalsAddr.length; i++) {\r... */\n      iszero\n      tag_42\n      jumpi\n        /* \"contracts/Voting.sol\":1160:1175  _proposalsNames */\n      dup2\n        /* \"contracts/Voting.sol\":1176:1177  i */\n      dup2\n        /* \"contracts/Voting.sol\":1160:1178  _proposalsNames[i] */\n      dup2\n      mload\n      dup2\n      lt\n      tag_44\n      jumpi\n      tag_45\n      tag_46\n      jump\t// in\n    tag_45:\n    tag_44:\n      0x20\n      mul\n      0x20\n      add\n      add\n      mload\n        /* \"contracts/Voting.sol\":1129:1138  proposals */\n      0x03\n        /* \"contracts/Voting.sol\":1129:1157  proposals[_proposalsAddr[i]] */\n      0x00\n        /* \"contracts/Voting.sol\":1139:1153  _proposalsAddr */\n      dup6\n        /* \"contracts/Voting.sol\":1154:1155  i */\n      dup5\n        /* \"contracts/Voting.sol\":1139:1156  _proposalsAddr[i] */\n      dup2\n      mload\n      dup2\n      lt\n      tag_47\n      jumpi\n      tag_48\n      tag_46\n      jump\t// in\n    tag_48:\n    tag_47:\n      0x20\n      mul\n      0x20\n      add\n      add\n      mload\n        /* \"contracts/Voting.sol\":1129:1157  proposals[_proposalsAddr[i]] */\n      0xffffffffffffffffffffffffffffffffffffffff\n      and\n      0xffffffffffffffffffffffffffffffffffffffff\n      and\n      dup2\n      mstore\n      0x20\n      add\n      swap1\n      dup2\n      mstore\n      0x20\n      add\n      0x00\n      keccak256\n        /* \"contracts/Voting.sol\":1129:1178  proposals[_proposalsAddr[i]] = _proposalsNames[i] */\n      swap1\n      dup1\n      mload\n      swap1\n      0x20\n      add\n      swap1\n      tag_49\n      swap3\n      swap2\n      swap1\n      tag_50\n      jump\t// in\n    tag_49:\n      pop\n        /* \"contracts/Voting.sol\":1109:1112  i++ */\n      dup1\n      dup1\n      tag_51\n      swap1\n      tag_52\n      jump\t// in\n    tag_51:\n      swap2\n      pop\n      pop\n        /* \"contracts/Voting.sol\":1065:1190  for (uint i = 0; i < _proposalsAddr.length; i++) {\r... */\n      jump(tag_41)\n    tag_42:\n      pop\n        /* \"contracts/Voting.sol\":837:1197  function addProposals(address[] memory _proposalsAddr, \r... */\n      pop\n      pop\n      jump\t// out\n        /* \"contracts/Voting.sol\":1205:1530  function vote(address proposal) public {\r... */\n    tag_20:\n        /* \"contracts/Voting.sol\":1282:1289  endTime */\n      sload(0x01)\n        /* \"contracts/Voting.sol\":1263:1278  block.timestamp */\n      timestamp\n        /* \"contracts/Voting.sol\":1263:1289  block.timestamp <= endTime */\n      gt\n      iszero\n        /* \"contracts/Voting.sol\":1255:1306  require(block.timestamp <= endTime, \"Time is end.\") */\n      tag_54\n      jumpi\n      mload(0x40)\n      0x08c379a000000000000000000000000000000000000000000000000000000000\n      dup2\n      mstore\n      0x04\n      add\n      tag_55\n      swap1\n      tag_56\n      jump\t// in\n    tag_55:\n      mload(0x40)\n      dup1\n      swap2\n      sub\n      swap1\n      revert\n    tag_54:\n        /* \"contracts/Voting.sol\":1326:1332  voters */\n      0x02\n        /* \"contracts/Voting.sol\":1326:1344  voters[msg.sender] */\n      0x00\n        /* \"contracts/Voting.sol\":1333:1343  msg.sender */\n      caller\n        /* \"contracts/Voting.sol\":1326:1344  voters[msg.sender] */\n      0xffffffffffffffffffffffffffffffffffffffff\n      and\n      0xffffffffffffffffffffffffffffffffffffffff\n      and\n      dup2\n      mstore\n      0x20\n      add\n      swap1\n      dup2\n      mstore\n      0x20\n      add\n      0x00\n      keccak256\n      0x00\n      swap1\n      sload\n      swap1\n      0x0100\n      exp\n      swap1\n      div\n      0xff\n      and\n        /* \"contracts/Voting.sol\":1325:1344  !voters[msg.sender] */\n      iszero\n        /* \"contracts/Voting.sol\":1317:1369  require(!voters[msg.sender], \"Voter already voted.\") */\n      tag_57\n      jumpi\n      mload(0x40)\n      0x08c379a000000000000000000000000000000000000000000000000000000000\n      dup2\n      mstore\n      0x04\n      add\n      tag_58\n      swap1\n      tag_59\n      jump\t// in\n    tag_58:\n      mload(0x40)\n      dup1\n      swap2\n      sub\n      swap1\n      revert\n    tag_57:\n        /* \"contracts/Voting.sol\":1419:1420  2 */\n      0x02\n        /* \"contracts/Voting.sol\":1388:1393  token */\n      0x05\n      0x00\n      swap1\n      sload\n      swap1\n      0x0100\n      exp\n      swap1\n      div\n      0xffffffffffffffffffffffffffffffffffffffff\n      and\n        /* \"contracts/Voting.sol\":1388:1403  token.balanceOf */\n      0xffffffffffffffffffffffffffffffffffffffff\n      and\n      0x70a08231\n        /* \"contracts/Voting.sol\":1404:1414  msg.sender */\n      caller\n        /* \"contracts/Voting.sol\":1388:1415  token.balanceOf(msg.sender) */\n      mload(0x40)\n      dup3\n      0xffffffff\n      and\n      0xe0\n      shl\n      dup2\n      mstore\n      0x04\n      add\n      tag_60\n      swap2\n      swap1\n      tag_31\n      jump\t// in\n    tag_60:\n      0x20\n      mload(0x40)\n      dup1\n      dup4\n      sub\n      dup2\n      dup7\n      dup1\n      extcodesize\n      iszero\n      dup1\n      iszero\n      tag_61\n      jumpi\n      0x00\n      dup1\n      revert\n    tag_61:\n      pop\n      gas\n      staticcall\n      iszero\n      dup1\n      iszero\n      tag_63\n      jumpi\n      returndatasize\n      0x00\n      dup1\n      returndatacopy\n      revert(0x00, returndatasize)\n    tag_63:\n      pop\n      pop\n      pop\n      pop\n      mload(0x40)\n      returndatasize\n      not(0x1f)\n      0x1f\n      dup3\n      add\n      and\n      dup3\n      add\n      dup1\n      0x40\n      mstore\n      pop\n      dup2\n      add\n      swap1\n      tag_64\n      swap2\n      swap1\n      tag_36\n      jump\t// in\n    tag_64:\n        /* \"contracts/Voting.sol\":1388:1420  token.balanceOf(msg.sender) == 2 */\n      eq\n        /* \"contracts/Voting.sol\":1380:1445  require(token.balanceOf(msg.sender) == 2, \"Token doesn't exist.\") */\n      tag_65\n      jumpi\n      mload(0x40)\n      0x08c379a000000000000000000000000000000000000000000000000000000000\n      dup2\n      mstore\n      0x04\n      add\n      tag_66\n      swap1\n      tag_67\n      jump\t// in\n    tag_66:\n      mload(0x40)\n      dup1\n      swap2\n      sub\n      swap1\n      revert\n    tag_65:\n        /* \"contracts/Voting.sol\":1459:1464  token */\n      0x05\n      0x00\n      swap1\n      sload\n      swap1\n      0x0100\n      exp\n      swap1\n      div\n      0xffffffffffffffffffffffffffffffffffffffff\n      and\n        /* \"contracts/Voting.sol\":1459:1473  token.transfer */\n      0xffffffffffffffffffffffffffffffffffffffff\n      and\n      0xa9059cbb\n        /* \"contracts/Voting.sol\":1474:1482  proposal */\n      dup3\n        /* \"contracts/Voting.sol\":1484:1485  1 */\n      0x01\n        /* \"contracts/Voting.sol\":1459:1486  token.transfer(proposal, 1) */\n      mload(0x40)\n      dup4\n      0xffffffff\n      and\n      0xe0\n      shl\n      dup2\n      mstore\n      0x04\n      add\n      tag_68\n      swap3\n      swap2\n      swap1\n      tag_69\n      jump\t// in\n    tag_68:\n      0x00\n      mload(0x40)\n      dup1\n      dup4\n      sub\n      dup2\n      0x00\n      dup8\n      dup1\n      extcodesize\n      iszero\n      dup1\n      iszero\n      tag_70\n      jumpi\n      0x00\n      dup1\n      revert\n    tag_70:\n      pop\n      gas\n      call\n      iszero\n      dup1\n      iszero\n      tag_72\n      jumpi\n      returndatasize\n      0x00\n      dup1\n      returndatacopy\n      revert(0x00, returndatasize)\n    tag_72:\n      pop\n      pop\n      pop\n      pop\n        /* \"contracts/Voting.sol\":1518:1522  true */\n      0x01\n        /* \"contracts/Voting.sol\":1497:1503  voters */\n      0x02\n        /* \"contracts/Voting.sol\":1497:1515  voters[msg.sender] */\n      0x00\n        /* \"contracts/Voting.sol\":1504:1514  msg.sender */\n      caller\n        /* \"contracts/Voting.sol\":1497:1515  voters[msg.sender] */\n      0xffffffffffffffffffffffffffffffffffffffff\n      and\n      0xffffffffffffffffffffffffffffffffffffffff\n      and\n      dup2\n      mstore\n      0x20\n      add\n      swap1\n      dup2\n      mstore\n      0x20\n      add\n      0x00\n      keccak256\n      0x00\n        /* \"contracts/Voting.sol\":1497:1522  voters[msg.sender] = true */\n      0x0100\n      exp\n      dup2\n      sload\n      dup2\n      0xff\n      mul\n      not\n      and\n      swap1\n      dup4\n      iszero\n      iszero\n      mul\n      or\n      swap1\n      sstore\n      pop\n        /* \"contracts/Voting.sol\":1205:1530  function vote(address proposal) public {\r... */\n      pop\n      jump\t// out\n        /* \"contracts/Voting.sol\":493:829  function addVoters(address[] memory _voters) public {\r... */\n    tag_24:\n        /* \"contracts/Voting.sol\":578:589  chairperson */\n      0x04\n      0x00\n      swap1\n      sload\n      swap1\n      0x0100\n      exp\n      swap1\n      div\n      0xffffffffffffffffffffffffffffffffffffffff\n      and\n        /* \"contracts/Voting.sol\":564:589  msg.sender == chairperson */\n      0xffffffffffffffffffffffffffffffffffffffff\n      and\n        /* \"contracts/Voting.sol\":564:574  msg.sender */\n      caller\n        /* \"contracts/Voting.sol\":564:589  msg.sender == chairperson */\n      0xffffffffffffffffffffffffffffffffffffffff\n      and\n      eq\n        /* \"contracts/Voting.sol\":556:621  require(msg.sender == chairperson, \"It is not from chairperson.\") */\n      tag_74\n      jumpi\n      mload(0x40)\n      0x08c379a000000000000000000000000000000000000000000000000000000000\n      dup2\n      mstore\n      0x04\n      add\n      tag_75\n      swap1\n      tag_76\n      jump\t// in\n    tag_75:\n      mload(0x40)\n      dup1\n      swap2\n      sub\n      swap1\n      revert\n    tag_74:\n        /* \"contracts/Voting.sol\":639:645  uint i */\n      0x00\n        /* \"contracts/Voting.sol\":634:784  for (uint i = 0; i < _voters.length; i++) {\r... */\n    tag_77:\n        /* \"contracts/Voting.sol\":655:662  _voters */\n      dup2\n        /* \"contracts/Voting.sol\":655:669  _voters.length */\n      mload\n        /* \"contracts/Voting.sol\":651:652  i */\n      dup2\n        /* \"contracts/Voting.sol\":651:669  i < _voters.length */\n      lt\n        /* \"contracts/Voting.sol\":634:784  for (uint i = 0; i < _voters.length; i++) {\r... */\n      iszero\n      tag_78\n      jumpi\n        /* \"contracts/Voting.sol\":712:717  false */\n      0x00\n        /* \"contracts/Voting.sol\":691:697  voters */\n      0x02\n        /* \"contracts/Voting.sol\":691:709  voters[_voters[i]] */\n      0x00\n        /* \"contracts/Voting.sol\":698:705  _voters */\n      dup5\n        /* \"contracts/Voting.sol\":706:707  i */\n      dup5\n        /* \"contracts/Voting.sol\":698:708  _voters[i] */\n      dup2\n      mload\n      dup2\n      lt\n      tag_80\n      jumpi\n      tag_81\n      tag_46\n      jump\t// in\n    tag_81:\n    tag_80:\n      0x20\n      mul\n      0x20\n      add\n      add\n      mload\n        /* \"contracts/Voting.sol\":691:709  voters[_voters[i]] */\n      0xffffffffffffffffffffffffffffffffffffffff\n      and\n      0xffffffffffffffffffffffffffffffffffffffff\n      and\n      dup2\n      mstore\n      0x20\n      add\n      swap1\n      dup2\n      mstore\n      0x20\n      add\n      0x00\n      keccak256\n      0x00\n        /* \"contracts/Voting.sol\":691:717  voters[_voters[i]] = false */\n      0x0100\n      exp\n      dup2\n      sload\n      dup2\n      0xff\n      mul\n      not\n      and\n      swap1\n      dup4\n      iszero\n      iszero\n      mul\n      or\n      swap1\n      sstore\n      pop\n        /* \"contracts/Voting.sol\":746:751  token */\n      0x05\n      0x00\n      swap1\n      sload\n      swap1\n      0x0100\n      exp\n      swap1\n      div\n      0xffffffffffffffffffffffffffffffffffffffff\n      and\n        /* \"contracts/Voting.sol\":746:756  token.mint */\n      0xffffffffffffffffffffffffffffffffffffffff\n      and\n      0x40c10f19\n        /* \"contracts/Voting.sol\":757:764  _voters */\n      dup4\n        /* \"contracts/Voting.sol\":765:766  i */\n      dup4\n        /* \"contracts/Voting.sol\":757:767  _voters[i] */\n      dup2\n      mload\n      dup2\n      lt\n      tag_82\n      jumpi\n      tag_83\n      tag_46\n      jump\t// in\n    tag_83:\n    tag_82:\n      0x20\n      mul\n      0x20\n      add\n      add\n      mload\n        /* \"contracts/Voting.sol\":769:770  2 */\n      0x02\n        /* \"contracts/Voting.sol\":746:771  token.mint(_voters[i], 2) */\n      mload(0x40)\n      dup4\n      0xffffffff\n      and\n      0xe0\n      shl\n      dup2\n      mstore\n      0x04\n      add\n      tag_84\n      swap3\n      swap2\n      swap1\n      tag_85\n      jump\t// in\n    tag_84:\n      0x00\n      mload(0x40)\n      dup1\n      dup4\n      sub\n      dup2\n      0x00\n      dup8\n      dup1\n      extcodesize\n      iszero\n      dup1\n      iszero\n      tag_86\n      jumpi\n      0x00\n      dup1\n      revert\n    tag_86:\n      pop\n      gas\n      call\n      iszero\n      dup1\n      iszero\n      tag_88\n      jumpi\n      returndatasize\n      0x00\n      dup1\n      returndatacopy\n      revert(0x00, returndatasize)\n    tag_88:\n      pop\n      pop\n      pop\n      pop\n        /* \"contracts/Voting.sol\":671:674  i++ */\n      dup1\n      dup1\n      tag_89\n      swap1\n      tag_52\n      jump\t// in\n    tag_89:\n      swap2\n      pop\n      pop\n        /* \"contracts/Voting.sol\":634:784  for (uint i = 0; i < _voters.length; i++) {\r... */\n      jump(tag_77)\n    tag_78:\n      pop\n        /* \"contracts/Voting.sol\":794:799  token */\n      0x05\n      0x00\n      swap1\n      sload\n      swap1\n      0x0100\n      exp\n      swap1\n      div\n      0xffffffffffffffffffffffffffffffffffffffff\n      and\n        /* \"contracts/Voting.sol\":794:804  token.mint */\n      0xffffffffffffffffffffffffffffffffffffffff\n      and\n      0x40c10f19\n        /* \"contracts/Voting.sol\":805:816  chairperson */\n      0x04\n      0x00\n      swap1\n      sload\n      swap1\n      0x0100\n      exp\n      swap1\n      div\n      0xffffffffffffffffffffffffffffffffffffffff\n      and\n        /* \"contracts/Voting.sol\":818:819  2 */\n      0x02\n        /* \"contracts/Voting.sol\":794:820  token.mint(chairperson, 2) */\n      mload(0x40)\n      dup4\n      0xffffffff\n      and\n      0xe0\n      shl\n      dup2\n      mstore\n      0x04\n      add\n      tag_90\n      swap3\n      swap2\n      swap1\n      tag_85\n      jump\t// in\n    tag_90:\n      0x00\n      mload(0x40)\n      dup1\n      dup4\n      sub\n      dup2\n      0x00\n      dup8\n      dup1\n      extcodesize\n      iszero\n      dup1\n      iszero\n      tag_91\n      jumpi\n      0x00\n      dup1\n      revert\n    tag_91:\n      pop\n      gas\n      call\n      iszero\n      dup1\n      iszero\n      tag_93\n      jumpi\n      returndatasize\n      0x00\n      dup1\n      returndatacopy\n      revert(0x00, returndatasize)\n    tag_93:\n      pop\n      pop\n      pop\n      pop\n        /* \"contracts/Voting.sol\":493:829  function addVoters(address[] memory _voters) public {\r... */\n      pop\n      jump\t// out\n        /* \"contracts/Voting.sol\":275:307  Token public token = new Token() */\n    tag_26:\n      0x05\n      0x00\n      swap1\n      sload\n      swap1\n      0x0100\n      exp\n      swap1\n      div\n      0xffffffffffffffffffffffffffffffffffffffff\n      and\n      dup2\n      jump\t// out\n    tag_50:\n      dup3\n      dup1\n      sload\n      tag_94\n      swap1\n      tag_95\n      jump\t// in\n    tag_94:\n      swap1\n      0x00\n      mstore\n      keccak256(0x00, 0x20)\n      swap1\n      0x1f\n      add\n      0x20\n      swap1\n      div\n      dup2\n      add\n      swap3\n      dup3\n      tag_97\n      jumpi\n      0x00\n      dup6\n      sstore\n      jump(tag_96)\n    tag_97:\n      dup3\n      0x1f\n      lt\n      tag_98\n      jumpi\n      dup1\n      mload\n      not(0xff)\n      and\n      dup4\n      dup1\n      add\n      or\n      dup6\n      sstore\n      jump(tag_96)\n    tag_98:\n      dup3\n      dup1\n      add\n      0x01\n      add\n      dup6\n      sstore\n      dup3\n      iszero\n      tag_96\n      jumpi\n      swap2\n      dup3\n      add\n    tag_99:\n      dup3\n      dup2\n      gt\n      iszero\n      tag_100\n      jumpi\n      dup3\n      mload\n      dup3\n      sstore\n      swap2\n      0x20\n      add\n      swap2\n      swap1\n      0x01\n      add\n      swap1\n      jump(tag_99)\n    tag_100:\n    tag_96:\n      pop\n      swap1\n      pop\n      tag_101\n      swap2\n      swap1\n      tag_102\n      jump\t// in\n    tag_101:\n      pop\n      swap1\n      jump\t// out\n    tag_102:\n    tag_103:\n      dup1\n      dup3\n      gt\n      iszero\n      tag_104\n      jumpi\n      0x00\n      dup2\n      0x00\n      swap1\n      sstore\n      pop\n      0x01\n      add\n      jump(tag_103)\n    tag_104:\n      pop\n      swap1\n      jump\t// out\n        /* \"#utility.yul\":24:746   */\n    tag_106:\n        /* \"#utility.yul\":120:125   */\n      0x00\n        /* \"#utility.yul\":145:226   */\n      tag_108\n        /* \"#utility.yul\":161:225   */\n      tag_109\n        /* \"#utility.yul\":218:224   */\n      dup5\n        /* \"#utility.yul\":161:225   */\n      tag_110\n      jump\t// in\n    tag_109:\n        /* \"#utility.yul\":145:226   */\n      tag_111\n      jump\t// in\n    tag_108:\n        /* \"#utility.yul\":136:226   */\n      swap1\n      pop\n        /* \"#utility.yul\":246:251   */\n      dup1\n        /* \"#utility.yul\":275:281   */\n      dup4\n        /* \"#utility.yul\":268:273   */\n      dup3\n        /* \"#utility.yul\":261:282   */\n      mstore\n        /* \"#utility.yul\":309:313   */\n      0x20\n        /* \"#utility.yul\":302:307   */\n      dup3\n        /* \"#utility.yul\":298:314   */\n      add\n        /* \"#utility.yul\":291:314   */\n      swap1\n      pop\n        /* \"#utility.yul\":335:341   */\n      dup3\n        /* \"#utility.yul\":385:388   */\n      dup6\n        /* \"#utility.yul\":377:381   */\n      0x20\n        /* \"#utility.yul\":369:375   */\n      dup7\n        /* \"#utility.yul\":365:382   */\n      mul\n        /* \"#utility.yul\":360:363   */\n      dup3\n        /* \"#utility.yul\":356:383   */\n      add\n        /* \"#utility.yul\":353:389   */\n      gt\n        /* \"#utility.yul\":350:493   */\n      iszero\n      tag_112\n      jumpi\n        /* \"#utility.yul\":404:483   */\n      tag_113\n      tag_114\n      jump\t// in\n    tag_113:\n        /* \"#utility.yul\":350:493   */\n    tag_112:\n        /* \"#utility.yul\":517:518   */\n      0x00\n        /* \"#utility.yul\":502:740   */\n    tag_115:\n        /* \"#utility.yul\":527:533   */\n      dup6\n        /* \"#utility.yul\":524:525   */\n      dup2\n        /* \"#utility.yul\":521:534   */\n      lt\n        /* \"#utility.yul\":502:740   */\n      iszero\n      tag_117\n      jumpi\n        /* \"#utility.yul\":595:598   */\n      dup2\n        /* \"#utility.yul\":624:661   */\n      tag_118\n        /* \"#utility.yul\":657:660   */\n      dup9\n        /* \"#utility.yul\":645:655   */\n      dup3\n        /* \"#utility.yul\":624:661   */\n      tag_119\n      jump\t// in\n    tag_118:\n        /* \"#utility.yul\":619:622   */\n      dup5\n        /* \"#utility.yul\":612:662   */\n      mstore\n        /* \"#utility.yul\":691:695   */\n      0x20\n        /* \"#utility.yul\":686:689   */\n      dup5\n        /* \"#utility.yul\":682:696   */\n      add\n        /* \"#utility.yul\":675:696   */\n      swap4\n      pop\n        /* \"#utility.yul\":725:729   */\n      0x20\n        /* \"#utility.yul\":720:723   */\n      dup4\n        /* \"#utility.yul\":716:730   */\n      add\n        /* \"#utility.yul\":709:730   */\n      swap3\n      pop\n        /* \"#utility.yul\":562:740   */\n      pop\n        /* \"#utility.yul\":549:550   */\n      0x01\n        /* \"#utility.yul\":546:547   */\n      dup2\n        /* \"#utility.yul\":542:551   */\n      add\n        /* \"#utility.yul\":537:551   */\n      swap1\n      pop\n        /* \"#utility.yul\":502:740   */\n      jump(tag_115)\n    tag_117:\n        /* \"#utility.yul\":506:520   */\n      pop\n        /* \"#utility.yul\":126:746   */\n      pop\n      pop\n        /* \"#utility.yul\":24:746   */\n      swap4\n      swap3\n      pop\n      pop\n      pop\n      jump\t// out\n        /* \"#utility.yul\":768:1725   */\n    tag_120:\n        /* \"#utility.yul\":874:879   */\n      0x00\n        /* \"#utility.yul\":899:990   */\n      tag_122\n        /* \"#utility.yul\":915:989   */\n      tag_123\n        /* \"#utility.yul\":982:988   */\n      dup5\n        /* \"#utility.yul\":915:989   */\n      tag_124\n      jump\t// in\n    tag_123:\n        /* \"#utility.yul\":899:990   */\n      tag_111\n      jump\t// in\n    tag_122:\n        /* \"#utility.yul\":890:990   */\n      swap1\n      pop\n        /* \"#utility.yul\":1010:1015   */\n      dup1\n        /* \"#utility.yul\":1039:1045   */\n      dup4\n        /* \"#utility.yul\":1032:1037   */\n      dup3\n        /* \"#utility.yul\":1025:1046   */\n      mstore\n        /* \"#utility.yul\":1073:1077   */\n      0x20\n        /* \"#utility.yul\":1066:1071   */\n      dup3\n        /* \"#utility.yul\":1062:1078   */\n      add\n        /* \"#utility.yul\":1055:1078   */\n      swap1\n      pop\n        /* \"#utility.yul\":1099:1105   */\n      dup3\n        /* \"#utility.yul\":1149:1152   */\n      dup6\n        /* \"#utility.yul\":1141:1145   */\n      0x20\n        /* \"#utility.yul\":1133:1139   */\n      dup7\n        /* \"#utility.yul\":1129:1146   */\n      mul\n        /* \"#utility.yul\":1124:1127   */\n      dup3\n        /* \"#utility.yul\":1120:1147   */\n      add\n        /* \"#utility.yul\":1117:1153   */\n      gt\n        /* \"#utility.yul\":1114:1257   */\n      iszero\n      tag_125\n      jumpi\n        /* \"#utility.yul\":1168:1247   */\n      tag_126\n      tag_114\n      jump\t// in\n    tag_126:\n        /* \"#utility.yul\":1114:1257   */\n    tag_125:\n        /* \"#utility.yul\":1281:1282   */\n      0x00\n        /* \"#utility.yul\":1266:1719   */\n    tag_127:\n        /* \"#utility.yul\":1291:1297   */\n      dup6\n        /* \"#utility.yul\":1288:1289   */\n      dup2\n        /* \"#utility.yul\":1285:1298   */\n      lt\n        /* \"#utility.yul\":1266:1719   */\n      iszero\n      tag_129\n      jumpi\n        /* \"#utility.yul\":1373:1376   */\n      dup2\n        /* \"#utility.yul\":1360:1377   */\n      calldataload\n        /* \"#utility.yul\":1409:1427   */\n      0xffffffffffffffff\n        /* \"#utility.yul\":1396:1407   */\n      dup2\n        /* \"#utility.yul\":1393:1428   */\n      gt\n        /* \"#utility.yul\":1390:1512   */\n      iszero\n      tag_130\n      jumpi\n        /* \"#utility.yul\":1431:1510   */\n      tag_131\n      tag_132\n      jump\t// in\n    tag_131:\n        /* \"#utility.yul\":1390:1512   */\n    tag_130:\n        /* \"#utility.yul\":1555:1566   */\n      dup1\n        /* \"#utility.yul\":1547:1553   */\n      dup7\n        /* \"#utility.yul\":1543:1567   */\n      add\n        /* \"#utility.yul\":1593:1640   */\n      tag_133\n        /* \"#utility.yul\":1636:1639   */\n      dup10\n        /* \"#utility.yul\":1624:1634   */\n      dup3\n        /* \"#utility.yul\":1593:1640   */\n      tag_134\n      jump\t// in\n    tag_133:\n        /* \"#utility.yul\":1588:1591   */\n      dup6\n        /* \"#utility.yul\":1581:1641   */\n      mstore\n        /* \"#utility.yul\":1670:1674   */\n      0x20\n        /* \"#utility.yul\":1665:1668   */\n      dup6\n        /* \"#utility.yul\":1661:1675   */\n      add\n        /* \"#utility.yul\":1654:1675   */\n      swap5\n      pop\n        /* \"#utility.yul\":1704:1708   */\n      0x20\n        /* \"#utility.yul\":1699:1702   */\n      dup5\n        /* \"#utility.yul\":1695:1709   */\n      add\n        /* \"#utility.yul\":1688:1709   */\n      swap4\n      pop\n        /* \"#utility.yul\":1326:1719   */\n      pop\n      pop\n        /* \"#utility.yul\":1313:1314   */\n      0x01\n        /* \"#utility.yul\":1310:1311   */\n      dup2\n        /* \"#utility.yul\":1306:1315   */\n      add\n        /* \"#utility.yul\":1301:1315   */\n      swap1\n      pop\n        /* \"#utility.yul\":1266:1719   */\n      jump(tag_127)\n    tag_129:\n        /* \"#utility.yul\":1270:1284   */\n      pop\n        /* \"#utility.yul\":880:1725   */\n      pop\n      pop\n        /* \"#utility.yul\":768:1725   */\n      swap4\n      swap3\n      pop\n      pop\n      pop\n      jump\t// out\n        /* \"#utility.yul\":1731:2143   */\n    tag_135:\n        /* \"#utility.yul\":1809:1814   */\n      0x00\n        /* \"#utility.yul\":1834:1900   */\n      tag_137\n        /* \"#utility.yul\":1850:1899   */\n      tag_138\n        /* \"#utility.yul\":1892:1898   */\n      dup5\n        /* \"#utility.yul\":1850:1899   */\n      tag_139\n      jump\t// in\n    tag_138:\n        /* \"#utility.yul\":1834:1900   */\n      tag_111\n      jump\t// in\n    tag_137:\n        /* \"#utility.yul\":1825:1900   */\n      swap1\n      pop\n        /* \"#utility.yul\":1923:1929   */\n      dup3\n        /* \"#utility.yul\":1916:1921   */\n      dup2\n        /* \"#utility.yul\":1909:1930   */\n      mstore\n        /* \"#utility.yul\":1961:1965   */\n      0x20\n        /* \"#utility.yul\":1954:1959   */\n      dup2\n        /* \"#utility.yul\":1950:1966   */\n      add\n        /* \"#utility.yul\":1999:2002   */\n      dup5\n        /* \"#utility.yul\":1990:1996   */\n      dup5\n        /* \"#utility.yul\":1985:1988   */\n      dup5\n        /* \"#utility.yul\":1981:1997   */\n      add\n        /* \"#utility.yul\":1978:2003   */\n      gt\n        /* \"#utility.yul\":1975:2087   */\n      iszero\n      tag_140\n      jumpi\n        /* \"#utility.yul\":2006:2085   */\n      tag_141\n      tag_142\n      jump\t// in\n    tag_141:\n        /* \"#utility.yul\":1975:2087   */\n    tag_140:\n        /* \"#utility.yul\":2096:2137   */\n      tag_143\n        /* \"#utility.yul\":2130:2136   */\n      dup5\n        /* \"#utility.yul\":2125:2128   */\n      dup3\n        /* \"#utility.yul\":2120:2123   */\n      dup6\n        /* \"#utility.yul\":2096:2137   */\n      tag_144\n      jump\t// in\n    tag_143:\n        /* \"#utility.yul\":1815:2143   */\n      pop\n        /* \"#utility.yul\":1731:2143   */\n      swap4\n      swap3\n      pop\n      pop\n      pop\n      jump\t// out\n        /* \"#utility.yul\":2149:2288   */\n    tag_119:\n        /* \"#utility.yul\":2195:2200   */\n      0x00\n        /* \"#utility.yul\":2233:2239   */\n      dup2\n        /* \"#utility.yul\":2220:2240   */\n      calldataload\n        /* \"#utility.yul\":2211:2240   */\n      swap1\n      pop\n        /* \"#utility.yul\":2249:2282   */\n      tag_146\n        /* \"#utility.yul\":2276:2281   */\n      dup2\n        /* \"#utility.yul\":2249:2282   */\n      tag_147\n      jump\t// in\n    tag_146:\n        /* \"#utility.yul\":2149:2288   */\n      swap3\n      swap2\n      pop\n      pop\n      jump\t// out\n        /* \"#utility.yul\":2311:2681   */\n    tag_148:\n        /* \"#utility.yul\":2382:2387   */\n      0x00\n        /* \"#utility.yul\":2431:2434   */\n      dup3\n        /* \"#utility.yul\":2424:2428   */\n      0x1f\n        /* \"#utility.yul\":2416:2422   */\n      dup4\n        /* \"#utility.yul\":2412:2429   */\n      add\n        /* \"#utility.yul\":2408:2435   */\n      slt\n        /* \"#utility.yul\":2398:2520   */\n      tag_150\n      jumpi\n        /* \"#utility.yul\":2439:2518   */\n      tag_151\n      tag_132\n      jump\t// in\n    tag_151:\n        /* \"#utility.yul\":2398:2520   */\n    tag_150:\n        /* \"#utility.yul\":2556:2562   */\n      dup2\n        /* \"#utility.yul\":2543:2563   */\n      calldataload\n        /* \"#utility.yul\":2581:2675   */\n      tag_152\n        /* \"#utility.yul\":2671:2674   */\n      dup5\n        /* \"#utility.yul\":2663:2669   */\n      dup3\n        /* \"#utility.yul\":2656:2660   */\n      0x20\n        /* \"#utility.yul\":2648:2654   */\n      dup7\n        /* \"#utility.yul\":2644:2661   */\n      add\n        /* \"#utility.yul\":2581:2675   */\n      tag_106\n      jump\t// in\n    tag_152:\n        /* \"#utility.yul\":2572:2675   */\n      swap2\n      pop\n        /* \"#utility.yul\":2388:2681   */\n      pop\n        /* \"#utility.yul\":2311:2681   */\n      swap3\n      swap2\n      pop\n      pop\n      jump\t// out\n        /* \"#utility.yul\":2703:3093   */\n    tag_153:\n        /* \"#utility.yul\":2784:2789   */\n      0x00\n        /* \"#utility.yul\":2833:2836   */\n      dup3\n        /* \"#utility.yul\":2826:2830   */\n      0x1f\n        /* \"#utility.yul\":2818:2824   */\n      dup4\n        /* \"#utility.yul\":2814:2831   */\n      add\n        /* \"#utility.yul\":2810:2837   */\n      slt\n        /* \"#utility.yul\":2800:2922   */\n      tag_155\n      jumpi\n        /* \"#utility.yul\":2841:2920   */\n      tag_156\n      tag_132\n      jump\t// in\n    tag_156:\n        /* \"#utility.yul\":2800:2922   */\n    tag_155:\n        /* \"#utility.yul\":2958:2964   */\n      dup2\n        /* \"#utility.yul\":2945:2965   */\n      calldataload\n        /* \"#utility.yul\":2983:3087   */\n      tag_157\n        /* \"#utility.yul\":3083:3086   */\n      dup5\n        /* \"#utility.yul\":3075:3081   */\n      dup3\n        /* \"#utility.yul\":3068:3072   */\n      0x20\n        /* \"#utility.yul\":3060:3066   */\n      dup7\n        /* \"#utility.yul\":3056:3073   */\n      add\n        /* \"#utility.yul\":2983:3087   */\n      tag_120\n      jump\t// in\n    tag_157:\n        /* \"#utility.yul\":2974:3087   */\n      swap2\n      pop\n        /* \"#utility.yul\":2790:3093   */\n      pop\n        /* \"#utility.yul\":2703:3093   */\n      swap3\n      swap2\n      pop\n      pop\n      jump\t// out\n        /* \"#utility.yul\":3113:3453   */\n    tag_134:\n        /* \"#utility.yul\":3169:3174   */\n      0x00\n        /* \"#utility.yul\":3218:3221   */\n      dup3\n        /* \"#utility.yul\":3211:3215   */\n      0x1f\n        /* \"#utility.yul\":3203:3209   */\n      dup4\n        /* \"#utility.yul\":3199:3216   */\n      add\n        /* \"#utility.yul\":3195:3222   */\n      slt\n        /* \"#utility.yul\":3185:3307   */\n      tag_159\n      jumpi\n        /* \"#utility.yul\":3226:3305   */\n      tag_160\n      tag_132\n      jump\t// in\n    tag_160:\n        /* \"#utility.yul\":3185:3307   */\n    tag_159:\n        /* \"#utility.yul\":3343:3349   */\n      dup2\n        /* \"#utility.yul\":3330:3350   */\n      calldataload\n        /* \"#utility.yul\":3368:3447   */\n      tag_161\n        /* \"#utility.yul\":3443:3446   */\n      dup5\n        /* \"#utility.yul\":3435:3441   */\n      dup3\n        /* \"#utility.yul\":3428:3432   */\n      0x20\n        /* \"#utility.yul\":3420:3426   */\n      dup7\n        /* \"#utility.yul\":3416:3433   */\n      add\n        /* \"#utility.yul\":3368:3447   */\n      tag_135\n      jump\t// in\n    tag_161:\n        /* \"#utility.yul\":3359:3447   */\n      swap2\n      pop\n        /* \"#utility.yul\":3175:3453   */\n      pop\n        /* \"#utility.yul\":3113:3453   */\n      swap3\n      swap2\n      pop\n      pop\n      jump\t// out\n        /* \"#utility.yul\":3459:3602   */\n    tag_162:\n        /* \"#utility.yul\":3516:3521   */\n      0x00\n        /* \"#utility.yul\":3547:3553   */\n      dup2\n        /* \"#utility.yul\":3541:3554   */\n      mload\n        /* \"#utility.yul\":3532:3554   */\n      swap1\n      pop\n        /* \"#utility.yul\":3563:3596   */\n      tag_164\n        /* \"#utility.yul\":3590:3595   */\n      dup2\n        /* \"#utility.yul\":3563:3596   */\n      tag_165\n      jump\t// in\n    tag_164:\n        /* \"#utility.yul\":3459:3602   */\n      swap3\n      swap2\n      pop\n      pop\n      jump\t// out\n        /* \"#utility.yul\":3608:3937   */\n    tag_10:\n        /* \"#utility.yul\":3667:3673   */\n      0x00\n        /* \"#utility.yul\":3716:3718   */\n      0x20\n        /* \"#utility.yul\":3704:3713   */\n      dup3\n        /* \"#utility.yul\":3695:3702   */\n      dup5\n        /* \"#utility.yul\":3691:3714   */\n      sub\n        /* \"#utility.yul\":3687:3719   */\n      slt\n        /* \"#utility.yul\":3684:3803   */\n      iszero\n      tag_167\n      jumpi\n        /* \"#utility.yul\":3722:3801   */\n      tag_168\n      tag_169\n      jump\t// in\n    tag_168:\n        /* \"#utility.yul\":3684:3803   */\n    tag_167:\n        /* \"#utility.yul\":3842:3843   */\n      0x00\n        /* \"#utility.yul\":3867:3920   */\n      tag_170\n        /* \"#utility.yul\":3912:3919   */\n      dup5\n        /* \"#utility.yul\":3903:3909   */\n      dup3\n        /* \"#utility.yul\":3892:3901   */\n      dup6\n        /* \"#utility.yul\":3888:3910   */\n      add\n        /* \"#utility.yul\":3867:3920   */\n      tag_119\n      jump\t// in\n    tag_170:\n        /* \"#utility.yul\":3857:3920   */\n      swap2\n      pop\n        /* \"#utility.yul\":3813:3930   */\n      pop\n        /* \"#utility.yul\":3608:3937   */\n      swap3\n      swap2\n      pop\n      pop\n      jump\t// out\n        /* \"#utility.yul\":3943:4482   */\n    tag_23:\n        /* \"#utility.yul\":4027:4033   */\n      0x00\n        /* \"#utility.yul\":4076:4078   */\n      0x20\n        /* \"#utility.yul\":4064:4073   */\n      dup3\n        /* \"#utility.yul\":4055:4062   */\n      dup5\n        /* \"#utility.yul\":4051:4074   */\n      sub\n        /* \"#utility.yul\":4047:4079   */\n      slt\n        /* \"#utility.yul\":4044:4163   */\n      iszero\n      tag_172\n      jumpi\n        /* \"#utility.yul\":4082:4161   */\n      tag_173\n      tag_169\n      jump\t// in\n    tag_173:\n        /* \"#utility.yul\":4044:4163   */\n    tag_172:\n        /* \"#utility.yul\":4230:4231   */\n      0x00\n        /* \"#utility.yul\":4219:4228   */\n      dup3\n        /* \"#utility.yul\":4215:4232   */\n      add\n        /* \"#utility.yul\":4202:4233   */\n      calldataload\n        /* \"#utility.yul\":4260:4278   */\n      0xffffffffffffffff\n        /* \"#utility.yul\":4252:4258   */\n      dup2\n        /* \"#utility.yul\":4249:4279   */\n      gt\n        /* \"#utility.yul\":4246:4363   */\n      iszero\n      tag_174\n      jumpi\n        /* \"#utility.yul\":4282:4361   */\n      tag_175\n      tag_176\n      jump\t// in\n    tag_175:\n        /* \"#utility.yul\":4246:4363   */\n    tag_174:\n        /* \"#utility.yul\":4387:4465   */\n      tag_177\n        /* \"#utility.yul\":4457:4464   */\n      dup5\n        /* \"#utility.yul\":4448:4454   */\n      dup3\n        /* \"#utility.yul\":4437:4446   */\n      dup6\n        /* \"#utility.yul\":4433:4455   */\n      add\n        /* \"#utility.yul\":4387:4465   */\n      tag_148\n      jump\t// in\n    tag_177:\n        /* \"#utility.yul\":4377:4465   */\n      swap2\n      pop\n        /* \"#utility.yul\":4173:4475   */\n      pop\n        /* \"#utility.yul\":3943:4482   */\n      swap3\n      swap2\n      pop\n      pop\n      jump\t// out\n        /* \"#utility.yul\":4488:5402   */\n    tag_16:\n        /* \"#utility.yul\":4616:4622   */\n      0x00\n        /* \"#utility.yul\":4624:4630   */\n      dup1\n        /* \"#utility.yul\":4673:4675   */\n      0x40\n        /* \"#utility.yul\":4661:4670   */\n      dup4\n        /* \"#utility.yul\":4652:4659   */\n      dup6\n        /* \"#utility.yul\":4648:4671   */\n      sub\n        /* \"#utility.yul\":4644:4676   */\n      slt\n        /* \"#utility.yul\":4641:4760   */\n      iszero\n      tag_179\n      jumpi\n        /* \"#utility.yul\":4679:4758   */\n      tag_180\n      tag_169\n      jump\t// in\n    tag_180:\n        /* \"#utility.yul\":4641:4760   */\n    tag_179:\n        /* \"#utility.yul\":4827:4828   */\n      0x00\n        /* \"#utility.yul\":4816:4825   */\n      dup4\n        /* \"#utility.yul\":4812:4829   */\n      add\n        /* \"#utility.yul\":4799:4830   */\n      calldataload\n        /* \"#utility.yul\":4857:4875   */\n      0xffffffffffffffff\n        /* \"#utility.yul\":4849:4855   */\n      dup2\n        /* \"#utility.yul\":4846:4876   */\n      gt\n        /* \"#utility.yul\":4843:4960   */\n      iszero\n      tag_181\n      jumpi\n        /* \"#utility.yul\":4879:4958   */\n      tag_182\n      tag_176\n      jump\t// in\n    tag_182:\n        /* \"#utility.yul\":4843:4960   */\n    tag_181:\n        /* \"#utility.yul\":4984:5062   */\n      tag_183\n        /* \"#utility.yul\":5054:5061   */\n      dup6\n        /* \"#utility.yul\":5045:5051   */\n      dup3\n        /* \"#utility.yul\":5034:5043   */\n      dup7\n        /* \"#utility.yul\":5030:5052   */\n      add\n        /* \"#utility.yul\":4984:5062   */\n      tag_148\n      jump\t// in\n    tag_183:\n        /* \"#utility.yul\":4974:5062   */\n      swap3\n      pop\n        /* \"#utility.yul\":4770:5072   */\n      pop\n        /* \"#utility.yul\":5139:5141   */\n      0x20\n        /* \"#utility.yul\":5128:5137   */\n      dup4\n        /* \"#utility.yul\":5124:5142   */\n      add\n        /* \"#utility.yul\":5111:5143   */\n      calldataload\n        /* \"#utility.yul\":5170:5188   */\n      0xffffffffffffffff\n        /* \"#utility.yul\":5162:5168   */\n      dup2\n        /* \"#utility.yul\":5159:5189   */\n      gt\n        /* \"#utility.yul\":5156:5273   */\n      iszero\n      tag_184\n      jumpi\n        /* \"#utility.yul\":5192:5271   */\n      tag_185\n      tag_176\n      jump\t// in\n    tag_185:\n        /* \"#utility.yul\":5156:5273   */\n    tag_184:\n        /* \"#utility.yul\":5297:5385   */\n      tag_186\n        /* \"#utility.yul\":5377:5384   */\n      dup6\n        /* \"#utility.yul\":5368:5374   */\n      dup3\n        /* \"#utility.yul\":5357:5366   */\n      dup7\n        /* \"#utility.yul\":5353:5375   */\n      add\n        /* \"#utility.yul\":5297:5385   */\n      tag_153\n      jump\t// in\n    tag_186:\n        /* \"#utility.yul\":5287:5385   */\n      swap2\n      pop\n        /* \"#utility.yul\":5082:5395   */\n      pop\n        /* \"#utility.yul\":4488:5402   */\n      swap3\n      pop\n      swap3\n      swap1\n      pop\n      jump\t// out\n        /* \"#utility.yul\":5408:5759   */\n    tag_36:\n        /* \"#utility.yul\":5478:5484   */\n      0x00\n        /* \"#utility.yul\":5527:5529   */\n      0x20\n        /* \"#utility.yul\":5515:5524   */\n      dup3\n        /* \"#utility.yul\":5506:5513   */\n      dup5\n        /* \"#utility.yul\":5502:5525   */\n      sub\n        /* \"#utility.yul\":5498:5530   */\n      slt\n        /* \"#utility.yul\":5495:5614   */\n      iszero\n      tag_188\n      jumpi\n        /* \"#utility.yul\":5533:5612   */\n      tag_189\n      tag_169\n      jump\t// in\n    tag_189:\n        /* \"#utility.yul\":5495:5614   */\n    tag_188:\n        /* \"#utility.yul\":5653:5654   */\n      0x00\n        /* \"#utility.yul\":5678:5742   */\n      tag_190\n        /* \"#utility.yul\":5734:5741   */\n      dup5\n        /* \"#utility.yul\":5725:5731   */\n      dup3\n        /* \"#utility.yul\":5714:5723   */\n      dup6\n        /* \"#utility.yul\":5710:5732   */\n      add\n        /* \"#utility.yul\":5678:5742   */\n      tag_162\n      jump\t// in\n    tag_190:\n        /* \"#utility.yul\":5668:5742   */\n      swap2\n      pop\n        /* \"#utility.yul\":5624:5752   */\n      pop\n        /* \"#utility.yul\":5408:5759   */\n      swap3\n      swap2\n      pop\n      pop\n      jump\t// out\n        /* \"#utility.yul\":5765:5883   */\n    tag_191:\n        /* \"#utility.yul\":5852:5876   */\n      tag_193\n        /* \"#utility.yul\":5870:5875   */\n      dup2\n        /* \"#utility.yul\":5852:5876   */\n      tag_194\n      jump\t// in\n    tag_193:\n        /* \"#utility.yul\":5847:5850   */\n      dup3\n        /* \"#utility.yul\":5840:5877   */\n      mstore\n        /* \"#utility.yul\":5765:5883   */\n      pop\n      pop\n      jump\t// out\n        /* \"#utility.yul\":5889:6046   */\n    tag_195:\n        /* \"#utility.yul\":5989:6039   */\n      tag_197\n        /* \"#utility.yul\":6033:6038   */\n      dup2\n        /* \"#utility.yul\":5989:6039   */\n      tag_198\n      jump\t// in\n    tag_197:\n        /* \"#utility.yul\":5984:5987   */\n      dup3\n        /* \"#utility.yul\":5977:6040   */\n      mstore\n        /* \"#utility.yul\":5889:6046   */\n      pop\n      pop\n      jump\t// out\n        /* \"#utility.yul\":6052:6199   */\n    tag_199:\n        /* \"#utility.yul\":6147:6192   */\n      tag_201\n        /* \"#utility.yul\":6186:6191   */\n      dup2\n        /* \"#utility.yul\":6147:6192   */\n      tag_202\n      jump\t// in\n    tag_201:\n        /* \"#utility.yul\":6142:6145   */\n      dup3\n        /* \"#utility.yul\":6135:6193   */\n      mstore\n        /* \"#utility.yul\":6052:6199   */\n      pop\n      pop\n      jump\t// out\n        /* \"#utility.yul\":6205:6352   */\n    tag_203:\n        /* \"#utility.yul\":6300:6345   */\n      tag_205\n        /* \"#utility.yul\":6339:6344   */\n      dup2\n        /* \"#utility.yul\":6300:6345   */\n      tag_206\n      jump\t// in\n    tag_205:\n        /* \"#utility.yul\":6295:6298   */\n      dup3\n        /* \"#utility.yul\":6288:6346   */\n      mstore\n        /* \"#utility.yul\":6205:6352   */\n      pop\n      pop\n      jump\t// out\n        /* \"#utility.yul\":6358:6724   */\n    tag_207:\n        /* \"#utility.yul\":6500:6503   */\n      0x00\n        /* \"#utility.yul\":6521:6588   */\n      tag_209\n        /* \"#utility.yul\":6585:6587   */\n      0x14\n        /* \"#utility.yul\":6580:6583   */\n      dup4\n        /* \"#utility.yul\":6521:6588   */\n      tag_210\n      jump\t// in\n    tag_209:\n        /* \"#utility.yul\":6514:6588   */\n      swap2\n      pop\n        /* \"#utility.yul\":6597:6690   */\n      tag_211\n        /* \"#utility.yul\":6686:6689   */\n      dup3\n        /* \"#utility.yul\":6597:6690   */\n      tag_212\n      jump\t// in\n    tag_211:\n        /* \"#utility.yul\":6715:6717   */\n      0x20\n        /* \"#utility.yul\":6710:6713   */\n      dup3\n        /* \"#utility.yul\":6706:6718   */\n      add\n        /* \"#utility.yul\":6699:6718   */\n      swap1\n      pop\n        /* \"#utility.yul\":6358:6724   */\n      swap2\n      swap1\n      pop\n      jump\t// out\n        /* \"#utility.yul\":6730:7096   */\n    tag_213:\n        /* \"#utility.yul\":6872:6875   */\n      0x00\n        /* \"#utility.yul\":6893:6960   */\n      tag_215\n        /* \"#utility.yul\":6957:6959   */\n      0x0c\n        /* \"#utility.yul\":6952:6955   */\n      dup4\n        /* \"#utility.yul\":6893:6960   */\n      tag_210\n      jump\t// in\n    tag_215:\n        /* \"#utility.yul\":6886:6960   */\n      swap2\n      pop\n        /* \"#utility.yul\":6969:7062   */\n      tag_216\n        /* \"#utility.yul\":7058:7061   */\n      dup3\n        /* \"#utility.yul\":6969:7062   */\n      tag_217\n      jump\t// in\n    tag_216:\n        /* \"#utility.yul\":7087:7089   */\n      0x20\n        /* \"#utility.yul\":7082:7085   */\n      dup3\n        /* \"#utility.yul\":7078:7090   */\n      add\n        /* \"#utility.yul\":7071:7090   */\n      swap1\n      pop\n        /* \"#utility.yul\":6730:7096   */\n      swap2\n      swap1\n      pop\n      jump\t// out\n        /* \"#utility.yul\":7102:7468   */\n    tag_218:\n        /* \"#utility.yul\":7244:7247   */\n      0x00\n        /* \"#utility.yul\":7265:7332   */\n      tag_220\n        /* \"#utility.yul\":7329:7331   */\n      0x1b\n        /* \"#utility.yul\":7324:7327   */\n      dup4\n        /* \"#utility.yul\":7265:7332   */\n      tag_210\n      jump\t// in\n    tag_220:\n        /* \"#utility.yul\":7258:7332   */\n      swap2\n      pop\n        /* \"#utility.yul\":7341:7434   */\n      tag_221\n        /* \"#utility.yul\":7430:7433   */\n      dup3\n        /* \"#utility.yul\":7341:7434   */\n      tag_222\n      jump\t// in\n    tag_221:\n        /* \"#utility.yul\":7459:7461   */\n      0x20\n        /* \"#utility.yul\":7454:7457   */\n      dup3\n        /* \"#utility.yul\":7450:7462   */\n      add\n        /* \"#utility.yul\":7443:7462   */\n      swap1\n      pop\n        /* \"#utility.yul\":7102:7468   */\n      swap2\n      swap1\n      pop\n      jump\t// out\n        /* \"#utility.yul\":7474:7840   */\n    tag_223:\n        /* \"#utility.yul\":7616:7619   */\n      0x00\n        /* \"#utility.yul\":7637:7704   */\n      tag_225\n        /* \"#utility.yul\":7701:7703   */\n      0x14\n        /* \"#utility.yul\":7696:7699   */\n      dup4\n        /* \"#utility.yul\":7637:7704   */\n      tag_210\n      jump\t// in\n    tag_225:\n        /* \"#utility.yul\":7630:7704   */\n      swap2\n      pop\n        /* \"#utility.yul\":7713:7806   */\n      tag_226\n        /* \"#utility.yul\":7802:7805   */\n      dup3\n        /* \"#utility.yul\":7713:7806   */\n      tag_227\n      jump\t// in\n    tag_226:\n        /* \"#utility.yul\":7831:7833   */\n      0x20\n        /* \"#utility.yul\":7826:7829   */\n      dup3\n        /* \"#utility.yul\":7822:7834   */\n      add\n        /* \"#utility.yul\":7815:7834   */\n      swap1\n      pop\n        /* \"#utility.yul\":7474:7840   */\n      swap2\n      swap1\n      pop\n      jump\t// out\n        /* \"#utility.yul\":7846:8212   */\n    tag_228:\n        /* \"#utility.yul\":7988:7991   */\n      0x00\n        /* \"#utility.yul\":8009:8076   */\n      tag_230\n        /* \"#utility.yul\":8073:8075   */\n      0x14\n        /* \"#utility.yul\":8068:8071   */\n      dup4\n        /* \"#utility.yul\":8009:8076   */\n      tag_210\n      jump\t// in\n    tag_230:\n        /* \"#utility.yul\":8002:8076   */\n      swap2\n      pop\n        /* \"#utility.yul\":8085:8178   */\n      tag_231\n        /* \"#utility.yul\":8174:8177   */\n      dup3\n        /* \"#utility.yul\":8085:8178   */\n      tag_232\n      jump\t// in\n    tag_231:\n        /* \"#utility.yul\":8203:8205   */\n      0x20\n        /* \"#utility.yul\":8198:8201   */\n      dup3\n        /* \"#utility.yul\":8194:8206   */\n      add\n        /* \"#utility.yul\":8187:8206   */\n      swap1\n      pop\n        /* \"#utility.yul\":7846:8212   */\n      swap2\n      swap1\n      pop\n      jump\t// out\n        /* \"#utility.yul\":8218:8336   */\n    tag_233:\n        /* \"#utility.yul\":8305:8329   */\n      tag_235\n        /* \"#utility.yul\":8323:8328   */\n      dup2\n        /* \"#utility.yul\":8305:8329   */\n      tag_236\n      jump\t// in\n    tag_235:\n        /* \"#utility.yul\":8300:8303   */\n      dup3\n        /* \"#utility.yul\":8293:8330   */\n      mstore\n        /* \"#utility.yul\":8218:8336   */\n      pop\n      pop\n      jump\t// out\n        /* \"#utility.yul\":8342:8564   */\n    tag_31:\n        /* \"#utility.yul\":8435:8439   */\n      0x00\n        /* \"#utility.yul\":8473:8475   */\n      0x20\n        /* \"#utility.yul\":8462:8471   */\n      dup3\n        /* \"#utility.yul\":8458:8476   */\n      add\n        /* \"#utility.yul\":8450:8476   */\n      swap1\n      pop\n        /* \"#utility.yul\":8486:8557   */\n      tag_238\n        /* \"#utility.yul\":8554:8555   */\n      0x00\n        /* \"#utility.yul\":8543:8552   */\n      dup4\n        /* \"#utility.yul\":8539:8556   */\n      add\n        /* \"#utility.yul\":8530:8536   */\n      dup5\n        /* \"#utility.yul\":8486:8557   */\n      tag_191\n      jump\t// in\n    tag_238:\n        /* \"#utility.yul\":8342:8564   */\n      swap3\n      swap2\n      pop\n      pop\n      jump\t// out\n        /* \"#utility.yul\":8570:8918   */\n    tag_69:\n        /* \"#utility.yul\":8699:8703   */\n      0x00\n        /* \"#utility.yul\":8737:8739   */\n      0x40\n        /* \"#utility.yul\":8726:8735   */\n      dup3\n        /* \"#utility.yul\":8722:8740   */\n      add\n        /* \"#utility.yul\":8714:8740   */\n      swap1\n      pop\n        /* \"#utility.yul\":8750:8821   */\n      tag_240\n        /* \"#utility.yul\":8818:8819   */\n      0x00\n        /* \"#utility.yul\":8807:8816   */\n      dup4\n        /* \"#utility.yul\":8803:8820   */\n      add\n        /* \"#utility.yul\":8794:8800   */\n      dup6\n        /* \"#utility.yul\":8750:8821   */\n      tag_191\n      jump\t// in\n    tag_240:\n        /* \"#utility.yul\":8831:8911   */\n      tag_241\n        /* \"#utility.yul\":8907:8909   */\n      0x20\n        /* \"#utility.yul\":8896:8905   */\n      dup4\n        /* \"#utility.yul\":8892:8910   */\n      add\n        /* \"#utility.yul\":8883:8889   */\n      dup5\n        /* \"#utility.yul\":8831:8911   */\n      tag_199\n      jump\t// in\n    tag_241:\n        /* \"#utility.yul\":8570:8918   */\n      swap4\n      swap3\n      pop\n      pop\n      pop\n      jump\t// out\n        /* \"#utility.yul\":8924:9272   */\n    tag_85:\n        /* \"#utility.yul\":9053:9057   */\n      0x00\n        /* \"#utility.yul\":9091:9093   */\n      0x40\n        /* \"#utility.yul\":9080:9089   */\n      dup3\n        /* \"#utility.yul\":9076:9094   */\n      add\n        /* \"#utility.yul\":9068:9094   */\n      swap1\n      pop\n        /* \"#utility.yul\":9104:9175   */\n      tag_243\n        /* \"#utility.yul\":9172:9173   */\n      0x00\n        /* \"#utility.yul\":9161:9170   */\n      dup4\n        /* \"#utility.yul\":9157:9174   */\n      add\n        /* \"#utility.yul\":9148:9154   */\n      dup6\n        /* \"#utility.yul\":9104:9175   */\n      tag_191\n      jump\t// in\n    tag_243:\n        /* \"#utility.yul\":9185:9265   */\n      tag_244\n        /* \"#utility.yul\":9261:9263   */\n      0x20\n        /* \"#utility.yul\":9250:9259   */\n      dup4\n        /* \"#utility.yul\":9246:9264   */\n      add\n        /* \"#utility.yul\":9237:9243   */\n      dup5\n        /* \"#utility.yul\":9185:9265   */\n      tag_203\n      jump\t// in\n    tag_244:\n        /* \"#utility.yul\":8924:9272   */\n      swap4\n      swap3\n      pop\n      pop\n      pop\n      jump\t// out\n        /* \"#utility.yul\":9278:9526   */\n    tag_28:\n        /* \"#utility.yul\":9384:9388   */\n      0x00\n        /* \"#utility.yul\":9422:9424   */\n      0x20\n        /* \"#utility.yul\":9411:9420   */\n      dup3\n        /* \"#utility.yul\":9407:9425   */\n      add\n        /* \"#utility.yul\":9399:9425   */\n      swap1\n      pop\n        /* \"#utility.yul\":9435:9519   */\n      tag_246\n        /* \"#utility.yul\":9516:9517   */\n      0x00\n        /* \"#utility.yul\":9505:9514   */\n      dup4\n        /* \"#utility.yul\":9501:9518   */\n      add\n        /* \"#utility.yul\":9492:9498   */\n      dup5\n        /* \"#utility.yul\":9435:9519   */\n      tag_195\n      jump\t// in\n    tag_246:\n        /* \"#utility.yul\":9278:9526   */\n      swap3\n      swap2\n      pop\n      pop\n      jump\t// out\n        /* \"#utility.yul\":9532:9951   */\n    tag_40:\n        /* \"#utility.yul\":9698:9702   */\n      0x00\n        /* \"#utility.yul\":9736:9738   */\n      0x20\n        /* \"#utility.yul\":9725:9734   */\n      dup3\n        /* \"#utility.yul\":9721:9739   */\n      add\n        /* \"#utility.yul\":9713:9739   */\n      swap1\n      pop\n        /* \"#utility.yul\":9785:9794   */\n      dup2\n        /* \"#utility.yul\":9779:9783   */\n      dup2\n        /* \"#utility.yul\":9775:9795   */\n      sub\n        /* \"#utility.yul\":9771:9772   */\n      0x00\n        /* \"#utility.yul\":9760:9769   */\n      dup4\n        /* \"#utility.yul\":9756:9773   */\n      add\n        /* \"#utility.yul\":9749:9796   */\n      mstore\n        /* \"#utility.yul\":9813:9944   */\n      tag_248\n        /* \"#utility.yul\":9939:9943   */\n      dup2\n        /* \"#utility.yul\":9813:9944   */\n      tag_207\n      jump\t// in\n    tag_248:\n        /* \"#utility.yul\":9805:9944   */\n      swap1\n      pop\n        /* \"#utility.yul\":9532:9951   */\n      swap2\n      swap1\n      pop\n      jump\t// out\n        /* \"#utility.yul\":9957:10376   */\n    tag_56:\n        /* \"#utility.yul\":10123:10127   */\n      0x00\n        /* \"#utility.yul\":10161:10163   */\n      0x20\n        /* \"#utility.yul\":10150:10159   */\n      dup3\n        /* \"#utility.yul\":10146:10164   */\n      add\n        /* \"#utility.yul\":10138:10164   */\n      swap1\n      pop\n        /* \"#utility.yul\":10210:10219   */\n      dup2\n        /* \"#utility.yul\":10204:10208   */\n      dup2\n        /* \"#utility.yul\":10200:10220   */\n      sub\n        /* \"#utility.yul\":10196:10197   */\n      0x00\n        /* \"#utility.yul\":10185:10194   */\n      dup4\n        /* \"#utility.yul\":10181:10198   */\n      add\n        /* \"#utility.yul\":10174:10221   */\n      mstore\n        /* \"#utility.yul\":10238:10369   */\n      tag_250\n        /* \"#utility.yul\":10364:10368   */\n      dup2\n        /* \"#utility.yul\":10238:10369   */\n      tag_213\n      jump\t// in\n    tag_250:\n        /* \"#utility.yul\":10230:10369   */\n      swap1\n      pop\n        /* \"#utility.yul\":9957:10376   */\n      swap2\n      swap1\n      pop\n      jump\t// out\n        /* \"#utility.yul\":10382:10801   */\n    tag_76:\n        /* \"#utility.yul\":10548:10552   */\n      0x00\n        /* \"#utility.yul\":10586:10588   */\n      0x20\n        /* \"#utility.yul\":10575:10584   */\n      dup3\n        /* \"#utility.yul\":10571:10589   */\n      add\n        /* \"#utility.yul\":10563:10589   */\n      swap1\n      pop\n        /* \"#utility.yul\":10635:10644   */\n      dup2\n        /* \"#utility.yul\":10629:10633   */\n      dup2\n        /* \"#utility.yul\":10625:10645   */\n      sub\n        /* \"#utility.yul\":10621:10622   */\n      0x00\n        /* \"#utility.yul\":10610:10619   */\n      dup4\n        /* \"#utility.yul\":10606:10623   */\n      add\n        /* \"#utility.yul\":10599:10646   */\n      mstore\n        /* \"#utility.yul\":10663:10794   */\n      tag_252\n        /* \"#utility.yul\":10789:10793   */\n      dup2\n        /* \"#utility.yul\":10663:10794   */\n      tag_218\n      jump\t// in\n    tag_252:\n        /* \"#utility.yul\":10655:10794   */\n      swap1\n      pop\n        /* \"#utility.yul\":10382:10801   */\n      swap2\n      swap1\n      pop\n      jump\t// out\n        /* \"#utility.yul\":10807:11226   */\n    tag_59:\n        /* \"#utility.yul\":10973:10977   */\n      0x00\n        /* \"#utility.yul\":11011:11013   */\n      0x20\n        /* \"#utility.yul\":11000:11009   */\n      dup3\n        /* \"#utility.yul\":10996:11014   */\n      add\n        /* \"#utility.yul\":10988:11014   */\n      swap1\n      pop\n        /* \"#utility.yul\":11060:11069   */\n      dup2\n        /* \"#utility.yul\":11054:11058   */\n      dup2\n        /* \"#utility.yul\":11050:11070   */\n      sub\n        /* \"#utility.yul\":11046:11047   */\n      0x00\n        /* \"#utility.yul\":11035:11044   */\n      dup4\n        /* \"#utility.yul\":11031:11048   */\n      add\n        /* \"#utility.yul\":11024:11071   */\n      mstore\n        /* \"#utility.yul\":11088:11219   */\n      tag_254\n        /* \"#utility.yul\":11214:11218   */\n      dup2\n        /* \"#utility.yul\":11088:11219   */\n      tag_223\n      jump\t// in\n    tag_254:\n        /* \"#utility.yul\":11080:11219   */\n      swap1\n      pop\n        /* \"#utility.yul\":10807:11226   */\n      swap2\n      swap1\n      pop\n      jump\t// out\n        /* \"#utility.yul\":11232:11651   */\n    tag_67:\n        /* \"#utility.yul\":11398:11402   */\n      0x00\n        /* \"#utility.yul\":11436:11438   */\n      0x20\n        /* \"#utility.yul\":11425:11434   */\n      dup3\n        /* \"#utility.yul\":11421:11439   */\n      add\n        /* \"#utility.yul\":11413:11439   */\n      swap1\n      pop\n        /* \"#utility.yul\":11485:11494   */\n      dup2\n        /* \"#utility.yul\":11479:11483   */\n      dup2\n        /* \"#utility.yul\":11475:11495   */\n      sub\n        /* \"#utility.yul\":11471:11472   */\n      0x00\n        /* \"#utility.yul\":11460:11469   */\n      dup4\n        /* \"#utility.yul\":11456:11473   */\n      add\n        /* \"#utility.yul\":11449:11496   */\n      mstore\n        /* \"#utility.yul\":11513:11644   */\n      tag_256\n        /* \"#utility.yul\":11639:11643   */\n      dup2\n        /* \"#utility.yul\":11513:11644   */\n      tag_228\n      jump\t// in\n    tag_256:\n        /* \"#utility.yul\":11505:11644   */\n      swap1\n      pop\n        /* \"#utility.yul\":11232:11651   */\n      swap2\n      swap1\n      pop\n      jump\t// out\n        /* \"#utility.yul\":11657:11879   */\n    tag_13:\n        /* \"#utility.yul\":11750:11754   */\n      0x00\n        /* \"#utility.yul\":11788:11790   */\n      0x20\n        /* \"#utility.yul\":11777:11786   */\n      dup3\n        /* \"#utility.yul\":11773:11791   */\n      add\n        /* \"#utility.yul\":11765:11791   */\n      swap1\n      pop\n        /* \"#utility.yul\":11801:11872   */\n      tag_258\n        /* \"#utility.yul\":11869:11870   */\n      0x00\n        /* \"#utility.yul\":11858:11867   */\n      dup4\n        /* \"#utility.yul\":11854:11871   */\n      add\n        /* \"#utility.yul\":11845:11851   */\n      dup5\n        /* \"#utility.yul\":11801:11872   */\n      tag_233\n      jump\t// in\n    tag_258:\n        /* \"#utility.yul\":11657:11879   */\n      swap3\n      swap2\n      pop\n      pop\n      jump\t// out\n        /* \"#utility.yul\":11885:12014   */\n    tag_111:\n        /* \"#utility.yul\":11919:11925   */\n      0x00\n        /* \"#utility.yul\":11946:11966   */\n      tag_260\n      tag_261\n      jump\t// in\n    tag_260:\n        /* \"#utility.yul\":11936:11966   */\n      swap1\n      pop\n        /* \"#utility.yul\":11975:12008   */\n      tag_262\n        /* \"#utility.yul\":12003:12007   */\n      dup3\n        /* \"#utility.yul\":11995:12001   */\n      dup3\n        /* \"#utility.yul\":11975:12008   */\n      tag_263\n      jump\t// in\n    tag_262:\n        /* \"#utility.yul\":11885:12014   */\n      swap2\n      swap1\n      pop\n      jump\t// out\n        /* \"#utility.yul\":12020:12095   */\n    tag_261:\n        /* \"#utility.yul\":12053:12059   */\n      0x00\n        /* \"#utility.yul\":12086:12088   */\n      0x40\n        /* \"#utility.yul\":12080:12089   */\n      mload\n        /* \"#utility.yul\":12070:12089   */\n      swap1\n      pop\n        /* \"#utility.yul\":12020:12095   */\n      swap1\n      jump\t// out\n        /* \"#utility.yul\":12101:12412   */\n    tag_110:\n        /* \"#utility.yul\":12178:12182   */\n      0x00\n        /* \"#utility.yul\":12268:12286   */\n      0xffffffffffffffff\n        /* \"#utility.yul\":12260:12266   */\n      dup3\n        /* \"#utility.yul\":12257:12287   */\n      gt\n        /* \"#utility.yul\":12254:12310   */\n      iszero\n      tag_266\n      jumpi\n        /* \"#utility.yul\":12290:12308   */\n      tag_267\n      tag_268\n      jump\t// in\n    tag_267:\n        /* \"#utility.yul\":12254:12310   */\n    tag_266:\n        /* \"#utility.yul\":12340:12344   */\n      0x20\n        /* \"#utility.yul\":12332:12338   */\n      dup3\n        /* \"#utility.yul\":12328:12345   */\n      mul\n        /* \"#utility.yul\":12320:12345   */\n      swap1\n      pop\n        /* \"#utility.yul\":12400:12404   */\n      0x20\n        /* \"#utility.yul\":12394:12398   */\n      dup2\n        /* \"#utility.yul\":12390:12405   */\n      add\n        /* \"#utility.yul\":12382:12405   */\n      swap1\n      pop\n        /* \"#utility.yul\":12101:12412   */\n      swap2\n      swap1\n      pop\n      jump\t// out\n        /* \"#utility.yul\":12418:12739   */\n    tag_124:\n        /* \"#utility.yul\":12505:12509   */\n      0x00\n        /* \"#utility.yul\":12595:12613   */\n      0xffffffffffffffff\n        /* \"#utility.yul\":12587:12593   */\n      dup3\n        /* \"#utility.yul\":12584:12614   */\n      gt\n        /* \"#utility.yul\":12581:12637   */\n      iszero\n      tag_270\n      jumpi\n        /* \"#utility.yul\":12617:12635   */\n      tag_271\n      tag_268\n      jump\t// in\n    tag_271:\n        /* \"#utility.yul\":12581:12637   */\n    tag_270:\n        /* \"#utility.yul\":12667:12671   */\n      0x20\n        /* \"#utility.yul\":12659:12665   */\n      dup3\n        /* \"#utility.yul\":12655:12672   */\n      mul\n        /* \"#utility.yul\":12647:12672   */\n      swap1\n      pop\n        /* \"#utility.yul\":12727:12731   */\n      0x20\n        /* \"#utility.yul\":12721:12725   */\n      dup2\n        /* \"#utility.yul\":12717:12732   */\n      add\n        /* \"#utility.yul\":12709:12732   */\n      swap1\n      pop\n        /* \"#utility.yul\":12418:12739   */\n      swap2\n      swap1\n      pop\n      jump\t// out\n        /* \"#utility.yul\":12745:13053   */\n    tag_139:\n        /* \"#utility.yul\":12807:12811   */\n      0x00\n        /* \"#utility.yul\":12897:12915   */\n      0xffffffffffffffff\n        /* \"#utility.yul\":12889:12895   */\n      dup3\n        /* \"#utility.yul\":12886:12916   */\n      gt\n        /* \"#utility.yul\":12883:12939   */\n      iszero\n      tag_273\n      jumpi\n        /* \"#utility.yul\":12919:12937   */\n      tag_274\n      tag_268\n      jump\t// in\n    tag_274:\n        /* \"#utility.yul\":12883:12939   */\n    tag_273:\n        /* \"#utility.yul\":12957:12986   */\n      tag_275\n        /* \"#utility.yul\":12979:12985   */\n      dup3\n        /* \"#utility.yul\":12957:12986   */\n      tag_276\n      jump\t// in\n    tag_275:\n        /* \"#utility.yul\":12949:12986   */\n      swap1\n      pop\n        /* \"#utility.yul\":13041:13045   */\n      0x20\n        /* \"#utility.yul\":13035:13039   */\n      dup2\n        /* \"#utility.yul\":13031:13046   */\n      add\n        /* \"#utility.yul\":13023:13046   */\n      swap1\n      pop\n        /* \"#utility.yul\":12745:13053   */\n      swap2\n      swap1\n      pop\n      jump\t// out\n        /* \"#utility.yul\":13059:13228   */\n    tag_210:\n        /* \"#utility.yul\":13143:13154   */\n      0x00\n        /* \"#utility.yul\":13177:13183   */\n      dup3\n        /* \"#utility.yul\":13172:13175   */\n      dup3\n        /* \"#utility.yul\":13165:13184   */\n      mstore\n        /* \"#utility.yul\":13217:13221   */\n      0x20\n        /* \"#utility.yul\":13212:13215   */\n      dup3\n        /* \"#utility.yul\":13208:13222   */\n      add\n        /* \"#utility.yul\":13193:13222   */\n      swap1\n      pop\n        /* \"#utility.yul\":13059:13228   */\n      swap3\n      swap2\n      pop\n      pop\n      jump\t// out\n        /* \"#utility.yul\":13234:13330   */\n    tag_194:\n        /* \"#utility.yul\":13271:13278   */\n      0x00\n        /* \"#utility.yul\":13300:13324   */\n      tag_279\n        /* \"#utility.yul\":13318:13323   */\n      dup3\n        /* \"#utility.yul\":13300:13324   */\n      tag_280\n      jump\t// in\n    tag_279:\n        /* \"#utility.yul\":13289:13324   */\n      swap1\n      pop\n        /* \"#utility.yul\":13234:13330   */\n      swap2\n      swap1\n      pop\n      jump\t// out\n        /* \"#utility.yul\":13336:13462   */\n    tag_280:\n        /* \"#utility.yul\":13373:13380   */\n      0x00\n        /* \"#utility.yul\":13413:13455   */\n      0xffffffffffffffffffffffffffffffffffffffff\n        /* \"#utility.yul\":13406:13411   */\n      dup3\n        /* \"#utility.yul\":13402:13456   */\n      and\n        /* \"#utility.yul\":13391:13456   */\n      swap1\n      pop\n        /* \"#utility.yul\":13336:13462   */\n      swap2\n      swap1\n      pop\n      jump\t// out\n        /* \"#utility.yul\":13468:13545   */\n    tag_236:\n        /* \"#utility.yul\":13505:13512   */\n      0x00\n        /* \"#utility.yul\":13534:13539   */\n      dup2\n        /* \"#utility.yul\":13523:13539   */\n      swap1\n      pop\n        /* \"#utility.yul\":13468:13545   */\n      swap2\n      swap1\n      pop\n      jump\t// out\n        /* \"#utility.yul\":13551:13690   */\n    tag_198:\n        /* \"#utility.yul\":13614:13623   */\n      0x00\n        /* \"#utility.yul\":13647:13684   */\n      tag_284\n        /* \"#utility.yul\":13678:13683   */\n      dup3\n        /* \"#utility.yul\":13647:13684   */\n      tag_285\n      jump\t// in\n    tag_284:\n        /* \"#utility.yul\":13634:13684   */\n      swap1\n      pop\n        /* \"#utility.yul\":13551:13690   */\n      swap2\n      swap1\n      pop\n      jump\t// out\n        /* \"#utility.yul\":13696:13817   */\n    tag_202:\n        /* \"#utility.yul\":13754:13763   */\n      0x00\n        /* \"#utility.yul\":13787:13811   */\n      tag_287\n        /* \"#utility.yul\":13805:13810   */\n      dup3\n        /* \"#utility.yul\":13787:13811   */\n      tag_236\n      jump\t// in\n    tag_287:\n        /* \"#utility.yul\":13774:13811   */\n      swap1\n      pop\n        /* \"#utility.yul\":13696:13817   */\n      swap2\n      swap1\n      pop\n      jump\t// out\n        /* \"#utility.yul\":13823:13944   */\n    tag_206:\n        /* \"#utility.yul\":13881:13890   */\n      0x00\n        /* \"#utility.yul\":13914:13938   */\n      tag_289\n        /* \"#utility.yul\":13932:13937   */\n      dup3\n        /* \"#utility.yul\":13914:13938   */\n      tag_236\n      jump\t// in\n    tag_289:\n        /* \"#utility.yul\":13901:13938   */\n      swap1\n      pop\n        /* \"#utility.yul\":13823:13944   */\n      swap2\n      swap1\n      pop\n      jump\t// out\n        /* \"#utility.yul\":13950:14076   */\n    tag_285:\n        /* \"#utility.yul\":14000:14009   */\n      0x00\n        /* \"#utility.yul\":14033:14070   */\n      tag_291\n        /* \"#utility.yul\":14064:14069   */\n      dup3\n        /* \"#utility.yul\":14033:14070   */\n      tag_292\n      jump\t// in\n    tag_291:\n        /* \"#utility.yul\":14020:14070   */\n      swap1\n      pop\n        /* \"#utility.yul\":13950:14076   */\n      swap2\n      swap1\n      pop\n      jump\t// out\n        /* \"#utility.yul\":14082:14195   */\n    tag_292:\n        /* \"#utility.yul\":14132:14141   */\n      0x00\n        /* \"#utility.yul\":14165:14189   */\n      tag_294\n        /* \"#utility.yul\":14183:14188   */\n      dup3\n        /* \"#utility.yul\":14165:14189   */\n      tag_280\n      jump\t// in\n    tag_294:\n        /* \"#utility.yul\":14152:14189   */\n      swap1\n      pop\n        /* \"#utility.yul\":14082:14195   */\n      swap2\n      swap1\n      pop\n      jump\t// out\n        /* \"#utility.yul\":14201:14355   */\n    tag_144:\n        /* \"#utility.yul\":14285:14291   */\n      dup3\n        /* \"#utility.yul\":14280:14283   */\n      dup2\n        /* \"#utility.yul\":14275:14278   */\n      dup4\n        /* \"#utility.yul\":14262:14292   */\n      calldatacopy\n        /* \"#utility.yul\":14347:14348   */\n      0x00\n        /* \"#utility.yul\":14338:14344   */\n      dup4\n        /* \"#utility.yul\":14333:14336   */\n      dup4\n        /* \"#utility.yul\":14329:14345   */\n      add\n        /* \"#utility.yul\":14322:14349   */\n      mstore\n        /* \"#utility.yul\":14201:14355   */\n      pop\n      pop\n      pop\n      jump\t// out\n        /* \"#utility.yul\":14361:14681   */\n    tag_95:\n        /* \"#utility.yul\":14405:14411   */\n      0x00\n        /* \"#utility.yul\":14442:14443   */\n      0x02\n        /* \"#utility.yul\":14436:14440   */\n      dup3\n        /* \"#utility.yul\":14432:14444   */\n      div\n        /* \"#utility.yul\":14422:14444   */\n      swap1\n      pop\n        /* \"#utility.yul\":14489:14490   */\n      0x01\n        /* \"#utility.yul\":14483:14487   */\n      dup3\n        /* \"#utility.yul\":14479:14491   */\n      and\n        /* \"#utility.yul\":14510:14528   */\n      dup1\n        /* \"#utility.yul\":14500:14581   */\n      tag_297\n      jumpi\n        /* \"#utility.yul\":14566:14570   */\n      0x7f\n        /* \"#utility.yul\":14558:14564   */\n      dup3\n        /* \"#utility.yul\":14554:14571   */\n      and\n        /* \"#utility.yul\":14544:14571   */\n      swap2\n      pop\n        /* \"#utility.yul\":14500:14581   */\n    tag_297:\n        /* \"#utility.yul\":14628:14630   */\n      0x20\n        /* \"#utility.yul\":14620:14626   */\n      dup3\n        /* \"#utility.yul\":14617:14631   */\n      lt\n        /* \"#utility.yul\":14597:14615   */\n      dup2\n        /* \"#utility.yul\":14594:14632   */\n      eq\n        /* \"#utility.yul\":14591:14675   */\n      iszero\n      tag_298\n      jumpi\n        /* \"#utility.yul\":14647:14665   */\n      tag_299\n      tag_300\n      jump\t// in\n    tag_299:\n        /* \"#utility.yul\":14591:14675   */\n    tag_298:\n        /* \"#utility.yul\":14412:14681   */\n      pop\n        /* \"#utility.yul\":14361:14681   */\n      swap2\n      swap1\n      pop\n      jump\t// out\n        /* \"#utility.yul\":14687:14968   */\n    tag_263:\n        /* \"#utility.yul\":14770:14797   */\n      tag_302\n        /* \"#utility.yul\":14792:14796   */\n      dup3\n        /* \"#utility.yul\":14770:14797   */\n      tag_276\n      jump\t// in\n    tag_302:\n        /* \"#utility.yul\":14762:14768   */\n      dup2\n        /* \"#utility.yul\":14758:14798   */\n      add\n        /* \"#utility.yul\":14900:14906   */\n      dup2\n        /* \"#utility.yul\":14888:14898   */\n      dup2\n        /* \"#utility.yul\":14885:14907   */\n      lt\n        /* \"#utility.yul\":14864:14882   */\n      0xffffffffffffffff\n        /* \"#utility.yul\":14852:14862   */\n      dup3\n        /* \"#utility.yul\":14849:14883   */\n      gt\n        /* \"#utility.yul\":14846:14908   */\n      or\n        /* \"#utility.yul\":14843:14931   */\n      iszero\n      tag_303\n      jumpi\n        /* \"#utility.yul\":14911:14929   */\n      tag_304\n      tag_268\n      jump\t// in\n    tag_304:\n        /* \"#utility.yul\":14843:14931   */\n    tag_303:\n        /* \"#utility.yul\":14951:14961   */\n      dup1\n        /* \"#utility.yul\":14947:14949   */\n      0x40\n        /* \"#utility.yul\":14940:14962   */\n      mstore\n        /* \"#utility.yul\":14730:14968   */\n      pop\n        /* \"#utility.yul\":14687:14968   */\n      pop\n      pop\n      jump\t// out\n        /* \"#utility.yul\":14974:15207   */\n    tag_52:\n        /* \"#utility.yul\":15013:15016   */\n      0x00\n        /* \"#utility.yul\":15036:15060   */\n      tag_306\n        /* \"#utility.yul\":15054:15059   */\n      dup3\n        /* \"#utility.yul\":15036:15060   */\n      tag_236\n      jump\t// in\n    tag_306:\n        /* \"#utility.yul\":15027:15060   */\n      swap2\n      pop\n        /* \"#utility.yul\":15082:15148   */\n      0xffffffffffffffffffffffffffffffffffffffffffffffffffffffffffffffff\n        /* \"#utility.yul\":15075:15080   */\n      dup3\n        /* \"#utility.yul\":15072:15149   */\n      eq\n        /* \"#utility.yul\":15069:15172   */\n      iszero\n      tag_307\n      jumpi\n        /* \"#utility.yul\":15152:15170   */\n      tag_308\n      tag_309\n      jump\t// in\n    tag_308:\n        /* \"#utility.yul\":15069:15172   */\n    tag_307:\n        /* \"#utility.yul\":15199:15200   */\n      0x01\n        /* \"#utility.yul\":15192:15197   */\n      dup3\n        /* \"#utility.yul\":15188:15201   */\n      add\n        /* \"#utility.yul\":15181:15201   */\n      swap1\n      pop\n        /* \"#utility.yul\":14974:15207   */\n      swap2\n      swap1\n      pop\n      jump\t// out\n        /* \"#utility.yul\":15213:15393   */\n    tag_309:\n        /* \"#utility.yul\":15261:15338   */\n      0x4e487b7100000000000000000000000000000000000000000000000000000000\n        /* \"#utility.yul\":15258:15259   */\n      0x00\n        /* \"#utility.yul\":15251:15339   */\n      mstore\n        /* \"#utility.yul\":15358:15362   */\n      0x11\n        /* \"#utility.yul\":15355:15356   */\n      0x04\n        /* \"#utility.yul\":15348:15363   */\n      mstore\n        /* \"#utility.yul\":15382:15386   */\n      0x24\n        /* \"#utility.yul\":15379:15380   */\n      0x00\n        /* \"#utility.yul\":15372:15387   */\n      revert\n        /* \"#utility.yul\":15399:15579   */\n    tag_300:\n        /* \"#utility.yul\":15447:15524   */\n      0x4e487b7100000000000000000000000000000000000000000000000000000000\n        /* \"#utility.yul\":15444:15445   */\n      0x00\n        /* \"#utility.yul\":15437:15525   */\n      mstore\n        /* \"#utility.yul\":15544:15548   */\n      0x22\n        /* \"#utility.yul\":15541:15542   */\n      0x04\n        /* \"#utility.yul\":15534:15549   */\n      mstore\n        /* \"#utility.yul\":15568:15572   */\n      0x24\n        /* \"#utility.yul\":15565:15566   */\n      0x00\n        /* \"#utility.yul\":15558:15573   */\n      revert\n        /* \"#utility.yul\":15585:15765   */\n    tag_46:\n        /* \"#utility.yul\":15633:15710   */\n      0x4e487b7100000000000000000000000000000000000000000000000000000000\n        /* \"#utility.yul\":15630:15631   */\n      0x00\n        /* \"#utility.yul\":15623:15711   */\n      mstore\n        /* \"#utility.yul\":15730:15734   */\n      0x32\n        /* \"#utility.yul\":15727:15728   */\n      0x04\n        /* \"#utility.yul\":15720:15735   */\n      mstore\n        /* \"#utility.yul\":15754:15758   */\n      0x24\n        /* \"#utility.yul\":15751:15752   */\n      0x00\n        /* \"#utility.yul\":15744:15759   */\n      revert\n        /* \"#utility.yul\":15771:15951   */\n    tag_268:\n        /* \"#utility.yul\":15819:15896   */\n      0x4e487b7100000000000000000000000000000000000000000000000000000000\n        /* \"#utility.yul\":15816:15817   */\n      0x00\n        /* \"#utility.yul\":15809:15897   */\n      mstore\n        /* \"#utility.yul\":15916:15920   */\n      0x41\n        /* \"#utility.yul\":15913:15914   */\n      0x04\n        /* \"#utility.yul\":15906:15921   */\n      mstore\n        /* \"#utility.yul\":15940:15944   */\n      0x24\n        /* \"#utility.yul\":15937:15938   */\n      0x00\n        /* \"#utility.yul\":15930:15945   */\n      revert\n        /* \"#utility.yul\":15957:16074   */\n    tag_132:\n        /* \"#utility.yul\":16066:16067   */\n      0x00\n        /* \"#utility.yul\":16063:16064   */\n      dup1\n        /* \"#utility.yul\":16056:16068   */\n      revert\n        /* \"#utility.yul\":16080:16197   */\n    tag_114:\n        /* \"#utility.yul\":16189:16190   */\n      0x00\n        /* \"#utility.yul\":16186:16187   */\n      dup1\n        /* \"#utility.yul\":16179:16191   */\n      revert\n        /* \"#utility.yul\":16203:16320   */\n    tag_142:\n        /* \"#utility.yul\":16312:16313   */\n      0x00\n        /* \"#utility.yul\":16309:16310   */\n      dup1\n        /* \"#utility.yul\":16302:16314   */\n      revert\n        /* \"#utility.yul\":16326:16443   */\n    tag_176:\n        /* \"#utility.yul\":16435:16436   */\n      0x00\n        /* \"#utility.yul\":16432:16433   */\n      dup1\n        /* \"#utility.yul\":16425:16437   */\n      revert\n        /* \"#utility.yul\":16449:16566   */\n    tag_169:\n        /* \"#utility.yul\":16558:16559   */\n      0x00\n        /* \"#utility.yul\":16555:16556   */\n      dup1\n        /* \"#utility.yul\":16548:16560   */\n      revert\n        /* \"#utility.yul\":16572:16674   */\n    tag_276:\n        /* \"#utility.yul\":16613:16619   */\n      0x00\n        /* \"#utility.yul\":16664:16666   */\n      0x1f\n        /* \"#utility.yul\":16660:16667   */\n      not\n        /* \"#utility.yul\":16655:16657   */\n      0x1f\n        /* \"#utility.yul\":16648:16653   */\n      dup4\n        /* \"#utility.yul\":16644:16658   */\n      add\n        /* \"#utility.yul\":16640:16668   */\n      and\n        /* \"#utility.yul\":16630:16668   */\n      swap1\n      pop\n        /* \"#utility.yul\":16572:16674   */\n      swap2\n      swap1\n      pop\n      jump\t// out\n        /* \"#utility.yul\":16680:16850   */\n    tag_212:\n        /* \"#utility.yul\":16820:16842   */\n      0x4c656e67746820697320646966666572656e742e000000000000000000000000\n        /* \"#utility.yul\":16816:16817   */\n      0x00\n        /* \"#utility.yul\":16808:16814   */\n      dup3\n        /* \"#utility.yul\":16804:16818   */\n      add\n        /* \"#utility.yul\":16797:16843   */\n      mstore\n        /* \"#utility.yul\":16680:16850   */\n      pop\n      jump\t// out\n        /* \"#utility.yul\":16856:17018   */\n    tag_217:\n        /* \"#utility.yul\":16996:17010   */\n      0x54696d6520697320656e642e0000000000000000000000000000000000000000\n        /* \"#utility.yul\":16992:16993   */\n      0x00\n        /* \"#utility.yul\":16984:16990   */\n      dup3\n        /* \"#utility.yul\":16980:16994   */\n      add\n        /* \"#utility.yul\":16973:17011   */\n      mstore\n        /* \"#utility.yul\":16856:17018   */\n      pop\n      jump\t// out\n        /* \"#utility.yul\":17024:17201   */\n    tag_222:\n        /* \"#utility.yul\":17164:17193   */\n      0x4974206973206e6f742066726f6d206368616972706572736f6e2e0000000000\n        /* \"#utility.yul\":17160:17161   */\n      0x00\n        /* \"#utility.yul\":17152:17158   */\n      dup3\n        /* \"#utility.yul\":17148:17162   */\n      add\n        /* \"#utility.yul\":17141:17194   */\n      mstore\n        /* \"#utility.yul\":17024:17201   */\n      pop\n      jump\t// out\n        /* \"#utility.yul\":17207:17377   */\n    tag_227:\n        /* \"#utility.yul\":17347:17369   */\n      0x566f74657220616c726561647920766f7465642e000000000000000000000000\n        /* \"#utility.yul\":17343:17344   */\n      0x00\n        /* \"#utility.yul\":17335:17341   */\n      dup3\n        /* \"#utility.yul\":17331:17345   */\n      add\n        /* \"#utility.yul\":17324:17370   */\n      mstore\n        /* \"#utility.yul\":17207:17377   */\n      pop\n      jump\t// out\n        /* \"#utility.yul\":17383:17553   */\n    tag_232:\n        /* \"#utility.yul\":17523:17545   */\n      0x546f6b656e20646f65736e27742065786973742e000000000000000000000000\n        /* \"#utility.yul\":17519:17520   */\n      0x00\n        /* \"#utility.yul\":17511:17517   */\n      dup3\n        /* \"#utility.yul\":17507:17521   */\n      add\n        /* \"#utility.yul\":17500:17546   */\n      mstore\n        /* \"#utility.yul\":17383:17553   */\n      pop\n      jump\t// out\n        /* \"#utility.yul\":17559:17681   */\n    tag_147:\n        /* \"#utility.yul\":17632:17656   */\n      tag_326\n        /* \"#utility.yul\":17650:17655   */\n      dup2\n        /* \"#utility.yul\":17632:17656   */\n      tag_194\n      jump\t// in\n    tag_326:\n        /* \"#utility.yul\":17625:17630   */\n      dup2\n        /* \"#utility.yul\":17622:17657   */\n      eq\n        /* \"#utility.yul\":17612:17675   */\n      tag_327\n      jumpi\n        /* \"#utility.yul\":17671:17672   */\n      0x00\n        /* \"#utility.yul\":17668:17669   */\n      dup1\n        /* \"#utility.yul\":17661:17673   */\n      revert\n        /* \"#utility.yul\":17612:17675   */\n    tag_327:\n        /* \"#utility.yul\":17559:17681   */\n      pop\n      jump\t// out\n        /* \"#utility.yul\":17687:17809   */\n    tag_165:\n        /* \"#utility.yul\":17760:17784   */\n      tag_329\n        /* \"#utility.yul\":17778:17783   */\n      dup2\n        /* \"#utility.yul\":17760:17784   */\n      tag_236\n      jump\t// in\n    tag_329:\n        /* \"#utility.yul\":17753:17758   */\n      dup2\n        /* \"#utility.yul\":17750:17785   */\n      eq\n        /* \"#utility.yul\":17740:17803   */\n      tag_330\n      jumpi\n        /* \"#utility.yul\":17799:17800   */\n      0x00\n        /* \"#utility.yul\":17796:17797   */\n      dup1\n        /* \"#utility.yul\":17789:17801   */\n      revert\n        /* \"#utility.yul\":17740:17803   */\n    tag_330:\n        /* \"#utility.yul\":17687:17809   */\n      pop\n      jump\t// out\n\n    auxdata: 0xa2646970667358221220373d047b979a412c45df551164baa9060505ea34395e63821ce928318dc77a1064736f6c63430008070033\n}\n\nsub_1: assembly {\n        /* \"contracts/Token.sol\":99:241  contract Token is ERC20Standard {\r... */\n      mstore(0x40, 0x80)\n        /* \"contracts/Token.sol\":141:238  constructor() {\r... */\n      callvalue\n      dup1\n      iszero\n      tag_1\n      jumpi\n      0x00\n      dup1\n      revert\n    tag_1:\n      pop\n        /* \"contracts/Token.sol\":164:186  name = \"E-Voting coin\" */\n      mload(0x40)\n      dup1\n      0x40\n      add\n      0x40\n      mstore\n      dup1\n      0x0d\n      dup2\n      mstore\n      0x20\n      add\n      0x452d566f74696e6720636f696e00000000000000000000000000000000000000\n      dup2\n      mstore\n      pop\n        /* \"contracts/Token.sol\":164:168  name */\n      0x01\n        /* \"contracts/Token.sol\":164:186  name = \"E-Voting coin\" */\n      swap1\n      dup1\n      mload\n      swap1\n      0x20\n      add\n      swap1\n      tag_4\n      swap3\n      swap2\n      swap1\n      tag_5\n      jump\t// in\n    tag_4:\n      pop\n        /* \"contracts/Token.sol\":206:207  0 */\n      0x00\n        /* \"contracts/Token.sol\":195:203  decimals */\n      0x02\n      0x00\n        /* \"contracts/Token.sol\":195:207  decimals = 0 */\n      0x0100\n      exp\n      dup2\n      sload\n      dup2\n      0xff\n      mul\n      not\n      and\n      swap1\n      dup4\n      0xff\n      and\n      mul\n      or\n      swap1\n      sstore\n      pop\n        /* \"contracts/Token.sol\":216:230  symbol = \"EVC\" */\n      mload(0x40)\n      dup1\n      0x40\n      add\n      0x40\n      mstore\n      dup1\n      0x03\n      dup2\n      mstore\n      0x20\n      add\n      0x4556430000000000000000000000000000000000000000000000000000000000\n      dup2\n      mstore\n      pop\n        /* \"contracts/Token.sol\":216:222  symbol */\n      0x03\n        /* \"contracts/Token.sol\":216:230  symbol = \"EVC\" */\n      swap1\n      dup1\n      mload\n      swap1\n      0x20\n      add\n      swap1\n      tag_6\n      swap3\n      swap2\n      swap1\n      tag_5\n      jump\t// in\n    tag_6:\n      pop\n        /* \"contracts/Token.sol\":99:241  contract Token is ERC20Standard {\r... */\n      jump(tag_7)\n    tag_5:\n      dup3\n      dup1\n      sload\n      tag_8\n      swap1\n      tag_9\n      jump\t// in\n    tag_8:\n      swap1\n      0x00\n      mstore\n      keccak256(0x00, 0x20)\n      swap1\n      0x1f\n      add\n      0x20\n      swap1\n      div\n      dup2\n      add\n      swap3\n      dup3\n      tag_11\n      jumpi\n      0x00\n      dup6\n      sstore\n      jump(tag_10)\n    tag_11:\n      dup3\n      0x1f\n      lt\n      tag_12\n      jumpi\n      dup1\n      mload\n      not(0xff)\n      and\n      dup4\n      dup1\n      add\n      or\n      dup6\n      sstore\n      jump(tag_10)\n    tag_12:\n      dup3\n      dup1\n      add\n      0x01\n      add\n      dup6\n      sstore\n      dup3\n      iszero\n      tag_10\n      jumpi\n      swap2\n      dup3\n      add\n    tag_13:\n      dup3\n      dup2\n      gt\n      iszero\n      tag_14\n      jumpi\n      dup3\n      mload\n      dup3\n      sstore\n      swap2\n      0x20\n      add\n      swap2\n      swap1\n      0x01\n      add\n      swap1\n      jump(tag_13)\n    tag_14:\n    tag_10:\n      pop\n      swap1\n      pop\n      tag_15\n      swap2\n      swap1\n      tag_16\n      jump\t// in\n    tag_15:\n      pop\n      swap1\n      jump\t// out\n    tag_16:\n    tag_17:\n      dup1\n      dup3\n      gt\n      iszero\n      tag_18\n      jumpi\n      0x00\n      dup2\n      0x00\n      swap1\n      sstore\n      pop\n      0x01\n      add\n      jump(tag_17)\n    tag_18:\n      pop\n      swap1\n      jump\t// out\n        /* \"#utility.yul\":7:327   */\n    tag_9:\n        /* \"#utility.yul\":51:57   */\n      0x00\n        /* \"#utility.yul\":88:89   */\n      0x02\n        /* \"#utility.yul\":82:86   */\n      dup3\n        /* \"#utility.yul\":78:90   */\n      div\n        /* \"#utility.yul\":68:90   */\n      swap1\n      pop\n        /* \"#utility.yul\":135:136   */\n      0x01\n        /* \"#utility.yul\":129:133   */\n      dup3\n        /* \"#utility.yul\":125:137   */\n      and\n        /* \"#utility.yul\":156:174   */\n      dup1\n        /* \"#utility.yul\":146:227   */\n      tag_21\n      jumpi\n        /* \"#utility.yul\":212:216   */\n      0x7f\n        /* \"#utility.yul\":204:210   */\n      dup3\n        /* \"#utility.yul\":200:217   */\n      and\n        /* \"#utility.yul\":190:217   */\n      swap2\n      pop\n        /* \"#utility.yul\":146:227   */\n    tag_21:\n        /* \"#utility.yul\":274:276   */\n      0x20\n        /* \"#utility.yul\":266:272   */\n      dup3\n        /* \"#utility.yul\":263:277   */\n      lt\n        /* \"#utility.yul\":243:261   */\n      dup2\n        /* \"#utility.yul\":240:278   */\n      eq\n        /* \"#utility.yul\":237:321   */\n      iszero\n      tag_22\n      jumpi\n        /* \"#utility.yul\":293:311   */\n      tag_23\n      tag_24\n      jump\t// in\n    tag_23:\n        /* \"#utility.yul\":237:321   */\n    tag_22:\n        /* \"#utility.yul\":58:327   */\n      pop\n        /* \"#utility.yul\":7:327   */\n      swap2\n      swap1\n      pop\n      jump\t// out\n        /* \"#utility.yul\":333:513   */\n    tag_24:\n        /* \"#utility.yul\":381:458   */\n      0x4e487b7100000000000000000000000000000000000000000000000000000000\n        /* \"#utility.yul\":378:379   */\n      0x00\n        /* \"#utility.yul\":371:459   */\n      mstore\n        /* \"#utility.yul\":478:482   */\n      0x22\n        /* \"#utility.yul\":475:476   */\n      0x04\n        /* \"#utility.yul\":468:483   */\n      mstore\n        /* \"#utility.yul\":502:506   */\n      0x24\n        /* \"#utility.yul\":499:500   */\n      0x00\n        /* \"#utility.yul\":492:507   */\n      revert\n        /* \"contracts/Token.sol\":99:241  contract Token is ERC20Standard {\r... */\n    tag_7:\n      dataSize(sub_0)\n      dup1\n      dataOffset(sub_0)\n      0x00\n      codecopy\n      0x00\n      return\n    stop\n\n    sub_0: assembly {\n            /* \"contracts/Token.sol\":99:241  contract Token is ERC20Standard {\r... */\n          mstore(0x40, 0x80)\n          callvalue\n          dup1\n          iszero\n          tag_1\n          jumpi\n          0x00\n          dup1\n          revert\n        tag_1:\n          pop\n          jumpi(tag_2, lt(calldatasize, 0x04))\n          shr(0xe0, calldataload(0x00))\n          dup1\n          0x40c10f19\n          gt\n          tag_14\n          jumpi\n          dup1\n          0x40c10f19\n          eq\n          tag_8\n          jumpi\n          dup1\n          0x54fd4d50\n          eq\n          tag_9\n          jumpi\n          dup1\n          0x70a08231\n          eq\n          tag_10\n          jumpi\n          dup1\n          0x95d89b41\n          eq\n          tag_11\n          jumpi\n          dup1\n          0xa9059cbb\n          eq\n          tag_12\n          jumpi\n          dup1\n          0xdd62ed3e\n          eq\n          tag_13\n          jumpi\n          jump(tag_2)\n        tag_14:\n          dup1\n          0x06fdde03\n          eq\n          tag_3\n          jumpi\n          dup1\n          0x095ea7b3\n          eq\n          tag_4\n          jumpi\n          dup1\n          0x18160ddd\n          eq\n          tag_5\n          jumpi\n          dup1\n          0x23b872dd\n          eq\n          tag_6\n          jumpi\n          dup1\n          0x313ce567\n          eq\n          tag_7\n          jumpi\n        tag_2:\n          0x00\n          dup1\n          revert\n            /* \"contracts/ERC20Standard.sol\":1005:1023  string public name */\n        tag_3:\n          tag_15\n          tag_16\n          jump\t// in\n        tag_15:\n          mload(0x40)\n          tag_17\n          swap2\n          swap1\n          tag_18\n          jump\t// in\n        tag_17:\n          mload(0x40)\n          dup1\n          swap2\n          sub\n          swap1\n          return\n            /* \"contracts/ERC20Standard.sol\":2467:2619  function  approve(address _spender, uint _value) public {\r... */\n        tag_4:\n          tag_19\n          0x04\n          dup1\n          calldatasize\n          sub\n          dup2\n          add\n          swap1\n          tag_20\n          swap2\n          swap1\n          tag_21\n          jump\t// in\n        tag_20:\n          tag_22\n          jump\t// in\n        tag_19:\n          stop\n            /* \"contracts/ERC20Standard.sol\":975:998  uint public totalSupply */\n        tag_5:\n          tag_23\n          tag_24\n          jump\t// in\n        tag_23:\n          mload(0x40)\n          tag_25\n          swap2\n          swap1\n          tag_26\n          jump\t// in\n        tag_25:\n          mload(0x40)\n          dup1\n          swap2\n          sub\n          swap1\n          return\n            /* \"contracts/ERC20Standard.sol\":1798:2182  function transferFrom(address _from, address _to, uint _value) public {\r... */\n        tag_6:\n          tag_27\n          0x04\n          dup1\n          calldatasize\n          sub\n          dup2\n          add\n          swap1\n          tag_28\n          swap2\n          swap1\n          tag_29\n          jump\t// in\n        tag_28:\n          tag_30\n          jump\t// in\n        tag_27:\n          stop\n            /* \"contracts/ERC20Standard.sol\":1027:1048  uint8 public decimals */\n        tag_7:\n          tag_31\n          tag_32\n          jump\t// in\n        tag_31:\n          mload(0x40)\n          tag_33\n          swap2\n          swap1\n          tag_34\n          jump\t// in\n        tag_33:\n          mload(0x40)\n          dup1\n          swap2\n          sub\n          swap1\n          return\n            /* \"contracts/ERC20Standard.sol\":2193:2462  function mint(address addr, uint256 amount) public {\r... */\n        tag_8:\n          tag_35\n          0x04\n          dup1\n          calldatasize\n          sub\n          dup2\n          add\n          swap1\n          tag_36\n          swap2\n          swap1\n          tag_21\n          jump\t// in\n        tag_36:\n          tag_37\n          jump\t// in\n        tag_35:\n          stop\n            /* \"contracts/ERC20Standard.sol\":1076:1097  string public version */\n        tag_9:\n          tag_38\n          tag_39\n          jump\t// in\n        tag_38:\n          mload(0x40)\n          tag_40\n          swap2\n          swap1\n          tag_18\n          jump\t// in\n        tag_40:\n          mload(0x40)\n          dup1\n          swap2\n          sub\n          swap1\n          return\n            /* \"contracts/ERC20Standard.sol\":1345:1448  function balanceOf(address _owner) public view returns (uint balance) {\r... */\n        tag_10:\n          tag_41\n          0x04\n          dup1\n          calldatasize\n          sub\n          dup2\n          add\n          swap1\n          tag_42\n          swap2\n          swap1\n          tag_43\n          jump\t// in\n        tag_42:\n          tag_44\n          jump\t// in\n        tag_41:\n          mload(0x40)\n          tag_45\n          swap2\n          swap1\n          tag_26\n          jump\t// in\n        tag_45:\n          mload(0x40)\n          dup1\n          swap2\n          sub\n          swap1\n          return\n            /* \"contracts/ERC20Standard.sol\":1052:1072  string public symbol */\n        tag_11:\n          tag_46\n          tag_47\n          jump\t// in\n        tag_46:\n          mload(0x40)\n          tag_48\n          swap2\n          swap1\n          tag_18\n          jump\t// in\n        tag_48:\n          mload(0x40)\n          dup1\n          swap2\n          sub\n          swap1\n          return\n            /* \"contracts/ERC20Standard.sol\":1453:1793  function transfer(address _recipient, uint _value) public onlyPayloadSize(2*32) {\r... */\n        tag_12:\n          tag_49\n          0x04\n          dup1\n          calldatasize\n          sub\n          dup2\n          add\n          swap1\n          tag_50\n          swap2\n          swap1\n          tag_21\n          jump\t// in\n        tag_50:\n          tag_51\n          jump\t// in\n        tag_49:\n          stop\n            /* \"contracts/ERC20Standard.sol\":2624:2754  function allowance(address _spender, address _owner) public view returns (uint balance) {\r... */\n        tag_13:\n          tag_52\n          0x04\n          dup1\n          calldatasize\n          sub\n          dup2\n          add\n          swap1\n          tag_53\n          swap2\n          swap1\n          tag_54\n          jump\t// in\n        tag_53:\n          tag_55\n          jump\t// in\n        tag_52:\n          mload(0x40)\n          tag_56\n          swap2\n          swap1\n          tag_26\n          jump\t// in\n        tag_56:\n          mload(0x40)\n          dup1\n          swap2\n          sub\n          swap1\n          return\n            /* \"contracts/ERC20Standard.sol\":1005:1023  string public name */\n        tag_16:\n          0x01\n          dup1\n          sload\n          tag_57\n          swap1\n          tag_58\n          jump\t// in\n        tag_57:\n          dup1\n          0x1f\n          add\n          0x20\n          dup1\n          swap2\n          div\n          mul\n          0x20\n          add\n          mload(0x40)\n          swap1\n          dup2\n          add\n          0x40\n          mstore\n          dup1\n          swap3\n          swap2\n          swap1\n          dup2\n          dup2\n          mstore\n          0x20\n          add\n          dup3\n          dup1\n          sload\n          tag_59\n          swap1\n          tag_58\n          jump\t// in\n        tag_59:\n          dup1\n          iszero\n          tag_60\n          jumpi\n          dup1\n          0x1f\n          lt\n          tag_61\n          jumpi\n          0x0100\n          dup1\n          dup4\n          sload\n          div\n          mul\n          dup4\n          mstore\n          swap2\n          0x20\n          add\n          swap2\n          jump(tag_60)\n        tag_61:\n          dup3\n          add\n          swap2\n          swap1\n          0x00\n          mstore\n          keccak256(0x00, 0x20)\n          swap1\n        tag_62:\n          dup2\n          sload\n          dup2\n          mstore\n          swap1\n          0x01\n          add\n          swap1\n          0x20\n          add\n          dup1\n          dup4\n          gt\n          tag_62\n          jumpi\n          dup3\n          swap1\n          sub\n          0x1f\n          and\n          dup3\n          add\n          swap2\n        tag_60:\n          pop\n          pop\n          pop\n          pop\n          pop\n          dup2\n          jump\t// out\n            /* \"contracts/ERC20Standard.sol\":2467:2619  function  approve(address _spender, uint _value) public {\r... */\n        tag_22:\n            /* \"contracts/ERC20Standard.sol\":2560:2566  _value */\n          dup1\n            /* \"contracts/ERC20Standard.sol\":2528:2535  allowed */\n          0x06\n            /* \"contracts/ERC20Standard.sol\":2528:2547  allowed[msg.sender] */\n          0x00\n            /* \"contracts/ERC20Standard.sol\":2536:2546  msg.sender */\n          caller\n            /* \"contracts/ERC20Standard.sol\":2528:2547  allowed[msg.sender] */\n          0xffffffffffffffffffffffffffffffffffffffff\n          and\n          0xffffffffffffffffffffffffffffffffffffffff\n          and\n          dup2\n          mstore\n          0x20\n          add\n          swap1\n          dup2\n          mstore\n          0x20\n          add\n          0x00\n          keccak256\n            /* \"contracts/ERC20Standard.sol\":2528:2557  allowed[msg.sender][_spender] */\n          0x00\n            /* \"contracts/ERC20Standard.sol\":2548:2556  _spender */\n          dup5\n            /* \"contracts/ERC20Standard.sol\":2528:2557  allowed[msg.sender][_spender] */\n          0xffffffffffffffffffffffffffffffffffffffff\n          and\n          0xffffffffffffffffffffffffffffffffffffffff\n          and\n          dup2\n          mstore\n          0x20\n          add\n          swap1\n          dup2\n          mstore\n          0x20\n          add\n          0x00\n          keccak256\n            /* \"contracts/ERC20Standard.sol\":2528:2566  allowed[msg.sender][_spender] = _value */\n          dup2\n          swap1\n          sstore\n          pop\n            /* \"contracts/ERC20Standard.sol\":2597:2605  _spender */\n          dup2\n            /* \"contracts/ERC20Standard.sol\":2576:2614  Approval(msg.sender, _spender, _value) */\n          0xffffffffffffffffffffffffffffffffffffffff\n          and\n            /* \"contracts/ERC20Standard.sol\":2585:2595  msg.sender */\n          caller\n            /* \"contracts/ERC20Standard.sol\":2576:2614  Approval(msg.sender, _spender, _value) */\n          0xffffffffffffffffffffffffffffffffffffffff\n          and\n          0x8c5be1e5ebec7d5bd14f71427d1e84f3dd0314c0f7b2291e5b200ac8c7c3b925\n            /* \"contracts/ERC20Standard.sol\":2607:2613  _value */\n          dup4\n            /* \"contracts/ERC20Standard.sol\":2576:2614  Approval(msg.sender, _spender, _value) */\n          mload(0x40)\n          tag_64\n          swap2\n          swap1\n          tag_26\n          jump\t// in\n        tag_64:\n          mload(0x40)\n          dup1\n          swap2\n          sub\n          swap1\n          log3\n            /* \"contracts/ERC20Standard.sol\":2467:2619  function  approve(address _spender, uint _value) public {\r... */\n          pop\n          pop\n          jump\t// out\n            /* \"contracts/ERC20Standard.sol\":975:998  uint public totalSupply */\n        tag_24:\n          sload(0x00)\n          dup2\n          jump\t// out\n            /* \"contracts/ERC20Standard.sol\":1798:2182  function transferFrom(address _from, address _to, uint _value) public {\r... */\n        tag_30:\n            /* \"contracts/ERC20Standard.sol\":1903:1909  _value */\n          dup1\n            /* \"contracts/ERC20Standard.sol\":1884:1892  balances */\n          0x05\n            /* \"contracts/ERC20Standard.sol\":1884:1899  balances[_from] */\n          0x00\n            /* \"contracts/ERC20Standard.sol\":1893:1898  _from */\n          dup6\n            /* \"contracts/ERC20Standard.sol\":1884:1899  balances[_from] */\n          0xffffffffffffffffffffffffffffffffffffffff\n          and\n          0xffffffffffffffffffffffffffffffffffffffff\n          and\n          dup2\n          mstore\n          0x20\n          add\n          swap1\n          dup2\n          mstore\n          0x20\n          add\n          0x00\n          keccak256\n          sload\n            /* \"contracts/ERC20Standard.sol\":1884:1909  balances[_from] >= _value */\n          lt\n          iszero\n            /* \"contracts/ERC20Standard.sol\":1884:1949  balances[_from] >= _value && allowed[_from][msg.sender] >= _value */\n          dup1\n          iszero\n          tag_66\n          jumpi\n          pop\n            /* \"contracts/ERC20Standard.sol\":1943:1949  _value */\n          dup1\n            /* \"contracts/ERC20Standard.sol\":1913:1920  allowed */\n          0x06\n            /* \"contracts/ERC20Standard.sol\":1913:1927  allowed[_from] */\n          0x00\n            /* \"contracts/ERC20Standard.sol\":1921:1926  _from */\n          dup6\n            /* \"contracts/ERC20Standard.sol\":1913:1927  allowed[_from] */\n          0xffffffffffffffffffffffffffffffffffffffff\n          and\n          0xffffffffffffffffffffffffffffffffffffffff\n          and\n          dup2\n          mstore\n          0x20\n          add\n          swap1\n          dup2\n          mstore\n          0x20\n          add\n          0x00\n          keccak256\n            /* \"contracts/ERC20Standard.sol\":1913:1939  allowed[_from][msg.sender] */\n          0x00\n            /* \"contracts/ERC20Standard.sol\":1928:1938  msg.sender */\n          caller\n            /* \"contracts/ERC20Standard.sol\":1913:1939  allowed[_from][msg.sender] */\n          0xffffffffffffffffffffffffffffffffffffffff\n          and\n          0xffffffffffffffffffffffffffffffffffffffff\n          and\n          dup2\n          mstore\n          0x20\n          add\n          swap1\n          dup2\n          mstore\n          0x20\n          add\n          0x00\n          keccak256\n          sload\n            /* \"contracts/ERC20Standard.sol\":1913:1949  allowed[_from][msg.sender] >= _value */\n          lt\n          iszero\n            /* \"contracts/ERC20Standard.sol\":1884:1949  balances[_from] >= _value && allowed[_from][msg.sender] >= _value */\n        tag_66:\n            /* \"contracts/ERC20Standard.sol\":1884:1963  balances[_from] >= _value && allowed[_from][msg.sender] >= _value && _value > 0 */\n          dup1\n          iszero\n          tag_67\n          jumpi\n          pop\n            /* \"contracts/ERC20Standard.sol\":1962:1963  0 */\n          0x00\n            /* \"contracts/ERC20Standard.sol\":1953:1959  _value */\n          dup2\n            /* \"contracts/ERC20Standard.sol\":1953:1963  _value > 0 */\n          gt\n            /* \"contracts/ERC20Standard.sol\":1884:1963  balances[_from] >= _value && allowed[_from][msg.sender] >= _value && _value > 0 */\n        tag_67:\n            /* \"contracts/ERC20Standard.sol\":1876:1964  require(balances[_from] >= _value && allowed[_from][msg.sender] >= _value && _value > 0) */\n          tag_68\n          jumpi\n          0x00\n          dup1\n          revert\n        tag_68:\n            /* \"contracts/ERC20Standard.sol\":1985:2010  balances[_to].add(_value) */\n          tag_69\n            /* \"contracts/ERC20Standard.sol\":2003:2009  _value */\n          dup2\n            /* \"contracts/ERC20Standard.sol\":1985:1993  balances */\n          0x05\n            /* \"contracts/ERC20Standard.sol\":1985:1998  balances[_to] */\n          0x00\n            /* \"contracts/ERC20Standard.sol\":1994:1997  _to */\n          dup6\n            /* \"contracts/ERC20Standard.sol\":1985:1998  balances[_to] */\n          0xffffffffffffffffffffffffffffffffffffffff\n          and\n          0xffffffffffffffffffffffffffffffffffffffff\n          and\n          dup2\n          mstore\n          0x20\n          add\n          swap1\n          dup2\n          mstore\n          0x20\n          add\n          0x00\n          keccak256\n          sload\n            /* \"contracts/ERC20Standard.sol\":1985:2002  balances[_to].add */\n          tag_70\n          swap1\n            /* \"contracts/ERC20Standard.sol\":1985:2010  balances[_to].add(_value) */\n          swap2\n          swap1\n          0xffffffff\n          and\n          jump\t// in\n        tag_69:\n            /* \"contracts/ERC20Standard.sol\":1969:1977  balances */\n          0x05\n            /* \"contracts/ERC20Standard.sol\":1969:1982  balances[_to] */\n          0x00\n            /* \"contracts/ERC20Standard.sol\":1978:1981  _to */\n          dup5\n            /* \"contracts/ERC20Standard.sol\":1969:1982  balances[_to] */\n          0xffffffffffffffffffffffffffffffffffffffff\n          and\n          0xffffffffffffffffffffffffffffffffffffffff\n          and\n          dup2\n          mstore\n          0x20\n          add\n          swap1\n          dup2\n          mstore\n          0x20\n          add\n          0x00\n          keccak256\n            /* \"contracts/ERC20Standard.sol\":1969:2010  balances[_to] = balances[_to].add(_value) */\n          dup2\n          swap1\n          sstore\n          pop\n            /* \"contracts/ERC20Standard.sol\":2033:2060  balances[_from].sub(_value) */\n          tag_71\n            /* \"contracts/ERC20Standard.sol\":2053:2059  _value */\n          dup2\n            /* \"contracts/ERC20Standard.sol\":2033:2041  balances */\n          0x05\n            /* \"contracts/ERC20Standard.sol\":2033:2048  balances[_from] */\n          0x00\n            /* \"contracts/ERC20Standard.sol\":2042:2047  _from */\n          dup7\n            /* \"contracts/ERC20Standard.sol\":2033:2048  balances[_from] */\n          0xffffffffffffffffffffffffffffffffffffffff\n          and\n          0xffffffffffffffffffffffffffffffffffffffff\n          and\n          dup2\n          mstore\n          0x20\n          add\n          swap1\n          dup2\n          mstore\n          0x20\n          add\n          0x00\n          keccak256\n          sload\n            /* \"contracts/ERC20Standard.sol\":2033:2052  balances[_from].sub */\n          tag_72\n          swap1\n            /* \"contracts/ERC20Standard.sol\":2033:2060  balances[_from].sub(_value) */\n          swap2\n          swap1\n          0xffffffff\n          and\n          jump\t// in\n        tag_71:\n            /* \"contracts/ERC20Standard.sol\":2015:2023  balances */\n          0x05\n            /* \"contracts/ERC20Standard.sol\":2015:2030  balances[_from] */\n          0x00\n            /* \"contracts/ERC20Standard.sol\":2024:2029  _from */\n          dup6\n            /* \"contracts/ERC20Standard.sol\":2015:2030  balances[_from] */\n          0xffffffffffffffffffffffffffffffffffffffff\n          and\n          0xffffffffffffffffffffffffffffffffffffffff\n          and\n          dup2\n          mstore\n          0x20\n          add\n          swap1\n          dup2\n          mstore\n          0x20\n          add\n          0x00\n          keccak256\n            /* \"contracts/ERC20Standard.sol\":2015:2060  balances[_from] = balances[_from].sub(_value) */\n          dup2\n          swap1\n          sstore\n          pop\n            /* \"contracts/ERC20Standard.sol\":2094:2132  allowed[_from][msg.sender].sub(_value) */\n          tag_73\n            /* \"contracts/ERC20Standard.sol\":2125:2131  _value */\n          dup2\n            /* \"contracts/ERC20Standard.sol\":2094:2101  allowed */\n          0x06\n            /* \"contracts/ERC20Standard.sol\":2094:2108  allowed[_from] */\n          0x00\n            /* \"contracts/ERC20Standard.sol\":2102:2107  _from */\n          dup7\n            /* \"contracts/ERC20Standard.sol\":2094:2108  allowed[_from] */\n          0xffffffffffffffffffffffffffffffffffffffff\n          and\n          0xffffffffffffffffffffffffffffffffffffffff\n          and\n          dup2\n          mstore\n          0x20\n          add\n          swap1\n          dup2\n          mstore\n          0x20\n          add\n          0x00\n          keccak256\n            /* \"contracts/ERC20Standard.sol\":2094:2120  allowed[_from][msg.sender] */\n          0x00\n            /* \"contracts/ERC20Standard.sol\":2109:2119  msg.sender */\n          caller\n            /* \"contracts/ERC20Standard.sol\":2094:2120  allowed[_from][msg.sender] */\n          0xffffffffffffffffffffffffffffffffffffffff\n          and\n          0xffffffffffffffffffffffffffffffffffffffff\n          and\n          dup2\n          mstore\n          0x20\n          add\n          swap1\n          dup2\n          mstore\n          0x20\n          add\n          0x00\n          keccak256\n          sload\n            /* \"contracts/ERC20Standard.sol\":2094:2124  allowed[_from][msg.sender].sub */\n          tag_72\n          swap1\n            /* \"contracts/ERC20Standard.sol\":2094:2132  allowed[_from][msg.sender].sub(_value) */\n          swap2\n          swap1\n          0xffffffff\n          and\n          jump\t// in\n        tag_73:\n            /* \"contracts/ERC20Standard.sol\":2065:2072  allowed */\n          0x06\n            /* \"contracts/ERC20Standard.sol\":2065:2079  allowed[_from] */\n          0x00\n            /* \"contracts/ERC20Standard.sol\":2073:2078  _from */\n          dup6\n            /* \"contracts/ERC20Standard.sol\":2065:2079  allowed[_from] */\n          0xffffffffffffffffffffffffffffffffffffffff\n          and\n          0xffffffffffffffffffffffffffffffffffffffff\n          and\n          dup2\n          mstore\n          0x20\n          add\n          swap1\n          dup2\n          mstore\n          0x20\n          add\n          0x00\n          keccak256\n            /* \"contracts/ERC20Standard.sol\":2065:2091  allowed[_from][msg.sender] */\n          0x00\n            /* \"contracts/ERC20Standard.sol\":2080:2090  msg.sender */\n          caller\n            /* \"contracts/ERC20Standard.sol\":2065:2091  allowed[_from][msg.sender] */\n          0xffffffffffffffffffffffffffffffffffffffff\n          and\n          0xffffffffffffffffffffffffffffffffffffffff\n          and\n          dup2\n          mstore\n          0x20\n          add\n          swap1\n          dup2\n          mstore\n          0x20\n          add\n          0x00\n          keccak256\n            /* \"contracts/ERC20Standard.sol\":2065:2132  allowed[_from][msg.sender] = allowed[_from][msg.sender].sub(_value) */\n          dup2\n          swap1\n          sstore\n          pop\n            /* \"contracts/ERC20Standard.sol\":2158:2161  _to */\n          dup2\n            /* \"contracts/ERC20Standard.sol\":2142:2170  Transfer(_from, _to, _value) */\n          0xffffffffffffffffffffffffffffffffffffffff\n          and\n            /* \"contracts/ERC20Standard.sol\":2151:2156  _from */\n          dup4\n            /* \"contracts/ERC20Standard.sol\":2142:2170  Transfer(_from, _to, _value) */\n          0xffffffffffffffffffffffffffffffffffffffff\n          and\n          0xddf252ad1be2c89b69c2b068fc378daa952ba7f163c4a11628f55a4df523b3ef\n            /* \"contracts/ERC20Standard.sol\":2163:2169  _value */\n          dup4\n            /* \"contracts/ERC20Standard.sol\":2142:2170  Transfer(_from, _to, _value) */\n          mload(0x40)\n          tag_74\n          swap2\n          swap1\n          tag_26\n          jump\t// in\n        tag_74:\n          mload(0x40)\n          dup1\n          swap2\n          sub\n          swap1\n          log3\n            /* \"contracts/ERC20Standard.sol\":1798:2182  function transferFrom(address _from, address _to, uint _value) public {\r... */\n          pop\n          pop\n          pop\n          jump\t// out\n            /* \"contracts/ERC20Standard.sol\":1027:1048  uint8 public decimals */\n        tag_32:\n          0x02\n          0x00\n          swap1\n          sload\n          swap1\n          0x0100\n          exp\n          swap1\n          div\n          0xff\n          and\n          dup2\n          jump\t// out\n            /* \"contracts/ERC20Standard.sol\":2193:2462  function mint(address addr, uint256 amount) public {\r... */\n        tag_37:\n            /* \"contracts/ERC20Standard.sol\":2273:2274  0 */\n          0x00\n            /* \"contracts/ERC20Standard.sol\":2257:2275  addr != address(0) */\n          0xffffffffffffffffffffffffffffffffffffffff\n          and\n            /* \"contracts/ERC20Standard.sol\":2257:2261  addr */\n          dup3\n            /* \"contracts/ERC20Standard.sol\":2257:2275  addr != address(0) */\n          0xffffffffffffffffffffffffffffffffffffffff\n          and\n          eq\n          iszero\n            /* \"contracts/ERC20Standard.sol\":2249:2311  require(addr != address(0), \"ERC20: mint to the zero address\") */\n          tag_76\n          jumpi\n          mload(0x40)\n          0x08c379a000000000000000000000000000000000000000000000000000000000\n          dup2\n          mstore\n          0x04\n          add\n          tag_77\n          swap1\n          tag_78\n          jump\t// in\n        tag_77:\n          mload(0x40)\n          dup1\n          swap2\n          sub\n          swap1\n          revert\n        tag_76:\n            /* \"contracts/ERC20Standard.sol\":2339:2362  totalSupply.add(amount) */\n          tag_79\n            /* \"contracts/ERC20Standard.sol\":2355:2361  amount */\n          dup2\n            /* \"contracts/ERC20Standard.sol\":2339:2350  totalSupply */\n          sload(0x00)\n            /* \"contracts/ERC20Standard.sol\":2339:2354  totalSupply.add */\n          tag_70\n          swap1\n            /* \"contracts/ERC20Standard.sol\":2339:2362  totalSupply.add(amount) */\n          swap2\n          swap1\n          0xffffffff\n          and\n          jump\t// in\n        tag_79:\n            /* \"contracts/ERC20Standard.sol\":2325:2336  totalSupply */\n          0x00\n            /* \"contracts/ERC20Standard.sol\":2325:2362  totalSupply = totalSupply.add(amount) */\n          dup2\n          swap1\n          sstore\n          pop\n            /* \"contracts/ERC20Standard.sol\":2384:2410  balances[addr].add(amount) */\n          tag_80\n            /* \"contracts/ERC20Standard.sol\":2403:2409  amount */\n          dup2\n            /* \"contracts/ERC20Standard.sol\":2384:2392  balances */\n          0x05\n            /* \"contracts/ERC20Standard.sol\":2384:2398  balances[addr] */\n          0x00\n            /* \"contracts/ERC20Standard.sol\":2393:2397  addr */\n          dup6\n            /* \"contracts/ERC20Standard.sol\":2384:2398  balances[addr] */\n          0xffffffffffffffffffffffffffffffffffffffff\n          and\n          0xffffffffffffffffffffffffffffffffffffffff\n          and\n          dup2\n          mstore\n          0x20\n          add\n          swap1\n          dup2\n          mstore\n          0x20\n          add\n          0x00\n          keccak256\n          sload\n            /* \"contracts/ERC20Standard.sol\":2384:2402  balances[addr].add */\n          tag_70\n          swap1\n            /* \"contracts/ERC20Standard.sol\":2384:2410  balances[addr].add(amount) */\n          swap2\n          swap1\n          0xffffffff\n          and\n          jump\t// in\n        tag_80:\n            /* \"contracts/ERC20Standard.sol\":2367:2375  balances */\n          0x05\n            /* \"contracts/ERC20Standard.sol\":2367:2381  balances[addr] */\n          0x00\n            /* \"contracts/ERC20Standard.sol\":2376:2380  addr */\n          dup5\n            /* \"contracts/ERC20Standard.sol\":2367:2381  balances[addr] */\n          0xffffffffffffffffffffffffffffffffffffffff\n          and\n          0xffffffffffffffffffffffffffffffffffffffff\n          and\n          dup2\n          mstore\n          0x20\n          add\n          swap1\n          dup2\n          mstore\n          0x20\n          add\n          0x00\n          keccak256\n            /* \"contracts/ERC20Standard.sol\":2367:2410  balances[addr] = balances[addr].add(amount) */\n          dup2\n          swap1\n          sstore\n          pop\n            /* \"contracts/ERC20Standard.sol\":2441:2445  addr */\n          dup2\n            /* \"contracts/ERC20Standard.sol\":2420:2454  Transfer(address(0), addr, amount) */\n          0xffffffffffffffffffffffffffffffffffffffff\n          and\n            /* \"contracts/ERC20Standard.sol\":2437:2438  0 */\n          0x00\n            /* \"contracts/ERC20Standard.sol\":2420:2454  Transfer(address(0), addr, amount) */\n          0xffffffffffffffffffffffffffffffffffffffff\n          and\n          0xddf252ad1be2c89b69c2b068fc378daa952ba7f163c4a11628f55a4df523b3ef\n            /* \"contracts/ERC20Standard.sol\":2447:2453  amount */\n          dup4\n            /* \"contracts/ERC20Standard.sol\":2420:2454  Transfer(address(0), addr, amount) */\n          mload(0x40)\n          tag_81\n          swap2\n          swap1\n          tag_26\n          jump\t// in\n        tag_81:\n          mload(0x40)\n          dup1\n          swap2\n          sub\n          swap1\n          log3\n            /* \"contracts/ERC20Standard.sol\":2193:2462  function mint(address addr, uint256 amount) public {\r... */\n          pop\n          pop\n          jump\t// out\n            /* \"contracts/ERC20Standard.sol\":1076:1097  string public version */\n        tag_39:\n          0x04\n          dup1\n          sload\n          tag_82\n          swap1\n          tag_58\n          jump\t// in\n        tag_82:\n          dup1\n          0x1f\n          add\n          0x20\n          dup1\n          swap2\n          div\n          mul\n          0x20\n          add\n          mload(0x40)\n          swap1\n          dup2\n          add\n          0x40\n          mstore\n          dup1\n          swap3\n          swap2\n          swap1\n          dup2\n          dup2\n          mstore\n          0x20\n          add\n          dup3\n          dup1\n          sload\n          tag_83\n          swap1\n          tag_58\n          jump\t// in\n        tag_83:\n          dup1\n          iszero\n          tag_84\n          jumpi\n          dup1\n          0x1f\n          lt\n          tag_85\n          jumpi\n          0x0100\n          dup1\n          dup4\n          sload\n          div\n          mul\n          dup4\n          mstore\n          swap2\n          0x20\n          add\n          swap2\n          jump(tag_84)\n        tag_85:\n          dup3\n          add\n          swap2\n          swap1\n          0x00\n          mstore\n          keccak256(0x00, 0x20)\n          swap1\n        tag_86:\n          dup2\n          sload\n          dup2\n          mstore\n          swap1\n          0x01\n          add\n          swap1\n          0x20\n          add\n          dup1\n          dup4\n          gt\n          tag_86\n          jumpi\n          dup3\n          swap1\n          sub\n          0x1f\n          and\n          dup3\n          add\n          swap2\n        tag_84:\n          pop\n          pop\n          pop\n          pop\n          pop\n          dup2\n          jump\t// out\n            /* \"contracts/ERC20Standard.sol\":1345:1448  function balanceOf(address _owner) public view returns (uint balance) {\r... */\n        tag_44:\n            /* \"contracts/ERC20Standard.sol\":1401:1413  uint balance */\n          0x00\n            /* \"contracts/ERC20Standard.sol\":1427:1435  balances */\n          0x05\n            /* \"contracts/ERC20Standard.sol\":1427:1443  balances[_owner] */\n          0x00\n            /* \"contracts/ERC20Standard.sol\":1436:1442  _owner */\n          dup4\n            /* \"contracts/ERC20Standard.sol\":1427:1443  balances[_owner] */\n          0xffffffffffffffffffffffffffffffffffffffff\n          and\n          0xffffffffffffffffffffffffffffffffffffffff\n          and\n          dup2\n          mstore\n          0x20\n          add\n          swap1\n          dup2\n          mstore\n          0x20\n          add\n          0x00\n          keccak256\n          sload\n            /* \"contracts/ERC20Standard.sol\":1420:1443  return balances[_owner] */\n          swap1\n          pop\n            /* \"contracts/ERC20Standard.sol\":1345:1448  function balanceOf(address _owner) public view returns (uint balance) {\r... */\n          swap2\n          swap1\n          pop\n          jump\t// out\n            /* \"contracts/ERC20Standard.sol\":1052:1072  string public symbol */\n        tag_47:\n          0x03\n          dup1\n          sload\n          tag_88\n          swap1\n          tag_58\n          jump\t// in\n        tag_88:\n          dup1\n          0x1f\n          add\n          0x20\n          dup1\n          swap2\n          div\n          mul\n          0x20\n          add\n          mload(0x40)\n          swap1\n          dup2\n          add\n          0x40\n          mstore\n          dup1\n          swap3\n          swap2\n          swap1\n          dup2\n          dup2\n          mstore\n          0x20\n          add\n          dup3\n          dup1\n          sload\n          tag_89\n          swap1\n          tag_58\n          jump\t// in\n        tag_89:\n          dup1\n          iszero\n          tag_90\n          jumpi\n          dup1\n          0x1f\n          lt\n          tag_91\n          jumpi\n          0x0100\n          dup1\n          dup4\n          sload\n          div\n          mul\n          dup4\n          mstore\n          swap2\n          0x20\n          add\n          swap2\n          jump(tag_90)\n        tag_91:\n          dup3\n          add\n          swap2\n          swap1\n          0x00\n          mstore\n          keccak256(0x00, 0x20)\n          swap1\n        tag_92:\n          dup2\n          sload\n          dup2\n          mstore\n          swap1\n          0x01\n          add\n          swap1\n          0x20\n          add\n          dup1\n          dup4\n          gt\n          tag_92\n          jumpi\n          dup3\n          swap1\n          sub\n          0x1f\n          and\n          dup3\n          add\n          swap2\n        tag_90:\n          pop\n          pop\n          pop\n          pop\n          pop\n          dup2\n          jump\t// out\n            /* \"contracts/ERC20Standard.sol\":1453:1793  function transfer(address _recipient, uint _value) public onlyPayloadSize(2*32) {\r... */\n        tag_51:\n            /* \"contracts/ERC20Standard.sol\":1527:1531  2*32 */\n          0x40\n            /* \"contracts/ERC20Standard.sol\":1326:1327  4 */\n          0x04\n            /* \"contracts/ERC20Standard.sol\":1319:1323  size */\n          dup2\n            /* \"contracts/ERC20Standard.sol\":1319:1327  size + 4 */\n          tag_94\n          swap2\n          swap1\n          tag_95\n          jump\t// in\n        tag_94:\n            /* \"contracts/ERC20Standard.sol\":1300:1308  msg.data */\n          0x00\n          calldatasize\n            /* \"contracts/ERC20Standard.sol\":1300:1315  msg.data.length */\n          swap1\n          pop\n            /* \"contracts/ERC20Standard.sol\":1300:1327  msg.data.length == size + 4 */\n          eq\n            /* \"contracts/ERC20Standard.sol\":1293:1328  assert(msg.data.length == size + 4) */\n          tag_96\n          jumpi\n          tag_97\n          tag_98\n          jump\t// in\n        tag_97:\n        tag_96:\n            /* \"contracts/ERC20Standard.sol\":1573:1579  _value */\n          dup2\n            /* \"contracts/ERC20Standard.sol\":1549:1557  balances */\n          0x05\n            /* \"contracts/ERC20Standard.sol\":1549:1569  balances[msg.sender] */\n          0x00\n            /* \"contracts/ERC20Standard.sol\":1558:1568  msg.sender */\n          caller\n            /* \"contracts/ERC20Standard.sol\":1549:1569  balances[msg.sender] */\n          0xffffffffffffffffffffffffffffffffffffffff\n          and\n          0xffffffffffffffffffffffffffffffffffffffff\n          and\n          dup2\n          mstore\n          0x20\n          add\n          swap1\n          dup2\n          mstore\n          0x20\n          add\n          0x00\n          keccak256\n          sload\n            /* \"contracts/ERC20Standard.sol\":1549:1579  balances[msg.sender] >= _value */\n          lt\n          iszero\n            /* \"contracts/ERC20Standard.sol\":1549:1593  balances[msg.sender] >= _value && _value > 0 */\n          dup1\n          iszero\n          tag_100\n          jumpi\n          pop\n            /* \"contracts/ERC20Standard.sol\":1592:1593  0 */\n          0x00\n            /* \"contracts/ERC20Standard.sol\":1583:1589  _value */\n          dup3\n            /* \"contracts/ERC20Standard.sol\":1583:1593  _value > 0 */\n          gt\n            /* \"contracts/ERC20Standard.sol\":1549:1593  balances[msg.sender] >= _value && _value > 0 */\n        tag_100:\n            /* \"contracts/ERC20Standard.sol\":1541:1594  require(balances[msg.sender] >= _value && _value > 0) */\n          tag_101\n          jumpi\n          0x00\n          dup1\n          revert\n        tag_101:\n            /* \"contracts/ERC20Standard.sol\":1625:1657  balances[msg.sender].sub(_value) */\n          tag_102\n            /* \"contracts/ERC20Standard.sol\":1650:1656  _value */\n          dup3\n            /* \"contracts/ERC20Standard.sol\":1625:1633  balances */\n          0x05\n            /* \"contracts/ERC20Standard.sol\":1625:1645  balances[msg.sender] */\n          0x00\n            /* \"contracts/ERC20Standard.sol\":1634:1644  msg.sender */\n          caller\n            /* \"contracts/ERC20Standard.sol\":1625:1645  balances[msg.sender] */\n          0xffffffffffffffffffffffffffffffffffffffff\n          and\n          0xffffffffffffffffffffffffffffffffffffffff\n          and\n          dup2\n          mstore\n          0x20\n          add\n          swap1\n          dup2\n          mstore\n          0x20\n          add\n          0x00\n          keccak256\n          sload\n            /* \"contracts/ERC20Standard.sol\":1625:1649  balances[msg.sender].sub */\n          tag_72\n          swap1\n            /* \"contracts/ERC20Standard.sol\":1625:1657  balances[msg.sender].sub(_value) */\n          swap2\n          swap1\n          0xffffffff\n          and\n          jump\t// in\n        tag_102:\n            /* \"contracts/ERC20Standard.sol\":1602:1610  balances */\n          0x05\n            /* \"contracts/ERC20Standard.sol\":1602:1622  balances[msg.sender] */\n          0x00\n            /* \"contracts/ERC20Standard.sol\":1611:1621  msg.sender */\n          caller\n            /* \"contracts/ERC20Standard.sol\":1602:1622  balances[msg.sender] */\n          0xffffffffffffffffffffffffffffffffffffffff\n          and\n          0xffffffffffffffffffffffffffffffffffffffff\n          and\n          dup2\n          mstore\n          0x20\n          add\n          swap1\n          dup2\n          mstore\n          0x20\n          add\n          0x00\n          keccak256\n            /* \"contracts/ERC20Standard.sol\":1602:1657  balances[msg.sender] = balances[msg.sender].sub(_value) */\n          dup2\n          swap1\n          sstore\n          pop\n            /* \"contracts/ERC20Standard.sol\":1688:1720  balances[_recipient].add(_value) */\n          tag_103\n            /* \"contracts/ERC20Standard.sol\":1713:1719  _value */\n          dup3\n            /* \"contracts/ERC20Standard.sol\":1688:1696  balances */\n          0x05\n            /* \"contracts/ERC20Standard.sol\":1688:1708  balances[_recipient] */\n          0x00\n            /* \"contracts/ERC20Standard.sol\":1697:1707  _recipient */\n          dup7\n            /* \"contracts/ERC20Standard.sol\":1688:1708  balances[_recipient] */\n          0xffffffffffffffffffffffffffffffffffffffff\n          and\n          0xffffffffffffffffffffffffffffffffffffffff\n          and\n          dup2\n          mstore\n          0x20\n          add\n          swap1\n          dup2\n          mstore\n          0x20\n          add\n          0x00\n          keccak256\n          sload\n            /* \"contracts/ERC20Standard.sol\":1688:1712  balances[_recipient].add */\n          tag_70\n          swap1\n            /* \"contracts/ERC20Standard.sol\":1688:1720  balances[_recipient].add(_value) */\n          swap2\n          swap1\n          0xffffffff\n          and\n          jump\t// in\n        tag_103:\n            /* \"contracts/ERC20Standard.sol\":1665:1673  balances */\n          0x05\n            /* \"contracts/ERC20Standard.sol\":1665:1685  balances[_recipient] */\n          0x00\n            /* \"contracts/ERC20Standard.sol\":1674:1684  _recipient */\n          dup6\n            /* \"contracts/ERC20Standard.sol\":1665:1685  balances[_recipient] */\n          0xffffffffffffffffffffffffffffffffffffffff\n          and\n          0xffffffffffffffffffffffffffffffffffffffff\n          and\n          dup2\n          mstore\n          0x20\n          add\n          swap1\n          dup2\n          mstore\n          0x20\n          add\n          0x00\n          keccak256\n            /* \"contracts/ERC20Standard.sol\":1665:1720  balances[_recipient] = balances[_recipient].add(_value) */\n          dup2\n          swap1\n          sstore\n          pop\n            /* \"contracts/ERC20Standard.sol\":1754:1764  _recipient */\n          dup3\n            /* \"contracts/ERC20Standard.sol\":1733:1773  Transfer(msg.sender, _recipient, _value) */\n          0xffffffffffffffffffffffffffffffffffffffff\n          and\n            /* \"contracts/ERC20Standard.sol\":1742:1752  msg.sender */\n          caller\n            /* \"contracts/ERC20Standard.sol\":1733:1773  Transfer(msg.sender, _recipient, _value) */\n          0xffffffffffffffffffffffffffffffffffffffff\n          and\n          0xddf252ad1be2c89b69c2b068fc378daa952ba7f163c4a11628f55a4df523b3ef\n            /* \"contracts/ERC20Standard.sol\":1766:1772  _value */\n          dup5\n            /* \"contracts/ERC20Standard.sol\":1733:1773  Transfer(msg.sender, _recipient, _value) */\n          mload(0x40)\n          tag_104\n          swap2\n          swap1\n          tag_26\n          jump\t// in\n        tag_104:\n          mload(0x40)\n          dup1\n          swap2\n          sub\n          swap1\n          log3\n            /* \"contracts/ERC20Standard.sol\":1453:1793  function transfer(address _recipient, uint _value) public onlyPayloadSize(2*32) {\r... */\n          pop\n          pop\n          pop\n          jump\t// out\n            /* \"contracts/ERC20Standard.sol\":2624:2754  function allowance(address _spender, address _owner) public view returns (uint balance) {\r... */\n        tag_55:\n            /* \"contracts/ERC20Standard.sol\":2698:2710  uint balance */\n          0x00\n            /* \"contracts/ERC20Standard.sol\":2724:2731  allowed */\n          0x06\n            /* \"contracts/ERC20Standard.sol\":2724:2739  allowed[_owner] */\n          0x00\n            /* \"contracts/ERC20Standard.sol\":2732:2738  _owner */\n          dup4\n            /* \"contracts/ERC20Standard.sol\":2724:2739  allowed[_owner] */\n          0xffffffffffffffffffffffffffffffffffffffff\n          and\n          0xffffffffffffffffffffffffffffffffffffffff\n          and\n          dup2\n          mstore\n          0x20\n          add\n          swap1\n          dup2\n          mstore\n          0x20\n          add\n          0x00\n          keccak256\n            /* \"contracts/ERC20Standard.sol\":2724:2749  allowed[_owner][_spender] */\n          0x00\n            /* \"contracts/ERC20Standard.sol\":2740:2748  _spender */\n          dup5\n            /* \"contracts/ERC20Standard.sol\":2724:2749  allowed[_owner][_spender] */\n          0xffffffffffffffffffffffffffffffffffffffff\n          and\n          0xffffffffffffffffffffffffffffffffffffffff\n          and\n          dup2\n          mstore\n          0x20\n          add\n          swap1\n          dup2\n          mstore\n          0x20\n          add\n          0x00\n          keccak256\n          sload\n            /* \"contracts/ERC20Standard.sol\":2717:2749  return allowed[_owner][_spender] */\n          swap1\n          pop\n            /* \"contracts/ERC20Standard.sol\":2624:2754  function allowance(address _spender, address _owner) public view returns (uint balance) {\r... */\n          swap3\n          swap2\n          pop\n          pop\n          jump\t// out\n            /* \"contracts/ERC20Standard.sol\":629:779  function add(uint256 a, uint256 b) internal pure returns (uint256) {\r... */\n        tag_70:\n            /* \"contracts/ERC20Standard.sol\":687:694  uint256 */\n          0x00\n            /* \"contracts/ERC20Standard.sol\":707:716  uint256 c */\n          dup1\n            /* \"contracts/ERC20Standard.sol\":723:724  b */\n          dup3\n            /* \"contracts/ERC20Standard.sol\":719:720  a */\n          dup5\n            /* \"contracts/ERC20Standard.sol\":719:724  a + b */\n          tag_107\n          swap2\n          swap1\n          tag_95\n          jump\t// in\n        tag_107:\n            /* \"contracts/ERC20Standard.sol\":707:724  uint256 c = a + b */\n          swap1\n          pop\n            /* \"contracts/ERC20Standard.sol\":748:749  a */\n          dup4\n            /* \"contracts/ERC20Standard.sol\":743:744  c */\n          dup2\n            /* \"contracts/ERC20Standard.sol\":743:749  c >= a */\n          lt\n          iszero\n            /* \"contracts/ERC20Standard.sol\":735:750  require(c >= a) */\n          tag_108\n          jumpi\n          0x00\n          dup1\n          revert\n        tag_108:\n            /* \"contracts/ERC20Standard.sol\":770:771  c */\n          dup1\n            /* \"contracts/ERC20Standard.sol\":763:771  return c */\n          swap2\n          pop\n          pop\n            /* \"contracts/ERC20Standard.sol\":629:779  function add(uint256 a, uint256 b) internal pure returns (uint256) {\r... */\n          swap3\n          swap2\n          pop\n          pop\n          jump\t// out\n            /* \"contracts/ERC20Standard.sol\":471:621  function sub(uint256 a, uint256 b) internal pure returns (uint256) {\r... */\n        tag_72:\n            /* \"contracts/ERC20Standard.sol\":529:536  uint256 */\n          0x00\n            /* \"contracts/ERC20Standard.sol\":562:563  a */\n          dup3\n            /* \"contracts/ERC20Standard.sol\":557:558  b */\n          dup3\n            /* \"contracts/ERC20Standard.sol\":557:563  b <= a */\n          gt\n          iszero\n            /* \"contracts/ERC20Standard.sol\":549:564  require(b <= a) */\n          tag_110\n          jumpi\n          0x00\n          dup1\n          revert\n        tag_110:\n            /* \"contracts/ERC20Standard.sol\":575:584  uint256 c */\n          0x00\n            /* \"contracts/ERC20Standard.sol\":591:592  b */\n          dup3\n            /* \"contracts/ERC20Standard.sol\":587:588  a */\n          dup5\n            /* \"contracts/ERC20Standard.sol\":587:592  a - b */\n          tag_111\n          swap2\n          swap1\n          tag_112\n          jump\t// in\n        tag_111:\n            /* \"contracts/ERC20Standard.sol\":575:592  uint256 c = a - b */\n          swap1\n          pop\n            /* \"contracts/ERC20Standard.sol\":612:613  c */\n          dup1\n            /* \"contracts/ERC20Standard.sol\":605:613  return c */\n          swap2\n          pop\n          pop\n            /* \"contracts/ERC20Standard.sol\":471:621  function sub(uint256 a, uint256 b) internal pure returns (uint256) {\r... */\n          swap3\n          swap2\n          pop\n          pop\n          jump\t// out\n            /* \"#utility.yul\":7:146   */\n        tag_114:\n            /* \"#utility.yul\":53:58   */\n          0x00\n            /* \"#utility.yul\":91:97   */\n          dup2\n            /* \"#utility.yul\":78:98   */\n          calldataload\n            /* \"#utility.yul\":69:98   */\n          swap1\n          pop\n            /* \"#utility.yul\":107:140   */\n          tag_116\n            /* \"#utility.yul\":134:139   */\n          dup2\n            /* \"#utility.yul\":107:140   */\n          tag_117\n          jump\t// in\n        tag_116:\n            /* \"#utility.yul\":7:146   */\n          swap3\n          swap2\n          pop\n          pop\n          jump\t// out\n            /* \"#utility.yul\":152:291   */\n        tag_118:\n            /* \"#utility.yul\":198:203   */\n          0x00\n            /* \"#utility.yul\":236:242   */\n          dup2\n            /* \"#utility.yul\":223:243   */\n          calldataload\n            /* \"#utility.yul\":214:243   */\n          swap1\n          pop\n            /* \"#utility.yul\":252:285   */\n          tag_120\n            /* \"#utility.yul\":279:284   */\n          dup2\n            /* \"#utility.yul\":252:285   */\n          tag_121\n          jump\t// in\n        tag_120:\n            /* \"#utility.yul\":152:291   */\n          swap3\n          swap2\n          pop\n          pop\n          jump\t// out\n            /* \"#utility.yul\":297:626   */\n        tag_43:\n            /* \"#utility.yul\":356:362   */\n          0x00\n            /* \"#utility.yul\":405:407   */\n          0x20\n            /* \"#utility.yul\":393:402   */\n          dup3\n            /* \"#utility.yul\":384:391   */\n          dup5\n            /* \"#utility.yul\":380:403   */\n          sub\n            /* \"#utility.yul\":376:408   */\n          slt\n            /* \"#utility.yul\":373:492   */\n          iszero\n          tag_123\n          jumpi\n            /* \"#utility.yul\":411:490   */\n          tag_124\n          tag_125\n          jump\t// in\n        tag_124:\n            /* \"#utility.yul\":373:492   */\n        tag_123:\n            /* \"#utility.yul\":531:532   */\n          0x00\n            /* \"#utility.yul\":556:609   */\n          tag_126\n            /* \"#utility.yul\":601:608   */\n          dup5\n            /* \"#utility.yul\":592:598   */\n          dup3\n            /* \"#utility.yul\":581:590   */\n          dup6\n            /* \"#utility.yul\":577:599   */\n          add\n            /* \"#utility.yul\":556:609   */\n          tag_114\n          jump\t// in\n        tag_126:\n            /* \"#utility.yul\":546:609   */\n          swap2\n          pop\n            /* \"#utility.yul\":502:619   */\n          pop\n            /* \"#utility.yul\":297:626   */\n          swap3\n          swap2\n          pop\n          pop\n          jump\t// out\n            /* \"#utility.yul\":632:1106   */\n        tag_54:\n            /* \"#utility.yul\":700:706   */\n          0x00\n            /* \"#utility.yul\":708:714   */\n          dup1\n            /* \"#utility.yul\":757:759   */\n          0x40\n            /* \"#utility.yul\":745:754   */\n          dup4\n            /* \"#utility.yul\":736:743   */\n          dup6\n            /* \"#utility.yul\":732:755   */\n          sub\n            /* \"#utility.yul\":728:760   */\n          slt\n            /* \"#utility.yul\":725:844   */\n          iszero\n          tag_128\n          jumpi\n            /* \"#utility.yul\":763:842   */\n          tag_129\n          tag_125\n          jump\t// in\n        tag_129:\n            /* \"#utility.yul\":725:844   */\n        tag_128:\n            /* \"#utility.yul\":883:884   */\n          0x00\n            /* \"#utility.yul\":908:961   */\n          tag_130\n            /* \"#utility.yul\":953:960   */\n          dup6\n            /* \"#utility.yul\":944:950   */\n          dup3\n            /* \"#utility.yul\":933:942   */\n          dup7\n            /* \"#utility.yul\":929:951   */\n          add\n            /* \"#utility.yul\":908:961   */\n          tag_114\n          jump\t// in\n        tag_130:\n            /* \"#utility.yul\":898:961   */\n          swap3\n          pop\n            /* \"#utility.yul\":854:971   */\n          pop\n            /* \"#utility.yul\":1010:1012   */\n          0x20\n            /* \"#utility.yul\":1036:1089   */\n          tag_131\n            /* \"#utility.yul\":1081:1088   */\n          dup6\n            /* \"#utility.yul\":1072:1078   */\n          dup3\n            /* \"#utility.yul\":1061:1070   */\n          dup7\n            /* \"#utility.yul\":1057:1079   */\n          add\n            /* \"#utility.yul\":1036:1089   */\n          tag_114\n          jump\t// in\n        tag_131:\n            /* \"#utility.yul\":1026:1089   */\n          swap2\n          pop\n            /* \"#utility.yul\":981:1099   */\n          pop\n            /* \"#utility.yul\":632:1106   */\n          swap3\n          pop\n          swap3\n          swap1\n          pop\n          jump\t// out\n            /* \"#utility.yul\":1112:1731   */\n        tag_29:\n            /* \"#utility.yul\":1189:1195   */\n          0x00\n            /* \"#utility.yul\":1197:1203   */\n          dup1\n            /* \"#utility.yul\":1205:1211   */\n          0x00\n            /* \"#utility.yul\":1254:1256   */\n          0x60\n            /* \"#utility.yul\":1242:1251   */\n          dup5\n            /* \"#utility.yul\":1233:1240   */\n          dup7\n            /* \"#utility.yul\":1229:1252   */\n          sub\n            /* \"#utility.yul\":1225:1257   */\n          slt\n            /* \"#utility.yul\":1222:1341   */\n          iszero\n          tag_133\n          jumpi\n            /* \"#utility.yul\":1260:1339   */\n          tag_134\n          tag_125\n          jump\t// in\n        tag_134:\n            /* \"#utility.yul\":1222:1341   */\n        tag_133:\n            /* \"#utility.yul\":1380:1381   */\n          0x00\n            /* \"#utility.yul\":1405:1458   */\n          tag_135\n            /* \"#utility.yul\":1450:1457   */\n          dup7\n            /* \"#utility.yul\":1441:1447   */\n          dup3\n            /* \"#utility.yul\":1430:1439   */\n          dup8\n            /* \"#utility.yul\":1426:1448   */\n          add\n            /* \"#utility.yul\":1405:1458   */\n          tag_114\n          jump\t// in\n        tag_135:\n            /* \"#utility.yul\":1395:1458   */\n          swap4\n          pop\n            /* \"#utility.yul\":1351:1468   */\n          pop\n            /* \"#utility.yul\":1507:1509   */\n          0x20\n            /* \"#utility.yul\":1533:1586   */\n          tag_136\n            /* \"#utility.yul\":1578:1585   */\n          dup7\n            /* \"#utility.yul\":1569:1575   */\n          dup3\n            /* \"#utility.yul\":1558:1567   */\n          dup8\n            /* \"#utility.yul\":1554:1576   */\n          add\n            /* \"#utility.yul\":1533:1586   */\n          tag_114\n          jump\t// in\n        tag_136:\n            /* \"#utility.yul\":1523:1586   */\n          swap3\n          pop\n            /* \"#utility.yul\":1478:1596   */\n          pop\n            /* \"#utility.yul\":1635:1637   */\n          0x40\n            /* \"#utility.yul\":1661:1714   */\n          tag_137\n            /* \"#utility.yul\":1706:1713   */\n          dup7\n            /* \"#utility.yul\":1697:1703   */\n          dup3\n            /* \"#utility.yul\":1686:1695   */\n          dup8\n            /* \"#utility.yul\":1682:1704   */\n          add\n            /* \"#utility.yul\":1661:1714   */\n          tag_118\n          jump\t// in\n        tag_137:\n            /* \"#utility.yul\":1651:1714   */\n          swap2\n          pop\n            /* \"#utility.yul\":1606:1724   */\n          pop\n            /* \"#utility.yul\":1112:1731   */\n          swap3\n          pop\n          swap3\n          pop\n          swap3\n          jump\t// out\n            /* \"#utility.yul\":1737:2211   */\n        tag_21:\n            /* \"#utility.yul\":1805:1811   */\n          0x00\n            /* \"#utility.yul\":1813:1819   */\n          dup1\n            /* \"#utility.yul\":1862:1864   */\n          0x40\n            /* \"#utility.yul\":1850:1859   */\n          dup4\n            /* \"#utility.yul\":1841:1848   */\n          dup6\n            /* \"#utility.yul\":1837:1860   */\n          sub\n            /* \"#utility.yul\":1833:1865   */\n          slt\n            /* \"#utility.yul\":1830:1949   */\n          iszero\n          tag_139\n          jumpi\n            /* \"#utility.yul\":1868:1947   */\n          tag_140\n          tag_125\n          jump\t// in\n        tag_140:\n            /* \"#utility.yul\":1830:1949   */\n        tag_139:\n            /* \"#utility.yul\":1988:1989   */\n          0x00\n            /* \"#utility.yul\":2013:2066   */\n          tag_141\n            /* \"#utility.yul\":2058:2065   */\n          dup6\n            /* \"#utility.yul\":2049:2055   */\n          dup3\n            /* \"#utility.yul\":2038:2047   */\n          dup7\n            /* \"#utility.yul\":2034:2056   */\n          add\n            /* \"#utility.yul\":2013:2066   */\n          tag_114\n          jump\t// in\n        tag_141:\n            /* \"#utility.yul\":2003:2066   */\n          swap3\n          pop\n            /* \"#utility.yul\":1959:2076   */\n          pop\n            /* \"#utility.yul\":2115:2117   */\n          0x20\n            /* \"#utility.yul\":2141:2194   */\n          tag_142\n            /* \"#utility.yul\":2186:2193   */\n          dup6\n            /* \"#utility.yul\":2177:2183   */\n          dup3\n            /* \"#utility.yul\":2166:2175   */\n          dup7\n            /* \"#utility.yul\":2162:2184   */\n          add\n            /* \"#utility.yul\":2141:2194   */\n          tag_118\n          jump\t// in\n        tag_142:\n            /* \"#utility.yul\":2131:2194   */\n          swap2\n          pop\n            /* \"#utility.yul\":2086:2204   */\n          pop\n            /* \"#utility.yul\":1737:2211   */\n          swap3\n          pop\n          swap3\n          swap1\n          pop\n          jump\t// out\n            /* \"#utility.yul\":2217:2581   */\n        tag_143:\n            /* \"#utility.yul\":2305:2308   */\n          0x00\n            /* \"#utility.yul\":2333:2372   */\n          tag_145\n            /* \"#utility.yul\":2366:2371   */\n          dup3\n            /* \"#utility.yul\":2333:2372   */\n          tag_146\n          jump\t// in\n        tag_145:\n            /* \"#utility.yul\":2388:2459   */\n          tag_147\n            /* \"#utility.yul\":2452:2458   */\n          dup2\n            /* \"#utility.yul\":2447:2450   */\n          dup6\n            /* \"#utility.yul\":2388:2459   */\n          tag_148\n          jump\t// in\n        tag_147:\n            /* \"#utility.yul\":2381:2459   */\n          swap4\n          pop\n            /* \"#utility.yul\":2468:2520   */\n          tag_149\n            /* \"#utility.yul\":2513:2519   */\n          dup2\n            /* \"#utility.yul\":2508:2511   */\n          dup6\n            /* \"#utility.yul\":2501:2505   */\n          0x20\n            /* \"#utility.yul\":2494:2499   */\n          dup7\n            /* \"#utility.yul\":2490:2506   */\n          add\n            /* \"#utility.yul\":2468:2520   */\n          tag_150\n          jump\t// in\n        tag_149:\n            /* \"#utility.yul\":2545:2574   */\n          tag_151\n            /* \"#utility.yul\":2567:2573   */\n          dup2\n            /* \"#utility.yul\":2545:2574   */\n          tag_152\n          jump\t// in\n        tag_151:\n            /* \"#utility.yul\":2540:2543   */\n          dup5\n            /* \"#utility.yul\":2536:2575   */\n          add\n            /* \"#utility.yul\":2529:2575   */\n          swap2\n          pop\n            /* \"#utility.yul\":2309:2581   */\n          pop\n            /* \"#utility.yul\":2217:2581   */\n          swap3\n          swap2\n          pop\n          pop\n          jump\t// out\n            /* \"#utility.yul\":2587:2953   */\n        tag_153:\n            /* \"#utility.yul\":2729:2732   */\n          0x00\n            /* \"#utility.yul\":2750:2817   */\n          tag_155\n            /* \"#utility.yul\":2814:2816   */\n          0x1f\n            /* \"#utility.yul\":2809:2812   */\n          dup4\n            /* \"#utility.yul\":2750:2817   */\n          tag_148\n          jump\t// in\n        tag_155:\n            /* \"#utility.yul\":2743:2817   */\n          swap2\n          pop\n            /* \"#utility.yul\":2826:2919   */\n          tag_156\n            /* \"#utility.yul\":2915:2918   */\n          dup3\n            /* \"#utility.yul\":2826:2919   */\n          tag_157\n          jump\t// in\n        tag_156:\n            /* \"#utility.yul\":2944:2946   */\n          0x20\n            /* \"#utility.yul\":2939:2942   */\n          dup3\n            /* \"#utility.yul\":2935:2947   */\n          add\n            /* \"#utility.yul\":2928:2947   */\n          swap1\n          pop\n            /* \"#utility.yul\":2587:2953   */\n          swap2\n          swap1\n          pop\n          jump\t// out\n            /* \"#utility.yul\":2959:3077   */\n        tag_158:\n            /* \"#utility.yul\":3046:3070   */\n          tag_160\n            /* \"#utility.yul\":3064:3069   */\n          dup2\n            /* \"#utility.yul\":3046:3070   */\n          tag_161\n          jump\t// in\n        tag_160:\n            /* \"#utility.yul\":3041:3044   */\n          dup3\n            /* \"#utility.yul\":3034:3071   */\n          mstore\n            /* \"#utility.yul\":2959:3077   */\n          pop\n          pop\n          jump\t// out\n            /* \"#utility.yul\":3083:3195   */\n        tag_162:\n            /* \"#utility.yul\":3166:3188   */\n          tag_164\n            /* \"#utility.yul\":3182:3187   */\n          dup2\n            /* \"#utility.yul\":3166:3188   */\n          tag_165\n          jump\t// in\n        tag_164:\n            /* \"#utility.yul\":3161:3164   */\n          dup3\n            /* \"#utility.yul\":3154:3189   */\n          mstore\n            /* \"#utility.yul\":3083:3195   */\n          pop\n          pop\n          jump\t// out\n            /* \"#utility.yul\":3201:3514   */\n        tag_18:\n            /* \"#utility.yul\":3314:3318   */\n          0x00\n            /* \"#utility.yul\":3352:3354   */\n          0x20\n            /* \"#utility.yul\":3341:3350   */\n          dup3\n            /* \"#utility.yul\":3337:3355   */\n          add\n            /* \"#utility.yul\":3329:3355   */\n          swap1\n          pop\n            /* \"#utility.yul\":3401:3410   */\n          dup2\n            /* \"#utility.yul\":3395:3399   */\n          dup2\n            /* \"#utility.yul\":3391:3411   */\n          sub\n            /* \"#utility.yul\":3387:3388   */\n          0x00\n            /* \"#utility.yul\":3376:3385   */\n          dup4\n            /* \"#utility.yul\":3372:3389   */\n          add\n            /* \"#utility.yul\":3365:3412   */\n          mstore\n            /* \"#utility.yul\":3429:3507   */\n          tag_167\n            /* \"#utility.yul\":3502:3506   */\n          dup2\n            /* \"#utility.yul\":3493:3499   */\n          dup5\n            /* \"#utility.yul\":3429:3507   */\n          tag_143\n          jump\t// in\n        tag_167:\n            /* \"#utility.yul\":3421:3507   */\n          swap1\n          pop\n            /* \"#utility.yul\":3201:3514   */\n          swap3\n          swap2\n          pop\n          pop\n          jump\t// out\n            /* \"#utility.yul\":3520:3939   */\n        tag_78:\n            /* \"#utility.yul\":3686:3690   */\n          0x00\n            /* \"#utility.yul\":3724:3726   */\n          0x20\n            /* \"#utility.yul\":3713:3722   */\n          dup3\n            /* \"#utility.yul\":3709:3727   */\n          add\n            /* \"#utility.yul\":3701:3727   */\n          swap1\n          pop\n            /* \"#utility.yul\":3773:3782   */\n          dup2\n            /* \"#utility.yul\":3767:3771   */\n          dup2\n            /* \"#utility.yul\":3763:3783   */\n          sub\n            /* \"#utility.yul\":3759:3760   */\n          0x00\n            /* \"#utility.yul\":3748:3757   */\n          dup4\n            /* \"#utility.yul\":3744:3761   */\n          add\n            /* \"#utility.yul\":3737:3784   */\n          mstore\n            /* \"#utility.yul\":3801:3932   */\n          tag_169\n            /* \"#utility.yul\":3927:3931   */\n          dup2\n            /* \"#utility.yul\":3801:3932   */\n          tag_153\n          jump\t// in\n        tag_169:\n            /* \"#utility.yul\":3793:3932   */\n          swap1\n          pop\n            /* \"#utility.yul\":3520:3939   */\n          swap2\n          swap1\n          pop\n          jump\t// out\n            /* \"#utility.yul\":3945:4167   */\n        tag_26:\n            /* \"#utility.yul\":4038:4042   */\n          0x00\n            /* \"#utility.yul\":4076:4078   */\n          0x20\n            /* \"#utility.yul\":4065:4074   */\n          dup3\n            /* \"#utility.yul\":4061:4079   */\n          add\n            /* \"#utility.yul\":4053:4079   */\n          swap1\n          pop\n            /* \"#utility.yul\":4089:4160   */\n          tag_171\n            /* \"#utility.yul\":4157:4158   */\n          0x00\n            /* \"#utility.yul\":4146:4155   */\n          dup4\n            /* \"#utility.yul\":4142:4159   */\n          add\n            /* \"#utility.yul\":4133:4139   */\n          dup5\n            /* \"#utility.yul\":4089:4160   */\n          tag_158\n          jump\t// in\n        tag_171:\n            /* \"#utility.yul\":3945:4167   */\n          swap3\n          swap2\n          pop\n          pop\n          jump\t// out\n            /* \"#utility.yul\":4173:4387   */\n        tag_34:\n            /* \"#utility.yul\":4262:4266   */\n          0x00\n            /* \"#utility.yul\":4300:4302   */\n          0x20\n            /* \"#utility.yul\":4289:4298   */\n          dup3\n            /* \"#utility.yul\":4285:4303   */\n          add\n            /* \"#utility.yul\":4277:4303   */\n          swap1\n          pop\n            /* \"#utility.yul\":4313:4380   */\n          tag_173\n            /* \"#utility.yul\":4377:4378   */\n          0x00\n            /* \"#utility.yul\":4366:4375   */\n          dup4\n            /* \"#utility.yul\":4362:4379   */\n          add\n            /* \"#utility.yul\":4353:4359   */\n          dup5\n            /* \"#utility.yul\":4313:4380   */\n          tag_162\n          jump\t// in\n        tag_173:\n            /* \"#utility.yul\":4173:4387   */\n          swap3\n          swap2\n          pop\n          pop\n          jump\t// out\n            /* \"#utility.yul\":4474:4573   */\n        tag_146:\n            /* \"#utility.yul\":4526:4532   */\n          0x00\n            /* \"#utility.yul\":4560:4565   */\n          dup2\n            /* \"#utility.yul\":4554:4566   */\n          mload\n            /* \"#utility.yul\":4544:4566   */\n          swap1\n          pop\n            /* \"#utility.yul\":4474:4573   */\n          swap2\n          swap1\n          pop\n          jump\t// out\n            /* \"#utility.yul\":4579:4748   */\n        tag_148:\n            /* \"#utility.yul\":4663:4674   */\n          0x00\n            /* \"#utility.yul\":4697:4703   */\n          dup3\n            /* \"#utility.yul\":4692:4695   */\n          dup3\n            /* \"#utility.yul\":4685:4704   */\n          mstore\n            /* \"#utility.yul\":4737:4741   */\n          0x20\n            /* \"#utility.yul\":4732:4735   */\n          dup3\n            /* \"#utility.yul\":4728:4742   */\n          add\n            /* \"#utility.yul\":4713:4742   */\n          swap1\n          pop\n            /* \"#utility.yul\":4579:4748   */\n          swap3\n          swap2\n          pop\n          pop\n          jump\t// out\n            /* \"#utility.yul\":4754:5059   */\n        tag_95:\n            /* \"#utility.yul\":4794:4797   */\n          0x00\n            /* \"#utility.yul\":4813:4833   */\n          tag_179\n            /* \"#utility.yul\":4831:4832   */\n          dup3\n            /* \"#utility.yul\":4813:4833   */\n          tag_161\n          jump\t// in\n        tag_179:\n            /* \"#utility.yul\":4808:4833   */\n          swap2\n          pop\n            /* \"#utility.yul\":4847:4867   */\n          tag_180\n            /* \"#utility.yul\":4865:4866   */\n          dup4\n            /* \"#utility.yul\":4847:4867   */\n          tag_161\n          jump\t// in\n        tag_180:\n            /* \"#utility.yul\":4842:4867   */\n          swap3\n          pop\n            /* \"#utility.yul\":5001:5002   */\n          dup3\n            /* \"#utility.yul\":4933:4999   */\n          0xffffffffffffffffffffffffffffffffffffffffffffffffffffffffffffffff\n            /* \"#utility.yul\":4929:5003   */\n          sub\n            /* \"#utility.yul\":4926:4927   */\n          dup3\n            /* \"#utility.yul\":4923:5004   */\n          gt\n            /* \"#utility.yul\":4920:5027   */\n          iszero\n          tag_181\n          jumpi\n            /* \"#utility.yul\":5007:5025   */\n          tag_182\n          tag_183\n          jump\t// in\n        tag_182:\n            /* \"#utility.yul\":4920:5027   */\n        tag_181:\n            /* \"#utility.yul\":5051:5052   */\n          dup3\n            /* \"#utility.yul\":5048:5049   */\n          dup3\n            /* \"#utility.yul\":5044:5053   */\n          add\n            /* \"#utility.yul\":5037:5053   */\n          swap1\n          pop\n            /* \"#utility.yul\":4754:5059   */\n          swap3\n          swap2\n          pop\n          pop\n          jump\t// out\n            /* \"#utility.yul\":5065:5256   */\n        tag_112:\n            /* \"#utility.yul\":5105:5109   */\n          0x00\n            /* \"#utility.yul\":5125:5145   */\n          tag_185\n            /* \"#utility.yul\":5143:5144   */\n          dup3\n            /* \"#utility.yul\":5125:5145   */\n          tag_161\n          jump\t// in\n        tag_185:\n            /* \"#utility.yul\":5120:5145   */\n          swap2\n          pop\n            /* \"#utility.yul\":5159:5179   */\n          tag_186\n            /* \"#utility.yul\":5177:5178   */\n          dup4\n            /* \"#utility.yul\":5159:5179   */\n          tag_161\n          jump\t// in\n        tag_186:\n            /* \"#utility.yul\":5154:5179   */\n          swap3\n          pop\n            /* \"#utility.yul\":5198:5199   */\n          dup3\n            /* \"#utility.yul\":5195:5196   */\n          dup3\n            /* \"#utility.yul\":5192:5200   */\n          lt\n            /* \"#utility.yul\":5189:5223   */\n          iszero\n          tag_187\n          jumpi\n            /* \"#utility.yul\":5203:5221   */\n          tag_188\n          tag_183\n          jump\t// in\n        tag_188:\n            /* \"#utility.yul\":5189:5223   */\n        tag_187:\n            /* \"#utility.yul\":5248:5249   */\n          dup3\n            /* \"#utility.yul\":5245:5246   */\n          dup3\n            /* \"#utility.yul\":5241:5250   */\n          sub\n            /* \"#utility.yul\":5233:5250   */\n          swap1\n          pop\n            /* \"#utility.yul\":5065:5256   */\n          swap3\n          swap2\n          pop\n          pop\n          jump\t// out\n            /* \"#utility.yul\":5262:5358   */\n        tag_189:\n            /* \"#utility.yul\":5299:5306   */\n          0x00\n            /* \"#utility.yul\":5328:5352   */\n          tag_191\n            /* \"#utility.yul\":5346:5351   */\n          dup3\n            /* \"#utility.yul\":5328:5352   */\n          tag_192\n          jump\t// in\n        tag_191:\n            /* \"#utility.yul\":5317:5352   */\n          swap1\n          pop\n            /* \"#utility.yul\":5262:5358   */\n          swap2\n          swap1\n          pop\n          jump\t// out\n            /* \"#utility.yul\":5364:5490   */\n        tag_192:\n            /* \"#utility.yul\":5401:5408   */\n          0x00\n            /* \"#utility.yul\":5441:5483   */\n          0xffffffffffffffffffffffffffffffffffffffff\n            /* \"#utility.yul\":5434:5439   */\n          dup3\n            /* \"#utility.yul\":5430:5484   */\n          and\n            /* \"#utility.yul\":5419:5484   */\n          swap1\n          pop\n            /* \"#utility.yul\":5364:5490   */\n          swap2\n          swap1\n          pop\n          jump\t// out\n            /* \"#utility.yul\":5496:5573   */\n        tag_161:\n            /* \"#utility.yul\":5533:5540   */\n          0x00\n            /* \"#utility.yul\":5562:5567   */\n          dup2\n            /* \"#utility.yul\":5551:5567   */\n          swap1\n          pop\n            /* \"#utility.yul\":5496:5573   */\n          swap2\n          swap1\n          pop\n          jump\t// out\n            /* \"#utility.yul\":5579:5665   */\n        tag_165:\n            /* \"#utility.yul\":5614:5621   */\n          0x00\n            /* \"#utility.yul\":5654:5658   */\n          0xff\n            /* \"#utility.yul\":5647:5652   */\n          dup3\n            /* \"#utility.yul\":5643:5659   */\n          and\n            /* \"#utility.yul\":5632:5659   */\n          swap1\n          pop\n            /* \"#utility.yul\":5579:5665   */\n          swap2\n          swap1\n          pop\n          jump\t// out\n            /* \"#utility.yul\":5671:5978   */\n        tag_150:\n            /* \"#utility.yul\":5739:5740   */\n          0x00\n            /* \"#utility.yul\":5749:5862   */\n        tag_197:\n            /* \"#utility.yul\":5763:5769   */\n          dup4\n            /* \"#utility.yul\":5760:5761   */\n          dup2\n            /* \"#utility.yul\":5757:5770   */\n          lt\n            /* \"#utility.yul\":5749:5862   */\n          iszero\n          tag_199\n          jumpi\n            /* \"#utility.yul\":5848:5849   */\n          dup1\n            /* \"#utility.yul\":5843:5846   */\n          dup3\n            /* \"#utility.yul\":5839:5850   */\n          add\n            /* \"#utility.yul\":5833:5851   */\n          mload\n            /* \"#utility.yul\":5829:5830   */\n          dup2\n            /* \"#utility.yul\":5824:5827   */\n          dup5\n            /* \"#utility.yul\":5820:5831   */\n          add\n            /* \"#utility.yul\":5813:5852   */\n          mstore\n            /* \"#utility.yul\":5785:5787   */\n          0x20\n            /* \"#utility.yul\":5782:5783   */\n          dup2\n            /* \"#utility.yul\":5778:5788   */\n          add\n            /* \"#utility.yul\":5773:5788   */\n          swap1\n          pop\n            /* \"#utility.yul\":5749:5862   */\n          jump(tag_197)\n        tag_199:\n            /* \"#utility.yul\":5880:5886   */\n          dup4\n            /* \"#utility.yul\":5877:5878   */\n          dup2\n            /* \"#utility.yul\":5874:5887   */\n          gt\n            /* \"#utility.yul\":5871:5972   */\n          iszero\n          tag_200\n          jumpi\n            /* \"#utility.yul\":5960:5961   */\n          0x00\n            /* \"#utility.yul\":5951:5957   */\n          dup5\n            /* \"#utility.yul\":5946:5949   */\n          dup5\n            /* \"#utility.yul\":5942:5958   */\n          add\n            /* \"#utility.yul\":5935:5962   */\n          mstore\n            /* \"#utility.yul\":5871:5972   */\n        tag_200:\n            /* \"#utility.yul\":5720:5978   */\n          pop\n            /* \"#utility.yul\":5671:5978   */\n          pop\n          pop\n          pop\n          jump\t// out\n            /* \"#utility.yul\":5984:6304   */\n        tag_58:\n            /* \"#utility.yul\":6028:6034   */\n          0x00\n            /* \"#utility.yul\":6065:6066   */\n          0x02\n            /* \"#utility.yul\":6059:6063   */\n          dup3\n            /* \"#utility.yul\":6055:6067   */\n          div\n            /* \"#utility.yul\":6045:6067   */\n          swap1\n          pop\n            /* \"#utility.yul\":6112:6113   */\n          0x01\n            /* \"#utility.yul\":6106:6110   */\n          dup3\n            /* \"#utility.yul\":6102:6114   */\n          and\n            /* \"#utility.yul\":6133:6151   */\n          dup1\n            /* \"#utility.yul\":6123:6204   */\n          tag_202\n          jumpi\n            /* \"#utility.yul\":6189:6193   */\n          0x7f\n            /* \"#utility.yul\":6181:6187   */\n          dup3\n            /* \"#utility.yul\":6177:6194   */\n          and\n            /* \"#utility.yul\":6167:6194   */\n          swap2\n          pop\n            /* \"#utility.yul\":6123:6204   */\n        tag_202:\n            /* \"#utility.yul\":6251:6253   */\n          0x20\n            /* \"#utility.yul\":6243:6249   */\n          dup3\n            /* \"#utility.yul\":6240:6254   */\n          lt\n            /* \"#utility.yul\":6220:6238   */\n          dup2\n            /* \"#utility.yul\":6217:6255   */\n          eq\n            /* \"#utility.yul\":6214:6298   */\n          iszero\n          tag_203\n          jumpi\n            /* \"#utility.yul\":6270:6288   */\n          tag_204\n          tag_205\n          jump\t// in\n        tag_204:\n            /* \"#utility.yul\":6214:6298   */\n        tag_203:\n            /* \"#utility.yul\":6035:6304   */\n          pop\n            /* \"#utility.yul\":5984:6304   */\n          swap2\n          swap1\n          pop\n          jump\t// out\n            /* \"#utility.yul\":6310:6490   */\n        tag_98:\n            /* \"#utility.yul\":6358:6435   */\n          0x4e487b7100000000000000000000000000000000000000000000000000000000\n            /* \"#utility.yul\":6355:6356   */\n          0x00\n            /* \"#utility.yul\":6348:6436   */\n          mstore\n            /* \"#utility.yul\":6455:6459   */\n          0x01\n            /* \"#utility.yul\":6452:6453   */\n          0x04\n            /* \"#utility.yul\":6445:6460   */\n          mstore\n            /* \"#utility.yul\":6479:6483   */\n          0x24\n            /* \"#utility.yul\":6476:6477   */\n          0x00\n            /* \"#utility.yul\":6469:6484   */\n          revert\n            /* \"#utility.yul\":6496:6676   */\n        tag_183:\n            /* \"#utility.yul\":6544:6621   */\n          0x4e487b7100000000000000000000000000000000000000000000000000000000\n            /* \"#utility.yul\":6541:6542   */\n          0x00\n            /* \"#utility.yul\":6534:6622   */\n          mstore\n            /* \"#utility.yul\":6641:6645   */\n          0x11\n            /* \"#utility.yul\":6638:6639   */\n          0x04\n            /* \"#utility.yul\":6631:6646   */\n          mstore\n            /* \"#utility.yul\":6665:6669   */\n          0x24\n            /* \"#utility.yul\":6662:6663   */\n          0x00\n            /* \"#utility.yul\":6655:6670   */\n          revert\n            /* \"#utility.yul\":6682:6862   */\n        tag_205:\n            /* \"#utility.yul\":6730:6807   */\n          0x4e487b7100000000000000000000000000000000000000000000000000000000\n            /* \"#utility.yul\":6727:6728   */\n          0x00\n            /* \"#utility.yul\":6720:6808   */\n          mstore\n            /* \"#utility.yul\":6827:6831   */\n          0x22\n            /* \"#utility.yul\":6824:6825   */\n          0x04\n            /* \"#utility.yul\":6817:6832   */\n          mstore\n            /* \"#utility.yul\":6851:6855   */\n          0x24\n            /* \"#utility.yul\":6848:6849   */\n          0x00\n            /* \"#utility.yul\":6841:6856   */\n          revert\n            /* \"#utility.yul\":6991:7108   */\n        tag_125:\n            /* \"#utility.yul\":7100:7101   */\n          0x00\n            /* \"#utility.yul\":7097:7098   */\n          dup1\n            /* \"#utility.yul\":7090:7102   */\n          revert\n            /* \"#utility.yul\":7114:7216   */\n        tag_152:\n            /* \"#utility.yul\":7155:7161   */\n          0x00\n            /* \"#utility.yul\":7206:7208   */\n          0x1f\n            /* \"#utility.yul\":7202:7209   */\n          not\n            /* \"#utility.yul\":7197:7199   */\n          0x1f\n            /* \"#utility.yul\":7190:7195   */\n          dup4\n            /* \"#utility.yul\":7186:7200   */\n          add\n            /* \"#utility.yul\":7182:7210   */\n          and\n            /* \"#utility.yul\":7172:7210   */\n          swap1\n          pop\n            /* \"#utility.yul\":7114:7216   */\n          swap2\n          swap1\n          pop\n          jump\t// out\n            /* \"#utility.yul\":7222:7403   */\n        tag_157:\n            /* \"#utility.yul\":7362:7395   */\n          0x45524332303a206d696e7420746f20746865207a65726f206164647265737300\n            /* \"#utility.yul\":7358:7359   */\n          0x00\n            /* \"#utility.yul\":7350:7356   */\n          dup3\n            /* \"#utility.yul\":7346:7360   */\n          add\n            /* \"#utility.yul\":7339:7396   */\n          mstore\n            /* \"#utility.yul\":7222:7403   */\n          pop\n          jump\t// out\n            /* \"#utility.yul\":7409:7531   */\n        tag_117:\n            /* \"#utility.yul\":7482:7506   */\n          tag_215\n            /* \"#utility.yul\":7500:7505   */\n          dup2\n            /* \"#utility.yul\":7482:7506   */\n          tag_189\n          jump\t// in\n        tag_215:\n            /* \"#utility.yul\":7475:7480   */\n          dup2\n            /* \"#utility.yul\":7472:7507   */\n          eq\n            /* \"#utility.yul\":7462:7525   */\n          tag_216\n          jumpi\n            /* \"#utility.yul\":7521:7522   */\n          0x00\n            /* \"#utility.yul\":7518:7519   */\n          dup1\n            /* \"#utility.yul\":7511:7523   */\n          revert\n            /* \"#utility.yul\":7462:7525   */\n        tag_216:\n            /* \"#utility.yul\":7409:7531   */\n          pop\n          jump\t// out\n            /* \"#utility.yul\":7537:7659   */\n        tag_121:\n            /* \"#utility.yul\":7610:7634   */\n          tag_218\n            /* \"#utility.yul\":7628:7633   */\n          dup2\n            /* \"#utility.yul\":7610:7634   */\n          tag_161\n          jump\t// in\n        tag_218:\n            /* \"#utility.yul\":7603:7608   */\n          dup2\n            /* \"#utility.yul\":7600:7635   */\n          eq\n            /* \"#utility.yul\":7590:7653   */\n          tag_219\n          jumpi\n            /* \"#utility.yul\":7649:7650   */\n          0x00\n            /* \"#utility.yul\":7646:7647   */\n          dup1\n            /* \"#utility.yul\":7639:7651   */\n          revert\n            /* \"#utility.yul\":7590:7653   */\n        tag_219:\n            /* \"#utility.yul\":7537:7659   */\n          pop\n          jump\t// out\n\n        auxdata: 0xa264697066735822122027eb6e037f58eb04bceabf4d1664407137d7baa65a60157fffb955f10b61c4c564736f6c63430008070033\n    }\n}\n",
				"bytecode": {
					"linkReferences": {},
					"object": "608060405260405162000012906200019f565b604051809103906000f0801580156200002f573d6000803e3d6000fd5b50600560006101000a81548173ffffffffffffffffffffffffffffffffffffffff021916908373ffffffffffffffffffffffffffffffffffffffff1602179055503480156200007d57600080fd5b5033600460006101000a81548173ffffffffffffffffffffffffffffffffffffffff021916908373ffffffffffffffffffffffffffffffffffffffff160217905550600560009054906101000a900473ffffffffffffffffffffffffffffffffffffffff1673ffffffffffffffffffffffffffffffffffffffff166340c10f19600460009054906101000a900473ffffffffffffffffffffffffffffffffffffffff1660056040518363ffffffff1660e01b815260040162000141929190620001cf565b600060405180830381600087803b1580156200015c57600080fd5b505af115801562000171573d6000803e3d6000fd5b5050505063625f140a60008190555062069780600054620001939190620001fc565b600181905550620002da565b61139280620014f383390190565b620001b88162000259565b82525050565b620001c98162000297565b82525050565b6000604082019050620001e66000830185620001ad565b620001f56020830184620001be565b9392505050565b600062000209826200028d565b915062000216836200028d565b9250827fffffffffffffffffffffffffffffffffffffffffffffffffffffffffffffffff038211156200024e576200024d620002ab565b5b828201905092915050565b600062000266826200026d565b9050919050565b600073ffffffffffffffffffffffffffffffffffffffff82169050919050565b6000819050919050565b6000620002a4826200028d565b9050919050565b7f4e487b7100000000000000000000000000000000000000000000000000000000600052601160045260246000fd5b61120980620002ea6000396000f3fe608060405234801561001057600080fd5b50600436106100575760003560e01c80634041ef541461005c578063633fff161461008c5780636dd7d8ea146100a85780638203373a146100c4578063fc0c546a146100e0575b600080fd5b61007660048036038101906100719190610a8a565b6100fe565b6040516100839190610dc7565b60405180910390f35b6100a660048036038101906100a19190610b00565b6101b2565b005b6100c260048036038101906100bd9190610a8a565b6102a2565b005b6100de60048036038101906100d99190610ab7565b61054c565b005b6100e86107cd565b6040516100f59190610d0c565b60405180910390f35b6000600560009054906101000a900473ffffffffffffffffffffffffffffffffffffffff1673ffffffffffffffffffffffffffffffffffffffff166370a08231836040518263ffffffff1660e01b815260040161015b9190610c9f565b60206040518083038186803b15801561017357600080fd5b505afa158015610187573d6000803e3d6000fd5b505050506040513d601f19601f820116820180604052508101906101ab9190610b78565b9050919050565b80518251146101f6576040517f08c379a00000000000000000000000000000000000000000000000000000000081526004016101ed90610d27565b60405180910390fd5b60005b825181101561029d5781818151811061021557610214611050565b5b60200260200101516003600085848151811061023457610233611050565b5b602002602001015173ffffffffffffffffffffffffffffffffffffffff1673ffffffffffffffffffffffffffffffffffffffff16815260200190815260200160002090805190602001906102899291906107f3565b50808061029590610fa9565b9150506101f9565b505050565b6001544211156102e7576040517f08c379a00000000000000000000000000000000000000000000000000000000081526004016102de90610d47565b60405180910390fd5b600260003373ffffffffffffffffffffffffffffffffffffffff1673ffffffffffffffffffffffffffffffffffffffff16815260200190815260200160002060009054906101000a900460ff1615610374576040517f08c379a000000000000000000000000000000000000000000000000000000000815260040161036b90610d87565b60405180910390fd5b6002600560009054906101000a900473ffffffffffffffffffffffffffffffffffffffff1673ffffffffffffffffffffffffffffffffffffffff166370a08231336040518263ffffffff1660e01b81526004016103d19190610c9f565b60206040518083038186803b1580156103e957600080fd5b505afa1580156103fd573d6000803e3d6000fd5b505050506040513d601f19601f820116820180604052508101906104219190610b78565b14610461576040517f08c379a000000000000000000000000000000000000000000000000000000000815260040161045890610da7565b60405180910390fd5b600560009054906101000a900473ffffffffffffffffffffffffffffffffffffffff1673ffffffffffffffffffffffffffffffffffffffff1663a9059cbb8260016040518363ffffffff1660e01b81526004016104bf929190610cba565b600060405180830381600087803b1580156104d957600080fd5b505af11580156104ed573d6000803e3d6000fd5b505050506001600260003373ffffffffffffffffffffffffffffffffffffffff1673ffffffffffffffffffffffffffffffffffffffff16815260200190815260200160002060006101000a81548160ff02191690831515021790555050565b600460009054906101000a900473ffffffffffffffffffffffffffffffffffffffff1673ffffffffffffffffffffffffffffffffffffffff163373ffffffffffffffffffffffffffffffffffffffff16146105dc576040517f08c379a00000000000000000000000000000000000000000000000000000000081526004016105d390610d67565b60405180910390fd5b60005b81518110156107175760006002600084848151811061060157610600611050565b5b602002602001015173ffffffffffffffffffffffffffffffffffffffff1673ffffffffffffffffffffffffffffffffffffffff16815260200190815260200160002060006101000a81548160ff021916908315150217905550600560009054906101000a900473ffffffffffffffffffffffffffffffffffffffff1673ffffffffffffffffffffffffffffffffffffffff166340c10f198383815181106106ab576106aa611050565b5b602002602001015160026040518363ffffffff1660e01b81526004016106d2929190610ce3565b600060405180830381600087803b1580156106ec57600080fd5b505af1158015610700573d6000803e3d6000fd5b50505050808061070f90610fa9565b9150506105df565b50600560009054906101000a900473ffffffffffffffffffffffffffffffffffffffff1673ffffffffffffffffffffffffffffffffffffffff166340c10f19600460009054906101000a900473ffffffffffffffffffffffffffffffffffffffff1660026040518363ffffffff1660e01b8152600401610798929190610ce3565b600060405180830381600087803b1580156107b257600080fd5b505af11580156107c6573d6000803e3d6000fd5b5050505050565b600560009054906101000a900473ffffffffffffffffffffffffffffffffffffffff1681565b8280546107ff90610f46565b90600052602060002090601f0160209004810192826108215760008555610868565b82601f1061083a57805160ff1916838001178555610868565b82800160010185558215610868579182015b8281111561086757825182559160200191906001019061084c565b5b5090506108759190610879565b5090565b5b8082111561089257600081600090555060010161087a565b5090565b60006108a96108a484610e07565b610de2565b905080838252602082019050828560208602820111156108cc576108cb6110b3565b5b60005b858110156108fc57816108e288826109d6565b8452602084019350602083019250506001810190506108cf565b5050509392505050565b600061091961091484610e33565b610de2565b9050808382526020820190508285602086028201111561093c5761093b6110b3565b5b60005b8581101561098a57813567ffffffffffffffff811115610962576109616110ae565b5b80860161096f8982610a47565b8552602085019450602084019350505060018101905061093f565b5050509392505050565b60006109a76109a284610e5f565b610de2565b9050828152602081018484840111156109c3576109c26110b8565b5b6109ce848285610f37565b509392505050565b6000813590506109e5816111a5565b92915050565b600082601f830112610a00576109ff6110ae565b5b8135610a10848260208601610896565b91505092915050565b600082601f830112610a2e57610a2d6110ae565b5b8135610a3e848260208601610906565b91505092915050565b600082601f830112610a5c57610a5b6110ae565b5b8135610a6c848260208601610994565b91505092915050565b600081519050610a84816111bc565b92915050565b600060208284031215610aa057610a9f6110c2565b5b6000610aae848285016109d6565b91505092915050565b600060208284031215610acd57610acc6110c2565b5b600082013567ffffffffffffffff811115610aeb57610aea6110bd565b5b610af7848285016109eb565b91505092915050565b60008060408385031215610b1757610b166110c2565b5b600083013567ffffffffffffffff811115610b3557610b346110bd565b5b610b41858286016109eb565b925050602083013567ffffffffffffffff811115610b6257610b616110bd565b5b610b6e85828601610a19565b9150509250929050565b600060208284031215610b8e57610b8d6110c2565b5b6000610b9c84828501610a75565b91505092915050565b610bae81610ea1565b82525050565b610bbd81610edd565b82525050565b610bcc81610eef565b82525050565b610bdb81610f01565b82525050565b6000610bee601483610e90565b9150610bf9826110d8565b602082019050919050565b6000610c11600c83610e90565b9150610c1c82611101565b602082019050919050565b6000610c34601b83610e90565b9150610c3f8261112a565b602082019050919050565b6000610c57601483610e90565b9150610c6282611153565b602082019050919050565b6000610c7a601483610e90565b9150610c858261117c565b602082019050919050565b610c9981610ed3565b82525050565b6000602082019050610cb46000830184610ba5565b92915050565b6000604082019050610ccf6000830185610ba5565b610cdc6020830184610bc3565b9392505050565b6000604082019050610cf86000830185610ba5565b610d056020830184610bd2565b9392505050565b6000602082019050610d216000830184610bb4565b92915050565b60006020820190508181036000830152610d4081610be1565b9050919050565b60006020820190508181036000830152610d6081610c04565b9050919050565b60006020820190508181036000830152610d8081610c27565b9050919050565b60006020820190508181036000830152610da081610c4a565b9050919050565b60006020820190508181036000830152610dc081610c6d565b9050919050565b6000602082019050610ddc6000830184610c90565b92915050565b6000610dec610dfd565b9050610df88282610f78565b919050565b6000604051905090565b600067ffffffffffffffff821115610e2257610e2161107f565b5b602082029050602081019050919050565b600067ffffffffffffffff821115610e4e57610e4d61107f565b5b602082029050602081019050919050565b600067ffffffffffffffff821115610e7a57610e7961107f565b5b610e83826110c7565b9050602081019050919050565b600082825260208201905092915050565b6000610eac82610eb3565b9050919050565b600073ffffffffffffffffffffffffffffffffffffffff82169050919050565b6000819050919050565b6000610ee882610f13565b9050919050565b6000610efa82610ed3565b9050919050565b6000610f0c82610ed3565b9050919050565b6000610f1e82610f25565b9050919050565b6000610f3082610eb3565b9050919050565b82818337600083830152505050565b60006002820490506001821680610f5e57607f821691505b60208210811415610f7257610f71611021565b5b50919050565b610f81826110c7565b810181811067ffffffffffffffff82111715610fa057610f9f61107f565b5b80604052505050565b6000610fb482610ed3565b91507fffffffffffffffffffffffffffffffffffffffffffffffffffffffffffffffff821415610fe757610fe6610ff2565b5b600182019050919050565b7f4e487b7100000000000000000000000000000000000000000000000000000000600052601160045260246000fd5b7f4e487b7100000000000000000000000000000000000000000000000000000000600052602260045260246000fd5b7f4e487b7100000000000000000000000000000000000000000000000000000000600052603260045260246000fd5b7f4e487b7100000000000000000000000000000000000000000000000000000000600052604160045260246000fd5b600080fd5b600080fd5b600080fd5b600080fd5b600080fd5b6000601f19601f8301169050919050565b7f4c656e67746820697320646966666572656e742e000000000000000000000000600082015250565b7f54696d6520697320656e642e0000000000000000000000000000000000000000600082015250565b7f4974206973206e6f742066726f6d206368616972706572736f6e2e0000000000600082015250565b7f566f74657220616c726561647920766f7465642e000000000000000000000000600082015250565b7f546f6b656e20646f65736e27742065786973742e000000000000000000000000600082015250565b6111ae81610ea1565b81146111b957600080fd5b50565b6111c581610ed3565b81146111d057600080fd5b5056fea2646970667358221220373d047b979a412c45df551164baa9060505ea34395e63821ce928318dc77a1064736f6c6343000807003360806040523480156200001157600080fd5b506040518060400160405280600d81526020017f452d566f74696e6720636f696e00000000000000000000000000000000000000815250600190805190602001906200005f929190620000d0565b506000600260006101000a81548160ff021916908360ff1602179055506040518060400160405280600381526020017f455643000000000000000000000000000000000000000000000000000000000081525060039080519060200190620000c9929190620000d0565b50620001e5565b828054620000de9062000180565b90600052602060002090601f0160209004810192826200010257600085556200014e565b82601f106200011d57805160ff19168380011785556200014e565b828001600101855582156200014e579182015b828111156200014d57825182559160200191906001019062000130565b5b5090506200015d919062000161565b5090565b5b808211156200017c57600081600090555060010162000162565b5090565b600060028204905060018216806200019957607f821691505b60208210811415620001b057620001af620001b6565b5b50919050565b7f4e487b7100000000000000000000000000000000000000000000000000000000600052602260045260246000fd5b61119d80620001f56000396000f3fe608060405234801561001057600080fd5b50600436106100a95760003560e01c806340c10f191161007157806340c10f191461014057806354fd4d501461015c57806370a082311461017a57806395d89b41146101aa578063a9059cbb146101c8578063dd62ed3e146101e4576100a9565b806306fdde03146100ae578063095ea7b3146100cc57806318160ddd146100e857806323b872dd14610106578063313ce56714610122575b600080fd5b6100b6610214565b6040516100c39190610ea1565b60405180910390f35b6100e660048036038101906100e19190610de7565b6102a2565b005b6100f061038c565b6040516100fd9190610ee3565b60405180910390f35b610120600480360381019061011b9190610d94565b610392565b005b61012a610715565b6040516101379190610efe565b60405180910390f35b61015a60048036038101906101559190610de7565b610728565b005b6101646108b2565b6040516101719190610ea1565b60405180910390f35b610194600480360381019061018f9190610d27565b610940565b6040516101a19190610ee3565b60405180910390f35b6101b2610989565b6040516101bf9190610ea1565b60405180910390f35b6101e260048036038101906101dd9190610de7565b610a17565b005b6101fe60048036038101906101f99190610d54565b610c25565b60405161020b9190610ee3565b60405180910390f35b600180546102219061103b565b80601f016020809104026020016040519081016040528092919081815260200182805461024d9061103b565b801561029a5780601f1061026f5761010080835404028352916020019161029a565b820191906000526020600020905b81548152906001019060200180831161027d57829003601f168201915b505050505081565b80600660003373ffffffffffffffffffffffffffffffffffffffff1673ffffffffffffffffffffffffffffffffffffffff16815260200190815260200160002060008473ffffffffffffffffffffffffffffffffffffffff1673ffffffffffffffffffffffffffffffffffffffff168152602001908152602001600020819055508173ffffffffffffffffffffffffffffffffffffffff163373ffffffffffffffffffffffffffffffffffffffff167f8c5be1e5ebec7d5bd14f71427d1e84f3dd0314c0f7b2291e5b200ac8c7c3b925836040516103809190610ee3565b60405180910390a35050565b60005481565b80600560008573ffffffffffffffffffffffffffffffffffffffff1673ffffffffffffffffffffffffffffffffffffffff168152602001908152602001600020541015801561045d575080600660008573ffffffffffffffffffffffffffffffffffffffff1673ffffffffffffffffffffffffffffffffffffffff16815260200190815260200160002060003373ffffffffffffffffffffffffffffffffffffffff1673ffffffffffffffffffffffffffffffffffffffff1681526020019081526020016000205410155b80156104695750600081115b61047257600080fd5b6104c481600560008573ffffffffffffffffffffffffffffffffffffffff1673ffffffffffffffffffffffffffffffffffffffff16815260200190815260200160002054610cac90919063ffffffff16565b600560008473ffffffffffffffffffffffffffffffffffffffff1673ffffffffffffffffffffffffffffffffffffffff1681526020019081526020016000208190555061055981600560008673ffffffffffffffffffffffffffffffffffffffff1673ffffffffffffffffffffffffffffffffffffffff16815260200190815260200160002054610cd490919063ffffffff16565b600560008573ffffffffffffffffffffffffffffffffffffffff1673ffffffffffffffffffffffffffffffffffffffff1681526020019081526020016000208190555061062b81600660008673ffffffffffffffffffffffffffffffffffffffff1673ffffffffffffffffffffffffffffffffffffffff16815260200190815260200160002060003373ffffffffffffffffffffffffffffffffffffffff1673ffffffffffffffffffffffffffffffffffffffff16815260200190815260200160002054610cd490919063ffffffff16565b600660008573ffffffffffffffffffffffffffffffffffffffff1673ffffffffffffffffffffffffffffffffffffffff16815260200190815260200160002060003373ffffffffffffffffffffffffffffffffffffffff1673ffffffffffffffffffffffffffffffffffffffff168152602001908152602001600020819055508173ffffffffffffffffffffffffffffffffffffffff168373ffffffffffffffffffffffffffffffffffffffff167fddf252ad1be2c89b69c2b068fc378daa952ba7f163c4a11628f55a4df523b3ef836040516107089190610ee3565b60405180910390a3505050565b600260009054906101000a900460ff1681565b600073ffffffffffffffffffffffffffffffffffffffff168273ffffffffffffffffffffffffffffffffffffffff161415610798576040517f08c379a000000000000000000000000000000000000000000000000000000000815260040161078f90610ec3565b60405180910390fd5b6107ad81600054610cac90919063ffffffff16565b60008190555061080581600560008573ffffffffffffffffffffffffffffffffffffffff1673ffffffffffffffffffffffffffffffffffffffff16815260200190815260200160002054610cac90919063ffffffff16565b600560008473ffffffffffffffffffffffffffffffffffffffff1673ffffffffffffffffffffffffffffffffffffffff168152602001908152602001600020819055508173ffffffffffffffffffffffffffffffffffffffff16600073ffffffffffffffffffffffffffffffffffffffff167fddf252ad1be2c89b69c2b068fc378daa952ba7f163c4a11628f55a4df523b3ef836040516108a69190610ee3565b60405180910390a35050565b600480546108bf9061103b565b80601f01602080910402602001604051908101604052809291908181526020018280546108eb9061103b565b80156109385780601f1061090d57610100808354040283529160200191610938565b820191906000526020600020905b81548152906001019060200180831161091b57829003601f168201915b505050505081565b6000600560008373ffffffffffffffffffffffffffffffffffffffff1673ffffffffffffffffffffffffffffffffffffffff168152602001908152602001600020549050919050565b600380546109969061103b565b80601f01602080910402602001604051908101604052809291908181526020018280546109c29061103b565b8015610a0f5780601f106109e457610100808354040283529160200191610a0f565b820191906000526020600020905b8154815290600101906020018083116109f257829003601f168201915b505050505081565b6040600481610a269190610f35565b600036905014610a3957610a3861106d565b5b81600560003373ffffffffffffffffffffffffffffffffffffffff1673ffffffffffffffffffffffffffffffffffffffff1681526020019081526020016000205410158015610a885750600082115b610a9157600080fd5b610ae382600560003373ffffffffffffffffffffffffffffffffffffffff1673ffffffffffffffffffffffffffffffffffffffff16815260200190815260200160002054610cd490919063ffffffff16565b600560003373ffffffffffffffffffffffffffffffffffffffff1673ffffffffffffffffffffffffffffffffffffffff16815260200190815260200160002081905550610b7882600560008673ffffffffffffffffffffffffffffffffffffffff1673ffffffffffffffffffffffffffffffffffffffff16815260200190815260200160002054610cac90919063ffffffff16565b600560008573ffffffffffffffffffffffffffffffffffffffff1673ffffffffffffffffffffffffffffffffffffffff168152602001908152602001600020819055508273ffffffffffffffffffffffffffffffffffffffff163373ffffffffffffffffffffffffffffffffffffffff167fddf252ad1be2c89b69c2b068fc378daa952ba7f163c4a11628f55a4df523b3ef84604051610c189190610ee3565b60405180910390a3505050565b6000600660008373ffffffffffffffffffffffffffffffffffffffff1673ffffffffffffffffffffffffffffffffffffffff16815260200190815260200160002060008473ffffffffffffffffffffffffffffffffffffffff1673ffffffffffffffffffffffffffffffffffffffff16815260200190815260200160002054905092915050565b6000808284610cbb9190610f35565b905083811015610cca57600080fd5b8091505092915050565b600082821115610ce357600080fd5b60008284610cf19190610f8b565b90508091505092915050565b600081359050610d0c81611139565b92915050565b600081359050610d2181611150565b92915050565b600060208284031215610d3d57610d3c6110fa565b5b6000610d4b84828501610cfd565b91505092915050565b60008060408385031215610d6b57610d6a6110fa565b5b6000610d7985828601610cfd565b9250506020610d8a85828601610cfd565b9150509250929050565b600080600060608486031215610dad57610dac6110fa565b5b6000610dbb86828701610cfd565b9350506020610dcc86828701610cfd565b9250506040610ddd86828701610d12565b9150509250925092565b60008060408385031215610dfe57610dfd6110fa565b5b6000610e0c85828601610cfd565b9250506020610e1d85828601610d12565b9150509250929050565b6000610e3282610f19565b610e3c8185610f24565b9350610e4c818560208601611008565b610e55816110ff565b840191505092915050565b6000610e6d601f83610f24565b9150610e7882611110565b602082019050919050565b610e8c81610ff1565b82525050565b610e9b81610ffb565b82525050565b60006020820190508181036000830152610ebb8184610e27565b905092915050565b60006020820190508181036000830152610edc81610e60565b9050919050565b6000602082019050610ef86000830184610e83565b92915050565b6000602082019050610f136000830184610e92565b92915050565b600081519050919050565b600082825260208201905092915050565b6000610f4082610ff1565b9150610f4b83610ff1565b9250827fffffffffffffffffffffffffffffffffffffffffffffffffffffffffffffffff03821115610f8057610f7f61109c565b5b828201905092915050565b6000610f9682610ff1565b9150610fa183610ff1565b925082821015610fb457610fb361109c565b5b828203905092915050565b6000610fca82610fd1565b9050919050565b600073ffffffffffffffffffffffffffffffffffffffff82169050919050565b6000819050919050565b600060ff82169050919050565b60005b8381101561102657808201518184015260208101905061100b565b83811115611035576000848401525b50505050565b6000600282049050600182168061105357607f821691505b60208210811415611067576110666110cb565b5b50919050565b7f4e487b7100000000000000000000000000000000000000000000000000000000600052600160045260246000fd5b7f4e487b7100000000000000000000000000000000000000000000000000000000600052601160045260246000fd5b7f4e487b7100000000000000000000000000000000000000000000000000000000600052602260045260246000fd5b600080fd5b6000601f19601f8301169050919050565b7f45524332303a206d696e7420746f20746865207a65726f206164647265737300600082015250565b61114281610fbf565b811461114d57600080fd5b50565b61115981610ff1565b811461116457600080fd5b5056fea264697066735822122027eb6e037f58eb04bceabf4d1664407137d7baa65a60157fffb955f10b61c4c564736f6c63430008070033",
					"opcodes": "PUSH1 0x80 PUSH1 0x40 MSTORE PUSH1 0x40 MLOAD PUSH3 0x12 SWAP1 PUSH3 0x19F JUMP JUMPDEST PUSH1 0x40 MLOAD DUP1 SWAP2 SUB SWAP1 PUSH1 0x0 CREATE DUP1 ISZERO DUP1 ISZERO PUSH3 0x2F JUMPI RETURNDATASIZE PUSH1 0x0 DUP1 RETURNDATACOPY RETURNDATASIZE PUSH1 0x0 REVERT JUMPDEST POP PUSH1 0x5 PUSH1 0x0 PUSH2 0x100 EXP DUP2 SLOAD DUP2 PUSH20 0xFFFFFFFFFFFFFFFFFFFFFFFFFFFFFFFFFFFFFFFF MUL NOT AND SWAP1 DUP4 PUSH20 0xFFFFFFFFFFFFFFFFFFFFFFFFFFFFFFFFFFFFFFFF AND MUL OR SWAP1 SSTORE POP CALLVALUE DUP1 ISZERO PUSH3 0x7D JUMPI PUSH1 0x0 DUP1 REVERT JUMPDEST POP CALLER PUSH1 0x4 PUSH1 0x0 PUSH2 0x100 EXP DUP2 SLOAD DUP2 PUSH20 0xFFFFFFFFFFFFFFFFFFFFFFFFFFFFFFFFFFFFFFFF MUL NOT AND SWAP1 DUP4 PUSH20 0xFFFFFFFFFFFFFFFFFFFFFFFFFFFFFFFFFFFFFFFF AND MUL OR SWAP1 SSTORE POP PUSH1 0x5 PUSH1 0x0 SWAP1 SLOAD SWAP1 PUSH2 0x100 EXP SWAP1 DIV PUSH20 0xFFFFFFFFFFFFFFFFFFFFFFFFFFFFFFFFFFFFFFFF AND PUSH20 0xFFFFFFFFFFFFFFFFFFFFFFFFFFFFFFFFFFFFFFFF AND PUSH4 0x40C10F19 PUSH1 0x4 PUSH1 0x0 SWAP1 SLOAD SWAP1 PUSH2 0x100 EXP SWAP1 DIV PUSH20 0xFFFFFFFFFFFFFFFFFFFFFFFFFFFFFFFFFFFFFFFF AND PUSH1 0x5 PUSH1 0x40 MLOAD DUP4 PUSH4 0xFFFFFFFF AND PUSH1 0xE0 SHL DUP2 MSTORE PUSH1 0x4 ADD PUSH3 0x141 SWAP3 SWAP2 SWAP1 PUSH3 0x1CF JUMP JUMPDEST PUSH1 0x0 PUSH1 0x40 MLOAD DUP1 DUP4 SUB DUP2 PUSH1 0x0 DUP8 DUP1 EXTCODESIZE ISZERO DUP1 ISZERO PUSH3 0x15C JUMPI PUSH1 0x0 DUP1 REVERT JUMPDEST POP GAS CALL ISZERO DUP1 ISZERO PUSH3 0x171 JUMPI RETURNDATASIZE PUSH1 0x0 DUP1 RETURNDATACOPY RETURNDATASIZE PUSH1 0x0 REVERT JUMPDEST POP POP POP POP PUSH4 0x625F140A PUSH1 0x0 DUP2 SWAP1 SSTORE POP PUSH3 0x69780 PUSH1 0x0 SLOAD PUSH3 0x193 SWAP2 SWAP1 PUSH3 0x1FC JUMP JUMPDEST PUSH1 0x1 DUP2 SWAP1 SSTORE POP PUSH3 0x2DA JUMP JUMPDEST PUSH2 0x1392 DUP1 PUSH3 0x14F3 DUP4 CODECOPY ADD SWAP1 JUMP JUMPDEST PUSH3 0x1B8 DUP2 PUSH3 0x259 JUMP JUMPDEST DUP3 MSTORE POP POP JUMP JUMPDEST PUSH3 0x1C9 DUP2 PUSH3 0x297 JUMP JUMPDEST DUP3 MSTORE POP POP JUMP JUMPDEST PUSH1 0x0 PUSH1 0x40 DUP3 ADD SWAP1 POP PUSH3 0x1E6 PUSH1 0x0 DUP4 ADD DUP6 PUSH3 0x1AD JUMP JUMPDEST PUSH3 0x1F5 PUSH1 0x20 DUP4 ADD DUP5 PUSH3 0x1BE JUMP JUMPDEST SWAP4 SWAP3 POP POP POP JUMP JUMPDEST PUSH1 0x0 PUSH3 0x209 DUP3 PUSH3 0x28D JUMP JUMPDEST SWAP2 POP PUSH3 0x216 DUP4 PUSH3 0x28D JUMP JUMPDEST SWAP3 POP DUP3 PUSH32 0xFFFFFFFFFFFFFFFFFFFFFFFFFFFFFFFFFFFFFFFFFFFFFFFFFFFFFFFFFFFFFFFF SUB DUP3 GT ISZERO PUSH3 0x24E JUMPI PUSH3 0x24D PUSH3 0x2AB JUMP JUMPDEST JUMPDEST DUP3 DUP3 ADD SWAP1 POP SWAP3 SWAP2 POP POP JUMP JUMPDEST PUSH1 0x0 PUSH3 0x266 DUP3 PUSH3 0x26D JUMP JUMPDEST SWAP1 POP SWAP2 SWAP1 POP JUMP JUMPDEST PUSH1 0x0 PUSH20 0xFFFFFFFFFFFFFFFFFFFFFFFFFFFFFFFFFFFFFFFF DUP3 AND SWAP1 POP SWAP2 SWAP1 POP JUMP JUMPDEST PUSH1 0x0 DUP2 SWAP1 POP SWAP2 SWAP1 POP JUMP JUMPDEST PUSH1 0x0 PUSH3 0x2A4 DUP3 PUSH3 0x28D JUMP JUMPDEST SWAP1 POP SWAP2 SWAP1 POP JUMP JUMPDEST PUSH32 0x4E487B7100000000000000000000000000000000000000000000000000000000 PUSH1 0x0 MSTORE PUSH1 0x11 PUSH1 0x4 MSTORE PUSH1 0x24 PUSH1 0x0 REVERT JUMPDEST PUSH2 0x1209 DUP1 PUSH3 0x2EA PUSH1 0x0 CODECOPY PUSH1 0x0 RETURN INVALID PUSH1 0x80 PUSH1 0x40 MSTORE CALLVALUE DUP1 ISZERO PUSH2 0x10 JUMPI PUSH1 0x0 DUP1 REVERT JUMPDEST POP PUSH1 0x4 CALLDATASIZE LT PUSH2 0x57 JUMPI PUSH1 0x0 CALLDATALOAD PUSH1 0xE0 SHR DUP1 PUSH4 0x4041EF54 EQ PUSH2 0x5C JUMPI DUP1 PUSH4 0x633FFF16 EQ PUSH2 0x8C JUMPI DUP1 PUSH4 0x6DD7D8EA EQ PUSH2 0xA8 JUMPI DUP1 PUSH4 0x8203373A EQ PUSH2 0xC4 JUMPI DUP1 PUSH4 0xFC0C546A EQ PUSH2 0xE0 JUMPI JUMPDEST PUSH1 0x0 DUP1 REVERT JUMPDEST PUSH2 0x76 PUSH1 0x4 DUP1 CALLDATASIZE SUB DUP2 ADD SWAP1 PUSH2 0x71 SWAP2 SWAP1 PUSH2 0xA8A JUMP JUMPDEST PUSH2 0xFE JUMP JUMPDEST PUSH1 0x40 MLOAD PUSH2 0x83 SWAP2 SWAP1 PUSH2 0xDC7 JUMP JUMPDEST PUSH1 0x40 MLOAD DUP1 SWAP2 SUB SWAP1 RETURN JUMPDEST PUSH2 0xA6 PUSH1 0x4 DUP1 CALLDATASIZE SUB DUP2 ADD SWAP1 PUSH2 0xA1 SWAP2 SWAP1 PUSH2 0xB00 JUMP JUMPDEST PUSH2 0x1B2 JUMP JUMPDEST STOP JUMPDEST PUSH2 0xC2 PUSH1 0x4 DUP1 CALLDATASIZE SUB DUP2 ADD SWAP1 PUSH2 0xBD SWAP2 SWAP1 PUSH2 0xA8A JUMP JUMPDEST PUSH2 0x2A2 JUMP JUMPDEST STOP JUMPDEST PUSH2 0xDE PUSH1 0x4 DUP1 CALLDATASIZE SUB DUP2 ADD SWAP1 PUSH2 0xD9 SWAP2 SWAP1 PUSH2 0xAB7 JUMP JUMPDEST PUSH2 0x54C JUMP JUMPDEST STOP JUMPDEST PUSH2 0xE8 PUSH2 0x7CD JUMP JUMPDEST PUSH1 0x40 MLOAD PUSH2 0xF5 SWAP2 SWAP1 PUSH2 0xD0C JUMP JUMPDEST PUSH1 0x40 MLOAD DUP1 SWAP2 SUB SWAP1 RETURN JUMPDEST PUSH1 0x0 PUSH1 0x5 PUSH1 0x0 SWAP1 SLOAD SWAP1 PUSH2 0x100 EXP SWAP1 DIV PUSH20 0xFFFFFFFFFFFFFFFFFFFFFFFFFFFFFFFFFFFFFFFF AND PUSH20 0xFFFFFFFFFFFFFFFFFFFFFFFFFFFFFFFFFFFFFFFF AND PUSH4 0x70A08231 DUP4 PUSH1 0x40 MLOAD DUP3 PUSH4 0xFFFFFFFF AND PUSH1 0xE0 SHL DUP2 MSTORE PUSH1 0x4 ADD PUSH2 0x15B SWAP2 SWAP1 PUSH2 0xC9F JUMP JUMPDEST PUSH1 0x20 PUSH1 0x40 MLOAD DUP1 DUP4 SUB DUP2 DUP7 DUP1 EXTCODESIZE ISZERO DUP1 ISZERO PUSH2 0x173 JUMPI PUSH1 0x0 DUP1 REVERT JUMPDEST POP GAS STATICCALL ISZERO DUP1 ISZERO PUSH2 0x187 JUMPI RETURNDATASIZE PUSH1 0x0 DUP1 RETURNDATACOPY RETURNDATASIZE PUSH1 0x0 REVERT JUMPDEST POP POP POP POP PUSH1 0x40 MLOAD RETURNDATASIZE PUSH1 0x1F NOT PUSH1 0x1F DUP3 ADD AND DUP3 ADD DUP1 PUSH1 0x40 MSTORE POP DUP2 ADD SWAP1 PUSH2 0x1AB SWAP2 SWAP1 PUSH2 0xB78 JUMP JUMPDEST SWAP1 POP SWAP2 SWAP1 POP JUMP JUMPDEST DUP1 MLOAD DUP3 MLOAD EQ PUSH2 0x1F6 JUMPI PUSH1 0x40 MLOAD PUSH32 0x8C379A000000000000000000000000000000000000000000000000000000000 DUP2 MSTORE PUSH1 0x4 ADD PUSH2 0x1ED SWAP1 PUSH2 0xD27 JUMP JUMPDEST PUSH1 0x40 MLOAD DUP1 SWAP2 SUB SWAP1 REVERT JUMPDEST PUSH1 0x0 JUMPDEST DUP3 MLOAD DUP2 LT ISZERO PUSH2 0x29D JUMPI DUP2 DUP2 DUP2 MLOAD DUP2 LT PUSH2 0x215 JUMPI PUSH2 0x214 PUSH2 0x1050 JUMP JUMPDEST JUMPDEST PUSH1 0x20 MUL PUSH1 0x20 ADD ADD MLOAD PUSH1 0x3 PUSH1 0x0 DUP6 DUP5 DUP2 MLOAD DUP2 LT PUSH2 0x234 JUMPI PUSH2 0x233 PUSH2 0x1050 JUMP JUMPDEST JUMPDEST PUSH1 0x20 MUL PUSH1 0x20 ADD ADD MLOAD PUSH20 0xFFFFFFFFFFFFFFFFFFFFFFFFFFFFFFFFFFFFFFFF AND PUSH20 0xFFFFFFFFFFFFFFFFFFFFFFFFFFFFFFFFFFFFFFFF AND DUP2 MSTORE PUSH1 0x20 ADD SWAP1 DUP2 MSTORE PUSH1 0x20 ADD PUSH1 0x0 KECCAK256 SWAP1 DUP1 MLOAD SWAP1 PUSH1 0x20 ADD SWAP1 PUSH2 0x289 SWAP3 SWAP2 SWAP1 PUSH2 0x7F3 JUMP JUMPDEST POP DUP1 DUP1 PUSH2 0x295 SWAP1 PUSH2 0xFA9 JUMP JUMPDEST SWAP2 POP POP PUSH2 0x1F9 JUMP JUMPDEST POP POP POP JUMP JUMPDEST PUSH1 0x1 SLOAD TIMESTAMP GT ISZERO PUSH2 0x2E7 JUMPI PUSH1 0x40 MLOAD PUSH32 0x8C379A000000000000000000000000000000000000000000000000000000000 DUP2 MSTORE PUSH1 0x4 ADD PUSH2 0x2DE SWAP1 PUSH2 0xD47 JUMP JUMPDEST PUSH1 0x40 MLOAD DUP1 SWAP2 SUB SWAP1 REVERT JUMPDEST PUSH1 0x2 PUSH1 0x0 CALLER PUSH20 0xFFFFFFFFFFFFFFFFFFFFFFFFFFFFFFFFFFFFFFFF AND PUSH20 0xFFFFFFFFFFFFFFFFFFFFFFFFFFFFFFFFFFFFFFFF AND DUP2 MSTORE PUSH1 0x20 ADD SWAP1 DUP2 MSTORE PUSH1 0x20 ADD PUSH1 0x0 KECCAK256 PUSH1 0x0 SWAP1 SLOAD SWAP1 PUSH2 0x100 EXP SWAP1 DIV PUSH1 0xFF AND ISZERO PUSH2 0x374 JUMPI PUSH1 0x40 MLOAD PUSH32 0x8C379A000000000000000000000000000000000000000000000000000000000 DUP2 MSTORE PUSH1 0x4 ADD PUSH2 0x36B SWAP1 PUSH2 0xD87 JUMP JUMPDEST PUSH1 0x40 MLOAD DUP1 SWAP2 SUB SWAP1 REVERT JUMPDEST PUSH1 0x2 PUSH1 0x5 PUSH1 0x0 SWAP1 SLOAD SWAP1 PUSH2 0x100 EXP SWAP1 DIV PUSH20 0xFFFFFFFFFFFFFFFFFFFFFFFFFFFFFFFFFFFFFFFF AND PUSH20 0xFFFFFFFFFFFFFFFFFFFFFFFFFFFFFFFFFFFFFFFF AND PUSH4 0x70A08231 CALLER PUSH1 0x40 MLOAD DUP3 PUSH4 0xFFFFFFFF AND PUSH1 0xE0 SHL DUP2 MSTORE PUSH1 0x4 ADD PUSH2 0x3D1 SWAP2 SWAP1 PUSH2 0xC9F JUMP JUMPDEST PUSH1 0x20 PUSH1 0x40 MLOAD DUP1 DUP4 SUB DUP2 DUP7 DUP1 EXTCODESIZE ISZERO DUP1 ISZERO PUSH2 0x3E9 JUMPI PUSH1 0x0 DUP1 REVERT JUMPDEST POP GAS STATICCALL ISZERO DUP1 ISZERO PUSH2 0x3FD JUMPI RETURNDATASIZE PUSH1 0x0 DUP1 RETURNDATACOPY RETURNDATASIZE PUSH1 0x0 REVERT JUMPDEST POP POP POP POP PUSH1 0x40 MLOAD RETURNDATASIZE PUSH1 0x1F NOT PUSH1 0x1F DUP3 ADD AND DUP3 ADD DUP1 PUSH1 0x40 MSTORE POP DUP2 ADD SWAP1 PUSH2 0x421 SWAP2 SWAP1 PUSH2 0xB78 JUMP JUMPDEST EQ PUSH2 0x461 JUMPI PUSH1 0x40 MLOAD PUSH32 0x8C379A000000000000000000000000000000000000000000000000000000000 DUP2 MSTORE PUSH1 0x4 ADD PUSH2 0x458 SWAP1 PUSH2 0xDA7 JUMP JUMPDEST PUSH1 0x40 MLOAD DUP1 SWAP2 SUB SWAP1 REVERT JUMPDEST PUSH1 0x5 PUSH1 0x0 SWAP1 SLOAD SWAP1 PUSH2 0x100 EXP SWAP1 DIV PUSH20 0xFFFFFFFFFFFFFFFFFFFFFFFFFFFFFFFFFFFFFFFF AND PUSH20 0xFFFFFFFFFFFFFFFFFFFFFFFFFFFFFFFFFFFFFFFF AND PUSH4 0xA9059CBB DUP3 PUSH1 0x1 PUSH1 0x40 MLOAD DUP4 PUSH4 0xFFFFFFFF AND PUSH1 0xE0 SHL DUP2 MSTORE PUSH1 0x4 ADD PUSH2 0x4BF SWAP3 SWAP2 SWAP1 PUSH2 0xCBA JUMP JUMPDEST PUSH1 0x0 PUSH1 0x40 MLOAD DUP1 DUP4 SUB DUP2 PUSH1 0x0 DUP8 DUP1 EXTCODESIZE ISZERO DUP1 ISZERO PUSH2 0x4D9 JUMPI PUSH1 0x0 DUP1 REVERT JUMPDEST POP GAS CALL ISZERO DUP1 ISZERO PUSH2 0x4ED JUMPI RETURNDATASIZE PUSH1 0x0 DUP1 RETURNDATACOPY RETURNDATASIZE PUSH1 0x0 REVERT JUMPDEST POP POP POP POP PUSH1 0x1 PUSH1 0x2 PUSH1 0x0 CALLER PUSH20 0xFFFFFFFFFFFFFFFFFFFFFFFFFFFFFFFFFFFFFFFF AND PUSH20 0xFFFFFFFFFFFFFFFFFFFFFFFFFFFFFFFFFFFFFFFF AND DUP2 MSTORE PUSH1 0x20 ADD SWAP1 DUP2 MSTORE PUSH1 0x20 ADD PUSH1 0x0 KECCAK256 PUSH1 0x0 PUSH2 0x100 EXP DUP2 SLOAD DUP2 PUSH1 0xFF MUL NOT AND SWAP1 DUP4 ISZERO ISZERO MUL OR SWAP1 SSTORE POP POP JUMP JUMPDEST PUSH1 0x4 PUSH1 0x0 SWAP1 SLOAD SWAP1 PUSH2 0x100 EXP SWAP1 DIV PUSH20 0xFFFFFFFFFFFFFFFFFFFFFFFFFFFFFFFFFFFFFFFF AND PUSH20 0xFFFFFFFFFFFFFFFFFFFFFFFFFFFFFFFFFFFFFFFF AND CALLER PUSH20 0xFFFFFFFFFFFFFFFFFFFFFFFFFFFFFFFFFFFFFFFF AND EQ PUSH2 0x5DC JUMPI PUSH1 0x40 MLOAD PUSH32 0x8C379A000000000000000000000000000000000000000000000000000000000 DUP2 MSTORE PUSH1 0x4 ADD PUSH2 0x5D3 SWAP1 PUSH2 0xD67 JUMP JUMPDEST PUSH1 0x40 MLOAD DUP1 SWAP2 SUB SWAP1 REVERT JUMPDEST PUSH1 0x0 JUMPDEST DUP2 MLOAD DUP2 LT ISZERO PUSH2 0x717 JUMPI PUSH1 0x0 PUSH1 0x2 PUSH1 0x0 DUP5 DUP5 DUP2 MLOAD DUP2 LT PUSH2 0x601 JUMPI PUSH2 0x600 PUSH2 0x1050 JUMP JUMPDEST JUMPDEST PUSH1 0x20 MUL PUSH1 0x20 ADD ADD MLOAD PUSH20 0xFFFFFFFFFFFFFFFFFFFFFFFFFFFFFFFFFFFFFFFF AND PUSH20 0xFFFFFFFFFFFFFFFFFFFFFFFFFFFFFFFFFFFFFFFF AND DUP2 MSTORE PUSH1 0x20 ADD SWAP1 DUP2 MSTORE PUSH1 0x20 ADD PUSH1 0x0 KECCAK256 PUSH1 0x0 PUSH2 0x100 EXP DUP2 SLOAD DUP2 PUSH1 0xFF MUL NOT AND SWAP1 DUP4 ISZERO ISZERO MUL OR SWAP1 SSTORE POP PUSH1 0x5 PUSH1 0x0 SWAP1 SLOAD SWAP1 PUSH2 0x100 EXP SWAP1 DIV PUSH20 0xFFFFFFFFFFFFFFFFFFFFFFFFFFFFFFFFFFFFFFFF AND PUSH20 0xFFFFFFFFFFFFFFFFFFFFFFFFFFFFFFFFFFFFFFFF AND PUSH4 0x40C10F19 DUP4 DUP4 DUP2 MLOAD DUP2 LT PUSH2 0x6AB JUMPI PUSH2 0x6AA PUSH2 0x1050 JUMP JUMPDEST JUMPDEST PUSH1 0x20 MUL PUSH1 0x20 ADD ADD MLOAD PUSH1 0x2 PUSH1 0x40 MLOAD DUP4 PUSH4 0xFFFFFFFF AND PUSH1 0xE0 SHL DUP2 MSTORE PUSH1 0x4 ADD PUSH2 0x6D2 SWAP3 SWAP2 SWAP1 PUSH2 0xCE3 JUMP JUMPDEST PUSH1 0x0 PUSH1 0x40 MLOAD DUP1 DUP4 SUB DUP2 PUSH1 0x0 DUP8 DUP1 EXTCODESIZE ISZERO DUP1 ISZERO PUSH2 0x6EC JUMPI PUSH1 0x0 DUP1 REVERT JUMPDEST POP GAS CALL ISZERO DUP1 ISZERO PUSH2 0x700 JUMPI RETURNDATASIZE PUSH1 0x0 DUP1 RETURNDATACOPY RETURNDATASIZE PUSH1 0x0 REVERT JUMPDEST POP POP POP POP DUP1 DUP1 PUSH2 0x70F SWAP1 PUSH2 0xFA9 JUMP JUMPDEST SWAP2 POP POP PUSH2 0x5DF JUMP JUMPDEST POP PUSH1 0x5 PUSH1 0x0 SWAP1 SLOAD SWAP1 PUSH2 0x100 EXP SWAP1 DIV PUSH20 0xFFFFFFFFFFFFFFFFFFFFFFFFFFFFFFFFFFFFFFFF AND PUSH20 0xFFFFFFFFFFFFFFFFFFFFFFFFFFFFFFFFFFFFFFFF AND PUSH4 0x40C10F19 PUSH1 0x4 PUSH1 0x0 SWAP1 SLOAD SWAP1 PUSH2 0x100 EXP SWAP1 DIV PUSH20 0xFFFFFFFFFFFFFFFFFFFFFFFFFFFFFFFFFFFFFFFF AND PUSH1 0x2 PUSH1 0x40 MLOAD DUP4 PUSH4 0xFFFFFFFF AND PUSH1 0xE0 SHL DUP2 MSTORE PUSH1 0x4 ADD PUSH2 0x798 SWAP3 SWAP2 SWAP1 PUSH2 0xCE3 JUMP JUMPDEST PUSH1 0x0 PUSH1 0x40 MLOAD DUP1 DUP4 SUB DUP2 PUSH1 0x0 DUP8 DUP1 EXTCODESIZE ISZERO DUP1 ISZERO PUSH2 0x7B2 JUMPI PUSH1 0x0 DUP1 REVERT JUMPDEST POP GAS CALL ISZERO DUP1 ISZERO PUSH2 0x7C6 JUMPI RETURNDATASIZE PUSH1 0x0 DUP1 RETURNDATACOPY RETURNDATASIZE PUSH1 0x0 REVERT JUMPDEST POP POP POP POP POP JUMP JUMPDEST PUSH1 0x5 PUSH1 0x0 SWAP1 SLOAD SWAP1 PUSH2 0x100 EXP SWAP1 DIV PUSH20 0xFFFFFFFFFFFFFFFFFFFFFFFFFFFFFFFFFFFFFFFF AND DUP2 JUMP JUMPDEST DUP3 DUP1 SLOAD PUSH2 0x7FF SWAP1 PUSH2 0xF46 JUMP JUMPDEST SWAP1 PUSH1 0x0 MSTORE PUSH1 0x20 PUSH1 0x0 KECCAK256 SWAP1 PUSH1 0x1F ADD PUSH1 0x20 SWAP1 DIV DUP2 ADD SWAP3 DUP3 PUSH2 0x821 JUMPI PUSH1 0x0 DUP6 SSTORE PUSH2 0x868 JUMP JUMPDEST DUP3 PUSH1 0x1F LT PUSH2 0x83A JUMPI DUP1 MLOAD PUSH1 0xFF NOT AND DUP4 DUP1 ADD OR DUP6 SSTORE PUSH2 0x868 JUMP JUMPDEST DUP3 DUP1 ADD PUSH1 0x1 ADD DUP6 SSTORE DUP3 ISZERO PUSH2 0x868 JUMPI SWAP2 DUP3 ADD JUMPDEST DUP3 DUP2 GT ISZERO PUSH2 0x867 JUMPI DUP3 MLOAD DUP3 SSTORE SWAP2 PUSH1 0x20 ADD SWAP2 SWAP1 PUSH1 0x1 ADD SWAP1 PUSH2 0x84C JUMP JUMPDEST JUMPDEST POP SWAP1 POP PUSH2 0x875 SWAP2 SWAP1 PUSH2 0x879 JUMP JUMPDEST POP SWAP1 JUMP JUMPDEST JUMPDEST DUP1 DUP3 GT ISZERO PUSH2 0x892 JUMPI PUSH1 0x0 DUP2 PUSH1 0x0 SWAP1 SSTORE POP PUSH1 0x1 ADD PUSH2 0x87A JUMP JUMPDEST POP SWAP1 JUMP JUMPDEST PUSH1 0x0 PUSH2 0x8A9 PUSH2 0x8A4 DUP5 PUSH2 0xE07 JUMP JUMPDEST PUSH2 0xDE2 JUMP JUMPDEST SWAP1 POP DUP1 DUP4 DUP3 MSTORE PUSH1 0x20 DUP3 ADD SWAP1 POP DUP3 DUP6 PUSH1 0x20 DUP7 MUL DUP3 ADD GT ISZERO PUSH2 0x8CC JUMPI PUSH2 0x8CB PUSH2 0x10B3 JUMP JUMPDEST JUMPDEST PUSH1 0x0 JUMPDEST DUP6 DUP2 LT ISZERO PUSH2 0x8FC JUMPI DUP2 PUSH2 0x8E2 DUP9 DUP3 PUSH2 0x9D6 JUMP JUMPDEST DUP5 MSTORE PUSH1 0x20 DUP5 ADD SWAP4 POP PUSH1 0x20 DUP4 ADD SWAP3 POP POP PUSH1 0x1 DUP2 ADD SWAP1 POP PUSH2 0x8CF JUMP JUMPDEST POP POP POP SWAP4 SWAP3 POP POP POP JUMP JUMPDEST PUSH1 0x0 PUSH2 0x919 PUSH2 0x914 DUP5 PUSH2 0xE33 JUMP JUMPDEST PUSH2 0xDE2 JUMP JUMPDEST SWAP1 POP DUP1 DUP4 DUP3 MSTORE PUSH1 0x20 DUP3 ADD SWAP1 POP DUP3 DUP6 PUSH1 0x20 DUP7 MUL DUP3 ADD GT ISZERO PUSH2 0x93C JUMPI PUSH2 0x93B PUSH2 0x10B3 JUMP JUMPDEST JUMPDEST PUSH1 0x0 JUMPDEST DUP6 DUP2 LT ISZERO PUSH2 0x98A JUMPI DUP2 CALLDATALOAD PUSH8 0xFFFFFFFFFFFFFFFF DUP2 GT ISZERO PUSH2 0x962 JUMPI PUSH2 0x961 PUSH2 0x10AE JUMP JUMPDEST JUMPDEST DUP1 DUP7 ADD PUSH2 0x96F DUP10 DUP3 PUSH2 0xA47 JUMP JUMPDEST DUP6 MSTORE PUSH1 0x20 DUP6 ADD SWAP5 POP PUSH1 0x20 DUP5 ADD SWAP4 POP POP POP PUSH1 0x1 DUP2 ADD SWAP1 POP PUSH2 0x93F JUMP JUMPDEST POP POP POP SWAP4 SWAP3 POP POP POP JUMP JUMPDEST PUSH1 0x0 PUSH2 0x9A7 PUSH2 0x9A2 DUP5 PUSH2 0xE5F JUMP JUMPDEST PUSH2 0xDE2 JUMP JUMPDEST SWAP1 POP DUP3 DUP2 MSTORE PUSH1 0x20 DUP2 ADD DUP5 DUP5 DUP5 ADD GT ISZERO PUSH2 0x9C3 JUMPI PUSH2 0x9C2 PUSH2 0x10B8 JUMP JUMPDEST JUMPDEST PUSH2 0x9CE DUP5 DUP3 DUP6 PUSH2 0xF37 JUMP JUMPDEST POP SWAP4 SWAP3 POP POP POP JUMP JUMPDEST PUSH1 0x0 DUP2 CALLDATALOAD SWAP1 POP PUSH2 0x9E5 DUP2 PUSH2 0x11A5 JUMP JUMPDEST SWAP3 SWAP2 POP POP JUMP JUMPDEST PUSH1 0x0 DUP3 PUSH1 0x1F DUP4 ADD SLT PUSH2 0xA00 JUMPI PUSH2 0x9FF PUSH2 0x10AE JUMP JUMPDEST JUMPDEST DUP2 CALLDATALOAD PUSH2 0xA10 DUP5 DUP3 PUSH1 0x20 DUP7 ADD PUSH2 0x896 JUMP JUMPDEST SWAP2 POP POP SWAP3 SWAP2 POP POP JUMP JUMPDEST PUSH1 0x0 DUP3 PUSH1 0x1F DUP4 ADD SLT PUSH2 0xA2E JUMPI PUSH2 0xA2D PUSH2 0x10AE JUMP JUMPDEST JUMPDEST DUP2 CALLDATALOAD PUSH2 0xA3E DUP5 DUP3 PUSH1 0x20 DUP7 ADD PUSH2 0x906 JUMP JUMPDEST SWAP2 POP POP SWAP3 SWAP2 POP POP JUMP JUMPDEST PUSH1 0x0 DUP3 PUSH1 0x1F DUP4 ADD SLT PUSH2 0xA5C JUMPI PUSH2 0xA5B PUSH2 0x10AE JUMP JUMPDEST JUMPDEST DUP2 CALLDATALOAD PUSH2 0xA6C DUP5 DUP3 PUSH1 0x20 DUP7 ADD PUSH2 0x994 JUMP JUMPDEST SWAP2 POP POP SWAP3 SWAP2 POP POP JUMP JUMPDEST PUSH1 0x0 DUP2 MLOAD SWAP1 POP PUSH2 0xA84 DUP2 PUSH2 0x11BC JUMP JUMPDEST SWAP3 SWAP2 POP POP JUMP JUMPDEST PUSH1 0x0 PUSH1 0x20 DUP3 DUP5 SUB SLT ISZERO PUSH2 0xAA0 JUMPI PUSH2 0xA9F PUSH2 0x10C2 JUMP JUMPDEST JUMPDEST PUSH1 0x0 PUSH2 0xAAE DUP5 DUP3 DUP6 ADD PUSH2 0x9D6 JUMP JUMPDEST SWAP2 POP POP SWAP3 SWAP2 POP POP JUMP JUMPDEST PUSH1 0x0 PUSH1 0x20 DUP3 DUP5 SUB SLT ISZERO PUSH2 0xACD JUMPI PUSH2 0xACC PUSH2 0x10C2 JUMP JUMPDEST JUMPDEST PUSH1 0x0 DUP3 ADD CALLDATALOAD PUSH8 0xFFFFFFFFFFFFFFFF DUP2 GT ISZERO PUSH2 0xAEB JUMPI PUSH2 0xAEA PUSH2 0x10BD JUMP JUMPDEST JUMPDEST PUSH2 0xAF7 DUP5 DUP3 DUP6 ADD PUSH2 0x9EB JUMP JUMPDEST SWAP2 POP POP SWAP3 SWAP2 POP POP JUMP JUMPDEST PUSH1 0x0 DUP1 PUSH1 0x40 DUP4 DUP6 SUB SLT ISZERO PUSH2 0xB17 JUMPI PUSH2 0xB16 PUSH2 0x10C2 JUMP JUMPDEST JUMPDEST PUSH1 0x0 DUP4 ADD CALLDATALOAD PUSH8 0xFFFFFFFFFFFFFFFF DUP2 GT ISZERO PUSH2 0xB35 JUMPI PUSH2 0xB34 PUSH2 0x10BD JUMP JUMPDEST JUMPDEST PUSH2 0xB41 DUP6 DUP3 DUP7 ADD PUSH2 0x9EB JUMP JUMPDEST SWAP3 POP POP PUSH1 0x20 DUP4 ADD CALLDATALOAD PUSH8 0xFFFFFFFFFFFFFFFF DUP2 GT ISZERO PUSH2 0xB62 JUMPI PUSH2 0xB61 PUSH2 0x10BD JUMP JUMPDEST JUMPDEST PUSH2 0xB6E DUP6 DUP3 DUP7 ADD PUSH2 0xA19 JUMP JUMPDEST SWAP2 POP POP SWAP3 POP SWAP3 SWAP1 POP JUMP JUMPDEST PUSH1 0x0 PUSH1 0x20 DUP3 DUP5 SUB SLT ISZERO PUSH2 0xB8E JUMPI PUSH2 0xB8D PUSH2 0x10C2 JUMP JUMPDEST JUMPDEST PUSH1 0x0 PUSH2 0xB9C DUP5 DUP3 DUP6 ADD PUSH2 0xA75 JUMP JUMPDEST SWAP2 POP POP SWAP3 SWAP2 POP POP JUMP JUMPDEST PUSH2 0xBAE DUP2 PUSH2 0xEA1 JUMP JUMPDEST DUP3 MSTORE POP POP JUMP JUMPDEST PUSH2 0xBBD DUP2 PUSH2 0xEDD JUMP JUMPDEST DUP3 MSTORE POP POP JUMP JUMPDEST PUSH2 0xBCC DUP2 PUSH2 0xEEF JUMP JUMPDEST DUP3 MSTORE POP POP JUMP JUMPDEST PUSH2 0xBDB DUP2 PUSH2 0xF01 JUMP JUMPDEST DUP3 MSTORE POP POP JUMP JUMPDEST PUSH1 0x0 PUSH2 0xBEE PUSH1 0x14 DUP4 PUSH2 0xE90 JUMP JUMPDEST SWAP2 POP PUSH2 0xBF9 DUP3 PUSH2 0x10D8 JUMP JUMPDEST PUSH1 0x20 DUP3 ADD SWAP1 POP SWAP2 SWAP1 POP JUMP JUMPDEST PUSH1 0x0 PUSH2 0xC11 PUSH1 0xC DUP4 PUSH2 0xE90 JUMP JUMPDEST SWAP2 POP PUSH2 0xC1C DUP3 PUSH2 0x1101 JUMP JUMPDEST PUSH1 0x20 DUP3 ADD SWAP1 POP SWAP2 SWAP1 POP JUMP JUMPDEST PUSH1 0x0 PUSH2 0xC34 PUSH1 0x1B DUP4 PUSH2 0xE90 JUMP JUMPDEST SWAP2 POP PUSH2 0xC3F DUP3 PUSH2 0x112A JUMP JUMPDEST PUSH1 0x20 DUP3 ADD SWAP1 POP SWAP2 SWAP1 POP JUMP JUMPDEST PUSH1 0x0 PUSH2 0xC57 PUSH1 0x14 DUP4 PUSH2 0xE90 JUMP JUMPDEST SWAP2 POP PUSH2 0xC62 DUP3 PUSH2 0x1153 JUMP JUMPDEST PUSH1 0x20 DUP3 ADD SWAP1 POP SWAP2 SWAP1 POP JUMP JUMPDEST PUSH1 0x0 PUSH2 0xC7A PUSH1 0x14 DUP4 PUSH2 0xE90 JUMP JUMPDEST SWAP2 POP PUSH2 0xC85 DUP3 PUSH2 0x117C JUMP JUMPDEST PUSH1 0x20 DUP3 ADD SWAP1 POP SWAP2 SWAP1 POP JUMP JUMPDEST PUSH2 0xC99 DUP2 PUSH2 0xED3 JUMP JUMPDEST DUP3 MSTORE POP POP JUMP JUMPDEST PUSH1 0x0 PUSH1 0x20 DUP3 ADD SWAP1 POP PUSH2 0xCB4 PUSH1 0x0 DUP4 ADD DUP5 PUSH2 0xBA5 JUMP JUMPDEST SWAP3 SWAP2 POP POP JUMP JUMPDEST PUSH1 0x0 PUSH1 0x40 DUP3 ADD SWAP1 POP PUSH2 0xCCF PUSH1 0x0 DUP4 ADD DUP6 PUSH2 0xBA5 JUMP JUMPDEST PUSH2 0xCDC PUSH1 0x20 DUP4 ADD DUP5 PUSH2 0xBC3 JUMP JUMPDEST SWAP4 SWAP3 POP POP POP JUMP JUMPDEST PUSH1 0x0 PUSH1 0x40 DUP3 ADD SWAP1 POP PUSH2 0xCF8 PUSH1 0x0 DUP4 ADD DUP6 PUSH2 0xBA5 JUMP JUMPDEST PUSH2 0xD05 PUSH1 0x20 DUP4 ADD DUP5 PUSH2 0xBD2 JUMP JUMPDEST SWAP4 SWAP3 POP POP POP JUMP JUMPDEST PUSH1 0x0 PUSH1 0x20 DUP3 ADD SWAP1 POP PUSH2 0xD21 PUSH1 0x0 DUP4 ADD DUP5 PUSH2 0xBB4 JUMP JUMPDEST SWAP3 SWAP2 POP POP JUMP JUMPDEST PUSH1 0x0 PUSH1 0x20 DUP3 ADD SWAP1 POP DUP2 DUP2 SUB PUSH1 0x0 DUP4 ADD MSTORE PUSH2 0xD40 DUP2 PUSH2 0xBE1 JUMP JUMPDEST SWAP1 POP SWAP2 SWAP1 POP JUMP JUMPDEST PUSH1 0x0 PUSH1 0x20 DUP3 ADD SWAP1 POP DUP2 DUP2 SUB PUSH1 0x0 DUP4 ADD MSTORE PUSH2 0xD60 DUP2 PUSH2 0xC04 JUMP JUMPDEST SWAP1 POP SWAP2 SWAP1 POP JUMP JUMPDEST PUSH1 0x0 PUSH1 0x20 DUP3 ADD SWAP1 POP DUP2 DUP2 SUB PUSH1 0x0 DUP4 ADD MSTORE PUSH2 0xD80 DUP2 PUSH2 0xC27 JUMP JUMPDEST SWAP1 POP SWAP2 SWAP1 POP JUMP JUMPDEST PUSH1 0x0 PUSH1 0x20 DUP3 ADD SWAP1 POP DUP2 DUP2 SUB PUSH1 0x0 DUP4 ADD MSTORE PUSH2 0xDA0 DUP2 PUSH2 0xC4A JUMP JUMPDEST SWAP1 POP SWAP2 SWAP1 POP JUMP JUMPDEST PUSH1 0x0 PUSH1 0x20 DUP3 ADD SWAP1 POP DUP2 DUP2 SUB PUSH1 0x0 DUP4 ADD MSTORE PUSH2 0xDC0 DUP2 PUSH2 0xC6D JUMP JUMPDEST SWAP1 POP SWAP2 SWAP1 POP JUMP JUMPDEST PUSH1 0x0 PUSH1 0x20 DUP3 ADD SWAP1 POP PUSH2 0xDDC PUSH1 0x0 DUP4 ADD DUP5 PUSH2 0xC90 JUMP JUMPDEST SWAP3 SWAP2 POP POP JUMP JUMPDEST PUSH1 0x0 PUSH2 0xDEC PUSH2 0xDFD JUMP JUMPDEST SWAP1 POP PUSH2 0xDF8 DUP3 DUP3 PUSH2 0xF78 JUMP JUMPDEST SWAP2 SWAP1 POP JUMP JUMPDEST PUSH1 0x0 PUSH1 0x40 MLOAD SWAP1 POP SWAP1 JUMP JUMPDEST PUSH1 0x0 PUSH8 0xFFFFFFFFFFFFFFFF DUP3 GT ISZERO PUSH2 0xE22 JUMPI PUSH2 0xE21 PUSH2 0x107F JUMP JUMPDEST JUMPDEST PUSH1 0x20 DUP3 MUL SWAP1 POP PUSH1 0x20 DUP2 ADD SWAP1 POP SWAP2 SWAP1 POP JUMP JUMPDEST PUSH1 0x0 PUSH8 0xFFFFFFFFFFFFFFFF DUP3 GT ISZERO PUSH2 0xE4E JUMPI PUSH2 0xE4D PUSH2 0x107F JUMP JUMPDEST JUMPDEST PUSH1 0x20 DUP3 MUL SWAP1 POP PUSH1 0x20 DUP2 ADD SWAP1 POP SWAP2 SWAP1 POP JUMP JUMPDEST PUSH1 0x0 PUSH8 0xFFFFFFFFFFFFFFFF DUP3 GT ISZERO PUSH2 0xE7A JUMPI PUSH2 0xE79 PUSH2 0x107F JUMP JUMPDEST JUMPDEST PUSH2 0xE83 DUP3 PUSH2 0x10C7 JUMP JUMPDEST SWAP1 POP PUSH1 0x20 DUP2 ADD SWAP1 POP SWAP2 SWAP1 POP JUMP JUMPDEST PUSH1 0x0 DUP3 DUP3 MSTORE PUSH1 0x20 DUP3 ADD SWAP1 POP SWAP3 SWAP2 POP POP JUMP JUMPDEST PUSH1 0x0 PUSH2 0xEAC DUP3 PUSH2 0xEB3 JUMP JUMPDEST SWAP1 POP SWAP2 SWAP1 POP JUMP JUMPDEST PUSH1 0x0 PUSH20 0xFFFFFFFFFFFFFFFFFFFFFFFFFFFFFFFFFFFFFFFF DUP3 AND SWAP1 POP SWAP2 SWAP1 POP JUMP JUMPDEST PUSH1 0x0 DUP2 SWAP1 POP SWAP2 SWAP1 POP JUMP JUMPDEST PUSH1 0x0 PUSH2 0xEE8 DUP3 PUSH2 0xF13 JUMP JUMPDEST SWAP1 POP SWAP2 SWAP1 POP JUMP JUMPDEST PUSH1 0x0 PUSH2 0xEFA DUP3 PUSH2 0xED3 JUMP JUMPDEST SWAP1 POP SWAP2 SWAP1 POP JUMP JUMPDEST PUSH1 0x0 PUSH2 0xF0C DUP3 PUSH2 0xED3 JUMP JUMPDEST SWAP1 POP SWAP2 SWAP1 POP JUMP JUMPDEST PUSH1 0x0 PUSH2 0xF1E DUP3 PUSH2 0xF25 JUMP JUMPDEST SWAP1 POP SWAP2 SWAP1 POP JUMP JUMPDEST PUSH1 0x0 PUSH2 0xF30 DUP3 PUSH2 0xEB3 JUMP JUMPDEST SWAP1 POP SWAP2 SWAP1 POP JUMP JUMPDEST DUP3 DUP2 DUP4 CALLDATACOPY PUSH1 0x0 DUP4 DUP4 ADD MSTORE POP POP POP JUMP JUMPDEST PUSH1 0x0 PUSH1 0x2 DUP3 DIV SWAP1 POP PUSH1 0x1 DUP3 AND DUP1 PUSH2 0xF5E JUMPI PUSH1 0x7F DUP3 AND SWAP2 POP JUMPDEST PUSH1 0x20 DUP3 LT DUP2 EQ ISZERO PUSH2 0xF72 JUMPI PUSH2 0xF71 PUSH2 0x1021 JUMP JUMPDEST JUMPDEST POP SWAP2 SWAP1 POP JUMP JUMPDEST PUSH2 0xF81 DUP3 PUSH2 0x10C7 JUMP JUMPDEST DUP2 ADD DUP2 DUP2 LT PUSH8 0xFFFFFFFFFFFFFFFF DUP3 GT OR ISZERO PUSH2 0xFA0 JUMPI PUSH2 0xF9F PUSH2 0x107F JUMP JUMPDEST JUMPDEST DUP1 PUSH1 0x40 MSTORE POP POP POP JUMP JUMPDEST PUSH1 0x0 PUSH2 0xFB4 DUP3 PUSH2 0xED3 JUMP JUMPDEST SWAP2 POP PUSH32 0xFFFFFFFFFFFFFFFFFFFFFFFFFFFFFFFFFFFFFFFFFFFFFFFFFFFFFFFFFFFFFFFF DUP3 EQ ISZERO PUSH2 0xFE7 JUMPI PUSH2 0xFE6 PUSH2 0xFF2 JUMP JUMPDEST JUMPDEST PUSH1 0x1 DUP3 ADD SWAP1 POP SWAP2 SWAP1 POP JUMP JUMPDEST PUSH32 0x4E487B7100000000000000000000000000000000000000000000000000000000 PUSH1 0x0 MSTORE PUSH1 0x11 PUSH1 0x4 MSTORE PUSH1 0x24 PUSH1 0x0 REVERT JUMPDEST PUSH32 0x4E487B7100000000000000000000000000000000000000000000000000000000 PUSH1 0x0 MSTORE PUSH1 0x22 PUSH1 0x4 MSTORE PUSH1 0x24 PUSH1 0x0 REVERT JUMPDEST PUSH32 0x4E487B7100000000000000000000000000000000000000000000000000000000 PUSH1 0x0 MSTORE PUSH1 0x32 PUSH1 0x4 MSTORE PUSH1 0x24 PUSH1 0x0 REVERT JUMPDEST PUSH32 0x4E487B7100000000000000000000000000000000000000000000000000000000 PUSH1 0x0 MSTORE PUSH1 0x41 PUSH1 0x4 MSTORE PUSH1 0x24 PUSH1 0x0 REVERT JUMPDEST PUSH1 0x0 DUP1 REVERT JUMPDEST PUSH1 0x0 DUP1 REVERT JUMPDEST PUSH1 0x0 DUP1 REVERT JUMPDEST PUSH1 0x0 DUP1 REVERT JUMPDEST PUSH1 0x0 DUP1 REVERT JUMPDEST PUSH1 0x0 PUSH1 0x1F NOT PUSH1 0x1F DUP4 ADD AND SWAP1 POP SWAP2 SWAP1 POP JUMP JUMPDEST PUSH32 0x4C656E67746820697320646966666572656E742E000000000000000000000000 PUSH1 0x0 DUP3 ADD MSTORE POP JUMP JUMPDEST PUSH32 0x54696D6520697320656E642E0000000000000000000000000000000000000000 PUSH1 0x0 DUP3 ADD MSTORE POP JUMP JUMPDEST PUSH32 0x4974206973206E6F742066726F6D206368616972706572736F6E2E0000000000 PUSH1 0x0 DUP3 ADD MSTORE POP JUMP JUMPDEST PUSH32 0x566F74657220616C726561647920766F7465642E000000000000000000000000 PUSH1 0x0 DUP3 ADD MSTORE POP JUMP JUMPDEST PUSH32 0x546F6B656E20646F65736E27742065786973742E000000000000000000000000 PUSH1 0x0 DUP3 ADD MSTORE POP JUMP JUMPDEST PUSH2 0x11AE DUP2 PUSH2 0xEA1 JUMP JUMPDEST DUP2 EQ PUSH2 0x11B9 JUMPI PUSH1 0x0 DUP1 REVERT JUMPDEST POP JUMP JUMPDEST PUSH2 0x11C5 DUP2 PUSH2 0xED3 JUMP JUMPDEST DUP2 EQ PUSH2 0x11D0 JUMPI PUSH1 0x0 DUP1 REVERT JUMPDEST POP JUMP INVALID LOG2 PUSH5 0x6970667358 0x22 SLT KECCAK256 CALLDATACOPY RETURNDATASIZE DIV PUSH28 0x979A412C45DF551164BAA9060505EA34395E63821CE928318DC77A10 PUSH5 0x736F6C6343 STOP ADDMOD SMOD STOP CALLER PUSH1 0x80 PUSH1 0x40 MSTORE CALLVALUE DUP1 ISZERO PUSH3 0x11 JUMPI PUSH1 0x0 DUP1 REVERT JUMPDEST POP PUSH1 0x40 MLOAD DUP1 PUSH1 0x40 ADD PUSH1 0x40 MSTORE DUP1 PUSH1 0xD DUP2 MSTORE PUSH1 0x20 ADD PUSH32 0x452D566F74696E6720636F696E00000000000000000000000000000000000000 DUP2 MSTORE POP PUSH1 0x1 SWAP1 DUP1 MLOAD SWAP1 PUSH1 0x20 ADD SWAP1 PUSH3 0x5F SWAP3 SWAP2 SWAP1 PUSH3 0xD0 JUMP JUMPDEST POP PUSH1 0x0 PUSH1 0x2 PUSH1 0x0 PUSH2 0x100 EXP DUP2 SLOAD DUP2 PUSH1 0xFF MUL NOT AND SWAP1 DUP4 PUSH1 0xFF AND MUL OR SWAP1 SSTORE POP PUSH1 0x40 MLOAD DUP1 PUSH1 0x40 ADD PUSH1 0x40 MSTORE DUP1 PUSH1 0x3 DUP2 MSTORE PUSH1 0x20 ADD PUSH32 0x4556430000000000000000000000000000000000000000000000000000000000 DUP2 MSTORE POP PUSH1 0x3 SWAP1 DUP1 MLOAD SWAP1 PUSH1 0x20 ADD SWAP1 PUSH3 0xC9 SWAP3 SWAP2 SWAP1 PUSH3 0xD0 JUMP JUMPDEST POP PUSH3 0x1E5 JUMP JUMPDEST DUP3 DUP1 SLOAD PUSH3 0xDE SWAP1 PUSH3 0x180 JUMP JUMPDEST SWAP1 PUSH1 0x0 MSTORE PUSH1 0x20 PUSH1 0x0 KECCAK256 SWAP1 PUSH1 0x1F ADD PUSH1 0x20 SWAP1 DIV DUP2 ADD SWAP3 DUP3 PUSH3 0x102 JUMPI PUSH1 0x0 DUP6 SSTORE PUSH3 0x14E JUMP JUMPDEST DUP3 PUSH1 0x1F LT PUSH3 0x11D JUMPI DUP1 MLOAD PUSH1 0xFF NOT AND DUP4 DUP1 ADD OR DUP6 SSTORE PUSH3 0x14E JUMP JUMPDEST DUP3 DUP1 ADD PUSH1 0x1 ADD DUP6 SSTORE DUP3 ISZERO PUSH3 0x14E JUMPI SWAP2 DUP3 ADD JUMPDEST DUP3 DUP2 GT ISZERO PUSH3 0x14D JUMPI DUP3 MLOAD DUP3 SSTORE SWAP2 PUSH1 0x20 ADD SWAP2 SWAP1 PUSH1 0x1 ADD SWAP1 PUSH3 0x130 JUMP JUMPDEST JUMPDEST POP SWAP1 POP PUSH3 0x15D SWAP2 SWAP1 PUSH3 0x161 JUMP JUMPDEST POP SWAP1 JUMP JUMPDEST JUMPDEST DUP1 DUP3 GT ISZERO PUSH3 0x17C JUMPI PUSH1 0x0 DUP2 PUSH1 0x0 SWAP1 SSTORE POP PUSH1 0x1 ADD PUSH3 0x162 JUMP JUMPDEST POP SWAP1 JUMP JUMPDEST PUSH1 0x0 PUSH1 0x2 DUP3 DIV SWAP1 POP PUSH1 0x1 DUP3 AND DUP1 PUSH3 0x199 JUMPI PUSH1 0x7F DUP3 AND SWAP2 POP JUMPDEST PUSH1 0x20 DUP3 LT DUP2 EQ ISZERO PUSH3 0x1B0 JUMPI PUSH3 0x1AF PUSH3 0x1B6 JUMP JUMPDEST JUMPDEST POP SWAP2 SWAP1 POP JUMP JUMPDEST PUSH32 0x4E487B7100000000000000000000000000000000000000000000000000000000 PUSH1 0x0 MSTORE PUSH1 0x22 PUSH1 0x4 MSTORE PUSH1 0x24 PUSH1 0x0 REVERT JUMPDEST PUSH2 0x119D DUP1 PUSH3 0x1F5 PUSH1 0x0 CODECOPY PUSH1 0x0 RETURN INVALID PUSH1 0x80 PUSH1 0x40 MSTORE CALLVALUE DUP1 ISZERO PUSH2 0x10 JUMPI PUSH1 0x0 DUP1 REVERT JUMPDEST POP PUSH1 0x4 CALLDATASIZE LT PUSH2 0xA9 JUMPI PUSH1 0x0 CALLDATALOAD PUSH1 0xE0 SHR DUP1 PUSH4 0x40C10F19 GT PUSH2 0x71 JUMPI DUP1 PUSH4 0x40C10F19 EQ PUSH2 0x140 JUMPI DUP1 PUSH4 0x54FD4D50 EQ PUSH2 0x15C JUMPI DUP1 PUSH4 0x70A08231 EQ PUSH2 0x17A JUMPI DUP1 PUSH4 0x95D89B41 EQ PUSH2 0x1AA JUMPI DUP1 PUSH4 0xA9059CBB EQ PUSH2 0x1C8 JUMPI DUP1 PUSH4 0xDD62ED3E EQ PUSH2 0x1E4 JUMPI PUSH2 0xA9 JUMP JUMPDEST DUP1 PUSH4 0x6FDDE03 EQ PUSH2 0xAE JUMPI DUP1 PUSH4 0x95EA7B3 EQ PUSH2 0xCC JUMPI DUP1 PUSH4 0x18160DDD EQ PUSH2 0xE8 JUMPI DUP1 PUSH4 0x23B872DD EQ PUSH2 0x106 JUMPI DUP1 PUSH4 0x313CE567 EQ PUSH2 0x122 JUMPI JUMPDEST PUSH1 0x0 DUP1 REVERT JUMPDEST PUSH2 0xB6 PUSH2 0x214 JUMP JUMPDEST PUSH1 0x40 MLOAD PUSH2 0xC3 SWAP2 SWAP1 PUSH2 0xEA1 JUMP JUMPDEST PUSH1 0x40 MLOAD DUP1 SWAP2 SUB SWAP1 RETURN JUMPDEST PUSH2 0xE6 PUSH1 0x4 DUP1 CALLDATASIZE SUB DUP2 ADD SWAP1 PUSH2 0xE1 SWAP2 SWAP1 PUSH2 0xDE7 JUMP JUMPDEST PUSH2 0x2A2 JUMP JUMPDEST STOP JUMPDEST PUSH2 0xF0 PUSH2 0x38C JUMP JUMPDEST PUSH1 0x40 MLOAD PUSH2 0xFD SWAP2 SWAP1 PUSH2 0xEE3 JUMP JUMPDEST PUSH1 0x40 MLOAD DUP1 SWAP2 SUB SWAP1 RETURN JUMPDEST PUSH2 0x120 PUSH1 0x4 DUP1 CALLDATASIZE SUB DUP2 ADD SWAP1 PUSH2 0x11B SWAP2 SWAP1 PUSH2 0xD94 JUMP JUMPDEST PUSH2 0x392 JUMP JUMPDEST STOP JUMPDEST PUSH2 0x12A PUSH2 0x715 JUMP JUMPDEST PUSH1 0x40 MLOAD PUSH2 0x137 SWAP2 SWAP1 PUSH2 0xEFE JUMP JUMPDEST PUSH1 0x40 MLOAD DUP1 SWAP2 SUB SWAP1 RETURN JUMPDEST PUSH2 0x15A PUSH1 0x4 DUP1 CALLDATASIZE SUB DUP2 ADD SWAP1 PUSH2 0x155 SWAP2 SWAP1 PUSH2 0xDE7 JUMP JUMPDEST PUSH2 0x728 JUMP JUMPDEST STOP JUMPDEST PUSH2 0x164 PUSH2 0x8B2 JUMP JUMPDEST PUSH1 0x40 MLOAD PUSH2 0x171 SWAP2 SWAP1 PUSH2 0xEA1 JUMP JUMPDEST PUSH1 0x40 MLOAD DUP1 SWAP2 SUB SWAP1 RETURN JUMPDEST PUSH2 0x194 PUSH1 0x4 DUP1 CALLDATASIZE SUB DUP2 ADD SWAP1 PUSH2 0x18F SWAP2 SWAP1 PUSH2 0xD27 JUMP JUMPDEST PUSH2 0x940 JUMP JUMPDEST PUSH1 0x40 MLOAD PUSH2 0x1A1 SWAP2 SWAP1 PUSH2 0xEE3 JUMP JUMPDEST PUSH1 0x40 MLOAD DUP1 SWAP2 SUB SWAP1 RETURN JUMPDEST PUSH2 0x1B2 PUSH2 0x989 JUMP JUMPDEST PUSH1 0x40 MLOAD PUSH2 0x1BF SWAP2 SWAP1 PUSH2 0xEA1 JUMP JUMPDEST PUSH1 0x40 MLOAD DUP1 SWAP2 SUB SWAP1 RETURN JUMPDEST PUSH2 0x1E2 PUSH1 0x4 DUP1 CALLDATASIZE SUB DUP2 ADD SWAP1 PUSH2 0x1DD SWAP2 SWAP1 PUSH2 0xDE7 JUMP JUMPDEST PUSH2 0xA17 JUMP JUMPDEST STOP JUMPDEST PUSH2 0x1FE PUSH1 0x4 DUP1 CALLDATASIZE SUB DUP2 ADD SWAP1 PUSH2 0x1F9 SWAP2 SWAP1 PUSH2 0xD54 JUMP JUMPDEST PUSH2 0xC25 JUMP JUMPDEST PUSH1 0x40 MLOAD PUSH2 0x20B SWAP2 SWAP1 PUSH2 0xEE3 JUMP JUMPDEST PUSH1 0x40 MLOAD DUP1 SWAP2 SUB SWAP1 RETURN JUMPDEST PUSH1 0x1 DUP1 SLOAD PUSH2 0x221 SWAP1 PUSH2 0x103B JUMP JUMPDEST DUP1 PUSH1 0x1F ADD PUSH1 0x20 DUP1 SWAP2 DIV MUL PUSH1 0x20 ADD PUSH1 0x40 MLOAD SWAP1 DUP2 ADD PUSH1 0x40 MSTORE DUP1 SWAP3 SWAP2 SWAP1 DUP2 DUP2 MSTORE PUSH1 0x20 ADD DUP3 DUP1 SLOAD PUSH2 0x24D SWAP1 PUSH2 0x103B JUMP JUMPDEST DUP1 ISZERO PUSH2 0x29A JUMPI DUP1 PUSH1 0x1F LT PUSH2 0x26F JUMPI PUSH2 0x100 DUP1 DUP4 SLOAD DIV MUL DUP4 MSTORE SWAP2 PUSH1 0x20 ADD SWAP2 PUSH2 0x29A JUMP JUMPDEST DUP3 ADD SWAP2 SWAP1 PUSH1 0x0 MSTORE PUSH1 0x20 PUSH1 0x0 KECCAK256 SWAP1 JUMPDEST DUP2 SLOAD DUP2 MSTORE SWAP1 PUSH1 0x1 ADD SWAP1 PUSH1 0x20 ADD DUP1 DUP4 GT PUSH2 0x27D JUMPI DUP3 SWAP1 SUB PUSH1 0x1F AND DUP3 ADD SWAP2 JUMPDEST POP POP POP POP POP DUP2 JUMP JUMPDEST DUP1 PUSH1 0x6 PUSH1 0x0 CALLER PUSH20 0xFFFFFFFFFFFFFFFFFFFFFFFFFFFFFFFFFFFFFFFF AND PUSH20 0xFFFFFFFFFFFFFFFFFFFFFFFFFFFFFFFFFFFFFFFF AND DUP2 MSTORE PUSH1 0x20 ADD SWAP1 DUP2 MSTORE PUSH1 0x20 ADD PUSH1 0x0 KECCAK256 PUSH1 0x0 DUP5 PUSH20 0xFFFFFFFFFFFFFFFFFFFFFFFFFFFFFFFFFFFFFFFF AND PUSH20 0xFFFFFFFFFFFFFFFFFFFFFFFFFFFFFFFFFFFFFFFF AND DUP2 MSTORE PUSH1 0x20 ADD SWAP1 DUP2 MSTORE PUSH1 0x20 ADD PUSH1 0x0 KECCAK256 DUP2 SWAP1 SSTORE POP DUP2 PUSH20 0xFFFFFFFFFFFFFFFFFFFFFFFFFFFFFFFFFFFFFFFF AND CALLER PUSH20 0xFFFFFFFFFFFFFFFFFFFFFFFFFFFFFFFFFFFFFFFF AND PUSH32 0x8C5BE1E5EBEC7D5BD14F71427D1E84F3DD0314C0F7B2291E5B200AC8C7C3B925 DUP4 PUSH1 0x40 MLOAD PUSH2 0x380 SWAP2 SWAP1 PUSH2 0xEE3 JUMP JUMPDEST PUSH1 0x40 MLOAD DUP1 SWAP2 SUB SWAP1 LOG3 POP POP JUMP JUMPDEST PUSH1 0x0 SLOAD DUP2 JUMP JUMPDEST DUP1 PUSH1 0x5 PUSH1 0x0 DUP6 PUSH20 0xFFFFFFFFFFFFFFFFFFFFFFFFFFFFFFFFFFFFFFFF AND PUSH20 0xFFFFFFFFFFFFFFFFFFFFFFFFFFFFFFFFFFFFFFFF AND DUP2 MSTORE PUSH1 0x20 ADD SWAP1 DUP2 MSTORE PUSH1 0x20 ADD PUSH1 0x0 KECCAK256 SLOAD LT ISZERO DUP1 ISZERO PUSH2 0x45D JUMPI POP DUP1 PUSH1 0x6 PUSH1 0x0 DUP6 PUSH20 0xFFFFFFFFFFFFFFFFFFFFFFFFFFFFFFFFFFFFFFFF AND PUSH20 0xFFFFFFFFFFFFFFFFFFFFFFFFFFFFFFFFFFFFFFFF AND DUP2 MSTORE PUSH1 0x20 ADD SWAP1 DUP2 MSTORE PUSH1 0x20 ADD PUSH1 0x0 KECCAK256 PUSH1 0x0 CALLER PUSH20 0xFFFFFFFFFFFFFFFFFFFFFFFFFFFFFFFFFFFFFFFF AND PUSH20 0xFFFFFFFFFFFFFFFFFFFFFFFFFFFFFFFFFFFFFFFF AND DUP2 MSTORE PUSH1 0x20 ADD SWAP1 DUP2 MSTORE PUSH1 0x20 ADD PUSH1 0x0 KECCAK256 SLOAD LT ISZERO JUMPDEST DUP1 ISZERO PUSH2 0x469 JUMPI POP PUSH1 0x0 DUP2 GT JUMPDEST PUSH2 0x472 JUMPI PUSH1 0x0 DUP1 REVERT JUMPDEST PUSH2 0x4C4 DUP2 PUSH1 0x5 PUSH1 0x0 DUP6 PUSH20 0xFFFFFFFFFFFFFFFFFFFFFFFFFFFFFFFFFFFFFFFF AND PUSH20 0xFFFFFFFFFFFFFFFFFFFFFFFFFFFFFFFFFFFFFFFF AND DUP2 MSTORE PUSH1 0x20 ADD SWAP1 DUP2 MSTORE PUSH1 0x20 ADD PUSH1 0x0 KECCAK256 SLOAD PUSH2 0xCAC SWAP1 SWAP2 SWAP1 PUSH4 0xFFFFFFFF AND JUMP JUMPDEST PUSH1 0x5 PUSH1 0x0 DUP5 PUSH20 0xFFFFFFFFFFFFFFFFFFFFFFFFFFFFFFFFFFFFFFFF AND PUSH20 0xFFFFFFFFFFFFFFFFFFFFFFFFFFFFFFFFFFFFFFFF AND DUP2 MSTORE PUSH1 0x20 ADD SWAP1 DUP2 MSTORE PUSH1 0x20 ADD PUSH1 0x0 KECCAK256 DUP2 SWAP1 SSTORE POP PUSH2 0x559 DUP2 PUSH1 0x5 PUSH1 0x0 DUP7 PUSH20 0xFFFFFFFFFFFFFFFFFFFFFFFFFFFFFFFFFFFFFFFF AND PUSH20 0xFFFFFFFFFFFFFFFFFFFFFFFFFFFFFFFFFFFFFFFF AND DUP2 MSTORE PUSH1 0x20 ADD SWAP1 DUP2 MSTORE PUSH1 0x20 ADD PUSH1 0x0 KECCAK256 SLOAD PUSH2 0xCD4 SWAP1 SWAP2 SWAP1 PUSH4 0xFFFFFFFF AND JUMP JUMPDEST PUSH1 0x5 PUSH1 0x0 DUP6 PUSH20 0xFFFFFFFFFFFFFFFFFFFFFFFFFFFFFFFFFFFFFFFF AND PUSH20 0xFFFFFFFFFFFFFFFFFFFFFFFFFFFFFFFFFFFFFFFF AND DUP2 MSTORE PUSH1 0x20 ADD SWAP1 DUP2 MSTORE PUSH1 0x20 ADD PUSH1 0x0 KECCAK256 DUP2 SWAP1 SSTORE POP PUSH2 0x62B DUP2 PUSH1 0x6 PUSH1 0x0 DUP7 PUSH20 0xFFFFFFFFFFFFFFFFFFFFFFFFFFFFFFFFFFFFFFFF AND PUSH20 0xFFFFFFFFFFFFFFFFFFFFFFFFFFFFFFFFFFFFFFFF AND DUP2 MSTORE PUSH1 0x20 ADD SWAP1 DUP2 MSTORE PUSH1 0x20 ADD PUSH1 0x0 KECCAK256 PUSH1 0x0 CALLER PUSH20 0xFFFFFFFFFFFFFFFFFFFFFFFFFFFFFFFFFFFFFFFF AND PUSH20 0xFFFFFFFFFFFFFFFFFFFFFFFFFFFFFFFFFFFFFFFF AND DUP2 MSTORE PUSH1 0x20 ADD SWAP1 DUP2 MSTORE PUSH1 0x20 ADD PUSH1 0x0 KECCAK256 SLOAD PUSH2 0xCD4 SWAP1 SWAP2 SWAP1 PUSH4 0xFFFFFFFF AND JUMP JUMPDEST PUSH1 0x6 PUSH1 0x0 DUP6 PUSH20 0xFFFFFFFFFFFFFFFFFFFFFFFFFFFFFFFFFFFFFFFF AND PUSH20 0xFFFFFFFFFFFFFFFFFFFFFFFFFFFFFFFFFFFFFFFF AND DUP2 MSTORE PUSH1 0x20 ADD SWAP1 DUP2 MSTORE PUSH1 0x20 ADD PUSH1 0x0 KECCAK256 PUSH1 0x0 CALLER PUSH20 0xFFFFFFFFFFFFFFFFFFFFFFFFFFFFFFFFFFFFFFFF AND PUSH20 0xFFFFFFFFFFFFFFFFFFFFFFFFFFFFFFFFFFFFFFFF AND DUP2 MSTORE PUSH1 0x20 ADD SWAP1 DUP2 MSTORE PUSH1 0x20 ADD PUSH1 0x0 KECCAK256 DUP2 SWAP1 SSTORE POP DUP2 PUSH20 0xFFFFFFFFFFFFFFFFFFFFFFFFFFFFFFFFFFFFFFFF AND DUP4 PUSH20 0xFFFFFFFFFFFFFFFFFFFFFFFFFFFFFFFFFFFFFFFF AND PUSH32 0xDDF252AD1BE2C89B69C2B068FC378DAA952BA7F163C4A11628F55A4DF523B3EF DUP4 PUSH1 0x40 MLOAD PUSH2 0x708 SWAP2 SWAP1 PUSH2 0xEE3 JUMP JUMPDEST PUSH1 0x40 MLOAD DUP1 SWAP2 SUB SWAP1 LOG3 POP POP POP JUMP JUMPDEST PUSH1 0x2 PUSH1 0x0 SWAP1 SLOAD SWAP1 PUSH2 0x100 EXP SWAP1 DIV PUSH1 0xFF AND DUP2 JUMP JUMPDEST PUSH1 0x0 PUSH20 0xFFFFFFFFFFFFFFFFFFFFFFFFFFFFFFFFFFFFFFFF AND DUP3 PUSH20 0xFFFFFFFFFFFFFFFFFFFFFFFFFFFFFFFFFFFFFFFF AND EQ ISZERO PUSH2 0x798 JUMPI PUSH1 0x40 MLOAD PUSH32 0x8C379A000000000000000000000000000000000000000000000000000000000 DUP2 MSTORE PUSH1 0x4 ADD PUSH2 0x78F SWAP1 PUSH2 0xEC3 JUMP JUMPDEST PUSH1 0x40 MLOAD DUP1 SWAP2 SUB SWAP1 REVERT JUMPDEST PUSH2 0x7AD DUP2 PUSH1 0x0 SLOAD PUSH2 0xCAC SWAP1 SWAP2 SWAP1 PUSH4 0xFFFFFFFF AND JUMP JUMPDEST PUSH1 0x0 DUP2 SWAP1 SSTORE POP PUSH2 0x805 DUP2 PUSH1 0x5 PUSH1 0x0 DUP6 PUSH20 0xFFFFFFFFFFFFFFFFFFFFFFFFFFFFFFFFFFFFFFFF AND PUSH20 0xFFFFFFFFFFFFFFFFFFFFFFFFFFFFFFFFFFFFFFFF AND DUP2 MSTORE PUSH1 0x20 ADD SWAP1 DUP2 MSTORE PUSH1 0x20 ADD PUSH1 0x0 KECCAK256 SLOAD PUSH2 0xCAC SWAP1 SWAP2 SWAP1 PUSH4 0xFFFFFFFF AND JUMP JUMPDEST PUSH1 0x5 PUSH1 0x0 DUP5 PUSH20 0xFFFFFFFFFFFFFFFFFFFFFFFFFFFFFFFFFFFFFFFF AND PUSH20 0xFFFFFFFFFFFFFFFFFFFFFFFFFFFFFFFFFFFFFFFF AND DUP2 MSTORE PUSH1 0x20 ADD SWAP1 DUP2 MSTORE PUSH1 0x20 ADD PUSH1 0x0 KECCAK256 DUP2 SWAP1 SSTORE POP DUP2 PUSH20 0xFFFFFFFFFFFFFFFFFFFFFFFFFFFFFFFFFFFFFFFF AND PUSH1 0x0 PUSH20 0xFFFFFFFFFFFFFFFFFFFFFFFFFFFFFFFFFFFFFFFF AND PUSH32 0xDDF252AD1BE2C89B69C2B068FC378DAA952BA7F163C4A11628F55A4DF523B3EF DUP4 PUSH1 0x40 MLOAD PUSH2 0x8A6 SWAP2 SWAP1 PUSH2 0xEE3 JUMP JUMPDEST PUSH1 0x40 MLOAD DUP1 SWAP2 SUB SWAP1 LOG3 POP POP JUMP JUMPDEST PUSH1 0x4 DUP1 SLOAD PUSH2 0x8BF SWAP1 PUSH2 0x103B JUMP JUMPDEST DUP1 PUSH1 0x1F ADD PUSH1 0x20 DUP1 SWAP2 DIV MUL PUSH1 0x20 ADD PUSH1 0x40 MLOAD SWAP1 DUP2 ADD PUSH1 0x40 MSTORE DUP1 SWAP3 SWAP2 SWAP1 DUP2 DUP2 MSTORE PUSH1 0x20 ADD DUP3 DUP1 SLOAD PUSH2 0x8EB SWAP1 PUSH2 0x103B JUMP JUMPDEST DUP1 ISZERO PUSH2 0x938 JUMPI DUP1 PUSH1 0x1F LT PUSH2 0x90D JUMPI PUSH2 0x100 DUP1 DUP4 SLOAD DIV MUL DUP4 MSTORE SWAP2 PUSH1 0x20 ADD SWAP2 PUSH2 0x938 JUMP JUMPDEST DUP3 ADD SWAP2 SWAP1 PUSH1 0x0 MSTORE PUSH1 0x20 PUSH1 0x0 KECCAK256 SWAP1 JUMPDEST DUP2 SLOAD DUP2 MSTORE SWAP1 PUSH1 0x1 ADD SWAP1 PUSH1 0x20 ADD DUP1 DUP4 GT PUSH2 0x91B JUMPI DUP3 SWAP1 SUB PUSH1 0x1F AND DUP3 ADD SWAP2 JUMPDEST POP POP POP POP POP DUP2 JUMP JUMPDEST PUSH1 0x0 PUSH1 0x5 PUSH1 0x0 DUP4 PUSH20 0xFFFFFFFFFFFFFFFFFFFFFFFFFFFFFFFFFFFFFFFF AND PUSH20 0xFFFFFFFFFFFFFFFFFFFFFFFFFFFFFFFFFFFFFFFF AND DUP2 MSTORE PUSH1 0x20 ADD SWAP1 DUP2 MSTORE PUSH1 0x20 ADD PUSH1 0x0 KECCAK256 SLOAD SWAP1 POP SWAP2 SWAP1 POP JUMP JUMPDEST PUSH1 0x3 DUP1 SLOAD PUSH2 0x996 SWAP1 PUSH2 0x103B JUMP JUMPDEST DUP1 PUSH1 0x1F ADD PUSH1 0x20 DUP1 SWAP2 DIV MUL PUSH1 0x20 ADD PUSH1 0x40 MLOAD SWAP1 DUP2 ADD PUSH1 0x40 MSTORE DUP1 SWAP3 SWAP2 SWAP1 DUP2 DUP2 MSTORE PUSH1 0x20 ADD DUP3 DUP1 SLOAD PUSH2 0x9C2 SWAP1 PUSH2 0x103B JUMP JUMPDEST DUP1 ISZERO PUSH2 0xA0F JUMPI DUP1 PUSH1 0x1F LT PUSH2 0x9E4 JUMPI PUSH2 0x100 DUP1 DUP4 SLOAD DIV MUL DUP4 MSTORE SWAP2 PUSH1 0x20 ADD SWAP2 PUSH2 0xA0F JUMP JUMPDEST DUP3 ADD SWAP2 SWAP1 PUSH1 0x0 MSTORE PUSH1 0x20 PUSH1 0x0 KECCAK256 SWAP1 JUMPDEST DUP2 SLOAD DUP2 MSTORE SWAP1 PUSH1 0x1 ADD SWAP1 PUSH1 0x20 ADD DUP1 DUP4 GT PUSH2 0x9F2 JUMPI DUP3 SWAP1 SUB PUSH1 0x1F AND DUP3 ADD SWAP2 JUMPDEST POP POP POP POP POP DUP2 JUMP JUMPDEST PUSH1 0x40 PUSH1 0x4 DUP2 PUSH2 0xA26 SWAP2 SWAP1 PUSH2 0xF35 JUMP JUMPDEST PUSH1 0x0 CALLDATASIZE SWAP1 POP EQ PUSH2 0xA39 JUMPI PUSH2 0xA38 PUSH2 0x106D JUMP JUMPDEST JUMPDEST DUP2 PUSH1 0x5 PUSH1 0x0 CALLER PUSH20 0xFFFFFFFFFFFFFFFFFFFFFFFFFFFFFFFFFFFFFFFF AND PUSH20 0xFFFFFFFFFFFFFFFFFFFFFFFFFFFFFFFFFFFFFFFF AND DUP2 MSTORE PUSH1 0x20 ADD SWAP1 DUP2 MSTORE PUSH1 0x20 ADD PUSH1 0x0 KECCAK256 SLOAD LT ISZERO DUP1 ISZERO PUSH2 0xA88 JUMPI POP PUSH1 0x0 DUP3 GT JUMPDEST PUSH2 0xA91 JUMPI PUSH1 0x0 DUP1 REVERT JUMPDEST PUSH2 0xAE3 DUP3 PUSH1 0x5 PUSH1 0x0 CALLER PUSH20 0xFFFFFFFFFFFFFFFFFFFFFFFFFFFFFFFFFFFFFFFF AND PUSH20 0xFFFFFFFFFFFFFFFFFFFFFFFFFFFFFFFFFFFFFFFF AND DUP2 MSTORE PUSH1 0x20 ADD SWAP1 DUP2 MSTORE PUSH1 0x20 ADD PUSH1 0x0 KECCAK256 SLOAD PUSH2 0xCD4 SWAP1 SWAP2 SWAP1 PUSH4 0xFFFFFFFF AND JUMP JUMPDEST PUSH1 0x5 PUSH1 0x0 CALLER PUSH20 0xFFFFFFFFFFFFFFFFFFFFFFFFFFFFFFFFFFFFFFFF AND PUSH20 0xFFFFFFFFFFFFFFFFFFFFFFFFFFFFFFFFFFFFFFFF AND DUP2 MSTORE PUSH1 0x20 ADD SWAP1 DUP2 MSTORE PUSH1 0x20 ADD PUSH1 0x0 KECCAK256 DUP2 SWAP1 SSTORE POP PUSH2 0xB78 DUP3 PUSH1 0x5 PUSH1 0x0 DUP7 PUSH20 0xFFFFFFFFFFFFFFFFFFFFFFFFFFFFFFFFFFFFFFFF AND PUSH20 0xFFFFFFFFFFFFFFFFFFFFFFFFFFFFFFFFFFFFFFFF AND DUP2 MSTORE PUSH1 0x20 ADD SWAP1 DUP2 MSTORE PUSH1 0x20 ADD PUSH1 0x0 KECCAK256 SLOAD PUSH2 0xCAC SWAP1 SWAP2 SWAP1 PUSH4 0xFFFFFFFF AND JUMP JUMPDEST PUSH1 0x5 PUSH1 0x0 DUP6 PUSH20 0xFFFFFFFFFFFFFFFFFFFFFFFFFFFFFFFFFFFFFFFF AND PUSH20 0xFFFFFFFFFFFFFFFFFFFFFFFFFFFFFFFFFFFFFFFF AND DUP2 MSTORE PUSH1 0x20 ADD SWAP1 DUP2 MSTORE PUSH1 0x20 ADD PUSH1 0x0 KECCAK256 DUP2 SWAP1 SSTORE POP DUP3 PUSH20 0xFFFFFFFFFFFFFFFFFFFFFFFFFFFFFFFFFFFFFFFF AND CALLER PUSH20 0xFFFFFFFFFFFFFFFFFFFFFFFFFFFFFFFFFFFFFFFF AND PUSH32 0xDDF252AD1BE2C89B69C2B068FC378DAA952BA7F163C4A11628F55A4DF523B3EF DUP5 PUSH1 0x40 MLOAD PUSH2 0xC18 SWAP2 SWAP1 PUSH2 0xEE3 JUMP JUMPDEST PUSH1 0x40 MLOAD DUP1 SWAP2 SUB SWAP1 LOG3 POP POP POP JUMP JUMPDEST PUSH1 0x0 PUSH1 0x6 PUSH1 0x0 DUP4 PUSH20 0xFFFFFFFFFFFFFFFFFFFFFFFFFFFFFFFFFFFFFFFF AND PUSH20 0xFFFFFFFFFFFFFFFFFFFFFFFFFFFFFFFFFFFFFFFF AND DUP2 MSTORE PUSH1 0x20 ADD SWAP1 DUP2 MSTORE PUSH1 0x20 ADD PUSH1 0x0 KECCAK256 PUSH1 0x0 DUP5 PUSH20 0xFFFFFFFFFFFFFFFFFFFFFFFFFFFFFFFFFFFFFFFF AND PUSH20 0xFFFFFFFFFFFFFFFFFFFFFFFFFFFFFFFFFFFFFFFF AND DUP2 MSTORE PUSH1 0x20 ADD SWAP1 DUP2 MSTORE PUSH1 0x20 ADD PUSH1 0x0 KECCAK256 SLOAD SWAP1 POP SWAP3 SWAP2 POP POP JUMP JUMPDEST PUSH1 0x0 DUP1 DUP3 DUP5 PUSH2 0xCBB SWAP2 SWAP1 PUSH2 0xF35 JUMP JUMPDEST SWAP1 POP DUP4 DUP2 LT ISZERO PUSH2 0xCCA JUMPI PUSH1 0x0 DUP1 REVERT JUMPDEST DUP1 SWAP2 POP POP SWAP3 SWAP2 POP POP JUMP JUMPDEST PUSH1 0x0 DUP3 DUP3 GT ISZERO PUSH2 0xCE3 JUMPI PUSH1 0x0 DUP1 REVERT JUMPDEST PUSH1 0x0 DUP3 DUP5 PUSH2 0xCF1 SWAP2 SWAP1 PUSH2 0xF8B JUMP JUMPDEST SWAP1 POP DUP1 SWAP2 POP POP SWAP3 SWAP2 POP POP JUMP JUMPDEST PUSH1 0x0 DUP2 CALLDATALOAD SWAP1 POP PUSH2 0xD0C DUP2 PUSH2 0x1139 JUMP JUMPDEST SWAP3 SWAP2 POP POP JUMP JUMPDEST PUSH1 0x0 DUP2 CALLDATALOAD SWAP1 POP PUSH2 0xD21 DUP2 PUSH2 0x1150 JUMP JUMPDEST SWAP3 SWAP2 POP POP JUMP JUMPDEST PUSH1 0x0 PUSH1 0x20 DUP3 DUP5 SUB SLT ISZERO PUSH2 0xD3D JUMPI PUSH2 0xD3C PUSH2 0x10FA JUMP JUMPDEST JUMPDEST PUSH1 0x0 PUSH2 0xD4B DUP5 DUP3 DUP6 ADD PUSH2 0xCFD JUMP JUMPDEST SWAP2 POP POP SWAP3 SWAP2 POP POP JUMP JUMPDEST PUSH1 0x0 DUP1 PUSH1 0x40 DUP4 DUP6 SUB SLT ISZERO PUSH2 0xD6B JUMPI PUSH2 0xD6A PUSH2 0x10FA JUMP JUMPDEST JUMPDEST PUSH1 0x0 PUSH2 0xD79 DUP6 DUP3 DUP7 ADD PUSH2 0xCFD JUMP JUMPDEST SWAP3 POP POP PUSH1 0x20 PUSH2 0xD8A DUP6 DUP3 DUP7 ADD PUSH2 0xCFD JUMP JUMPDEST SWAP2 POP POP SWAP3 POP SWAP3 SWAP1 POP JUMP JUMPDEST PUSH1 0x0 DUP1 PUSH1 0x0 PUSH1 0x60 DUP5 DUP7 SUB SLT ISZERO PUSH2 0xDAD JUMPI PUSH2 0xDAC PUSH2 0x10FA JUMP JUMPDEST JUMPDEST PUSH1 0x0 PUSH2 0xDBB DUP7 DUP3 DUP8 ADD PUSH2 0xCFD JUMP JUMPDEST SWAP4 POP POP PUSH1 0x20 PUSH2 0xDCC DUP7 DUP3 DUP8 ADD PUSH2 0xCFD JUMP JUMPDEST SWAP3 POP POP PUSH1 0x40 PUSH2 0xDDD DUP7 DUP3 DUP8 ADD PUSH2 0xD12 JUMP JUMPDEST SWAP2 POP POP SWAP3 POP SWAP3 POP SWAP3 JUMP JUMPDEST PUSH1 0x0 DUP1 PUSH1 0x40 DUP4 DUP6 SUB SLT ISZERO PUSH2 0xDFE JUMPI PUSH2 0xDFD PUSH2 0x10FA JUMP JUMPDEST JUMPDEST PUSH1 0x0 PUSH2 0xE0C DUP6 DUP3 DUP7 ADD PUSH2 0xCFD JUMP JUMPDEST SWAP3 POP POP PUSH1 0x20 PUSH2 0xE1D DUP6 DUP3 DUP7 ADD PUSH2 0xD12 JUMP JUMPDEST SWAP2 POP POP SWAP3 POP SWAP3 SWAP1 POP JUMP JUMPDEST PUSH1 0x0 PUSH2 0xE32 DUP3 PUSH2 0xF19 JUMP JUMPDEST PUSH2 0xE3C DUP2 DUP6 PUSH2 0xF24 JUMP JUMPDEST SWAP4 POP PUSH2 0xE4C DUP2 DUP6 PUSH1 0x20 DUP7 ADD PUSH2 0x1008 JUMP JUMPDEST PUSH2 0xE55 DUP2 PUSH2 0x10FF JUMP JUMPDEST DUP5 ADD SWAP2 POP POP SWAP3 SWAP2 POP POP JUMP JUMPDEST PUSH1 0x0 PUSH2 0xE6D PUSH1 0x1F DUP4 PUSH2 0xF24 JUMP JUMPDEST SWAP2 POP PUSH2 0xE78 DUP3 PUSH2 0x1110 JUMP JUMPDEST PUSH1 0x20 DUP3 ADD SWAP1 POP SWAP2 SWAP1 POP JUMP JUMPDEST PUSH2 0xE8C DUP2 PUSH2 0xFF1 JUMP JUMPDEST DUP3 MSTORE POP POP JUMP JUMPDEST PUSH2 0xE9B DUP2 PUSH2 0xFFB JUMP JUMPDEST DUP3 MSTORE POP POP JUMP JUMPDEST PUSH1 0x0 PUSH1 0x20 DUP3 ADD SWAP1 POP DUP2 DUP2 SUB PUSH1 0x0 DUP4 ADD MSTORE PUSH2 0xEBB DUP2 DUP5 PUSH2 0xE27 JUMP JUMPDEST SWAP1 POP SWAP3 SWAP2 POP POP JUMP JUMPDEST PUSH1 0x0 PUSH1 0x20 DUP3 ADD SWAP1 POP DUP2 DUP2 SUB PUSH1 0x0 DUP4 ADD MSTORE PUSH2 0xEDC DUP2 PUSH2 0xE60 JUMP JUMPDEST SWAP1 POP SWAP2 SWAP1 POP JUMP JUMPDEST PUSH1 0x0 PUSH1 0x20 DUP3 ADD SWAP1 POP PUSH2 0xEF8 PUSH1 0x0 DUP4 ADD DUP5 PUSH2 0xE83 JUMP JUMPDEST SWAP3 SWAP2 POP POP JUMP JUMPDEST PUSH1 0x0 PUSH1 0x20 DUP3 ADD SWAP1 POP PUSH2 0xF13 PUSH1 0x0 DUP4 ADD DUP5 PUSH2 0xE92 JUMP JUMPDEST SWAP3 SWAP2 POP POP JUMP JUMPDEST PUSH1 0x0 DUP2 MLOAD SWAP1 POP SWAP2 SWAP1 POP JUMP JUMPDEST PUSH1 0x0 DUP3 DUP3 MSTORE PUSH1 0x20 DUP3 ADD SWAP1 POP SWAP3 SWAP2 POP POP JUMP JUMPDEST PUSH1 0x0 PUSH2 0xF40 DUP3 PUSH2 0xFF1 JUMP JUMPDEST SWAP2 POP PUSH2 0xF4B DUP4 PUSH2 0xFF1 JUMP JUMPDEST SWAP3 POP DUP3 PUSH32 0xFFFFFFFFFFFFFFFFFFFFFFFFFFFFFFFFFFFFFFFFFFFFFFFFFFFFFFFFFFFFFFFF SUB DUP3 GT ISZERO PUSH2 0xF80 JUMPI PUSH2 0xF7F PUSH2 0x109C JUMP JUMPDEST JUMPDEST DUP3 DUP3 ADD SWAP1 POP SWAP3 SWAP2 POP POP JUMP JUMPDEST PUSH1 0x0 PUSH2 0xF96 DUP3 PUSH2 0xFF1 JUMP JUMPDEST SWAP2 POP PUSH2 0xFA1 DUP4 PUSH2 0xFF1 JUMP JUMPDEST SWAP3 POP DUP3 DUP3 LT ISZERO PUSH2 0xFB4 JUMPI PUSH2 0xFB3 PUSH2 0x109C JUMP JUMPDEST JUMPDEST DUP3 DUP3 SUB SWAP1 POP SWAP3 SWAP2 POP POP JUMP JUMPDEST PUSH1 0x0 PUSH2 0xFCA DUP3 PUSH2 0xFD1 JUMP JUMPDEST SWAP1 POP SWAP2 SWAP1 POP JUMP JUMPDEST PUSH1 0x0 PUSH20 0xFFFFFFFFFFFFFFFFFFFFFFFFFFFFFFFFFFFFFFFF DUP3 AND SWAP1 POP SWAP2 SWAP1 POP JUMP JUMPDEST PUSH1 0x0 DUP2 SWAP1 POP SWAP2 SWAP1 POP JUMP JUMPDEST PUSH1 0x0 PUSH1 0xFF DUP3 AND SWAP1 POP SWAP2 SWAP1 POP JUMP JUMPDEST PUSH1 0x0 JUMPDEST DUP4 DUP2 LT ISZERO PUSH2 0x1026 JUMPI DUP1 DUP3 ADD MLOAD DUP2 DUP5 ADD MSTORE PUSH1 0x20 DUP2 ADD SWAP1 POP PUSH2 0x100B JUMP JUMPDEST DUP4 DUP2 GT ISZERO PUSH2 0x1035 JUMPI PUSH1 0x0 DUP5 DUP5 ADD MSTORE JUMPDEST POP POP POP POP JUMP JUMPDEST PUSH1 0x0 PUSH1 0x2 DUP3 DIV SWAP1 POP PUSH1 0x1 DUP3 AND DUP1 PUSH2 0x1053 JUMPI PUSH1 0x7F DUP3 AND SWAP2 POP JUMPDEST PUSH1 0x20 DUP3 LT DUP2 EQ ISZERO PUSH2 0x1067 JUMPI PUSH2 0x1066 PUSH2 0x10CB JUMP JUMPDEST JUMPDEST POP SWAP2 SWAP1 POP JUMP JUMPDEST PUSH32 0x4E487B7100000000000000000000000000000000000000000000000000000000 PUSH1 0x0 MSTORE PUSH1 0x1 PUSH1 0x4 MSTORE PUSH1 0x24 PUSH1 0x0 REVERT JUMPDEST PUSH32 0x4E487B7100000000000000000000000000000000000000000000000000000000 PUSH1 0x0 MSTORE PUSH1 0x11 PUSH1 0x4 MSTORE PUSH1 0x24 PUSH1 0x0 REVERT JUMPDEST PUSH32 0x4E487B7100000000000000000000000000000000000000000000000000000000 PUSH1 0x0 MSTORE PUSH1 0x22 PUSH1 0x4 MSTORE PUSH1 0x24 PUSH1 0x0 REVERT JUMPDEST PUSH1 0x0 DUP1 REVERT JUMPDEST PUSH1 0x0 PUSH1 0x1F NOT PUSH1 0x1F DUP4 ADD AND SWAP1 POP SWAP2 SWAP1 POP JUMP JUMPDEST PUSH32 0x45524332303A206D696E7420746F20746865207A65726F206164647265737300 PUSH1 0x0 DUP3 ADD MSTORE POP JUMP JUMPDEST PUSH2 0x1142 DUP2 PUSH2 0xFBF JUMP JUMPDEST DUP2 EQ PUSH2 0x114D JUMPI PUSH1 0x0 DUP1 REVERT JUMPDEST POP JUMP JUMPDEST PUSH2 0x1159 DUP2 PUSH2 0xFF1 JUMP JUMPDEST DUP2 EQ PUSH2 0x1164 JUMPI PUSH1 0x0 DUP1 REVERT JUMPDEST POP JUMP INVALID LOG2 PUSH5 0x6970667358 0x22 SLT KECCAK256 0x27 0xEB PUSH15 0x37F58EB04BCEABF4D1664407137D7 0xBA 0xA6 GAS PUSH1 0x15 PUSH32 0xFFB955F10B61C4C564736F6C6343000807003300000000000000000000000000 "
				},
				"gasEstimates": {
					"creation": {
						"codeDepositCost": "923400",
						"executionCost": "infinite",
						"totalCost": "infinite"
					},
					"external": {
						"addProposals(address[],string[])": "infinite",
						"addVoters(address[])": "infinite",
						"token()": "2666",
						"totalVotesFor(address)": "infinite",
						"vote(address)": "infinite"
					}
				},
				"methodIdentifiers": {
					"addProposals(address[],string[])": "633fff16",
					"addVoters(address[])": "8203373a",
					"token()": "fc0c546a",
					"totalVotesFor(address)": "4041ef54",
					"vote(address)": "6dd7d8ea"
				}
			},
			"storageLayout": {
				"storage": [
					{
						"astId": 440,
						"contract": "contracts/Voting.sol:Voting",
						"label": "startTime",
						"offset": 0,
						"slot": "0",
						"type": "t_uint256"
					},
					{
						"astId": 442,
						"contract": "contracts/Voting.sol:Voting",
						"label": "endTime",
						"offset": 0,
						"slot": "1",
						"type": "t_uint256"
					},
					{
						"astId": 446,
						"contract": "contracts/Voting.sol:Voting",
						"label": "voters",
						"offset": 0,
						"slot": "2",
						"type": "t_mapping(t_address,t_bool)"
					},
					{
						"astId": 450,
						"contract": "contracts/Voting.sol:Voting",
						"label": "proposals",
						"offset": 0,
						"slot": "3",
						"type": "t_mapping(t_address,t_string_storage)"
					},
					{
						"astId": 452,
						"contract": "contracts/Voting.sol:Voting",
						"label": "chairperson",
						"offset": 0,
						"slot": "4",
						"type": "t_address"
					},
					{
						"astId": 459,
						"contract": "contracts/Voting.sol:Voting",
						"label": "token",
						"offset": 0,
						"slot": "5",
						"type": "t_contract(Token)435"
					}
				],
				"types": {
					"t_address": {
						"encoding": "inplace",
						"label": "address",
						"numberOfBytes": "20"
					},
					"t_bool": {
						"encoding": "inplace",
						"label": "bool",
						"numberOfBytes": "1"
					},
					"t_contract(Token)435": {
						"encoding": "inplace",
						"label": "contract Token",
						"numberOfBytes": "20"
					},
					"t_mapping(t_address,t_bool)": {
						"encoding": "mapping",
						"key": "t_address",
						"label": "mapping(address => bool)",
						"numberOfBytes": "32",
						"value": "t_bool"
					},
					"t_mapping(t_address,t_string_storage)": {
						"encoding": "mapping",
						"key": "t_address",
						"label": "mapping(address => string)",
						"numberOfBytes": "32",
						"value": "t_string_storage"
					},
					"t_string_storage": {
						"encoding": "bytes",
						"label": "string",
						"numberOfBytes": "32"
					},
					"t_uint256": {
						"encoding": "inplace",
						"label": "uint256",
						"numberOfBytes": "32"
					}
				}
			},
			"userdoc": {
				"kind": "user",
				"methods": {},
				"version": 1
			}
		}
	}
}