{
	"contracts/Voting.sol": {
		"Voting": {
			"abi": [
				{
					"inputs": [
						{
							"internalType": "string",
							"name": "_name",
							"type": "string"
						},
						{
							"internalType": "uint256",
							"name": "_startTime",
							"type": "uint256"
						},
						{
							"internalType": "uint256",
							"name": "_endTime",
							"type": "uint256"
						}
					],
					"stateMutability": "nonpayable",
					"type": "constructor"
				},
				{
					"inputs": [
						{
							"internalType": "address[]",
							"name": "_proposalsAddr",
							"type": "address[]"
						},
						{
							"internalType": "string[]",
							"name": "_proposalsNames",
							"type": "string[]"
						}
					],
					"name": "addProposals",
					"outputs": [],
					"stateMutability": "nonpayable",
					"type": "function"
				},
				{
					"inputs": [
						{
							"internalType": "address[]",
							"name": "_voters",
							"type": "address[]"
						}
					],
					"name": "addVoters",
					"outputs": [],
					"stateMutability": "nonpayable",
					"type": "function"
				},
				{
					"inputs": [
						{
							"internalType": "address",
							"name": "proposal",
							"type": "address"
						}
					],
					"name": "nameOfProposal",
					"outputs": [
						{
							"internalType": "string",
							"name": "",
							"type": "string"
						}
					],
					"stateMutability": "view",
					"type": "function"
				},
				{
					"inputs": [
						{
							"internalType": "address",
							"name": "proposal",
							"type": "address"
						}
					],
					"name": "totalVotesFor",
					"outputs": [
						{
							"internalType": "uint256",
							"name": "",
							"type": "uint256"
						}
					],
					"stateMutability": "view",
					"type": "function"
				},
				{
					"inputs": [
						{
							"internalType": "address",
							"name": "proposal",
							"type": "address"
						}
					],
					"name": "vote",
					"outputs": [],
					"stateMutability": "nonpayable",
					"type": "function"
				}
			],
			"devdoc": {
				"kind": "dev",
				"methods": {},
				"version": 1
			},
			"evm": {
				"assembly": "    /* \"contracts/Voting.sol\":91:3110  contract Voting {\r... */\n  mstore(0x40, 0x80)\n    /* \"contracts/Voting.sol\":476:487  new Token() */\n  mload(0x40)\n  tag_1\n  swap1\n  tag_2\n  jump\t// in\ntag_1:\n  mload(0x40)\n  dup1\n  swap2\n  sub\n  swap1\n  0x00\n  create\n  dup1\n  iszero\n  dup1\n  iszero\n  tag_3\n  jumpi\n  returndatasize\n  0x00\n  dup1\n  returndatacopy\n  revert(0x00, returndatasize)\ntag_3:\n  pop\n    /* \"contracts/Voting.sol\":462:487  Token token = new Token() */\n  0x08\n  exp(0x0100, 0x00)\n  dup2\n  sload\n  dup2\n  0xffffffffffffffffffffffffffffffffffffffff\n  mul\n  not\n  and\n  swap1\n  dup4\n  0xffffffffffffffffffffffffffffffffffffffff\n  and\n  mul\n  or\n  swap1\n  sstore\n  pop\n    /* \"contracts/Voting.sol\":496:700  constructor (string memory _name, uint _startTime, uint _endTime) {\r... */\n  callvalue\n  dup1\n  iszero\n  tag_4\n  jumpi\n  0x00\n  dup1\n  revert\ntag_4:\n  pop\n  mload(0x40)\n  sub(codesize, bytecodeSize)\n  dup1\n  bytecodeSize\n  dup4\n  codecopy\n  dup2\n  dup2\n  add\n  0x40\n  mstore\n  dup2\n  add\n  swap1\n  tag_5\n  swap2\n  swap1\n  tag_6\n  jump\t// in\ntag_5:\n    /* \"contracts/Voting.sol\":580:585  _name */\n  dup3\n    /* \"contracts/Voting.sol\":573:577  name */\n  0x00\n    /* \"contracts/Voting.sol\":573:585  name = _name */\n  swap1\n  dup1\n  mload\n  swap1\n  0x20\n  add\n  swap1\n  tag_9\n  swap3\n  swap2\n  swap1\n  tag_10\n  jump\t// in\ntag_9:\n  pop\n    /* \"contracts/Voting.sol\":610:620  msg.sender */\n  caller\n    /* \"contracts/Voting.sol\":596:607  chairperson */\n  0x07\n  0x00\n    /* \"contracts/Voting.sol\":596:620  chairperson = msg.sender */\n  0x0100\n  exp\n  dup2\n  sload\n  dup2\n  0xffffffffffffffffffffffffffffffffffffffff\n  mul\n  not\n  and\n  swap1\n  dup4\n  0xffffffffffffffffffffffffffffffffffffffff\n  and\n  mul\n  or\n  swap1\n  sstore\n  pop\n    /* \"contracts/Voting.sol\":652:662  _startTime */\n  dup2\n    /* \"contracts/Voting.sol\":640:649  startTime */\n  0x01\n    /* \"contracts/Voting.sol\":640:662  startTime = _startTime */\n  dup2\n  swap1\n  sstore\n  pop\n    /* \"contracts/Voting.sol\":683:691  _endTime */\n  dup1\n    /* \"contracts/Voting.sol\":673:680  endTime */\n  0x02\n    /* \"contracts/Voting.sol\":673:691  endTime = _endTime */\n  dup2\n  swap1\n  sstore\n  pop\n    /* \"contracts/Voting.sol\":496:700  constructor (string memory _name, uint _startTime, uint _endTime) {\r... */\n  pop\n  pop\n  pop\n    /* \"contracts/Voting.sol\":91:3110  contract Voting {\r... */\n  jump(tag_11)\ntag_2:\n  dataSize(sub_1)\n  dup1\n  dataOffset(sub_1)\n  dup4\n  codecopy\n  add\n  swap1\n  jump\t// out\ntag_10:\n  dup3\n  dup1\n  sload\n  tag_12\n  swap1\n  tag_13\n  jump\t// in\ntag_12:\n  swap1\n  0x00\n  mstore\n  keccak256(0x00, 0x20)\n  swap1\n  0x1f\n  add\n  0x20\n  swap1\n  div\n  dup2\n  add\n  swap3\n  dup3\n  tag_15\n  jumpi\n  0x00\n  dup6\n  sstore\n  jump(tag_14)\ntag_15:\n  dup3\n  0x1f\n  lt\n  tag_16\n  jumpi\n  dup1\n  mload\n  not(0xff)\n  and\n  dup4\n  dup1\n  add\n  or\n  dup6\n  sstore\n  jump(tag_14)\ntag_16:\n  dup3\n  dup1\n  add\n  0x01\n  add\n  dup6\n  sstore\n  dup3\n  iszero\n  tag_14\n  jumpi\n  swap2\n  dup3\n  add\ntag_17:\n  dup3\n  dup2\n  gt\n  iszero\n  tag_18\n  jumpi\n  dup3\n  mload\n  dup3\n  sstore\n  swap2\n  0x20\n  add\n  swap2\n  swap1\n  0x01\n  add\n  swap1\n  jump(tag_17)\ntag_18:\ntag_14:\n  pop\n  swap1\n  pop\n  tag_19\n  swap2\n  swap1\n  tag_20\n  jump\t// in\ntag_19:\n  pop\n  swap1\n  jump\t// out\ntag_20:\ntag_21:\n  dup1\n  dup3\n  gt\n  iszero\n  tag_22\n  jumpi\n  0x00\n  dup2\n  0x00\n  swap1\n  sstore\n  pop\n  0x01\n  add\n  jump(tag_21)\ntag_22:\n  pop\n  swap1\n  jump\t// out\n    /* \"#utility.yul\":7:428   */\ntag_24:\n    /* \"#utility.yul\":96:101   */\n  0x00\n    /* \"#utility.yul\":121:187   */\n  tag_26\n    /* \"#utility.yul\":137:186   */\n  tag_27\n    /* \"#utility.yul\":179:185   */\n  dup5\n    /* \"#utility.yul\":137:186   */\n  tag_28\n  jump\t// in\ntag_27:\n    /* \"#utility.yul\":121:187   */\n  tag_29\n  jump\t// in\ntag_26:\n    /* \"#utility.yul\":112:187   */\n  swap1\n  pop\n    /* \"#utility.yul\":210:216   */\n  dup3\n    /* \"#utility.yul\":203:208   */\n  dup2\n    /* \"#utility.yul\":196:217   */\n  mstore\n    /* \"#utility.yul\":248:252   */\n  0x20\n    /* \"#utility.yul\":241:246   */\n  dup2\n    /* \"#utility.yul\":237:253   */\n  add\n    /* \"#utility.yul\":286:289   */\n  dup5\n    /* \"#utility.yul\":277:283   */\n  dup5\n    /* \"#utility.yul\":272:275   */\n  dup5\n    /* \"#utility.yul\":268:284   */\n  add\n    /* \"#utility.yul\":265:290   */\n  gt\n    /* \"#utility.yul\":262:374   */\n  iszero\n  tag_30\n  jumpi\n    /* \"#utility.yul\":293:372   */\n  tag_31\n  tag_32\n  jump\t// in\ntag_31:\n    /* \"#utility.yul\":262:374   */\ntag_30:\n    /* \"#utility.yul\":383:422   */\n  tag_33\n    /* \"#utility.yul\":415:421   */\n  dup5\n    /* \"#utility.yul\":410:413   */\n  dup3\n    /* \"#utility.yul\":405:408   */\n  dup6\n    /* \"#utility.yul\":383:422   */\n  tag_34\n  jump\t// in\ntag_33:\n    /* \"#utility.yul\":102:428   */\n  pop\n    /* \"#utility.yul\":7:428   */\n  swap4\n  swap3\n  pop\n  pop\n  pop\n  jump\t// out\n    /* \"#utility.yul\":448:803   */\ntag_35:\n    /* \"#utility.yul\":515:520   */\n  0x00\n    /* \"#utility.yul\":564:567   */\n  dup3\n    /* \"#utility.yul\":557:561   */\n  0x1f\n    /* \"#utility.yul\":549:555   */\n  dup4\n    /* \"#utility.yul\":545:562   */\n  add\n    /* \"#utility.yul\":541:568   */\n  slt\n    /* \"#utility.yul\":531:653   */\n  tag_37\n  jumpi\n    /* \"#utility.yul\":572:651   */\n  tag_38\n  tag_39\n  jump\t// in\ntag_38:\n    /* \"#utility.yul\":531:653   */\ntag_37:\n    /* \"#utility.yul\":682:688   */\n  dup2\n    /* \"#utility.yul\":676:689   */\n  mload\n    /* \"#utility.yul\":707:797   */\n  tag_40\n    /* \"#utility.yul\":793:796   */\n  dup5\n    /* \"#utility.yul\":785:791   */\n  dup3\n    /* \"#utility.yul\":778:782   */\n  0x20\n    /* \"#utility.yul\":770:776   */\n  dup7\n    /* \"#utility.yul\":766:783   */\n  add\n    /* \"#utility.yul\":707:797   */\n  tag_24\n  jump\t// in\ntag_40:\n    /* \"#utility.yul\":698:797   */\n  swap2\n  pop\n    /* \"#utility.yul\":521:803   */\n  pop\n    /* \"#utility.yul\":448:803   */\n  swap3\n  swap2\n  pop\n  pop\n  jump\t// out\n    /* \"#utility.yul\":809:952   */\ntag_41:\n    /* \"#utility.yul\":866:871   */\n  0x00\n    /* \"#utility.yul\":897:903   */\n  dup2\n    /* \"#utility.yul\":891:904   */\n  mload\n    /* \"#utility.yul\":882:904   */\n  swap1\n  pop\n    /* \"#utility.yul\":913:946   */\n  tag_43\n    /* \"#utility.yul\":940:945   */\n  dup2\n    /* \"#utility.yul\":913:946   */\n  tag_44\n  jump\t// in\ntag_43:\n    /* \"#utility.yul\":809:952   */\n  swap3\n  swap2\n  pop\n  pop\n  jump\t// out\n    /* \"#utility.yul\":958:1794   */\ntag_6:\n    /* \"#utility.yul\":1056:1062   */\n  0x00\n    /* \"#utility.yul\":1064:1070   */\n  dup1\n    /* \"#utility.yul\":1072:1078   */\n  0x00\n    /* \"#utility.yul\":1121:1123   */\n  0x60\n    /* \"#utility.yul\":1109:1118   */\n  dup5\n    /* \"#utility.yul\":1100:1107   */\n  dup7\n    /* \"#utility.yul\":1096:1119   */\n  sub\n    /* \"#utility.yul\":1092:1124   */\n  slt\n    /* \"#utility.yul\":1089:1208   */\n  iszero\n  tag_46\n  jumpi\n    /* \"#utility.yul\":1127:1206   */\n  tag_47\n  tag_48\n  jump\t// in\ntag_47:\n    /* \"#utility.yul\":1089:1208   */\ntag_46:\n    /* \"#utility.yul\":1268:1269   */\n  0x00\n    /* \"#utility.yul\":1257:1266   */\n  dup5\n    /* \"#utility.yul\":1253:1270   */\n  add\n    /* \"#utility.yul\":1247:1271   */\n  mload\n    /* \"#utility.yul\":1298:1316   */\n  0xffffffffffffffff\n    /* \"#utility.yul\":1290:1296   */\n  dup2\n    /* \"#utility.yul\":1287:1317   */\n  gt\n    /* \"#utility.yul\":1284:1401   */\n  iszero\n  tag_49\n  jumpi\n    /* \"#utility.yul\":1320:1399   */\n  tag_50\n  tag_51\n  jump\t// in\ntag_50:\n    /* \"#utility.yul\":1284:1401   */\ntag_49:\n    /* \"#utility.yul\":1425:1499   */\n  tag_52\n    /* \"#utility.yul\":1491:1498   */\n  dup7\n    /* \"#utility.yul\":1482:1488   */\n  dup3\n    /* \"#utility.yul\":1471:1480   */\n  dup8\n    /* \"#utility.yul\":1467:1489   */\n  add\n    /* \"#utility.yul\":1425:1499   */\n  tag_35\n  jump\t// in\ntag_52:\n    /* \"#utility.yul\":1415:1499   */\n  swap4\n  pop\n    /* \"#utility.yul\":1218:1509   */\n  pop\n    /* \"#utility.yul\":1548:1550   */\n  0x20\n    /* \"#utility.yul\":1574:1638   */\n  tag_53\n    /* \"#utility.yul\":1630:1637   */\n  dup7\n    /* \"#utility.yul\":1621:1627   */\n  dup3\n    /* \"#utility.yul\":1610:1619   */\n  dup8\n    /* \"#utility.yul\":1606:1628   */\n  add\n    /* \"#utility.yul\":1574:1638   */\n  tag_41\n  jump\t// in\ntag_53:\n    /* \"#utility.yul\":1564:1638   */\n  swap3\n  pop\n    /* \"#utility.yul\":1519:1648   */\n  pop\n    /* \"#utility.yul\":1687:1689   */\n  0x40\n    /* \"#utility.yul\":1713:1777   */\n  tag_54\n    /* \"#utility.yul\":1769:1776   */\n  dup7\n    /* \"#utility.yul\":1760:1766   */\n  dup3\n    /* \"#utility.yul\":1749:1758   */\n  dup8\n    /* \"#utility.yul\":1745:1767   */\n  add\n    /* \"#utility.yul\":1713:1777   */\n  tag_41\n  jump\t// in\ntag_54:\n    /* \"#utility.yul\":1703:1777   */\n  swap2\n  pop\n    /* \"#utility.yul\":1658:1787   */\n  pop\n    /* \"#utility.yul\":958:1794   */\n  swap3\n  pop\n  swap3\n  pop\n  swap3\n  jump\t// out\n    /* \"#utility.yul\":1800:1929   */\ntag_29:\n    /* \"#utility.yul\":1834:1840   */\n  0x00\n    /* \"#utility.yul\":1861:1881   */\n  tag_56\n  tag_57\n  jump\t// in\ntag_56:\n    /* \"#utility.yul\":1851:1881   */\n  swap1\n  pop\n    /* \"#utility.yul\":1890:1923   */\n  tag_58\n    /* \"#utility.yul\":1918:1922   */\n  dup3\n    /* \"#utility.yul\":1910:1916   */\n  dup3\n    /* \"#utility.yul\":1890:1923   */\n  tag_59\n  jump\t// in\ntag_58:\n    /* \"#utility.yul\":1800:1929   */\n  swap2\n  swap1\n  pop\n  jump\t// out\n    /* \"#utility.yul\":1935:2010   */\ntag_57:\n    /* \"#utility.yul\":1968:1974   */\n  0x00\n    /* \"#utility.yul\":2001:2003   */\n  0x40\n    /* \"#utility.yul\":1995:2004   */\n  mload\n    /* \"#utility.yul\":1985:2004   */\n  swap1\n  pop\n    /* \"#utility.yul\":1935:2010   */\n  swap1\n  jump\t// out\n    /* \"#utility.yul\":2016:2324   */\ntag_28:\n    /* \"#utility.yul\":2078:2082   */\n  0x00\n    /* \"#utility.yul\":2168:2186   */\n  0xffffffffffffffff\n    /* \"#utility.yul\":2160:2166   */\n  dup3\n    /* \"#utility.yul\":2157:2187   */\n  gt\n    /* \"#utility.yul\":2154:2210   */\n  iszero\n  tag_62\n  jumpi\n    /* \"#utility.yul\":2190:2208   */\n  tag_63\n  tag_64\n  jump\t// in\ntag_63:\n    /* \"#utility.yul\":2154:2210   */\ntag_62:\n    /* \"#utility.yul\":2228:2257   */\n  tag_65\n    /* \"#utility.yul\":2250:2256   */\n  dup3\n    /* \"#utility.yul\":2228:2257   */\n  tag_66\n  jump\t// in\ntag_65:\n    /* \"#utility.yul\":2220:2257   */\n  swap1\n  pop\n    /* \"#utility.yul\":2312:2316   */\n  0x20\n    /* \"#utility.yul\":2306:2310   */\n  dup2\n    /* \"#utility.yul\":2302:2317   */\n  add\n    /* \"#utility.yul\":2294:2317   */\n  swap1\n  pop\n    /* \"#utility.yul\":2016:2324   */\n  swap2\n  swap1\n  pop\n  jump\t// out\n    /* \"#utility.yul\":2330:2407   */\ntag_67:\n    /* \"#utility.yul\":2367:2374   */\n  0x00\n    /* \"#utility.yul\":2396:2401   */\n  dup2\n    /* \"#utility.yul\":2385:2401   */\n  swap1\n  pop\n    /* \"#utility.yul\":2330:2407   */\n  swap2\n  swap1\n  pop\n  jump\t// out\n    /* \"#utility.yul\":2413:2720   */\ntag_34:\n    /* \"#utility.yul\":2481:2482   */\n  0x00\n    /* \"#utility.yul\":2491:2604   */\ntag_70:\n    /* \"#utility.yul\":2505:2511   */\n  dup4\n    /* \"#utility.yul\":2502:2503   */\n  dup2\n    /* \"#utility.yul\":2499:2512   */\n  lt\n    /* \"#utility.yul\":2491:2604   */\n  iszero\n  tag_72\n  jumpi\n    /* \"#utility.yul\":2590:2591   */\n  dup1\n    /* \"#utility.yul\":2585:2588   */\n  dup3\n    /* \"#utility.yul\":2581:2592   */\n  add\n    /* \"#utility.yul\":2575:2593   */\n  mload\n    /* \"#utility.yul\":2571:2572   */\n  dup2\n    /* \"#utility.yul\":2566:2569   */\n  dup5\n    /* \"#utility.yul\":2562:2573   */\n  add\n    /* \"#utility.yul\":2555:2594   */\n  mstore\n    /* \"#utility.yul\":2527:2529   */\n  0x20\n    /* \"#utility.yul\":2524:2525   */\n  dup2\n    /* \"#utility.yul\":2520:2530   */\n  add\n    /* \"#utility.yul\":2515:2530   */\n  swap1\n  pop\n    /* \"#utility.yul\":2491:2604   */\n  jump(tag_70)\ntag_72:\n    /* \"#utility.yul\":2622:2628   */\n  dup4\n    /* \"#utility.yul\":2619:2620   */\n  dup2\n    /* \"#utility.yul\":2616:2629   */\n  gt\n    /* \"#utility.yul\":2613:2714   */\n  iszero\n  tag_73\n  jumpi\n    /* \"#utility.yul\":2702:2703   */\n  0x00\n    /* \"#utility.yul\":2693:2699   */\n  dup5\n    /* \"#utility.yul\":2688:2691   */\n  dup5\n    /* \"#utility.yul\":2684:2700   */\n  add\n    /* \"#utility.yul\":2677:2704   */\n  mstore\n    /* \"#utility.yul\":2613:2714   */\ntag_73:\n    /* \"#utility.yul\":2462:2720   */\n  pop\n    /* \"#utility.yul\":2413:2720   */\n  pop\n  pop\n  pop\n  jump\t// out\n    /* \"#utility.yul\":2726:3046   */\ntag_13:\n    /* \"#utility.yul\":2770:2776   */\n  0x00\n    /* \"#utility.yul\":2807:2808   */\n  0x02\n    /* \"#utility.yul\":2801:2805   */\n  dup3\n    /* \"#utility.yul\":2797:2809   */\n  div\n    /* \"#utility.yul\":2787:2809   */\n  swap1\n  pop\n    /* \"#utility.yul\":2854:2855   */\n  0x01\n    /* \"#utility.yul\":2848:2852   */\n  dup3\n    /* \"#utility.yul\":2844:2856   */\n  and\n    /* \"#utility.yul\":2875:2893   */\n  dup1\n    /* \"#utility.yul\":2865:2946   */\n  tag_75\n  jumpi\n    /* \"#utility.yul\":2931:2935   */\n  0x7f\n    /* \"#utility.yul\":2923:2929   */\n  dup3\n    /* \"#utility.yul\":2919:2936   */\n  and\n    /* \"#utility.yul\":2909:2936   */\n  swap2\n  pop\n    /* \"#utility.yul\":2865:2946   */\ntag_75:\n    /* \"#utility.yul\":2993:2995   */\n  0x20\n    /* \"#utility.yul\":2985:2991   */\n  dup3\n    /* \"#utility.yul\":2982:2996   */\n  lt\n    /* \"#utility.yul\":2962:2980   */\n  dup2\n    /* \"#utility.yul\":2959:2997   */\n  eq\n    /* \"#utility.yul\":2956:3040   */\n  iszero\n  tag_76\n  jumpi\n    /* \"#utility.yul\":3012:3030   */\n  tag_77\n  tag_78\n  jump\t// in\ntag_77:\n    /* \"#utility.yul\":2956:3040   */\ntag_76:\n    /* \"#utility.yul\":2777:3046   */\n  pop\n    /* \"#utility.yul\":2726:3046   */\n  swap2\n  swap1\n  pop\n  jump\t// out\n    /* \"#utility.yul\":3052:3333   */\ntag_59:\n    /* \"#utility.yul\":3135:3162   */\n  tag_80\n    /* \"#utility.yul\":3157:3161   */\n  dup3\n    /* \"#utility.yul\":3135:3162   */\n  tag_66\n  jump\t// in\ntag_80:\n    /* \"#utility.yul\":3127:3133   */\n  dup2\n    /* \"#utility.yul\":3123:3163   */\n  add\n    /* \"#utility.yul\":3265:3271   */\n  dup2\n    /* \"#utility.yul\":3253:3263   */\n  dup2\n    /* \"#utility.yul\":3250:3272   */\n  lt\n    /* \"#utility.yul\":3229:3247   */\n  0xffffffffffffffff\n    /* \"#utility.yul\":3217:3227   */\n  dup3\n    /* \"#utility.yul\":3214:3248   */\n  gt\n    /* \"#utility.yul\":3211:3273   */\n  or\n    /* \"#utility.yul\":3208:3296   */\n  iszero\n  tag_81\n  jumpi\n    /* \"#utility.yul\":3276:3294   */\n  tag_82\n  tag_64\n  jump\t// in\ntag_82:\n    /* \"#utility.yul\":3208:3296   */\ntag_81:\n    /* \"#utility.yul\":3316:3326   */\n  dup1\n    /* \"#utility.yul\":3312:3314   */\n  0x40\n    /* \"#utility.yul\":3305:3327   */\n  mstore\n    /* \"#utility.yul\":3095:3333   */\n  pop\n    /* \"#utility.yul\":3052:3333   */\n  pop\n  pop\n  jump\t// out\n    /* \"#utility.yul\":3339:3519   */\ntag_78:\n    /* \"#utility.yul\":3387:3464   */\n  0x4e487b7100000000000000000000000000000000000000000000000000000000\n    /* \"#utility.yul\":3384:3385   */\n  0x00\n    /* \"#utility.yul\":3377:3465   */\n  mstore\n    /* \"#utility.yul\":3484:3488   */\n  0x22\n    /* \"#utility.yul\":3481:3482   */\n  0x04\n    /* \"#utility.yul\":3474:3489   */\n  mstore\n    /* \"#utility.yul\":3508:3512   */\n  0x24\n    /* \"#utility.yul\":3505:3506   */\n  0x00\n    /* \"#utility.yul\":3498:3513   */\n  revert\n    /* \"#utility.yul\":3525:3705   */\ntag_64:\n    /* \"#utility.yul\":3573:3650   */\n  0x4e487b7100000000000000000000000000000000000000000000000000000000\n    /* \"#utility.yul\":3570:3571   */\n  0x00\n    /* \"#utility.yul\":3563:3651   */\n  mstore\n    /* \"#utility.yul\":3670:3674   */\n  0x41\n    /* \"#utility.yul\":3667:3668   */\n  0x04\n    /* \"#utility.yul\":3660:3675   */\n  mstore\n    /* \"#utility.yul\":3694:3698   */\n  0x24\n    /* \"#utility.yul\":3691:3692   */\n  0x00\n    /* \"#utility.yul\":3684:3699   */\n  revert\n    /* \"#utility.yul\":3711:3828   */\ntag_39:\n    /* \"#utility.yul\":3820:3821   */\n  0x00\n    /* \"#utility.yul\":3817:3818   */\n  dup1\n    /* \"#utility.yul\":3810:3822   */\n  revert\n    /* \"#utility.yul\":3834:3951   */\ntag_32:\n    /* \"#utility.yul\":3943:3944   */\n  0x00\n    /* \"#utility.yul\":3940:3941   */\n  dup1\n    /* \"#utility.yul\":3933:3945   */\n  revert\n    /* \"#utility.yul\":3957:4074   */\ntag_51:\n    /* \"#utility.yul\":4066:4067   */\n  0x00\n    /* \"#utility.yul\":4063:4064   */\n  dup1\n    /* \"#utility.yul\":4056:4068   */\n  revert\n    /* \"#utility.yul\":4080:4197   */\ntag_48:\n    /* \"#utility.yul\":4189:4190   */\n  0x00\n    /* \"#utility.yul\":4186:4187   */\n  dup1\n    /* \"#utility.yul\":4179:4191   */\n  revert\n    /* \"#utility.yul\":4203:4305   */\ntag_66:\n    /* \"#utility.yul\":4244:4250   */\n  0x00\n    /* \"#utility.yul\":4295:4297   */\n  0x1f\n    /* \"#utility.yul\":4291:4298   */\n  not\n    /* \"#utility.yul\":4286:4288   */\n  0x1f\n    /* \"#utility.yul\":4279:4284   */\n  dup4\n    /* \"#utility.yul\":4275:4289   */\n  add\n    /* \"#utility.yul\":4271:4299   */\n  and\n    /* \"#utility.yul\":4261:4299   */\n  swap1\n  pop\n    /* \"#utility.yul\":4203:4305   */\n  swap2\n  swap1\n  pop\n  jump\t// out\n    /* \"#utility.yul\":4311:4433   */\ntag_44:\n    /* \"#utility.yul\":4384:4408   */\n  tag_91\n    /* \"#utility.yul\":4402:4407   */\n  dup2\n    /* \"#utility.yul\":4384:4408   */\n  tag_67\n  jump\t// in\ntag_91:\n    /* \"#utility.yul\":4377:4382   */\n  dup2\n    /* \"#utility.yul\":4374:4409   */\n  eq\n    /* \"#utility.yul\":4364:4427   */\n  tag_92\n  jumpi\n    /* \"#utility.yul\":4423:4424   */\n  0x00\n    /* \"#utility.yul\":4420:4421   */\n  dup1\n    /* \"#utility.yul\":4413:4425   */\n  revert\n    /* \"#utility.yul\":4364:4427   */\ntag_92:\n    /* \"#utility.yul\":4311:4433   */\n  pop\n  jump\t// out\n    /* \"contracts/Voting.sol\":91:3110  contract Voting {\r... */\ntag_11:\n  dataSize(sub_0)\n  dup1\n  dataOffset(sub_0)\n  0x00\n  codecopy\n  0x00\n  return\nstop\n\nsub_0: assembly {\n        /* \"contracts/Voting.sol\":91:3110  contract Voting {\r... */\n      mstore(0x40, 0x80)\n      callvalue\n      dup1\n      iszero\n      tag_1\n      jumpi\n      0x00\n      dup1\n      revert\n    tag_1:\n      pop\n      jumpi(tag_2, lt(calldatasize, 0x04))\n      shr(0xe0, calldataload(0x00))\n      dup1\n      0x3e552909\n      eq\n      tag_3\n      jumpi\n      dup1\n      0x4041ef54\n      eq\n      tag_4\n      jumpi\n      dup1\n      0x633fff16\n      eq\n      tag_5\n      jumpi\n      dup1\n      0x6dd7d8ea\n      eq\n      tag_6\n      jumpi\n      dup1\n      0x8203373a\n      eq\n      tag_7\n      jumpi\n    tag_2:\n      0x00\n      dup1\n      revert\n        /* \"contracts/Voting.sol\":2903:3107  function nameOfProposal(address proposal) view public returns (string memory) {\r... */\n    tag_3:\n      tag_8\n      0x04\n      dup1\n      calldatasize\n      sub\n      dup2\n      add\n      swap1\n      tag_9\n      swap2\n      swap1\n      tag_10\n      jump\t// in\n    tag_9:\n      tag_11\n      jump\t// in\n    tag_8:\n      mload(0x40)\n      tag_12\n      swap2\n      swap1\n      tag_13\n      jump\t// in\n    tag_12:\n      mload(0x40)\n      dup1\n      swap2\n      sub\n      swap1\n      return\n        /* \"contracts/Voting.sol\":2621:2895  function totalVotesFor(address proposal) view public returns (uint256) {\r... */\n    tag_4:\n      tag_14\n      0x04\n      dup1\n      calldatasize\n      sub\n      dup2\n      add\n      swap1\n      tag_15\n      swap2\n      swap1\n      tag_10\n      jump\t// in\n    tag_15:\n      tag_16\n      jump\t// in\n    tag_14:\n      mload(0x40)\n      tag_17\n      swap2\n      swap1\n      tag_18\n      jump\t// in\n    tag_17:\n      mload(0x40)\n      dup1\n      swap2\n      sub\n      swap1\n      return\n        /* \"contracts/Voting.sol\":1477:2093  function addProposals(address[] memory _proposalsAddr, \r... */\n    tag_5:\n      tag_19\n      0x04\n      dup1\n      calldatasize\n      sub\n      dup2\n      add\n      swap1\n      tag_20\n      swap2\n      swap1\n      tag_21\n      jump\t// in\n    tag_20:\n      tag_22\n      jump\t// in\n    tag_19:\n      stop\n        /* \"contracts/Voting.sol\":2101:2613  function vote(address proposal) public voteIsOn {\r... */\n    tag_6:\n      tag_23\n      0x04\n      dup1\n      calldatasize\n      sub\n      dup2\n      add\n      swap1\n      tag_24\n      swap2\n      swap1\n      tag_10\n      jump\t// in\n    tag_24:\n      tag_25\n      jump\t// in\n    tag_23:\n      stop\n        /* \"contracts/Voting.sol\":1018:1469  function addVoters(address[] memory _voters) public onlyChairperson {\r... */\n    tag_7:\n      tag_26\n      0x04\n      dup1\n      calldatasize\n      sub\n      dup2\n      add\n      swap1\n      tag_27\n      swap2\n      swap1\n      tag_28\n      jump\t// in\n    tag_27:\n      tag_29\n      jump\t// in\n    tag_26:\n      stop\n        /* \"contracts/Voting.sol\":2903:3107  function nameOfProposal(address proposal) view public returns (string memory) {\r... */\n    tag_11:\n        /* \"contracts/Voting.sol\":2966:2979  string memory */\n      0x60\n        /* \"contracts/Voting.sol\":3000:3014  proposalsExist */\n      0x06\n        /* \"contracts/Voting.sol\":3000:3024  proposalsExist[proposal] */\n      0x00\n        /* \"contracts/Voting.sol\":3015:3023  proposal */\n      dup4\n        /* \"contracts/Voting.sol\":3000:3024  proposalsExist[proposal] */\n      0xffffffffffffffffffffffffffffffffffffffff\n      and\n      0xffffffffffffffffffffffffffffffffffffffff\n      and\n      dup2\n      mstore\n      0x20\n      add\n      swap1\n      dup2\n      mstore\n      0x20\n      add\n      0x00\n      keccak256\n      0x00\n      swap1\n      sload\n      swap1\n      0x0100\n      exp\n      swap1\n      div\n      0xff\n      and\n        /* \"contracts/Voting.sol\":2992:3052  require(proposalsExist[proposal], \"Proposal doesn't exist.\") */\n      tag_31\n      jumpi\n      mload(0x40)\n      0x08c379a000000000000000000000000000000000000000000000000000000000\n      dup2\n      mstore\n      0x04\n      add\n      tag_32\n      swap1\n      tag_33\n      jump\t// in\n    tag_32:\n      mload(0x40)\n      dup1\n      swap2\n      sub\n      swap1\n      revert\n    tag_31:\n        /* \"contracts/Voting.sol\":3080:3089  proposals */\n      0x05\n        /* \"contracts/Voting.sol\":3080:3099  proposals[proposal] */\n      0x00\n        /* \"contracts/Voting.sol\":3090:3098  proposal */\n      dup4\n        /* \"contracts/Voting.sol\":3080:3099  proposals[proposal] */\n      0xffffffffffffffffffffffffffffffffffffffff\n      and\n      0xffffffffffffffffffffffffffffffffffffffff\n      and\n      dup2\n      mstore\n      0x20\n      add\n      swap1\n      dup2\n      mstore\n      0x20\n      add\n      0x00\n      keccak256\n        /* \"contracts/Voting.sol\":3073:3099  return proposals[proposal] */\n      dup1\n      sload\n      tag_34\n      swap1\n      tag_35\n      jump\t// in\n    tag_34:\n      dup1\n      0x1f\n      add\n      0x20\n      dup1\n      swap2\n      div\n      mul\n      0x20\n      add\n      mload(0x40)\n      swap1\n      dup2\n      add\n      0x40\n      mstore\n      dup1\n      swap3\n      swap2\n      swap1\n      dup2\n      dup2\n      mstore\n      0x20\n      add\n      dup3\n      dup1\n      sload\n      tag_36\n      swap1\n      tag_35\n      jump\t// in\n    tag_36:\n      dup1\n      iszero\n      tag_37\n      jumpi\n      dup1\n      0x1f\n      lt\n      tag_38\n      jumpi\n      0x0100\n      dup1\n      dup4\n      sload\n      div\n      mul\n      dup4\n      mstore\n      swap2\n      0x20\n      add\n      swap2\n      jump(tag_37)\n    tag_38:\n      dup3\n      add\n      swap2\n      swap1\n      0x00\n      mstore\n      keccak256(0x00, 0x20)\n      swap1\n    tag_39:\n      dup2\n      sload\n      dup2\n      mstore\n      swap1\n      0x01\n      add\n      swap1\n      0x20\n      add\n      dup1\n      dup4\n      gt\n      tag_39\n      jumpi\n      dup3\n      swap1\n      sub\n      0x1f\n      and\n      dup3\n      add\n      swap2\n    tag_37:\n      pop\n      pop\n      pop\n      pop\n      pop\n      swap1\n      pop\n        /* \"contracts/Voting.sol\":2903:3107  function nameOfProposal(address proposal) view public returns (string memory) {\r... */\n      swap2\n      swap1\n      pop\n      jump\t// out\n        /* \"contracts/Voting.sol\":2621:2895  function totalVotesFor(address proposal) view public returns (uint256) {\r... */\n    tag_16:\n        /* \"contracts/Voting.sol\":2683:2690  uint256 */\n      0x00\n        /* \"contracts/Voting.sol\":2730:2737  endTime */\n      sload(0x02)\n        /* \"contracts/Voting.sol\":2711:2726  block.timestamp */\n      timestamp\n        /* \"contracts/Voting.sol\":2711:2737  block.timestamp >= endTime */\n      lt\n      iszero\n        /* \"contracts/Voting.sol\":2703:2763  require(block.timestamp >= endTime, \"Voting has not ended.\") */\n      tag_41\n      jumpi\n      mload(0x40)\n      0x08c379a000000000000000000000000000000000000000000000000000000000\n      dup2\n      mstore\n      0x04\n      add\n      tag_42\n      swap1\n      tag_43\n      jump\t// in\n    tag_42:\n      mload(0x40)\n      dup1\n      swap2\n      sub\n      swap1\n      revert\n    tag_41:\n        /* \"contracts/Voting.sol\":2782:2796  proposalsExist */\n      0x06\n        /* \"contracts/Voting.sol\":2782:2806  proposalsExist[proposal] */\n      0x00\n        /* \"contracts/Voting.sol\":2797:2805  proposal */\n      dup4\n        /* \"contracts/Voting.sol\":2782:2806  proposalsExist[proposal] */\n      0xffffffffffffffffffffffffffffffffffffffff\n      and\n      0xffffffffffffffffffffffffffffffffffffffff\n      and\n      dup2\n      mstore\n      0x20\n      add\n      swap1\n      dup2\n      mstore\n      0x20\n      add\n      0x00\n      keccak256\n      0x00\n      swap1\n      sload\n      swap1\n      0x0100\n      exp\n      swap1\n      div\n      0xff\n      and\n        /* \"contracts/Voting.sol\":2774:2834  require(proposalsExist[proposal], \"Proposal doesn't exist.\") */\n      tag_44\n      jumpi\n      mload(0x40)\n      0x08c379a000000000000000000000000000000000000000000000000000000000\n      dup2\n      mstore\n      0x04\n      add\n      tag_45\n      swap1\n      tag_33\n      jump\t// in\n    tag_45:\n      mload(0x40)\n      dup1\n      swap2\n      sub\n      swap1\n      revert\n    tag_44:\n        /* \"contracts/Voting.sol\":2862:2867  token */\n      0x08\n      0x00\n      swap1\n      sload\n      swap1\n      0x0100\n      exp\n      swap1\n      div\n      0xffffffffffffffffffffffffffffffffffffffff\n      and\n        /* \"contracts/Voting.sol\":2862:2877  token.balanceOf */\n      0xffffffffffffffffffffffffffffffffffffffff\n      and\n      0x70a08231\n        /* \"contracts/Voting.sol\":2878:2886  proposal */\n      dup4\n        /* \"contracts/Voting.sol\":2862:2887  token.balanceOf(proposal) */\n      mload(0x40)\n      dup3\n      0xffffffff\n      and\n      0xe0\n      shl\n      dup2\n      mstore\n      0x04\n      add\n      tag_46\n      swap2\n      swap1\n      tag_47\n      jump\t// in\n    tag_46:\n      0x20\n      mload(0x40)\n      dup1\n      dup4\n      sub\n      dup2\n      dup7\n      dup1\n      extcodesize\n      iszero\n      dup1\n      iszero\n      tag_48\n      jumpi\n      0x00\n      dup1\n      revert\n    tag_48:\n      pop\n      gas\n      staticcall\n      iszero\n      dup1\n      iszero\n      tag_50\n      jumpi\n      returndatasize\n      0x00\n      dup1\n      returndatacopy\n      revert(0x00, returndatasize)\n    tag_50:\n      pop\n      pop\n      pop\n      pop\n      mload(0x40)\n      returndatasize\n      not(0x1f)\n      0x1f\n      dup3\n      add\n      and\n      dup3\n      add\n      dup1\n      0x40\n      mstore\n      pop\n      dup2\n      add\n      swap1\n      tag_51\n      swap2\n      swap1\n      tag_52\n      jump\t// in\n    tag_51:\n        /* \"contracts/Voting.sol\":2855:2887  return token.balanceOf(proposal) */\n      swap1\n      pop\n        /* \"contracts/Voting.sol\":2621:2895  function totalVotesFor(address proposal) view public returns (uint256) {\r... */\n      swap2\n      swap1\n      pop\n      jump\t// out\n        /* \"contracts/Voting.sol\":1477:2093  function addProposals(address[] memory _proposalsAddr, \r... */\n    tag_22:\n        /* \"contracts/Voting.sol\":768:779  chairperson */\n      0x07\n      0x00\n      swap1\n      sload\n      swap1\n      0x0100\n      exp\n      swap1\n      div\n      0xffffffffffffffffffffffffffffffffffffffff\n      and\n        /* \"contracts/Voting.sol\":754:779  msg.sender == chairperson */\n      0xffffffffffffffffffffffffffffffffffffffff\n      and\n        /* \"contracts/Voting.sol\":754:764  msg.sender */\n      caller\n        /* \"contracts/Voting.sol\":754:779  msg.sender == chairperson */\n      0xffffffffffffffffffffffffffffffffffffffff\n      and\n      eq\n        /* \"contracts/Voting.sol\":746:825  require(msg.sender == chairperson, \r... */\n      tag_54\n      jumpi\n      mload(0x40)\n      0x08c379a000000000000000000000000000000000000000000000000000000000\n      dup2\n      mstore\n      0x04\n      add\n      tag_55\n      swap1\n      tag_56\n      jump\t// in\n    tag_55:\n      mload(0x40)\n      dup1\n      swap2\n      sub\n      swap1\n      revert\n    tag_54:\n        /* \"contracts/Voting.sol\":1660:1675  _proposalsNames */\n      dup1\n        /* \"contracts/Voting.sol\":1660:1682  _proposalsNames.length */\n      mload\n        /* \"contracts/Voting.sol\":1635:1649  _proposalsAddr */\n      dup3\n        /* \"contracts/Voting.sol\":1635:1656  _proposalsAddr.length */\n      mload\n        /* \"contracts/Voting.sol\":1635:1682  _proposalsAddr.length == _proposalsNames.length */\n      eq\n        /* \"contracts/Voting.sol\":1627:1707  require(_proposalsAddr.length == _proposalsNames.length, \"Length is different.\") */\n      tag_58\n      jumpi\n      mload(0x40)\n      0x08c379a000000000000000000000000000000000000000000000000000000000\n      dup2\n      mstore\n      0x04\n      add\n      tag_59\n      swap1\n      tag_60\n      jump\t// in\n    tag_59:\n      mload(0x40)\n      dup1\n      swap2\n      sub\n      swap1\n      revert\n    tag_58:\n        /* \"contracts/Voting.sol\":1725:1731  uint i */\n      0x00\n        /* \"contracts/Voting.sol\":1720:2086  for (uint i = 0; i < _proposalsAddr.length; i++) {\r... */\n    tag_61:\n        /* \"contracts/Voting.sol\":1741:1755  _proposalsAddr */\n      dup3\n        /* \"contracts/Voting.sol\":1741:1762  _proposalsAddr.length */\n      mload\n        /* \"contracts/Voting.sol\":1737:1738  i */\n      dup2\n        /* \"contracts/Voting.sol\":1737:1762  i < _proposalsAddr.length */\n      lt\n        /* \"contracts/Voting.sol\":1720:2086  for (uint i = 0; i < _proposalsAddr.length; i++) {\r... */\n      iszero\n      tag_62\n      jumpi\n        /* \"contracts/Voting.sol\":1806:1820  _proposalsAddr */\n      dup3\n        /* \"contracts/Voting.sol\":1821:1822  i */\n      dup2\n        /* \"contracts/Voting.sol\":1806:1823  _proposalsAddr[i] */\n      dup2\n      mload\n      dup2\n      lt\n      tag_64\n      jumpi\n      tag_65\n      tag_66\n      jump\t// in\n    tag_65:\n    tag_64:\n      0x20\n      mul\n      0x20\n      add\n      add\n      mload\n        /* \"contracts/Voting.sol\":1792:1823  msg.sender != _proposalsAddr[i] */\n      0xffffffffffffffffffffffffffffffffffffffff\n      and\n        /* \"contracts/Voting.sol\":1792:1802  msg.sender */\n      caller\n        /* \"contracts/Voting.sol\":1792:1823  msg.sender != _proposalsAddr[i] */\n      0xffffffffffffffffffffffffffffffffffffffff\n      and\n      eq\n      iszero\n        /* \"contracts/Voting.sol\":1784:1858  require(msg.sender != _proposalsAddr[i], \"Chairperson can't be proposal.\") */\n      tag_67\n      jumpi\n      mload(0x40)\n      0x08c379a000000000000000000000000000000000000000000000000000000000\n      dup2\n      mstore\n      0x04\n      add\n      tag_68\n      swap1\n      tag_69\n      jump\t// in\n    tag_68:\n      mload(0x40)\n      dup1\n      swap2\n      sub\n      swap1\n      revert\n    tag_67:\n        /* \"contracts/Voting.sol\":1882:1893  votersExist */\n      0x04\n        /* \"contracts/Voting.sol\":1882:1912  votersExist[_proposalsAddr[i]] */\n      0x00\n        /* \"contracts/Voting.sol\":1894:1908  _proposalsAddr */\n      dup5\n        /* \"contracts/Voting.sol\":1909:1910  i */\n      dup4\n        /* \"contracts/Voting.sol\":1894:1911  _proposalsAddr[i] */\n      dup2\n      mload\n      dup2\n      lt\n      tag_70\n      jumpi\n      tag_71\n      tag_66\n      jump\t// in\n    tag_71:\n    tag_70:\n      0x20\n      mul\n      0x20\n      add\n      add\n      mload\n        /* \"contracts/Voting.sol\":1882:1912  votersExist[_proposalsAddr[i]] */\n      0xffffffffffffffffffffffffffffffffffffffff\n      and\n      0xffffffffffffffffffffffffffffffffffffffff\n      and\n      dup2\n      mstore\n      0x20\n      add\n      swap1\n      dup2\n      mstore\n      0x20\n      add\n      0x00\n      keccak256\n      0x00\n      swap1\n      sload\n      swap1\n      0x0100\n      exp\n      swap1\n      div\n      0xff\n      and\n        /* \"contracts/Voting.sol\":1881:1912  !votersExist[_proposalsAddr[i]] */\n      iszero\n        /* \"contracts/Voting.sol\":1873:1941  require(!votersExist[_proposalsAddr[i]], \"Voter can't be proposal.\") */\n      tag_72\n      jumpi\n      mload(0x40)\n      0x08c379a000000000000000000000000000000000000000000000000000000000\n      dup2\n      mstore\n      0x04\n      add\n      tag_73\n      swap1\n      tag_74\n      jump\t// in\n    tag_73:\n      mload(0x40)\n      dup1\n      swap2\n      sub\n      swap1\n      revert\n    tag_72:\n        /* \"contracts/Voting.sol\":2001:2016  _proposalsNames */\n      dup2\n        /* \"contracts/Voting.sol\":2017:2018  i */\n      dup2\n        /* \"contracts/Voting.sol\":2001:2019  _proposalsNames[i] */\n      dup2\n      mload\n      dup2\n      lt\n      tag_75\n      jumpi\n      tag_76\n      tag_66\n      jump\t// in\n    tag_76:\n    tag_75:\n      0x20\n      mul\n      0x20\n      add\n      add\n      mload\n        /* \"contracts/Voting.sol\":1970:1979  proposals */\n      0x05\n        /* \"contracts/Voting.sol\":1970:1998  proposals[_proposalsAddr[i]] */\n      0x00\n        /* \"contracts/Voting.sol\":1980:1994  _proposalsAddr */\n      dup6\n        /* \"contracts/Voting.sol\":1995:1996  i */\n      dup5\n        /* \"contracts/Voting.sol\":1980:1997  _proposalsAddr[i] */\n      dup2\n      mload\n      dup2\n      lt\n      tag_77\n      jumpi\n      tag_78\n      tag_66\n      jump\t// in\n    tag_78:\n    tag_77:\n      0x20\n      mul\n      0x20\n      add\n      add\n      mload\n        /* \"contracts/Voting.sol\":1970:1998  proposals[_proposalsAddr[i]] */\n      0xffffffffffffffffffffffffffffffffffffffff\n      and\n      0xffffffffffffffffffffffffffffffffffffffff\n      and\n      dup2\n      mstore\n      0x20\n      add\n      swap1\n      dup2\n      mstore\n      0x20\n      add\n      0x00\n      keccak256\n        /* \"contracts/Voting.sol\":1970:2019  proposals[_proposalsAddr[i]] = _proposalsNames[i] */\n      swap1\n      dup1\n      mload\n      swap1\n      0x20\n      add\n      swap1\n      tag_79\n      swap3\n      swap2\n      swap1\n      tag_80\n      jump\t// in\n    tag_79:\n      pop\n        /* \"contracts/Voting.sol\":2070:2074  true */\n      0x01\n        /* \"contracts/Voting.sol\":2034:2048  proposalsExist */\n      0x06\n        /* \"contracts/Voting.sol\":2034:2067  proposalsExist[_proposalsAddr[i]] */\n      0x00\n        /* \"contracts/Voting.sol\":2049:2063  _proposalsAddr */\n      dup6\n        /* \"contracts/Voting.sol\":2064:2065  i */\n      dup5\n        /* \"contracts/Voting.sol\":2049:2066  _proposalsAddr[i] */\n      dup2\n      mload\n      dup2\n      lt\n      tag_81\n      jumpi\n      tag_82\n      tag_66\n      jump\t// in\n    tag_82:\n    tag_81:\n      0x20\n      mul\n      0x20\n      add\n      add\n      mload\n        /* \"contracts/Voting.sol\":2034:2067  proposalsExist[_proposalsAddr[i]] */\n      0xffffffffffffffffffffffffffffffffffffffff\n      and\n      0xffffffffffffffffffffffffffffffffffffffff\n      and\n      dup2\n      mstore\n      0x20\n      add\n      swap1\n      dup2\n      mstore\n      0x20\n      add\n      0x00\n      keccak256\n      0x00\n        /* \"contracts/Voting.sol\":2034:2074  proposalsExist[_proposalsAddr[i]] = true */\n      0x0100\n      exp\n      dup2\n      sload\n      dup2\n      0xff\n      mul\n      not\n      and\n      swap1\n      dup4\n      iszero\n      iszero\n      mul\n      or\n      swap1\n      sstore\n      pop\n        /* \"contracts/Voting.sol\":1764:1767  i++ */\n      dup1\n      dup1\n      tag_83\n      swap1\n      tag_84\n      jump\t// in\n    tag_83:\n      swap2\n      pop\n      pop\n        /* \"contracts/Voting.sol\":1720:2086  for (uint i = 0; i < _proposalsAddr.length; i++) {\r... */\n      jump(tag_61)\n    tag_62:\n      pop\n        /* \"contracts/Voting.sol\":1477:2093  function addProposals(address[] memory _proposalsAddr, \r... */\n      pop\n      pop\n      jump\t// out\n        /* \"contracts/Voting.sol\":2101:2613  function vote(address proposal) public voteIsOn {\r... */\n    tag_25:\n        /* \"contracts/Voting.sol\":911:920  startTime */\n      sload(0x01)\n        /* \"contracts/Voting.sol\":892:907  block.timestamp */\n      timestamp\n        /* \"contracts/Voting.sol\":892:920  block.timestamp >= startTime */\n      lt\n      iszero\n        /* \"contracts/Voting.sol\":892:950  block.timestamp >= startTime && block.timestamp <= endTime */\n      dup1\n      iszero\n      tag_86\n      jumpi\n      pop\n        /* \"contracts/Voting.sol\":943:950  endTime */\n      sload(0x02)\n        /* \"contracts/Voting.sol\":924:939  block.timestamp */\n      timestamp\n        /* \"contracts/Voting.sol\":924:950  block.timestamp <= endTime */\n      gt\n      iszero\n        /* \"contracts/Voting.sol\":892:950  block.timestamp >= startTime && block.timestamp <= endTime */\n    tag_86:\n        /* \"contracts/Voting.sol\":884:990  require(block.timestamp >= startTime && block.timestamp <= endTime, \r... */\n      tag_87\n      jumpi\n      mload(0x40)\n      0x08c379a000000000000000000000000000000000000000000000000000000000\n      dup2\n      mstore\n      0x04\n      add\n      tag_88\n      swap1\n      tag_89\n      jump\t// in\n    tag_88:\n      mload(0x40)\n      dup1\n      swap2\n      sub\n      swap1\n      revert\n    tag_87:\n        /* \"contracts/Voting.sol\":2198:2199  0 */\n      0x00\n        /* \"contracts/Voting.sol\":2168:2173  token */\n      0x08\n      0x00\n      swap1\n      sload\n      swap1\n      0x0100\n      exp\n      swap1\n      div\n      0xffffffffffffffffffffffffffffffffffffffff\n      and\n        /* \"contracts/Voting.sol\":2168:2183  token.balanceOf */\n      0xffffffffffffffffffffffffffffffffffffffff\n      and\n      0x70a08231\n        /* \"contracts/Voting.sol\":2184:2194  msg.sender */\n      caller\n        /* \"contracts/Voting.sol\":2168:2195  token.balanceOf(msg.sender) */\n      mload(0x40)\n      dup3\n      0xffffffff\n      and\n      0xe0\n      shl\n      dup2\n      mstore\n      0x04\n      add\n      tag_91\n      swap2\n      swap1\n      tag_47\n      jump\t// in\n    tag_91:\n      0x20\n      mload(0x40)\n      dup1\n      dup4\n      sub\n      dup2\n      dup7\n      dup1\n      extcodesize\n      iszero\n      dup1\n      iszero\n      tag_92\n      jumpi\n      0x00\n      dup1\n      revert\n    tag_92:\n      pop\n      gas\n      staticcall\n      iszero\n      dup1\n      iszero\n      tag_94\n      jumpi\n      returndatasize\n      0x00\n      dup1\n      returndatacopy\n      revert(0x00, returndatasize)\n    tag_94:\n      pop\n      pop\n      pop\n      pop\n      mload(0x40)\n      returndatasize\n      not(0x1f)\n      0x1f\n      dup3\n      add\n      and\n      dup3\n      add\n      dup1\n      0x40\n      mstore\n      pop\n      dup2\n      add\n      swap1\n      tag_95\n      swap2\n      swap1\n      tag_52\n      jump\t// in\n    tag_95:\n        /* \"contracts/Voting.sol\":2168:2199  token.balanceOf(msg.sender) > 0 */\n      gt\n        /* \"contracts/Voting.sol\":2160:2224  require(token.balanceOf(msg.sender) > 0, \"Token doesn't exist.\") */\n      tag_96\n      jumpi\n      mload(0x40)\n      0x08c379a000000000000000000000000000000000000000000000000000000000\n      dup2\n      mstore\n      0x04\n      add\n      tag_97\n      swap1\n      tag_98\n      jump\t// in\n    tag_97:\n      mload(0x40)\n      dup1\n      swap2\n      sub\n      swap1\n      revert\n    tag_96:\n        /* \"contracts/Voting.sol\":2243:2254  votersExist */\n      0x04\n        /* \"contracts/Voting.sol\":2243:2266  votersExist[msg.sender] */\n      0x00\n        /* \"contracts/Voting.sol\":2255:2265  msg.sender */\n      caller\n        /* \"contracts/Voting.sol\":2243:2266  votersExist[msg.sender] */\n      0xffffffffffffffffffffffffffffffffffffffff\n      and\n      0xffffffffffffffffffffffffffffffffffffffff\n      and\n      dup2\n      mstore\n      0x20\n      add\n      swap1\n      dup2\n      mstore\n      0x20\n      add\n      0x00\n      keccak256\n      0x00\n      swap1\n      sload\n      swap1\n      0x0100\n      exp\n      swap1\n      div\n      0xff\n      and\n        /* \"contracts/Voting.sol\":2235:2291  require(votersExist[msg.sender], \"Voter doesn't exist.\") */\n      tag_99\n      jumpi\n      mload(0x40)\n      0x08c379a000000000000000000000000000000000000000000000000000000000\n      dup2\n      mstore\n      0x04\n      add\n      tag_100\n      swap1\n      tag_101\n      jump\t// in\n    tag_100:\n      mload(0x40)\n      dup1\n      swap2\n      sub\n      swap1\n      revert\n    tag_99:\n        /* \"contracts/Voting.sol\":2310:2324  proposalsExist */\n      0x06\n        /* \"contracts/Voting.sol\":2310:2334  proposalsExist[proposal] */\n      0x00\n        /* \"contracts/Voting.sol\":2325:2333  proposal */\n      dup3\n        /* \"contracts/Voting.sol\":2310:2334  proposalsExist[proposal] */\n      0xffffffffffffffffffffffffffffffffffffffff\n      and\n      0xffffffffffffffffffffffffffffffffffffffff\n      and\n      dup2\n      mstore\n      0x20\n      add\n      swap1\n      dup2\n      mstore\n      0x20\n      add\n      0x00\n      keccak256\n      0x00\n      swap1\n      sload\n      swap1\n      0x0100\n      exp\n      swap1\n      div\n      0xff\n      and\n        /* \"contracts/Voting.sol\":2302:2362  require(proposalsExist[proposal], \"Proposal doesn't exist.\") */\n      tag_102\n      jumpi\n      mload(0x40)\n      0x08c379a000000000000000000000000000000000000000000000000000000000\n      dup2\n      mstore\n      0x04\n      add\n      tag_103\n      swap1\n      tag_33\n      jump\t// in\n    tag_103:\n      mload(0x40)\n      dup1\n      swap2\n      sub\n      swap1\n      revert\n    tag_102:\n        /* \"contracts/Voting.sol\":2382:2388  voters */\n      0x03\n        /* \"contracts/Voting.sol\":2382:2400  voters[msg.sender] */\n      0x00\n        /* \"contracts/Voting.sol\":2389:2399  msg.sender */\n      caller\n        /* \"contracts/Voting.sol\":2382:2400  voters[msg.sender] */\n      0xffffffffffffffffffffffffffffffffffffffff\n      and\n      0xffffffffffffffffffffffffffffffffffffffff\n      and\n      dup2\n      mstore\n      0x20\n      add\n      swap1\n      dup2\n      mstore\n      0x20\n      add\n      0x00\n      keccak256\n      0x00\n      swap1\n      sload\n      swap1\n      0x0100\n      exp\n      swap1\n      div\n      0xff\n      and\n        /* \"contracts/Voting.sol\":2381:2400  !voters[msg.sender] */\n      iszero\n        /* \"contracts/Voting.sol\":2373:2425  require(!voters[msg.sender], \"Voter already voted.\") */\n      tag_104\n      jumpi\n      mload(0x40)\n      0x08c379a000000000000000000000000000000000000000000000000000000000\n      dup2\n      mstore\n      0x04\n      add\n      tag_105\n      swap1\n      tag_106\n      jump\t// in\n    tag_105:\n      mload(0x40)\n      dup1\n      swap2\n      sub\n      swap1\n      revert\n    tag_104:\n        /* \"contracts/Voting.sol\":2445:2456  votersExist */\n      0x04\n        /* \"contracts/Voting.sol\":2445:2466  votersExist[proposal] */\n      0x00\n        /* \"contracts/Voting.sol\":2457:2465  proposal */\n      dup3\n        /* \"contracts/Voting.sol\":2445:2466  votersExist[proposal] */\n      0xffffffffffffffffffffffffffffffffffffffff\n      and\n      0xffffffffffffffffffffffffffffffffffffffff\n      and\n      dup2\n      mstore\n      0x20\n      add\n      swap1\n      dup2\n      mstore\n      0x20\n      add\n      0x00\n      keccak256\n      0x00\n      swap1\n      sload\n      swap1\n      0x0100\n      exp\n      swap1\n      div\n      0xff\n      and\n        /* \"contracts/Voting.sol\":2444:2466  !votersExist[proposal] */\n      iszero\n        /* \"contracts/Voting.sol\":2436:2495  require(!votersExist[proposal], \"Voter can't be proposal.\") */\n      tag_107\n      jumpi\n      mload(0x40)\n      0x08c379a000000000000000000000000000000000000000000000000000000000\n      dup2\n      mstore\n      0x04\n      add\n      tag_108\n      swap1\n      tag_74\n      jump\t// in\n    tag_108:\n      mload(0x40)\n      dup1\n      swap2\n      sub\n      swap1\n      revert\n    tag_107:\n        /* \"contracts/Voting.sol\":2516:2521  token */\n      0x08\n      0x00\n      swap1\n      sload\n      swap1\n      0x0100\n      exp\n      swap1\n      div\n      0xffffffffffffffffffffffffffffffffffffffff\n      and\n        /* \"contracts/Voting.sol\":2516:2530  token.transfer */\n      0xffffffffffffffffffffffffffffffffffffffff\n      and\n      0xa9059cbb\n        /* \"contracts/Voting.sol\":2531:2539  proposal */\n      dup3\n        /* \"contracts/Voting.sol\":2541:2546  token */\n      0x08\n      0x00\n      swap1\n      sload\n      swap1\n      0x0100\n      exp\n      swap1\n      div\n      0xffffffffffffffffffffffffffffffffffffffff\n      and\n        /* \"contracts/Voting.sol\":2541:2556  token.balanceOf */\n      0xffffffffffffffffffffffffffffffffffffffff\n      and\n      0x70a08231\n        /* \"contracts/Voting.sol\":2557:2567  msg.sender */\n      caller\n        /* \"contracts/Voting.sol\":2541:2568  token.balanceOf(msg.sender) */\n      mload(0x40)\n      dup3\n      0xffffffff\n      and\n      0xe0\n      shl\n      dup2\n      mstore\n      0x04\n      add\n      tag_109\n      swap2\n      swap1\n      tag_47\n      jump\t// in\n    tag_109:\n      0x20\n      mload(0x40)\n      dup1\n      dup4\n      sub\n      dup2\n      dup7\n      dup1\n      extcodesize\n      iszero\n      dup1\n      iszero\n      tag_110\n      jumpi\n      0x00\n      dup1\n      revert\n    tag_110:\n      pop\n      gas\n      staticcall\n      iszero\n      dup1\n      iszero\n      tag_112\n      jumpi\n      returndatasize\n      0x00\n      dup1\n      returndatacopy\n      revert(0x00, returndatasize)\n    tag_112:\n      pop\n      pop\n      pop\n      pop\n      mload(0x40)\n      returndatasize\n      not(0x1f)\n      0x1f\n      dup3\n      add\n      and\n      dup3\n      add\n      dup1\n      0x40\n      mstore\n      pop\n      dup2\n      add\n      swap1\n      tag_113\n      swap2\n      swap1\n      tag_52\n      jump\t// in\n    tag_113:\n        /* \"contracts/Voting.sol\":2516:2569  token.transfer(proposal, token.balanceOf(msg.sender)) */\n      mload(0x40)\n      dup4\n      0xffffffff\n      and\n      0xe0\n      shl\n      dup2\n      mstore\n      0x04\n      add\n      tag_114\n      swap3\n      swap2\n      swap1\n      tag_115\n      jump\t// in\n    tag_114:\n      0x00\n      mload(0x40)\n      dup1\n      dup4\n      sub\n      dup2\n      0x00\n      dup8\n      dup1\n      extcodesize\n      iszero\n      dup1\n      iszero\n      tag_116\n      jumpi\n      0x00\n      dup1\n      revert\n    tag_116:\n      pop\n      gas\n      call\n      iszero\n      dup1\n      iszero\n      tag_118\n      jumpi\n      returndatasize\n      0x00\n      dup1\n      returndatacopy\n      revert(0x00, returndatasize)\n    tag_118:\n      pop\n      pop\n      pop\n      pop\n        /* \"contracts/Voting.sol\":2601:2605  true */\n      0x01\n        /* \"contracts/Voting.sol\":2580:2586  voters */\n      0x03\n        /* \"contracts/Voting.sol\":2580:2598  voters[msg.sender] */\n      0x00\n        /* \"contracts/Voting.sol\":2587:2597  msg.sender */\n      caller\n        /* \"contracts/Voting.sol\":2580:2598  voters[msg.sender] */\n      0xffffffffffffffffffffffffffffffffffffffff\n      and\n      0xffffffffffffffffffffffffffffffffffffffff\n      and\n      dup2\n      mstore\n      0x20\n      add\n      swap1\n      dup2\n      mstore\n      0x20\n      add\n      0x00\n      keccak256\n      0x00\n        /* \"contracts/Voting.sol\":2580:2605  voters[msg.sender] = true */\n      0x0100\n      exp\n      dup2\n      sload\n      dup2\n      0xff\n      mul\n      not\n      and\n      swap1\n      dup4\n      iszero\n      iszero\n      mul\n      or\n      swap1\n      sstore\n      pop\n        /* \"contracts/Voting.sol\":2101:2613  function vote(address proposal) public voteIsOn {\r... */\n      pop\n      jump\t// out\n        /* \"contracts/Voting.sol\":1018:1469  function addVoters(address[] memory _voters) public onlyChairperson {\r... */\n    tag_29:\n        /* \"contracts/Voting.sol\":768:779  chairperson */\n      0x07\n      0x00\n      swap1\n      sload\n      swap1\n      0x0100\n      exp\n      swap1\n      div\n      0xffffffffffffffffffffffffffffffffffffffff\n      and\n        /* \"contracts/Voting.sol\":754:779  msg.sender == chairperson */\n      0xffffffffffffffffffffffffffffffffffffffff\n      and\n        /* \"contracts/Voting.sol\":754:764  msg.sender */\n      caller\n        /* \"contracts/Voting.sol\":754:779  msg.sender == chairperson */\n      0xffffffffffffffffffffffffffffffffffffffff\n      and\n      eq\n        /* \"contracts/Voting.sol\":746:825  require(msg.sender == chairperson, \r... */\n      tag_120\n      jumpi\n      mload(0x40)\n      0x08c379a000000000000000000000000000000000000000000000000000000000\n      dup2\n      mstore\n      0x04\n      add\n      tag_121\n      swap1\n      tag_56\n      jump\t// in\n    tag_121:\n      mload(0x40)\n      dup1\n      swap2\n      sub\n      swap1\n      revert\n    tag_120:\n        /* \"contracts/Voting.sol\":1102:1108  uint i */\n      0x00\n        /* \"contracts/Voting.sol\":1097:1359  for (uint i = 0; i < _voters.length; i++) {\r... */\n    tag_123:\n        /* \"contracts/Voting.sol\":1118:1125  _voters */\n      dup2\n        /* \"contracts/Voting.sol\":1118:1132  _voters.length */\n      mload\n        /* \"contracts/Voting.sol\":1114:1115  i */\n      dup2\n        /* \"contracts/Voting.sol\":1114:1132  i < _voters.length */\n      lt\n        /* \"contracts/Voting.sol\":1097:1359  for (uint i = 0; i < _voters.length; i++) {\r... */\n      iszero\n      tag_124\n      jumpi\n        /* \"contracts/Voting.sol\":1163:1177  proposalsExist */\n      0x06\n        /* \"contracts/Voting.sol\":1163:1189  proposalsExist[_voters[i]] */\n      0x00\n        /* \"contracts/Voting.sol\":1178:1185  _voters */\n      dup4\n        /* \"contracts/Voting.sol\":1186:1187  i */\n      dup4\n        /* \"contracts/Voting.sol\":1178:1188  _voters[i] */\n      dup2\n      mload\n      dup2\n      lt\n      tag_126\n      jumpi\n      tag_127\n      tag_66\n      jump\t// in\n    tag_127:\n    tag_126:\n      0x20\n      mul\n      0x20\n      add\n      add\n      mload\n        /* \"contracts/Voting.sol\":1163:1189  proposalsExist[_voters[i]] */\n      0xffffffffffffffffffffffffffffffffffffffff\n      and\n      0xffffffffffffffffffffffffffffffffffffffff\n      and\n      dup2\n      mstore\n      0x20\n      add\n      swap1\n      dup2\n      mstore\n      0x20\n      add\n      0x00\n      keccak256\n      0x00\n      swap1\n      sload\n      swap1\n      0x0100\n      exp\n      swap1\n      div\n      0xff\n      and\n        /* \"contracts/Voting.sol\":1162:1189  !proposalsExist[_voters[i]] */\n      iszero\n        /* \"contracts/Voting.sol\":1154:1218  require(!proposalsExist[_voters[i]], \"Proposal can't be voter.\") */\n      tag_128\n      jumpi\n      mload(0x40)\n      0x08c379a000000000000000000000000000000000000000000000000000000000\n      dup2\n      mstore\n      0x04\n      add\n      tag_129\n      swap1\n      tag_130\n      jump\t// in\n    tag_129:\n      mload(0x40)\n      dup1\n      swap2\n      sub\n      swap1\n      revert\n    tag_128:\n        /* \"contracts/Voting.sol\":1256:1261  false */\n      0x00\n        /* \"contracts/Voting.sol\":1235:1241  voters */\n      0x03\n        /* \"contracts/Voting.sol\":1235:1253  voters[_voters[i]] */\n      0x00\n        /* \"contracts/Voting.sol\":1242:1249  _voters */\n      dup5\n        /* \"contracts/Voting.sol\":1250:1251  i */\n      dup5\n        /* \"contracts/Voting.sol\":1242:1252  _voters[i] */\n      dup2\n      mload\n      dup2\n      lt\n      tag_131\n      jumpi\n      tag_132\n      tag_66\n      jump\t// in\n    tag_132:\n    tag_131:\n      0x20\n      mul\n      0x20\n      add\n      add\n      mload\n        /* \"contracts/Voting.sol\":1235:1253  voters[_voters[i]] */\n      0xffffffffffffffffffffffffffffffffffffffff\n      and\n      0xffffffffffffffffffffffffffffffffffffffff\n      and\n      dup2\n      mstore\n      0x20\n      add\n      swap1\n      dup2\n      mstore\n      0x20\n      add\n      0x00\n      keccak256\n      0x00\n        /* \"contracts/Voting.sol\":1235:1261  voters[_voters[i]] = false */\n      0x0100\n      exp\n      dup2\n      sload\n      dup2\n      0xff\n      mul\n      not\n      and\n      swap1\n      dup4\n      iszero\n      iszero\n      mul\n      or\n      swap1\n      sstore\n      pop\n        /* \"contracts/Voting.sol\":1302:1306  true */\n      0x01\n        /* \"contracts/Voting.sol\":1276:1287  votersExist */\n      0x04\n        /* \"contracts/Voting.sol\":1276:1299  votersExist[_voters[i]] */\n      0x00\n        /* \"contracts/Voting.sol\":1288:1295  _voters */\n      dup5\n        /* \"contracts/Voting.sol\":1296:1297  i */\n      dup5\n        /* \"contracts/Voting.sol\":1288:1298  _voters[i] */\n      dup2\n      mload\n      dup2\n      lt\n      tag_133\n      jumpi\n      tag_134\n      tag_66\n      jump\t// in\n    tag_134:\n    tag_133:\n      0x20\n      mul\n      0x20\n      add\n      add\n      mload\n        /* \"contracts/Voting.sol\":1276:1299  votersExist[_voters[i]] */\n      0xffffffffffffffffffffffffffffffffffffffff\n      and\n      0xffffffffffffffffffffffffffffffffffffffff\n      and\n      dup2\n      mstore\n      0x20\n      add\n      swap1\n      dup2\n      mstore\n      0x20\n      add\n      0x00\n      keccak256\n      0x00\n        /* \"contracts/Voting.sol\":1276:1306  votersExist[_voters[i]] = true */\n      0x0100\n      exp\n      dup2\n      sload\n      dup2\n      0xff\n      mul\n      not\n      and\n      swap1\n      dup4\n      iszero\n      iszero\n      mul\n      or\n      swap1\n      sstore\n      pop\n        /* \"contracts/Voting.sol\":1321:1326  token */\n      0x08\n      0x00\n      swap1\n      sload\n      swap1\n      0x0100\n      exp\n      swap1\n      div\n      0xffffffffffffffffffffffffffffffffffffffff\n      and\n        /* \"contracts/Voting.sol\":1321:1331  token.mint */\n      0xffffffffffffffffffffffffffffffffffffffff\n      and\n      0x40c10f19\n        /* \"contracts/Voting.sol\":1332:1339  _voters */\n      dup4\n        /* \"contracts/Voting.sol\":1340:1341  i */\n      dup4\n        /* \"contracts/Voting.sol\":1332:1342  _voters[i] */\n      dup2\n      mload\n      dup2\n      lt\n      tag_135\n      jumpi\n      tag_136\n      tag_66\n      jump\t// in\n    tag_136:\n    tag_135:\n      0x20\n      mul\n      0x20\n      add\n      add\n      mload\n        /* \"contracts/Voting.sol\":1344:1345  1 */\n      0x01\n        /* \"contracts/Voting.sol\":1321:1346  token.mint(_voters[i], 1) */\n      mload(0x40)\n      dup4\n      0xffffffff\n      and\n      0xe0\n      shl\n      dup2\n      mstore\n      0x04\n      add\n      tag_137\n      swap3\n      swap2\n      swap1\n      tag_138\n      jump\t// in\n    tag_137:\n      0x00\n      mload(0x40)\n      dup1\n      dup4\n      sub\n      dup2\n      0x00\n      dup8\n      dup1\n      extcodesize\n      iszero\n      dup1\n      iszero\n      tag_139\n      jumpi\n      0x00\n      dup1\n      revert\n    tag_139:\n      pop\n      gas\n      call\n      iszero\n      dup1\n      iszero\n      tag_141\n      jumpi\n      returndatasize\n      0x00\n      dup1\n      returndatacopy\n      revert(0x00, returndatasize)\n    tag_141:\n      pop\n      pop\n      pop\n      pop\n        /* \"contracts/Voting.sol\":1134:1137  i++ */\n      dup1\n      dup1\n      tag_142\n      swap1\n      tag_84\n      jump\t// in\n    tag_142:\n      swap2\n      pop\n      pop\n        /* \"contracts/Voting.sol\":1097:1359  for (uint i = 0; i < _voters.length; i++) {\r... */\n      jump(tag_123)\n    tag_124:\n      pop\n        /* \"contracts/Voting.sol\":1405:1406  0 */\n      0x00\n        /* \"contracts/Voting.sol\":1373:1378  token */\n      0x08\n      0x00\n      swap1\n      sload\n      swap1\n      0x0100\n      exp\n      swap1\n      div\n      0xffffffffffffffffffffffffffffffffffffffff\n      and\n        /* \"contracts/Voting.sol\":1373:1388  token.balanceOf */\n      0xffffffffffffffffffffffffffffffffffffffff\n      and\n      0x70a08231\n        /* \"contracts/Voting.sol\":1389:1400  chairperson */\n      0x07\n      0x00\n      swap1\n      sload\n      swap1\n      0x0100\n      exp\n      swap1\n      div\n      0xffffffffffffffffffffffffffffffffffffffff\n      and\n        /* \"contracts/Voting.sol\":1373:1401  token.balanceOf(chairperson) */\n      mload(0x40)\n      dup3\n      0xffffffff\n      and\n      0xe0\n      shl\n      dup2\n      mstore\n      0x04\n      add\n      tag_143\n      swap2\n      swap1\n      tag_47\n      jump\t// in\n    tag_143:\n      0x20\n      mload(0x40)\n      dup1\n      dup4\n      sub\n      dup2\n      dup7\n      dup1\n      extcodesize\n      iszero\n      dup1\n      iszero\n      tag_144\n      jumpi\n      0x00\n      dup1\n      revert\n    tag_144:\n      pop\n      gas\n      staticcall\n      iszero\n      dup1\n      iszero\n      tag_146\n      jumpi\n      returndatasize\n      0x00\n      dup1\n      returndatacopy\n      revert(0x00, returndatasize)\n    tag_146:\n      pop\n      pop\n      pop\n      pop\n      mload(0x40)\n      returndatasize\n      not(0x1f)\n      0x1f\n      dup3\n      add\n      and\n      dup3\n      add\n      dup1\n      0x40\n      mstore\n      pop\n      dup2\n      add\n      swap1\n      tag_147\n      swap2\n      swap1\n      tag_52\n      jump\t// in\n    tag_147:\n        /* \"contracts/Voting.sol\":1373:1406  token.balanceOf(chairperson) == 0 */\n      eq\n        /* \"contracts/Voting.sol\":1369:1462  if (token.balanceOf(chairperson) == 0) {\r... */\n      iszero\n      tag_148\n      jumpi\n        /* \"contracts/Voting.sol\":1423:1428  token */\n      0x08\n      0x00\n      swap1\n      sload\n      swap1\n      0x0100\n      exp\n      swap1\n      div\n      0xffffffffffffffffffffffffffffffffffffffff\n      and\n        /* \"contracts/Voting.sol\":1423:1433  token.mint */\n      0xffffffffffffffffffffffffffffffffffffffff\n      and\n      0x40c10f19\n        /* \"contracts/Voting.sol\":1434:1445  chairperson */\n      0x07\n      0x00\n      swap1\n      sload\n      swap1\n      0x0100\n      exp\n      swap1\n      div\n      0xffffffffffffffffffffffffffffffffffffffff\n      and\n        /* \"contracts/Voting.sol\":1447:1448  1 */\n      0x01\n        /* \"contracts/Voting.sol\":1423:1449  token.mint(chairperson, 1) */\n      mload(0x40)\n      dup4\n      0xffffffff\n      and\n      0xe0\n      shl\n      dup2\n      mstore\n      0x04\n      add\n      tag_149\n      swap3\n      swap2\n      swap1\n      tag_138\n      jump\t// in\n    tag_149:\n      0x00\n      mload(0x40)\n      dup1\n      dup4\n      sub\n      dup2\n      0x00\n      dup8\n      dup1\n      extcodesize\n      iszero\n      dup1\n      iszero\n      tag_150\n      jumpi\n      0x00\n      dup1\n      revert\n    tag_150:\n      pop\n      gas\n      call\n      iszero\n      dup1\n      iszero\n      tag_152\n      jumpi\n      returndatasize\n      0x00\n      dup1\n      returndatacopy\n      revert(0x00, returndatasize)\n    tag_152:\n      pop\n      pop\n      pop\n      pop\n        /* \"contracts/Voting.sol\":1369:1462  if (token.balanceOf(chairperson) == 0) {\r... */\n    tag_148:\n        /* \"contracts/Voting.sol\":1018:1469  function addVoters(address[] memory _voters) public onlyChairperson {\r... */\n      pop\n      jump\t// out\n    tag_80:\n      dup3\n      dup1\n      sload\n      tag_153\n      swap1\n      tag_35\n      jump\t// in\n    tag_153:\n      swap1\n      0x00\n      mstore\n      keccak256(0x00, 0x20)\n      swap1\n      0x1f\n      add\n      0x20\n      swap1\n      div\n      dup2\n      add\n      swap3\n      dup3\n      tag_155\n      jumpi\n      0x00\n      dup6\n      sstore\n      jump(tag_154)\n    tag_155:\n      dup3\n      0x1f\n      lt\n      tag_156\n      jumpi\n      dup1\n      mload\n      not(0xff)\n      and\n      dup4\n      dup1\n      add\n      or\n      dup6\n      sstore\n      jump(tag_154)\n    tag_156:\n      dup3\n      dup1\n      add\n      0x01\n      add\n      dup6\n      sstore\n      dup3\n      iszero\n      tag_154\n      jumpi\n      swap2\n      dup3\n      add\n    tag_157:\n      dup3\n      dup2\n      gt\n      iszero\n      tag_158\n      jumpi\n      dup3\n      mload\n      dup3\n      sstore\n      swap2\n      0x20\n      add\n      swap2\n      swap1\n      0x01\n      add\n      swap1\n      jump(tag_157)\n    tag_158:\n    tag_154:\n      pop\n      swap1\n      pop\n      tag_159\n      swap2\n      swap1\n      tag_160\n      jump\t// in\n    tag_159:\n      pop\n      swap1\n      jump\t// out\n    tag_160:\n    tag_161:\n      dup1\n      dup3\n      gt\n      iszero\n      tag_162\n      jumpi\n      0x00\n      dup2\n      0x00\n      swap1\n      sstore\n      pop\n      0x01\n      add\n      jump(tag_161)\n    tag_162:\n      pop\n      swap1\n      jump\t// out\n        /* \"#utility.yul\":24:746   */\n    tag_164:\n        /* \"#utility.yul\":120:125   */\n      0x00\n        /* \"#utility.yul\":145:226   */\n      tag_166\n        /* \"#utility.yul\":161:225   */\n      tag_167\n        /* \"#utility.yul\":218:224   */\n      dup5\n        /* \"#utility.yul\":161:225   */\n      tag_168\n      jump\t// in\n    tag_167:\n        /* \"#utility.yul\":145:226   */\n      tag_169\n      jump\t// in\n    tag_166:\n        /* \"#utility.yul\":136:226   */\n      swap1\n      pop\n        /* \"#utility.yul\":246:251   */\n      dup1\n        /* \"#utility.yul\":275:281   */\n      dup4\n        /* \"#utility.yul\":268:273   */\n      dup3\n        /* \"#utility.yul\":261:282   */\n      mstore\n        /* \"#utility.yul\":309:313   */\n      0x20\n        /* \"#utility.yul\":302:307   */\n      dup3\n        /* \"#utility.yul\":298:314   */\n      add\n        /* \"#utility.yul\":291:314   */\n      swap1\n      pop\n        /* \"#utility.yul\":335:341   */\n      dup3\n        /* \"#utility.yul\":385:388   */\n      dup6\n        /* \"#utility.yul\":377:381   */\n      0x20\n        /* \"#utility.yul\":369:375   */\n      dup7\n        /* \"#utility.yul\":365:382   */\n      mul\n        /* \"#utility.yul\":360:363   */\n      dup3\n        /* \"#utility.yul\":356:383   */\n      add\n        /* \"#utility.yul\":353:389   */\n      gt\n        /* \"#utility.yul\":350:493   */\n      iszero\n      tag_170\n      jumpi\n        /* \"#utility.yul\":404:483   */\n      tag_171\n      tag_172\n      jump\t// in\n    tag_171:\n        /* \"#utility.yul\":350:493   */\n    tag_170:\n        /* \"#utility.yul\":517:518   */\n      0x00\n        /* \"#utility.yul\":502:740   */\n    tag_173:\n        /* \"#utility.yul\":527:533   */\n      dup6\n        /* \"#utility.yul\":524:525   */\n      dup2\n        /* \"#utility.yul\":521:534   */\n      lt\n        /* \"#utility.yul\":502:740   */\n      iszero\n      tag_175\n      jumpi\n        /* \"#utility.yul\":595:598   */\n      dup2\n        /* \"#utility.yul\":624:661   */\n      tag_176\n        /* \"#utility.yul\":657:660   */\n      dup9\n        /* \"#utility.yul\":645:655   */\n      dup3\n        /* \"#utility.yul\":624:661   */\n      tag_177\n      jump\t// in\n    tag_176:\n        /* \"#utility.yul\":619:622   */\n      dup5\n        /* \"#utility.yul\":612:662   */\n      mstore\n        /* \"#utility.yul\":691:695   */\n      0x20\n        /* \"#utility.yul\":686:689   */\n      dup5\n        /* \"#utility.yul\":682:696   */\n      add\n        /* \"#utility.yul\":675:696   */\n      swap4\n      pop\n        /* \"#utility.yul\":725:729   */\n      0x20\n        /* \"#utility.yul\":720:723   */\n      dup4\n        /* \"#utility.yul\":716:730   */\n      add\n        /* \"#utility.yul\":709:730   */\n      swap3\n      pop\n        /* \"#utility.yul\":562:740   */\n      pop\n        /* \"#utility.yul\":549:550   */\n      0x01\n        /* \"#utility.yul\":546:547   */\n      dup2\n        /* \"#utility.yul\":542:551   */\n      add\n        /* \"#utility.yul\":537:551   */\n      swap1\n      pop\n        /* \"#utility.yul\":502:740   */\n      jump(tag_173)\n    tag_175:\n        /* \"#utility.yul\":506:520   */\n      pop\n        /* \"#utility.yul\":126:746   */\n      pop\n      pop\n        /* \"#utility.yul\":24:746   */\n      swap4\n      swap3\n      pop\n      pop\n      pop\n      jump\t// out\n        /* \"#utility.yul\":768:1725   */\n    tag_178:\n        /* \"#utility.yul\":874:879   */\n      0x00\n        /* \"#utility.yul\":899:990   */\n      tag_180\n        /* \"#utility.yul\":915:989   */\n      tag_181\n        /* \"#utility.yul\":982:988   */\n      dup5\n        /* \"#utility.yul\":915:989   */\n      tag_182\n      jump\t// in\n    tag_181:\n        /* \"#utility.yul\":899:990   */\n      tag_169\n      jump\t// in\n    tag_180:\n        /* \"#utility.yul\":890:990   */\n      swap1\n      pop\n        /* \"#utility.yul\":1010:1015   */\n      dup1\n        /* \"#utility.yul\":1039:1045   */\n      dup4\n        /* \"#utility.yul\":1032:1037   */\n      dup3\n        /* \"#utility.yul\":1025:1046   */\n      mstore\n        /* \"#utility.yul\":1073:1077   */\n      0x20\n        /* \"#utility.yul\":1066:1071   */\n      dup3\n        /* \"#utility.yul\":1062:1078   */\n      add\n        /* \"#utility.yul\":1055:1078   */\n      swap1\n      pop\n        /* \"#utility.yul\":1099:1105   */\n      dup3\n        /* \"#utility.yul\":1149:1152   */\n      dup6\n        /* \"#utility.yul\":1141:1145   */\n      0x20\n        /* \"#utility.yul\":1133:1139   */\n      dup7\n        /* \"#utility.yul\":1129:1146   */\n      mul\n        /* \"#utility.yul\":1124:1127   */\n      dup3\n        /* \"#utility.yul\":1120:1147   */\n      add\n        /* \"#utility.yul\":1117:1153   */\n      gt\n        /* \"#utility.yul\":1114:1257   */\n      iszero\n      tag_183\n      jumpi\n        /* \"#utility.yul\":1168:1247   */\n      tag_184\n      tag_172\n      jump\t// in\n    tag_184:\n        /* \"#utility.yul\":1114:1257   */\n    tag_183:\n        /* \"#utility.yul\":1281:1282   */\n      0x00\n        /* \"#utility.yul\":1266:1719   */\n    tag_185:\n        /* \"#utility.yul\":1291:1297   */\n      dup6\n        /* \"#utility.yul\":1288:1289   */\n      dup2\n        /* \"#utility.yul\":1285:1298   */\n      lt\n        /* \"#utility.yul\":1266:1719   */\n      iszero\n      tag_187\n      jumpi\n        /* \"#utility.yul\":1373:1376   */\n      dup2\n        /* \"#utility.yul\":1360:1377   */\n      calldataload\n        /* \"#utility.yul\":1409:1427   */\n      0xffffffffffffffff\n        /* \"#utility.yul\":1396:1407   */\n      dup2\n        /* \"#utility.yul\":1393:1428   */\n      gt\n        /* \"#utility.yul\":1390:1512   */\n      iszero\n      tag_188\n      jumpi\n        /* \"#utility.yul\":1431:1510   */\n      tag_189\n      tag_190\n      jump\t// in\n    tag_189:\n        /* \"#utility.yul\":1390:1512   */\n    tag_188:\n        /* \"#utility.yul\":1555:1566   */\n      dup1\n        /* \"#utility.yul\":1547:1553   */\n      dup7\n        /* \"#utility.yul\":1543:1567   */\n      add\n        /* \"#utility.yul\":1593:1640   */\n      tag_191\n        /* \"#utility.yul\":1636:1639   */\n      dup10\n        /* \"#utility.yul\":1624:1634   */\n      dup3\n        /* \"#utility.yul\":1593:1640   */\n      tag_192\n      jump\t// in\n    tag_191:\n        /* \"#utility.yul\":1588:1591   */\n      dup6\n        /* \"#utility.yul\":1581:1641   */\n      mstore\n        /* \"#utility.yul\":1670:1674   */\n      0x20\n        /* \"#utility.yul\":1665:1668   */\n      dup6\n        /* \"#utility.yul\":1661:1675   */\n      add\n        /* \"#utility.yul\":1654:1675   */\n      swap5\n      pop\n        /* \"#utility.yul\":1704:1708   */\n      0x20\n        /* \"#utility.yul\":1699:1702   */\n      dup5\n        /* \"#utility.yul\":1695:1709   */\n      add\n        /* \"#utility.yul\":1688:1709   */\n      swap4\n      pop\n        /* \"#utility.yul\":1326:1719   */\n      pop\n      pop\n        /* \"#utility.yul\":1313:1314   */\n      0x01\n        /* \"#utility.yul\":1310:1311   */\n      dup2\n        /* \"#utility.yul\":1306:1315   */\n      add\n        /* \"#utility.yul\":1301:1315   */\n      swap1\n      pop\n        /* \"#utility.yul\":1266:1719   */\n      jump(tag_185)\n    tag_187:\n        /* \"#utility.yul\":1270:1284   */\n      pop\n        /* \"#utility.yul\":880:1725   */\n      pop\n      pop\n        /* \"#utility.yul\":768:1725   */\n      swap4\n      swap3\n      pop\n      pop\n      pop\n      jump\t// out\n        /* \"#utility.yul\":1731:2143   */\n    tag_193:\n        /* \"#utility.yul\":1809:1814   */\n      0x00\n        /* \"#utility.yul\":1834:1900   */\n      tag_195\n        /* \"#utility.yul\":1850:1899   */\n      tag_196\n        /* \"#utility.yul\":1892:1898   */\n      dup5\n        /* \"#utility.yul\":1850:1899   */\n      tag_197\n      jump\t// in\n    tag_196:\n        /* \"#utility.yul\":1834:1900   */\n      tag_169\n      jump\t// in\n    tag_195:\n        /* \"#utility.yul\":1825:1900   */\n      swap1\n      pop\n        /* \"#utility.yul\":1923:1929   */\n      dup3\n        /* \"#utility.yul\":1916:1921   */\n      dup2\n        /* \"#utility.yul\":1909:1930   */\n      mstore\n        /* \"#utility.yul\":1961:1965   */\n      0x20\n        /* \"#utility.yul\":1954:1959   */\n      dup2\n        /* \"#utility.yul\":1950:1966   */\n      add\n        /* \"#utility.yul\":1999:2002   */\n      dup5\n        /* \"#utility.yul\":1990:1996   */\n      dup5\n        /* \"#utility.yul\":1985:1988   */\n      dup5\n        /* \"#utility.yul\":1981:1997   */\n      add\n        /* \"#utility.yul\":1978:2003   */\n      gt\n        /* \"#utility.yul\":1975:2087   */\n      iszero\n      tag_198\n      jumpi\n        /* \"#utility.yul\":2006:2085   */\n      tag_199\n      tag_200\n      jump\t// in\n    tag_199:\n        /* \"#utility.yul\":1975:2087   */\n    tag_198:\n        /* \"#utility.yul\":2096:2137   */\n      tag_201\n        /* \"#utility.yul\":2130:2136   */\n      dup5\n        /* \"#utility.yul\":2125:2128   */\n      dup3\n        /* \"#utility.yul\":2120:2123   */\n      dup6\n        /* \"#utility.yul\":2096:2137   */\n      tag_202\n      jump\t// in\n    tag_201:\n        /* \"#utility.yul\":1815:2143   */\n      pop\n        /* \"#utility.yul\":1731:2143   */\n      swap4\n      swap3\n      pop\n      pop\n      pop\n      jump\t// out\n        /* \"#utility.yul\":2149:2288   */\n    tag_177:\n        /* \"#utility.yul\":2195:2200   */\n      0x00\n        /* \"#utility.yul\":2233:2239   */\n      dup2\n        /* \"#utility.yul\":2220:2240   */\n      calldataload\n        /* \"#utility.yul\":2211:2240   */\n      swap1\n      pop\n        /* \"#utility.yul\":2249:2282   */\n      tag_204\n        /* \"#utility.yul\":2276:2281   */\n      dup2\n        /* \"#utility.yul\":2249:2282   */\n      tag_205\n      jump\t// in\n    tag_204:\n        /* \"#utility.yul\":2149:2288   */\n      swap3\n      swap2\n      pop\n      pop\n      jump\t// out\n        /* \"#utility.yul\":2311:2681   */\n    tag_206:\n        /* \"#utility.yul\":2382:2387   */\n      0x00\n        /* \"#utility.yul\":2431:2434   */\n      dup3\n        /* \"#utility.yul\":2424:2428   */\n      0x1f\n        /* \"#utility.yul\":2416:2422   */\n      dup4\n        /* \"#utility.yul\":2412:2429   */\n      add\n        /* \"#utility.yul\":2408:2435   */\n      slt\n        /* \"#utility.yul\":2398:2520   */\n      tag_208\n      jumpi\n        /* \"#utility.yul\":2439:2518   */\n      tag_209\n      tag_190\n      jump\t// in\n    tag_209:\n        /* \"#utility.yul\":2398:2520   */\n    tag_208:\n        /* \"#utility.yul\":2556:2562   */\n      dup2\n        /* \"#utility.yul\":2543:2563   */\n      calldataload\n        /* \"#utility.yul\":2581:2675   */\n      tag_210\n        /* \"#utility.yul\":2671:2674   */\n      dup5\n        /* \"#utility.yul\":2663:2669   */\n      dup3\n        /* \"#utility.yul\":2656:2660   */\n      0x20\n        /* \"#utility.yul\":2648:2654   */\n      dup7\n        /* \"#utility.yul\":2644:2661   */\n      add\n        /* \"#utility.yul\":2581:2675   */\n      tag_164\n      jump\t// in\n    tag_210:\n        /* \"#utility.yul\":2572:2675   */\n      swap2\n      pop\n        /* \"#utility.yul\":2388:2681   */\n      pop\n        /* \"#utility.yul\":2311:2681   */\n      swap3\n      swap2\n      pop\n      pop\n      jump\t// out\n        /* \"#utility.yul\":2703:3093   */\n    tag_211:\n        /* \"#utility.yul\":2784:2789   */\n      0x00\n        /* \"#utility.yul\":2833:2836   */\n      dup3\n        /* \"#utility.yul\":2826:2830   */\n      0x1f\n        /* \"#utility.yul\":2818:2824   */\n      dup4\n        /* \"#utility.yul\":2814:2831   */\n      add\n        /* \"#utility.yul\":2810:2837   */\n      slt\n        /* \"#utility.yul\":2800:2922   */\n      tag_213\n      jumpi\n        /* \"#utility.yul\":2841:2920   */\n      tag_214\n      tag_190\n      jump\t// in\n    tag_214:\n        /* \"#utility.yul\":2800:2922   */\n    tag_213:\n        /* \"#utility.yul\":2958:2964   */\n      dup2\n        /* \"#utility.yul\":2945:2965   */\n      calldataload\n        /* \"#utility.yul\":2983:3087   */\n      tag_215\n        /* \"#utility.yul\":3083:3086   */\n      dup5\n        /* \"#utility.yul\":3075:3081   */\n      dup3\n        /* \"#utility.yul\":3068:3072   */\n      0x20\n        /* \"#utility.yul\":3060:3066   */\n      dup7\n        /* \"#utility.yul\":3056:3073   */\n      add\n        /* \"#utility.yul\":2983:3087   */\n      tag_178\n      jump\t// in\n    tag_215:\n        /* \"#utility.yul\":2974:3087   */\n      swap2\n      pop\n        /* \"#utility.yul\":2790:3093   */\n      pop\n        /* \"#utility.yul\":2703:3093   */\n      swap3\n      swap2\n      pop\n      pop\n      jump\t// out\n        /* \"#utility.yul\":3113:3453   */\n    tag_192:\n        /* \"#utility.yul\":3169:3174   */\n      0x00\n        /* \"#utility.yul\":3218:3221   */\n      dup3\n        /* \"#utility.yul\":3211:3215   */\n      0x1f\n        /* \"#utility.yul\":3203:3209   */\n      dup4\n        /* \"#utility.yul\":3199:3216   */\n      add\n        /* \"#utility.yul\":3195:3222   */\n      slt\n        /* \"#utility.yul\":3185:3307   */\n      tag_217\n      jumpi\n        /* \"#utility.yul\":3226:3305   */\n      tag_218\n      tag_190\n      jump\t// in\n    tag_218:\n        /* \"#utility.yul\":3185:3307   */\n    tag_217:\n        /* \"#utility.yul\":3343:3349   */\n      dup2\n        /* \"#utility.yul\":3330:3350   */\n      calldataload\n        /* \"#utility.yul\":3368:3447   */\n      tag_219\n        /* \"#utility.yul\":3443:3446   */\n      dup5\n        /* \"#utility.yul\":3435:3441   */\n      dup3\n        /* \"#utility.yul\":3428:3432   */\n      0x20\n        /* \"#utility.yul\":3420:3426   */\n      dup7\n        /* \"#utility.yul\":3416:3433   */\n      add\n        /* \"#utility.yul\":3368:3447   */\n      tag_193\n      jump\t// in\n    tag_219:\n        /* \"#utility.yul\":3359:3447   */\n      swap2\n      pop\n        /* \"#utility.yul\":3175:3453   */\n      pop\n        /* \"#utility.yul\":3113:3453   */\n      swap3\n      swap2\n      pop\n      pop\n      jump\t// out\n        /* \"#utility.yul\":3459:3602   */\n    tag_220:\n        /* \"#utility.yul\":3516:3521   */\n      0x00\n        /* \"#utility.yul\":3547:3553   */\n      dup2\n        /* \"#utility.yul\":3541:3554   */\n      mload\n        /* \"#utility.yul\":3532:3554   */\n      swap1\n      pop\n        /* \"#utility.yul\":3563:3596   */\n      tag_222\n        /* \"#utility.yul\":3590:3595   */\n      dup2\n        /* \"#utility.yul\":3563:3596   */\n      tag_223\n      jump\t// in\n    tag_222:\n        /* \"#utility.yul\":3459:3602   */\n      swap3\n      swap2\n      pop\n      pop\n      jump\t// out\n        /* \"#utility.yul\":3608:3937   */\n    tag_10:\n        /* \"#utility.yul\":3667:3673   */\n      0x00\n        /* \"#utility.yul\":3716:3718   */\n      0x20\n        /* \"#utility.yul\":3704:3713   */\n      dup3\n        /* \"#utility.yul\":3695:3702   */\n      dup5\n        /* \"#utility.yul\":3691:3714   */\n      sub\n        /* \"#utility.yul\":3687:3719   */\n      slt\n        /* \"#utility.yul\":3684:3803   */\n      iszero\n      tag_225\n      jumpi\n        /* \"#utility.yul\":3722:3801   */\n      tag_226\n      tag_227\n      jump\t// in\n    tag_226:\n        /* \"#utility.yul\":3684:3803   */\n    tag_225:\n        /* \"#utility.yul\":3842:3843   */\n      0x00\n        /* \"#utility.yul\":3867:3920   */\n      tag_228\n        /* \"#utility.yul\":3912:3919   */\n      dup5\n        /* \"#utility.yul\":3903:3909   */\n      dup3\n        /* \"#utility.yul\":3892:3901   */\n      dup6\n        /* \"#utility.yul\":3888:3910   */\n      add\n        /* \"#utility.yul\":3867:3920   */\n      tag_177\n      jump\t// in\n    tag_228:\n        /* \"#utility.yul\":3857:3920   */\n      swap2\n      pop\n        /* \"#utility.yul\":3813:3930   */\n      pop\n        /* \"#utility.yul\":3608:3937   */\n      swap3\n      swap2\n      pop\n      pop\n      jump\t// out\n        /* \"#utility.yul\":3943:4482   */\n    tag_28:\n        /* \"#utility.yul\":4027:4033   */\n      0x00\n        /* \"#utility.yul\":4076:4078   */\n      0x20\n        /* \"#utility.yul\":4064:4073   */\n      dup3\n        /* \"#utility.yul\":4055:4062   */\n      dup5\n        /* \"#utility.yul\":4051:4074   */\n      sub\n        /* \"#utility.yul\":4047:4079   */\n      slt\n        /* \"#utility.yul\":4044:4163   */\n      iszero\n      tag_230\n      jumpi\n        /* \"#utility.yul\":4082:4161   */\n      tag_231\n      tag_227\n      jump\t// in\n    tag_231:\n        /* \"#utility.yul\":4044:4163   */\n    tag_230:\n        /* \"#utility.yul\":4230:4231   */\n      0x00\n        /* \"#utility.yul\":4219:4228   */\n      dup3\n        /* \"#utility.yul\":4215:4232   */\n      add\n        /* \"#utility.yul\":4202:4233   */\n      calldataload\n        /* \"#utility.yul\":4260:4278   */\n      0xffffffffffffffff\n        /* \"#utility.yul\":4252:4258   */\n      dup2\n        /* \"#utility.yul\":4249:4279   */\n      gt\n        /* \"#utility.yul\":4246:4363   */\n      iszero\n      tag_232\n      jumpi\n        /* \"#utility.yul\":4282:4361   */\n      tag_233\n      tag_234\n      jump\t// in\n    tag_233:\n        /* \"#utility.yul\":4246:4363   */\n    tag_232:\n        /* \"#utility.yul\":4387:4465   */\n      tag_235\n        /* \"#utility.yul\":4457:4464   */\n      dup5\n        /* \"#utility.yul\":4448:4454   */\n      dup3\n        /* \"#utility.yul\":4437:4446   */\n      dup6\n        /* \"#utility.yul\":4433:4455   */\n      add\n        /* \"#utility.yul\":4387:4465   */\n      tag_206\n      jump\t// in\n    tag_235:\n        /* \"#utility.yul\":4377:4465   */\n      swap2\n      pop\n        /* \"#utility.yul\":4173:4475   */\n      pop\n        /* \"#utility.yul\":3943:4482   */\n      swap3\n      swap2\n      pop\n      pop\n      jump\t// out\n        /* \"#utility.yul\":4488:5402   */\n    tag_21:\n        /* \"#utility.yul\":4616:4622   */\n      0x00\n        /* \"#utility.yul\":4624:4630   */\n      dup1\n        /* \"#utility.yul\":4673:4675   */\n      0x40\n        /* \"#utility.yul\":4661:4670   */\n      dup4\n        /* \"#utility.yul\":4652:4659   */\n      dup6\n        /* \"#utility.yul\":4648:4671   */\n      sub\n        /* \"#utility.yul\":4644:4676   */\n      slt\n        /* \"#utility.yul\":4641:4760   */\n      iszero\n      tag_237\n      jumpi\n        /* \"#utility.yul\":4679:4758   */\n      tag_238\n      tag_227\n      jump\t// in\n    tag_238:\n        /* \"#utility.yul\":4641:4760   */\n    tag_237:\n        /* \"#utility.yul\":4827:4828   */\n      0x00\n        /* \"#utility.yul\":4816:4825   */\n      dup4\n        /* \"#utility.yul\":4812:4829   */\n      add\n        /* \"#utility.yul\":4799:4830   */\n      calldataload\n        /* \"#utility.yul\":4857:4875   */\n      0xffffffffffffffff\n        /* \"#utility.yul\":4849:4855   */\n      dup2\n        /* \"#utility.yul\":4846:4876   */\n      gt\n        /* \"#utility.yul\":4843:4960   */\n      iszero\n      tag_239\n      jumpi\n        /* \"#utility.yul\":4879:4958   */\n      tag_240\n      tag_234\n      jump\t// in\n    tag_240:\n        /* \"#utility.yul\":4843:4960   */\n    tag_239:\n        /* \"#utility.yul\":4984:5062   */\n      tag_241\n        /* \"#utility.yul\":5054:5061   */\n      dup6\n        /* \"#utility.yul\":5045:5051   */\n      dup3\n        /* \"#utility.yul\":5034:5043   */\n      dup7\n        /* \"#utility.yul\":5030:5052   */\n      add\n        /* \"#utility.yul\":4984:5062   */\n      tag_206\n      jump\t// in\n    tag_241:\n        /* \"#utility.yul\":4974:5062   */\n      swap3\n      pop\n        /* \"#utility.yul\":4770:5072   */\n      pop\n        /* \"#utility.yul\":5139:5141   */\n      0x20\n        /* \"#utility.yul\":5128:5137   */\n      dup4\n        /* \"#utility.yul\":5124:5142   */\n      add\n        /* \"#utility.yul\":5111:5143   */\n      calldataload\n        /* \"#utility.yul\":5170:5188   */\n      0xffffffffffffffff\n        /* \"#utility.yul\":5162:5168   */\n      dup2\n        /* \"#utility.yul\":5159:5189   */\n      gt\n        /* \"#utility.yul\":5156:5273   */\n      iszero\n      tag_242\n      jumpi\n        /* \"#utility.yul\":5192:5271   */\n      tag_243\n      tag_234\n      jump\t// in\n    tag_243:\n        /* \"#utility.yul\":5156:5273   */\n    tag_242:\n        /* \"#utility.yul\":5297:5385   */\n      tag_244\n        /* \"#utility.yul\":5377:5384   */\n      dup6\n        /* \"#utility.yul\":5368:5374   */\n      dup3\n        /* \"#utility.yul\":5357:5366   */\n      dup7\n        /* \"#utility.yul\":5353:5375   */\n      add\n        /* \"#utility.yul\":5297:5385   */\n      tag_211\n      jump\t// in\n    tag_244:\n        /* \"#utility.yul\":5287:5385   */\n      swap2\n      pop\n        /* \"#utility.yul\":5082:5395   */\n      pop\n        /* \"#utility.yul\":4488:5402   */\n      swap3\n      pop\n      swap3\n      swap1\n      pop\n      jump\t// out\n        /* \"#utility.yul\":5408:5759   */\n    tag_52:\n        /* \"#utility.yul\":5478:5484   */\n      0x00\n        /* \"#utility.yul\":5527:5529   */\n      0x20\n        /* \"#utility.yul\":5515:5524   */\n      dup3\n        /* \"#utility.yul\":5506:5513   */\n      dup5\n        /* \"#utility.yul\":5502:5525   */\n      sub\n        /* \"#utility.yul\":5498:5530   */\n      slt\n        /* \"#utility.yul\":5495:5614   */\n      iszero\n      tag_246\n      jumpi\n        /* \"#utility.yul\":5533:5612   */\n      tag_247\n      tag_227\n      jump\t// in\n    tag_247:\n        /* \"#utility.yul\":5495:5614   */\n    tag_246:\n        /* \"#utility.yul\":5653:5654   */\n      0x00\n        /* \"#utility.yul\":5678:5742   */\n      tag_248\n        /* \"#utility.yul\":5734:5741   */\n      dup5\n        /* \"#utility.yul\":5725:5731   */\n      dup3\n        /* \"#utility.yul\":5714:5723   */\n      dup6\n        /* \"#utility.yul\":5710:5732   */\n      add\n        /* \"#utility.yul\":5678:5742   */\n      tag_220\n      jump\t// in\n    tag_248:\n        /* \"#utility.yul\":5668:5742   */\n      swap2\n      pop\n        /* \"#utility.yul\":5624:5752   */\n      pop\n        /* \"#utility.yul\":5408:5759   */\n      swap3\n      swap2\n      pop\n      pop\n      jump\t// out\n        /* \"#utility.yul\":5765:5883   */\n    tag_249:\n        /* \"#utility.yul\":5852:5876   */\n      tag_251\n        /* \"#utility.yul\":5870:5875   */\n      dup2\n        /* \"#utility.yul\":5852:5876   */\n      tag_252\n      jump\t// in\n    tag_251:\n        /* \"#utility.yul\":5847:5850   */\n      dup3\n        /* \"#utility.yul\":5840:5877   */\n      mstore\n        /* \"#utility.yul\":5765:5883   */\n      pop\n      pop\n      jump\t// out\n        /* \"#utility.yul\":5889:6036   */\n    tag_253:\n        /* \"#utility.yul\":5984:6029   */\n      tag_255\n        /* \"#utility.yul\":6023:6028   */\n      dup2\n        /* \"#utility.yul\":5984:6029   */\n      tag_256\n      jump\t// in\n    tag_255:\n        /* \"#utility.yul\":5979:5982   */\n      dup3\n        /* \"#utility.yul\":5972:6030   */\n      mstore\n        /* \"#utility.yul\":5889:6036   */\n      pop\n      pop\n      jump\t// out\n        /* \"#utility.yul\":6042:6406   */\n    tag_257:\n        /* \"#utility.yul\":6130:6133   */\n      0x00\n        /* \"#utility.yul\":6158:6197   */\n      tag_259\n        /* \"#utility.yul\":6191:6196   */\n      dup3\n        /* \"#utility.yul\":6158:6197   */\n      tag_260\n      jump\t// in\n    tag_259:\n        /* \"#utility.yul\":6213:6284   */\n      tag_261\n        /* \"#utility.yul\":6277:6283   */\n      dup2\n        /* \"#utility.yul\":6272:6275   */\n      dup6\n        /* \"#utility.yul\":6213:6284   */\n      tag_262\n      jump\t// in\n    tag_261:\n        /* \"#utility.yul\":6206:6284   */\n      swap4\n      pop\n        /* \"#utility.yul\":6293:6345   */\n      tag_263\n        /* \"#utility.yul\":6338:6344   */\n      dup2\n        /* \"#utility.yul\":6333:6336   */\n      dup6\n        /* \"#utility.yul\":6326:6330   */\n      0x20\n        /* \"#utility.yul\":6319:6324   */\n      dup7\n        /* \"#utility.yul\":6315:6331   */\n      add\n        /* \"#utility.yul\":6293:6345   */\n      tag_264\n      jump\t// in\n    tag_263:\n        /* \"#utility.yul\":6370:6399   */\n      tag_265\n        /* \"#utility.yul\":6392:6398   */\n      dup2\n        /* \"#utility.yul\":6370:6399   */\n      tag_266\n      jump\t// in\n    tag_265:\n        /* \"#utility.yul\":6365:6368   */\n      dup5\n        /* \"#utility.yul\":6361:6400   */\n      add\n        /* \"#utility.yul\":6354:6400   */\n      swap2\n      pop\n        /* \"#utility.yul\":6134:6406   */\n      pop\n        /* \"#utility.yul\":6042:6406   */\n      swap3\n      swap2\n      pop\n      pop\n      jump\t// out\n        /* \"#utility.yul\":6412:6778   */\n    tag_267:\n        /* \"#utility.yul\":6554:6557   */\n      0x00\n        /* \"#utility.yul\":6575:6642   */\n      tag_269\n        /* \"#utility.yul\":6639:6641   */\n      0x14\n        /* \"#utility.yul\":6634:6637   */\n      dup4\n        /* \"#utility.yul\":6575:6642   */\n      tag_262\n      jump\t// in\n    tag_269:\n        /* \"#utility.yul\":6568:6642   */\n      swap2\n      pop\n        /* \"#utility.yul\":6651:6744   */\n      tag_270\n        /* \"#utility.yul\":6740:6743   */\n      dup3\n        /* \"#utility.yul\":6651:6744   */\n      tag_271\n      jump\t// in\n    tag_270:\n        /* \"#utility.yul\":6769:6771   */\n      0x20\n        /* \"#utility.yul\":6764:6767   */\n      dup3\n        /* \"#utility.yul\":6760:6772   */\n      add\n        /* \"#utility.yul\":6753:6772   */\n      swap1\n      pop\n        /* \"#utility.yul\":6412:6778   */\n      swap2\n      swap1\n      pop\n      jump\t// out\n        /* \"#utility.yul\":6784:7150   */\n    tag_272:\n        /* \"#utility.yul\":6926:6929   */\n      0x00\n        /* \"#utility.yul\":6947:7014   */\n      tag_274\n        /* \"#utility.yul\":7011:7013   */\n      0x18\n        /* \"#utility.yul\":7006:7009   */\n      dup4\n        /* \"#utility.yul\":6947:7014   */\n      tag_262\n      jump\t// in\n    tag_274:\n        /* \"#utility.yul\":6940:7014   */\n      swap2\n      pop\n        /* \"#utility.yul\":7023:7116   */\n      tag_275\n        /* \"#utility.yul\":7112:7115   */\n      dup3\n        /* \"#utility.yul\":7023:7116   */\n      tag_276\n      jump\t// in\n    tag_275:\n        /* \"#utility.yul\":7141:7143   */\n      0x20\n        /* \"#utility.yul\":7136:7139   */\n      dup3\n        /* \"#utility.yul\":7132:7144   */\n      add\n        /* \"#utility.yul\":7125:7144   */\n      swap1\n      pop\n        /* \"#utility.yul\":6784:7150   */\n      swap2\n      swap1\n      pop\n      jump\t// out\n        /* \"#utility.yul\":7156:7522   */\n    tag_277:\n        /* \"#utility.yul\":7298:7301   */\n      0x00\n        /* \"#utility.yul\":7319:7386   */\n      tag_279\n        /* \"#utility.yul\":7383:7385   */\n      0x15\n        /* \"#utility.yul\":7378:7381   */\n      dup4\n        /* \"#utility.yul\":7319:7386   */\n      tag_262\n      jump\t// in\n    tag_279:\n        /* \"#utility.yul\":7312:7386   */\n      swap2\n      pop\n        /* \"#utility.yul\":7395:7488   */\n      tag_280\n        /* \"#utility.yul\":7484:7487   */\n      dup3\n        /* \"#utility.yul\":7395:7488   */\n      tag_281\n      jump\t// in\n    tag_280:\n        /* \"#utility.yul\":7513:7515   */\n      0x20\n        /* \"#utility.yul\":7508:7511   */\n      dup3\n        /* \"#utility.yul\":7504:7516   */\n      add\n        /* \"#utility.yul\":7497:7516   */\n      swap1\n      pop\n        /* \"#utility.yul\":7156:7522   */\n      swap2\n      swap1\n      pop\n      jump\t// out\n        /* \"#utility.yul\":7528:7894   */\n    tag_282:\n        /* \"#utility.yul\":7670:7673   */\n      0x00\n        /* \"#utility.yul\":7691:7758   */\n      tag_284\n        /* \"#utility.yul\":7755:7757   */\n      0x1e\n        /* \"#utility.yul\":7750:7753   */\n      dup4\n        /* \"#utility.yul\":7691:7758   */\n      tag_262\n      jump\t// in\n    tag_284:\n        /* \"#utility.yul\":7684:7758   */\n      swap2\n      pop\n        /* \"#utility.yul\":7767:7860   */\n      tag_285\n        /* \"#utility.yul\":7856:7859   */\n      dup3\n        /* \"#utility.yul\":7767:7860   */\n      tag_286\n      jump\t// in\n    tag_285:\n        /* \"#utility.yul\":7885:7887   */\n      0x20\n        /* \"#utility.yul\":7880:7883   */\n      dup3\n        /* \"#utility.yul\":7876:7888   */\n      add\n        /* \"#utility.yul\":7869:7888   */\n      swap1\n      pop\n        /* \"#utility.yul\":7528:7894   */\n      swap2\n      swap1\n      pop\n      jump\t// out\n        /* \"#utility.yul\":7900:8266   */\n    tag_287:\n        /* \"#utility.yul\":8042:8045   */\n      0x00\n        /* \"#utility.yul\":8063:8130   */\n      tag_289\n        /* \"#utility.yul\":8127:8129   */\n      0x11\n        /* \"#utility.yul\":8122:8125   */\n      dup4\n        /* \"#utility.yul\":8063:8130   */\n      tag_262\n      jump\t// in\n    tag_289:\n        /* \"#utility.yul\":8056:8130   */\n      swap2\n      pop\n        /* \"#utility.yul\":8139:8232   */\n      tag_290\n        /* \"#utility.yul\":8228:8231   */\n      dup3\n        /* \"#utility.yul\":8139:8232   */\n      tag_291\n      jump\t// in\n    tag_290:\n        /* \"#utility.yul\":8257:8259   */\n      0x20\n        /* \"#utility.yul\":8252:8255   */\n      dup3\n        /* \"#utility.yul\":8248:8260   */\n      add\n        /* \"#utility.yul\":8241:8260   */\n      swap1\n      pop\n        /* \"#utility.yul\":7900:8266   */\n      swap2\n      swap1\n      pop\n      jump\t// out\n        /* \"#utility.yul\":8272:8638   */\n    tag_292:\n        /* \"#utility.yul\":8414:8417   */\n      0x00\n        /* \"#utility.yul\":8435:8502   */\n      tag_294\n        /* \"#utility.yul\":8499:8501   */\n      0x14\n        /* \"#utility.yul\":8494:8497   */\n      dup4\n        /* \"#utility.yul\":8435:8502   */\n      tag_262\n      jump\t// in\n    tag_294:\n        /* \"#utility.yul\":8428:8502   */\n      swap2\n      pop\n        /* \"#utility.yul\":8511:8604   */\n      tag_295\n        /* \"#utility.yul\":8600:8603   */\n      dup3\n        /* \"#utility.yul\":8511:8604   */\n      tag_296\n      jump\t// in\n    tag_295:\n        /* \"#utility.yul\":8629:8631   */\n      0x20\n        /* \"#utility.yul\":8624:8627   */\n      dup3\n        /* \"#utility.yul\":8620:8632   */\n      add\n        /* \"#utility.yul\":8613:8632   */\n      swap1\n      pop\n        /* \"#utility.yul\":8272:8638   */\n      swap2\n      swap1\n      pop\n      jump\t// out\n        /* \"#utility.yul\":8644:9010   */\n    tag_297:\n        /* \"#utility.yul\":8786:8789   */\n      0x00\n        /* \"#utility.yul\":8807:8874   */\n      tag_299\n        /* \"#utility.yul\":8871:8873   */\n      0x14\n        /* \"#utility.yul\":8866:8869   */\n      dup4\n        /* \"#utility.yul\":8807:8874   */\n      tag_262\n      jump\t// in\n    tag_299:\n        /* \"#utility.yul\":8800:8874   */\n      swap2\n      pop\n        /* \"#utility.yul\":8883:8976   */\n      tag_300\n        /* \"#utility.yul\":8972:8975   */\n      dup3\n        /* \"#utility.yul\":8883:8976   */\n      tag_301\n      jump\t// in\n    tag_300:\n        /* \"#utility.yul\":9001:9003   */\n      0x20\n        /* \"#utility.yul\":8996:8999   */\n      dup3\n        /* \"#utility.yul\":8992:9004   */\n      add\n        /* \"#utility.yul\":8985:9004   */\n      swap1\n      pop\n        /* \"#utility.yul\":8644:9010   */\n      swap2\n      swap1\n      pop\n      jump\t// out\n        /* \"#utility.yul\":9016:9382   */\n    tag_302:\n        /* \"#utility.yul\":9158:9161   */\n      0x00\n        /* \"#utility.yul\":9179:9246   */\n      tag_304\n        /* \"#utility.yul\":9243:9245   */\n      0x18\n        /* \"#utility.yul\":9238:9241   */\n      dup4\n        /* \"#utility.yul\":9179:9246   */\n      tag_262\n      jump\t// in\n    tag_304:\n        /* \"#utility.yul\":9172:9246   */\n      swap2\n      pop\n        /* \"#utility.yul\":9255:9348   */\n      tag_305\n        /* \"#utility.yul\":9344:9347   */\n      dup3\n        /* \"#utility.yul\":9255:9348   */\n      tag_306\n      jump\t// in\n    tag_305:\n        /* \"#utility.yul\":9373:9375   */\n      0x20\n        /* \"#utility.yul\":9368:9371   */\n      dup3\n        /* \"#utility.yul\":9364:9376   */\n      add\n        /* \"#utility.yul\":9357:9376   */\n      swap1\n      pop\n        /* \"#utility.yul\":9016:9382   */\n      swap2\n      swap1\n      pop\n      jump\t// out\n        /* \"#utility.yul\":9388:9754   */\n    tag_307:\n        /* \"#utility.yul\":9530:9533   */\n      0x00\n        /* \"#utility.yul\":9551:9618   */\n      tag_309\n        /* \"#utility.yul\":9615:9617   */\n      0x14\n        /* \"#utility.yul\":9610:9613   */\n      dup4\n        /* \"#utility.yul\":9551:9618   */\n      tag_262\n      jump\t// in\n    tag_309:\n        /* \"#utility.yul\":9544:9618   */\n      swap2\n      pop\n        /* \"#utility.yul\":9627:9720   */\n      tag_310\n        /* \"#utility.yul\":9716:9719   */\n      dup3\n        /* \"#utility.yul\":9627:9720   */\n      tag_311\n      jump\t// in\n    tag_310:\n        /* \"#utility.yul\":9745:9747   */\n      0x20\n        /* \"#utility.yul\":9740:9743   */\n      dup3\n        /* \"#utility.yul\":9736:9748   */\n      add\n        /* \"#utility.yul\":9729:9748   */\n      swap1\n      pop\n        /* \"#utility.yul\":9388:9754   */\n      swap2\n      swap1\n      pop\n      jump\t// out\n        /* \"#utility.yul\":9760:10126   */\n    tag_312:\n        /* \"#utility.yul\":9902:9905   */\n      0x00\n        /* \"#utility.yul\":9923:9990   */\n      tag_314\n        /* \"#utility.yul\":9987:9989   */\n      0x17\n        /* \"#utility.yul\":9982:9985   */\n      dup4\n        /* \"#utility.yul\":9923:9990   */\n      tag_262\n      jump\t// in\n    tag_314:\n        /* \"#utility.yul\":9916:9990   */\n      swap2\n      pop\n        /* \"#utility.yul\":9999:10092   */\n      tag_315\n        /* \"#utility.yul\":10088:10091   */\n      dup3\n        /* \"#utility.yul\":9999:10092   */\n      tag_316\n      jump\t// in\n    tag_315:\n        /* \"#utility.yul\":10117:10119   */\n      0x20\n        /* \"#utility.yul\":10112:10115   */\n      dup3\n        /* \"#utility.yul\":10108:10120   */\n      add\n        /* \"#utility.yul\":10101:10120   */\n      swap1\n      pop\n        /* \"#utility.yul\":9760:10126   */\n      swap2\n      swap1\n      pop\n      jump\t// out\n        /* \"#utility.yul\":10132:10498   */\n    tag_317:\n        /* \"#utility.yul\":10274:10277   */\n      0x00\n        /* \"#utility.yul\":10295:10362   */\n      tag_319\n        /* \"#utility.yul\":10359:10361   */\n      0x17\n        /* \"#utility.yul\":10354:10357   */\n      dup4\n        /* \"#utility.yul\":10295:10362   */\n      tag_262\n      jump\t// in\n    tag_319:\n        /* \"#utility.yul\":10288:10362   */\n      swap2\n      pop\n        /* \"#utility.yul\":10371:10464   */\n      tag_320\n        /* \"#utility.yul\":10460:10463   */\n      dup3\n        /* \"#utility.yul\":10371:10464   */\n      tag_321\n      jump\t// in\n    tag_320:\n        /* \"#utility.yul\":10489:10491   */\n      0x20\n        /* \"#utility.yul\":10484:10487   */\n      dup3\n        /* \"#utility.yul\":10480:10492   */\n      add\n        /* \"#utility.yul\":10473:10492   */\n      swap1\n      pop\n        /* \"#utility.yul\":10132:10498   */\n      swap2\n      swap1\n      pop\n      jump\t// out\n        /* \"#utility.yul\":10504:10622   */\n    tag_322:\n        /* \"#utility.yul\":10591:10615   */\n      tag_324\n        /* \"#utility.yul\":10609:10614   */\n      dup2\n        /* \"#utility.yul\":10591:10615   */\n      tag_325\n      jump\t// in\n    tag_324:\n        /* \"#utility.yul\":10586:10589   */\n      dup3\n        /* \"#utility.yul\":10579:10616   */\n      mstore\n        /* \"#utility.yul\":10504:10622   */\n      pop\n      pop\n      jump\t// out\n        /* \"#utility.yul\":10628:10850   */\n    tag_47:\n        /* \"#utility.yul\":10721:10725   */\n      0x00\n        /* \"#utility.yul\":10759:10761   */\n      0x20\n        /* \"#utility.yul\":10748:10757   */\n      dup3\n        /* \"#utility.yul\":10744:10762   */\n      add\n        /* \"#utility.yul\":10736:10762   */\n      swap1\n      pop\n        /* \"#utility.yul\":10772:10843   */\n      tag_327\n        /* \"#utility.yul\":10840:10841   */\n      0x00\n        /* \"#utility.yul\":10829:10838   */\n      dup4\n        /* \"#utility.yul\":10825:10842   */\n      add\n        /* \"#utility.yul\":10816:10822   */\n      dup5\n        /* \"#utility.yul\":10772:10843   */\n      tag_249\n      jump\t// in\n    tag_327:\n        /* \"#utility.yul\":10628:10850   */\n      swap3\n      swap2\n      pop\n      pop\n      jump\t// out\n        /* \"#utility.yul\":10856:11204   */\n    tag_138:\n        /* \"#utility.yul\":10985:10989   */\n      0x00\n        /* \"#utility.yul\":11023:11025   */\n      0x40\n        /* \"#utility.yul\":11012:11021   */\n      dup3\n        /* \"#utility.yul\":11008:11026   */\n      add\n        /* \"#utility.yul\":11000:11026   */\n      swap1\n      pop\n        /* \"#utility.yul\":11036:11107   */\n      tag_329\n        /* \"#utility.yul\":11104:11105   */\n      0x00\n        /* \"#utility.yul\":11093:11102   */\n      dup4\n        /* \"#utility.yul\":11089:11106   */\n      add\n        /* \"#utility.yul\":11080:11086   */\n      dup6\n        /* \"#utility.yul\":11036:11107   */\n      tag_249\n      jump\t// in\n    tag_329:\n        /* \"#utility.yul\":11117:11197   */\n      tag_330\n        /* \"#utility.yul\":11193:11195   */\n      0x20\n        /* \"#utility.yul\":11182:11191   */\n      dup4\n        /* \"#utility.yul\":11178:11196   */\n      add\n        /* \"#utility.yul\":11169:11175   */\n      dup5\n        /* \"#utility.yul\":11117:11197   */\n      tag_253\n      jump\t// in\n    tag_330:\n        /* \"#utility.yul\":10856:11204   */\n      swap4\n      swap3\n      pop\n      pop\n      pop\n      jump\t// out\n        /* \"#utility.yul\":11210:11542   */\n    tag_115:\n        /* \"#utility.yul\":11331:11335   */\n      0x00\n        /* \"#utility.yul\":11369:11371   */\n      0x40\n        /* \"#utility.yul\":11358:11367   */\n      dup3\n        /* \"#utility.yul\":11354:11372   */\n      add\n        /* \"#utility.yul\":11346:11372   */\n      swap1\n      pop\n        /* \"#utility.yul\":11382:11453   */\n      tag_332\n        /* \"#utility.yul\":11450:11451   */\n      0x00\n        /* \"#utility.yul\":11439:11448   */\n      dup4\n        /* \"#utility.yul\":11435:11452   */\n      add\n        /* \"#utility.yul\":11426:11432   */\n      dup6\n        /* \"#utility.yul\":11382:11453   */\n      tag_249\n      jump\t// in\n    tag_332:\n        /* \"#utility.yul\":11463:11535   */\n      tag_333\n        /* \"#utility.yul\":11531:11533   */\n      0x20\n        /* \"#utility.yul\":11520:11529   */\n      dup4\n        /* \"#utility.yul\":11516:11534   */\n      add\n        /* \"#utility.yul\":11507:11513   */\n      dup5\n        /* \"#utility.yul\":11463:11535   */\n      tag_322\n      jump\t// in\n    tag_333:\n        /* \"#utility.yul\":11210:11542   */\n      swap4\n      swap3\n      pop\n      pop\n      pop\n      jump\t// out\n        /* \"#utility.yul\":11548:11861   */\n    tag_13:\n        /* \"#utility.yul\":11661:11665   */\n      0x00\n        /* \"#utility.yul\":11699:11701   */\n      0x20\n        /* \"#utility.yul\":11688:11697   */\n      dup3\n        /* \"#utility.yul\":11684:11702   */\n      add\n        /* \"#utility.yul\":11676:11702   */\n      swap1\n      pop\n        /* \"#utility.yul\":11748:11757   */\n      dup2\n        /* \"#utility.yul\":11742:11746   */\n      dup2\n        /* \"#utility.yul\":11738:11758   */\n      sub\n        /* \"#utility.yul\":11734:11735   */\n      0x00\n        /* \"#utility.yul\":11723:11732   */\n      dup4\n        /* \"#utility.yul\":11719:11736   */\n      add\n        /* \"#utility.yul\":11712:11759   */\n      mstore\n        /* \"#utility.yul\":11776:11854   */\n      tag_335\n        /* \"#utility.yul\":11849:11853   */\n      dup2\n        /* \"#utility.yul\":11840:11846   */\n      dup5\n        /* \"#utility.yul\":11776:11854   */\n      tag_257\n      jump\t// in\n    tag_335:\n        /* \"#utility.yul\":11768:11854   */\n      swap1\n      pop\n        /* \"#utility.yul\":11548:11861   */\n      swap3\n      swap2\n      pop\n      pop\n      jump\t// out\n        /* \"#utility.yul\":11867:12286   */\n    tag_60:\n        /* \"#utility.yul\":12033:12037   */\n      0x00\n        /* \"#utility.yul\":12071:12073   */\n      0x20\n        /* \"#utility.yul\":12060:12069   */\n      dup3\n        /* \"#utility.yul\":12056:12074   */\n      add\n        /* \"#utility.yul\":12048:12074   */\n      swap1\n      pop\n        /* \"#utility.yul\":12120:12129   */\n      dup2\n        /* \"#utility.yul\":12114:12118   */\n      dup2\n        /* \"#utility.yul\":12110:12130   */\n      sub\n        /* \"#utility.yul\":12106:12107   */\n      0x00\n        /* \"#utility.yul\":12095:12104   */\n      dup4\n        /* \"#utility.yul\":12091:12108   */\n      add\n        /* \"#utility.yul\":12084:12131   */\n      mstore\n        /* \"#utility.yul\":12148:12279   */\n      tag_337\n        /* \"#utility.yul\":12274:12278   */\n      dup2\n        /* \"#utility.yul\":12148:12279   */\n      tag_267\n      jump\t// in\n    tag_337:\n        /* \"#utility.yul\":12140:12279   */\n      swap1\n      pop\n        /* \"#utility.yul\":11867:12286   */\n      swap2\n      swap1\n      pop\n      jump\t// out\n        /* \"#utility.yul\":12292:12711   */\n    tag_74:\n        /* \"#utility.yul\":12458:12462   */\n      0x00\n        /* \"#utility.yul\":12496:12498   */\n      0x20\n        /* \"#utility.yul\":12485:12494   */\n      dup3\n        /* \"#utility.yul\":12481:12499   */\n      add\n        /* \"#utility.yul\":12473:12499   */\n      swap1\n      pop\n        /* \"#utility.yul\":12545:12554   */\n      dup2\n        /* \"#utility.yul\":12539:12543   */\n      dup2\n        /* \"#utility.yul\":12535:12555   */\n      sub\n        /* \"#utility.yul\":12531:12532   */\n      0x00\n        /* \"#utility.yul\":12520:12529   */\n      dup4\n        /* \"#utility.yul\":12516:12533   */\n      add\n        /* \"#utility.yul\":12509:12556   */\n      mstore\n        /* \"#utility.yul\":12573:12704   */\n      tag_339\n        /* \"#utility.yul\":12699:12703   */\n      dup2\n        /* \"#utility.yul\":12573:12704   */\n      tag_272\n      jump\t// in\n    tag_339:\n        /* \"#utility.yul\":12565:12704   */\n      swap1\n      pop\n        /* \"#utility.yul\":12292:12711   */\n      swap2\n      swap1\n      pop\n      jump\t// out\n        /* \"#utility.yul\":12717:13136   */\n    tag_43:\n        /* \"#utility.yul\":12883:12887   */\n      0x00\n        /* \"#utility.yul\":12921:12923   */\n      0x20\n        /* \"#utility.yul\":12910:12919   */\n      dup3\n        /* \"#utility.yul\":12906:12924   */\n      add\n        /* \"#utility.yul\":12898:12924   */\n      swap1\n      pop\n        /* \"#utility.yul\":12970:12979   */\n      dup2\n        /* \"#utility.yul\":12964:12968   */\n      dup2\n        /* \"#utility.yul\":12960:12980   */\n      sub\n        /* \"#utility.yul\":12956:12957   */\n      0x00\n        /* \"#utility.yul\":12945:12954   */\n      dup4\n        /* \"#utility.yul\":12941:12958   */\n      add\n        /* \"#utility.yul\":12934:12981   */\n      mstore\n        /* \"#utility.yul\":12998:13129   */\n      tag_341\n        /* \"#utility.yul\":13124:13128   */\n      dup2\n        /* \"#utility.yul\":12998:13129   */\n      tag_277\n      jump\t// in\n    tag_341:\n        /* \"#utility.yul\":12990:13129   */\n      swap1\n      pop\n        /* \"#utility.yul\":12717:13136   */\n      swap2\n      swap1\n      pop\n      jump\t// out\n        /* \"#utility.yul\":13142:13561   */\n    tag_69:\n        /* \"#utility.yul\":13308:13312   */\n      0x00\n        /* \"#utility.yul\":13346:13348   */\n      0x20\n        /* \"#utility.yul\":13335:13344   */\n      dup3\n        /* \"#utility.yul\":13331:13349   */\n      add\n        /* \"#utility.yul\":13323:13349   */\n      swap1\n      pop\n        /* \"#utility.yul\":13395:13404   */\n      dup2\n        /* \"#utility.yul\":13389:13393   */\n      dup2\n        /* \"#utility.yul\":13385:13405   */\n      sub\n        /* \"#utility.yul\":13381:13382   */\n      0x00\n        /* \"#utility.yul\":13370:13379   */\n      dup4\n        /* \"#utility.yul\":13366:13383   */\n      add\n        /* \"#utility.yul\":13359:13406   */\n      mstore\n        /* \"#utility.yul\":13423:13554   */\n      tag_343\n        /* \"#utility.yul\":13549:13553   */\n      dup2\n        /* \"#utility.yul\":13423:13554   */\n      tag_282\n      jump\t// in\n    tag_343:\n        /* \"#utility.yul\":13415:13554   */\n      swap1\n      pop\n        /* \"#utility.yul\":13142:13561   */\n      swap2\n      swap1\n      pop\n      jump\t// out\n        /* \"#utility.yul\":13567:13986   */\n    tag_89:\n        /* \"#utility.yul\":13733:13737   */\n      0x00\n        /* \"#utility.yul\":13771:13773   */\n      0x20\n        /* \"#utility.yul\":13760:13769   */\n      dup3\n        /* \"#utility.yul\":13756:13774   */\n      add\n        /* \"#utility.yul\":13748:13774   */\n      swap1\n      pop\n        /* \"#utility.yul\":13820:13829   */\n      dup2\n        /* \"#utility.yul\":13814:13818   */\n      dup2\n        /* \"#utility.yul\":13810:13830   */\n      sub\n        /* \"#utility.yul\":13806:13807   */\n      0x00\n        /* \"#utility.yul\":13795:13804   */\n      dup4\n        /* \"#utility.yul\":13791:13808   */\n      add\n        /* \"#utility.yul\":13784:13831   */\n      mstore\n        /* \"#utility.yul\":13848:13979   */\n      tag_345\n        /* \"#utility.yul\":13974:13978   */\n      dup2\n        /* \"#utility.yul\":13848:13979   */\n      tag_287\n      jump\t// in\n    tag_345:\n        /* \"#utility.yul\":13840:13979   */\n      swap1\n      pop\n        /* \"#utility.yul\":13567:13986   */\n      swap2\n      swap1\n      pop\n      jump\t// out\n        /* \"#utility.yul\":13992:14411   */\n    tag_101:\n        /* \"#utility.yul\":14158:14162   */\n      0x00\n        /* \"#utility.yul\":14196:14198   */\n      0x20\n        /* \"#utility.yul\":14185:14194   */\n      dup3\n        /* \"#utility.yul\":14181:14199   */\n      add\n        /* \"#utility.yul\":14173:14199   */\n      swap1\n      pop\n        /* \"#utility.yul\":14245:14254   */\n      dup2\n        /* \"#utility.yul\":14239:14243   */\n      dup2\n        /* \"#utility.yul\":14235:14255   */\n      sub\n        /* \"#utility.yul\":14231:14232   */\n      0x00\n        /* \"#utility.yul\":14220:14229   */\n      dup4\n        /* \"#utility.yul\":14216:14233   */\n      add\n        /* \"#utility.yul\":14209:14256   */\n      mstore\n        /* \"#utility.yul\":14273:14404   */\n      tag_347\n        /* \"#utility.yul\":14399:14403   */\n      dup2\n        /* \"#utility.yul\":14273:14404   */\n      tag_292\n      jump\t// in\n    tag_347:\n        /* \"#utility.yul\":14265:14404   */\n      swap1\n      pop\n        /* \"#utility.yul\":13992:14411   */\n      swap2\n      swap1\n      pop\n      jump\t// out\n        /* \"#utility.yul\":14417:14836   */\n    tag_106:\n        /* \"#utility.yul\":14583:14587   */\n      0x00\n        /* \"#utility.yul\":14621:14623   */\n      0x20\n        /* \"#utility.yul\":14610:14619   */\n      dup3\n        /* \"#utility.yul\":14606:14624   */\n      add\n        /* \"#utility.yul\":14598:14624   */\n      swap1\n      pop\n        /* \"#utility.yul\":14670:14679   */\n      dup2\n        /* \"#utility.yul\":14664:14668   */\n      dup2\n        /* \"#utility.yul\":14660:14680   */\n      sub\n        /* \"#utility.yul\":14656:14657   */\n      0x00\n        /* \"#utility.yul\":14645:14654   */\n      dup4\n        /* \"#utility.yul\":14641:14658   */\n      add\n        /* \"#utility.yul\":14634:14681   */\n      mstore\n        /* \"#utility.yul\":14698:14829   */\n      tag_349\n        /* \"#utility.yul\":14824:14828   */\n      dup2\n        /* \"#utility.yul\":14698:14829   */\n      tag_297\n      jump\t// in\n    tag_349:\n        /* \"#utility.yul\":14690:14829   */\n      swap1\n      pop\n        /* \"#utility.yul\":14417:14836   */\n      swap2\n      swap1\n      pop\n      jump\t// out\n        /* \"#utility.yul\":14842:15261   */\n    tag_130:\n        /* \"#utility.yul\":15008:15012   */\n      0x00\n        /* \"#utility.yul\":15046:15048   */\n      0x20\n        /* \"#utility.yul\":15035:15044   */\n      dup3\n        /* \"#utility.yul\":15031:15049   */\n      add\n        /* \"#utility.yul\":15023:15049   */\n      swap1\n      pop\n        /* \"#utility.yul\":15095:15104   */\n      dup2\n        /* \"#utility.yul\":15089:15093   */\n      dup2\n        /* \"#utility.yul\":15085:15105   */\n      sub\n        /* \"#utility.yul\":15081:15082   */\n      0x00\n        /* \"#utility.yul\":15070:15079   */\n      dup4\n        /* \"#utility.yul\":15066:15083   */\n      add\n        /* \"#utility.yul\":15059:15106   */\n      mstore\n        /* \"#utility.yul\":15123:15254   */\n      tag_351\n        /* \"#utility.yul\":15249:15253   */\n      dup2\n        /* \"#utility.yul\":15123:15254   */\n      tag_302\n      jump\t// in\n    tag_351:\n        /* \"#utility.yul\":15115:15254   */\n      swap1\n      pop\n        /* \"#utility.yul\":14842:15261   */\n      swap2\n      swap1\n      pop\n      jump\t// out\n        /* \"#utility.yul\":15267:15686   */\n    tag_98:\n        /* \"#utility.yul\":15433:15437   */\n      0x00\n        /* \"#utility.yul\":15471:15473   */\n      0x20\n        /* \"#utility.yul\":15460:15469   */\n      dup3\n        /* \"#utility.yul\":15456:15474   */\n      add\n        /* \"#utility.yul\":15448:15474   */\n      swap1\n      pop\n        /* \"#utility.yul\":15520:15529   */\n      dup2\n        /* \"#utility.yul\":15514:15518   */\n      dup2\n        /* \"#utility.yul\":15510:15530   */\n      sub\n        /* \"#utility.yul\":15506:15507   */\n      0x00\n        /* \"#utility.yul\":15495:15504   */\n      dup4\n        /* \"#utility.yul\":15491:15508   */\n      add\n        /* \"#utility.yul\":15484:15531   */\n      mstore\n        /* \"#utility.yul\":15548:15679   */\n      tag_353\n        /* \"#utility.yul\":15674:15678   */\n      dup2\n        /* \"#utility.yul\":15548:15679   */\n      tag_307\n      jump\t// in\n    tag_353:\n        /* \"#utility.yul\":15540:15679   */\n      swap1\n      pop\n        /* \"#utility.yul\":15267:15686   */\n      swap2\n      swap1\n      pop\n      jump\t// out\n        /* \"#utility.yul\":15692:16111   */\n    tag_33:\n        /* \"#utility.yul\":15858:15862   */\n      0x00\n        /* \"#utility.yul\":15896:15898   */\n      0x20\n        /* \"#utility.yul\":15885:15894   */\n      dup3\n        /* \"#utility.yul\":15881:15899   */\n      add\n        /* \"#utility.yul\":15873:15899   */\n      swap1\n      pop\n        /* \"#utility.yul\":15945:15954   */\n      dup2\n        /* \"#utility.yul\":15939:15943   */\n      dup2\n        /* \"#utility.yul\":15935:15955   */\n      sub\n        /* \"#utility.yul\":15931:15932   */\n      0x00\n        /* \"#utility.yul\":15920:15929   */\n      dup4\n        /* \"#utility.yul\":15916:15933   */\n      add\n        /* \"#utility.yul\":15909:15956   */\n      mstore\n        /* \"#utility.yul\":15973:16104   */\n      tag_355\n        /* \"#utility.yul\":16099:16103   */\n      dup2\n        /* \"#utility.yul\":15973:16104   */\n      tag_312\n      jump\t// in\n    tag_355:\n        /* \"#utility.yul\":15965:16104   */\n      swap1\n      pop\n        /* \"#utility.yul\":15692:16111   */\n      swap2\n      swap1\n      pop\n      jump\t// out\n        /* \"#utility.yul\":16117:16536   */\n    tag_56:\n        /* \"#utility.yul\":16283:16287   */\n      0x00\n        /* \"#utility.yul\":16321:16323   */\n      0x20\n        /* \"#utility.yul\":16310:16319   */\n      dup3\n        /* \"#utility.yul\":16306:16324   */\n      add\n        /* \"#utility.yul\":16298:16324   */\n      swap1\n      pop\n        /* \"#utility.yul\":16370:16379   */\n      dup2\n        /* \"#utility.yul\":16364:16368   */\n      dup2\n        /* \"#utility.yul\":16360:16380   */\n      sub\n        /* \"#utility.yul\":16356:16357   */\n      0x00\n        /* \"#utility.yul\":16345:16354   */\n      dup4\n        /* \"#utility.yul\":16341:16358   */\n      add\n        /* \"#utility.yul\":16334:16381   */\n      mstore\n        /* \"#utility.yul\":16398:16529   */\n      tag_357\n        /* \"#utility.yul\":16524:16528   */\n      dup2\n        /* \"#utility.yul\":16398:16529   */\n      tag_317\n      jump\t// in\n    tag_357:\n        /* \"#utility.yul\":16390:16529   */\n      swap1\n      pop\n        /* \"#utility.yul\":16117:16536   */\n      swap2\n      swap1\n      pop\n      jump\t// out\n        /* \"#utility.yul\":16542:16764   */\n    tag_18:\n        /* \"#utility.yul\":16635:16639   */\n      0x00\n        /* \"#utility.yul\":16673:16675   */\n      0x20\n        /* \"#utility.yul\":16662:16671   */\n      dup3\n        /* \"#utility.yul\":16658:16676   */\n      add\n        /* \"#utility.yul\":16650:16676   */\n      swap1\n      pop\n        /* \"#utility.yul\":16686:16757   */\n      tag_359\n        /* \"#utility.yul\":16754:16755   */\n      0x00\n        /* \"#utility.yul\":16743:16752   */\n      dup4\n        /* \"#utility.yul\":16739:16756   */\n      add\n        /* \"#utility.yul\":16730:16736   */\n      dup5\n        /* \"#utility.yul\":16686:16757   */\n      tag_322\n      jump\t// in\n    tag_359:\n        /* \"#utility.yul\":16542:16764   */\n      swap3\n      swap2\n      pop\n      pop\n      jump\t// out\n        /* \"#utility.yul\":16770:16899   */\n    tag_169:\n        /* \"#utility.yul\":16804:16810   */\n      0x00\n        /* \"#utility.yul\":16831:16851   */\n      tag_361\n      tag_362\n      jump\t// in\n    tag_361:\n        /* \"#utility.yul\":16821:16851   */\n      swap1\n      pop\n        /* \"#utility.yul\":16860:16893   */\n      tag_363\n        /* \"#utility.yul\":16888:16892   */\n      dup3\n        /* \"#utility.yul\":16880:16886   */\n      dup3\n        /* \"#utility.yul\":16860:16893   */\n      tag_364\n      jump\t// in\n    tag_363:\n        /* \"#utility.yul\":16770:16899   */\n      swap2\n      swap1\n      pop\n      jump\t// out\n        /* \"#utility.yul\":16905:16980   */\n    tag_362:\n        /* \"#utility.yul\":16938:16944   */\n      0x00\n        /* \"#utility.yul\":16971:16973   */\n      0x40\n        /* \"#utility.yul\":16965:16974   */\n      mload\n        /* \"#utility.yul\":16955:16974   */\n      swap1\n      pop\n        /* \"#utility.yul\":16905:16980   */\n      swap1\n      jump\t// out\n        /* \"#utility.yul\":16986:17297   */\n    tag_168:\n        /* \"#utility.yul\":17063:17067   */\n      0x00\n        /* \"#utility.yul\":17153:17171   */\n      0xffffffffffffffff\n        /* \"#utility.yul\":17145:17151   */\n      dup3\n        /* \"#utility.yul\":17142:17172   */\n      gt\n        /* \"#utility.yul\":17139:17195   */\n      iszero\n      tag_367\n      jumpi\n        /* \"#utility.yul\":17175:17193   */\n      tag_368\n      tag_369\n      jump\t// in\n    tag_368:\n        /* \"#utility.yul\":17139:17195   */\n    tag_367:\n        /* \"#utility.yul\":17225:17229   */\n      0x20\n        /* \"#utility.yul\":17217:17223   */\n      dup3\n        /* \"#utility.yul\":17213:17230   */\n      mul\n        /* \"#utility.yul\":17205:17230   */\n      swap1\n      pop\n        /* \"#utility.yul\":17285:17289   */\n      0x20\n        /* \"#utility.yul\":17279:17283   */\n      dup2\n        /* \"#utility.yul\":17275:17290   */\n      add\n        /* \"#utility.yul\":17267:17290   */\n      swap1\n      pop\n        /* \"#utility.yul\":16986:17297   */\n      swap2\n      swap1\n      pop\n      jump\t// out\n        /* \"#utility.yul\":17303:17624   */\n    tag_182:\n        /* \"#utility.yul\":17390:17394   */\n      0x00\n        /* \"#utility.yul\":17480:17498   */\n      0xffffffffffffffff\n        /* \"#utility.yul\":17472:17478   */\n      dup3\n        /* \"#utility.yul\":17469:17499   */\n      gt\n        /* \"#utility.yul\":17466:17522   */\n      iszero\n      tag_371\n      jumpi\n        /* \"#utility.yul\":17502:17520   */\n      tag_372\n      tag_369\n      jump\t// in\n    tag_372:\n        /* \"#utility.yul\":17466:17522   */\n    tag_371:\n        /* \"#utility.yul\":17552:17556   */\n      0x20\n        /* \"#utility.yul\":17544:17550   */\n      dup3\n        /* \"#utility.yul\":17540:17557   */\n      mul\n        /* \"#utility.yul\":17532:17557   */\n      swap1\n      pop\n        /* \"#utility.yul\":17612:17616   */\n      0x20\n        /* \"#utility.yul\":17606:17610   */\n      dup2\n        /* \"#utility.yul\":17602:17617   */\n      add\n        /* \"#utility.yul\":17594:17617   */\n      swap1\n      pop\n        /* \"#utility.yul\":17303:17624   */\n      swap2\n      swap1\n      pop\n      jump\t// out\n        /* \"#utility.yul\":17630:17938   */\n    tag_197:\n        /* \"#utility.yul\":17692:17696   */\n      0x00\n        /* \"#utility.yul\":17782:17800   */\n      0xffffffffffffffff\n        /* \"#utility.yul\":17774:17780   */\n      dup3\n        /* \"#utility.yul\":17771:17801   */\n      gt\n        /* \"#utility.yul\":17768:17824   */\n      iszero\n      tag_374\n      jumpi\n        /* \"#utility.yul\":17804:17822   */\n      tag_375\n      tag_369\n      jump\t// in\n    tag_375:\n        /* \"#utility.yul\":17768:17824   */\n    tag_374:\n        /* \"#utility.yul\":17842:17871   */\n      tag_376\n        /* \"#utility.yul\":17864:17870   */\n      dup3\n        /* \"#utility.yul\":17842:17871   */\n      tag_266\n      jump\t// in\n    tag_376:\n        /* \"#utility.yul\":17834:17871   */\n      swap1\n      pop\n        /* \"#utility.yul\":17926:17930   */\n      0x20\n        /* \"#utility.yul\":17920:17924   */\n      dup2\n        /* \"#utility.yul\":17916:17931   */\n      add\n        /* \"#utility.yul\":17908:17931   */\n      swap1\n      pop\n        /* \"#utility.yul\":17630:17938   */\n      swap2\n      swap1\n      pop\n      jump\t// out\n        /* \"#utility.yul\":17944:18043   */\n    tag_260:\n        /* \"#utility.yul\":17996:18002   */\n      0x00\n        /* \"#utility.yul\":18030:18035   */\n      dup2\n        /* \"#utility.yul\":18024:18036   */\n      mload\n        /* \"#utility.yul\":18014:18036   */\n      swap1\n      pop\n        /* \"#utility.yul\":17944:18043   */\n      swap2\n      swap1\n      pop\n      jump\t// out\n        /* \"#utility.yul\":18049:18218   */\n    tag_262:\n        /* \"#utility.yul\":18133:18144   */\n      0x00\n        /* \"#utility.yul\":18167:18173   */\n      dup3\n        /* \"#utility.yul\":18162:18165   */\n      dup3\n        /* \"#utility.yul\":18155:18174   */\n      mstore\n        /* \"#utility.yul\":18207:18211   */\n      0x20\n        /* \"#utility.yul\":18202:18205   */\n      dup3\n        /* \"#utility.yul\":18198:18212   */\n      add\n        /* \"#utility.yul\":18183:18212   */\n      swap1\n      pop\n        /* \"#utility.yul\":18049:18218   */\n      swap3\n      swap2\n      pop\n      pop\n      jump\t// out\n        /* \"#utility.yul\":18224:18320   */\n    tag_252:\n        /* \"#utility.yul\":18261:18268   */\n      0x00\n        /* \"#utility.yul\":18290:18314   */\n      tag_380\n        /* \"#utility.yul\":18308:18313   */\n      dup3\n        /* \"#utility.yul\":18290:18314   */\n      tag_381\n      jump\t// in\n    tag_380:\n        /* \"#utility.yul\":18279:18314   */\n      swap1\n      pop\n        /* \"#utility.yul\":18224:18320   */\n      swap2\n      swap1\n      pop\n      jump\t// out\n        /* \"#utility.yul\":18326:18452   */\n    tag_381:\n        /* \"#utility.yul\":18363:18370   */\n      0x00\n        /* \"#utility.yul\":18403:18445   */\n      0xffffffffffffffffffffffffffffffffffffffff\n        /* \"#utility.yul\":18396:18401   */\n      dup3\n        /* \"#utility.yul\":18392:18446   */\n      and\n        /* \"#utility.yul\":18381:18446   */\n      swap1\n      pop\n        /* \"#utility.yul\":18326:18452   */\n      swap2\n      swap1\n      pop\n      jump\t// out\n        /* \"#utility.yul\":18458:18535   */\n    tag_325:\n        /* \"#utility.yul\":18495:18502   */\n      0x00\n        /* \"#utility.yul\":18524:18529   */\n      dup2\n        /* \"#utility.yul\":18513:18529   */\n      swap1\n      pop\n        /* \"#utility.yul\":18458:18535   */\n      swap2\n      swap1\n      pop\n      jump\t// out\n        /* \"#utility.yul\":18541:18662   */\n    tag_256:\n        /* \"#utility.yul\":18599:18608   */\n      0x00\n        /* \"#utility.yul\":18632:18656   */\n      tag_385\n        /* \"#utility.yul\":18650:18655   */\n      dup3\n        /* \"#utility.yul\":18632:18656   */\n      tag_325\n      jump\t// in\n    tag_385:\n        /* \"#utility.yul\":18619:18656   */\n      swap1\n      pop\n        /* \"#utility.yul\":18541:18662   */\n      swap2\n      swap1\n      pop\n      jump\t// out\n        /* \"#utility.yul\":18668:18822   */\n    tag_202:\n        /* \"#utility.yul\":18752:18758   */\n      dup3\n        /* \"#utility.yul\":18747:18750   */\n      dup2\n        /* \"#utility.yul\":18742:18745   */\n      dup4\n        /* \"#utility.yul\":18729:18759   */\n      calldatacopy\n        /* \"#utility.yul\":18814:18815   */\n      0x00\n        /* \"#utility.yul\":18805:18811   */\n      dup4\n        /* \"#utility.yul\":18800:18803   */\n      dup4\n        /* \"#utility.yul\":18796:18812   */\n      add\n        /* \"#utility.yul\":18789:18816   */\n      mstore\n        /* \"#utility.yul\":18668:18822   */\n      pop\n      pop\n      pop\n      jump\t// out\n        /* \"#utility.yul\":18828:19135   */\n    tag_264:\n        /* \"#utility.yul\":18896:18897   */\n      0x00\n        /* \"#utility.yul\":18906:19019   */\n    tag_388:\n        /* \"#utility.yul\":18920:18926   */\n      dup4\n        /* \"#utility.yul\":18917:18918   */\n      dup2\n        /* \"#utility.yul\":18914:18927   */\n      lt\n        /* \"#utility.yul\":18906:19019   */\n      iszero\n      tag_390\n      jumpi\n        /* \"#utility.yul\":19005:19006   */\n      dup1\n        /* \"#utility.yul\":19000:19003   */\n      dup3\n        /* \"#utility.yul\":18996:19007   */\n      add\n        /* \"#utility.yul\":18990:19008   */\n      mload\n        /* \"#utility.yul\":18986:18987   */\n      dup2\n        /* \"#utility.yul\":18981:18984   */\n      dup5\n        /* \"#utility.yul\":18977:18988   */\n      add\n        /* \"#utility.yul\":18970:19009   */\n      mstore\n        /* \"#utility.yul\":18942:18944   */\n      0x20\n        /* \"#utility.yul\":18939:18940   */\n      dup2\n        /* \"#utility.yul\":18935:18945   */\n      add\n        /* \"#utility.yul\":18930:18945   */\n      swap1\n      pop\n        /* \"#utility.yul\":18906:19019   */\n      jump(tag_388)\n    tag_390:\n        /* \"#utility.yul\":19037:19043   */\n      dup4\n        /* \"#utility.yul\":19034:19035   */\n      dup2\n        /* \"#utility.yul\":19031:19044   */\n      gt\n        /* \"#utility.yul\":19028:19129   */\n      iszero\n      tag_391\n      jumpi\n        /* \"#utility.yul\":19117:19118   */\n      0x00\n        /* \"#utility.yul\":19108:19114   */\n      dup5\n        /* \"#utility.yul\":19103:19106   */\n      dup5\n        /* \"#utility.yul\":19099:19115   */\n      add\n        /* \"#utility.yul\":19092:19119   */\n      mstore\n        /* \"#utility.yul\":19028:19129   */\n    tag_391:\n        /* \"#utility.yul\":18877:19135   */\n      pop\n        /* \"#utility.yul\":18828:19135   */\n      pop\n      pop\n      pop\n      jump\t// out\n        /* \"#utility.yul\":19141:19461   */\n    tag_35:\n        /* \"#utility.yul\":19185:19191   */\n      0x00\n        /* \"#utility.yul\":19222:19223   */\n      0x02\n        /* \"#utility.yul\":19216:19220   */\n      dup3\n        /* \"#utility.yul\":19212:19224   */\n      div\n        /* \"#utility.yul\":19202:19224   */\n      swap1\n      pop\n        /* \"#utility.yul\":19269:19270   */\n      0x01\n        /* \"#utility.yul\":19263:19267   */\n      dup3\n        /* \"#utility.yul\":19259:19271   */\n      and\n        /* \"#utility.yul\":19290:19308   */\n      dup1\n        /* \"#utility.yul\":19280:19361   */\n      tag_393\n      jumpi\n        /* \"#utility.yul\":19346:19350   */\n      0x7f\n        /* \"#utility.yul\":19338:19344   */\n      dup3\n        /* \"#utility.yul\":19334:19351   */\n      and\n        /* \"#utility.yul\":19324:19351   */\n      swap2\n      pop\n        /* \"#utility.yul\":19280:19361   */\n    tag_393:\n        /* \"#utility.yul\":19408:19410   */\n      0x20\n        /* \"#utility.yul\":19400:19406   */\n      dup3\n        /* \"#utility.yul\":19397:19411   */\n      lt\n        /* \"#utility.yul\":19377:19395   */\n      dup2\n        /* \"#utility.yul\":19374:19412   */\n      eq\n        /* \"#utility.yul\":19371:19455   */\n      iszero\n      tag_394\n      jumpi\n        /* \"#utility.yul\":19427:19445   */\n      tag_395\n      tag_396\n      jump\t// in\n    tag_395:\n        /* \"#utility.yul\":19371:19455   */\n    tag_394:\n        /* \"#utility.yul\":19192:19461   */\n      pop\n        /* \"#utility.yul\":19141:19461   */\n      swap2\n      swap1\n      pop\n      jump\t// out\n        /* \"#utility.yul\":19467:19748   */\n    tag_364:\n        /* \"#utility.yul\":19550:19577   */\n      tag_398\n        /* \"#utility.yul\":19572:19576   */\n      dup3\n        /* \"#utility.yul\":19550:19577   */\n      tag_266\n      jump\t// in\n    tag_398:\n        /* \"#utility.yul\":19542:19548   */\n      dup2\n        /* \"#utility.yul\":19538:19578   */\n      add\n        /* \"#utility.yul\":19680:19686   */\n      dup2\n        /* \"#utility.yul\":19668:19678   */\n      dup2\n        /* \"#utility.yul\":19665:19687   */\n      lt\n        /* \"#utility.yul\":19644:19662   */\n      0xffffffffffffffff\n        /* \"#utility.yul\":19632:19642   */\n      dup3\n        /* \"#utility.yul\":19629:19663   */\n      gt\n        /* \"#utility.yul\":19626:19688   */\n      or\n        /* \"#utility.yul\":19623:19711   */\n      iszero\n      tag_399\n      jumpi\n        /* \"#utility.yul\":19691:19709   */\n      tag_400\n      tag_369\n      jump\t// in\n    tag_400:\n        /* \"#utility.yul\":19623:19711   */\n    tag_399:\n        /* \"#utility.yul\":19731:19741   */\n      dup1\n        /* \"#utility.yul\":19727:19729   */\n      0x40\n        /* \"#utility.yul\":19720:19742   */\n      mstore\n        /* \"#utility.yul\":19510:19748   */\n      pop\n        /* \"#utility.yul\":19467:19748   */\n      pop\n      pop\n      jump\t// out\n        /* \"#utility.yul\":19754:19987   */\n    tag_84:\n        /* \"#utility.yul\":19793:19796   */\n      0x00\n        /* \"#utility.yul\":19816:19840   */\n      tag_402\n        /* \"#utility.yul\":19834:19839   */\n      dup3\n        /* \"#utility.yul\":19816:19840   */\n      tag_325\n      jump\t// in\n    tag_402:\n        /* \"#utility.yul\":19807:19840   */\n      swap2\n      pop\n        /* \"#utility.yul\":19862:19928   */\n      0xffffffffffffffffffffffffffffffffffffffffffffffffffffffffffffffff\n        /* \"#utility.yul\":19855:19860   */\n      dup3\n        /* \"#utility.yul\":19852:19929   */\n      eq\n        /* \"#utility.yul\":19849:19952   */\n      iszero\n      tag_403\n      jumpi\n        /* \"#utility.yul\":19932:19950   */\n      tag_404\n      tag_405\n      jump\t// in\n    tag_404:\n        /* \"#utility.yul\":19849:19952   */\n    tag_403:\n        /* \"#utility.yul\":19979:19980   */\n      0x01\n        /* \"#utility.yul\":19972:19977   */\n      dup3\n        /* \"#utility.yul\":19968:19981   */\n      add\n        /* \"#utility.yul\":19961:19981   */\n      swap1\n      pop\n        /* \"#utility.yul\":19754:19987   */\n      swap2\n      swap1\n      pop\n      jump\t// out\n        /* \"#utility.yul\":19993:20173   */\n    tag_405:\n        /* \"#utility.yul\":20041:20118   */\n      0x4e487b7100000000000000000000000000000000000000000000000000000000\n        /* \"#utility.yul\":20038:20039   */\n      0x00\n        /* \"#utility.yul\":20031:20119   */\n      mstore\n        /* \"#utility.yul\":20138:20142   */\n      0x11\n        /* \"#utility.yul\":20135:20136   */\n      0x04\n        /* \"#utility.yul\":20128:20143   */\n      mstore\n        /* \"#utility.yul\":20162:20166   */\n      0x24\n        /* \"#utility.yul\":20159:20160   */\n      0x00\n        /* \"#utility.yul\":20152:20167   */\n      revert\n        /* \"#utility.yul\":20179:20359   */\n    tag_396:\n        /* \"#utility.yul\":20227:20304   */\n      0x4e487b7100000000000000000000000000000000000000000000000000000000\n        /* \"#utility.yul\":20224:20225   */\n      0x00\n        /* \"#utility.yul\":20217:20305   */\n      mstore\n        /* \"#utility.yul\":20324:20328   */\n      0x22\n        /* \"#utility.yul\":20321:20322   */\n      0x04\n        /* \"#utility.yul\":20314:20329   */\n      mstore\n        /* \"#utility.yul\":20348:20352   */\n      0x24\n        /* \"#utility.yul\":20345:20346   */\n      0x00\n        /* \"#utility.yul\":20338:20353   */\n      revert\n        /* \"#utility.yul\":20365:20545   */\n    tag_66:\n        /* \"#utility.yul\":20413:20490   */\n      0x4e487b7100000000000000000000000000000000000000000000000000000000\n        /* \"#utility.yul\":20410:20411   */\n      0x00\n        /* \"#utility.yul\":20403:20491   */\n      mstore\n        /* \"#utility.yul\":20510:20514   */\n      0x32\n        /* \"#utility.yul\":20507:20508   */\n      0x04\n        /* \"#utility.yul\":20500:20515   */\n      mstore\n        /* \"#utility.yul\":20534:20538   */\n      0x24\n        /* \"#utility.yul\":20531:20532   */\n      0x00\n        /* \"#utility.yul\":20524:20539   */\n      revert\n        /* \"#utility.yul\":20551:20731   */\n    tag_369:\n        /* \"#utility.yul\":20599:20676   */\n      0x4e487b7100000000000000000000000000000000000000000000000000000000\n        /* \"#utility.yul\":20596:20597   */\n      0x00\n        /* \"#utility.yul\":20589:20677   */\n      mstore\n        /* \"#utility.yul\":20696:20700   */\n      0x41\n        /* \"#utility.yul\":20693:20694   */\n      0x04\n        /* \"#utility.yul\":20686:20701   */\n      mstore\n        /* \"#utility.yul\":20720:20724   */\n      0x24\n        /* \"#utility.yul\":20717:20718   */\n      0x00\n        /* \"#utility.yul\":20710:20725   */\n      revert\n        /* \"#utility.yul\":20737:20854   */\n    tag_190:\n        /* \"#utility.yul\":20846:20847   */\n      0x00\n        /* \"#utility.yul\":20843:20844   */\n      dup1\n        /* \"#utility.yul\":20836:20848   */\n      revert\n        /* \"#utility.yul\":20860:20977   */\n    tag_172:\n        /* \"#utility.yul\":20969:20970   */\n      0x00\n        /* \"#utility.yul\":20966:20967   */\n      dup1\n        /* \"#utility.yul\":20959:20971   */\n      revert\n        /* \"#utility.yul\":20983:21100   */\n    tag_200:\n        /* \"#utility.yul\":21092:21093   */\n      0x00\n        /* \"#utility.yul\":21089:21090   */\n      dup1\n        /* \"#utility.yul\":21082:21094   */\n      revert\n        /* \"#utility.yul\":21106:21223   */\n    tag_234:\n        /* \"#utility.yul\":21215:21216   */\n      0x00\n        /* \"#utility.yul\":21212:21213   */\n      dup1\n        /* \"#utility.yul\":21205:21217   */\n      revert\n        /* \"#utility.yul\":21229:21346   */\n    tag_227:\n        /* \"#utility.yul\":21338:21339   */\n      0x00\n        /* \"#utility.yul\":21335:21336   */\n      dup1\n        /* \"#utility.yul\":21328:21340   */\n      revert\n        /* \"#utility.yul\":21352:21454   */\n    tag_266:\n        /* \"#utility.yul\":21393:21399   */\n      0x00\n        /* \"#utility.yul\":21444:21446   */\n      0x1f\n        /* \"#utility.yul\":21440:21447   */\n      not\n        /* \"#utility.yul\":21435:21437   */\n      0x1f\n        /* \"#utility.yul\":21428:21433   */\n      dup4\n        /* \"#utility.yul\":21424:21438   */\n      add\n        /* \"#utility.yul\":21420:21448   */\n      and\n        /* \"#utility.yul\":21410:21448   */\n      swap1\n      pop\n        /* \"#utility.yul\":21352:21454   */\n      swap2\n      swap1\n      pop\n      jump\t// out\n        /* \"#utility.yul\":21460:21630   */\n    tag_271:\n        /* \"#utility.yul\":21600:21622   */\n      0x4c656e67746820697320646966666572656e742e000000000000000000000000\n        /* \"#utility.yul\":21596:21597   */\n      0x00\n        /* \"#utility.yul\":21588:21594   */\n      dup3\n        /* \"#utility.yul\":21584:21598   */\n      add\n        /* \"#utility.yul\":21577:21623   */\n      mstore\n        /* \"#utility.yul\":21460:21630   */\n      pop\n      jump\t// out\n        /* \"#utility.yul\":21636:21810   */\n    tag_276:\n        /* \"#utility.yul\":21776:21802   */\n      0x566f7465722063616e27742062652070726f706f73616c2e0000000000000000\n        /* \"#utility.yul\":21772:21773   */\n      0x00\n        /* \"#utility.yul\":21764:21770   */\n      dup3\n        /* \"#utility.yul\":21760:21774   */\n      add\n        /* \"#utility.yul\":21753:21803   */\n      mstore\n        /* \"#utility.yul\":21636:21810   */\n      pop\n      jump\t// out\n        /* \"#utility.yul\":21816:21987   */\n    tag_281:\n        /* \"#utility.yul\":21956:21979   */\n      0x566f74696e6720686173206e6f7420656e6465642e0000000000000000000000\n        /* \"#utility.yul\":21952:21953   */\n      0x00\n        /* \"#utility.yul\":21944:21950   */\n      dup3\n        /* \"#utility.yul\":21940:21954   */\n      add\n        /* \"#utility.yul\":21933:21980   */\n      mstore\n        /* \"#utility.yul\":21816:21987   */\n      pop\n      jump\t// out\n        /* \"#utility.yul\":21993:22173   */\n    tag_286:\n        /* \"#utility.yul\":22133:22165   */\n      0x4368616972706572736f6e2063616e27742062652070726f706f73616c2e0000\n        /* \"#utility.yul\":22129:22130   */\n      0x00\n        /* \"#utility.yul\":22121:22127   */\n      dup3\n        /* \"#utility.yul\":22117:22131   */\n      add\n        /* \"#utility.yul\":22110:22166   */\n      mstore\n        /* \"#utility.yul\":21993:22173   */\n      pop\n      jump\t// out\n        /* \"#utility.yul\":22179:22346   */\n    tag_291:\n        /* \"#utility.yul\":22319:22338   */\n      0x566f74696e6720636f6d706c657465642e000000000000000000000000000000\n        /* \"#utility.yul\":22315:22316   */\n      0x00\n        /* \"#utility.yul\":22307:22313   */\n      dup3\n        /* \"#utility.yul\":22303:22317   */\n      add\n        /* \"#utility.yul\":22296:22339   */\n      mstore\n        /* \"#utility.yul\":22179:22346   */\n      pop\n      jump\t// out\n        /* \"#utility.yul\":22352:22522   */\n    tag_296:\n        /* \"#utility.yul\":22492:22514   */\n      0x566f74657220646f65736e27742065786973742e000000000000000000000000\n        /* \"#utility.yul\":22488:22489   */\n      0x00\n        /* \"#utility.yul\":22480:22486   */\n      dup3\n        /* \"#utility.yul\":22476:22490   */\n      add\n        /* \"#utility.yul\":22469:22515   */\n      mstore\n        /* \"#utility.yul\":22352:22522   */\n      pop\n      jump\t// out\n        /* \"#utility.yul\":22528:22698   */\n    tag_301:\n        /* \"#utility.yul\":22668:22690   */\n      0x566f74657220616c726561647920766f7465642e000000000000000000000000\n        /* \"#utility.yul\":22664:22665   */\n      0x00\n        /* \"#utility.yul\":22656:22662   */\n      dup3\n        /* \"#utility.yul\":22652:22666   */\n      add\n        /* \"#utility.yul\":22645:22691   */\n      mstore\n        /* \"#utility.yul\":22528:22698   */\n      pop\n      jump\t// out\n        /* \"#utility.yul\":22704:22878   */\n    tag_306:\n        /* \"#utility.yul\":22844:22870   */\n      0x50726f706f73616c2063616e277420626520766f7465722e0000000000000000\n        /* \"#utility.yul\":22840:22841   */\n      0x00\n        /* \"#utility.yul\":22832:22838   */\n      dup3\n        /* \"#utility.yul\":22828:22842   */\n      add\n        /* \"#utility.yul\":22821:22871   */\n      mstore\n        /* \"#utility.yul\":22704:22878   */\n      pop\n      jump\t// out\n        /* \"#utility.yul\":22884:23054   */\n    tag_311:\n        /* \"#utility.yul\":23024:23046   */\n      0x546f6b656e20646f65736e27742065786973742e000000000000000000000000\n        /* \"#utility.yul\":23020:23021   */\n      0x00\n        /* \"#utility.yul\":23012:23018   */\n      dup3\n        /* \"#utility.yul\":23008:23022   */\n      add\n        /* \"#utility.yul\":23001:23047   */\n      mstore\n        /* \"#utility.yul\":22884:23054   */\n      pop\n      jump\t// out\n        /* \"#utility.yul\":23060:23233   */\n    tag_316:\n        /* \"#utility.yul\":23200:23225   */\n      0x50726f706f73616c20646f65736e27742065786973742e000000000000000000\n        /* \"#utility.yul\":23196:23197   */\n      0x00\n        /* \"#utility.yul\":23188:23194   */\n      dup3\n        /* \"#utility.yul\":23184:23198   */\n      add\n        /* \"#utility.yul\":23177:23226   */\n      mstore\n        /* \"#utility.yul\":23060:23233   */\n      pop\n      jump\t// out\n        /* \"#utility.yul\":23239:23412   */\n    tag_321:\n        /* \"#utility.yul\":23379:23404   */\n      0x546869732069736e2774206368616972706572736f6e2e000000000000000000\n        /* \"#utility.yul\":23375:23376   */\n      0x00\n        /* \"#utility.yul\":23367:23373   */\n      dup3\n        /* \"#utility.yul\":23363:23377   */\n      add\n        /* \"#utility.yul\":23356:23405   */\n      mstore\n        /* \"#utility.yul\":23239:23412   */\n      pop\n      jump\t// out\n        /* \"#utility.yul\":23418:23540   */\n    tag_205:\n        /* \"#utility.yul\":23491:23515   */\n      tag_428\n        /* \"#utility.yul\":23509:23514   */\n      dup2\n        /* \"#utility.yul\":23491:23515   */\n      tag_252\n      jump\t// in\n    tag_428:\n        /* \"#utility.yul\":23484:23489   */\n      dup2\n        /* \"#utility.yul\":23481:23516   */\n      eq\n        /* \"#utility.yul\":23471:23534   */\n      tag_429\n      jumpi\n        /* \"#utility.yul\":23530:23531   */\n      0x00\n        /* \"#utility.yul\":23527:23528   */\n      dup1\n        /* \"#utility.yul\":23520:23532   */\n      revert\n        /* \"#utility.yul\":23471:23534   */\n    tag_429:\n        /* \"#utility.yul\":23418:23540   */\n      pop\n      jump\t// out\n        /* \"#utility.yul\":23546:23668   */\n    tag_223:\n        /* \"#utility.yul\":23619:23643   */\n      tag_431\n        /* \"#utility.yul\":23637:23642   */\n      dup2\n        /* \"#utility.yul\":23619:23643   */\n      tag_325\n      jump\t// in\n    tag_431:\n        /* \"#utility.yul\":23612:23617   */\n      dup2\n        /* \"#utility.yul\":23609:23644   */\n      eq\n        /* \"#utility.yul\":23599:23662   */\n      tag_432\n      jumpi\n        /* \"#utility.yul\":23658:23659   */\n      0x00\n        /* \"#utility.yul\":23655:23656   */\n      dup1\n        /* \"#utility.yul\":23648:23660   */\n      revert\n        /* \"#utility.yul\":23599:23662   */\n    tag_432:\n        /* \"#utility.yul\":23546:23668   */\n      pop\n      jump\t// out\n\n    auxdata: 0xa26469706673582212207bfd63e27af05b2d5ef8ec16a7fe75fc65681cf3e34f26b34b5f46b6ec8b08f464736f6c63430008070033\n}\n\nsub_1: assembly {\n        /* \"contracts/Token.sol\":99:241  contract Token is ERC20Standard {\r... */\n      mstore(0x40, 0x80)\n        /* \"contracts/Token.sol\":141:238  constructor() {\r... */\n      callvalue\n      dup1\n      iszero\n      tag_1\n      jumpi\n      0x00\n      dup1\n      revert\n    tag_1:\n      pop\n        /* \"contracts/Token.sol\":164:186  name = \"E-Voting coin\" */\n      mload(0x40)\n      dup1\n      0x40\n      add\n      0x40\n      mstore\n      dup1\n      0x0d\n      dup2\n      mstore\n      0x20\n      add\n      0x452d566f74696e6720636f696e00000000000000000000000000000000000000\n      dup2\n      mstore\n      pop\n        /* \"contracts/Token.sol\":164:168  name */\n      0x01\n        /* \"contracts/Token.sol\":164:186  name = \"E-Voting coin\" */\n      swap1\n      dup1\n      mload\n      swap1\n      0x20\n      add\n      swap1\n      tag_4\n      swap3\n      swap2\n      swap1\n      tag_5\n      jump\t// in\n    tag_4:\n      pop\n        /* \"contracts/Token.sol\":206:207  0 */\n      0x00\n        /* \"contracts/Token.sol\":195:203  decimals */\n      0x02\n      0x00\n        /* \"contracts/Token.sol\":195:207  decimals = 0 */\n      0x0100\n      exp\n      dup2\n      sload\n      dup2\n      0xff\n      mul\n      not\n      and\n      swap1\n      dup4\n      0xff\n      and\n      mul\n      or\n      swap1\n      sstore\n      pop\n        /* \"contracts/Token.sol\":216:230  symbol = \"EVC\" */\n      mload(0x40)\n      dup1\n      0x40\n      add\n      0x40\n      mstore\n      dup1\n      0x03\n      dup2\n      mstore\n      0x20\n      add\n      0x4556430000000000000000000000000000000000000000000000000000000000\n      dup2\n      mstore\n      pop\n        /* \"contracts/Token.sol\":216:222  symbol */\n      0x03\n        /* \"contracts/Token.sol\":216:230  symbol = \"EVC\" */\n      swap1\n      dup1\n      mload\n      swap1\n      0x20\n      add\n      swap1\n      tag_6\n      swap3\n      swap2\n      swap1\n      tag_5\n      jump\t// in\n    tag_6:\n      pop\n        /* \"contracts/Token.sol\":99:241  contract Token is ERC20Standard {\r... */\n      jump(tag_7)\n    tag_5:\n      dup3\n      dup1\n      sload\n      tag_8\n      swap1\n      tag_9\n      jump\t// in\n    tag_8:\n      swap1\n      0x00\n      mstore\n      keccak256(0x00, 0x20)\n      swap1\n      0x1f\n      add\n      0x20\n      swap1\n      div\n      dup2\n      add\n      swap3\n      dup3\n      tag_11\n      jumpi\n      0x00\n      dup6\n      sstore\n      jump(tag_10)\n    tag_11:\n      dup3\n      0x1f\n      lt\n      tag_12\n      jumpi\n      dup1\n      mload\n      not(0xff)\n      and\n      dup4\n      dup1\n      add\n      or\n      dup6\n      sstore\n      jump(tag_10)\n    tag_12:\n      dup3\n      dup1\n      add\n      0x01\n      add\n      dup6\n      sstore\n      dup3\n      iszero\n      tag_10\n      jumpi\n      swap2\n      dup3\n      add\n    tag_13:\n      dup3\n      dup2\n      gt\n      iszero\n      tag_14\n      jumpi\n      dup3\n      mload\n      dup3\n      sstore\n      swap2\n      0x20\n      add\n      swap2\n      swap1\n      0x01\n      add\n      swap1\n      jump(tag_13)\n    tag_14:\n    tag_10:\n      pop\n      swap1\n      pop\n      tag_15\n      swap2\n      swap1\n      tag_16\n      jump\t// in\n    tag_15:\n      pop\n      swap1\n      jump\t// out\n    tag_16:\n    tag_17:\n      dup1\n      dup3\n      gt\n      iszero\n      tag_18\n      jumpi\n      0x00\n      dup2\n      0x00\n      swap1\n      sstore\n      pop\n      0x01\n      add\n      jump(tag_17)\n    tag_18:\n      pop\n      swap1\n      jump\t// out\n        /* \"#utility.yul\":7:327   */\n    tag_9:\n        /* \"#utility.yul\":51:57   */\n      0x00\n        /* \"#utility.yul\":88:89   */\n      0x02\n        /* \"#utility.yul\":82:86   */\n      dup3\n        /* \"#utility.yul\":78:90   */\n      div\n        /* \"#utility.yul\":68:90   */\n      swap1\n      pop\n        /* \"#utility.yul\":135:136   */\n      0x01\n        /* \"#utility.yul\":129:133   */\n      dup3\n        /* \"#utility.yul\":125:137   */\n      and\n        /* \"#utility.yul\":156:174   */\n      dup1\n        /* \"#utility.yul\":146:227   */\n      tag_21\n      jumpi\n        /* \"#utility.yul\":212:216   */\n      0x7f\n        /* \"#utility.yul\":204:210   */\n      dup3\n        /* \"#utility.yul\":200:217   */\n      and\n        /* \"#utility.yul\":190:217   */\n      swap2\n      pop\n        /* \"#utility.yul\":146:227   */\n    tag_21:\n        /* \"#utility.yul\":274:276   */\n      0x20\n        /* \"#utility.yul\":266:272   */\n      dup3\n        /* \"#utility.yul\":263:277   */\n      lt\n        /* \"#utility.yul\":243:261   */\n      dup2\n        /* \"#utility.yul\":240:278   */\n      eq\n        /* \"#utility.yul\":237:321   */\n      iszero\n      tag_22\n      jumpi\n        /* \"#utility.yul\":293:311   */\n      tag_23\n      tag_24\n      jump\t// in\n    tag_23:\n        /* \"#utility.yul\":237:321   */\n    tag_22:\n        /* \"#utility.yul\":58:327   */\n      pop\n        /* \"#utility.yul\":7:327   */\n      swap2\n      swap1\n      pop\n      jump\t// out\n        /* \"#utility.yul\":333:513   */\n    tag_24:\n        /* \"#utility.yul\":381:458   */\n      0x4e487b7100000000000000000000000000000000000000000000000000000000\n        /* \"#utility.yul\":378:379   */\n      0x00\n        /* \"#utility.yul\":371:459   */\n      mstore\n        /* \"#utility.yul\":478:482   */\n      0x22\n        /* \"#utility.yul\":475:476   */\n      0x04\n        /* \"#utility.yul\":468:483   */\n      mstore\n        /* \"#utility.yul\":502:506   */\n      0x24\n        /* \"#utility.yul\":499:500   */\n      0x00\n        /* \"#utility.yul\":492:507   */\n      revert\n        /* \"contracts/Token.sol\":99:241  contract Token is ERC20Standard {\r... */\n    tag_7:\n      dataSize(sub_0)\n      dup1\n      dataOffset(sub_0)\n      0x00\n      codecopy\n      0x00\n      return\n    stop\n\n    sub_0: assembly {\n            /* \"contracts/Token.sol\":99:241  contract Token is ERC20Standard {\r... */\n          mstore(0x40, 0x80)\n          callvalue\n          dup1\n          iszero\n          tag_1\n          jumpi\n          0x00\n          dup1\n          revert\n        tag_1:\n          pop\n          jumpi(tag_2, lt(calldatasize, 0x04))\n          shr(0xe0, calldataload(0x00))\n          dup1\n          0x54fd4d50\n          gt\n          tag_15\n          jumpi\n          dup1\n          0x54fd4d50\n          eq\n          tag_9\n          jumpi\n          dup1\n          0x70a08231\n          eq\n          tag_10\n          jumpi\n          dup1\n          0x95d89b41\n          eq\n          tag_11\n          jumpi\n          dup1\n          0xa9059cbb\n          eq\n          tag_12\n          jumpi\n          dup1\n          0xc4e41b22\n          eq\n          tag_13\n          jumpi\n          dup1\n          0xdd62ed3e\n          eq\n          tag_14\n          jumpi\n          jump(tag_2)\n        tag_15:\n          dup1\n          0x06fdde03\n          eq\n          tag_3\n          jumpi\n          dup1\n          0x095ea7b3\n          eq\n          tag_4\n          jumpi\n          dup1\n          0x18160ddd\n          eq\n          tag_5\n          jumpi\n          dup1\n          0x23b872dd\n          eq\n          tag_6\n          jumpi\n          dup1\n          0x313ce567\n          eq\n          tag_7\n          jumpi\n          dup1\n          0x40c10f19\n          eq\n          tag_8\n          jumpi\n        tag_2:\n          0x00\n          dup1\n          revert\n            /* \"contracts/ERC20Standard.sol\":1005:1023  string public name */\n        tag_3:\n          tag_16\n          tag_17\n          jump\t// in\n        tag_16:\n          mload(0x40)\n          tag_18\n          swap2\n          swap1\n          tag_19\n          jump\t// in\n        tag_18:\n          mload(0x40)\n          dup1\n          swap2\n          sub\n          swap1\n          return\n            /* \"contracts/ERC20Standard.sol\":2732:2883  function approve(address _spender, uint _value) public {\r... */\n        tag_4:\n          tag_20\n          0x04\n          dup1\n          calldatasize\n          sub\n          dup2\n          add\n          swap1\n          tag_21\n          swap2\n          swap1\n          tag_22\n          jump\t// in\n        tag_21:\n          tag_23\n          jump\t// in\n        tag_20:\n          stop\n            /* \"contracts/ERC20Standard.sol\":975:998  uint public totalSupply */\n        tag_5:\n          tag_24\n          tag_25\n          jump\t// in\n        tag_24:\n          mload(0x40)\n          tag_26\n          swap2\n          swap1\n          tag_27\n          jump\t// in\n        tag_26:\n          mload(0x40)\n          dup1\n          swap2\n          sub\n          swap1\n          return\n            /* \"contracts/ERC20Standard.sol\":1879:2336  function transferFrom(address _from, address _to, uint _value) public {\r... */\n        tag_6:\n          tag_28\n          0x04\n          dup1\n          calldatasize\n          sub\n          dup2\n          add\n          swap1\n          tag_29\n          swap2\n          swap1\n          tag_30\n          jump\t// in\n        tag_29:\n          tag_31\n          jump\t// in\n        tag_28:\n          stop\n            /* \"contracts/ERC20Standard.sol\":1027:1048  uint8 public decimals */\n        tag_7:\n          tag_32\n          tag_33\n          jump\t// in\n        tag_32:\n          mload(0x40)\n          tag_34\n          swap2\n          swap1\n          tag_35\n          jump\t// in\n        tag_34:\n          mload(0x40)\n          dup1\n          swap2\n          sub\n          swap1\n          return\n            /* \"contracts/ERC20Standard.sol\":2341:2727  function mint(address account, uint256 amount) public {\r... */\n        tag_8:\n          tag_36\n          0x04\n          dup1\n          calldatasize\n          sub\n          dup2\n          add\n          swap1\n          tag_37\n          swap2\n          swap1\n          tag_22\n          jump\t// in\n        tag_37:\n          tag_38\n          jump\t// in\n        tag_36:\n          stop\n            /* \"contracts/ERC20Standard.sol\":1076:1097  string public version */\n        tag_9:\n          tag_39\n          tag_40\n          jump\t// in\n        tag_39:\n          mload(0x40)\n          tag_41\n          swap2\n          swap1\n          tag_19\n          jump\t// in\n        tag_41:\n          mload(0x40)\n          dup1\n          swap2\n          sub\n          swap1\n          return\n            /* \"contracts/ERC20Standard.sol\":1345:1448  function balanceOf(address _owner) public view returns (uint balance) {\r... */\n        tag_10:\n          tag_42\n          0x04\n          dup1\n          calldatasize\n          sub\n          dup2\n          add\n          swap1\n          tag_43\n          swap2\n          swap1\n          tag_44\n          jump\t// in\n        tag_43:\n          tag_45\n          jump\t// in\n        tag_42:\n          mload(0x40)\n          tag_46\n          swap2\n          swap1\n          tag_27\n          jump\t// in\n        tag_46:\n          mload(0x40)\n          dup1\n          swap2\n          sub\n          swap1\n          return\n            /* \"contracts/ERC20Standard.sol\":1052:1072  string public symbol */\n        tag_11:\n          tag_47\n          tag_48\n          jump\t// in\n        tag_47:\n          mload(0x40)\n          tag_49\n          swap2\n          swap1\n          tag_19\n          jump\t// in\n        tag_49:\n          mload(0x40)\n          dup1\n          swap2\n          sub\n          swap1\n          return\n            /* \"contracts/ERC20Standard.sol\":1539:1874  function transfer(address _recipient, uint _value) public onlyPayloadSize(2*32) {\r... */\n        tag_12:\n          tag_50\n          0x04\n          dup1\n          calldatasize\n          sub\n          dup2\n          add\n          swap1\n          tag_51\n          swap2\n          swap1\n          tag_22\n          jump\t// in\n        tag_51:\n          tag_52\n          jump\t// in\n        tag_50:\n          stop\n            /* \"contracts/ERC20Standard.sol\":1453:1534  function getTotalSupply() public view returns (uint) {\r... */\n        tag_13:\n          tag_53\n          tag_54\n          jump\t// in\n        tag_53:\n          mload(0x40)\n          tag_55\n          swap2\n          swap1\n          tag_27\n          jump\t// in\n        tag_55:\n          mload(0x40)\n          dup1\n          swap2\n          sub\n          swap1\n          return\n            /* \"contracts/ERC20Standard.sol\":2888:3018  function allowance(address _spender, address _owner) public view returns (uint balance) {\r... */\n        tag_14:\n          tag_56\n          0x04\n          dup1\n          calldatasize\n          sub\n          dup2\n          add\n          swap1\n          tag_57\n          swap2\n          swap1\n          tag_58\n          jump\t// in\n        tag_57:\n          tag_59\n          jump\t// in\n        tag_56:\n          mload(0x40)\n          tag_60\n          swap2\n          swap1\n          tag_27\n          jump\t// in\n        tag_60:\n          mload(0x40)\n          dup1\n          swap2\n          sub\n          swap1\n          return\n            /* \"contracts/ERC20Standard.sol\":1005:1023  string public name */\n        tag_17:\n          0x01\n          dup1\n          sload\n          tag_61\n          swap1\n          tag_62\n          jump\t// in\n        tag_61:\n          dup1\n          0x1f\n          add\n          0x20\n          dup1\n          swap2\n          div\n          mul\n          0x20\n          add\n          mload(0x40)\n          swap1\n          dup2\n          add\n          0x40\n          mstore\n          dup1\n          swap3\n          swap2\n          swap1\n          dup2\n          dup2\n          mstore\n          0x20\n          add\n          dup3\n          dup1\n          sload\n          tag_63\n          swap1\n          tag_62\n          jump\t// in\n        tag_63:\n          dup1\n          iszero\n          tag_64\n          jumpi\n          dup1\n          0x1f\n          lt\n          tag_65\n          jumpi\n          0x0100\n          dup1\n          dup4\n          sload\n          div\n          mul\n          dup4\n          mstore\n          swap2\n          0x20\n          add\n          swap2\n          jump(tag_64)\n        tag_65:\n          dup3\n          add\n          swap2\n          swap1\n          0x00\n          mstore\n          keccak256(0x00, 0x20)\n          swap1\n        tag_66:\n          dup2\n          sload\n          dup2\n          mstore\n          swap1\n          0x01\n          add\n          swap1\n          0x20\n          add\n          dup1\n          dup4\n          gt\n          tag_66\n          jumpi\n          dup3\n          swap1\n          sub\n          0x1f\n          and\n          dup3\n          add\n          swap2\n        tag_64:\n          pop\n          pop\n          pop\n          pop\n          pop\n          dup2\n          jump\t// out\n            /* \"contracts/ERC20Standard.sol\":2732:2883  function approve(address _spender, uint _value) public {\r... */\n        tag_23:\n            /* \"contracts/ERC20Standard.sol\":2824:2830  _value */\n          dup1\n            /* \"contracts/ERC20Standard.sol\":2792:2799  allowed */\n          0x06\n            /* \"contracts/ERC20Standard.sol\":2792:2811  allowed[msg.sender] */\n          0x00\n            /* \"contracts/ERC20Standard.sol\":2800:2810  msg.sender */\n          caller\n            /* \"contracts/ERC20Standard.sol\":2792:2811  allowed[msg.sender] */\n          0xffffffffffffffffffffffffffffffffffffffff\n          and\n          0xffffffffffffffffffffffffffffffffffffffff\n          and\n          dup2\n          mstore\n          0x20\n          add\n          swap1\n          dup2\n          mstore\n          0x20\n          add\n          0x00\n          keccak256\n            /* \"contracts/ERC20Standard.sol\":2792:2821  allowed[msg.sender][_spender] */\n          0x00\n            /* \"contracts/ERC20Standard.sol\":2812:2820  _spender */\n          dup5\n            /* \"contracts/ERC20Standard.sol\":2792:2821  allowed[msg.sender][_spender] */\n          0xffffffffffffffffffffffffffffffffffffffff\n          and\n          0xffffffffffffffffffffffffffffffffffffffff\n          and\n          dup2\n          mstore\n          0x20\n          add\n          swap1\n          dup2\n          mstore\n          0x20\n          add\n          0x00\n          keccak256\n            /* \"contracts/ERC20Standard.sol\":2792:2830  allowed[msg.sender][_spender] = _value */\n          dup2\n          swap1\n          sstore\n          pop\n            /* \"contracts/ERC20Standard.sol\":2861:2869  _spender */\n          dup2\n            /* \"contracts/ERC20Standard.sol\":2840:2878  Approval(msg.sender, _spender, _value) */\n          0xffffffffffffffffffffffffffffffffffffffff\n          and\n            /* \"contracts/ERC20Standard.sol\":2849:2859  msg.sender */\n          caller\n            /* \"contracts/ERC20Standard.sol\":2840:2878  Approval(msg.sender, _spender, _value) */\n          0xffffffffffffffffffffffffffffffffffffffff\n          and\n          0x8c5be1e5ebec7d5bd14f71427d1e84f3dd0314c0f7b2291e5b200ac8c7c3b925\n            /* \"contracts/ERC20Standard.sol\":2871:2877  _value */\n          dup4\n            /* \"contracts/ERC20Standard.sol\":2840:2878  Approval(msg.sender, _spender, _value) */\n          mload(0x40)\n          tag_68\n          swap2\n          swap1\n          tag_27\n          jump\t// in\n        tag_68:\n          mload(0x40)\n          dup1\n          swap2\n          sub\n          swap1\n          log3\n            /* \"contracts/ERC20Standard.sol\":2732:2883  function approve(address _spender, uint _value) public {\r... */\n          pop\n          pop\n          jump\t// out\n            /* \"contracts/ERC20Standard.sol\":975:998  uint public totalSupply */\n        tag_25:\n          sload(0x00)\n          dup2\n          jump\t// out\n            /* \"contracts/ERC20Standard.sol\":1879:2336  function transferFrom(address _from, address _to, uint _value) public {\r... */\n        tag_31:\n            /* \"contracts/ERC20Standard.sol\":1971:1972  0 */\n          0x00\n            /* \"contracts/ERC20Standard.sol\":1962:1968  _value */\n          dup2\n            /* \"contracts/ERC20Standard.sol\":1962:1972  _value > 0 */\n          gt\n            /* \"contracts/ERC20Standard.sol\":1954:1988  require(_value > 0, \"Amount <= 0\") */\n          tag_70\n          jumpi\n          mload(0x40)\n          0x08c379a000000000000000000000000000000000000000000000000000000000\n          dup2\n          mstore\n          0x04\n          add\n          tag_71\n          swap1\n          tag_72\n          jump\t// in\n        tag_71:\n          mload(0x40)\n          dup1\n          swap2\n          sub\n          swap1\n          revert\n        tag_70:\n            /* \"contracts/ERC20Standard.sol\":2023:2029  _value */\n          dup1\n            /* \"contracts/ERC20Standard.sol\":2004:2012  balances */\n          0x05\n            /* \"contracts/ERC20Standard.sol\":2004:2019  balances[_from] */\n          0x00\n            /* \"contracts/ERC20Standard.sol\":2013:2018  _from */\n          dup6\n            /* \"contracts/ERC20Standard.sol\":2004:2019  balances[_from] */\n          0xffffffffffffffffffffffffffffffffffffffff\n          and\n          0xffffffffffffffffffffffffffffffffffffffff\n          and\n          dup2\n          mstore\n          0x20\n          add\n          swap1\n          dup2\n          mstore\n          0x20\n          add\n          0x00\n          keccak256\n          sload\n            /* \"contracts/ERC20Standard.sol\":2004:2029  balances[_from] >= _value */\n          lt\n          iszero\n            /* \"contracts/ERC20Standard.sol\":1996:2050  require(balances[_from] >= _value, \"Balance < amount\") */\n          tag_73\n          jumpi\n          mload(0x40)\n          0x08c379a000000000000000000000000000000000000000000000000000000000\n          dup2\n          mstore\n          0x04\n          add\n          tag_74\n          swap1\n          tag_75\n          jump\t// in\n        tag_74:\n          mload(0x40)\n          dup1\n          swap2\n          sub\n          swap1\n          revert\n        tag_73:\n            /* \"contracts/ERC20Standard.sol\":2093:2099  _value */\n          dup1\n            /* \"contracts/ERC20Standard.sol\":2063:2070  allowed */\n          0x06\n            /* \"contracts/ERC20Standard.sol\":2063:2077  allowed[_from] */\n          0x00\n            /* \"contracts/ERC20Standard.sol\":2071:2076  _from */\n          dup6\n            /* \"contracts/ERC20Standard.sol\":2063:2077  allowed[_from] */\n          0xffffffffffffffffffffffffffffffffffffffff\n          and\n          0xffffffffffffffffffffffffffffffffffffffff\n          and\n          dup2\n          mstore\n          0x20\n          add\n          swap1\n          dup2\n          mstore\n          0x20\n          add\n          0x00\n          keccak256\n            /* \"contracts/ERC20Standard.sol\":2063:2089  allowed[_from][msg.sender] */\n          0x00\n            /* \"contracts/ERC20Standard.sol\":2078:2088  msg.sender */\n          caller\n            /* \"contracts/ERC20Standard.sol\":2063:2089  allowed[_from][msg.sender] */\n          0xffffffffffffffffffffffffffffffffffffffff\n          and\n          0xffffffffffffffffffffffffffffffffffffffff\n          and\n          dup2\n          mstore\n          0x20\n          add\n          swap1\n          dup2\n          mstore\n          0x20\n          add\n          0x00\n          keccak256\n          sload\n            /* \"contracts/ERC20Standard.sol\":2063:2099  allowed[_from][msg.sender] >= _value */\n          lt\n          iszero\n            /* \"contracts/ERC20Standard.sol\":2055:2118  require(allowed[_from][msg.sender] >= _value, \"Don't allowed.\") */\n          tag_76\n          jumpi\n          mload(0x40)\n          0x08c379a000000000000000000000000000000000000000000000000000000000\n          dup2\n          mstore\n          0x04\n          add\n          tag_77\n          swap1\n          tag_78\n          jump\t// in\n        tag_77:\n          mload(0x40)\n          dup1\n          swap2\n          sub\n          swap1\n          revert\n        tag_76:\n            /* \"contracts/ERC20Standard.sol\":2139:2164  balances[_to].add(_value) */\n          tag_79\n            /* \"contracts/ERC20Standard.sol\":2157:2163  _value */\n          dup2\n            /* \"contracts/ERC20Standard.sol\":2139:2147  balances */\n          0x05\n            /* \"contracts/ERC20Standard.sol\":2139:2152  balances[_to] */\n          0x00\n            /* \"contracts/ERC20Standard.sol\":2148:2151  _to */\n          dup6\n            /* \"contracts/ERC20Standard.sol\":2139:2152  balances[_to] */\n          0xffffffffffffffffffffffffffffffffffffffff\n          and\n          0xffffffffffffffffffffffffffffffffffffffff\n          and\n          dup2\n          mstore\n          0x20\n          add\n          swap1\n          dup2\n          mstore\n          0x20\n          add\n          0x00\n          keccak256\n          sload\n            /* \"contracts/ERC20Standard.sol\":2139:2156  balances[_to].add */\n          tag_80\n          swap1\n            /* \"contracts/ERC20Standard.sol\":2139:2164  balances[_to].add(_value) */\n          swap2\n          swap1\n          0xffffffff\n          and\n          jump\t// in\n        tag_79:\n            /* \"contracts/ERC20Standard.sol\":2123:2131  balances */\n          0x05\n            /* \"contracts/ERC20Standard.sol\":2123:2136  balances[_to] */\n          0x00\n            /* \"contracts/ERC20Standard.sol\":2132:2135  _to */\n          dup5\n            /* \"contracts/ERC20Standard.sol\":2123:2136  balances[_to] */\n          0xffffffffffffffffffffffffffffffffffffffff\n          and\n          0xffffffffffffffffffffffffffffffffffffffff\n          and\n          dup2\n          mstore\n          0x20\n          add\n          swap1\n          dup2\n          mstore\n          0x20\n          add\n          0x00\n          keccak256\n            /* \"contracts/ERC20Standard.sol\":2123:2164  balances[_to] = balances[_to].add(_value) */\n          dup2\n          swap1\n          sstore\n          pop\n            /* \"contracts/ERC20Standard.sol\":2187:2214  balances[_from].sub(_value) */\n          tag_81\n            /* \"contracts/ERC20Standard.sol\":2207:2213  _value */\n          dup2\n            /* \"contracts/ERC20Standard.sol\":2187:2195  balances */\n          0x05\n            /* \"contracts/ERC20Standard.sol\":2187:2202  balances[_from] */\n          0x00\n            /* \"contracts/ERC20Standard.sol\":2196:2201  _from */\n          dup7\n            /* \"contracts/ERC20Standard.sol\":2187:2202  balances[_from] */\n          0xffffffffffffffffffffffffffffffffffffffff\n          and\n          0xffffffffffffffffffffffffffffffffffffffff\n          and\n          dup2\n          mstore\n          0x20\n          add\n          swap1\n          dup2\n          mstore\n          0x20\n          add\n          0x00\n          keccak256\n          sload\n            /* \"contracts/ERC20Standard.sol\":2187:2206  balances[_from].sub */\n          tag_82\n          swap1\n            /* \"contracts/ERC20Standard.sol\":2187:2214  balances[_from].sub(_value) */\n          swap2\n          swap1\n          0xffffffff\n          and\n          jump\t// in\n        tag_81:\n            /* \"contracts/ERC20Standard.sol\":2169:2177  balances */\n          0x05\n            /* \"contracts/ERC20Standard.sol\":2169:2184  balances[_from] */\n          0x00\n            /* \"contracts/ERC20Standard.sol\":2178:2183  _from */\n          dup6\n            /* \"contracts/ERC20Standard.sol\":2169:2184  balances[_from] */\n          0xffffffffffffffffffffffffffffffffffffffff\n          and\n          0xffffffffffffffffffffffffffffffffffffffff\n          and\n          dup2\n          mstore\n          0x20\n          add\n          swap1\n          dup2\n          mstore\n          0x20\n          add\n          0x00\n          keccak256\n            /* \"contracts/ERC20Standard.sol\":2169:2214  balances[_from] = balances[_from].sub(_value) */\n          dup2\n          swap1\n          sstore\n          pop\n            /* \"contracts/ERC20Standard.sol\":2248:2286  allowed[_from][msg.sender].sub(_value) */\n          tag_83\n            /* \"contracts/ERC20Standard.sol\":2279:2285  _value */\n          dup2\n            /* \"contracts/ERC20Standard.sol\":2248:2255  allowed */\n          0x06\n            /* \"contracts/ERC20Standard.sol\":2248:2262  allowed[_from] */\n          0x00\n            /* \"contracts/ERC20Standard.sol\":2256:2261  _from */\n          dup7\n            /* \"contracts/ERC20Standard.sol\":2248:2262  allowed[_from] */\n          0xffffffffffffffffffffffffffffffffffffffff\n          and\n          0xffffffffffffffffffffffffffffffffffffffff\n          and\n          dup2\n          mstore\n          0x20\n          add\n          swap1\n          dup2\n          mstore\n          0x20\n          add\n          0x00\n          keccak256\n            /* \"contracts/ERC20Standard.sol\":2248:2274  allowed[_from][msg.sender] */\n          0x00\n            /* \"contracts/ERC20Standard.sol\":2263:2273  msg.sender */\n          caller\n            /* \"contracts/ERC20Standard.sol\":2248:2274  allowed[_from][msg.sender] */\n          0xffffffffffffffffffffffffffffffffffffffff\n          and\n          0xffffffffffffffffffffffffffffffffffffffff\n          and\n          dup2\n          mstore\n          0x20\n          add\n          swap1\n          dup2\n          mstore\n          0x20\n          add\n          0x00\n          keccak256\n          sload\n            /* \"contracts/ERC20Standard.sol\":2248:2278  allowed[_from][msg.sender].sub */\n          tag_82\n          swap1\n            /* \"contracts/ERC20Standard.sol\":2248:2286  allowed[_from][msg.sender].sub(_value) */\n          swap2\n          swap1\n          0xffffffff\n          and\n          jump\t// in\n        tag_83:\n            /* \"contracts/ERC20Standard.sol\":2219:2226  allowed */\n          0x06\n            /* \"contracts/ERC20Standard.sol\":2219:2233  allowed[_from] */\n          0x00\n            /* \"contracts/ERC20Standard.sol\":2227:2232  _from */\n          dup6\n            /* \"contracts/ERC20Standard.sol\":2219:2233  allowed[_from] */\n          0xffffffffffffffffffffffffffffffffffffffff\n          and\n          0xffffffffffffffffffffffffffffffffffffffff\n          and\n          dup2\n          mstore\n          0x20\n          add\n          swap1\n          dup2\n          mstore\n          0x20\n          add\n          0x00\n          keccak256\n            /* \"contracts/ERC20Standard.sol\":2219:2245  allowed[_from][msg.sender] */\n          0x00\n            /* \"contracts/ERC20Standard.sol\":2234:2244  msg.sender */\n          caller\n            /* \"contracts/ERC20Standard.sol\":2219:2245  allowed[_from][msg.sender] */\n          0xffffffffffffffffffffffffffffffffffffffff\n          and\n          0xffffffffffffffffffffffffffffffffffffffff\n          and\n          dup2\n          mstore\n          0x20\n          add\n          swap1\n          dup2\n          mstore\n          0x20\n          add\n          0x00\n          keccak256\n            /* \"contracts/ERC20Standard.sol\":2219:2286  allowed[_from][msg.sender] = allowed[_from][msg.sender].sub(_value) */\n          dup2\n          swap1\n          sstore\n          pop\n            /* \"contracts/ERC20Standard.sol\":2312:2315  _to */\n          dup2\n            /* \"contracts/ERC20Standard.sol\":2296:2324  Transfer(_from, _to, _value) */\n          0xffffffffffffffffffffffffffffffffffffffff\n          and\n            /* \"contracts/ERC20Standard.sol\":2305:2310  _from */\n          dup4\n            /* \"contracts/ERC20Standard.sol\":2296:2324  Transfer(_from, _to, _value) */\n          0xffffffffffffffffffffffffffffffffffffffff\n          and\n          0xddf252ad1be2c89b69c2b068fc378daa952ba7f163c4a11628f55a4df523b3ef\n            /* \"contracts/ERC20Standard.sol\":2317:2323  _value */\n          dup4\n            /* \"contracts/ERC20Standard.sol\":2296:2324  Transfer(_from, _to, _value) */\n          mload(0x40)\n          tag_84\n          swap2\n          swap1\n          tag_27\n          jump\t// in\n        tag_84:\n          mload(0x40)\n          dup1\n          swap2\n          sub\n          swap1\n          log3\n            /* \"contracts/ERC20Standard.sol\":1879:2336  function transferFrom(address _from, address _to, uint _value) public {\r... */\n          pop\n          pop\n          pop\n          jump\t// out\n            /* \"contracts/ERC20Standard.sol\":1027:1048  uint8 public decimals */\n        tag_33:\n          0x02\n          0x00\n          swap1\n          sload\n          swap1\n          0x0100\n          exp\n          swap1\n          div\n          0xff\n          and\n          dup2\n          jump\t// out\n            /* \"contracts/ERC20Standard.sol\":2341:2727  function mint(address account, uint256 amount) public {\r... */\n        tag_38:\n            /* \"contracts/ERC20Standard.sol\":2433:2434  0 */\n          0x00\n            /* \"contracts/ERC20Standard.sol\":2414:2435  account != address(0) */\n          0xffffffffffffffffffffffffffffffffffffffff\n          and\n            /* \"contracts/ERC20Standard.sol\":2414:2421  account */\n          dup3\n            /* \"contracts/ERC20Standard.sol\":2414:2435  account != address(0) */\n          0xffffffffffffffffffffffffffffffffffffffff\n          and\n          eq\n          iszero\n            /* \"contracts/ERC20Standard.sol\":2406:2471  require(account != address(0), \"ERC20: mint to the zero address\") */\n          tag_86\n          jumpi\n          mload(0x40)\n          0x08c379a000000000000000000000000000000000000000000000000000000000\n          dup2\n          mstore\n          0x04\n          add\n          tag_87\n          swap1\n          tag_88\n          jump\t// in\n        tag_87:\n          mload(0x40)\n          dup1\n          swap2\n          sub\n          swap1\n          revert\n        tag_86:\n            /* \"contracts/ERC20Standard.sol\":2484:2533  _beforeTokenTransfer(address(0), account, amount) */\n          tag_89\n            /* \"contracts/ERC20Standard.sol\":2513:2514  0 */\n          0x00\n            /* \"contracts/ERC20Standard.sol\":2517:2524  account */\n          dup4\n            /* \"contracts/ERC20Standard.sol\":2526:2532  amount */\n          dup4\n            /* \"contracts/ERC20Standard.sol\":2484:2504  _beforeTokenTransfer */\n          tag_90\n            /* \"contracts/ERC20Standard.sol\":2484:2533  _beforeTokenTransfer(address(0), account, amount) */\n          jump\t// in\n        tag_89:\n            /* \"contracts/ERC20Standard.sol\":2561:2567  amount */\n          dup1\n            /* \"contracts/ERC20Standard.sol\":2546:2557  totalSupply */\n          0x00\n          dup1\n            /* \"contracts/ERC20Standard.sol\":2546:2567  totalSupply += amount */\n          dup3\n          dup3\n          sload\n          tag_91\n          swap2\n          swap1\n          tag_92\n          jump\t// in\n        tag_91:\n          swap3\n          pop\n          pop\n          dup2\n          swap1\n          sstore\n          pop\n            /* \"contracts/ERC20Standard.sol\":2599:2605  amount */\n          dup1\n            /* \"contracts/ERC20Standard.sol\":2578:2586  balances */\n          0x05\n            /* \"contracts/ERC20Standard.sol\":2578:2595  balances[account] */\n          0x00\n            /* \"contracts/ERC20Standard.sol\":2587:2594  account */\n          dup5\n            /* \"contracts/ERC20Standard.sol\":2578:2595  balances[account] */\n          0xffffffffffffffffffffffffffffffffffffffff\n          and\n          0xffffffffffffffffffffffffffffffffffffffff\n          and\n          dup2\n          mstore\n          0x20\n          add\n          swap1\n          dup2\n          mstore\n          0x20\n          add\n          0x00\n          keccak256\n          0x00\n            /* \"contracts/ERC20Standard.sol\":2578:2605  balances[account] += amount */\n          dup3\n          dup3\n          sload\n          tag_93\n          swap2\n          swap1\n          tag_92\n          jump\t// in\n        tag_93:\n          swap3\n          pop\n          pop\n          dup2\n          swap1\n          sstore\n          pop\n            /* \"contracts/ERC20Standard.sol\":2642:2649  account */\n          dup2\n            /* \"contracts/ERC20Standard.sol\":2621:2658  Transfer(address(0), account, amount) */\n          0xffffffffffffffffffffffffffffffffffffffff\n          and\n            /* \"contracts/ERC20Standard.sol\":2638:2639  0 */\n          0x00\n            /* \"contracts/ERC20Standard.sol\":2621:2658  Transfer(address(0), account, amount) */\n          0xffffffffffffffffffffffffffffffffffffffff\n          and\n          0xddf252ad1be2c89b69c2b068fc378daa952ba7f163c4a11628f55a4df523b3ef\n            /* \"contracts/ERC20Standard.sol\":2651:2657  amount */\n          dup4\n            /* \"contracts/ERC20Standard.sol\":2621:2658  Transfer(address(0), account, amount) */\n          mload(0x40)\n          tag_94\n          swap2\n          swap1\n          tag_27\n          jump\t// in\n        tag_94:\n          mload(0x40)\n          dup1\n          swap2\n          sub\n          swap1\n          log3\n            /* \"contracts/ERC20Standard.sol\":2671:2719  _afterTokenTransfer(address(0), account, amount) */\n          tag_95\n            /* \"contracts/ERC20Standard.sol\":2699:2700  0 */\n          0x00\n            /* \"contracts/ERC20Standard.sol\":2703:2710  account */\n          dup4\n            /* \"contracts/ERC20Standard.sol\":2712:2718  amount */\n          dup4\n            /* \"contracts/ERC20Standard.sol\":2671:2690  _afterTokenTransfer */\n          tag_96\n            /* \"contracts/ERC20Standard.sol\":2671:2719  _afterTokenTransfer(address(0), account, amount) */\n          jump\t// in\n        tag_95:\n            /* \"contracts/ERC20Standard.sol\":2341:2727  function mint(address account, uint256 amount) public {\r... */\n          pop\n          pop\n          jump\t// out\n            /* \"contracts/ERC20Standard.sol\":1076:1097  string public version */\n        tag_40:\n          0x04\n          dup1\n          sload\n          tag_97\n          swap1\n          tag_62\n          jump\t// in\n        tag_97:\n          dup1\n          0x1f\n          add\n          0x20\n          dup1\n          swap2\n          div\n          mul\n          0x20\n          add\n          mload(0x40)\n          swap1\n          dup2\n          add\n          0x40\n          mstore\n          dup1\n          swap3\n          swap2\n          swap1\n          dup2\n          dup2\n          mstore\n          0x20\n          add\n          dup3\n          dup1\n          sload\n          tag_98\n          swap1\n          tag_62\n          jump\t// in\n        tag_98:\n          dup1\n          iszero\n          tag_99\n          jumpi\n          dup1\n          0x1f\n          lt\n          tag_100\n          jumpi\n          0x0100\n          dup1\n          dup4\n          sload\n          div\n          mul\n          dup4\n          mstore\n          swap2\n          0x20\n          add\n          swap2\n          jump(tag_99)\n        tag_100:\n          dup3\n          add\n          swap2\n          swap1\n          0x00\n          mstore\n          keccak256(0x00, 0x20)\n          swap1\n        tag_101:\n          dup2\n          sload\n          dup2\n          mstore\n          swap1\n          0x01\n          add\n          swap1\n          0x20\n          add\n          dup1\n          dup4\n          gt\n          tag_101\n          jumpi\n          dup3\n          swap1\n          sub\n          0x1f\n          and\n          dup3\n          add\n          swap2\n        tag_99:\n          pop\n          pop\n          pop\n          pop\n          pop\n          dup2\n          jump\t// out\n            /* \"contracts/ERC20Standard.sol\":1345:1448  function balanceOf(address _owner) public view returns (uint balance) {\r... */\n        tag_45:\n            /* \"contracts/ERC20Standard.sol\":1401:1413  uint balance */\n          0x00\n            /* \"contracts/ERC20Standard.sol\":1427:1435  balances */\n          0x05\n            /* \"contracts/ERC20Standard.sol\":1427:1443  balances[_owner] */\n          0x00\n            /* \"contracts/ERC20Standard.sol\":1436:1442  _owner */\n          dup4\n            /* \"contracts/ERC20Standard.sol\":1427:1443  balances[_owner] */\n          0xffffffffffffffffffffffffffffffffffffffff\n          and\n          0xffffffffffffffffffffffffffffffffffffffff\n          and\n          dup2\n          mstore\n          0x20\n          add\n          swap1\n          dup2\n          mstore\n          0x20\n          add\n          0x00\n          keccak256\n          sload\n            /* \"contracts/ERC20Standard.sol\":1420:1443  return balances[_owner] */\n          swap1\n          pop\n            /* \"contracts/ERC20Standard.sol\":1345:1448  function balanceOf(address _owner) public view returns (uint balance) {\r... */\n          swap2\n          swap1\n          pop\n          jump\t// out\n            /* \"contracts/ERC20Standard.sol\":1052:1072  string public symbol */\n        tag_48:\n          0x03\n          dup1\n          sload\n          tag_103\n          swap1\n          tag_62\n          jump\t// in\n        tag_103:\n          dup1\n          0x1f\n          add\n          0x20\n          dup1\n          swap2\n          div\n          mul\n          0x20\n          add\n          mload(0x40)\n          swap1\n          dup2\n          add\n          0x40\n          mstore\n          dup1\n          swap3\n          swap2\n          swap1\n          dup2\n          dup2\n          mstore\n          0x20\n          add\n          dup3\n          dup1\n          sload\n          tag_104\n          swap1\n          tag_62\n          jump\t// in\n        tag_104:\n          dup1\n          iszero\n          tag_105\n          jumpi\n          dup1\n          0x1f\n          lt\n          tag_106\n          jumpi\n          0x0100\n          dup1\n          dup4\n          sload\n          div\n          mul\n          dup4\n          mstore\n          swap2\n          0x20\n          add\n          swap2\n          jump(tag_105)\n        tag_106:\n          dup3\n          add\n          swap2\n          swap1\n          0x00\n          mstore\n          keccak256(0x00, 0x20)\n          swap1\n        tag_107:\n          dup2\n          sload\n          dup2\n          mstore\n          swap1\n          0x01\n          add\n          swap1\n          0x20\n          add\n          dup1\n          dup4\n          gt\n          tag_107\n          jumpi\n          dup3\n          swap1\n          sub\n          0x1f\n          and\n          dup3\n          add\n          swap2\n        tag_105:\n          pop\n          pop\n          pop\n          pop\n          pop\n          dup2\n          jump\t// out\n            /* \"contracts/ERC20Standard.sol\":1539:1874  function transfer(address _recipient, uint _value) public onlyPayloadSize(2*32) {\r... */\n        tag_52:\n            /* \"contracts/ERC20Standard.sol\":1613:1617  2*32 */\n          0x40\n            /* \"contracts/ERC20Standard.sol\":1326:1327  4 */\n          0x04\n            /* \"contracts/ERC20Standard.sol\":1319:1323  size */\n          dup2\n            /* \"contracts/ERC20Standard.sol\":1319:1327  size + 4 */\n          tag_109\n          swap2\n          swap1\n          tag_92\n          jump\t// in\n        tag_109:\n            /* \"contracts/ERC20Standard.sol\":1300:1308  msg.data */\n          0x00\n          calldatasize\n            /* \"contracts/ERC20Standard.sol\":1300:1315  msg.data.length */\n          swap1\n          pop\n            /* \"contracts/ERC20Standard.sol\":1300:1327  msg.data.length == size + 4 */\n          eq\n            /* \"contracts/ERC20Standard.sol\":1293:1328  assert(msg.data.length == size + 4) */\n          tag_110\n          jumpi\n          tag_111\n          tag_112\n          jump\t// in\n        tag_111:\n        tag_110:\n            /* \"contracts/ERC20Standard.sol\":1641:1642  0 */\n          0x00\n            /* \"contracts/ERC20Standard.sol\":1632:1638  _value */\n          dup3\n            /* \"contracts/ERC20Standard.sol\":1632:1642  _value > 0 */\n          gt\n            /* \"contracts/ERC20Standard.sol\":1624:1658  require(_value > 0, \"Amount <= 0\") */\n          tag_114\n          jumpi\n          mload(0x40)\n          0x08c379a000000000000000000000000000000000000000000000000000000000\n          dup2\n          mstore\n          0x04\n          add\n          tag_115\n          swap1\n          tag_72\n          jump\t// in\n        tag_115:\n          mload(0x40)\n          dup1\n          swap2\n          sub\n          swap1\n          revert\n        tag_114:\n            /* \"contracts/ERC20Standard.sol\":1691:1737  balances[msg.sender].sub(balances[msg.sender]) */\n          tag_116\n            /* \"contracts/ERC20Standard.sol\":1716:1724  balances */\n          0x05\n            /* \"contracts/ERC20Standard.sol\":1716:1736  balances[msg.sender] */\n          0x00\n            /* \"contracts/ERC20Standard.sol\":1725:1735  msg.sender */\n          caller\n            /* \"contracts/ERC20Standard.sol\":1716:1736  balances[msg.sender] */\n          0xffffffffffffffffffffffffffffffffffffffff\n          and\n          0xffffffffffffffffffffffffffffffffffffffff\n          and\n          dup2\n          mstore\n          0x20\n          add\n          swap1\n          dup2\n          mstore\n          0x20\n          add\n          0x00\n          keccak256\n          sload\n            /* \"contracts/ERC20Standard.sol\":1691:1699  balances */\n          0x05\n            /* \"contracts/ERC20Standard.sol\":1691:1711  balances[msg.sender] */\n          0x00\n            /* \"contracts/ERC20Standard.sol\":1700:1710  msg.sender */\n          caller\n            /* \"contracts/ERC20Standard.sol\":1691:1711  balances[msg.sender] */\n          0xffffffffffffffffffffffffffffffffffffffff\n          and\n          0xffffffffffffffffffffffffffffffffffffffff\n          and\n          dup2\n          mstore\n          0x20\n          add\n          swap1\n          dup2\n          mstore\n          0x20\n          add\n          0x00\n          keccak256\n          sload\n            /* \"contracts/ERC20Standard.sol\":1691:1715  balances[msg.sender].sub */\n          tag_82\n          swap1\n            /* \"contracts/ERC20Standard.sol\":1691:1737  balances[msg.sender].sub(balances[msg.sender]) */\n          swap2\n          swap1\n          0xffffffff\n          and\n          jump\t// in\n        tag_116:\n            /* \"contracts/ERC20Standard.sol\":1668:1676  balances */\n          0x05\n            /* \"contracts/ERC20Standard.sol\":1668:1688  balances[msg.sender] */\n          0x00\n            /* \"contracts/ERC20Standard.sol\":1677:1687  msg.sender */\n          caller\n            /* \"contracts/ERC20Standard.sol\":1668:1688  balances[msg.sender] */\n          0xffffffffffffffffffffffffffffffffffffffff\n          and\n          0xffffffffffffffffffffffffffffffffffffffff\n          and\n          dup2\n          mstore\n          0x20\n          add\n          swap1\n          dup2\n          mstore\n          0x20\n          add\n          0x00\n          keccak256\n            /* \"contracts/ERC20Standard.sol\":1668:1737  balances[msg.sender] = balances[msg.sender].sub(balances[msg.sender]) */\n          dup2\n          swap1\n          sstore\n          pop\n            /* \"contracts/ERC20Standard.sol\":1769:1801  balances[_recipient].add(_value) */\n          tag_117\n            /* \"contracts/ERC20Standard.sol\":1794:1800  _value */\n          dup3\n            /* \"contracts/ERC20Standard.sol\":1769:1777  balances */\n          0x05\n            /* \"contracts/ERC20Standard.sol\":1769:1789  balances[_recipient] */\n          0x00\n            /* \"contracts/ERC20Standard.sol\":1778:1788  _recipient */\n          dup7\n            /* \"contracts/ERC20Standard.sol\":1769:1789  balances[_recipient] */\n          0xffffffffffffffffffffffffffffffffffffffff\n          and\n          0xffffffffffffffffffffffffffffffffffffffff\n          and\n          dup2\n          mstore\n          0x20\n          add\n          swap1\n          dup2\n          mstore\n          0x20\n          add\n          0x00\n          keccak256\n          sload\n            /* \"contracts/ERC20Standard.sol\":1769:1793  balances[_recipient].add */\n          tag_80\n          swap1\n            /* \"contracts/ERC20Standard.sol\":1769:1801  balances[_recipient].add(_value) */\n          swap2\n          swap1\n          0xffffffff\n          and\n          jump\t// in\n        tag_117:\n            /* \"contracts/ERC20Standard.sol\":1746:1754  balances */\n          0x05\n            /* \"contracts/ERC20Standard.sol\":1746:1766  balances[_recipient] */\n          0x00\n            /* \"contracts/ERC20Standard.sol\":1755:1765  _recipient */\n          dup6\n            /* \"contracts/ERC20Standard.sol\":1746:1766  balances[_recipient] */\n          0xffffffffffffffffffffffffffffffffffffffff\n          and\n          0xffffffffffffffffffffffffffffffffffffffff\n          and\n          dup2\n          mstore\n          0x20\n          add\n          swap1\n          dup2\n          mstore\n          0x20\n          add\n          0x00\n          keccak256\n            /* \"contracts/ERC20Standard.sol\":1746:1801  balances[_recipient] = balances[_recipient].add(_value) */\n          dup2\n          swap1\n          sstore\n          pop\n            /* \"contracts/ERC20Standard.sol\":1835:1845  _recipient */\n          dup3\n            /* \"contracts/ERC20Standard.sol\":1814:1854  Transfer(msg.sender, _recipient, _value) */\n          0xffffffffffffffffffffffffffffffffffffffff\n          and\n            /* \"contracts/ERC20Standard.sol\":1823:1833  msg.sender */\n          caller\n            /* \"contracts/ERC20Standard.sol\":1814:1854  Transfer(msg.sender, _recipient, _value) */\n          0xffffffffffffffffffffffffffffffffffffffff\n          and\n          0xddf252ad1be2c89b69c2b068fc378daa952ba7f163c4a11628f55a4df523b3ef\n            /* \"contracts/ERC20Standard.sol\":1847:1853  _value */\n          dup5\n            /* \"contracts/ERC20Standard.sol\":1814:1854  Transfer(msg.sender, _recipient, _value) */\n          mload(0x40)\n          tag_118\n          swap2\n          swap1\n          tag_27\n          jump\t// in\n        tag_118:\n          mload(0x40)\n          dup1\n          swap2\n          sub\n          swap1\n          log3\n            /* \"contracts/ERC20Standard.sol\":1539:1874  function transfer(address _recipient, uint _value) public onlyPayloadSize(2*32) {\r... */\n          pop\n          pop\n          pop\n          jump\t// out\n            /* \"contracts/ERC20Standard.sol\":1453:1534  function getTotalSupply() public view returns (uint) {\r... */\n        tag_54:\n            /* \"contracts/ERC20Standard.sol\":1500:1504  uint */\n          0x00\n            /* \"contracts/ERC20Standard.sol\":1518:1529  totalSupply */\n          dup1\n          sload\n            /* \"contracts/ERC20Standard.sol\":1511:1529  return totalSupply */\n          swap1\n          pop\n            /* \"contracts/ERC20Standard.sol\":1453:1534  function getTotalSupply() public view returns (uint) {\r... */\n          swap1\n          jump\t// out\n            /* \"contracts/ERC20Standard.sol\":2888:3018  function allowance(address _spender, address _owner) public view returns (uint balance) {\r... */\n        tag_59:\n            /* \"contracts/ERC20Standard.sol\":2962:2974  uint balance */\n          0x00\n            /* \"contracts/ERC20Standard.sol\":2988:2995  allowed */\n          0x06\n            /* \"contracts/ERC20Standard.sol\":2988:3003  allowed[_owner] */\n          0x00\n            /* \"contracts/ERC20Standard.sol\":2996:3002  _owner */\n          dup4\n            /* \"contracts/ERC20Standard.sol\":2988:3003  allowed[_owner] */\n          0xffffffffffffffffffffffffffffffffffffffff\n          and\n          0xffffffffffffffffffffffffffffffffffffffff\n          and\n          dup2\n          mstore\n          0x20\n          add\n          swap1\n          dup2\n          mstore\n          0x20\n          add\n          0x00\n          keccak256\n            /* \"contracts/ERC20Standard.sol\":2988:3013  allowed[_owner][_spender] */\n          0x00\n            /* \"contracts/ERC20Standard.sol\":3004:3012  _spender */\n          dup5\n            /* \"contracts/ERC20Standard.sol\":2988:3013  allowed[_owner][_spender] */\n          0xffffffffffffffffffffffffffffffffffffffff\n          and\n          0xffffffffffffffffffffffffffffffffffffffff\n          and\n          dup2\n          mstore\n          0x20\n          add\n          swap1\n          dup2\n          mstore\n          0x20\n          add\n          0x00\n          keccak256\n          sload\n            /* \"contracts/ERC20Standard.sol\":2981:3013  return allowed[_owner][_spender] */\n          swap1\n          pop\n            /* \"contracts/ERC20Standard.sol\":2888:3018  function allowance(address _spender, address _owner) public view returns (uint balance) {\r... */\n          swap3\n          swap2\n          pop\n          pop\n          jump\t// out\n            /* \"contracts/ERC20Standard.sol\":629:779  function add(uint256 a, uint256 b) internal pure returns (uint256) {\r... */\n        tag_80:\n            /* \"contracts/ERC20Standard.sol\":687:694  uint256 */\n          0x00\n            /* \"contracts/ERC20Standard.sol\":707:716  uint256 c */\n          dup1\n            /* \"contracts/ERC20Standard.sol\":723:724  b */\n          dup3\n            /* \"contracts/ERC20Standard.sol\":719:720  a */\n          dup5\n            /* \"contracts/ERC20Standard.sol\":719:724  a + b */\n          tag_122\n          swap2\n          swap1\n          tag_92\n          jump\t// in\n        tag_122:\n            /* \"contracts/ERC20Standard.sol\":707:724  uint256 c = a + b */\n          swap1\n          pop\n            /* \"contracts/ERC20Standard.sol\":748:749  a */\n          dup4\n            /* \"contracts/ERC20Standard.sol\":743:744  c */\n          dup2\n            /* \"contracts/ERC20Standard.sol\":743:749  c >= a */\n          lt\n          iszero\n            /* \"contracts/ERC20Standard.sol\":735:750  require(c >= a) */\n          tag_123\n          jumpi\n          0x00\n          dup1\n          revert\n        tag_123:\n            /* \"contracts/ERC20Standard.sol\":770:771  c */\n          dup1\n            /* \"contracts/ERC20Standard.sol\":763:771  return c */\n          swap2\n          pop\n          pop\n            /* \"contracts/ERC20Standard.sol\":629:779  function add(uint256 a, uint256 b) internal pure returns (uint256) {\r... */\n          swap3\n          swap2\n          pop\n          pop\n          jump\t// out\n            /* \"contracts/ERC20Standard.sol\":471:621  function sub(uint256 a, uint256 b) internal pure returns (uint256) {\r... */\n        tag_82:\n            /* \"contracts/ERC20Standard.sol\":529:536  uint256 */\n          0x00\n            /* \"contracts/ERC20Standard.sol\":562:563  a */\n          dup3\n            /* \"contracts/ERC20Standard.sol\":557:558  b */\n          dup3\n            /* \"contracts/ERC20Standard.sol\":557:563  b <= a */\n          gt\n          iszero\n            /* \"contracts/ERC20Standard.sol\":549:564  require(b <= a) */\n          tag_125\n          jumpi\n          0x00\n          dup1\n          revert\n        tag_125:\n            /* \"contracts/ERC20Standard.sol\":575:584  uint256 c */\n          0x00\n            /* \"contracts/ERC20Standard.sol\":591:592  b */\n          dup3\n            /* \"contracts/ERC20Standard.sol\":587:588  a */\n          dup5\n            /* \"contracts/ERC20Standard.sol\":587:592  a - b */\n          tag_126\n          swap2\n          swap1\n          tag_127\n          jump\t// in\n        tag_126:\n            /* \"contracts/ERC20Standard.sol\":575:592  uint256 c = a - b */\n          swap1\n          pop\n            /* \"contracts/ERC20Standard.sol\":612:613  c */\n          dup1\n            /* \"contracts/ERC20Standard.sol\":605:613  return c */\n          swap2\n          pop\n          pop\n            /* \"contracts/ERC20Standard.sol\":471:621  function sub(uint256 a, uint256 b) internal pure returns (uint256) {\r... */\n          swap3\n          swap2\n          pop\n          pop\n          jump\t// out\n            /* \"contracts/ERC20Standard.sol\":3382:3507  function _beforeTokenTransfer(\r... */\n        tag_90:\n          pop\n          pop\n          pop\n          jump\t// out\n            /* \"contracts/ERC20Standard.sol\":3516:3640  function _afterTokenTransfer(\r... */\n        tag_96:\n          pop\n          pop\n          pop\n          jump\t// out\n            /* \"#utility.yul\":7:146   */\n        tag_131:\n            /* \"#utility.yul\":53:58   */\n          0x00\n            /* \"#utility.yul\":91:97   */\n          dup2\n            /* \"#utility.yul\":78:98   */\n          calldataload\n            /* \"#utility.yul\":69:98   */\n          swap1\n          pop\n            /* \"#utility.yul\":107:140   */\n          tag_133\n            /* \"#utility.yul\":134:139   */\n          dup2\n            /* \"#utility.yul\":107:140   */\n          tag_134\n          jump\t// in\n        tag_133:\n            /* \"#utility.yul\":7:146   */\n          swap3\n          swap2\n          pop\n          pop\n          jump\t// out\n            /* \"#utility.yul\":152:291   */\n        tag_135:\n            /* \"#utility.yul\":198:203   */\n          0x00\n            /* \"#utility.yul\":236:242   */\n          dup2\n            /* \"#utility.yul\":223:243   */\n          calldataload\n            /* \"#utility.yul\":214:243   */\n          swap1\n          pop\n            /* \"#utility.yul\":252:285   */\n          tag_137\n            /* \"#utility.yul\":279:284   */\n          dup2\n            /* \"#utility.yul\":252:285   */\n          tag_138\n          jump\t// in\n        tag_137:\n            /* \"#utility.yul\":152:291   */\n          swap3\n          swap2\n          pop\n          pop\n          jump\t// out\n            /* \"#utility.yul\":297:626   */\n        tag_44:\n            /* \"#utility.yul\":356:362   */\n          0x00\n            /* \"#utility.yul\":405:407   */\n          0x20\n            /* \"#utility.yul\":393:402   */\n          dup3\n            /* \"#utility.yul\":384:391   */\n          dup5\n            /* \"#utility.yul\":380:403   */\n          sub\n            /* \"#utility.yul\":376:408   */\n          slt\n            /* \"#utility.yul\":373:492   */\n          iszero\n          tag_140\n          jumpi\n            /* \"#utility.yul\":411:490   */\n          tag_141\n          tag_142\n          jump\t// in\n        tag_141:\n            /* \"#utility.yul\":373:492   */\n        tag_140:\n            /* \"#utility.yul\":531:532   */\n          0x00\n            /* \"#utility.yul\":556:609   */\n          tag_143\n            /* \"#utility.yul\":601:608   */\n          dup5\n            /* \"#utility.yul\":592:598   */\n          dup3\n            /* \"#utility.yul\":581:590   */\n          dup6\n            /* \"#utility.yul\":577:599   */\n          add\n            /* \"#utility.yul\":556:609   */\n          tag_131\n          jump\t// in\n        tag_143:\n            /* \"#utility.yul\":546:609   */\n          swap2\n          pop\n            /* \"#utility.yul\":502:619   */\n          pop\n            /* \"#utility.yul\":297:626   */\n          swap3\n          swap2\n          pop\n          pop\n          jump\t// out\n            /* \"#utility.yul\":632:1106   */\n        tag_58:\n            /* \"#utility.yul\":700:706   */\n          0x00\n            /* \"#utility.yul\":708:714   */\n          dup1\n            /* \"#utility.yul\":757:759   */\n          0x40\n            /* \"#utility.yul\":745:754   */\n          dup4\n            /* \"#utility.yul\":736:743   */\n          dup6\n            /* \"#utility.yul\":732:755   */\n          sub\n            /* \"#utility.yul\":728:760   */\n          slt\n            /* \"#utility.yul\":725:844   */\n          iszero\n          tag_145\n          jumpi\n            /* \"#utility.yul\":763:842   */\n          tag_146\n          tag_142\n          jump\t// in\n        tag_146:\n            /* \"#utility.yul\":725:844   */\n        tag_145:\n            /* \"#utility.yul\":883:884   */\n          0x00\n            /* \"#utility.yul\":908:961   */\n          tag_147\n            /* \"#utility.yul\":953:960   */\n          dup6\n            /* \"#utility.yul\":944:950   */\n          dup3\n            /* \"#utility.yul\":933:942   */\n          dup7\n            /* \"#utility.yul\":929:951   */\n          add\n            /* \"#utility.yul\":908:961   */\n          tag_131\n          jump\t// in\n        tag_147:\n            /* \"#utility.yul\":898:961   */\n          swap3\n          pop\n            /* \"#utility.yul\":854:971   */\n          pop\n            /* \"#utility.yul\":1010:1012   */\n          0x20\n            /* \"#utility.yul\":1036:1089   */\n          tag_148\n            /* \"#utility.yul\":1081:1088   */\n          dup6\n            /* \"#utility.yul\":1072:1078   */\n          dup3\n            /* \"#utility.yul\":1061:1070   */\n          dup7\n            /* \"#utility.yul\":1057:1079   */\n          add\n            /* \"#utility.yul\":1036:1089   */\n          tag_131\n          jump\t// in\n        tag_148:\n            /* \"#utility.yul\":1026:1089   */\n          swap2\n          pop\n            /* \"#utility.yul\":981:1099   */\n          pop\n            /* \"#utility.yul\":632:1106   */\n          swap3\n          pop\n          swap3\n          swap1\n          pop\n          jump\t// out\n            /* \"#utility.yul\":1112:1731   */\n        tag_30:\n            /* \"#utility.yul\":1189:1195   */\n          0x00\n            /* \"#utility.yul\":1197:1203   */\n          dup1\n            /* \"#utility.yul\":1205:1211   */\n          0x00\n            /* \"#utility.yul\":1254:1256   */\n          0x60\n            /* \"#utility.yul\":1242:1251   */\n          dup5\n            /* \"#utility.yul\":1233:1240   */\n          dup7\n            /* \"#utility.yul\":1229:1252   */\n          sub\n            /* \"#utility.yul\":1225:1257   */\n          slt\n            /* \"#utility.yul\":1222:1341   */\n          iszero\n          tag_150\n          jumpi\n            /* \"#utility.yul\":1260:1339   */\n          tag_151\n          tag_142\n          jump\t// in\n        tag_151:\n            /* \"#utility.yul\":1222:1341   */\n        tag_150:\n            /* \"#utility.yul\":1380:1381   */\n          0x00\n            /* \"#utility.yul\":1405:1458   */\n          tag_152\n            /* \"#utility.yul\":1450:1457   */\n          dup7\n            /* \"#utility.yul\":1441:1447   */\n          dup3\n            /* \"#utility.yul\":1430:1439   */\n          dup8\n            /* \"#utility.yul\":1426:1448   */\n          add\n            /* \"#utility.yul\":1405:1458   */\n          tag_131\n          jump\t// in\n        tag_152:\n            /* \"#utility.yul\":1395:1458   */\n          swap4\n          pop\n            /* \"#utility.yul\":1351:1468   */\n          pop\n            /* \"#utility.yul\":1507:1509   */\n          0x20\n            /* \"#utility.yul\":1533:1586   */\n          tag_153\n            /* \"#utility.yul\":1578:1585   */\n          dup7\n            /* \"#utility.yul\":1569:1575   */\n          dup3\n            /* \"#utility.yul\":1558:1567   */\n          dup8\n            /* \"#utility.yul\":1554:1576   */\n          add\n            /* \"#utility.yul\":1533:1586   */\n          tag_131\n          jump\t// in\n        tag_153:\n            /* \"#utility.yul\":1523:1586   */\n          swap3\n          pop\n            /* \"#utility.yul\":1478:1596   */\n          pop\n            /* \"#utility.yul\":1635:1637   */\n          0x40\n            /* \"#utility.yul\":1661:1714   */\n          tag_154\n            /* \"#utility.yul\":1706:1713   */\n          dup7\n            /* \"#utility.yul\":1697:1703   */\n          dup3\n            /* \"#utility.yul\":1686:1695   */\n          dup8\n            /* \"#utility.yul\":1682:1704   */\n          add\n            /* \"#utility.yul\":1661:1714   */\n          tag_135\n          jump\t// in\n        tag_154:\n            /* \"#utility.yul\":1651:1714   */\n          swap2\n          pop\n            /* \"#utility.yul\":1606:1724   */\n          pop\n            /* \"#utility.yul\":1112:1731   */\n          swap3\n          pop\n          swap3\n          pop\n          swap3\n          jump\t// out\n            /* \"#utility.yul\":1737:2211   */\n        tag_22:\n            /* \"#utility.yul\":1805:1811   */\n          0x00\n            /* \"#utility.yul\":1813:1819   */\n          dup1\n            /* \"#utility.yul\":1862:1864   */\n          0x40\n            /* \"#utility.yul\":1850:1859   */\n          dup4\n            /* \"#utility.yul\":1841:1848   */\n          dup6\n            /* \"#utility.yul\":1837:1860   */\n          sub\n            /* \"#utility.yul\":1833:1865   */\n          slt\n            /* \"#utility.yul\":1830:1949   */\n          iszero\n          tag_156\n          jumpi\n            /* \"#utility.yul\":1868:1947   */\n          tag_157\n          tag_142\n          jump\t// in\n        tag_157:\n            /* \"#utility.yul\":1830:1949   */\n        tag_156:\n            /* \"#utility.yul\":1988:1989   */\n          0x00\n            /* \"#utility.yul\":2013:2066   */\n          tag_158\n            /* \"#utility.yul\":2058:2065   */\n          dup6\n            /* \"#utility.yul\":2049:2055   */\n          dup3\n            /* \"#utility.yul\":2038:2047   */\n          dup7\n            /* \"#utility.yul\":2034:2056   */\n          add\n            /* \"#utility.yul\":2013:2066   */\n          tag_131\n          jump\t// in\n        tag_158:\n            /* \"#utility.yul\":2003:2066   */\n          swap3\n          pop\n            /* \"#utility.yul\":1959:2076   */\n          pop\n            /* \"#utility.yul\":2115:2117   */\n          0x20\n            /* \"#utility.yul\":2141:2194   */\n          tag_159\n            /* \"#utility.yul\":2186:2193   */\n          dup6\n            /* \"#utility.yul\":2177:2183   */\n          dup3\n            /* \"#utility.yul\":2166:2175   */\n          dup7\n            /* \"#utility.yul\":2162:2184   */\n          add\n            /* \"#utility.yul\":2141:2194   */\n          tag_135\n          jump\t// in\n        tag_159:\n            /* \"#utility.yul\":2131:2194   */\n          swap2\n          pop\n            /* \"#utility.yul\":2086:2204   */\n          pop\n            /* \"#utility.yul\":1737:2211   */\n          swap3\n          pop\n          swap3\n          swap1\n          pop\n          jump\t// out\n            /* \"#utility.yul\":2217:2581   */\n        tag_160:\n            /* \"#utility.yul\":2305:2308   */\n          0x00\n            /* \"#utility.yul\":2333:2372   */\n          tag_162\n            /* \"#utility.yul\":2366:2371   */\n          dup3\n            /* \"#utility.yul\":2333:2372   */\n          tag_163\n          jump\t// in\n        tag_162:\n            /* \"#utility.yul\":2388:2459   */\n          tag_164\n            /* \"#utility.yul\":2452:2458   */\n          dup2\n            /* \"#utility.yul\":2447:2450   */\n          dup6\n            /* \"#utility.yul\":2388:2459   */\n          tag_165\n          jump\t// in\n        tag_164:\n            /* \"#utility.yul\":2381:2459   */\n          swap4\n          pop\n            /* \"#utility.yul\":2468:2520   */\n          tag_166\n            /* \"#utility.yul\":2513:2519   */\n          dup2\n            /* \"#utility.yul\":2508:2511   */\n          dup6\n            /* \"#utility.yul\":2501:2505   */\n          0x20\n            /* \"#utility.yul\":2494:2499   */\n          dup7\n            /* \"#utility.yul\":2490:2506   */\n          add\n            /* \"#utility.yul\":2468:2520   */\n          tag_167\n          jump\t// in\n        tag_166:\n            /* \"#utility.yul\":2545:2574   */\n          tag_168\n            /* \"#utility.yul\":2567:2573   */\n          dup2\n            /* \"#utility.yul\":2545:2574   */\n          tag_169\n          jump\t// in\n        tag_168:\n            /* \"#utility.yul\":2540:2543   */\n          dup5\n            /* \"#utility.yul\":2536:2575   */\n          add\n            /* \"#utility.yul\":2529:2575   */\n          swap2\n          pop\n            /* \"#utility.yul\":2309:2581   */\n          pop\n            /* \"#utility.yul\":2217:2581   */\n          swap3\n          swap2\n          pop\n          pop\n          jump\t// out\n            /* \"#utility.yul\":2587:2953   */\n        tag_170:\n            /* \"#utility.yul\":2729:2732   */\n          0x00\n            /* \"#utility.yul\":2750:2817   */\n          tag_172\n            /* \"#utility.yul\":2814:2816   */\n          0x10\n            /* \"#utility.yul\":2809:2812   */\n          dup4\n            /* \"#utility.yul\":2750:2817   */\n          tag_165\n          jump\t// in\n        tag_172:\n            /* \"#utility.yul\":2743:2817   */\n          swap2\n          pop\n            /* \"#utility.yul\":2826:2919   */\n          tag_173\n            /* \"#utility.yul\":2915:2918   */\n          dup3\n            /* \"#utility.yul\":2826:2919   */\n          tag_174\n          jump\t// in\n        tag_173:\n            /* \"#utility.yul\":2944:2946   */\n          0x20\n            /* \"#utility.yul\":2939:2942   */\n          dup3\n            /* \"#utility.yul\":2935:2947   */\n          add\n            /* \"#utility.yul\":2928:2947   */\n          swap1\n          pop\n            /* \"#utility.yul\":2587:2953   */\n          swap2\n          swap1\n          pop\n          jump\t// out\n            /* \"#utility.yul\":2959:3325   */\n        tag_175:\n            /* \"#utility.yul\":3101:3104   */\n          0x00\n            /* \"#utility.yul\":3122:3189   */\n          tag_177\n            /* \"#utility.yul\":3186:3188   */\n          0x0b\n            /* \"#utility.yul\":3181:3184   */\n          dup4\n            /* \"#utility.yul\":3122:3189   */\n          tag_165\n          jump\t// in\n        tag_177:\n            /* \"#utility.yul\":3115:3189   */\n          swap2\n          pop\n            /* \"#utility.yul\":3198:3291   */\n          tag_178\n            /* \"#utility.yul\":3287:3290   */\n          dup3\n            /* \"#utility.yul\":3198:3291   */\n          tag_179\n          jump\t// in\n        tag_178:\n            /* \"#utility.yul\":3316:3318   */\n          0x20\n            /* \"#utility.yul\":3311:3314   */\n          dup3\n            /* \"#utility.yul\":3307:3319   */\n          add\n            /* \"#utility.yul\":3300:3319   */\n          swap1\n          pop\n            /* \"#utility.yul\":2959:3325   */\n          swap2\n          swap1\n          pop\n          jump\t// out\n            /* \"#utility.yul\":3331:3697   */\n        tag_180:\n            /* \"#utility.yul\":3473:3476   */\n          0x00\n            /* \"#utility.yul\":3494:3561   */\n          tag_182\n            /* \"#utility.yul\":3558:3560   */\n          0x0e\n            /* \"#utility.yul\":3553:3556   */\n          dup4\n            /* \"#utility.yul\":3494:3561   */\n          tag_165\n          jump\t// in\n        tag_182:\n            /* \"#utility.yul\":3487:3561   */\n          swap2\n          pop\n            /* \"#utility.yul\":3570:3663   */\n          tag_183\n            /* \"#utility.yul\":3659:3662   */\n          dup3\n            /* \"#utility.yul\":3570:3663   */\n          tag_184\n          jump\t// in\n        tag_183:\n            /* \"#utility.yul\":3688:3690   */\n          0x20\n            /* \"#utility.yul\":3683:3686   */\n          dup3\n            /* \"#utility.yul\":3679:3691   */\n          add\n            /* \"#utility.yul\":3672:3691   */\n          swap1\n          pop\n            /* \"#utility.yul\":3331:3697   */\n          swap2\n          swap1\n          pop\n          jump\t// out\n            /* \"#utility.yul\":3703:4069   */\n        tag_185:\n            /* \"#utility.yul\":3845:3848   */\n          0x00\n            /* \"#utility.yul\":3866:3933   */\n          tag_187\n            /* \"#utility.yul\":3930:3932   */\n          0x1f\n            /* \"#utility.yul\":3925:3928   */\n          dup4\n            /* \"#utility.yul\":3866:3933   */\n          tag_165\n          jump\t// in\n        tag_187:\n            /* \"#utility.yul\":3859:3933   */\n          swap2\n          pop\n            /* \"#utility.yul\":3942:4035   */\n          tag_188\n            /* \"#utility.yul\":4031:4034   */\n          dup3\n            /* \"#utility.yul\":3942:4035   */\n          tag_189\n          jump\t// in\n        tag_188:\n            /* \"#utility.yul\":4060:4062   */\n          0x20\n            /* \"#utility.yul\":4055:4058   */\n          dup3\n            /* \"#utility.yul\":4051:4063   */\n          add\n            /* \"#utility.yul\":4044:4063   */\n          swap1\n          pop\n            /* \"#utility.yul\":3703:4069   */\n          swap2\n          swap1\n          pop\n          jump\t// out\n            /* \"#utility.yul\":4075:4193   */\n        tag_190:\n            /* \"#utility.yul\":4162:4186   */\n          tag_192\n            /* \"#utility.yul\":4180:4185   */\n          dup2\n            /* \"#utility.yul\":4162:4186   */\n          tag_193\n          jump\t// in\n        tag_192:\n            /* \"#utility.yul\":4157:4160   */\n          dup3\n            /* \"#utility.yul\":4150:4187   */\n          mstore\n            /* \"#utility.yul\":4075:4193   */\n          pop\n          pop\n          jump\t// out\n            /* \"#utility.yul\":4199:4311   */\n        tag_194:\n            /* \"#utility.yul\":4282:4304   */\n          tag_196\n            /* \"#utility.yul\":4298:4303   */\n          dup2\n            /* \"#utility.yul\":4282:4304   */\n          tag_197\n          jump\t// in\n        tag_196:\n            /* \"#utility.yul\":4277:4280   */\n          dup3\n            /* \"#utility.yul\":4270:4305   */\n          mstore\n            /* \"#utility.yul\":4199:4311   */\n          pop\n          pop\n          jump\t// out\n            /* \"#utility.yul\":4317:4630   */\n        tag_19:\n            /* \"#utility.yul\":4430:4434   */\n          0x00\n            /* \"#utility.yul\":4468:4470   */\n          0x20\n            /* \"#utility.yul\":4457:4466   */\n          dup3\n            /* \"#utility.yul\":4453:4471   */\n          add\n            /* \"#utility.yul\":4445:4471   */\n          swap1\n          pop\n            /* \"#utility.yul\":4517:4526   */\n          dup2\n            /* \"#utility.yul\":4511:4515   */\n          dup2\n            /* \"#utility.yul\":4507:4527   */\n          sub\n            /* \"#utility.yul\":4503:4504   */\n          0x00\n            /* \"#utility.yul\":4492:4501   */\n          dup4\n            /* \"#utility.yul\":4488:4505   */\n          add\n            /* \"#utility.yul\":4481:4528   */\n          mstore\n            /* \"#utility.yul\":4545:4623   */\n          tag_199\n            /* \"#utility.yul\":4618:4622   */\n          dup2\n            /* \"#utility.yul\":4609:4615   */\n          dup5\n            /* \"#utility.yul\":4545:4623   */\n          tag_160\n          jump\t// in\n        tag_199:\n            /* \"#utility.yul\":4537:4623   */\n          swap1\n          pop\n            /* \"#utility.yul\":4317:4630   */\n          swap3\n          swap2\n          pop\n          pop\n          jump\t// out\n            /* \"#utility.yul\":4636:5055   */\n        tag_75:\n            /* \"#utility.yul\":4802:4806   */\n          0x00\n            /* \"#utility.yul\":4840:4842   */\n          0x20\n            /* \"#utility.yul\":4829:4838   */\n          dup3\n            /* \"#utility.yul\":4825:4843   */\n          add\n            /* \"#utility.yul\":4817:4843   */\n          swap1\n          pop\n            /* \"#utility.yul\":4889:4898   */\n          dup2\n            /* \"#utility.yul\":4883:4887   */\n          dup2\n            /* \"#utility.yul\":4879:4899   */\n          sub\n            /* \"#utility.yul\":4875:4876   */\n          0x00\n            /* \"#utility.yul\":4864:4873   */\n          dup4\n            /* \"#utility.yul\":4860:4877   */\n          add\n            /* \"#utility.yul\":4853:4900   */\n          mstore\n            /* \"#utility.yul\":4917:5048   */\n          tag_201\n            /* \"#utility.yul\":5043:5047   */\n          dup2\n            /* \"#utility.yul\":4917:5048   */\n          tag_170\n          jump\t// in\n        tag_201:\n            /* \"#utility.yul\":4909:5048   */\n          swap1\n          pop\n            /* \"#utility.yul\":4636:5055   */\n          swap2\n          swap1\n          pop\n          jump\t// out\n            /* \"#utility.yul\":5061:5480   */\n        tag_72:\n            /* \"#utility.yul\":5227:5231   */\n          0x00\n            /* \"#utility.yul\":5265:5267   */\n          0x20\n            /* \"#utility.yul\":5254:5263   */\n          dup3\n            /* \"#utility.yul\":5250:5268   */\n          add\n            /* \"#utility.yul\":5242:5268   */\n          swap1\n          pop\n            /* \"#utility.yul\":5314:5323   */\n          dup2\n            /* \"#utility.yul\":5308:5312   */\n          dup2\n            /* \"#utility.yul\":5304:5324   */\n          sub\n            /* \"#utility.yul\":5300:5301   */\n          0x00\n            /* \"#utility.yul\":5289:5298   */\n          dup4\n            /* \"#utility.yul\":5285:5302   */\n          add\n            /* \"#utility.yul\":5278:5325   */\n          mstore\n            /* \"#utility.yul\":5342:5473   */\n          tag_203\n            /* \"#utility.yul\":5468:5472   */\n          dup2\n            /* \"#utility.yul\":5342:5473   */\n          tag_175\n          jump\t// in\n        tag_203:\n            /* \"#utility.yul\":5334:5473   */\n          swap1\n          pop\n            /* \"#utility.yul\":5061:5480   */\n          swap2\n          swap1\n          pop\n          jump\t// out\n            /* \"#utility.yul\":5486:5905   */\n        tag_78:\n            /* \"#utility.yul\":5652:5656   */\n          0x00\n            /* \"#utility.yul\":5690:5692   */\n          0x20\n            /* \"#utility.yul\":5679:5688   */\n          dup3\n            /* \"#utility.yul\":5675:5693   */\n          add\n            /* \"#utility.yul\":5667:5693   */\n          swap1\n          pop\n            /* \"#utility.yul\":5739:5748   */\n          dup2\n            /* \"#utility.yul\":5733:5737   */\n          dup2\n            /* \"#utility.yul\":5729:5749   */\n          sub\n            /* \"#utility.yul\":5725:5726   */\n          0x00\n            /* \"#utility.yul\":5714:5723   */\n          dup4\n            /* \"#utility.yul\":5710:5727   */\n          add\n            /* \"#utility.yul\":5703:5750   */\n          mstore\n            /* \"#utility.yul\":5767:5898   */\n          tag_205\n            /* \"#utility.yul\":5893:5897   */\n          dup2\n            /* \"#utility.yul\":5767:5898   */\n          tag_180\n          jump\t// in\n        tag_205:\n            /* \"#utility.yul\":5759:5898   */\n          swap1\n          pop\n            /* \"#utility.yul\":5486:5905   */\n          swap2\n          swap1\n          pop\n          jump\t// out\n            /* \"#utility.yul\":5911:6330   */\n        tag_88:\n            /* \"#utility.yul\":6077:6081   */\n          0x00\n            /* \"#utility.yul\":6115:6117   */\n          0x20\n            /* \"#utility.yul\":6104:6113   */\n          dup3\n            /* \"#utility.yul\":6100:6118   */\n          add\n            /* \"#utility.yul\":6092:6118   */\n          swap1\n          pop\n            /* \"#utility.yul\":6164:6173   */\n          dup2\n            /* \"#utility.yul\":6158:6162   */\n          dup2\n            /* \"#utility.yul\":6154:6174   */\n          sub\n            /* \"#utility.yul\":6150:6151   */\n          0x00\n            /* \"#utility.yul\":6139:6148   */\n          dup4\n            /* \"#utility.yul\":6135:6152   */\n          add\n            /* \"#utility.yul\":6128:6175   */\n          mstore\n            /* \"#utility.yul\":6192:6323   */\n          tag_207\n            /* \"#utility.yul\":6318:6322   */\n          dup2\n            /* \"#utility.yul\":6192:6323   */\n          tag_185\n          jump\t// in\n        tag_207:\n            /* \"#utility.yul\":6184:6323   */\n          swap1\n          pop\n            /* \"#utility.yul\":5911:6330   */\n          swap2\n          swap1\n          pop\n          jump\t// out\n            /* \"#utility.yul\":6336:6558   */\n        tag_27:\n            /* \"#utility.yul\":6429:6433   */\n          0x00\n            /* \"#utility.yul\":6467:6469   */\n          0x20\n            /* \"#utility.yul\":6456:6465   */\n          dup3\n            /* \"#utility.yul\":6452:6470   */\n          add\n            /* \"#utility.yul\":6444:6470   */\n          swap1\n          pop\n            /* \"#utility.yul\":6480:6551   */\n          tag_209\n            /* \"#utility.yul\":6548:6549   */\n          0x00\n            /* \"#utility.yul\":6537:6546   */\n          dup4\n            /* \"#utility.yul\":6533:6550   */\n          add\n            /* \"#utility.yul\":6524:6530   */\n          dup5\n            /* \"#utility.yul\":6480:6551   */\n          tag_190\n          jump\t// in\n        tag_209:\n            /* \"#utility.yul\":6336:6558   */\n          swap3\n          swap2\n          pop\n          pop\n          jump\t// out\n            /* \"#utility.yul\":6564:6778   */\n        tag_35:\n            /* \"#utility.yul\":6653:6657   */\n          0x00\n            /* \"#utility.yul\":6691:6693   */\n          0x20\n            /* \"#utility.yul\":6680:6689   */\n          dup3\n            /* \"#utility.yul\":6676:6694   */\n          add\n            /* \"#utility.yul\":6668:6694   */\n          swap1\n          pop\n            /* \"#utility.yul\":6704:6771   */\n          tag_211\n            /* \"#utility.yul\":6768:6769   */\n          0x00\n            /* \"#utility.yul\":6757:6766   */\n          dup4\n            /* \"#utility.yul\":6753:6770   */\n          add\n            /* \"#utility.yul\":6744:6750   */\n          dup5\n            /* \"#utility.yul\":6704:6771   */\n          tag_194\n          jump\t// in\n        tag_211:\n            /* \"#utility.yul\":6564:6778   */\n          swap3\n          swap2\n          pop\n          pop\n          jump\t// out\n            /* \"#utility.yul\":6865:6964   */\n        tag_163:\n            /* \"#utility.yul\":6917:6923   */\n          0x00\n            /* \"#utility.yul\":6951:6956   */\n          dup2\n            /* \"#utility.yul\":6945:6957   */\n          mload\n            /* \"#utility.yul\":6935:6957   */\n          swap1\n          pop\n            /* \"#utility.yul\":6865:6964   */\n          swap2\n          swap1\n          pop\n          jump\t// out\n            /* \"#utility.yul\":6970:7139   */\n        tag_165:\n            /* \"#utility.yul\":7054:7065   */\n          0x00\n            /* \"#utility.yul\":7088:7094   */\n          dup3\n            /* \"#utility.yul\":7083:7086   */\n          dup3\n            /* \"#utility.yul\":7076:7095   */\n          mstore\n            /* \"#utility.yul\":7128:7132   */\n          0x20\n            /* \"#utility.yul\":7123:7126   */\n          dup3\n            /* \"#utility.yul\":7119:7133   */\n          add\n            /* \"#utility.yul\":7104:7133   */\n          swap1\n          pop\n            /* \"#utility.yul\":6970:7139   */\n          swap3\n          swap2\n          pop\n          pop\n          jump\t// out\n            /* \"#utility.yul\":7145:7450   */\n        tag_92:\n            /* \"#utility.yul\":7185:7188   */\n          0x00\n            /* \"#utility.yul\":7204:7224   */\n          tag_217\n            /* \"#utility.yul\":7222:7223   */\n          dup3\n            /* \"#utility.yul\":7204:7224   */\n          tag_193\n          jump\t// in\n        tag_217:\n            /* \"#utility.yul\":7199:7224   */\n          swap2\n          pop\n            /* \"#utility.yul\":7238:7258   */\n          tag_218\n            /* \"#utility.yul\":7256:7257   */\n          dup4\n            /* \"#utility.yul\":7238:7258   */\n          tag_193\n          jump\t// in\n        tag_218:\n            /* \"#utility.yul\":7233:7258   */\n          swap3\n          pop\n            /* \"#utility.yul\":7392:7393   */\n          dup3\n            /* \"#utility.yul\":7324:7390   */\n          0xffffffffffffffffffffffffffffffffffffffffffffffffffffffffffffffff\n            /* \"#utility.yul\":7320:7394   */\n          sub\n            /* \"#utility.yul\":7317:7318   */\n          dup3\n            /* \"#utility.yul\":7314:7395   */\n          gt\n            /* \"#utility.yul\":7311:7418   */\n          iszero\n          tag_219\n          jumpi\n            /* \"#utility.yul\":7398:7416   */\n          tag_220\n          tag_221\n          jump\t// in\n        tag_220:\n            /* \"#utility.yul\":7311:7418   */\n        tag_219:\n            /* \"#utility.yul\":7442:7443   */\n          dup3\n            /* \"#utility.yul\":7439:7440   */\n          dup3\n            /* \"#utility.yul\":7435:7444   */\n          add\n            /* \"#utility.yul\":7428:7444   */\n          swap1\n          pop\n            /* \"#utility.yul\":7145:7450   */\n          swap3\n          swap2\n          pop\n          pop\n          jump\t// out\n            /* \"#utility.yul\":7456:7647   */\n        tag_127:\n            /* \"#utility.yul\":7496:7500   */\n          0x00\n            /* \"#utility.yul\":7516:7536   */\n          tag_223\n            /* \"#utility.yul\":7534:7535   */\n          dup3\n            /* \"#utility.yul\":7516:7536   */\n          tag_193\n          jump\t// in\n        tag_223:\n            /* \"#utility.yul\":7511:7536   */\n          swap2\n          pop\n            /* \"#utility.yul\":7550:7570   */\n          tag_224\n            /* \"#utility.yul\":7568:7569   */\n          dup4\n            /* \"#utility.yul\":7550:7570   */\n          tag_193\n          jump\t// in\n        tag_224:\n            /* \"#utility.yul\":7545:7570   */\n          swap3\n          pop\n            /* \"#utility.yul\":7589:7590   */\n          dup3\n            /* \"#utility.yul\":7586:7587   */\n          dup3\n            /* \"#utility.yul\":7583:7591   */\n          lt\n            /* \"#utility.yul\":7580:7614   */\n          iszero\n          tag_225\n          jumpi\n            /* \"#utility.yul\":7594:7612   */\n          tag_226\n          tag_221\n          jump\t// in\n        tag_226:\n            /* \"#utility.yul\":7580:7614   */\n        tag_225:\n            /* \"#utility.yul\":7639:7640   */\n          dup3\n            /* \"#utility.yul\":7636:7637   */\n          dup3\n            /* \"#utility.yul\":7632:7641   */\n          sub\n            /* \"#utility.yul\":7624:7641   */\n          swap1\n          pop\n            /* \"#utility.yul\":7456:7647   */\n          swap3\n          swap2\n          pop\n          pop\n          jump\t// out\n            /* \"#utility.yul\":7653:7749   */\n        tag_227:\n            /* \"#utility.yul\":7690:7697   */\n          0x00\n            /* \"#utility.yul\":7719:7743   */\n          tag_229\n            /* \"#utility.yul\":7737:7742   */\n          dup3\n            /* \"#utility.yul\":7719:7743   */\n          tag_230\n          jump\t// in\n        tag_229:\n            /* \"#utility.yul\":7708:7743   */\n          swap1\n          pop\n            /* \"#utility.yul\":7653:7749   */\n          swap2\n          swap1\n          pop\n          jump\t// out\n            /* \"#utility.yul\":7755:7881   */\n        tag_230:\n            /* \"#utility.yul\":7792:7799   */\n          0x00\n            /* \"#utility.yul\":7832:7874   */\n          0xffffffffffffffffffffffffffffffffffffffff\n            /* \"#utility.yul\":7825:7830   */\n          dup3\n            /* \"#utility.yul\":7821:7875   */\n          and\n            /* \"#utility.yul\":7810:7875   */\n          swap1\n          pop\n            /* \"#utility.yul\":7755:7881   */\n          swap2\n          swap1\n          pop\n          jump\t// out\n            /* \"#utility.yul\":7887:7964   */\n        tag_193:\n            /* \"#utility.yul\":7924:7931   */\n          0x00\n            /* \"#utility.yul\":7953:7958   */\n          dup2\n            /* \"#utility.yul\":7942:7958   */\n          swap1\n          pop\n            /* \"#utility.yul\":7887:7964   */\n          swap2\n          swap1\n          pop\n          jump\t// out\n            /* \"#utility.yul\":7970:8056   */\n        tag_197:\n            /* \"#utility.yul\":8005:8012   */\n          0x00\n            /* \"#utility.yul\":8045:8049   */\n          0xff\n            /* \"#utility.yul\":8038:8043   */\n          dup3\n            /* \"#utility.yul\":8034:8050   */\n          and\n            /* \"#utility.yul\":8023:8050   */\n          swap1\n          pop\n            /* \"#utility.yul\":7970:8056   */\n          swap2\n          swap1\n          pop\n          jump\t// out\n            /* \"#utility.yul\":8062:8369   */\n        tag_167:\n            /* \"#utility.yul\":8130:8131   */\n          0x00\n            /* \"#utility.yul\":8140:8253   */\n        tag_235:\n            /* \"#utility.yul\":8154:8160   */\n          dup4\n            /* \"#utility.yul\":8151:8152   */\n          dup2\n            /* \"#utility.yul\":8148:8161   */\n          lt\n            /* \"#utility.yul\":8140:8253   */\n          iszero\n          tag_237\n          jumpi\n            /* \"#utility.yul\":8239:8240   */\n          dup1\n            /* \"#utility.yul\":8234:8237   */\n          dup3\n            /* \"#utility.yul\":8230:8241   */\n          add\n            /* \"#utility.yul\":8224:8242   */\n          mload\n            /* \"#utility.yul\":8220:8221   */\n          dup2\n            /* \"#utility.yul\":8215:8218   */\n          dup5\n            /* \"#utility.yul\":8211:8222   */\n          add\n            /* \"#utility.yul\":8204:8243   */\n          mstore\n            /* \"#utility.yul\":8176:8178   */\n          0x20\n            /* \"#utility.yul\":8173:8174   */\n          dup2\n            /* \"#utility.yul\":8169:8179   */\n          add\n            /* \"#utility.yul\":8164:8179   */\n          swap1\n          pop\n            /* \"#utility.yul\":8140:8253   */\n          jump(tag_235)\n        tag_237:\n            /* \"#utility.yul\":8271:8277   */\n          dup4\n            /* \"#utility.yul\":8268:8269   */\n          dup2\n            /* \"#utility.yul\":8265:8278   */\n          gt\n            /* \"#utility.yul\":8262:8363   */\n          iszero\n          tag_238\n          jumpi\n            /* \"#utility.yul\":8351:8352   */\n          0x00\n            /* \"#utility.yul\":8342:8348   */\n          dup5\n            /* \"#utility.yul\":8337:8340   */\n          dup5\n            /* \"#utility.yul\":8333:8349   */\n          add\n            /* \"#utility.yul\":8326:8353   */\n          mstore\n            /* \"#utility.yul\":8262:8363   */\n        tag_238:\n            /* \"#utility.yul\":8111:8369   */\n          pop\n            /* \"#utility.yul\":8062:8369   */\n          pop\n          pop\n          pop\n          jump\t// out\n            /* \"#utility.yul\":8375:8695   */\n        tag_62:\n            /* \"#utility.yul\":8419:8425   */\n          0x00\n            /* \"#utility.yul\":8456:8457   */\n          0x02\n            /* \"#utility.yul\":8450:8454   */\n          dup3\n            /* \"#utility.yul\":8446:8458   */\n          div\n            /* \"#utility.yul\":8436:8458   */\n          swap1\n          pop\n            /* \"#utility.yul\":8503:8504   */\n          0x01\n            /* \"#utility.yul\":8497:8501   */\n          dup3\n            /* \"#utility.yul\":8493:8505   */\n          and\n            /* \"#utility.yul\":8524:8542   */\n          dup1\n            /* \"#utility.yul\":8514:8595   */\n          tag_240\n          jumpi\n            /* \"#utility.yul\":8580:8584   */\n          0x7f\n            /* \"#utility.yul\":8572:8578   */\n          dup3\n            /* \"#utility.yul\":8568:8585   */\n          and\n            /* \"#utility.yul\":8558:8585   */\n          swap2\n          pop\n            /* \"#utility.yul\":8514:8595   */\n        tag_240:\n            /* \"#utility.yul\":8642:8644   */\n          0x20\n            /* \"#utility.yul\":8634:8640   */\n          dup3\n            /* \"#utility.yul\":8631:8645   */\n          lt\n            /* \"#utility.yul\":8611:8629   */\n          dup2\n            /* \"#utility.yul\":8608:8646   */\n          eq\n            /* \"#utility.yul\":8605:8689   */\n          iszero\n          tag_241\n          jumpi\n            /* \"#utility.yul\":8661:8679   */\n          tag_242\n          tag_243\n          jump\t// in\n        tag_242:\n            /* \"#utility.yul\":8605:8689   */\n        tag_241:\n            /* \"#utility.yul\":8426:8695   */\n          pop\n            /* \"#utility.yul\":8375:8695   */\n          swap2\n          swap1\n          pop\n          jump\t// out\n            /* \"#utility.yul\":8701:8881   */\n        tag_112:\n            /* \"#utility.yul\":8749:8826   */\n          0x4e487b7100000000000000000000000000000000000000000000000000000000\n            /* \"#utility.yul\":8746:8747   */\n          0x00\n            /* \"#utility.yul\":8739:8827   */\n          mstore\n            /* \"#utility.yul\":8846:8850   */\n          0x01\n            /* \"#utility.yul\":8843:8844   */\n          0x04\n            /* \"#utility.yul\":8836:8851   */\n          mstore\n            /* \"#utility.yul\":8870:8874   */\n          0x24\n            /* \"#utility.yul\":8867:8868   */\n          0x00\n            /* \"#utility.yul\":8860:8875   */\n          revert\n            /* \"#utility.yul\":8887:9067   */\n        tag_221:\n            /* \"#utility.yul\":8935:9012   */\n          0x4e487b7100000000000000000000000000000000000000000000000000000000\n            /* \"#utility.yul\":8932:8933   */\n          0x00\n            /* \"#utility.yul\":8925:9013   */\n          mstore\n            /* \"#utility.yul\":9032:9036   */\n          0x11\n            /* \"#utility.yul\":9029:9030   */\n          0x04\n            /* \"#utility.yul\":9022:9037   */\n          mstore\n            /* \"#utility.yul\":9056:9060   */\n          0x24\n            /* \"#utility.yul\":9053:9054   */\n          0x00\n            /* \"#utility.yul\":9046:9061   */\n          revert\n            /* \"#utility.yul\":9073:9253   */\n        tag_243:\n            /* \"#utility.yul\":9121:9198   */\n          0x4e487b7100000000000000000000000000000000000000000000000000000000\n            /* \"#utility.yul\":9118:9119   */\n          0x00\n            /* \"#utility.yul\":9111:9199   */\n          mstore\n            /* \"#utility.yul\":9218:9222   */\n          0x22\n            /* \"#utility.yul\":9215:9216   */\n          0x04\n            /* \"#utility.yul\":9208:9223   */\n          mstore\n            /* \"#utility.yul\":9242:9246   */\n          0x24\n            /* \"#utility.yul\":9239:9240   */\n          0x00\n            /* \"#utility.yul\":9232:9247   */\n          revert\n            /* \"#utility.yul\":9382:9499   */\n        tag_142:\n            /* \"#utility.yul\":9491:9492   */\n          0x00\n            /* \"#utility.yul\":9488:9489   */\n          dup1\n            /* \"#utility.yul\":9481:9493   */\n          revert\n            /* \"#utility.yul\":9505:9607   */\n        tag_169:\n            /* \"#utility.yul\":9546:9552   */\n          0x00\n            /* \"#utility.yul\":9597:9599   */\n          0x1f\n            /* \"#utility.yul\":9593:9600   */\n          not\n            /* \"#utility.yul\":9588:9590   */\n          0x1f\n            /* \"#utility.yul\":9581:9586   */\n          dup4\n            /* \"#utility.yul\":9577:9591   */\n          add\n            /* \"#utility.yul\":9573:9601   */\n          and\n            /* \"#utility.yul\":9563:9601   */\n          swap1\n          pop\n            /* \"#utility.yul\":9505:9607   */\n          swap2\n          swap1\n          pop\n          jump\t// out\n            /* \"#utility.yul\":9613:9779   */\n        tag_174:\n            /* \"#utility.yul\":9753:9771   */\n          0x42616c616e6365203c20616d6f756e7400000000000000000000000000000000\n            /* \"#utility.yul\":9749:9750   */\n          0x00\n            /* \"#utility.yul\":9741:9747   */\n          dup3\n            /* \"#utility.yul\":9737:9751   */\n          add\n            /* \"#utility.yul\":9730:9772   */\n          mstore\n            /* \"#utility.yul\":9613:9779   */\n          pop\n          jump\t// out\n            /* \"#utility.yul\":9785:9946   */\n        tag_179:\n            /* \"#utility.yul\":9925:9938   */\n          0x416d6f756e74203c3d2030000000000000000000000000000000000000000000\n            /* \"#utility.yul\":9921:9922   */\n          0x00\n            /* \"#utility.yul\":9913:9919   */\n          dup3\n            /* \"#utility.yul\":9909:9923   */\n          add\n            /* \"#utility.yul\":9902:9939   */\n          mstore\n            /* \"#utility.yul\":9785:9946   */\n          pop\n          jump\t// out\n            /* \"#utility.yul\":9952:10116   */\n        tag_184:\n            /* \"#utility.yul\":10092:10108   */\n          0x446f6e277420616c6c6f7765642e000000000000000000000000000000000000\n            /* \"#utility.yul\":10088:10089   */\n          0x00\n            /* \"#utility.yul\":10080:10086   */\n          dup3\n            /* \"#utility.yul\":10076:10090   */\n          add\n            /* \"#utility.yul\":10069:10109   */\n          mstore\n            /* \"#utility.yul\":9952:10116   */\n          pop\n          jump\t// out\n            /* \"#utility.yul\":10122:10303   */\n        tag_189:\n            /* \"#utility.yul\":10262:10295   */\n          0x45524332303a206d696e7420746f20746865207a65726f206164647265737300\n            /* \"#utility.yul\":10258:10259   */\n          0x00\n            /* \"#utility.yul\":10250:10256   */\n          dup3\n            /* \"#utility.yul\":10246:10260   */\n          add\n            /* \"#utility.yul\":10239:10296   */\n          mstore\n            /* \"#utility.yul\":10122:10303   */\n          pop\n          jump\t// out\n            /* \"#utility.yul\":10309:10431   */\n        tag_134:\n            /* \"#utility.yul\":10382:10406   */\n          tag_256\n            /* \"#utility.yul\":10400:10405   */\n          dup2\n            /* \"#utility.yul\":10382:10406   */\n          tag_227\n          jump\t// in\n        tag_256:\n            /* \"#utility.yul\":10375:10380   */\n          dup2\n            /* \"#utility.yul\":10372:10407   */\n          eq\n            /* \"#utility.yul\":10362:10425   */\n          tag_257\n          jumpi\n            /* \"#utility.yul\":10421:10422   */\n          0x00\n            /* \"#utility.yul\":10418:10419   */\n          dup1\n            /* \"#utility.yul\":10411:10423   */\n          revert\n            /* \"#utility.yul\":10362:10425   */\n        tag_257:\n            /* \"#utility.yul\":10309:10431   */\n          pop\n          jump\t// out\n            /* \"#utility.yul\":10437:10559   */\n        tag_138:\n            /* \"#utility.yul\":10510:10534   */\n          tag_259\n            /* \"#utility.yul\":10528:10533   */\n          dup2\n            /* \"#utility.yul\":10510:10534   */\n          tag_193\n          jump\t// in\n        tag_259:\n            /* \"#utility.yul\":10503:10508   */\n          dup2\n            /* \"#utility.yul\":10500:10535   */\n          eq\n            /* \"#utility.yul\":10490:10553   */\n          tag_260\n          jumpi\n            /* \"#utility.yul\":10549:10550   */\n          0x00\n            /* \"#utility.yul\":10546:10547   */\n          dup1\n            /* \"#utility.yul\":10539:10551   */\n          revert\n            /* \"#utility.yul\":10490:10553   */\n        tag_260:\n            /* \"#utility.yul\":10437:10559   */\n          pop\n          jump\t// out\n\n        auxdata: 0xa2646970667358221220aa2f974d1279e6cb1952b0b74c23c5b06af4c3ec6be71f66eb0713050ac4841f64736f6c63430008070033\n    }\n}\n",
				"bytecode": {
					"linkReferences": {},
					"object": "6080604052604051620000129062000114565b604051809103906000f0801580156200002f573d6000803e3d6000fd5b50600860006101000a81548173ffffffffffffffffffffffffffffffffffffffff021916908373ffffffffffffffffffffffffffffffffffffffff1602179055503480156200007d57600080fd5b5060405162003790380380620037908339818101604052810190620000a3919062000267565b8260009080519060200190620000bb92919062000122565b5033600760006101000a81548173ffffffffffffffffffffffffffffffffffffffff021916908373ffffffffffffffffffffffffffffffffffffffff16021790555081600181905550806002819055505050506200048a565b6115b680620021da83390190565b828054620001309062000381565b90600052602060002090601f016020900481019282620001545760008555620001a0565b82601f106200016f57805160ff1916838001178555620001a0565b82800160010185558215620001a0579182015b828111156200019f57825182559160200191906001019062000182565b5b509050620001af9190620001b3565b5090565b5b80821115620001ce576000816000905550600101620001b4565b5090565b6000620001e9620001e3846200030b565b620002e2565b90508281526020810184848401111562000208576200020762000450565b5b620002158482856200034b565b509392505050565b600082601f8301126200023557620002346200044b565b5b815162000247848260208601620001d2565b91505092915050565b600081519050620002618162000470565b92915050565b6000806000606084860312156200028357620002826200045a565b5b600084015167ffffffffffffffff811115620002a457620002a362000455565b5b620002b2868287016200021d565b9350506020620002c58682870162000250565b9250506040620002d88682870162000250565b9150509250925092565b6000620002ee62000301565b9050620002fc8282620003b7565b919050565b6000604051905090565b600067ffffffffffffffff8211156200032957620003286200041c565b5b62000334826200045f565b9050602081019050919050565b6000819050919050565b60005b838110156200036b5780820151818401526020810190506200034e565b838111156200037b576000848401525b50505050565b600060028204905060018216806200039a57607f821691505b60208210811415620003b157620003b0620003ed565b5b50919050565b620003c2826200045f565b810181811067ffffffffffffffff82111715620003e457620003e36200041c565b5b80604052505050565b7f4e487b7100000000000000000000000000000000000000000000000000000000600052602260045260246000fd5b7f4e487b7100000000000000000000000000000000000000000000000000000000600052604160045260246000fd5b600080fd5b600080fd5b600080fd5b600080fd5b6000601f19601f8301169050919050565b6200047b8162000341565b81146200048757600080fd5b50565b611d40806200049a6000396000f3fe608060405234801561001057600080fd5b50600436106100575760003560e01c80633e5529091461005c5780634041ef541461008c578063633fff16146100bc5780636dd7d8ea146100d85780638203373a146100f4575b600080fd5b61007660048036038101906100719190611321565b610110565b6040516100839190611690565b60405180910390f35b6100a660048036038101906100a19190611321565b61026d565b6040516100b39190611812565b60405180910390f35b6100d660048036038101906100d19190611397565b6103f2565b005b6100f260048036038101906100ed9190611321565b610714565b005b61010e6004803603810190610109919061134e565b610c1a565b005b6060600660008373ffffffffffffffffffffffffffffffffffffffff1673ffffffffffffffffffffffffffffffffffffffff16815260200190815260200160002060009054906101000a900460ff1661019e576040517f08c379a0000000000000000000000000000000000000000000000000000000008152600401610195906117d2565b60405180910390fd5b600560008373ffffffffffffffffffffffffffffffffffffffff1673ffffffffffffffffffffffffffffffffffffffff16815260200190815260200160002080546101e890611987565b80601f016020809104026020016040519081016040528092919081815260200182805461021490611987565b80156102615780601f1061023657610100808354040283529160200191610261565b820191906000526020600020905b81548152906001019060200180831161024457829003601f168201915b50505050509050919050565b60006002544210156102b4576040517f08c379a00000000000000000000000000000000000000000000000000000000081526004016102ab906116f2565b60405180910390fd5b600660008373ffffffffffffffffffffffffffffffffffffffff1673ffffffffffffffffffffffffffffffffffffffff16815260200190815260200160002060009054906101000a900460ff16610340576040517f08c379a0000000000000000000000000000000000000000000000000000000008152600401610337906117d2565b60405180910390fd5b600860009054906101000a900473ffffffffffffffffffffffffffffffffffffffff1673ffffffffffffffffffffffffffffffffffffffff166370a08231836040518263ffffffff1660e01b815260040161039b9190611623565b60206040518083038186803b1580156103b357600080fd5b505afa1580156103c7573d6000803e3d6000fd5b505050506040513d601f19601f820116820180604052508101906103eb919061140f565b9050919050565b600760009054906101000a900473ffffffffffffffffffffffffffffffffffffffff1673ffffffffffffffffffffffffffffffffffffffff163373ffffffffffffffffffffffffffffffffffffffff1614610482576040517f08c379a0000000000000000000000000000000000000000000000000000000008152600401610479906117f2565b60405180910390fd5b80518251146104c6576040517f08c379a00000000000000000000000000000000000000000000000000000000081526004016104bd906116b2565b60405180910390fd5b60005b825181101561070f578281815181106104e5576104e4611a91565b5b602002602001015173ffffffffffffffffffffffffffffffffffffffff163373ffffffffffffffffffffffffffffffffffffffff16141561055b576040517f08c379a000000000000000000000000000000000000000000000000000000000815260040161055290611712565b60405180910390fd5b6004600084838151811061057257610571611a91565b5b602002602001015173ffffffffffffffffffffffffffffffffffffffff1673ffffffffffffffffffffffffffffffffffffffff16815260200190815260200160002060009054906101000a900460ff1615610602576040517f08c379a00000000000000000000000000000000000000000000000000000000081526004016105f9906116d2565b60405180910390fd5b81818151811061061557610614611a91565b5b60200260200101516005600085848151811061063457610633611a91565b5b602002602001015173ffffffffffffffffffffffffffffffffffffffff1673ffffffffffffffffffffffffffffffffffffffff168152602001908152602001600020908051906020019061068992919061108a565b506001600660008584815181106106a3576106a2611a91565b5b602002602001015173ffffffffffffffffffffffffffffffffffffffff1673ffffffffffffffffffffffffffffffffffffffff16815260200190815260200160002060006101000a81548160ff0219169083151502179055508080610707906119ea565b9150506104c9565b505050565b600154421015801561072857506002544211155b610767576040517f08c379a000000000000000000000000000000000000000000000000000000000815260040161075e90611732565b60405180910390fd5b6000600860009054906101000a900473ffffffffffffffffffffffffffffffffffffffff1673ffffffffffffffffffffffffffffffffffffffff166370a08231336040518263ffffffff1660e01b81526004016107c49190611623565b60206040518083038186803b1580156107dc57600080fd5b505afa1580156107f0573d6000803e3d6000fd5b505050506040513d601f19601f82011682018060405250810190610814919061140f565b11610854576040517f08c379a000000000000000000000000000000000000000000000000000000000815260040161084b906117b2565b60405180910390fd5b600460003373ffffffffffffffffffffffffffffffffffffffff1673ffffffffffffffffffffffffffffffffffffffff16815260200190815260200160002060009054906101000a900460ff166108e0576040517f08c379a00000000000000000000000000000000000000000000000000000000081526004016108d790611752565b60405180910390fd5b600660008273ffffffffffffffffffffffffffffffffffffffff1673ffffffffffffffffffffffffffffffffffffffff16815260200190815260200160002060009054906101000a900460ff1661096c576040517f08c379a0000000000000000000000000000000000000000000000000000000008152600401610963906117d2565b60405180910390fd5b600360003373ffffffffffffffffffffffffffffffffffffffff1673ffffffffffffffffffffffffffffffffffffffff16815260200190815260200160002060009054906101000a900460ff16156109f9576040517f08c379a00000000000000000000000000000000000000000000000000000000081526004016109f090611772565b60405180910390fd5b600460008273ffffffffffffffffffffffffffffffffffffffff1673ffffffffffffffffffffffffffffffffffffffff16815260200190815260200160002060009054906101000a900460ff1615610a86576040517f08c379a0000000000000000000000000000000000000000000000000000000008152600401610a7d906116d2565b60405180910390fd5b600860009054906101000a900473ffffffffffffffffffffffffffffffffffffffff1673ffffffffffffffffffffffffffffffffffffffff1663a9059cbb82600860009054906101000a900473ffffffffffffffffffffffffffffffffffffffff1673ffffffffffffffffffffffffffffffffffffffff166370a08231336040518263ffffffff1660e01b8152600401610b209190611623565b60206040518083038186803b158015610b3857600080fd5b505afa158015610b4c573d6000803e3d6000fd5b505050506040513d601f19601f82011682018060405250810190610b70919061140f565b6040518363ffffffff1660e01b8152600401610b8d929190611667565b600060405180830381600087803b158015610ba757600080fd5b505af1158015610bbb573d6000803e3d6000fd5b505050506001600360003373ffffffffffffffffffffffffffffffffffffffff1673ffffffffffffffffffffffffffffffffffffffff16815260200190815260200160002060006101000a81548160ff02191690831515021790555050565b600760009054906101000a900473ffffffffffffffffffffffffffffffffffffffff1673ffffffffffffffffffffffffffffffffffffffff163373ffffffffffffffffffffffffffffffffffffffff1614610caa576040517f08c379a0000000000000000000000000000000000000000000000000000000008152600401610ca1906117f2565b60405180910390fd5b60005b8151811015610efe5760066000838381518110610ccd57610ccc611a91565b5b602002602001015173ffffffffffffffffffffffffffffffffffffffff1673ffffffffffffffffffffffffffffffffffffffff16815260200190815260200160002060009054906101000a900460ff1615610d5d576040517f08c379a0000000000000000000000000000000000000000000000000000000008152600401610d5490611792565b60405180910390fd5b600060036000848481518110610d7657610d75611a91565b5b602002602001015173ffffffffffffffffffffffffffffffffffffffff1673ffffffffffffffffffffffffffffffffffffffff16815260200190815260200160002060006101000a81548160ff021916908315150217905550600160046000848481518110610de857610de7611a91565b5b602002602001015173ffffffffffffffffffffffffffffffffffffffff1673ffffffffffffffffffffffffffffffffffffffff16815260200190815260200160002060006101000a81548160ff021916908315150217905550600860009054906101000a900473ffffffffffffffffffffffffffffffffffffffff1673ffffffffffffffffffffffffffffffffffffffff166340c10f19838381518110610e9257610e91611a91565b5b602002602001015160016040518363ffffffff1660e01b8152600401610eb992919061163e565b600060405180830381600087803b158015610ed357600080fd5b505af1158015610ee7573d6000803e3d6000fd5b505050508080610ef6906119ea565b915050610cad565b506000600860009054906101000a900473ffffffffffffffffffffffffffffffffffffffff1673ffffffffffffffffffffffffffffffffffffffff166370a08231600760009054906101000a900473ffffffffffffffffffffffffffffffffffffffff166040518263ffffffff1660e01b8152600401610f7e9190611623565b60206040518083038186803b158015610f9657600080fd5b505afa158015610faa573d6000803e3d6000fd5b505050506040513d601f19601f82011682018060405250810190610fce919061140f565b141561108757600860009054906101000a900473ffffffffffffffffffffffffffffffffffffffff1673ffffffffffffffffffffffffffffffffffffffff166340c10f19600760009054906101000a900473ffffffffffffffffffffffffffffffffffffffff1660016040518363ffffffff1660e01b815260040161105492919061163e565b600060405180830381600087803b15801561106e57600080fd5b505af1158015611082573d6000803e3d6000fd5b505050505b50565b82805461109690611987565b90600052602060002090601f0160209004810192826110b857600085556110ff565b82601f106110d157805160ff19168380011785556110ff565b828001600101855582156110ff579182015b828111156110fe5782518255916020019190600101906110e3565b5b50905061110c9190611110565b5090565b5b80821115611129576000816000905550600101611111565b5090565b600061114061113b84611852565b61182d565b9050808382526020820190508285602086028201111561116357611162611af4565b5b60005b858110156111935781611179888261126d565b845260208401935060208301925050600181019050611166565b5050509392505050565b60006111b06111ab8461187e565b61182d565b905080838252602082019050828560208602820111156111d3576111d2611af4565b5b60005b8581101561122157813567ffffffffffffffff8111156111f9576111f8611aef565b5b80860161120689826112de565b855260208501945060208401935050506001810190506111d6565b5050509392505050565b600061123e611239846118aa565b61182d565b90508281526020810184848401111561125a57611259611af9565b5b611265848285611945565b509392505050565b60008135905061127c81611cdc565b92915050565b600082601f83011261129757611296611aef565b5b81356112a784826020860161112d565b91505092915050565b600082601f8301126112c5576112c4611aef565b5b81356112d584826020860161119d565b91505092915050565b600082601f8301126112f3576112f2611aef565b5b813561130384826020860161122b565b91505092915050565b60008151905061131b81611cf3565b92915050565b60006020828403121561133757611336611b03565b5b60006113458482850161126d565b91505092915050565b60006020828403121561136457611363611b03565b5b600082013567ffffffffffffffff81111561138257611381611afe565b5b61138e84828501611282565b91505092915050565b600080604083850312156113ae576113ad611b03565b5b600083013567ffffffffffffffff8111156113cc576113cb611afe565b5b6113d885828601611282565b925050602083013567ffffffffffffffff8111156113f9576113f8611afe565b5b611405858286016112b0565b9150509250929050565b60006020828403121561142557611424611b03565b5b60006114338482850161130c565b91505092915050565b611445816118f7565b82525050565b61145481611933565b82525050565b6000611465826118db565b61146f81856118e6565b935061147f818560208601611954565b61148881611b08565b840191505092915050565b60006114a06014836118e6565b91506114ab82611b19565b602082019050919050565b60006114c36018836118e6565b91506114ce82611b42565b602082019050919050565b60006114e66015836118e6565b91506114f182611b6b565b602082019050919050565b6000611509601e836118e6565b915061151482611b94565b602082019050919050565b600061152c6011836118e6565b915061153782611bbd565b602082019050919050565b600061154f6014836118e6565b915061155a82611be6565b602082019050919050565b60006115726014836118e6565b915061157d82611c0f565b602082019050919050565b60006115956018836118e6565b91506115a082611c38565b602082019050919050565b60006115b86014836118e6565b91506115c382611c61565b602082019050919050565b60006115db6017836118e6565b91506115e682611c8a565b602082019050919050565b60006115fe6017836118e6565b915061160982611cb3565b602082019050919050565b61161d81611929565b82525050565b6000602082019050611638600083018461143c565b92915050565b6000604082019050611653600083018561143c565b611660602083018461144b565b9392505050565b600060408201905061167c600083018561143c565b6116896020830184611614565b9392505050565b600060208201905081810360008301526116aa818461145a565b905092915050565b600060208201905081810360008301526116cb81611493565b9050919050565b600060208201905081810360008301526116eb816114b6565b9050919050565b6000602082019050818103600083015261170b816114d9565b9050919050565b6000602082019050818103600083015261172b816114fc565b9050919050565b6000602082019050818103600083015261174b8161151f565b9050919050565b6000602082019050818103600083015261176b81611542565b9050919050565b6000602082019050818103600083015261178b81611565565b9050919050565b600060208201905081810360008301526117ab81611588565b9050919050565b600060208201905081810360008301526117cb816115ab565b9050919050565b600060208201905081810360008301526117eb816115ce565b9050919050565b6000602082019050818103600083015261180b816115f1565b9050919050565b60006020820190506118276000830184611614565b92915050565b6000611837611848565b905061184382826119b9565b919050565b6000604051905090565b600067ffffffffffffffff82111561186d5761186c611ac0565b5b602082029050602081019050919050565b600067ffffffffffffffff82111561189957611898611ac0565b5b602082029050602081019050919050565b600067ffffffffffffffff8211156118c5576118c4611ac0565b5b6118ce82611b08565b9050602081019050919050565b600081519050919050565b600082825260208201905092915050565b600061190282611909565b9050919050565b600073ffffffffffffffffffffffffffffffffffffffff82169050919050565b6000819050919050565b600061193e82611929565b9050919050565b82818337600083830152505050565b60005b83811015611972578082015181840152602081019050611957565b83811115611981576000848401525b50505050565b6000600282049050600182168061199f57607f821691505b602082108114156119b3576119b2611a62565b5b50919050565b6119c282611b08565b810181811067ffffffffffffffff821117156119e1576119e0611ac0565b5b80604052505050565b60006119f582611929565b91507fffffffffffffffffffffffffffffffffffffffffffffffffffffffffffffffff821415611a2857611a27611a33565b5b600182019050919050565b7f4e487b7100000000000000000000000000000000000000000000000000000000600052601160045260246000fd5b7f4e487b7100000000000000000000000000000000000000000000000000000000600052602260045260246000fd5b7f4e487b7100000000000000000000000000000000000000000000000000000000600052603260045260246000fd5b7f4e487b7100000000000000000000000000000000000000000000000000000000600052604160045260246000fd5b600080fd5b600080fd5b600080fd5b600080fd5b600080fd5b6000601f19601f8301169050919050565b7f4c656e67746820697320646966666572656e742e000000000000000000000000600082015250565b7f566f7465722063616e27742062652070726f706f73616c2e0000000000000000600082015250565b7f566f74696e6720686173206e6f7420656e6465642e0000000000000000000000600082015250565b7f4368616972706572736f6e2063616e27742062652070726f706f73616c2e0000600082015250565b7f566f74696e6720636f6d706c657465642e000000000000000000000000000000600082015250565b7f566f74657220646f65736e27742065786973742e000000000000000000000000600082015250565b7f566f74657220616c726561647920766f7465642e000000000000000000000000600082015250565b7f50726f706f73616c2063616e277420626520766f7465722e0000000000000000600082015250565b7f546f6b656e20646f65736e27742065786973742e000000000000000000000000600082015250565b7f50726f706f73616c20646f65736e27742065786973742e000000000000000000600082015250565b7f546869732069736e2774206368616972706572736f6e2e000000000000000000600082015250565b611ce5816118f7565b8114611cf057600080fd5b50565b611cfc81611929565b8114611d0757600080fd5b5056fea26469706673582212207bfd63e27af05b2d5ef8ec16a7fe75fc65681cf3e34f26b34b5f46b6ec8b08f464736f6c6343000807003360806040523480156200001157600080fd5b506040518060400160405280600d81526020017f452d566f74696e6720636f696e00000000000000000000000000000000000000815250600190805190602001906200005f929190620000d0565b506000600260006101000a81548160ff021916908360ff1602179055506040518060400160405280600381526020017f455643000000000000000000000000000000000000000000000000000000000081525060039080519060200190620000c9929190620000d0565b50620001e5565b828054620000de9062000180565b90600052602060002090601f0160209004810192826200010257600085556200014e565b82601f106200011d57805160ff19168380011785556200014e565b828001600101855582156200014e579182015b828111156200014d57825182559160200191906001019062000130565b5b5090506200015d919062000161565b5090565b5b808211156200017c57600081600090555060010162000162565b5090565b600060028204905060018216806200019957607f821691505b60208210811415620001b057620001af620001b6565b5b50919050565b7f4e487b7100000000000000000000000000000000000000000000000000000000600052602260045260246000fd5b6113c180620001f56000396000f3fe608060405234801561001057600080fd5b50600436106100b45760003560e01c806354fd4d501161007157806354fd4d501461016757806370a082311461018557806395d89b41146101b5578063a9059cbb146101d3578063c4e41b22146101ef578063dd62ed3e1461020d576100b4565b806306fdde03146100b9578063095ea7b3146100d757806318160ddd146100f357806323b872dd14610111578063313ce5671461012d57806340c10f191461014b575b600080fd5b6100c161023d565b6040516100ce9190610fea565b60405180910390f35b6100f160048036038101906100ec9190610ec7565b6102cb565b005b6100fb6103b5565b604051610108919061108c565b60405180910390f35b61012b60048036038101906101269190610e74565b6103bb565b005b6101356107e2565b60405161014291906110a7565b60405180910390f35b61016560048036038101906101609190610ec7565b6107f5565b005b61016f610955565b60405161017c9190610fea565b60405180910390f35b61019f600480360381019061019a9190610e07565b6109e3565b6040516101ac919061108c565b60405180910390f35b6101bd610a2c565b6040516101ca9190610fea565b60405180910390f35b6101ed60048036038101906101e89190610ec7565b610aba565b005b6101f7610cf2565b604051610204919061108c565b60405180910390f35b61022760048036038101906102229190610e34565b610cfb565b604051610234919061108c565b60405180910390f35b6001805461024a906111e4565b80601f0160208091040260200160405190810160405280929190818152602001828054610276906111e4565b80156102c35780601f10610298576101008083540402835291602001916102c3565b820191906000526020600020905b8154815290600101906020018083116102a657829003601f168201915b505050505081565b80600660003373ffffffffffffffffffffffffffffffffffffffff1673ffffffffffffffffffffffffffffffffffffffff16815260200190815260200160002060008473ffffffffffffffffffffffffffffffffffffffff1673ffffffffffffffffffffffffffffffffffffffff168152602001908152602001600020819055508173ffffffffffffffffffffffffffffffffffffffff163373ffffffffffffffffffffffffffffffffffffffff167f8c5be1e5ebec7d5bd14f71427d1e84f3dd0314c0f7b2291e5b200ac8c7c3b925836040516103a9919061108c565b60405180910390a35050565b60005481565b600081116103fe576040517f08c379a00000000000000000000000000000000000000000000000000000000081526004016103f59061102c565b60405180910390fd5b80600560008573ffffffffffffffffffffffffffffffffffffffff1673ffffffffffffffffffffffffffffffffffffffff168152602001908152602001600020541015610480576040517f08c379a00000000000000000000000000000000000000000000000000000000081526004016104779061100c565b60405180910390fd5b80600660008573ffffffffffffffffffffffffffffffffffffffff1673ffffffffffffffffffffffffffffffffffffffff16815260200190815260200160002060003373ffffffffffffffffffffffffffffffffffffffff1673ffffffffffffffffffffffffffffffffffffffff16815260200190815260200160002054101561053f576040517f08c379a00000000000000000000000000000000000000000000000000000000081526004016105369061104c565b60405180910390fd5b61059181600560008573ffffffffffffffffffffffffffffffffffffffff1673ffffffffffffffffffffffffffffffffffffffff16815260200190815260200160002054610d8290919063ffffffff16565b600560008473ffffffffffffffffffffffffffffffffffffffff1673ffffffffffffffffffffffffffffffffffffffff1681526020019081526020016000208190555061062681600560008673ffffffffffffffffffffffffffffffffffffffff1673ffffffffffffffffffffffffffffffffffffffff16815260200190815260200160002054610daa90919063ffffffff16565b600560008573ffffffffffffffffffffffffffffffffffffffff1673ffffffffffffffffffffffffffffffffffffffff168152602001908152602001600020819055506106f881600660008673ffffffffffffffffffffffffffffffffffffffff1673ffffffffffffffffffffffffffffffffffffffff16815260200190815260200160002060003373ffffffffffffffffffffffffffffffffffffffff1673ffffffffffffffffffffffffffffffffffffffff16815260200190815260200160002054610daa90919063ffffffff16565b600660008573ffffffffffffffffffffffffffffffffffffffff1673ffffffffffffffffffffffffffffffffffffffff16815260200190815260200160002060003373ffffffffffffffffffffffffffffffffffffffff1673ffffffffffffffffffffffffffffffffffffffff168152602001908152602001600020819055508173ffffffffffffffffffffffffffffffffffffffff168373ffffffffffffffffffffffffffffffffffffffff167fddf252ad1be2c89b69c2b068fc378daa952ba7f163c4a11628f55a4df523b3ef836040516107d5919061108c565b60405180910390a3505050565b600260009054906101000a900460ff1681565b600073ffffffffffffffffffffffffffffffffffffffff168273ffffffffffffffffffffffffffffffffffffffff161415610865576040517f08c379a000000000000000000000000000000000000000000000000000000000815260040161085c9061106c565b60405180910390fd5b61087160008383610dd3565b8060008082825461088291906110de565b9250508190555080600560008473ffffffffffffffffffffffffffffffffffffffff1673ffffffffffffffffffffffffffffffffffffffff16815260200190815260200160002060008282546108d891906110de565b925050819055508173ffffffffffffffffffffffffffffffffffffffff16600073ffffffffffffffffffffffffffffffffffffffff167fddf252ad1be2c89b69c2b068fc378daa952ba7f163c4a11628f55a4df523b3ef8360405161093d919061108c565b60405180910390a361095160008383610dd8565b5050565b60048054610962906111e4565b80601f016020809104026020016040519081016040528092919081815260200182805461098e906111e4565b80156109db5780601f106109b0576101008083540402835291602001916109db565b820191906000526020600020905b8154815290600101906020018083116109be57829003601f168201915b505050505081565b6000600560008373ffffffffffffffffffffffffffffffffffffffff1673ffffffffffffffffffffffffffffffffffffffff168152602001908152602001600020549050919050565b60038054610a39906111e4565b80601f0160208091040260200160405190810160405280929190818152602001828054610a65906111e4565b8015610ab25780601f10610a8757610100808354040283529160200191610ab2565b820191906000526020600020905b815481529060010190602001808311610a9557829003601f168201915b505050505081565b6040600481610ac991906110de565b600036905014610adc57610adb611216565b5b60008211610b1f576040517f08c379a0000000000000000000000000000000000000000000000000000000008152600401610b169061102c565b60405180910390fd5b610bb0600560003373ffffffffffffffffffffffffffffffffffffffff1673ffffffffffffffffffffffffffffffffffffffff16815260200190815260200160002054600560003373ffffffffffffffffffffffffffffffffffffffff1673ffffffffffffffffffffffffffffffffffffffff16815260200190815260200160002054610daa90919063ffffffff16565b600560003373ffffffffffffffffffffffffffffffffffffffff1673ffffffffffffffffffffffffffffffffffffffff16815260200190815260200160002081905550610c4582600560008673ffffffffffffffffffffffffffffffffffffffff1673ffffffffffffffffffffffffffffffffffffffff16815260200190815260200160002054610d8290919063ffffffff16565b600560008573ffffffffffffffffffffffffffffffffffffffff1673ffffffffffffffffffffffffffffffffffffffff168152602001908152602001600020819055508273ffffffffffffffffffffffffffffffffffffffff163373ffffffffffffffffffffffffffffffffffffffff167fddf252ad1be2c89b69c2b068fc378daa952ba7f163c4a11628f55a4df523b3ef84604051610ce5919061108c565b60405180910390a3505050565b60008054905090565b6000600660008373ffffffffffffffffffffffffffffffffffffffff1673ffffffffffffffffffffffffffffffffffffffff16815260200190815260200160002060008473ffffffffffffffffffffffffffffffffffffffff1673ffffffffffffffffffffffffffffffffffffffff16815260200190815260200160002054905092915050565b6000808284610d9191906110de565b905083811015610da057600080fd5b8091505092915050565b600082821115610db957600080fd5b60008284610dc79190611134565b90508091505092915050565b505050565b505050565b600081359050610dec8161135d565b92915050565b600081359050610e0181611374565b92915050565b600060208284031215610e1d57610e1c6112a3565b5b6000610e2b84828501610ddd565b91505092915050565b60008060408385031215610e4b57610e4a6112a3565b5b6000610e5985828601610ddd565b9250506020610e6a85828601610ddd565b9150509250929050565b600080600060608486031215610e8d57610e8c6112a3565b5b6000610e9b86828701610ddd565b9350506020610eac86828701610ddd565b9250506040610ebd86828701610df2565b9150509250925092565b60008060408385031215610ede57610edd6112a3565b5b6000610eec85828601610ddd565b9250506020610efd85828601610df2565b9150509250929050565b6000610f12826110c2565b610f1c81856110cd565b9350610f2c8185602086016111b1565b610f35816112a8565b840191505092915050565b6000610f4d6010836110cd565b9150610f58826112b9565b602082019050919050565b6000610f70600b836110cd565b9150610f7b826112e2565b602082019050919050565b6000610f93600e836110cd565b9150610f9e8261130b565b602082019050919050565b6000610fb6601f836110cd565b9150610fc182611334565b602082019050919050565b610fd58161119a565b82525050565b610fe4816111a4565b82525050565b600060208201905081810360008301526110048184610f07565b905092915050565b6000602082019050818103600083015261102581610f40565b9050919050565b6000602082019050818103600083015261104581610f63565b9050919050565b6000602082019050818103600083015261106581610f86565b9050919050565b6000602082019050818103600083015261108581610fa9565b9050919050565b60006020820190506110a16000830184610fcc565b92915050565b60006020820190506110bc6000830184610fdb565b92915050565b600081519050919050565b600082825260208201905092915050565b60006110e98261119a565b91506110f48361119a565b9250827fffffffffffffffffffffffffffffffffffffffffffffffffffffffffffffffff0382111561112957611128611245565b5b828201905092915050565b600061113f8261119a565b915061114a8361119a565b92508282101561115d5761115c611245565b5b828203905092915050565b60006111738261117a565b9050919050565b600073ffffffffffffffffffffffffffffffffffffffff82169050919050565b6000819050919050565b600060ff82169050919050565b60005b838110156111cf5780820151818401526020810190506111b4565b838111156111de576000848401525b50505050565b600060028204905060018216806111fc57607f821691505b602082108114156112105761120f611274565b5b50919050565b7f4e487b7100000000000000000000000000000000000000000000000000000000600052600160045260246000fd5b7f4e487b7100000000000000000000000000000000000000000000000000000000600052601160045260246000fd5b7f4e487b7100000000000000000000000000000000000000000000000000000000600052602260045260246000fd5b600080fd5b6000601f19601f8301169050919050565b7f42616c616e6365203c20616d6f756e7400000000000000000000000000000000600082015250565b7f416d6f756e74203c3d2030000000000000000000000000000000000000000000600082015250565b7f446f6e277420616c6c6f7765642e000000000000000000000000000000000000600082015250565b7f45524332303a206d696e7420746f20746865207a65726f206164647265737300600082015250565b61136681611168565b811461137157600080fd5b50565b61137d8161119a565b811461138857600080fd5b5056fea2646970667358221220aa2f974d1279e6cb1952b0b74c23c5b06af4c3ec6be71f66eb0713050ac4841f64736f6c63430008070033",
					"opcodes": "PUSH1 0x80 PUSH1 0x40 MSTORE PUSH1 0x40 MLOAD PUSH3 0x12 SWAP1 PUSH3 0x114 JUMP JUMPDEST PUSH1 0x40 MLOAD DUP1 SWAP2 SUB SWAP1 PUSH1 0x0 CREATE DUP1 ISZERO DUP1 ISZERO PUSH3 0x2F JUMPI RETURNDATASIZE PUSH1 0x0 DUP1 RETURNDATACOPY RETURNDATASIZE PUSH1 0x0 REVERT JUMPDEST POP PUSH1 0x8 PUSH1 0x0 PUSH2 0x100 EXP DUP2 SLOAD DUP2 PUSH20 0xFFFFFFFFFFFFFFFFFFFFFFFFFFFFFFFFFFFFFFFF MUL NOT AND SWAP1 DUP4 PUSH20 0xFFFFFFFFFFFFFFFFFFFFFFFFFFFFFFFFFFFFFFFF AND MUL OR SWAP1 SSTORE POP CALLVALUE DUP1 ISZERO PUSH3 0x7D JUMPI PUSH1 0x0 DUP1 REVERT JUMPDEST POP PUSH1 0x40 MLOAD PUSH3 0x3790 CODESIZE SUB DUP1 PUSH3 0x3790 DUP4 CODECOPY DUP2 DUP2 ADD PUSH1 0x40 MSTORE DUP2 ADD SWAP1 PUSH3 0xA3 SWAP2 SWAP1 PUSH3 0x267 JUMP JUMPDEST DUP3 PUSH1 0x0 SWAP1 DUP1 MLOAD SWAP1 PUSH1 0x20 ADD SWAP1 PUSH3 0xBB SWAP3 SWAP2 SWAP1 PUSH3 0x122 JUMP JUMPDEST POP CALLER PUSH1 0x7 PUSH1 0x0 PUSH2 0x100 EXP DUP2 SLOAD DUP2 PUSH20 0xFFFFFFFFFFFFFFFFFFFFFFFFFFFFFFFFFFFFFFFF MUL NOT AND SWAP1 DUP4 PUSH20 0xFFFFFFFFFFFFFFFFFFFFFFFFFFFFFFFFFFFFFFFF AND MUL OR SWAP1 SSTORE POP DUP2 PUSH1 0x1 DUP2 SWAP1 SSTORE POP DUP1 PUSH1 0x2 DUP2 SWAP1 SSTORE POP POP POP POP PUSH3 0x48A JUMP JUMPDEST PUSH2 0x15B6 DUP1 PUSH3 0x21DA DUP4 CODECOPY ADD SWAP1 JUMP JUMPDEST DUP3 DUP1 SLOAD PUSH3 0x130 SWAP1 PUSH3 0x381 JUMP JUMPDEST SWAP1 PUSH1 0x0 MSTORE PUSH1 0x20 PUSH1 0x0 KECCAK256 SWAP1 PUSH1 0x1F ADD PUSH1 0x20 SWAP1 DIV DUP2 ADD SWAP3 DUP3 PUSH3 0x154 JUMPI PUSH1 0x0 DUP6 SSTORE PUSH3 0x1A0 JUMP JUMPDEST DUP3 PUSH1 0x1F LT PUSH3 0x16F JUMPI DUP1 MLOAD PUSH1 0xFF NOT AND DUP4 DUP1 ADD OR DUP6 SSTORE PUSH3 0x1A0 JUMP JUMPDEST DUP3 DUP1 ADD PUSH1 0x1 ADD DUP6 SSTORE DUP3 ISZERO PUSH3 0x1A0 JUMPI SWAP2 DUP3 ADD JUMPDEST DUP3 DUP2 GT ISZERO PUSH3 0x19F JUMPI DUP3 MLOAD DUP3 SSTORE SWAP2 PUSH1 0x20 ADD SWAP2 SWAP1 PUSH1 0x1 ADD SWAP1 PUSH3 0x182 JUMP JUMPDEST JUMPDEST POP SWAP1 POP PUSH3 0x1AF SWAP2 SWAP1 PUSH3 0x1B3 JUMP JUMPDEST POP SWAP1 JUMP JUMPDEST JUMPDEST DUP1 DUP3 GT ISZERO PUSH3 0x1CE JUMPI PUSH1 0x0 DUP2 PUSH1 0x0 SWAP1 SSTORE POP PUSH1 0x1 ADD PUSH3 0x1B4 JUMP JUMPDEST POP SWAP1 JUMP JUMPDEST PUSH1 0x0 PUSH3 0x1E9 PUSH3 0x1E3 DUP5 PUSH3 0x30B JUMP JUMPDEST PUSH3 0x2E2 JUMP JUMPDEST SWAP1 POP DUP3 DUP2 MSTORE PUSH1 0x20 DUP2 ADD DUP5 DUP5 DUP5 ADD GT ISZERO PUSH3 0x208 JUMPI PUSH3 0x207 PUSH3 0x450 JUMP JUMPDEST JUMPDEST PUSH3 0x215 DUP5 DUP3 DUP6 PUSH3 0x34B JUMP JUMPDEST POP SWAP4 SWAP3 POP POP POP JUMP JUMPDEST PUSH1 0x0 DUP3 PUSH1 0x1F DUP4 ADD SLT PUSH3 0x235 JUMPI PUSH3 0x234 PUSH3 0x44B JUMP JUMPDEST JUMPDEST DUP2 MLOAD PUSH3 0x247 DUP5 DUP3 PUSH1 0x20 DUP7 ADD PUSH3 0x1D2 JUMP JUMPDEST SWAP2 POP POP SWAP3 SWAP2 POP POP JUMP JUMPDEST PUSH1 0x0 DUP2 MLOAD SWAP1 POP PUSH3 0x261 DUP2 PUSH3 0x470 JUMP JUMPDEST SWAP3 SWAP2 POP POP JUMP JUMPDEST PUSH1 0x0 DUP1 PUSH1 0x0 PUSH1 0x60 DUP5 DUP7 SUB SLT ISZERO PUSH3 0x283 JUMPI PUSH3 0x282 PUSH3 0x45A JUMP JUMPDEST JUMPDEST PUSH1 0x0 DUP5 ADD MLOAD PUSH8 0xFFFFFFFFFFFFFFFF DUP2 GT ISZERO PUSH3 0x2A4 JUMPI PUSH3 0x2A3 PUSH3 0x455 JUMP JUMPDEST JUMPDEST PUSH3 0x2B2 DUP7 DUP3 DUP8 ADD PUSH3 0x21D JUMP JUMPDEST SWAP4 POP POP PUSH1 0x20 PUSH3 0x2C5 DUP7 DUP3 DUP8 ADD PUSH3 0x250 JUMP JUMPDEST SWAP3 POP POP PUSH1 0x40 PUSH3 0x2D8 DUP7 DUP3 DUP8 ADD PUSH3 0x250 JUMP JUMPDEST SWAP2 POP POP SWAP3 POP SWAP3 POP SWAP3 JUMP JUMPDEST PUSH1 0x0 PUSH3 0x2EE PUSH3 0x301 JUMP JUMPDEST SWAP1 POP PUSH3 0x2FC DUP3 DUP3 PUSH3 0x3B7 JUMP JUMPDEST SWAP2 SWAP1 POP JUMP JUMPDEST PUSH1 0x0 PUSH1 0x40 MLOAD SWAP1 POP SWAP1 JUMP JUMPDEST PUSH1 0x0 PUSH8 0xFFFFFFFFFFFFFFFF DUP3 GT ISZERO PUSH3 0x329 JUMPI PUSH3 0x328 PUSH3 0x41C JUMP JUMPDEST JUMPDEST PUSH3 0x334 DUP3 PUSH3 0x45F JUMP JUMPDEST SWAP1 POP PUSH1 0x20 DUP2 ADD SWAP1 POP SWAP2 SWAP1 POP JUMP JUMPDEST PUSH1 0x0 DUP2 SWAP1 POP SWAP2 SWAP1 POP JUMP JUMPDEST PUSH1 0x0 JUMPDEST DUP4 DUP2 LT ISZERO PUSH3 0x36B JUMPI DUP1 DUP3 ADD MLOAD DUP2 DUP5 ADD MSTORE PUSH1 0x20 DUP2 ADD SWAP1 POP PUSH3 0x34E JUMP JUMPDEST DUP4 DUP2 GT ISZERO PUSH3 0x37B JUMPI PUSH1 0x0 DUP5 DUP5 ADD MSTORE JUMPDEST POP POP POP POP JUMP JUMPDEST PUSH1 0x0 PUSH1 0x2 DUP3 DIV SWAP1 POP PUSH1 0x1 DUP3 AND DUP1 PUSH3 0x39A JUMPI PUSH1 0x7F DUP3 AND SWAP2 POP JUMPDEST PUSH1 0x20 DUP3 LT DUP2 EQ ISZERO PUSH3 0x3B1 JUMPI PUSH3 0x3B0 PUSH3 0x3ED JUMP JUMPDEST JUMPDEST POP SWAP2 SWAP1 POP JUMP JUMPDEST PUSH3 0x3C2 DUP3 PUSH3 0x45F JUMP JUMPDEST DUP2 ADD DUP2 DUP2 LT PUSH8 0xFFFFFFFFFFFFFFFF DUP3 GT OR ISZERO PUSH3 0x3E4 JUMPI PUSH3 0x3E3 PUSH3 0x41C JUMP JUMPDEST JUMPDEST DUP1 PUSH1 0x40 MSTORE POP POP POP JUMP JUMPDEST PUSH32 0x4E487B7100000000000000000000000000000000000000000000000000000000 PUSH1 0x0 MSTORE PUSH1 0x22 PUSH1 0x4 MSTORE PUSH1 0x24 PUSH1 0x0 REVERT JUMPDEST PUSH32 0x4E487B7100000000000000000000000000000000000000000000000000000000 PUSH1 0x0 MSTORE PUSH1 0x41 PUSH1 0x4 MSTORE PUSH1 0x24 PUSH1 0x0 REVERT JUMPDEST PUSH1 0x0 DUP1 REVERT JUMPDEST PUSH1 0x0 DUP1 REVERT JUMPDEST PUSH1 0x0 DUP1 REVERT JUMPDEST PUSH1 0x0 DUP1 REVERT JUMPDEST PUSH1 0x0 PUSH1 0x1F NOT PUSH1 0x1F DUP4 ADD AND SWAP1 POP SWAP2 SWAP1 POP JUMP JUMPDEST PUSH3 0x47B DUP2 PUSH3 0x341 JUMP JUMPDEST DUP2 EQ PUSH3 0x487 JUMPI PUSH1 0x0 DUP1 REVERT JUMPDEST POP JUMP JUMPDEST PUSH2 0x1D40 DUP1 PUSH3 0x49A PUSH1 0x0 CODECOPY PUSH1 0x0 RETURN INVALID PUSH1 0x80 PUSH1 0x40 MSTORE CALLVALUE DUP1 ISZERO PUSH2 0x10 JUMPI PUSH1 0x0 DUP1 REVERT JUMPDEST POP PUSH1 0x4 CALLDATASIZE LT PUSH2 0x57 JUMPI PUSH1 0x0 CALLDATALOAD PUSH1 0xE0 SHR DUP1 PUSH4 0x3E552909 EQ PUSH2 0x5C JUMPI DUP1 PUSH4 0x4041EF54 EQ PUSH2 0x8C JUMPI DUP1 PUSH4 0x633FFF16 EQ PUSH2 0xBC JUMPI DUP1 PUSH4 0x6DD7D8EA EQ PUSH2 0xD8 JUMPI DUP1 PUSH4 0x8203373A EQ PUSH2 0xF4 JUMPI JUMPDEST PUSH1 0x0 DUP1 REVERT JUMPDEST PUSH2 0x76 PUSH1 0x4 DUP1 CALLDATASIZE SUB DUP2 ADD SWAP1 PUSH2 0x71 SWAP2 SWAP1 PUSH2 0x1321 JUMP JUMPDEST PUSH2 0x110 JUMP JUMPDEST PUSH1 0x40 MLOAD PUSH2 0x83 SWAP2 SWAP1 PUSH2 0x1690 JUMP JUMPDEST PUSH1 0x40 MLOAD DUP1 SWAP2 SUB SWAP1 RETURN JUMPDEST PUSH2 0xA6 PUSH1 0x4 DUP1 CALLDATASIZE SUB DUP2 ADD SWAP1 PUSH2 0xA1 SWAP2 SWAP1 PUSH2 0x1321 JUMP JUMPDEST PUSH2 0x26D JUMP JUMPDEST PUSH1 0x40 MLOAD PUSH2 0xB3 SWAP2 SWAP1 PUSH2 0x1812 JUMP JUMPDEST PUSH1 0x40 MLOAD DUP1 SWAP2 SUB SWAP1 RETURN JUMPDEST PUSH2 0xD6 PUSH1 0x4 DUP1 CALLDATASIZE SUB DUP2 ADD SWAP1 PUSH2 0xD1 SWAP2 SWAP1 PUSH2 0x1397 JUMP JUMPDEST PUSH2 0x3F2 JUMP JUMPDEST STOP JUMPDEST PUSH2 0xF2 PUSH1 0x4 DUP1 CALLDATASIZE SUB DUP2 ADD SWAP1 PUSH2 0xED SWAP2 SWAP1 PUSH2 0x1321 JUMP JUMPDEST PUSH2 0x714 JUMP JUMPDEST STOP JUMPDEST PUSH2 0x10E PUSH1 0x4 DUP1 CALLDATASIZE SUB DUP2 ADD SWAP1 PUSH2 0x109 SWAP2 SWAP1 PUSH2 0x134E JUMP JUMPDEST PUSH2 0xC1A JUMP JUMPDEST STOP JUMPDEST PUSH1 0x60 PUSH1 0x6 PUSH1 0x0 DUP4 PUSH20 0xFFFFFFFFFFFFFFFFFFFFFFFFFFFFFFFFFFFFFFFF AND PUSH20 0xFFFFFFFFFFFFFFFFFFFFFFFFFFFFFFFFFFFFFFFF AND DUP2 MSTORE PUSH1 0x20 ADD SWAP1 DUP2 MSTORE PUSH1 0x20 ADD PUSH1 0x0 KECCAK256 PUSH1 0x0 SWAP1 SLOAD SWAP1 PUSH2 0x100 EXP SWAP1 DIV PUSH1 0xFF AND PUSH2 0x19E JUMPI PUSH1 0x40 MLOAD PUSH32 0x8C379A000000000000000000000000000000000000000000000000000000000 DUP2 MSTORE PUSH1 0x4 ADD PUSH2 0x195 SWAP1 PUSH2 0x17D2 JUMP JUMPDEST PUSH1 0x40 MLOAD DUP1 SWAP2 SUB SWAP1 REVERT JUMPDEST PUSH1 0x5 PUSH1 0x0 DUP4 PUSH20 0xFFFFFFFFFFFFFFFFFFFFFFFFFFFFFFFFFFFFFFFF AND PUSH20 0xFFFFFFFFFFFFFFFFFFFFFFFFFFFFFFFFFFFFFFFF AND DUP2 MSTORE PUSH1 0x20 ADD SWAP1 DUP2 MSTORE PUSH1 0x20 ADD PUSH1 0x0 KECCAK256 DUP1 SLOAD PUSH2 0x1E8 SWAP1 PUSH2 0x1987 JUMP JUMPDEST DUP1 PUSH1 0x1F ADD PUSH1 0x20 DUP1 SWAP2 DIV MUL PUSH1 0x20 ADD PUSH1 0x40 MLOAD SWAP1 DUP2 ADD PUSH1 0x40 MSTORE DUP1 SWAP3 SWAP2 SWAP1 DUP2 DUP2 MSTORE PUSH1 0x20 ADD DUP3 DUP1 SLOAD PUSH2 0x214 SWAP1 PUSH2 0x1987 JUMP JUMPDEST DUP1 ISZERO PUSH2 0x261 JUMPI DUP1 PUSH1 0x1F LT PUSH2 0x236 JUMPI PUSH2 0x100 DUP1 DUP4 SLOAD DIV MUL DUP4 MSTORE SWAP2 PUSH1 0x20 ADD SWAP2 PUSH2 0x261 JUMP JUMPDEST DUP3 ADD SWAP2 SWAP1 PUSH1 0x0 MSTORE PUSH1 0x20 PUSH1 0x0 KECCAK256 SWAP1 JUMPDEST DUP2 SLOAD DUP2 MSTORE SWAP1 PUSH1 0x1 ADD SWAP1 PUSH1 0x20 ADD DUP1 DUP4 GT PUSH2 0x244 JUMPI DUP3 SWAP1 SUB PUSH1 0x1F AND DUP3 ADD SWAP2 JUMPDEST POP POP POP POP POP SWAP1 POP SWAP2 SWAP1 POP JUMP JUMPDEST PUSH1 0x0 PUSH1 0x2 SLOAD TIMESTAMP LT ISZERO PUSH2 0x2B4 JUMPI PUSH1 0x40 MLOAD PUSH32 0x8C379A000000000000000000000000000000000000000000000000000000000 DUP2 MSTORE PUSH1 0x4 ADD PUSH2 0x2AB SWAP1 PUSH2 0x16F2 JUMP JUMPDEST PUSH1 0x40 MLOAD DUP1 SWAP2 SUB SWAP1 REVERT JUMPDEST PUSH1 0x6 PUSH1 0x0 DUP4 PUSH20 0xFFFFFFFFFFFFFFFFFFFFFFFFFFFFFFFFFFFFFFFF AND PUSH20 0xFFFFFFFFFFFFFFFFFFFFFFFFFFFFFFFFFFFFFFFF AND DUP2 MSTORE PUSH1 0x20 ADD SWAP1 DUP2 MSTORE PUSH1 0x20 ADD PUSH1 0x0 KECCAK256 PUSH1 0x0 SWAP1 SLOAD SWAP1 PUSH2 0x100 EXP SWAP1 DIV PUSH1 0xFF AND PUSH2 0x340 JUMPI PUSH1 0x40 MLOAD PUSH32 0x8C379A000000000000000000000000000000000000000000000000000000000 DUP2 MSTORE PUSH1 0x4 ADD PUSH2 0x337 SWAP1 PUSH2 0x17D2 JUMP JUMPDEST PUSH1 0x40 MLOAD DUP1 SWAP2 SUB SWAP1 REVERT JUMPDEST PUSH1 0x8 PUSH1 0x0 SWAP1 SLOAD SWAP1 PUSH2 0x100 EXP SWAP1 DIV PUSH20 0xFFFFFFFFFFFFFFFFFFFFFFFFFFFFFFFFFFFFFFFF AND PUSH20 0xFFFFFFFFFFFFFFFFFFFFFFFFFFFFFFFFFFFFFFFF AND PUSH4 0x70A08231 DUP4 PUSH1 0x40 MLOAD DUP3 PUSH4 0xFFFFFFFF AND PUSH1 0xE0 SHL DUP2 MSTORE PUSH1 0x4 ADD PUSH2 0x39B SWAP2 SWAP1 PUSH2 0x1623 JUMP JUMPDEST PUSH1 0x20 PUSH1 0x40 MLOAD DUP1 DUP4 SUB DUP2 DUP7 DUP1 EXTCODESIZE ISZERO DUP1 ISZERO PUSH2 0x3B3 JUMPI PUSH1 0x0 DUP1 REVERT JUMPDEST POP GAS STATICCALL ISZERO DUP1 ISZERO PUSH2 0x3C7 JUMPI RETURNDATASIZE PUSH1 0x0 DUP1 RETURNDATACOPY RETURNDATASIZE PUSH1 0x0 REVERT JUMPDEST POP POP POP POP PUSH1 0x40 MLOAD RETURNDATASIZE PUSH1 0x1F NOT PUSH1 0x1F DUP3 ADD AND DUP3 ADD DUP1 PUSH1 0x40 MSTORE POP DUP2 ADD SWAP1 PUSH2 0x3EB SWAP2 SWAP1 PUSH2 0x140F JUMP JUMPDEST SWAP1 POP SWAP2 SWAP1 POP JUMP JUMPDEST PUSH1 0x7 PUSH1 0x0 SWAP1 SLOAD SWAP1 PUSH2 0x100 EXP SWAP1 DIV PUSH20 0xFFFFFFFFFFFFFFFFFFFFFFFFFFFFFFFFFFFFFFFF AND PUSH20 0xFFFFFFFFFFFFFFFFFFFFFFFFFFFFFFFFFFFFFFFF AND CALLER PUSH20 0xFFFFFFFFFFFFFFFFFFFFFFFFFFFFFFFFFFFFFFFF AND EQ PUSH2 0x482 JUMPI PUSH1 0x40 MLOAD PUSH32 0x8C379A000000000000000000000000000000000000000000000000000000000 DUP2 MSTORE PUSH1 0x4 ADD PUSH2 0x479 SWAP1 PUSH2 0x17F2 JUMP JUMPDEST PUSH1 0x40 MLOAD DUP1 SWAP2 SUB SWAP1 REVERT JUMPDEST DUP1 MLOAD DUP3 MLOAD EQ PUSH2 0x4C6 JUMPI PUSH1 0x40 MLOAD PUSH32 0x8C379A000000000000000000000000000000000000000000000000000000000 DUP2 MSTORE PUSH1 0x4 ADD PUSH2 0x4BD SWAP1 PUSH2 0x16B2 JUMP JUMPDEST PUSH1 0x40 MLOAD DUP1 SWAP2 SUB SWAP1 REVERT JUMPDEST PUSH1 0x0 JUMPDEST DUP3 MLOAD DUP2 LT ISZERO PUSH2 0x70F JUMPI DUP3 DUP2 DUP2 MLOAD DUP2 LT PUSH2 0x4E5 JUMPI PUSH2 0x4E4 PUSH2 0x1A91 JUMP JUMPDEST JUMPDEST PUSH1 0x20 MUL PUSH1 0x20 ADD ADD MLOAD PUSH20 0xFFFFFFFFFFFFFFFFFFFFFFFFFFFFFFFFFFFFFFFF AND CALLER PUSH20 0xFFFFFFFFFFFFFFFFFFFFFFFFFFFFFFFFFFFFFFFF AND EQ ISZERO PUSH2 0x55B JUMPI PUSH1 0x40 MLOAD PUSH32 0x8C379A000000000000000000000000000000000000000000000000000000000 DUP2 MSTORE PUSH1 0x4 ADD PUSH2 0x552 SWAP1 PUSH2 0x1712 JUMP JUMPDEST PUSH1 0x40 MLOAD DUP1 SWAP2 SUB SWAP1 REVERT JUMPDEST PUSH1 0x4 PUSH1 0x0 DUP5 DUP4 DUP2 MLOAD DUP2 LT PUSH2 0x572 JUMPI PUSH2 0x571 PUSH2 0x1A91 JUMP JUMPDEST JUMPDEST PUSH1 0x20 MUL PUSH1 0x20 ADD ADD MLOAD PUSH20 0xFFFFFFFFFFFFFFFFFFFFFFFFFFFFFFFFFFFFFFFF AND PUSH20 0xFFFFFFFFFFFFFFFFFFFFFFFFFFFFFFFFFFFFFFFF AND DUP2 MSTORE PUSH1 0x20 ADD SWAP1 DUP2 MSTORE PUSH1 0x20 ADD PUSH1 0x0 KECCAK256 PUSH1 0x0 SWAP1 SLOAD SWAP1 PUSH2 0x100 EXP SWAP1 DIV PUSH1 0xFF AND ISZERO PUSH2 0x602 JUMPI PUSH1 0x40 MLOAD PUSH32 0x8C379A000000000000000000000000000000000000000000000000000000000 DUP2 MSTORE PUSH1 0x4 ADD PUSH2 0x5F9 SWAP1 PUSH2 0x16D2 JUMP JUMPDEST PUSH1 0x40 MLOAD DUP1 SWAP2 SUB SWAP1 REVERT JUMPDEST DUP2 DUP2 DUP2 MLOAD DUP2 LT PUSH2 0x615 JUMPI PUSH2 0x614 PUSH2 0x1A91 JUMP JUMPDEST JUMPDEST PUSH1 0x20 MUL PUSH1 0x20 ADD ADD MLOAD PUSH1 0x5 PUSH1 0x0 DUP6 DUP5 DUP2 MLOAD DUP2 LT PUSH2 0x634 JUMPI PUSH2 0x633 PUSH2 0x1A91 JUMP JUMPDEST JUMPDEST PUSH1 0x20 MUL PUSH1 0x20 ADD ADD MLOAD PUSH20 0xFFFFFFFFFFFFFFFFFFFFFFFFFFFFFFFFFFFFFFFF AND PUSH20 0xFFFFFFFFFFFFFFFFFFFFFFFFFFFFFFFFFFFFFFFF AND DUP2 MSTORE PUSH1 0x20 ADD SWAP1 DUP2 MSTORE PUSH1 0x20 ADD PUSH1 0x0 KECCAK256 SWAP1 DUP1 MLOAD SWAP1 PUSH1 0x20 ADD SWAP1 PUSH2 0x689 SWAP3 SWAP2 SWAP1 PUSH2 0x108A JUMP JUMPDEST POP PUSH1 0x1 PUSH1 0x6 PUSH1 0x0 DUP6 DUP5 DUP2 MLOAD DUP2 LT PUSH2 0x6A3 JUMPI PUSH2 0x6A2 PUSH2 0x1A91 JUMP JUMPDEST JUMPDEST PUSH1 0x20 MUL PUSH1 0x20 ADD ADD MLOAD PUSH20 0xFFFFFFFFFFFFFFFFFFFFFFFFFFFFFFFFFFFFFFFF AND PUSH20 0xFFFFFFFFFFFFFFFFFFFFFFFFFFFFFFFFFFFFFFFF AND DUP2 MSTORE PUSH1 0x20 ADD SWAP1 DUP2 MSTORE PUSH1 0x20 ADD PUSH1 0x0 KECCAK256 PUSH1 0x0 PUSH2 0x100 EXP DUP2 SLOAD DUP2 PUSH1 0xFF MUL NOT AND SWAP1 DUP4 ISZERO ISZERO MUL OR SWAP1 SSTORE POP DUP1 DUP1 PUSH2 0x707 SWAP1 PUSH2 0x19EA JUMP JUMPDEST SWAP2 POP POP PUSH2 0x4C9 JUMP JUMPDEST POP POP POP JUMP JUMPDEST PUSH1 0x1 SLOAD TIMESTAMP LT ISZERO DUP1 ISZERO PUSH2 0x728 JUMPI POP PUSH1 0x2 SLOAD TIMESTAMP GT ISZERO JUMPDEST PUSH2 0x767 JUMPI PUSH1 0x40 MLOAD PUSH32 0x8C379A000000000000000000000000000000000000000000000000000000000 DUP2 MSTORE PUSH1 0x4 ADD PUSH2 0x75E SWAP1 PUSH2 0x1732 JUMP JUMPDEST PUSH1 0x40 MLOAD DUP1 SWAP2 SUB SWAP1 REVERT JUMPDEST PUSH1 0x0 PUSH1 0x8 PUSH1 0x0 SWAP1 SLOAD SWAP1 PUSH2 0x100 EXP SWAP1 DIV PUSH20 0xFFFFFFFFFFFFFFFFFFFFFFFFFFFFFFFFFFFFFFFF AND PUSH20 0xFFFFFFFFFFFFFFFFFFFFFFFFFFFFFFFFFFFFFFFF AND PUSH4 0x70A08231 CALLER PUSH1 0x40 MLOAD DUP3 PUSH4 0xFFFFFFFF AND PUSH1 0xE0 SHL DUP2 MSTORE PUSH1 0x4 ADD PUSH2 0x7C4 SWAP2 SWAP1 PUSH2 0x1623 JUMP JUMPDEST PUSH1 0x20 PUSH1 0x40 MLOAD DUP1 DUP4 SUB DUP2 DUP7 DUP1 EXTCODESIZE ISZERO DUP1 ISZERO PUSH2 0x7DC JUMPI PUSH1 0x0 DUP1 REVERT JUMPDEST POP GAS STATICCALL ISZERO DUP1 ISZERO PUSH2 0x7F0 JUMPI RETURNDATASIZE PUSH1 0x0 DUP1 RETURNDATACOPY RETURNDATASIZE PUSH1 0x0 REVERT JUMPDEST POP POP POP POP PUSH1 0x40 MLOAD RETURNDATASIZE PUSH1 0x1F NOT PUSH1 0x1F DUP3 ADD AND DUP3 ADD DUP1 PUSH1 0x40 MSTORE POP DUP2 ADD SWAP1 PUSH2 0x814 SWAP2 SWAP1 PUSH2 0x140F JUMP JUMPDEST GT PUSH2 0x854 JUMPI PUSH1 0x40 MLOAD PUSH32 0x8C379A000000000000000000000000000000000000000000000000000000000 DUP2 MSTORE PUSH1 0x4 ADD PUSH2 0x84B SWAP1 PUSH2 0x17B2 JUMP JUMPDEST PUSH1 0x40 MLOAD DUP1 SWAP2 SUB SWAP1 REVERT JUMPDEST PUSH1 0x4 PUSH1 0x0 CALLER PUSH20 0xFFFFFFFFFFFFFFFFFFFFFFFFFFFFFFFFFFFFFFFF AND PUSH20 0xFFFFFFFFFFFFFFFFFFFFFFFFFFFFFFFFFFFFFFFF AND DUP2 MSTORE PUSH1 0x20 ADD SWAP1 DUP2 MSTORE PUSH1 0x20 ADD PUSH1 0x0 KECCAK256 PUSH1 0x0 SWAP1 SLOAD SWAP1 PUSH2 0x100 EXP SWAP1 DIV PUSH1 0xFF AND PUSH2 0x8E0 JUMPI PUSH1 0x40 MLOAD PUSH32 0x8C379A000000000000000000000000000000000000000000000000000000000 DUP2 MSTORE PUSH1 0x4 ADD PUSH2 0x8D7 SWAP1 PUSH2 0x1752 JUMP JUMPDEST PUSH1 0x40 MLOAD DUP1 SWAP2 SUB SWAP1 REVERT JUMPDEST PUSH1 0x6 PUSH1 0x0 DUP3 PUSH20 0xFFFFFFFFFFFFFFFFFFFFFFFFFFFFFFFFFFFFFFFF AND PUSH20 0xFFFFFFFFFFFFFFFFFFFFFFFFFFFFFFFFFFFFFFFF AND DUP2 MSTORE PUSH1 0x20 ADD SWAP1 DUP2 MSTORE PUSH1 0x20 ADD PUSH1 0x0 KECCAK256 PUSH1 0x0 SWAP1 SLOAD SWAP1 PUSH2 0x100 EXP SWAP1 DIV PUSH1 0xFF AND PUSH2 0x96C JUMPI PUSH1 0x40 MLOAD PUSH32 0x8C379A000000000000000000000000000000000000000000000000000000000 DUP2 MSTORE PUSH1 0x4 ADD PUSH2 0x963 SWAP1 PUSH2 0x17D2 JUMP JUMPDEST PUSH1 0x40 MLOAD DUP1 SWAP2 SUB SWAP1 REVERT JUMPDEST PUSH1 0x3 PUSH1 0x0 CALLER PUSH20 0xFFFFFFFFFFFFFFFFFFFFFFFFFFFFFFFFFFFFFFFF AND PUSH20 0xFFFFFFFFFFFFFFFFFFFFFFFFFFFFFFFFFFFFFFFF AND DUP2 MSTORE PUSH1 0x20 ADD SWAP1 DUP2 MSTORE PUSH1 0x20 ADD PUSH1 0x0 KECCAK256 PUSH1 0x0 SWAP1 SLOAD SWAP1 PUSH2 0x100 EXP SWAP1 DIV PUSH1 0xFF AND ISZERO PUSH2 0x9F9 JUMPI PUSH1 0x40 MLOAD PUSH32 0x8C379A000000000000000000000000000000000000000000000000000000000 DUP2 MSTORE PUSH1 0x4 ADD PUSH2 0x9F0 SWAP1 PUSH2 0x1772 JUMP JUMPDEST PUSH1 0x40 MLOAD DUP1 SWAP2 SUB SWAP1 REVERT JUMPDEST PUSH1 0x4 PUSH1 0x0 DUP3 PUSH20 0xFFFFFFFFFFFFFFFFFFFFFFFFFFFFFFFFFFFFFFFF AND PUSH20 0xFFFFFFFFFFFFFFFFFFFFFFFFFFFFFFFFFFFFFFFF AND DUP2 MSTORE PUSH1 0x20 ADD SWAP1 DUP2 MSTORE PUSH1 0x20 ADD PUSH1 0x0 KECCAK256 PUSH1 0x0 SWAP1 SLOAD SWAP1 PUSH2 0x100 EXP SWAP1 DIV PUSH1 0xFF AND ISZERO PUSH2 0xA86 JUMPI PUSH1 0x40 MLOAD PUSH32 0x8C379A000000000000000000000000000000000000000000000000000000000 DUP2 MSTORE PUSH1 0x4 ADD PUSH2 0xA7D SWAP1 PUSH2 0x16D2 JUMP JUMPDEST PUSH1 0x40 MLOAD DUP1 SWAP2 SUB SWAP1 REVERT JUMPDEST PUSH1 0x8 PUSH1 0x0 SWAP1 SLOAD SWAP1 PUSH2 0x100 EXP SWAP1 DIV PUSH20 0xFFFFFFFFFFFFFFFFFFFFFFFFFFFFFFFFFFFFFFFF AND PUSH20 0xFFFFFFFFFFFFFFFFFFFFFFFFFFFFFFFFFFFFFFFF AND PUSH4 0xA9059CBB DUP3 PUSH1 0x8 PUSH1 0x0 SWAP1 SLOAD SWAP1 PUSH2 0x100 EXP SWAP1 DIV PUSH20 0xFFFFFFFFFFFFFFFFFFFFFFFFFFFFFFFFFFFFFFFF AND PUSH20 0xFFFFFFFFFFFFFFFFFFFFFFFFFFFFFFFFFFFFFFFF AND PUSH4 0x70A08231 CALLER PUSH1 0x40 MLOAD DUP3 PUSH4 0xFFFFFFFF AND PUSH1 0xE0 SHL DUP2 MSTORE PUSH1 0x4 ADD PUSH2 0xB20 SWAP2 SWAP1 PUSH2 0x1623 JUMP JUMPDEST PUSH1 0x20 PUSH1 0x40 MLOAD DUP1 DUP4 SUB DUP2 DUP7 DUP1 EXTCODESIZE ISZERO DUP1 ISZERO PUSH2 0xB38 JUMPI PUSH1 0x0 DUP1 REVERT JUMPDEST POP GAS STATICCALL ISZERO DUP1 ISZERO PUSH2 0xB4C JUMPI RETURNDATASIZE PUSH1 0x0 DUP1 RETURNDATACOPY RETURNDATASIZE PUSH1 0x0 REVERT JUMPDEST POP POP POP POP PUSH1 0x40 MLOAD RETURNDATASIZE PUSH1 0x1F NOT PUSH1 0x1F DUP3 ADD AND DUP3 ADD DUP1 PUSH1 0x40 MSTORE POP DUP2 ADD SWAP1 PUSH2 0xB70 SWAP2 SWAP1 PUSH2 0x140F JUMP JUMPDEST PUSH1 0x40 MLOAD DUP4 PUSH4 0xFFFFFFFF AND PUSH1 0xE0 SHL DUP2 MSTORE PUSH1 0x4 ADD PUSH2 0xB8D SWAP3 SWAP2 SWAP1 PUSH2 0x1667 JUMP JUMPDEST PUSH1 0x0 PUSH1 0x40 MLOAD DUP1 DUP4 SUB DUP2 PUSH1 0x0 DUP8 DUP1 EXTCODESIZE ISZERO DUP1 ISZERO PUSH2 0xBA7 JUMPI PUSH1 0x0 DUP1 REVERT JUMPDEST POP GAS CALL ISZERO DUP1 ISZERO PUSH2 0xBBB JUMPI RETURNDATASIZE PUSH1 0x0 DUP1 RETURNDATACOPY RETURNDATASIZE PUSH1 0x0 REVERT JUMPDEST POP POP POP POP PUSH1 0x1 PUSH1 0x3 PUSH1 0x0 CALLER PUSH20 0xFFFFFFFFFFFFFFFFFFFFFFFFFFFFFFFFFFFFFFFF AND PUSH20 0xFFFFFFFFFFFFFFFFFFFFFFFFFFFFFFFFFFFFFFFF AND DUP2 MSTORE PUSH1 0x20 ADD SWAP1 DUP2 MSTORE PUSH1 0x20 ADD PUSH1 0x0 KECCAK256 PUSH1 0x0 PUSH2 0x100 EXP DUP2 SLOAD DUP2 PUSH1 0xFF MUL NOT AND SWAP1 DUP4 ISZERO ISZERO MUL OR SWAP1 SSTORE POP POP JUMP JUMPDEST PUSH1 0x7 PUSH1 0x0 SWAP1 SLOAD SWAP1 PUSH2 0x100 EXP SWAP1 DIV PUSH20 0xFFFFFFFFFFFFFFFFFFFFFFFFFFFFFFFFFFFFFFFF AND PUSH20 0xFFFFFFFFFFFFFFFFFFFFFFFFFFFFFFFFFFFFFFFF AND CALLER PUSH20 0xFFFFFFFFFFFFFFFFFFFFFFFFFFFFFFFFFFFFFFFF AND EQ PUSH2 0xCAA JUMPI PUSH1 0x40 MLOAD PUSH32 0x8C379A000000000000000000000000000000000000000000000000000000000 DUP2 MSTORE PUSH1 0x4 ADD PUSH2 0xCA1 SWAP1 PUSH2 0x17F2 JUMP JUMPDEST PUSH1 0x40 MLOAD DUP1 SWAP2 SUB SWAP1 REVERT JUMPDEST PUSH1 0x0 JUMPDEST DUP2 MLOAD DUP2 LT ISZERO PUSH2 0xEFE JUMPI PUSH1 0x6 PUSH1 0x0 DUP4 DUP4 DUP2 MLOAD DUP2 LT PUSH2 0xCCD JUMPI PUSH2 0xCCC PUSH2 0x1A91 JUMP JUMPDEST JUMPDEST PUSH1 0x20 MUL PUSH1 0x20 ADD ADD MLOAD PUSH20 0xFFFFFFFFFFFFFFFFFFFFFFFFFFFFFFFFFFFFFFFF AND PUSH20 0xFFFFFFFFFFFFFFFFFFFFFFFFFFFFFFFFFFFFFFFF AND DUP2 MSTORE PUSH1 0x20 ADD SWAP1 DUP2 MSTORE PUSH1 0x20 ADD PUSH1 0x0 KECCAK256 PUSH1 0x0 SWAP1 SLOAD SWAP1 PUSH2 0x100 EXP SWAP1 DIV PUSH1 0xFF AND ISZERO PUSH2 0xD5D JUMPI PUSH1 0x40 MLOAD PUSH32 0x8C379A000000000000000000000000000000000000000000000000000000000 DUP2 MSTORE PUSH1 0x4 ADD PUSH2 0xD54 SWAP1 PUSH2 0x1792 JUMP JUMPDEST PUSH1 0x40 MLOAD DUP1 SWAP2 SUB SWAP1 REVERT JUMPDEST PUSH1 0x0 PUSH1 0x3 PUSH1 0x0 DUP5 DUP5 DUP2 MLOAD DUP2 LT PUSH2 0xD76 JUMPI PUSH2 0xD75 PUSH2 0x1A91 JUMP JUMPDEST JUMPDEST PUSH1 0x20 MUL PUSH1 0x20 ADD ADD MLOAD PUSH20 0xFFFFFFFFFFFFFFFFFFFFFFFFFFFFFFFFFFFFFFFF AND PUSH20 0xFFFFFFFFFFFFFFFFFFFFFFFFFFFFFFFFFFFFFFFF AND DUP2 MSTORE PUSH1 0x20 ADD SWAP1 DUP2 MSTORE PUSH1 0x20 ADD PUSH1 0x0 KECCAK256 PUSH1 0x0 PUSH2 0x100 EXP DUP2 SLOAD DUP2 PUSH1 0xFF MUL NOT AND SWAP1 DUP4 ISZERO ISZERO MUL OR SWAP1 SSTORE POP PUSH1 0x1 PUSH1 0x4 PUSH1 0x0 DUP5 DUP5 DUP2 MLOAD DUP2 LT PUSH2 0xDE8 JUMPI PUSH2 0xDE7 PUSH2 0x1A91 JUMP JUMPDEST JUMPDEST PUSH1 0x20 MUL PUSH1 0x20 ADD ADD MLOAD PUSH20 0xFFFFFFFFFFFFFFFFFFFFFFFFFFFFFFFFFFFFFFFF AND PUSH20 0xFFFFFFFFFFFFFFFFFFFFFFFFFFFFFFFFFFFFFFFF AND DUP2 MSTORE PUSH1 0x20 ADD SWAP1 DUP2 MSTORE PUSH1 0x20 ADD PUSH1 0x0 KECCAK256 PUSH1 0x0 PUSH2 0x100 EXP DUP2 SLOAD DUP2 PUSH1 0xFF MUL NOT AND SWAP1 DUP4 ISZERO ISZERO MUL OR SWAP1 SSTORE POP PUSH1 0x8 PUSH1 0x0 SWAP1 SLOAD SWAP1 PUSH2 0x100 EXP SWAP1 DIV PUSH20 0xFFFFFFFFFFFFFFFFFFFFFFFFFFFFFFFFFFFFFFFF AND PUSH20 0xFFFFFFFFFFFFFFFFFFFFFFFFFFFFFFFFFFFFFFFF AND PUSH4 0x40C10F19 DUP4 DUP4 DUP2 MLOAD DUP2 LT PUSH2 0xE92 JUMPI PUSH2 0xE91 PUSH2 0x1A91 JUMP JUMPDEST JUMPDEST PUSH1 0x20 MUL PUSH1 0x20 ADD ADD MLOAD PUSH1 0x1 PUSH1 0x40 MLOAD DUP4 PUSH4 0xFFFFFFFF AND PUSH1 0xE0 SHL DUP2 MSTORE PUSH1 0x4 ADD PUSH2 0xEB9 SWAP3 SWAP2 SWAP1 PUSH2 0x163E JUMP JUMPDEST PUSH1 0x0 PUSH1 0x40 MLOAD DUP1 DUP4 SUB DUP2 PUSH1 0x0 DUP8 DUP1 EXTCODESIZE ISZERO DUP1 ISZERO PUSH2 0xED3 JUMPI PUSH1 0x0 DUP1 REVERT JUMPDEST POP GAS CALL ISZERO DUP1 ISZERO PUSH2 0xEE7 JUMPI RETURNDATASIZE PUSH1 0x0 DUP1 RETURNDATACOPY RETURNDATASIZE PUSH1 0x0 REVERT JUMPDEST POP POP POP POP DUP1 DUP1 PUSH2 0xEF6 SWAP1 PUSH2 0x19EA JUMP JUMPDEST SWAP2 POP POP PUSH2 0xCAD JUMP JUMPDEST POP PUSH1 0x0 PUSH1 0x8 PUSH1 0x0 SWAP1 SLOAD SWAP1 PUSH2 0x100 EXP SWAP1 DIV PUSH20 0xFFFFFFFFFFFFFFFFFFFFFFFFFFFFFFFFFFFFFFFF AND PUSH20 0xFFFFFFFFFFFFFFFFFFFFFFFFFFFFFFFFFFFFFFFF AND PUSH4 0x70A08231 PUSH1 0x7 PUSH1 0x0 SWAP1 SLOAD SWAP1 PUSH2 0x100 EXP SWAP1 DIV PUSH20 0xFFFFFFFFFFFFFFFFFFFFFFFFFFFFFFFFFFFFFFFF AND PUSH1 0x40 MLOAD DUP3 PUSH4 0xFFFFFFFF AND PUSH1 0xE0 SHL DUP2 MSTORE PUSH1 0x4 ADD PUSH2 0xF7E SWAP2 SWAP1 PUSH2 0x1623 JUMP JUMPDEST PUSH1 0x20 PUSH1 0x40 MLOAD DUP1 DUP4 SUB DUP2 DUP7 DUP1 EXTCODESIZE ISZERO DUP1 ISZERO PUSH2 0xF96 JUMPI PUSH1 0x0 DUP1 REVERT JUMPDEST POP GAS STATICCALL ISZERO DUP1 ISZERO PUSH2 0xFAA JUMPI RETURNDATASIZE PUSH1 0x0 DUP1 RETURNDATACOPY RETURNDATASIZE PUSH1 0x0 REVERT JUMPDEST POP POP POP POP PUSH1 0x40 MLOAD RETURNDATASIZE PUSH1 0x1F NOT PUSH1 0x1F DUP3 ADD AND DUP3 ADD DUP1 PUSH1 0x40 MSTORE POP DUP2 ADD SWAP1 PUSH2 0xFCE SWAP2 SWAP1 PUSH2 0x140F JUMP JUMPDEST EQ ISZERO PUSH2 0x1087 JUMPI PUSH1 0x8 PUSH1 0x0 SWAP1 SLOAD SWAP1 PUSH2 0x100 EXP SWAP1 DIV PUSH20 0xFFFFFFFFFFFFFFFFFFFFFFFFFFFFFFFFFFFFFFFF AND PUSH20 0xFFFFFFFFFFFFFFFFFFFFFFFFFFFFFFFFFFFFFFFF AND PUSH4 0x40C10F19 PUSH1 0x7 PUSH1 0x0 SWAP1 SLOAD SWAP1 PUSH2 0x100 EXP SWAP1 DIV PUSH20 0xFFFFFFFFFFFFFFFFFFFFFFFFFFFFFFFFFFFFFFFF AND PUSH1 0x1 PUSH1 0x40 MLOAD DUP4 PUSH4 0xFFFFFFFF AND PUSH1 0xE0 SHL DUP2 MSTORE PUSH1 0x4 ADD PUSH2 0x1054 SWAP3 SWAP2 SWAP1 PUSH2 0x163E JUMP JUMPDEST PUSH1 0x0 PUSH1 0x40 MLOAD DUP1 DUP4 SUB DUP2 PUSH1 0x0 DUP8 DUP1 EXTCODESIZE ISZERO DUP1 ISZERO PUSH2 0x106E JUMPI PUSH1 0x0 DUP1 REVERT JUMPDEST POP GAS CALL ISZERO DUP1 ISZERO PUSH2 0x1082 JUMPI RETURNDATASIZE PUSH1 0x0 DUP1 RETURNDATACOPY RETURNDATASIZE PUSH1 0x0 REVERT JUMPDEST POP POP POP POP JUMPDEST POP JUMP JUMPDEST DUP3 DUP1 SLOAD PUSH2 0x1096 SWAP1 PUSH2 0x1987 JUMP JUMPDEST SWAP1 PUSH1 0x0 MSTORE PUSH1 0x20 PUSH1 0x0 KECCAK256 SWAP1 PUSH1 0x1F ADD PUSH1 0x20 SWAP1 DIV DUP2 ADD SWAP3 DUP3 PUSH2 0x10B8 JUMPI PUSH1 0x0 DUP6 SSTORE PUSH2 0x10FF JUMP JUMPDEST DUP3 PUSH1 0x1F LT PUSH2 0x10D1 JUMPI DUP1 MLOAD PUSH1 0xFF NOT AND DUP4 DUP1 ADD OR DUP6 SSTORE PUSH2 0x10FF JUMP JUMPDEST DUP3 DUP1 ADD PUSH1 0x1 ADD DUP6 SSTORE DUP3 ISZERO PUSH2 0x10FF JUMPI SWAP2 DUP3 ADD JUMPDEST DUP3 DUP2 GT ISZERO PUSH2 0x10FE JUMPI DUP3 MLOAD DUP3 SSTORE SWAP2 PUSH1 0x20 ADD SWAP2 SWAP1 PUSH1 0x1 ADD SWAP1 PUSH2 0x10E3 JUMP JUMPDEST JUMPDEST POP SWAP1 POP PUSH2 0x110C SWAP2 SWAP1 PUSH2 0x1110 JUMP JUMPDEST POP SWAP1 JUMP JUMPDEST JUMPDEST DUP1 DUP3 GT ISZERO PUSH2 0x1129 JUMPI PUSH1 0x0 DUP2 PUSH1 0x0 SWAP1 SSTORE POP PUSH1 0x1 ADD PUSH2 0x1111 JUMP JUMPDEST POP SWAP1 JUMP JUMPDEST PUSH1 0x0 PUSH2 0x1140 PUSH2 0x113B DUP5 PUSH2 0x1852 JUMP JUMPDEST PUSH2 0x182D JUMP JUMPDEST SWAP1 POP DUP1 DUP4 DUP3 MSTORE PUSH1 0x20 DUP3 ADD SWAP1 POP DUP3 DUP6 PUSH1 0x20 DUP7 MUL DUP3 ADD GT ISZERO PUSH2 0x1163 JUMPI PUSH2 0x1162 PUSH2 0x1AF4 JUMP JUMPDEST JUMPDEST PUSH1 0x0 JUMPDEST DUP6 DUP2 LT ISZERO PUSH2 0x1193 JUMPI DUP2 PUSH2 0x1179 DUP9 DUP3 PUSH2 0x126D JUMP JUMPDEST DUP5 MSTORE PUSH1 0x20 DUP5 ADD SWAP4 POP PUSH1 0x20 DUP4 ADD SWAP3 POP POP PUSH1 0x1 DUP2 ADD SWAP1 POP PUSH2 0x1166 JUMP JUMPDEST POP POP POP SWAP4 SWAP3 POP POP POP JUMP JUMPDEST PUSH1 0x0 PUSH2 0x11B0 PUSH2 0x11AB DUP5 PUSH2 0x187E JUMP JUMPDEST PUSH2 0x182D JUMP JUMPDEST SWAP1 POP DUP1 DUP4 DUP3 MSTORE PUSH1 0x20 DUP3 ADD SWAP1 POP DUP3 DUP6 PUSH1 0x20 DUP7 MUL DUP3 ADD GT ISZERO PUSH2 0x11D3 JUMPI PUSH2 0x11D2 PUSH2 0x1AF4 JUMP JUMPDEST JUMPDEST PUSH1 0x0 JUMPDEST DUP6 DUP2 LT ISZERO PUSH2 0x1221 JUMPI DUP2 CALLDATALOAD PUSH8 0xFFFFFFFFFFFFFFFF DUP2 GT ISZERO PUSH2 0x11F9 JUMPI PUSH2 0x11F8 PUSH2 0x1AEF JUMP JUMPDEST JUMPDEST DUP1 DUP7 ADD PUSH2 0x1206 DUP10 DUP3 PUSH2 0x12DE JUMP JUMPDEST DUP6 MSTORE PUSH1 0x20 DUP6 ADD SWAP5 POP PUSH1 0x20 DUP5 ADD SWAP4 POP POP POP PUSH1 0x1 DUP2 ADD SWAP1 POP PUSH2 0x11D6 JUMP JUMPDEST POP POP POP SWAP4 SWAP3 POP POP POP JUMP JUMPDEST PUSH1 0x0 PUSH2 0x123E PUSH2 0x1239 DUP5 PUSH2 0x18AA JUMP JUMPDEST PUSH2 0x182D JUMP JUMPDEST SWAP1 POP DUP3 DUP2 MSTORE PUSH1 0x20 DUP2 ADD DUP5 DUP5 DUP5 ADD GT ISZERO PUSH2 0x125A JUMPI PUSH2 0x1259 PUSH2 0x1AF9 JUMP JUMPDEST JUMPDEST PUSH2 0x1265 DUP5 DUP3 DUP6 PUSH2 0x1945 JUMP JUMPDEST POP SWAP4 SWAP3 POP POP POP JUMP JUMPDEST PUSH1 0x0 DUP2 CALLDATALOAD SWAP1 POP PUSH2 0x127C DUP2 PUSH2 0x1CDC JUMP JUMPDEST SWAP3 SWAP2 POP POP JUMP JUMPDEST PUSH1 0x0 DUP3 PUSH1 0x1F DUP4 ADD SLT PUSH2 0x1297 JUMPI PUSH2 0x1296 PUSH2 0x1AEF JUMP JUMPDEST JUMPDEST DUP2 CALLDATALOAD PUSH2 0x12A7 DUP5 DUP3 PUSH1 0x20 DUP7 ADD PUSH2 0x112D JUMP JUMPDEST SWAP2 POP POP SWAP3 SWAP2 POP POP JUMP JUMPDEST PUSH1 0x0 DUP3 PUSH1 0x1F DUP4 ADD SLT PUSH2 0x12C5 JUMPI PUSH2 0x12C4 PUSH2 0x1AEF JUMP JUMPDEST JUMPDEST DUP2 CALLDATALOAD PUSH2 0x12D5 DUP5 DUP3 PUSH1 0x20 DUP7 ADD PUSH2 0x119D JUMP JUMPDEST SWAP2 POP POP SWAP3 SWAP2 POP POP JUMP JUMPDEST PUSH1 0x0 DUP3 PUSH1 0x1F DUP4 ADD SLT PUSH2 0x12F3 JUMPI PUSH2 0x12F2 PUSH2 0x1AEF JUMP JUMPDEST JUMPDEST DUP2 CALLDATALOAD PUSH2 0x1303 DUP5 DUP3 PUSH1 0x20 DUP7 ADD PUSH2 0x122B JUMP JUMPDEST SWAP2 POP POP SWAP3 SWAP2 POP POP JUMP JUMPDEST PUSH1 0x0 DUP2 MLOAD SWAP1 POP PUSH2 0x131B DUP2 PUSH2 0x1CF3 JUMP JUMPDEST SWAP3 SWAP2 POP POP JUMP JUMPDEST PUSH1 0x0 PUSH1 0x20 DUP3 DUP5 SUB SLT ISZERO PUSH2 0x1337 JUMPI PUSH2 0x1336 PUSH2 0x1B03 JUMP JUMPDEST JUMPDEST PUSH1 0x0 PUSH2 0x1345 DUP5 DUP3 DUP6 ADD PUSH2 0x126D JUMP JUMPDEST SWAP2 POP POP SWAP3 SWAP2 POP POP JUMP JUMPDEST PUSH1 0x0 PUSH1 0x20 DUP3 DUP5 SUB SLT ISZERO PUSH2 0x1364 JUMPI PUSH2 0x1363 PUSH2 0x1B03 JUMP JUMPDEST JUMPDEST PUSH1 0x0 DUP3 ADD CALLDATALOAD PUSH8 0xFFFFFFFFFFFFFFFF DUP2 GT ISZERO PUSH2 0x1382 JUMPI PUSH2 0x1381 PUSH2 0x1AFE JUMP JUMPDEST JUMPDEST PUSH2 0x138E DUP5 DUP3 DUP6 ADD PUSH2 0x1282 JUMP JUMPDEST SWAP2 POP POP SWAP3 SWAP2 POP POP JUMP JUMPDEST PUSH1 0x0 DUP1 PUSH1 0x40 DUP4 DUP6 SUB SLT ISZERO PUSH2 0x13AE JUMPI PUSH2 0x13AD PUSH2 0x1B03 JUMP JUMPDEST JUMPDEST PUSH1 0x0 DUP4 ADD CALLDATALOAD PUSH8 0xFFFFFFFFFFFFFFFF DUP2 GT ISZERO PUSH2 0x13CC JUMPI PUSH2 0x13CB PUSH2 0x1AFE JUMP JUMPDEST JUMPDEST PUSH2 0x13D8 DUP6 DUP3 DUP7 ADD PUSH2 0x1282 JUMP JUMPDEST SWAP3 POP POP PUSH1 0x20 DUP4 ADD CALLDATALOAD PUSH8 0xFFFFFFFFFFFFFFFF DUP2 GT ISZERO PUSH2 0x13F9 JUMPI PUSH2 0x13F8 PUSH2 0x1AFE JUMP JUMPDEST JUMPDEST PUSH2 0x1405 DUP6 DUP3 DUP7 ADD PUSH2 0x12B0 JUMP JUMPDEST SWAP2 POP POP SWAP3 POP SWAP3 SWAP1 POP JUMP JUMPDEST PUSH1 0x0 PUSH1 0x20 DUP3 DUP5 SUB SLT ISZERO PUSH2 0x1425 JUMPI PUSH2 0x1424 PUSH2 0x1B03 JUMP JUMPDEST JUMPDEST PUSH1 0x0 PUSH2 0x1433 DUP5 DUP3 DUP6 ADD PUSH2 0x130C JUMP JUMPDEST SWAP2 POP POP SWAP3 SWAP2 POP POP JUMP JUMPDEST PUSH2 0x1445 DUP2 PUSH2 0x18F7 JUMP JUMPDEST DUP3 MSTORE POP POP JUMP JUMPDEST PUSH2 0x1454 DUP2 PUSH2 0x1933 JUMP JUMPDEST DUP3 MSTORE POP POP JUMP JUMPDEST PUSH1 0x0 PUSH2 0x1465 DUP3 PUSH2 0x18DB JUMP JUMPDEST PUSH2 0x146F DUP2 DUP6 PUSH2 0x18E6 JUMP JUMPDEST SWAP4 POP PUSH2 0x147F DUP2 DUP6 PUSH1 0x20 DUP7 ADD PUSH2 0x1954 JUMP JUMPDEST PUSH2 0x1488 DUP2 PUSH2 0x1B08 JUMP JUMPDEST DUP5 ADD SWAP2 POP POP SWAP3 SWAP2 POP POP JUMP JUMPDEST PUSH1 0x0 PUSH2 0x14A0 PUSH1 0x14 DUP4 PUSH2 0x18E6 JUMP JUMPDEST SWAP2 POP PUSH2 0x14AB DUP3 PUSH2 0x1B19 JUMP JUMPDEST PUSH1 0x20 DUP3 ADD SWAP1 POP SWAP2 SWAP1 POP JUMP JUMPDEST PUSH1 0x0 PUSH2 0x14C3 PUSH1 0x18 DUP4 PUSH2 0x18E6 JUMP JUMPDEST SWAP2 POP PUSH2 0x14CE DUP3 PUSH2 0x1B42 JUMP JUMPDEST PUSH1 0x20 DUP3 ADD SWAP1 POP SWAP2 SWAP1 POP JUMP JUMPDEST PUSH1 0x0 PUSH2 0x14E6 PUSH1 0x15 DUP4 PUSH2 0x18E6 JUMP JUMPDEST SWAP2 POP PUSH2 0x14F1 DUP3 PUSH2 0x1B6B JUMP JUMPDEST PUSH1 0x20 DUP3 ADD SWAP1 POP SWAP2 SWAP1 POP JUMP JUMPDEST PUSH1 0x0 PUSH2 0x1509 PUSH1 0x1E DUP4 PUSH2 0x18E6 JUMP JUMPDEST SWAP2 POP PUSH2 0x1514 DUP3 PUSH2 0x1B94 JUMP JUMPDEST PUSH1 0x20 DUP3 ADD SWAP1 POP SWAP2 SWAP1 POP JUMP JUMPDEST PUSH1 0x0 PUSH2 0x152C PUSH1 0x11 DUP4 PUSH2 0x18E6 JUMP JUMPDEST SWAP2 POP PUSH2 0x1537 DUP3 PUSH2 0x1BBD JUMP JUMPDEST PUSH1 0x20 DUP3 ADD SWAP1 POP SWAP2 SWAP1 POP JUMP JUMPDEST PUSH1 0x0 PUSH2 0x154F PUSH1 0x14 DUP4 PUSH2 0x18E6 JUMP JUMPDEST SWAP2 POP PUSH2 0x155A DUP3 PUSH2 0x1BE6 JUMP JUMPDEST PUSH1 0x20 DUP3 ADD SWAP1 POP SWAP2 SWAP1 POP JUMP JUMPDEST PUSH1 0x0 PUSH2 0x1572 PUSH1 0x14 DUP4 PUSH2 0x18E6 JUMP JUMPDEST SWAP2 POP PUSH2 0x157D DUP3 PUSH2 0x1C0F JUMP JUMPDEST PUSH1 0x20 DUP3 ADD SWAP1 POP SWAP2 SWAP1 POP JUMP JUMPDEST PUSH1 0x0 PUSH2 0x1595 PUSH1 0x18 DUP4 PUSH2 0x18E6 JUMP JUMPDEST SWAP2 POP PUSH2 0x15A0 DUP3 PUSH2 0x1C38 JUMP JUMPDEST PUSH1 0x20 DUP3 ADD SWAP1 POP SWAP2 SWAP1 POP JUMP JUMPDEST PUSH1 0x0 PUSH2 0x15B8 PUSH1 0x14 DUP4 PUSH2 0x18E6 JUMP JUMPDEST SWAP2 POP PUSH2 0x15C3 DUP3 PUSH2 0x1C61 JUMP JUMPDEST PUSH1 0x20 DUP3 ADD SWAP1 POP SWAP2 SWAP1 POP JUMP JUMPDEST PUSH1 0x0 PUSH2 0x15DB PUSH1 0x17 DUP4 PUSH2 0x18E6 JUMP JUMPDEST SWAP2 POP PUSH2 0x15E6 DUP3 PUSH2 0x1C8A JUMP JUMPDEST PUSH1 0x20 DUP3 ADD SWAP1 POP SWAP2 SWAP1 POP JUMP JUMPDEST PUSH1 0x0 PUSH2 0x15FE PUSH1 0x17 DUP4 PUSH2 0x18E6 JUMP JUMPDEST SWAP2 POP PUSH2 0x1609 DUP3 PUSH2 0x1CB3 JUMP JUMPDEST PUSH1 0x20 DUP3 ADD SWAP1 POP SWAP2 SWAP1 POP JUMP JUMPDEST PUSH2 0x161D DUP2 PUSH2 0x1929 JUMP JUMPDEST DUP3 MSTORE POP POP JUMP JUMPDEST PUSH1 0x0 PUSH1 0x20 DUP3 ADD SWAP1 POP PUSH2 0x1638 PUSH1 0x0 DUP4 ADD DUP5 PUSH2 0x143C JUMP JUMPDEST SWAP3 SWAP2 POP POP JUMP JUMPDEST PUSH1 0x0 PUSH1 0x40 DUP3 ADD SWAP1 POP PUSH2 0x1653 PUSH1 0x0 DUP4 ADD DUP6 PUSH2 0x143C JUMP JUMPDEST PUSH2 0x1660 PUSH1 0x20 DUP4 ADD DUP5 PUSH2 0x144B JUMP JUMPDEST SWAP4 SWAP3 POP POP POP JUMP JUMPDEST PUSH1 0x0 PUSH1 0x40 DUP3 ADD SWAP1 POP PUSH2 0x167C PUSH1 0x0 DUP4 ADD DUP6 PUSH2 0x143C JUMP JUMPDEST PUSH2 0x1689 PUSH1 0x20 DUP4 ADD DUP5 PUSH2 0x1614 JUMP JUMPDEST SWAP4 SWAP3 POP POP POP JUMP JUMPDEST PUSH1 0x0 PUSH1 0x20 DUP3 ADD SWAP1 POP DUP2 DUP2 SUB PUSH1 0x0 DUP4 ADD MSTORE PUSH2 0x16AA DUP2 DUP5 PUSH2 0x145A JUMP JUMPDEST SWAP1 POP SWAP3 SWAP2 POP POP JUMP JUMPDEST PUSH1 0x0 PUSH1 0x20 DUP3 ADD SWAP1 POP DUP2 DUP2 SUB PUSH1 0x0 DUP4 ADD MSTORE PUSH2 0x16CB DUP2 PUSH2 0x1493 JUMP JUMPDEST SWAP1 POP SWAP2 SWAP1 POP JUMP JUMPDEST PUSH1 0x0 PUSH1 0x20 DUP3 ADD SWAP1 POP DUP2 DUP2 SUB PUSH1 0x0 DUP4 ADD MSTORE PUSH2 0x16EB DUP2 PUSH2 0x14B6 JUMP JUMPDEST SWAP1 POP SWAP2 SWAP1 POP JUMP JUMPDEST PUSH1 0x0 PUSH1 0x20 DUP3 ADD SWAP1 POP DUP2 DUP2 SUB PUSH1 0x0 DUP4 ADD MSTORE PUSH2 0x170B DUP2 PUSH2 0x14D9 JUMP JUMPDEST SWAP1 POP SWAP2 SWAP1 POP JUMP JUMPDEST PUSH1 0x0 PUSH1 0x20 DUP3 ADD SWAP1 POP DUP2 DUP2 SUB PUSH1 0x0 DUP4 ADD MSTORE PUSH2 0x172B DUP2 PUSH2 0x14FC JUMP JUMPDEST SWAP1 POP SWAP2 SWAP1 POP JUMP JUMPDEST PUSH1 0x0 PUSH1 0x20 DUP3 ADD SWAP1 POP DUP2 DUP2 SUB PUSH1 0x0 DUP4 ADD MSTORE PUSH2 0x174B DUP2 PUSH2 0x151F JUMP JUMPDEST SWAP1 POP SWAP2 SWAP1 POP JUMP JUMPDEST PUSH1 0x0 PUSH1 0x20 DUP3 ADD SWAP1 POP DUP2 DUP2 SUB PUSH1 0x0 DUP4 ADD MSTORE PUSH2 0x176B DUP2 PUSH2 0x1542 JUMP JUMPDEST SWAP1 POP SWAP2 SWAP1 POP JUMP JUMPDEST PUSH1 0x0 PUSH1 0x20 DUP3 ADD SWAP1 POP DUP2 DUP2 SUB PUSH1 0x0 DUP4 ADD MSTORE PUSH2 0x178B DUP2 PUSH2 0x1565 JUMP JUMPDEST SWAP1 POP SWAP2 SWAP1 POP JUMP JUMPDEST PUSH1 0x0 PUSH1 0x20 DUP3 ADD SWAP1 POP DUP2 DUP2 SUB PUSH1 0x0 DUP4 ADD MSTORE PUSH2 0x17AB DUP2 PUSH2 0x1588 JUMP JUMPDEST SWAP1 POP SWAP2 SWAP1 POP JUMP JUMPDEST PUSH1 0x0 PUSH1 0x20 DUP3 ADD SWAP1 POP DUP2 DUP2 SUB PUSH1 0x0 DUP4 ADD MSTORE PUSH2 0x17CB DUP2 PUSH2 0x15AB JUMP JUMPDEST SWAP1 POP SWAP2 SWAP1 POP JUMP JUMPDEST PUSH1 0x0 PUSH1 0x20 DUP3 ADD SWAP1 POP DUP2 DUP2 SUB PUSH1 0x0 DUP4 ADD MSTORE PUSH2 0x17EB DUP2 PUSH2 0x15CE JUMP JUMPDEST SWAP1 POP SWAP2 SWAP1 POP JUMP JUMPDEST PUSH1 0x0 PUSH1 0x20 DUP3 ADD SWAP1 POP DUP2 DUP2 SUB PUSH1 0x0 DUP4 ADD MSTORE PUSH2 0x180B DUP2 PUSH2 0x15F1 JUMP JUMPDEST SWAP1 POP SWAP2 SWAP1 POP JUMP JUMPDEST PUSH1 0x0 PUSH1 0x20 DUP3 ADD SWAP1 POP PUSH2 0x1827 PUSH1 0x0 DUP4 ADD DUP5 PUSH2 0x1614 JUMP JUMPDEST SWAP3 SWAP2 POP POP JUMP JUMPDEST PUSH1 0x0 PUSH2 0x1837 PUSH2 0x1848 JUMP JUMPDEST SWAP1 POP PUSH2 0x1843 DUP3 DUP3 PUSH2 0x19B9 JUMP JUMPDEST SWAP2 SWAP1 POP JUMP JUMPDEST PUSH1 0x0 PUSH1 0x40 MLOAD SWAP1 POP SWAP1 JUMP JUMPDEST PUSH1 0x0 PUSH8 0xFFFFFFFFFFFFFFFF DUP3 GT ISZERO PUSH2 0x186D JUMPI PUSH2 0x186C PUSH2 0x1AC0 JUMP JUMPDEST JUMPDEST PUSH1 0x20 DUP3 MUL SWAP1 POP PUSH1 0x20 DUP2 ADD SWAP1 POP SWAP2 SWAP1 POP JUMP JUMPDEST PUSH1 0x0 PUSH8 0xFFFFFFFFFFFFFFFF DUP3 GT ISZERO PUSH2 0x1899 JUMPI PUSH2 0x1898 PUSH2 0x1AC0 JUMP JUMPDEST JUMPDEST PUSH1 0x20 DUP3 MUL SWAP1 POP PUSH1 0x20 DUP2 ADD SWAP1 POP SWAP2 SWAP1 POP JUMP JUMPDEST PUSH1 0x0 PUSH8 0xFFFFFFFFFFFFFFFF DUP3 GT ISZERO PUSH2 0x18C5 JUMPI PUSH2 0x18C4 PUSH2 0x1AC0 JUMP JUMPDEST JUMPDEST PUSH2 0x18CE DUP3 PUSH2 0x1B08 JUMP JUMPDEST SWAP1 POP PUSH1 0x20 DUP2 ADD SWAP1 POP SWAP2 SWAP1 POP JUMP JUMPDEST PUSH1 0x0 DUP2 MLOAD SWAP1 POP SWAP2 SWAP1 POP JUMP JUMPDEST PUSH1 0x0 DUP3 DUP3 MSTORE PUSH1 0x20 DUP3 ADD SWAP1 POP SWAP3 SWAP2 POP POP JUMP JUMPDEST PUSH1 0x0 PUSH2 0x1902 DUP3 PUSH2 0x1909 JUMP JUMPDEST SWAP1 POP SWAP2 SWAP1 POP JUMP JUMPDEST PUSH1 0x0 PUSH20 0xFFFFFFFFFFFFFFFFFFFFFFFFFFFFFFFFFFFFFFFF DUP3 AND SWAP1 POP SWAP2 SWAP1 POP JUMP JUMPDEST PUSH1 0x0 DUP2 SWAP1 POP SWAP2 SWAP1 POP JUMP JUMPDEST PUSH1 0x0 PUSH2 0x193E DUP3 PUSH2 0x1929 JUMP JUMPDEST SWAP1 POP SWAP2 SWAP1 POP JUMP JUMPDEST DUP3 DUP2 DUP4 CALLDATACOPY PUSH1 0x0 DUP4 DUP4 ADD MSTORE POP POP POP JUMP JUMPDEST PUSH1 0x0 JUMPDEST DUP4 DUP2 LT ISZERO PUSH2 0x1972 JUMPI DUP1 DUP3 ADD MLOAD DUP2 DUP5 ADD MSTORE PUSH1 0x20 DUP2 ADD SWAP1 POP PUSH2 0x1957 JUMP JUMPDEST DUP4 DUP2 GT ISZERO PUSH2 0x1981 JUMPI PUSH1 0x0 DUP5 DUP5 ADD MSTORE JUMPDEST POP POP POP POP JUMP JUMPDEST PUSH1 0x0 PUSH1 0x2 DUP3 DIV SWAP1 POP PUSH1 0x1 DUP3 AND DUP1 PUSH2 0x199F JUMPI PUSH1 0x7F DUP3 AND SWAP2 POP JUMPDEST PUSH1 0x20 DUP3 LT DUP2 EQ ISZERO PUSH2 0x19B3 JUMPI PUSH2 0x19B2 PUSH2 0x1A62 JUMP JUMPDEST JUMPDEST POP SWAP2 SWAP1 POP JUMP JUMPDEST PUSH2 0x19C2 DUP3 PUSH2 0x1B08 JUMP JUMPDEST DUP2 ADD DUP2 DUP2 LT PUSH8 0xFFFFFFFFFFFFFFFF DUP3 GT OR ISZERO PUSH2 0x19E1 JUMPI PUSH2 0x19E0 PUSH2 0x1AC0 JUMP JUMPDEST JUMPDEST DUP1 PUSH1 0x40 MSTORE POP POP POP JUMP JUMPDEST PUSH1 0x0 PUSH2 0x19F5 DUP3 PUSH2 0x1929 JUMP JUMPDEST SWAP2 POP PUSH32 0xFFFFFFFFFFFFFFFFFFFFFFFFFFFFFFFFFFFFFFFFFFFFFFFFFFFFFFFFFFFFFFFF DUP3 EQ ISZERO PUSH2 0x1A28 JUMPI PUSH2 0x1A27 PUSH2 0x1A33 JUMP JUMPDEST JUMPDEST PUSH1 0x1 DUP3 ADD SWAP1 POP SWAP2 SWAP1 POP JUMP JUMPDEST PUSH32 0x4E487B7100000000000000000000000000000000000000000000000000000000 PUSH1 0x0 MSTORE PUSH1 0x11 PUSH1 0x4 MSTORE PUSH1 0x24 PUSH1 0x0 REVERT JUMPDEST PUSH32 0x4E487B7100000000000000000000000000000000000000000000000000000000 PUSH1 0x0 MSTORE PUSH1 0x22 PUSH1 0x4 MSTORE PUSH1 0x24 PUSH1 0x0 REVERT JUMPDEST PUSH32 0x4E487B7100000000000000000000000000000000000000000000000000000000 PUSH1 0x0 MSTORE PUSH1 0x32 PUSH1 0x4 MSTORE PUSH1 0x24 PUSH1 0x0 REVERT JUMPDEST PUSH32 0x4E487B7100000000000000000000000000000000000000000000000000000000 PUSH1 0x0 MSTORE PUSH1 0x41 PUSH1 0x4 MSTORE PUSH1 0x24 PUSH1 0x0 REVERT JUMPDEST PUSH1 0x0 DUP1 REVERT JUMPDEST PUSH1 0x0 DUP1 REVERT JUMPDEST PUSH1 0x0 DUP1 REVERT JUMPDEST PUSH1 0x0 DUP1 REVERT JUMPDEST PUSH1 0x0 DUP1 REVERT JUMPDEST PUSH1 0x0 PUSH1 0x1F NOT PUSH1 0x1F DUP4 ADD AND SWAP1 POP SWAP2 SWAP1 POP JUMP JUMPDEST PUSH32 0x4C656E67746820697320646966666572656E742E000000000000000000000000 PUSH1 0x0 DUP3 ADD MSTORE POP JUMP JUMPDEST PUSH32 0x566F7465722063616E27742062652070726F706F73616C2E0000000000000000 PUSH1 0x0 DUP3 ADD MSTORE POP JUMP JUMPDEST PUSH32 0x566F74696E6720686173206E6F7420656E6465642E0000000000000000000000 PUSH1 0x0 DUP3 ADD MSTORE POP JUMP JUMPDEST PUSH32 0x4368616972706572736F6E2063616E27742062652070726F706F73616C2E0000 PUSH1 0x0 DUP3 ADD MSTORE POP JUMP JUMPDEST PUSH32 0x566F74696E6720636F6D706C657465642E000000000000000000000000000000 PUSH1 0x0 DUP3 ADD MSTORE POP JUMP JUMPDEST PUSH32 0x566F74657220646F65736E27742065786973742E000000000000000000000000 PUSH1 0x0 DUP3 ADD MSTORE POP JUMP JUMPDEST PUSH32 0x566F74657220616C726561647920766F7465642E000000000000000000000000 PUSH1 0x0 DUP3 ADD MSTORE POP JUMP JUMPDEST PUSH32 0x50726F706F73616C2063616E277420626520766F7465722E0000000000000000 PUSH1 0x0 DUP3 ADD MSTORE POP JUMP JUMPDEST PUSH32 0x546F6B656E20646F65736E27742065786973742E000000000000000000000000 PUSH1 0x0 DUP3 ADD MSTORE POP JUMP JUMPDEST PUSH32 0x50726F706F73616C20646F65736E27742065786973742E000000000000000000 PUSH1 0x0 DUP3 ADD MSTORE POP JUMP JUMPDEST PUSH32 0x546869732069736E2774206368616972706572736F6E2E000000000000000000 PUSH1 0x0 DUP3 ADD MSTORE POP JUMP JUMPDEST PUSH2 0x1CE5 DUP2 PUSH2 0x18F7 JUMP JUMPDEST DUP2 EQ PUSH2 0x1CF0 JUMPI PUSH1 0x0 DUP1 REVERT JUMPDEST POP JUMP JUMPDEST PUSH2 0x1CFC DUP2 PUSH2 0x1929 JUMP JUMPDEST DUP2 EQ PUSH2 0x1D07 JUMPI PUSH1 0x0 DUP1 REVERT JUMPDEST POP JUMP INVALID LOG2 PUSH5 0x6970667358 0x22 SLT KECCAK256 PUSH28 0xFD63E27AF05B2D5EF8EC16A7FE75FC65681CF3E34F26B34B5F46B6EC DUP12 ADDMOD DELEGATECALL PUSH5 0x736F6C6343 STOP ADDMOD SMOD STOP CALLER PUSH1 0x80 PUSH1 0x40 MSTORE CALLVALUE DUP1 ISZERO PUSH3 0x11 JUMPI PUSH1 0x0 DUP1 REVERT JUMPDEST POP PUSH1 0x40 MLOAD DUP1 PUSH1 0x40 ADD PUSH1 0x40 MSTORE DUP1 PUSH1 0xD DUP2 MSTORE PUSH1 0x20 ADD PUSH32 0x452D566F74696E6720636F696E00000000000000000000000000000000000000 DUP2 MSTORE POP PUSH1 0x1 SWAP1 DUP1 MLOAD SWAP1 PUSH1 0x20 ADD SWAP1 PUSH3 0x5F SWAP3 SWAP2 SWAP1 PUSH3 0xD0 JUMP JUMPDEST POP PUSH1 0x0 PUSH1 0x2 PUSH1 0x0 PUSH2 0x100 EXP DUP2 SLOAD DUP2 PUSH1 0xFF MUL NOT AND SWAP1 DUP4 PUSH1 0xFF AND MUL OR SWAP1 SSTORE POP PUSH1 0x40 MLOAD DUP1 PUSH1 0x40 ADD PUSH1 0x40 MSTORE DUP1 PUSH1 0x3 DUP2 MSTORE PUSH1 0x20 ADD PUSH32 0x4556430000000000000000000000000000000000000000000000000000000000 DUP2 MSTORE POP PUSH1 0x3 SWAP1 DUP1 MLOAD SWAP1 PUSH1 0x20 ADD SWAP1 PUSH3 0xC9 SWAP3 SWAP2 SWAP1 PUSH3 0xD0 JUMP JUMPDEST POP PUSH3 0x1E5 JUMP JUMPDEST DUP3 DUP1 SLOAD PUSH3 0xDE SWAP1 PUSH3 0x180 JUMP JUMPDEST SWAP1 PUSH1 0x0 MSTORE PUSH1 0x20 PUSH1 0x0 KECCAK256 SWAP1 PUSH1 0x1F ADD PUSH1 0x20 SWAP1 DIV DUP2 ADD SWAP3 DUP3 PUSH3 0x102 JUMPI PUSH1 0x0 DUP6 SSTORE PUSH3 0x14E JUMP JUMPDEST DUP3 PUSH1 0x1F LT PUSH3 0x11D JUMPI DUP1 MLOAD PUSH1 0xFF NOT AND DUP4 DUP1 ADD OR DUP6 SSTORE PUSH3 0x14E JUMP JUMPDEST DUP3 DUP1 ADD PUSH1 0x1 ADD DUP6 SSTORE DUP3 ISZERO PUSH3 0x14E JUMPI SWAP2 DUP3 ADD JUMPDEST DUP3 DUP2 GT ISZERO PUSH3 0x14D JUMPI DUP3 MLOAD DUP3 SSTORE SWAP2 PUSH1 0x20 ADD SWAP2 SWAP1 PUSH1 0x1 ADD SWAP1 PUSH3 0x130 JUMP JUMPDEST JUMPDEST POP SWAP1 POP PUSH3 0x15D SWAP2 SWAP1 PUSH3 0x161 JUMP JUMPDEST POP SWAP1 JUMP JUMPDEST JUMPDEST DUP1 DUP3 GT ISZERO PUSH3 0x17C JUMPI PUSH1 0x0 DUP2 PUSH1 0x0 SWAP1 SSTORE POP PUSH1 0x1 ADD PUSH3 0x162 JUMP JUMPDEST POP SWAP1 JUMP JUMPDEST PUSH1 0x0 PUSH1 0x2 DUP3 DIV SWAP1 POP PUSH1 0x1 DUP3 AND DUP1 PUSH3 0x199 JUMPI PUSH1 0x7F DUP3 AND SWAP2 POP JUMPDEST PUSH1 0x20 DUP3 LT DUP2 EQ ISZERO PUSH3 0x1B0 JUMPI PUSH3 0x1AF PUSH3 0x1B6 JUMP JUMPDEST JUMPDEST POP SWAP2 SWAP1 POP JUMP JUMPDEST PUSH32 0x4E487B7100000000000000000000000000000000000000000000000000000000 PUSH1 0x0 MSTORE PUSH1 0x22 PUSH1 0x4 MSTORE PUSH1 0x24 PUSH1 0x0 REVERT JUMPDEST PUSH2 0x13C1 DUP1 PUSH3 0x1F5 PUSH1 0x0 CODECOPY PUSH1 0x0 RETURN INVALID PUSH1 0x80 PUSH1 0x40 MSTORE CALLVALUE DUP1 ISZERO PUSH2 0x10 JUMPI PUSH1 0x0 DUP1 REVERT JUMPDEST POP PUSH1 0x4 CALLDATASIZE LT PUSH2 0xB4 JUMPI PUSH1 0x0 CALLDATALOAD PUSH1 0xE0 SHR DUP1 PUSH4 0x54FD4D50 GT PUSH2 0x71 JUMPI DUP1 PUSH4 0x54FD4D50 EQ PUSH2 0x167 JUMPI DUP1 PUSH4 0x70A08231 EQ PUSH2 0x185 JUMPI DUP1 PUSH4 0x95D89B41 EQ PUSH2 0x1B5 JUMPI DUP1 PUSH4 0xA9059CBB EQ PUSH2 0x1D3 JUMPI DUP1 PUSH4 0xC4E41B22 EQ PUSH2 0x1EF JUMPI DUP1 PUSH4 0xDD62ED3E EQ PUSH2 0x20D JUMPI PUSH2 0xB4 JUMP JUMPDEST DUP1 PUSH4 0x6FDDE03 EQ PUSH2 0xB9 JUMPI DUP1 PUSH4 0x95EA7B3 EQ PUSH2 0xD7 JUMPI DUP1 PUSH4 0x18160DDD EQ PUSH2 0xF3 JUMPI DUP1 PUSH4 0x23B872DD EQ PUSH2 0x111 JUMPI DUP1 PUSH4 0x313CE567 EQ PUSH2 0x12D JUMPI DUP1 PUSH4 0x40C10F19 EQ PUSH2 0x14B JUMPI JUMPDEST PUSH1 0x0 DUP1 REVERT JUMPDEST PUSH2 0xC1 PUSH2 0x23D JUMP JUMPDEST PUSH1 0x40 MLOAD PUSH2 0xCE SWAP2 SWAP1 PUSH2 0xFEA JUMP JUMPDEST PUSH1 0x40 MLOAD DUP1 SWAP2 SUB SWAP1 RETURN JUMPDEST PUSH2 0xF1 PUSH1 0x4 DUP1 CALLDATASIZE SUB DUP2 ADD SWAP1 PUSH2 0xEC SWAP2 SWAP1 PUSH2 0xEC7 JUMP JUMPDEST PUSH2 0x2CB JUMP JUMPDEST STOP JUMPDEST PUSH2 0xFB PUSH2 0x3B5 JUMP JUMPDEST PUSH1 0x40 MLOAD PUSH2 0x108 SWAP2 SWAP1 PUSH2 0x108C JUMP JUMPDEST PUSH1 0x40 MLOAD DUP1 SWAP2 SUB SWAP1 RETURN JUMPDEST PUSH2 0x12B PUSH1 0x4 DUP1 CALLDATASIZE SUB DUP2 ADD SWAP1 PUSH2 0x126 SWAP2 SWAP1 PUSH2 0xE74 JUMP JUMPDEST PUSH2 0x3BB JUMP JUMPDEST STOP JUMPDEST PUSH2 0x135 PUSH2 0x7E2 JUMP JUMPDEST PUSH1 0x40 MLOAD PUSH2 0x142 SWAP2 SWAP1 PUSH2 0x10A7 JUMP JUMPDEST PUSH1 0x40 MLOAD DUP1 SWAP2 SUB SWAP1 RETURN JUMPDEST PUSH2 0x165 PUSH1 0x4 DUP1 CALLDATASIZE SUB DUP2 ADD SWAP1 PUSH2 0x160 SWAP2 SWAP1 PUSH2 0xEC7 JUMP JUMPDEST PUSH2 0x7F5 JUMP JUMPDEST STOP JUMPDEST PUSH2 0x16F PUSH2 0x955 JUMP JUMPDEST PUSH1 0x40 MLOAD PUSH2 0x17C SWAP2 SWAP1 PUSH2 0xFEA JUMP JUMPDEST PUSH1 0x40 MLOAD DUP1 SWAP2 SUB SWAP1 RETURN JUMPDEST PUSH2 0x19F PUSH1 0x4 DUP1 CALLDATASIZE SUB DUP2 ADD SWAP1 PUSH2 0x19A SWAP2 SWAP1 PUSH2 0xE07 JUMP JUMPDEST PUSH2 0x9E3 JUMP JUMPDEST PUSH1 0x40 MLOAD PUSH2 0x1AC SWAP2 SWAP1 PUSH2 0x108C JUMP JUMPDEST PUSH1 0x40 MLOAD DUP1 SWAP2 SUB SWAP1 RETURN JUMPDEST PUSH2 0x1BD PUSH2 0xA2C JUMP JUMPDEST PUSH1 0x40 MLOAD PUSH2 0x1CA SWAP2 SWAP1 PUSH2 0xFEA JUMP JUMPDEST PUSH1 0x40 MLOAD DUP1 SWAP2 SUB SWAP1 RETURN JUMPDEST PUSH2 0x1ED PUSH1 0x4 DUP1 CALLDATASIZE SUB DUP2 ADD SWAP1 PUSH2 0x1E8 SWAP2 SWAP1 PUSH2 0xEC7 JUMP JUMPDEST PUSH2 0xABA JUMP JUMPDEST STOP JUMPDEST PUSH2 0x1F7 PUSH2 0xCF2 JUMP JUMPDEST PUSH1 0x40 MLOAD PUSH2 0x204 SWAP2 SWAP1 PUSH2 0x108C JUMP JUMPDEST PUSH1 0x40 MLOAD DUP1 SWAP2 SUB SWAP1 RETURN JUMPDEST PUSH2 0x227 PUSH1 0x4 DUP1 CALLDATASIZE SUB DUP2 ADD SWAP1 PUSH2 0x222 SWAP2 SWAP1 PUSH2 0xE34 JUMP JUMPDEST PUSH2 0xCFB JUMP JUMPDEST PUSH1 0x40 MLOAD PUSH2 0x234 SWAP2 SWAP1 PUSH2 0x108C JUMP JUMPDEST PUSH1 0x40 MLOAD DUP1 SWAP2 SUB SWAP1 RETURN JUMPDEST PUSH1 0x1 DUP1 SLOAD PUSH2 0x24A SWAP1 PUSH2 0x11E4 JUMP JUMPDEST DUP1 PUSH1 0x1F ADD PUSH1 0x20 DUP1 SWAP2 DIV MUL PUSH1 0x20 ADD PUSH1 0x40 MLOAD SWAP1 DUP2 ADD PUSH1 0x40 MSTORE DUP1 SWAP3 SWAP2 SWAP1 DUP2 DUP2 MSTORE PUSH1 0x20 ADD DUP3 DUP1 SLOAD PUSH2 0x276 SWAP1 PUSH2 0x11E4 JUMP JUMPDEST DUP1 ISZERO PUSH2 0x2C3 JUMPI DUP1 PUSH1 0x1F LT PUSH2 0x298 JUMPI PUSH2 0x100 DUP1 DUP4 SLOAD DIV MUL DUP4 MSTORE SWAP2 PUSH1 0x20 ADD SWAP2 PUSH2 0x2C3 JUMP JUMPDEST DUP3 ADD SWAP2 SWAP1 PUSH1 0x0 MSTORE PUSH1 0x20 PUSH1 0x0 KECCAK256 SWAP1 JUMPDEST DUP2 SLOAD DUP2 MSTORE SWAP1 PUSH1 0x1 ADD SWAP1 PUSH1 0x20 ADD DUP1 DUP4 GT PUSH2 0x2A6 JUMPI DUP3 SWAP1 SUB PUSH1 0x1F AND DUP3 ADD SWAP2 JUMPDEST POP POP POP POP POP DUP2 JUMP JUMPDEST DUP1 PUSH1 0x6 PUSH1 0x0 CALLER PUSH20 0xFFFFFFFFFFFFFFFFFFFFFFFFFFFFFFFFFFFFFFFF AND PUSH20 0xFFFFFFFFFFFFFFFFFFFFFFFFFFFFFFFFFFFFFFFF AND DUP2 MSTORE PUSH1 0x20 ADD SWAP1 DUP2 MSTORE PUSH1 0x20 ADD PUSH1 0x0 KECCAK256 PUSH1 0x0 DUP5 PUSH20 0xFFFFFFFFFFFFFFFFFFFFFFFFFFFFFFFFFFFFFFFF AND PUSH20 0xFFFFFFFFFFFFFFFFFFFFFFFFFFFFFFFFFFFFFFFF AND DUP2 MSTORE PUSH1 0x20 ADD SWAP1 DUP2 MSTORE PUSH1 0x20 ADD PUSH1 0x0 KECCAK256 DUP2 SWAP1 SSTORE POP DUP2 PUSH20 0xFFFFFFFFFFFFFFFFFFFFFFFFFFFFFFFFFFFFFFFF AND CALLER PUSH20 0xFFFFFFFFFFFFFFFFFFFFFFFFFFFFFFFFFFFFFFFF AND PUSH32 0x8C5BE1E5EBEC7D5BD14F71427D1E84F3DD0314C0F7B2291E5B200AC8C7C3B925 DUP4 PUSH1 0x40 MLOAD PUSH2 0x3A9 SWAP2 SWAP1 PUSH2 0x108C JUMP JUMPDEST PUSH1 0x40 MLOAD DUP1 SWAP2 SUB SWAP1 LOG3 POP POP JUMP JUMPDEST PUSH1 0x0 SLOAD DUP2 JUMP JUMPDEST PUSH1 0x0 DUP2 GT PUSH2 0x3FE JUMPI PUSH1 0x40 MLOAD PUSH32 0x8C379A000000000000000000000000000000000000000000000000000000000 DUP2 MSTORE PUSH1 0x4 ADD PUSH2 0x3F5 SWAP1 PUSH2 0x102C JUMP JUMPDEST PUSH1 0x40 MLOAD DUP1 SWAP2 SUB SWAP1 REVERT JUMPDEST DUP1 PUSH1 0x5 PUSH1 0x0 DUP6 PUSH20 0xFFFFFFFFFFFFFFFFFFFFFFFFFFFFFFFFFFFFFFFF AND PUSH20 0xFFFFFFFFFFFFFFFFFFFFFFFFFFFFFFFFFFFFFFFF AND DUP2 MSTORE PUSH1 0x20 ADD SWAP1 DUP2 MSTORE PUSH1 0x20 ADD PUSH1 0x0 KECCAK256 SLOAD LT ISZERO PUSH2 0x480 JUMPI PUSH1 0x40 MLOAD PUSH32 0x8C379A000000000000000000000000000000000000000000000000000000000 DUP2 MSTORE PUSH1 0x4 ADD PUSH2 0x477 SWAP1 PUSH2 0x100C JUMP JUMPDEST PUSH1 0x40 MLOAD DUP1 SWAP2 SUB SWAP1 REVERT JUMPDEST DUP1 PUSH1 0x6 PUSH1 0x0 DUP6 PUSH20 0xFFFFFFFFFFFFFFFFFFFFFFFFFFFFFFFFFFFFFFFF AND PUSH20 0xFFFFFFFFFFFFFFFFFFFFFFFFFFFFFFFFFFFFFFFF AND DUP2 MSTORE PUSH1 0x20 ADD SWAP1 DUP2 MSTORE PUSH1 0x20 ADD PUSH1 0x0 KECCAK256 PUSH1 0x0 CALLER PUSH20 0xFFFFFFFFFFFFFFFFFFFFFFFFFFFFFFFFFFFFFFFF AND PUSH20 0xFFFFFFFFFFFFFFFFFFFFFFFFFFFFFFFFFFFFFFFF AND DUP2 MSTORE PUSH1 0x20 ADD SWAP1 DUP2 MSTORE PUSH1 0x20 ADD PUSH1 0x0 KECCAK256 SLOAD LT ISZERO PUSH2 0x53F JUMPI PUSH1 0x40 MLOAD PUSH32 0x8C379A000000000000000000000000000000000000000000000000000000000 DUP2 MSTORE PUSH1 0x4 ADD PUSH2 0x536 SWAP1 PUSH2 0x104C JUMP JUMPDEST PUSH1 0x40 MLOAD DUP1 SWAP2 SUB SWAP1 REVERT JUMPDEST PUSH2 0x591 DUP2 PUSH1 0x5 PUSH1 0x0 DUP6 PUSH20 0xFFFFFFFFFFFFFFFFFFFFFFFFFFFFFFFFFFFFFFFF AND PUSH20 0xFFFFFFFFFFFFFFFFFFFFFFFFFFFFFFFFFFFFFFFF AND DUP2 MSTORE PUSH1 0x20 ADD SWAP1 DUP2 MSTORE PUSH1 0x20 ADD PUSH1 0x0 KECCAK256 SLOAD PUSH2 0xD82 SWAP1 SWAP2 SWAP1 PUSH4 0xFFFFFFFF AND JUMP JUMPDEST PUSH1 0x5 PUSH1 0x0 DUP5 PUSH20 0xFFFFFFFFFFFFFFFFFFFFFFFFFFFFFFFFFFFFFFFF AND PUSH20 0xFFFFFFFFFFFFFFFFFFFFFFFFFFFFFFFFFFFFFFFF AND DUP2 MSTORE PUSH1 0x20 ADD SWAP1 DUP2 MSTORE PUSH1 0x20 ADD PUSH1 0x0 KECCAK256 DUP2 SWAP1 SSTORE POP PUSH2 0x626 DUP2 PUSH1 0x5 PUSH1 0x0 DUP7 PUSH20 0xFFFFFFFFFFFFFFFFFFFFFFFFFFFFFFFFFFFFFFFF AND PUSH20 0xFFFFFFFFFFFFFFFFFFFFFFFFFFFFFFFFFFFFFFFF AND DUP2 MSTORE PUSH1 0x20 ADD SWAP1 DUP2 MSTORE PUSH1 0x20 ADD PUSH1 0x0 KECCAK256 SLOAD PUSH2 0xDAA SWAP1 SWAP2 SWAP1 PUSH4 0xFFFFFFFF AND JUMP JUMPDEST PUSH1 0x5 PUSH1 0x0 DUP6 PUSH20 0xFFFFFFFFFFFFFFFFFFFFFFFFFFFFFFFFFFFFFFFF AND PUSH20 0xFFFFFFFFFFFFFFFFFFFFFFFFFFFFFFFFFFFFFFFF AND DUP2 MSTORE PUSH1 0x20 ADD SWAP1 DUP2 MSTORE PUSH1 0x20 ADD PUSH1 0x0 KECCAK256 DUP2 SWAP1 SSTORE POP PUSH2 0x6F8 DUP2 PUSH1 0x6 PUSH1 0x0 DUP7 PUSH20 0xFFFFFFFFFFFFFFFFFFFFFFFFFFFFFFFFFFFFFFFF AND PUSH20 0xFFFFFFFFFFFFFFFFFFFFFFFFFFFFFFFFFFFFFFFF AND DUP2 MSTORE PUSH1 0x20 ADD SWAP1 DUP2 MSTORE PUSH1 0x20 ADD PUSH1 0x0 KECCAK256 PUSH1 0x0 CALLER PUSH20 0xFFFFFFFFFFFFFFFFFFFFFFFFFFFFFFFFFFFFFFFF AND PUSH20 0xFFFFFFFFFFFFFFFFFFFFFFFFFFFFFFFFFFFFFFFF AND DUP2 MSTORE PUSH1 0x20 ADD SWAP1 DUP2 MSTORE PUSH1 0x20 ADD PUSH1 0x0 KECCAK256 SLOAD PUSH2 0xDAA SWAP1 SWAP2 SWAP1 PUSH4 0xFFFFFFFF AND JUMP JUMPDEST PUSH1 0x6 PUSH1 0x0 DUP6 PUSH20 0xFFFFFFFFFFFFFFFFFFFFFFFFFFFFFFFFFFFFFFFF AND PUSH20 0xFFFFFFFFFFFFFFFFFFFFFFFFFFFFFFFFFFFFFFFF AND DUP2 MSTORE PUSH1 0x20 ADD SWAP1 DUP2 MSTORE PUSH1 0x20 ADD PUSH1 0x0 KECCAK256 PUSH1 0x0 CALLER PUSH20 0xFFFFFFFFFFFFFFFFFFFFFFFFFFFFFFFFFFFFFFFF AND PUSH20 0xFFFFFFFFFFFFFFFFFFFFFFFFFFFFFFFFFFFFFFFF AND DUP2 MSTORE PUSH1 0x20 ADD SWAP1 DUP2 MSTORE PUSH1 0x20 ADD PUSH1 0x0 KECCAK256 DUP2 SWAP1 SSTORE POP DUP2 PUSH20 0xFFFFFFFFFFFFFFFFFFFFFFFFFFFFFFFFFFFFFFFF AND DUP4 PUSH20 0xFFFFFFFFFFFFFFFFFFFFFFFFFFFFFFFFFFFFFFFF AND PUSH32 0xDDF252AD1BE2C89B69C2B068FC378DAA952BA7F163C4A11628F55A4DF523B3EF DUP4 PUSH1 0x40 MLOAD PUSH2 0x7D5 SWAP2 SWAP1 PUSH2 0x108C JUMP JUMPDEST PUSH1 0x40 MLOAD DUP1 SWAP2 SUB SWAP1 LOG3 POP POP POP JUMP JUMPDEST PUSH1 0x2 PUSH1 0x0 SWAP1 SLOAD SWAP1 PUSH2 0x100 EXP SWAP1 DIV PUSH1 0xFF AND DUP2 JUMP JUMPDEST PUSH1 0x0 PUSH20 0xFFFFFFFFFFFFFFFFFFFFFFFFFFFFFFFFFFFFFFFF AND DUP3 PUSH20 0xFFFFFFFFFFFFFFFFFFFFFFFFFFFFFFFFFFFFFFFF AND EQ ISZERO PUSH2 0x865 JUMPI PUSH1 0x40 MLOAD PUSH32 0x8C379A000000000000000000000000000000000000000000000000000000000 DUP2 MSTORE PUSH1 0x4 ADD PUSH2 0x85C SWAP1 PUSH2 0x106C JUMP JUMPDEST PUSH1 0x40 MLOAD DUP1 SWAP2 SUB SWAP1 REVERT JUMPDEST PUSH2 0x871 PUSH1 0x0 DUP4 DUP4 PUSH2 0xDD3 JUMP JUMPDEST DUP1 PUSH1 0x0 DUP1 DUP3 DUP3 SLOAD PUSH2 0x882 SWAP2 SWAP1 PUSH2 0x10DE JUMP JUMPDEST SWAP3 POP POP DUP2 SWAP1 SSTORE POP DUP1 PUSH1 0x5 PUSH1 0x0 DUP5 PUSH20 0xFFFFFFFFFFFFFFFFFFFFFFFFFFFFFFFFFFFFFFFF AND PUSH20 0xFFFFFFFFFFFFFFFFFFFFFFFFFFFFFFFFFFFFFFFF AND DUP2 MSTORE PUSH1 0x20 ADD SWAP1 DUP2 MSTORE PUSH1 0x20 ADD PUSH1 0x0 KECCAK256 PUSH1 0x0 DUP3 DUP3 SLOAD PUSH2 0x8D8 SWAP2 SWAP1 PUSH2 0x10DE JUMP JUMPDEST SWAP3 POP POP DUP2 SWAP1 SSTORE POP DUP2 PUSH20 0xFFFFFFFFFFFFFFFFFFFFFFFFFFFFFFFFFFFFFFFF AND PUSH1 0x0 PUSH20 0xFFFFFFFFFFFFFFFFFFFFFFFFFFFFFFFFFFFFFFFF AND PUSH32 0xDDF252AD1BE2C89B69C2B068FC378DAA952BA7F163C4A11628F55A4DF523B3EF DUP4 PUSH1 0x40 MLOAD PUSH2 0x93D SWAP2 SWAP1 PUSH2 0x108C JUMP JUMPDEST PUSH1 0x40 MLOAD DUP1 SWAP2 SUB SWAP1 LOG3 PUSH2 0x951 PUSH1 0x0 DUP4 DUP4 PUSH2 0xDD8 JUMP JUMPDEST POP POP JUMP JUMPDEST PUSH1 0x4 DUP1 SLOAD PUSH2 0x962 SWAP1 PUSH2 0x11E4 JUMP JUMPDEST DUP1 PUSH1 0x1F ADD PUSH1 0x20 DUP1 SWAP2 DIV MUL PUSH1 0x20 ADD PUSH1 0x40 MLOAD SWAP1 DUP2 ADD PUSH1 0x40 MSTORE DUP1 SWAP3 SWAP2 SWAP1 DUP2 DUP2 MSTORE PUSH1 0x20 ADD DUP3 DUP1 SLOAD PUSH2 0x98E SWAP1 PUSH2 0x11E4 JUMP JUMPDEST DUP1 ISZERO PUSH2 0x9DB JUMPI DUP1 PUSH1 0x1F LT PUSH2 0x9B0 JUMPI PUSH2 0x100 DUP1 DUP4 SLOAD DIV MUL DUP4 MSTORE SWAP2 PUSH1 0x20 ADD SWAP2 PUSH2 0x9DB JUMP JUMPDEST DUP3 ADD SWAP2 SWAP1 PUSH1 0x0 MSTORE PUSH1 0x20 PUSH1 0x0 KECCAK256 SWAP1 JUMPDEST DUP2 SLOAD DUP2 MSTORE SWAP1 PUSH1 0x1 ADD SWAP1 PUSH1 0x20 ADD DUP1 DUP4 GT PUSH2 0x9BE JUMPI DUP3 SWAP1 SUB PUSH1 0x1F AND DUP3 ADD SWAP2 JUMPDEST POP POP POP POP POP DUP2 JUMP JUMPDEST PUSH1 0x0 PUSH1 0x5 PUSH1 0x0 DUP4 PUSH20 0xFFFFFFFFFFFFFFFFFFFFFFFFFFFFFFFFFFFFFFFF AND PUSH20 0xFFFFFFFFFFFFFFFFFFFFFFFFFFFFFFFFFFFFFFFF AND DUP2 MSTORE PUSH1 0x20 ADD SWAP1 DUP2 MSTORE PUSH1 0x20 ADD PUSH1 0x0 KECCAK256 SLOAD SWAP1 POP SWAP2 SWAP1 POP JUMP JUMPDEST PUSH1 0x3 DUP1 SLOAD PUSH2 0xA39 SWAP1 PUSH2 0x11E4 JUMP JUMPDEST DUP1 PUSH1 0x1F ADD PUSH1 0x20 DUP1 SWAP2 DIV MUL PUSH1 0x20 ADD PUSH1 0x40 MLOAD SWAP1 DUP2 ADD PUSH1 0x40 MSTORE DUP1 SWAP3 SWAP2 SWAP1 DUP2 DUP2 MSTORE PUSH1 0x20 ADD DUP3 DUP1 SLOAD PUSH2 0xA65 SWAP1 PUSH2 0x11E4 JUMP JUMPDEST DUP1 ISZERO PUSH2 0xAB2 JUMPI DUP1 PUSH1 0x1F LT PUSH2 0xA87 JUMPI PUSH2 0x100 DUP1 DUP4 SLOAD DIV MUL DUP4 MSTORE SWAP2 PUSH1 0x20 ADD SWAP2 PUSH2 0xAB2 JUMP JUMPDEST DUP3 ADD SWAP2 SWAP1 PUSH1 0x0 MSTORE PUSH1 0x20 PUSH1 0x0 KECCAK256 SWAP1 JUMPDEST DUP2 SLOAD DUP2 MSTORE SWAP1 PUSH1 0x1 ADD SWAP1 PUSH1 0x20 ADD DUP1 DUP4 GT PUSH2 0xA95 JUMPI DUP3 SWAP1 SUB PUSH1 0x1F AND DUP3 ADD SWAP2 JUMPDEST POP POP POP POP POP DUP2 JUMP JUMPDEST PUSH1 0x40 PUSH1 0x4 DUP2 PUSH2 0xAC9 SWAP2 SWAP1 PUSH2 0x10DE JUMP JUMPDEST PUSH1 0x0 CALLDATASIZE SWAP1 POP EQ PUSH2 0xADC JUMPI PUSH2 0xADB PUSH2 0x1216 JUMP JUMPDEST JUMPDEST PUSH1 0x0 DUP3 GT PUSH2 0xB1F JUMPI PUSH1 0x40 MLOAD PUSH32 0x8C379A000000000000000000000000000000000000000000000000000000000 DUP2 MSTORE PUSH1 0x4 ADD PUSH2 0xB16 SWAP1 PUSH2 0x102C JUMP JUMPDEST PUSH1 0x40 MLOAD DUP1 SWAP2 SUB SWAP1 REVERT JUMPDEST PUSH2 0xBB0 PUSH1 0x5 PUSH1 0x0 CALLER PUSH20 0xFFFFFFFFFFFFFFFFFFFFFFFFFFFFFFFFFFFFFFFF AND PUSH20 0xFFFFFFFFFFFFFFFFFFFFFFFFFFFFFFFFFFFFFFFF AND DUP2 MSTORE PUSH1 0x20 ADD SWAP1 DUP2 MSTORE PUSH1 0x20 ADD PUSH1 0x0 KECCAK256 SLOAD PUSH1 0x5 PUSH1 0x0 CALLER PUSH20 0xFFFFFFFFFFFFFFFFFFFFFFFFFFFFFFFFFFFFFFFF AND PUSH20 0xFFFFFFFFFFFFFFFFFFFFFFFFFFFFFFFFFFFFFFFF AND DUP2 MSTORE PUSH1 0x20 ADD SWAP1 DUP2 MSTORE PUSH1 0x20 ADD PUSH1 0x0 KECCAK256 SLOAD PUSH2 0xDAA SWAP1 SWAP2 SWAP1 PUSH4 0xFFFFFFFF AND JUMP JUMPDEST PUSH1 0x5 PUSH1 0x0 CALLER PUSH20 0xFFFFFFFFFFFFFFFFFFFFFFFFFFFFFFFFFFFFFFFF AND PUSH20 0xFFFFFFFFFFFFFFFFFFFFFFFFFFFFFFFFFFFFFFFF AND DUP2 MSTORE PUSH1 0x20 ADD SWAP1 DUP2 MSTORE PUSH1 0x20 ADD PUSH1 0x0 KECCAK256 DUP2 SWAP1 SSTORE POP PUSH2 0xC45 DUP3 PUSH1 0x5 PUSH1 0x0 DUP7 PUSH20 0xFFFFFFFFFFFFFFFFFFFFFFFFFFFFFFFFFFFFFFFF AND PUSH20 0xFFFFFFFFFFFFFFFFFFFFFFFFFFFFFFFFFFFFFFFF AND DUP2 MSTORE PUSH1 0x20 ADD SWAP1 DUP2 MSTORE PUSH1 0x20 ADD PUSH1 0x0 KECCAK256 SLOAD PUSH2 0xD82 SWAP1 SWAP2 SWAP1 PUSH4 0xFFFFFFFF AND JUMP JUMPDEST PUSH1 0x5 PUSH1 0x0 DUP6 PUSH20 0xFFFFFFFFFFFFFFFFFFFFFFFFFFFFFFFFFFFFFFFF AND PUSH20 0xFFFFFFFFFFFFFFFFFFFFFFFFFFFFFFFFFFFFFFFF AND DUP2 MSTORE PUSH1 0x20 ADD SWAP1 DUP2 MSTORE PUSH1 0x20 ADD PUSH1 0x0 KECCAK256 DUP2 SWAP1 SSTORE POP DUP3 PUSH20 0xFFFFFFFFFFFFFFFFFFFFFFFFFFFFFFFFFFFFFFFF AND CALLER PUSH20 0xFFFFFFFFFFFFFFFFFFFFFFFFFFFFFFFFFFFFFFFF AND PUSH32 0xDDF252AD1BE2C89B69C2B068FC378DAA952BA7F163C4A11628F55A4DF523B3EF DUP5 PUSH1 0x40 MLOAD PUSH2 0xCE5 SWAP2 SWAP1 PUSH2 0x108C JUMP JUMPDEST PUSH1 0x40 MLOAD DUP1 SWAP2 SUB SWAP1 LOG3 POP POP POP JUMP JUMPDEST PUSH1 0x0 DUP1 SLOAD SWAP1 POP SWAP1 JUMP JUMPDEST PUSH1 0x0 PUSH1 0x6 PUSH1 0x0 DUP4 PUSH20 0xFFFFFFFFFFFFFFFFFFFFFFFFFFFFFFFFFFFFFFFF AND PUSH20 0xFFFFFFFFFFFFFFFFFFFFFFFFFFFFFFFFFFFFFFFF AND DUP2 MSTORE PUSH1 0x20 ADD SWAP1 DUP2 MSTORE PUSH1 0x20 ADD PUSH1 0x0 KECCAK256 PUSH1 0x0 DUP5 PUSH20 0xFFFFFFFFFFFFFFFFFFFFFFFFFFFFFFFFFFFFFFFF AND PUSH20 0xFFFFFFFFFFFFFFFFFFFFFFFFFFFFFFFFFFFFFFFF AND DUP2 MSTORE PUSH1 0x20 ADD SWAP1 DUP2 MSTORE PUSH1 0x20 ADD PUSH1 0x0 KECCAK256 SLOAD SWAP1 POP SWAP3 SWAP2 POP POP JUMP JUMPDEST PUSH1 0x0 DUP1 DUP3 DUP5 PUSH2 0xD91 SWAP2 SWAP1 PUSH2 0x10DE JUMP JUMPDEST SWAP1 POP DUP4 DUP2 LT ISZERO PUSH2 0xDA0 JUMPI PUSH1 0x0 DUP1 REVERT JUMPDEST DUP1 SWAP2 POP POP SWAP3 SWAP2 POP POP JUMP JUMPDEST PUSH1 0x0 DUP3 DUP3 GT ISZERO PUSH2 0xDB9 JUMPI PUSH1 0x0 DUP1 REVERT JUMPDEST PUSH1 0x0 DUP3 DUP5 PUSH2 0xDC7 SWAP2 SWAP1 PUSH2 0x1134 JUMP JUMPDEST SWAP1 POP DUP1 SWAP2 POP POP SWAP3 SWAP2 POP POP JUMP JUMPDEST POP POP POP JUMP JUMPDEST POP POP POP JUMP JUMPDEST PUSH1 0x0 DUP2 CALLDATALOAD SWAP1 POP PUSH2 0xDEC DUP2 PUSH2 0x135D JUMP JUMPDEST SWAP3 SWAP2 POP POP JUMP JUMPDEST PUSH1 0x0 DUP2 CALLDATALOAD SWAP1 POP PUSH2 0xE01 DUP2 PUSH2 0x1374 JUMP JUMPDEST SWAP3 SWAP2 POP POP JUMP JUMPDEST PUSH1 0x0 PUSH1 0x20 DUP3 DUP5 SUB SLT ISZERO PUSH2 0xE1D JUMPI PUSH2 0xE1C PUSH2 0x12A3 JUMP JUMPDEST JUMPDEST PUSH1 0x0 PUSH2 0xE2B DUP5 DUP3 DUP6 ADD PUSH2 0xDDD JUMP JUMPDEST SWAP2 POP POP SWAP3 SWAP2 POP POP JUMP JUMPDEST PUSH1 0x0 DUP1 PUSH1 0x40 DUP4 DUP6 SUB SLT ISZERO PUSH2 0xE4B JUMPI PUSH2 0xE4A PUSH2 0x12A3 JUMP JUMPDEST JUMPDEST PUSH1 0x0 PUSH2 0xE59 DUP6 DUP3 DUP7 ADD PUSH2 0xDDD JUMP JUMPDEST SWAP3 POP POP PUSH1 0x20 PUSH2 0xE6A DUP6 DUP3 DUP7 ADD PUSH2 0xDDD JUMP JUMPDEST SWAP2 POP POP SWAP3 POP SWAP3 SWAP1 POP JUMP JUMPDEST PUSH1 0x0 DUP1 PUSH1 0x0 PUSH1 0x60 DUP5 DUP7 SUB SLT ISZERO PUSH2 0xE8D JUMPI PUSH2 0xE8C PUSH2 0x12A3 JUMP JUMPDEST JUMPDEST PUSH1 0x0 PUSH2 0xE9B DUP7 DUP3 DUP8 ADD PUSH2 0xDDD JUMP JUMPDEST SWAP4 POP POP PUSH1 0x20 PUSH2 0xEAC DUP7 DUP3 DUP8 ADD PUSH2 0xDDD JUMP JUMPDEST SWAP3 POP POP PUSH1 0x40 PUSH2 0xEBD DUP7 DUP3 DUP8 ADD PUSH2 0xDF2 JUMP JUMPDEST SWAP2 POP POP SWAP3 POP SWAP3 POP SWAP3 JUMP JUMPDEST PUSH1 0x0 DUP1 PUSH1 0x40 DUP4 DUP6 SUB SLT ISZERO PUSH2 0xEDE JUMPI PUSH2 0xEDD PUSH2 0x12A3 JUMP JUMPDEST JUMPDEST PUSH1 0x0 PUSH2 0xEEC DUP6 DUP3 DUP7 ADD PUSH2 0xDDD JUMP JUMPDEST SWAP3 POP POP PUSH1 0x20 PUSH2 0xEFD DUP6 DUP3 DUP7 ADD PUSH2 0xDF2 JUMP JUMPDEST SWAP2 POP POP SWAP3 POP SWAP3 SWAP1 POP JUMP JUMPDEST PUSH1 0x0 PUSH2 0xF12 DUP3 PUSH2 0x10C2 JUMP JUMPDEST PUSH2 0xF1C DUP2 DUP6 PUSH2 0x10CD JUMP JUMPDEST SWAP4 POP PUSH2 0xF2C DUP2 DUP6 PUSH1 0x20 DUP7 ADD PUSH2 0x11B1 JUMP JUMPDEST PUSH2 0xF35 DUP2 PUSH2 0x12A8 JUMP JUMPDEST DUP5 ADD SWAP2 POP POP SWAP3 SWAP2 POP POP JUMP JUMPDEST PUSH1 0x0 PUSH2 0xF4D PUSH1 0x10 DUP4 PUSH2 0x10CD JUMP JUMPDEST SWAP2 POP PUSH2 0xF58 DUP3 PUSH2 0x12B9 JUMP JUMPDEST PUSH1 0x20 DUP3 ADD SWAP1 POP SWAP2 SWAP1 POP JUMP JUMPDEST PUSH1 0x0 PUSH2 0xF70 PUSH1 0xB DUP4 PUSH2 0x10CD JUMP JUMPDEST SWAP2 POP PUSH2 0xF7B DUP3 PUSH2 0x12E2 JUMP JUMPDEST PUSH1 0x20 DUP3 ADD SWAP1 POP SWAP2 SWAP1 POP JUMP JUMPDEST PUSH1 0x0 PUSH2 0xF93 PUSH1 0xE DUP4 PUSH2 0x10CD JUMP JUMPDEST SWAP2 POP PUSH2 0xF9E DUP3 PUSH2 0x130B JUMP JUMPDEST PUSH1 0x20 DUP3 ADD SWAP1 POP SWAP2 SWAP1 POP JUMP JUMPDEST PUSH1 0x0 PUSH2 0xFB6 PUSH1 0x1F DUP4 PUSH2 0x10CD JUMP JUMPDEST SWAP2 POP PUSH2 0xFC1 DUP3 PUSH2 0x1334 JUMP JUMPDEST PUSH1 0x20 DUP3 ADD SWAP1 POP SWAP2 SWAP1 POP JUMP JUMPDEST PUSH2 0xFD5 DUP2 PUSH2 0x119A JUMP JUMPDEST DUP3 MSTORE POP POP JUMP JUMPDEST PUSH2 0xFE4 DUP2 PUSH2 0x11A4 JUMP JUMPDEST DUP3 MSTORE POP POP JUMP JUMPDEST PUSH1 0x0 PUSH1 0x20 DUP3 ADD SWAP1 POP DUP2 DUP2 SUB PUSH1 0x0 DUP4 ADD MSTORE PUSH2 0x1004 DUP2 DUP5 PUSH2 0xF07 JUMP JUMPDEST SWAP1 POP SWAP3 SWAP2 POP POP JUMP JUMPDEST PUSH1 0x0 PUSH1 0x20 DUP3 ADD SWAP1 POP DUP2 DUP2 SUB PUSH1 0x0 DUP4 ADD MSTORE PUSH2 0x1025 DUP2 PUSH2 0xF40 JUMP JUMPDEST SWAP1 POP SWAP2 SWAP1 POP JUMP JUMPDEST PUSH1 0x0 PUSH1 0x20 DUP3 ADD SWAP1 POP DUP2 DUP2 SUB PUSH1 0x0 DUP4 ADD MSTORE PUSH2 0x1045 DUP2 PUSH2 0xF63 JUMP JUMPDEST SWAP1 POP SWAP2 SWAP1 POP JUMP JUMPDEST PUSH1 0x0 PUSH1 0x20 DUP3 ADD SWAP1 POP DUP2 DUP2 SUB PUSH1 0x0 DUP4 ADD MSTORE PUSH2 0x1065 DUP2 PUSH2 0xF86 JUMP JUMPDEST SWAP1 POP SWAP2 SWAP1 POP JUMP JUMPDEST PUSH1 0x0 PUSH1 0x20 DUP3 ADD SWAP1 POP DUP2 DUP2 SUB PUSH1 0x0 DUP4 ADD MSTORE PUSH2 0x1085 DUP2 PUSH2 0xFA9 JUMP JUMPDEST SWAP1 POP SWAP2 SWAP1 POP JUMP JUMPDEST PUSH1 0x0 PUSH1 0x20 DUP3 ADD SWAP1 POP PUSH2 0x10A1 PUSH1 0x0 DUP4 ADD DUP5 PUSH2 0xFCC JUMP JUMPDEST SWAP3 SWAP2 POP POP JUMP JUMPDEST PUSH1 0x0 PUSH1 0x20 DUP3 ADD SWAP1 POP PUSH2 0x10BC PUSH1 0x0 DUP4 ADD DUP5 PUSH2 0xFDB JUMP JUMPDEST SWAP3 SWAP2 POP POP JUMP JUMPDEST PUSH1 0x0 DUP2 MLOAD SWAP1 POP SWAP2 SWAP1 POP JUMP JUMPDEST PUSH1 0x0 DUP3 DUP3 MSTORE PUSH1 0x20 DUP3 ADD SWAP1 POP SWAP3 SWAP2 POP POP JUMP JUMPDEST PUSH1 0x0 PUSH2 0x10E9 DUP3 PUSH2 0x119A JUMP JUMPDEST SWAP2 POP PUSH2 0x10F4 DUP4 PUSH2 0x119A JUMP JUMPDEST SWAP3 POP DUP3 PUSH32 0xFFFFFFFFFFFFFFFFFFFFFFFFFFFFFFFFFFFFFFFFFFFFFFFFFFFFFFFFFFFFFFFF SUB DUP3 GT ISZERO PUSH2 0x1129 JUMPI PUSH2 0x1128 PUSH2 0x1245 JUMP JUMPDEST JUMPDEST DUP3 DUP3 ADD SWAP1 POP SWAP3 SWAP2 POP POP JUMP JUMPDEST PUSH1 0x0 PUSH2 0x113F DUP3 PUSH2 0x119A JUMP JUMPDEST SWAP2 POP PUSH2 0x114A DUP4 PUSH2 0x119A JUMP JUMPDEST SWAP3 POP DUP3 DUP3 LT ISZERO PUSH2 0x115D JUMPI PUSH2 0x115C PUSH2 0x1245 JUMP JUMPDEST JUMPDEST DUP3 DUP3 SUB SWAP1 POP SWAP3 SWAP2 POP POP JUMP JUMPDEST PUSH1 0x0 PUSH2 0x1173 DUP3 PUSH2 0x117A JUMP JUMPDEST SWAP1 POP SWAP2 SWAP1 POP JUMP JUMPDEST PUSH1 0x0 PUSH20 0xFFFFFFFFFFFFFFFFFFFFFFFFFFFFFFFFFFFFFFFF DUP3 AND SWAP1 POP SWAP2 SWAP1 POP JUMP JUMPDEST PUSH1 0x0 DUP2 SWAP1 POP SWAP2 SWAP1 POP JUMP JUMPDEST PUSH1 0x0 PUSH1 0xFF DUP3 AND SWAP1 POP SWAP2 SWAP1 POP JUMP JUMPDEST PUSH1 0x0 JUMPDEST DUP4 DUP2 LT ISZERO PUSH2 0x11CF JUMPI DUP1 DUP3 ADD MLOAD DUP2 DUP5 ADD MSTORE PUSH1 0x20 DUP2 ADD SWAP1 POP PUSH2 0x11B4 JUMP JUMPDEST DUP4 DUP2 GT ISZERO PUSH2 0x11DE JUMPI PUSH1 0x0 DUP5 DUP5 ADD MSTORE JUMPDEST POP POP POP POP JUMP JUMPDEST PUSH1 0x0 PUSH1 0x2 DUP3 DIV SWAP1 POP PUSH1 0x1 DUP3 AND DUP1 PUSH2 0x11FC JUMPI PUSH1 0x7F DUP3 AND SWAP2 POP JUMPDEST PUSH1 0x20 DUP3 LT DUP2 EQ ISZERO PUSH2 0x1210 JUMPI PUSH2 0x120F PUSH2 0x1274 JUMP JUMPDEST JUMPDEST POP SWAP2 SWAP1 POP JUMP JUMPDEST PUSH32 0x4E487B7100000000000000000000000000000000000000000000000000000000 PUSH1 0x0 MSTORE PUSH1 0x1 PUSH1 0x4 MSTORE PUSH1 0x24 PUSH1 0x0 REVERT JUMPDEST PUSH32 0x4E487B7100000000000000000000000000000000000000000000000000000000 PUSH1 0x0 MSTORE PUSH1 0x11 PUSH1 0x4 MSTORE PUSH1 0x24 PUSH1 0x0 REVERT JUMPDEST PUSH32 0x4E487B7100000000000000000000000000000000000000000000000000000000 PUSH1 0x0 MSTORE PUSH1 0x22 PUSH1 0x4 MSTORE PUSH1 0x24 PUSH1 0x0 REVERT JUMPDEST PUSH1 0x0 DUP1 REVERT JUMPDEST PUSH1 0x0 PUSH1 0x1F NOT PUSH1 0x1F DUP4 ADD AND SWAP1 POP SWAP2 SWAP1 POP JUMP JUMPDEST PUSH32 0x42616C616E6365203C20616D6F756E7400000000000000000000000000000000 PUSH1 0x0 DUP3 ADD MSTORE POP JUMP JUMPDEST PUSH32 0x416D6F756E74203C3D2030000000000000000000000000000000000000000000 PUSH1 0x0 DUP3 ADD MSTORE POP JUMP JUMPDEST PUSH32 0x446F6E277420616C6C6F7765642E000000000000000000000000000000000000 PUSH1 0x0 DUP3 ADD MSTORE POP JUMP JUMPDEST PUSH32 0x45524332303A206D696E7420746F20746865207A65726F206164647265737300 PUSH1 0x0 DUP3 ADD MSTORE POP JUMP JUMPDEST PUSH2 0x1366 DUP2 PUSH2 0x1168 JUMP JUMPDEST DUP2 EQ PUSH2 0x1371 JUMPI PUSH1 0x0 DUP1 REVERT JUMPDEST POP JUMP JUMPDEST PUSH2 0x137D DUP2 PUSH2 0x119A JUMP JUMPDEST DUP2 EQ PUSH2 0x1388 JUMPI PUSH1 0x0 DUP1 REVERT JUMPDEST POP JUMP INVALID LOG2 PUSH5 0x6970667358 0x22 SLT KECCAK256 0xAA 0x2F SWAP8 0x4D SLT PUSH26 0xE6CB1952B0B74C23C5B06AF4C3EC6BE71F66EB0713050AC4841F PUSH5 0x736F6C6343 STOP ADDMOD SMOD STOP CALLER "
				},
				"gasEstimates": {
					"creation": {
						"codeDepositCost": "1497600",
						"executionCost": "infinite",
						"totalCost": "infinite"
					},
					"external": {
						"addProposals(address[],string[])": "infinite",
						"addVoters(address[])": "infinite",
						"nameOfProposal(address)": "infinite",
						"totalVotesFor(address)": "infinite",
						"vote(address)": "infinite"
					}
				},
				"methodIdentifiers": {
					"addProposals(address[],string[])": "633fff16",
					"addVoters(address[])": "8203373a",
					"nameOfProposal(address)": "3e552909",
					"totalVotesFor(address)": "4041ef54",
					"vote(address)": "6dd7d8ea"
				}
			},
			"storageLayout": {
				"storage": [
					{
						"astId": 482,
						"contract": "contracts/Voting.sol:Voting",
						"label": "name",
						"offset": 0,
						"slot": "0",
						"type": "t_string_storage"
					},
					{
						"astId": 484,
						"contract": "contracts/Voting.sol:Voting",
						"label": "startTime",
						"offset": 0,
						"slot": "1",
						"type": "t_uint256"
					},
					{
						"astId": 486,
						"contract": "contracts/Voting.sol:Voting",
						"label": "endTime",
						"offset": 0,
						"slot": "2",
						"type": "t_uint256"
					},
					{
						"astId": 490,
						"contract": "contracts/Voting.sol:Voting",
						"label": "voters",
						"offset": 0,
						"slot": "3",
						"type": "t_mapping(t_address,t_bool)"
					},
					{
						"astId": 494,
						"contract": "contracts/Voting.sol:Voting",
						"label": "votersExist",
						"offset": 0,
						"slot": "4",
						"type": "t_mapping(t_address,t_bool)"
					},
					{
						"astId": 498,
						"contract": "contracts/Voting.sol:Voting",
						"label": "proposals",
						"offset": 0,
						"slot": "5",
						"type": "t_mapping(t_address,t_string_storage)"
					},
					{
						"astId": 502,
						"contract": "contracts/Voting.sol:Voting",
						"label": "proposalsExist",
						"offset": 0,
						"slot": "6",
						"type": "t_mapping(t_address,t_bool)"
					},
					{
						"astId": 504,
						"contract": "contracts/Voting.sol:Voting",
						"label": "chairperson",
						"offset": 0,
						"slot": "7",
						"type": "t_address"
					},
					{
						"astId": 511,
						"contract": "contracts/Voting.sol:Voting",
						"label": "token",
						"offset": 0,
						"slot": "8",
						"type": "t_contract(Token)477"
					}
				],
				"types": {
					"t_address": {
						"encoding": "inplace",
						"label": "address",
						"numberOfBytes": "20"
					},
					"t_bool": {
						"encoding": "inplace",
						"label": "bool",
						"numberOfBytes": "1"
					},
					"t_contract(Token)477": {
						"encoding": "inplace",
						"label": "contract Token",
						"numberOfBytes": "20"
					},
					"t_mapping(t_address,t_bool)": {
						"encoding": "mapping",
						"key": "t_address",
						"label": "mapping(address => bool)",
						"numberOfBytes": "32",
						"value": "t_bool"
					},
					"t_mapping(t_address,t_string_storage)": {
						"encoding": "mapping",
						"key": "t_address",
						"label": "mapping(address => string)",
						"numberOfBytes": "32",
						"value": "t_string_storage"
					},
					"t_string_storage": {
						"encoding": "bytes",
						"label": "string",
						"numberOfBytes": "32"
					},
					"t_uint256": {
						"encoding": "inplace",
						"label": "uint256",
						"numberOfBytes": "32"
					}
				}
			},
			"userdoc": {
				"kind": "user",
				"methods": {},
				"version": 1
			}
		}
	}
}