{
	"contracts/Voting.sol": {
		"Voting": {
			"abi": [
				{
					"inputs": [],
					"stateMutability": "nonpayable",
					"type": "constructor"
				},
				{
					"inputs": [
						{
							"internalType": "address[]",
							"name": "_proposalsAddr",
							"type": "address[]"
						},
						{
							"internalType": "string[]",
							"name": "_proposalsNames",
							"type": "string[]"
						}
					],
					"name": "addProposals",
					"outputs": [],
					"stateMutability": "nonpayable",
					"type": "function"
				},
				{
					"inputs": [
						{
							"internalType": "address",
							"name": "voter",
							"type": "address"
						}
					],
					"name": "addVote",
					"outputs": [],
					"stateMutability": "nonpayable",
					"type": "function"
				},
				{
					"inputs": [
						{
							"internalType": "address[]",
							"name": "_voters",
							"type": "address[]"
						}
					],
					"name": "addVoters",
					"outputs": [],
					"stateMutability": "nonpayable",
					"type": "function"
				},
				{
					"inputs": [
						{
							"internalType": "address",
							"name": "voter",
							"type": "address"
						}
					],
					"name": "giveRightToVote",
					"outputs": [],
					"stateMutability": "nonpayable",
					"type": "function"
				},
				{
					"inputs": [
						{
							"internalType": "address",
							"name": "proposal",
							"type": "address"
						}
					],
					"name": "totalVotesFor",
					"outputs": [
						{
							"internalType": "uint256",
							"name": "",
							"type": "uint256"
						}
					],
					"stateMutability": "view",
					"type": "function"
				},
				{
					"inputs": [
						{
							"internalType": "address",
							"name": "proposal",
							"type": "address"
						}
					],
					"name": "vote",
					"outputs": [],
					"stateMutability": "nonpayable",
					"type": "function"
				}
			],
			"devdoc": {
				"kind": "dev",
				"methods": {},
				"version": 1
			},
			"evm": {
				"assembly": "    /* \"contracts/Voting.sol\":91:2110  contract Voting {\r... */\n  mstore(0x40, 0x80)\n    /* \"contracts/Voting.sol\":324:531  constructor () {\r... */\n  callvalue\n  dup1\n  iszero\n  tag_1\n  jumpi\n  0x00\n  dup1\n  revert\ntag_1:\n  pop\n    /* \"contracts/Voting.sol\":366:376  msg.sender */\n  caller\n    /* \"contracts/Voting.sol\":352:363  chairperson */\n  0x05\n  0x00\n    /* \"contracts/Voting.sol\":352:376  chairperson = msg.sender */\n  0x0100\n  exp\n  dup2\n  sload\n  dup2\n  0xffffffffffffffffffffffffffffffffffffffff\n  mul\n  not\n  and\n  swap1\n  dup4\n  0xffffffffffffffffffffffffffffffffffffffff\n  and\n  mul\n  or\n  swap1\n  sstore\n  pop\n    /* \"contracts/Voting.sol\":399:409  1650398218 */\n  0x625f140a\n    /* \"contracts/Voting.sol\":387:396  startTime */\n  0x00\n    /* \"contracts/Voting.sol\":387:409  startTime = 1650398218 */\n  dup2\n  swap1\n  sstore\n  pop\n    /* \"contracts/Voting.sol\":442:448  5 days */\n  0x069780\n    /* \"contracts/Voting.sol\":430:439  startTime */\n  sload(0x00)\n    /* \"contracts/Voting.sol\":430:448  startTime + 5 days */\n  tag_4\n  swap2\n  swap1\n  tag_5\n  jump\t// in\ntag_4:\n    /* \"contracts/Voting.sol\":420:427  endTime */\n  0x01\n    /* \"contracts/Voting.sol\":420:448  endTime = startTime + 5 days */\n  dup2\n  swap1\n  sstore\n  pop\n    /* \"contracts/Voting.sol\":477:478  4 */\n  0x04\n    /* \"contracts/Voting.sol\":459:474  numbersOfVoters */\n  0x03\n    /* \"contracts/Voting.sol\":459:478  numbersOfVoters = 4 */\n  dup2\n  swap1\n  sstore\n  pop\n    /* \"contracts/Voting.sol\":507:522  numbersOfVoters */\n  sload(0x03)\n    /* \"contracts/Voting.sol\":497:523  new Token(numbersOfVoters) */\n  mload(0x40)\n  tag_6\n  swap1\n  tag_7\n  jump\t// in\ntag_6:\n  tag_8\n  swap2\n  swap1\n  tag_9\n  jump\t// in\ntag_8:\n  mload(0x40)\n  dup1\n  swap2\n  sub\n  swap1\n  0x00\n  create\n  dup1\n  iszero\n  dup1\n  iszero\n  tag_10\n  jumpi\n  returndatasize\n  0x00\n  dup1\n  returndatacopy\n  revert(0x00, returndatasize)\ntag_10:\n  pop\n    /* \"contracts/Voting.sol\":489:494  token */\n  0x06\n  0x00\n    /* \"contracts/Voting.sol\":489:523  token = new Token(numbersOfVoters) */\n  0x0100\n  exp\n  dup2\n  sload\n  dup2\n  0xffffffffffffffffffffffffffffffffffffffff\n  mul\n  not\n  and\n  swap1\n  dup4\n  0xffffffffffffffffffffffffffffffffffffffff\n  and\n  mul\n  or\n  swap1\n  sstore\n  pop\n    /* \"contracts/Voting.sol\":91:2110  contract Voting {\r... */\n  jump(tag_11)\ntag_7:\n  dataSize(sub_1)\n  dup1\n  dataOffset(sub_1)\n  dup4\n  codecopy\n  add\n  swap1\n  jump\t// out\n    /* \"#utility.yul\":7:125   */\ntag_13:\n    /* \"#utility.yul\":94:118   */\n  tag_15\n    /* \"#utility.yul\":112:117   */\n  dup2\n    /* \"#utility.yul\":94:118   */\n  tag_16\n  jump\t// in\ntag_15:\n    /* \"#utility.yul\":89:92   */\n  dup3\n    /* \"#utility.yul\":82:119   */\n  mstore\n    /* \"#utility.yul\":7:125   */\n  pop\n  pop\n  jump\t// out\n    /* \"#utility.yul\":131:353   */\ntag_9:\n    /* \"#utility.yul\":224:228   */\n  0x00\n    /* \"#utility.yul\":262:264   */\n  0x20\n    /* \"#utility.yul\":251:260   */\n  dup3\n    /* \"#utility.yul\":247:265   */\n  add\n    /* \"#utility.yul\":239:265   */\n  swap1\n  pop\n    /* \"#utility.yul\":275:346   */\n  tag_18\n    /* \"#utility.yul\":343:344   */\n  0x00\n    /* \"#utility.yul\":332:341   */\n  dup4\n    /* \"#utility.yul\":328:345   */\n  add\n    /* \"#utility.yul\":319:325   */\n  dup5\n    /* \"#utility.yul\":275:346   */\n  tag_13\n  jump\t// in\ntag_18:\n    /* \"#utility.yul\":131:353   */\n  swap3\n  swap2\n  pop\n  pop\n  jump\t// out\n    /* \"#utility.yul\":359:664   */\ntag_5:\n    /* \"#utility.yul\":399:402   */\n  0x00\n    /* \"#utility.yul\":418:438   */\n  tag_20\n    /* \"#utility.yul\":436:437   */\n  dup3\n    /* \"#utility.yul\":418:438   */\n  tag_16\n  jump\t// in\ntag_20:\n    /* \"#utility.yul\":413:438   */\n  swap2\n  pop\n    /* \"#utility.yul\":452:472   */\n  tag_21\n    /* \"#utility.yul\":470:471   */\n  dup4\n    /* \"#utility.yul\":452:472   */\n  tag_16\n  jump\t// in\ntag_21:\n    /* \"#utility.yul\":447:472   */\n  swap3\n  pop\n    /* \"#utility.yul\":606:607   */\n  dup3\n    /* \"#utility.yul\":538:604   */\n  0xffffffffffffffffffffffffffffffffffffffffffffffffffffffffffffffff\n    /* \"#utility.yul\":534:608   */\n  sub\n    /* \"#utility.yul\":531:532   */\n  dup3\n    /* \"#utility.yul\":528:609   */\n  gt\n    /* \"#utility.yul\":525:632   */\n  iszero\n  tag_22\n  jumpi\n    /* \"#utility.yul\":612:630   */\n  tag_23\n  tag_24\n  jump\t// in\ntag_23:\n    /* \"#utility.yul\":525:632   */\ntag_22:\n    /* \"#utility.yul\":656:657   */\n  dup3\n    /* \"#utility.yul\":653:654   */\n  dup3\n    /* \"#utility.yul\":649:658   */\n  add\n    /* \"#utility.yul\":642:658   */\n  swap1\n  pop\n    /* \"#utility.yul\":359:664   */\n  swap3\n  swap2\n  pop\n  pop\n  jump\t// out\n    /* \"#utility.yul\":670:747   */\ntag_16:\n    /* \"#utility.yul\":707:714   */\n  0x00\n    /* \"#utility.yul\":736:741   */\n  dup2\n    /* \"#utility.yul\":725:741   */\n  swap1\n  pop\n    /* \"#utility.yul\":670:747   */\n  swap2\n  swap1\n  pop\n  jump\t// out\n    /* \"#utility.yul\":753:933   */\ntag_24:\n    /* \"#utility.yul\":801:878   */\n  0x4e487b7100000000000000000000000000000000000000000000000000000000\n    /* \"#utility.yul\":798:799   */\n  0x00\n    /* \"#utility.yul\":791:879   */\n  mstore\n    /* \"#utility.yul\":898:902   */\n  0x11\n    /* \"#utility.yul\":895:896   */\n  0x04\n    /* \"#utility.yul\":888:903   */\n  mstore\n    /* \"#utility.yul\":922:926   */\n  0x24\n    /* \"#utility.yul\":919:920   */\n  0x00\n    /* \"#utility.yul\":912:927   */\n  revert\n    /* \"contracts/Voting.sol\":91:2110  contract Voting {\r... */\ntag_11:\n  dataSize(sub_0)\n  dup1\n  dataOffset(sub_0)\n  0x00\n  codecopy\n  0x00\n  return\nstop\n\nsub_0: assembly {\n        /* \"contracts/Voting.sol\":91:2110  contract Voting {\r... */\n      mstore(0x40, 0x80)\n      callvalue\n      dup1\n      iszero\n      tag_1\n      jumpi\n      0x00\n      dup1\n      revert\n    tag_1:\n      pop\n      jumpi(tag_2, lt(calldatasize, 0x04))\n      shr(0xe0, calldataload(0x00))\n      dup1\n      0x4041ef54\n      eq\n      tag_3\n      jumpi\n      dup1\n      0x633fff16\n      eq\n      tag_4\n      jumpi\n      dup1\n      0x6cea0e46\n      eq\n      tag_5\n      jumpi\n      dup1\n      0x6dd7d8ea\n      eq\n      tag_6\n      jumpi\n      dup1\n      0x8203373a\n      eq\n      tag_7\n      jumpi\n      dup1\n      0x9e7b8d61\n      eq\n      tag_8\n      jumpi\n    tag_2:\n      0x00\n      dup1\n      revert\n        /* \"contracts/Voting.sol\":1884:2103  function totalVotesFor(address proposal) view public returns (uint256) {\r... */\n    tag_3:\n      tag_9\n      0x04\n      dup1\n      calldatasize\n      sub\n      dup2\n      add\n      swap1\n      tag_10\n      swap2\n      swap1\n      tag_11\n      jump\t// in\n    tag_10:\n      tag_12\n      jump\t// in\n    tag_9:\n      mload(0x40)\n      tag_13\n      swap2\n      swap1\n      tag_14\n      jump\t// in\n    tag_13:\n      mload(0x40)\n      dup1\n      swap2\n      sub\n      swap1\n      return\n        /* \"contracts/Voting.sol\":845:1205  function addProposals(address[] memory _proposalsAddr, \r... */\n    tag_4:\n      tag_15\n      0x04\n      dup1\n      calldatasize\n      sub\n      dup2\n      add\n      swap1\n      tag_16\n      swap2\n      swap1\n      tag_17\n      jump\t// in\n    tag_16:\n      tag_18\n      jump\t// in\n    tag_15:\n      stop\n        /* \"contracts/Voting.sol\":1213:1292  function addVote(address voter) public {\r... */\n    tag_5:\n      tag_19\n      0x04\n      dup1\n      calldatasize\n      sub\n      dup2\n      add\n      swap1\n      tag_20\n      swap2\n      swap1\n      tag_11\n      jump\t// in\n    tag_20:\n      tag_21\n      jump\t// in\n    tag_19:\n      stop\n        /* \"contracts/Voting.sol\":1300:1725  function vote(address proposal) public {\r... */\n    tag_6:\n      tag_22\n      0x04\n      dup1\n      calldatasize\n      sub\n      dup2\n      add\n      swap1\n      tag_23\n      swap2\n      swap1\n      tag_11\n      jump\t// in\n    tag_23:\n      tag_24\n      jump\t// in\n    tag_22:\n      stop\n        /* \"contracts/Voting.sol\":539:837  function addVoters(address[] memory _voters) public {\r... */\n    tag_7:\n      tag_25\n      0x04\n      dup1\n      calldatasize\n      sub\n      dup2\n      add\n      swap1\n      tag_26\n      swap2\n      swap1\n      tag_27\n      jump\t// in\n    tag_26:\n      tag_28\n      jump\t// in\n    tag_25:\n      stop\n        /* \"contracts/Voting.sol\":1733:1876  function giveRightToVote(address voter) public {\r... */\n    tag_8:\n      tag_29\n      0x04\n      dup1\n      calldatasize\n      sub\n      dup2\n      add\n      swap1\n      tag_30\n      swap2\n      swap1\n      tag_11\n      jump\t// in\n    tag_30:\n      tag_31\n      jump\t// in\n    tag_29:\n      stop\n        /* \"contracts/Voting.sol\":1884:2103  function totalVotesFor(address proposal) view public returns (uint256) {\r... */\n    tag_12:\n        /* \"contracts/Voting.sol\":1946:1953  uint256 */\n      0x00\n        /* \"contracts/Voting.sol\":2070:2075  token */\n      0x06\n      0x00\n      swap1\n      sload\n      swap1\n      0x0100\n      exp\n      swap1\n      div\n      0xffffffffffffffffffffffffffffffffffffffff\n      and\n        /* \"contracts/Voting.sol\":2070:2085  token.balanceOf */\n      0xffffffffffffffffffffffffffffffffffffffff\n      and\n      0x70a08231\n        /* \"contracts/Voting.sol\":2086:2094  proposal */\n      dup4\n        /* \"contracts/Voting.sol\":2070:2095  token.balanceOf(proposal) */\n      mload(0x40)\n      dup3\n      0xffffffff\n      and\n      0xe0\n      shl\n      dup2\n      mstore\n      0x04\n      add\n      tag_33\n      swap2\n      swap1\n      tag_34\n      jump\t// in\n    tag_33:\n      0x20\n      mload(0x40)\n      dup1\n      dup4\n      sub\n      dup2\n      dup7\n      dup1\n      extcodesize\n      iszero\n      dup1\n      iszero\n      tag_35\n      jumpi\n      0x00\n      dup1\n      revert\n    tag_35:\n      pop\n      gas\n      staticcall\n      iszero\n      dup1\n      iszero\n      tag_37\n      jumpi\n      returndatasize\n      0x00\n      dup1\n      returndatacopy\n      revert(0x00, returndatasize)\n    tag_37:\n      pop\n      pop\n      pop\n      pop\n      mload(0x40)\n      returndatasize\n      not(0x1f)\n      0x1f\n      dup3\n      add\n      and\n      dup3\n      add\n      dup1\n      0x40\n      mstore\n      pop\n      dup2\n      add\n      swap1\n      tag_38\n      swap2\n      swap1\n      tag_39\n      jump\t// in\n    tag_38:\n        /* \"contracts/Voting.sol\":2063:2095  return token.balanceOf(proposal) */\n      swap1\n      pop\n        /* \"contracts/Voting.sol\":1884:2103  function totalVotesFor(address proposal) view public returns (uint256) {\r... */\n      swap2\n      swap1\n      pop\n      jump\t// out\n        /* \"contracts/Voting.sol\":845:1205  function addProposals(address[] memory _proposalsAddr, \r... */\n    tag_18:\n        /* \"contracts/Voting.sol\":1013:1028  _proposalsNames */\n      dup1\n        /* \"contracts/Voting.sol\":1013:1035  _proposalsNames.length */\n      mload\n        /* \"contracts/Voting.sol\":988:1002  _proposalsAddr */\n      dup3\n        /* \"contracts/Voting.sol\":988:1009  _proposalsAddr.length */\n      mload\n        /* \"contracts/Voting.sol\":988:1035  _proposalsAddr.length == _proposalsNames.length */\n      eq\n        /* \"contracts/Voting.sol\":980:1060  require(_proposalsAddr.length == _proposalsNames.length, \"Length is different.\") */\n      tag_41\n      jumpi\n      mload(0x40)\n      0x08c379a000000000000000000000000000000000000000000000000000000000\n      dup2\n      mstore\n      0x04\n      add\n      tag_42\n      swap1\n      tag_43\n      jump\t// in\n    tag_42:\n      mload(0x40)\n      dup1\n      swap2\n      sub\n      swap1\n      revert\n    tag_41:\n        /* \"contracts/Voting.sol\":1078:1084  uint i */\n      0x00\n        /* \"contracts/Voting.sol\":1073:1198  for (uint i = 0; i < _proposalsAddr.length; i++) {\r... */\n    tag_44:\n        /* \"contracts/Voting.sol\":1094:1108  _proposalsAddr */\n      dup3\n        /* \"contracts/Voting.sol\":1094:1115  _proposalsAddr.length */\n      mload\n        /* \"contracts/Voting.sol\":1090:1091  i */\n      dup2\n        /* \"contracts/Voting.sol\":1090:1115  i < _proposalsAddr.length */\n      lt\n        /* \"contracts/Voting.sol\":1073:1198  for (uint i = 0; i < _proposalsAddr.length; i++) {\r... */\n      iszero\n      tag_45\n      jumpi\n        /* \"contracts/Voting.sol\":1168:1183  _proposalsNames */\n      dup2\n        /* \"contracts/Voting.sol\":1184:1185  i */\n      dup2\n        /* \"contracts/Voting.sol\":1168:1186  _proposalsNames[i] */\n      dup2\n      mload\n      dup2\n      lt\n      tag_47\n      jumpi\n      tag_48\n      tag_49\n      jump\t// in\n    tag_48:\n    tag_47:\n      0x20\n      mul\n      0x20\n      add\n      add\n      mload\n        /* \"contracts/Voting.sol\":1137:1146  proposals */\n      0x04\n        /* \"contracts/Voting.sol\":1137:1165  proposals[_proposalsAddr[i]] */\n      0x00\n        /* \"contracts/Voting.sol\":1147:1161  _proposalsAddr */\n      dup6\n        /* \"contracts/Voting.sol\":1162:1163  i */\n      dup5\n        /* \"contracts/Voting.sol\":1147:1164  _proposalsAddr[i] */\n      dup2\n      mload\n      dup2\n      lt\n      tag_50\n      jumpi\n      tag_51\n      tag_49\n      jump\t// in\n    tag_51:\n    tag_50:\n      0x20\n      mul\n      0x20\n      add\n      add\n      mload\n        /* \"contracts/Voting.sol\":1137:1165  proposals[_proposalsAddr[i]] */\n      0xffffffffffffffffffffffffffffffffffffffff\n      and\n      0xffffffffffffffffffffffffffffffffffffffff\n      and\n      dup2\n      mstore\n      0x20\n      add\n      swap1\n      dup2\n      mstore\n      0x20\n      add\n      0x00\n      keccak256\n        /* \"contracts/Voting.sol\":1137:1186  proposals[_proposalsAddr[i]] = _proposalsNames[i] */\n      swap1\n      dup1\n      mload\n      swap1\n      0x20\n      add\n      swap1\n      tag_52\n      swap3\n      swap2\n      swap1\n      tag_53\n      jump\t// in\n    tag_52:\n      pop\n        /* \"contracts/Voting.sol\":1117:1120  i++ */\n      dup1\n      dup1\n      tag_54\n      swap1\n      tag_55\n      jump\t// in\n    tag_54:\n      swap2\n      pop\n      pop\n        /* \"contracts/Voting.sol\":1073:1198  for (uint i = 0; i < _proposalsAddr.length; i++) {\r... */\n      jump(tag_44)\n    tag_45:\n      pop\n        /* \"contracts/Voting.sol\":845:1205  function addProposals(address[] memory _proposalsAddr, \r... */\n      pop\n      pop\n      jump\t// out\n        /* \"contracts/Voting.sol\":1213:1292  function addVote(address voter) public {\r... */\n    tag_21:\n        /* \"contracts/Voting.sol\":1263:1268  token */\n      0x06\n      0x00\n      swap1\n      sload\n      swap1\n      0x0100\n      exp\n      swap1\n      div\n      0xffffffffffffffffffffffffffffffffffffffff\n      and\n        /* \"contracts/Voting.sol\":1263:1273  token.mint */\n      0xffffffffffffffffffffffffffffffffffffffff\n      and\n      0x40c10f19\n        /* \"contracts/Voting.sol\":1274:1279  voter */\n      dup3\n        /* \"contracts/Voting.sol\":1281:1282  1 */\n      0x01\n        /* \"contracts/Voting.sol\":1263:1283  token.mint(voter, 1) */\n      mload(0x40)\n      dup4\n      0xffffffff\n      and\n      0xe0\n      shl\n      dup2\n      mstore\n      0x04\n      add\n      tag_57\n      swap3\n      swap2\n      swap1\n      tag_58\n      jump\t// in\n    tag_57:\n      0x00\n      mload(0x40)\n      dup1\n      dup4\n      sub\n      dup2\n      0x00\n      dup8\n      dup1\n      extcodesize\n      iszero\n      dup1\n      iszero\n      tag_59\n      jumpi\n      0x00\n      dup1\n      revert\n    tag_59:\n      pop\n      gas\n      call\n      iszero\n      dup1\n      iszero\n      tag_61\n      jumpi\n      returndatasize\n      0x00\n      dup1\n      returndatacopy\n      revert(0x00, returndatasize)\n    tag_61:\n      pop\n      pop\n      pop\n      pop\n        /* \"contracts/Voting.sol\":1213:1292  function addVote(address voter) public {\r... */\n      pop\n      jump\t// out\n        /* \"contracts/Voting.sol\":1300:1725  function vote(address proposal) public {\r... */\n    tag_24:\n        /* \"contracts/Voting.sol\":1377:1384  endTime */\n      sload(0x01)\n        /* \"contracts/Voting.sol\":1358:1373  block.timestamp */\n      timestamp\n        /* \"contracts/Voting.sol\":1358:1384  block.timestamp <= endTime */\n      gt\n      iszero\n        /* \"contracts/Voting.sol\":1350:1401  require(block.timestamp <= endTime, \"Time is end.\") */\n      tag_63\n      jumpi\n      mload(0x40)\n      0x08c379a000000000000000000000000000000000000000000000000000000000\n      dup2\n      mstore\n      0x04\n      add\n      tag_64\n      swap1\n      tag_65\n      jump\t// in\n    tag_64:\n      mload(0x40)\n      dup1\n      swap2\n      sub\n      swap1\n      revert\n    tag_63:\n        /* \"contracts/Voting.sol\":1421:1427  voters */\n      0x02\n        /* \"contracts/Voting.sol\":1421:1439  voters[msg.sender] */\n      0x00\n        /* \"contracts/Voting.sol\":1428:1438  msg.sender */\n      caller\n        /* \"contracts/Voting.sol\":1421:1439  voters[msg.sender] */\n      0xffffffffffffffffffffffffffffffffffffffff\n      and\n      0xffffffffffffffffffffffffffffffffffffffff\n      and\n      dup2\n      mstore\n      0x20\n      add\n      swap1\n      dup2\n      mstore\n      0x20\n      add\n      0x00\n      keccak256\n      0x00\n      swap1\n      sload\n      swap1\n      0x0100\n      exp\n      swap1\n      div\n      0xff\n      and\n        /* \"contracts/Voting.sol\":1420:1439  !voters[msg.sender] */\n      iszero\n        /* \"contracts/Voting.sol\":1412:1464  require(!voters[msg.sender], \"Voter already voted.\") */\n      tag_66\n      jumpi\n      mload(0x40)\n      0x08c379a000000000000000000000000000000000000000000000000000000000\n      dup2\n      mstore\n      0x04\n      add\n      tag_67\n      swap1\n      tag_68\n      jump\t// in\n    tag_67:\n      mload(0x40)\n      dup1\n      swap2\n      sub\n      swap1\n      revert\n    tag_66:\n        /* \"contracts/Voting.sol\":1554:1566  uint balance */\n      0x00\n        /* \"contracts/Voting.sol\":1569:1574  token */\n      0x06\n      0x00\n      swap1\n      sload\n      swap1\n      0x0100\n      exp\n      swap1\n      div\n      0xffffffffffffffffffffffffffffffffffffffff\n      and\n        /* \"contracts/Voting.sol\":1569:1584  token.balanceOf */\n      0xffffffffffffffffffffffffffffffffffffffff\n      and\n      0x70a08231\n        /* \"contracts/Voting.sol\":1585:1595  msg.sender */\n      caller\n        /* \"contracts/Voting.sol\":1569:1596  token.balanceOf(msg.sender) */\n      mload(0x40)\n      dup3\n      0xffffffff\n      and\n      0xe0\n      shl\n      dup2\n      mstore\n      0x04\n      add\n      tag_69\n      swap2\n      swap1\n      tag_34\n      jump\t// in\n    tag_69:\n      0x20\n      mload(0x40)\n      dup1\n      dup4\n      sub\n      dup2\n      dup7\n      dup1\n      extcodesize\n      iszero\n      dup1\n      iszero\n      tag_70\n      jumpi\n      0x00\n      dup1\n      revert\n    tag_70:\n      pop\n      gas\n      staticcall\n      iszero\n      dup1\n      iszero\n      tag_72\n      jumpi\n      returndatasize\n      0x00\n      dup1\n      returndatacopy\n      revert(0x00, returndatasize)\n    tag_72:\n      pop\n      pop\n      pop\n      pop\n      mload(0x40)\n      returndatasize\n      not(0x1f)\n      0x1f\n      dup3\n      add\n      and\n      dup3\n      add\n      dup1\n      0x40\n      mstore\n      pop\n      dup2\n      add\n      swap1\n      tag_73\n      swap2\n      swap1\n      tag_39\n      jump\t// in\n    tag_73:\n        /* \"contracts/Voting.sol\":1554:1596  uint balance = token.balanceOf(msg.sender) */\n      swap1\n      pop\n        /* \"contracts/Voting.sol\":1625:1626  0 */\n      0x00\n        /* \"contracts/Voting.sol\":1615:1622  balance */\n      dup2\n        /* \"contracts/Voting.sol\":1615:1626  balance > 0 */\n      gt\n        /* \"contracts/Voting.sol\":1607:1643  require(balance > 0, \"balance <= 0\") */\n      tag_74\n      jumpi\n      mload(0x40)\n      0x08c379a000000000000000000000000000000000000000000000000000000000\n      dup2\n      mstore\n      0x04\n      add\n      tag_75\n      swap1\n      tag_76\n      jump\t// in\n    tag_75:\n      mload(0x40)\n      dup1\n      swap2\n      sub\n      swap1\n      revert\n    tag_74:\n        /* \"contracts/Voting.sol\":1654:1659  token */\n      0x06\n      0x00\n      swap1\n      sload\n      swap1\n      0x0100\n      exp\n      swap1\n      div\n      0xffffffffffffffffffffffffffffffffffffffff\n      and\n        /* \"contracts/Voting.sol\":1654:1668  token.transfer */\n      0xffffffffffffffffffffffffffffffffffffffff\n      and\n      0xa9059cbb\n        /* \"contracts/Voting.sol\":1669:1677  proposal */\n      dup4\n        /* \"contracts/Voting.sol\":1679:1680  1 */\n      0x01\n        /* \"contracts/Voting.sol\":1654:1681  token.transfer(proposal, 1) */\n      mload(0x40)\n      dup4\n      0xffffffff\n      and\n      0xe0\n      shl\n      dup2\n      mstore\n      0x04\n      add\n      tag_77\n      swap3\n      swap2\n      swap1\n      tag_58\n      jump\t// in\n    tag_77:\n      0x00\n      mload(0x40)\n      dup1\n      dup4\n      sub\n      dup2\n      0x00\n      dup8\n      dup1\n      extcodesize\n      iszero\n      dup1\n      iszero\n      tag_78\n      jumpi\n      0x00\n      dup1\n      revert\n    tag_78:\n      pop\n      gas\n      call\n      iszero\n      dup1\n      iszero\n      tag_80\n      jumpi\n      returndatasize\n      0x00\n      dup1\n      returndatacopy\n      revert(0x00, returndatasize)\n    tag_80:\n      pop\n      pop\n      pop\n      pop\n        /* \"contracts/Voting.sol\":1713:1717  true */\n      0x01\n        /* \"contracts/Voting.sol\":1692:1698  voters */\n      0x02\n        /* \"contracts/Voting.sol\":1692:1710  voters[msg.sender] */\n      0x00\n        /* \"contracts/Voting.sol\":1699:1709  msg.sender */\n      caller\n        /* \"contracts/Voting.sol\":1692:1710  voters[msg.sender] */\n      0xffffffffffffffffffffffffffffffffffffffff\n      and\n      0xffffffffffffffffffffffffffffffffffffffff\n      and\n      dup2\n      mstore\n      0x20\n      add\n      swap1\n      dup2\n      mstore\n      0x20\n      add\n      0x00\n      keccak256\n      0x00\n        /* \"contracts/Voting.sol\":1692:1717  voters[msg.sender] = true */\n      0x0100\n      exp\n      dup2\n      sload\n      dup2\n      0xff\n      mul\n      not\n      and\n      swap1\n      dup4\n      iszero\n      iszero\n      mul\n      or\n      swap1\n      sstore\n      pop\n        /* \"contracts/Voting.sol\":1339:1725  {\r... */\n      pop\n        /* \"contracts/Voting.sol\":1300:1725  function vote(address proposal) public {\r... */\n      pop\n      jump\t// out\n        /* \"contracts/Voting.sol\":539:837  function addVoters(address[] memory _voters) public {\r... */\n    tag_28:\n        /* \"contracts/Voting.sol\":624:635  chairperson */\n      0x05\n      0x00\n      swap1\n      sload\n      swap1\n      0x0100\n      exp\n      swap1\n      div\n      0xffffffffffffffffffffffffffffffffffffffff\n      and\n        /* \"contracts/Voting.sol\":610:635  msg.sender == chairperson */\n      0xffffffffffffffffffffffffffffffffffffffff\n      and\n        /* \"contracts/Voting.sol\":610:620  msg.sender */\n      caller\n        /* \"contracts/Voting.sol\":610:635  msg.sender == chairperson */\n      0xffffffffffffffffffffffffffffffffffffffff\n      and\n      eq\n        /* \"contracts/Voting.sol\":602:667  require(msg.sender == chairperson, \"It is not from chairperson.\") */\n      tag_82\n      jumpi\n      mload(0x40)\n      0x08c379a000000000000000000000000000000000000000000000000000000000\n      dup2\n      mstore\n      0x04\n      add\n      tag_83\n      swap1\n      tag_84\n      jump\t// in\n    tag_83:\n      mload(0x40)\n      dup1\n      swap2\n      sub\n      swap1\n      revert\n    tag_82:\n        /* \"contracts/Voting.sol\":685:691  uint i */\n      0x00\n        /* \"contracts/Voting.sol\":680:830  for (uint i = 0; i < _voters.length; i++) {\r... */\n    tag_85:\n        /* \"contracts/Voting.sol\":701:708  _voters */\n      dup2\n        /* \"contracts/Voting.sol\":701:715  _voters.length */\n      mload\n        /* \"contracts/Voting.sol\":697:698  i */\n      dup2\n        /* \"contracts/Voting.sol\":697:715  i < _voters.length */\n      lt\n        /* \"contracts/Voting.sol\":680:830  for (uint i = 0; i < _voters.length; i++) {\r... */\n      iszero\n      tag_86\n      jumpi\n        /* \"contracts/Voting.sol\":758:763  false */\n      0x00\n        /* \"contracts/Voting.sol\":737:743  voters */\n      0x02\n        /* \"contracts/Voting.sol\":737:755  voters[_voters[i]] */\n      0x00\n        /* \"contracts/Voting.sol\":744:751  _voters */\n      dup5\n        /* \"contracts/Voting.sol\":752:753  i */\n      dup5\n        /* \"contracts/Voting.sol\":744:754  _voters[i] */\n      dup2\n      mload\n      dup2\n      lt\n      tag_88\n      jumpi\n      tag_89\n      tag_49\n      jump\t// in\n    tag_89:\n    tag_88:\n      0x20\n      mul\n      0x20\n      add\n      add\n      mload\n        /* \"contracts/Voting.sol\":737:755  voters[_voters[i]] */\n      0xffffffffffffffffffffffffffffffffffffffff\n      and\n      0xffffffffffffffffffffffffffffffffffffffff\n      and\n      dup2\n      mstore\n      0x20\n      add\n      swap1\n      dup2\n      mstore\n      0x20\n      add\n      0x00\n      keccak256\n      0x00\n        /* \"contracts/Voting.sol\":737:763  voters[_voters[i]] = false */\n      0x0100\n      exp\n      dup2\n      sload\n      dup2\n      0xff\n      mul\n      not\n      and\n      swap1\n      dup4\n      iszero\n      iszero\n      mul\n      or\n      swap1\n      sstore\n      pop\n        /* \"contracts/Voting.sol\":792:797  token */\n      0x06\n      0x00\n      swap1\n      sload\n      swap1\n      0x0100\n      exp\n      swap1\n      div\n      0xffffffffffffffffffffffffffffffffffffffff\n      and\n        /* \"contracts/Voting.sol\":792:802  token.mint */\n      0xffffffffffffffffffffffffffffffffffffffff\n      and\n      0x40c10f19\n        /* \"contracts/Voting.sol\":803:810  _voters */\n      dup4\n        /* \"contracts/Voting.sol\":811:812  i */\n      dup4\n        /* \"contracts/Voting.sol\":803:813  _voters[i] */\n      dup2\n      mload\n      dup2\n      lt\n      tag_90\n      jumpi\n      tag_91\n      tag_49\n      jump\t// in\n    tag_91:\n    tag_90:\n      0x20\n      mul\n      0x20\n      add\n      add\n      mload\n        /* \"contracts/Voting.sol\":815:816  1 */\n      0x01\n        /* \"contracts/Voting.sol\":792:817  token.mint(_voters[i], 1) */\n      mload(0x40)\n      dup4\n      0xffffffff\n      and\n      0xe0\n      shl\n      dup2\n      mstore\n      0x04\n      add\n      tag_92\n      swap3\n      swap2\n      swap1\n      tag_58\n      jump\t// in\n    tag_92:\n      0x00\n      mload(0x40)\n      dup1\n      dup4\n      sub\n      dup2\n      0x00\n      dup8\n      dup1\n      extcodesize\n      iszero\n      dup1\n      iszero\n      tag_93\n      jumpi\n      0x00\n      dup1\n      revert\n    tag_93:\n      pop\n      gas\n      call\n      iszero\n      dup1\n      iszero\n      tag_95\n      jumpi\n      returndatasize\n      0x00\n      dup1\n      returndatacopy\n      revert(0x00, returndatasize)\n    tag_95:\n      pop\n      pop\n      pop\n      pop\n        /* \"contracts/Voting.sol\":717:720  i++ */\n      dup1\n      dup1\n      tag_96\n      swap1\n      tag_55\n      jump\t// in\n    tag_96:\n      swap2\n      pop\n      pop\n        /* \"contracts/Voting.sol\":680:830  for (uint i = 0; i < _voters.length; i++) {\r... */\n      jump(tag_85)\n    tag_86:\n      pop\n        /* \"contracts/Voting.sol\":539:837  function addVoters(address[] memory _voters) public {\r... */\n      pop\n      jump\t// out\n        /* \"contracts/Voting.sol\":1733:1876  function giveRightToVote(address voter) public {\r... */\n    tag_31:\n        /* \"contracts/Voting.sol\":1818:1823  token */\n      0x06\n      0x00\n      swap1\n      sload\n      swap1\n      0x0100\n      exp\n      swap1\n      div\n      0xffffffffffffffffffffffffffffffffffffffff\n      and\n        /* \"contracts/Voting.sol\":1818:1836  token.transferFrom */\n      0xffffffffffffffffffffffffffffffffffffffff\n      and\n      0x23b872dd\n        /* \"contracts/Voting.sol\":1837:1847  msg.sender */\n      caller\n        /* \"contracts/Voting.sol\":1849:1854  voter */\n      dup4\n        /* \"contracts/Voting.sol\":1856:1857  1 */\n      0x01\n        /* \"contracts/Voting.sol\":1818:1858  token.transferFrom(msg.sender, voter, 1) */\n      mload(0x40)\n      dup5\n      0xffffffff\n      and\n      0xe0\n      shl\n      dup2\n      mstore\n      0x04\n      add\n      tag_98\n      swap4\n      swap3\n      swap2\n      swap1\n      tag_99\n      jump\t// in\n    tag_98:\n      0x00\n      mload(0x40)\n      dup1\n      dup4\n      sub\n      dup2\n      0x00\n      dup8\n      dup1\n      extcodesize\n      iszero\n      dup1\n      iszero\n      tag_100\n      jumpi\n      0x00\n      dup1\n      revert\n    tag_100:\n      pop\n      gas\n      call\n      iszero\n      dup1\n      iszero\n      tag_102\n      jumpi\n      returndatasize\n      0x00\n      dup1\n      returndatacopy\n      revert(0x00, returndatasize)\n    tag_102:\n      pop\n      pop\n      pop\n      pop\n        /* \"contracts/Voting.sol\":1733:1876  function giveRightToVote(address voter) public {\r... */\n      pop\n      jump\t// out\n    tag_53:\n      dup3\n      dup1\n      sload\n      tag_103\n      swap1\n      tag_104\n      jump\t// in\n    tag_103:\n      swap1\n      0x00\n      mstore\n      keccak256(0x00, 0x20)\n      swap1\n      0x1f\n      add\n      0x20\n      swap1\n      div\n      dup2\n      add\n      swap3\n      dup3\n      tag_106\n      jumpi\n      0x00\n      dup6\n      sstore\n      jump(tag_105)\n    tag_106:\n      dup3\n      0x1f\n      lt\n      tag_107\n      jumpi\n      dup1\n      mload\n      not(0xff)\n      and\n      dup4\n      dup1\n      add\n      or\n      dup6\n      sstore\n      jump(tag_105)\n    tag_107:\n      dup3\n      dup1\n      add\n      0x01\n      add\n      dup6\n      sstore\n      dup3\n      iszero\n      tag_105\n      jumpi\n      swap2\n      dup3\n      add\n    tag_108:\n      dup3\n      dup2\n      gt\n      iszero\n      tag_109\n      jumpi\n      dup3\n      mload\n      dup3\n      sstore\n      swap2\n      0x20\n      add\n      swap2\n      swap1\n      0x01\n      add\n      swap1\n      jump(tag_108)\n    tag_109:\n    tag_105:\n      pop\n      swap1\n      pop\n      tag_110\n      swap2\n      swap1\n      tag_111\n      jump\t// in\n    tag_110:\n      pop\n      swap1\n      jump\t// out\n    tag_111:\n    tag_112:\n      dup1\n      dup3\n      gt\n      iszero\n      tag_113\n      jumpi\n      0x00\n      dup2\n      0x00\n      swap1\n      sstore\n      pop\n      0x01\n      add\n      jump(tag_112)\n    tag_113:\n      pop\n      swap1\n      jump\t// out\n        /* \"#utility.yul\":24:746   */\n    tag_115:\n        /* \"#utility.yul\":120:125   */\n      0x00\n        /* \"#utility.yul\":145:226   */\n      tag_117\n        /* \"#utility.yul\":161:225   */\n      tag_118\n        /* \"#utility.yul\":218:224   */\n      dup5\n        /* \"#utility.yul\":161:225   */\n      tag_119\n      jump\t// in\n    tag_118:\n        /* \"#utility.yul\":145:226   */\n      tag_120\n      jump\t// in\n    tag_117:\n        /* \"#utility.yul\":136:226   */\n      swap1\n      pop\n        /* \"#utility.yul\":246:251   */\n      dup1\n        /* \"#utility.yul\":275:281   */\n      dup4\n        /* \"#utility.yul\":268:273   */\n      dup3\n        /* \"#utility.yul\":261:282   */\n      mstore\n        /* \"#utility.yul\":309:313   */\n      0x20\n        /* \"#utility.yul\":302:307   */\n      dup3\n        /* \"#utility.yul\":298:314   */\n      add\n        /* \"#utility.yul\":291:314   */\n      swap1\n      pop\n        /* \"#utility.yul\":335:341   */\n      dup3\n        /* \"#utility.yul\":385:388   */\n      dup6\n        /* \"#utility.yul\":377:381   */\n      0x20\n        /* \"#utility.yul\":369:375   */\n      dup7\n        /* \"#utility.yul\":365:382   */\n      mul\n        /* \"#utility.yul\":360:363   */\n      dup3\n        /* \"#utility.yul\":356:383   */\n      add\n        /* \"#utility.yul\":353:389   */\n      gt\n        /* \"#utility.yul\":350:493   */\n      iszero\n      tag_121\n      jumpi\n        /* \"#utility.yul\":404:483   */\n      tag_122\n      tag_123\n      jump\t// in\n    tag_122:\n        /* \"#utility.yul\":350:493   */\n    tag_121:\n        /* \"#utility.yul\":517:518   */\n      0x00\n        /* \"#utility.yul\":502:740   */\n    tag_124:\n        /* \"#utility.yul\":527:533   */\n      dup6\n        /* \"#utility.yul\":524:525   */\n      dup2\n        /* \"#utility.yul\":521:534   */\n      lt\n        /* \"#utility.yul\":502:740   */\n      iszero\n      tag_126\n      jumpi\n        /* \"#utility.yul\":595:598   */\n      dup2\n        /* \"#utility.yul\":624:661   */\n      tag_127\n        /* \"#utility.yul\":657:660   */\n      dup9\n        /* \"#utility.yul\":645:655   */\n      dup3\n        /* \"#utility.yul\":624:661   */\n      tag_128\n      jump\t// in\n    tag_127:\n        /* \"#utility.yul\":619:622   */\n      dup5\n        /* \"#utility.yul\":612:662   */\n      mstore\n        /* \"#utility.yul\":691:695   */\n      0x20\n        /* \"#utility.yul\":686:689   */\n      dup5\n        /* \"#utility.yul\":682:696   */\n      add\n        /* \"#utility.yul\":675:696   */\n      swap4\n      pop\n        /* \"#utility.yul\":725:729   */\n      0x20\n        /* \"#utility.yul\":720:723   */\n      dup4\n        /* \"#utility.yul\":716:730   */\n      add\n        /* \"#utility.yul\":709:730   */\n      swap3\n      pop\n        /* \"#utility.yul\":562:740   */\n      pop\n        /* \"#utility.yul\":549:550   */\n      0x01\n        /* \"#utility.yul\":546:547   */\n      dup2\n        /* \"#utility.yul\":542:551   */\n      add\n        /* \"#utility.yul\":537:551   */\n      swap1\n      pop\n        /* \"#utility.yul\":502:740   */\n      jump(tag_124)\n    tag_126:\n        /* \"#utility.yul\":506:520   */\n      pop\n        /* \"#utility.yul\":126:746   */\n      pop\n      pop\n        /* \"#utility.yul\":24:746   */\n      swap4\n      swap3\n      pop\n      pop\n      pop\n      jump\t// out\n        /* \"#utility.yul\":768:1725   */\n    tag_129:\n        /* \"#utility.yul\":874:879   */\n      0x00\n        /* \"#utility.yul\":899:990   */\n      tag_131\n        /* \"#utility.yul\":915:989   */\n      tag_132\n        /* \"#utility.yul\":982:988   */\n      dup5\n        /* \"#utility.yul\":915:989   */\n      tag_133\n      jump\t// in\n    tag_132:\n        /* \"#utility.yul\":899:990   */\n      tag_120\n      jump\t// in\n    tag_131:\n        /* \"#utility.yul\":890:990   */\n      swap1\n      pop\n        /* \"#utility.yul\":1010:1015   */\n      dup1\n        /* \"#utility.yul\":1039:1045   */\n      dup4\n        /* \"#utility.yul\":1032:1037   */\n      dup3\n        /* \"#utility.yul\":1025:1046   */\n      mstore\n        /* \"#utility.yul\":1073:1077   */\n      0x20\n        /* \"#utility.yul\":1066:1071   */\n      dup3\n        /* \"#utility.yul\":1062:1078   */\n      add\n        /* \"#utility.yul\":1055:1078   */\n      swap1\n      pop\n        /* \"#utility.yul\":1099:1105   */\n      dup3\n        /* \"#utility.yul\":1149:1152   */\n      dup6\n        /* \"#utility.yul\":1141:1145   */\n      0x20\n        /* \"#utility.yul\":1133:1139   */\n      dup7\n        /* \"#utility.yul\":1129:1146   */\n      mul\n        /* \"#utility.yul\":1124:1127   */\n      dup3\n        /* \"#utility.yul\":1120:1147   */\n      add\n        /* \"#utility.yul\":1117:1153   */\n      gt\n        /* \"#utility.yul\":1114:1257   */\n      iszero\n      tag_134\n      jumpi\n        /* \"#utility.yul\":1168:1247   */\n      tag_135\n      tag_123\n      jump\t// in\n    tag_135:\n        /* \"#utility.yul\":1114:1257   */\n    tag_134:\n        /* \"#utility.yul\":1281:1282   */\n      0x00\n        /* \"#utility.yul\":1266:1719   */\n    tag_136:\n        /* \"#utility.yul\":1291:1297   */\n      dup6\n        /* \"#utility.yul\":1288:1289   */\n      dup2\n        /* \"#utility.yul\":1285:1298   */\n      lt\n        /* \"#utility.yul\":1266:1719   */\n      iszero\n      tag_138\n      jumpi\n        /* \"#utility.yul\":1373:1376   */\n      dup2\n        /* \"#utility.yul\":1360:1377   */\n      calldataload\n        /* \"#utility.yul\":1409:1427   */\n      0xffffffffffffffff\n        /* \"#utility.yul\":1396:1407   */\n      dup2\n        /* \"#utility.yul\":1393:1428   */\n      gt\n        /* \"#utility.yul\":1390:1512   */\n      iszero\n      tag_139\n      jumpi\n        /* \"#utility.yul\":1431:1510   */\n      tag_140\n      tag_141\n      jump\t// in\n    tag_140:\n        /* \"#utility.yul\":1390:1512   */\n    tag_139:\n        /* \"#utility.yul\":1555:1566   */\n      dup1\n        /* \"#utility.yul\":1547:1553   */\n      dup7\n        /* \"#utility.yul\":1543:1567   */\n      add\n        /* \"#utility.yul\":1593:1640   */\n      tag_142\n        /* \"#utility.yul\":1636:1639   */\n      dup10\n        /* \"#utility.yul\":1624:1634   */\n      dup3\n        /* \"#utility.yul\":1593:1640   */\n      tag_143\n      jump\t// in\n    tag_142:\n        /* \"#utility.yul\":1588:1591   */\n      dup6\n        /* \"#utility.yul\":1581:1641   */\n      mstore\n        /* \"#utility.yul\":1670:1674   */\n      0x20\n        /* \"#utility.yul\":1665:1668   */\n      dup6\n        /* \"#utility.yul\":1661:1675   */\n      add\n        /* \"#utility.yul\":1654:1675   */\n      swap5\n      pop\n        /* \"#utility.yul\":1704:1708   */\n      0x20\n        /* \"#utility.yul\":1699:1702   */\n      dup5\n        /* \"#utility.yul\":1695:1709   */\n      add\n        /* \"#utility.yul\":1688:1709   */\n      swap4\n      pop\n        /* \"#utility.yul\":1326:1719   */\n      pop\n      pop\n        /* \"#utility.yul\":1313:1314   */\n      0x01\n        /* \"#utility.yul\":1310:1311   */\n      dup2\n        /* \"#utility.yul\":1306:1315   */\n      add\n        /* \"#utility.yul\":1301:1315   */\n      swap1\n      pop\n        /* \"#utility.yul\":1266:1719   */\n      jump(tag_136)\n    tag_138:\n        /* \"#utility.yul\":1270:1284   */\n      pop\n        /* \"#utility.yul\":880:1725   */\n      pop\n      pop\n        /* \"#utility.yul\":768:1725   */\n      swap4\n      swap3\n      pop\n      pop\n      pop\n      jump\t// out\n        /* \"#utility.yul\":1731:2143   */\n    tag_144:\n        /* \"#utility.yul\":1809:1814   */\n      0x00\n        /* \"#utility.yul\":1834:1900   */\n      tag_146\n        /* \"#utility.yul\":1850:1899   */\n      tag_147\n        /* \"#utility.yul\":1892:1898   */\n      dup5\n        /* \"#utility.yul\":1850:1899   */\n      tag_148\n      jump\t// in\n    tag_147:\n        /* \"#utility.yul\":1834:1900   */\n      tag_120\n      jump\t// in\n    tag_146:\n        /* \"#utility.yul\":1825:1900   */\n      swap1\n      pop\n        /* \"#utility.yul\":1923:1929   */\n      dup3\n        /* \"#utility.yul\":1916:1921   */\n      dup2\n        /* \"#utility.yul\":1909:1930   */\n      mstore\n        /* \"#utility.yul\":1961:1965   */\n      0x20\n        /* \"#utility.yul\":1954:1959   */\n      dup2\n        /* \"#utility.yul\":1950:1966   */\n      add\n        /* \"#utility.yul\":1999:2002   */\n      dup5\n        /* \"#utility.yul\":1990:1996   */\n      dup5\n        /* \"#utility.yul\":1985:1988   */\n      dup5\n        /* \"#utility.yul\":1981:1997   */\n      add\n        /* \"#utility.yul\":1978:2003   */\n      gt\n        /* \"#utility.yul\":1975:2087   */\n      iszero\n      tag_149\n      jumpi\n        /* \"#utility.yul\":2006:2085   */\n      tag_150\n      tag_151\n      jump\t// in\n    tag_150:\n        /* \"#utility.yul\":1975:2087   */\n    tag_149:\n        /* \"#utility.yul\":2096:2137   */\n      tag_152\n        /* \"#utility.yul\":2130:2136   */\n      dup5\n        /* \"#utility.yul\":2125:2128   */\n      dup3\n        /* \"#utility.yul\":2120:2123   */\n      dup6\n        /* \"#utility.yul\":2096:2137   */\n      tag_153\n      jump\t// in\n    tag_152:\n        /* \"#utility.yul\":1815:2143   */\n      pop\n        /* \"#utility.yul\":1731:2143   */\n      swap4\n      swap3\n      pop\n      pop\n      pop\n      jump\t// out\n        /* \"#utility.yul\":2149:2288   */\n    tag_128:\n        /* \"#utility.yul\":2195:2200   */\n      0x00\n        /* \"#utility.yul\":2233:2239   */\n      dup2\n        /* \"#utility.yul\":2220:2240   */\n      calldataload\n        /* \"#utility.yul\":2211:2240   */\n      swap1\n      pop\n        /* \"#utility.yul\":2249:2282   */\n      tag_155\n        /* \"#utility.yul\":2276:2281   */\n      dup2\n        /* \"#utility.yul\":2249:2282   */\n      tag_156\n      jump\t// in\n    tag_155:\n        /* \"#utility.yul\":2149:2288   */\n      swap3\n      swap2\n      pop\n      pop\n      jump\t// out\n        /* \"#utility.yul\":2311:2681   */\n    tag_157:\n        /* \"#utility.yul\":2382:2387   */\n      0x00\n        /* \"#utility.yul\":2431:2434   */\n      dup3\n        /* \"#utility.yul\":2424:2428   */\n      0x1f\n        /* \"#utility.yul\":2416:2422   */\n      dup4\n        /* \"#utility.yul\":2412:2429   */\n      add\n        /* \"#utility.yul\":2408:2435   */\n      slt\n        /* \"#utility.yul\":2398:2520   */\n      tag_159\n      jumpi\n        /* \"#utility.yul\":2439:2518   */\n      tag_160\n      tag_141\n      jump\t// in\n    tag_160:\n        /* \"#utility.yul\":2398:2520   */\n    tag_159:\n        /* \"#utility.yul\":2556:2562   */\n      dup2\n        /* \"#utility.yul\":2543:2563   */\n      calldataload\n        /* \"#utility.yul\":2581:2675   */\n      tag_161\n        /* \"#utility.yul\":2671:2674   */\n      dup5\n        /* \"#utility.yul\":2663:2669   */\n      dup3\n        /* \"#utility.yul\":2656:2660   */\n      0x20\n        /* \"#utility.yul\":2648:2654   */\n      dup7\n        /* \"#utility.yul\":2644:2661   */\n      add\n        /* \"#utility.yul\":2581:2675   */\n      tag_115\n      jump\t// in\n    tag_161:\n        /* \"#utility.yul\":2572:2675   */\n      swap2\n      pop\n        /* \"#utility.yul\":2388:2681   */\n      pop\n        /* \"#utility.yul\":2311:2681   */\n      swap3\n      swap2\n      pop\n      pop\n      jump\t// out\n        /* \"#utility.yul\":2703:3093   */\n    tag_162:\n        /* \"#utility.yul\":2784:2789   */\n      0x00\n        /* \"#utility.yul\":2833:2836   */\n      dup3\n        /* \"#utility.yul\":2826:2830   */\n      0x1f\n        /* \"#utility.yul\":2818:2824   */\n      dup4\n        /* \"#utility.yul\":2814:2831   */\n      add\n        /* \"#utility.yul\":2810:2837   */\n      slt\n        /* \"#utility.yul\":2800:2922   */\n      tag_164\n      jumpi\n        /* \"#utility.yul\":2841:2920   */\n      tag_165\n      tag_141\n      jump\t// in\n    tag_165:\n        /* \"#utility.yul\":2800:2922   */\n    tag_164:\n        /* \"#utility.yul\":2958:2964   */\n      dup2\n        /* \"#utility.yul\":2945:2965   */\n      calldataload\n        /* \"#utility.yul\":2983:3087   */\n      tag_166\n        /* \"#utility.yul\":3083:3086   */\n      dup5\n        /* \"#utility.yul\":3075:3081   */\n      dup3\n        /* \"#utility.yul\":3068:3072   */\n      0x20\n        /* \"#utility.yul\":3060:3066   */\n      dup7\n        /* \"#utility.yul\":3056:3073   */\n      add\n        /* \"#utility.yul\":2983:3087   */\n      tag_129\n      jump\t// in\n    tag_166:\n        /* \"#utility.yul\":2974:3087   */\n      swap2\n      pop\n        /* \"#utility.yul\":2790:3093   */\n      pop\n        /* \"#utility.yul\":2703:3093   */\n      swap3\n      swap2\n      pop\n      pop\n      jump\t// out\n        /* \"#utility.yul\":3113:3453   */\n    tag_143:\n        /* \"#utility.yul\":3169:3174   */\n      0x00\n        /* \"#utility.yul\":3218:3221   */\n      dup3\n        /* \"#utility.yul\":3211:3215   */\n      0x1f\n        /* \"#utility.yul\":3203:3209   */\n      dup4\n        /* \"#utility.yul\":3199:3216   */\n      add\n        /* \"#utility.yul\":3195:3222   */\n      slt\n        /* \"#utility.yul\":3185:3307   */\n      tag_168\n      jumpi\n        /* \"#utility.yul\":3226:3305   */\n      tag_169\n      tag_141\n      jump\t// in\n    tag_169:\n        /* \"#utility.yul\":3185:3307   */\n    tag_168:\n        /* \"#utility.yul\":3343:3349   */\n      dup2\n        /* \"#utility.yul\":3330:3350   */\n      calldataload\n        /* \"#utility.yul\":3368:3447   */\n      tag_170\n        /* \"#utility.yul\":3443:3446   */\n      dup5\n        /* \"#utility.yul\":3435:3441   */\n      dup3\n        /* \"#utility.yul\":3428:3432   */\n      0x20\n        /* \"#utility.yul\":3420:3426   */\n      dup7\n        /* \"#utility.yul\":3416:3433   */\n      add\n        /* \"#utility.yul\":3368:3447   */\n      tag_144\n      jump\t// in\n    tag_170:\n        /* \"#utility.yul\":3359:3447   */\n      swap2\n      pop\n        /* \"#utility.yul\":3175:3453   */\n      pop\n        /* \"#utility.yul\":3113:3453   */\n      swap3\n      swap2\n      pop\n      pop\n      jump\t// out\n        /* \"#utility.yul\":3459:3602   */\n    tag_171:\n        /* \"#utility.yul\":3516:3521   */\n      0x00\n        /* \"#utility.yul\":3547:3553   */\n      dup2\n        /* \"#utility.yul\":3541:3554   */\n      mload\n        /* \"#utility.yul\":3532:3554   */\n      swap1\n      pop\n        /* \"#utility.yul\":3563:3596   */\n      tag_173\n        /* \"#utility.yul\":3590:3595   */\n      dup2\n        /* \"#utility.yul\":3563:3596   */\n      tag_174\n      jump\t// in\n    tag_173:\n        /* \"#utility.yul\":3459:3602   */\n      swap3\n      swap2\n      pop\n      pop\n      jump\t// out\n        /* \"#utility.yul\":3608:3937   */\n    tag_11:\n        /* \"#utility.yul\":3667:3673   */\n      0x00\n        /* \"#utility.yul\":3716:3718   */\n      0x20\n        /* \"#utility.yul\":3704:3713   */\n      dup3\n        /* \"#utility.yul\":3695:3702   */\n      dup5\n        /* \"#utility.yul\":3691:3714   */\n      sub\n        /* \"#utility.yul\":3687:3719   */\n      slt\n        /* \"#utility.yul\":3684:3803   */\n      iszero\n      tag_176\n      jumpi\n        /* \"#utility.yul\":3722:3801   */\n      tag_177\n      tag_178\n      jump\t// in\n    tag_177:\n        /* \"#utility.yul\":3684:3803   */\n    tag_176:\n        /* \"#utility.yul\":3842:3843   */\n      0x00\n        /* \"#utility.yul\":3867:3920   */\n      tag_179\n        /* \"#utility.yul\":3912:3919   */\n      dup5\n        /* \"#utility.yul\":3903:3909   */\n      dup3\n        /* \"#utility.yul\":3892:3901   */\n      dup6\n        /* \"#utility.yul\":3888:3910   */\n      add\n        /* \"#utility.yul\":3867:3920   */\n      tag_128\n      jump\t// in\n    tag_179:\n        /* \"#utility.yul\":3857:3920   */\n      swap2\n      pop\n        /* \"#utility.yul\":3813:3930   */\n      pop\n        /* \"#utility.yul\":3608:3937   */\n      swap3\n      swap2\n      pop\n      pop\n      jump\t// out\n        /* \"#utility.yul\":3943:4482   */\n    tag_27:\n        /* \"#utility.yul\":4027:4033   */\n      0x00\n        /* \"#utility.yul\":4076:4078   */\n      0x20\n        /* \"#utility.yul\":4064:4073   */\n      dup3\n        /* \"#utility.yul\":4055:4062   */\n      dup5\n        /* \"#utility.yul\":4051:4074   */\n      sub\n        /* \"#utility.yul\":4047:4079   */\n      slt\n        /* \"#utility.yul\":4044:4163   */\n      iszero\n      tag_181\n      jumpi\n        /* \"#utility.yul\":4082:4161   */\n      tag_182\n      tag_178\n      jump\t// in\n    tag_182:\n        /* \"#utility.yul\":4044:4163   */\n    tag_181:\n        /* \"#utility.yul\":4230:4231   */\n      0x00\n        /* \"#utility.yul\":4219:4228   */\n      dup3\n        /* \"#utility.yul\":4215:4232   */\n      add\n        /* \"#utility.yul\":4202:4233   */\n      calldataload\n        /* \"#utility.yul\":4260:4278   */\n      0xffffffffffffffff\n        /* \"#utility.yul\":4252:4258   */\n      dup2\n        /* \"#utility.yul\":4249:4279   */\n      gt\n        /* \"#utility.yul\":4246:4363   */\n      iszero\n      tag_183\n      jumpi\n        /* \"#utility.yul\":4282:4361   */\n      tag_184\n      tag_185\n      jump\t// in\n    tag_184:\n        /* \"#utility.yul\":4246:4363   */\n    tag_183:\n        /* \"#utility.yul\":4387:4465   */\n      tag_186\n        /* \"#utility.yul\":4457:4464   */\n      dup5\n        /* \"#utility.yul\":4448:4454   */\n      dup3\n        /* \"#utility.yul\":4437:4446   */\n      dup6\n        /* \"#utility.yul\":4433:4455   */\n      add\n        /* \"#utility.yul\":4387:4465   */\n      tag_157\n      jump\t// in\n    tag_186:\n        /* \"#utility.yul\":4377:4465   */\n      swap2\n      pop\n        /* \"#utility.yul\":4173:4475   */\n      pop\n        /* \"#utility.yul\":3943:4482   */\n      swap3\n      swap2\n      pop\n      pop\n      jump\t// out\n        /* \"#utility.yul\":4488:5402   */\n    tag_17:\n        /* \"#utility.yul\":4616:4622   */\n      0x00\n        /* \"#utility.yul\":4624:4630   */\n      dup1\n        /* \"#utility.yul\":4673:4675   */\n      0x40\n        /* \"#utility.yul\":4661:4670   */\n      dup4\n        /* \"#utility.yul\":4652:4659   */\n      dup6\n        /* \"#utility.yul\":4648:4671   */\n      sub\n        /* \"#utility.yul\":4644:4676   */\n      slt\n        /* \"#utility.yul\":4641:4760   */\n      iszero\n      tag_188\n      jumpi\n        /* \"#utility.yul\":4679:4758   */\n      tag_189\n      tag_178\n      jump\t// in\n    tag_189:\n        /* \"#utility.yul\":4641:4760   */\n    tag_188:\n        /* \"#utility.yul\":4827:4828   */\n      0x00\n        /* \"#utility.yul\":4816:4825   */\n      dup4\n        /* \"#utility.yul\":4812:4829   */\n      add\n        /* \"#utility.yul\":4799:4830   */\n      calldataload\n        /* \"#utility.yul\":4857:4875   */\n      0xffffffffffffffff\n        /* \"#utility.yul\":4849:4855   */\n      dup2\n        /* \"#utility.yul\":4846:4876   */\n      gt\n        /* \"#utility.yul\":4843:4960   */\n      iszero\n      tag_190\n      jumpi\n        /* \"#utility.yul\":4879:4958   */\n      tag_191\n      tag_185\n      jump\t// in\n    tag_191:\n        /* \"#utility.yul\":4843:4960   */\n    tag_190:\n        /* \"#utility.yul\":4984:5062   */\n      tag_192\n        /* \"#utility.yul\":5054:5061   */\n      dup6\n        /* \"#utility.yul\":5045:5051   */\n      dup3\n        /* \"#utility.yul\":5034:5043   */\n      dup7\n        /* \"#utility.yul\":5030:5052   */\n      add\n        /* \"#utility.yul\":4984:5062   */\n      tag_157\n      jump\t// in\n    tag_192:\n        /* \"#utility.yul\":4974:5062   */\n      swap3\n      pop\n        /* \"#utility.yul\":4770:5072   */\n      pop\n        /* \"#utility.yul\":5139:5141   */\n      0x20\n        /* \"#utility.yul\":5128:5137   */\n      dup4\n        /* \"#utility.yul\":5124:5142   */\n      add\n        /* \"#utility.yul\":5111:5143   */\n      calldataload\n        /* \"#utility.yul\":5170:5188   */\n      0xffffffffffffffff\n        /* \"#utility.yul\":5162:5168   */\n      dup2\n        /* \"#utility.yul\":5159:5189   */\n      gt\n        /* \"#utility.yul\":5156:5273   */\n      iszero\n      tag_193\n      jumpi\n        /* \"#utility.yul\":5192:5271   */\n      tag_194\n      tag_185\n      jump\t// in\n    tag_194:\n        /* \"#utility.yul\":5156:5273   */\n    tag_193:\n        /* \"#utility.yul\":5297:5385   */\n      tag_195\n        /* \"#utility.yul\":5377:5384   */\n      dup6\n        /* \"#utility.yul\":5368:5374   */\n      dup3\n        /* \"#utility.yul\":5357:5366   */\n      dup7\n        /* \"#utility.yul\":5353:5375   */\n      add\n        /* \"#utility.yul\":5297:5385   */\n      tag_162\n      jump\t// in\n    tag_195:\n        /* \"#utility.yul\":5287:5385   */\n      swap2\n      pop\n        /* \"#utility.yul\":5082:5395   */\n      pop\n        /* \"#utility.yul\":4488:5402   */\n      swap3\n      pop\n      swap3\n      swap1\n      pop\n      jump\t// out\n        /* \"#utility.yul\":5408:5759   */\n    tag_39:\n        /* \"#utility.yul\":5478:5484   */\n      0x00\n        /* \"#utility.yul\":5527:5529   */\n      0x20\n        /* \"#utility.yul\":5515:5524   */\n      dup3\n        /* \"#utility.yul\":5506:5513   */\n      dup5\n        /* \"#utility.yul\":5502:5525   */\n      sub\n        /* \"#utility.yul\":5498:5530   */\n      slt\n        /* \"#utility.yul\":5495:5614   */\n      iszero\n      tag_197\n      jumpi\n        /* \"#utility.yul\":5533:5612   */\n      tag_198\n      tag_178\n      jump\t// in\n    tag_198:\n        /* \"#utility.yul\":5495:5614   */\n    tag_197:\n        /* \"#utility.yul\":5653:5654   */\n      0x00\n        /* \"#utility.yul\":5678:5742   */\n      tag_199\n        /* \"#utility.yul\":5734:5741   */\n      dup5\n        /* \"#utility.yul\":5725:5731   */\n      dup3\n        /* \"#utility.yul\":5714:5723   */\n      dup6\n        /* \"#utility.yul\":5710:5732   */\n      add\n        /* \"#utility.yul\":5678:5742   */\n      tag_171\n      jump\t// in\n    tag_199:\n        /* \"#utility.yul\":5668:5742   */\n      swap2\n      pop\n        /* \"#utility.yul\":5624:5752   */\n      pop\n        /* \"#utility.yul\":5408:5759   */\n      swap3\n      swap2\n      pop\n      pop\n      jump\t// out\n        /* \"#utility.yul\":5765:5883   */\n    tag_200:\n        /* \"#utility.yul\":5852:5876   */\n      tag_202\n        /* \"#utility.yul\":5870:5875   */\n      dup2\n        /* \"#utility.yul\":5852:5876   */\n      tag_203\n      jump\t// in\n    tag_202:\n        /* \"#utility.yul\":5847:5850   */\n      dup3\n        /* \"#utility.yul\":5840:5877   */\n      mstore\n        /* \"#utility.yul\":5765:5883   */\n      pop\n      pop\n      jump\t// out\n        /* \"#utility.yul\":5889:6036   */\n    tag_204:\n        /* \"#utility.yul\":5984:6029   */\n      tag_206\n        /* \"#utility.yul\":6023:6028   */\n      dup2\n        /* \"#utility.yul\":5984:6029   */\n      tag_207\n      jump\t// in\n    tag_206:\n        /* \"#utility.yul\":5979:5982   */\n      dup3\n        /* \"#utility.yul\":5972:6030   */\n      mstore\n        /* \"#utility.yul\":5889:6036   */\n      pop\n      pop\n      jump\t// out\n        /* \"#utility.yul\":6042:6408   */\n    tag_208:\n        /* \"#utility.yul\":6184:6187   */\n      0x00\n        /* \"#utility.yul\":6205:6272   */\n      tag_210\n        /* \"#utility.yul\":6269:6271   */\n      0x14\n        /* \"#utility.yul\":6264:6267   */\n      dup4\n        /* \"#utility.yul\":6205:6272   */\n      tag_211\n      jump\t// in\n    tag_210:\n        /* \"#utility.yul\":6198:6272   */\n      swap2\n      pop\n        /* \"#utility.yul\":6281:6374   */\n      tag_212\n        /* \"#utility.yul\":6370:6373   */\n      dup3\n        /* \"#utility.yul\":6281:6374   */\n      tag_213\n      jump\t// in\n    tag_212:\n        /* \"#utility.yul\":6399:6401   */\n      0x20\n        /* \"#utility.yul\":6394:6397   */\n      dup3\n        /* \"#utility.yul\":6390:6402   */\n      add\n        /* \"#utility.yul\":6383:6402   */\n      swap1\n      pop\n        /* \"#utility.yul\":6042:6408   */\n      swap2\n      swap1\n      pop\n      jump\t// out\n        /* \"#utility.yul\":6414:6780   */\n    tag_214:\n        /* \"#utility.yul\":6556:6559   */\n      0x00\n        /* \"#utility.yul\":6577:6644   */\n      tag_216\n        /* \"#utility.yul\":6641:6643   */\n      0x0c\n        /* \"#utility.yul\":6636:6639   */\n      dup4\n        /* \"#utility.yul\":6577:6644   */\n      tag_211\n      jump\t// in\n    tag_216:\n        /* \"#utility.yul\":6570:6644   */\n      swap2\n      pop\n        /* \"#utility.yul\":6653:6746   */\n      tag_217\n        /* \"#utility.yul\":6742:6745   */\n      dup3\n        /* \"#utility.yul\":6653:6746   */\n      tag_218\n      jump\t// in\n    tag_217:\n        /* \"#utility.yul\":6771:6773   */\n      0x20\n        /* \"#utility.yul\":6766:6769   */\n      dup3\n        /* \"#utility.yul\":6762:6774   */\n      add\n        /* \"#utility.yul\":6755:6774   */\n      swap1\n      pop\n        /* \"#utility.yul\":6414:6780   */\n      swap2\n      swap1\n      pop\n      jump\t// out\n        /* \"#utility.yul\":6786:7152   */\n    tag_219:\n        /* \"#utility.yul\":6928:6931   */\n      0x00\n        /* \"#utility.yul\":6949:7016   */\n      tag_221\n        /* \"#utility.yul\":7013:7015   */\n      0x1b\n        /* \"#utility.yul\":7008:7011   */\n      dup4\n        /* \"#utility.yul\":6949:7016   */\n      tag_211\n      jump\t// in\n    tag_221:\n        /* \"#utility.yul\":6942:7016   */\n      swap2\n      pop\n        /* \"#utility.yul\":7025:7118   */\n      tag_222\n        /* \"#utility.yul\":7114:7117   */\n      dup3\n        /* \"#utility.yul\":7025:7118   */\n      tag_223\n      jump\t// in\n    tag_222:\n        /* \"#utility.yul\":7143:7145   */\n      0x20\n        /* \"#utility.yul\":7138:7141   */\n      dup3\n        /* \"#utility.yul\":7134:7146   */\n      add\n        /* \"#utility.yul\":7127:7146   */\n      swap1\n      pop\n        /* \"#utility.yul\":6786:7152   */\n      swap2\n      swap1\n      pop\n      jump\t// out\n        /* \"#utility.yul\":7158:7524   */\n    tag_224:\n        /* \"#utility.yul\":7300:7303   */\n      0x00\n        /* \"#utility.yul\":7321:7388   */\n      tag_226\n        /* \"#utility.yul\":7385:7387   */\n      0x14\n        /* \"#utility.yul\":7380:7383   */\n      dup4\n        /* \"#utility.yul\":7321:7388   */\n      tag_211\n      jump\t// in\n    tag_226:\n        /* \"#utility.yul\":7314:7388   */\n      swap2\n      pop\n        /* \"#utility.yul\":7397:7490   */\n      tag_227\n        /* \"#utility.yul\":7486:7489   */\n      dup3\n        /* \"#utility.yul\":7397:7490   */\n      tag_228\n      jump\t// in\n    tag_227:\n        /* \"#utility.yul\":7515:7517   */\n      0x20\n        /* \"#utility.yul\":7510:7513   */\n      dup3\n        /* \"#utility.yul\":7506:7518   */\n      add\n        /* \"#utility.yul\":7499:7518   */\n      swap1\n      pop\n        /* \"#utility.yul\":7158:7524   */\n      swap2\n      swap1\n      pop\n      jump\t// out\n        /* \"#utility.yul\":7530:7896   */\n    tag_229:\n        /* \"#utility.yul\":7672:7675   */\n      0x00\n        /* \"#utility.yul\":7693:7760   */\n      tag_231\n        /* \"#utility.yul\":7757:7759   */\n      0x0c\n        /* \"#utility.yul\":7752:7755   */\n      dup4\n        /* \"#utility.yul\":7693:7760   */\n      tag_211\n      jump\t// in\n    tag_231:\n        /* \"#utility.yul\":7686:7760   */\n      swap2\n      pop\n        /* \"#utility.yul\":7769:7862   */\n      tag_232\n        /* \"#utility.yul\":7858:7861   */\n      dup3\n        /* \"#utility.yul\":7769:7862   */\n      tag_233\n      jump\t// in\n    tag_232:\n        /* \"#utility.yul\":7887:7889   */\n      0x20\n        /* \"#utility.yul\":7882:7885   */\n      dup3\n        /* \"#utility.yul\":7878:7890   */\n      add\n        /* \"#utility.yul\":7871:7890   */\n      swap1\n      pop\n        /* \"#utility.yul\":7530:7896   */\n      swap2\n      swap1\n      pop\n      jump\t// out\n        /* \"#utility.yul\":7902:8020   */\n    tag_234:\n        /* \"#utility.yul\":7989:8013   */\n      tag_236\n        /* \"#utility.yul\":8007:8012   */\n      dup2\n        /* \"#utility.yul\":7989:8013   */\n      tag_237\n      jump\t// in\n    tag_236:\n        /* \"#utility.yul\":7984:7987   */\n      dup3\n        /* \"#utility.yul\":7977:8014   */\n      mstore\n        /* \"#utility.yul\":7902:8020   */\n      pop\n      pop\n      jump\t// out\n        /* \"#utility.yul\":8026:8248   */\n    tag_34:\n        /* \"#utility.yul\":8119:8123   */\n      0x00\n        /* \"#utility.yul\":8157:8159   */\n      0x20\n        /* \"#utility.yul\":8146:8155   */\n      dup3\n        /* \"#utility.yul\":8142:8160   */\n      add\n        /* \"#utility.yul\":8134:8160   */\n      swap1\n      pop\n        /* \"#utility.yul\":8170:8241   */\n      tag_239\n        /* \"#utility.yul\":8238:8239   */\n      0x00\n        /* \"#utility.yul\":8227:8236   */\n      dup4\n        /* \"#utility.yul\":8223:8240   */\n      add\n        /* \"#utility.yul\":8214:8220   */\n      dup5\n        /* \"#utility.yul\":8170:8241   */\n      tag_200\n      jump\t// in\n    tag_239:\n        /* \"#utility.yul\":8026:8248   */\n      swap3\n      swap2\n      pop\n      pop\n      jump\t// out\n        /* \"#utility.yul\":8254:8712   */\n    tag_99:\n        /* \"#utility.yul\":8411:8415   */\n      0x00\n        /* \"#utility.yul\":8449:8451   */\n      0x60\n        /* \"#utility.yul\":8438:8447   */\n      dup3\n        /* \"#utility.yul\":8434:8452   */\n      add\n        /* \"#utility.yul\":8426:8452   */\n      swap1\n      pop\n        /* \"#utility.yul\":8462:8533   */\n      tag_241\n        /* \"#utility.yul\":8530:8531   */\n      0x00\n        /* \"#utility.yul\":8519:8528   */\n      dup4\n        /* \"#utility.yul\":8515:8532   */\n      add\n        /* \"#utility.yul\":8506:8512   */\n      dup7\n        /* \"#utility.yul\":8462:8533   */\n      tag_200\n      jump\t// in\n    tag_241:\n        /* \"#utility.yul\":8543:8615   */\n      tag_242\n        /* \"#utility.yul\":8611:8613   */\n      0x20\n        /* \"#utility.yul\":8600:8609   */\n      dup4\n        /* \"#utility.yul\":8596:8614   */\n      add\n        /* \"#utility.yul\":8587:8593   */\n      dup6\n        /* \"#utility.yul\":8543:8615   */\n      tag_200\n      jump\t// in\n    tag_242:\n        /* \"#utility.yul\":8625:8705   */\n      tag_243\n        /* \"#utility.yul\":8701:8703   */\n      0x40\n        /* \"#utility.yul\":8690:8699   */\n      dup4\n        /* \"#utility.yul\":8686:8704   */\n      add\n        /* \"#utility.yul\":8677:8683   */\n      dup5\n        /* \"#utility.yul\":8625:8705   */\n      tag_204\n      jump\t// in\n    tag_243:\n        /* \"#utility.yul\":8254:8712   */\n      swap5\n      swap4\n      pop\n      pop\n      pop\n      pop\n      jump\t// out\n        /* \"#utility.yul\":8718:9066   */\n    tag_58:\n        /* \"#utility.yul\":8847:8851   */\n      0x00\n        /* \"#utility.yul\":8885:8887   */\n      0x40\n        /* \"#utility.yul\":8874:8883   */\n      dup3\n        /* \"#utility.yul\":8870:8888   */\n      add\n        /* \"#utility.yul\":8862:8888   */\n      swap1\n      pop\n        /* \"#utility.yul\":8898:8969   */\n      tag_245\n        /* \"#utility.yul\":8966:8967   */\n      0x00\n        /* \"#utility.yul\":8955:8964   */\n      dup4\n        /* \"#utility.yul\":8951:8968   */\n      add\n        /* \"#utility.yul\":8942:8948   */\n      dup6\n        /* \"#utility.yul\":8898:8969   */\n      tag_200\n      jump\t// in\n    tag_245:\n        /* \"#utility.yul\":8979:9059   */\n      tag_246\n        /* \"#utility.yul\":9055:9057   */\n      0x20\n        /* \"#utility.yul\":9044:9053   */\n      dup4\n        /* \"#utility.yul\":9040:9058   */\n      add\n        /* \"#utility.yul\":9031:9037   */\n      dup5\n        /* \"#utility.yul\":8979:9059   */\n      tag_204\n      jump\t// in\n    tag_246:\n        /* \"#utility.yul\":8718:9066   */\n      swap4\n      swap3\n      pop\n      pop\n      pop\n      jump\t// out\n        /* \"#utility.yul\":9072:9491   */\n    tag_43:\n        /* \"#utility.yul\":9238:9242   */\n      0x00\n        /* \"#utility.yul\":9276:9278   */\n      0x20\n        /* \"#utility.yul\":9265:9274   */\n      dup3\n        /* \"#utility.yul\":9261:9279   */\n      add\n        /* \"#utility.yul\":9253:9279   */\n      swap1\n      pop\n        /* \"#utility.yul\":9325:9334   */\n      dup2\n        /* \"#utility.yul\":9319:9323   */\n      dup2\n        /* \"#utility.yul\":9315:9335   */\n      sub\n        /* \"#utility.yul\":9311:9312   */\n      0x00\n        /* \"#utility.yul\":9300:9309   */\n      dup4\n        /* \"#utility.yul\":9296:9313   */\n      add\n        /* \"#utility.yul\":9289:9336   */\n      mstore\n        /* \"#utility.yul\":9353:9484   */\n      tag_248\n        /* \"#utility.yul\":9479:9483   */\n      dup2\n        /* \"#utility.yul\":9353:9484   */\n      tag_208\n      jump\t// in\n    tag_248:\n        /* \"#utility.yul\":9345:9484   */\n      swap1\n      pop\n        /* \"#utility.yul\":9072:9491   */\n      swap2\n      swap1\n      pop\n      jump\t// out\n        /* \"#utility.yul\":9497:9916   */\n    tag_65:\n        /* \"#utility.yul\":9663:9667   */\n      0x00\n        /* \"#utility.yul\":9701:9703   */\n      0x20\n        /* \"#utility.yul\":9690:9699   */\n      dup3\n        /* \"#utility.yul\":9686:9704   */\n      add\n        /* \"#utility.yul\":9678:9704   */\n      swap1\n      pop\n        /* \"#utility.yul\":9750:9759   */\n      dup2\n        /* \"#utility.yul\":9744:9748   */\n      dup2\n        /* \"#utility.yul\":9740:9760   */\n      sub\n        /* \"#utility.yul\":9736:9737   */\n      0x00\n        /* \"#utility.yul\":9725:9734   */\n      dup4\n        /* \"#utility.yul\":9721:9738   */\n      add\n        /* \"#utility.yul\":9714:9761   */\n      mstore\n        /* \"#utility.yul\":9778:9909   */\n      tag_250\n        /* \"#utility.yul\":9904:9908   */\n      dup2\n        /* \"#utility.yul\":9778:9909   */\n      tag_214\n      jump\t// in\n    tag_250:\n        /* \"#utility.yul\":9770:9909   */\n      swap1\n      pop\n        /* \"#utility.yul\":9497:9916   */\n      swap2\n      swap1\n      pop\n      jump\t// out\n        /* \"#utility.yul\":9922:10341   */\n    tag_84:\n        /* \"#utility.yul\":10088:10092   */\n      0x00\n        /* \"#utility.yul\":10126:10128   */\n      0x20\n        /* \"#utility.yul\":10115:10124   */\n      dup3\n        /* \"#utility.yul\":10111:10129   */\n      add\n        /* \"#utility.yul\":10103:10129   */\n      swap1\n      pop\n        /* \"#utility.yul\":10175:10184   */\n      dup2\n        /* \"#utility.yul\":10169:10173   */\n      dup2\n        /* \"#utility.yul\":10165:10185   */\n      sub\n        /* \"#utility.yul\":10161:10162   */\n      0x00\n        /* \"#utility.yul\":10150:10159   */\n      dup4\n        /* \"#utility.yul\":10146:10163   */\n      add\n        /* \"#utility.yul\":10139:10186   */\n      mstore\n        /* \"#utility.yul\":10203:10334   */\n      tag_252\n        /* \"#utility.yul\":10329:10333   */\n      dup2\n        /* \"#utility.yul\":10203:10334   */\n      tag_219\n      jump\t// in\n    tag_252:\n        /* \"#utility.yul\":10195:10334   */\n      swap1\n      pop\n        /* \"#utility.yul\":9922:10341   */\n      swap2\n      swap1\n      pop\n      jump\t// out\n        /* \"#utility.yul\":10347:10766   */\n    tag_68:\n        /* \"#utility.yul\":10513:10517   */\n      0x00\n        /* \"#utility.yul\":10551:10553   */\n      0x20\n        /* \"#utility.yul\":10540:10549   */\n      dup3\n        /* \"#utility.yul\":10536:10554   */\n      add\n        /* \"#utility.yul\":10528:10554   */\n      swap1\n      pop\n        /* \"#utility.yul\":10600:10609   */\n      dup2\n        /* \"#utility.yul\":10594:10598   */\n      dup2\n        /* \"#utility.yul\":10590:10610   */\n      sub\n        /* \"#utility.yul\":10586:10587   */\n      0x00\n        /* \"#utility.yul\":10575:10584   */\n      dup4\n        /* \"#utility.yul\":10571:10588   */\n      add\n        /* \"#utility.yul\":10564:10611   */\n      mstore\n        /* \"#utility.yul\":10628:10759   */\n      tag_254\n        /* \"#utility.yul\":10754:10758   */\n      dup2\n        /* \"#utility.yul\":10628:10759   */\n      tag_224\n      jump\t// in\n    tag_254:\n        /* \"#utility.yul\":10620:10759   */\n      swap1\n      pop\n        /* \"#utility.yul\":10347:10766   */\n      swap2\n      swap1\n      pop\n      jump\t// out\n        /* \"#utility.yul\":10772:11191   */\n    tag_76:\n        /* \"#utility.yul\":10938:10942   */\n      0x00\n        /* \"#utility.yul\":10976:10978   */\n      0x20\n        /* \"#utility.yul\":10965:10974   */\n      dup3\n        /* \"#utility.yul\":10961:10979   */\n      add\n        /* \"#utility.yul\":10953:10979   */\n      swap1\n      pop\n        /* \"#utility.yul\":11025:11034   */\n      dup2\n        /* \"#utility.yul\":11019:11023   */\n      dup2\n        /* \"#utility.yul\":11015:11035   */\n      sub\n        /* \"#utility.yul\":11011:11012   */\n      0x00\n        /* \"#utility.yul\":11000:11009   */\n      dup4\n        /* \"#utility.yul\":10996:11013   */\n      add\n        /* \"#utility.yul\":10989:11036   */\n      mstore\n        /* \"#utility.yul\":11053:11184   */\n      tag_256\n        /* \"#utility.yul\":11179:11183   */\n      dup2\n        /* \"#utility.yul\":11053:11184   */\n      tag_229\n      jump\t// in\n    tag_256:\n        /* \"#utility.yul\":11045:11184   */\n      swap1\n      pop\n        /* \"#utility.yul\":10772:11191   */\n      swap2\n      swap1\n      pop\n      jump\t// out\n        /* \"#utility.yul\":11197:11419   */\n    tag_14:\n        /* \"#utility.yul\":11290:11294   */\n      0x00\n        /* \"#utility.yul\":11328:11330   */\n      0x20\n        /* \"#utility.yul\":11317:11326   */\n      dup3\n        /* \"#utility.yul\":11313:11331   */\n      add\n        /* \"#utility.yul\":11305:11331   */\n      swap1\n      pop\n        /* \"#utility.yul\":11341:11412   */\n      tag_258\n        /* \"#utility.yul\":11409:11410   */\n      0x00\n        /* \"#utility.yul\":11398:11407   */\n      dup4\n        /* \"#utility.yul\":11394:11411   */\n      add\n        /* \"#utility.yul\":11385:11391   */\n      dup5\n        /* \"#utility.yul\":11341:11412   */\n      tag_234\n      jump\t// in\n    tag_258:\n        /* \"#utility.yul\":11197:11419   */\n      swap3\n      swap2\n      pop\n      pop\n      jump\t// out\n        /* \"#utility.yul\":11425:11554   */\n    tag_120:\n        /* \"#utility.yul\":11459:11465   */\n      0x00\n        /* \"#utility.yul\":11486:11506   */\n      tag_260\n      tag_261\n      jump\t// in\n    tag_260:\n        /* \"#utility.yul\":11476:11506   */\n      swap1\n      pop\n        /* \"#utility.yul\":11515:11548   */\n      tag_262\n        /* \"#utility.yul\":11543:11547   */\n      dup3\n        /* \"#utility.yul\":11535:11541   */\n      dup3\n        /* \"#utility.yul\":11515:11548   */\n      tag_263\n      jump\t// in\n    tag_262:\n        /* \"#utility.yul\":11425:11554   */\n      swap2\n      swap1\n      pop\n      jump\t// out\n        /* \"#utility.yul\":11560:11635   */\n    tag_261:\n        /* \"#utility.yul\":11593:11599   */\n      0x00\n        /* \"#utility.yul\":11626:11628   */\n      0x40\n        /* \"#utility.yul\":11620:11629   */\n      mload\n        /* \"#utility.yul\":11610:11629   */\n      swap1\n      pop\n        /* \"#utility.yul\":11560:11635   */\n      swap1\n      jump\t// out\n        /* \"#utility.yul\":11641:11952   */\n    tag_119:\n        /* \"#utility.yul\":11718:11722   */\n      0x00\n        /* \"#utility.yul\":11808:11826   */\n      0xffffffffffffffff\n        /* \"#utility.yul\":11800:11806   */\n      dup3\n        /* \"#utility.yul\":11797:11827   */\n      gt\n        /* \"#utility.yul\":11794:11850   */\n      iszero\n      tag_266\n      jumpi\n        /* \"#utility.yul\":11830:11848   */\n      tag_267\n      tag_268\n      jump\t// in\n    tag_267:\n        /* \"#utility.yul\":11794:11850   */\n    tag_266:\n        /* \"#utility.yul\":11880:11884   */\n      0x20\n        /* \"#utility.yul\":11872:11878   */\n      dup3\n        /* \"#utility.yul\":11868:11885   */\n      mul\n        /* \"#utility.yul\":11860:11885   */\n      swap1\n      pop\n        /* \"#utility.yul\":11940:11944   */\n      0x20\n        /* \"#utility.yul\":11934:11938   */\n      dup2\n        /* \"#utility.yul\":11930:11945   */\n      add\n        /* \"#utility.yul\":11922:11945   */\n      swap1\n      pop\n        /* \"#utility.yul\":11641:11952   */\n      swap2\n      swap1\n      pop\n      jump\t// out\n        /* \"#utility.yul\":11958:12279   */\n    tag_133:\n        /* \"#utility.yul\":12045:12049   */\n      0x00\n        /* \"#utility.yul\":12135:12153   */\n      0xffffffffffffffff\n        /* \"#utility.yul\":12127:12133   */\n      dup3\n        /* \"#utility.yul\":12124:12154   */\n      gt\n        /* \"#utility.yul\":12121:12177   */\n      iszero\n      tag_270\n      jumpi\n        /* \"#utility.yul\":12157:12175   */\n      tag_271\n      tag_268\n      jump\t// in\n    tag_271:\n        /* \"#utility.yul\":12121:12177   */\n    tag_270:\n        /* \"#utility.yul\":12207:12211   */\n      0x20\n        /* \"#utility.yul\":12199:12205   */\n      dup3\n        /* \"#utility.yul\":12195:12212   */\n      mul\n        /* \"#utility.yul\":12187:12212   */\n      swap1\n      pop\n        /* \"#utility.yul\":12267:12271   */\n      0x20\n        /* \"#utility.yul\":12261:12265   */\n      dup2\n        /* \"#utility.yul\":12257:12272   */\n      add\n        /* \"#utility.yul\":12249:12272   */\n      swap1\n      pop\n        /* \"#utility.yul\":11958:12279   */\n      swap2\n      swap1\n      pop\n      jump\t// out\n        /* \"#utility.yul\":12285:12593   */\n    tag_148:\n        /* \"#utility.yul\":12347:12351   */\n      0x00\n        /* \"#utility.yul\":12437:12455   */\n      0xffffffffffffffff\n        /* \"#utility.yul\":12429:12435   */\n      dup3\n        /* \"#utility.yul\":12426:12456   */\n      gt\n        /* \"#utility.yul\":12423:12479   */\n      iszero\n      tag_273\n      jumpi\n        /* \"#utility.yul\":12459:12477   */\n      tag_274\n      tag_268\n      jump\t// in\n    tag_274:\n        /* \"#utility.yul\":12423:12479   */\n    tag_273:\n        /* \"#utility.yul\":12497:12526   */\n      tag_275\n        /* \"#utility.yul\":12519:12525   */\n      dup3\n        /* \"#utility.yul\":12497:12526   */\n      tag_276\n      jump\t// in\n    tag_275:\n        /* \"#utility.yul\":12489:12526   */\n      swap1\n      pop\n        /* \"#utility.yul\":12581:12585   */\n      0x20\n        /* \"#utility.yul\":12575:12579   */\n      dup2\n        /* \"#utility.yul\":12571:12586   */\n      add\n        /* \"#utility.yul\":12563:12586   */\n      swap1\n      pop\n        /* \"#utility.yul\":12285:12593   */\n      swap2\n      swap1\n      pop\n      jump\t// out\n        /* \"#utility.yul\":12599:12768   */\n    tag_211:\n        /* \"#utility.yul\":12683:12694   */\n      0x00\n        /* \"#utility.yul\":12717:12723   */\n      dup3\n        /* \"#utility.yul\":12712:12715   */\n      dup3\n        /* \"#utility.yul\":12705:12724   */\n      mstore\n        /* \"#utility.yul\":12757:12761   */\n      0x20\n        /* \"#utility.yul\":12752:12755   */\n      dup3\n        /* \"#utility.yul\":12748:12762   */\n      add\n        /* \"#utility.yul\":12733:12762   */\n      swap1\n      pop\n        /* \"#utility.yul\":12599:12768   */\n      swap3\n      swap2\n      pop\n      pop\n      jump\t// out\n        /* \"#utility.yul\":12774:12870   */\n    tag_203:\n        /* \"#utility.yul\":12811:12818   */\n      0x00\n        /* \"#utility.yul\":12840:12864   */\n      tag_279\n        /* \"#utility.yul\":12858:12863   */\n      dup3\n        /* \"#utility.yul\":12840:12864   */\n      tag_280\n      jump\t// in\n    tag_279:\n        /* \"#utility.yul\":12829:12864   */\n      swap1\n      pop\n        /* \"#utility.yul\":12774:12870   */\n      swap2\n      swap1\n      pop\n      jump\t// out\n        /* \"#utility.yul\":12876:13002   */\n    tag_280:\n        /* \"#utility.yul\":12913:12920   */\n      0x00\n        /* \"#utility.yul\":12953:12995   */\n      0xffffffffffffffffffffffffffffffffffffffff\n        /* \"#utility.yul\":12946:12951   */\n      dup3\n        /* \"#utility.yul\":12942:12996   */\n      and\n        /* \"#utility.yul\":12931:12996   */\n      swap1\n      pop\n        /* \"#utility.yul\":12876:13002   */\n      swap2\n      swap1\n      pop\n      jump\t// out\n        /* \"#utility.yul\":13008:13085   */\n    tag_237:\n        /* \"#utility.yul\":13045:13052   */\n      0x00\n        /* \"#utility.yul\":13074:13079   */\n      dup2\n        /* \"#utility.yul\":13063:13079   */\n      swap1\n      pop\n        /* \"#utility.yul\":13008:13085   */\n      swap2\n      swap1\n      pop\n      jump\t// out\n        /* \"#utility.yul\":13091:13212   */\n    tag_207:\n        /* \"#utility.yul\":13149:13158   */\n      0x00\n        /* \"#utility.yul\":13182:13206   */\n      tag_284\n        /* \"#utility.yul\":13200:13205   */\n      dup3\n        /* \"#utility.yul\":13182:13206   */\n      tag_237\n      jump\t// in\n    tag_284:\n        /* \"#utility.yul\":13169:13206   */\n      swap1\n      pop\n        /* \"#utility.yul\":13091:13212   */\n      swap2\n      swap1\n      pop\n      jump\t// out\n        /* \"#utility.yul\":13218:13372   */\n    tag_153:\n        /* \"#utility.yul\":13302:13308   */\n      dup3\n        /* \"#utility.yul\":13297:13300   */\n      dup2\n        /* \"#utility.yul\":13292:13295   */\n      dup4\n        /* \"#utility.yul\":13279:13309   */\n      calldatacopy\n        /* \"#utility.yul\":13364:13365   */\n      0x00\n        /* \"#utility.yul\":13355:13361   */\n      dup4\n        /* \"#utility.yul\":13350:13353   */\n      dup4\n        /* \"#utility.yul\":13346:13362   */\n      add\n        /* \"#utility.yul\":13339:13366   */\n      mstore\n        /* \"#utility.yul\":13218:13372   */\n      pop\n      pop\n      pop\n      jump\t// out\n        /* \"#utility.yul\":13378:13698   */\n    tag_104:\n        /* \"#utility.yul\":13422:13428   */\n      0x00\n        /* \"#utility.yul\":13459:13460   */\n      0x02\n        /* \"#utility.yul\":13453:13457   */\n      dup3\n        /* \"#utility.yul\":13449:13461   */\n      div\n        /* \"#utility.yul\":13439:13461   */\n      swap1\n      pop\n        /* \"#utility.yul\":13506:13507   */\n      0x01\n        /* \"#utility.yul\":13500:13504   */\n      dup3\n        /* \"#utility.yul\":13496:13508   */\n      and\n        /* \"#utility.yul\":13527:13545   */\n      dup1\n        /* \"#utility.yul\":13517:13598   */\n      tag_287\n      jumpi\n        /* \"#utility.yul\":13583:13587   */\n      0x7f\n        /* \"#utility.yul\":13575:13581   */\n      dup3\n        /* \"#utility.yul\":13571:13588   */\n      and\n        /* \"#utility.yul\":13561:13588   */\n      swap2\n      pop\n        /* \"#utility.yul\":13517:13598   */\n    tag_287:\n        /* \"#utility.yul\":13645:13647   */\n      0x20\n        /* \"#utility.yul\":13637:13643   */\n      dup3\n        /* \"#utility.yul\":13634:13648   */\n      lt\n        /* \"#utility.yul\":13614:13632   */\n      dup2\n        /* \"#utility.yul\":13611:13649   */\n      eq\n        /* \"#utility.yul\":13608:13692   */\n      iszero\n      tag_288\n      jumpi\n        /* \"#utility.yul\":13664:13682   */\n      tag_289\n      tag_290\n      jump\t// in\n    tag_289:\n        /* \"#utility.yul\":13608:13692   */\n    tag_288:\n        /* \"#utility.yul\":13429:13698   */\n      pop\n        /* \"#utility.yul\":13378:13698   */\n      swap2\n      swap1\n      pop\n      jump\t// out\n        /* \"#utility.yul\":13704:13985   */\n    tag_263:\n        /* \"#utility.yul\":13787:13814   */\n      tag_292\n        /* \"#utility.yul\":13809:13813   */\n      dup3\n        /* \"#utility.yul\":13787:13814   */\n      tag_276\n      jump\t// in\n    tag_292:\n        /* \"#utility.yul\":13779:13785   */\n      dup2\n        /* \"#utility.yul\":13775:13815   */\n      add\n        /* \"#utility.yul\":13917:13923   */\n      dup2\n        /* \"#utility.yul\":13905:13915   */\n      dup2\n        /* \"#utility.yul\":13902:13924   */\n      lt\n        /* \"#utility.yul\":13881:13899   */\n      0xffffffffffffffff\n        /* \"#utility.yul\":13869:13879   */\n      dup3\n        /* \"#utility.yul\":13866:13900   */\n      gt\n        /* \"#utility.yul\":13863:13925   */\n      or\n        /* \"#utility.yul\":13860:13948   */\n      iszero\n      tag_293\n      jumpi\n        /* \"#utility.yul\":13928:13946   */\n      tag_294\n      tag_268\n      jump\t// in\n    tag_294:\n        /* \"#utility.yul\":13860:13948   */\n    tag_293:\n        /* \"#utility.yul\":13968:13978   */\n      dup1\n        /* \"#utility.yul\":13964:13966   */\n      0x40\n        /* \"#utility.yul\":13957:13979   */\n      mstore\n        /* \"#utility.yul\":13747:13985   */\n      pop\n        /* \"#utility.yul\":13704:13985   */\n      pop\n      pop\n      jump\t// out\n        /* \"#utility.yul\":13991:14224   */\n    tag_55:\n        /* \"#utility.yul\":14030:14033   */\n      0x00\n        /* \"#utility.yul\":14053:14077   */\n      tag_296\n        /* \"#utility.yul\":14071:14076   */\n      dup3\n        /* \"#utility.yul\":14053:14077   */\n      tag_237\n      jump\t// in\n    tag_296:\n        /* \"#utility.yul\":14044:14077   */\n      swap2\n      pop\n        /* \"#utility.yul\":14099:14165   */\n      0xffffffffffffffffffffffffffffffffffffffffffffffffffffffffffffffff\n        /* \"#utility.yul\":14092:14097   */\n      dup3\n        /* \"#utility.yul\":14089:14166   */\n      eq\n        /* \"#utility.yul\":14086:14189   */\n      iszero\n      tag_297\n      jumpi\n        /* \"#utility.yul\":14169:14187   */\n      tag_298\n      tag_299\n      jump\t// in\n    tag_298:\n        /* \"#utility.yul\":14086:14189   */\n    tag_297:\n        /* \"#utility.yul\":14216:14217   */\n      0x01\n        /* \"#utility.yul\":14209:14214   */\n      dup3\n        /* \"#utility.yul\":14205:14218   */\n      add\n        /* \"#utility.yul\":14198:14218   */\n      swap1\n      pop\n        /* \"#utility.yul\":13991:14224   */\n      swap2\n      swap1\n      pop\n      jump\t// out\n        /* \"#utility.yul\":14230:14410   */\n    tag_299:\n        /* \"#utility.yul\":14278:14355   */\n      0x4e487b7100000000000000000000000000000000000000000000000000000000\n        /* \"#utility.yul\":14275:14276   */\n      0x00\n        /* \"#utility.yul\":14268:14356   */\n      mstore\n        /* \"#utility.yul\":14375:14379   */\n      0x11\n        /* \"#utility.yul\":14372:14373   */\n      0x04\n        /* \"#utility.yul\":14365:14380   */\n      mstore\n        /* \"#utility.yul\":14399:14403   */\n      0x24\n        /* \"#utility.yul\":14396:14397   */\n      0x00\n        /* \"#utility.yul\":14389:14404   */\n      revert\n        /* \"#utility.yul\":14416:14596   */\n    tag_290:\n        /* \"#utility.yul\":14464:14541   */\n      0x4e487b7100000000000000000000000000000000000000000000000000000000\n        /* \"#utility.yul\":14461:14462   */\n      0x00\n        /* \"#utility.yul\":14454:14542   */\n      mstore\n        /* \"#utility.yul\":14561:14565   */\n      0x22\n        /* \"#utility.yul\":14558:14559   */\n      0x04\n        /* \"#utility.yul\":14551:14566   */\n      mstore\n        /* \"#utility.yul\":14585:14589   */\n      0x24\n        /* \"#utility.yul\":14582:14583   */\n      0x00\n        /* \"#utility.yul\":14575:14590   */\n      revert\n        /* \"#utility.yul\":14602:14782   */\n    tag_49:\n        /* \"#utility.yul\":14650:14727   */\n      0x4e487b7100000000000000000000000000000000000000000000000000000000\n        /* \"#utility.yul\":14647:14648   */\n      0x00\n        /* \"#utility.yul\":14640:14728   */\n      mstore\n        /* \"#utility.yul\":14747:14751   */\n      0x32\n        /* \"#utility.yul\":14744:14745   */\n      0x04\n        /* \"#utility.yul\":14737:14752   */\n      mstore\n        /* \"#utility.yul\":14771:14775   */\n      0x24\n        /* \"#utility.yul\":14768:14769   */\n      0x00\n        /* \"#utility.yul\":14761:14776   */\n      revert\n        /* \"#utility.yul\":14788:14968   */\n    tag_268:\n        /* \"#utility.yul\":14836:14913   */\n      0x4e487b7100000000000000000000000000000000000000000000000000000000\n        /* \"#utility.yul\":14833:14834   */\n      0x00\n        /* \"#utility.yul\":14826:14914   */\n      mstore\n        /* \"#utility.yul\":14933:14937   */\n      0x41\n        /* \"#utility.yul\":14930:14931   */\n      0x04\n        /* \"#utility.yul\":14923:14938   */\n      mstore\n        /* \"#utility.yul\":14957:14961   */\n      0x24\n        /* \"#utility.yul\":14954:14955   */\n      0x00\n        /* \"#utility.yul\":14947:14962   */\n      revert\n        /* \"#utility.yul\":14974:15091   */\n    tag_141:\n        /* \"#utility.yul\":15083:15084   */\n      0x00\n        /* \"#utility.yul\":15080:15081   */\n      dup1\n        /* \"#utility.yul\":15073:15085   */\n      revert\n        /* \"#utility.yul\":15097:15214   */\n    tag_123:\n        /* \"#utility.yul\":15206:15207   */\n      0x00\n        /* \"#utility.yul\":15203:15204   */\n      dup1\n        /* \"#utility.yul\":15196:15208   */\n      revert\n        /* \"#utility.yul\":15220:15337   */\n    tag_151:\n        /* \"#utility.yul\":15329:15330   */\n      0x00\n        /* \"#utility.yul\":15326:15327   */\n      dup1\n        /* \"#utility.yul\":15319:15331   */\n      revert\n        /* \"#utility.yul\":15343:15460   */\n    tag_185:\n        /* \"#utility.yul\":15452:15453   */\n      0x00\n        /* \"#utility.yul\":15449:15450   */\n      dup1\n        /* \"#utility.yul\":15442:15454   */\n      revert\n        /* \"#utility.yul\":15466:15583   */\n    tag_178:\n        /* \"#utility.yul\":15575:15576   */\n      0x00\n        /* \"#utility.yul\":15572:15573   */\n      dup1\n        /* \"#utility.yul\":15565:15577   */\n      revert\n        /* \"#utility.yul\":15589:15691   */\n    tag_276:\n        /* \"#utility.yul\":15630:15636   */\n      0x00\n        /* \"#utility.yul\":15681:15683   */\n      0x1f\n        /* \"#utility.yul\":15677:15684   */\n      not\n        /* \"#utility.yul\":15672:15674   */\n      0x1f\n        /* \"#utility.yul\":15665:15670   */\n      dup4\n        /* \"#utility.yul\":15661:15675   */\n      add\n        /* \"#utility.yul\":15657:15685   */\n      and\n        /* \"#utility.yul\":15647:15685   */\n      swap1\n      pop\n        /* \"#utility.yul\":15589:15691   */\n      swap2\n      swap1\n      pop\n      jump\t// out\n        /* \"#utility.yul\":15697:15867   */\n    tag_213:\n        /* \"#utility.yul\":15837:15859   */\n      0x4c656e67746820697320646966666572656e742e000000000000000000000000\n        /* \"#utility.yul\":15833:15834   */\n      0x00\n        /* \"#utility.yul\":15825:15831   */\n      dup3\n        /* \"#utility.yul\":15821:15835   */\n      add\n        /* \"#utility.yul\":15814:15860   */\n      mstore\n        /* \"#utility.yul\":15697:15867   */\n      pop\n      jump\t// out\n        /* \"#utility.yul\":15873:16035   */\n    tag_218:\n        /* \"#utility.yul\":16013:16027   */\n      0x54696d6520697320656e642e0000000000000000000000000000000000000000\n        /* \"#utility.yul\":16009:16010   */\n      0x00\n        /* \"#utility.yul\":16001:16007   */\n      dup3\n        /* \"#utility.yul\":15997:16011   */\n      add\n        /* \"#utility.yul\":15990:16028   */\n      mstore\n        /* \"#utility.yul\":15873:16035   */\n      pop\n      jump\t// out\n        /* \"#utility.yul\":16041:16218   */\n    tag_223:\n        /* \"#utility.yul\":16181:16210   */\n      0x4974206973206e6f742066726f6d206368616972706572736f6e2e0000000000\n        /* \"#utility.yul\":16177:16178   */\n      0x00\n        /* \"#utility.yul\":16169:16175   */\n      dup3\n        /* \"#utility.yul\":16165:16179   */\n      add\n        /* \"#utility.yul\":16158:16211   */\n      mstore\n        /* \"#utility.yul\":16041:16218   */\n      pop\n      jump\t// out\n        /* \"#utility.yul\":16224:16394   */\n    tag_228:\n        /* \"#utility.yul\":16364:16386   */\n      0x566f74657220616c726561647920766f7465642e000000000000000000000000\n        /* \"#utility.yul\":16360:16361   */\n      0x00\n        /* \"#utility.yul\":16352:16358   */\n      dup3\n        /* \"#utility.yul\":16348:16362   */\n      add\n        /* \"#utility.yul\":16341:16387   */\n      mstore\n        /* \"#utility.yul\":16224:16394   */\n      pop\n      jump\t// out\n        /* \"#utility.yul\":16400:16562   */\n    tag_233:\n        /* \"#utility.yul\":16540:16554   */\n      0x62616c616e6365203c3d20300000000000000000000000000000000000000000\n        /* \"#utility.yul\":16536:16537   */\n      0x00\n        /* \"#utility.yul\":16528:16534   */\n      dup3\n        /* \"#utility.yul\":16524:16538   */\n      add\n        /* \"#utility.yul\":16517:16555   */\n      mstore\n        /* \"#utility.yul\":16400:16562   */\n      pop\n      jump\t// out\n        /* \"#utility.yul\":16568:16690   */\n    tag_156:\n        /* \"#utility.yul\":16641:16665   */\n      tag_316\n        /* \"#utility.yul\":16659:16664   */\n      dup2\n        /* \"#utility.yul\":16641:16665   */\n      tag_203\n      jump\t// in\n    tag_316:\n        /* \"#utility.yul\":16634:16639   */\n      dup2\n        /* \"#utility.yul\":16631:16666   */\n      eq\n        /* \"#utility.yul\":16621:16684   */\n      tag_317\n      jumpi\n        /* \"#utility.yul\":16680:16681   */\n      0x00\n        /* \"#utility.yul\":16677:16678   */\n      dup1\n        /* \"#utility.yul\":16670:16682   */\n      revert\n        /* \"#utility.yul\":16621:16684   */\n    tag_317:\n        /* \"#utility.yul\":16568:16690   */\n      pop\n      jump\t// out\n        /* \"#utility.yul\":16696:16818   */\n    tag_174:\n        /* \"#utility.yul\":16769:16793   */\n      tag_319\n        /* \"#utility.yul\":16787:16792   */\n      dup2\n        /* \"#utility.yul\":16769:16793   */\n      tag_237\n      jump\t// in\n    tag_319:\n        /* \"#utility.yul\":16762:16767   */\n      dup2\n        /* \"#utility.yul\":16759:16794   */\n      eq\n        /* \"#utility.yul\":16749:16812   */\n      tag_320\n      jumpi\n        /* \"#utility.yul\":16808:16809   */\n      0x00\n        /* \"#utility.yul\":16805:16806   */\n      dup1\n        /* \"#utility.yul\":16798:16810   */\n      revert\n        /* \"#utility.yul\":16749:16812   */\n    tag_320:\n        /* \"#utility.yul\":16696:16818   */\n      pop\n      jump\t// out\n\n    auxdata: 0xa26469706673582212202b4b1d74d3d92d05769abcf78231b64c3ff1e0aefa2f7fec4a5e5f6a57adb8be64736f6c63430008070033\n}\n\nsub_1: assembly {\n        /* \"contracts/Token.sol\":99:294  contract Token is ERC20Standard {\r... */\n      mstore(0x40, 0x80)\n        /* \"contracts/Token.sol\":141:291  constructor(uint _totalSupply) {\r... */\n      callvalue\n      dup1\n      iszero\n      tag_1\n      jumpi\n      0x00\n      dup1\n      revert\n    tag_1:\n      pop\n      mload(0x40)\n      sub(codesize, bytecodeSize)\n      dup1\n      bytecodeSize\n      dup4\n      codecopy\n      dup2\n      dup2\n      add\n      0x40\n      mstore\n      dup2\n      add\n      swap1\n      tag_2\n      swap2\n      swap1\n      tag_3\n      jump\t// in\n    tag_2:\n        /* \"contracts/Token.sol\":195:207  _totalSupply */\n      dup1\n        /* \"contracts/Token.sol\":181:192  totalSupply */\n      0x00\n        /* \"contracts/Token.sol\":181:207  totalSupply = _totalSupply */\n      dup2\n      swap1\n      sstore\n      pop\n        /* \"contracts/Token.sol\":216:238  name = \"E-Voting coin\" */\n      mload(0x40)\n      dup1\n      0x40\n      add\n      0x40\n      mstore\n      dup1\n      0x0d\n      dup2\n      mstore\n      0x20\n      add\n      0x452d566f74696e6720636f696e00000000000000000000000000000000000000\n      dup2\n      mstore\n      pop\n        /* \"contracts/Token.sol\":216:220  name */\n      0x01\n        /* \"contracts/Token.sol\":216:238  name = \"E-Voting coin\" */\n      swap1\n      dup1\n      mload\n      swap1\n      0x20\n      add\n      swap1\n      tag_6\n      swap3\n      swap2\n      swap1\n      tag_7\n      jump\t// in\n    tag_6:\n      pop\n        /* \"contracts/Token.sol\":258:260  18 */\n      0x12\n        /* \"contracts/Token.sol\":247:255  decimals */\n      0x02\n      0x00\n        /* \"contracts/Token.sol\":247:260  decimals = 18 */\n      0x0100\n      exp\n      dup2\n      sload\n      dup2\n      0xff\n      mul\n      not\n      and\n      swap1\n      dup4\n      0xff\n      and\n      mul\n      or\n      swap1\n      sstore\n      pop\n        /* \"contracts/Token.sol\":269:283  symbol = \"EVC\" */\n      mload(0x40)\n      dup1\n      0x40\n      add\n      0x40\n      mstore\n      dup1\n      0x03\n      dup2\n      mstore\n      0x20\n      add\n      0x4556430000000000000000000000000000000000000000000000000000000000\n      dup2\n      mstore\n      pop\n        /* \"contracts/Token.sol\":269:275  symbol */\n      0x03\n        /* \"contracts/Token.sol\":269:283  symbol = \"EVC\" */\n      swap1\n      dup1\n      mload\n      swap1\n      0x20\n      add\n      swap1\n      tag_8\n      swap3\n      swap2\n      swap1\n      tag_7\n      jump\t// in\n    tag_8:\n      pop\n        /* \"contracts/Token.sol\":141:291  constructor(uint _totalSupply) {\r... */\n      pop\n        /* \"contracts/Token.sol\":99:294  contract Token is ERC20Standard {\r... */\n      jump(tag_9)\n    tag_7:\n      dup3\n      dup1\n      sload\n      tag_10\n      swap1\n      tag_11\n      jump\t// in\n    tag_10:\n      swap1\n      0x00\n      mstore\n      keccak256(0x00, 0x20)\n      swap1\n      0x1f\n      add\n      0x20\n      swap1\n      div\n      dup2\n      add\n      swap3\n      dup3\n      tag_13\n      jumpi\n      0x00\n      dup6\n      sstore\n      jump(tag_12)\n    tag_13:\n      dup3\n      0x1f\n      lt\n      tag_14\n      jumpi\n      dup1\n      mload\n      not(0xff)\n      and\n      dup4\n      dup1\n      add\n      or\n      dup6\n      sstore\n      jump(tag_12)\n    tag_14:\n      dup3\n      dup1\n      add\n      0x01\n      add\n      dup6\n      sstore\n      dup3\n      iszero\n      tag_12\n      jumpi\n      swap2\n      dup3\n      add\n    tag_15:\n      dup3\n      dup2\n      gt\n      iszero\n      tag_16\n      jumpi\n      dup3\n      mload\n      dup3\n      sstore\n      swap2\n      0x20\n      add\n      swap2\n      swap1\n      0x01\n      add\n      swap1\n      jump(tag_15)\n    tag_16:\n    tag_12:\n      pop\n      swap1\n      pop\n      tag_17\n      swap2\n      swap1\n      tag_18\n      jump\t// in\n    tag_17:\n      pop\n      swap1\n      jump\t// out\n    tag_18:\n    tag_19:\n      dup1\n      dup3\n      gt\n      iszero\n      tag_20\n      jumpi\n      0x00\n      dup2\n      0x00\n      swap1\n      sstore\n      pop\n      0x01\n      add\n      jump(tag_19)\n    tag_20:\n      pop\n      swap1\n      jump\t// out\n        /* \"#utility.yul\":7:150   */\n    tag_22:\n        /* \"#utility.yul\":64:69   */\n      0x00\n        /* \"#utility.yul\":95:101   */\n      dup2\n        /* \"#utility.yul\":89:102   */\n      mload\n        /* \"#utility.yul\":80:102   */\n      swap1\n      pop\n        /* \"#utility.yul\":111:144   */\n      tag_24\n        /* \"#utility.yul\":138:143   */\n      dup2\n        /* \"#utility.yul\":111:144   */\n      tag_25\n      jump\t// in\n    tag_24:\n        /* \"#utility.yul\":7:150   */\n      swap3\n      swap2\n      pop\n      pop\n      jump\t// out\n        /* \"#utility.yul\":156:507   */\n    tag_3:\n        /* \"#utility.yul\":226:232   */\n      0x00\n        /* \"#utility.yul\":275:277   */\n      0x20\n        /* \"#utility.yul\":263:272   */\n      dup3\n        /* \"#utility.yul\":254:261   */\n      dup5\n        /* \"#utility.yul\":250:273   */\n      sub\n        /* \"#utility.yul\":246:278   */\n      slt\n        /* \"#utility.yul\":243:362   */\n      iszero\n      tag_27\n      jumpi\n        /* \"#utility.yul\":281:360   */\n      tag_28\n      tag_29\n      jump\t// in\n    tag_28:\n        /* \"#utility.yul\":243:362   */\n    tag_27:\n        /* \"#utility.yul\":401:402   */\n      0x00\n        /* \"#utility.yul\":426:490   */\n      tag_30\n        /* \"#utility.yul\":482:489   */\n      dup5\n        /* \"#utility.yul\":473:479   */\n      dup3\n        /* \"#utility.yul\":462:471   */\n      dup6\n        /* \"#utility.yul\":458:480   */\n      add\n        /* \"#utility.yul\":426:490   */\n      tag_22\n      jump\t// in\n    tag_30:\n        /* \"#utility.yul\":416:490   */\n      swap2\n      pop\n        /* \"#utility.yul\":372:500   */\n      pop\n        /* \"#utility.yul\":156:507   */\n      swap3\n      swap2\n      pop\n      pop\n      jump\t// out\n        /* \"#utility.yul\":594:671   */\n    tag_33:\n        /* \"#utility.yul\":631:638   */\n      0x00\n        /* \"#utility.yul\":660:665   */\n      dup2\n        /* \"#utility.yul\":649:665   */\n      swap1\n      pop\n        /* \"#utility.yul\":594:671   */\n      swap2\n      swap1\n      pop\n      jump\t// out\n        /* \"#utility.yul\":677:997   */\n    tag_11:\n        /* \"#utility.yul\":721:727   */\n      0x00\n        /* \"#utility.yul\":758:759   */\n      0x02\n        /* \"#utility.yul\":752:756   */\n      dup3\n        /* \"#utility.yul\":748:760   */\n      div\n        /* \"#utility.yul\":738:760   */\n      swap1\n      pop\n        /* \"#utility.yul\":805:806   */\n      0x01\n        /* \"#utility.yul\":799:803   */\n      dup3\n        /* \"#utility.yul\":795:807   */\n      and\n        /* \"#utility.yul\":826:844   */\n      dup1\n        /* \"#utility.yul\":816:897   */\n      tag_36\n      jumpi\n        /* \"#utility.yul\":882:886   */\n      0x7f\n        /* \"#utility.yul\":874:880   */\n      dup3\n        /* \"#utility.yul\":870:887   */\n      and\n        /* \"#utility.yul\":860:887   */\n      swap2\n      pop\n        /* \"#utility.yul\":816:897   */\n    tag_36:\n        /* \"#utility.yul\":944:946   */\n      0x20\n        /* \"#utility.yul\":936:942   */\n      dup3\n        /* \"#utility.yul\":933:947   */\n      lt\n        /* \"#utility.yul\":913:931   */\n      dup2\n        /* \"#utility.yul\":910:948   */\n      eq\n        /* \"#utility.yul\":907:991   */\n      iszero\n      tag_37\n      jumpi\n        /* \"#utility.yul\":963:981   */\n      tag_38\n      tag_39\n      jump\t// in\n    tag_38:\n        /* \"#utility.yul\":907:991   */\n    tag_37:\n        /* \"#utility.yul\":728:997   */\n      pop\n        /* \"#utility.yul\":677:997   */\n      swap2\n      swap1\n      pop\n      jump\t// out\n        /* \"#utility.yul\":1003:1183   */\n    tag_39:\n        /* \"#utility.yul\":1051:1128   */\n      0x4e487b7100000000000000000000000000000000000000000000000000000000\n        /* \"#utility.yul\":1048:1049   */\n      0x00\n        /* \"#utility.yul\":1041:1129   */\n      mstore\n        /* \"#utility.yul\":1148:1152   */\n      0x22\n        /* \"#utility.yul\":1145:1146   */\n      0x04\n        /* \"#utility.yul\":1138:1153   */\n      mstore\n        /* \"#utility.yul\":1172:1176   */\n      0x24\n        /* \"#utility.yul\":1169:1170   */\n      0x00\n        /* \"#utility.yul\":1162:1177   */\n      revert\n        /* \"#utility.yul\":1312:1429   */\n    tag_29:\n        /* \"#utility.yul\":1421:1422   */\n      0x00\n        /* \"#utility.yul\":1418:1419   */\n      dup1\n        /* \"#utility.yul\":1411:1423   */\n      revert\n        /* \"#utility.yul\":1435:1557   */\n    tag_25:\n        /* \"#utility.yul\":1508:1532   */\n      tag_45\n        /* \"#utility.yul\":1526:1531   */\n      dup2\n        /* \"#utility.yul\":1508:1532   */\n      tag_33\n      jump\t// in\n    tag_45:\n        /* \"#utility.yul\":1501:1506   */\n      dup2\n        /* \"#utility.yul\":1498:1533   */\n      eq\n        /* \"#utility.yul\":1488:1551   */\n      tag_46\n      jumpi\n        /* \"#utility.yul\":1547:1548   */\n      0x00\n        /* \"#utility.yul\":1544:1545   */\n      dup1\n        /* \"#utility.yul\":1537:1549   */\n      revert\n        /* \"#utility.yul\":1488:1551   */\n    tag_46:\n        /* \"#utility.yul\":1435:1557   */\n      pop\n      jump\t// out\n        /* \"contracts/Token.sol\":99:294  contract Token is ERC20Standard {\r... */\n    tag_9:\n      dataSize(sub_0)\n      dup1\n      dataOffset(sub_0)\n      0x00\n      codecopy\n      0x00\n      return\n    stop\n\n    sub_0: assembly {\n            /* \"contracts/Token.sol\":99:294  contract Token is ERC20Standard {\r... */\n          mstore(0x40, 0x80)\n          callvalue\n          dup1\n          iszero\n          tag_1\n          jumpi\n          0x00\n          dup1\n          revert\n        tag_1:\n          pop\n          jumpi(tag_2, lt(calldatasize, 0x04))\n          shr(0xe0, calldataload(0x00))\n          dup1\n          0x40c10f19\n          gt\n          tag_14\n          jumpi\n          dup1\n          0x40c10f19\n          eq\n          tag_8\n          jumpi\n          dup1\n          0x54fd4d50\n          eq\n          tag_9\n          jumpi\n          dup1\n          0x70a08231\n          eq\n          tag_10\n          jumpi\n          dup1\n          0x95d89b41\n          eq\n          tag_11\n          jumpi\n          dup1\n          0xa9059cbb\n          eq\n          tag_12\n          jumpi\n          dup1\n          0xdd62ed3e\n          eq\n          tag_13\n          jumpi\n          jump(tag_2)\n        tag_14:\n          dup1\n          0x06fdde03\n          eq\n          tag_3\n          jumpi\n          dup1\n          0x095ea7b3\n          eq\n          tag_4\n          jumpi\n          dup1\n          0x18160ddd\n          eq\n          tag_5\n          jumpi\n          dup1\n          0x23b872dd\n          eq\n          tag_6\n          jumpi\n          dup1\n          0x313ce567\n          eq\n          tag_7\n          jumpi\n        tag_2:\n          0x00\n          dup1\n          revert\n            /* \"contracts/ERC20Standard.sol\":1005:1023  string public name */\n        tag_3:\n          tag_15\n          tag_16\n          jump\t// in\n        tag_15:\n          mload(0x40)\n          tag_17\n          swap2\n          swap1\n          tag_18\n          jump\t// in\n        tag_17:\n          mload(0x40)\n          dup1\n          swap2\n          sub\n          swap1\n          return\n            /* \"contracts/ERC20Standard.sol\":2699:2851  function  approve(address _spender, uint _value) public {\r... */\n        tag_4:\n          tag_19\n          0x04\n          dup1\n          calldatasize\n          sub\n          dup2\n          add\n          swap1\n          tag_20\n          swap2\n          swap1\n          tag_21\n          jump\t// in\n        tag_20:\n          tag_22\n          jump\t// in\n        tag_19:\n          stop\n            /* \"contracts/ERC20Standard.sol\":975:998  uint public totalSupply */\n        tag_5:\n          tag_23\n          tag_24\n          jump\t// in\n        tag_23:\n          mload(0x40)\n          tag_25\n          swap2\n          swap1\n          tag_26\n          jump\t// in\n        tag_25:\n          mload(0x40)\n          dup1\n          swap2\n          sub\n          swap1\n          return\n            /* \"contracts/ERC20Standard.sol\":1846:2303  function transferFrom(address _from, address _to, uint _value) public {\r... */\n        tag_6:\n          tag_27\n          0x04\n          dup1\n          calldatasize\n          sub\n          dup2\n          add\n          swap1\n          tag_28\n          swap2\n          swap1\n          tag_29\n          jump\t// in\n        tag_28:\n          tag_30\n          jump\t// in\n        tag_27:\n          stop\n            /* \"contracts/ERC20Standard.sol\":1027:1048  uint8 public decimals */\n        tag_7:\n          tag_31\n          tag_32\n          jump\t// in\n        tag_31:\n          mload(0x40)\n          tag_33\n          swap2\n          swap1\n          tag_34\n          jump\t// in\n        tag_33:\n          mload(0x40)\n          dup1\n          swap2\n          sub\n          swap1\n          return\n            /* \"contracts/ERC20Standard.sol\":2308:2694  function mint(address account, uint256 amount) public {\r... */\n        tag_8:\n          tag_35\n          0x04\n          dup1\n          calldatasize\n          sub\n          dup2\n          add\n          swap1\n          tag_36\n          swap2\n          swap1\n          tag_21\n          jump\t// in\n        tag_36:\n          tag_37\n          jump\t// in\n        tag_35:\n          stop\n            /* \"contracts/ERC20Standard.sol\":1076:1097  string public version */\n        tag_9:\n          tag_38\n          tag_39\n          jump\t// in\n        tag_38:\n          mload(0x40)\n          tag_40\n          swap2\n          swap1\n          tag_18\n          jump\t// in\n        tag_40:\n          mload(0x40)\n          dup1\n          swap2\n          sub\n          swap1\n          return\n            /* \"contracts/ERC20Standard.sol\":1345:1448  function balanceOf(address _owner) public view returns (uint balance) {\r... */\n        tag_10:\n          tag_41\n          0x04\n          dup1\n          calldatasize\n          sub\n          dup2\n          add\n          swap1\n          tag_42\n          swap2\n          swap1\n          tag_43\n          jump\t// in\n        tag_42:\n          tag_44\n          jump\t// in\n        tag_41:\n          mload(0x40)\n          tag_45\n          swap2\n          swap1\n          tag_26\n          jump\t// in\n        tag_45:\n          mload(0x40)\n          dup1\n          swap2\n          sub\n          swap1\n          return\n            /* \"contracts/ERC20Standard.sol\":1052:1072  string public symbol */\n        tag_11:\n          tag_46\n          tag_47\n          jump\t// in\n        tag_46:\n          mload(0x40)\n          tag_48\n          swap2\n          swap1\n          tag_18\n          jump\t// in\n        tag_48:\n          mload(0x40)\n          dup1\n          swap2\n          sub\n          swap1\n          return\n            /* \"contracts/ERC20Standard.sol\":1453:1841  function transfer(address _recipient, uint _value) public onlyPayloadSize(2*32) {\r... */\n        tag_12:\n          tag_49\n          0x04\n          dup1\n          calldatasize\n          sub\n          dup2\n          add\n          swap1\n          tag_50\n          swap2\n          swap1\n          tag_21\n          jump\t// in\n        tag_50:\n          tag_51\n          jump\t// in\n        tag_49:\n          stop\n            /* \"contracts/ERC20Standard.sol\":2856:2986  function allowance(address _spender, address _owner) public view returns (uint balance) {\r... */\n        tag_13:\n          tag_52\n          0x04\n          dup1\n          calldatasize\n          sub\n          dup2\n          add\n          swap1\n          tag_53\n          swap2\n          swap1\n          tag_54\n          jump\t// in\n        tag_53:\n          tag_55\n          jump\t// in\n        tag_52:\n          mload(0x40)\n          tag_56\n          swap2\n          swap1\n          tag_26\n          jump\t// in\n        tag_56:\n          mload(0x40)\n          dup1\n          swap2\n          sub\n          swap1\n          return\n            /* \"contracts/ERC20Standard.sol\":1005:1023  string public name */\n        tag_16:\n          0x01\n          dup1\n          sload\n          tag_57\n          swap1\n          tag_58\n          jump\t// in\n        tag_57:\n          dup1\n          0x1f\n          add\n          0x20\n          dup1\n          swap2\n          div\n          mul\n          0x20\n          add\n          mload(0x40)\n          swap1\n          dup2\n          add\n          0x40\n          mstore\n          dup1\n          swap3\n          swap2\n          swap1\n          dup2\n          dup2\n          mstore\n          0x20\n          add\n          dup3\n          dup1\n          sload\n          tag_59\n          swap1\n          tag_58\n          jump\t// in\n        tag_59:\n          dup1\n          iszero\n          tag_60\n          jumpi\n          dup1\n          0x1f\n          lt\n          tag_61\n          jumpi\n          0x0100\n          dup1\n          dup4\n          sload\n          div\n          mul\n          dup4\n          mstore\n          swap2\n          0x20\n          add\n          swap2\n          jump(tag_60)\n        tag_61:\n          dup3\n          add\n          swap2\n          swap1\n          0x00\n          mstore\n          keccak256(0x00, 0x20)\n          swap1\n        tag_62:\n          dup2\n          sload\n          dup2\n          mstore\n          swap1\n          0x01\n          add\n          swap1\n          0x20\n          add\n          dup1\n          dup4\n          gt\n          tag_62\n          jumpi\n          dup3\n          swap1\n          sub\n          0x1f\n          and\n          dup3\n          add\n          swap2\n        tag_60:\n          pop\n          pop\n          pop\n          pop\n          pop\n          dup2\n          jump\t// out\n            /* \"contracts/ERC20Standard.sol\":2699:2851  function  approve(address _spender, uint _value) public {\r... */\n        tag_22:\n            /* \"contracts/ERC20Standard.sol\":2792:2798  _value */\n          dup1\n            /* \"contracts/ERC20Standard.sol\":2760:2767  allowed */\n          0x06\n            /* \"contracts/ERC20Standard.sol\":2760:2779  allowed[msg.sender] */\n          0x00\n            /* \"contracts/ERC20Standard.sol\":2768:2778  msg.sender */\n          caller\n            /* \"contracts/ERC20Standard.sol\":2760:2779  allowed[msg.sender] */\n          0xffffffffffffffffffffffffffffffffffffffff\n          and\n          0xffffffffffffffffffffffffffffffffffffffff\n          and\n          dup2\n          mstore\n          0x20\n          add\n          swap1\n          dup2\n          mstore\n          0x20\n          add\n          0x00\n          keccak256\n            /* \"contracts/ERC20Standard.sol\":2760:2789  allowed[msg.sender][_spender] */\n          0x00\n            /* \"contracts/ERC20Standard.sol\":2780:2788  _spender */\n          dup5\n            /* \"contracts/ERC20Standard.sol\":2760:2789  allowed[msg.sender][_spender] */\n          0xffffffffffffffffffffffffffffffffffffffff\n          and\n          0xffffffffffffffffffffffffffffffffffffffff\n          and\n          dup2\n          mstore\n          0x20\n          add\n          swap1\n          dup2\n          mstore\n          0x20\n          add\n          0x00\n          keccak256\n            /* \"contracts/ERC20Standard.sol\":2760:2798  allowed[msg.sender][_spender] = _value */\n          dup2\n          swap1\n          sstore\n          pop\n            /* \"contracts/ERC20Standard.sol\":2829:2837  _spender */\n          dup2\n            /* \"contracts/ERC20Standard.sol\":2808:2846  Approval(msg.sender, _spender, _value) */\n          0xffffffffffffffffffffffffffffffffffffffff\n          and\n            /* \"contracts/ERC20Standard.sol\":2817:2827  msg.sender */\n          caller\n            /* \"contracts/ERC20Standard.sol\":2808:2846  Approval(msg.sender, _spender, _value) */\n          0xffffffffffffffffffffffffffffffffffffffff\n          and\n          0x8c5be1e5ebec7d5bd14f71427d1e84f3dd0314c0f7b2291e5b200ac8c7c3b925\n            /* \"contracts/ERC20Standard.sol\":2839:2845  _value */\n          dup4\n            /* \"contracts/ERC20Standard.sol\":2808:2846  Approval(msg.sender, _spender, _value) */\n          mload(0x40)\n          tag_64\n          swap2\n          swap1\n          tag_26\n          jump\t// in\n        tag_64:\n          mload(0x40)\n          dup1\n          swap2\n          sub\n          swap1\n          log3\n            /* \"contracts/ERC20Standard.sol\":2699:2851  function  approve(address _spender, uint _value) public {\r... */\n          pop\n          pop\n          jump\t// out\n            /* \"contracts/ERC20Standard.sol\":975:998  uint public totalSupply */\n        tag_24:\n          sload(0x00)\n          dup2\n          jump\t// out\n            /* \"contracts/ERC20Standard.sol\":1846:2303  function transferFrom(address _from, address _to, uint _value) public {\r... */\n        tag_30:\n            /* \"contracts/ERC20Standard.sol\":1938:1939  0 */\n          0x00\n            /* \"contracts/ERC20Standard.sol\":1929:1935  _value */\n          dup2\n            /* \"contracts/ERC20Standard.sol\":1929:1939  _value > 0 */\n          gt\n            /* \"contracts/ERC20Standard.sol\":1921:1955  require(_value > 0, \"Amount <= 0\") */\n          tag_66\n          jumpi\n          mload(0x40)\n          0x08c379a000000000000000000000000000000000000000000000000000000000\n          dup2\n          mstore\n          0x04\n          add\n          tag_67\n          swap1\n          tag_68\n          jump\t// in\n        tag_67:\n          mload(0x40)\n          dup1\n          swap2\n          sub\n          swap1\n          revert\n        tag_66:\n            /* \"contracts/ERC20Standard.sol\":1990:1996  _value */\n          dup1\n            /* \"contracts/ERC20Standard.sol\":1971:1979  balances */\n          0x05\n            /* \"contracts/ERC20Standard.sol\":1971:1986  balances[_from] */\n          0x00\n            /* \"contracts/ERC20Standard.sol\":1980:1985  _from */\n          dup6\n            /* \"contracts/ERC20Standard.sol\":1971:1986  balances[_from] */\n          0xffffffffffffffffffffffffffffffffffffffff\n          and\n          0xffffffffffffffffffffffffffffffffffffffff\n          and\n          dup2\n          mstore\n          0x20\n          add\n          swap1\n          dup2\n          mstore\n          0x20\n          add\n          0x00\n          keccak256\n          sload\n            /* \"contracts/ERC20Standard.sol\":1971:1996  balances[_from] >= _value */\n          lt\n          iszero\n            /* \"contracts/ERC20Standard.sol\":1963:2017  require(balances[_from] >= _value, \"Balance < amount\") */\n          tag_69\n          jumpi\n          mload(0x40)\n          0x08c379a000000000000000000000000000000000000000000000000000000000\n          dup2\n          mstore\n          0x04\n          add\n          tag_70\n          swap1\n          tag_71\n          jump\t// in\n        tag_70:\n          mload(0x40)\n          dup1\n          swap2\n          sub\n          swap1\n          revert\n        tag_69:\n            /* \"contracts/ERC20Standard.sol\":2060:2066  _value */\n          dup1\n            /* \"contracts/ERC20Standard.sol\":2030:2037  allowed */\n          0x06\n            /* \"contracts/ERC20Standard.sol\":2030:2044  allowed[_from] */\n          0x00\n            /* \"contracts/ERC20Standard.sol\":2038:2043  _from */\n          dup6\n            /* \"contracts/ERC20Standard.sol\":2030:2044  allowed[_from] */\n          0xffffffffffffffffffffffffffffffffffffffff\n          and\n          0xffffffffffffffffffffffffffffffffffffffff\n          and\n          dup2\n          mstore\n          0x20\n          add\n          swap1\n          dup2\n          mstore\n          0x20\n          add\n          0x00\n          keccak256\n            /* \"contracts/ERC20Standard.sol\":2030:2056  allowed[_from][msg.sender] */\n          0x00\n            /* \"contracts/ERC20Standard.sol\":2045:2055  msg.sender */\n          caller\n            /* \"contracts/ERC20Standard.sol\":2030:2056  allowed[_from][msg.sender] */\n          0xffffffffffffffffffffffffffffffffffffffff\n          and\n          0xffffffffffffffffffffffffffffffffffffffff\n          and\n          dup2\n          mstore\n          0x20\n          add\n          swap1\n          dup2\n          mstore\n          0x20\n          add\n          0x00\n          keccak256\n          sload\n            /* \"contracts/ERC20Standard.sol\":2030:2066  allowed[_from][msg.sender] >= _value */\n          lt\n          iszero\n            /* \"contracts/ERC20Standard.sol\":2022:2085  require(allowed[_from][msg.sender] >= _value, \"Don't allowed.\") */\n          tag_72\n          jumpi\n          mload(0x40)\n          0x08c379a000000000000000000000000000000000000000000000000000000000\n          dup2\n          mstore\n          0x04\n          add\n          tag_73\n          swap1\n          tag_74\n          jump\t// in\n        tag_73:\n          mload(0x40)\n          dup1\n          swap2\n          sub\n          swap1\n          revert\n        tag_72:\n            /* \"contracts/ERC20Standard.sol\":2106:2131  balances[_to].add(_value) */\n          tag_75\n            /* \"contracts/ERC20Standard.sol\":2124:2130  _value */\n          dup2\n            /* \"contracts/ERC20Standard.sol\":2106:2114  balances */\n          0x05\n            /* \"contracts/ERC20Standard.sol\":2106:2119  balances[_to] */\n          0x00\n            /* \"contracts/ERC20Standard.sol\":2115:2118  _to */\n          dup6\n            /* \"contracts/ERC20Standard.sol\":2106:2119  balances[_to] */\n          0xffffffffffffffffffffffffffffffffffffffff\n          and\n          0xffffffffffffffffffffffffffffffffffffffff\n          and\n          dup2\n          mstore\n          0x20\n          add\n          swap1\n          dup2\n          mstore\n          0x20\n          add\n          0x00\n          keccak256\n          sload\n            /* \"contracts/ERC20Standard.sol\":2106:2123  balances[_to].add */\n          tag_76\n          swap1\n            /* \"contracts/ERC20Standard.sol\":2106:2131  balances[_to].add(_value) */\n          swap2\n          swap1\n          0xffffffff\n          and\n          jump\t// in\n        tag_75:\n            /* \"contracts/ERC20Standard.sol\":2090:2098  balances */\n          0x05\n            /* \"contracts/ERC20Standard.sol\":2090:2103  balances[_to] */\n          0x00\n            /* \"contracts/ERC20Standard.sol\":2099:2102  _to */\n          dup5\n            /* \"contracts/ERC20Standard.sol\":2090:2103  balances[_to] */\n          0xffffffffffffffffffffffffffffffffffffffff\n          and\n          0xffffffffffffffffffffffffffffffffffffffff\n          and\n          dup2\n          mstore\n          0x20\n          add\n          swap1\n          dup2\n          mstore\n          0x20\n          add\n          0x00\n          keccak256\n            /* \"contracts/ERC20Standard.sol\":2090:2131  balances[_to] = balances[_to].add(_value) */\n          dup2\n          swap1\n          sstore\n          pop\n            /* \"contracts/ERC20Standard.sol\":2154:2181  balances[_from].sub(_value) */\n          tag_77\n            /* \"contracts/ERC20Standard.sol\":2174:2180  _value */\n          dup2\n            /* \"contracts/ERC20Standard.sol\":2154:2162  balances */\n          0x05\n            /* \"contracts/ERC20Standard.sol\":2154:2169  balances[_from] */\n          0x00\n            /* \"contracts/ERC20Standard.sol\":2163:2168  _from */\n          dup7\n            /* \"contracts/ERC20Standard.sol\":2154:2169  balances[_from] */\n          0xffffffffffffffffffffffffffffffffffffffff\n          and\n          0xffffffffffffffffffffffffffffffffffffffff\n          and\n          dup2\n          mstore\n          0x20\n          add\n          swap1\n          dup2\n          mstore\n          0x20\n          add\n          0x00\n          keccak256\n          sload\n            /* \"contracts/ERC20Standard.sol\":2154:2173  balances[_from].sub */\n          tag_78\n          swap1\n            /* \"contracts/ERC20Standard.sol\":2154:2181  balances[_from].sub(_value) */\n          swap2\n          swap1\n          0xffffffff\n          and\n          jump\t// in\n        tag_77:\n            /* \"contracts/ERC20Standard.sol\":2136:2144  balances */\n          0x05\n            /* \"contracts/ERC20Standard.sol\":2136:2151  balances[_from] */\n          0x00\n            /* \"contracts/ERC20Standard.sol\":2145:2150  _from */\n          dup6\n            /* \"contracts/ERC20Standard.sol\":2136:2151  balances[_from] */\n          0xffffffffffffffffffffffffffffffffffffffff\n          and\n          0xffffffffffffffffffffffffffffffffffffffff\n          and\n          dup2\n          mstore\n          0x20\n          add\n          swap1\n          dup2\n          mstore\n          0x20\n          add\n          0x00\n          keccak256\n            /* \"contracts/ERC20Standard.sol\":2136:2181  balances[_from] = balances[_from].sub(_value) */\n          dup2\n          swap1\n          sstore\n          pop\n            /* \"contracts/ERC20Standard.sol\":2215:2253  allowed[_from][msg.sender].sub(_value) */\n          tag_79\n            /* \"contracts/ERC20Standard.sol\":2246:2252  _value */\n          dup2\n            /* \"contracts/ERC20Standard.sol\":2215:2222  allowed */\n          0x06\n            /* \"contracts/ERC20Standard.sol\":2215:2229  allowed[_from] */\n          0x00\n            /* \"contracts/ERC20Standard.sol\":2223:2228  _from */\n          dup7\n            /* \"contracts/ERC20Standard.sol\":2215:2229  allowed[_from] */\n          0xffffffffffffffffffffffffffffffffffffffff\n          and\n          0xffffffffffffffffffffffffffffffffffffffff\n          and\n          dup2\n          mstore\n          0x20\n          add\n          swap1\n          dup2\n          mstore\n          0x20\n          add\n          0x00\n          keccak256\n            /* \"contracts/ERC20Standard.sol\":2215:2241  allowed[_from][msg.sender] */\n          0x00\n            /* \"contracts/ERC20Standard.sol\":2230:2240  msg.sender */\n          caller\n            /* \"contracts/ERC20Standard.sol\":2215:2241  allowed[_from][msg.sender] */\n          0xffffffffffffffffffffffffffffffffffffffff\n          and\n          0xffffffffffffffffffffffffffffffffffffffff\n          and\n          dup2\n          mstore\n          0x20\n          add\n          swap1\n          dup2\n          mstore\n          0x20\n          add\n          0x00\n          keccak256\n          sload\n            /* \"contracts/ERC20Standard.sol\":2215:2245  allowed[_from][msg.sender].sub */\n          tag_78\n          swap1\n            /* \"contracts/ERC20Standard.sol\":2215:2253  allowed[_from][msg.sender].sub(_value) */\n          swap2\n          swap1\n          0xffffffff\n          and\n          jump\t// in\n        tag_79:\n            /* \"contracts/ERC20Standard.sol\":2186:2193  allowed */\n          0x06\n            /* \"contracts/ERC20Standard.sol\":2186:2200  allowed[_from] */\n          0x00\n            /* \"contracts/ERC20Standard.sol\":2194:2199  _from */\n          dup6\n            /* \"contracts/ERC20Standard.sol\":2186:2200  allowed[_from] */\n          0xffffffffffffffffffffffffffffffffffffffff\n          and\n          0xffffffffffffffffffffffffffffffffffffffff\n          and\n          dup2\n          mstore\n          0x20\n          add\n          swap1\n          dup2\n          mstore\n          0x20\n          add\n          0x00\n          keccak256\n            /* \"contracts/ERC20Standard.sol\":2186:2212  allowed[_from][msg.sender] */\n          0x00\n            /* \"contracts/ERC20Standard.sol\":2201:2211  msg.sender */\n          caller\n            /* \"contracts/ERC20Standard.sol\":2186:2212  allowed[_from][msg.sender] */\n          0xffffffffffffffffffffffffffffffffffffffff\n          and\n          0xffffffffffffffffffffffffffffffffffffffff\n          and\n          dup2\n          mstore\n          0x20\n          add\n          swap1\n          dup2\n          mstore\n          0x20\n          add\n          0x00\n          keccak256\n            /* \"contracts/ERC20Standard.sol\":2186:2253  allowed[_from][msg.sender] = allowed[_from][msg.sender].sub(_value) */\n          dup2\n          swap1\n          sstore\n          pop\n            /* \"contracts/ERC20Standard.sol\":2279:2282  _to */\n          dup2\n            /* \"contracts/ERC20Standard.sol\":2263:2291  Transfer(_from, _to, _value) */\n          0xffffffffffffffffffffffffffffffffffffffff\n          and\n            /* \"contracts/ERC20Standard.sol\":2272:2277  _from */\n          dup4\n            /* \"contracts/ERC20Standard.sol\":2263:2291  Transfer(_from, _to, _value) */\n          0xffffffffffffffffffffffffffffffffffffffff\n          and\n          0xddf252ad1be2c89b69c2b068fc378daa952ba7f163c4a11628f55a4df523b3ef\n            /* \"contracts/ERC20Standard.sol\":2284:2290  _value */\n          dup4\n            /* \"contracts/ERC20Standard.sol\":2263:2291  Transfer(_from, _to, _value) */\n          mload(0x40)\n          tag_80\n          swap2\n          swap1\n          tag_26\n          jump\t// in\n        tag_80:\n          mload(0x40)\n          dup1\n          swap2\n          sub\n          swap1\n          log3\n            /* \"contracts/ERC20Standard.sol\":1846:2303  function transferFrom(address _from, address _to, uint _value) public {\r... */\n          pop\n          pop\n          pop\n          jump\t// out\n            /* \"contracts/ERC20Standard.sol\":1027:1048  uint8 public decimals */\n        tag_32:\n          0x02\n          0x00\n          swap1\n          sload\n          swap1\n          0x0100\n          exp\n          swap1\n          div\n          0xff\n          and\n          dup2\n          jump\t// out\n            /* \"contracts/ERC20Standard.sol\":2308:2694  function mint(address account, uint256 amount) public {\r... */\n        tag_37:\n            /* \"contracts/ERC20Standard.sol\":2400:2401  0 */\n          0x00\n            /* \"contracts/ERC20Standard.sol\":2381:2402  account != address(0) */\n          0xffffffffffffffffffffffffffffffffffffffff\n          and\n            /* \"contracts/ERC20Standard.sol\":2381:2388  account */\n          dup3\n            /* \"contracts/ERC20Standard.sol\":2381:2402  account != address(0) */\n          0xffffffffffffffffffffffffffffffffffffffff\n          and\n          eq\n          iszero\n            /* \"contracts/ERC20Standard.sol\":2373:2438  require(account != address(0), \"ERC20: mint to the zero address\") */\n          tag_82\n          jumpi\n          mload(0x40)\n          0x08c379a000000000000000000000000000000000000000000000000000000000\n          dup2\n          mstore\n          0x04\n          add\n          tag_83\n          swap1\n          tag_84\n          jump\t// in\n        tag_83:\n          mload(0x40)\n          dup1\n          swap2\n          sub\n          swap1\n          revert\n        tag_82:\n            /* \"contracts/ERC20Standard.sol\":2451:2500  _beforeTokenTransfer(address(0), account, amount) */\n          tag_85\n            /* \"contracts/ERC20Standard.sol\":2480:2481  0 */\n          0x00\n            /* \"contracts/ERC20Standard.sol\":2484:2491  account */\n          dup4\n            /* \"contracts/ERC20Standard.sol\":2493:2499  amount */\n          dup4\n            /* \"contracts/ERC20Standard.sol\":2451:2471  _beforeTokenTransfer */\n          tag_86\n            /* \"contracts/ERC20Standard.sol\":2451:2500  _beforeTokenTransfer(address(0), account, amount) */\n          jump\t// in\n        tag_85:\n            /* \"contracts/ERC20Standard.sol\":2528:2534  amount */\n          dup1\n            /* \"contracts/ERC20Standard.sol\":2513:2524  totalSupply */\n          0x00\n          dup1\n            /* \"contracts/ERC20Standard.sol\":2513:2534  totalSupply += amount */\n          dup3\n          dup3\n          sload\n          tag_87\n          swap2\n          swap1\n          tag_88\n          jump\t// in\n        tag_87:\n          swap3\n          pop\n          pop\n          dup2\n          swap1\n          sstore\n          pop\n            /* \"contracts/ERC20Standard.sol\":2566:2572  amount */\n          dup1\n            /* \"contracts/ERC20Standard.sol\":2545:2553  balances */\n          0x05\n            /* \"contracts/ERC20Standard.sol\":2545:2562  balances[account] */\n          0x00\n            /* \"contracts/ERC20Standard.sol\":2554:2561  account */\n          dup5\n            /* \"contracts/ERC20Standard.sol\":2545:2562  balances[account] */\n          0xffffffffffffffffffffffffffffffffffffffff\n          and\n          0xffffffffffffffffffffffffffffffffffffffff\n          and\n          dup2\n          mstore\n          0x20\n          add\n          swap1\n          dup2\n          mstore\n          0x20\n          add\n          0x00\n          keccak256\n          0x00\n            /* \"contracts/ERC20Standard.sol\":2545:2572  balances[account] += amount */\n          dup3\n          dup3\n          sload\n          tag_89\n          swap2\n          swap1\n          tag_88\n          jump\t// in\n        tag_89:\n          swap3\n          pop\n          pop\n          dup2\n          swap1\n          sstore\n          pop\n            /* \"contracts/ERC20Standard.sol\":2609:2616  account */\n          dup2\n            /* \"contracts/ERC20Standard.sol\":2588:2625  Transfer(address(0), account, amount) */\n          0xffffffffffffffffffffffffffffffffffffffff\n          and\n            /* \"contracts/ERC20Standard.sol\":2605:2606  0 */\n          0x00\n            /* \"contracts/ERC20Standard.sol\":2588:2625  Transfer(address(0), account, amount) */\n          0xffffffffffffffffffffffffffffffffffffffff\n          and\n          0xddf252ad1be2c89b69c2b068fc378daa952ba7f163c4a11628f55a4df523b3ef\n            /* \"contracts/ERC20Standard.sol\":2618:2624  amount */\n          dup4\n            /* \"contracts/ERC20Standard.sol\":2588:2625  Transfer(address(0), account, amount) */\n          mload(0x40)\n          tag_90\n          swap2\n          swap1\n          tag_26\n          jump\t// in\n        tag_90:\n          mload(0x40)\n          dup1\n          swap2\n          sub\n          swap1\n          log3\n            /* \"contracts/ERC20Standard.sol\":2638:2686  _afterTokenTransfer(address(0), account, amount) */\n          tag_91\n            /* \"contracts/ERC20Standard.sol\":2666:2667  0 */\n          0x00\n            /* \"contracts/ERC20Standard.sol\":2670:2677  account */\n          dup4\n            /* \"contracts/ERC20Standard.sol\":2679:2685  amount */\n          dup4\n            /* \"contracts/ERC20Standard.sol\":2638:2657  _afterTokenTransfer */\n          tag_92\n            /* \"contracts/ERC20Standard.sol\":2638:2686  _afterTokenTransfer(address(0), account, amount) */\n          jump\t// in\n        tag_91:\n            /* \"contracts/ERC20Standard.sol\":2308:2694  function mint(address account, uint256 amount) public {\r... */\n          pop\n          pop\n          jump\t// out\n            /* \"contracts/ERC20Standard.sol\":1076:1097  string public version */\n        tag_39:\n          0x04\n          dup1\n          sload\n          tag_93\n          swap1\n          tag_58\n          jump\t// in\n        tag_93:\n          dup1\n          0x1f\n          add\n          0x20\n          dup1\n          swap2\n          div\n          mul\n          0x20\n          add\n          mload(0x40)\n          swap1\n          dup2\n          add\n          0x40\n          mstore\n          dup1\n          swap3\n          swap2\n          swap1\n          dup2\n          dup2\n          mstore\n          0x20\n          add\n          dup3\n          dup1\n          sload\n          tag_94\n          swap1\n          tag_58\n          jump\t// in\n        tag_94:\n          dup1\n          iszero\n          tag_95\n          jumpi\n          dup1\n          0x1f\n          lt\n          tag_96\n          jumpi\n          0x0100\n          dup1\n          dup4\n          sload\n          div\n          mul\n          dup4\n          mstore\n          swap2\n          0x20\n          add\n          swap2\n          jump(tag_95)\n        tag_96:\n          dup3\n          add\n          swap2\n          swap1\n          0x00\n          mstore\n          keccak256(0x00, 0x20)\n          swap1\n        tag_97:\n          dup2\n          sload\n          dup2\n          mstore\n          swap1\n          0x01\n          add\n          swap1\n          0x20\n          add\n          dup1\n          dup4\n          gt\n          tag_97\n          jumpi\n          dup3\n          swap1\n          sub\n          0x1f\n          and\n          dup3\n          add\n          swap2\n        tag_95:\n          pop\n          pop\n          pop\n          pop\n          pop\n          dup2\n          jump\t// out\n            /* \"contracts/ERC20Standard.sol\":1345:1448  function balanceOf(address _owner) public view returns (uint balance) {\r... */\n        tag_44:\n            /* \"contracts/ERC20Standard.sol\":1401:1413  uint balance */\n          0x00\n            /* \"contracts/ERC20Standard.sol\":1427:1435  balances */\n          0x05\n            /* \"contracts/ERC20Standard.sol\":1427:1443  balances[_owner] */\n          0x00\n            /* \"contracts/ERC20Standard.sol\":1436:1442  _owner */\n          dup4\n            /* \"contracts/ERC20Standard.sol\":1427:1443  balances[_owner] */\n          0xffffffffffffffffffffffffffffffffffffffff\n          and\n          0xffffffffffffffffffffffffffffffffffffffff\n          and\n          dup2\n          mstore\n          0x20\n          add\n          swap1\n          dup2\n          mstore\n          0x20\n          add\n          0x00\n          keccak256\n          sload\n            /* \"contracts/ERC20Standard.sol\":1420:1443  return balances[_owner] */\n          swap1\n          pop\n            /* \"contracts/ERC20Standard.sol\":1345:1448  function balanceOf(address _owner) public view returns (uint balance) {\r... */\n          swap2\n          swap1\n          pop\n          jump\t// out\n            /* \"contracts/ERC20Standard.sol\":1052:1072  string public symbol */\n        tag_47:\n          0x03\n          dup1\n          sload\n          tag_99\n          swap1\n          tag_58\n          jump\t// in\n        tag_99:\n          dup1\n          0x1f\n          add\n          0x20\n          dup1\n          swap2\n          div\n          mul\n          0x20\n          add\n          mload(0x40)\n          swap1\n          dup2\n          add\n          0x40\n          mstore\n          dup1\n          swap3\n          swap2\n          swap1\n          dup2\n          dup2\n          mstore\n          0x20\n          add\n          dup3\n          dup1\n          sload\n          tag_100\n          swap1\n          tag_58\n          jump\t// in\n        tag_100:\n          dup1\n          iszero\n          tag_101\n          jumpi\n          dup1\n          0x1f\n          lt\n          tag_102\n          jumpi\n          0x0100\n          dup1\n          dup4\n          sload\n          div\n          mul\n          dup4\n          mstore\n          swap2\n          0x20\n          add\n          swap2\n          jump(tag_101)\n        tag_102:\n          dup3\n          add\n          swap2\n          swap1\n          0x00\n          mstore\n          keccak256(0x00, 0x20)\n          swap1\n        tag_103:\n          dup2\n          sload\n          dup2\n          mstore\n          swap1\n          0x01\n          add\n          swap1\n          0x20\n          add\n          dup1\n          dup4\n          gt\n          tag_103\n          jumpi\n          dup3\n          swap1\n          sub\n          0x1f\n          and\n          dup3\n          add\n          swap2\n        tag_101:\n          pop\n          pop\n          pop\n          pop\n          pop\n          dup2\n          jump\t// out\n            /* \"contracts/ERC20Standard.sol\":1453:1841  function transfer(address _recipient, uint _value) public onlyPayloadSize(2*32) {\r... */\n        tag_51:\n            /* \"contracts/ERC20Standard.sol\":1527:1531  2*32 */\n          0x40\n            /* \"contracts/ERC20Standard.sol\":1326:1327  4 */\n          0x04\n            /* \"contracts/ERC20Standard.sol\":1319:1323  size */\n          dup2\n            /* \"contracts/ERC20Standard.sol\":1319:1327  size + 4 */\n          tag_105\n          swap2\n          swap1\n          tag_88\n          jump\t// in\n        tag_105:\n            /* \"contracts/ERC20Standard.sol\":1300:1308  msg.data */\n          0x00\n          calldatasize\n            /* \"contracts/ERC20Standard.sol\":1300:1315  msg.data.length */\n          swap1\n          pop\n            /* \"contracts/ERC20Standard.sol\":1300:1327  msg.data.length == size + 4 */\n          eq\n            /* \"contracts/ERC20Standard.sol\":1293:1328  assert(msg.data.length == size + 4) */\n          tag_106\n          jumpi\n          tag_107\n          tag_108\n          jump\t// in\n        tag_107:\n        tag_106:\n            /* \"contracts/ERC20Standard.sol\":1555:1556  0 */\n          0x00\n            /* \"contracts/ERC20Standard.sol\":1546:1552  _value */\n          dup3\n            /* \"contracts/ERC20Standard.sol\":1546:1556  _value > 0 */\n          gt\n            /* \"contracts/ERC20Standard.sol\":1538:1572  require(_value > 0, \"Amount <= 0\") */\n          tag_110\n          jumpi\n          mload(0x40)\n          0x08c379a000000000000000000000000000000000000000000000000000000000\n          dup2\n          mstore\n          0x04\n          add\n          tag_111\n          swap1\n          tag_68\n          jump\t// in\n        tag_111:\n          mload(0x40)\n          dup1\n          swap2\n          sub\n          swap1\n          revert\n        tag_110:\n            /* \"contracts/ERC20Standard.sol\":1613:1619  _value */\n          dup2\n            /* \"contracts/ERC20Standard.sol\":1588:1609  balanceOf(msg.sender) */\n          tag_112\n            /* \"contracts/ERC20Standard.sol\":1598:1608  msg.sender */\n          caller\n            /* \"contracts/ERC20Standard.sol\":1588:1597  balanceOf */\n          tag_44\n            /* \"contracts/ERC20Standard.sol\":1588:1609  balanceOf(msg.sender) */\n          jump\t// in\n        tag_112:\n            /* \"contracts/ERC20Standard.sol\":1588:1619  balanceOf(msg.sender) >= _value */\n          lt\n          iszero\n            /* \"contracts/ERC20Standard.sol\":1580:1640  require(balanceOf(msg.sender) >= _value, \"Balance < amount\") */\n          tag_113\n          jumpi\n          mload(0x40)\n          0x08c379a000000000000000000000000000000000000000000000000000000000\n          dup2\n          mstore\n          0x04\n          add\n          tag_114\n          swap1\n          tag_71\n          jump\t// in\n        tag_114:\n          mload(0x40)\n          dup1\n          swap2\n          sub\n          swap1\n          revert\n        tag_113:\n            /* \"contracts/ERC20Standard.sol\":1673:1705  balances[msg.sender].sub(_value) */\n          tag_115\n            /* \"contracts/ERC20Standard.sol\":1698:1704  _value */\n          dup3\n            /* \"contracts/ERC20Standard.sol\":1673:1681  balances */\n          0x05\n            /* \"contracts/ERC20Standard.sol\":1673:1693  balances[msg.sender] */\n          0x00\n            /* \"contracts/ERC20Standard.sol\":1682:1692  msg.sender */\n          caller\n            /* \"contracts/ERC20Standard.sol\":1673:1693  balances[msg.sender] */\n          0xffffffffffffffffffffffffffffffffffffffff\n          and\n          0xffffffffffffffffffffffffffffffffffffffff\n          and\n          dup2\n          mstore\n          0x20\n          add\n          swap1\n          dup2\n          mstore\n          0x20\n          add\n          0x00\n          keccak256\n          sload\n            /* \"contracts/ERC20Standard.sol\":1673:1697  balances[msg.sender].sub */\n          tag_78\n          swap1\n            /* \"contracts/ERC20Standard.sol\":1673:1705  balances[msg.sender].sub(_value) */\n          swap2\n          swap1\n          0xffffffff\n          and\n          jump\t// in\n        tag_115:\n            /* \"contracts/ERC20Standard.sol\":1650:1658  balances */\n          0x05\n            /* \"contracts/ERC20Standard.sol\":1650:1670  balances[msg.sender] */\n          0x00\n            /* \"contracts/ERC20Standard.sol\":1659:1669  msg.sender */\n          caller\n            /* \"contracts/ERC20Standard.sol\":1650:1670  balances[msg.sender] */\n          0xffffffffffffffffffffffffffffffffffffffff\n          and\n          0xffffffffffffffffffffffffffffffffffffffff\n          and\n          dup2\n          mstore\n          0x20\n          add\n          swap1\n          dup2\n          mstore\n          0x20\n          add\n          0x00\n          keccak256\n            /* \"contracts/ERC20Standard.sol\":1650:1705  balances[msg.sender] = balances[msg.sender].sub(_value) */\n          dup2\n          swap1\n          sstore\n          pop\n            /* \"contracts/ERC20Standard.sol\":1736:1768  balances[_recipient].add(_value) */\n          tag_116\n            /* \"contracts/ERC20Standard.sol\":1761:1767  _value */\n          dup3\n            /* \"contracts/ERC20Standard.sol\":1736:1744  balances */\n          0x05\n            /* \"contracts/ERC20Standard.sol\":1736:1756  balances[_recipient] */\n          0x00\n            /* \"contracts/ERC20Standard.sol\":1745:1755  _recipient */\n          dup7\n            /* \"contracts/ERC20Standard.sol\":1736:1756  balances[_recipient] */\n          0xffffffffffffffffffffffffffffffffffffffff\n          and\n          0xffffffffffffffffffffffffffffffffffffffff\n          and\n          dup2\n          mstore\n          0x20\n          add\n          swap1\n          dup2\n          mstore\n          0x20\n          add\n          0x00\n          keccak256\n          sload\n            /* \"contracts/ERC20Standard.sol\":1736:1760  balances[_recipient].add */\n          tag_76\n          swap1\n            /* \"contracts/ERC20Standard.sol\":1736:1768  balances[_recipient].add(_value) */\n          swap2\n          swap1\n          0xffffffff\n          and\n          jump\t// in\n        tag_116:\n            /* \"contracts/ERC20Standard.sol\":1713:1721  balances */\n          0x05\n            /* \"contracts/ERC20Standard.sol\":1713:1733  balances[_recipient] */\n          0x00\n            /* \"contracts/ERC20Standard.sol\":1722:1732  _recipient */\n          dup6\n            /* \"contracts/ERC20Standard.sol\":1713:1733  balances[_recipient] */\n          0xffffffffffffffffffffffffffffffffffffffff\n          and\n          0xffffffffffffffffffffffffffffffffffffffff\n          and\n          dup2\n          mstore\n          0x20\n          add\n          swap1\n          dup2\n          mstore\n          0x20\n          add\n          0x00\n          keccak256\n            /* \"contracts/ERC20Standard.sol\":1713:1768  balances[_recipient] = balances[_recipient].add(_value) */\n          dup2\n          swap1\n          sstore\n          pop\n            /* \"contracts/ERC20Standard.sol\":1802:1812  _recipient */\n          dup3\n            /* \"contracts/ERC20Standard.sol\":1781:1821  Transfer(msg.sender, _recipient, _value) */\n          0xffffffffffffffffffffffffffffffffffffffff\n          and\n            /* \"contracts/ERC20Standard.sol\":1790:1800  msg.sender */\n          caller\n            /* \"contracts/ERC20Standard.sol\":1781:1821  Transfer(msg.sender, _recipient, _value) */\n          0xffffffffffffffffffffffffffffffffffffffff\n          and\n          0xddf252ad1be2c89b69c2b068fc378daa952ba7f163c4a11628f55a4df523b3ef\n            /* \"contracts/ERC20Standard.sol\":1814:1820  _value */\n          dup5\n            /* \"contracts/ERC20Standard.sol\":1781:1821  Transfer(msg.sender, _recipient, _value) */\n          mload(0x40)\n          tag_117\n          swap2\n          swap1\n          tag_26\n          jump\t// in\n        tag_117:\n          mload(0x40)\n          dup1\n          swap2\n          sub\n          swap1\n          log3\n            /* \"contracts/ERC20Standard.sol\":1453:1841  function transfer(address _recipient, uint _value) public onlyPayloadSize(2*32) {\r... */\n          pop\n          pop\n          pop\n          jump\t// out\n            /* \"contracts/ERC20Standard.sol\":2856:2986  function allowance(address _spender, address _owner) public view returns (uint balance) {\r... */\n        tag_55:\n            /* \"contracts/ERC20Standard.sol\":2930:2942  uint balance */\n          0x00\n            /* \"contracts/ERC20Standard.sol\":2956:2963  allowed */\n          0x06\n            /* \"contracts/ERC20Standard.sol\":2956:2971  allowed[_owner] */\n          0x00\n            /* \"contracts/ERC20Standard.sol\":2964:2970  _owner */\n          dup4\n            /* \"contracts/ERC20Standard.sol\":2956:2971  allowed[_owner] */\n          0xffffffffffffffffffffffffffffffffffffffff\n          and\n          0xffffffffffffffffffffffffffffffffffffffff\n          and\n          dup2\n          mstore\n          0x20\n          add\n          swap1\n          dup2\n          mstore\n          0x20\n          add\n          0x00\n          keccak256\n            /* \"contracts/ERC20Standard.sol\":2956:2981  allowed[_owner][_spender] */\n          0x00\n            /* \"contracts/ERC20Standard.sol\":2972:2980  _spender */\n          dup5\n            /* \"contracts/ERC20Standard.sol\":2956:2981  allowed[_owner][_spender] */\n          0xffffffffffffffffffffffffffffffffffffffff\n          and\n          0xffffffffffffffffffffffffffffffffffffffff\n          and\n          dup2\n          mstore\n          0x20\n          add\n          swap1\n          dup2\n          mstore\n          0x20\n          add\n          0x00\n          keccak256\n          sload\n            /* \"contracts/ERC20Standard.sol\":2949:2981  return allowed[_owner][_spender] */\n          swap1\n          pop\n            /* \"contracts/ERC20Standard.sol\":2856:2986  function allowance(address _spender, address _owner) public view returns (uint balance) {\r... */\n          swap3\n          swap2\n          pop\n          pop\n          jump\t// out\n            /* \"contracts/ERC20Standard.sol\":629:779  function add(uint256 a, uint256 b) internal pure returns (uint256) {\r... */\n        tag_76:\n            /* \"contracts/ERC20Standard.sol\":687:694  uint256 */\n          0x00\n            /* \"contracts/ERC20Standard.sol\":707:716  uint256 c */\n          dup1\n            /* \"contracts/ERC20Standard.sol\":723:724  b */\n          dup3\n            /* \"contracts/ERC20Standard.sol\":719:720  a */\n          dup5\n            /* \"contracts/ERC20Standard.sol\":719:724  a + b */\n          tag_120\n          swap2\n          swap1\n          tag_88\n          jump\t// in\n        tag_120:\n            /* \"contracts/ERC20Standard.sol\":707:724  uint256 c = a + b */\n          swap1\n          pop\n            /* \"contracts/ERC20Standard.sol\":748:749  a */\n          dup4\n            /* \"contracts/ERC20Standard.sol\":743:744  c */\n          dup2\n            /* \"contracts/ERC20Standard.sol\":743:749  c >= a */\n          lt\n          iszero\n            /* \"contracts/ERC20Standard.sol\":735:750  require(c >= a) */\n          tag_121\n          jumpi\n          0x00\n          dup1\n          revert\n        tag_121:\n            /* \"contracts/ERC20Standard.sol\":770:771  c */\n          dup1\n            /* \"contracts/ERC20Standard.sol\":763:771  return c */\n          swap2\n          pop\n          pop\n            /* \"contracts/ERC20Standard.sol\":629:779  function add(uint256 a, uint256 b) internal pure returns (uint256) {\r... */\n          swap3\n          swap2\n          pop\n          pop\n          jump\t// out\n            /* \"contracts/ERC20Standard.sol\":471:621  function sub(uint256 a, uint256 b) internal pure returns (uint256) {\r... */\n        tag_78:\n            /* \"contracts/ERC20Standard.sol\":529:536  uint256 */\n          0x00\n            /* \"contracts/ERC20Standard.sol\":562:563  a */\n          dup3\n            /* \"contracts/ERC20Standard.sol\":557:558  b */\n          dup3\n            /* \"contracts/ERC20Standard.sol\":557:563  b <= a */\n          gt\n          iszero\n            /* \"contracts/ERC20Standard.sol\":549:564  require(b <= a) */\n          tag_123\n          jumpi\n          0x00\n          dup1\n          revert\n        tag_123:\n            /* \"contracts/ERC20Standard.sol\":575:584  uint256 c */\n          0x00\n            /* \"contracts/ERC20Standard.sol\":591:592  b */\n          dup3\n            /* \"contracts/ERC20Standard.sol\":587:588  a */\n          dup5\n            /* \"contracts/ERC20Standard.sol\":587:592  a - b */\n          tag_124\n          swap2\n          swap1\n          tag_125\n          jump\t// in\n        tag_124:\n            /* \"contracts/ERC20Standard.sol\":575:592  uint256 c = a - b */\n          swap1\n          pop\n            /* \"contracts/ERC20Standard.sol\":612:613  c */\n          dup1\n            /* \"contracts/ERC20Standard.sol\":605:613  return c */\n          swap2\n          pop\n          pop\n            /* \"contracts/ERC20Standard.sol\":471:621  function sub(uint256 a, uint256 b) internal pure returns (uint256) {\r... */\n          swap3\n          swap2\n          pop\n          pop\n          jump\t// out\n            /* \"contracts/ERC20Standard.sol\":3350:3475  function _beforeTokenTransfer(\r... */\n        tag_86:\n          pop\n          pop\n          pop\n          jump\t// out\n            /* \"contracts/ERC20Standard.sol\":3484:3608  function _afterTokenTransfer(\r... */\n        tag_92:\n          pop\n          pop\n          pop\n          jump\t// out\n            /* \"#utility.yul\":7:146   */\n        tag_129:\n            /* \"#utility.yul\":53:58   */\n          0x00\n            /* \"#utility.yul\":91:97   */\n          dup2\n            /* \"#utility.yul\":78:98   */\n          calldataload\n            /* \"#utility.yul\":69:98   */\n          swap1\n          pop\n            /* \"#utility.yul\":107:140   */\n          tag_131\n            /* \"#utility.yul\":134:139   */\n          dup2\n            /* \"#utility.yul\":107:140   */\n          tag_132\n          jump\t// in\n        tag_131:\n            /* \"#utility.yul\":7:146   */\n          swap3\n          swap2\n          pop\n          pop\n          jump\t// out\n            /* \"#utility.yul\":152:291   */\n        tag_133:\n            /* \"#utility.yul\":198:203   */\n          0x00\n            /* \"#utility.yul\":236:242   */\n          dup2\n            /* \"#utility.yul\":223:243   */\n          calldataload\n            /* \"#utility.yul\":214:243   */\n          swap1\n          pop\n            /* \"#utility.yul\":252:285   */\n          tag_135\n            /* \"#utility.yul\":279:284   */\n          dup2\n            /* \"#utility.yul\":252:285   */\n          tag_136\n          jump\t// in\n        tag_135:\n            /* \"#utility.yul\":152:291   */\n          swap3\n          swap2\n          pop\n          pop\n          jump\t// out\n            /* \"#utility.yul\":297:626   */\n        tag_43:\n            /* \"#utility.yul\":356:362   */\n          0x00\n            /* \"#utility.yul\":405:407   */\n          0x20\n            /* \"#utility.yul\":393:402   */\n          dup3\n            /* \"#utility.yul\":384:391   */\n          dup5\n            /* \"#utility.yul\":380:403   */\n          sub\n            /* \"#utility.yul\":376:408   */\n          slt\n            /* \"#utility.yul\":373:492   */\n          iszero\n          tag_138\n          jumpi\n            /* \"#utility.yul\":411:490   */\n          tag_139\n          tag_140\n          jump\t// in\n        tag_139:\n            /* \"#utility.yul\":373:492   */\n        tag_138:\n            /* \"#utility.yul\":531:532   */\n          0x00\n            /* \"#utility.yul\":556:609   */\n          tag_141\n            /* \"#utility.yul\":601:608   */\n          dup5\n            /* \"#utility.yul\":592:598   */\n          dup3\n            /* \"#utility.yul\":581:590   */\n          dup6\n            /* \"#utility.yul\":577:599   */\n          add\n            /* \"#utility.yul\":556:609   */\n          tag_129\n          jump\t// in\n        tag_141:\n            /* \"#utility.yul\":546:609   */\n          swap2\n          pop\n            /* \"#utility.yul\":502:619   */\n          pop\n            /* \"#utility.yul\":297:626   */\n          swap3\n          swap2\n          pop\n          pop\n          jump\t// out\n            /* \"#utility.yul\":632:1106   */\n        tag_54:\n            /* \"#utility.yul\":700:706   */\n          0x00\n            /* \"#utility.yul\":708:714   */\n          dup1\n            /* \"#utility.yul\":757:759   */\n          0x40\n            /* \"#utility.yul\":745:754   */\n          dup4\n            /* \"#utility.yul\":736:743   */\n          dup6\n            /* \"#utility.yul\":732:755   */\n          sub\n            /* \"#utility.yul\":728:760   */\n          slt\n            /* \"#utility.yul\":725:844   */\n          iszero\n          tag_143\n          jumpi\n            /* \"#utility.yul\":763:842   */\n          tag_144\n          tag_140\n          jump\t// in\n        tag_144:\n            /* \"#utility.yul\":725:844   */\n        tag_143:\n            /* \"#utility.yul\":883:884   */\n          0x00\n            /* \"#utility.yul\":908:961   */\n          tag_145\n            /* \"#utility.yul\":953:960   */\n          dup6\n            /* \"#utility.yul\":944:950   */\n          dup3\n            /* \"#utility.yul\":933:942   */\n          dup7\n            /* \"#utility.yul\":929:951   */\n          add\n            /* \"#utility.yul\":908:961   */\n          tag_129\n          jump\t// in\n        tag_145:\n            /* \"#utility.yul\":898:961   */\n          swap3\n          pop\n            /* \"#utility.yul\":854:971   */\n          pop\n            /* \"#utility.yul\":1010:1012   */\n          0x20\n            /* \"#utility.yul\":1036:1089   */\n          tag_146\n            /* \"#utility.yul\":1081:1088   */\n          dup6\n            /* \"#utility.yul\":1072:1078   */\n          dup3\n            /* \"#utility.yul\":1061:1070   */\n          dup7\n            /* \"#utility.yul\":1057:1079   */\n          add\n            /* \"#utility.yul\":1036:1089   */\n          tag_129\n          jump\t// in\n        tag_146:\n            /* \"#utility.yul\":1026:1089   */\n          swap2\n          pop\n            /* \"#utility.yul\":981:1099   */\n          pop\n            /* \"#utility.yul\":632:1106   */\n          swap3\n          pop\n          swap3\n          swap1\n          pop\n          jump\t// out\n            /* \"#utility.yul\":1112:1731   */\n        tag_29:\n            /* \"#utility.yul\":1189:1195   */\n          0x00\n            /* \"#utility.yul\":1197:1203   */\n          dup1\n            /* \"#utility.yul\":1205:1211   */\n          0x00\n            /* \"#utility.yul\":1254:1256   */\n          0x60\n            /* \"#utility.yul\":1242:1251   */\n          dup5\n            /* \"#utility.yul\":1233:1240   */\n          dup7\n            /* \"#utility.yul\":1229:1252   */\n          sub\n            /* \"#utility.yul\":1225:1257   */\n          slt\n            /* \"#utility.yul\":1222:1341   */\n          iszero\n          tag_148\n          jumpi\n            /* \"#utility.yul\":1260:1339   */\n          tag_149\n          tag_140\n          jump\t// in\n        tag_149:\n            /* \"#utility.yul\":1222:1341   */\n        tag_148:\n            /* \"#utility.yul\":1380:1381   */\n          0x00\n            /* \"#utility.yul\":1405:1458   */\n          tag_150\n            /* \"#utility.yul\":1450:1457   */\n          dup7\n            /* \"#utility.yul\":1441:1447   */\n          dup3\n            /* \"#utility.yul\":1430:1439   */\n          dup8\n            /* \"#utility.yul\":1426:1448   */\n          add\n            /* \"#utility.yul\":1405:1458   */\n          tag_129\n          jump\t// in\n        tag_150:\n            /* \"#utility.yul\":1395:1458   */\n          swap4\n          pop\n            /* \"#utility.yul\":1351:1468   */\n          pop\n            /* \"#utility.yul\":1507:1509   */\n          0x20\n            /* \"#utility.yul\":1533:1586   */\n          tag_151\n            /* \"#utility.yul\":1578:1585   */\n          dup7\n            /* \"#utility.yul\":1569:1575   */\n          dup3\n            /* \"#utility.yul\":1558:1567   */\n          dup8\n            /* \"#utility.yul\":1554:1576   */\n          add\n            /* \"#utility.yul\":1533:1586   */\n          tag_129\n          jump\t// in\n        tag_151:\n            /* \"#utility.yul\":1523:1586   */\n          swap3\n          pop\n            /* \"#utility.yul\":1478:1596   */\n          pop\n            /* \"#utility.yul\":1635:1637   */\n          0x40\n            /* \"#utility.yul\":1661:1714   */\n          tag_152\n            /* \"#utility.yul\":1706:1713   */\n          dup7\n            /* \"#utility.yul\":1697:1703   */\n          dup3\n            /* \"#utility.yul\":1686:1695   */\n          dup8\n            /* \"#utility.yul\":1682:1704   */\n          add\n            /* \"#utility.yul\":1661:1714   */\n          tag_133\n          jump\t// in\n        tag_152:\n            /* \"#utility.yul\":1651:1714   */\n          swap2\n          pop\n            /* \"#utility.yul\":1606:1724   */\n          pop\n            /* \"#utility.yul\":1112:1731   */\n          swap3\n          pop\n          swap3\n          pop\n          swap3\n          jump\t// out\n            /* \"#utility.yul\":1737:2211   */\n        tag_21:\n            /* \"#utility.yul\":1805:1811   */\n          0x00\n            /* \"#utility.yul\":1813:1819   */\n          dup1\n            /* \"#utility.yul\":1862:1864   */\n          0x40\n            /* \"#utility.yul\":1850:1859   */\n          dup4\n            /* \"#utility.yul\":1841:1848   */\n          dup6\n            /* \"#utility.yul\":1837:1860   */\n          sub\n            /* \"#utility.yul\":1833:1865   */\n          slt\n            /* \"#utility.yul\":1830:1949   */\n          iszero\n          tag_154\n          jumpi\n            /* \"#utility.yul\":1868:1947   */\n          tag_155\n          tag_140\n          jump\t// in\n        tag_155:\n            /* \"#utility.yul\":1830:1949   */\n        tag_154:\n            /* \"#utility.yul\":1988:1989   */\n          0x00\n            /* \"#utility.yul\":2013:2066   */\n          tag_156\n            /* \"#utility.yul\":2058:2065   */\n          dup6\n            /* \"#utility.yul\":2049:2055   */\n          dup3\n            /* \"#utility.yul\":2038:2047   */\n          dup7\n            /* \"#utility.yul\":2034:2056   */\n          add\n            /* \"#utility.yul\":2013:2066   */\n          tag_129\n          jump\t// in\n        tag_156:\n            /* \"#utility.yul\":2003:2066   */\n          swap3\n          pop\n            /* \"#utility.yul\":1959:2076   */\n          pop\n            /* \"#utility.yul\":2115:2117   */\n          0x20\n            /* \"#utility.yul\":2141:2194   */\n          tag_157\n            /* \"#utility.yul\":2186:2193   */\n          dup6\n            /* \"#utility.yul\":2177:2183   */\n          dup3\n            /* \"#utility.yul\":2166:2175   */\n          dup7\n            /* \"#utility.yul\":2162:2184   */\n          add\n            /* \"#utility.yul\":2141:2194   */\n          tag_133\n          jump\t// in\n        tag_157:\n            /* \"#utility.yul\":2131:2194   */\n          swap2\n          pop\n            /* \"#utility.yul\":2086:2204   */\n          pop\n            /* \"#utility.yul\":1737:2211   */\n          swap3\n          pop\n          swap3\n          swap1\n          pop\n          jump\t// out\n            /* \"#utility.yul\":2217:2581   */\n        tag_158:\n            /* \"#utility.yul\":2305:2308   */\n          0x00\n            /* \"#utility.yul\":2333:2372   */\n          tag_160\n            /* \"#utility.yul\":2366:2371   */\n          dup3\n            /* \"#utility.yul\":2333:2372   */\n          tag_161\n          jump\t// in\n        tag_160:\n            /* \"#utility.yul\":2388:2459   */\n          tag_162\n            /* \"#utility.yul\":2452:2458   */\n          dup2\n            /* \"#utility.yul\":2447:2450   */\n          dup6\n            /* \"#utility.yul\":2388:2459   */\n          tag_163\n          jump\t// in\n        tag_162:\n            /* \"#utility.yul\":2381:2459   */\n          swap4\n          pop\n            /* \"#utility.yul\":2468:2520   */\n          tag_164\n            /* \"#utility.yul\":2513:2519   */\n          dup2\n            /* \"#utility.yul\":2508:2511   */\n          dup6\n            /* \"#utility.yul\":2501:2505   */\n          0x20\n            /* \"#utility.yul\":2494:2499   */\n          dup7\n            /* \"#utility.yul\":2490:2506   */\n          add\n            /* \"#utility.yul\":2468:2520   */\n          tag_165\n          jump\t// in\n        tag_164:\n            /* \"#utility.yul\":2545:2574   */\n          tag_166\n            /* \"#utility.yul\":2567:2573   */\n          dup2\n            /* \"#utility.yul\":2545:2574   */\n          tag_167\n          jump\t// in\n        tag_166:\n            /* \"#utility.yul\":2540:2543   */\n          dup5\n            /* \"#utility.yul\":2536:2575   */\n          add\n            /* \"#utility.yul\":2529:2575   */\n          swap2\n          pop\n            /* \"#utility.yul\":2309:2581   */\n          pop\n            /* \"#utility.yul\":2217:2581   */\n          swap3\n          swap2\n          pop\n          pop\n          jump\t// out\n            /* \"#utility.yul\":2587:2953   */\n        tag_168:\n            /* \"#utility.yul\":2729:2732   */\n          0x00\n            /* \"#utility.yul\":2750:2817   */\n          tag_170\n            /* \"#utility.yul\":2814:2816   */\n          0x10\n            /* \"#utility.yul\":2809:2812   */\n          dup4\n            /* \"#utility.yul\":2750:2817   */\n          tag_163\n          jump\t// in\n        tag_170:\n            /* \"#utility.yul\":2743:2817   */\n          swap2\n          pop\n            /* \"#utility.yul\":2826:2919   */\n          tag_171\n            /* \"#utility.yul\":2915:2918   */\n          dup3\n            /* \"#utility.yul\":2826:2919   */\n          tag_172\n          jump\t// in\n        tag_171:\n            /* \"#utility.yul\":2944:2946   */\n          0x20\n            /* \"#utility.yul\":2939:2942   */\n          dup3\n            /* \"#utility.yul\":2935:2947   */\n          add\n            /* \"#utility.yul\":2928:2947   */\n          swap1\n          pop\n            /* \"#utility.yul\":2587:2953   */\n          swap2\n          swap1\n          pop\n          jump\t// out\n            /* \"#utility.yul\":2959:3325   */\n        tag_173:\n            /* \"#utility.yul\":3101:3104   */\n          0x00\n            /* \"#utility.yul\":3122:3189   */\n          tag_175\n            /* \"#utility.yul\":3186:3188   */\n          0x0b\n            /* \"#utility.yul\":3181:3184   */\n          dup4\n            /* \"#utility.yul\":3122:3189   */\n          tag_163\n          jump\t// in\n        tag_175:\n            /* \"#utility.yul\":3115:3189   */\n          swap2\n          pop\n            /* \"#utility.yul\":3198:3291   */\n          tag_176\n            /* \"#utility.yul\":3287:3290   */\n          dup3\n            /* \"#utility.yul\":3198:3291   */\n          tag_177\n          jump\t// in\n        tag_176:\n            /* \"#utility.yul\":3316:3318   */\n          0x20\n            /* \"#utility.yul\":3311:3314   */\n          dup3\n            /* \"#utility.yul\":3307:3319   */\n          add\n            /* \"#utility.yul\":3300:3319   */\n          swap1\n          pop\n            /* \"#utility.yul\":2959:3325   */\n          swap2\n          swap1\n          pop\n          jump\t// out\n            /* \"#utility.yul\":3331:3697   */\n        tag_178:\n            /* \"#utility.yul\":3473:3476   */\n          0x00\n            /* \"#utility.yul\":3494:3561   */\n          tag_180\n            /* \"#utility.yul\":3558:3560   */\n          0x0e\n            /* \"#utility.yul\":3553:3556   */\n          dup4\n            /* \"#utility.yul\":3494:3561   */\n          tag_163\n          jump\t// in\n        tag_180:\n            /* \"#utility.yul\":3487:3561   */\n          swap2\n          pop\n            /* \"#utility.yul\":3570:3663   */\n          tag_181\n            /* \"#utility.yul\":3659:3662   */\n          dup3\n            /* \"#utility.yul\":3570:3663   */\n          tag_182\n          jump\t// in\n        tag_181:\n            /* \"#utility.yul\":3688:3690   */\n          0x20\n            /* \"#utility.yul\":3683:3686   */\n          dup3\n            /* \"#utility.yul\":3679:3691   */\n          add\n            /* \"#utility.yul\":3672:3691   */\n          swap1\n          pop\n            /* \"#utility.yul\":3331:3697   */\n          swap2\n          swap1\n          pop\n          jump\t// out\n            /* \"#utility.yul\":3703:4069   */\n        tag_183:\n            /* \"#utility.yul\":3845:3848   */\n          0x00\n            /* \"#utility.yul\":3866:3933   */\n          tag_185\n            /* \"#utility.yul\":3930:3932   */\n          0x1f\n            /* \"#utility.yul\":3925:3928   */\n          dup4\n            /* \"#utility.yul\":3866:3933   */\n          tag_163\n          jump\t// in\n        tag_185:\n            /* \"#utility.yul\":3859:3933   */\n          swap2\n          pop\n            /* \"#utility.yul\":3942:4035   */\n          tag_186\n            /* \"#utility.yul\":4031:4034   */\n          dup3\n            /* \"#utility.yul\":3942:4035   */\n          tag_187\n          jump\t// in\n        tag_186:\n            /* \"#utility.yul\":4060:4062   */\n          0x20\n            /* \"#utility.yul\":4055:4058   */\n          dup3\n            /* \"#utility.yul\":4051:4063   */\n          add\n            /* \"#utility.yul\":4044:4063   */\n          swap1\n          pop\n            /* \"#utility.yul\":3703:4069   */\n          swap2\n          swap1\n          pop\n          jump\t// out\n            /* \"#utility.yul\":4075:4193   */\n        tag_188:\n            /* \"#utility.yul\":4162:4186   */\n          tag_190\n            /* \"#utility.yul\":4180:4185   */\n          dup2\n            /* \"#utility.yul\":4162:4186   */\n          tag_191\n          jump\t// in\n        tag_190:\n            /* \"#utility.yul\":4157:4160   */\n          dup3\n            /* \"#utility.yul\":4150:4187   */\n          mstore\n            /* \"#utility.yul\":4075:4193   */\n          pop\n          pop\n          jump\t// out\n            /* \"#utility.yul\":4199:4311   */\n        tag_192:\n            /* \"#utility.yul\":4282:4304   */\n          tag_194\n            /* \"#utility.yul\":4298:4303   */\n          dup2\n            /* \"#utility.yul\":4282:4304   */\n          tag_195\n          jump\t// in\n        tag_194:\n            /* \"#utility.yul\":4277:4280   */\n          dup3\n            /* \"#utility.yul\":4270:4305   */\n          mstore\n            /* \"#utility.yul\":4199:4311   */\n          pop\n          pop\n          jump\t// out\n            /* \"#utility.yul\":4317:4630   */\n        tag_18:\n            /* \"#utility.yul\":4430:4434   */\n          0x00\n            /* \"#utility.yul\":4468:4470   */\n          0x20\n            /* \"#utility.yul\":4457:4466   */\n          dup3\n            /* \"#utility.yul\":4453:4471   */\n          add\n            /* \"#utility.yul\":4445:4471   */\n          swap1\n          pop\n            /* \"#utility.yul\":4517:4526   */\n          dup2\n            /* \"#utility.yul\":4511:4515   */\n          dup2\n            /* \"#utility.yul\":4507:4527   */\n          sub\n            /* \"#utility.yul\":4503:4504   */\n          0x00\n            /* \"#utility.yul\":4492:4501   */\n          dup4\n            /* \"#utility.yul\":4488:4505   */\n          add\n            /* \"#utility.yul\":4481:4528   */\n          mstore\n            /* \"#utility.yul\":4545:4623   */\n          tag_197\n            /* \"#utility.yul\":4618:4622   */\n          dup2\n            /* \"#utility.yul\":4609:4615   */\n          dup5\n            /* \"#utility.yul\":4545:4623   */\n          tag_158\n          jump\t// in\n        tag_197:\n            /* \"#utility.yul\":4537:4623   */\n          swap1\n          pop\n            /* \"#utility.yul\":4317:4630   */\n          swap3\n          swap2\n          pop\n          pop\n          jump\t// out\n            /* \"#utility.yul\":4636:5055   */\n        tag_71:\n            /* \"#utility.yul\":4802:4806   */\n          0x00\n            /* \"#utility.yul\":4840:4842   */\n          0x20\n            /* \"#utility.yul\":4829:4838   */\n          dup3\n            /* \"#utility.yul\":4825:4843   */\n          add\n            /* \"#utility.yul\":4817:4843   */\n          swap1\n          pop\n            /* \"#utility.yul\":4889:4898   */\n          dup2\n            /* \"#utility.yul\":4883:4887   */\n          dup2\n            /* \"#utility.yul\":4879:4899   */\n          sub\n            /* \"#utility.yul\":4875:4876   */\n          0x00\n            /* \"#utility.yul\":4864:4873   */\n          dup4\n            /* \"#utility.yul\":4860:4877   */\n          add\n            /* \"#utility.yul\":4853:4900   */\n          mstore\n            /* \"#utility.yul\":4917:5048   */\n          tag_199\n            /* \"#utility.yul\":5043:5047   */\n          dup2\n            /* \"#utility.yul\":4917:5048   */\n          tag_168\n          jump\t// in\n        tag_199:\n            /* \"#utility.yul\":4909:5048   */\n          swap1\n          pop\n            /* \"#utility.yul\":4636:5055   */\n          swap2\n          swap1\n          pop\n          jump\t// out\n            /* \"#utility.yul\":5061:5480   */\n        tag_68:\n            /* \"#utility.yul\":5227:5231   */\n          0x00\n            /* \"#utility.yul\":5265:5267   */\n          0x20\n            /* \"#utility.yul\":5254:5263   */\n          dup3\n            /* \"#utility.yul\":5250:5268   */\n          add\n            /* \"#utility.yul\":5242:5268   */\n          swap1\n          pop\n            /* \"#utility.yul\":5314:5323   */\n          dup2\n            /* \"#utility.yul\":5308:5312   */\n          dup2\n            /* \"#utility.yul\":5304:5324   */\n          sub\n            /* \"#utility.yul\":5300:5301   */\n          0x00\n            /* \"#utility.yul\":5289:5298   */\n          dup4\n            /* \"#utility.yul\":5285:5302   */\n          add\n            /* \"#utility.yul\":5278:5325   */\n          mstore\n            /* \"#utility.yul\":5342:5473   */\n          tag_201\n            /* \"#utility.yul\":5468:5472   */\n          dup2\n            /* \"#utility.yul\":5342:5473   */\n          tag_173\n          jump\t// in\n        tag_201:\n            /* \"#utility.yul\":5334:5473   */\n          swap1\n          pop\n            /* \"#utility.yul\":5061:5480   */\n          swap2\n          swap1\n          pop\n          jump\t// out\n            /* \"#utility.yul\":5486:5905   */\n        tag_74:\n            /* \"#utility.yul\":5652:5656   */\n          0x00\n            /* \"#utility.yul\":5690:5692   */\n          0x20\n            /* \"#utility.yul\":5679:5688   */\n          dup3\n            /* \"#utility.yul\":5675:5693   */\n          add\n            /* \"#utility.yul\":5667:5693   */\n          swap1\n          pop\n            /* \"#utility.yul\":5739:5748   */\n          dup2\n            /* \"#utility.yul\":5733:5737   */\n          dup2\n            /* \"#utility.yul\":5729:5749   */\n          sub\n            /* \"#utility.yul\":5725:5726   */\n          0x00\n            /* \"#utility.yul\":5714:5723   */\n          dup4\n            /* \"#utility.yul\":5710:5727   */\n          add\n            /* \"#utility.yul\":5703:5750   */\n          mstore\n            /* \"#utility.yul\":5767:5898   */\n          tag_203\n            /* \"#utility.yul\":5893:5897   */\n          dup2\n            /* \"#utility.yul\":5767:5898   */\n          tag_178\n          jump\t// in\n        tag_203:\n            /* \"#utility.yul\":5759:5898   */\n          swap1\n          pop\n            /* \"#utility.yul\":5486:5905   */\n          swap2\n          swap1\n          pop\n          jump\t// out\n            /* \"#utility.yul\":5911:6330   */\n        tag_84:\n            /* \"#utility.yul\":6077:6081   */\n          0x00\n            /* \"#utility.yul\":6115:6117   */\n          0x20\n            /* \"#utility.yul\":6104:6113   */\n          dup3\n            /* \"#utility.yul\":6100:6118   */\n          add\n            /* \"#utility.yul\":6092:6118   */\n          swap1\n          pop\n            /* \"#utility.yul\":6164:6173   */\n          dup2\n            /* \"#utility.yul\":6158:6162   */\n          dup2\n            /* \"#utility.yul\":6154:6174   */\n          sub\n            /* \"#utility.yul\":6150:6151   */\n          0x00\n            /* \"#utility.yul\":6139:6148   */\n          dup4\n            /* \"#utility.yul\":6135:6152   */\n          add\n            /* \"#utility.yul\":6128:6175   */\n          mstore\n            /* \"#utility.yul\":6192:6323   */\n          tag_205\n            /* \"#utility.yul\":6318:6322   */\n          dup2\n            /* \"#utility.yul\":6192:6323   */\n          tag_183\n          jump\t// in\n        tag_205:\n            /* \"#utility.yul\":6184:6323   */\n          swap1\n          pop\n            /* \"#utility.yul\":5911:6330   */\n          swap2\n          swap1\n          pop\n          jump\t// out\n            /* \"#utility.yul\":6336:6558   */\n        tag_26:\n            /* \"#utility.yul\":6429:6433   */\n          0x00\n            /* \"#utility.yul\":6467:6469   */\n          0x20\n            /* \"#utility.yul\":6456:6465   */\n          dup3\n            /* \"#utility.yul\":6452:6470   */\n          add\n            /* \"#utility.yul\":6444:6470   */\n          swap1\n          pop\n            /* \"#utility.yul\":6480:6551   */\n          tag_207\n            /* \"#utility.yul\":6548:6549   */\n          0x00\n            /* \"#utility.yul\":6537:6546   */\n          dup4\n            /* \"#utility.yul\":6533:6550   */\n          add\n            /* \"#utility.yul\":6524:6530   */\n          dup5\n            /* \"#utility.yul\":6480:6551   */\n          tag_188\n          jump\t// in\n        tag_207:\n            /* \"#utility.yul\":6336:6558   */\n          swap3\n          swap2\n          pop\n          pop\n          jump\t// out\n            /* \"#utility.yul\":6564:6778   */\n        tag_34:\n            /* \"#utility.yul\":6653:6657   */\n          0x00\n            /* \"#utility.yul\":6691:6693   */\n          0x20\n            /* \"#utility.yul\":6680:6689   */\n          dup3\n            /* \"#utility.yul\":6676:6694   */\n          add\n            /* \"#utility.yul\":6668:6694   */\n          swap1\n          pop\n            /* \"#utility.yul\":6704:6771   */\n          tag_209\n            /* \"#utility.yul\":6768:6769   */\n          0x00\n            /* \"#utility.yul\":6757:6766   */\n          dup4\n            /* \"#utility.yul\":6753:6770   */\n          add\n            /* \"#utility.yul\":6744:6750   */\n          dup5\n            /* \"#utility.yul\":6704:6771   */\n          tag_192\n          jump\t// in\n        tag_209:\n            /* \"#utility.yul\":6564:6778   */\n          swap3\n          swap2\n          pop\n          pop\n          jump\t// out\n            /* \"#utility.yul\":6865:6964   */\n        tag_161:\n            /* \"#utility.yul\":6917:6923   */\n          0x00\n            /* \"#utility.yul\":6951:6956   */\n          dup2\n            /* \"#utility.yul\":6945:6957   */\n          mload\n            /* \"#utility.yul\":6935:6957   */\n          swap1\n          pop\n            /* \"#utility.yul\":6865:6964   */\n          swap2\n          swap1\n          pop\n          jump\t// out\n            /* \"#utility.yul\":6970:7139   */\n        tag_163:\n            /* \"#utility.yul\":7054:7065   */\n          0x00\n            /* \"#utility.yul\":7088:7094   */\n          dup3\n            /* \"#utility.yul\":7083:7086   */\n          dup3\n            /* \"#utility.yul\":7076:7095   */\n          mstore\n            /* \"#utility.yul\":7128:7132   */\n          0x20\n            /* \"#utility.yul\":7123:7126   */\n          dup3\n            /* \"#utility.yul\":7119:7133   */\n          add\n            /* \"#utility.yul\":7104:7133   */\n          swap1\n          pop\n            /* \"#utility.yul\":6970:7139   */\n          swap3\n          swap2\n          pop\n          pop\n          jump\t// out\n            /* \"#utility.yul\":7145:7450   */\n        tag_88:\n            /* \"#utility.yul\":7185:7188   */\n          0x00\n            /* \"#utility.yul\":7204:7224   */\n          tag_215\n            /* \"#utility.yul\":7222:7223   */\n          dup3\n            /* \"#utility.yul\":7204:7224   */\n          tag_191\n          jump\t// in\n        tag_215:\n            /* \"#utility.yul\":7199:7224   */\n          swap2\n          pop\n            /* \"#utility.yul\":7238:7258   */\n          tag_216\n            /* \"#utility.yul\":7256:7257   */\n          dup4\n            /* \"#utility.yul\":7238:7258   */\n          tag_191\n          jump\t// in\n        tag_216:\n            /* \"#utility.yul\":7233:7258   */\n          swap3\n          pop\n            /* \"#utility.yul\":7392:7393   */\n          dup3\n            /* \"#utility.yul\":7324:7390   */\n          0xffffffffffffffffffffffffffffffffffffffffffffffffffffffffffffffff\n            /* \"#utility.yul\":7320:7394   */\n          sub\n            /* \"#utility.yul\":7317:7318   */\n          dup3\n            /* \"#utility.yul\":7314:7395   */\n          gt\n            /* \"#utility.yul\":7311:7418   */\n          iszero\n          tag_217\n          jumpi\n            /* \"#utility.yul\":7398:7416   */\n          tag_218\n          tag_219\n          jump\t// in\n        tag_218:\n            /* \"#utility.yul\":7311:7418   */\n        tag_217:\n            /* \"#utility.yul\":7442:7443   */\n          dup3\n            /* \"#utility.yul\":7439:7440   */\n          dup3\n            /* \"#utility.yul\":7435:7444   */\n          add\n            /* \"#utility.yul\":7428:7444   */\n          swap1\n          pop\n            /* \"#utility.yul\":7145:7450   */\n          swap3\n          swap2\n          pop\n          pop\n          jump\t// out\n            /* \"#utility.yul\":7456:7647   */\n        tag_125:\n            /* \"#utility.yul\":7496:7500   */\n          0x00\n            /* \"#utility.yul\":7516:7536   */\n          tag_221\n            /* \"#utility.yul\":7534:7535   */\n          dup3\n            /* \"#utility.yul\":7516:7536   */\n          tag_191\n          jump\t// in\n        tag_221:\n            /* \"#utility.yul\":7511:7536   */\n          swap2\n          pop\n            /* \"#utility.yul\":7550:7570   */\n          tag_222\n            /* \"#utility.yul\":7568:7569   */\n          dup4\n            /* \"#utility.yul\":7550:7570   */\n          tag_191\n          jump\t// in\n        tag_222:\n            /* \"#utility.yul\":7545:7570   */\n          swap3\n          pop\n            /* \"#utility.yul\":7589:7590   */\n          dup3\n            /* \"#utility.yul\":7586:7587   */\n          dup3\n            /* \"#utility.yul\":7583:7591   */\n          lt\n            /* \"#utility.yul\":7580:7614   */\n          iszero\n          tag_223\n          jumpi\n            /* \"#utility.yul\":7594:7612   */\n          tag_224\n          tag_219\n          jump\t// in\n        tag_224:\n            /* \"#utility.yul\":7580:7614   */\n        tag_223:\n            /* \"#utility.yul\":7639:7640   */\n          dup3\n            /* \"#utility.yul\":7636:7637   */\n          dup3\n            /* \"#utility.yul\":7632:7641   */\n          sub\n            /* \"#utility.yul\":7624:7641   */\n          swap1\n          pop\n            /* \"#utility.yul\":7456:7647   */\n          swap3\n          swap2\n          pop\n          pop\n          jump\t// out\n            /* \"#utility.yul\":7653:7749   */\n        tag_225:\n            /* \"#utility.yul\":7690:7697   */\n          0x00\n            /* \"#utility.yul\":7719:7743   */\n          tag_227\n            /* \"#utility.yul\":7737:7742   */\n          dup3\n            /* \"#utility.yul\":7719:7743   */\n          tag_228\n          jump\t// in\n        tag_227:\n            /* \"#utility.yul\":7708:7743   */\n          swap1\n          pop\n            /* \"#utility.yul\":7653:7749   */\n          swap2\n          swap1\n          pop\n          jump\t// out\n            /* \"#utility.yul\":7755:7881   */\n        tag_228:\n            /* \"#utility.yul\":7792:7799   */\n          0x00\n            /* \"#utility.yul\":7832:7874   */\n          0xffffffffffffffffffffffffffffffffffffffff\n            /* \"#utility.yul\":7825:7830   */\n          dup3\n            /* \"#utility.yul\":7821:7875   */\n          and\n            /* \"#utility.yul\":7810:7875   */\n          swap1\n          pop\n            /* \"#utility.yul\":7755:7881   */\n          swap2\n          swap1\n          pop\n          jump\t// out\n            /* \"#utility.yul\":7887:7964   */\n        tag_191:\n            /* \"#utility.yul\":7924:7931   */\n          0x00\n            /* \"#utility.yul\":7953:7958   */\n          dup2\n            /* \"#utility.yul\":7942:7958   */\n          swap1\n          pop\n            /* \"#utility.yul\":7887:7964   */\n          swap2\n          swap1\n          pop\n          jump\t// out\n            /* \"#utility.yul\":7970:8056   */\n        tag_195:\n            /* \"#utility.yul\":8005:8012   */\n          0x00\n            /* \"#utility.yul\":8045:8049   */\n          0xff\n            /* \"#utility.yul\":8038:8043   */\n          dup3\n            /* \"#utility.yul\":8034:8050   */\n          and\n            /* \"#utility.yul\":8023:8050   */\n          swap1\n          pop\n            /* \"#utility.yul\":7970:8056   */\n          swap2\n          swap1\n          pop\n          jump\t// out\n            /* \"#utility.yul\":8062:8369   */\n        tag_165:\n            /* \"#utility.yul\":8130:8131   */\n          0x00\n            /* \"#utility.yul\":8140:8253   */\n        tag_233:\n            /* \"#utility.yul\":8154:8160   */\n          dup4\n            /* \"#utility.yul\":8151:8152   */\n          dup2\n            /* \"#utility.yul\":8148:8161   */\n          lt\n            /* \"#utility.yul\":8140:8253   */\n          iszero\n          tag_235\n          jumpi\n            /* \"#utility.yul\":8239:8240   */\n          dup1\n            /* \"#utility.yul\":8234:8237   */\n          dup3\n            /* \"#utility.yul\":8230:8241   */\n          add\n            /* \"#utility.yul\":8224:8242   */\n          mload\n            /* \"#utility.yul\":8220:8221   */\n          dup2\n            /* \"#utility.yul\":8215:8218   */\n          dup5\n            /* \"#utility.yul\":8211:8222   */\n          add\n            /* \"#utility.yul\":8204:8243   */\n          mstore\n            /* \"#utility.yul\":8176:8178   */\n          0x20\n            /* \"#utility.yul\":8173:8174   */\n          dup2\n            /* \"#utility.yul\":8169:8179   */\n          add\n            /* \"#utility.yul\":8164:8179   */\n          swap1\n          pop\n            /* \"#utility.yul\":8140:8253   */\n          jump(tag_233)\n        tag_235:\n            /* \"#utility.yul\":8271:8277   */\n          dup4\n            /* \"#utility.yul\":8268:8269   */\n          dup2\n            /* \"#utility.yul\":8265:8278   */\n          gt\n            /* \"#utility.yul\":8262:8363   */\n          iszero\n          tag_236\n          jumpi\n            /* \"#utility.yul\":8351:8352   */\n          0x00\n            /* \"#utility.yul\":8342:8348   */\n          dup5\n            /* \"#utility.yul\":8337:8340   */\n          dup5\n            /* \"#utility.yul\":8333:8349   */\n          add\n            /* \"#utility.yul\":8326:8353   */\n          mstore\n            /* \"#utility.yul\":8262:8363   */\n        tag_236:\n            /* \"#utility.yul\":8111:8369   */\n          pop\n            /* \"#utility.yul\":8062:8369   */\n          pop\n          pop\n          pop\n          jump\t// out\n            /* \"#utility.yul\":8375:8695   */\n        tag_58:\n            /* \"#utility.yul\":8419:8425   */\n          0x00\n            /* \"#utility.yul\":8456:8457   */\n          0x02\n            /* \"#utility.yul\":8450:8454   */\n          dup3\n            /* \"#utility.yul\":8446:8458   */\n          div\n            /* \"#utility.yul\":8436:8458   */\n          swap1\n          pop\n            /* \"#utility.yul\":8503:8504   */\n          0x01\n            /* \"#utility.yul\":8497:8501   */\n          dup3\n            /* \"#utility.yul\":8493:8505   */\n          and\n            /* \"#utility.yul\":8524:8542   */\n          dup1\n            /* \"#utility.yul\":8514:8595   */\n          tag_238\n          jumpi\n            /* \"#utility.yul\":8580:8584   */\n          0x7f\n            /* \"#utility.yul\":8572:8578   */\n          dup3\n            /* \"#utility.yul\":8568:8585   */\n          and\n            /* \"#utility.yul\":8558:8585   */\n          swap2\n          pop\n            /* \"#utility.yul\":8514:8595   */\n        tag_238:\n            /* \"#utility.yul\":8642:8644   */\n          0x20\n            /* \"#utility.yul\":8634:8640   */\n          dup3\n            /* \"#utility.yul\":8631:8645   */\n          lt\n            /* \"#utility.yul\":8611:8629   */\n          dup2\n            /* \"#utility.yul\":8608:8646   */\n          eq\n            /* \"#utility.yul\":8605:8689   */\n          iszero\n          tag_239\n          jumpi\n            /* \"#utility.yul\":8661:8679   */\n          tag_240\n          tag_241\n          jump\t// in\n        tag_240:\n            /* \"#utility.yul\":8605:8689   */\n        tag_239:\n            /* \"#utility.yul\":8426:8695   */\n          pop\n            /* \"#utility.yul\":8375:8695   */\n          swap2\n          swap1\n          pop\n          jump\t// out\n            /* \"#utility.yul\":8701:8881   */\n        tag_108:\n            /* \"#utility.yul\":8749:8826   */\n          0x4e487b7100000000000000000000000000000000000000000000000000000000\n            /* \"#utility.yul\":8746:8747   */\n          0x00\n            /* \"#utility.yul\":8739:8827   */\n          mstore\n            /* \"#utility.yul\":8846:8850   */\n          0x01\n            /* \"#utility.yul\":8843:8844   */\n          0x04\n            /* \"#utility.yul\":8836:8851   */\n          mstore\n            /* \"#utility.yul\":8870:8874   */\n          0x24\n            /* \"#utility.yul\":8867:8868   */\n          0x00\n            /* \"#utility.yul\":8860:8875   */\n          revert\n            /* \"#utility.yul\":8887:9067   */\n        tag_219:\n            /* \"#utility.yul\":8935:9012   */\n          0x4e487b7100000000000000000000000000000000000000000000000000000000\n            /* \"#utility.yul\":8932:8933   */\n          0x00\n            /* \"#utility.yul\":8925:9013   */\n          mstore\n            /* \"#utility.yul\":9032:9036   */\n          0x11\n            /* \"#utility.yul\":9029:9030   */\n          0x04\n            /* \"#utility.yul\":9022:9037   */\n          mstore\n            /* \"#utility.yul\":9056:9060   */\n          0x24\n            /* \"#utility.yul\":9053:9054   */\n          0x00\n            /* \"#utility.yul\":9046:9061   */\n          revert\n            /* \"#utility.yul\":9073:9253   */\n        tag_241:\n            /* \"#utility.yul\":9121:9198   */\n          0x4e487b7100000000000000000000000000000000000000000000000000000000\n            /* \"#utility.yul\":9118:9119   */\n          0x00\n            /* \"#utility.yul\":9111:9199   */\n          mstore\n            /* \"#utility.yul\":9218:9222   */\n          0x22\n            /* \"#utility.yul\":9215:9216   */\n          0x04\n            /* \"#utility.yul\":9208:9223   */\n          mstore\n            /* \"#utility.yul\":9242:9246   */\n          0x24\n            /* \"#utility.yul\":9239:9240   */\n          0x00\n            /* \"#utility.yul\":9232:9247   */\n          revert\n            /* \"#utility.yul\":9382:9499   */\n        tag_140:\n            /* \"#utility.yul\":9491:9492   */\n          0x00\n            /* \"#utility.yul\":9488:9489   */\n          dup1\n            /* \"#utility.yul\":9481:9493   */\n          revert\n            /* \"#utility.yul\":9505:9607   */\n        tag_167:\n            /* \"#utility.yul\":9546:9552   */\n          0x00\n            /* \"#utility.yul\":9597:9599   */\n          0x1f\n            /* \"#utility.yul\":9593:9600   */\n          not\n            /* \"#utility.yul\":9588:9590   */\n          0x1f\n            /* \"#utility.yul\":9581:9586   */\n          dup4\n            /* \"#utility.yul\":9577:9591   */\n          add\n            /* \"#utility.yul\":9573:9601   */\n          and\n            /* \"#utility.yul\":9563:9601   */\n          swap1\n          pop\n            /* \"#utility.yul\":9505:9607   */\n          swap2\n          swap1\n          pop\n          jump\t// out\n            /* \"#utility.yul\":9613:9779   */\n        tag_172:\n            /* \"#utility.yul\":9753:9771   */\n          0x42616c616e6365203c20616d6f756e7400000000000000000000000000000000\n            /* \"#utility.yul\":9749:9750   */\n          0x00\n            /* \"#utility.yul\":9741:9747   */\n          dup3\n            /* \"#utility.yul\":9737:9751   */\n          add\n            /* \"#utility.yul\":9730:9772   */\n          mstore\n            /* \"#utility.yul\":9613:9779   */\n          pop\n          jump\t// out\n            /* \"#utility.yul\":9785:9946   */\n        tag_177:\n            /* \"#utility.yul\":9925:9938   */\n          0x416d6f756e74203c3d2030000000000000000000000000000000000000000000\n            /* \"#utility.yul\":9921:9922   */\n          0x00\n            /* \"#utility.yul\":9913:9919   */\n          dup3\n            /* \"#utility.yul\":9909:9923   */\n          add\n            /* \"#utility.yul\":9902:9939   */\n          mstore\n            /* \"#utility.yul\":9785:9946   */\n          pop\n          jump\t// out\n            /* \"#utility.yul\":9952:10116   */\n        tag_182:\n            /* \"#utility.yul\":10092:10108   */\n          0x446f6e277420616c6c6f7765642e000000000000000000000000000000000000\n            /* \"#utility.yul\":10088:10089   */\n          0x00\n            /* \"#utility.yul\":10080:10086   */\n          dup3\n            /* \"#utility.yul\":10076:10090   */\n          add\n            /* \"#utility.yul\":10069:10109   */\n          mstore\n            /* \"#utility.yul\":9952:10116   */\n          pop\n          jump\t// out\n            /* \"#utility.yul\":10122:10303   */\n        tag_187:\n            /* \"#utility.yul\":10262:10295   */\n          0x45524332303a206d696e7420746f20746865207a65726f206164647265737300\n            /* \"#utility.yul\":10258:10259   */\n          0x00\n            /* \"#utility.yul\":10250:10256   */\n          dup3\n            /* \"#utility.yul\":10246:10260   */\n          add\n            /* \"#utility.yul\":10239:10296   */\n          mstore\n            /* \"#utility.yul\":10122:10303   */\n          pop\n          jump\t// out\n            /* \"#utility.yul\":10309:10431   */\n        tag_132:\n            /* \"#utility.yul\":10382:10406   */\n          tag_254\n            /* \"#utility.yul\":10400:10405   */\n          dup2\n            /* \"#utility.yul\":10382:10406   */\n          tag_225\n          jump\t// in\n        tag_254:\n            /* \"#utility.yul\":10375:10380   */\n          dup2\n            /* \"#utility.yul\":10372:10407   */\n          eq\n            /* \"#utility.yul\":10362:10425   */\n          tag_255\n          jumpi\n            /* \"#utility.yul\":10421:10422   */\n          0x00\n            /* \"#utility.yul\":10418:10419   */\n          dup1\n            /* \"#utility.yul\":10411:10423   */\n          revert\n            /* \"#utility.yul\":10362:10425   */\n        tag_255:\n            /* \"#utility.yul\":10309:10431   */\n          pop\n          jump\t// out\n            /* \"#utility.yul\":10437:10559   */\n        tag_136:\n            /* \"#utility.yul\":10510:10534   */\n          tag_257\n            /* \"#utility.yul\":10528:10533   */\n          dup2\n            /* \"#utility.yul\":10510:10534   */\n          tag_191\n          jump\t// in\n        tag_257:\n            /* \"#utility.yul\":10503:10508   */\n          dup2\n            /* \"#utility.yul\":10500:10535   */\n          eq\n            /* \"#utility.yul\":10490:10553   */\n          tag_258\n          jumpi\n            /* \"#utility.yul\":10549:10550   */\n          0x00\n            /* \"#utility.yul\":10546:10547   */\n          dup1\n            /* \"#utility.yul\":10539:10551   */\n          revert\n            /* \"#utility.yul\":10490:10553   */\n        tag_258:\n            /* \"#utility.yul\":10437:10559   */\n          pop\n          jump\t// out\n\n        auxdata: 0xa2646970667358221220403d2fbb0287a50e9c5c40d0af765b57b07dac8710014f84751aa896116bfeb464736f6c63430008070033\n    }\n}\n",
				"bytecode": {
					"linkReferences": {},
					"object": "60806040523480156200001157600080fd5b5033600560006101000a81548173ffffffffffffffffffffffffffffffffffffffff021916908373ffffffffffffffffffffffffffffffffffffffff16021790555063625f140a600081905550620697806000546200007191906200013c565b6001819055506004600381905550600354604051620000909062000100565b6200009c91906200011f565b604051809103906000f080158015620000b9573d6000803e3d6000fd5b50600660006101000a81548173ffffffffffffffffffffffffffffffffffffffff021916908373ffffffffffffffffffffffffffffffffffffffff160217905550620001d2565b61162f80620013f383390190565b620001198162000199565b82525050565b60006020820190506200013660008301846200010e565b92915050565b6000620001498262000199565b9150620001568362000199565b9250827fffffffffffffffffffffffffffffffffffffffffffffffffffffffffffffffff038211156200018e576200018d620001a3565b5b828201905092915050565b6000819050919050565b7f4e487b7100000000000000000000000000000000000000000000000000000000600052601160045260246000fd5b61121180620001e26000396000f3fe608060405234801561001057600080fd5b50600436106100625760003560e01c80634041ef5414610067578063633fff16146100975780636cea0e46146100b35780636dd7d8ea146100cf5780638203373a146100eb5780639e7b8d6114610107575b600080fd5b610081600480360381019061007c9190610b05565b610123565b60405161008e9190610e17565b60405180910390f35b6100b160048036038101906100ac9190610b7b565b6101d7565b005b6100cd60048036038101906100c89190610b05565b6102c7565b005b6100e960048036038101906100e49190610b05565b61035a565b005b61010560048036038101906101009190610b32565b61060a565b005b610121600480360381019061011c9190610b05565b6107d9565b005b6000600660009054906101000a900473ffffffffffffffffffffffffffffffffffffffff1673ffffffffffffffffffffffffffffffffffffffff166370a08231836040518263ffffffff1660e01b81526004016101809190610cfc565b60206040518083038186803b15801561019857600080fd5b505afa1580156101ac573d6000803e3d6000fd5b505050506040513d601f19601f820116820180604052508101906101d09190610bf3565b9050919050565b805182511461021b576040517f08c379a000000000000000000000000000000000000000000000000000000000815260040161021290610d77565b60405180910390fd5b60005b82518110156102c25781818151811061023a57610239611058565b5b60200260200101516004600085848151811061025957610258611058565b5b602002602001015173ffffffffffffffffffffffffffffffffffffffff1673ffffffffffffffffffffffffffffffffffffffff16815260200190815260200160002090805190602001906102ae92919061086e565b5080806102ba90610fb1565b91505061021e565b505050565b600660009054906101000a900473ffffffffffffffffffffffffffffffffffffffff1673ffffffffffffffffffffffffffffffffffffffff166340c10f198260016040518363ffffffff1660e01b8152600401610325929190610d4e565b600060405180830381600087803b15801561033f57600080fd5b505af1158015610353573d6000803e3d6000fd5b5050505050565b60015442111561039f576040517f08c379a000000000000000000000000000000000000000000000000000000000815260040161039690610d97565b60405180910390fd5b600260003373ffffffffffffffffffffffffffffffffffffffff1673ffffffffffffffffffffffffffffffffffffffff16815260200190815260200160002060009054906101000a900460ff161561042c576040517f08c379a000000000000000000000000000000000000000000000000000000000815260040161042390610dd7565b60405180910390fd5b6000600660009054906101000a900473ffffffffffffffffffffffffffffffffffffffff1673ffffffffffffffffffffffffffffffffffffffff166370a08231336040518263ffffffff1660e01b81526004016104899190610cfc565b60206040518083038186803b1580156104a157600080fd5b505afa1580156104b5573d6000803e3d6000fd5b505050506040513d601f19601f820116820180604052508101906104d99190610bf3565b90506000811161051e576040517f08c379a000000000000000000000000000000000000000000000000000000000815260040161051590610df7565b60405180910390fd5b600660009054906101000a900473ffffffffffffffffffffffffffffffffffffffff1673ffffffffffffffffffffffffffffffffffffffff1663a9059cbb8360016040518363ffffffff1660e01b815260040161057c929190610d4e565b600060405180830381600087803b15801561059657600080fd5b505af11580156105aa573d6000803e3d6000fd5b505050506001600260003373ffffffffffffffffffffffffffffffffffffffff1673ffffffffffffffffffffffffffffffffffffffff16815260200190815260200160002060006101000a81548160ff0219169083151502179055505050565b600560009054906101000a900473ffffffffffffffffffffffffffffffffffffffff1673ffffffffffffffffffffffffffffffffffffffff163373ffffffffffffffffffffffffffffffffffffffff161461069a576040517f08c379a000000000000000000000000000000000000000000000000000000000815260040161069190610db7565b60405180910390fd5b60005b81518110156107d5576000600260008484815181106106bf576106be611058565b5b602002602001015173ffffffffffffffffffffffffffffffffffffffff1673ffffffffffffffffffffffffffffffffffffffff16815260200190815260200160002060006101000a81548160ff021916908315150217905550600660009054906101000a900473ffffffffffffffffffffffffffffffffffffffff1673ffffffffffffffffffffffffffffffffffffffff166340c10f1983838151811061076957610768611058565b5b602002602001015160016040518363ffffffff1660e01b8152600401610790929190610d4e565b600060405180830381600087803b1580156107aa57600080fd5b505af11580156107be573d6000803e3d6000fd5b5050505080806107cd90610fb1565b91505061069d565b5050565b600660009054906101000a900473ffffffffffffffffffffffffffffffffffffffff1673ffffffffffffffffffffffffffffffffffffffff166323b872dd338360016040518463ffffffff1660e01b815260040161083993929190610d17565b600060405180830381600087803b15801561085357600080fd5b505af1158015610867573d6000803e3d6000fd5b5050505050565b82805461087a90610f4e565b90600052602060002090601f01602090048101928261089c57600085556108e3565b82601f106108b557805160ff19168380011785556108e3565b828001600101855582156108e3579182015b828111156108e25782518255916020019190600101906108c7565b5b5090506108f091906108f4565b5090565b5b8082111561090d5760008160009055506001016108f5565b5090565b600061092461091f84610e57565b610e32565b90508083825260208201905082856020860282011115610947576109466110bb565b5b60005b85811015610977578161095d8882610a51565b84526020840193506020830192505060018101905061094a565b5050509392505050565b600061099461098f84610e83565b610e32565b905080838252602082019050828560208602820111156109b7576109b66110bb565b5b60005b85811015610a0557813567ffffffffffffffff8111156109dd576109dc6110b6565b5b8086016109ea8982610ac2565b855260208501945060208401935050506001810190506109ba565b5050509392505050565b6000610a22610a1d84610eaf565b610e32565b905082815260208101848484011115610a3e57610a3d6110c0565b5b610a49848285610f3f565b509392505050565b600081359050610a60816111ad565b92915050565b600082601f830112610a7b57610a7a6110b6565b5b8135610a8b848260208601610911565b91505092915050565b600082601f830112610aa957610aa86110b6565b5b8135610ab9848260208601610981565b91505092915050565b600082601f830112610ad757610ad66110b6565b5b8135610ae7848260208601610a0f565b91505092915050565b600081519050610aff816111c4565b92915050565b600060208284031215610b1b57610b1a6110ca565b5b6000610b2984828501610a51565b91505092915050565b600060208284031215610b4857610b476110ca565b5b600082013567ffffffffffffffff811115610b6657610b656110c5565b5b610b7284828501610a66565b91505092915050565b60008060408385031215610b9257610b916110ca565b5b600083013567ffffffffffffffff811115610bb057610baf6110c5565b5b610bbc85828601610a66565b925050602083013567ffffffffffffffff811115610bdd57610bdc6110c5565b5b610be985828601610a94565b9150509250929050565b600060208284031215610c0957610c086110ca565b5b6000610c1784828501610af0565b91505092915050565b610c2981610ef1565b82525050565b610c3881610f2d565b82525050565b6000610c4b601483610ee0565b9150610c56826110e0565b602082019050919050565b6000610c6e600c83610ee0565b9150610c7982611109565b602082019050919050565b6000610c91601b83610ee0565b9150610c9c82611132565b602082019050919050565b6000610cb4601483610ee0565b9150610cbf8261115b565b602082019050919050565b6000610cd7600c83610ee0565b9150610ce282611184565b602082019050919050565b610cf681610f23565b82525050565b6000602082019050610d116000830184610c20565b92915050565b6000606082019050610d2c6000830186610c20565b610d396020830185610c20565b610d466040830184610c2f565b949350505050565b6000604082019050610d636000830185610c20565b610d706020830184610c2f565b9392505050565b60006020820190508181036000830152610d9081610c3e565b9050919050565b60006020820190508181036000830152610db081610c61565b9050919050565b60006020820190508181036000830152610dd081610c84565b9050919050565b60006020820190508181036000830152610df081610ca7565b9050919050565b60006020820190508181036000830152610e1081610cca565b9050919050565b6000602082019050610e2c6000830184610ced565b92915050565b6000610e3c610e4d565b9050610e488282610f80565b919050565b6000604051905090565b600067ffffffffffffffff821115610e7257610e71611087565b5b602082029050602081019050919050565b600067ffffffffffffffff821115610e9e57610e9d611087565b5b602082029050602081019050919050565b600067ffffffffffffffff821115610eca57610ec9611087565b5b610ed3826110cf565b9050602081019050919050565b600082825260208201905092915050565b6000610efc82610f03565b9050919050565b600073ffffffffffffffffffffffffffffffffffffffff82169050919050565b6000819050919050565b6000610f3882610f23565b9050919050565b82818337600083830152505050565b60006002820490506001821680610f6657607f821691505b60208210811415610f7a57610f79611029565b5b50919050565b610f89826110cf565b810181811067ffffffffffffffff82111715610fa857610fa7611087565b5b80604052505050565b6000610fbc82610f23565b91507fffffffffffffffffffffffffffffffffffffffffffffffffffffffffffffffff821415610fef57610fee610ffa565b5b600182019050919050565b7f4e487b7100000000000000000000000000000000000000000000000000000000600052601160045260246000fd5b7f4e487b7100000000000000000000000000000000000000000000000000000000600052602260045260246000fd5b7f4e487b7100000000000000000000000000000000000000000000000000000000600052603260045260246000fd5b7f4e487b7100000000000000000000000000000000000000000000000000000000600052604160045260246000fd5b600080fd5b600080fd5b600080fd5b600080fd5b600080fd5b6000601f19601f8301169050919050565b7f4c656e67746820697320646966666572656e742e000000000000000000000000600082015250565b7f54696d6520697320656e642e0000000000000000000000000000000000000000600082015250565b7f4974206973206e6f742066726f6d206368616972706572736f6e2e0000000000600082015250565b7f566f74657220616c726561647920766f7465642e000000000000000000000000600082015250565b7f62616c616e6365203c3d20300000000000000000000000000000000000000000600082015250565b6111b681610ef1565b81146111c157600080fd5b50565b6111cd81610f23565b81146111d857600080fd5b5056fea26469706673582212202b4b1d74d3d92d05769abcf78231b64c3ff1e0aefa2f7fec4a5e5f6a57adb8be64736f6c6343000807003360806040523480156200001157600080fd5b506040516200162f3803806200162f8339818101604052810190620000379190620001c4565b806000819055506040518060400160405280600d81526020017f452d566f74696e6720636f696e00000000000000000000000000000000000000815250600190805190602001906200008b929190620000fd565b506012600260006101000a81548160ff021916908360ff1602179055506040518060400160405280600381526020017f455643000000000000000000000000000000000000000000000000000000000081525060039080519060200190620000f5929190620000fd565b505062000284565b8280546200010b9062000200565b90600052602060002090601f0160209004810192826200012f57600085556200017b565b82601f106200014a57805160ff19168380011785556200017b565b828001600101855582156200017b579182015b828111156200017a5782518255916020019190600101906200015d565b5b5090506200018a91906200018e565b5090565b5b80821115620001a95760008160009055506001016200018f565b5090565b600081519050620001be816200026a565b92915050565b600060208284031215620001dd57620001dc62000265565b5b6000620001ed84828501620001ad565b91505092915050565b6000819050919050565b600060028204905060018216806200021957607f821691505b6020821081141562000230576200022f62000236565b5b50919050565b7f4e487b7100000000000000000000000000000000000000000000000000000000600052602260045260246000fd5b600080fd5b6200027581620001f6565b81146200028157600080fd5b50565b61139b80620002946000396000f3fe608060405234801561001057600080fd5b50600436106100a95760003560e01c806340c10f191161007157806340c10f191461014057806354fd4d501461015c57806370a082311461017a57806395d89b41146101aa578063a9059cbb146101c8578063dd62ed3e146101e4576100a9565b806306fdde03146100ae578063095ea7b3146100cc57806318160ddd146100e857806323b872dd14610106578063313ce56714610122575b600080fd5b6100b6610214565b6040516100c39190610fc4565b60405180910390f35b6100e660048036038101906100e19190610ea1565b6102a2565b005b6100f061038c565b6040516100fd9190611066565b60405180910390f35b610120600480360381019061011b9190610e4e565b610392565b005b61012a6107b9565b6040516101379190611081565b60405180910390f35b61015a60048036038101906101559190610ea1565b6107cc565b005b61016461092c565b6040516101719190610fc4565b60405180910390f35b610194600480360381019061018f9190610de1565b6109ba565b6040516101a19190611066565b60405180910390f35b6101b2610a03565b6040516101bf9190610fc4565b60405180910390f35b6101e260048036038101906101dd9190610ea1565b610a91565b005b6101fe60048036038101906101f99190610e0e565b610cd5565b60405161020b9190611066565b60405180910390f35b60018054610221906111be565b80601f016020809104026020016040519081016040528092919081815260200182805461024d906111be565b801561029a5780601f1061026f5761010080835404028352916020019161029a565b820191906000526020600020905b81548152906001019060200180831161027d57829003601f168201915b505050505081565b80600660003373ffffffffffffffffffffffffffffffffffffffff1673ffffffffffffffffffffffffffffffffffffffff16815260200190815260200160002060008473ffffffffffffffffffffffffffffffffffffffff1673ffffffffffffffffffffffffffffffffffffffff168152602001908152602001600020819055508173ffffffffffffffffffffffffffffffffffffffff163373ffffffffffffffffffffffffffffffffffffffff167f8c5be1e5ebec7d5bd14f71427d1e84f3dd0314c0f7b2291e5b200ac8c7c3b925836040516103809190611066565b60405180910390a35050565b60005481565b600081116103d5576040517f08c379a00000000000000000000000000000000000000000000000000000000081526004016103cc90611006565b60405180910390fd5b80600560008573ffffffffffffffffffffffffffffffffffffffff1673ffffffffffffffffffffffffffffffffffffffff168152602001908152602001600020541015610457576040517f08c379a000000000000000000000000000000000000000000000000000000000815260040161044e90610fe6565b60405180910390fd5b80600660008573ffffffffffffffffffffffffffffffffffffffff1673ffffffffffffffffffffffffffffffffffffffff16815260200190815260200160002060003373ffffffffffffffffffffffffffffffffffffffff1673ffffffffffffffffffffffffffffffffffffffff168152602001908152602001600020541015610516576040517f08c379a000000000000000000000000000000000000000000000000000000000815260040161050d90611026565b60405180910390fd5b61056881600560008573ffffffffffffffffffffffffffffffffffffffff1673ffffffffffffffffffffffffffffffffffffffff16815260200190815260200160002054610d5c90919063ffffffff16565b600560008473ffffffffffffffffffffffffffffffffffffffff1673ffffffffffffffffffffffffffffffffffffffff168152602001908152602001600020819055506105fd81600560008673ffffffffffffffffffffffffffffffffffffffff1673ffffffffffffffffffffffffffffffffffffffff16815260200190815260200160002054610d8490919063ffffffff16565b600560008573ffffffffffffffffffffffffffffffffffffffff1673ffffffffffffffffffffffffffffffffffffffff168152602001908152602001600020819055506106cf81600660008673ffffffffffffffffffffffffffffffffffffffff1673ffffffffffffffffffffffffffffffffffffffff16815260200190815260200160002060003373ffffffffffffffffffffffffffffffffffffffff1673ffffffffffffffffffffffffffffffffffffffff16815260200190815260200160002054610d8490919063ffffffff16565b600660008573ffffffffffffffffffffffffffffffffffffffff1673ffffffffffffffffffffffffffffffffffffffff16815260200190815260200160002060003373ffffffffffffffffffffffffffffffffffffffff1673ffffffffffffffffffffffffffffffffffffffff168152602001908152602001600020819055508173ffffffffffffffffffffffffffffffffffffffff168373ffffffffffffffffffffffffffffffffffffffff167fddf252ad1be2c89b69c2b068fc378daa952ba7f163c4a11628f55a4df523b3ef836040516107ac9190611066565b60405180910390a3505050565b600260009054906101000a900460ff1681565b600073ffffffffffffffffffffffffffffffffffffffff168273ffffffffffffffffffffffffffffffffffffffff16141561083c576040517f08c379a000000000000000000000000000000000000000000000000000000000815260040161083390611046565b60405180910390fd5b61084860008383610dad565b8060008082825461085991906110b8565b9250508190555080600560008473ffffffffffffffffffffffffffffffffffffffff1673ffffffffffffffffffffffffffffffffffffffff16815260200190815260200160002060008282546108af91906110b8565b925050819055508173ffffffffffffffffffffffffffffffffffffffff16600073ffffffffffffffffffffffffffffffffffffffff167fddf252ad1be2c89b69c2b068fc378daa952ba7f163c4a11628f55a4df523b3ef836040516109149190611066565b60405180910390a361092860008383610db2565b5050565b60048054610939906111be565b80601f0160208091040260200160405190810160405280929190818152602001828054610965906111be565b80156109b25780601f10610987576101008083540402835291602001916109b2565b820191906000526020600020905b81548152906001019060200180831161099557829003601f168201915b505050505081565b6000600560008373ffffffffffffffffffffffffffffffffffffffff1673ffffffffffffffffffffffffffffffffffffffff168152602001908152602001600020549050919050565b60038054610a10906111be565b80601f0160208091040260200160405190810160405280929190818152602001828054610a3c906111be565b8015610a895780601f10610a5e57610100808354040283529160200191610a89565b820191906000526020600020905b815481529060010190602001808311610a6c57829003601f168201915b505050505081565b6040600481610aa091906110b8565b600036905014610ab357610ab26111f0565b5b60008211610af6576040517f08c379a0000000000000000000000000000000000000000000000000000000008152600401610aed90611006565b60405180910390fd5b81610b00336109ba565b1015610b41576040517f08c379a0000000000000000000000000000000000000000000000000000000008152600401610b3890610fe6565b60405180910390fd5b610b9382600560003373ffffffffffffffffffffffffffffffffffffffff1673ffffffffffffffffffffffffffffffffffffffff16815260200190815260200160002054610d8490919063ffffffff16565b600560003373ffffffffffffffffffffffffffffffffffffffff1673ffffffffffffffffffffffffffffffffffffffff16815260200190815260200160002081905550610c2882600560008673ffffffffffffffffffffffffffffffffffffffff1673ffffffffffffffffffffffffffffffffffffffff16815260200190815260200160002054610d5c90919063ffffffff16565b600560008573ffffffffffffffffffffffffffffffffffffffff1673ffffffffffffffffffffffffffffffffffffffff168152602001908152602001600020819055508273ffffffffffffffffffffffffffffffffffffffff163373ffffffffffffffffffffffffffffffffffffffff167fddf252ad1be2c89b69c2b068fc378daa952ba7f163c4a11628f55a4df523b3ef84604051610cc89190611066565b60405180910390a3505050565b6000600660008373ffffffffffffffffffffffffffffffffffffffff1673ffffffffffffffffffffffffffffffffffffffff16815260200190815260200160002060008473ffffffffffffffffffffffffffffffffffffffff1673ffffffffffffffffffffffffffffffffffffffff16815260200190815260200160002054905092915050565b6000808284610d6b91906110b8565b905083811015610d7a57600080fd5b8091505092915050565b600082821115610d9357600080fd5b60008284610da1919061110e565b90508091505092915050565b505050565b505050565b600081359050610dc681611337565b92915050565b600081359050610ddb8161134e565b92915050565b600060208284031215610df757610df661127d565b5b6000610e0584828501610db7565b91505092915050565b60008060408385031215610e2557610e2461127d565b5b6000610e3385828601610db7565b9250506020610e4485828601610db7565b9150509250929050565b600080600060608486031215610e6757610e6661127d565b5b6000610e7586828701610db7565b9350506020610e8686828701610db7565b9250506040610e9786828701610dcc565b9150509250925092565b60008060408385031215610eb857610eb761127d565b5b6000610ec685828601610db7565b9250506020610ed785828601610dcc565b9150509250929050565b6000610eec8261109c565b610ef681856110a7565b9350610f0681856020860161118b565b610f0f81611282565b840191505092915050565b6000610f276010836110a7565b9150610f3282611293565b602082019050919050565b6000610f4a600b836110a7565b9150610f55826112bc565b602082019050919050565b6000610f6d600e836110a7565b9150610f78826112e5565b602082019050919050565b6000610f90601f836110a7565b9150610f9b8261130e565b602082019050919050565b610faf81611174565b82525050565b610fbe8161117e565b82525050565b60006020820190508181036000830152610fde8184610ee1565b905092915050565b60006020820190508181036000830152610fff81610f1a565b9050919050565b6000602082019050818103600083015261101f81610f3d565b9050919050565b6000602082019050818103600083015261103f81610f60565b9050919050565b6000602082019050818103600083015261105f81610f83565b9050919050565b600060208201905061107b6000830184610fa6565b92915050565b60006020820190506110966000830184610fb5565b92915050565b600081519050919050565b600082825260208201905092915050565b60006110c382611174565b91506110ce83611174565b9250827fffffffffffffffffffffffffffffffffffffffffffffffffffffffffffffffff038211156111035761110261121f565b5b828201905092915050565b600061111982611174565b915061112483611174565b9250828210156111375761113661121f565b5b828203905092915050565b600061114d82611154565b9050919050565b600073ffffffffffffffffffffffffffffffffffffffff82169050919050565b6000819050919050565b600060ff82169050919050565b60005b838110156111a957808201518184015260208101905061118e565b838111156111b8576000848401525b50505050565b600060028204905060018216806111d657607f821691505b602082108114156111ea576111e961124e565b5b50919050565b7f4e487b7100000000000000000000000000000000000000000000000000000000600052600160045260246000fd5b7f4e487b7100000000000000000000000000000000000000000000000000000000600052601160045260246000fd5b7f4e487b7100000000000000000000000000000000000000000000000000000000600052602260045260246000fd5b600080fd5b6000601f19601f8301169050919050565b7f42616c616e6365203c20616d6f756e7400000000000000000000000000000000600082015250565b7f416d6f756e74203c3d2030000000000000000000000000000000000000000000600082015250565b7f446f6e277420616c6c6f7765642e000000000000000000000000000000000000600082015250565b7f45524332303a206d696e7420746f20746865207a65726f206164647265737300600082015250565b61134081611142565b811461134b57600080fd5b50565b61135781611174565b811461136257600080fd5b5056fea2646970667358221220403d2fbb0287a50e9c5c40d0af765b57b07dac8710014f84751aa896116bfeb464736f6c63430008070033",
					"opcodes": "PUSH1 0x80 PUSH1 0x40 MSTORE CALLVALUE DUP1 ISZERO PUSH3 0x11 JUMPI PUSH1 0x0 DUP1 REVERT JUMPDEST POP CALLER PUSH1 0x5 PUSH1 0x0 PUSH2 0x100 EXP DUP2 SLOAD DUP2 PUSH20 0xFFFFFFFFFFFFFFFFFFFFFFFFFFFFFFFFFFFFFFFF MUL NOT AND SWAP1 DUP4 PUSH20 0xFFFFFFFFFFFFFFFFFFFFFFFFFFFFFFFFFFFFFFFF AND MUL OR SWAP1 SSTORE POP PUSH4 0x625F140A PUSH1 0x0 DUP2 SWAP1 SSTORE POP PUSH3 0x69780 PUSH1 0x0 SLOAD PUSH3 0x71 SWAP2 SWAP1 PUSH3 0x13C JUMP JUMPDEST PUSH1 0x1 DUP2 SWAP1 SSTORE POP PUSH1 0x4 PUSH1 0x3 DUP2 SWAP1 SSTORE POP PUSH1 0x3 SLOAD PUSH1 0x40 MLOAD PUSH3 0x90 SWAP1 PUSH3 0x100 JUMP JUMPDEST PUSH3 0x9C SWAP2 SWAP1 PUSH3 0x11F JUMP JUMPDEST PUSH1 0x40 MLOAD DUP1 SWAP2 SUB SWAP1 PUSH1 0x0 CREATE DUP1 ISZERO DUP1 ISZERO PUSH3 0xB9 JUMPI RETURNDATASIZE PUSH1 0x0 DUP1 RETURNDATACOPY RETURNDATASIZE PUSH1 0x0 REVERT JUMPDEST POP PUSH1 0x6 PUSH1 0x0 PUSH2 0x100 EXP DUP2 SLOAD DUP2 PUSH20 0xFFFFFFFFFFFFFFFFFFFFFFFFFFFFFFFFFFFFFFFF MUL NOT AND SWAP1 DUP4 PUSH20 0xFFFFFFFFFFFFFFFFFFFFFFFFFFFFFFFFFFFFFFFF AND MUL OR SWAP1 SSTORE POP PUSH3 0x1D2 JUMP JUMPDEST PUSH2 0x162F DUP1 PUSH3 0x13F3 DUP4 CODECOPY ADD SWAP1 JUMP JUMPDEST PUSH3 0x119 DUP2 PUSH3 0x199 JUMP JUMPDEST DUP3 MSTORE POP POP JUMP JUMPDEST PUSH1 0x0 PUSH1 0x20 DUP3 ADD SWAP1 POP PUSH3 0x136 PUSH1 0x0 DUP4 ADD DUP5 PUSH3 0x10E JUMP JUMPDEST SWAP3 SWAP2 POP POP JUMP JUMPDEST PUSH1 0x0 PUSH3 0x149 DUP3 PUSH3 0x199 JUMP JUMPDEST SWAP2 POP PUSH3 0x156 DUP4 PUSH3 0x199 JUMP JUMPDEST SWAP3 POP DUP3 PUSH32 0xFFFFFFFFFFFFFFFFFFFFFFFFFFFFFFFFFFFFFFFFFFFFFFFFFFFFFFFFFFFFFFFF SUB DUP3 GT ISZERO PUSH3 0x18E JUMPI PUSH3 0x18D PUSH3 0x1A3 JUMP JUMPDEST JUMPDEST DUP3 DUP3 ADD SWAP1 POP SWAP3 SWAP2 POP POP JUMP JUMPDEST PUSH1 0x0 DUP2 SWAP1 POP SWAP2 SWAP1 POP JUMP JUMPDEST PUSH32 0x4E487B7100000000000000000000000000000000000000000000000000000000 PUSH1 0x0 MSTORE PUSH1 0x11 PUSH1 0x4 MSTORE PUSH1 0x24 PUSH1 0x0 REVERT JUMPDEST PUSH2 0x1211 DUP1 PUSH3 0x1E2 PUSH1 0x0 CODECOPY PUSH1 0x0 RETURN INVALID PUSH1 0x80 PUSH1 0x40 MSTORE CALLVALUE DUP1 ISZERO PUSH2 0x10 JUMPI PUSH1 0x0 DUP1 REVERT JUMPDEST POP PUSH1 0x4 CALLDATASIZE LT PUSH2 0x62 JUMPI PUSH1 0x0 CALLDATALOAD PUSH1 0xE0 SHR DUP1 PUSH4 0x4041EF54 EQ PUSH2 0x67 JUMPI DUP1 PUSH4 0x633FFF16 EQ PUSH2 0x97 JUMPI DUP1 PUSH4 0x6CEA0E46 EQ PUSH2 0xB3 JUMPI DUP1 PUSH4 0x6DD7D8EA EQ PUSH2 0xCF JUMPI DUP1 PUSH4 0x8203373A EQ PUSH2 0xEB JUMPI DUP1 PUSH4 0x9E7B8D61 EQ PUSH2 0x107 JUMPI JUMPDEST PUSH1 0x0 DUP1 REVERT JUMPDEST PUSH2 0x81 PUSH1 0x4 DUP1 CALLDATASIZE SUB DUP2 ADD SWAP1 PUSH2 0x7C SWAP2 SWAP1 PUSH2 0xB05 JUMP JUMPDEST PUSH2 0x123 JUMP JUMPDEST PUSH1 0x40 MLOAD PUSH2 0x8E SWAP2 SWAP1 PUSH2 0xE17 JUMP JUMPDEST PUSH1 0x40 MLOAD DUP1 SWAP2 SUB SWAP1 RETURN JUMPDEST PUSH2 0xB1 PUSH1 0x4 DUP1 CALLDATASIZE SUB DUP2 ADD SWAP1 PUSH2 0xAC SWAP2 SWAP1 PUSH2 0xB7B JUMP JUMPDEST PUSH2 0x1D7 JUMP JUMPDEST STOP JUMPDEST PUSH2 0xCD PUSH1 0x4 DUP1 CALLDATASIZE SUB DUP2 ADD SWAP1 PUSH2 0xC8 SWAP2 SWAP1 PUSH2 0xB05 JUMP JUMPDEST PUSH2 0x2C7 JUMP JUMPDEST STOP JUMPDEST PUSH2 0xE9 PUSH1 0x4 DUP1 CALLDATASIZE SUB DUP2 ADD SWAP1 PUSH2 0xE4 SWAP2 SWAP1 PUSH2 0xB05 JUMP JUMPDEST PUSH2 0x35A JUMP JUMPDEST STOP JUMPDEST PUSH2 0x105 PUSH1 0x4 DUP1 CALLDATASIZE SUB DUP2 ADD SWAP1 PUSH2 0x100 SWAP2 SWAP1 PUSH2 0xB32 JUMP JUMPDEST PUSH2 0x60A JUMP JUMPDEST STOP JUMPDEST PUSH2 0x121 PUSH1 0x4 DUP1 CALLDATASIZE SUB DUP2 ADD SWAP1 PUSH2 0x11C SWAP2 SWAP1 PUSH2 0xB05 JUMP JUMPDEST PUSH2 0x7D9 JUMP JUMPDEST STOP JUMPDEST PUSH1 0x0 PUSH1 0x6 PUSH1 0x0 SWAP1 SLOAD SWAP1 PUSH2 0x100 EXP SWAP1 DIV PUSH20 0xFFFFFFFFFFFFFFFFFFFFFFFFFFFFFFFFFFFFFFFF AND PUSH20 0xFFFFFFFFFFFFFFFFFFFFFFFFFFFFFFFFFFFFFFFF AND PUSH4 0x70A08231 DUP4 PUSH1 0x40 MLOAD DUP3 PUSH4 0xFFFFFFFF AND PUSH1 0xE0 SHL DUP2 MSTORE PUSH1 0x4 ADD PUSH2 0x180 SWAP2 SWAP1 PUSH2 0xCFC JUMP JUMPDEST PUSH1 0x20 PUSH1 0x40 MLOAD DUP1 DUP4 SUB DUP2 DUP7 DUP1 EXTCODESIZE ISZERO DUP1 ISZERO PUSH2 0x198 JUMPI PUSH1 0x0 DUP1 REVERT JUMPDEST POP GAS STATICCALL ISZERO DUP1 ISZERO PUSH2 0x1AC JUMPI RETURNDATASIZE PUSH1 0x0 DUP1 RETURNDATACOPY RETURNDATASIZE PUSH1 0x0 REVERT JUMPDEST POP POP POP POP PUSH1 0x40 MLOAD RETURNDATASIZE PUSH1 0x1F NOT PUSH1 0x1F DUP3 ADD AND DUP3 ADD DUP1 PUSH1 0x40 MSTORE POP DUP2 ADD SWAP1 PUSH2 0x1D0 SWAP2 SWAP1 PUSH2 0xBF3 JUMP JUMPDEST SWAP1 POP SWAP2 SWAP1 POP JUMP JUMPDEST DUP1 MLOAD DUP3 MLOAD EQ PUSH2 0x21B JUMPI PUSH1 0x40 MLOAD PUSH32 0x8C379A000000000000000000000000000000000000000000000000000000000 DUP2 MSTORE PUSH1 0x4 ADD PUSH2 0x212 SWAP1 PUSH2 0xD77 JUMP JUMPDEST PUSH1 0x40 MLOAD DUP1 SWAP2 SUB SWAP1 REVERT JUMPDEST PUSH1 0x0 JUMPDEST DUP3 MLOAD DUP2 LT ISZERO PUSH2 0x2C2 JUMPI DUP2 DUP2 DUP2 MLOAD DUP2 LT PUSH2 0x23A JUMPI PUSH2 0x239 PUSH2 0x1058 JUMP JUMPDEST JUMPDEST PUSH1 0x20 MUL PUSH1 0x20 ADD ADD MLOAD PUSH1 0x4 PUSH1 0x0 DUP6 DUP5 DUP2 MLOAD DUP2 LT PUSH2 0x259 JUMPI PUSH2 0x258 PUSH2 0x1058 JUMP JUMPDEST JUMPDEST PUSH1 0x20 MUL PUSH1 0x20 ADD ADD MLOAD PUSH20 0xFFFFFFFFFFFFFFFFFFFFFFFFFFFFFFFFFFFFFFFF AND PUSH20 0xFFFFFFFFFFFFFFFFFFFFFFFFFFFFFFFFFFFFFFFF AND DUP2 MSTORE PUSH1 0x20 ADD SWAP1 DUP2 MSTORE PUSH1 0x20 ADD PUSH1 0x0 KECCAK256 SWAP1 DUP1 MLOAD SWAP1 PUSH1 0x20 ADD SWAP1 PUSH2 0x2AE SWAP3 SWAP2 SWAP1 PUSH2 0x86E JUMP JUMPDEST POP DUP1 DUP1 PUSH2 0x2BA SWAP1 PUSH2 0xFB1 JUMP JUMPDEST SWAP2 POP POP PUSH2 0x21E JUMP JUMPDEST POP POP POP JUMP JUMPDEST PUSH1 0x6 PUSH1 0x0 SWAP1 SLOAD SWAP1 PUSH2 0x100 EXP SWAP1 DIV PUSH20 0xFFFFFFFFFFFFFFFFFFFFFFFFFFFFFFFFFFFFFFFF AND PUSH20 0xFFFFFFFFFFFFFFFFFFFFFFFFFFFFFFFFFFFFFFFF AND PUSH4 0x40C10F19 DUP3 PUSH1 0x1 PUSH1 0x40 MLOAD DUP4 PUSH4 0xFFFFFFFF AND PUSH1 0xE0 SHL DUP2 MSTORE PUSH1 0x4 ADD PUSH2 0x325 SWAP3 SWAP2 SWAP1 PUSH2 0xD4E JUMP JUMPDEST PUSH1 0x0 PUSH1 0x40 MLOAD DUP1 DUP4 SUB DUP2 PUSH1 0x0 DUP8 DUP1 EXTCODESIZE ISZERO DUP1 ISZERO PUSH2 0x33F JUMPI PUSH1 0x0 DUP1 REVERT JUMPDEST POP GAS CALL ISZERO DUP1 ISZERO PUSH2 0x353 JUMPI RETURNDATASIZE PUSH1 0x0 DUP1 RETURNDATACOPY RETURNDATASIZE PUSH1 0x0 REVERT JUMPDEST POP POP POP POP POP JUMP JUMPDEST PUSH1 0x1 SLOAD TIMESTAMP GT ISZERO PUSH2 0x39F JUMPI PUSH1 0x40 MLOAD PUSH32 0x8C379A000000000000000000000000000000000000000000000000000000000 DUP2 MSTORE PUSH1 0x4 ADD PUSH2 0x396 SWAP1 PUSH2 0xD97 JUMP JUMPDEST PUSH1 0x40 MLOAD DUP1 SWAP2 SUB SWAP1 REVERT JUMPDEST PUSH1 0x2 PUSH1 0x0 CALLER PUSH20 0xFFFFFFFFFFFFFFFFFFFFFFFFFFFFFFFFFFFFFFFF AND PUSH20 0xFFFFFFFFFFFFFFFFFFFFFFFFFFFFFFFFFFFFFFFF AND DUP2 MSTORE PUSH1 0x20 ADD SWAP1 DUP2 MSTORE PUSH1 0x20 ADD PUSH1 0x0 KECCAK256 PUSH1 0x0 SWAP1 SLOAD SWAP1 PUSH2 0x100 EXP SWAP1 DIV PUSH1 0xFF AND ISZERO PUSH2 0x42C JUMPI PUSH1 0x40 MLOAD PUSH32 0x8C379A000000000000000000000000000000000000000000000000000000000 DUP2 MSTORE PUSH1 0x4 ADD PUSH2 0x423 SWAP1 PUSH2 0xDD7 JUMP JUMPDEST PUSH1 0x40 MLOAD DUP1 SWAP2 SUB SWAP1 REVERT JUMPDEST PUSH1 0x0 PUSH1 0x6 PUSH1 0x0 SWAP1 SLOAD SWAP1 PUSH2 0x100 EXP SWAP1 DIV PUSH20 0xFFFFFFFFFFFFFFFFFFFFFFFFFFFFFFFFFFFFFFFF AND PUSH20 0xFFFFFFFFFFFFFFFFFFFFFFFFFFFFFFFFFFFFFFFF AND PUSH4 0x70A08231 CALLER PUSH1 0x40 MLOAD DUP3 PUSH4 0xFFFFFFFF AND PUSH1 0xE0 SHL DUP2 MSTORE PUSH1 0x4 ADD PUSH2 0x489 SWAP2 SWAP1 PUSH2 0xCFC JUMP JUMPDEST PUSH1 0x20 PUSH1 0x40 MLOAD DUP1 DUP4 SUB DUP2 DUP7 DUP1 EXTCODESIZE ISZERO DUP1 ISZERO PUSH2 0x4A1 JUMPI PUSH1 0x0 DUP1 REVERT JUMPDEST POP GAS STATICCALL ISZERO DUP1 ISZERO PUSH2 0x4B5 JUMPI RETURNDATASIZE PUSH1 0x0 DUP1 RETURNDATACOPY RETURNDATASIZE PUSH1 0x0 REVERT JUMPDEST POP POP POP POP PUSH1 0x40 MLOAD RETURNDATASIZE PUSH1 0x1F NOT PUSH1 0x1F DUP3 ADD AND DUP3 ADD DUP1 PUSH1 0x40 MSTORE POP DUP2 ADD SWAP1 PUSH2 0x4D9 SWAP2 SWAP1 PUSH2 0xBF3 JUMP JUMPDEST SWAP1 POP PUSH1 0x0 DUP2 GT PUSH2 0x51E JUMPI PUSH1 0x40 MLOAD PUSH32 0x8C379A000000000000000000000000000000000000000000000000000000000 DUP2 MSTORE PUSH1 0x4 ADD PUSH2 0x515 SWAP1 PUSH2 0xDF7 JUMP JUMPDEST PUSH1 0x40 MLOAD DUP1 SWAP2 SUB SWAP1 REVERT JUMPDEST PUSH1 0x6 PUSH1 0x0 SWAP1 SLOAD SWAP1 PUSH2 0x100 EXP SWAP1 DIV PUSH20 0xFFFFFFFFFFFFFFFFFFFFFFFFFFFFFFFFFFFFFFFF AND PUSH20 0xFFFFFFFFFFFFFFFFFFFFFFFFFFFFFFFFFFFFFFFF AND PUSH4 0xA9059CBB DUP4 PUSH1 0x1 PUSH1 0x40 MLOAD DUP4 PUSH4 0xFFFFFFFF AND PUSH1 0xE0 SHL DUP2 MSTORE PUSH1 0x4 ADD PUSH2 0x57C SWAP3 SWAP2 SWAP1 PUSH2 0xD4E JUMP JUMPDEST PUSH1 0x0 PUSH1 0x40 MLOAD DUP1 DUP4 SUB DUP2 PUSH1 0x0 DUP8 DUP1 EXTCODESIZE ISZERO DUP1 ISZERO PUSH2 0x596 JUMPI PUSH1 0x0 DUP1 REVERT JUMPDEST POP GAS CALL ISZERO DUP1 ISZERO PUSH2 0x5AA JUMPI RETURNDATASIZE PUSH1 0x0 DUP1 RETURNDATACOPY RETURNDATASIZE PUSH1 0x0 REVERT JUMPDEST POP POP POP POP PUSH1 0x1 PUSH1 0x2 PUSH1 0x0 CALLER PUSH20 0xFFFFFFFFFFFFFFFFFFFFFFFFFFFFFFFFFFFFFFFF AND PUSH20 0xFFFFFFFFFFFFFFFFFFFFFFFFFFFFFFFFFFFFFFFF AND DUP2 MSTORE PUSH1 0x20 ADD SWAP1 DUP2 MSTORE PUSH1 0x20 ADD PUSH1 0x0 KECCAK256 PUSH1 0x0 PUSH2 0x100 EXP DUP2 SLOAD DUP2 PUSH1 0xFF MUL NOT AND SWAP1 DUP4 ISZERO ISZERO MUL OR SWAP1 SSTORE POP POP POP JUMP JUMPDEST PUSH1 0x5 PUSH1 0x0 SWAP1 SLOAD SWAP1 PUSH2 0x100 EXP SWAP1 DIV PUSH20 0xFFFFFFFFFFFFFFFFFFFFFFFFFFFFFFFFFFFFFFFF AND PUSH20 0xFFFFFFFFFFFFFFFFFFFFFFFFFFFFFFFFFFFFFFFF AND CALLER PUSH20 0xFFFFFFFFFFFFFFFFFFFFFFFFFFFFFFFFFFFFFFFF AND EQ PUSH2 0x69A JUMPI PUSH1 0x40 MLOAD PUSH32 0x8C379A000000000000000000000000000000000000000000000000000000000 DUP2 MSTORE PUSH1 0x4 ADD PUSH2 0x691 SWAP1 PUSH2 0xDB7 JUMP JUMPDEST PUSH1 0x40 MLOAD DUP1 SWAP2 SUB SWAP1 REVERT JUMPDEST PUSH1 0x0 JUMPDEST DUP2 MLOAD DUP2 LT ISZERO PUSH2 0x7D5 JUMPI PUSH1 0x0 PUSH1 0x2 PUSH1 0x0 DUP5 DUP5 DUP2 MLOAD DUP2 LT PUSH2 0x6BF JUMPI PUSH2 0x6BE PUSH2 0x1058 JUMP JUMPDEST JUMPDEST PUSH1 0x20 MUL PUSH1 0x20 ADD ADD MLOAD PUSH20 0xFFFFFFFFFFFFFFFFFFFFFFFFFFFFFFFFFFFFFFFF AND PUSH20 0xFFFFFFFFFFFFFFFFFFFFFFFFFFFFFFFFFFFFFFFF AND DUP2 MSTORE PUSH1 0x20 ADD SWAP1 DUP2 MSTORE PUSH1 0x20 ADD PUSH1 0x0 KECCAK256 PUSH1 0x0 PUSH2 0x100 EXP DUP2 SLOAD DUP2 PUSH1 0xFF MUL NOT AND SWAP1 DUP4 ISZERO ISZERO MUL OR SWAP1 SSTORE POP PUSH1 0x6 PUSH1 0x0 SWAP1 SLOAD SWAP1 PUSH2 0x100 EXP SWAP1 DIV PUSH20 0xFFFFFFFFFFFFFFFFFFFFFFFFFFFFFFFFFFFFFFFF AND PUSH20 0xFFFFFFFFFFFFFFFFFFFFFFFFFFFFFFFFFFFFFFFF AND PUSH4 0x40C10F19 DUP4 DUP4 DUP2 MLOAD DUP2 LT PUSH2 0x769 JUMPI PUSH2 0x768 PUSH2 0x1058 JUMP JUMPDEST JUMPDEST PUSH1 0x20 MUL PUSH1 0x20 ADD ADD MLOAD PUSH1 0x1 PUSH1 0x40 MLOAD DUP4 PUSH4 0xFFFFFFFF AND PUSH1 0xE0 SHL DUP2 MSTORE PUSH1 0x4 ADD PUSH2 0x790 SWAP3 SWAP2 SWAP1 PUSH2 0xD4E JUMP JUMPDEST PUSH1 0x0 PUSH1 0x40 MLOAD DUP1 DUP4 SUB DUP2 PUSH1 0x0 DUP8 DUP1 EXTCODESIZE ISZERO DUP1 ISZERO PUSH2 0x7AA JUMPI PUSH1 0x0 DUP1 REVERT JUMPDEST POP GAS CALL ISZERO DUP1 ISZERO PUSH2 0x7BE JUMPI RETURNDATASIZE PUSH1 0x0 DUP1 RETURNDATACOPY RETURNDATASIZE PUSH1 0x0 REVERT JUMPDEST POP POP POP POP DUP1 DUP1 PUSH2 0x7CD SWAP1 PUSH2 0xFB1 JUMP JUMPDEST SWAP2 POP POP PUSH2 0x69D JUMP JUMPDEST POP POP JUMP JUMPDEST PUSH1 0x6 PUSH1 0x0 SWAP1 SLOAD SWAP1 PUSH2 0x100 EXP SWAP1 DIV PUSH20 0xFFFFFFFFFFFFFFFFFFFFFFFFFFFFFFFFFFFFFFFF AND PUSH20 0xFFFFFFFFFFFFFFFFFFFFFFFFFFFFFFFFFFFFFFFF AND PUSH4 0x23B872DD CALLER DUP4 PUSH1 0x1 PUSH1 0x40 MLOAD DUP5 PUSH4 0xFFFFFFFF AND PUSH1 0xE0 SHL DUP2 MSTORE PUSH1 0x4 ADD PUSH2 0x839 SWAP4 SWAP3 SWAP2 SWAP1 PUSH2 0xD17 JUMP JUMPDEST PUSH1 0x0 PUSH1 0x40 MLOAD DUP1 DUP4 SUB DUP2 PUSH1 0x0 DUP8 DUP1 EXTCODESIZE ISZERO DUP1 ISZERO PUSH2 0x853 JUMPI PUSH1 0x0 DUP1 REVERT JUMPDEST POP GAS CALL ISZERO DUP1 ISZERO PUSH2 0x867 JUMPI RETURNDATASIZE PUSH1 0x0 DUP1 RETURNDATACOPY RETURNDATASIZE PUSH1 0x0 REVERT JUMPDEST POP POP POP POP POP JUMP JUMPDEST DUP3 DUP1 SLOAD PUSH2 0x87A SWAP1 PUSH2 0xF4E JUMP JUMPDEST SWAP1 PUSH1 0x0 MSTORE PUSH1 0x20 PUSH1 0x0 KECCAK256 SWAP1 PUSH1 0x1F ADD PUSH1 0x20 SWAP1 DIV DUP2 ADD SWAP3 DUP3 PUSH2 0x89C JUMPI PUSH1 0x0 DUP6 SSTORE PUSH2 0x8E3 JUMP JUMPDEST DUP3 PUSH1 0x1F LT PUSH2 0x8B5 JUMPI DUP1 MLOAD PUSH1 0xFF NOT AND DUP4 DUP1 ADD OR DUP6 SSTORE PUSH2 0x8E3 JUMP JUMPDEST DUP3 DUP1 ADD PUSH1 0x1 ADD DUP6 SSTORE DUP3 ISZERO PUSH2 0x8E3 JUMPI SWAP2 DUP3 ADD JUMPDEST DUP3 DUP2 GT ISZERO PUSH2 0x8E2 JUMPI DUP3 MLOAD DUP3 SSTORE SWAP2 PUSH1 0x20 ADD SWAP2 SWAP1 PUSH1 0x1 ADD SWAP1 PUSH2 0x8C7 JUMP JUMPDEST JUMPDEST POP SWAP1 POP PUSH2 0x8F0 SWAP2 SWAP1 PUSH2 0x8F4 JUMP JUMPDEST POP SWAP1 JUMP JUMPDEST JUMPDEST DUP1 DUP3 GT ISZERO PUSH2 0x90D JUMPI PUSH1 0x0 DUP2 PUSH1 0x0 SWAP1 SSTORE POP PUSH1 0x1 ADD PUSH2 0x8F5 JUMP JUMPDEST POP SWAP1 JUMP JUMPDEST PUSH1 0x0 PUSH2 0x924 PUSH2 0x91F DUP5 PUSH2 0xE57 JUMP JUMPDEST PUSH2 0xE32 JUMP JUMPDEST SWAP1 POP DUP1 DUP4 DUP3 MSTORE PUSH1 0x20 DUP3 ADD SWAP1 POP DUP3 DUP6 PUSH1 0x20 DUP7 MUL DUP3 ADD GT ISZERO PUSH2 0x947 JUMPI PUSH2 0x946 PUSH2 0x10BB JUMP JUMPDEST JUMPDEST PUSH1 0x0 JUMPDEST DUP6 DUP2 LT ISZERO PUSH2 0x977 JUMPI DUP2 PUSH2 0x95D DUP9 DUP3 PUSH2 0xA51 JUMP JUMPDEST DUP5 MSTORE PUSH1 0x20 DUP5 ADD SWAP4 POP PUSH1 0x20 DUP4 ADD SWAP3 POP POP PUSH1 0x1 DUP2 ADD SWAP1 POP PUSH2 0x94A JUMP JUMPDEST POP POP POP SWAP4 SWAP3 POP POP POP JUMP JUMPDEST PUSH1 0x0 PUSH2 0x994 PUSH2 0x98F DUP5 PUSH2 0xE83 JUMP JUMPDEST PUSH2 0xE32 JUMP JUMPDEST SWAP1 POP DUP1 DUP4 DUP3 MSTORE PUSH1 0x20 DUP3 ADD SWAP1 POP DUP3 DUP6 PUSH1 0x20 DUP7 MUL DUP3 ADD GT ISZERO PUSH2 0x9B7 JUMPI PUSH2 0x9B6 PUSH2 0x10BB JUMP JUMPDEST JUMPDEST PUSH1 0x0 JUMPDEST DUP6 DUP2 LT ISZERO PUSH2 0xA05 JUMPI DUP2 CALLDATALOAD PUSH8 0xFFFFFFFFFFFFFFFF DUP2 GT ISZERO PUSH2 0x9DD JUMPI PUSH2 0x9DC PUSH2 0x10B6 JUMP JUMPDEST JUMPDEST DUP1 DUP7 ADD PUSH2 0x9EA DUP10 DUP3 PUSH2 0xAC2 JUMP JUMPDEST DUP6 MSTORE PUSH1 0x20 DUP6 ADD SWAP5 POP PUSH1 0x20 DUP5 ADD SWAP4 POP POP POP PUSH1 0x1 DUP2 ADD SWAP1 POP PUSH2 0x9BA JUMP JUMPDEST POP POP POP SWAP4 SWAP3 POP POP POP JUMP JUMPDEST PUSH1 0x0 PUSH2 0xA22 PUSH2 0xA1D DUP5 PUSH2 0xEAF JUMP JUMPDEST PUSH2 0xE32 JUMP JUMPDEST SWAP1 POP DUP3 DUP2 MSTORE PUSH1 0x20 DUP2 ADD DUP5 DUP5 DUP5 ADD GT ISZERO PUSH2 0xA3E JUMPI PUSH2 0xA3D PUSH2 0x10C0 JUMP JUMPDEST JUMPDEST PUSH2 0xA49 DUP5 DUP3 DUP6 PUSH2 0xF3F JUMP JUMPDEST POP SWAP4 SWAP3 POP POP POP JUMP JUMPDEST PUSH1 0x0 DUP2 CALLDATALOAD SWAP1 POP PUSH2 0xA60 DUP2 PUSH2 0x11AD JUMP JUMPDEST SWAP3 SWAP2 POP POP JUMP JUMPDEST PUSH1 0x0 DUP3 PUSH1 0x1F DUP4 ADD SLT PUSH2 0xA7B JUMPI PUSH2 0xA7A PUSH2 0x10B6 JUMP JUMPDEST JUMPDEST DUP2 CALLDATALOAD PUSH2 0xA8B DUP5 DUP3 PUSH1 0x20 DUP7 ADD PUSH2 0x911 JUMP JUMPDEST SWAP2 POP POP SWAP3 SWAP2 POP POP JUMP JUMPDEST PUSH1 0x0 DUP3 PUSH1 0x1F DUP4 ADD SLT PUSH2 0xAA9 JUMPI PUSH2 0xAA8 PUSH2 0x10B6 JUMP JUMPDEST JUMPDEST DUP2 CALLDATALOAD PUSH2 0xAB9 DUP5 DUP3 PUSH1 0x20 DUP7 ADD PUSH2 0x981 JUMP JUMPDEST SWAP2 POP POP SWAP3 SWAP2 POP POP JUMP JUMPDEST PUSH1 0x0 DUP3 PUSH1 0x1F DUP4 ADD SLT PUSH2 0xAD7 JUMPI PUSH2 0xAD6 PUSH2 0x10B6 JUMP JUMPDEST JUMPDEST DUP2 CALLDATALOAD PUSH2 0xAE7 DUP5 DUP3 PUSH1 0x20 DUP7 ADD PUSH2 0xA0F JUMP JUMPDEST SWAP2 POP POP SWAP3 SWAP2 POP POP JUMP JUMPDEST PUSH1 0x0 DUP2 MLOAD SWAP1 POP PUSH2 0xAFF DUP2 PUSH2 0x11C4 JUMP JUMPDEST SWAP3 SWAP2 POP POP JUMP JUMPDEST PUSH1 0x0 PUSH1 0x20 DUP3 DUP5 SUB SLT ISZERO PUSH2 0xB1B JUMPI PUSH2 0xB1A PUSH2 0x10CA JUMP JUMPDEST JUMPDEST PUSH1 0x0 PUSH2 0xB29 DUP5 DUP3 DUP6 ADD PUSH2 0xA51 JUMP JUMPDEST SWAP2 POP POP SWAP3 SWAP2 POP POP JUMP JUMPDEST PUSH1 0x0 PUSH1 0x20 DUP3 DUP5 SUB SLT ISZERO PUSH2 0xB48 JUMPI PUSH2 0xB47 PUSH2 0x10CA JUMP JUMPDEST JUMPDEST PUSH1 0x0 DUP3 ADD CALLDATALOAD PUSH8 0xFFFFFFFFFFFFFFFF DUP2 GT ISZERO PUSH2 0xB66 JUMPI PUSH2 0xB65 PUSH2 0x10C5 JUMP JUMPDEST JUMPDEST PUSH2 0xB72 DUP5 DUP3 DUP6 ADD PUSH2 0xA66 JUMP JUMPDEST SWAP2 POP POP SWAP3 SWAP2 POP POP JUMP JUMPDEST PUSH1 0x0 DUP1 PUSH1 0x40 DUP4 DUP6 SUB SLT ISZERO PUSH2 0xB92 JUMPI PUSH2 0xB91 PUSH2 0x10CA JUMP JUMPDEST JUMPDEST PUSH1 0x0 DUP4 ADD CALLDATALOAD PUSH8 0xFFFFFFFFFFFFFFFF DUP2 GT ISZERO PUSH2 0xBB0 JUMPI PUSH2 0xBAF PUSH2 0x10C5 JUMP JUMPDEST JUMPDEST PUSH2 0xBBC DUP6 DUP3 DUP7 ADD PUSH2 0xA66 JUMP JUMPDEST SWAP3 POP POP PUSH1 0x20 DUP4 ADD CALLDATALOAD PUSH8 0xFFFFFFFFFFFFFFFF DUP2 GT ISZERO PUSH2 0xBDD JUMPI PUSH2 0xBDC PUSH2 0x10C5 JUMP JUMPDEST JUMPDEST PUSH2 0xBE9 DUP6 DUP3 DUP7 ADD PUSH2 0xA94 JUMP JUMPDEST SWAP2 POP POP SWAP3 POP SWAP3 SWAP1 POP JUMP JUMPDEST PUSH1 0x0 PUSH1 0x20 DUP3 DUP5 SUB SLT ISZERO PUSH2 0xC09 JUMPI PUSH2 0xC08 PUSH2 0x10CA JUMP JUMPDEST JUMPDEST PUSH1 0x0 PUSH2 0xC17 DUP5 DUP3 DUP6 ADD PUSH2 0xAF0 JUMP JUMPDEST SWAP2 POP POP SWAP3 SWAP2 POP POP JUMP JUMPDEST PUSH2 0xC29 DUP2 PUSH2 0xEF1 JUMP JUMPDEST DUP3 MSTORE POP POP JUMP JUMPDEST PUSH2 0xC38 DUP2 PUSH2 0xF2D JUMP JUMPDEST DUP3 MSTORE POP POP JUMP JUMPDEST PUSH1 0x0 PUSH2 0xC4B PUSH1 0x14 DUP4 PUSH2 0xEE0 JUMP JUMPDEST SWAP2 POP PUSH2 0xC56 DUP3 PUSH2 0x10E0 JUMP JUMPDEST PUSH1 0x20 DUP3 ADD SWAP1 POP SWAP2 SWAP1 POP JUMP JUMPDEST PUSH1 0x0 PUSH2 0xC6E PUSH1 0xC DUP4 PUSH2 0xEE0 JUMP JUMPDEST SWAP2 POP PUSH2 0xC79 DUP3 PUSH2 0x1109 JUMP JUMPDEST PUSH1 0x20 DUP3 ADD SWAP1 POP SWAP2 SWAP1 POP JUMP JUMPDEST PUSH1 0x0 PUSH2 0xC91 PUSH1 0x1B DUP4 PUSH2 0xEE0 JUMP JUMPDEST SWAP2 POP PUSH2 0xC9C DUP3 PUSH2 0x1132 JUMP JUMPDEST PUSH1 0x20 DUP3 ADD SWAP1 POP SWAP2 SWAP1 POP JUMP JUMPDEST PUSH1 0x0 PUSH2 0xCB4 PUSH1 0x14 DUP4 PUSH2 0xEE0 JUMP JUMPDEST SWAP2 POP PUSH2 0xCBF DUP3 PUSH2 0x115B JUMP JUMPDEST PUSH1 0x20 DUP3 ADD SWAP1 POP SWAP2 SWAP1 POP JUMP JUMPDEST PUSH1 0x0 PUSH2 0xCD7 PUSH1 0xC DUP4 PUSH2 0xEE0 JUMP JUMPDEST SWAP2 POP PUSH2 0xCE2 DUP3 PUSH2 0x1184 JUMP JUMPDEST PUSH1 0x20 DUP3 ADD SWAP1 POP SWAP2 SWAP1 POP JUMP JUMPDEST PUSH2 0xCF6 DUP2 PUSH2 0xF23 JUMP JUMPDEST DUP3 MSTORE POP POP JUMP JUMPDEST PUSH1 0x0 PUSH1 0x20 DUP3 ADD SWAP1 POP PUSH2 0xD11 PUSH1 0x0 DUP4 ADD DUP5 PUSH2 0xC20 JUMP JUMPDEST SWAP3 SWAP2 POP POP JUMP JUMPDEST PUSH1 0x0 PUSH1 0x60 DUP3 ADD SWAP1 POP PUSH2 0xD2C PUSH1 0x0 DUP4 ADD DUP7 PUSH2 0xC20 JUMP JUMPDEST PUSH2 0xD39 PUSH1 0x20 DUP4 ADD DUP6 PUSH2 0xC20 JUMP JUMPDEST PUSH2 0xD46 PUSH1 0x40 DUP4 ADD DUP5 PUSH2 0xC2F JUMP JUMPDEST SWAP5 SWAP4 POP POP POP POP JUMP JUMPDEST PUSH1 0x0 PUSH1 0x40 DUP3 ADD SWAP1 POP PUSH2 0xD63 PUSH1 0x0 DUP4 ADD DUP6 PUSH2 0xC20 JUMP JUMPDEST PUSH2 0xD70 PUSH1 0x20 DUP4 ADD DUP5 PUSH2 0xC2F JUMP JUMPDEST SWAP4 SWAP3 POP POP POP JUMP JUMPDEST PUSH1 0x0 PUSH1 0x20 DUP3 ADD SWAP1 POP DUP2 DUP2 SUB PUSH1 0x0 DUP4 ADD MSTORE PUSH2 0xD90 DUP2 PUSH2 0xC3E JUMP JUMPDEST SWAP1 POP SWAP2 SWAP1 POP JUMP JUMPDEST PUSH1 0x0 PUSH1 0x20 DUP3 ADD SWAP1 POP DUP2 DUP2 SUB PUSH1 0x0 DUP4 ADD MSTORE PUSH2 0xDB0 DUP2 PUSH2 0xC61 JUMP JUMPDEST SWAP1 POP SWAP2 SWAP1 POP JUMP JUMPDEST PUSH1 0x0 PUSH1 0x20 DUP3 ADD SWAP1 POP DUP2 DUP2 SUB PUSH1 0x0 DUP4 ADD MSTORE PUSH2 0xDD0 DUP2 PUSH2 0xC84 JUMP JUMPDEST SWAP1 POP SWAP2 SWAP1 POP JUMP JUMPDEST PUSH1 0x0 PUSH1 0x20 DUP3 ADD SWAP1 POP DUP2 DUP2 SUB PUSH1 0x0 DUP4 ADD MSTORE PUSH2 0xDF0 DUP2 PUSH2 0xCA7 JUMP JUMPDEST SWAP1 POP SWAP2 SWAP1 POP JUMP JUMPDEST PUSH1 0x0 PUSH1 0x20 DUP3 ADD SWAP1 POP DUP2 DUP2 SUB PUSH1 0x0 DUP4 ADD MSTORE PUSH2 0xE10 DUP2 PUSH2 0xCCA JUMP JUMPDEST SWAP1 POP SWAP2 SWAP1 POP JUMP JUMPDEST PUSH1 0x0 PUSH1 0x20 DUP3 ADD SWAP1 POP PUSH2 0xE2C PUSH1 0x0 DUP4 ADD DUP5 PUSH2 0xCED JUMP JUMPDEST SWAP3 SWAP2 POP POP JUMP JUMPDEST PUSH1 0x0 PUSH2 0xE3C PUSH2 0xE4D JUMP JUMPDEST SWAP1 POP PUSH2 0xE48 DUP3 DUP3 PUSH2 0xF80 JUMP JUMPDEST SWAP2 SWAP1 POP JUMP JUMPDEST PUSH1 0x0 PUSH1 0x40 MLOAD SWAP1 POP SWAP1 JUMP JUMPDEST PUSH1 0x0 PUSH8 0xFFFFFFFFFFFFFFFF DUP3 GT ISZERO PUSH2 0xE72 JUMPI PUSH2 0xE71 PUSH2 0x1087 JUMP JUMPDEST JUMPDEST PUSH1 0x20 DUP3 MUL SWAP1 POP PUSH1 0x20 DUP2 ADD SWAP1 POP SWAP2 SWAP1 POP JUMP JUMPDEST PUSH1 0x0 PUSH8 0xFFFFFFFFFFFFFFFF DUP3 GT ISZERO PUSH2 0xE9E JUMPI PUSH2 0xE9D PUSH2 0x1087 JUMP JUMPDEST JUMPDEST PUSH1 0x20 DUP3 MUL SWAP1 POP PUSH1 0x20 DUP2 ADD SWAP1 POP SWAP2 SWAP1 POP JUMP JUMPDEST PUSH1 0x0 PUSH8 0xFFFFFFFFFFFFFFFF DUP3 GT ISZERO PUSH2 0xECA JUMPI PUSH2 0xEC9 PUSH2 0x1087 JUMP JUMPDEST JUMPDEST PUSH2 0xED3 DUP3 PUSH2 0x10CF JUMP JUMPDEST SWAP1 POP PUSH1 0x20 DUP2 ADD SWAP1 POP SWAP2 SWAP1 POP JUMP JUMPDEST PUSH1 0x0 DUP3 DUP3 MSTORE PUSH1 0x20 DUP3 ADD SWAP1 POP SWAP3 SWAP2 POP POP JUMP JUMPDEST PUSH1 0x0 PUSH2 0xEFC DUP3 PUSH2 0xF03 JUMP JUMPDEST SWAP1 POP SWAP2 SWAP1 POP JUMP JUMPDEST PUSH1 0x0 PUSH20 0xFFFFFFFFFFFFFFFFFFFFFFFFFFFFFFFFFFFFFFFF DUP3 AND SWAP1 POP SWAP2 SWAP1 POP JUMP JUMPDEST PUSH1 0x0 DUP2 SWAP1 POP SWAP2 SWAP1 POP JUMP JUMPDEST PUSH1 0x0 PUSH2 0xF38 DUP3 PUSH2 0xF23 JUMP JUMPDEST SWAP1 POP SWAP2 SWAP1 POP JUMP JUMPDEST DUP3 DUP2 DUP4 CALLDATACOPY PUSH1 0x0 DUP4 DUP4 ADD MSTORE POP POP POP JUMP JUMPDEST PUSH1 0x0 PUSH1 0x2 DUP3 DIV SWAP1 POP PUSH1 0x1 DUP3 AND DUP1 PUSH2 0xF66 JUMPI PUSH1 0x7F DUP3 AND SWAP2 POP JUMPDEST PUSH1 0x20 DUP3 LT DUP2 EQ ISZERO PUSH2 0xF7A JUMPI PUSH2 0xF79 PUSH2 0x1029 JUMP JUMPDEST JUMPDEST POP SWAP2 SWAP1 POP JUMP JUMPDEST PUSH2 0xF89 DUP3 PUSH2 0x10CF JUMP JUMPDEST DUP2 ADD DUP2 DUP2 LT PUSH8 0xFFFFFFFFFFFFFFFF DUP3 GT OR ISZERO PUSH2 0xFA8 JUMPI PUSH2 0xFA7 PUSH2 0x1087 JUMP JUMPDEST JUMPDEST DUP1 PUSH1 0x40 MSTORE POP POP POP JUMP JUMPDEST PUSH1 0x0 PUSH2 0xFBC DUP3 PUSH2 0xF23 JUMP JUMPDEST SWAP2 POP PUSH32 0xFFFFFFFFFFFFFFFFFFFFFFFFFFFFFFFFFFFFFFFFFFFFFFFFFFFFFFFFFFFFFFFF DUP3 EQ ISZERO PUSH2 0xFEF JUMPI PUSH2 0xFEE PUSH2 0xFFA JUMP JUMPDEST JUMPDEST PUSH1 0x1 DUP3 ADD SWAP1 POP SWAP2 SWAP1 POP JUMP JUMPDEST PUSH32 0x4E487B7100000000000000000000000000000000000000000000000000000000 PUSH1 0x0 MSTORE PUSH1 0x11 PUSH1 0x4 MSTORE PUSH1 0x24 PUSH1 0x0 REVERT JUMPDEST PUSH32 0x4E487B7100000000000000000000000000000000000000000000000000000000 PUSH1 0x0 MSTORE PUSH1 0x22 PUSH1 0x4 MSTORE PUSH1 0x24 PUSH1 0x0 REVERT JUMPDEST PUSH32 0x4E487B7100000000000000000000000000000000000000000000000000000000 PUSH1 0x0 MSTORE PUSH1 0x32 PUSH1 0x4 MSTORE PUSH1 0x24 PUSH1 0x0 REVERT JUMPDEST PUSH32 0x4E487B7100000000000000000000000000000000000000000000000000000000 PUSH1 0x0 MSTORE PUSH1 0x41 PUSH1 0x4 MSTORE PUSH1 0x24 PUSH1 0x0 REVERT JUMPDEST PUSH1 0x0 DUP1 REVERT JUMPDEST PUSH1 0x0 DUP1 REVERT JUMPDEST PUSH1 0x0 DUP1 REVERT JUMPDEST PUSH1 0x0 DUP1 REVERT JUMPDEST PUSH1 0x0 DUP1 REVERT JUMPDEST PUSH1 0x0 PUSH1 0x1F NOT PUSH1 0x1F DUP4 ADD AND SWAP1 POP SWAP2 SWAP1 POP JUMP JUMPDEST PUSH32 0x4C656E67746820697320646966666572656E742E000000000000000000000000 PUSH1 0x0 DUP3 ADD MSTORE POP JUMP JUMPDEST PUSH32 0x54696D6520697320656E642E0000000000000000000000000000000000000000 PUSH1 0x0 DUP3 ADD MSTORE POP JUMP JUMPDEST PUSH32 0x4974206973206E6F742066726F6D206368616972706572736F6E2E0000000000 PUSH1 0x0 DUP3 ADD MSTORE POP JUMP JUMPDEST PUSH32 0x566F74657220616C726561647920766F7465642E000000000000000000000000 PUSH1 0x0 DUP3 ADD MSTORE POP JUMP JUMPDEST PUSH32 0x62616C616E6365203C3D20300000000000000000000000000000000000000000 PUSH1 0x0 DUP3 ADD MSTORE POP JUMP JUMPDEST PUSH2 0x11B6 DUP2 PUSH2 0xEF1 JUMP JUMPDEST DUP2 EQ PUSH2 0x11C1 JUMPI PUSH1 0x0 DUP1 REVERT JUMPDEST POP JUMP JUMPDEST PUSH2 0x11CD DUP2 PUSH2 0xF23 JUMP JUMPDEST DUP2 EQ PUSH2 0x11D8 JUMPI PUSH1 0x0 DUP1 REVERT JUMPDEST POP JUMP INVALID LOG2 PUSH5 0x6970667358 0x22 SLT KECCAK256 0x2B 0x4B SAR PUSH21 0xD3D92D05769ABCF78231B64C3FF1E0AEFA2F7FEC4A 0x5E 0x5F PUSH11 0x57ADB8BE64736F6C634300 ADDMOD SMOD STOP CALLER PUSH1 0x80 PUSH1 0x40 MSTORE CALLVALUE DUP1 ISZERO PUSH3 0x11 JUMPI PUSH1 0x0 DUP1 REVERT JUMPDEST POP PUSH1 0x40 MLOAD PUSH3 0x162F CODESIZE SUB DUP1 PUSH3 0x162F DUP4 CODECOPY DUP2 DUP2 ADD PUSH1 0x40 MSTORE DUP2 ADD SWAP1 PUSH3 0x37 SWAP2 SWAP1 PUSH3 0x1C4 JUMP JUMPDEST DUP1 PUSH1 0x0 DUP2 SWAP1 SSTORE POP PUSH1 0x40 MLOAD DUP1 PUSH1 0x40 ADD PUSH1 0x40 MSTORE DUP1 PUSH1 0xD DUP2 MSTORE PUSH1 0x20 ADD PUSH32 0x452D566F74696E6720636F696E00000000000000000000000000000000000000 DUP2 MSTORE POP PUSH1 0x1 SWAP1 DUP1 MLOAD SWAP1 PUSH1 0x20 ADD SWAP1 PUSH3 0x8B SWAP3 SWAP2 SWAP1 PUSH3 0xFD JUMP JUMPDEST POP PUSH1 0x12 PUSH1 0x2 PUSH1 0x0 PUSH2 0x100 EXP DUP2 SLOAD DUP2 PUSH1 0xFF MUL NOT AND SWAP1 DUP4 PUSH1 0xFF AND MUL OR SWAP1 SSTORE POP PUSH1 0x40 MLOAD DUP1 PUSH1 0x40 ADD PUSH1 0x40 MSTORE DUP1 PUSH1 0x3 DUP2 MSTORE PUSH1 0x20 ADD PUSH32 0x4556430000000000000000000000000000000000000000000000000000000000 DUP2 MSTORE POP PUSH1 0x3 SWAP1 DUP1 MLOAD SWAP1 PUSH1 0x20 ADD SWAP1 PUSH3 0xF5 SWAP3 SWAP2 SWAP1 PUSH3 0xFD JUMP JUMPDEST POP POP PUSH3 0x284 JUMP JUMPDEST DUP3 DUP1 SLOAD PUSH3 0x10B SWAP1 PUSH3 0x200 JUMP JUMPDEST SWAP1 PUSH1 0x0 MSTORE PUSH1 0x20 PUSH1 0x0 KECCAK256 SWAP1 PUSH1 0x1F ADD PUSH1 0x20 SWAP1 DIV DUP2 ADD SWAP3 DUP3 PUSH3 0x12F JUMPI PUSH1 0x0 DUP6 SSTORE PUSH3 0x17B JUMP JUMPDEST DUP3 PUSH1 0x1F LT PUSH3 0x14A JUMPI DUP1 MLOAD PUSH1 0xFF NOT AND DUP4 DUP1 ADD OR DUP6 SSTORE PUSH3 0x17B JUMP JUMPDEST DUP3 DUP1 ADD PUSH1 0x1 ADD DUP6 SSTORE DUP3 ISZERO PUSH3 0x17B JUMPI SWAP2 DUP3 ADD JUMPDEST DUP3 DUP2 GT ISZERO PUSH3 0x17A JUMPI DUP3 MLOAD DUP3 SSTORE SWAP2 PUSH1 0x20 ADD SWAP2 SWAP1 PUSH1 0x1 ADD SWAP1 PUSH3 0x15D JUMP JUMPDEST JUMPDEST POP SWAP1 POP PUSH3 0x18A SWAP2 SWAP1 PUSH3 0x18E JUMP JUMPDEST POP SWAP1 JUMP JUMPDEST JUMPDEST DUP1 DUP3 GT ISZERO PUSH3 0x1A9 JUMPI PUSH1 0x0 DUP2 PUSH1 0x0 SWAP1 SSTORE POP PUSH1 0x1 ADD PUSH3 0x18F JUMP JUMPDEST POP SWAP1 JUMP JUMPDEST PUSH1 0x0 DUP2 MLOAD SWAP1 POP PUSH3 0x1BE DUP2 PUSH3 0x26A JUMP JUMPDEST SWAP3 SWAP2 POP POP JUMP JUMPDEST PUSH1 0x0 PUSH1 0x20 DUP3 DUP5 SUB SLT ISZERO PUSH3 0x1DD JUMPI PUSH3 0x1DC PUSH3 0x265 JUMP JUMPDEST JUMPDEST PUSH1 0x0 PUSH3 0x1ED DUP5 DUP3 DUP6 ADD PUSH3 0x1AD JUMP JUMPDEST SWAP2 POP POP SWAP3 SWAP2 POP POP JUMP JUMPDEST PUSH1 0x0 DUP2 SWAP1 POP SWAP2 SWAP1 POP JUMP JUMPDEST PUSH1 0x0 PUSH1 0x2 DUP3 DIV SWAP1 POP PUSH1 0x1 DUP3 AND DUP1 PUSH3 0x219 JUMPI PUSH1 0x7F DUP3 AND SWAP2 POP JUMPDEST PUSH1 0x20 DUP3 LT DUP2 EQ ISZERO PUSH3 0x230 JUMPI PUSH3 0x22F PUSH3 0x236 JUMP JUMPDEST JUMPDEST POP SWAP2 SWAP1 POP JUMP JUMPDEST PUSH32 0x4E487B7100000000000000000000000000000000000000000000000000000000 PUSH1 0x0 MSTORE PUSH1 0x22 PUSH1 0x4 MSTORE PUSH1 0x24 PUSH1 0x0 REVERT JUMPDEST PUSH1 0x0 DUP1 REVERT JUMPDEST PUSH3 0x275 DUP2 PUSH3 0x1F6 JUMP JUMPDEST DUP2 EQ PUSH3 0x281 JUMPI PUSH1 0x0 DUP1 REVERT JUMPDEST POP JUMP JUMPDEST PUSH2 0x139B DUP1 PUSH3 0x294 PUSH1 0x0 CODECOPY PUSH1 0x0 RETURN INVALID PUSH1 0x80 PUSH1 0x40 MSTORE CALLVALUE DUP1 ISZERO PUSH2 0x10 JUMPI PUSH1 0x0 DUP1 REVERT JUMPDEST POP PUSH1 0x4 CALLDATASIZE LT PUSH2 0xA9 JUMPI PUSH1 0x0 CALLDATALOAD PUSH1 0xE0 SHR DUP1 PUSH4 0x40C10F19 GT PUSH2 0x71 JUMPI DUP1 PUSH4 0x40C10F19 EQ PUSH2 0x140 JUMPI DUP1 PUSH4 0x54FD4D50 EQ PUSH2 0x15C JUMPI DUP1 PUSH4 0x70A08231 EQ PUSH2 0x17A JUMPI DUP1 PUSH4 0x95D89B41 EQ PUSH2 0x1AA JUMPI DUP1 PUSH4 0xA9059CBB EQ PUSH2 0x1C8 JUMPI DUP1 PUSH4 0xDD62ED3E EQ PUSH2 0x1E4 JUMPI PUSH2 0xA9 JUMP JUMPDEST DUP1 PUSH4 0x6FDDE03 EQ PUSH2 0xAE JUMPI DUP1 PUSH4 0x95EA7B3 EQ PUSH2 0xCC JUMPI DUP1 PUSH4 0x18160DDD EQ PUSH2 0xE8 JUMPI DUP1 PUSH4 0x23B872DD EQ PUSH2 0x106 JUMPI DUP1 PUSH4 0x313CE567 EQ PUSH2 0x122 JUMPI JUMPDEST PUSH1 0x0 DUP1 REVERT JUMPDEST PUSH2 0xB6 PUSH2 0x214 JUMP JUMPDEST PUSH1 0x40 MLOAD PUSH2 0xC3 SWAP2 SWAP1 PUSH2 0xFC4 JUMP JUMPDEST PUSH1 0x40 MLOAD DUP1 SWAP2 SUB SWAP1 RETURN JUMPDEST PUSH2 0xE6 PUSH1 0x4 DUP1 CALLDATASIZE SUB DUP2 ADD SWAP1 PUSH2 0xE1 SWAP2 SWAP1 PUSH2 0xEA1 JUMP JUMPDEST PUSH2 0x2A2 JUMP JUMPDEST STOP JUMPDEST PUSH2 0xF0 PUSH2 0x38C JUMP JUMPDEST PUSH1 0x40 MLOAD PUSH2 0xFD SWAP2 SWAP1 PUSH2 0x1066 JUMP JUMPDEST PUSH1 0x40 MLOAD DUP1 SWAP2 SUB SWAP1 RETURN JUMPDEST PUSH2 0x120 PUSH1 0x4 DUP1 CALLDATASIZE SUB DUP2 ADD SWAP1 PUSH2 0x11B SWAP2 SWAP1 PUSH2 0xE4E JUMP JUMPDEST PUSH2 0x392 JUMP JUMPDEST STOP JUMPDEST PUSH2 0x12A PUSH2 0x7B9 JUMP JUMPDEST PUSH1 0x40 MLOAD PUSH2 0x137 SWAP2 SWAP1 PUSH2 0x1081 JUMP JUMPDEST PUSH1 0x40 MLOAD DUP1 SWAP2 SUB SWAP1 RETURN JUMPDEST PUSH2 0x15A PUSH1 0x4 DUP1 CALLDATASIZE SUB DUP2 ADD SWAP1 PUSH2 0x155 SWAP2 SWAP1 PUSH2 0xEA1 JUMP JUMPDEST PUSH2 0x7CC JUMP JUMPDEST STOP JUMPDEST PUSH2 0x164 PUSH2 0x92C JUMP JUMPDEST PUSH1 0x40 MLOAD PUSH2 0x171 SWAP2 SWAP1 PUSH2 0xFC4 JUMP JUMPDEST PUSH1 0x40 MLOAD DUP1 SWAP2 SUB SWAP1 RETURN JUMPDEST PUSH2 0x194 PUSH1 0x4 DUP1 CALLDATASIZE SUB DUP2 ADD SWAP1 PUSH2 0x18F SWAP2 SWAP1 PUSH2 0xDE1 JUMP JUMPDEST PUSH2 0x9BA JUMP JUMPDEST PUSH1 0x40 MLOAD PUSH2 0x1A1 SWAP2 SWAP1 PUSH2 0x1066 JUMP JUMPDEST PUSH1 0x40 MLOAD DUP1 SWAP2 SUB SWAP1 RETURN JUMPDEST PUSH2 0x1B2 PUSH2 0xA03 JUMP JUMPDEST PUSH1 0x40 MLOAD PUSH2 0x1BF SWAP2 SWAP1 PUSH2 0xFC4 JUMP JUMPDEST PUSH1 0x40 MLOAD DUP1 SWAP2 SUB SWAP1 RETURN JUMPDEST PUSH2 0x1E2 PUSH1 0x4 DUP1 CALLDATASIZE SUB DUP2 ADD SWAP1 PUSH2 0x1DD SWAP2 SWAP1 PUSH2 0xEA1 JUMP JUMPDEST PUSH2 0xA91 JUMP JUMPDEST STOP JUMPDEST PUSH2 0x1FE PUSH1 0x4 DUP1 CALLDATASIZE SUB DUP2 ADD SWAP1 PUSH2 0x1F9 SWAP2 SWAP1 PUSH2 0xE0E JUMP JUMPDEST PUSH2 0xCD5 JUMP JUMPDEST PUSH1 0x40 MLOAD PUSH2 0x20B SWAP2 SWAP1 PUSH2 0x1066 JUMP JUMPDEST PUSH1 0x40 MLOAD DUP1 SWAP2 SUB SWAP1 RETURN JUMPDEST PUSH1 0x1 DUP1 SLOAD PUSH2 0x221 SWAP1 PUSH2 0x11BE JUMP JUMPDEST DUP1 PUSH1 0x1F ADD PUSH1 0x20 DUP1 SWAP2 DIV MUL PUSH1 0x20 ADD PUSH1 0x40 MLOAD SWAP1 DUP2 ADD PUSH1 0x40 MSTORE DUP1 SWAP3 SWAP2 SWAP1 DUP2 DUP2 MSTORE PUSH1 0x20 ADD DUP3 DUP1 SLOAD PUSH2 0x24D SWAP1 PUSH2 0x11BE JUMP JUMPDEST DUP1 ISZERO PUSH2 0x29A JUMPI DUP1 PUSH1 0x1F LT PUSH2 0x26F JUMPI PUSH2 0x100 DUP1 DUP4 SLOAD DIV MUL DUP4 MSTORE SWAP2 PUSH1 0x20 ADD SWAP2 PUSH2 0x29A JUMP JUMPDEST DUP3 ADD SWAP2 SWAP1 PUSH1 0x0 MSTORE PUSH1 0x20 PUSH1 0x0 KECCAK256 SWAP1 JUMPDEST DUP2 SLOAD DUP2 MSTORE SWAP1 PUSH1 0x1 ADD SWAP1 PUSH1 0x20 ADD DUP1 DUP4 GT PUSH2 0x27D JUMPI DUP3 SWAP1 SUB PUSH1 0x1F AND DUP3 ADD SWAP2 JUMPDEST POP POP POP POP POP DUP2 JUMP JUMPDEST DUP1 PUSH1 0x6 PUSH1 0x0 CALLER PUSH20 0xFFFFFFFFFFFFFFFFFFFFFFFFFFFFFFFFFFFFFFFF AND PUSH20 0xFFFFFFFFFFFFFFFFFFFFFFFFFFFFFFFFFFFFFFFF AND DUP2 MSTORE PUSH1 0x20 ADD SWAP1 DUP2 MSTORE PUSH1 0x20 ADD PUSH1 0x0 KECCAK256 PUSH1 0x0 DUP5 PUSH20 0xFFFFFFFFFFFFFFFFFFFFFFFFFFFFFFFFFFFFFFFF AND PUSH20 0xFFFFFFFFFFFFFFFFFFFFFFFFFFFFFFFFFFFFFFFF AND DUP2 MSTORE PUSH1 0x20 ADD SWAP1 DUP2 MSTORE PUSH1 0x20 ADD PUSH1 0x0 KECCAK256 DUP2 SWAP1 SSTORE POP DUP2 PUSH20 0xFFFFFFFFFFFFFFFFFFFFFFFFFFFFFFFFFFFFFFFF AND CALLER PUSH20 0xFFFFFFFFFFFFFFFFFFFFFFFFFFFFFFFFFFFFFFFF AND PUSH32 0x8C5BE1E5EBEC7D5BD14F71427D1E84F3DD0314C0F7B2291E5B200AC8C7C3B925 DUP4 PUSH1 0x40 MLOAD PUSH2 0x380 SWAP2 SWAP1 PUSH2 0x1066 JUMP JUMPDEST PUSH1 0x40 MLOAD DUP1 SWAP2 SUB SWAP1 LOG3 POP POP JUMP JUMPDEST PUSH1 0x0 SLOAD DUP2 JUMP JUMPDEST PUSH1 0x0 DUP2 GT PUSH2 0x3D5 JUMPI PUSH1 0x40 MLOAD PUSH32 0x8C379A000000000000000000000000000000000000000000000000000000000 DUP2 MSTORE PUSH1 0x4 ADD PUSH2 0x3CC SWAP1 PUSH2 0x1006 JUMP JUMPDEST PUSH1 0x40 MLOAD DUP1 SWAP2 SUB SWAP1 REVERT JUMPDEST DUP1 PUSH1 0x5 PUSH1 0x0 DUP6 PUSH20 0xFFFFFFFFFFFFFFFFFFFFFFFFFFFFFFFFFFFFFFFF AND PUSH20 0xFFFFFFFFFFFFFFFFFFFFFFFFFFFFFFFFFFFFFFFF AND DUP2 MSTORE PUSH1 0x20 ADD SWAP1 DUP2 MSTORE PUSH1 0x20 ADD PUSH1 0x0 KECCAK256 SLOAD LT ISZERO PUSH2 0x457 JUMPI PUSH1 0x40 MLOAD PUSH32 0x8C379A000000000000000000000000000000000000000000000000000000000 DUP2 MSTORE PUSH1 0x4 ADD PUSH2 0x44E SWAP1 PUSH2 0xFE6 JUMP JUMPDEST PUSH1 0x40 MLOAD DUP1 SWAP2 SUB SWAP1 REVERT JUMPDEST DUP1 PUSH1 0x6 PUSH1 0x0 DUP6 PUSH20 0xFFFFFFFFFFFFFFFFFFFFFFFFFFFFFFFFFFFFFFFF AND PUSH20 0xFFFFFFFFFFFFFFFFFFFFFFFFFFFFFFFFFFFFFFFF AND DUP2 MSTORE PUSH1 0x20 ADD SWAP1 DUP2 MSTORE PUSH1 0x20 ADD PUSH1 0x0 KECCAK256 PUSH1 0x0 CALLER PUSH20 0xFFFFFFFFFFFFFFFFFFFFFFFFFFFFFFFFFFFFFFFF AND PUSH20 0xFFFFFFFFFFFFFFFFFFFFFFFFFFFFFFFFFFFFFFFF AND DUP2 MSTORE PUSH1 0x20 ADD SWAP1 DUP2 MSTORE PUSH1 0x20 ADD PUSH1 0x0 KECCAK256 SLOAD LT ISZERO PUSH2 0x516 JUMPI PUSH1 0x40 MLOAD PUSH32 0x8C379A000000000000000000000000000000000000000000000000000000000 DUP2 MSTORE PUSH1 0x4 ADD PUSH2 0x50D SWAP1 PUSH2 0x1026 JUMP JUMPDEST PUSH1 0x40 MLOAD DUP1 SWAP2 SUB SWAP1 REVERT JUMPDEST PUSH2 0x568 DUP2 PUSH1 0x5 PUSH1 0x0 DUP6 PUSH20 0xFFFFFFFFFFFFFFFFFFFFFFFFFFFFFFFFFFFFFFFF AND PUSH20 0xFFFFFFFFFFFFFFFFFFFFFFFFFFFFFFFFFFFFFFFF AND DUP2 MSTORE PUSH1 0x20 ADD SWAP1 DUP2 MSTORE PUSH1 0x20 ADD PUSH1 0x0 KECCAK256 SLOAD PUSH2 0xD5C SWAP1 SWAP2 SWAP1 PUSH4 0xFFFFFFFF AND JUMP JUMPDEST PUSH1 0x5 PUSH1 0x0 DUP5 PUSH20 0xFFFFFFFFFFFFFFFFFFFFFFFFFFFFFFFFFFFFFFFF AND PUSH20 0xFFFFFFFFFFFFFFFFFFFFFFFFFFFFFFFFFFFFFFFF AND DUP2 MSTORE PUSH1 0x20 ADD SWAP1 DUP2 MSTORE PUSH1 0x20 ADD PUSH1 0x0 KECCAK256 DUP2 SWAP1 SSTORE POP PUSH2 0x5FD DUP2 PUSH1 0x5 PUSH1 0x0 DUP7 PUSH20 0xFFFFFFFFFFFFFFFFFFFFFFFFFFFFFFFFFFFFFFFF AND PUSH20 0xFFFFFFFFFFFFFFFFFFFFFFFFFFFFFFFFFFFFFFFF AND DUP2 MSTORE PUSH1 0x20 ADD SWAP1 DUP2 MSTORE PUSH1 0x20 ADD PUSH1 0x0 KECCAK256 SLOAD PUSH2 0xD84 SWAP1 SWAP2 SWAP1 PUSH4 0xFFFFFFFF AND JUMP JUMPDEST PUSH1 0x5 PUSH1 0x0 DUP6 PUSH20 0xFFFFFFFFFFFFFFFFFFFFFFFFFFFFFFFFFFFFFFFF AND PUSH20 0xFFFFFFFFFFFFFFFFFFFFFFFFFFFFFFFFFFFFFFFF AND DUP2 MSTORE PUSH1 0x20 ADD SWAP1 DUP2 MSTORE PUSH1 0x20 ADD PUSH1 0x0 KECCAK256 DUP2 SWAP1 SSTORE POP PUSH2 0x6CF DUP2 PUSH1 0x6 PUSH1 0x0 DUP7 PUSH20 0xFFFFFFFFFFFFFFFFFFFFFFFFFFFFFFFFFFFFFFFF AND PUSH20 0xFFFFFFFFFFFFFFFFFFFFFFFFFFFFFFFFFFFFFFFF AND DUP2 MSTORE PUSH1 0x20 ADD SWAP1 DUP2 MSTORE PUSH1 0x20 ADD PUSH1 0x0 KECCAK256 PUSH1 0x0 CALLER PUSH20 0xFFFFFFFFFFFFFFFFFFFFFFFFFFFFFFFFFFFFFFFF AND PUSH20 0xFFFFFFFFFFFFFFFFFFFFFFFFFFFFFFFFFFFFFFFF AND DUP2 MSTORE PUSH1 0x20 ADD SWAP1 DUP2 MSTORE PUSH1 0x20 ADD PUSH1 0x0 KECCAK256 SLOAD PUSH2 0xD84 SWAP1 SWAP2 SWAP1 PUSH4 0xFFFFFFFF AND JUMP JUMPDEST PUSH1 0x6 PUSH1 0x0 DUP6 PUSH20 0xFFFFFFFFFFFFFFFFFFFFFFFFFFFFFFFFFFFFFFFF AND PUSH20 0xFFFFFFFFFFFFFFFFFFFFFFFFFFFFFFFFFFFFFFFF AND DUP2 MSTORE PUSH1 0x20 ADD SWAP1 DUP2 MSTORE PUSH1 0x20 ADD PUSH1 0x0 KECCAK256 PUSH1 0x0 CALLER PUSH20 0xFFFFFFFFFFFFFFFFFFFFFFFFFFFFFFFFFFFFFFFF AND PUSH20 0xFFFFFFFFFFFFFFFFFFFFFFFFFFFFFFFFFFFFFFFF AND DUP2 MSTORE PUSH1 0x20 ADD SWAP1 DUP2 MSTORE PUSH1 0x20 ADD PUSH1 0x0 KECCAK256 DUP2 SWAP1 SSTORE POP DUP2 PUSH20 0xFFFFFFFFFFFFFFFFFFFFFFFFFFFFFFFFFFFFFFFF AND DUP4 PUSH20 0xFFFFFFFFFFFFFFFFFFFFFFFFFFFFFFFFFFFFFFFF AND PUSH32 0xDDF252AD1BE2C89B69C2B068FC378DAA952BA7F163C4A11628F55A4DF523B3EF DUP4 PUSH1 0x40 MLOAD PUSH2 0x7AC SWAP2 SWAP1 PUSH2 0x1066 JUMP JUMPDEST PUSH1 0x40 MLOAD DUP1 SWAP2 SUB SWAP1 LOG3 POP POP POP JUMP JUMPDEST PUSH1 0x2 PUSH1 0x0 SWAP1 SLOAD SWAP1 PUSH2 0x100 EXP SWAP1 DIV PUSH1 0xFF AND DUP2 JUMP JUMPDEST PUSH1 0x0 PUSH20 0xFFFFFFFFFFFFFFFFFFFFFFFFFFFFFFFFFFFFFFFF AND DUP3 PUSH20 0xFFFFFFFFFFFFFFFFFFFFFFFFFFFFFFFFFFFFFFFF AND EQ ISZERO PUSH2 0x83C JUMPI PUSH1 0x40 MLOAD PUSH32 0x8C379A000000000000000000000000000000000000000000000000000000000 DUP2 MSTORE PUSH1 0x4 ADD PUSH2 0x833 SWAP1 PUSH2 0x1046 JUMP JUMPDEST PUSH1 0x40 MLOAD DUP1 SWAP2 SUB SWAP1 REVERT JUMPDEST PUSH2 0x848 PUSH1 0x0 DUP4 DUP4 PUSH2 0xDAD JUMP JUMPDEST DUP1 PUSH1 0x0 DUP1 DUP3 DUP3 SLOAD PUSH2 0x859 SWAP2 SWAP1 PUSH2 0x10B8 JUMP JUMPDEST SWAP3 POP POP DUP2 SWAP1 SSTORE POP DUP1 PUSH1 0x5 PUSH1 0x0 DUP5 PUSH20 0xFFFFFFFFFFFFFFFFFFFFFFFFFFFFFFFFFFFFFFFF AND PUSH20 0xFFFFFFFFFFFFFFFFFFFFFFFFFFFFFFFFFFFFFFFF AND DUP2 MSTORE PUSH1 0x20 ADD SWAP1 DUP2 MSTORE PUSH1 0x20 ADD PUSH1 0x0 KECCAK256 PUSH1 0x0 DUP3 DUP3 SLOAD PUSH2 0x8AF SWAP2 SWAP1 PUSH2 0x10B8 JUMP JUMPDEST SWAP3 POP POP DUP2 SWAP1 SSTORE POP DUP2 PUSH20 0xFFFFFFFFFFFFFFFFFFFFFFFFFFFFFFFFFFFFFFFF AND PUSH1 0x0 PUSH20 0xFFFFFFFFFFFFFFFFFFFFFFFFFFFFFFFFFFFFFFFF AND PUSH32 0xDDF252AD1BE2C89B69C2B068FC378DAA952BA7F163C4A11628F55A4DF523B3EF DUP4 PUSH1 0x40 MLOAD PUSH2 0x914 SWAP2 SWAP1 PUSH2 0x1066 JUMP JUMPDEST PUSH1 0x40 MLOAD DUP1 SWAP2 SUB SWAP1 LOG3 PUSH2 0x928 PUSH1 0x0 DUP4 DUP4 PUSH2 0xDB2 JUMP JUMPDEST POP POP JUMP JUMPDEST PUSH1 0x4 DUP1 SLOAD PUSH2 0x939 SWAP1 PUSH2 0x11BE JUMP JUMPDEST DUP1 PUSH1 0x1F ADD PUSH1 0x20 DUP1 SWAP2 DIV MUL PUSH1 0x20 ADD PUSH1 0x40 MLOAD SWAP1 DUP2 ADD PUSH1 0x40 MSTORE DUP1 SWAP3 SWAP2 SWAP1 DUP2 DUP2 MSTORE PUSH1 0x20 ADD DUP3 DUP1 SLOAD PUSH2 0x965 SWAP1 PUSH2 0x11BE JUMP JUMPDEST DUP1 ISZERO PUSH2 0x9B2 JUMPI DUP1 PUSH1 0x1F LT PUSH2 0x987 JUMPI PUSH2 0x100 DUP1 DUP4 SLOAD DIV MUL DUP4 MSTORE SWAP2 PUSH1 0x20 ADD SWAP2 PUSH2 0x9B2 JUMP JUMPDEST DUP3 ADD SWAP2 SWAP1 PUSH1 0x0 MSTORE PUSH1 0x20 PUSH1 0x0 KECCAK256 SWAP1 JUMPDEST DUP2 SLOAD DUP2 MSTORE SWAP1 PUSH1 0x1 ADD SWAP1 PUSH1 0x20 ADD DUP1 DUP4 GT PUSH2 0x995 JUMPI DUP3 SWAP1 SUB PUSH1 0x1F AND DUP3 ADD SWAP2 JUMPDEST POP POP POP POP POP DUP2 JUMP JUMPDEST PUSH1 0x0 PUSH1 0x5 PUSH1 0x0 DUP4 PUSH20 0xFFFFFFFFFFFFFFFFFFFFFFFFFFFFFFFFFFFFFFFF AND PUSH20 0xFFFFFFFFFFFFFFFFFFFFFFFFFFFFFFFFFFFFFFFF AND DUP2 MSTORE PUSH1 0x20 ADD SWAP1 DUP2 MSTORE PUSH1 0x20 ADD PUSH1 0x0 KECCAK256 SLOAD SWAP1 POP SWAP2 SWAP1 POP JUMP JUMPDEST PUSH1 0x3 DUP1 SLOAD PUSH2 0xA10 SWAP1 PUSH2 0x11BE JUMP JUMPDEST DUP1 PUSH1 0x1F ADD PUSH1 0x20 DUP1 SWAP2 DIV MUL PUSH1 0x20 ADD PUSH1 0x40 MLOAD SWAP1 DUP2 ADD PUSH1 0x40 MSTORE DUP1 SWAP3 SWAP2 SWAP1 DUP2 DUP2 MSTORE PUSH1 0x20 ADD DUP3 DUP1 SLOAD PUSH2 0xA3C SWAP1 PUSH2 0x11BE JUMP JUMPDEST DUP1 ISZERO PUSH2 0xA89 JUMPI DUP1 PUSH1 0x1F LT PUSH2 0xA5E JUMPI PUSH2 0x100 DUP1 DUP4 SLOAD DIV MUL DUP4 MSTORE SWAP2 PUSH1 0x20 ADD SWAP2 PUSH2 0xA89 JUMP JUMPDEST DUP3 ADD SWAP2 SWAP1 PUSH1 0x0 MSTORE PUSH1 0x20 PUSH1 0x0 KECCAK256 SWAP1 JUMPDEST DUP2 SLOAD DUP2 MSTORE SWAP1 PUSH1 0x1 ADD SWAP1 PUSH1 0x20 ADD DUP1 DUP4 GT PUSH2 0xA6C JUMPI DUP3 SWAP1 SUB PUSH1 0x1F AND DUP3 ADD SWAP2 JUMPDEST POP POP POP POP POP DUP2 JUMP JUMPDEST PUSH1 0x40 PUSH1 0x4 DUP2 PUSH2 0xAA0 SWAP2 SWAP1 PUSH2 0x10B8 JUMP JUMPDEST PUSH1 0x0 CALLDATASIZE SWAP1 POP EQ PUSH2 0xAB3 JUMPI PUSH2 0xAB2 PUSH2 0x11F0 JUMP JUMPDEST JUMPDEST PUSH1 0x0 DUP3 GT PUSH2 0xAF6 JUMPI PUSH1 0x40 MLOAD PUSH32 0x8C379A000000000000000000000000000000000000000000000000000000000 DUP2 MSTORE PUSH1 0x4 ADD PUSH2 0xAED SWAP1 PUSH2 0x1006 JUMP JUMPDEST PUSH1 0x40 MLOAD DUP1 SWAP2 SUB SWAP1 REVERT JUMPDEST DUP2 PUSH2 0xB00 CALLER PUSH2 0x9BA JUMP JUMPDEST LT ISZERO PUSH2 0xB41 JUMPI PUSH1 0x40 MLOAD PUSH32 0x8C379A000000000000000000000000000000000000000000000000000000000 DUP2 MSTORE PUSH1 0x4 ADD PUSH2 0xB38 SWAP1 PUSH2 0xFE6 JUMP JUMPDEST PUSH1 0x40 MLOAD DUP1 SWAP2 SUB SWAP1 REVERT JUMPDEST PUSH2 0xB93 DUP3 PUSH1 0x5 PUSH1 0x0 CALLER PUSH20 0xFFFFFFFFFFFFFFFFFFFFFFFFFFFFFFFFFFFFFFFF AND PUSH20 0xFFFFFFFFFFFFFFFFFFFFFFFFFFFFFFFFFFFFFFFF AND DUP2 MSTORE PUSH1 0x20 ADD SWAP1 DUP2 MSTORE PUSH1 0x20 ADD PUSH1 0x0 KECCAK256 SLOAD PUSH2 0xD84 SWAP1 SWAP2 SWAP1 PUSH4 0xFFFFFFFF AND JUMP JUMPDEST PUSH1 0x5 PUSH1 0x0 CALLER PUSH20 0xFFFFFFFFFFFFFFFFFFFFFFFFFFFFFFFFFFFFFFFF AND PUSH20 0xFFFFFFFFFFFFFFFFFFFFFFFFFFFFFFFFFFFFFFFF AND DUP2 MSTORE PUSH1 0x20 ADD SWAP1 DUP2 MSTORE PUSH1 0x20 ADD PUSH1 0x0 KECCAK256 DUP2 SWAP1 SSTORE POP PUSH2 0xC28 DUP3 PUSH1 0x5 PUSH1 0x0 DUP7 PUSH20 0xFFFFFFFFFFFFFFFFFFFFFFFFFFFFFFFFFFFFFFFF AND PUSH20 0xFFFFFFFFFFFFFFFFFFFFFFFFFFFFFFFFFFFFFFFF AND DUP2 MSTORE PUSH1 0x20 ADD SWAP1 DUP2 MSTORE PUSH1 0x20 ADD PUSH1 0x0 KECCAK256 SLOAD PUSH2 0xD5C SWAP1 SWAP2 SWAP1 PUSH4 0xFFFFFFFF AND JUMP JUMPDEST PUSH1 0x5 PUSH1 0x0 DUP6 PUSH20 0xFFFFFFFFFFFFFFFFFFFFFFFFFFFFFFFFFFFFFFFF AND PUSH20 0xFFFFFFFFFFFFFFFFFFFFFFFFFFFFFFFFFFFFFFFF AND DUP2 MSTORE PUSH1 0x20 ADD SWAP1 DUP2 MSTORE PUSH1 0x20 ADD PUSH1 0x0 KECCAK256 DUP2 SWAP1 SSTORE POP DUP3 PUSH20 0xFFFFFFFFFFFFFFFFFFFFFFFFFFFFFFFFFFFFFFFF AND CALLER PUSH20 0xFFFFFFFFFFFFFFFFFFFFFFFFFFFFFFFFFFFFFFFF AND PUSH32 0xDDF252AD1BE2C89B69C2B068FC378DAA952BA7F163C4A11628F55A4DF523B3EF DUP5 PUSH1 0x40 MLOAD PUSH2 0xCC8 SWAP2 SWAP1 PUSH2 0x1066 JUMP JUMPDEST PUSH1 0x40 MLOAD DUP1 SWAP2 SUB SWAP1 LOG3 POP POP POP JUMP JUMPDEST PUSH1 0x0 PUSH1 0x6 PUSH1 0x0 DUP4 PUSH20 0xFFFFFFFFFFFFFFFFFFFFFFFFFFFFFFFFFFFFFFFF AND PUSH20 0xFFFFFFFFFFFFFFFFFFFFFFFFFFFFFFFFFFFFFFFF AND DUP2 MSTORE PUSH1 0x20 ADD SWAP1 DUP2 MSTORE PUSH1 0x20 ADD PUSH1 0x0 KECCAK256 PUSH1 0x0 DUP5 PUSH20 0xFFFFFFFFFFFFFFFFFFFFFFFFFFFFFFFFFFFFFFFF AND PUSH20 0xFFFFFFFFFFFFFFFFFFFFFFFFFFFFFFFFFFFFFFFF AND DUP2 MSTORE PUSH1 0x20 ADD SWAP1 DUP2 MSTORE PUSH1 0x20 ADD PUSH1 0x0 KECCAK256 SLOAD SWAP1 POP SWAP3 SWAP2 POP POP JUMP JUMPDEST PUSH1 0x0 DUP1 DUP3 DUP5 PUSH2 0xD6B SWAP2 SWAP1 PUSH2 0x10B8 JUMP JUMPDEST SWAP1 POP DUP4 DUP2 LT ISZERO PUSH2 0xD7A JUMPI PUSH1 0x0 DUP1 REVERT JUMPDEST DUP1 SWAP2 POP POP SWAP3 SWAP2 POP POP JUMP JUMPDEST PUSH1 0x0 DUP3 DUP3 GT ISZERO PUSH2 0xD93 JUMPI PUSH1 0x0 DUP1 REVERT JUMPDEST PUSH1 0x0 DUP3 DUP5 PUSH2 0xDA1 SWAP2 SWAP1 PUSH2 0x110E JUMP JUMPDEST SWAP1 POP DUP1 SWAP2 POP POP SWAP3 SWAP2 POP POP JUMP JUMPDEST POP POP POP JUMP JUMPDEST POP POP POP JUMP JUMPDEST PUSH1 0x0 DUP2 CALLDATALOAD SWAP1 POP PUSH2 0xDC6 DUP2 PUSH2 0x1337 JUMP JUMPDEST SWAP3 SWAP2 POP POP JUMP JUMPDEST PUSH1 0x0 DUP2 CALLDATALOAD SWAP1 POP PUSH2 0xDDB DUP2 PUSH2 0x134E JUMP JUMPDEST SWAP3 SWAP2 POP POP JUMP JUMPDEST PUSH1 0x0 PUSH1 0x20 DUP3 DUP5 SUB SLT ISZERO PUSH2 0xDF7 JUMPI PUSH2 0xDF6 PUSH2 0x127D JUMP JUMPDEST JUMPDEST PUSH1 0x0 PUSH2 0xE05 DUP5 DUP3 DUP6 ADD PUSH2 0xDB7 JUMP JUMPDEST SWAP2 POP POP SWAP3 SWAP2 POP POP JUMP JUMPDEST PUSH1 0x0 DUP1 PUSH1 0x40 DUP4 DUP6 SUB SLT ISZERO PUSH2 0xE25 JUMPI PUSH2 0xE24 PUSH2 0x127D JUMP JUMPDEST JUMPDEST PUSH1 0x0 PUSH2 0xE33 DUP6 DUP3 DUP7 ADD PUSH2 0xDB7 JUMP JUMPDEST SWAP3 POP POP PUSH1 0x20 PUSH2 0xE44 DUP6 DUP3 DUP7 ADD PUSH2 0xDB7 JUMP JUMPDEST SWAP2 POP POP SWAP3 POP SWAP3 SWAP1 POP JUMP JUMPDEST PUSH1 0x0 DUP1 PUSH1 0x0 PUSH1 0x60 DUP5 DUP7 SUB SLT ISZERO PUSH2 0xE67 JUMPI PUSH2 0xE66 PUSH2 0x127D JUMP JUMPDEST JUMPDEST PUSH1 0x0 PUSH2 0xE75 DUP7 DUP3 DUP8 ADD PUSH2 0xDB7 JUMP JUMPDEST SWAP4 POP POP PUSH1 0x20 PUSH2 0xE86 DUP7 DUP3 DUP8 ADD PUSH2 0xDB7 JUMP JUMPDEST SWAP3 POP POP PUSH1 0x40 PUSH2 0xE97 DUP7 DUP3 DUP8 ADD PUSH2 0xDCC JUMP JUMPDEST SWAP2 POP POP SWAP3 POP SWAP3 POP SWAP3 JUMP JUMPDEST PUSH1 0x0 DUP1 PUSH1 0x40 DUP4 DUP6 SUB SLT ISZERO PUSH2 0xEB8 JUMPI PUSH2 0xEB7 PUSH2 0x127D JUMP JUMPDEST JUMPDEST PUSH1 0x0 PUSH2 0xEC6 DUP6 DUP3 DUP7 ADD PUSH2 0xDB7 JUMP JUMPDEST SWAP3 POP POP PUSH1 0x20 PUSH2 0xED7 DUP6 DUP3 DUP7 ADD PUSH2 0xDCC JUMP JUMPDEST SWAP2 POP POP SWAP3 POP SWAP3 SWAP1 POP JUMP JUMPDEST PUSH1 0x0 PUSH2 0xEEC DUP3 PUSH2 0x109C JUMP JUMPDEST PUSH2 0xEF6 DUP2 DUP6 PUSH2 0x10A7 JUMP JUMPDEST SWAP4 POP PUSH2 0xF06 DUP2 DUP6 PUSH1 0x20 DUP7 ADD PUSH2 0x118B JUMP JUMPDEST PUSH2 0xF0F DUP2 PUSH2 0x1282 JUMP JUMPDEST DUP5 ADD SWAP2 POP POP SWAP3 SWAP2 POP POP JUMP JUMPDEST PUSH1 0x0 PUSH2 0xF27 PUSH1 0x10 DUP4 PUSH2 0x10A7 JUMP JUMPDEST SWAP2 POP PUSH2 0xF32 DUP3 PUSH2 0x1293 JUMP JUMPDEST PUSH1 0x20 DUP3 ADD SWAP1 POP SWAP2 SWAP1 POP JUMP JUMPDEST PUSH1 0x0 PUSH2 0xF4A PUSH1 0xB DUP4 PUSH2 0x10A7 JUMP JUMPDEST SWAP2 POP PUSH2 0xF55 DUP3 PUSH2 0x12BC JUMP JUMPDEST PUSH1 0x20 DUP3 ADD SWAP1 POP SWAP2 SWAP1 POP JUMP JUMPDEST PUSH1 0x0 PUSH2 0xF6D PUSH1 0xE DUP4 PUSH2 0x10A7 JUMP JUMPDEST SWAP2 POP PUSH2 0xF78 DUP3 PUSH2 0x12E5 JUMP JUMPDEST PUSH1 0x20 DUP3 ADD SWAP1 POP SWAP2 SWAP1 POP JUMP JUMPDEST PUSH1 0x0 PUSH2 0xF90 PUSH1 0x1F DUP4 PUSH2 0x10A7 JUMP JUMPDEST SWAP2 POP PUSH2 0xF9B DUP3 PUSH2 0x130E JUMP JUMPDEST PUSH1 0x20 DUP3 ADD SWAP1 POP SWAP2 SWAP1 POP JUMP JUMPDEST PUSH2 0xFAF DUP2 PUSH2 0x1174 JUMP JUMPDEST DUP3 MSTORE POP POP JUMP JUMPDEST PUSH2 0xFBE DUP2 PUSH2 0x117E JUMP JUMPDEST DUP3 MSTORE POP POP JUMP JUMPDEST PUSH1 0x0 PUSH1 0x20 DUP3 ADD SWAP1 POP DUP2 DUP2 SUB PUSH1 0x0 DUP4 ADD MSTORE PUSH2 0xFDE DUP2 DUP5 PUSH2 0xEE1 JUMP JUMPDEST SWAP1 POP SWAP3 SWAP2 POP POP JUMP JUMPDEST PUSH1 0x0 PUSH1 0x20 DUP3 ADD SWAP1 POP DUP2 DUP2 SUB PUSH1 0x0 DUP4 ADD MSTORE PUSH2 0xFFF DUP2 PUSH2 0xF1A JUMP JUMPDEST SWAP1 POP SWAP2 SWAP1 POP JUMP JUMPDEST PUSH1 0x0 PUSH1 0x20 DUP3 ADD SWAP1 POP DUP2 DUP2 SUB PUSH1 0x0 DUP4 ADD MSTORE PUSH2 0x101F DUP2 PUSH2 0xF3D JUMP JUMPDEST SWAP1 POP SWAP2 SWAP1 POP JUMP JUMPDEST PUSH1 0x0 PUSH1 0x20 DUP3 ADD SWAP1 POP DUP2 DUP2 SUB PUSH1 0x0 DUP4 ADD MSTORE PUSH2 0x103F DUP2 PUSH2 0xF60 JUMP JUMPDEST SWAP1 POP SWAP2 SWAP1 POP JUMP JUMPDEST PUSH1 0x0 PUSH1 0x20 DUP3 ADD SWAP1 POP DUP2 DUP2 SUB PUSH1 0x0 DUP4 ADD MSTORE PUSH2 0x105F DUP2 PUSH2 0xF83 JUMP JUMPDEST SWAP1 POP SWAP2 SWAP1 POP JUMP JUMPDEST PUSH1 0x0 PUSH1 0x20 DUP3 ADD SWAP1 POP PUSH2 0x107B PUSH1 0x0 DUP4 ADD DUP5 PUSH2 0xFA6 JUMP JUMPDEST SWAP3 SWAP2 POP POP JUMP JUMPDEST PUSH1 0x0 PUSH1 0x20 DUP3 ADD SWAP1 POP PUSH2 0x1096 PUSH1 0x0 DUP4 ADD DUP5 PUSH2 0xFB5 JUMP JUMPDEST SWAP3 SWAP2 POP POP JUMP JUMPDEST PUSH1 0x0 DUP2 MLOAD SWAP1 POP SWAP2 SWAP1 POP JUMP JUMPDEST PUSH1 0x0 DUP3 DUP3 MSTORE PUSH1 0x20 DUP3 ADD SWAP1 POP SWAP3 SWAP2 POP POP JUMP JUMPDEST PUSH1 0x0 PUSH2 0x10C3 DUP3 PUSH2 0x1174 JUMP JUMPDEST SWAP2 POP PUSH2 0x10CE DUP4 PUSH2 0x1174 JUMP JUMPDEST SWAP3 POP DUP3 PUSH32 0xFFFFFFFFFFFFFFFFFFFFFFFFFFFFFFFFFFFFFFFFFFFFFFFFFFFFFFFFFFFFFFFF SUB DUP3 GT ISZERO PUSH2 0x1103 JUMPI PUSH2 0x1102 PUSH2 0x121F JUMP JUMPDEST JUMPDEST DUP3 DUP3 ADD SWAP1 POP SWAP3 SWAP2 POP POP JUMP JUMPDEST PUSH1 0x0 PUSH2 0x1119 DUP3 PUSH2 0x1174 JUMP JUMPDEST SWAP2 POP PUSH2 0x1124 DUP4 PUSH2 0x1174 JUMP JUMPDEST SWAP3 POP DUP3 DUP3 LT ISZERO PUSH2 0x1137 JUMPI PUSH2 0x1136 PUSH2 0x121F JUMP JUMPDEST JUMPDEST DUP3 DUP3 SUB SWAP1 POP SWAP3 SWAP2 POP POP JUMP JUMPDEST PUSH1 0x0 PUSH2 0x114D DUP3 PUSH2 0x1154 JUMP JUMPDEST SWAP1 POP SWAP2 SWAP1 POP JUMP JUMPDEST PUSH1 0x0 PUSH20 0xFFFFFFFFFFFFFFFFFFFFFFFFFFFFFFFFFFFFFFFF DUP3 AND SWAP1 POP SWAP2 SWAP1 POP JUMP JUMPDEST PUSH1 0x0 DUP2 SWAP1 POP SWAP2 SWAP1 POP JUMP JUMPDEST PUSH1 0x0 PUSH1 0xFF DUP3 AND SWAP1 POP SWAP2 SWAP1 POP JUMP JUMPDEST PUSH1 0x0 JUMPDEST DUP4 DUP2 LT ISZERO PUSH2 0x11A9 JUMPI DUP1 DUP3 ADD MLOAD DUP2 DUP5 ADD MSTORE PUSH1 0x20 DUP2 ADD SWAP1 POP PUSH2 0x118E JUMP JUMPDEST DUP4 DUP2 GT ISZERO PUSH2 0x11B8 JUMPI PUSH1 0x0 DUP5 DUP5 ADD MSTORE JUMPDEST POP POP POP POP JUMP JUMPDEST PUSH1 0x0 PUSH1 0x2 DUP3 DIV SWAP1 POP PUSH1 0x1 DUP3 AND DUP1 PUSH2 0x11D6 JUMPI PUSH1 0x7F DUP3 AND SWAP2 POP JUMPDEST PUSH1 0x20 DUP3 LT DUP2 EQ ISZERO PUSH2 0x11EA JUMPI PUSH2 0x11E9 PUSH2 0x124E JUMP JUMPDEST JUMPDEST POP SWAP2 SWAP1 POP JUMP JUMPDEST PUSH32 0x4E487B7100000000000000000000000000000000000000000000000000000000 PUSH1 0x0 MSTORE PUSH1 0x1 PUSH1 0x4 MSTORE PUSH1 0x24 PUSH1 0x0 REVERT JUMPDEST PUSH32 0x4E487B7100000000000000000000000000000000000000000000000000000000 PUSH1 0x0 MSTORE PUSH1 0x11 PUSH1 0x4 MSTORE PUSH1 0x24 PUSH1 0x0 REVERT JUMPDEST PUSH32 0x4E487B7100000000000000000000000000000000000000000000000000000000 PUSH1 0x0 MSTORE PUSH1 0x22 PUSH1 0x4 MSTORE PUSH1 0x24 PUSH1 0x0 REVERT JUMPDEST PUSH1 0x0 DUP1 REVERT JUMPDEST PUSH1 0x0 PUSH1 0x1F NOT PUSH1 0x1F DUP4 ADD AND SWAP1 POP SWAP2 SWAP1 POP JUMP JUMPDEST PUSH32 0x42616C616E6365203C20616D6F756E7400000000000000000000000000000000 PUSH1 0x0 DUP3 ADD MSTORE POP JUMP JUMPDEST PUSH32 0x416D6F756E74203C3D2030000000000000000000000000000000000000000000 PUSH1 0x0 DUP3 ADD MSTORE POP JUMP JUMPDEST PUSH32 0x446F6E277420616C6C6F7765642E000000000000000000000000000000000000 PUSH1 0x0 DUP3 ADD MSTORE POP JUMP JUMPDEST PUSH32 0x45524332303A206D696E7420746F20746865207A65726F206164647265737300 PUSH1 0x0 DUP3 ADD MSTORE POP JUMP JUMPDEST PUSH2 0x1340 DUP2 PUSH2 0x1142 JUMP JUMPDEST DUP2 EQ PUSH2 0x134B JUMPI PUSH1 0x0 DUP1 REVERT JUMPDEST POP JUMP JUMPDEST PUSH2 0x1357 DUP2 PUSH2 0x1174 JUMP JUMPDEST DUP2 EQ PUSH2 0x1362 JUMPI PUSH1 0x0 DUP1 REVERT JUMPDEST POP JUMP INVALID LOG2 PUSH5 0x6970667358 0x22 SLT KECCAK256 BLOCKHASH RETURNDATASIZE 0x2F 0xBB MUL DUP8 0xA5 0xE SWAP13 0x5C BLOCKHASH 0xD0 0xAF PUSH23 0x5B57B07DAC8710014F84751AA896116BFEB464736F6C63 NUMBER STOP ADDMOD SMOD STOP CALLER "
				},
				"gasEstimates": {
					"creation": {
						"codeDepositCost": "925000",
						"executionCost": "infinite",
						"totalCost": "infinite"
					},
					"external": {
						"addProposals(address[],string[])": "infinite",
						"addVote(address)": "infinite",
						"addVoters(address[])": "infinite",
						"giveRightToVote(address)": "infinite",
						"totalVotesFor(address)": "infinite",
						"vote(address)": "infinite"
					}
				},
				"methodIdentifiers": {
					"addProposals(address[],string[])": "633fff16",
					"addVote(address)": "6cea0e46",
					"addVoters(address[])": "8203373a",
					"giveRightToVote(address)": "9e7b8d61",
					"totalVotesFor(address)": "4041ef54",
					"vote(address)": "6dd7d8ea"
				}
			},
			"storageLayout": {
				"storage": [
					{
						"astId": 487,
						"contract": "contracts/Voting.sol:Voting",
						"label": "startTime",
						"offset": 0,
						"slot": "0",
						"type": "t_uint256"
					},
					{
						"astId": 489,
						"contract": "contracts/Voting.sol:Voting",
						"label": "endTime",
						"offset": 0,
						"slot": "1",
						"type": "t_uint256"
					},
					{
						"astId": 493,
						"contract": "contracts/Voting.sol:Voting",
						"label": "voters",
						"offset": 0,
						"slot": "2",
						"type": "t_mapping(t_address,t_bool)"
					},
					{
						"astId": 495,
						"contract": "contracts/Voting.sol:Voting",
						"label": "numbersOfVoters",
						"offset": 0,
						"slot": "3",
						"type": "t_uint256"
					},
					{
						"astId": 499,
						"contract": "contracts/Voting.sol:Voting",
						"label": "proposals",
						"offset": 0,
						"slot": "4",
						"type": "t_mapping(t_address,t_string_storage)"
					},
					{
						"astId": 501,
						"contract": "contracts/Voting.sol:Voting",
						"label": "chairperson",
						"offset": 0,
						"slot": "5",
						"type": "t_address"
					},
					{
						"astId": 504,
						"contract": "contracts/Voting.sol:Voting",
						"label": "token",
						"offset": 0,
						"slot": "6",
						"type": "t_contract(Token)482"
					}
				],
				"types": {
					"t_address": {
						"encoding": "inplace",
						"label": "address",
						"numberOfBytes": "20"
					},
					"t_bool": {
						"encoding": "inplace",
						"label": "bool",
						"numberOfBytes": "1"
					},
					"t_contract(Token)482": {
						"encoding": "inplace",
						"label": "contract Token",
						"numberOfBytes": "20"
					},
					"t_mapping(t_address,t_bool)": {
						"encoding": "mapping",
						"key": "t_address",
						"label": "mapping(address => bool)",
						"numberOfBytes": "32",
						"value": "t_bool"
					},
					"t_mapping(t_address,t_string_storage)": {
						"encoding": "mapping",
						"key": "t_address",
						"label": "mapping(address => string)",
						"numberOfBytes": "32",
						"value": "t_string_storage"
					},
					"t_string_storage": {
						"encoding": "bytes",
						"label": "string",
						"numberOfBytes": "32"
					},
					"t_uint256": {
						"encoding": "inplace",
						"label": "uint256",
						"numberOfBytes": "32"
					}
				}
			},
			"userdoc": {
				"kind": "user",
				"methods": {},
				"version": 1
			}
		}
	}
}