{
	"contracts/Voting.sol": {
		"Voting": {
			"abi": [
				{
					"inputs": [
						{
							"internalType": "string",
							"name": "_name",
							"type": "string"
						},
						{
							"internalType": "uint256",
							"name": "_start",
							"type": "uint256"
						},
						{
							"internalType": "uint256",
							"name": "_end",
							"type": "uint256"
						}
					],
					"stateMutability": "nonpayable",
					"type": "constructor"
				},
				{
					"inputs": [
						{
							"components": [
								{
									"internalType": "address",
									"name": "addr",
									"type": "address"
								},
								{
									"internalType": "string",
									"name": "name",
									"type": "string"
								}
							],
							"internalType": "struct Voting.Proposal[]",
							"name": "_proposals",
							"type": "tuple[]"
						}
					],
					"name": "addProposal",
					"outputs": [],
					"stateMutability": "nonpayable",
					"type": "function"
				},
				{
					"inputs": [
						{
							"components": [
								{
									"internalType": "address",
									"name": "addr",
									"type": "address"
								},
								{
									"internalType": "bool",
									"name": "voted",
									"type": "bool"
								},
								{
									"internalType": "uint256",
									"name": "vote",
									"type": "uint256"
								}
							],
							"internalType": "struct Voting.Voter[]",
							"name": "_voters",
							"type": "tuple[]"
						}
					],
					"name": "addVoters",
					"outputs": [],
					"stateMutability": "nonpayable",
					"type": "function"
				},
				{
					"inputs": [
						{
							"internalType": "address",
							"name": "voterAddr",
							"type": "address"
						}
					],
					"name": "authorize",
					"outputs": [],
					"stateMutability": "nonpayable",
					"type": "function"
				},
				{
					"inputs": [
						{
							"internalType": "address",
							"name": "addr",
							"type": "address"
						}
					],
					"name": "containsVoterAddr",
					"outputs": [
						{
							"internalType": "bool",
							"name": "",
							"type": "bool"
						}
					],
					"stateMutability": "nonpayable",
					"type": "function"
				},
				{
					"inputs": [],
					"name": "end",
					"outputs": [
						{
							"internalType": "uint256",
							"name": "",
							"type": "uint256"
						}
					],
					"stateMutability": "view",
					"type": "function"
				},
				{
					"inputs": [
						{
							"internalType": "address",
							"name": "voterAddr",
							"type": "address"
						}
					],
					"name": "giveTokenToVoter",
					"outputs": [],
					"stateMutability": "nonpayable",
					"type": "function"
				},
				{
					"inputs": [],
					"name": "name",
					"outputs": [
						{
							"internalType": "string",
							"name": "",
							"type": "string"
						}
					],
					"stateMutability": "view",
					"type": "function"
				},
				{
					"inputs": [],
					"name": "start",
					"outputs": [
						{
							"internalType": "uint256",
							"name": "",
							"type": "uint256"
						}
					],
					"stateMutability": "view",
					"type": "function"
				},
				{
					"inputs": [
						{
							"components": [
								{
									"internalType": "address",
									"name": "addr",
									"type": "address"
								},
								{
									"internalType": "bool",
									"name": "voted",
									"type": "bool"
								},
								{
									"internalType": "uint256",
									"name": "vote",
									"type": "uint256"
								}
							],
							"internalType": "struct Voting.Voter",
							"name": "voter",
							"type": "tuple"
						},
						{
							"components": [
								{
									"internalType": "address",
									"name": "addr",
									"type": "address"
								},
								{
									"internalType": "string",
									"name": "name",
									"type": "string"
								}
							],
							"internalType": "struct Voting.Proposal",
							"name": "proposal",
							"type": "tuple"
						}
					],
					"name": "vote",
					"outputs": [],
					"stateMutability": "nonpayable",
					"type": "function"
				}
			],
			"devdoc": {
				"kind": "dev",
				"methods": {},
				"version": 1
			},
			"evm": {
				"assembly": "    /* \"contracts/Voting.sol\":52:3354  contract Voting {\r... */\n  mstore(0x40, 0x80)\n    /* \"contracts/Voting.sol\":1072:1083  new Token() */\n  mload(0x40)\n  tag_1\n  swap1\n  tag_2\n  jump\t// in\ntag_1:\n  mload(0x40)\n  dup1\n  swap2\n  sub\n  swap1\n  0x00\n  create\n  dup1\n  iszero\n  dup1\n  iszero\n  tag_3\n  jumpi\n  returndatasize\n  0x00\n  dup1\n  returndatacopy\n  revert(0x00, returndatasize)\ntag_3:\n  pop\n    /* \"contracts/Voting.sol\":1058:1083  Token token = new Token() */\n  0x06\n  exp(0x0100, 0x00)\n  dup2\n  sload\n  dup2\n  0xffffffffffffffffffffffffffffffffffffffff\n  mul\n  not\n  and\n  swap1\n  dup4\n  0xffffffffffffffffffffffffffffffffffffffff\n  and\n  mul\n  or\n  swap1\n  sstore\n  pop\n    /* \"contracts/Voting.sol\":1136:1287  constructor(string memory _name, uint _start, uint _end) public {\r... */\n  callvalue\n  dup1\n  iszero\n  tag_4\n  jumpi\n  0x00\n  dup1\n  revert\ntag_4:\n  pop\n  mload(0x40)\n  sub(codesize, bytecodeSize)\n  dup1\n  bytecodeSize\n  dup4\n  codecopy\n  dup2\n  dup2\n  add\n  0x40\n  mstore\n  dup2\n  add\n  swap1\n  tag_5\n  swap2\n  swap1\n  tag_6\n  jump\t// in\ntag_5:\n    /* \"contracts/Voting.sol\":1228:1233  _name */\n  dup3\n    /* \"contracts/Voting.sol\":1221:1225  name */\n  0x00\n    /* \"contracts/Voting.sol\":1221:1233  name = _name */\n  swap1\n  dup1\n  mload\n  swap1\n  0x20\n  add\n  swap1\n  tag_9\n  swap3\n  swap2\n  swap1\n  tag_10\n  jump\t// in\ntag_9:\n  pop\n    /* \"contracts/Voting.sol\":1252:1258  _start */\n  dup2\n    /* \"contracts/Voting.sol\":1244:1249  start */\n  0x01\n    /* \"contracts/Voting.sol\":1244:1258  start = _start */\n  dup2\n  swap1\n  sstore\n  pop\n    /* \"contracts/Voting.sol\":1275:1279  _end */\n  dup1\n    /* \"contracts/Voting.sol\":1269:1272  end */\n  0x02\n    /* \"contracts/Voting.sol\":1269:1279  end = _end */\n  dup2\n  swap1\n  sstore\n  pop\n    /* \"contracts/Voting.sol\":1136:1287  constructor(string memory _name, uint _start, uint _end) public {\r... */\n  pop\n  pop\n  pop\n    /* \"contracts/Voting.sol\":52:3354  contract Voting {\r... */\n  jump(tag_11)\ntag_2:\n  dataSize(sub_1)\n  dup1\n  dataOffset(sub_1)\n  dup4\n  codecopy\n  add\n  swap1\n  jump\t// out\ntag_10:\n  dup3\n  dup1\n  sload\n  tag_12\n  swap1\n  tag_13\n  jump\t// in\ntag_12:\n  swap1\n  0x00\n  mstore\n  keccak256(0x00, 0x20)\n  swap1\n  0x1f\n  add\n  0x20\n  swap1\n  div\n  dup2\n  add\n  swap3\n  dup3\n  tag_15\n  jumpi\n  0x00\n  dup6\n  sstore\n  jump(tag_14)\ntag_15:\n  dup3\n  0x1f\n  lt\n  tag_16\n  jumpi\n  dup1\n  mload\n  not(0xff)\n  and\n  dup4\n  dup1\n  add\n  or\n  dup6\n  sstore\n  jump(tag_14)\ntag_16:\n  dup3\n  dup1\n  add\n  0x01\n  add\n  dup6\n  sstore\n  dup3\n  iszero\n  tag_14\n  jumpi\n  swap2\n  dup3\n  add\ntag_17:\n  dup3\n  dup2\n  gt\n  iszero\n  tag_18\n  jumpi\n  dup3\n  mload\n  dup3\n  sstore\n  swap2\n  0x20\n  add\n  swap2\n  swap1\n  0x01\n  add\n  swap1\n  jump(tag_17)\ntag_18:\ntag_14:\n  pop\n  swap1\n  pop\n  tag_19\n  swap2\n  swap1\n  tag_20\n  jump\t// in\ntag_19:\n  pop\n  swap1\n  jump\t// out\ntag_20:\ntag_21:\n  dup1\n  dup3\n  gt\n  iszero\n  tag_22\n  jumpi\n  0x00\n  dup2\n  0x00\n  swap1\n  sstore\n  pop\n  0x01\n  add\n  jump(tag_21)\ntag_22:\n  pop\n  swap1\n  jump\t// out\n    /* \"#utility.yul\":7:428   */\ntag_24:\n    /* \"#utility.yul\":96:101   */\n  0x00\n    /* \"#utility.yul\":121:187   */\n  tag_26\n    /* \"#utility.yul\":137:186   */\n  tag_27\n    /* \"#utility.yul\":179:185   */\n  dup5\n    /* \"#utility.yul\":137:186   */\n  tag_28\n  jump\t// in\ntag_27:\n    /* \"#utility.yul\":121:187   */\n  tag_29\n  jump\t// in\ntag_26:\n    /* \"#utility.yul\":112:187   */\n  swap1\n  pop\n    /* \"#utility.yul\":210:216   */\n  dup3\n    /* \"#utility.yul\":203:208   */\n  dup2\n    /* \"#utility.yul\":196:217   */\n  mstore\n    /* \"#utility.yul\":248:252   */\n  0x20\n    /* \"#utility.yul\":241:246   */\n  dup2\n    /* \"#utility.yul\":237:253   */\n  add\n    /* \"#utility.yul\":286:289   */\n  dup5\n    /* \"#utility.yul\":277:283   */\n  dup5\n    /* \"#utility.yul\":272:275   */\n  dup5\n    /* \"#utility.yul\":268:284   */\n  add\n    /* \"#utility.yul\":265:290   */\n  gt\n    /* \"#utility.yul\":262:374   */\n  iszero\n  tag_30\n  jumpi\n    /* \"#utility.yul\":293:372   */\n  tag_31\n  tag_32\n  jump\t// in\ntag_31:\n    /* \"#utility.yul\":262:374   */\ntag_30:\n    /* \"#utility.yul\":383:422   */\n  tag_33\n    /* \"#utility.yul\":415:421   */\n  dup5\n    /* \"#utility.yul\":410:413   */\n  dup3\n    /* \"#utility.yul\":405:408   */\n  dup6\n    /* \"#utility.yul\":383:422   */\n  tag_34\n  jump\t// in\ntag_33:\n    /* \"#utility.yul\":102:428   */\n  pop\n    /* \"#utility.yul\":7:428   */\n  swap4\n  swap3\n  pop\n  pop\n  pop\n  jump\t// out\n    /* \"#utility.yul\":448:803   */\ntag_35:\n    /* \"#utility.yul\":515:520   */\n  0x00\n    /* \"#utility.yul\":564:567   */\n  dup3\n    /* \"#utility.yul\":557:561   */\n  0x1f\n    /* \"#utility.yul\":549:555   */\n  dup4\n    /* \"#utility.yul\":545:562   */\n  add\n    /* \"#utility.yul\":541:568   */\n  slt\n    /* \"#utility.yul\":531:653   */\n  tag_37\n  jumpi\n    /* \"#utility.yul\":572:651   */\n  tag_38\n  tag_39\n  jump\t// in\ntag_38:\n    /* \"#utility.yul\":531:653   */\ntag_37:\n    /* \"#utility.yul\":682:688   */\n  dup2\n    /* \"#utility.yul\":676:689   */\n  mload\n    /* \"#utility.yul\":707:797   */\n  tag_40\n    /* \"#utility.yul\":793:796   */\n  dup5\n    /* \"#utility.yul\":785:791   */\n  dup3\n    /* \"#utility.yul\":778:782   */\n  0x20\n    /* \"#utility.yul\":770:776   */\n  dup7\n    /* \"#utility.yul\":766:783   */\n  add\n    /* \"#utility.yul\":707:797   */\n  tag_24\n  jump\t// in\ntag_40:\n    /* \"#utility.yul\":698:797   */\n  swap2\n  pop\n    /* \"#utility.yul\":521:803   */\n  pop\n    /* \"#utility.yul\":448:803   */\n  swap3\n  swap2\n  pop\n  pop\n  jump\t// out\n    /* \"#utility.yul\":809:952   */\ntag_41:\n    /* \"#utility.yul\":866:871   */\n  0x00\n    /* \"#utility.yul\":897:903   */\n  dup2\n    /* \"#utility.yul\":891:904   */\n  mload\n    /* \"#utility.yul\":882:904   */\n  swap1\n  pop\n    /* \"#utility.yul\":913:946   */\n  tag_43\n    /* \"#utility.yul\":940:945   */\n  dup2\n    /* \"#utility.yul\":913:946   */\n  tag_44\n  jump\t// in\ntag_43:\n    /* \"#utility.yul\":809:952   */\n  swap3\n  swap2\n  pop\n  pop\n  jump\t// out\n    /* \"#utility.yul\":958:1794   */\ntag_6:\n    /* \"#utility.yul\":1056:1062   */\n  0x00\n    /* \"#utility.yul\":1064:1070   */\n  dup1\n    /* \"#utility.yul\":1072:1078   */\n  0x00\n    /* \"#utility.yul\":1121:1123   */\n  0x60\n    /* \"#utility.yul\":1109:1118   */\n  dup5\n    /* \"#utility.yul\":1100:1107   */\n  dup7\n    /* \"#utility.yul\":1096:1119   */\n  sub\n    /* \"#utility.yul\":1092:1124   */\n  slt\n    /* \"#utility.yul\":1089:1208   */\n  iszero\n  tag_46\n  jumpi\n    /* \"#utility.yul\":1127:1206   */\n  tag_47\n  tag_48\n  jump\t// in\ntag_47:\n    /* \"#utility.yul\":1089:1208   */\ntag_46:\n    /* \"#utility.yul\":1268:1269   */\n  0x00\n    /* \"#utility.yul\":1257:1266   */\n  dup5\n    /* \"#utility.yul\":1253:1270   */\n  add\n    /* \"#utility.yul\":1247:1271   */\n  mload\n    /* \"#utility.yul\":1298:1316   */\n  0xffffffffffffffff\n    /* \"#utility.yul\":1290:1296   */\n  dup2\n    /* \"#utility.yul\":1287:1317   */\n  gt\n    /* \"#utility.yul\":1284:1401   */\n  iszero\n  tag_49\n  jumpi\n    /* \"#utility.yul\":1320:1399   */\n  tag_50\n  tag_51\n  jump\t// in\ntag_50:\n    /* \"#utility.yul\":1284:1401   */\ntag_49:\n    /* \"#utility.yul\":1425:1499   */\n  tag_52\n    /* \"#utility.yul\":1491:1498   */\n  dup7\n    /* \"#utility.yul\":1482:1488   */\n  dup3\n    /* \"#utility.yul\":1471:1480   */\n  dup8\n    /* \"#utility.yul\":1467:1489   */\n  add\n    /* \"#utility.yul\":1425:1499   */\n  tag_35\n  jump\t// in\ntag_52:\n    /* \"#utility.yul\":1415:1499   */\n  swap4\n  pop\n    /* \"#utility.yul\":1218:1509   */\n  pop\n    /* \"#utility.yul\":1548:1550   */\n  0x20\n    /* \"#utility.yul\":1574:1638   */\n  tag_53\n    /* \"#utility.yul\":1630:1637   */\n  dup7\n    /* \"#utility.yul\":1621:1627   */\n  dup3\n    /* \"#utility.yul\":1610:1619   */\n  dup8\n    /* \"#utility.yul\":1606:1628   */\n  add\n    /* \"#utility.yul\":1574:1638   */\n  tag_41\n  jump\t// in\ntag_53:\n    /* \"#utility.yul\":1564:1638   */\n  swap3\n  pop\n    /* \"#utility.yul\":1519:1648   */\n  pop\n    /* \"#utility.yul\":1687:1689   */\n  0x40\n    /* \"#utility.yul\":1713:1777   */\n  tag_54\n    /* \"#utility.yul\":1769:1776   */\n  dup7\n    /* \"#utility.yul\":1760:1766   */\n  dup3\n    /* \"#utility.yul\":1749:1758   */\n  dup8\n    /* \"#utility.yul\":1745:1767   */\n  add\n    /* \"#utility.yul\":1713:1777   */\n  tag_41\n  jump\t// in\ntag_54:\n    /* \"#utility.yul\":1703:1777   */\n  swap2\n  pop\n    /* \"#utility.yul\":1658:1787   */\n  pop\n    /* \"#utility.yul\":958:1794   */\n  swap3\n  pop\n  swap3\n  pop\n  swap3\n  jump\t// out\n    /* \"#utility.yul\":1800:1929   */\ntag_29:\n    /* \"#utility.yul\":1834:1840   */\n  0x00\n    /* \"#utility.yul\":1861:1881   */\n  tag_56\n  tag_57\n  jump\t// in\ntag_56:\n    /* \"#utility.yul\":1851:1881   */\n  swap1\n  pop\n    /* \"#utility.yul\":1890:1923   */\n  tag_58\n    /* \"#utility.yul\":1918:1922   */\n  dup3\n    /* \"#utility.yul\":1910:1916   */\n  dup3\n    /* \"#utility.yul\":1890:1923   */\n  tag_59\n  jump\t// in\ntag_58:\n    /* \"#utility.yul\":1800:1929   */\n  swap2\n  swap1\n  pop\n  jump\t// out\n    /* \"#utility.yul\":1935:2010   */\ntag_57:\n    /* \"#utility.yul\":1968:1974   */\n  0x00\n    /* \"#utility.yul\":2001:2003   */\n  0x40\n    /* \"#utility.yul\":1995:2004   */\n  mload\n    /* \"#utility.yul\":1985:2004   */\n  swap1\n  pop\n    /* \"#utility.yul\":1935:2010   */\n  swap1\n  jump\t// out\n    /* \"#utility.yul\":2016:2324   */\ntag_28:\n    /* \"#utility.yul\":2078:2082   */\n  0x00\n    /* \"#utility.yul\":2168:2186   */\n  0xffffffffffffffff\n    /* \"#utility.yul\":2160:2166   */\n  dup3\n    /* \"#utility.yul\":2157:2187   */\n  gt\n    /* \"#utility.yul\":2154:2210   */\n  iszero\n  tag_62\n  jumpi\n    /* \"#utility.yul\":2190:2208   */\n  tag_63\n  tag_64\n  jump\t// in\ntag_63:\n    /* \"#utility.yul\":2154:2210   */\ntag_62:\n    /* \"#utility.yul\":2228:2257   */\n  tag_65\n    /* \"#utility.yul\":2250:2256   */\n  dup3\n    /* \"#utility.yul\":2228:2257   */\n  tag_66\n  jump\t// in\ntag_65:\n    /* \"#utility.yul\":2220:2257   */\n  swap1\n  pop\n    /* \"#utility.yul\":2312:2316   */\n  0x20\n    /* \"#utility.yul\":2306:2310   */\n  dup2\n    /* \"#utility.yul\":2302:2317   */\n  add\n    /* \"#utility.yul\":2294:2317   */\n  swap1\n  pop\n    /* \"#utility.yul\":2016:2324   */\n  swap2\n  swap1\n  pop\n  jump\t// out\n    /* \"#utility.yul\":2330:2407   */\ntag_67:\n    /* \"#utility.yul\":2367:2374   */\n  0x00\n    /* \"#utility.yul\":2396:2401   */\n  dup2\n    /* \"#utility.yul\":2385:2401   */\n  swap1\n  pop\n    /* \"#utility.yul\":2330:2407   */\n  swap2\n  swap1\n  pop\n  jump\t// out\n    /* \"#utility.yul\":2413:2720   */\ntag_34:\n    /* \"#utility.yul\":2481:2482   */\n  0x00\n    /* \"#utility.yul\":2491:2604   */\ntag_70:\n    /* \"#utility.yul\":2505:2511   */\n  dup4\n    /* \"#utility.yul\":2502:2503   */\n  dup2\n    /* \"#utility.yul\":2499:2512   */\n  lt\n    /* \"#utility.yul\":2491:2604   */\n  iszero\n  tag_72\n  jumpi\n    /* \"#utility.yul\":2590:2591   */\n  dup1\n    /* \"#utility.yul\":2585:2588   */\n  dup3\n    /* \"#utility.yul\":2581:2592   */\n  add\n    /* \"#utility.yul\":2575:2593   */\n  mload\n    /* \"#utility.yul\":2571:2572   */\n  dup2\n    /* \"#utility.yul\":2566:2569   */\n  dup5\n    /* \"#utility.yul\":2562:2573   */\n  add\n    /* \"#utility.yul\":2555:2594   */\n  mstore\n    /* \"#utility.yul\":2527:2529   */\n  0x20\n    /* \"#utility.yul\":2524:2525   */\n  dup2\n    /* \"#utility.yul\":2520:2530   */\n  add\n    /* \"#utility.yul\":2515:2530   */\n  swap1\n  pop\n    /* \"#utility.yul\":2491:2604   */\n  jump(tag_70)\ntag_72:\n    /* \"#utility.yul\":2622:2628   */\n  dup4\n    /* \"#utility.yul\":2619:2620   */\n  dup2\n    /* \"#utility.yul\":2616:2629   */\n  gt\n    /* \"#utility.yul\":2613:2714   */\n  iszero\n  tag_73\n  jumpi\n    /* \"#utility.yul\":2702:2703   */\n  0x00\n    /* \"#utility.yul\":2693:2699   */\n  dup5\n    /* \"#utility.yul\":2688:2691   */\n  dup5\n    /* \"#utility.yul\":2684:2700   */\n  add\n    /* \"#utility.yul\":2677:2704   */\n  mstore\n    /* \"#utility.yul\":2613:2714   */\ntag_73:\n    /* \"#utility.yul\":2462:2720   */\n  pop\n    /* \"#utility.yul\":2413:2720   */\n  pop\n  pop\n  pop\n  jump\t// out\n    /* \"#utility.yul\":2726:3046   */\ntag_13:\n    /* \"#utility.yul\":2770:2776   */\n  0x00\n    /* \"#utility.yul\":2807:2808   */\n  0x02\n    /* \"#utility.yul\":2801:2805   */\n  dup3\n    /* \"#utility.yul\":2797:2809   */\n  div\n    /* \"#utility.yul\":2787:2809   */\n  swap1\n  pop\n    /* \"#utility.yul\":2854:2855   */\n  0x01\n    /* \"#utility.yul\":2848:2852   */\n  dup3\n    /* \"#utility.yul\":2844:2856   */\n  and\n    /* \"#utility.yul\":2875:2893   */\n  dup1\n    /* \"#utility.yul\":2865:2946   */\n  tag_75\n  jumpi\n    /* \"#utility.yul\":2931:2935   */\n  0x7f\n    /* \"#utility.yul\":2923:2929   */\n  dup3\n    /* \"#utility.yul\":2919:2936   */\n  and\n    /* \"#utility.yul\":2909:2936   */\n  swap2\n  pop\n    /* \"#utility.yul\":2865:2946   */\ntag_75:\n    /* \"#utility.yul\":2993:2995   */\n  0x20\n    /* \"#utility.yul\":2985:2991   */\n  dup3\n    /* \"#utility.yul\":2982:2996   */\n  lt\n    /* \"#utility.yul\":2962:2980   */\n  dup2\n    /* \"#utility.yul\":2959:2997   */\n  eq\n    /* \"#utility.yul\":2956:3040   */\n  iszero\n  tag_76\n  jumpi\n    /* \"#utility.yul\":3012:3030   */\n  tag_77\n  tag_78\n  jump\t// in\ntag_77:\n    /* \"#utility.yul\":2956:3040   */\ntag_76:\n    /* \"#utility.yul\":2777:3046   */\n  pop\n    /* \"#utility.yul\":2726:3046   */\n  swap2\n  swap1\n  pop\n  jump\t// out\n    /* \"#utility.yul\":3052:3333   */\ntag_59:\n    /* \"#utility.yul\":3135:3162   */\n  tag_80\n    /* \"#utility.yul\":3157:3161   */\n  dup3\n    /* \"#utility.yul\":3135:3162   */\n  tag_66\n  jump\t// in\ntag_80:\n    /* \"#utility.yul\":3127:3133   */\n  dup2\n    /* \"#utility.yul\":3123:3163   */\n  add\n    /* \"#utility.yul\":3265:3271   */\n  dup2\n    /* \"#utility.yul\":3253:3263   */\n  dup2\n    /* \"#utility.yul\":3250:3272   */\n  lt\n    /* \"#utility.yul\":3229:3247   */\n  0xffffffffffffffff\n    /* \"#utility.yul\":3217:3227   */\n  dup3\n    /* \"#utility.yul\":3214:3248   */\n  gt\n    /* \"#utility.yul\":3211:3273   */\n  or\n    /* \"#utility.yul\":3208:3296   */\n  iszero\n  tag_81\n  jumpi\n    /* \"#utility.yul\":3276:3294   */\n  tag_82\n  tag_64\n  jump\t// in\ntag_82:\n    /* \"#utility.yul\":3208:3296   */\ntag_81:\n    /* \"#utility.yul\":3316:3326   */\n  dup1\n    /* \"#utility.yul\":3312:3314   */\n  0x40\n    /* \"#utility.yul\":3305:3327   */\n  mstore\n    /* \"#utility.yul\":3095:3333   */\n  pop\n    /* \"#utility.yul\":3052:3333   */\n  pop\n  pop\n  jump\t// out\n    /* \"#utility.yul\":3339:3519   */\ntag_78:\n    /* \"#utility.yul\":3387:3464   */\n  0x4e487b7100000000000000000000000000000000000000000000000000000000\n    /* \"#utility.yul\":3384:3385   */\n  0x00\n    /* \"#utility.yul\":3377:3465   */\n  mstore\n    /* \"#utility.yul\":3484:3488   */\n  0x22\n    /* \"#utility.yul\":3481:3482   */\n  0x04\n    /* \"#utility.yul\":3474:3489   */\n  mstore\n    /* \"#utility.yul\":3508:3512   */\n  0x24\n    /* \"#utility.yul\":3505:3506   */\n  0x00\n    /* \"#utility.yul\":3498:3513   */\n  revert\n    /* \"#utility.yul\":3525:3705   */\ntag_64:\n    /* \"#utility.yul\":3573:3650   */\n  0x4e487b7100000000000000000000000000000000000000000000000000000000\n    /* \"#utility.yul\":3570:3571   */\n  0x00\n    /* \"#utility.yul\":3563:3651   */\n  mstore\n    /* \"#utility.yul\":3670:3674   */\n  0x41\n    /* \"#utility.yul\":3667:3668   */\n  0x04\n    /* \"#utility.yul\":3660:3675   */\n  mstore\n    /* \"#utility.yul\":3694:3698   */\n  0x24\n    /* \"#utility.yul\":3691:3692   */\n  0x00\n    /* \"#utility.yul\":3684:3699   */\n  revert\n    /* \"#utility.yul\":3711:3828   */\ntag_39:\n    /* \"#utility.yul\":3820:3821   */\n  0x00\n    /* \"#utility.yul\":3817:3818   */\n  dup1\n    /* \"#utility.yul\":3810:3822   */\n  revert\n    /* \"#utility.yul\":3834:3951   */\ntag_32:\n    /* \"#utility.yul\":3943:3944   */\n  0x00\n    /* \"#utility.yul\":3940:3941   */\n  dup1\n    /* \"#utility.yul\":3933:3945   */\n  revert\n    /* \"#utility.yul\":3957:4074   */\ntag_51:\n    /* \"#utility.yul\":4066:4067   */\n  0x00\n    /* \"#utility.yul\":4063:4064   */\n  dup1\n    /* \"#utility.yul\":4056:4068   */\n  revert\n    /* \"#utility.yul\":4080:4197   */\ntag_48:\n    /* \"#utility.yul\":4189:4190   */\n  0x00\n    /* \"#utility.yul\":4186:4187   */\n  dup1\n    /* \"#utility.yul\":4179:4191   */\n  revert\n    /* \"#utility.yul\":4203:4305   */\ntag_66:\n    /* \"#utility.yul\":4244:4250   */\n  0x00\n    /* \"#utility.yul\":4295:4297   */\n  0x1f\n    /* \"#utility.yul\":4291:4298   */\n  not\n    /* \"#utility.yul\":4286:4288   */\n  0x1f\n    /* \"#utility.yul\":4279:4284   */\n  dup4\n    /* \"#utility.yul\":4275:4289   */\n  add\n    /* \"#utility.yul\":4271:4299   */\n  and\n    /* \"#utility.yul\":4261:4299   */\n  swap1\n  pop\n    /* \"#utility.yul\":4203:4305   */\n  swap2\n  swap1\n  pop\n  jump\t// out\n    /* \"#utility.yul\":4311:4433   */\ntag_44:\n    /* \"#utility.yul\":4384:4408   */\n  tag_91\n    /* \"#utility.yul\":4402:4407   */\n  dup2\n    /* \"#utility.yul\":4384:4408   */\n  tag_67\n  jump\t// in\ntag_91:\n    /* \"#utility.yul\":4377:4382   */\n  dup2\n    /* \"#utility.yul\":4374:4409   */\n  eq\n    /* \"#utility.yul\":4364:4427   */\n  tag_92\n  jumpi\n    /* \"#utility.yul\":4423:4424   */\n  0x00\n    /* \"#utility.yul\":4420:4421   */\n  dup1\n    /* \"#utility.yul\":4413:4425   */\n  revert\n    /* \"#utility.yul\":4364:4427   */\ntag_92:\n    /* \"#utility.yul\":4311:4433   */\n  pop\n  jump\t// out\n    /* \"contracts/Voting.sol\":52:3354  contract Voting {\r... */\ntag_11:\n  dataSize(sub_0)\n  dup1\n  dataOffset(sub_0)\n  0x00\n  codecopy\n  0x00\n  return\nstop\n\nsub_0: assembly {\n        /* \"contracts/Voting.sol\":52:3354  contract Voting {\r... */\n      mstore(0x40, 0x80)\n      callvalue\n      dup1\n      iszero\n      tag_1\n      jumpi\n      0x00\n      dup1\n      revert\n    tag_1:\n      pop\n      jumpi(tag_2, lt(calldatasize, 0x04))\n      shr(0xe0, calldataload(0x00))\n      dup1\n      0xa90ea2ca\n      gt\n      tag_12\n      jumpi\n      dup1\n      0xa90ea2ca\n      eq\n      tag_7\n      jumpi\n      dup1\n      0xb6a5d7de\n      eq\n      tag_8\n      jumpi\n      dup1\n      0xbe9a6555\n      eq\n      tag_9\n      jumpi\n      dup1\n      0xe3b89d64\n      eq\n      tag_10\n      jumpi\n      dup1\n      0xefbe1c1c\n      eq\n      tag_11\n      jumpi\n      jump(tag_2)\n    tag_12:\n      dup1\n      0x06fdde03\n      eq\n      tag_3\n      jumpi\n      dup1\n      0x0d86d7be\n      eq\n      tag_4\n      jumpi\n      dup1\n      0x4d922a28\n      eq\n      tag_5\n      jumpi\n      dup1\n      0x611dae18\n      eq\n      tag_6\n      jumpi\n    tag_2:\n      0x00\n      dup1\n      revert\n        /* \"contracts/Voting.sol\":624:642  string public name */\n    tag_3:\n      tag_13\n      tag_14\n      jump\t// in\n    tag_13:\n      mload(0x40)\n      tag_15\n      swap2\n      swap1\n      tag_16\n      jump\t// in\n    tag_15:\n      mload(0x40)\n      dup1\n      swap2\n      sub\n      swap1\n      return\n        /* \"contracts/Voting.sol\":2490:2904  function vote(Voter memory voter, Proposal memory proposal) public {\r... */\n    tag_4:\n      tag_17\n      0x04\n      dup1\n      calldatasize\n      sub\n      dup2\n      add\n      swap1\n      tag_18\n      swap2\n      swap1\n      tag_19\n      jump\t// in\n    tag_18:\n      tag_20\n      jump\t// in\n    tag_17:\n      stop\n        /* \"contracts/Voting.sol\":1463:1639  function addProposal(Proposal[] memory _proposals)public {\r... */\n    tag_5:\n      tag_21\n      0x04\n      dup1\n      calldatasize\n      sub\n      dup2\n      add\n      swap1\n      tag_22\n      swap2\n      swap1\n      tag_23\n      jump\t// in\n    tag_22:\n      tag_24\n      jump\t// in\n    tag_21:\n      stop\n        /* \"contracts/Voting.sol\":1295:1455  function addVoters(Voter[] memory _voters) public {\r... */\n    tag_6:\n      tag_25\n      0x04\n      dup1\n      calldatasize\n      sub\n      dup2\n      add\n      swap1\n      tag_26\n      swap2\n      swap1\n      tag_27\n      jump\t// in\n    tag_26:\n      tag_28\n      jump\t// in\n    tag_25:\n      stop\n        /* \"contracts/Voting.sol\":1647:1919  function containsVoterAddr(address addr) public returns (bool) {\r... */\n    tag_7:\n      tag_29\n      0x04\n      dup1\n      calldatasize\n      sub\n      dup2\n      add\n      swap1\n      tag_30\n      swap2\n      swap1\n      tag_31\n      jump\t// in\n    tag_30:\n      tag_32\n      jump\t// in\n    tag_29:\n      mload(0x40)\n      tag_33\n      swap2\n      swap1\n      tag_34\n      jump\t// in\n    tag_33:\n      mload(0x40)\n      dup1\n      swap2\n      sub\n      swap1\n      return\n        /* \"contracts/Voting.sol\":1927:2292  function authorize(address voterAddr) public {\r... */\n    tag_8:\n      tag_35\n      0x04\n      dup1\n      calldatasize\n      sub\n      dup2\n      add\n      swap1\n      tag_36\n      swap2\n      swap1\n      tag_31\n      jump\t// in\n    tag_36:\n      tag_37\n      jump\t// in\n    tag_35:\n      stop\n        /* \"contracts/Voting.sol\":652:669  uint public start */\n    tag_9:\n      tag_38\n      tag_39\n      jump\t// in\n    tag_38:\n      mload(0x40)\n      tag_40\n      swap2\n      swap1\n      tag_41\n      jump\t// in\n    tag_40:\n      mload(0x40)\n      dup1\n      swap2\n      sub\n      swap1\n      return\n        /* \"contracts/Voting.sol\":2300:2482  function giveTokenToVoter(address voterAddr) public {\r... */\n    tag_10:\n      tag_42\n      0x04\n      dup1\n      calldatasize\n      sub\n      dup2\n      add\n      swap1\n      tag_43\n      swap2\n      swap1\n      tag_31\n      jump\t// in\n    tag_43:\n      tag_44\n      jump\t// in\n    tag_42:\n      stop\n        /* \"contracts/Voting.sol\":728:743  uint public end */\n    tag_11:\n      tag_45\n      tag_46\n      jump\t// in\n    tag_45:\n      mload(0x40)\n      tag_47\n      swap2\n      swap1\n      tag_41\n      jump\t// in\n    tag_47:\n      mload(0x40)\n      dup1\n      swap2\n      sub\n      swap1\n      return\n        /* \"contracts/Voting.sol\":624:642  string public name */\n    tag_14:\n      0x00\n      dup1\n      sload\n      tag_48\n      swap1\n      tag_49\n      jump\t// in\n    tag_48:\n      dup1\n      0x1f\n      add\n      0x20\n      dup1\n      swap2\n      div\n      mul\n      0x20\n      add\n      mload(0x40)\n      swap1\n      dup2\n      add\n      0x40\n      mstore\n      dup1\n      swap3\n      swap2\n      swap1\n      dup2\n      dup2\n      mstore\n      0x20\n      add\n      dup3\n      dup1\n      sload\n      tag_50\n      swap1\n      tag_49\n      jump\t// in\n    tag_50:\n      dup1\n      iszero\n      tag_51\n      jumpi\n      dup1\n      0x1f\n      lt\n      tag_52\n      jumpi\n      0x0100\n      dup1\n      dup4\n      sload\n      div\n      mul\n      dup4\n      mstore\n      swap2\n      0x20\n      add\n      swap2\n      jump(tag_51)\n    tag_52:\n      dup3\n      add\n      swap2\n      swap1\n      0x00\n      mstore\n      keccak256(0x00, 0x20)\n      swap1\n    tag_53:\n      dup2\n      sload\n      dup2\n      mstore\n      swap1\n      0x01\n      add\n      swap1\n      0x20\n      add\n      dup1\n      dup4\n      gt\n      tag_53\n      jumpi\n      dup3\n      swap1\n      sub\n      0x1f\n      and\n      dup3\n      add\n      swap2\n    tag_51:\n      pop\n      pop\n      pop\n      pop\n      pop\n      dup2\n      jump\t// out\n        /* \"contracts/Voting.sol\":2490:2904  function vote(Voter memory voter, Proposal memory proposal) public {\r... */\n    tag_20:\n        /* \"contracts/Voting.sol\":2720:2725  voter */\n      dup2\n        /* \"contracts/Voting.sol\":2720:2731  voter.voted */\n      0x20\n      add\n      mload\n        /* \"contracts/Voting.sol\":2712:2750  require(voter.voted, \"Already voted.\") */\n      tag_55\n      jumpi\n      mload(0x40)\n      0x08c379a000000000000000000000000000000000000000000000000000000000\n      dup2\n      mstore\n      0x04\n      add\n      tag_56\n      swap1\n      tag_57\n      jump\t// in\n    tag_56:\n      mload(0x40)\n      dup1\n      swap2\n      sub\n      swap1\n      revert\n    tag_55:\n        /* \"contracts/Voting.sol\":2819:2824  token */\n      0x06\n      0x00\n      swap1\n      sload\n      swap1\n      0x0100\n      exp\n      swap1\n      div\n      0xffffffffffffffffffffffffffffffffffffffff\n      and\n        /* \"contracts/Voting.sol\":2819:2837  token.transferFrom */\n      0xffffffffffffffffffffffffffffffffffffffff\n      and\n      0x23b872dd\n        /* \"contracts/Voting.sol\":2838:2843  voter */\n      dup4\n        /* \"contracts/Voting.sol\":2838:2848  voter.addr */\n      0x00\n      add\n      mload\n        /* \"contracts/Voting.sol\":2850:2858  proposal */\n      dup4\n        /* \"contracts/Voting.sol\":2850:2863  proposal.addr */\n      0x00\n      add\n      mload\n        /* \"contracts/Voting.sol\":2865:2866  1 */\n      0x01\n        /* \"contracts/Voting.sol\":2819:2867  token.transferFrom(voter.addr, proposal.addr, 1) */\n      mload(0x40)\n      dup5\n      0xffffffff\n      and\n      0xe0\n      shl\n      dup2\n      mstore\n      0x04\n      add\n      tag_58\n      swap4\n      swap3\n      swap2\n      swap1\n      tag_59\n      jump\t// in\n    tag_58:\n      0x00\n      mload(0x40)\n      dup1\n      dup4\n      sub\n      dup2\n      0x00\n      dup8\n      dup1\n      extcodesize\n      iszero\n      dup1\n      iszero\n      tag_60\n      jumpi\n      0x00\n      dup1\n      revert\n    tag_60:\n      pop\n      gas\n      call\n      iszero\n      dup1\n      iszero\n      tag_62\n      jumpi\n      returndatasize\n      0x00\n      dup1\n      returndatacopy\n      revert(0x00, returndatasize)\n    tag_62:\n      pop\n      pop\n      pop\n      pop\n        /* \"contracts/Voting.sol\":2892:2896  true */\n      0x01\n        /* \"contracts/Voting.sol\":2878:2883  voter */\n      dup3\n        /* \"contracts/Voting.sol\":2878:2889  voter.voted */\n      0x20\n      add\n        /* \"contracts/Voting.sol\":2878:2896  voter.voted = true */\n      swap1\n      iszero\n      iszero\n      swap1\n      dup2\n      iszero\n      iszero\n      dup2\n      mstore\n      pop\n      pop\n        /* \"contracts/Voting.sol\":2490:2904  function vote(Voter memory voter, Proposal memory proposal) public {\r... */\n      pop\n      pop\n      jump\t// out\n        /* \"contracts/Voting.sol\":1463:1639  function addProposal(Proposal[] memory _proposals)public {\r... */\n    tag_24:\n        /* \"contracts/Voting.sol\":1536:1542  uint i */\n      0x00\n        /* \"contracts/Voting.sol\":1531:1632  for (uint i = 0; i < _proposals.length; i++) {\r... */\n    tag_64:\n        /* \"contracts/Voting.sol\":1552:1562  _proposals */\n      dup2\n        /* \"contracts/Voting.sol\":1552:1569  _proposals.length */\n      mload\n        /* \"contracts/Voting.sol\":1548:1549  i */\n      dup2\n        /* \"contracts/Voting.sol\":1548:1569  i < _proposals.length */\n      lt\n        /* \"contracts/Voting.sol\":1531:1632  for (uint i = 0; i < _proposals.length; i++) {\r... */\n      iszero\n      tag_65\n      jumpi\n        /* \"contracts/Voting.sol\":1591:1600  proposals */\n      0x05\n        /* \"contracts/Voting.sol\":1606:1616  _proposals */\n      dup3\n        /* \"contracts/Voting.sol\":1617:1618  i */\n      dup3\n        /* \"contracts/Voting.sol\":1606:1619  _proposals[i] */\n      dup2\n      mload\n      dup2\n      lt\n      tag_67\n      jumpi\n      tag_68\n      tag_69\n      jump\t// in\n    tag_68:\n    tag_67:\n      0x20\n      mul\n      0x20\n      add\n      add\n      mload\n        /* \"contracts/Voting.sol\":1591:1620  proposals.push(_proposals[i]) */\n      swap1\n      dup1\n      0x01\n      dup2\n      sload\n      add\n      dup1\n      dup3\n      sstore\n      dup1\n      swap2\n      pop\n      pop\n      0x01\n      swap1\n      sub\n      swap1\n      0x00\n      mstore\n      keccak256(0x00, 0x20)\n      swap1\n      0x02\n      mul\n      add\n      0x00\n      swap1\n      swap2\n      swap1\n      swap2\n      swap1\n      swap2\n      pop\n      0x00\n      dup3\n      add\n      mload\n      dup2\n      0x00\n      add\n      exp(0x0100, 0x00)\n      dup2\n      sload\n      dup2\n      0xffffffffffffffffffffffffffffffffffffffff\n      mul\n      not\n      and\n      swap1\n      dup4\n      0xffffffffffffffffffffffffffffffffffffffff\n      and\n      mul\n      or\n      swap1\n      sstore\n      pop\n      0x20\n      dup3\n      add\n      mload\n      dup2\n      0x01\n      add\n      swap1\n      dup1\n      mload\n      swap1\n      0x20\n      add\n      swap1\n      tag_71\n      swap3\n      swap2\n      swap1\n      tag_72\n      jump\t// in\n    tag_71:\n      pop\n      pop\n      pop\n        /* \"contracts/Voting.sol\":1571:1574  i++ */\n      dup1\n      dup1\n      tag_73\n      swap1\n      tag_74\n      jump\t// in\n    tag_73:\n      swap2\n      pop\n      pop\n        /* \"contracts/Voting.sol\":1531:1632  for (uint i = 0; i < _proposals.length; i++) {\r... */\n      jump(tag_64)\n    tag_65:\n      pop\n        /* \"contracts/Voting.sol\":1463:1639  function addProposal(Proposal[] memory _proposals)public {\r... */\n      pop\n      jump\t// out\n        /* \"contracts/Voting.sol\":1295:1455  function addVoters(Voter[] memory _voters) public {\r... */\n    tag_28:\n        /* \"contracts/Voting.sol\":1361:1367  uint i */\n      0x00\n        /* \"contracts/Voting.sol\":1356:1448  for (uint i = 0; i < _voters.length; i++) {\r... */\n    tag_76:\n        /* \"contracts/Voting.sol\":1377:1384  _voters */\n      dup2\n        /* \"contracts/Voting.sol\":1377:1391  _voters.length */\n      mload\n        /* \"contracts/Voting.sol\":1373:1374  i */\n      dup2\n        /* \"contracts/Voting.sol\":1373:1391  i < _voters.length */\n      lt\n        /* \"contracts/Voting.sol\":1356:1448  for (uint i = 0; i < _voters.length; i++) {\r... */\n      iszero\n      tag_77\n      jumpi\n        /* \"contracts/Voting.sol\":1413:1419  voters */\n      0x04\n        /* \"contracts/Voting.sol\":1425:1432  _voters */\n      dup3\n        /* \"contracts/Voting.sol\":1433:1434  i */\n      dup3\n        /* \"contracts/Voting.sol\":1425:1435  _voters[i] */\n      dup2\n      mload\n      dup2\n      lt\n      tag_79\n      jumpi\n      tag_80\n      tag_69\n      jump\t// in\n    tag_80:\n    tag_79:\n      0x20\n      mul\n      0x20\n      add\n      add\n      mload\n        /* \"contracts/Voting.sol\":1413:1436  voters.push(_voters[i]) */\n      swap1\n      dup1\n      0x01\n      dup2\n      sload\n      add\n      dup1\n      dup3\n      sstore\n      dup1\n      swap2\n      pop\n      pop\n      0x01\n      swap1\n      sub\n      swap1\n      0x00\n      mstore\n      keccak256(0x00, 0x20)\n      swap1\n      0x02\n      mul\n      add\n      0x00\n      swap1\n      swap2\n      swap1\n      swap2\n      swap1\n      swap2\n      pop\n      0x00\n      dup3\n      add\n      mload\n      dup2\n      0x00\n      add\n      exp(0x0100, 0x00)\n      dup2\n      sload\n      dup2\n      0xffffffffffffffffffffffffffffffffffffffff\n      mul\n      not\n      and\n      swap1\n      dup4\n      0xffffffffffffffffffffffffffffffffffffffff\n      and\n      mul\n      or\n      swap1\n      sstore\n      pop\n      0x20\n      dup3\n      add\n      mload\n      dup2\n      0x00\n      add\n      exp(0x0100, 0x14)\n      dup2\n      sload\n      dup2\n      0xff\n      mul\n      not\n      and\n      swap1\n      dup4\n      iszero\n      iszero\n      mul\n      or\n      swap1\n      sstore\n      pop\n      0x40\n      dup3\n      add\n      mload\n      dup2\n      0x01\n      add\n      sstore\n      pop\n      pop\n        /* \"contracts/Voting.sol\":1393:1396  i++ */\n      dup1\n      dup1\n      tag_82\n      swap1\n      tag_74\n      jump\t// in\n    tag_82:\n      swap2\n      pop\n      pop\n        /* \"contracts/Voting.sol\":1356:1448  for (uint i = 0; i < _voters.length; i++) {\r... */\n      jump(tag_76)\n    tag_77:\n      pop\n        /* \"contracts/Voting.sol\":1295:1455  function addVoters(Voter[] memory _voters) public {\r... */\n      pop\n      jump\t// out\n        /* \"contracts/Voting.sol\":1647:1919  function containsVoterAddr(address addr) public returns (bool) {\r... */\n    tag_32:\n        /* \"contracts/Voting.sol\":1704:1708  bool */\n      0x00\n        /* \"contracts/Voting.sol\":1721:1730  bool flag */\n      dup1\n        /* \"contracts/Voting.sol\":1733:1738  false */\n      0x00\n        /* \"contracts/Voting.sol\":1721:1738  bool flag = false */\n      swap1\n      pop\n        /* \"contracts/Voting.sol\":1754:1760  uint i */\n      0x00\n        /* \"contracts/Voting.sol\":1749:1890  for (uint i = 0; i < voters.length; i++) {\r... */\n    tag_84:\n        /* \"contracts/Voting.sol\":1770:1776  voters */\n      0x04\n        /* \"contracts/Voting.sol\":1770:1783  voters.length */\n      dup1\n      sload\n      swap1\n      pop\n        /* \"contracts/Voting.sol\":1766:1767  i */\n      dup2\n        /* \"contracts/Voting.sol\":1766:1783  i < voters.length */\n      lt\n        /* \"contracts/Voting.sol\":1749:1890  for (uint i = 0; i < voters.length; i++) {\r... */\n      iszero\n      tag_85\n      jumpi\n        /* \"contracts/Voting.sol\":1817:1823  voters */\n      0x04\n        /* \"contracts/Voting.sol\":1824:1825  i */\n      dup2\n        /* \"contracts/Voting.sol\":1817:1826  voters[i] */\n      dup2\n      sload\n      dup2\n      lt\n      tag_87\n      jumpi\n      tag_88\n      tag_69\n      jump\t// in\n    tag_88:\n    tag_87:\n      swap1\n      0x00\n      mstore\n      keccak256(0x00, 0x20)\n      swap1\n      0x02\n      mul\n      add\n        /* \"contracts/Voting.sol\":1817:1831  voters[i].addr */\n      0x00\n      add\n      0x00\n      swap1\n      sload\n      swap1\n      0x0100\n      exp\n      swap1\n      div\n      0xffffffffffffffffffffffffffffffffffffffff\n      and\n        /* \"contracts/Voting.sol\":1809:1831  addr == voters[i].addr */\n      0xffffffffffffffffffffffffffffffffffffffff\n      and\n        /* \"contracts/Voting.sol\":1809:1813  addr */\n      dup5\n        /* \"contracts/Voting.sol\":1809:1831  addr == voters[i].addr */\n      0xffffffffffffffffffffffffffffffffffffffff\n      and\n      eq\n        /* \"contracts/Voting.sol\":1805:1879  if (addr == voters[i].addr) {\r... */\n      iszero\n      tag_90\n      jumpi\n        /* \"contracts/Voting.sol\":1859:1863  true */\n      0x01\n        /* \"contracts/Voting.sol\":1852:1863  flag = true */\n      swap2\n      pop\n        /* \"contracts/Voting.sol\":1805:1879  if (addr == voters[i].addr) {\r... */\n    tag_90:\n        /* \"contracts/Voting.sol\":1785:1788  i++ */\n      dup1\n      dup1\n      tag_91\n      swap1\n      tag_74\n      jump\t// in\n    tag_91:\n      swap2\n      pop\n      pop\n        /* \"contracts/Voting.sol\":1749:1890  for (uint i = 0; i < voters.length; i++) {\r... */\n      jump(tag_84)\n    tag_85:\n      pop\n        /* \"contracts/Voting.sol\":1907:1911  flag */\n      dup1\n        /* \"contracts/Voting.sol\":1900:1911  return flag */\n      swap2\n      pop\n      pop\n        /* \"contracts/Voting.sol\":1647:1919  function containsVoterAddr(address addr) public returns (bool) {\r... */\n      swap2\n      swap1\n      pop\n      jump\t// out\n        /* \"contracts/Voting.sol\":1927:2292  function authorize(address voterAddr) public {\r... */\n    tag_37:\n        /* \"contracts/Voting.sol\":2193:2221  containsVoterAddr(voterAddr) */\n      tag_93\n        /* \"contracts/Voting.sol\":2211:2220  voterAddr */\n      dup2\n        /* \"contracts/Voting.sol\":2193:2210  containsVoterAddr */\n      tag_32\n        /* \"contracts/Voting.sol\":2193:2221  containsVoterAddr(voterAddr) */\n      jump\t// in\n    tag_93:\n        /* \"contracts/Voting.sol\":2185:2246  require(containsVoterAddr(voterAddr), \"Voter doesn't exist.\") */\n      tag_94\n      jumpi\n      mload(0x40)\n      0x08c379a000000000000000000000000000000000000000000000000000000000\n      dup2\n      mstore\n      0x04\n      add\n      tag_95\n      swap1\n      tag_96\n      jump\t// in\n    tag_95:\n      mload(0x40)\n      dup1\n      swap2\n      sub\n      swap1\n      revert\n    tag_94:\n        /* \"contracts/Voting.sol\":2257:2284  giveTokenToVoter(voterAddr) */\n      tag_97\n        /* \"contracts/Voting.sol\":2274:2283  voterAddr */\n      dup2\n        /* \"contracts/Voting.sol\":2257:2273  giveTokenToVoter */\n      tag_44\n        /* \"contracts/Voting.sol\":2257:2284  giveTokenToVoter(voterAddr) */\n      jump\t// in\n    tag_97:\n        /* \"contracts/Voting.sol\":1927:2292  function authorize(address voterAddr) public {\r... */\n      pop\n      jump\t// out\n        /* \"contracts/Voting.sol\":652:669  uint public start */\n    tag_39:\n      sload(0x01)\n      dup2\n      jump\t// out\n        /* \"contracts/Voting.sol\":2300:2482  function giveTokenToVoter(address voterAddr) public {\r... */\n    tag_44:\n        /* \"contracts/Voting.sol\":2450:2455  token */\n      0x06\n      0x00\n      swap1\n      sload\n      swap1\n      0x0100\n      exp\n      swap1\n      div\n      0xffffffffffffffffffffffffffffffffffffffff\n      and\n        /* \"contracts/Voting.sol\":2450:2460  token.mint */\n      0xffffffffffffffffffffffffffffffffffffffff\n      and\n      0x40c10f19\n        /* \"contracts/Voting.sol\":2461:2470  voterAddr */\n      dup3\n        /* \"contracts/Voting.sol\":2472:2473  1 */\n      0x01\n        /* \"contracts/Voting.sol\":2450:2474  token.mint(voterAddr, 1) */\n      mload(0x40)\n      dup4\n      0xffffffff\n      and\n      0xe0\n      shl\n      dup2\n      mstore\n      0x04\n      add\n      tag_99\n      swap3\n      swap2\n      swap1\n      tag_100\n      jump\t// in\n    tag_99:\n      0x00\n      mload(0x40)\n      dup1\n      dup4\n      sub\n      dup2\n      0x00\n      dup8\n      dup1\n      extcodesize\n      iszero\n      dup1\n      iszero\n      tag_101\n      jumpi\n      0x00\n      dup1\n      revert\n    tag_101:\n      pop\n      gas\n      call\n      iszero\n      dup1\n      iszero\n      tag_103\n      jumpi\n      returndatasize\n      0x00\n      dup1\n      returndatacopy\n      revert(0x00, returndatasize)\n    tag_103:\n      pop\n      pop\n      pop\n      pop\n        /* \"contracts/Voting.sol\":2300:2482  function giveTokenToVoter(address voterAddr) public {\r... */\n      pop\n      jump\t// out\n        /* \"contracts/Voting.sol\":728:743  uint public end */\n    tag_46:\n      sload(0x02)\n      dup2\n      jump\t// out\n    tag_72:\n      dup3\n      dup1\n      sload\n      tag_104\n      swap1\n      tag_49\n      jump\t// in\n    tag_104:\n      swap1\n      0x00\n      mstore\n      keccak256(0x00, 0x20)\n      swap1\n      0x1f\n      add\n      0x20\n      swap1\n      div\n      dup2\n      add\n      swap3\n      dup3\n      tag_106\n      jumpi\n      0x00\n      dup6\n      sstore\n      jump(tag_105)\n    tag_106:\n      dup3\n      0x1f\n      lt\n      tag_107\n      jumpi\n      dup1\n      mload\n      not(0xff)\n      and\n      dup4\n      dup1\n      add\n      or\n      dup6\n      sstore\n      jump(tag_105)\n    tag_107:\n      dup3\n      dup1\n      add\n      0x01\n      add\n      dup6\n      sstore\n      dup3\n      iszero\n      tag_105\n      jumpi\n      swap2\n      dup3\n      add\n    tag_108:\n      dup3\n      dup2\n      gt\n      iszero\n      tag_109\n      jumpi\n      dup3\n      mload\n      dup3\n      sstore\n      swap2\n      0x20\n      add\n      swap2\n      swap1\n      0x01\n      add\n      swap1\n      jump(tag_108)\n    tag_109:\n    tag_105:\n      pop\n      swap1\n      pop\n      tag_110\n      swap2\n      swap1\n      tag_111\n      jump\t// in\n    tag_110:\n      pop\n      swap1\n      jump\t// out\n    tag_111:\n    tag_112:\n      dup1\n      dup3\n      gt\n      iszero\n      tag_113\n      jumpi\n      0x00\n      dup2\n      0x00\n      swap1\n      sstore\n      pop\n      0x01\n      add\n      jump(tag_112)\n    tag_113:\n      pop\n      swap1\n      jump\t// out\n        /* \"#utility.yul\":39:1041   */\n    tag_115:\n        /* \"#utility.yul\":160:165   */\n      0x00\n        /* \"#utility.yul\":185:291   */\n      tag_117\n        /* \"#utility.yul\":201:290   */\n      tag_118\n        /* \"#utility.yul\":283:289   */\n      dup5\n        /* \"#utility.yul\":201:290   */\n      tag_119\n      jump\t// in\n    tag_118:\n        /* \"#utility.yul\":185:291   */\n      tag_120\n      jump\t// in\n    tag_117:\n        /* \"#utility.yul\":176:291   */\n      swap1\n      pop\n        /* \"#utility.yul\":311:316   */\n      dup1\n        /* \"#utility.yul\":340:346   */\n      dup4\n        /* \"#utility.yul\":333:338   */\n      dup3\n        /* \"#utility.yul\":326:347   */\n      mstore\n        /* \"#utility.yul\":374:378   */\n      0x20\n        /* \"#utility.yul\":367:372   */\n      dup3\n        /* \"#utility.yul\":363:379   */\n      add\n        /* \"#utility.yul\":356:379   */\n      swap1\n      pop\n        /* \"#utility.yul\":400:406   */\n      dup3\n        /* \"#utility.yul\":450:453   */\n      dup6\n        /* \"#utility.yul\":442:446   */\n      0x20\n        /* \"#utility.yul\":434:440   */\n      dup7\n        /* \"#utility.yul\":430:447   */\n      mul\n        /* \"#utility.yul\":425:428   */\n      dup3\n        /* \"#utility.yul\":421:448   */\n      add\n        /* \"#utility.yul\":418:454   */\n      gt\n        /* \"#utility.yul\":415:558   */\n      iszero\n      tag_121\n      jumpi\n        /* \"#utility.yul\":469:548   */\n      tag_122\n      tag_123\n      jump\t// in\n    tag_122:\n        /* \"#utility.yul\":415:558   */\n    tag_121:\n        /* \"#utility.yul\":582:583   */\n      0x00\n        /* \"#utility.yul\":567:1035   */\n    tag_124:\n        /* \"#utility.yul\":592:598   */\n      dup6\n        /* \"#utility.yul\":589:590   */\n      dup2\n        /* \"#utility.yul\":586:599   */\n      lt\n        /* \"#utility.yul\":567:1035   */\n      iszero\n      tag_126\n      jumpi\n        /* \"#utility.yul\":674:677   */\n      dup2\n        /* \"#utility.yul\":661:678   */\n      calldataload\n        /* \"#utility.yul\":710:728   */\n      0xffffffffffffffff\n        /* \"#utility.yul\":697:708   */\n      dup2\n        /* \"#utility.yul\":694:729   */\n      gt\n        /* \"#utility.yul\":691:813   */\n      iszero\n      tag_127\n      jumpi\n        /* \"#utility.yul\":732:811   */\n      tag_128\n      tag_129\n      jump\t// in\n    tag_128:\n        /* \"#utility.yul\":691:813   */\n    tag_127:\n        /* \"#utility.yul\":856:867   */\n      dup1\n        /* \"#utility.yul\":848:854   */\n      dup7\n        /* \"#utility.yul\":844:868   */\n      add\n        /* \"#utility.yul\":894:956   */\n      tag_130\n        /* \"#utility.yul\":952:955   */\n      dup10\n        /* \"#utility.yul\":940:950   */\n      dup3\n        /* \"#utility.yul\":894:956   */\n      tag_131\n      jump\t// in\n    tag_130:\n        /* \"#utility.yul\":889:892   */\n      dup6\n        /* \"#utility.yul\":882:957   */\n      mstore\n        /* \"#utility.yul\":986:990   */\n      0x20\n        /* \"#utility.yul\":981:984   */\n      dup6\n        /* \"#utility.yul\":977:991   */\n      add\n        /* \"#utility.yul\":970:991   */\n      swap5\n      pop\n        /* \"#utility.yul\":1020:1024   */\n      0x20\n        /* \"#utility.yul\":1015:1018   */\n      dup5\n        /* \"#utility.yul\":1011:1025   */\n      add\n        /* \"#utility.yul\":1004:1025   */\n      swap4\n      pop\n        /* \"#utility.yul\":627:1035   */\n      pop\n      pop\n        /* \"#utility.yul\":614:615   */\n      0x01\n        /* \"#utility.yul\":611:612   */\n      dup2\n        /* \"#utility.yul\":607:616   */\n      add\n        /* \"#utility.yul\":602:616   */\n      swap1\n      pop\n        /* \"#utility.yul\":567:1035   */\n      jump(tag_124)\n    tag_126:\n        /* \"#utility.yul\":571:585   */\n      pop\n        /* \"#utility.yul\":166:1041   */\n      pop\n      pop\n        /* \"#utility.yul\":39:1041   */\n      swap4\n      swap3\n      pop\n      pop\n      pop\n      jump\t// out\n        /* \"#utility.yul\":1076:1864   */\n    tag_132:\n        /* \"#utility.yul\":1194:1199   */\n      0x00\n        /* \"#utility.yul\":1219:1322   */\n      tag_134\n        /* \"#utility.yul\":1235:1321   */\n      tag_135\n        /* \"#utility.yul\":1314:1320   */\n      dup5\n        /* \"#utility.yul\":1235:1321   */\n      tag_136\n      jump\t// in\n    tag_135:\n        /* \"#utility.yul\":1219:1322   */\n      tag_120\n      jump\t// in\n    tag_134:\n        /* \"#utility.yul\":1210:1322   */\n      swap1\n      pop\n        /* \"#utility.yul\":1342:1347   */\n      dup1\n        /* \"#utility.yul\":1371:1377   */\n      dup4\n        /* \"#utility.yul\":1364:1369   */\n      dup3\n        /* \"#utility.yul\":1357:1378   */\n      mstore\n        /* \"#utility.yul\":1405:1409   */\n      0x20\n        /* \"#utility.yul\":1398:1403   */\n      dup3\n        /* \"#utility.yul\":1394:1410   */\n      add\n        /* \"#utility.yul\":1387:1410   */\n      swap1\n      pop\n        /* \"#utility.yul\":1431:1437   */\n      dup3\n        /* \"#utility.yul\":1481:1484   */\n      dup6\n        /* \"#utility.yul\":1473:1477   */\n      0x60\n        /* \"#utility.yul\":1465:1471   */\n      dup7\n        /* \"#utility.yul\":1461:1478   */\n      mul\n        /* \"#utility.yul\":1456:1459   */\n      dup3\n        /* \"#utility.yul\":1452:1479   */\n      add\n        /* \"#utility.yul\":1449:1485   */\n      gt\n        /* \"#utility.yul\":1446:1589   */\n      iszero\n      tag_137\n      jumpi\n        /* \"#utility.yul\":1500:1579   */\n      tag_138\n      tag_123\n      jump\t// in\n    tag_138:\n        /* \"#utility.yul\":1446:1589   */\n    tag_137:\n        /* \"#utility.yul\":1613:1614   */\n      0x00\n        /* \"#utility.yul\":1598:1858   */\n    tag_139:\n        /* \"#utility.yul\":1623:1629   */\n      dup6\n        /* \"#utility.yul\":1620:1621   */\n      dup2\n        /* \"#utility.yul\":1617:1630   */\n      lt\n        /* \"#utility.yul\":1598:1858   */\n      iszero\n      tag_141\n      jumpi\n        /* \"#utility.yul\":1691:1694   */\n      dup2\n        /* \"#utility.yul\":1720:1779   */\n      tag_142\n        /* \"#utility.yul\":1775:1778   */\n      dup9\n        /* \"#utility.yul\":1763:1773   */\n      dup3\n        /* \"#utility.yul\":1720:1779   */\n      tag_143\n      jump\t// in\n    tag_142:\n        /* \"#utility.yul\":1715:1718   */\n      dup5\n        /* \"#utility.yul\":1708:1780   */\n      mstore\n        /* \"#utility.yul\":1809:1813   */\n      0x20\n        /* \"#utility.yul\":1804:1807   */\n      dup5\n        /* \"#utility.yul\":1800:1814   */\n      add\n        /* \"#utility.yul\":1793:1814   */\n      swap4\n      pop\n        /* \"#utility.yul\":1843:1847   */\n      0x60\n        /* \"#utility.yul\":1838:1841   */\n      dup4\n        /* \"#utility.yul\":1834:1848   */\n      add\n        /* \"#utility.yul\":1827:1848   */\n      swap3\n      pop\n        /* \"#utility.yul\":1658:1858   */\n      pop\n        /* \"#utility.yul\":1645:1646   */\n      0x01\n        /* \"#utility.yul\":1642:1643   */\n      dup2\n        /* \"#utility.yul\":1638:1647   */\n      add\n        /* \"#utility.yul\":1633:1647   */\n      swap1\n      pop\n        /* \"#utility.yul\":1598:1858   */\n      jump(tag_139)\n    tag_141:\n        /* \"#utility.yul\":1602:1616   */\n      pop\n        /* \"#utility.yul\":1200:1864   */\n      pop\n      pop\n        /* \"#utility.yul\":1076:1864   */\n      swap4\n      swap3\n      pop\n      pop\n      pop\n      jump\t// out\n        /* \"#utility.yul\":1870:2282   */\n    tag_144:\n        /* \"#utility.yul\":1948:1953   */\n      0x00\n        /* \"#utility.yul\":1973:2039   */\n      tag_146\n        /* \"#utility.yul\":1989:2038   */\n      tag_147\n        /* \"#utility.yul\":2031:2037   */\n      dup5\n        /* \"#utility.yul\":1989:2038   */\n      tag_148\n      jump\t// in\n    tag_147:\n        /* \"#utility.yul\":1973:2039   */\n      tag_120\n      jump\t// in\n    tag_146:\n        /* \"#utility.yul\":1964:2039   */\n      swap1\n      pop\n        /* \"#utility.yul\":2062:2068   */\n      dup3\n        /* \"#utility.yul\":2055:2060   */\n      dup2\n        /* \"#utility.yul\":2048:2069   */\n      mstore\n        /* \"#utility.yul\":2100:2104   */\n      0x20\n        /* \"#utility.yul\":2093:2098   */\n      dup2\n        /* \"#utility.yul\":2089:2105   */\n      add\n        /* \"#utility.yul\":2138:2141   */\n      dup5\n        /* \"#utility.yul\":2129:2135   */\n      dup5\n        /* \"#utility.yul\":2124:2127   */\n      dup5\n        /* \"#utility.yul\":2120:2136   */\n      add\n        /* \"#utility.yul\":2117:2142   */\n      gt\n        /* \"#utility.yul\":2114:2226   */\n      iszero\n      tag_149\n      jumpi\n        /* \"#utility.yul\":2145:2224   */\n      tag_150\n      tag_151\n      jump\t// in\n    tag_150:\n        /* \"#utility.yul\":2114:2226   */\n    tag_149:\n        /* \"#utility.yul\":2235:2276   */\n      tag_152\n        /* \"#utility.yul\":2269:2275   */\n      dup5\n        /* \"#utility.yul\":2264:2267   */\n      dup3\n        /* \"#utility.yul\":2259:2262   */\n      dup6\n        /* \"#utility.yul\":2235:2276   */\n      tag_153\n      jump\t// in\n    tag_152:\n        /* \"#utility.yul\":1954:2282   */\n      pop\n        /* \"#utility.yul\":1870:2282   */\n      swap4\n      swap3\n      pop\n      pop\n      pop\n      jump\t// out\n        /* \"#utility.yul\":2288:2427   */\n    tag_154:\n        /* \"#utility.yul\":2334:2339   */\n      0x00\n        /* \"#utility.yul\":2372:2378   */\n      dup2\n        /* \"#utility.yul\":2359:2379   */\n      calldataload\n        /* \"#utility.yul\":2350:2379   */\n      swap1\n      pop\n        /* \"#utility.yul\":2388:2421   */\n      tag_156\n        /* \"#utility.yul\":2415:2420   */\n      dup2\n        /* \"#utility.yul\":2388:2421   */\n      tag_157\n      jump\t// in\n    tag_156:\n        /* \"#utility.yul\":2288:2427   */\n      swap3\n      swap2\n      pop\n      pop\n      jump\t// out\n        /* \"#utility.yul\":2465:2885   */\n    tag_158:\n        /* \"#utility.yul\":2561:2566   */\n      0x00\n        /* \"#utility.yul\":2610:2613   */\n      dup3\n        /* \"#utility.yul\":2603:2607   */\n      0x1f\n        /* \"#utility.yul\":2595:2601   */\n      dup4\n        /* \"#utility.yul\":2591:2608   */\n      add\n        /* \"#utility.yul\":2587:2614   */\n      slt\n        /* \"#utility.yul\":2577:2699   */\n      tag_160\n      jumpi\n        /* \"#utility.yul\":2618:2697   */\n      tag_161\n      tag_129\n      jump\t// in\n    tag_161:\n        /* \"#utility.yul\":2577:2699   */\n    tag_160:\n        /* \"#utility.yul\":2735:2741   */\n      dup2\n        /* \"#utility.yul\":2722:2742   */\n      calldataload\n        /* \"#utility.yul\":2760:2879   */\n      tag_162\n        /* \"#utility.yul\":2875:2878   */\n      dup5\n        /* \"#utility.yul\":2867:2873   */\n      dup3\n        /* \"#utility.yul\":2860:2864   */\n      0x20\n        /* \"#utility.yul\":2852:2858   */\n      dup7\n        /* \"#utility.yul\":2848:2865   */\n      add\n        /* \"#utility.yul\":2760:2879   */\n      tag_115\n      jump\t// in\n    tag_162:\n        /* \"#utility.yul\":2751:2879   */\n      swap2\n      pop\n        /* \"#utility.yul\":2567:2885   */\n      pop\n        /* \"#utility.yul\":2465:2885   */\n      swap3\n      swap2\n      pop\n      pop\n      jump\t// out\n        /* \"#utility.yul\":2920:3334   */\n    tag_163:\n        /* \"#utility.yul\":3013:3018   */\n      0x00\n        /* \"#utility.yul\":3062:3065   */\n      dup3\n        /* \"#utility.yul\":3055:3059   */\n      0x1f\n        /* \"#utility.yul\":3047:3053   */\n      dup4\n        /* \"#utility.yul\":3043:3060   */\n      add\n        /* \"#utility.yul\":3039:3066   */\n      slt\n        /* \"#utility.yul\":3029:3151   */\n      tag_165\n      jumpi\n        /* \"#utility.yul\":3070:3149   */\n      tag_166\n      tag_129\n      jump\t// in\n    tag_166:\n        /* \"#utility.yul\":3029:3151   */\n    tag_165:\n        /* \"#utility.yul\":3187:3193   */\n      dup2\n        /* \"#utility.yul\":3174:3194   */\n      calldataload\n        /* \"#utility.yul\":3212:3328   */\n      tag_167\n        /* \"#utility.yul\":3324:3327   */\n      dup5\n        /* \"#utility.yul\":3316:3322   */\n      dup3\n        /* \"#utility.yul\":3309:3313   */\n      0x20\n        /* \"#utility.yul\":3301:3307   */\n      dup7\n        /* \"#utility.yul\":3297:3314   */\n      add\n        /* \"#utility.yul\":3212:3328   */\n      tag_132\n      jump\t// in\n    tag_167:\n        /* \"#utility.yul\":3203:3328   */\n      swap2\n      pop\n        /* \"#utility.yul\":3019:3334   */\n      pop\n        /* \"#utility.yul\":2920:3334   */\n      swap3\n      swap2\n      pop\n      pop\n      jump\t// out\n        /* \"#utility.yul\":3340:3473   */\n    tag_168:\n        /* \"#utility.yul\":3383:3388   */\n      0x00\n        /* \"#utility.yul\":3421:3427   */\n      dup2\n        /* \"#utility.yul\":3408:3428   */\n      calldataload\n        /* \"#utility.yul\":3399:3428   */\n      swap1\n      pop\n        /* \"#utility.yul\":3437:3467   */\n      tag_170\n        /* \"#utility.yul\":3461:3466   */\n      dup2\n        /* \"#utility.yul\":3437:3467   */\n      tag_171\n      jump\t// in\n    tag_170:\n        /* \"#utility.yul\":3340:3473   */\n      swap3\n      swap2\n      pop\n      pop\n      jump\t// out\n        /* \"#utility.yul\":3493:3833   */\n    tag_172:\n        /* \"#utility.yul\":3549:3554   */\n      0x00\n        /* \"#utility.yul\":3598:3601   */\n      dup3\n        /* \"#utility.yul\":3591:3595   */\n      0x1f\n        /* \"#utility.yul\":3583:3589   */\n      dup4\n        /* \"#utility.yul\":3579:3596   */\n      add\n        /* \"#utility.yul\":3575:3602   */\n      slt\n        /* \"#utility.yul\":3565:3687   */\n      tag_174\n      jumpi\n        /* \"#utility.yul\":3606:3685   */\n      tag_175\n      tag_129\n      jump\t// in\n    tag_175:\n        /* \"#utility.yul\":3565:3687   */\n    tag_174:\n        /* \"#utility.yul\":3723:3729   */\n      dup2\n        /* \"#utility.yul\":3710:3730   */\n      calldataload\n        /* \"#utility.yul\":3748:3827   */\n      tag_176\n        /* \"#utility.yul\":3823:3826   */\n      dup5\n        /* \"#utility.yul\":3815:3821   */\n      dup3\n        /* \"#utility.yul\":3808:3812   */\n      0x20\n        /* \"#utility.yul\":3800:3806   */\n      dup7\n        /* \"#utility.yul\":3796:3813   */\n      add\n        /* \"#utility.yul\":3748:3827   */\n      tag_144\n      jump\t// in\n    tag_176:\n        /* \"#utility.yul\":3739:3827   */\n      swap2\n      pop\n        /* \"#utility.yul\":3555:3833   */\n      pop\n        /* \"#utility.yul\":3493:3833   */\n      swap3\n      swap2\n      pop\n      pop\n      jump\t// out\n        /* \"#utility.yul\":3869:4613   */\n    tag_131:\n        /* \"#utility.yul\":3943:3948   */\n      0x00\n        /* \"#utility.yul\":3987:3991   */\n      0x40\n        /* \"#utility.yul\":3975:3984   */\n      dup3\n        /* \"#utility.yul\":3970:3973   */\n      dup5\n        /* \"#utility.yul\":3966:3985   */\n      sub\n        /* \"#utility.yul\":3962:3992   */\n      slt\n        /* \"#utility.yul\":3959:4076   */\n      iszero\n      tag_178\n      jumpi\n        /* \"#utility.yul\":3995:4074   */\n      tag_179\n      tag_180\n      jump\t// in\n    tag_179:\n        /* \"#utility.yul\":3959:4076   */\n    tag_178:\n        /* \"#utility.yul\":4094:4115   */\n      tag_181\n        /* \"#utility.yul\":4110:4114   */\n      0x40\n        /* \"#utility.yul\":4094:4115   */\n      tag_120\n      jump\t// in\n    tag_181:\n        /* \"#utility.yul\":4085:4115   */\n      swap1\n      pop\n        /* \"#utility.yul\":4174:4175   */\n      0x00\n        /* \"#utility.yul\":4214:4263   */\n      tag_182\n        /* \"#utility.yul\":4259:4262   */\n      dup5\n        /* \"#utility.yul\":4250:4256   */\n      dup3\n        /* \"#utility.yul\":4239:4248   */\n      dup6\n        /* \"#utility.yul\":4235:4257   */\n      add\n        /* \"#utility.yul\":4214:4263   */\n      tag_154\n      jump\t// in\n    tag_182:\n        /* \"#utility.yul\":4207:4211   */\n      0x00\n        /* \"#utility.yul\":4200:4205   */\n      dup4\n        /* \"#utility.yul\":4196:4212   */\n      add\n        /* \"#utility.yul\":4189:4264   */\n      mstore\n        /* \"#utility.yul\":4125:4275   */\n      pop\n        /* \"#utility.yul\":4362:4364   */\n      0x20\n        /* \"#utility.yul\":4351:4360   */\n      dup3\n        /* \"#utility.yul\":4347:4365   */\n      add\n        /* \"#utility.yul\":4334:4366   */\n      calldataload\n        /* \"#utility.yul\":4393:4411   */\n      0xffffffffffffffff\n        /* \"#utility.yul\":4385:4391   */\n      dup2\n        /* \"#utility.yul\":4382:4412   */\n      gt\n        /* \"#utility.yul\":4379:4496   */\n      iszero\n      tag_183\n      jumpi\n        /* \"#utility.yul\":4415:4494   */\n      tag_184\n      tag_185\n      jump\t// in\n    tag_184:\n        /* \"#utility.yul\":4379:4496   */\n    tag_183:\n        /* \"#utility.yul\":4535:4594   */\n      tag_186\n        /* \"#utility.yul\":4590:4593   */\n      dup5\n        /* \"#utility.yul\":4581:4587   */\n      dup3\n        /* \"#utility.yul\":4570:4579   */\n      dup6\n        /* \"#utility.yul\":4566:4588   */\n      add\n        /* \"#utility.yul\":4535:4594   */\n      tag_172\n      jump\t// in\n    tag_186:\n        /* \"#utility.yul\":4528:4532   */\n      0x20\n        /* \"#utility.yul\":4521:4526   */\n      dup4\n        /* \"#utility.yul\":4517:4533   */\n      add\n        /* \"#utility.yul\":4510:4595   */\n      mstore\n        /* \"#utility.yul\":4285:4606   */\n      pop\n        /* \"#utility.yul\":3869:4613   */\n      swap3\n      swap2\n      pop\n      pop\n      jump\t// out\n        /* \"#utility.yul\":4646:5376   */\n    tag_143:\n        /* \"#utility.yul\":4717:4722   */\n      0x00\n        /* \"#utility.yul\":4761:4765   */\n      0x60\n        /* \"#utility.yul\":4749:4758   */\n      dup3\n        /* \"#utility.yul\":4744:4747   */\n      dup5\n        /* \"#utility.yul\":4740:4759   */\n      sub\n        /* \"#utility.yul\":4736:4766   */\n      slt\n        /* \"#utility.yul\":4733:4850   */\n      iszero\n      tag_188\n      jumpi\n        /* \"#utility.yul\":4769:4848   */\n      tag_189\n      tag_180\n      jump\t// in\n    tag_189:\n        /* \"#utility.yul\":4733:4850   */\n    tag_188:\n        /* \"#utility.yul\":4868:4889   */\n      tag_190\n        /* \"#utility.yul\":4884:4888   */\n      0x60\n        /* \"#utility.yul\":4868:4889   */\n      tag_120\n      jump\t// in\n    tag_190:\n        /* \"#utility.yul\":4859:4889   */\n      swap1\n      pop\n        /* \"#utility.yul\":4948:4949   */\n      0x00\n        /* \"#utility.yul\":4988:5037   */\n      tag_191\n        /* \"#utility.yul\":5033:5036   */\n      dup5\n        /* \"#utility.yul\":5024:5030   */\n      dup3\n        /* \"#utility.yul\":5013:5022   */\n      dup6\n        /* \"#utility.yul\":5009:5031   */\n      add\n        /* \"#utility.yul\":4988:5037   */\n      tag_154\n      jump\t// in\n    tag_191:\n        /* \"#utility.yul\":4981:4985   */\n      0x00\n        /* \"#utility.yul\":4974:4979   */\n      dup4\n        /* \"#utility.yul\":4970:4986   */\n      add\n        /* \"#utility.yul\":4963:5038   */\n      mstore\n        /* \"#utility.yul\":4899:5049   */\n      pop\n        /* \"#utility.yul\":5109:5111   */\n      0x20\n        /* \"#utility.yul\":5150:5196   */\n      tag_192\n        /* \"#utility.yul\":5192:5195   */\n      dup5\n        /* \"#utility.yul\":5183:5189   */\n      dup3\n        /* \"#utility.yul\":5172:5181   */\n      dup6\n        /* \"#utility.yul\":5168:5190   */\n      add\n        /* \"#utility.yul\":5150:5196   */\n      tag_168\n      jump\t// in\n    tag_192:\n        /* \"#utility.yul\":5143:5147   */\n      0x20\n        /* \"#utility.yul\":5136:5141   */\n      dup4\n        /* \"#utility.yul\":5132:5148   */\n      add\n        /* \"#utility.yul\":5125:5197   */\n      mstore\n        /* \"#utility.yul\":5059:5208   */\n      pop\n        /* \"#utility.yul\":5267:5269   */\n      0x40\n        /* \"#utility.yul\":5308:5357   */\n      tag_193\n        /* \"#utility.yul\":5353:5356   */\n      dup5\n        /* \"#utility.yul\":5344:5350   */\n      dup3\n        /* \"#utility.yul\":5333:5342   */\n      dup6\n        /* \"#utility.yul\":5329:5351   */\n      add\n        /* \"#utility.yul\":5308:5357   */\n      tag_194\n      jump\t// in\n    tag_193:\n        /* \"#utility.yul\":5301:5305   */\n      0x40\n        /* \"#utility.yul\":5294:5299   */\n      dup4\n        /* \"#utility.yul\":5290:5306   */\n      add\n        /* \"#utility.yul\":5283:5358   */\n      mstore\n        /* \"#utility.yul\":5218:5369   */\n      pop\n        /* \"#utility.yul\":4646:5376   */\n      swap3\n      swap2\n      pop\n      pop\n      jump\t// out\n        /* \"#utility.yul\":5382:5521   */\n    tag_194:\n        /* \"#utility.yul\":5428:5433   */\n      0x00\n        /* \"#utility.yul\":5466:5472   */\n      dup2\n        /* \"#utility.yul\":5453:5473   */\n      calldataload\n        /* \"#utility.yul\":5444:5473   */\n      swap1\n      pop\n        /* \"#utility.yul\":5482:5515   */\n      tag_196\n        /* \"#utility.yul\":5509:5514   */\n      dup2\n        /* \"#utility.yul\":5482:5515   */\n      tag_197\n      jump\t// in\n    tag_196:\n        /* \"#utility.yul\":5382:5521   */\n      swap3\n      swap2\n      pop\n      pop\n      jump\t// out\n        /* \"#utility.yul\":5527:5856   */\n    tag_31:\n        /* \"#utility.yul\":5586:5592   */\n      0x00\n        /* \"#utility.yul\":5635:5637   */\n      0x20\n        /* \"#utility.yul\":5623:5632   */\n      dup3\n        /* \"#utility.yul\":5614:5621   */\n      dup5\n        /* \"#utility.yul\":5610:5633   */\n      sub\n        /* \"#utility.yul\":5606:5638   */\n      slt\n        /* \"#utility.yul\":5603:5722   */\n      iszero\n      tag_199\n      jumpi\n        /* \"#utility.yul\":5641:5720   */\n      tag_200\n      tag_201\n      jump\t// in\n    tag_200:\n        /* \"#utility.yul\":5603:5722   */\n    tag_199:\n        /* \"#utility.yul\":5761:5762   */\n      0x00\n        /* \"#utility.yul\":5786:5839   */\n      tag_202\n        /* \"#utility.yul\":5831:5838   */\n      dup5\n        /* \"#utility.yul\":5822:5828   */\n      dup3\n        /* \"#utility.yul\":5811:5820   */\n      dup6\n        /* \"#utility.yul\":5807:5829   */\n      add\n        /* \"#utility.yul\":5786:5839   */\n      tag_154\n      jump\t// in\n    tag_202:\n        /* \"#utility.yul\":5776:5839   */\n      swap2\n      pop\n        /* \"#utility.yul\":5732:5849   */\n      pop\n        /* \"#utility.yul\":5527:5856   */\n      swap3\n      swap2\n      pop\n      pop\n      jump\t// out\n        /* \"#utility.yul\":5862:6451   */\n    tag_23:\n        /* \"#utility.yul\":5971:5977   */\n      0x00\n        /* \"#utility.yul\":6020:6022   */\n      0x20\n        /* \"#utility.yul\":6008:6017   */\n      dup3\n        /* \"#utility.yul\":5999:6006   */\n      dup5\n        /* \"#utility.yul\":5995:6018   */\n      sub\n        /* \"#utility.yul\":5991:6023   */\n      slt\n        /* \"#utility.yul\":5988:6107   */\n      iszero\n      tag_204\n      jumpi\n        /* \"#utility.yul\":6026:6105   */\n      tag_205\n      tag_201\n      jump\t// in\n    tag_205:\n        /* \"#utility.yul\":5988:6107   */\n    tag_204:\n        /* \"#utility.yul\":6174:6175   */\n      0x00\n        /* \"#utility.yul\":6163:6172   */\n      dup3\n        /* \"#utility.yul\":6159:6176   */\n      add\n        /* \"#utility.yul\":6146:6177   */\n      calldataload\n        /* \"#utility.yul\":6204:6222   */\n      0xffffffffffffffff\n        /* \"#utility.yul\":6196:6202   */\n      dup2\n        /* \"#utility.yul\":6193:6223   */\n      gt\n        /* \"#utility.yul\":6190:6307   */\n      iszero\n      tag_206\n      jumpi\n        /* \"#utility.yul\":6226:6305   */\n      tag_207\n      tag_208\n      jump\t// in\n    tag_207:\n        /* \"#utility.yul\":6190:6307   */\n    tag_206:\n        /* \"#utility.yul\":6331:6434   */\n      tag_209\n        /* \"#utility.yul\":6426:6433   */\n      dup5\n        /* \"#utility.yul\":6417:6423   */\n      dup3\n        /* \"#utility.yul\":6406:6415   */\n      dup6\n        /* \"#utility.yul\":6402:6424   */\n      add\n        /* \"#utility.yul\":6331:6434   */\n      tag_158\n      jump\t// in\n    tag_209:\n        /* \"#utility.yul\":6321:6434   */\n      swap2\n      pop\n        /* \"#utility.yul\":6117:6444   */\n      pop\n        /* \"#utility.yul\":5862:6451   */\n      swap3\n      swap2\n      pop\n      pop\n      jump\t// out\n        /* \"#utility.yul\":6457:7040   */\n    tag_27:\n        /* \"#utility.yul\":6563:6569   */\n      0x00\n        /* \"#utility.yul\":6612:6614   */\n      0x20\n        /* \"#utility.yul\":6600:6609   */\n      dup3\n        /* \"#utility.yul\":6591:6598   */\n      dup5\n        /* \"#utility.yul\":6587:6610   */\n      sub\n        /* \"#utility.yul\":6583:6615   */\n      slt\n        /* \"#utility.yul\":6580:6699   */\n      iszero\n      tag_211\n      jumpi\n        /* \"#utility.yul\":6618:6697   */\n      tag_212\n      tag_201\n      jump\t// in\n    tag_212:\n        /* \"#utility.yul\":6580:6699   */\n    tag_211:\n        /* \"#utility.yul\":6766:6767   */\n      0x00\n        /* \"#utility.yul\":6755:6764   */\n      dup3\n        /* \"#utility.yul\":6751:6768   */\n      add\n        /* \"#utility.yul\":6738:6769   */\n      calldataload\n        /* \"#utility.yul\":6796:6814   */\n      0xffffffffffffffff\n        /* \"#utility.yul\":6788:6794   */\n      dup2\n        /* \"#utility.yul\":6785:6815   */\n      gt\n        /* \"#utility.yul\":6782:6899   */\n      iszero\n      tag_213\n      jumpi\n        /* \"#utility.yul\":6818:6897   */\n      tag_214\n      tag_208\n      jump\t// in\n    tag_214:\n        /* \"#utility.yul\":6782:6899   */\n    tag_213:\n        /* \"#utility.yul\":6923:7023   */\n      tag_215\n        /* \"#utility.yul\":7015:7022   */\n      dup5\n        /* \"#utility.yul\":7006:7012   */\n      dup3\n        /* \"#utility.yul\":6995:7004   */\n      dup6\n        /* \"#utility.yul\":6991:7013   */\n      add\n        /* \"#utility.yul\":6923:7023   */\n      tag_163\n      jump\t// in\n    tag_215:\n        /* \"#utility.yul\":6913:7023   */\n      swap2\n      pop\n        /* \"#utility.yul\":6709:7033   */\n      pop\n        /* \"#utility.yul\":6457:7040   */\n      swap3\n      swap2\n      pop\n      pop\n      jump\t// out\n        /* \"#utility.yul\":7046:7775   */\n    tag_19:\n        /* \"#utility.yul\":7161:7167   */\n      0x00\n        /* \"#utility.yul\":7169:7175   */\n      dup1\n        /* \"#utility.yul\":7218:7221   */\n      0x80\n        /* \"#utility.yul\":7206:7215   */\n      dup4\n        /* \"#utility.yul\":7197:7204   */\n      dup6\n        /* \"#utility.yul\":7193:7216   */\n      sub\n        /* \"#utility.yul\":7189:7222   */\n      slt\n        /* \"#utility.yul\":7186:7306   */\n      iszero\n      tag_217\n      jumpi\n        /* \"#utility.yul\":7225:7304   */\n      tag_218\n      tag_201\n      jump\t// in\n    tag_218:\n        /* \"#utility.yul\":7186:7306   */\n    tag_217:\n        /* \"#utility.yul\":7345:7346   */\n      0x00\n        /* \"#utility.yul\":7370:7445   */\n      tag_219\n        /* \"#utility.yul\":7437:7444   */\n      dup6\n        /* \"#utility.yul\":7428:7434   */\n      dup3\n        /* \"#utility.yul\":7417:7426   */\n      dup7\n        /* \"#utility.yul\":7413:7435   */\n      add\n        /* \"#utility.yul\":7370:7445   */\n      tag_143\n      jump\t// in\n    tag_219:\n        /* \"#utility.yul\":7360:7445   */\n      swap3\n      pop\n        /* \"#utility.yul\":7316:7455   */\n      pop\n        /* \"#utility.yul\":7522:7524   */\n      0x60\n        /* \"#utility.yul\":7511:7520   */\n      dup4\n        /* \"#utility.yul\":7507:7525   */\n      add\n        /* \"#utility.yul\":7494:7526   */\n      calldataload\n        /* \"#utility.yul\":7553:7571   */\n      0xffffffffffffffff\n        /* \"#utility.yul\":7545:7551   */\n      dup2\n        /* \"#utility.yul\":7542:7572   */\n      gt\n        /* \"#utility.yul\":7539:7656   */\n      iszero\n      tag_220\n      jumpi\n        /* \"#utility.yul\":7575:7654   */\n      tag_221\n      tag_208\n      jump\t// in\n    tag_221:\n        /* \"#utility.yul\":7539:7656   */\n    tag_220:\n        /* \"#utility.yul\":7680:7758   */\n      tag_222\n        /* \"#utility.yul\":7750:7757   */\n      dup6\n        /* \"#utility.yul\":7741:7747   */\n      dup3\n        /* \"#utility.yul\":7730:7739   */\n      dup7\n        /* \"#utility.yul\":7726:7748   */\n      add\n        /* \"#utility.yul\":7680:7758   */\n      tag_131\n      jump\t// in\n    tag_222:\n        /* \"#utility.yul\":7670:7758   */\n      swap2\n      pop\n        /* \"#utility.yul\":7465:7768   */\n      pop\n        /* \"#utility.yul\":7046:7775   */\n      swap3\n      pop\n      swap3\n      swap1\n      pop\n      jump\t// out\n        /* \"#utility.yul\":7781:7899   */\n    tag_223:\n        /* \"#utility.yul\":7868:7892   */\n      tag_225\n        /* \"#utility.yul\":7886:7891   */\n      dup2\n        /* \"#utility.yul\":7868:7892   */\n      tag_226\n      jump\t// in\n    tag_225:\n        /* \"#utility.yul\":7863:7866   */\n      dup3\n        /* \"#utility.yul\":7856:7893   */\n      mstore\n        /* \"#utility.yul\":7781:7899   */\n      pop\n      pop\n      jump\t// out\n        /* \"#utility.yul\":7905:8014   */\n    tag_227:\n        /* \"#utility.yul\":7986:8007   */\n      tag_229\n        /* \"#utility.yul\":8001:8006   */\n      dup2\n        /* \"#utility.yul\":7986:8007   */\n      tag_230\n      jump\t// in\n    tag_229:\n        /* \"#utility.yul\":7981:7984   */\n      dup3\n        /* \"#utility.yul\":7974:8008   */\n      mstore\n        /* \"#utility.yul\":7905:8014   */\n      pop\n      pop\n      jump\t// out\n        /* \"#utility.yul\":8020:8167   */\n    tag_231:\n        /* \"#utility.yul\":8115:8160   */\n      tag_233\n        /* \"#utility.yul\":8154:8159   */\n      dup2\n        /* \"#utility.yul\":8115:8160   */\n      tag_234\n      jump\t// in\n    tag_233:\n        /* \"#utility.yul\":8110:8113   */\n      dup3\n        /* \"#utility.yul\":8103:8161   */\n      mstore\n        /* \"#utility.yul\":8020:8167   */\n      pop\n      pop\n      jump\t// out\n        /* \"#utility.yul\":8173:8537   */\n    tag_235:\n        /* \"#utility.yul\":8261:8264   */\n      0x00\n        /* \"#utility.yul\":8289:8328   */\n      tag_237\n        /* \"#utility.yul\":8322:8327   */\n      dup3\n        /* \"#utility.yul\":8289:8328   */\n      tag_238\n      jump\t// in\n    tag_237:\n        /* \"#utility.yul\":8344:8415   */\n      tag_239\n        /* \"#utility.yul\":8408:8414   */\n      dup2\n        /* \"#utility.yul\":8403:8406   */\n      dup6\n        /* \"#utility.yul\":8344:8415   */\n      tag_240\n      jump\t// in\n    tag_239:\n        /* \"#utility.yul\":8337:8415   */\n      swap4\n      pop\n        /* \"#utility.yul\":8424:8476   */\n      tag_241\n        /* \"#utility.yul\":8469:8475   */\n      dup2\n        /* \"#utility.yul\":8464:8467   */\n      dup6\n        /* \"#utility.yul\":8457:8461   */\n      0x20\n        /* \"#utility.yul\":8450:8455   */\n      dup7\n        /* \"#utility.yul\":8446:8462   */\n      add\n        /* \"#utility.yul\":8424:8476   */\n      tag_242\n      jump\t// in\n    tag_241:\n        /* \"#utility.yul\":8501:8530   */\n      tag_243\n        /* \"#utility.yul\":8523:8529   */\n      dup2\n        /* \"#utility.yul\":8501:8530   */\n      tag_244\n      jump\t// in\n    tag_243:\n        /* \"#utility.yul\":8496:8499   */\n      dup5\n        /* \"#utility.yul\":8492:8531   */\n      add\n        /* \"#utility.yul\":8485:8531   */\n      swap2\n      pop\n        /* \"#utility.yul\":8265:8537   */\n      pop\n        /* \"#utility.yul\":8173:8537   */\n      swap3\n      swap2\n      pop\n      pop\n      jump\t// out\n        /* \"#utility.yul\":8543:8909   */\n    tag_245:\n        /* \"#utility.yul\":8685:8688   */\n      0x00\n        /* \"#utility.yul\":8706:8773   */\n      tag_247\n        /* \"#utility.yul\":8770:8772   */\n      0x0e\n        /* \"#utility.yul\":8765:8768   */\n      dup4\n        /* \"#utility.yul\":8706:8773   */\n      tag_240\n      jump\t// in\n    tag_247:\n        /* \"#utility.yul\":8699:8773   */\n      swap2\n      pop\n        /* \"#utility.yul\":8782:8875   */\n      tag_248\n        /* \"#utility.yul\":8871:8874   */\n      dup3\n        /* \"#utility.yul\":8782:8875   */\n      tag_249\n      jump\t// in\n    tag_248:\n        /* \"#utility.yul\":8900:8902   */\n      0x20\n        /* \"#utility.yul\":8895:8898   */\n      dup3\n        /* \"#utility.yul\":8891:8903   */\n      add\n        /* \"#utility.yul\":8884:8903   */\n      swap1\n      pop\n        /* \"#utility.yul\":8543:8909   */\n      swap2\n      swap1\n      pop\n      jump\t// out\n        /* \"#utility.yul\":8915:9281   */\n    tag_250:\n        /* \"#utility.yul\":9057:9060   */\n      0x00\n        /* \"#utility.yul\":9078:9145   */\n      tag_252\n        /* \"#utility.yul\":9142:9144   */\n      0x14\n        /* \"#utility.yul\":9137:9140   */\n      dup4\n        /* \"#utility.yul\":9078:9145   */\n      tag_240\n      jump\t// in\n    tag_252:\n        /* \"#utility.yul\":9071:9145   */\n      swap2\n      pop\n        /* \"#utility.yul\":9154:9247   */\n      tag_253\n        /* \"#utility.yul\":9243:9246   */\n      dup3\n        /* \"#utility.yul\":9154:9247   */\n      tag_254\n      jump\t// in\n    tag_253:\n        /* \"#utility.yul\":9272:9274   */\n      0x20\n        /* \"#utility.yul\":9267:9270   */\n      dup3\n        /* \"#utility.yul\":9263:9275   */\n      add\n        /* \"#utility.yul\":9256:9275   */\n      swap1\n      pop\n        /* \"#utility.yul\":8915:9281   */\n      swap2\n      swap1\n      pop\n      jump\t// out\n        /* \"#utility.yul\":9287:9405   */\n    tag_255:\n        /* \"#utility.yul\":9374:9398   */\n      tag_257\n        /* \"#utility.yul\":9392:9397   */\n      dup2\n        /* \"#utility.yul\":9374:9398   */\n      tag_258\n      jump\t// in\n    tag_257:\n        /* \"#utility.yul\":9369:9372   */\n      dup3\n        /* \"#utility.yul\":9362:9399   */\n      mstore\n        /* \"#utility.yul\":9287:9405   */\n      pop\n      pop\n      jump\t// out\n        /* \"#utility.yul\":9411:9869   */\n    tag_59:\n        /* \"#utility.yul\":9568:9572   */\n      0x00\n        /* \"#utility.yul\":9606:9608   */\n      0x60\n        /* \"#utility.yul\":9595:9604   */\n      dup3\n        /* \"#utility.yul\":9591:9609   */\n      add\n        /* \"#utility.yul\":9583:9609   */\n      swap1\n      pop\n        /* \"#utility.yul\":9619:9690   */\n      tag_260\n        /* \"#utility.yul\":9687:9688   */\n      0x00\n        /* \"#utility.yul\":9676:9685   */\n      dup4\n        /* \"#utility.yul\":9672:9689   */\n      add\n        /* \"#utility.yul\":9663:9669   */\n      dup7\n        /* \"#utility.yul\":9619:9690   */\n      tag_223\n      jump\t// in\n    tag_260:\n        /* \"#utility.yul\":9700:9772   */\n      tag_261\n        /* \"#utility.yul\":9768:9770   */\n      0x20\n        /* \"#utility.yul\":9757:9766   */\n      dup4\n        /* \"#utility.yul\":9753:9771   */\n      add\n        /* \"#utility.yul\":9744:9750   */\n      dup6\n        /* \"#utility.yul\":9700:9772   */\n      tag_223\n      jump\t// in\n    tag_261:\n        /* \"#utility.yul\":9782:9862   */\n      tag_262\n        /* \"#utility.yul\":9858:9860   */\n      0x40\n        /* \"#utility.yul\":9847:9856   */\n      dup4\n        /* \"#utility.yul\":9843:9861   */\n      add\n        /* \"#utility.yul\":9834:9840   */\n      dup5\n        /* \"#utility.yul\":9782:9862   */\n      tag_231\n      jump\t// in\n    tag_262:\n        /* \"#utility.yul\":9411:9869   */\n      swap5\n      swap4\n      pop\n      pop\n      pop\n      pop\n      jump\t// out\n        /* \"#utility.yul\":9875:10223   */\n    tag_100:\n        /* \"#utility.yul\":10004:10008   */\n      0x00\n        /* \"#utility.yul\":10042:10044   */\n      0x40\n        /* \"#utility.yul\":10031:10040   */\n      dup3\n        /* \"#utility.yul\":10027:10045   */\n      add\n        /* \"#utility.yul\":10019:10045   */\n      swap1\n      pop\n        /* \"#utility.yul\":10055:10126   */\n      tag_264\n        /* \"#utility.yul\":10123:10124   */\n      0x00\n        /* \"#utility.yul\":10112:10121   */\n      dup4\n        /* \"#utility.yul\":10108:10125   */\n      add\n        /* \"#utility.yul\":10099:10105   */\n      dup6\n        /* \"#utility.yul\":10055:10126   */\n      tag_223\n      jump\t// in\n    tag_264:\n        /* \"#utility.yul\":10136:10216   */\n      tag_265\n        /* \"#utility.yul\":10212:10214   */\n      0x20\n        /* \"#utility.yul\":10201:10210   */\n      dup4\n        /* \"#utility.yul\":10197:10215   */\n      add\n        /* \"#utility.yul\":10188:10194   */\n      dup5\n        /* \"#utility.yul\":10136:10216   */\n      tag_231\n      jump\t// in\n    tag_265:\n        /* \"#utility.yul\":9875:10223   */\n      swap4\n      swap3\n      pop\n      pop\n      pop\n      jump\t// out\n        /* \"#utility.yul\":10229:10439   */\n    tag_34:\n        /* \"#utility.yul\":10316:10320   */\n      0x00\n        /* \"#utility.yul\":10354:10356   */\n      0x20\n        /* \"#utility.yul\":10343:10352   */\n      dup3\n        /* \"#utility.yul\":10339:10357   */\n      add\n        /* \"#utility.yul\":10331:10357   */\n      swap1\n      pop\n        /* \"#utility.yul\":10367:10432   */\n      tag_267\n        /* \"#utility.yul\":10429:10430   */\n      0x00\n        /* \"#utility.yul\":10418:10427   */\n      dup4\n        /* \"#utility.yul\":10414:10431   */\n      add\n        /* \"#utility.yul\":10405:10411   */\n      dup5\n        /* \"#utility.yul\":10367:10432   */\n      tag_227\n      jump\t// in\n    tag_267:\n        /* \"#utility.yul\":10229:10439   */\n      swap3\n      swap2\n      pop\n      pop\n      jump\t// out\n        /* \"#utility.yul\":10445:10758   */\n    tag_16:\n        /* \"#utility.yul\":10558:10562   */\n      0x00\n        /* \"#utility.yul\":10596:10598   */\n      0x20\n        /* \"#utility.yul\":10585:10594   */\n      dup3\n        /* \"#utility.yul\":10581:10599   */\n      add\n        /* \"#utility.yul\":10573:10599   */\n      swap1\n      pop\n        /* \"#utility.yul\":10645:10654   */\n      dup2\n        /* \"#utility.yul\":10639:10643   */\n      dup2\n        /* \"#utility.yul\":10635:10655   */\n      sub\n        /* \"#utility.yul\":10631:10632   */\n      0x00\n        /* \"#utility.yul\":10620:10629   */\n      dup4\n        /* \"#utility.yul\":10616:10633   */\n      add\n        /* \"#utility.yul\":10609:10656   */\n      mstore\n        /* \"#utility.yul\":10673:10751   */\n      tag_269\n        /* \"#utility.yul\":10746:10750   */\n      dup2\n        /* \"#utility.yul\":10737:10743   */\n      dup5\n        /* \"#utility.yul\":10673:10751   */\n      tag_235\n      jump\t// in\n    tag_269:\n        /* \"#utility.yul\":10665:10751   */\n      swap1\n      pop\n        /* \"#utility.yul\":10445:10758   */\n      swap3\n      swap2\n      pop\n      pop\n      jump\t// out\n        /* \"#utility.yul\":10764:11183   */\n    tag_57:\n        /* \"#utility.yul\":10930:10934   */\n      0x00\n        /* \"#utility.yul\":10968:10970   */\n      0x20\n        /* \"#utility.yul\":10957:10966   */\n      dup3\n        /* \"#utility.yul\":10953:10971   */\n      add\n        /* \"#utility.yul\":10945:10971   */\n      swap1\n      pop\n        /* \"#utility.yul\":11017:11026   */\n      dup2\n        /* \"#utility.yul\":11011:11015   */\n      dup2\n        /* \"#utility.yul\":11007:11027   */\n      sub\n        /* \"#utility.yul\":11003:11004   */\n      0x00\n        /* \"#utility.yul\":10992:11001   */\n      dup4\n        /* \"#utility.yul\":10988:11005   */\n      add\n        /* \"#utility.yul\":10981:11028   */\n      mstore\n        /* \"#utility.yul\":11045:11176   */\n      tag_271\n        /* \"#utility.yul\":11171:11175   */\n      dup2\n        /* \"#utility.yul\":11045:11176   */\n      tag_245\n      jump\t// in\n    tag_271:\n        /* \"#utility.yul\":11037:11176   */\n      swap1\n      pop\n        /* \"#utility.yul\":10764:11183   */\n      swap2\n      swap1\n      pop\n      jump\t// out\n        /* \"#utility.yul\":11189:11608   */\n    tag_96:\n        /* \"#utility.yul\":11355:11359   */\n      0x00\n        /* \"#utility.yul\":11393:11395   */\n      0x20\n        /* \"#utility.yul\":11382:11391   */\n      dup3\n        /* \"#utility.yul\":11378:11396   */\n      add\n        /* \"#utility.yul\":11370:11396   */\n      swap1\n      pop\n        /* \"#utility.yul\":11442:11451   */\n      dup2\n        /* \"#utility.yul\":11436:11440   */\n      dup2\n        /* \"#utility.yul\":11432:11452   */\n      sub\n        /* \"#utility.yul\":11428:11429   */\n      0x00\n        /* \"#utility.yul\":11417:11426   */\n      dup4\n        /* \"#utility.yul\":11413:11430   */\n      add\n        /* \"#utility.yul\":11406:11453   */\n      mstore\n        /* \"#utility.yul\":11470:11601   */\n      tag_273\n        /* \"#utility.yul\":11596:11600   */\n      dup2\n        /* \"#utility.yul\":11470:11601   */\n      tag_250\n      jump\t// in\n    tag_273:\n        /* \"#utility.yul\":11462:11601   */\n      swap1\n      pop\n        /* \"#utility.yul\":11189:11608   */\n      swap2\n      swap1\n      pop\n      jump\t// out\n        /* \"#utility.yul\":11614:11836   */\n    tag_41:\n        /* \"#utility.yul\":11707:11711   */\n      0x00\n        /* \"#utility.yul\":11745:11747   */\n      0x20\n        /* \"#utility.yul\":11734:11743   */\n      dup3\n        /* \"#utility.yul\":11730:11748   */\n      add\n        /* \"#utility.yul\":11722:11748   */\n      swap1\n      pop\n        /* \"#utility.yul\":11758:11829   */\n      tag_275\n        /* \"#utility.yul\":11826:11827   */\n      0x00\n        /* \"#utility.yul\":11815:11824   */\n      dup4\n        /* \"#utility.yul\":11811:11828   */\n      add\n        /* \"#utility.yul\":11802:11808   */\n      dup5\n        /* \"#utility.yul\":11758:11829   */\n      tag_255\n      jump\t// in\n    tag_275:\n        /* \"#utility.yul\":11614:11836   */\n      swap3\n      swap2\n      pop\n      pop\n      jump\t// out\n        /* \"#utility.yul\":11842:11971   */\n    tag_120:\n        /* \"#utility.yul\":11876:11882   */\n      0x00\n        /* \"#utility.yul\":11903:11923   */\n      tag_277\n      tag_278\n      jump\t// in\n    tag_277:\n        /* \"#utility.yul\":11893:11923   */\n      swap1\n      pop\n        /* \"#utility.yul\":11932:11965   */\n      tag_279\n        /* \"#utility.yul\":11960:11964   */\n      dup3\n        /* \"#utility.yul\":11952:11958   */\n      dup3\n        /* \"#utility.yul\":11932:11965   */\n      tag_280\n      jump\t// in\n    tag_279:\n        /* \"#utility.yul\":11842:11971   */\n      swap2\n      swap1\n      pop\n      jump\t// out\n        /* \"#utility.yul\":11977:12052   */\n    tag_278:\n        /* \"#utility.yul\":12010:12016   */\n      0x00\n        /* \"#utility.yul\":12043:12045   */\n      0x40\n        /* \"#utility.yul\":12037:12046   */\n      mload\n        /* \"#utility.yul\":12027:12046   */\n      swap1\n      pop\n        /* \"#utility.yul\":11977:12052   */\n      swap1\n      jump\t// out\n        /* \"#utility.yul\":12058:12394   */\n    tag_119:\n        /* \"#utility.yul\":12160:12164   */\n      0x00\n        /* \"#utility.yul\":12250:12268   */\n      0xffffffffffffffff\n        /* \"#utility.yul\":12242:12248   */\n      dup3\n        /* \"#utility.yul\":12239:12269   */\n      gt\n        /* \"#utility.yul\":12236:12292   */\n      iszero\n      tag_283\n      jumpi\n        /* \"#utility.yul\":12272:12290   */\n      tag_284\n      tag_285\n      jump\t// in\n    tag_284:\n        /* \"#utility.yul\":12236:12292   */\n    tag_283:\n        /* \"#utility.yul\":12322:12326   */\n      0x20\n        /* \"#utility.yul\":12314:12320   */\n      dup3\n        /* \"#utility.yul\":12310:12327   */\n      mul\n        /* \"#utility.yul\":12302:12327   */\n      swap1\n      pop\n        /* \"#utility.yul\":12382:12386   */\n      0x20\n        /* \"#utility.yul\":12376:12380   */\n      dup2\n        /* \"#utility.yul\":12372:12387   */\n      add\n        /* \"#utility.yul\":12364:12387   */\n      swap1\n      pop\n        /* \"#utility.yul\":12058:12394   */\n      swap2\n      swap1\n      pop\n      jump\t// out\n        /* \"#utility.yul\":12400:12733   */\n    tag_136:\n        /* \"#utility.yul\":12499:12503   */\n      0x00\n        /* \"#utility.yul\":12589:12607   */\n      0xffffffffffffffff\n        /* \"#utility.yul\":12581:12587   */\n      dup3\n        /* \"#utility.yul\":12578:12608   */\n      gt\n        /* \"#utility.yul\":12575:12631   */\n      iszero\n      tag_287\n      jumpi\n        /* \"#utility.yul\":12611:12629   */\n      tag_288\n      tag_285\n      jump\t// in\n    tag_288:\n        /* \"#utility.yul\":12575:12631   */\n    tag_287:\n        /* \"#utility.yul\":12661:12665   */\n      0x20\n        /* \"#utility.yul\":12653:12659   */\n      dup3\n        /* \"#utility.yul\":12649:12666   */\n      mul\n        /* \"#utility.yul\":12641:12666   */\n      swap1\n      pop\n        /* \"#utility.yul\":12721:12725   */\n      0x20\n        /* \"#utility.yul\":12715:12719   */\n      dup2\n        /* \"#utility.yul\":12711:12726   */\n      add\n        /* \"#utility.yul\":12703:12726   */\n      swap1\n      pop\n        /* \"#utility.yul\":12400:12733   */\n      swap2\n      swap1\n      pop\n      jump\t// out\n        /* \"#utility.yul\":12739:13047   */\n    tag_148:\n        /* \"#utility.yul\":12801:12805   */\n      0x00\n        /* \"#utility.yul\":12891:12909   */\n      0xffffffffffffffff\n        /* \"#utility.yul\":12883:12889   */\n      dup3\n        /* \"#utility.yul\":12880:12910   */\n      gt\n        /* \"#utility.yul\":12877:12933   */\n      iszero\n      tag_290\n      jumpi\n        /* \"#utility.yul\":12913:12931   */\n      tag_291\n      tag_285\n      jump\t// in\n    tag_291:\n        /* \"#utility.yul\":12877:12933   */\n    tag_290:\n        /* \"#utility.yul\":12951:12980   */\n      tag_292\n        /* \"#utility.yul\":12973:12979   */\n      dup3\n        /* \"#utility.yul\":12951:12980   */\n      tag_244\n      jump\t// in\n    tag_292:\n        /* \"#utility.yul\":12943:12980   */\n      swap1\n      pop\n        /* \"#utility.yul\":13035:13039   */\n      0x20\n        /* \"#utility.yul\":13029:13033   */\n      dup2\n        /* \"#utility.yul\":13025:13040   */\n      add\n        /* \"#utility.yul\":13017:13040   */\n      swap1\n      pop\n        /* \"#utility.yul\":12739:13047   */\n      swap2\n      swap1\n      pop\n      jump\t// out\n        /* \"#utility.yul\":13053:13152   */\n    tag_238:\n        /* \"#utility.yul\":13105:13111   */\n      0x00\n        /* \"#utility.yul\":13139:13144   */\n      dup2\n        /* \"#utility.yul\":13133:13145   */\n      mload\n        /* \"#utility.yul\":13123:13145   */\n      swap1\n      pop\n        /* \"#utility.yul\":13053:13152   */\n      swap2\n      swap1\n      pop\n      jump\t// out\n        /* \"#utility.yul\":13158:13327   */\n    tag_240:\n        /* \"#utility.yul\":13242:13253   */\n      0x00\n        /* \"#utility.yul\":13276:13282   */\n      dup3\n        /* \"#utility.yul\":13271:13274   */\n      dup3\n        /* \"#utility.yul\":13264:13283   */\n      mstore\n        /* \"#utility.yul\":13316:13320   */\n      0x20\n        /* \"#utility.yul\":13311:13314   */\n      dup3\n        /* \"#utility.yul\":13307:13321   */\n      add\n        /* \"#utility.yul\":13292:13321   */\n      swap1\n      pop\n        /* \"#utility.yul\":13158:13327   */\n      swap3\n      swap2\n      pop\n      pop\n      jump\t// out\n        /* \"#utility.yul\":13333:13429   */\n    tag_226:\n        /* \"#utility.yul\":13370:13377   */\n      0x00\n        /* \"#utility.yul\":13399:13423   */\n      tag_296\n        /* \"#utility.yul\":13417:13422   */\n      dup3\n        /* \"#utility.yul\":13399:13423   */\n      tag_297\n      jump\t// in\n    tag_296:\n        /* \"#utility.yul\":13388:13423   */\n      swap1\n      pop\n        /* \"#utility.yul\":13333:13429   */\n      swap2\n      swap1\n      pop\n      jump\t// out\n        /* \"#utility.yul\":13435:13525   */\n    tag_230:\n        /* \"#utility.yul\":13469:13476   */\n      0x00\n        /* \"#utility.yul\":13512:13517   */\n      dup2\n        /* \"#utility.yul\":13505:13518   */\n      iszero\n        /* \"#utility.yul\":13498:13519   */\n      iszero\n        /* \"#utility.yul\":13487:13519   */\n      swap1\n      pop\n        /* \"#utility.yul\":13435:13525   */\n      swap2\n      swap1\n      pop\n      jump\t// out\n        /* \"#utility.yul\":13531:13657   */\n    tag_297:\n        /* \"#utility.yul\":13568:13575   */\n      0x00\n        /* \"#utility.yul\":13608:13650   */\n      0xffffffffffffffffffffffffffffffffffffffff\n        /* \"#utility.yul\":13601:13606   */\n      dup3\n        /* \"#utility.yul\":13597:13651   */\n      and\n        /* \"#utility.yul\":13586:13651   */\n      swap1\n      pop\n        /* \"#utility.yul\":13531:13657   */\n      swap2\n      swap1\n      pop\n      jump\t// out\n        /* \"#utility.yul\":13663:13740   */\n    tag_258:\n        /* \"#utility.yul\":13700:13707   */\n      0x00\n        /* \"#utility.yul\":13729:13734   */\n      dup2\n        /* \"#utility.yul\":13718:13734   */\n      swap1\n      pop\n        /* \"#utility.yul\":13663:13740   */\n      swap2\n      swap1\n      pop\n      jump\t// out\n        /* \"#utility.yul\":13746:13867   */\n    tag_234:\n        /* \"#utility.yul\":13804:13813   */\n      0x00\n        /* \"#utility.yul\":13837:13861   */\n      tag_302\n        /* \"#utility.yul\":13855:13860   */\n      dup3\n        /* \"#utility.yul\":13837:13861   */\n      tag_258\n      jump\t// in\n    tag_302:\n        /* \"#utility.yul\":13824:13861   */\n      swap1\n      pop\n        /* \"#utility.yul\":13746:13867   */\n      swap2\n      swap1\n      pop\n      jump\t// out\n        /* \"#utility.yul\":13873:14027   */\n    tag_153:\n        /* \"#utility.yul\":13957:13963   */\n      dup3\n        /* \"#utility.yul\":13952:13955   */\n      dup2\n        /* \"#utility.yul\":13947:13950   */\n      dup4\n        /* \"#utility.yul\":13934:13964   */\n      calldatacopy\n        /* \"#utility.yul\":14019:14020   */\n      0x00\n        /* \"#utility.yul\":14010:14016   */\n      dup4\n        /* \"#utility.yul\":14005:14008   */\n      dup4\n        /* \"#utility.yul\":14001:14017   */\n      add\n        /* \"#utility.yul\":13994:14021   */\n      mstore\n        /* \"#utility.yul\":13873:14027   */\n      pop\n      pop\n      pop\n      jump\t// out\n        /* \"#utility.yul\":14033:14340   */\n    tag_242:\n        /* \"#utility.yul\":14101:14102   */\n      0x00\n        /* \"#utility.yul\":14111:14224   */\n    tag_305:\n        /* \"#utility.yul\":14125:14131   */\n      dup4\n        /* \"#utility.yul\":14122:14123   */\n      dup2\n        /* \"#utility.yul\":14119:14132   */\n      lt\n        /* \"#utility.yul\":14111:14224   */\n      iszero\n      tag_307\n      jumpi\n        /* \"#utility.yul\":14210:14211   */\n      dup1\n        /* \"#utility.yul\":14205:14208   */\n      dup3\n        /* \"#utility.yul\":14201:14212   */\n      add\n        /* \"#utility.yul\":14195:14213   */\n      mload\n        /* \"#utility.yul\":14191:14192   */\n      dup2\n        /* \"#utility.yul\":14186:14189   */\n      dup5\n        /* \"#utility.yul\":14182:14193   */\n      add\n        /* \"#utility.yul\":14175:14214   */\n      mstore\n        /* \"#utility.yul\":14147:14149   */\n      0x20\n        /* \"#utility.yul\":14144:14145   */\n      dup2\n        /* \"#utility.yul\":14140:14150   */\n      add\n        /* \"#utility.yul\":14135:14150   */\n      swap1\n      pop\n        /* \"#utility.yul\":14111:14224   */\n      jump(tag_305)\n    tag_307:\n        /* \"#utility.yul\":14242:14248   */\n      dup4\n        /* \"#utility.yul\":14239:14240   */\n      dup2\n        /* \"#utility.yul\":14236:14249   */\n      gt\n        /* \"#utility.yul\":14233:14334   */\n      iszero\n      tag_308\n      jumpi\n        /* \"#utility.yul\":14322:14323   */\n      0x00\n        /* \"#utility.yul\":14313:14319   */\n      dup5\n        /* \"#utility.yul\":14308:14311   */\n      dup5\n        /* \"#utility.yul\":14304:14320   */\n      add\n        /* \"#utility.yul\":14297:14324   */\n      mstore\n        /* \"#utility.yul\":14233:14334   */\n    tag_308:\n        /* \"#utility.yul\":14082:14340   */\n      pop\n        /* \"#utility.yul\":14033:14340   */\n      pop\n      pop\n      pop\n      jump\t// out\n        /* \"#utility.yul\":14346:14666   */\n    tag_49:\n        /* \"#utility.yul\":14390:14396   */\n      0x00\n        /* \"#utility.yul\":14427:14428   */\n      0x02\n        /* \"#utility.yul\":14421:14425   */\n      dup3\n        /* \"#utility.yul\":14417:14429   */\n      div\n        /* \"#utility.yul\":14407:14429   */\n      swap1\n      pop\n        /* \"#utility.yul\":14474:14475   */\n      0x01\n        /* \"#utility.yul\":14468:14472   */\n      dup3\n        /* \"#utility.yul\":14464:14476   */\n      and\n        /* \"#utility.yul\":14495:14513   */\n      dup1\n        /* \"#utility.yul\":14485:14566   */\n      tag_310\n      jumpi\n        /* \"#utility.yul\":14551:14555   */\n      0x7f\n        /* \"#utility.yul\":14543:14549   */\n      dup3\n        /* \"#utility.yul\":14539:14556   */\n      and\n        /* \"#utility.yul\":14529:14556   */\n      swap2\n      pop\n        /* \"#utility.yul\":14485:14566   */\n    tag_310:\n        /* \"#utility.yul\":14613:14615   */\n      0x20\n        /* \"#utility.yul\":14605:14611   */\n      dup3\n        /* \"#utility.yul\":14602:14616   */\n      lt\n        /* \"#utility.yul\":14582:14600   */\n      dup2\n        /* \"#utility.yul\":14579:14617   */\n      eq\n        /* \"#utility.yul\":14576:14660   */\n      iszero\n      tag_311\n      jumpi\n        /* \"#utility.yul\":14632:14650   */\n      tag_312\n      tag_313\n      jump\t// in\n    tag_312:\n        /* \"#utility.yul\":14576:14660   */\n    tag_311:\n        /* \"#utility.yul\":14397:14666   */\n      pop\n        /* \"#utility.yul\":14346:14666   */\n      swap2\n      swap1\n      pop\n      jump\t// out\n        /* \"#utility.yul\":14672:14953   */\n    tag_280:\n        /* \"#utility.yul\":14755:14782   */\n      tag_315\n        /* \"#utility.yul\":14777:14781   */\n      dup3\n        /* \"#utility.yul\":14755:14782   */\n      tag_244\n      jump\t// in\n    tag_315:\n        /* \"#utility.yul\":14747:14753   */\n      dup2\n        /* \"#utility.yul\":14743:14783   */\n      add\n        /* \"#utility.yul\":14885:14891   */\n      dup2\n        /* \"#utility.yul\":14873:14883   */\n      dup2\n        /* \"#utility.yul\":14870:14892   */\n      lt\n        /* \"#utility.yul\":14849:14867   */\n      0xffffffffffffffff\n        /* \"#utility.yul\":14837:14847   */\n      dup3\n        /* \"#utility.yul\":14834:14868   */\n      gt\n        /* \"#utility.yul\":14831:14893   */\n      or\n        /* \"#utility.yul\":14828:14916   */\n      iszero\n      tag_316\n      jumpi\n        /* \"#utility.yul\":14896:14914   */\n      tag_317\n      tag_285\n      jump\t// in\n    tag_317:\n        /* \"#utility.yul\":14828:14916   */\n    tag_316:\n        /* \"#utility.yul\":14936:14946   */\n      dup1\n        /* \"#utility.yul\":14932:14934   */\n      0x40\n        /* \"#utility.yul\":14925:14947   */\n      mstore\n        /* \"#utility.yul\":14715:14953   */\n      pop\n        /* \"#utility.yul\":14672:14953   */\n      pop\n      pop\n      jump\t// out\n        /* \"#utility.yul\":14959:15192   */\n    tag_74:\n        /* \"#utility.yul\":14998:15001   */\n      0x00\n        /* \"#utility.yul\":15021:15045   */\n      tag_319\n        /* \"#utility.yul\":15039:15044   */\n      dup3\n        /* \"#utility.yul\":15021:15045   */\n      tag_258\n      jump\t// in\n    tag_319:\n        /* \"#utility.yul\":15012:15045   */\n      swap2\n      pop\n        /* \"#utility.yul\":15067:15133   */\n      0xffffffffffffffffffffffffffffffffffffffffffffffffffffffffffffffff\n        /* \"#utility.yul\":15060:15065   */\n      dup3\n        /* \"#utility.yul\":15057:15134   */\n      eq\n        /* \"#utility.yul\":15054:15157   */\n      iszero\n      tag_320\n      jumpi\n        /* \"#utility.yul\":15137:15155   */\n      tag_321\n      tag_322\n      jump\t// in\n    tag_321:\n        /* \"#utility.yul\":15054:15157   */\n    tag_320:\n        /* \"#utility.yul\":15184:15185   */\n      0x01\n        /* \"#utility.yul\":15177:15182   */\n      dup3\n        /* \"#utility.yul\":15173:15186   */\n      add\n        /* \"#utility.yul\":15166:15186   */\n      swap1\n      pop\n        /* \"#utility.yul\":14959:15192   */\n      swap2\n      swap1\n      pop\n      jump\t// out\n        /* \"#utility.yul\":15198:15378   */\n    tag_322:\n        /* \"#utility.yul\":15246:15323   */\n      0x4e487b7100000000000000000000000000000000000000000000000000000000\n        /* \"#utility.yul\":15243:15244   */\n      0x00\n        /* \"#utility.yul\":15236:15324   */\n      mstore\n        /* \"#utility.yul\":15343:15347   */\n      0x11\n        /* \"#utility.yul\":15340:15341   */\n      0x04\n        /* \"#utility.yul\":15333:15348   */\n      mstore\n        /* \"#utility.yul\":15367:15371   */\n      0x24\n        /* \"#utility.yul\":15364:15365   */\n      0x00\n        /* \"#utility.yul\":15357:15372   */\n      revert\n        /* \"#utility.yul\":15384:15564   */\n    tag_313:\n        /* \"#utility.yul\":15432:15509   */\n      0x4e487b7100000000000000000000000000000000000000000000000000000000\n        /* \"#utility.yul\":15429:15430   */\n      0x00\n        /* \"#utility.yul\":15422:15510   */\n      mstore\n        /* \"#utility.yul\":15529:15533   */\n      0x22\n        /* \"#utility.yul\":15526:15527   */\n      0x04\n        /* \"#utility.yul\":15519:15534   */\n      mstore\n        /* \"#utility.yul\":15553:15557   */\n      0x24\n        /* \"#utility.yul\":15550:15551   */\n      0x00\n        /* \"#utility.yul\":15543:15558   */\n      revert\n        /* \"#utility.yul\":15570:15750   */\n    tag_69:\n        /* \"#utility.yul\":15618:15695   */\n      0x4e487b7100000000000000000000000000000000000000000000000000000000\n        /* \"#utility.yul\":15615:15616   */\n      0x00\n        /* \"#utility.yul\":15608:15696   */\n      mstore\n        /* \"#utility.yul\":15715:15719   */\n      0x32\n        /* \"#utility.yul\":15712:15713   */\n      0x04\n        /* \"#utility.yul\":15705:15720   */\n      mstore\n        /* \"#utility.yul\":15739:15743   */\n      0x24\n        /* \"#utility.yul\":15736:15737   */\n      0x00\n        /* \"#utility.yul\":15729:15744   */\n      revert\n        /* \"#utility.yul\":15756:15936   */\n    tag_285:\n        /* \"#utility.yul\":15804:15881   */\n      0x4e487b7100000000000000000000000000000000000000000000000000000000\n        /* \"#utility.yul\":15801:15802   */\n      0x00\n        /* \"#utility.yul\":15794:15882   */\n      mstore\n        /* \"#utility.yul\":15901:15905   */\n      0x41\n        /* \"#utility.yul\":15898:15899   */\n      0x04\n        /* \"#utility.yul\":15891:15906   */\n      mstore\n        /* \"#utility.yul\":15925:15929   */\n      0x24\n        /* \"#utility.yul\":15922:15923   */\n      0x00\n        /* \"#utility.yul\":15915:15930   */\n      revert\n        /* \"#utility.yul\":15942:16059   */\n    tag_129:\n        /* \"#utility.yul\":16051:16052   */\n      0x00\n        /* \"#utility.yul\":16048:16049   */\n      dup1\n        /* \"#utility.yul\":16041:16053   */\n      revert\n        /* \"#utility.yul\":16065:16182   */\n    tag_180:\n        /* \"#utility.yul\":16174:16175   */\n      0x00\n        /* \"#utility.yul\":16171:16172   */\n      dup1\n        /* \"#utility.yul\":16164:16176   */\n      revert\n        /* \"#utility.yul\":16188:16305   */\n    tag_185:\n        /* \"#utility.yul\":16297:16298   */\n      0x00\n        /* \"#utility.yul\":16294:16295   */\n      dup1\n        /* \"#utility.yul\":16287:16299   */\n      revert\n        /* \"#utility.yul\":16311:16428   */\n    tag_123:\n        /* \"#utility.yul\":16420:16421   */\n      0x00\n        /* \"#utility.yul\":16417:16418   */\n      dup1\n        /* \"#utility.yul\":16410:16422   */\n      revert\n        /* \"#utility.yul\":16434:16551   */\n    tag_151:\n        /* \"#utility.yul\":16543:16544   */\n      0x00\n        /* \"#utility.yul\":16540:16541   */\n      dup1\n        /* \"#utility.yul\":16533:16545   */\n      revert\n        /* \"#utility.yul\":16557:16674   */\n    tag_208:\n        /* \"#utility.yul\":16666:16667   */\n      0x00\n        /* \"#utility.yul\":16663:16664   */\n      dup1\n        /* \"#utility.yul\":16656:16668   */\n      revert\n        /* \"#utility.yul\":16680:16797   */\n    tag_201:\n        /* \"#utility.yul\":16789:16790   */\n      0x00\n        /* \"#utility.yul\":16786:16787   */\n      dup1\n        /* \"#utility.yul\":16779:16791   */\n      revert\n        /* \"#utility.yul\":16803:16905   */\n    tag_244:\n        /* \"#utility.yul\":16844:16850   */\n      0x00\n        /* \"#utility.yul\":16895:16897   */\n      0x1f\n        /* \"#utility.yul\":16891:16898   */\n      not\n        /* \"#utility.yul\":16886:16888   */\n      0x1f\n        /* \"#utility.yul\":16879:16884   */\n      dup4\n        /* \"#utility.yul\":16875:16889   */\n      add\n        /* \"#utility.yul\":16871:16899   */\n      and\n        /* \"#utility.yul\":16861:16899   */\n      swap1\n      pop\n        /* \"#utility.yul\":16803:16905   */\n      swap2\n      swap1\n      pop\n      jump\t// out\n        /* \"#utility.yul\":16911:17075   */\n    tag_249:\n        /* \"#utility.yul\":17051:17067   */\n      0x416c726561647920766f7465642e000000000000000000000000000000000000\n        /* \"#utility.yul\":17047:17048   */\n      0x00\n        /* \"#utility.yul\":17039:17045   */\n      dup3\n        /* \"#utility.yul\":17035:17049   */\n      add\n        /* \"#utility.yul\":17028:17068   */\n      mstore\n        /* \"#utility.yul\":16911:17075   */\n      pop\n      jump\t// out\n        /* \"#utility.yul\":17081:17251   */\n    tag_254:\n        /* \"#utility.yul\":17221:17243   */\n      0x566f74657220646f65736e27742065786973742e000000000000000000000000\n        /* \"#utility.yul\":17217:17218   */\n      0x00\n        /* \"#utility.yul\":17209:17215   */\n      dup3\n        /* \"#utility.yul\":17205:17219   */\n      add\n        /* \"#utility.yul\":17198:17244   */\n      mstore\n        /* \"#utility.yul\":17081:17251   */\n      pop\n      jump\t// out\n        /* \"#utility.yul\":17257:17379   */\n    tag_157:\n        /* \"#utility.yul\":17330:17354   */\n      tag_338\n        /* \"#utility.yul\":17348:17353   */\n      dup2\n        /* \"#utility.yul\":17330:17354   */\n      tag_226\n      jump\t// in\n    tag_338:\n        /* \"#utility.yul\":17323:17328   */\n      dup2\n        /* \"#utility.yul\":17320:17355   */\n      eq\n        /* \"#utility.yul\":17310:17373   */\n      tag_339\n      jumpi\n        /* \"#utility.yul\":17369:17370   */\n      0x00\n        /* \"#utility.yul\":17366:17367   */\n      dup1\n        /* \"#utility.yul\":17359:17371   */\n      revert\n        /* \"#utility.yul\":17310:17373   */\n    tag_339:\n        /* \"#utility.yul\":17257:17379   */\n      pop\n      jump\t// out\n        /* \"#utility.yul\":17385:17501   */\n    tag_171:\n        /* \"#utility.yul\":17455:17476   */\n      tag_341\n        /* \"#utility.yul\":17470:17475   */\n      dup2\n        /* \"#utility.yul\":17455:17476   */\n      tag_230\n      jump\t// in\n    tag_341:\n        /* \"#utility.yul\":17448:17453   */\n      dup2\n        /* \"#utility.yul\":17445:17477   */\n      eq\n        /* \"#utility.yul\":17435:17495   */\n      tag_342\n      jumpi\n        /* \"#utility.yul\":17491:17492   */\n      0x00\n        /* \"#utility.yul\":17488:17489   */\n      dup1\n        /* \"#utility.yul\":17481:17493   */\n      revert\n        /* \"#utility.yul\":17435:17495   */\n    tag_342:\n        /* \"#utility.yul\":17385:17501   */\n      pop\n      jump\t// out\n        /* \"#utility.yul\":17507:17629   */\n    tag_197:\n        /* \"#utility.yul\":17580:17604   */\n      tag_344\n        /* \"#utility.yul\":17598:17603   */\n      dup2\n        /* \"#utility.yul\":17580:17604   */\n      tag_258\n      jump\t// in\n    tag_344:\n        /* \"#utility.yul\":17573:17578   */\n      dup2\n        /* \"#utility.yul\":17570:17605   */\n      eq\n        /* \"#utility.yul\":17560:17623   */\n      tag_345\n      jumpi\n        /* \"#utility.yul\":17619:17620   */\n      0x00\n        /* \"#utility.yul\":17616:17617   */\n      dup1\n        /* \"#utility.yul\":17609:17621   */\n      revert\n        /* \"#utility.yul\":17560:17623   */\n    tag_345:\n        /* \"#utility.yul\":17507:17629   */\n      pop\n      jump\t// out\n\n    auxdata: 0xa2646970667358221220a756823aa7eef20475950d945a2ae71ac152ea60320956338ff5050f6714c49f64736f6c63430008070033\n}\n\nsub_1: assembly {\n        /* \"contracts/Token.sol\":60:162  contract Token is ERC20Standard {\r... */\n      mstore(0x40, 0x80)\n      callvalue\n      dup1\n      iszero\n      tag_1\n      jumpi\n      0x00\n      dup1\n      revert\n    tag_1:\n      pop\n      dataSize(sub_0)\n      dup1\n      dataOffset(sub_0)\n      0x00\n      codecopy\n      0x00\n      return\n    stop\n\n    sub_0: assembly {\n            /* \"contracts/Token.sol\":60:162  contract Token is ERC20Standard {\r... */\n          mstore(0x40, 0x80)\n          callvalue\n          dup1\n          iszero\n          tag_1\n          jumpi\n          0x00\n          dup1\n          revert\n        tag_1:\n          pop\n          jumpi(tag_2, lt(calldatasize, 0x04))\n          shr(0xe0, calldataload(0x00))\n          dup1\n          0x40c10f19\n          gt\n          tag_14\n          jumpi\n          dup1\n          0x40c10f19\n          eq\n          tag_8\n          jumpi\n          dup1\n          0x54fd4d50\n          eq\n          tag_9\n          jumpi\n          dup1\n          0x70a08231\n          eq\n          tag_10\n          jumpi\n          dup1\n          0x95d89b41\n          eq\n          tag_11\n          jumpi\n          dup1\n          0xa9059cbb\n          eq\n          tag_12\n          jumpi\n          dup1\n          0xdd62ed3e\n          eq\n          tag_13\n          jumpi\n          jump(tag_2)\n        tag_14:\n          dup1\n          0x06fdde03\n          eq\n          tag_3\n          jumpi\n          dup1\n          0x095ea7b3\n          eq\n          tag_4\n          jumpi\n          dup1\n          0x18160ddd\n          eq\n          tag_5\n          jumpi\n          dup1\n          0x23b872dd\n          eq\n          tag_6\n          jumpi\n          dup1\n          0x313ce567\n          eq\n          tag_7\n          jumpi\n        tag_2:\n          0x00\n          dup1\n          revert\n            /* \"contracts/ERC20Standard.sol\":966:984  string public name */\n        tag_3:\n          tag_15\n          tag_16\n          jump\t// in\n        tag_15:\n          mload(0x40)\n          tag_17\n          swap2\n          swap1\n          tag_18\n          jump\t// in\n        tag_17:\n          mload(0x40)\n          dup1\n          swap2\n          sub\n          swap1\n          return\n            /* \"contracts/ERC20Standard.sol\":2188:2340  function  approve(address _spender, uint _value) public {\r... */\n        tag_4:\n          tag_19\n          0x04\n          dup1\n          calldatasize\n          sub\n          dup2\n          add\n          swap1\n          tag_20\n          swap2\n          swap1\n          tag_21\n          jump\t// in\n        tag_20:\n          tag_22\n          jump\t// in\n        tag_19:\n          stop\n            /* \"contracts/ERC20Standard.sol\":936:959  uint public totalSupply */\n        tag_5:\n          tag_23\n          tag_24\n          jump\t// in\n        tag_23:\n          mload(0x40)\n          tag_25\n          swap2\n          swap1\n          tag_26\n          jump\t// in\n        tag_25:\n          mload(0x40)\n          dup1\n          swap2\n          sub\n          swap1\n          return\n            /* \"contracts/ERC20Standard.sol\":1759:2183  function transferFrom(address _from, address _to, uint _value) public {\r... */\n        tag_6:\n          tag_27\n          0x04\n          dup1\n          calldatasize\n          sub\n          dup2\n          add\n          swap1\n          tag_28\n          swap2\n          swap1\n          tag_29\n          jump\t// in\n        tag_28:\n          tag_30\n          jump\t// in\n        tag_27:\n          stop\n            /* \"contracts/ERC20Standard.sol\":988:1009  uint8 public decimals */\n        tag_7:\n          tag_31\n          tag_32\n          jump\t// in\n        tag_31:\n          mload(0x40)\n          tag_33\n          swap2\n          swap1\n          tag_34\n          jump\t// in\n        tag_33:\n          mload(0x40)\n          dup1\n          swap2\n          sub\n          swap1\n          return\n            /* \"contracts/Token.sol\":102:159  function mint(address addr, uint count) public {\r... */\n        tag_8:\n          tag_35\n          0x04\n          dup1\n          calldatasize\n          sub\n          dup2\n          add\n          swap1\n          tag_36\n          swap2\n          swap1\n          tag_21\n          jump\t// in\n        tag_36:\n          tag_37\n          jump\t// in\n        tag_35:\n          stop\n            /* \"contracts/ERC20Standard.sol\":1037:1058  string public version */\n        tag_9:\n          tag_38\n          tag_39\n          jump\t// in\n        tag_38:\n          mload(0x40)\n          tag_40\n          swap2\n          swap1\n          tag_18\n          jump\t// in\n        tag_40:\n          mload(0x40)\n          dup1\n          swap2\n          sub\n          swap1\n          return\n            /* \"contracts/ERC20Standard.sol\":1306:1409  function balanceOf(address _owner) public view returns (uint balance) {\r... */\n        tag_10:\n          tag_41\n          0x04\n          dup1\n          calldatasize\n          sub\n          dup2\n          add\n          swap1\n          tag_42\n          swap2\n          swap1\n          tag_43\n          jump\t// in\n        tag_42:\n          tag_44\n          jump\t// in\n        tag_41:\n          mload(0x40)\n          tag_45\n          swap2\n          swap1\n          tag_26\n          jump\t// in\n        tag_45:\n          mload(0x40)\n          dup1\n          swap2\n          sub\n          swap1\n          return\n            /* \"contracts/ERC20Standard.sol\":1013:1033  string public symbol */\n        tag_11:\n          tag_46\n          tag_47\n          jump\t// in\n        tag_46:\n          mload(0x40)\n          tag_48\n          swap2\n          swap1\n          tag_18\n          jump\t// in\n        tag_48:\n          mload(0x40)\n          dup1\n          swap2\n          sub\n          swap1\n          return\n            /* \"contracts/ERC20Standard.sol\":1414:1754  function transfer(address _recipient, uint _value) public onlyPayloadSize(2*32) {\r... */\n        tag_12:\n          tag_49\n          0x04\n          dup1\n          calldatasize\n          sub\n          dup2\n          add\n          swap1\n          tag_50\n          swap2\n          swap1\n          tag_21\n          jump\t// in\n        tag_50:\n          tag_51\n          jump\t// in\n        tag_49:\n          stop\n            /* \"contracts/ERC20Standard.sol\":2345:2475  function allowance(address _spender, address _owner) public view returns (uint balance) {\r... */\n        tag_13:\n          tag_52\n          0x04\n          dup1\n          calldatasize\n          sub\n          dup2\n          add\n          swap1\n          tag_53\n          swap2\n          swap1\n          tag_54\n          jump\t// in\n        tag_53:\n          tag_55\n          jump\t// in\n        tag_52:\n          mload(0x40)\n          tag_56\n          swap2\n          swap1\n          tag_26\n          jump\t// in\n        tag_56:\n          mload(0x40)\n          dup1\n          swap2\n          sub\n          swap1\n          return\n            /* \"contracts/ERC20Standard.sol\":966:984  string public name */\n        tag_16:\n          0x01\n          dup1\n          sload\n          tag_57\n          swap1\n          tag_58\n          jump\t// in\n        tag_57:\n          dup1\n          0x1f\n          add\n          0x20\n          dup1\n          swap2\n          div\n          mul\n          0x20\n          add\n          mload(0x40)\n          swap1\n          dup2\n          add\n          0x40\n          mstore\n          dup1\n          swap3\n          swap2\n          swap1\n          dup2\n          dup2\n          mstore\n          0x20\n          add\n          dup3\n          dup1\n          sload\n          tag_59\n          swap1\n          tag_58\n          jump\t// in\n        tag_59:\n          dup1\n          iszero\n          tag_60\n          jumpi\n          dup1\n          0x1f\n          lt\n          tag_61\n          jumpi\n          0x0100\n          dup1\n          dup4\n          sload\n          div\n          mul\n          dup4\n          mstore\n          swap2\n          0x20\n          add\n          swap2\n          jump(tag_60)\n        tag_61:\n          dup3\n          add\n          swap2\n          swap1\n          0x00\n          mstore\n          keccak256(0x00, 0x20)\n          swap1\n        tag_62:\n          dup2\n          sload\n          dup2\n          mstore\n          swap1\n          0x01\n          add\n          swap1\n          0x20\n          add\n          dup1\n          dup4\n          gt\n          tag_62\n          jumpi\n          dup3\n          swap1\n          sub\n          0x1f\n          and\n          dup3\n          add\n          swap2\n        tag_60:\n          pop\n          pop\n          pop\n          pop\n          pop\n          dup2\n          jump\t// out\n            /* \"contracts/ERC20Standard.sol\":2188:2340  function  approve(address _spender, uint _value) public {\r... */\n        tag_22:\n            /* \"contracts/ERC20Standard.sol\":2281:2287  _value */\n          dup1\n            /* \"contracts/ERC20Standard.sol\":2249:2256  allowed */\n          0x06\n            /* \"contracts/ERC20Standard.sol\":2249:2268  allowed[msg.sender] */\n          0x00\n            /* \"contracts/ERC20Standard.sol\":2257:2267  msg.sender */\n          caller\n            /* \"contracts/ERC20Standard.sol\":2249:2268  allowed[msg.sender] */\n          0xffffffffffffffffffffffffffffffffffffffff\n          and\n          0xffffffffffffffffffffffffffffffffffffffff\n          and\n          dup2\n          mstore\n          0x20\n          add\n          swap1\n          dup2\n          mstore\n          0x20\n          add\n          0x00\n          keccak256\n            /* \"contracts/ERC20Standard.sol\":2249:2278  allowed[msg.sender][_spender] */\n          0x00\n            /* \"contracts/ERC20Standard.sol\":2269:2277  _spender */\n          dup5\n            /* \"contracts/ERC20Standard.sol\":2249:2278  allowed[msg.sender][_spender] */\n          0xffffffffffffffffffffffffffffffffffffffff\n          and\n          0xffffffffffffffffffffffffffffffffffffffff\n          and\n          dup2\n          mstore\n          0x20\n          add\n          swap1\n          dup2\n          mstore\n          0x20\n          add\n          0x00\n          keccak256\n            /* \"contracts/ERC20Standard.sol\":2249:2287  allowed[msg.sender][_spender] = _value */\n          dup2\n          swap1\n          sstore\n          pop\n            /* \"contracts/ERC20Standard.sol\":2318:2326  _spender */\n          dup2\n            /* \"contracts/ERC20Standard.sol\":2297:2335  Approval(msg.sender, _spender, _value) */\n          0xffffffffffffffffffffffffffffffffffffffff\n          and\n            /* \"contracts/ERC20Standard.sol\":2306:2316  msg.sender */\n          caller\n            /* \"contracts/ERC20Standard.sol\":2297:2335  Approval(msg.sender, _spender, _value) */\n          0xffffffffffffffffffffffffffffffffffffffff\n          and\n          0x8c5be1e5ebec7d5bd14f71427d1e84f3dd0314c0f7b2291e5b200ac8c7c3b925\n            /* \"contracts/ERC20Standard.sol\":2328:2334  _value */\n          dup4\n            /* \"contracts/ERC20Standard.sol\":2297:2335  Approval(msg.sender, _spender, _value) */\n          mload(0x40)\n          tag_64\n          swap2\n          swap1\n          tag_26\n          jump\t// in\n        tag_64:\n          mload(0x40)\n          dup1\n          swap2\n          sub\n          swap1\n          log3\n            /* \"contracts/ERC20Standard.sol\":2188:2340  function  approve(address _spender, uint _value) public {\r... */\n          pop\n          pop\n          jump\t// out\n            /* \"contracts/ERC20Standard.sol\":936:959  uint public totalSupply */\n        tag_24:\n          sload(0x00)\n          dup2\n          jump\t// out\n            /* \"contracts/ERC20Standard.sol\":1759:2183  function transferFrom(address _from, address _to, uint _value) public {\r... */\n        tag_30:\n            /* \"contracts/ERC20Standard.sol\":1864:1870  _value */\n          dup1\n            /* \"contracts/ERC20Standard.sol\":1845:1853  balances */\n          0x05\n            /* \"contracts/ERC20Standard.sol\":1845:1860  balances[_from] */\n          0x00\n            /* \"contracts/ERC20Standard.sol\":1854:1859  _from */\n          dup6\n            /* \"contracts/ERC20Standard.sol\":1845:1860  balances[_from] */\n          0xffffffffffffffffffffffffffffffffffffffff\n          and\n          0xffffffffffffffffffffffffffffffffffffffff\n          and\n          dup2\n          mstore\n          0x20\n          add\n          swap1\n          dup2\n          mstore\n          0x20\n          add\n          0x00\n          keccak256\n          sload\n            /* \"contracts/ERC20Standard.sol\":1845:1870  balances[_from] >= _value */\n          lt\n          iszero\n            /* \"contracts/ERC20Standard.sol\":1845:1910  balances[_from] >= _value && allowed[_from][msg.sender] >= _value */\n          dup1\n          iszero\n          tag_66\n          jumpi\n          pop\n            /* \"contracts/ERC20Standard.sol\":1904:1910  _value */\n          dup1\n            /* \"contracts/ERC20Standard.sol\":1874:1881  allowed */\n          0x06\n            /* \"contracts/ERC20Standard.sol\":1874:1888  allowed[_from] */\n          0x00\n            /* \"contracts/ERC20Standard.sol\":1882:1887  _from */\n          dup6\n            /* \"contracts/ERC20Standard.sol\":1874:1888  allowed[_from] */\n          0xffffffffffffffffffffffffffffffffffffffff\n          and\n          0xffffffffffffffffffffffffffffffffffffffff\n          and\n          dup2\n          mstore\n          0x20\n          add\n          swap1\n          dup2\n          mstore\n          0x20\n          add\n          0x00\n          keccak256\n            /* \"contracts/ERC20Standard.sol\":1874:1900  allowed[_from][msg.sender] */\n          0x00\n            /* \"contracts/ERC20Standard.sol\":1889:1899  msg.sender */\n          caller\n            /* \"contracts/ERC20Standard.sol\":1874:1900  allowed[_from][msg.sender] */\n          0xffffffffffffffffffffffffffffffffffffffff\n          and\n          0xffffffffffffffffffffffffffffffffffffffff\n          and\n          dup2\n          mstore\n          0x20\n          add\n          swap1\n          dup2\n          mstore\n          0x20\n          add\n          0x00\n          keccak256\n          sload\n            /* \"contracts/ERC20Standard.sol\":1874:1910  allowed[_from][msg.sender] >= _value */\n          lt\n          iszero\n            /* \"contracts/ERC20Standard.sol\":1845:1910  balances[_from] >= _value && allowed[_from][msg.sender] >= _value */\n        tag_66:\n            /* \"contracts/ERC20Standard.sol\":1845:1924  balances[_from] >= _value && allowed[_from][msg.sender] >= _value && _value > 0 */\n          dup1\n          iszero\n          tag_67\n          jumpi\n          pop\n            /* \"contracts/ERC20Standard.sol\":1923:1924  0 */\n          0x00\n            /* \"contracts/ERC20Standard.sol\":1914:1920  _value */\n          dup2\n            /* \"contracts/ERC20Standard.sol\":1914:1924  _value > 0 */\n          gt\n            /* \"contracts/ERC20Standard.sol\":1845:1924  balances[_from] >= _value && allowed[_from][msg.sender] >= _value && _value > 0 */\n        tag_67:\n            /* \"contracts/ERC20Standard.sol\":1837:1925  require(balances[_from] >= _value && allowed[_from][msg.sender] >= _value && _value > 0) */\n          tag_68\n          jumpi\n          0x00\n          dup1\n          revert\n        tag_68:\n            /* \"contracts/ERC20Standard.sol\":1956:1981  balances[_to].add(_value) */\n          tag_69\n            /* \"contracts/ERC20Standard.sol\":1974:1980  _value */\n          dup2\n            /* \"contracts/ERC20Standard.sol\":1956:1964  balances */\n          0x05\n            /* \"contracts/ERC20Standard.sol\":1956:1969  balances[_to] */\n          0x00\n            /* \"contracts/ERC20Standard.sol\":1965:1968  _to */\n          dup6\n            /* \"contracts/ERC20Standard.sol\":1956:1969  balances[_to] */\n          0xffffffffffffffffffffffffffffffffffffffff\n          and\n          0xffffffffffffffffffffffffffffffffffffffff\n          and\n          dup2\n          mstore\n          0x20\n          add\n          swap1\n          dup2\n          mstore\n          0x20\n          add\n          0x00\n          keccak256\n          sload\n            /* \"contracts/ERC20Standard.sol\":1956:1973  balances[_to].add */\n          tag_70\n          swap1\n            /* \"contracts/ERC20Standard.sol\":1956:1981  balances[_to].add(_value) */\n          swap2\n          swap1\n          0xffffffff\n          and\n          jump\t// in\n        tag_69:\n            /* \"contracts/ERC20Standard.sol\":1940:1948  balances */\n          0x05\n            /* \"contracts/ERC20Standard.sol\":1940:1953  balances[_to] */\n          0x00\n            /* \"contracts/ERC20Standard.sol\":1949:1952  _to */\n          dup5\n            /* \"contracts/ERC20Standard.sol\":1940:1953  balances[_to] */\n          0xffffffffffffffffffffffffffffffffffffffff\n          and\n          0xffffffffffffffffffffffffffffffffffffffff\n          and\n          dup2\n          mstore\n          0x20\n          add\n          swap1\n          dup2\n          mstore\n          0x20\n          add\n          0x00\n          keccak256\n            /* \"contracts/ERC20Standard.sol\":1940:1981  balances[_to] = balances[_to].add(_value) */\n          dup2\n          swap1\n          sstore\n          pop\n            /* \"contracts/ERC20Standard.sol\":2014:2041  balances[_from].sub(_value) */\n          tag_71\n            /* \"contracts/ERC20Standard.sol\":2034:2040  _value */\n          dup2\n            /* \"contracts/ERC20Standard.sol\":2014:2022  balances */\n          0x05\n            /* \"contracts/ERC20Standard.sol\":2014:2029  balances[_from] */\n          0x00\n            /* \"contracts/ERC20Standard.sol\":2023:2028  _from */\n          dup7\n            /* \"contracts/ERC20Standard.sol\":2014:2029  balances[_from] */\n          0xffffffffffffffffffffffffffffffffffffffff\n          and\n          0xffffffffffffffffffffffffffffffffffffffff\n          and\n          dup2\n          mstore\n          0x20\n          add\n          swap1\n          dup2\n          mstore\n          0x20\n          add\n          0x00\n          keccak256\n          sload\n            /* \"contracts/ERC20Standard.sol\":2014:2033  balances[_from].sub */\n          tag_72\n          swap1\n            /* \"contracts/ERC20Standard.sol\":2014:2041  balances[_from].sub(_value) */\n          swap2\n          swap1\n          0xffffffff\n          and\n          jump\t// in\n        tag_71:\n            /* \"contracts/ERC20Standard.sol\":1996:2004  balances */\n          0x05\n            /* \"contracts/ERC20Standard.sol\":1996:2011  balances[_from] */\n          0x00\n            /* \"contracts/ERC20Standard.sol\":2005:2010  _from */\n          dup6\n            /* \"contracts/ERC20Standard.sol\":1996:2011  balances[_from] */\n          0xffffffffffffffffffffffffffffffffffffffff\n          and\n          0xffffffffffffffffffffffffffffffffffffffff\n          and\n          dup2\n          mstore\n          0x20\n          add\n          swap1\n          dup2\n          mstore\n          0x20\n          add\n          0x00\n          keccak256\n            /* \"contracts/ERC20Standard.sol\":1996:2041  balances[_from] = balances[_from].sub(_value) */\n          dup2\n          swap1\n          sstore\n          pop\n            /* \"contracts/ERC20Standard.sol\":2085:2123  allowed[_from][msg.sender].sub(_value) */\n          tag_73\n            /* \"contracts/ERC20Standard.sol\":2116:2122  _value */\n          dup2\n            /* \"contracts/ERC20Standard.sol\":2085:2092  allowed */\n          0x06\n            /* \"contracts/ERC20Standard.sol\":2085:2099  allowed[_from] */\n          0x00\n            /* \"contracts/ERC20Standard.sol\":2093:2098  _from */\n          dup7\n            /* \"contracts/ERC20Standard.sol\":2085:2099  allowed[_from] */\n          0xffffffffffffffffffffffffffffffffffffffff\n          and\n          0xffffffffffffffffffffffffffffffffffffffff\n          and\n          dup2\n          mstore\n          0x20\n          add\n          swap1\n          dup2\n          mstore\n          0x20\n          add\n          0x00\n          keccak256\n            /* \"contracts/ERC20Standard.sol\":2085:2111  allowed[_from][msg.sender] */\n          0x00\n            /* \"contracts/ERC20Standard.sol\":2100:2110  msg.sender */\n          caller\n            /* \"contracts/ERC20Standard.sol\":2085:2111  allowed[_from][msg.sender] */\n          0xffffffffffffffffffffffffffffffffffffffff\n          and\n          0xffffffffffffffffffffffffffffffffffffffff\n          and\n          dup2\n          mstore\n          0x20\n          add\n          swap1\n          dup2\n          mstore\n          0x20\n          add\n          0x00\n          keccak256\n          sload\n            /* \"contracts/ERC20Standard.sol\":2085:2115  allowed[_from][msg.sender].sub */\n          tag_72\n          swap1\n            /* \"contracts/ERC20Standard.sol\":2085:2123  allowed[_from][msg.sender].sub(_value) */\n          swap2\n          swap1\n          0xffffffff\n          and\n          jump\t// in\n        tag_73:\n            /* \"contracts/ERC20Standard.sol\":2056:2063  allowed */\n          0x06\n            /* \"contracts/ERC20Standard.sol\":2056:2070  allowed[_from] */\n          0x00\n            /* \"contracts/ERC20Standard.sol\":2064:2069  _from */\n          dup6\n            /* \"contracts/ERC20Standard.sol\":2056:2070  allowed[_from] */\n          0xffffffffffffffffffffffffffffffffffffffff\n          and\n          0xffffffffffffffffffffffffffffffffffffffff\n          and\n          dup2\n          mstore\n          0x20\n          add\n          swap1\n          dup2\n          mstore\n          0x20\n          add\n          0x00\n          keccak256\n            /* \"contracts/ERC20Standard.sol\":2056:2082  allowed[_from][msg.sender] */\n          0x00\n            /* \"contracts/ERC20Standard.sol\":2071:2081  msg.sender */\n          caller\n            /* \"contracts/ERC20Standard.sol\":2056:2082  allowed[_from][msg.sender] */\n          0xffffffffffffffffffffffffffffffffffffffff\n          and\n          0xffffffffffffffffffffffffffffffffffffffff\n          and\n          dup2\n          mstore\n          0x20\n          add\n          swap1\n          dup2\n          mstore\n          0x20\n          add\n          0x00\n          keccak256\n            /* \"contracts/ERC20Standard.sol\":2056:2123  allowed[_from][msg.sender] = allowed[_from][msg.sender].sub(_value) */\n          dup2\n          swap1\n          sstore\n          pop\n            /* \"contracts/ERC20Standard.sol\":2159:2162  _to */\n          dup2\n            /* \"contracts/ERC20Standard.sol\":2143:2171  Transfer(_from, _to, _value) */\n          0xffffffffffffffffffffffffffffffffffffffff\n          and\n            /* \"contracts/ERC20Standard.sol\":2152:2157  _from */\n          dup4\n            /* \"contracts/ERC20Standard.sol\":2143:2171  Transfer(_from, _to, _value) */\n          0xffffffffffffffffffffffffffffffffffffffff\n          and\n          0xddf252ad1be2c89b69c2b068fc378daa952ba7f163c4a11628f55a4df523b3ef\n            /* \"contracts/ERC20Standard.sol\":2164:2170  _value */\n          dup4\n            /* \"contracts/ERC20Standard.sol\":2143:2171  Transfer(_from, _to, _value) */\n          mload(0x40)\n          tag_74\n          swap2\n          swap1\n          tag_26\n          jump\t// in\n        tag_74:\n          mload(0x40)\n          dup1\n          swap2\n          sub\n          swap1\n          log3\n            /* \"contracts/ERC20Standard.sol\":1759:2183  function transferFrom(address _from, address _to, uint _value) public {\r... */\n          pop\n          pop\n          pop\n          jump\t// out\n            /* \"contracts/ERC20Standard.sol\":988:1009  uint8 public decimals */\n        tag_32:\n          0x02\n          0x00\n          swap1\n          sload\n          swap1\n          0x0100\n          exp\n          swap1\n          div\n          0xff\n          and\n          dup2\n          jump\t// out\n            /* \"contracts/Token.sol\":102:159  function mint(address addr, uint count) public {\r... */\n        tag_37:\n          pop\n          pop\n          jump\t// out\n            /* \"contracts/ERC20Standard.sol\":1037:1058  string public version */\n        tag_39:\n          0x04\n          dup1\n          sload\n          tag_76\n          swap1\n          tag_58\n          jump\t// in\n        tag_76:\n          dup1\n          0x1f\n          add\n          0x20\n          dup1\n          swap2\n          div\n          mul\n          0x20\n          add\n          mload(0x40)\n          swap1\n          dup2\n          add\n          0x40\n          mstore\n          dup1\n          swap3\n          swap2\n          swap1\n          dup2\n          dup2\n          mstore\n          0x20\n          add\n          dup3\n          dup1\n          sload\n          tag_77\n          swap1\n          tag_58\n          jump\t// in\n        tag_77:\n          dup1\n          iszero\n          tag_78\n          jumpi\n          dup1\n          0x1f\n          lt\n          tag_79\n          jumpi\n          0x0100\n          dup1\n          dup4\n          sload\n          div\n          mul\n          dup4\n          mstore\n          swap2\n          0x20\n          add\n          swap2\n          jump(tag_78)\n        tag_79:\n          dup3\n          add\n          swap2\n          swap1\n          0x00\n          mstore\n          keccak256(0x00, 0x20)\n          swap1\n        tag_80:\n          dup2\n          sload\n          dup2\n          mstore\n          swap1\n          0x01\n          add\n          swap1\n          0x20\n          add\n          dup1\n          dup4\n          gt\n          tag_80\n          jumpi\n          dup3\n          swap1\n          sub\n          0x1f\n          and\n          dup3\n          add\n          swap2\n        tag_78:\n          pop\n          pop\n          pop\n          pop\n          pop\n          dup2\n          jump\t// out\n            /* \"contracts/ERC20Standard.sol\":1306:1409  function balanceOf(address _owner) public view returns (uint balance) {\r... */\n        tag_44:\n            /* \"contracts/ERC20Standard.sol\":1362:1374  uint balance */\n          0x00\n            /* \"contracts/ERC20Standard.sol\":1388:1396  balances */\n          0x05\n            /* \"contracts/ERC20Standard.sol\":1388:1404  balances[_owner] */\n          0x00\n            /* \"contracts/ERC20Standard.sol\":1397:1403  _owner */\n          dup4\n            /* \"contracts/ERC20Standard.sol\":1388:1404  balances[_owner] */\n          0xffffffffffffffffffffffffffffffffffffffff\n          and\n          0xffffffffffffffffffffffffffffffffffffffff\n          and\n          dup2\n          mstore\n          0x20\n          add\n          swap1\n          dup2\n          mstore\n          0x20\n          add\n          0x00\n          keccak256\n          sload\n            /* \"contracts/ERC20Standard.sol\":1381:1404  return balances[_owner] */\n          swap1\n          pop\n            /* \"contracts/ERC20Standard.sol\":1306:1409  function balanceOf(address _owner) public view returns (uint balance) {\r... */\n          swap2\n          swap1\n          pop\n          jump\t// out\n            /* \"contracts/ERC20Standard.sol\":1013:1033  string public symbol */\n        tag_47:\n          0x03\n          dup1\n          sload\n          tag_82\n          swap1\n          tag_58\n          jump\t// in\n        tag_82:\n          dup1\n          0x1f\n          add\n          0x20\n          dup1\n          swap2\n          div\n          mul\n          0x20\n          add\n          mload(0x40)\n          swap1\n          dup2\n          add\n          0x40\n          mstore\n          dup1\n          swap3\n          swap2\n          swap1\n          dup2\n          dup2\n          mstore\n          0x20\n          add\n          dup3\n          dup1\n          sload\n          tag_83\n          swap1\n          tag_58\n          jump\t// in\n        tag_83:\n          dup1\n          iszero\n          tag_84\n          jumpi\n          dup1\n          0x1f\n          lt\n          tag_85\n          jumpi\n          0x0100\n          dup1\n          dup4\n          sload\n          div\n          mul\n          dup4\n          mstore\n          swap2\n          0x20\n          add\n          swap2\n          jump(tag_84)\n        tag_85:\n          dup3\n          add\n          swap2\n          swap1\n          0x00\n          mstore\n          keccak256(0x00, 0x20)\n          swap1\n        tag_86:\n          dup2\n          sload\n          dup2\n          mstore\n          swap1\n          0x01\n          add\n          swap1\n          0x20\n          add\n          dup1\n          dup4\n          gt\n          tag_86\n          jumpi\n          dup3\n          swap1\n          sub\n          0x1f\n          and\n          dup3\n          add\n          swap2\n        tag_84:\n          pop\n          pop\n          pop\n          pop\n          pop\n          dup2\n          jump\t// out\n            /* \"contracts/ERC20Standard.sol\":1414:1754  function transfer(address _recipient, uint _value) public onlyPayloadSize(2*32) {\r... */\n        tag_51:\n            /* \"contracts/ERC20Standard.sol\":1488:1492  2*32 */\n          0x40\n            /* \"contracts/ERC20Standard.sol\":1287:1288  4 */\n          0x04\n            /* \"contracts/ERC20Standard.sol\":1280:1284  size */\n          dup2\n            /* \"contracts/ERC20Standard.sol\":1280:1288  size + 4 */\n          tag_88\n          swap2\n          swap1\n          tag_89\n          jump\t// in\n        tag_88:\n            /* \"contracts/ERC20Standard.sol\":1261:1269  msg.data */\n          0x00\n          calldatasize\n            /* \"contracts/ERC20Standard.sol\":1261:1276  msg.data.length */\n          swap1\n          pop\n            /* \"contracts/ERC20Standard.sol\":1261:1288  msg.data.length == size + 4 */\n          eq\n            /* \"contracts/ERC20Standard.sol\":1254:1289  assert(msg.data.length == size + 4) */\n          tag_90\n          jumpi\n          tag_91\n          tag_92\n          jump\t// in\n        tag_91:\n        tag_90:\n            /* \"contracts/ERC20Standard.sol\":1534:1540  _value */\n          dup2\n            /* \"contracts/ERC20Standard.sol\":1510:1518  balances */\n          0x05\n            /* \"contracts/ERC20Standard.sol\":1510:1530  balances[msg.sender] */\n          0x00\n            /* \"contracts/ERC20Standard.sol\":1519:1529  msg.sender */\n          caller\n            /* \"contracts/ERC20Standard.sol\":1510:1530  balances[msg.sender] */\n          0xffffffffffffffffffffffffffffffffffffffff\n          and\n          0xffffffffffffffffffffffffffffffffffffffff\n          and\n          dup2\n          mstore\n          0x20\n          add\n          swap1\n          dup2\n          mstore\n          0x20\n          add\n          0x00\n          keccak256\n          sload\n            /* \"contracts/ERC20Standard.sol\":1510:1540  balances[msg.sender] >= _value */\n          lt\n          iszero\n            /* \"contracts/ERC20Standard.sol\":1510:1554  balances[msg.sender] >= _value && _value > 0 */\n          dup1\n          iszero\n          tag_94\n          jumpi\n          pop\n            /* \"contracts/ERC20Standard.sol\":1553:1554  0 */\n          0x00\n            /* \"contracts/ERC20Standard.sol\":1544:1550  _value */\n          dup3\n            /* \"contracts/ERC20Standard.sol\":1544:1554  _value > 0 */\n          gt\n            /* \"contracts/ERC20Standard.sol\":1510:1554  balances[msg.sender] >= _value && _value > 0 */\n        tag_94:\n            /* \"contracts/ERC20Standard.sol\":1502:1555  require(balances[msg.sender] >= _value && _value > 0) */\n          tag_95\n          jumpi\n          0x00\n          dup1\n          revert\n        tag_95:\n            /* \"contracts/ERC20Standard.sol\":1586:1618  balances[msg.sender].sub(_value) */\n          tag_96\n            /* \"contracts/ERC20Standard.sol\":1611:1617  _value */\n          dup3\n            /* \"contracts/ERC20Standard.sol\":1586:1594  balances */\n          0x05\n            /* \"contracts/ERC20Standard.sol\":1586:1606  balances[msg.sender] */\n          0x00\n            /* \"contracts/ERC20Standard.sol\":1595:1605  msg.sender */\n          caller\n            /* \"contracts/ERC20Standard.sol\":1586:1606  balances[msg.sender] */\n          0xffffffffffffffffffffffffffffffffffffffff\n          and\n          0xffffffffffffffffffffffffffffffffffffffff\n          and\n          dup2\n          mstore\n          0x20\n          add\n          swap1\n          dup2\n          mstore\n          0x20\n          add\n          0x00\n          keccak256\n          sload\n            /* \"contracts/ERC20Standard.sol\":1586:1610  balances[msg.sender].sub */\n          tag_72\n          swap1\n            /* \"contracts/ERC20Standard.sol\":1586:1618  balances[msg.sender].sub(_value) */\n          swap2\n          swap1\n          0xffffffff\n          and\n          jump\t// in\n        tag_96:\n            /* \"contracts/ERC20Standard.sol\":1563:1571  balances */\n          0x05\n            /* \"contracts/ERC20Standard.sol\":1563:1583  balances[msg.sender] */\n          0x00\n            /* \"contracts/ERC20Standard.sol\":1572:1582  msg.sender */\n          caller\n            /* \"contracts/ERC20Standard.sol\":1563:1583  balances[msg.sender] */\n          0xffffffffffffffffffffffffffffffffffffffff\n          and\n          0xffffffffffffffffffffffffffffffffffffffff\n          and\n          dup2\n          mstore\n          0x20\n          add\n          swap1\n          dup2\n          mstore\n          0x20\n          add\n          0x00\n          keccak256\n            /* \"contracts/ERC20Standard.sol\":1563:1618  balances[msg.sender] = balances[msg.sender].sub(_value) */\n          dup2\n          swap1\n          sstore\n          pop\n            /* \"contracts/ERC20Standard.sol\":1649:1681  balances[_recipient].add(_value) */\n          tag_97\n            /* \"contracts/ERC20Standard.sol\":1674:1680  _value */\n          dup3\n            /* \"contracts/ERC20Standard.sol\":1649:1657  balances */\n          0x05\n            /* \"contracts/ERC20Standard.sol\":1649:1669  balances[_recipient] */\n          0x00\n            /* \"contracts/ERC20Standard.sol\":1658:1668  _recipient */\n          dup7\n            /* \"contracts/ERC20Standard.sol\":1649:1669  balances[_recipient] */\n          0xffffffffffffffffffffffffffffffffffffffff\n          and\n          0xffffffffffffffffffffffffffffffffffffffff\n          and\n          dup2\n          mstore\n          0x20\n          add\n          swap1\n          dup2\n          mstore\n          0x20\n          add\n          0x00\n          keccak256\n          sload\n            /* \"contracts/ERC20Standard.sol\":1649:1673  balances[_recipient].add */\n          tag_70\n          swap1\n            /* \"contracts/ERC20Standard.sol\":1649:1681  balances[_recipient].add(_value) */\n          swap2\n          swap1\n          0xffffffff\n          and\n          jump\t// in\n        tag_97:\n            /* \"contracts/ERC20Standard.sol\":1626:1634  balances */\n          0x05\n            /* \"contracts/ERC20Standard.sol\":1626:1646  balances[_recipient] */\n          0x00\n            /* \"contracts/ERC20Standard.sol\":1635:1645  _recipient */\n          dup6\n            /* \"contracts/ERC20Standard.sol\":1626:1646  balances[_recipient] */\n          0xffffffffffffffffffffffffffffffffffffffff\n          and\n          0xffffffffffffffffffffffffffffffffffffffff\n          and\n          dup2\n          mstore\n          0x20\n          add\n          swap1\n          dup2\n          mstore\n          0x20\n          add\n          0x00\n          keccak256\n            /* \"contracts/ERC20Standard.sol\":1626:1681  balances[_recipient] = balances[_recipient].add(_value) */\n          dup2\n          swap1\n          sstore\n          pop\n            /* \"contracts/ERC20Standard.sol\":1715:1725  _recipient */\n          dup3\n            /* \"contracts/ERC20Standard.sol\":1694:1734  Transfer(msg.sender, _recipient, _value) */\n          0xffffffffffffffffffffffffffffffffffffffff\n          and\n            /* \"contracts/ERC20Standard.sol\":1703:1713  msg.sender */\n          caller\n            /* \"contracts/ERC20Standard.sol\":1694:1734  Transfer(msg.sender, _recipient, _value) */\n          0xffffffffffffffffffffffffffffffffffffffff\n          and\n          0xddf252ad1be2c89b69c2b068fc378daa952ba7f163c4a11628f55a4df523b3ef\n            /* \"contracts/ERC20Standard.sol\":1727:1733  _value */\n          dup5\n            /* \"contracts/ERC20Standard.sol\":1694:1734  Transfer(msg.sender, _recipient, _value) */\n          mload(0x40)\n          tag_98\n          swap2\n          swap1\n          tag_26\n          jump\t// in\n        tag_98:\n          mload(0x40)\n          dup1\n          swap2\n          sub\n          swap1\n          log3\n            /* \"contracts/ERC20Standard.sol\":1414:1754  function transfer(address _recipient, uint _value) public onlyPayloadSize(2*32) {\r... */\n          pop\n          pop\n          pop\n          jump\t// out\n            /* \"contracts/ERC20Standard.sol\":2345:2475  function allowance(address _spender, address _owner) public view returns (uint balance) {\r... */\n        tag_55:\n            /* \"contracts/ERC20Standard.sol\":2419:2431  uint balance */\n          0x00\n            /* \"contracts/ERC20Standard.sol\":2445:2452  allowed */\n          0x06\n            /* \"contracts/ERC20Standard.sol\":2445:2460  allowed[_owner] */\n          0x00\n            /* \"contracts/ERC20Standard.sol\":2453:2459  _owner */\n          dup4\n            /* \"contracts/ERC20Standard.sol\":2445:2460  allowed[_owner] */\n          0xffffffffffffffffffffffffffffffffffffffff\n          and\n          0xffffffffffffffffffffffffffffffffffffffff\n          and\n          dup2\n          mstore\n          0x20\n          add\n          swap1\n          dup2\n          mstore\n          0x20\n          add\n          0x00\n          keccak256\n            /* \"contracts/ERC20Standard.sol\":2445:2470  allowed[_owner][_spender] */\n          0x00\n            /* \"contracts/ERC20Standard.sol\":2461:2469  _spender */\n          dup5\n            /* \"contracts/ERC20Standard.sol\":2445:2470  allowed[_owner][_spender] */\n          0xffffffffffffffffffffffffffffffffffffffff\n          and\n          0xffffffffffffffffffffffffffffffffffffffff\n          and\n          dup2\n          mstore\n          0x20\n          add\n          swap1\n          dup2\n          mstore\n          0x20\n          add\n          0x00\n          keccak256\n          sload\n            /* \"contracts/ERC20Standard.sol\":2438:2470  return allowed[_owner][_spender] */\n          swap1\n          pop\n            /* \"contracts/ERC20Standard.sol\":2345:2475  function allowance(address _spender, address _owner) public view returns (uint balance) {\r... */\n          swap3\n          swap2\n          pop\n          pop\n          jump\t// out\n            /* \"contracts/ERC20Standard.sol\":590:740  function add(uint256 a, uint256 b) internal pure returns (uint256) {\r... */\n        tag_70:\n            /* \"contracts/ERC20Standard.sol\":648:655  uint256 */\n          0x00\n            /* \"contracts/ERC20Standard.sol\":668:677  uint256 c */\n          dup1\n            /* \"contracts/ERC20Standard.sol\":684:685  b */\n          dup3\n            /* \"contracts/ERC20Standard.sol\":680:681  a */\n          dup5\n            /* \"contracts/ERC20Standard.sol\":680:685  a + b */\n          tag_101\n          swap2\n          swap1\n          tag_89\n          jump\t// in\n        tag_101:\n            /* \"contracts/ERC20Standard.sol\":668:685  uint256 c = a + b */\n          swap1\n          pop\n            /* \"contracts/ERC20Standard.sol\":709:710  a */\n          dup4\n            /* \"contracts/ERC20Standard.sol\":704:705  c */\n          dup2\n            /* \"contracts/ERC20Standard.sol\":704:710  c >= a */\n          lt\n          iszero\n            /* \"contracts/ERC20Standard.sol\":696:711  require(c >= a) */\n          tag_102\n          jumpi\n          0x00\n          dup1\n          revert\n        tag_102:\n            /* \"contracts/ERC20Standard.sol\":731:732  c */\n          dup1\n            /* \"contracts/ERC20Standard.sol\":724:732  return c */\n          swap2\n          pop\n          pop\n            /* \"contracts/ERC20Standard.sol\":590:740  function add(uint256 a, uint256 b) internal pure returns (uint256) {\r... */\n          swap3\n          swap2\n          pop\n          pop\n          jump\t// out\n            /* \"contracts/ERC20Standard.sol\":432:582  function sub(uint256 a, uint256 b) internal pure returns (uint256) {\r... */\n        tag_72:\n            /* \"contracts/ERC20Standard.sol\":490:497  uint256 */\n          0x00\n            /* \"contracts/ERC20Standard.sol\":523:524  a */\n          dup3\n            /* \"contracts/ERC20Standard.sol\":518:519  b */\n          dup3\n            /* \"contracts/ERC20Standard.sol\":518:524  b <= a */\n          gt\n          iszero\n            /* \"contracts/ERC20Standard.sol\":510:525  require(b <= a) */\n          tag_104\n          jumpi\n          0x00\n          dup1\n          revert\n        tag_104:\n            /* \"contracts/ERC20Standard.sol\":536:545  uint256 c */\n          0x00\n            /* \"contracts/ERC20Standard.sol\":552:553  b */\n          dup3\n            /* \"contracts/ERC20Standard.sol\":548:549  a */\n          dup5\n            /* \"contracts/ERC20Standard.sol\":548:553  a - b */\n          tag_105\n          swap2\n          swap1\n          tag_106\n          jump\t// in\n        tag_105:\n            /* \"contracts/ERC20Standard.sol\":536:553  uint256 c = a - b */\n          swap1\n          pop\n            /* \"contracts/ERC20Standard.sol\":573:574  c */\n          dup1\n            /* \"contracts/ERC20Standard.sol\":566:574  return c */\n          swap2\n          pop\n          pop\n            /* \"contracts/ERC20Standard.sol\":432:582  function sub(uint256 a, uint256 b) internal pure returns (uint256) {\r... */\n          swap3\n          swap2\n          pop\n          pop\n          jump\t// out\n            /* \"#utility.yul\":7:146   */\n        tag_108:\n            /* \"#utility.yul\":53:58   */\n          0x00\n            /* \"#utility.yul\":91:97   */\n          dup2\n            /* \"#utility.yul\":78:98   */\n          calldataload\n            /* \"#utility.yul\":69:98   */\n          swap1\n          pop\n            /* \"#utility.yul\":107:140   */\n          tag_110\n            /* \"#utility.yul\":134:139   */\n          dup2\n            /* \"#utility.yul\":107:140   */\n          tag_111\n          jump\t// in\n        tag_110:\n            /* \"#utility.yul\":7:146   */\n          swap3\n          swap2\n          pop\n          pop\n          jump\t// out\n            /* \"#utility.yul\":152:291   */\n        tag_112:\n            /* \"#utility.yul\":198:203   */\n          0x00\n            /* \"#utility.yul\":236:242   */\n          dup2\n            /* \"#utility.yul\":223:243   */\n          calldataload\n            /* \"#utility.yul\":214:243   */\n          swap1\n          pop\n            /* \"#utility.yul\":252:285   */\n          tag_114\n            /* \"#utility.yul\":279:284   */\n          dup2\n            /* \"#utility.yul\":252:285   */\n          tag_115\n          jump\t// in\n        tag_114:\n            /* \"#utility.yul\":152:291   */\n          swap3\n          swap2\n          pop\n          pop\n          jump\t// out\n            /* \"#utility.yul\":297:626   */\n        tag_43:\n            /* \"#utility.yul\":356:362   */\n          0x00\n            /* \"#utility.yul\":405:407   */\n          0x20\n            /* \"#utility.yul\":393:402   */\n          dup3\n            /* \"#utility.yul\":384:391   */\n          dup5\n            /* \"#utility.yul\":380:403   */\n          sub\n            /* \"#utility.yul\":376:408   */\n          slt\n            /* \"#utility.yul\":373:492   */\n          iszero\n          tag_117\n          jumpi\n            /* \"#utility.yul\":411:490   */\n          tag_118\n          tag_119\n          jump\t// in\n        tag_118:\n            /* \"#utility.yul\":373:492   */\n        tag_117:\n            /* \"#utility.yul\":531:532   */\n          0x00\n            /* \"#utility.yul\":556:609   */\n          tag_120\n            /* \"#utility.yul\":601:608   */\n          dup5\n            /* \"#utility.yul\":592:598   */\n          dup3\n            /* \"#utility.yul\":581:590   */\n          dup6\n            /* \"#utility.yul\":577:599   */\n          add\n            /* \"#utility.yul\":556:609   */\n          tag_108\n          jump\t// in\n        tag_120:\n            /* \"#utility.yul\":546:609   */\n          swap2\n          pop\n            /* \"#utility.yul\":502:619   */\n          pop\n            /* \"#utility.yul\":297:626   */\n          swap3\n          swap2\n          pop\n          pop\n          jump\t// out\n            /* \"#utility.yul\":632:1106   */\n        tag_54:\n            /* \"#utility.yul\":700:706   */\n          0x00\n            /* \"#utility.yul\":708:714   */\n          dup1\n            /* \"#utility.yul\":757:759   */\n          0x40\n            /* \"#utility.yul\":745:754   */\n          dup4\n            /* \"#utility.yul\":736:743   */\n          dup6\n            /* \"#utility.yul\":732:755   */\n          sub\n            /* \"#utility.yul\":728:760   */\n          slt\n            /* \"#utility.yul\":725:844   */\n          iszero\n          tag_122\n          jumpi\n            /* \"#utility.yul\":763:842   */\n          tag_123\n          tag_119\n          jump\t// in\n        tag_123:\n            /* \"#utility.yul\":725:844   */\n        tag_122:\n            /* \"#utility.yul\":883:884   */\n          0x00\n            /* \"#utility.yul\":908:961   */\n          tag_124\n            /* \"#utility.yul\":953:960   */\n          dup6\n            /* \"#utility.yul\":944:950   */\n          dup3\n            /* \"#utility.yul\":933:942   */\n          dup7\n            /* \"#utility.yul\":929:951   */\n          add\n            /* \"#utility.yul\":908:961   */\n          tag_108\n          jump\t// in\n        tag_124:\n            /* \"#utility.yul\":898:961   */\n          swap3\n          pop\n            /* \"#utility.yul\":854:971   */\n          pop\n            /* \"#utility.yul\":1010:1012   */\n          0x20\n            /* \"#utility.yul\":1036:1089   */\n          tag_125\n            /* \"#utility.yul\":1081:1088   */\n          dup6\n            /* \"#utility.yul\":1072:1078   */\n          dup3\n            /* \"#utility.yul\":1061:1070   */\n          dup7\n            /* \"#utility.yul\":1057:1079   */\n          add\n            /* \"#utility.yul\":1036:1089   */\n          tag_108\n          jump\t// in\n        tag_125:\n            /* \"#utility.yul\":1026:1089   */\n          swap2\n          pop\n            /* \"#utility.yul\":981:1099   */\n          pop\n            /* \"#utility.yul\":632:1106   */\n          swap3\n          pop\n          swap3\n          swap1\n          pop\n          jump\t// out\n            /* \"#utility.yul\":1112:1731   */\n        tag_29:\n            /* \"#utility.yul\":1189:1195   */\n          0x00\n            /* \"#utility.yul\":1197:1203   */\n          dup1\n            /* \"#utility.yul\":1205:1211   */\n          0x00\n            /* \"#utility.yul\":1254:1256   */\n          0x60\n            /* \"#utility.yul\":1242:1251   */\n          dup5\n            /* \"#utility.yul\":1233:1240   */\n          dup7\n            /* \"#utility.yul\":1229:1252   */\n          sub\n            /* \"#utility.yul\":1225:1257   */\n          slt\n            /* \"#utility.yul\":1222:1341   */\n          iszero\n          tag_127\n          jumpi\n            /* \"#utility.yul\":1260:1339   */\n          tag_128\n          tag_119\n          jump\t// in\n        tag_128:\n            /* \"#utility.yul\":1222:1341   */\n        tag_127:\n            /* \"#utility.yul\":1380:1381   */\n          0x00\n            /* \"#utility.yul\":1405:1458   */\n          tag_129\n            /* \"#utility.yul\":1450:1457   */\n          dup7\n            /* \"#utility.yul\":1441:1447   */\n          dup3\n            /* \"#utility.yul\":1430:1439   */\n          dup8\n            /* \"#utility.yul\":1426:1448   */\n          add\n            /* \"#utility.yul\":1405:1458   */\n          tag_108\n          jump\t// in\n        tag_129:\n            /* \"#utility.yul\":1395:1458   */\n          swap4\n          pop\n            /* \"#utility.yul\":1351:1468   */\n          pop\n            /* \"#utility.yul\":1507:1509   */\n          0x20\n            /* \"#utility.yul\":1533:1586   */\n          tag_130\n            /* \"#utility.yul\":1578:1585   */\n          dup7\n            /* \"#utility.yul\":1569:1575   */\n          dup3\n            /* \"#utility.yul\":1558:1567   */\n          dup8\n            /* \"#utility.yul\":1554:1576   */\n          add\n            /* \"#utility.yul\":1533:1586   */\n          tag_108\n          jump\t// in\n        tag_130:\n            /* \"#utility.yul\":1523:1586   */\n          swap3\n          pop\n            /* \"#utility.yul\":1478:1596   */\n          pop\n            /* \"#utility.yul\":1635:1637   */\n          0x40\n            /* \"#utility.yul\":1661:1714   */\n          tag_131\n            /* \"#utility.yul\":1706:1713   */\n          dup7\n            /* \"#utility.yul\":1697:1703   */\n          dup3\n            /* \"#utility.yul\":1686:1695   */\n          dup8\n            /* \"#utility.yul\":1682:1704   */\n          add\n            /* \"#utility.yul\":1661:1714   */\n          tag_112\n          jump\t// in\n        tag_131:\n            /* \"#utility.yul\":1651:1714   */\n          swap2\n          pop\n            /* \"#utility.yul\":1606:1724   */\n          pop\n            /* \"#utility.yul\":1112:1731   */\n          swap3\n          pop\n          swap3\n          pop\n          swap3\n          jump\t// out\n            /* \"#utility.yul\":1737:2211   */\n        tag_21:\n            /* \"#utility.yul\":1805:1811   */\n          0x00\n            /* \"#utility.yul\":1813:1819   */\n          dup1\n            /* \"#utility.yul\":1862:1864   */\n          0x40\n            /* \"#utility.yul\":1850:1859   */\n          dup4\n            /* \"#utility.yul\":1841:1848   */\n          dup6\n            /* \"#utility.yul\":1837:1860   */\n          sub\n            /* \"#utility.yul\":1833:1865   */\n          slt\n            /* \"#utility.yul\":1830:1949   */\n          iszero\n          tag_133\n          jumpi\n            /* \"#utility.yul\":1868:1947   */\n          tag_134\n          tag_119\n          jump\t// in\n        tag_134:\n            /* \"#utility.yul\":1830:1949   */\n        tag_133:\n            /* \"#utility.yul\":1988:1989   */\n          0x00\n            /* \"#utility.yul\":2013:2066   */\n          tag_135\n            /* \"#utility.yul\":2058:2065   */\n          dup6\n            /* \"#utility.yul\":2049:2055   */\n          dup3\n            /* \"#utility.yul\":2038:2047   */\n          dup7\n            /* \"#utility.yul\":2034:2056   */\n          add\n            /* \"#utility.yul\":2013:2066   */\n          tag_108\n          jump\t// in\n        tag_135:\n            /* \"#utility.yul\":2003:2066   */\n          swap3\n          pop\n            /* \"#utility.yul\":1959:2076   */\n          pop\n            /* \"#utility.yul\":2115:2117   */\n          0x20\n            /* \"#utility.yul\":2141:2194   */\n          tag_136\n            /* \"#utility.yul\":2186:2193   */\n          dup6\n            /* \"#utility.yul\":2177:2183   */\n          dup3\n            /* \"#utility.yul\":2166:2175   */\n          dup7\n            /* \"#utility.yul\":2162:2184   */\n          add\n            /* \"#utility.yul\":2141:2194   */\n          tag_112\n          jump\t// in\n        tag_136:\n            /* \"#utility.yul\":2131:2194   */\n          swap2\n          pop\n            /* \"#utility.yul\":2086:2204   */\n          pop\n            /* \"#utility.yul\":1737:2211   */\n          swap3\n          pop\n          swap3\n          swap1\n          pop\n          jump\t// out\n            /* \"#utility.yul\":2217:2581   */\n        tag_137:\n            /* \"#utility.yul\":2305:2308   */\n          0x00\n            /* \"#utility.yul\":2333:2372   */\n          tag_139\n            /* \"#utility.yul\":2366:2371   */\n          dup3\n            /* \"#utility.yul\":2333:2372   */\n          tag_140\n          jump\t// in\n        tag_139:\n            /* \"#utility.yul\":2388:2459   */\n          tag_141\n            /* \"#utility.yul\":2452:2458   */\n          dup2\n            /* \"#utility.yul\":2447:2450   */\n          dup6\n            /* \"#utility.yul\":2388:2459   */\n          tag_142\n          jump\t// in\n        tag_141:\n            /* \"#utility.yul\":2381:2459   */\n          swap4\n          pop\n            /* \"#utility.yul\":2468:2520   */\n          tag_143\n            /* \"#utility.yul\":2513:2519   */\n          dup2\n            /* \"#utility.yul\":2508:2511   */\n          dup6\n            /* \"#utility.yul\":2501:2505   */\n          0x20\n            /* \"#utility.yul\":2494:2499   */\n          dup7\n            /* \"#utility.yul\":2490:2506   */\n          add\n            /* \"#utility.yul\":2468:2520   */\n          tag_144\n          jump\t// in\n        tag_143:\n            /* \"#utility.yul\":2545:2574   */\n          tag_145\n            /* \"#utility.yul\":2567:2573   */\n          dup2\n            /* \"#utility.yul\":2545:2574   */\n          tag_146\n          jump\t// in\n        tag_145:\n            /* \"#utility.yul\":2540:2543   */\n          dup5\n            /* \"#utility.yul\":2536:2575   */\n          add\n            /* \"#utility.yul\":2529:2575   */\n          swap2\n          pop\n            /* \"#utility.yul\":2309:2581   */\n          pop\n            /* \"#utility.yul\":2217:2581   */\n          swap3\n          swap2\n          pop\n          pop\n          jump\t// out\n            /* \"#utility.yul\":2587:2705   */\n        tag_147:\n            /* \"#utility.yul\":2674:2698   */\n          tag_149\n            /* \"#utility.yul\":2692:2697   */\n          dup2\n            /* \"#utility.yul\":2674:2698   */\n          tag_150\n          jump\t// in\n        tag_149:\n            /* \"#utility.yul\":2669:2672   */\n          dup3\n            /* \"#utility.yul\":2662:2699   */\n          mstore\n            /* \"#utility.yul\":2587:2705   */\n          pop\n          pop\n          jump\t// out\n            /* \"#utility.yul\":2711:2823   */\n        tag_151:\n            /* \"#utility.yul\":2794:2816   */\n          tag_153\n            /* \"#utility.yul\":2810:2815   */\n          dup2\n            /* \"#utility.yul\":2794:2816   */\n          tag_154\n          jump\t// in\n        tag_153:\n            /* \"#utility.yul\":2789:2792   */\n          dup3\n            /* \"#utility.yul\":2782:2817   */\n          mstore\n            /* \"#utility.yul\":2711:2823   */\n          pop\n          pop\n          jump\t// out\n            /* \"#utility.yul\":2829:3142   */\n        tag_18:\n            /* \"#utility.yul\":2942:2946   */\n          0x00\n            /* \"#utility.yul\":2980:2982   */\n          0x20\n            /* \"#utility.yul\":2969:2978   */\n          dup3\n            /* \"#utility.yul\":2965:2983   */\n          add\n            /* \"#utility.yul\":2957:2983   */\n          swap1\n          pop\n            /* \"#utility.yul\":3029:3038   */\n          dup2\n            /* \"#utility.yul\":3023:3027   */\n          dup2\n            /* \"#utility.yul\":3019:3039   */\n          sub\n            /* \"#utility.yul\":3015:3016   */\n          0x00\n            /* \"#utility.yul\":3004:3013   */\n          dup4\n            /* \"#utility.yul\":3000:3017   */\n          add\n            /* \"#utility.yul\":2993:3040   */\n          mstore\n            /* \"#utility.yul\":3057:3135   */\n          tag_156\n            /* \"#utility.yul\":3130:3134   */\n          dup2\n            /* \"#utility.yul\":3121:3127   */\n          dup5\n            /* \"#utility.yul\":3057:3135   */\n          tag_137\n          jump\t// in\n        tag_156:\n            /* \"#utility.yul\":3049:3135   */\n          swap1\n          pop\n            /* \"#utility.yul\":2829:3142   */\n          swap3\n          swap2\n          pop\n          pop\n          jump\t// out\n            /* \"#utility.yul\":3148:3370   */\n        tag_26:\n            /* \"#utility.yul\":3241:3245   */\n          0x00\n            /* \"#utility.yul\":3279:3281   */\n          0x20\n            /* \"#utility.yul\":3268:3277   */\n          dup3\n            /* \"#utility.yul\":3264:3282   */\n          add\n            /* \"#utility.yul\":3256:3282   */\n          swap1\n          pop\n            /* \"#utility.yul\":3292:3363   */\n          tag_158\n            /* \"#utility.yul\":3360:3361   */\n          0x00\n            /* \"#utility.yul\":3349:3358   */\n          dup4\n            /* \"#utility.yul\":3345:3362   */\n          add\n            /* \"#utility.yul\":3336:3342   */\n          dup5\n            /* \"#utility.yul\":3292:3363   */\n          tag_147\n          jump\t// in\n        tag_158:\n            /* \"#utility.yul\":3148:3370   */\n          swap3\n          swap2\n          pop\n          pop\n          jump\t// out\n            /* \"#utility.yul\":3376:3590   */\n        tag_34:\n            /* \"#utility.yul\":3465:3469   */\n          0x00\n            /* \"#utility.yul\":3503:3505   */\n          0x20\n            /* \"#utility.yul\":3492:3501   */\n          dup3\n            /* \"#utility.yul\":3488:3506   */\n          add\n            /* \"#utility.yul\":3480:3506   */\n          swap1\n          pop\n            /* \"#utility.yul\":3516:3583   */\n          tag_160\n            /* \"#utility.yul\":3580:3581   */\n          0x00\n            /* \"#utility.yul\":3569:3578   */\n          dup4\n            /* \"#utility.yul\":3565:3582   */\n          add\n            /* \"#utility.yul\":3556:3562   */\n          dup5\n            /* \"#utility.yul\":3516:3583   */\n          tag_151\n          jump\t// in\n        tag_160:\n            /* \"#utility.yul\":3376:3590   */\n          swap3\n          swap2\n          pop\n          pop\n          jump\t// out\n            /* \"#utility.yul\":3677:3776   */\n        tag_140:\n            /* \"#utility.yul\":3729:3735   */\n          0x00\n            /* \"#utility.yul\":3763:3768   */\n          dup2\n            /* \"#utility.yul\":3757:3769   */\n          mload\n            /* \"#utility.yul\":3747:3769   */\n          swap1\n          pop\n            /* \"#utility.yul\":3677:3776   */\n          swap2\n          swap1\n          pop\n          jump\t// out\n            /* \"#utility.yul\":3782:3951   */\n        tag_142:\n            /* \"#utility.yul\":3866:3877   */\n          0x00\n            /* \"#utility.yul\":3900:3906   */\n          dup3\n            /* \"#utility.yul\":3895:3898   */\n          dup3\n            /* \"#utility.yul\":3888:3907   */\n          mstore\n            /* \"#utility.yul\":3940:3944   */\n          0x20\n            /* \"#utility.yul\":3935:3938   */\n          dup3\n            /* \"#utility.yul\":3931:3945   */\n          add\n            /* \"#utility.yul\":3916:3945   */\n          swap1\n          pop\n            /* \"#utility.yul\":3782:3951   */\n          swap3\n          swap2\n          pop\n          pop\n          jump\t// out\n            /* \"#utility.yul\":3957:4262   */\n        tag_89:\n            /* \"#utility.yul\":3997:4000   */\n          0x00\n            /* \"#utility.yul\":4016:4036   */\n          tag_166\n            /* \"#utility.yul\":4034:4035   */\n          dup3\n            /* \"#utility.yul\":4016:4036   */\n          tag_150\n          jump\t// in\n        tag_166:\n            /* \"#utility.yul\":4011:4036   */\n          swap2\n          pop\n            /* \"#utility.yul\":4050:4070   */\n          tag_167\n            /* \"#utility.yul\":4068:4069   */\n          dup4\n            /* \"#utility.yul\":4050:4070   */\n          tag_150\n          jump\t// in\n        tag_167:\n            /* \"#utility.yul\":4045:4070   */\n          swap3\n          pop\n            /* \"#utility.yul\":4204:4205   */\n          dup3\n            /* \"#utility.yul\":4136:4202   */\n          0xffffffffffffffffffffffffffffffffffffffffffffffffffffffffffffffff\n            /* \"#utility.yul\":4132:4206   */\n          sub\n            /* \"#utility.yul\":4129:4130   */\n          dup3\n            /* \"#utility.yul\":4126:4207   */\n          gt\n            /* \"#utility.yul\":4123:4230   */\n          iszero\n          tag_168\n          jumpi\n            /* \"#utility.yul\":4210:4228   */\n          tag_169\n          tag_170\n          jump\t// in\n        tag_169:\n            /* \"#utility.yul\":4123:4230   */\n        tag_168:\n            /* \"#utility.yul\":4254:4255   */\n          dup3\n            /* \"#utility.yul\":4251:4252   */\n          dup3\n            /* \"#utility.yul\":4247:4256   */\n          add\n            /* \"#utility.yul\":4240:4256   */\n          swap1\n          pop\n            /* \"#utility.yul\":3957:4262   */\n          swap3\n          swap2\n          pop\n          pop\n          jump\t// out\n            /* \"#utility.yul\":4268:4459   */\n        tag_106:\n            /* \"#utility.yul\":4308:4312   */\n          0x00\n            /* \"#utility.yul\":4328:4348   */\n          tag_172\n            /* \"#utility.yul\":4346:4347   */\n          dup3\n            /* \"#utility.yul\":4328:4348   */\n          tag_150\n          jump\t// in\n        tag_172:\n            /* \"#utility.yul\":4323:4348   */\n          swap2\n          pop\n            /* \"#utility.yul\":4362:4382   */\n          tag_173\n            /* \"#utility.yul\":4380:4381   */\n          dup4\n            /* \"#utility.yul\":4362:4382   */\n          tag_150\n          jump\t// in\n        tag_173:\n            /* \"#utility.yul\":4357:4382   */\n          swap3\n          pop\n            /* \"#utility.yul\":4401:4402   */\n          dup3\n            /* \"#utility.yul\":4398:4399   */\n          dup3\n            /* \"#utility.yul\":4395:4403   */\n          lt\n            /* \"#utility.yul\":4392:4426   */\n          iszero\n          tag_174\n          jumpi\n            /* \"#utility.yul\":4406:4424   */\n          tag_175\n          tag_170\n          jump\t// in\n        tag_175:\n            /* \"#utility.yul\":4392:4426   */\n        tag_174:\n            /* \"#utility.yul\":4451:4452   */\n          dup3\n            /* \"#utility.yul\":4448:4449   */\n          dup3\n            /* \"#utility.yul\":4444:4453   */\n          sub\n            /* \"#utility.yul\":4436:4453   */\n          swap1\n          pop\n            /* \"#utility.yul\":4268:4459   */\n          swap3\n          swap2\n          pop\n          pop\n          jump\t// out\n            /* \"#utility.yul\":4465:4561   */\n        tag_176:\n            /* \"#utility.yul\":4502:4509   */\n          0x00\n            /* \"#utility.yul\":4531:4555   */\n          tag_178\n            /* \"#utility.yul\":4549:4554   */\n          dup3\n            /* \"#utility.yul\":4531:4555   */\n          tag_179\n          jump\t// in\n        tag_178:\n            /* \"#utility.yul\":4520:4555   */\n          swap1\n          pop\n            /* \"#utility.yul\":4465:4561   */\n          swap2\n          swap1\n          pop\n          jump\t// out\n            /* \"#utility.yul\":4567:4693   */\n        tag_179:\n            /* \"#utility.yul\":4604:4611   */\n          0x00\n            /* \"#utility.yul\":4644:4686   */\n          0xffffffffffffffffffffffffffffffffffffffff\n            /* \"#utility.yul\":4637:4642   */\n          dup3\n            /* \"#utility.yul\":4633:4687   */\n          and\n            /* \"#utility.yul\":4622:4687   */\n          swap1\n          pop\n            /* \"#utility.yul\":4567:4693   */\n          swap2\n          swap1\n          pop\n          jump\t// out\n            /* \"#utility.yul\":4699:4776   */\n        tag_150:\n            /* \"#utility.yul\":4736:4743   */\n          0x00\n            /* \"#utility.yul\":4765:4770   */\n          dup2\n            /* \"#utility.yul\":4754:4770   */\n          swap1\n          pop\n            /* \"#utility.yul\":4699:4776   */\n          swap2\n          swap1\n          pop\n          jump\t// out\n            /* \"#utility.yul\":4782:4868   */\n        tag_154:\n            /* \"#utility.yul\":4817:4824   */\n          0x00\n            /* \"#utility.yul\":4857:4861   */\n          0xff\n            /* \"#utility.yul\":4850:4855   */\n          dup3\n            /* \"#utility.yul\":4846:4862   */\n          and\n            /* \"#utility.yul\":4835:4862   */\n          swap1\n          pop\n            /* \"#utility.yul\":4782:4868   */\n          swap2\n          swap1\n          pop\n          jump\t// out\n            /* \"#utility.yul\":4874:5181   */\n        tag_144:\n            /* \"#utility.yul\":4942:4943   */\n          0x00\n            /* \"#utility.yul\":4952:5065   */\n        tag_184:\n            /* \"#utility.yul\":4966:4972   */\n          dup4\n            /* \"#utility.yul\":4963:4964   */\n          dup2\n            /* \"#utility.yul\":4960:4973   */\n          lt\n            /* \"#utility.yul\":4952:5065   */\n          iszero\n          tag_186\n          jumpi\n            /* \"#utility.yul\":5051:5052   */\n          dup1\n            /* \"#utility.yul\":5046:5049   */\n          dup3\n            /* \"#utility.yul\":5042:5053   */\n          add\n            /* \"#utility.yul\":5036:5054   */\n          mload\n            /* \"#utility.yul\":5032:5033   */\n          dup2\n            /* \"#utility.yul\":5027:5030   */\n          dup5\n            /* \"#utility.yul\":5023:5034   */\n          add\n            /* \"#utility.yul\":5016:5055   */\n          mstore\n            /* \"#utility.yul\":4988:4990   */\n          0x20\n            /* \"#utility.yul\":4985:4986   */\n          dup2\n            /* \"#utility.yul\":4981:4991   */\n          add\n            /* \"#utility.yul\":4976:4991   */\n          swap1\n          pop\n            /* \"#utility.yul\":4952:5065   */\n          jump(tag_184)\n        tag_186:\n            /* \"#utility.yul\":5083:5089   */\n          dup4\n            /* \"#utility.yul\":5080:5081   */\n          dup2\n            /* \"#utility.yul\":5077:5090   */\n          gt\n            /* \"#utility.yul\":5074:5175   */\n          iszero\n          tag_187\n          jumpi\n            /* \"#utility.yul\":5163:5164   */\n          0x00\n            /* \"#utility.yul\":5154:5160   */\n          dup5\n            /* \"#utility.yul\":5149:5152   */\n          dup5\n            /* \"#utility.yul\":5145:5161   */\n          add\n            /* \"#utility.yul\":5138:5165   */\n          mstore\n            /* \"#utility.yul\":5074:5175   */\n        tag_187:\n            /* \"#utility.yul\":4923:5181   */\n          pop\n            /* \"#utility.yul\":4874:5181   */\n          pop\n          pop\n          pop\n          jump\t// out\n            /* \"#utility.yul\":5187:5507   */\n        tag_58:\n            /* \"#utility.yul\":5231:5237   */\n          0x00\n            /* \"#utility.yul\":5268:5269   */\n          0x02\n            /* \"#utility.yul\":5262:5266   */\n          dup3\n            /* \"#utility.yul\":5258:5270   */\n          div\n            /* \"#utility.yul\":5248:5270   */\n          swap1\n          pop\n            /* \"#utility.yul\":5315:5316   */\n          0x01\n            /* \"#utility.yul\":5309:5313   */\n          dup3\n            /* \"#utility.yul\":5305:5317   */\n          and\n            /* \"#utility.yul\":5336:5354   */\n          dup1\n            /* \"#utility.yul\":5326:5407   */\n          tag_189\n          jumpi\n            /* \"#utility.yul\":5392:5396   */\n          0x7f\n            /* \"#utility.yul\":5384:5390   */\n          dup3\n            /* \"#utility.yul\":5380:5397   */\n          and\n            /* \"#utility.yul\":5370:5397   */\n          swap2\n          pop\n            /* \"#utility.yul\":5326:5407   */\n        tag_189:\n            /* \"#utility.yul\":5454:5456   */\n          0x20\n            /* \"#utility.yul\":5446:5452   */\n          dup3\n            /* \"#utility.yul\":5443:5457   */\n          lt\n            /* \"#utility.yul\":5423:5441   */\n          dup2\n            /* \"#utility.yul\":5420:5458   */\n          eq\n            /* \"#utility.yul\":5417:5501   */\n          iszero\n          tag_190\n          jumpi\n            /* \"#utility.yul\":5473:5491   */\n          tag_191\n          tag_192\n          jump\t// in\n        tag_191:\n            /* \"#utility.yul\":5417:5501   */\n        tag_190:\n            /* \"#utility.yul\":5238:5507   */\n          pop\n            /* \"#utility.yul\":5187:5507   */\n          swap2\n          swap1\n          pop\n          jump\t// out\n            /* \"#utility.yul\":5513:5693   */\n        tag_92:\n            /* \"#utility.yul\":5561:5638   */\n          0x4e487b7100000000000000000000000000000000000000000000000000000000\n            /* \"#utility.yul\":5558:5559   */\n          0x00\n            /* \"#utility.yul\":5551:5639   */\n          mstore\n            /* \"#utility.yul\":5658:5662   */\n          0x01\n            /* \"#utility.yul\":5655:5656   */\n          0x04\n            /* \"#utility.yul\":5648:5663   */\n          mstore\n            /* \"#utility.yul\":5682:5686   */\n          0x24\n            /* \"#utility.yul\":5679:5680   */\n          0x00\n            /* \"#utility.yul\":5672:5687   */\n          revert\n            /* \"#utility.yul\":5699:5879   */\n        tag_170:\n            /* \"#utility.yul\":5747:5824   */\n          0x4e487b7100000000000000000000000000000000000000000000000000000000\n            /* \"#utility.yul\":5744:5745   */\n          0x00\n            /* \"#utility.yul\":5737:5825   */\n          mstore\n            /* \"#utility.yul\":5844:5848   */\n          0x11\n            /* \"#utility.yul\":5841:5842   */\n          0x04\n            /* \"#utility.yul\":5834:5849   */\n          mstore\n            /* \"#utility.yul\":5868:5872   */\n          0x24\n            /* \"#utility.yul\":5865:5866   */\n          0x00\n            /* \"#utility.yul\":5858:5873   */\n          revert\n            /* \"#utility.yul\":5885:6065   */\n        tag_192:\n            /* \"#utility.yul\":5933:6010   */\n          0x4e487b7100000000000000000000000000000000000000000000000000000000\n            /* \"#utility.yul\":5930:5931   */\n          0x00\n            /* \"#utility.yul\":5923:6011   */\n          mstore\n            /* \"#utility.yul\":6030:6034   */\n          0x22\n            /* \"#utility.yul\":6027:6028   */\n          0x04\n            /* \"#utility.yul\":6020:6035   */\n          mstore\n            /* \"#utility.yul\":6054:6058   */\n          0x24\n            /* \"#utility.yul\":6051:6052   */\n          0x00\n            /* \"#utility.yul\":6044:6059   */\n          revert\n            /* \"#utility.yul\":6194:6311   */\n        tag_119:\n            /* \"#utility.yul\":6303:6304   */\n          0x00\n            /* \"#utility.yul\":6300:6301   */\n          dup1\n            /* \"#utility.yul\":6293:6305   */\n          revert\n            /* \"#utility.yul\":6317:6419   */\n        tag_146:\n            /* \"#utility.yul\":6358:6364   */\n          0x00\n            /* \"#utility.yul\":6409:6411   */\n          0x1f\n            /* \"#utility.yul\":6405:6412   */\n          not\n            /* \"#utility.yul\":6400:6402   */\n          0x1f\n            /* \"#utility.yul\":6393:6398   */\n          dup4\n            /* \"#utility.yul\":6389:6403   */\n          add\n            /* \"#utility.yul\":6385:6413   */\n          and\n            /* \"#utility.yul\":6375:6413   */\n          swap1\n          pop\n            /* \"#utility.yul\":6317:6419   */\n          swap2\n          swap1\n          pop\n          jump\t// out\n            /* \"#utility.yul\":6425:6547   */\n        tag_111:\n            /* \"#utility.yul\":6498:6522   */\n          tag_201\n            /* \"#utility.yul\":6516:6521   */\n          dup2\n            /* \"#utility.yul\":6498:6522   */\n          tag_176\n          jump\t// in\n        tag_201:\n            /* \"#utility.yul\":6491:6496   */\n          dup2\n            /* \"#utility.yul\":6488:6523   */\n          eq\n            /* \"#utility.yul\":6478:6541   */\n          tag_202\n          jumpi\n            /* \"#utility.yul\":6537:6538   */\n          0x00\n            /* \"#utility.yul\":6534:6535   */\n          dup1\n            /* \"#utility.yul\":6527:6539   */\n          revert\n            /* \"#utility.yul\":6478:6541   */\n        tag_202:\n            /* \"#utility.yul\":6425:6547   */\n          pop\n          jump\t// out\n            /* \"#utility.yul\":6553:6675   */\n        tag_115:\n            /* \"#utility.yul\":6626:6650   */\n          tag_204\n            /* \"#utility.yul\":6644:6649   */\n          dup2\n            /* \"#utility.yul\":6626:6650   */\n          tag_150\n          jump\t// in\n        tag_204:\n            /* \"#utility.yul\":6619:6624   */\n          dup2\n            /* \"#utility.yul\":6616:6651   */\n          eq\n            /* \"#utility.yul\":6606:6669   */\n          tag_205\n          jumpi\n            /* \"#utility.yul\":6665:6666   */\n          0x00\n            /* \"#utility.yul\":6662:6663   */\n          dup1\n            /* \"#utility.yul\":6655:6667   */\n          revert\n            /* \"#utility.yul\":6606:6669   */\n        tag_205:\n            /* \"#utility.yul\":6553:6675   */\n          pop\n          jump\t// out\n\n        auxdata: 0xa2646970667358221220a450777fb2bd0f8c0cfa2fd2e102c9d2f6b248834152fcba41e6e08fd3f7b29164736f6c63430008070033\n    }\n}\n",
				"bytecode": {
					"linkReferences": {},
					"object": "60806040526040516200001290620000d3565b604051809103906000f0801580156200002f573d6000803e3d6000fd5b50600660006101000a81548173ffffffffffffffffffffffffffffffffffffffff021916908373ffffffffffffffffffffffffffffffffffffffff1602179055503480156200007d57600080fd5b50604051620024bc380380620024bc8339818101604052810190620000a3919062000226565b8260009080519060200190620000bb929190620000e1565b50816001819055508060028190555050505062000449565b610fcb80620014f183390190565b828054620000ef9062000340565b90600052602060002090601f0160209004810192826200011357600085556200015f565b82601f106200012e57805160ff19168380011785556200015f565b828001600101855582156200015f579182015b828111156200015e57825182559160200191906001019062000141565b5b5090506200016e919062000172565b5090565b5b808211156200018d57600081600090555060010162000173565b5090565b6000620001a8620001a284620002ca565b620002a1565b905082815260208101848484011115620001c757620001c66200040f565b5b620001d48482856200030a565b509392505050565b600082601f830112620001f457620001f36200040a565b5b81516200020684826020860162000191565b91505092915050565b60008151905062000220816200042f565b92915050565b60008060006060848603121562000242576200024162000419565b5b600084015167ffffffffffffffff81111562000263576200026262000414565b5b6200027186828701620001dc565b935050602062000284868287016200020f565b925050604062000297868287016200020f565b9150509250925092565b6000620002ad620002c0565b9050620002bb828262000376565b919050565b6000604051905090565b600067ffffffffffffffff821115620002e857620002e7620003db565b5b620002f3826200041e565b9050602081019050919050565b6000819050919050565b60005b838110156200032a5780820151818401526020810190506200030d565b838111156200033a576000848401525b50505050565b600060028204905060018216806200035957607f821691505b6020821081141562000370576200036f620003ac565b5b50919050565b62000381826200041e565b810181811067ffffffffffffffff82111715620003a357620003a2620003db565b5b80604052505050565b7f4e487b7100000000000000000000000000000000000000000000000000000000600052602260045260246000fd5b7f4e487b7100000000000000000000000000000000000000000000000000000000600052604160045260246000fd5b600080fd5b600080fd5b600080fd5b600080fd5b6000601f19601f8301169050919050565b6200043a8162000300565b81146200044657600080fd5b50565b61109880620004596000396000f3fe608060405234801561001057600080fd5b50600436106100935760003560e01c8063a90ea2ca11610066578063a90ea2ca1461010a578063b6a5d7de1461013a578063be9a655514610156578063e3b89d6414610174578063efbe1c1c1461019057610093565b806306fdde03146100985780630d86d7be146100b65780634d922a28146100d2578063611dae18146100ee575b600080fd5b6100a06101ae565b6040516100ad9190610c4c565b60405180910390f35b6100d060048036038101906100cb9190610aba565b61023c565b005b6100ec60048036038101906100e79190610a28565b61032f565b005b61010860048036038101906101039190610a71565b6103fe565b005b610124600480360381019061011f91906109fb565b6104da565b6040516101319190610c31565b60405180910390f35b610154600480360381019061014f91906109fb565b61058c565b005b61015e6105e0565b60405161016b9190610cae565b60405180910390f35b61018e600480360381019061018991906109fb565b6105e6565b005b610198610679565b6040516101a59190610cae565b60405180910390f35b600080546101bb90610e2f565b80601f01602080910402602001604051908101604052809291908181526020018280546101e790610e2f565b80156102345780601f1061020957610100808354040283529160200191610234565b820191906000526020600020905b81548152906001019060200180831161021757829003601f168201915b505050505081565b8160200151610280576040517f08c379a000000000000000000000000000000000000000000000000000000000815260040161027790610c6e565b60405180910390fd5b600660009054906101000a900473ffffffffffffffffffffffffffffffffffffffff1673ffffffffffffffffffffffffffffffffffffffff166323b872dd8360000151836000015160016040518463ffffffff1660e01b81526004016102e893929190610bd1565b600060405180830381600087803b15801561030257600080fd5b505af1158015610316573d6000803e3d6000fd5b5050505060018260200190151590811515815250505050565b60005b81518110156103fa5760058282815181106103505761034f610f39565b5b6020026020010151908060018154018082558091505060019003906000526020600020906002020160009091909190915060008201518160000160006101000a81548173ffffffffffffffffffffffffffffffffffffffff021916908373ffffffffffffffffffffffffffffffffffffffff16021790555060208201518160010190805190602001906103e492919061067f565b50505080806103f290610e92565b915050610332565b5050565b60005b81518110156104d657600482828151811061041f5761041e610f39565b5b6020026020010151908060018154018082558091505060019003906000526020600020906002020160009091909190915060008201518160000160006101000a81548173ffffffffffffffffffffffffffffffffffffffff021916908373ffffffffffffffffffffffffffffffffffffffff16021790555060208201518160000160146101000a81548160ff02191690831515021790555060408201518160010155505080806104ce90610e92565b915050610401565b5050565b6000806000905060005b600480549050811015610582576004818154811061050557610504610f39565b5b906000526020600020906002020160000160009054906101000a900473ffffffffffffffffffffffffffffffffffffffff1673ffffffffffffffffffffffffffffffffffffffff168473ffffffffffffffffffffffffffffffffffffffff16141561056f57600191505b808061057a90610e92565b9150506104e4565b5080915050919050565b610595816104da565b6105d4576040517f08c379a00000000000000000000000000000000000000000000000000000000081526004016105cb90610c8e565b60405180910390fd5b6105dd816105e6565b50565b60015481565b600660009054906101000a900473ffffffffffffffffffffffffffffffffffffffff1673ffffffffffffffffffffffffffffffffffffffff166340c10f198260016040518363ffffffff1660e01b8152600401610644929190610c08565b600060405180830381600087803b15801561065e57600080fd5b505af1158015610672573d6000803e3d6000fd5b5050505050565b60025481565b82805461068b90610e2f565b90600052602060002090601f0160209004810192826106ad57600085556106f4565b82601f106106c657805160ff19168380011785556106f4565b828001600101855582156106f4579182015b828111156106f35782518255916020019190600101906106d8565b5b5090506107019190610705565b5090565b5b8082111561071e576000816000905550600101610706565b5090565b600061073561073084610cee565b610cc9565b9050808382526020820190508285602086028201111561075857610757610fa6565b5b60005b858110156107a657813567ffffffffffffffff81111561077e5761077d610f97565b5b80860161078b8982610916565b8552602085019450602084019350505060018101905061075b565b5050509392505050565b60006107c36107be84610d1a565b610cc9565b905080838252602082019050828560608602820111156107e6576107e5610fa6565b5b60005b8581101561081657816107fc8882610982565b8452602084019350606083019250506001810190506107e9565b5050509392505050565b600061083361082e84610d46565b610cc9565b90508281526020810184848401111561084f5761084e610fab565b5b61085a848285610ded565b509392505050565b6000813590506108718161101d565b92915050565b600082601f83011261088c5761088b610f97565b5b813561089c848260208601610722565b91505092915050565b600082601f8301126108ba576108b9610f97565b5b81356108ca8482602086016107b0565b91505092915050565b6000813590506108e281611034565b92915050565b600082601f8301126108fd576108fc610f97565b5b813561090d848260208601610820565b91505092915050565b60006040828403121561092c5761092b610f9c565b5b6109366040610cc9565b9050600061094684828501610862565b600083015250602082013567ffffffffffffffff81111561096a57610969610fa1565b5b610976848285016108e8565b60208301525092915050565b60006060828403121561099857610997610f9c565b5b6109a26060610cc9565b905060006109b284828501610862565b60008301525060206109c6848285016108d3565b60208301525060406109da848285016109e6565b60408301525092915050565b6000813590506109f58161104b565b92915050565b600060208284031215610a1157610a10610fb5565b5b6000610a1f84828501610862565b91505092915050565b600060208284031215610a3e57610a3d610fb5565b5b600082013567ffffffffffffffff811115610a5c57610a5b610fb0565b5b610a6884828501610877565b91505092915050565b600060208284031215610a8757610a86610fb5565b5b600082013567ffffffffffffffff811115610aa557610aa4610fb0565b5b610ab1848285016108a5565b91505092915050565b60008060808385031215610ad157610ad0610fb5565b5b6000610adf85828601610982565b925050606083013567ffffffffffffffff811115610b0057610aff610fb0565b5b610b0c85828601610916565b9150509250929050565b610b1f81610d93565b82525050565b610b2e81610da5565b82525050565b610b3d81610ddb565b82525050565b6000610b4e82610d77565b610b588185610d82565b9350610b68818560208601610dfc565b610b7181610fba565b840191505092915050565b6000610b89600e83610d82565b9150610b9482610fcb565b602082019050919050565b6000610bac601483610d82565b9150610bb782610ff4565b602082019050919050565b610bcb81610dd1565b82525050565b6000606082019050610be66000830186610b16565b610bf36020830185610b16565b610c006040830184610b34565b949350505050565b6000604082019050610c1d6000830185610b16565b610c2a6020830184610b34565b9392505050565b6000602082019050610c466000830184610b25565b92915050565b60006020820190508181036000830152610c668184610b43565b905092915050565b60006020820190508181036000830152610c8781610b7c565b9050919050565b60006020820190508181036000830152610ca781610b9f565b9050919050565b6000602082019050610cc36000830184610bc2565b92915050565b6000610cd3610ce4565b9050610cdf8282610e61565b919050565b6000604051905090565b600067ffffffffffffffff821115610d0957610d08610f68565b5b602082029050602081019050919050565b600067ffffffffffffffff821115610d3557610d34610f68565b5b602082029050602081019050919050565b600067ffffffffffffffff821115610d6157610d60610f68565b5b610d6a82610fba565b9050602081019050919050565b600081519050919050565b600082825260208201905092915050565b6000610d9e82610db1565b9050919050565b60008115159050919050565b600073ffffffffffffffffffffffffffffffffffffffff82169050919050565b6000819050919050565b6000610de682610dd1565b9050919050565b82818337600083830152505050565b60005b83811015610e1a578082015181840152602081019050610dff565b83811115610e29576000848401525b50505050565b60006002820490506001821680610e4757607f821691505b60208210811415610e5b57610e5a610f0a565b5b50919050565b610e6a82610fba565b810181811067ffffffffffffffff82111715610e8957610e88610f68565b5b80604052505050565b6000610e9d82610dd1565b91507fffffffffffffffffffffffffffffffffffffffffffffffffffffffffffffffff821415610ed057610ecf610edb565b5b600182019050919050565b7f4e487b7100000000000000000000000000000000000000000000000000000000600052601160045260246000fd5b7f4e487b7100000000000000000000000000000000000000000000000000000000600052602260045260246000fd5b7f4e487b7100000000000000000000000000000000000000000000000000000000600052603260045260246000fd5b7f4e487b7100000000000000000000000000000000000000000000000000000000600052604160045260246000fd5b600080fd5b600080fd5b600080fd5b600080fd5b600080fd5b600080fd5b600080fd5b6000601f19601f8301169050919050565b7f416c726561647920766f7465642e000000000000000000000000000000000000600082015250565b7f566f74657220646f65736e27742065786973742e000000000000000000000000600082015250565b61102681610d93565b811461103157600080fd5b50565b61103d81610da5565b811461104857600080fd5b50565b61105481610dd1565b811461105f57600080fd5b5056fea2646970667358221220a756823aa7eef20475950d945a2ae71ac152ea60320956338ff5050f6714c49f64736f6c63430008070033608060405234801561001057600080fd5b50610fab806100206000396000f3fe608060405234801561001057600080fd5b50600436106100a95760003560e01c806340c10f191161007157806340c10f191461014057806354fd4d501461015c57806370a082311461017a57806395d89b41146101aa578063a9059cbb146101c8578063dd62ed3e146101e4576100a9565b806306fdde03146100ae578063095ea7b3146100cc57806318160ddd146100e857806323b872dd14610106578063313ce56714610122575b600080fd5b6100b6610214565b6040516100c39190610cf8565b60405180910390f35b6100e660048036038101906100e19190610c61565b6102a2565b005b6100f061038c565b6040516100fd9190610d1a565b60405180910390f35b610120600480360381019061011b9190610c0e565b610392565b005b61012a610715565b6040516101379190610d35565b60405180910390f35b61015a60048036038101906101559190610c61565b610728565b005b61016461072c565b6040516101719190610cf8565b60405180910390f35b610194600480360381019061018f9190610ba1565b6107ba565b6040516101a19190610d1a565b60405180910390f35b6101b2610803565b6040516101bf9190610cf8565b60405180910390f35b6101e260048036038101906101dd9190610c61565b610891565b005b6101fe60048036038101906101f99190610bce565b610a9f565b60405161020b9190610d1a565b60405180910390f35b6001805461022190610e72565b80601f016020809104026020016040519081016040528092919081815260200182805461024d90610e72565b801561029a5780601f1061026f5761010080835404028352916020019161029a565b820191906000526020600020905b81548152906001019060200180831161027d57829003601f168201915b505050505081565b80600660003373ffffffffffffffffffffffffffffffffffffffff1673ffffffffffffffffffffffffffffffffffffffff16815260200190815260200160002060008473ffffffffffffffffffffffffffffffffffffffff1673ffffffffffffffffffffffffffffffffffffffff168152602001908152602001600020819055508173ffffffffffffffffffffffffffffffffffffffff163373ffffffffffffffffffffffffffffffffffffffff167f8c5be1e5ebec7d5bd14f71427d1e84f3dd0314c0f7b2291e5b200ac8c7c3b925836040516103809190610d1a565b60405180910390a35050565b60005481565b80600560008573ffffffffffffffffffffffffffffffffffffffff1673ffffffffffffffffffffffffffffffffffffffff168152602001908152602001600020541015801561045d575080600660008573ffffffffffffffffffffffffffffffffffffffff1673ffffffffffffffffffffffffffffffffffffffff16815260200190815260200160002060003373ffffffffffffffffffffffffffffffffffffffff1673ffffffffffffffffffffffffffffffffffffffff1681526020019081526020016000205410155b80156104695750600081115b61047257600080fd5b6104c481600560008573ffffffffffffffffffffffffffffffffffffffff1673ffffffffffffffffffffffffffffffffffffffff16815260200190815260200160002054610b2690919063ffffffff16565b600560008473ffffffffffffffffffffffffffffffffffffffff1673ffffffffffffffffffffffffffffffffffffffff1681526020019081526020016000208190555061055981600560008673ffffffffffffffffffffffffffffffffffffffff1673ffffffffffffffffffffffffffffffffffffffff16815260200190815260200160002054610b4e90919063ffffffff16565b600560008573ffffffffffffffffffffffffffffffffffffffff1673ffffffffffffffffffffffffffffffffffffffff1681526020019081526020016000208190555061062b81600660008673ffffffffffffffffffffffffffffffffffffffff1673ffffffffffffffffffffffffffffffffffffffff16815260200190815260200160002060003373ffffffffffffffffffffffffffffffffffffffff1673ffffffffffffffffffffffffffffffffffffffff16815260200190815260200160002054610b4e90919063ffffffff16565b600660008573ffffffffffffffffffffffffffffffffffffffff1673ffffffffffffffffffffffffffffffffffffffff16815260200190815260200160002060003373ffffffffffffffffffffffffffffffffffffffff1673ffffffffffffffffffffffffffffffffffffffff168152602001908152602001600020819055508173ffffffffffffffffffffffffffffffffffffffff168373ffffffffffffffffffffffffffffffffffffffff167fddf252ad1be2c89b69c2b068fc378daa952ba7f163c4a11628f55a4df523b3ef836040516107089190610d1a565b60405180910390a3505050565b600260009054906101000a900460ff1681565b5050565b6004805461073990610e72565b80601f016020809104026020016040519081016040528092919081815260200182805461076590610e72565b80156107b25780601f10610787576101008083540402835291602001916107b2565b820191906000526020600020905b81548152906001019060200180831161079557829003601f168201915b505050505081565b6000600560008373ffffffffffffffffffffffffffffffffffffffff1673ffffffffffffffffffffffffffffffffffffffff168152602001908152602001600020549050919050565b6003805461081090610e72565b80601f016020809104026020016040519081016040528092919081815260200182805461083c90610e72565b80156108895780601f1061085e57610100808354040283529160200191610889565b820191906000526020600020905b81548152906001019060200180831161086c57829003601f168201915b505050505081565b60406004816108a09190610d6c565b6000369050146108b3576108b2610ea4565b5b81600560003373ffffffffffffffffffffffffffffffffffffffff1673ffffffffffffffffffffffffffffffffffffffff16815260200190815260200160002054101580156109025750600082115b61090b57600080fd5b61095d82600560003373ffffffffffffffffffffffffffffffffffffffff1673ffffffffffffffffffffffffffffffffffffffff16815260200190815260200160002054610b4e90919063ffffffff16565b600560003373ffffffffffffffffffffffffffffffffffffffff1673ffffffffffffffffffffffffffffffffffffffff168152602001908152602001600020819055506109f282600560008673ffffffffffffffffffffffffffffffffffffffff1673ffffffffffffffffffffffffffffffffffffffff16815260200190815260200160002054610b2690919063ffffffff16565b600560008573ffffffffffffffffffffffffffffffffffffffff1673ffffffffffffffffffffffffffffffffffffffff168152602001908152602001600020819055508273ffffffffffffffffffffffffffffffffffffffff163373ffffffffffffffffffffffffffffffffffffffff167fddf252ad1be2c89b69c2b068fc378daa952ba7f163c4a11628f55a4df523b3ef84604051610a929190610d1a565b60405180910390a3505050565b6000600660008373ffffffffffffffffffffffffffffffffffffffff1673ffffffffffffffffffffffffffffffffffffffff16815260200190815260200160002060008473ffffffffffffffffffffffffffffffffffffffff1673ffffffffffffffffffffffffffffffffffffffff16815260200190815260200160002054905092915050565b6000808284610b359190610d6c565b905083811015610b4457600080fd5b8091505092915050565b600082821115610b5d57600080fd5b60008284610b6b9190610dc2565b90508091505092915050565b600081359050610b8681610f47565b92915050565b600081359050610b9b81610f5e565b92915050565b600060208284031215610bb757610bb6610f31565b5b6000610bc584828501610b77565b91505092915050565b60008060408385031215610be557610be4610f31565b5b6000610bf385828601610b77565b9250506020610c0485828601610b77565b9150509250929050565b600080600060608486031215610c2757610c26610f31565b5b6000610c3586828701610b77565b9350506020610c4686828701610b77565b9250506040610c5786828701610b8c565b9150509250925092565b60008060408385031215610c7857610c77610f31565b5b6000610c8685828601610b77565b9250506020610c9785828601610b8c565b9150509250929050565b6000610cac82610d50565b610cb68185610d5b565b9350610cc6818560208601610e3f565b610ccf81610f36565b840191505092915050565b610ce381610e28565b82525050565b610cf281610e32565b82525050565b60006020820190508181036000830152610d128184610ca1565b905092915050565b6000602082019050610d2f6000830184610cda565b92915050565b6000602082019050610d4a6000830184610ce9565b92915050565b600081519050919050565b600082825260208201905092915050565b6000610d7782610e28565b9150610d8283610e28565b9250827fffffffffffffffffffffffffffffffffffffffffffffffffffffffffffffffff03821115610db757610db6610ed3565b5b828201905092915050565b6000610dcd82610e28565b9150610dd883610e28565b925082821015610deb57610dea610ed3565b5b828203905092915050565b6000610e0182610e08565b9050919050565b600073ffffffffffffffffffffffffffffffffffffffff82169050919050565b6000819050919050565b600060ff82169050919050565b60005b83811015610e5d578082015181840152602081019050610e42565b83811115610e6c576000848401525b50505050565b60006002820490506001821680610e8a57607f821691505b60208210811415610e9e57610e9d610f02565b5b50919050565b7f4e487b7100000000000000000000000000000000000000000000000000000000600052600160045260246000fd5b7f4e487b7100000000000000000000000000000000000000000000000000000000600052601160045260246000fd5b7f4e487b7100000000000000000000000000000000000000000000000000000000600052602260045260246000fd5b600080fd5b6000601f19601f8301169050919050565b610f5081610df6565b8114610f5b57600080fd5b50565b610f6781610e28565b8114610f7257600080fd5b5056fea2646970667358221220a450777fb2bd0f8c0cfa2fd2e102c9d2f6b248834152fcba41e6e08fd3f7b29164736f6c63430008070033",
					"opcodes": "PUSH1 0x80 PUSH1 0x40 MSTORE PUSH1 0x40 MLOAD PUSH3 0x12 SWAP1 PUSH3 0xD3 JUMP JUMPDEST PUSH1 0x40 MLOAD DUP1 SWAP2 SUB SWAP1 PUSH1 0x0 CREATE DUP1 ISZERO DUP1 ISZERO PUSH3 0x2F JUMPI RETURNDATASIZE PUSH1 0x0 DUP1 RETURNDATACOPY RETURNDATASIZE PUSH1 0x0 REVERT JUMPDEST POP PUSH1 0x6 PUSH1 0x0 PUSH2 0x100 EXP DUP2 SLOAD DUP2 PUSH20 0xFFFFFFFFFFFFFFFFFFFFFFFFFFFFFFFFFFFFFFFF MUL NOT AND SWAP1 DUP4 PUSH20 0xFFFFFFFFFFFFFFFFFFFFFFFFFFFFFFFFFFFFFFFF AND MUL OR SWAP1 SSTORE POP CALLVALUE DUP1 ISZERO PUSH3 0x7D JUMPI PUSH1 0x0 DUP1 REVERT JUMPDEST POP PUSH1 0x40 MLOAD PUSH3 0x24BC CODESIZE SUB DUP1 PUSH3 0x24BC DUP4 CODECOPY DUP2 DUP2 ADD PUSH1 0x40 MSTORE DUP2 ADD SWAP1 PUSH3 0xA3 SWAP2 SWAP1 PUSH3 0x226 JUMP JUMPDEST DUP3 PUSH1 0x0 SWAP1 DUP1 MLOAD SWAP1 PUSH1 0x20 ADD SWAP1 PUSH3 0xBB SWAP3 SWAP2 SWAP1 PUSH3 0xE1 JUMP JUMPDEST POP DUP2 PUSH1 0x1 DUP2 SWAP1 SSTORE POP DUP1 PUSH1 0x2 DUP2 SWAP1 SSTORE POP POP POP POP PUSH3 0x449 JUMP JUMPDEST PUSH2 0xFCB DUP1 PUSH3 0x14F1 DUP4 CODECOPY ADD SWAP1 JUMP JUMPDEST DUP3 DUP1 SLOAD PUSH3 0xEF SWAP1 PUSH3 0x340 JUMP JUMPDEST SWAP1 PUSH1 0x0 MSTORE PUSH1 0x20 PUSH1 0x0 KECCAK256 SWAP1 PUSH1 0x1F ADD PUSH1 0x20 SWAP1 DIV DUP2 ADD SWAP3 DUP3 PUSH3 0x113 JUMPI PUSH1 0x0 DUP6 SSTORE PUSH3 0x15F JUMP JUMPDEST DUP3 PUSH1 0x1F LT PUSH3 0x12E JUMPI DUP1 MLOAD PUSH1 0xFF NOT AND DUP4 DUP1 ADD OR DUP6 SSTORE PUSH3 0x15F JUMP JUMPDEST DUP3 DUP1 ADD PUSH1 0x1 ADD DUP6 SSTORE DUP3 ISZERO PUSH3 0x15F JUMPI SWAP2 DUP3 ADD JUMPDEST DUP3 DUP2 GT ISZERO PUSH3 0x15E JUMPI DUP3 MLOAD DUP3 SSTORE SWAP2 PUSH1 0x20 ADD SWAP2 SWAP1 PUSH1 0x1 ADD SWAP1 PUSH3 0x141 JUMP JUMPDEST JUMPDEST POP SWAP1 POP PUSH3 0x16E SWAP2 SWAP1 PUSH3 0x172 JUMP JUMPDEST POP SWAP1 JUMP JUMPDEST JUMPDEST DUP1 DUP3 GT ISZERO PUSH3 0x18D JUMPI PUSH1 0x0 DUP2 PUSH1 0x0 SWAP1 SSTORE POP PUSH1 0x1 ADD PUSH3 0x173 JUMP JUMPDEST POP SWAP1 JUMP JUMPDEST PUSH1 0x0 PUSH3 0x1A8 PUSH3 0x1A2 DUP5 PUSH3 0x2CA JUMP JUMPDEST PUSH3 0x2A1 JUMP JUMPDEST SWAP1 POP DUP3 DUP2 MSTORE PUSH1 0x20 DUP2 ADD DUP5 DUP5 DUP5 ADD GT ISZERO PUSH3 0x1C7 JUMPI PUSH3 0x1C6 PUSH3 0x40F JUMP JUMPDEST JUMPDEST PUSH3 0x1D4 DUP5 DUP3 DUP6 PUSH3 0x30A JUMP JUMPDEST POP SWAP4 SWAP3 POP POP POP JUMP JUMPDEST PUSH1 0x0 DUP3 PUSH1 0x1F DUP4 ADD SLT PUSH3 0x1F4 JUMPI PUSH3 0x1F3 PUSH3 0x40A JUMP JUMPDEST JUMPDEST DUP2 MLOAD PUSH3 0x206 DUP5 DUP3 PUSH1 0x20 DUP7 ADD PUSH3 0x191 JUMP JUMPDEST SWAP2 POP POP SWAP3 SWAP2 POP POP JUMP JUMPDEST PUSH1 0x0 DUP2 MLOAD SWAP1 POP PUSH3 0x220 DUP2 PUSH3 0x42F JUMP JUMPDEST SWAP3 SWAP2 POP POP JUMP JUMPDEST PUSH1 0x0 DUP1 PUSH1 0x0 PUSH1 0x60 DUP5 DUP7 SUB SLT ISZERO PUSH3 0x242 JUMPI PUSH3 0x241 PUSH3 0x419 JUMP JUMPDEST JUMPDEST PUSH1 0x0 DUP5 ADD MLOAD PUSH8 0xFFFFFFFFFFFFFFFF DUP2 GT ISZERO PUSH3 0x263 JUMPI PUSH3 0x262 PUSH3 0x414 JUMP JUMPDEST JUMPDEST PUSH3 0x271 DUP7 DUP3 DUP8 ADD PUSH3 0x1DC JUMP JUMPDEST SWAP4 POP POP PUSH1 0x20 PUSH3 0x284 DUP7 DUP3 DUP8 ADD PUSH3 0x20F JUMP JUMPDEST SWAP3 POP POP PUSH1 0x40 PUSH3 0x297 DUP7 DUP3 DUP8 ADD PUSH3 0x20F JUMP JUMPDEST SWAP2 POP POP SWAP3 POP SWAP3 POP SWAP3 JUMP JUMPDEST PUSH1 0x0 PUSH3 0x2AD PUSH3 0x2C0 JUMP JUMPDEST SWAP1 POP PUSH3 0x2BB DUP3 DUP3 PUSH3 0x376 JUMP JUMPDEST SWAP2 SWAP1 POP JUMP JUMPDEST PUSH1 0x0 PUSH1 0x40 MLOAD SWAP1 POP SWAP1 JUMP JUMPDEST PUSH1 0x0 PUSH8 0xFFFFFFFFFFFFFFFF DUP3 GT ISZERO PUSH3 0x2E8 JUMPI PUSH3 0x2E7 PUSH3 0x3DB JUMP JUMPDEST JUMPDEST PUSH3 0x2F3 DUP3 PUSH3 0x41E JUMP JUMPDEST SWAP1 POP PUSH1 0x20 DUP2 ADD SWAP1 POP SWAP2 SWAP1 POP JUMP JUMPDEST PUSH1 0x0 DUP2 SWAP1 POP SWAP2 SWAP1 POP JUMP JUMPDEST PUSH1 0x0 JUMPDEST DUP4 DUP2 LT ISZERO PUSH3 0x32A JUMPI DUP1 DUP3 ADD MLOAD DUP2 DUP5 ADD MSTORE PUSH1 0x20 DUP2 ADD SWAP1 POP PUSH3 0x30D JUMP JUMPDEST DUP4 DUP2 GT ISZERO PUSH3 0x33A JUMPI PUSH1 0x0 DUP5 DUP5 ADD MSTORE JUMPDEST POP POP POP POP JUMP JUMPDEST PUSH1 0x0 PUSH1 0x2 DUP3 DIV SWAP1 POP PUSH1 0x1 DUP3 AND DUP1 PUSH3 0x359 JUMPI PUSH1 0x7F DUP3 AND SWAP2 POP JUMPDEST PUSH1 0x20 DUP3 LT DUP2 EQ ISZERO PUSH3 0x370 JUMPI PUSH3 0x36F PUSH3 0x3AC JUMP JUMPDEST JUMPDEST POP SWAP2 SWAP1 POP JUMP JUMPDEST PUSH3 0x381 DUP3 PUSH3 0x41E JUMP JUMPDEST DUP2 ADD DUP2 DUP2 LT PUSH8 0xFFFFFFFFFFFFFFFF DUP3 GT OR ISZERO PUSH3 0x3A3 JUMPI PUSH3 0x3A2 PUSH3 0x3DB JUMP JUMPDEST JUMPDEST DUP1 PUSH1 0x40 MSTORE POP POP POP JUMP JUMPDEST PUSH32 0x4E487B7100000000000000000000000000000000000000000000000000000000 PUSH1 0x0 MSTORE PUSH1 0x22 PUSH1 0x4 MSTORE PUSH1 0x24 PUSH1 0x0 REVERT JUMPDEST PUSH32 0x4E487B7100000000000000000000000000000000000000000000000000000000 PUSH1 0x0 MSTORE PUSH1 0x41 PUSH1 0x4 MSTORE PUSH1 0x24 PUSH1 0x0 REVERT JUMPDEST PUSH1 0x0 DUP1 REVERT JUMPDEST PUSH1 0x0 DUP1 REVERT JUMPDEST PUSH1 0x0 DUP1 REVERT JUMPDEST PUSH1 0x0 DUP1 REVERT JUMPDEST PUSH1 0x0 PUSH1 0x1F NOT PUSH1 0x1F DUP4 ADD AND SWAP1 POP SWAP2 SWAP1 POP JUMP JUMPDEST PUSH3 0x43A DUP2 PUSH3 0x300 JUMP JUMPDEST DUP2 EQ PUSH3 0x446 JUMPI PUSH1 0x0 DUP1 REVERT JUMPDEST POP JUMP JUMPDEST PUSH2 0x1098 DUP1 PUSH3 0x459 PUSH1 0x0 CODECOPY PUSH1 0x0 RETURN INVALID PUSH1 0x80 PUSH1 0x40 MSTORE CALLVALUE DUP1 ISZERO PUSH2 0x10 JUMPI PUSH1 0x0 DUP1 REVERT JUMPDEST POP PUSH1 0x4 CALLDATASIZE LT PUSH2 0x93 JUMPI PUSH1 0x0 CALLDATALOAD PUSH1 0xE0 SHR DUP1 PUSH4 0xA90EA2CA GT PUSH2 0x66 JUMPI DUP1 PUSH4 0xA90EA2CA EQ PUSH2 0x10A JUMPI DUP1 PUSH4 0xB6A5D7DE EQ PUSH2 0x13A JUMPI DUP1 PUSH4 0xBE9A6555 EQ PUSH2 0x156 JUMPI DUP1 PUSH4 0xE3B89D64 EQ PUSH2 0x174 JUMPI DUP1 PUSH4 0xEFBE1C1C EQ PUSH2 0x190 JUMPI PUSH2 0x93 JUMP JUMPDEST DUP1 PUSH4 0x6FDDE03 EQ PUSH2 0x98 JUMPI DUP1 PUSH4 0xD86D7BE EQ PUSH2 0xB6 JUMPI DUP1 PUSH4 0x4D922A28 EQ PUSH2 0xD2 JUMPI DUP1 PUSH4 0x611DAE18 EQ PUSH2 0xEE JUMPI JUMPDEST PUSH1 0x0 DUP1 REVERT JUMPDEST PUSH2 0xA0 PUSH2 0x1AE JUMP JUMPDEST PUSH1 0x40 MLOAD PUSH2 0xAD SWAP2 SWAP1 PUSH2 0xC4C JUMP JUMPDEST PUSH1 0x40 MLOAD DUP1 SWAP2 SUB SWAP1 RETURN JUMPDEST PUSH2 0xD0 PUSH1 0x4 DUP1 CALLDATASIZE SUB DUP2 ADD SWAP1 PUSH2 0xCB SWAP2 SWAP1 PUSH2 0xABA JUMP JUMPDEST PUSH2 0x23C JUMP JUMPDEST STOP JUMPDEST PUSH2 0xEC PUSH1 0x4 DUP1 CALLDATASIZE SUB DUP2 ADD SWAP1 PUSH2 0xE7 SWAP2 SWAP1 PUSH2 0xA28 JUMP JUMPDEST PUSH2 0x32F JUMP JUMPDEST STOP JUMPDEST PUSH2 0x108 PUSH1 0x4 DUP1 CALLDATASIZE SUB DUP2 ADD SWAP1 PUSH2 0x103 SWAP2 SWAP1 PUSH2 0xA71 JUMP JUMPDEST PUSH2 0x3FE JUMP JUMPDEST STOP JUMPDEST PUSH2 0x124 PUSH1 0x4 DUP1 CALLDATASIZE SUB DUP2 ADD SWAP1 PUSH2 0x11F SWAP2 SWAP1 PUSH2 0x9FB JUMP JUMPDEST PUSH2 0x4DA JUMP JUMPDEST PUSH1 0x40 MLOAD PUSH2 0x131 SWAP2 SWAP1 PUSH2 0xC31 JUMP JUMPDEST PUSH1 0x40 MLOAD DUP1 SWAP2 SUB SWAP1 RETURN JUMPDEST PUSH2 0x154 PUSH1 0x4 DUP1 CALLDATASIZE SUB DUP2 ADD SWAP1 PUSH2 0x14F SWAP2 SWAP1 PUSH2 0x9FB JUMP JUMPDEST PUSH2 0x58C JUMP JUMPDEST STOP JUMPDEST PUSH2 0x15E PUSH2 0x5E0 JUMP JUMPDEST PUSH1 0x40 MLOAD PUSH2 0x16B SWAP2 SWAP1 PUSH2 0xCAE JUMP JUMPDEST PUSH1 0x40 MLOAD DUP1 SWAP2 SUB SWAP1 RETURN JUMPDEST PUSH2 0x18E PUSH1 0x4 DUP1 CALLDATASIZE SUB DUP2 ADD SWAP1 PUSH2 0x189 SWAP2 SWAP1 PUSH2 0x9FB JUMP JUMPDEST PUSH2 0x5E6 JUMP JUMPDEST STOP JUMPDEST PUSH2 0x198 PUSH2 0x679 JUMP JUMPDEST PUSH1 0x40 MLOAD PUSH2 0x1A5 SWAP2 SWAP1 PUSH2 0xCAE JUMP JUMPDEST PUSH1 0x40 MLOAD DUP1 SWAP2 SUB SWAP1 RETURN JUMPDEST PUSH1 0x0 DUP1 SLOAD PUSH2 0x1BB SWAP1 PUSH2 0xE2F JUMP JUMPDEST DUP1 PUSH1 0x1F ADD PUSH1 0x20 DUP1 SWAP2 DIV MUL PUSH1 0x20 ADD PUSH1 0x40 MLOAD SWAP1 DUP2 ADD PUSH1 0x40 MSTORE DUP1 SWAP3 SWAP2 SWAP1 DUP2 DUP2 MSTORE PUSH1 0x20 ADD DUP3 DUP1 SLOAD PUSH2 0x1E7 SWAP1 PUSH2 0xE2F JUMP JUMPDEST DUP1 ISZERO PUSH2 0x234 JUMPI DUP1 PUSH1 0x1F LT PUSH2 0x209 JUMPI PUSH2 0x100 DUP1 DUP4 SLOAD DIV MUL DUP4 MSTORE SWAP2 PUSH1 0x20 ADD SWAP2 PUSH2 0x234 JUMP JUMPDEST DUP3 ADD SWAP2 SWAP1 PUSH1 0x0 MSTORE PUSH1 0x20 PUSH1 0x0 KECCAK256 SWAP1 JUMPDEST DUP2 SLOAD DUP2 MSTORE SWAP1 PUSH1 0x1 ADD SWAP1 PUSH1 0x20 ADD DUP1 DUP4 GT PUSH2 0x217 JUMPI DUP3 SWAP1 SUB PUSH1 0x1F AND DUP3 ADD SWAP2 JUMPDEST POP POP POP POP POP DUP2 JUMP JUMPDEST DUP2 PUSH1 0x20 ADD MLOAD PUSH2 0x280 JUMPI PUSH1 0x40 MLOAD PUSH32 0x8C379A000000000000000000000000000000000000000000000000000000000 DUP2 MSTORE PUSH1 0x4 ADD PUSH2 0x277 SWAP1 PUSH2 0xC6E JUMP JUMPDEST PUSH1 0x40 MLOAD DUP1 SWAP2 SUB SWAP1 REVERT JUMPDEST PUSH1 0x6 PUSH1 0x0 SWAP1 SLOAD SWAP1 PUSH2 0x100 EXP SWAP1 DIV PUSH20 0xFFFFFFFFFFFFFFFFFFFFFFFFFFFFFFFFFFFFFFFF AND PUSH20 0xFFFFFFFFFFFFFFFFFFFFFFFFFFFFFFFFFFFFFFFF AND PUSH4 0x23B872DD DUP4 PUSH1 0x0 ADD MLOAD DUP4 PUSH1 0x0 ADD MLOAD PUSH1 0x1 PUSH1 0x40 MLOAD DUP5 PUSH4 0xFFFFFFFF AND PUSH1 0xE0 SHL DUP2 MSTORE PUSH1 0x4 ADD PUSH2 0x2E8 SWAP4 SWAP3 SWAP2 SWAP1 PUSH2 0xBD1 JUMP JUMPDEST PUSH1 0x0 PUSH1 0x40 MLOAD DUP1 DUP4 SUB DUP2 PUSH1 0x0 DUP8 DUP1 EXTCODESIZE ISZERO DUP1 ISZERO PUSH2 0x302 JUMPI PUSH1 0x0 DUP1 REVERT JUMPDEST POP GAS CALL ISZERO DUP1 ISZERO PUSH2 0x316 JUMPI RETURNDATASIZE PUSH1 0x0 DUP1 RETURNDATACOPY RETURNDATASIZE PUSH1 0x0 REVERT JUMPDEST POP POP POP POP PUSH1 0x1 DUP3 PUSH1 0x20 ADD SWAP1 ISZERO ISZERO SWAP1 DUP2 ISZERO ISZERO DUP2 MSTORE POP POP POP POP JUMP JUMPDEST PUSH1 0x0 JUMPDEST DUP2 MLOAD DUP2 LT ISZERO PUSH2 0x3FA JUMPI PUSH1 0x5 DUP3 DUP3 DUP2 MLOAD DUP2 LT PUSH2 0x350 JUMPI PUSH2 0x34F PUSH2 0xF39 JUMP JUMPDEST JUMPDEST PUSH1 0x20 MUL PUSH1 0x20 ADD ADD MLOAD SWAP1 DUP1 PUSH1 0x1 DUP2 SLOAD ADD DUP1 DUP3 SSTORE DUP1 SWAP2 POP POP PUSH1 0x1 SWAP1 SUB SWAP1 PUSH1 0x0 MSTORE PUSH1 0x20 PUSH1 0x0 KECCAK256 SWAP1 PUSH1 0x2 MUL ADD PUSH1 0x0 SWAP1 SWAP2 SWAP1 SWAP2 SWAP1 SWAP2 POP PUSH1 0x0 DUP3 ADD MLOAD DUP2 PUSH1 0x0 ADD PUSH1 0x0 PUSH2 0x100 EXP DUP2 SLOAD DUP2 PUSH20 0xFFFFFFFFFFFFFFFFFFFFFFFFFFFFFFFFFFFFFFFF MUL NOT AND SWAP1 DUP4 PUSH20 0xFFFFFFFFFFFFFFFFFFFFFFFFFFFFFFFFFFFFFFFF AND MUL OR SWAP1 SSTORE POP PUSH1 0x20 DUP3 ADD MLOAD DUP2 PUSH1 0x1 ADD SWAP1 DUP1 MLOAD SWAP1 PUSH1 0x20 ADD SWAP1 PUSH2 0x3E4 SWAP3 SWAP2 SWAP1 PUSH2 0x67F JUMP JUMPDEST POP POP POP DUP1 DUP1 PUSH2 0x3F2 SWAP1 PUSH2 0xE92 JUMP JUMPDEST SWAP2 POP POP PUSH2 0x332 JUMP JUMPDEST POP POP JUMP JUMPDEST PUSH1 0x0 JUMPDEST DUP2 MLOAD DUP2 LT ISZERO PUSH2 0x4D6 JUMPI PUSH1 0x4 DUP3 DUP3 DUP2 MLOAD DUP2 LT PUSH2 0x41F JUMPI PUSH2 0x41E PUSH2 0xF39 JUMP JUMPDEST JUMPDEST PUSH1 0x20 MUL PUSH1 0x20 ADD ADD MLOAD SWAP1 DUP1 PUSH1 0x1 DUP2 SLOAD ADD DUP1 DUP3 SSTORE DUP1 SWAP2 POP POP PUSH1 0x1 SWAP1 SUB SWAP1 PUSH1 0x0 MSTORE PUSH1 0x20 PUSH1 0x0 KECCAK256 SWAP1 PUSH1 0x2 MUL ADD PUSH1 0x0 SWAP1 SWAP2 SWAP1 SWAP2 SWAP1 SWAP2 POP PUSH1 0x0 DUP3 ADD MLOAD DUP2 PUSH1 0x0 ADD PUSH1 0x0 PUSH2 0x100 EXP DUP2 SLOAD DUP2 PUSH20 0xFFFFFFFFFFFFFFFFFFFFFFFFFFFFFFFFFFFFFFFF MUL NOT AND SWAP1 DUP4 PUSH20 0xFFFFFFFFFFFFFFFFFFFFFFFFFFFFFFFFFFFFFFFF AND MUL OR SWAP1 SSTORE POP PUSH1 0x20 DUP3 ADD MLOAD DUP2 PUSH1 0x0 ADD PUSH1 0x14 PUSH2 0x100 EXP DUP2 SLOAD DUP2 PUSH1 0xFF MUL NOT AND SWAP1 DUP4 ISZERO ISZERO MUL OR SWAP1 SSTORE POP PUSH1 0x40 DUP3 ADD MLOAD DUP2 PUSH1 0x1 ADD SSTORE POP POP DUP1 DUP1 PUSH2 0x4CE SWAP1 PUSH2 0xE92 JUMP JUMPDEST SWAP2 POP POP PUSH2 0x401 JUMP JUMPDEST POP POP JUMP JUMPDEST PUSH1 0x0 DUP1 PUSH1 0x0 SWAP1 POP PUSH1 0x0 JUMPDEST PUSH1 0x4 DUP1 SLOAD SWAP1 POP DUP2 LT ISZERO PUSH2 0x582 JUMPI PUSH1 0x4 DUP2 DUP2 SLOAD DUP2 LT PUSH2 0x505 JUMPI PUSH2 0x504 PUSH2 0xF39 JUMP JUMPDEST JUMPDEST SWAP1 PUSH1 0x0 MSTORE PUSH1 0x20 PUSH1 0x0 KECCAK256 SWAP1 PUSH1 0x2 MUL ADD PUSH1 0x0 ADD PUSH1 0x0 SWAP1 SLOAD SWAP1 PUSH2 0x100 EXP SWAP1 DIV PUSH20 0xFFFFFFFFFFFFFFFFFFFFFFFFFFFFFFFFFFFFFFFF AND PUSH20 0xFFFFFFFFFFFFFFFFFFFFFFFFFFFFFFFFFFFFFFFF AND DUP5 PUSH20 0xFFFFFFFFFFFFFFFFFFFFFFFFFFFFFFFFFFFFFFFF AND EQ ISZERO PUSH2 0x56F JUMPI PUSH1 0x1 SWAP2 POP JUMPDEST DUP1 DUP1 PUSH2 0x57A SWAP1 PUSH2 0xE92 JUMP JUMPDEST SWAP2 POP POP PUSH2 0x4E4 JUMP JUMPDEST POP DUP1 SWAP2 POP POP SWAP2 SWAP1 POP JUMP JUMPDEST PUSH2 0x595 DUP2 PUSH2 0x4DA JUMP JUMPDEST PUSH2 0x5D4 JUMPI PUSH1 0x40 MLOAD PUSH32 0x8C379A000000000000000000000000000000000000000000000000000000000 DUP2 MSTORE PUSH1 0x4 ADD PUSH2 0x5CB SWAP1 PUSH2 0xC8E JUMP JUMPDEST PUSH1 0x40 MLOAD DUP1 SWAP2 SUB SWAP1 REVERT JUMPDEST PUSH2 0x5DD DUP2 PUSH2 0x5E6 JUMP JUMPDEST POP JUMP JUMPDEST PUSH1 0x1 SLOAD DUP2 JUMP JUMPDEST PUSH1 0x6 PUSH1 0x0 SWAP1 SLOAD SWAP1 PUSH2 0x100 EXP SWAP1 DIV PUSH20 0xFFFFFFFFFFFFFFFFFFFFFFFFFFFFFFFFFFFFFFFF AND PUSH20 0xFFFFFFFFFFFFFFFFFFFFFFFFFFFFFFFFFFFFFFFF AND PUSH4 0x40C10F19 DUP3 PUSH1 0x1 PUSH1 0x40 MLOAD DUP4 PUSH4 0xFFFFFFFF AND PUSH1 0xE0 SHL DUP2 MSTORE PUSH1 0x4 ADD PUSH2 0x644 SWAP3 SWAP2 SWAP1 PUSH2 0xC08 JUMP JUMPDEST PUSH1 0x0 PUSH1 0x40 MLOAD DUP1 DUP4 SUB DUP2 PUSH1 0x0 DUP8 DUP1 EXTCODESIZE ISZERO DUP1 ISZERO PUSH2 0x65E JUMPI PUSH1 0x0 DUP1 REVERT JUMPDEST POP GAS CALL ISZERO DUP1 ISZERO PUSH2 0x672 JUMPI RETURNDATASIZE PUSH1 0x0 DUP1 RETURNDATACOPY RETURNDATASIZE PUSH1 0x0 REVERT JUMPDEST POP POP POP POP POP JUMP JUMPDEST PUSH1 0x2 SLOAD DUP2 JUMP JUMPDEST DUP3 DUP1 SLOAD PUSH2 0x68B SWAP1 PUSH2 0xE2F JUMP JUMPDEST SWAP1 PUSH1 0x0 MSTORE PUSH1 0x20 PUSH1 0x0 KECCAK256 SWAP1 PUSH1 0x1F ADD PUSH1 0x20 SWAP1 DIV DUP2 ADD SWAP3 DUP3 PUSH2 0x6AD JUMPI PUSH1 0x0 DUP6 SSTORE PUSH2 0x6F4 JUMP JUMPDEST DUP3 PUSH1 0x1F LT PUSH2 0x6C6 JUMPI DUP1 MLOAD PUSH1 0xFF NOT AND DUP4 DUP1 ADD OR DUP6 SSTORE PUSH2 0x6F4 JUMP JUMPDEST DUP3 DUP1 ADD PUSH1 0x1 ADD DUP6 SSTORE DUP3 ISZERO PUSH2 0x6F4 JUMPI SWAP2 DUP3 ADD JUMPDEST DUP3 DUP2 GT ISZERO PUSH2 0x6F3 JUMPI DUP3 MLOAD DUP3 SSTORE SWAP2 PUSH1 0x20 ADD SWAP2 SWAP1 PUSH1 0x1 ADD SWAP1 PUSH2 0x6D8 JUMP JUMPDEST JUMPDEST POP SWAP1 POP PUSH2 0x701 SWAP2 SWAP1 PUSH2 0x705 JUMP JUMPDEST POP SWAP1 JUMP JUMPDEST JUMPDEST DUP1 DUP3 GT ISZERO PUSH2 0x71E JUMPI PUSH1 0x0 DUP2 PUSH1 0x0 SWAP1 SSTORE POP PUSH1 0x1 ADD PUSH2 0x706 JUMP JUMPDEST POP SWAP1 JUMP JUMPDEST PUSH1 0x0 PUSH2 0x735 PUSH2 0x730 DUP5 PUSH2 0xCEE JUMP JUMPDEST PUSH2 0xCC9 JUMP JUMPDEST SWAP1 POP DUP1 DUP4 DUP3 MSTORE PUSH1 0x20 DUP3 ADD SWAP1 POP DUP3 DUP6 PUSH1 0x20 DUP7 MUL DUP3 ADD GT ISZERO PUSH2 0x758 JUMPI PUSH2 0x757 PUSH2 0xFA6 JUMP JUMPDEST JUMPDEST PUSH1 0x0 JUMPDEST DUP6 DUP2 LT ISZERO PUSH2 0x7A6 JUMPI DUP2 CALLDATALOAD PUSH8 0xFFFFFFFFFFFFFFFF DUP2 GT ISZERO PUSH2 0x77E JUMPI PUSH2 0x77D PUSH2 0xF97 JUMP JUMPDEST JUMPDEST DUP1 DUP7 ADD PUSH2 0x78B DUP10 DUP3 PUSH2 0x916 JUMP JUMPDEST DUP6 MSTORE PUSH1 0x20 DUP6 ADD SWAP5 POP PUSH1 0x20 DUP5 ADD SWAP4 POP POP POP PUSH1 0x1 DUP2 ADD SWAP1 POP PUSH2 0x75B JUMP JUMPDEST POP POP POP SWAP4 SWAP3 POP POP POP JUMP JUMPDEST PUSH1 0x0 PUSH2 0x7C3 PUSH2 0x7BE DUP5 PUSH2 0xD1A JUMP JUMPDEST PUSH2 0xCC9 JUMP JUMPDEST SWAP1 POP DUP1 DUP4 DUP3 MSTORE PUSH1 0x20 DUP3 ADD SWAP1 POP DUP3 DUP6 PUSH1 0x60 DUP7 MUL DUP3 ADD GT ISZERO PUSH2 0x7E6 JUMPI PUSH2 0x7E5 PUSH2 0xFA6 JUMP JUMPDEST JUMPDEST PUSH1 0x0 JUMPDEST DUP6 DUP2 LT ISZERO PUSH2 0x816 JUMPI DUP2 PUSH2 0x7FC DUP9 DUP3 PUSH2 0x982 JUMP JUMPDEST DUP5 MSTORE PUSH1 0x20 DUP5 ADD SWAP4 POP PUSH1 0x60 DUP4 ADD SWAP3 POP POP PUSH1 0x1 DUP2 ADD SWAP1 POP PUSH2 0x7E9 JUMP JUMPDEST POP POP POP SWAP4 SWAP3 POP POP POP JUMP JUMPDEST PUSH1 0x0 PUSH2 0x833 PUSH2 0x82E DUP5 PUSH2 0xD46 JUMP JUMPDEST PUSH2 0xCC9 JUMP JUMPDEST SWAP1 POP DUP3 DUP2 MSTORE PUSH1 0x20 DUP2 ADD DUP5 DUP5 DUP5 ADD GT ISZERO PUSH2 0x84F JUMPI PUSH2 0x84E PUSH2 0xFAB JUMP JUMPDEST JUMPDEST PUSH2 0x85A DUP5 DUP3 DUP6 PUSH2 0xDED JUMP JUMPDEST POP SWAP4 SWAP3 POP POP POP JUMP JUMPDEST PUSH1 0x0 DUP2 CALLDATALOAD SWAP1 POP PUSH2 0x871 DUP2 PUSH2 0x101D JUMP JUMPDEST SWAP3 SWAP2 POP POP JUMP JUMPDEST PUSH1 0x0 DUP3 PUSH1 0x1F DUP4 ADD SLT PUSH2 0x88C JUMPI PUSH2 0x88B PUSH2 0xF97 JUMP JUMPDEST JUMPDEST DUP2 CALLDATALOAD PUSH2 0x89C DUP5 DUP3 PUSH1 0x20 DUP7 ADD PUSH2 0x722 JUMP JUMPDEST SWAP2 POP POP SWAP3 SWAP2 POP POP JUMP JUMPDEST PUSH1 0x0 DUP3 PUSH1 0x1F DUP4 ADD SLT PUSH2 0x8BA JUMPI PUSH2 0x8B9 PUSH2 0xF97 JUMP JUMPDEST JUMPDEST DUP2 CALLDATALOAD PUSH2 0x8CA DUP5 DUP3 PUSH1 0x20 DUP7 ADD PUSH2 0x7B0 JUMP JUMPDEST SWAP2 POP POP SWAP3 SWAP2 POP POP JUMP JUMPDEST PUSH1 0x0 DUP2 CALLDATALOAD SWAP1 POP PUSH2 0x8E2 DUP2 PUSH2 0x1034 JUMP JUMPDEST SWAP3 SWAP2 POP POP JUMP JUMPDEST PUSH1 0x0 DUP3 PUSH1 0x1F DUP4 ADD SLT PUSH2 0x8FD JUMPI PUSH2 0x8FC PUSH2 0xF97 JUMP JUMPDEST JUMPDEST DUP2 CALLDATALOAD PUSH2 0x90D DUP5 DUP3 PUSH1 0x20 DUP7 ADD PUSH2 0x820 JUMP JUMPDEST SWAP2 POP POP SWAP3 SWAP2 POP POP JUMP JUMPDEST PUSH1 0x0 PUSH1 0x40 DUP3 DUP5 SUB SLT ISZERO PUSH2 0x92C JUMPI PUSH2 0x92B PUSH2 0xF9C JUMP JUMPDEST JUMPDEST PUSH2 0x936 PUSH1 0x40 PUSH2 0xCC9 JUMP JUMPDEST SWAP1 POP PUSH1 0x0 PUSH2 0x946 DUP5 DUP3 DUP6 ADD PUSH2 0x862 JUMP JUMPDEST PUSH1 0x0 DUP4 ADD MSTORE POP PUSH1 0x20 DUP3 ADD CALLDATALOAD PUSH8 0xFFFFFFFFFFFFFFFF DUP2 GT ISZERO PUSH2 0x96A JUMPI PUSH2 0x969 PUSH2 0xFA1 JUMP JUMPDEST JUMPDEST PUSH2 0x976 DUP5 DUP3 DUP6 ADD PUSH2 0x8E8 JUMP JUMPDEST PUSH1 0x20 DUP4 ADD MSTORE POP SWAP3 SWAP2 POP POP JUMP JUMPDEST PUSH1 0x0 PUSH1 0x60 DUP3 DUP5 SUB SLT ISZERO PUSH2 0x998 JUMPI PUSH2 0x997 PUSH2 0xF9C JUMP JUMPDEST JUMPDEST PUSH2 0x9A2 PUSH1 0x60 PUSH2 0xCC9 JUMP JUMPDEST SWAP1 POP PUSH1 0x0 PUSH2 0x9B2 DUP5 DUP3 DUP6 ADD PUSH2 0x862 JUMP JUMPDEST PUSH1 0x0 DUP4 ADD MSTORE POP PUSH1 0x20 PUSH2 0x9C6 DUP5 DUP3 DUP6 ADD PUSH2 0x8D3 JUMP JUMPDEST PUSH1 0x20 DUP4 ADD MSTORE POP PUSH1 0x40 PUSH2 0x9DA DUP5 DUP3 DUP6 ADD PUSH2 0x9E6 JUMP JUMPDEST PUSH1 0x40 DUP4 ADD MSTORE POP SWAP3 SWAP2 POP POP JUMP JUMPDEST PUSH1 0x0 DUP2 CALLDATALOAD SWAP1 POP PUSH2 0x9F5 DUP2 PUSH2 0x104B JUMP JUMPDEST SWAP3 SWAP2 POP POP JUMP JUMPDEST PUSH1 0x0 PUSH1 0x20 DUP3 DUP5 SUB SLT ISZERO PUSH2 0xA11 JUMPI PUSH2 0xA10 PUSH2 0xFB5 JUMP JUMPDEST JUMPDEST PUSH1 0x0 PUSH2 0xA1F DUP5 DUP3 DUP6 ADD PUSH2 0x862 JUMP JUMPDEST SWAP2 POP POP SWAP3 SWAP2 POP POP JUMP JUMPDEST PUSH1 0x0 PUSH1 0x20 DUP3 DUP5 SUB SLT ISZERO PUSH2 0xA3E JUMPI PUSH2 0xA3D PUSH2 0xFB5 JUMP JUMPDEST JUMPDEST PUSH1 0x0 DUP3 ADD CALLDATALOAD PUSH8 0xFFFFFFFFFFFFFFFF DUP2 GT ISZERO PUSH2 0xA5C JUMPI PUSH2 0xA5B PUSH2 0xFB0 JUMP JUMPDEST JUMPDEST PUSH2 0xA68 DUP5 DUP3 DUP6 ADD PUSH2 0x877 JUMP JUMPDEST SWAP2 POP POP SWAP3 SWAP2 POP POP JUMP JUMPDEST PUSH1 0x0 PUSH1 0x20 DUP3 DUP5 SUB SLT ISZERO PUSH2 0xA87 JUMPI PUSH2 0xA86 PUSH2 0xFB5 JUMP JUMPDEST JUMPDEST PUSH1 0x0 DUP3 ADD CALLDATALOAD PUSH8 0xFFFFFFFFFFFFFFFF DUP2 GT ISZERO PUSH2 0xAA5 JUMPI PUSH2 0xAA4 PUSH2 0xFB0 JUMP JUMPDEST JUMPDEST PUSH2 0xAB1 DUP5 DUP3 DUP6 ADD PUSH2 0x8A5 JUMP JUMPDEST SWAP2 POP POP SWAP3 SWAP2 POP POP JUMP JUMPDEST PUSH1 0x0 DUP1 PUSH1 0x80 DUP4 DUP6 SUB SLT ISZERO PUSH2 0xAD1 JUMPI PUSH2 0xAD0 PUSH2 0xFB5 JUMP JUMPDEST JUMPDEST PUSH1 0x0 PUSH2 0xADF DUP6 DUP3 DUP7 ADD PUSH2 0x982 JUMP JUMPDEST SWAP3 POP POP PUSH1 0x60 DUP4 ADD CALLDATALOAD PUSH8 0xFFFFFFFFFFFFFFFF DUP2 GT ISZERO PUSH2 0xB00 JUMPI PUSH2 0xAFF PUSH2 0xFB0 JUMP JUMPDEST JUMPDEST PUSH2 0xB0C DUP6 DUP3 DUP7 ADD PUSH2 0x916 JUMP JUMPDEST SWAP2 POP POP SWAP3 POP SWAP3 SWAP1 POP JUMP JUMPDEST PUSH2 0xB1F DUP2 PUSH2 0xD93 JUMP JUMPDEST DUP3 MSTORE POP POP JUMP JUMPDEST PUSH2 0xB2E DUP2 PUSH2 0xDA5 JUMP JUMPDEST DUP3 MSTORE POP POP JUMP JUMPDEST PUSH2 0xB3D DUP2 PUSH2 0xDDB JUMP JUMPDEST DUP3 MSTORE POP POP JUMP JUMPDEST PUSH1 0x0 PUSH2 0xB4E DUP3 PUSH2 0xD77 JUMP JUMPDEST PUSH2 0xB58 DUP2 DUP6 PUSH2 0xD82 JUMP JUMPDEST SWAP4 POP PUSH2 0xB68 DUP2 DUP6 PUSH1 0x20 DUP7 ADD PUSH2 0xDFC JUMP JUMPDEST PUSH2 0xB71 DUP2 PUSH2 0xFBA JUMP JUMPDEST DUP5 ADD SWAP2 POP POP SWAP3 SWAP2 POP POP JUMP JUMPDEST PUSH1 0x0 PUSH2 0xB89 PUSH1 0xE DUP4 PUSH2 0xD82 JUMP JUMPDEST SWAP2 POP PUSH2 0xB94 DUP3 PUSH2 0xFCB JUMP JUMPDEST PUSH1 0x20 DUP3 ADD SWAP1 POP SWAP2 SWAP1 POP JUMP JUMPDEST PUSH1 0x0 PUSH2 0xBAC PUSH1 0x14 DUP4 PUSH2 0xD82 JUMP JUMPDEST SWAP2 POP PUSH2 0xBB7 DUP3 PUSH2 0xFF4 JUMP JUMPDEST PUSH1 0x20 DUP3 ADD SWAP1 POP SWAP2 SWAP1 POP JUMP JUMPDEST PUSH2 0xBCB DUP2 PUSH2 0xDD1 JUMP JUMPDEST DUP3 MSTORE POP POP JUMP JUMPDEST PUSH1 0x0 PUSH1 0x60 DUP3 ADD SWAP1 POP PUSH2 0xBE6 PUSH1 0x0 DUP4 ADD DUP7 PUSH2 0xB16 JUMP JUMPDEST PUSH2 0xBF3 PUSH1 0x20 DUP4 ADD DUP6 PUSH2 0xB16 JUMP JUMPDEST PUSH2 0xC00 PUSH1 0x40 DUP4 ADD DUP5 PUSH2 0xB34 JUMP JUMPDEST SWAP5 SWAP4 POP POP POP POP JUMP JUMPDEST PUSH1 0x0 PUSH1 0x40 DUP3 ADD SWAP1 POP PUSH2 0xC1D PUSH1 0x0 DUP4 ADD DUP6 PUSH2 0xB16 JUMP JUMPDEST PUSH2 0xC2A PUSH1 0x20 DUP4 ADD DUP5 PUSH2 0xB34 JUMP JUMPDEST SWAP4 SWAP3 POP POP POP JUMP JUMPDEST PUSH1 0x0 PUSH1 0x20 DUP3 ADD SWAP1 POP PUSH2 0xC46 PUSH1 0x0 DUP4 ADD DUP5 PUSH2 0xB25 JUMP JUMPDEST SWAP3 SWAP2 POP POP JUMP JUMPDEST PUSH1 0x0 PUSH1 0x20 DUP3 ADD SWAP1 POP DUP2 DUP2 SUB PUSH1 0x0 DUP4 ADD MSTORE PUSH2 0xC66 DUP2 DUP5 PUSH2 0xB43 JUMP JUMPDEST SWAP1 POP SWAP3 SWAP2 POP POP JUMP JUMPDEST PUSH1 0x0 PUSH1 0x20 DUP3 ADD SWAP1 POP DUP2 DUP2 SUB PUSH1 0x0 DUP4 ADD MSTORE PUSH2 0xC87 DUP2 PUSH2 0xB7C JUMP JUMPDEST SWAP1 POP SWAP2 SWAP1 POP JUMP JUMPDEST PUSH1 0x0 PUSH1 0x20 DUP3 ADD SWAP1 POP DUP2 DUP2 SUB PUSH1 0x0 DUP4 ADD MSTORE PUSH2 0xCA7 DUP2 PUSH2 0xB9F JUMP JUMPDEST SWAP1 POP SWAP2 SWAP1 POP JUMP JUMPDEST PUSH1 0x0 PUSH1 0x20 DUP3 ADD SWAP1 POP PUSH2 0xCC3 PUSH1 0x0 DUP4 ADD DUP5 PUSH2 0xBC2 JUMP JUMPDEST SWAP3 SWAP2 POP POP JUMP JUMPDEST PUSH1 0x0 PUSH2 0xCD3 PUSH2 0xCE4 JUMP JUMPDEST SWAP1 POP PUSH2 0xCDF DUP3 DUP3 PUSH2 0xE61 JUMP JUMPDEST SWAP2 SWAP1 POP JUMP JUMPDEST PUSH1 0x0 PUSH1 0x40 MLOAD SWAP1 POP SWAP1 JUMP JUMPDEST PUSH1 0x0 PUSH8 0xFFFFFFFFFFFFFFFF DUP3 GT ISZERO PUSH2 0xD09 JUMPI PUSH2 0xD08 PUSH2 0xF68 JUMP JUMPDEST JUMPDEST PUSH1 0x20 DUP3 MUL SWAP1 POP PUSH1 0x20 DUP2 ADD SWAP1 POP SWAP2 SWAP1 POP JUMP JUMPDEST PUSH1 0x0 PUSH8 0xFFFFFFFFFFFFFFFF DUP3 GT ISZERO PUSH2 0xD35 JUMPI PUSH2 0xD34 PUSH2 0xF68 JUMP JUMPDEST JUMPDEST PUSH1 0x20 DUP3 MUL SWAP1 POP PUSH1 0x20 DUP2 ADD SWAP1 POP SWAP2 SWAP1 POP JUMP JUMPDEST PUSH1 0x0 PUSH8 0xFFFFFFFFFFFFFFFF DUP3 GT ISZERO PUSH2 0xD61 JUMPI PUSH2 0xD60 PUSH2 0xF68 JUMP JUMPDEST JUMPDEST PUSH2 0xD6A DUP3 PUSH2 0xFBA JUMP JUMPDEST SWAP1 POP PUSH1 0x20 DUP2 ADD SWAP1 POP SWAP2 SWAP1 POP JUMP JUMPDEST PUSH1 0x0 DUP2 MLOAD SWAP1 POP SWAP2 SWAP1 POP JUMP JUMPDEST PUSH1 0x0 DUP3 DUP3 MSTORE PUSH1 0x20 DUP3 ADD SWAP1 POP SWAP3 SWAP2 POP POP JUMP JUMPDEST PUSH1 0x0 PUSH2 0xD9E DUP3 PUSH2 0xDB1 JUMP JUMPDEST SWAP1 POP SWAP2 SWAP1 POP JUMP JUMPDEST PUSH1 0x0 DUP2 ISZERO ISZERO SWAP1 POP SWAP2 SWAP1 POP JUMP JUMPDEST PUSH1 0x0 PUSH20 0xFFFFFFFFFFFFFFFFFFFFFFFFFFFFFFFFFFFFFFFF DUP3 AND SWAP1 POP SWAP2 SWAP1 POP JUMP JUMPDEST PUSH1 0x0 DUP2 SWAP1 POP SWAP2 SWAP1 POP JUMP JUMPDEST PUSH1 0x0 PUSH2 0xDE6 DUP3 PUSH2 0xDD1 JUMP JUMPDEST SWAP1 POP SWAP2 SWAP1 POP JUMP JUMPDEST DUP3 DUP2 DUP4 CALLDATACOPY PUSH1 0x0 DUP4 DUP4 ADD MSTORE POP POP POP JUMP JUMPDEST PUSH1 0x0 JUMPDEST DUP4 DUP2 LT ISZERO PUSH2 0xE1A JUMPI DUP1 DUP3 ADD MLOAD DUP2 DUP5 ADD MSTORE PUSH1 0x20 DUP2 ADD SWAP1 POP PUSH2 0xDFF JUMP JUMPDEST DUP4 DUP2 GT ISZERO PUSH2 0xE29 JUMPI PUSH1 0x0 DUP5 DUP5 ADD MSTORE JUMPDEST POP POP POP POP JUMP JUMPDEST PUSH1 0x0 PUSH1 0x2 DUP3 DIV SWAP1 POP PUSH1 0x1 DUP3 AND DUP1 PUSH2 0xE47 JUMPI PUSH1 0x7F DUP3 AND SWAP2 POP JUMPDEST PUSH1 0x20 DUP3 LT DUP2 EQ ISZERO PUSH2 0xE5B JUMPI PUSH2 0xE5A PUSH2 0xF0A JUMP JUMPDEST JUMPDEST POP SWAP2 SWAP1 POP JUMP JUMPDEST PUSH2 0xE6A DUP3 PUSH2 0xFBA JUMP JUMPDEST DUP2 ADD DUP2 DUP2 LT PUSH8 0xFFFFFFFFFFFFFFFF DUP3 GT OR ISZERO PUSH2 0xE89 JUMPI PUSH2 0xE88 PUSH2 0xF68 JUMP JUMPDEST JUMPDEST DUP1 PUSH1 0x40 MSTORE POP POP POP JUMP JUMPDEST PUSH1 0x0 PUSH2 0xE9D DUP3 PUSH2 0xDD1 JUMP JUMPDEST SWAP2 POP PUSH32 0xFFFFFFFFFFFFFFFFFFFFFFFFFFFFFFFFFFFFFFFFFFFFFFFFFFFFFFFFFFFFFFFF DUP3 EQ ISZERO PUSH2 0xED0 JUMPI PUSH2 0xECF PUSH2 0xEDB JUMP JUMPDEST JUMPDEST PUSH1 0x1 DUP3 ADD SWAP1 POP SWAP2 SWAP1 POP JUMP JUMPDEST PUSH32 0x4E487B7100000000000000000000000000000000000000000000000000000000 PUSH1 0x0 MSTORE PUSH1 0x11 PUSH1 0x4 MSTORE PUSH1 0x24 PUSH1 0x0 REVERT JUMPDEST PUSH32 0x4E487B7100000000000000000000000000000000000000000000000000000000 PUSH1 0x0 MSTORE PUSH1 0x22 PUSH1 0x4 MSTORE PUSH1 0x24 PUSH1 0x0 REVERT JUMPDEST PUSH32 0x4E487B7100000000000000000000000000000000000000000000000000000000 PUSH1 0x0 MSTORE PUSH1 0x32 PUSH1 0x4 MSTORE PUSH1 0x24 PUSH1 0x0 REVERT JUMPDEST PUSH32 0x4E487B7100000000000000000000000000000000000000000000000000000000 PUSH1 0x0 MSTORE PUSH1 0x41 PUSH1 0x4 MSTORE PUSH1 0x24 PUSH1 0x0 REVERT JUMPDEST PUSH1 0x0 DUP1 REVERT JUMPDEST PUSH1 0x0 DUP1 REVERT JUMPDEST PUSH1 0x0 DUP1 REVERT JUMPDEST PUSH1 0x0 DUP1 REVERT JUMPDEST PUSH1 0x0 DUP1 REVERT JUMPDEST PUSH1 0x0 DUP1 REVERT JUMPDEST PUSH1 0x0 DUP1 REVERT JUMPDEST PUSH1 0x0 PUSH1 0x1F NOT PUSH1 0x1F DUP4 ADD AND SWAP1 POP SWAP2 SWAP1 POP JUMP JUMPDEST PUSH32 0x416C726561647920766F7465642E000000000000000000000000000000000000 PUSH1 0x0 DUP3 ADD MSTORE POP JUMP JUMPDEST PUSH32 0x566F74657220646F65736E27742065786973742E000000000000000000000000 PUSH1 0x0 DUP3 ADD MSTORE POP JUMP JUMPDEST PUSH2 0x1026 DUP2 PUSH2 0xD93 JUMP JUMPDEST DUP2 EQ PUSH2 0x1031 JUMPI PUSH1 0x0 DUP1 REVERT JUMPDEST POP JUMP JUMPDEST PUSH2 0x103D DUP2 PUSH2 0xDA5 JUMP JUMPDEST DUP2 EQ PUSH2 0x1048 JUMPI PUSH1 0x0 DUP1 REVERT JUMPDEST POP JUMP JUMPDEST PUSH2 0x1054 DUP2 PUSH2 0xDD1 JUMP JUMPDEST DUP2 EQ PUSH2 0x105F JUMPI PUSH1 0x0 DUP1 REVERT JUMPDEST POP JUMP INVALID LOG2 PUSH5 0x6970667358 0x22 SLT KECCAK256 0xA7 JUMP DUP3 GASPRICE 0xA7 0xEE CALLCODE DIV PUSH22 0x950D945A2AE71AC152EA60320956338FF5050F6714C4 SWAP16 PUSH5 0x736F6C6343 STOP ADDMOD SMOD STOP CALLER PUSH1 0x80 PUSH1 0x40 MSTORE CALLVALUE DUP1 ISZERO PUSH2 0x10 JUMPI PUSH1 0x0 DUP1 REVERT JUMPDEST POP PUSH2 0xFAB DUP1 PUSH2 0x20 PUSH1 0x0 CODECOPY PUSH1 0x0 RETURN INVALID PUSH1 0x80 PUSH1 0x40 MSTORE CALLVALUE DUP1 ISZERO PUSH2 0x10 JUMPI PUSH1 0x0 DUP1 REVERT JUMPDEST POP PUSH1 0x4 CALLDATASIZE LT PUSH2 0xA9 JUMPI PUSH1 0x0 CALLDATALOAD PUSH1 0xE0 SHR DUP1 PUSH4 0x40C10F19 GT PUSH2 0x71 JUMPI DUP1 PUSH4 0x40C10F19 EQ PUSH2 0x140 JUMPI DUP1 PUSH4 0x54FD4D50 EQ PUSH2 0x15C JUMPI DUP1 PUSH4 0x70A08231 EQ PUSH2 0x17A JUMPI DUP1 PUSH4 0x95D89B41 EQ PUSH2 0x1AA JUMPI DUP1 PUSH4 0xA9059CBB EQ PUSH2 0x1C8 JUMPI DUP1 PUSH4 0xDD62ED3E EQ PUSH2 0x1E4 JUMPI PUSH2 0xA9 JUMP JUMPDEST DUP1 PUSH4 0x6FDDE03 EQ PUSH2 0xAE JUMPI DUP1 PUSH4 0x95EA7B3 EQ PUSH2 0xCC JUMPI DUP1 PUSH4 0x18160DDD EQ PUSH2 0xE8 JUMPI DUP1 PUSH4 0x23B872DD EQ PUSH2 0x106 JUMPI DUP1 PUSH4 0x313CE567 EQ PUSH2 0x122 JUMPI JUMPDEST PUSH1 0x0 DUP1 REVERT JUMPDEST PUSH2 0xB6 PUSH2 0x214 JUMP JUMPDEST PUSH1 0x40 MLOAD PUSH2 0xC3 SWAP2 SWAP1 PUSH2 0xCF8 JUMP JUMPDEST PUSH1 0x40 MLOAD DUP1 SWAP2 SUB SWAP1 RETURN JUMPDEST PUSH2 0xE6 PUSH1 0x4 DUP1 CALLDATASIZE SUB DUP2 ADD SWAP1 PUSH2 0xE1 SWAP2 SWAP1 PUSH2 0xC61 JUMP JUMPDEST PUSH2 0x2A2 JUMP JUMPDEST STOP JUMPDEST PUSH2 0xF0 PUSH2 0x38C JUMP JUMPDEST PUSH1 0x40 MLOAD PUSH2 0xFD SWAP2 SWAP1 PUSH2 0xD1A JUMP JUMPDEST PUSH1 0x40 MLOAD DUP1 SWAP2 SUB SWAP1 RETURN JUMPDEST PUSH2 0x120 PUSH1 0x4 DUP1 CALLDATASIZE SUB DUP2 ADD SWAP1 PUSH2 0x11B SWAP2 SWAP1 PUSH2 0xC0E JUMP JUMPDEST PUSH2 0x392 JUMP JUMPDEST STOP JUMPDEST PUSH2 0x12A PUSH2 0x715 JUMP JUMPDEST PUSH1 0x40 MLOAD PUSH2 0x137 SWAP2 SWAP1 PUSH2 0xD35 JUMP JUMPDEST PUSH1 0x40 MLOAD DUP1 SWAP2 SUB SWAP1 RETURN JUMPDEST PUSH2 0x15A PUSH1 0x4 DUP1 CALLDATASIZE SUB DUP2 ADD SWAP1 PUSH2 0x155 SWAP2 SWAP1 PUSH2 0xC61 JUMP JUMPDEST PUSH2 0x728 JUMP JUMPDEST STOP JUMPDEST PUSH2 0x164 PUSH2 0x72C JUMP JUMPDEST PUSH1 0x40 MLOAD PUSH2 0x171 SWAP2 SWAP1 PUSH2 0xCF8 JUMP JUMPDEST PUSH1 0x40 MLOAD DUP1 SWAP2 SUB SWAP1 RETURN JUMPDEST PUSH2 0x194 PUSH1 0x4 DUP1 CALLDATASIZE SUB DUP2 ADD SWAP1 PUSH2 0x18F SWAP2 SWAP1 PUSH2 0xBA1 JUMP JUMPDEST PUSH2 0x7BA JUMP JUMPDEST PUSH1 0x40 MLOAD PUSH2 0x1A1 SWAP2 SWAP1 PUSH2 0xD1A JUMP JUMPDEST PUSH1 0x40 MLOAD DUP1 SWAP2 SUB SWAP1 RETURN JUMPDEST PUSH2 0x1B2 PUSH2 0x803 JUMP JUMPDEST PUSH1 0x40 MLOAD PUSH2 0x1BF SWAP2 SWAP1 PUSH2 0xCF8 JUMP JUMPDEST PUSH1 0x40 MLOAD DUP1 SWAP2 SUB SWAP1 RETURN JUMPDEST PUSH2 0x1E2 PUSH1 0x4 DUP1 CALLDATASIZE SUB DUP2 ADD SWAP1 PUSH2 0x1DD SWAP2 SWAP1 PUSH2 0xC61 JUMP JUMPDEST PUSH2 0x891 JUMP JUMPDEST STOP JUMPDEST PUSH2 0x1FE PUSH1 0x4 DUP1 CALLDATASIZE SUB DUP2 ADD SWAP1 PUSH2 0x1F9 SWAP2 SWAP1 PUSH2 0xBCE JUMP JUMPDEST PUSH2 0xA9F JUMP JUMPDEST PUSH1 0x40 MLOAD PUSH2 0x20B SWAP2 SWAP1 PUSH2 0xD1A JUMP JUMPDEST PUSH1 0x40 MLOAD DUP1 SWAP2 SUB SWAP1 RETURN JUMPDEST PUSH1 0x1 DUP1 SLOAD PUSH2 0x221 SWAP1 PUSH2 0xE72 JUMP JUMPDEST DUP1 PUSH1 0x1F ADD PUSH1 0x20 DUP1 SWAP2 DIV MUL PUSH1 0x20 ADD PUSH1 0x40 MLOAD SWAP1 DUP2 ADD PUSH1 0x40 MSTORE DUP1 SWAP3 SWAP2 SWAP1 DUP2 DUP2 MSTORE PUSH1 0x20 ADD DUP3 DUP1 SLOAD PUSH2 0x24D SWAP1 PUSH2 0xE72 JUMP JUMPDEST DUP1 ISZERO PUSH2 0x29A JUMPI DUP1 PUSH1 0x1F LT PUSH2 0x26F JUMPI PUSH2 0x100 DUP1 DUP4 SLOAD DIV MUL DUP4 MSTORE SWAP2 PUSH1 0x20 ADD SWAP2 PUSH2 0x29A JUMP JUMPDEST DUP3 ADD SWAP2 SWAP1 PUSH1 0x0 MSTORE PUSH1 0x20 PUSH1 0x0 KECCAK256 SWAP1 JUMPDEST DUP2 SLOAD DUP2 MSTORE SWAP1 PUSH1 0x1 ADD SWAP1 PUSH1 0x20 ADD DUP1 DUP4 GT PUSH2 0x27D JUMPI DUP3 SWAP1 SUB PUSH1 0x1F AND DUP3 ADD SWAP2 JUMPDEST POP POP POP POP POP DUP2 JUMP JUMPDEST DUP1 PUSH1 0x6 PUSH1 0x0 CALLER PUSH20 0xFFFFFFFFFFFFFFFFFFFFFFFFFFFFFFFFFFFFFFFF AND PUSH20 0xFFFFFFFFFFFFFFFFFFFFFFFFFFFFFFFFFFFFFFFF AND DUP2 MSTORE PUSH1 0x20 ADD SWAP1 DUP2 MSTORE PUSH1 0x20 ADD PUSH1 0x0 KECCAK256 PUSH1 0x0 DUP5 PUSH20 0xFFFFFFFFFFFFFFFFFFFFFFFFFFFFFFFFFFFFFFFF AND PUSH20 0xFFFFFFFFFFFFFFFFFFFFFFFFFFFFFFFFFFFFFFFF AND DUP2 MSTORE PUSH1 0x20 ADD SWAP1 DUP2 MSTORE PUSH1 0x20 ADD PUSH1 0x0 KECCAK256 DUP2 SWAP1 SSTORE POP DUP2 PUSH20 0xFFFFFFFFFFFFFFFFFFFFFFFFFFFFFFFFFFFFFFFF AND CALLER PUSH20 0xFFFFFFFFFFFFFFFFFFFFFFFFFFFFFFFFFFFFFFFF AND PUSH32 0x8C5BE1E5EBEC7D5BD14F71427D1E84F3DD0314C0F7B2291E5B200AC8C7C3B925 DUP4 PUSH1 0x40 MLOAD PUSH2 0x380 SWAP2 SWAP1 PUSH2 0xD1A JUMP JUMPDEST PUSH1 0x40 MLOAD DUP1 SWAP2 SUB SWAP1 LOG3 POP POP JUMP JUMPDEST PUSH1 0x0 SLOAD DUP2 JUMP JUMPDEST DUP1 PUSH1 0x5 PUSH1 0x0 DUP6 PUSH20 0xFFFFFFFFFFFFFFFFFFFFFFFFFFFFFFFFFFFFFFFF AND PUSH20 0xFFFFFFFFFFFFFFFFFFFFFFFFFFFFFFFFFFFFFFFF AND DUP2 MSTORE PUSH1 0x20 ADD SWAP1 DUP2 MSTORE PUSH1 0x20 ADD PUSH1 0x0 KECCAK256 SLOAD LT ISZERO DUP1 ISZERO PUSH2 0x45D JUMPI POP DUP1 PUSH1 0x6 PUSH1 0x0 DUP6 PUSH20 0xFFFFFFFFFFFFFFFFFFFFFFFFFFFFFFFFFFFFFFFF AND PUSH20 0xFFFFFFFFFFFFFFFFFFFFFFFFFFFFFFFFFFFFFFFF AND DUP2 MSTORE PUSH1 0x20 ADD SWAP1 DUP2 MSTORE PUSH1 0x20 ADD PUSH1 0x0 KECCAK256 PUSH1 0x0 CALLER PUSH20 0xFFFFFFFFFFFFFFFFFFFFFFFFFFFFFFFFFFFFFFFF AND PUSH20 0xFFFFFFFFFFFFFFFFFFFFFFFFFFFFFFFFFFFFFFFF AND DUP2 MSTORE PUSH1 0x20 ADD SWAP1 DUP2 MSTORE PUSH1 0x20 ADD PUSH1 0x0 KECCAK256 SLOAD LT ISZERO JUMPDEST DUP1 ISZERO PUSH2 0x469 JUMPI POP PUSH1 0x0 DUP2 GT JUMPDEST PUSH2 0x472 JUMPI PUSH1 0x0 DUP1 REVERT JUMPDEST PUSH2 0x4C4 DUP2 PUSH1 0x5 PUSH1 0x0 DUP6 PUSH20 0xFFFFFFFFFFFFFFFFFFFFFFFFFFFFFFFFFFFFFFFF AND PUSH20 0xFFFFFFFFFFFFFFFFFFFFFFFFFFFFFFFFFFFFFFFF AND DUP2 MSTORE PUSH1 0x20 ADD SWAP1 DUP2 MSTORE PUSH1 0x20 ADD PUSH1 0x0 KECCAK256 SLOAD PUSH2 0xB26 SWAP1 SWAP2 SWAP1 PUSH4 0xFFFFFFFF AND JUMP JUMPDEST PUSH1 0x5 PUSH1 0x0 DUP5 PUSH20 0xFFFFFFFFFFFFFFFFFFFFFFFFFFFFFFFFFFFFFFFF AND PUSH20 0xFFFFFFFFFFFFFFFFFFFFFFFFFFFFFFFFFFFFFFFF AND DUP2 MSTORE PUSH1 0x20 ADD SWAP1 DUP2 MSTORE PUSH1 0x20 ADD PUSH1 0x0 KECCAK256 DUP2 SWAP1 SSTORE POP PUSH2 0x559 DUP2 PUSH1 0x5 PUSH1 0x0 DUP7 PUSH20 0xFFFFFFFFFFFFFFFFFFFFFFFFFFFFFFFFFFFFFFFF AND PUSH20 0xFFFFFFFFFFFFFFFFFFFFFFFFFFFFFFFFFFFFFFFF AND DUP2 MSTORE PUSH1 0x20 ADD SWAP1 DUP2 MSTORE PUSH1 0x20 ADD PUSH1 0x0 KECCAK256 SLOAD PUSH2 0xB4E SWAP1 SWAP2 SWAP1 PUSH4 0xFFFFFFFF AND JUMP JUMPDEST PUSH1 0x5 PUSH1 0x0 DUP6 PUSH20 0xFFFFFFFFFFFFFFFFFFFFFFFFFFFFFFFFFFFFFFFF AND PUSH20 0xFFFFFFFFFFFFFFFFFFFFFFFFFFFFFFFFFFFFFFFF AND DUP2 MSTORE PUSH1 0x20 ADD SWAP1 DUP2 MSTORE PUSH1 0x20 ADD PUSH1 0x0 KECCAK256 DUP2 SWAP1 SSTORE POP PUSH2 0x62B DUP2 PUSH1 0x6 PUSH1 0x0 DUP7 PUSH20 0xFFFFFFFFFFFFFFFFFFFFFFFFFFFFFFFFFFFFFFFF AND PUSH20 0xFFFFFFFFFFFFFFFFFFFFFFFFFFFFFFFFFFFFFFFF AND DUP2 MSTORE PUSH1 0x20 ADD SWAP1 DUP2 MSTORE PUSH1 0x20 ADD PUSH1 0x0 KECCAK256 PUSH1 0x0 CALLER PUSH20 0xFFFFFFFFFFFFFFFFFFFFFFFFFFFFFFFFFFFFFFFF AND PUSH20 0xFFFFFFFFFFFFFFFFFFFFFFFFFFFFFFFFFFFFFFFF AND DUP2 MSTORE PUSH1 0x20 ADD SWAP1 DUP2 MSTORE PUSH1 0x20 ADD PUSH1 0x0 KECCAK256 SLOAD PUSH2 0xB4E SWAP1 SWAP2 SWAP1 PUSH4 0xFFFFFFFF AND JUMP JUMPDEST PUSH1 0x6 PUSH1 0x0 DUP6 PUSH20 0xFFFFFFFFFFFFFFFFFFFFFFFFFFFFFFFFFFFFFFFF AND PUSH20 0xFFFFFFFFFFFFFFFFFFFFFFFFFFFFFFFFFFFFFFFF AND DUP2 MSTORE PUSH1 0x20 ADD SWAP1 DUP2 MSTORE PUSH1 0x20 ADD PUSH1 0x0 KECCAK256 PUSH1 0x0 CALLER PUSH20 0xFFFFFFFFFFFFFFFFFFFFFFFFFFFFFFFFFFFFFFFF AND PUSH20 0xFFFFFFFFFFFFFFFFFFFFFFFFFFFFFFFFFFFFFFFF AND DUP2 MSTORE PUSH1 0x20 ADD SWAP1 DUP2 MSTORE PUSH1 0x20 ADD PUSH1 0x0 KECCAK256 DUP2 SWAP1 SSTORE POP DUP2 PUSH20 0xFFFFFFFFFFFFFFFFFFFFFFFFFFFFFFFFFFFFFFFF AND DUP4 PUSH20 0xFFFFFFFFFFFFFFFFFFFFFFFFFFFFFFFFFFFFFFFF AND PUSH32 0xDDF252AD1BE2C89B69C2B068FC378DAA952BA7F163C4A11628F55A4DF523B3EF DUP4 PUSH1 0x40 MLOAD PUSH2 0x708 SWAP2 SWAP1 PUSH2 0xD1A JUMP JUMPDEST PUSH1 0x40 MLOAD DUP1 SWAP2 SUB SWAP1 LOG3 POP POP POP JUMP JUMPDEST PUSH1 0x2 PUSH1 0x0 SWAP1 SLOAD SWAP1 PUSH2 0x100 EXP SWAP1 DIV PUSH1 0xFF AND DUP2 JUMP JUMPDEST POP POP JUMP JUMPDEST PUSH1 0x4 DUP1 SLOAD PUSH2 0x739 SWAP1 PUSH2 0xE72 JUMP JUMPDEST DUP1 PUSH1 0x1F ADD PUSH1 0x20 DUP1 SWAP2 DIV MUL PUSH1 0x20 ADD PUSH1 0x40 MLOAD SWAP1 DUP2 ADD PUSH1 0x40 MSTORE DUP1 SWAP3 SWAP2 SWAP1 DUP2 DUP2 MSTORE PUSH1 0x20 ADD DUP3 DUP1 SLOAD PUSH2 0x765 SWAP1 PUSH2 0xE72 JUMP JUMPDEST DUP1 ISZERO PUSH2 0x7B2 JUMPI DUP1 PUSH1 0x1F LT PUSH2 0x787 JUMPI PUSH2 0x100 DUP1 DUP4 SLOAD DIV MUL DUP4 MSTORE SWAP2 PUSH1 0x20 ADD SWAP2 PUSH2 0x7B2 JUMP JUMPDEST DUP3 ADD SWAP2 SWAP1 PUSH1 0x0 MSTORE PUSH1 0x20 PUSH1 0x0 KECCAK256 SWAP1 JUMPDEST DUP2 SLOAD DUP2 MSTORE SWAP1 PUSH1 0x1 ADD SWAP1 PUSH1 0x20 ADD DUP1 DUP4 GT PUSH2 0x795 JUMPI DUP3 SWAP1 SUB PUSH1 0x1F AND DUP3 ADD SWAP2 JUMPDEST POP POP POP POP POP DUP2 JUMP JUMPDEST PUSH1 0x0 PUSH1 0x5 PUSH1 0x0 DUP4 PUSH20 0xFFFFFFFFFFFFFFFFFFFFFFFFFFFFFFFFFFFFFFFF AND PUSH20 0xFFFFFFFFFFFFFFFFFFFFFFFFFFFFFFFFFFFFFFFF AND DUP2 MSTORE PUSH1 0x20 ADD SWAP1 DUP2 MSTORE PUSH1 0x20 ADD PUSH1 0x0 KECCAK256 SLOAD SWAP1 POP SWAP2 SWAP1 POP JUMP JUMPDEST PUSH1 0x3 DUP1 SLOAD PUSH2 0x810 SWAP1 PUSH2 0xE72 JUMP JUMPDEST DUP1 PUSH1 0x1F ADD PUSH1 0x20 DUP1 SWAP2 DIV MUL PUSH1 0x20 ADD PUSH1 0x40 MLOAD SWAP1 DUP2 ADD PUSH1 0x40 MSTORE DUP1 SWAP3 SWAP2 SWAP1 DUP2 DUP2 MSTORE PUSH1 0x20 ADD DUP3 DUP1 SLOAD PUSH2 0x83C SWAP1 PUSH2 0xE72 JUMP JUMPDEST DUP1 ISZERO PUSH2 0x889 JUMPI DUP1 PUSH1 0x1F LT PUSH2 0x85E JUMPI PUSH2 0x100 DUP1 DUP4 SLOAD DIV MUL DUP4 MSTORE SWAP2 PUSH1 0x20 ADD SWAP2 PUSH2 0x889 JUMP JUMPDEST DUP3 ADD SWAP2 SWAP1 PUSH1 0x0 MSTORE PUSH1 0x20 PUSH1 0x0 KECCAK256 SWAP1 JUMPDEST DUP2 SLOAD DUP2 MSTORE SWAP1 PUSH1 0x1 ADD SWAP1 PUSH1 0x20 ADD DUP1 DUP4 GT PUSH2 0x86C JUMPI DUP3 SWAP1 SUB PUSH1 0x1F AND DUP3 ADD SWAP2 JUMPDEST POP POP POP POP POP DUP2 JUMP JUMPDEST PUSH1 0x40 PUSH1 0x4 DUP2 PUSH2 0x8A0 SWAP2 SWAP1 PUSH2 0xD6C JUMP JUMPDEST PUSH1 0x0 CALLDATASIZE SWAP1 POP EQ PUSH2 0x8B3 JUMPI PUSH2 0x8B2 PUSH2 0xEA4 JUMP JUMPDEST JUMPDEST DUP2 PUSH1 0x5 PUSH1 0x0 CALLER PUSH20 0xFFFFFFFFFFFFFFFFFFFFFFFFFFFFFFFFFFFFFFFF AND PUSH20 0xFFFFFFFFFFFFFFFFFFFFFFFFFFFFFFFFFFFFFFFF AND DUP2 MSTORE PUSH1 0x20 ADD SWAP1 DUP2 MSTORE PUSH1 0x20 ADD PUSH1 0x0 KECCAK256 SLOAD LT ISZERO DUP1 ISZERO PUSH2 0x902 JUMPI POP PUSH1 0x0 DUP3 GT JUMPDEST PUSH2 0x90B JUMPI PUSH1 0x0 DUP1 REVERT JUMPDEST PUSH2 0x95D DUP3 PUSH1 0x5 PUSH1 0x0 CALLER PUSH20 0xFFFFFFFFFFFFFFFFFFFFFFFFFFFFFFFFFFFFFFFF AND PUSH20 0xFFFFFFFFFFFFFFFFFFFFFFFFFFFFFFFFFFFFFFFF AND DUP2 MSTORE PUSH1 0x20 ADD SWAP1 DUP2 MSTORE PUSH1 0x20 ADD PUSH1 0x0 KECCAK256 SLOAD PUSH2 0xB4E SWAP1 SWAP2 SWAP1 PUSH4 0xFFFFFFFF AND JUMP JUMPDEST PUSH1 0x5 PUSH1 0x0 CALLER PUSH20 0xFFFFFFFFFFFFFFFFFFFFFFFFFFFFFFFFFFFFFFFF AND PUSH20 0xFFFFFFFFFFFFFFFFFFFFFFFFFFFFFFFFFFFFFFFF AND DUP2 MSTORE PUSH1 0x20 ADD SWAP1 DUP2 MSTORE PUSH1 0x20 ADD PUSH1 0x0 KECCAK256 DUP2 SWAP1 SSTORE POP PUSH2 0x9F2 DUP3 PUSH1 0x5 PUSH1 0x0 DUP7 PUSH20 0xFFFFFFFFFFFFFFFFFFFFFFFFFFFFFFFFFFFFFFFF AND PUSH20 0xFFFFFFFFFFFFFFFFFFFFFFFFFFFFFFFFFFFFFFFF AND DUP2 MSTORE PUSH1 0x20 ADD SWAP1 DUP2 MSTORE PUSH1 0x20 ADD PUSH1 0x0 KECCAK256 SLOAD PUSH2 0xB26 SWAP1 SWAP2 SWAP1 PUSH4 0xFFFFFFFF AND JUMP JUMPDEST PUSH1 0x5 PUSH1 0x0 DUP6 PUSH20 0xFFFFFFFFFFFFFFFFFFFFFFFFFFFFFFFFFFFFFFFF AND PUSH20 0xFFFFFFFFFFFFFFFFFFFFFFFFFFFFFFFFFFFFFFFF AND DUP2 MSTORE PUSH1 0x20 ADD SWAP1 DUP2 MSTORE PUSH1 0x20 ADD PUSH1 0x0 KECCAK256 DUP2 SWAP1 SSTORE POP DUP3 PUSH20 0xFFFFFFFFFFFFFFFFFFFFFFFFFFFFFFFFFFFFFFFF AND CALLER PUSH20 0xFFFFFFFFFFFFFFFFFFFFFFFFFFFFFFFFFFFFFFFF AND PUSH32 0xDDF252AD1BE2C89B69C2B068FC378DAA952BA7F163C4A11628F55A4DF523B3EF DUP5 PUSH1 0x40 MLOAD PUSH2 0xA92 SWAP2 SWAP1 PUSH2 0xD1A JUMP JUMPDEST PUSH1 0x40 MLOAD DUP1 SWAP2 SUB SWAP1 LOG3 POP POP POP JUMP JUMPDEST PUSH1 0x0 PUSH1 0x6 PUSH1 0x0 DUP4 PUSH20 0xFFFFFFFFFFFFFFFFFFFFFFFFFFFFFFFFFFFFFFFF AND PUSH20 0xFFFFFFFFFFFFFFFFFFFFFFFFFFFFFFFFFFFFFFFF AND DUP2 MSTORE PUSH1 0x20 ADD SWAP1 DUP2 MSTORE PUSH1 0x20 ADD PUSH1 0x0 KECCAK256 PUSH1 0x0 DUP5 PUSH20 0xFFFFFFFFFFFFFFFFFFFFFFFFFFFFFFFFFFFFFFFF AND PUSH20 0xFFFFFFFFFFFFFFFFFFFFFFFFFFFFFFFFFFFFFFFF AND DUP2 MSTORE PUSH1 0x20 ADD SWAP1 DUP2 MSTORE PUSH1 0x20 ADD PUSH1 0x0 KECCAK256 SLOAD SWAP1 POP SWAP3 SWAP2 POP POP JUMP JUMPDEST PUSH1 0x0 DUP1 DUP3 DUP5 PUSH2 0xB35 SWAP2 SWAP1 PUSH2 0xD6C JUMP JUMPDEST SWAP1 POP DUP4 DUP2 LT ISZERO PUSH2 0xB44 JUMPI PUSH1 0x0 DUP1 REVERT JUMPDEST DUP1 SWAP2 POP POP SWAP3 SWAP2 POP POP JUMP JUMPDEST PUSH1 0x0 DUP3 DUP3 GT ISZERO PUSH2 0xB5D JUMPI PUSH1 0x0 DUP1 REVERT JUMPDEST PUSH1 0x0 DUP3 DUP5 PUSH2 0xB6B SWAP2 SWAP1 PUSH2 0xDC2 JUMP JUMPDEST SWAP1 POP DUP1 SWAP2 POP POP SWAP3 SWAP2 POP POP JUMP JUMPDEST PUSH1 0x0 DUP2 CALLDATALOAD SWAP1 POP PUSH2 0xB86 DUP2 PUSH2 0xF47 JUMP JUMPDEST SWAP3 SWAP2 POP POP JUMP JUMPDEST PUSH1 0x0 DUP2 CALLDATALOAD SWAP1 POP PUSH2 0xB9B DUP2 PUSH2 0xF5E JUMP JUMPDEST SWAP3 SWAP2 POP POP JUMP JUMPDEST PUSH1 0x0 PUSH1 0x20 DUP3 DUP5 SUB SLT ISZERO PUSH2 0xBB7 JUMPI PUSH2 0xBB6 PUSH2 0xF31 JUMP JUMPDEST JUMPDEST PUSH1 0x0 PUSH2 0xBC5 DUP5 DUP3 DUP6 ADD PUSH2 0xB77 JUMP JUMPDEST SWAP2 POP POP SWAP3 SWAP2 POP POP JUMP JUMPDEST PUSH1 0x0 DUP1 PUSH1 0x40 DUP4 DUP6 SUB SLT ISZERO PUSH2 0xBE5 JUMPI PUSH2 0xBE4 PUSH2 0xF31 JUMP JUMPDEST JUMPDEST PUSH1 0x0 PUSH2 0xBF3 DUP6 DUP3 DUP7 ADD PUSH2 0xB77 JUMP JUMPDEST SWAP3 POP POP PUSH1 0x20 PUSH2 0xC04 DUP6 DUP3 DUP7 ADD PUSH2 0xB77 JUMP JUMPDEST SWAP2 POP POP SWAP3 POP SWAP3 SWAP1 POP JUMP JUMPDEST PUSH1 0x0 DUP1 PUSH1 0x0 PUSH1 0x60 DUP5 DUP7 SUB SLT ISZERO PUSH2 0xC27 JUMPI PUSH2 0xC26 PUSH2 0xF31 JUMP JUMPDEST JUMPDEST PUSH1 0x0 PUSH2 0xC35 DUP7 DUP3 DUP8 ADD PUSH2 0xB77 JUMP JUMPDEST SWAP4 POP POP PUSH1 0x20 PUSH2 0xC46 DUP7 DUP3 DUP8 ADD PUSH2 0xB77 JUMP JUMPDEST SWAP3 POP POP PUSH1 0x40 PUSH2 0xC57 DUP7 DUP3 DUP8 ADD PUSH2 0xB8C JUMP JUMPDEST SWAP2 POP POP SWAP3 POP SWAP3 POP SWAP3 JUMP JUMPDEST PUSH1 0x0 DUP1 PUSH1 0x40 DUP4 DUP6 SUB SLT ISZERO PUSH2 0xC78 JUMPI PUSH2 0xC77 PUSH2 0xF31 JUMP JUMPDEST JUMPDEST PUSH1 0x0 PUSH2 0xC86 DUP6 DUP3 DUP7 ADD PUSH2 0xB77 JUMP JUMPDEST SWAP3 POP POP PUSH1 0x20 PUSH2 0xC97 DUP6 DUP3 DUP7 ADD PUSH2 0xB8C JUMP JUMPDEST SWAP2 POP POP SWAP3 POP SWAP3 SWAP1 POP JUMP JUMPDEST PUSH1 0x0 PUSH2 0xCAC DUP3 PUSH2 0xD50 JUMP JUMPDEST PUSH2 0xCB6 DUP2 DUP6 PUSH2 0xD5B JUMP JUMPDEST SWAP4 POP PUSH2 0xCC6 DUP2 DUP6 PUSH1 0x20 DUP7 ADD PUSH2 0xE3F JUMP JUMPDEST PUSH2 0xCCF DUP2 PUSH2 0xF36 JUMP JUMPDEST DUP5 ADD SWAP2 POP POP SWAP3 SWAP2 POP POP JUMP JUMPDEST PUSH2 0xCE3 DUP2 PUSH2 0xE28 JUMP JUMPDEST DUP3 MSTORE POP POP JUMP JUMPDEST PUSH2 0xCF2 DUP2 PUSH2 0xE32 JUMP JUMPDEST DUP3 MSTORE POP POP JUMP JUMPDEST PUSH1 0x0 PUSH1 0x20 DUP3 ADD SWAP1 POP DUP2 DUP2 SUB PUSH1 0x0 DUP4 ADD MSTORE PUSH2 0xD12 DUP2 DUP5 PUSH2 0xCA1 JUMP JUMPDEST SWAP1 POP SWAP3 SWAP2 POP POP JUMP JUMPDEST PUSH1 0x0 PUSH1 0x20 DUP3 ADD SWAP1 POP PUSH2 0xD2F PUSH1 0x0 DUP4 ADD DUP5 PUSH2 0xCDA JUMP JUMPDEST SWAP3 SWAP2 POP POP JUMP JUMPDEST PUSH1 0x0 PUSH1 0x20 DUP3 ADD SWAP1 POP PUSH2 0xD4A PUSH1 0x0 DUP4 ADD DUP5 PUSH2 0xCE9 JUMP JUMPDEST SWAP3 SWAP2 POP POP JUMP JUMPDEST PUSH1 0x0 DUP2 MLOAD SWAP1 POP SWAP2 SWAP1 POP JUMP JUMPDEST PUSH1 0x0 DUP3 DUP3 MSTORE PUSH1 0x20 DUP3 ADD SWAP1 POP SWAP3 SWAP2 POP POP JUMP JUMPDEST PUSH1 0x0 PUSH2 0xD77 DUP3 PUSH2 0xE28 JUMP JUMPDEST SWAP2 POP PUSH2 0xD82 DUP4 PUSH2 0xE28 JUMP JUMPDEST SWAP3 POP DUP3 PUSH32 0xFFFFFFFFFFFFFFFFFFFFFFFFFFFFFFFFFFFFFFFFFFFFFFFFFFFFFFFFFFFFFFFF SUB DUP3 GT ISZERO PUSH2 0xDB7 JUMPI PUSH2 0xDB6 PUSH2 0xED3 JUMP JUMPDEST JUMPDEST DUP3 DUP3 ADD SWAP1 POP SWAP3 SWAP2 POP POP JUMP JUMPDEST PUSH1 0x0 PUSH2 0xDCD DUP3 PUSH2 0xE28 JUMP JUMPDEST SWAP2 POP PUSH2 0xDD8 DUP4 PUSH2 0xE28 JUMP JUMPDEST SWAP3 POP DUP3 DUP3 LT ISZERO PUSH2 0xDEB JUMPI PUSH2 0xDEA PUSH2 0xED3 JUMP JUMPDEST JUMPDEST DUP3 DUP3 SUB SWAP1 POP SWAP3 SWAP2 POP POP JUMP JUMPDEST PUSH1 0x0 PUSH2 0xE01 DUP3 PUSH2 0xE08 JUMP JUMPDEST SWAP1 POP SWAP2 SWAP1 POP JUMP JUMPDEST PUSH1 0x0 PUSH20 0xFFFFFFFFFFFFFFFFFFFFFFFFFFFFFFFFFFFFFFFF DUP3 AND SWAP1 POP SWAP2 SWAP1 POP JUMP JUMPDEST PUSH1 0x0 DUP2 SWAP1 POP SWAP2 SWAP1 POP JUMP JUMPDEST PUSH1 0x0 PUSH1 0xFF DUP3 AND SWAP1 POP SWAP2 SWAP1 POP JUMP JUMPDEST PUSH1 0x0 JUMPDEST DUP4 DUP2 LT ISZERO PUSH2 0xE5D JUMPI DUP1 DUP3 ADD MLOAD DUP2 DUP5 ADD MSTORE PUSH1 0x20 DUP2 ADD SWAP1 POP PUSH2 0xE42 JUMP JUMPDEST DUP4 DUP2 GT ISZERO PUSH2 0xE6C JUMPI PUSH1 0x0 DUP5 DUP5 ADD MSTORE JUMPDEST POP POP POP POP JUMP JUMPDEST PUSH1 0x0 PUSH1 0x2 DUP3 DIV SWAP1 POP PUSH1 0x1 DUP3 AND DUP1 PUSH2 0xE8A JUMPI PUSH1 0x7F DUP3 AND SWAP2 POP JUMPDEST PUSH1 0x20 DUP3 LT DUP2 EQ ISZERO PUSH2 0xE9E JUMPI PUSH2 0xE9D PUSH2 0xF02 JUMP JUMPDEST JUMPDEST POP SWAP2 SWAP1 POP JUMP JUMPDEST PUSH32 0x4E487B7100000000000000000000000000000000000000000000000000000000 PUSH1 0x0 MSTORE PUSH1 0x1 PUSH1 0x4 MSTORE PUSH1 0x24 PUSH1 0x0 REVERT JUMPDEST PUSH32 0x4E487B7100000000000000000000000000000000000000000000000000000000 PUSH1 0x0 MSTORE PUSH1 0x11 PUSH1 0x4 MSTORE PUSH1 0x24 PUSH1 0x0 REVERT JUMPDEST PUSH32 0x4E487B7100000000000000000000000000000000000000000000000000000000 PUSH1 0x0 MSTORE PUSH1 0x22 PUSH1 0x4 MSTORE PUSH1 0x24 PUSH1 0x0 REVERT JUMPDEST PUSH1 0x0 DUP1 REVERT JUMPDEST PUSH1 0x0 PUSH1 0x1F NOT PUSH1 0x1F DUP4 ADD AND SWAP1 POP SWAP2 SWAP1 POP JUMP JUMPDEST PUSH2 0xF50 DUP2 PUSH2 0xDF6 JUMP JUMPDEST DUP2 EQ PUSH2 0xF5B JUMPI PUSH1 0x0 DUP1 REVERT JUMPDEST POP JUMP JUMPDEST PUSH2 0xF67 DUP2 PUSH2 0xE28 JUMP JUMPDEST DUP2 EQ PUSH2 0xF72 JUMPI PUSH1 0x0 DUP1 REVERT JUMPDEST POP JUMP INVALID LOG2 PUSH5 0x6970667358 0x22 SLT KECCAK256 LOG4 POP PUSH24 0x7FB2BD0F8C0CFA2FD2E102C9D2F6B248834152FCBA41E6E0 DUP16 0xD3 0xF7 0xB2 SWAP2 PUSH5 0x736F6C6343 STOP ADDMOD SMOD STOP CALLER "
				},
				"gasEstimates": {
					"creation": {
						"codeDepositCost": "849600",
						"executionCost": "infinite",
						"totalCost": "infinite"
					},
					"external": {
						"addProposal((address,string)[])": "infinite",
						"addVoters((address,bool,uint256)[])": "infinite",
						"authorize(address)": "infinite",
						"containsVoterAddr(address)": "infinite",
						"end()": "2517",
						"giveTokenToVoter(address)": "infinite",
						"name()": "infinite",
						"start()": "2473",
						"vote((address,bool,uint256),(address,string))": "infinite"
					}
				},
				"methodIdentifiers": {
					"addProposal((address,string)[])": "4d922a28",
					"addVoters((address,bool,uint256)[])": "611dae18",
					"authorize(address)": "b6a5d7de",
					"containsVoterAddr(address)": "a90ea2ca",
					"end()": "efbe1c1c",
					"giveTokenToVoter(address)": "e3b89d64",
					"name()": "06fdde03",
					"start()": "be9a6555",
					"vote((address,bool,uint256),(address,string))": "0d86d7be"
				}
			},
			"storageLayout": {
				"storage": [
					{
						"astId": 399,
						"contract": "contracts/Voting.sol:Voting",
						"label": "name",
						"offset": 0,
						"slot": "0",
						"type": "t_string_storage"
					},
					{
						"astId": 401,
						"contract": "contracts/Voting.sol:Voting",
						"label": "start",
						"offset": 0,
						"slot": "1",
						"type": "t_uint256"
					},
					{
						"astId": 403,
						"contract": "contracts/Voting.sol:Voting",
						"label": "end",
						"offset": 0,
						"slot": "2",
						"type": "t_uint256"
					},
					{
						"astId": 405,
						"contract": "contracts/Voting.sol:Voting",
						"label": "chairperson",
						"offset": 0,
						"slot": "3",
						"type": "t_address"
					},
					{
						"astId": 409,
						"contract": "contracts/Voting.sol:Voting",
						"label": "voters",
						"offset": 0,
						"slot": "4",
						"type": "t_array(t_struct(Voter)392_storage)dyn_storage"
					},
					{
						"astId": 413,
						"contract": "contracts/Voting.sol:Voting",
						"label": "proposals",
						"offset": 0,
						"slot": "5",
						"type": "t_array(t_struct(Proposal)397_storage)dyn_storage"
					},
					{
						"astId": 420,
						"contract": "contracts/Voting.sol:Voting",
						"label": "token",
						"offset": 0,
						"slot": "6",
						"type": "t_contract(Token)382"
					}
				],
				"types": {
					"t_address": {
						"encoding": "inplace",
						"label": "address",
						"numberOfBytes": "20"
					},
					"t_array(t_struct(Proposal)397_storage)dyn_storage": {
						"base": "t_struct(Proposal)397_storage",
						"encoding": "dynamic_array",
						"label": "struct Voting.Proposal[]",
						"numberOfBytes": "32"
					},
					"t_array(t_struct(Voter)392_storage)dyn_storage": {
						"base": "t_struct(Voter)392_storage",
						"encoding": "dynamic_array",
						"label": "struct Voting.Voter[]",
						"numberOfBytes": "32"
					},
					"t_bool": {
						"encoding": "inplace",
						"label": "bool",
						"numberOfBytes": "1"
					},
					"t_contract(Token)382": {
						"encoding": "inplace",
						"label": "contract Token",
						"numberOfBytes": "20"
					},
					"t_string_storage": {
						"encoding": "bytes",
						"label": "string",
						"numberOfBytes": "32"
					},
					"t_struct(Proposal)397_storage": {
						"encoding": "inplace",
						"label": "struct Voting.Proposal",
						"members": [
							{
								"astId": 394,
								"contract": "contracts/Voting.sol:Voting",
								"label": "addr",
								"offset": 0,
								"slot": "0",
								"type": "t_address"
							},
							{
								"astId": 396,
								"contract": "contracts/Voting.sol:Voting",
								"label": "name",
								"offset": 0,
								"slot": "1",
								"type": "t_string_storage"
							}
						],
						"numberOfBytes": "64"
					},
					"t_struct(Voter)392_storage": {
						"encoding": "inplace",
						"label": "struct Voting.Voter",
						"members": [
							{
								"astId": 387,
								"contract": "contracts/Voting.sol:Voting",
								"label": "addr",
								"offset": 0,
								"slot": "0",
								"type": "t_address"
							},
							{
								"astId": 389,
								"contract": "contracts/Voting.sol:Voting",
								"label": "voted",
								"offset": 20,
								"slot": "0",
								"type": "t_bool"
							},
							{
								"astId": 391,
								"contract": "contracts/Voting.sol:Voting",
								"label": "vote",
								"offset": 0,
								"slot": "1",
								"type": "t_uint256"
							}
						],
						"numberOfBytes": "64"
					},
					"t_uint256": {
						"encoding": "inplace",
						"label": "uint256",
						"numberOfBytes": "32"
					}
				}
			},
			"userdoc": {
				"kind": "user",
				"methods": {},
				"version": 1
			}
		}
	}
}