{
	"contracts/Voting.sol": {
		"Voting": {
			"abi": [
				{
					"inputs": [],
					"stateMutability": "nonpayable",
					"type": "constructor"
				},
				{
					"inputs": [
						{
							"internalType": "address[]",
							"name": "_proposalsAddr",
							"type": "address[]"
						},
						{
							"internalType": "string[]",
							"name": "_proposalsNames",
							"type": "string[]"
						}
					],
					"name": "addProposals",
					"outputs": [],
					"stateMutability": "nonpayable",
					"type": "function"
				},
				{
					"inputs": [
						{
							"internalType": "address",
							"name": "voter",
							"type": "address"
						}
					],
					"name": "addVote",
					"outputs": [],
					"stateMutability": "nonpayable",
					"type": "function"
				},
				{
					"inputs": [
						{
							"internalType": "address[]",
							"name": "_voters",
							"type": "address[]"
						}
					],
					"name": "addVoters",
					"outputs": [],
					"stateMutability": "nonpayable",
					"type": "function"
				},
				{
					"inputs": [],
					"name": "balanceAndAmount",
					"outputs": [
						{
							"internalType": "uint256",
							"name": "",
							"type": "uint256"
						},
						{
							"internalType": "uint256",
							"name": "",
							"type": "uint256"
						},
						{
							"internalType": "bool",
							"name": "",
							"type": "bool"
						}
					],
					"stateMutability": "view",
					"type": "function"
				},
				{
					"inputs": [],
					"name": "getTotalSupply",
					"outputs": [
						{
							"internalType": "uint256",
							"name": "",
							"type": "uint256"
						}
					],
					"stateMutability": "view",
					"type": "function"
				},
				{
					"inputs": [
						{
							"internalType": "address",
							"name": "proposal",
							"type": "address"
						}
					],
					"name": "totalVotesFor",
					"outputs": [
						{
							"internalType": "uint256",
							"name": "",
							"type": "uint256"
						}
					],
					"stateMutability": "view",
					"type": "function"
				},
				{
					"inputs": [
						{
							"internalType": "address",
							"name": "proposal",
							"type": "address"
						}
					],
					"name": "vote",
					"outputs": [],
					"stateMutability": "nonpayable",
					"type": "function"
				}
			],
			"devdoc": {
				"kind": "dev",
				"methods": {},
				"version": 1
			},
			"evm": {
				"assembly": "    /* \"contracts/Voting.sol\":91:2376  contract Voting {\r... */\n  mstore(0x40, 0x80)\n    /* \"contracts/Voting.sol\":365:376  new Token() */\n  mload(0x40)\n  tag_1\n  swap1\n  tag_2\n  jump\t// in\ntag_1:\n  mload(0x40)\n  dup1\n  swap2\n  sub\n  swap1\n  0x00\n  create\n  dup1\n  iszero\n  dup1\n  iszero\n  tag_3\n  jumpi\n  returndatasize\n  0x00\n  dup1\n  returndatacopy\n  revert(0x00, returndatasize)\ntag_3:\n  pop\n    /* \"contracts/Voting.sol\":351:376  Token token = new Token() */\n  0x05\n  exp(0x0100, 0x00)\n  dup2\n  sload\n  dup2\n  0xffffffffffffffffffffffffffffffffffffffff\n  mul\n  not\n  and\n  swap1\n  dup4\n  0xffffffffffffffffffffffffffffffffffffffff\n  and\n  mul\n  or\n  swap1\n  sstore\n  pop\n    /* \"contracts/Voting.sol\":385:552  constructor () {\r... */\n  callvalue\n  dup1\n  iszero\n  tag_4\n  jumpi\n  0x00\n  dup1\n  revert\ntag_4:\n  pop\n    /* \"contracts/Voting.sol\":427:437  msg.sender */\n  caller\n    /* \"contracts/Voting.sol\":413:424  chairperson */\n  0x04\n  0x00\n    /* \"contracts/Voting.sol\":413:437  chairperson = msg.sender */\n  0x0100\n  exp\n  dup2\n  sload\n  dup2\n  0xffffffffffffffffffffffffffffffffffffffff\n  mul\n  not\n  and\n  swap1\n  dup4\n  0xffffffffffffffffffffffffffffffffffffffff\n  and\n  mul\n  or\n  swap1\n  sstore\n  pop\n    /* \"contracts/Voting.sol\":469:479  1650398218 */\n  0x625f140a\n    /* \"contracts/Voting.sol\":457:466  startTime */\n  0x00\n    /* \"contracts/Voting.sol\":457:479  startTime = 1650398218 */\n  dup2\n  swap1\n  sstore\n  pop\n    /* \"contracts/Voting.sol\":526:532  5 days */\n  0x069780\n    /* \"contracts/Voting.sol\":514:523  startTime */\n  sload(0x00)\n    /* \"contracts/Voting.sol\":514:532  startTime + 5 days */\n  tag_7\n  swap2\n  swap1\n  tag_8\n  jump\t// in\ntag_7:\n    /* \"contracts/Voting.sol\":504:511  endTime */\n  0x01\n    /* \"contracts/Voting.sol\":504:532  endTime = startTime + 5 days */\n  dup2\n  swap1\n  sstore\n  pop\n    /* \"contracts/Voting.sol\":91:2376  contract Voting {\r... */\n  jump(tag_9)\ntag_2:\n  dataSize(sub_1)\n  dup1\n  dataOffset(sub_1)\n  dup4\n  codecopy\n  add\n  swap1\n  jump\t// out\n    /* \"#utility.yul\":7:312   */\ntag_8:\n    /* \"#utility.yul\":47:50   */\n  0x00\n    /* \"#utility.yul\":66:86   */\n  tag_12\n    /* \"#utility.yul\":84:85   */\n  dup3\n    /* \"#utility.yul\":66:86   */\n  tag_13\n  jump\t// in\ntag_12:\n    /* \"#utility.yul\":61:86   */\n  swap2\n  pop\n    /* \"#utility.yul\":100:120   */\n  tag_14\n    /* \"#utility.yul\":118:119   */\n  dup4\n    /* \"#utility.yul\":100:120   */\n  tag_13\n  jump\t// in\ntag_14:\n    /* \"#utility.yul\":95:120   */\n  swap3\n  pop\n    /* \"#utility.yul\":254:255   */\n  dup3\n    /* \"#utility.yul\":186:252   */\n  0xffffffffffffffffffffffffffffffffffffffffffffffffffffffffffffffff\n    /* \"#utility.yul\":182:256   */\n  sub\n    /* \"#utility.yul\":179:180   */\n  dup3\n    /* \"#utility.yul\":176:257   */\n  gt\n    /* \"#utility.yul\":173:280   */\n  iszero\n  tag_15\n  jumpi\n    /* \"#utility.yul\":260:278   */\n  tag_16\n  tag_17\n  jump\t// in\ntag_16:\n    /* \"#utility.yul\":173:280   */\ntag_15:\n    /* \"#utility.yul\":304:305   */\n  dup3\n    /* \"#utility.yul\":301:302   */\n  dup3\n    /* \"#utility.yul\":297:306   */\n  add\n    /* \"#utility.yul\":290:306   */\n  swap1\n  pop\n    /* \"#utility.yul\":7:312   */\n  swap3\n  swap2\n  pop\n  pop\n  jump\t// out\n    /* \"#utility.yul\":318:395   */\ntag_13:\n    /* \"#utility.yul\":355:362   */\n  0x00\n    /* \"#utility.yul\":384:389   */\n  dup2\n    /* \"#utility.yul\":373:389   */\n  swap1\n  pop\n    /* \"#utility.yul\":318:395   */\n  swap2\n  swap1\n  pop\n  jump\t// out\n    /* \"#utility.yul\":401:581   */\ntag_17:\n    /* \"#utility.yul\":449:526   */\n  0x4e487b7100000000000000000000000000000000000000000000000000000000\n    /* \"#utility.yul\":446:447   */\n  0x00\n    /* \"#utility.yul\":439:527   */\n  mstore\n    /* \"#utility.yul\":546:550   */\n  0x11\n    /* \"#utility.yul\":543:544   */\n  0x04\n    /* \"#utility.yul\":536:551   */\n  mstore\n    /* \"#utility.yul\":570:574   */\n  0x24\n    /* \"#utility.yul\":567:568   */\n  0x00\n    /* \"#utility.yul\":560:575   */\n  revert\n    /* \"contracts/Voting.sol\":91:2376  contract Voting {\r... */\ntag_9:\n  dataSize(sub_0)\n  dup1\n  dataOffset(sub_0)\n  0x00\n  codecopy\n  0x00\n  return\nstop\n\nsub_0: assembly {\n        /* \"contracts/Voting.sol\":91:2376  contract Voting {\r... */\n      mstore(0x40, 0x80)\n      callvalue\n      dup1\n      iszero\n      tag_1\n      jumpi\n      0x00\n      dup1\n      revert\n    tag_1:\n      pop\n      jumpi(tag_2, lt(calldatasize, 0x04))\n      shr(0xe0, calldataload(0x00))\n      dup1\n      0x6cea0e46\n      gt\n      tag_10\n      jumpi\n      dup1\n      0x6cea0e46\n      eq\n      tag_6\n      jumpi\n      dup1\n      0x6dd7d8ea\n      eq\n      tag_7\n      jumpi\n      dup1\n      0x8203373a\n      eq\n      tag_8\n      jumpi\n      dup1\n      0xc4e41b22\n      eq\n      tag_9\n      jumpi\n      jump(tag_2)\n    tag_10:\n      dup1\n      0x21214986\n      eq\n      tag_3\n      jumpi\n      dup1\n      0x4041ef54\n      eq\n      tag_4\n      jumpi\n      dup1\n      0x633fff16\n      eq\n      tag_5\n      jumpi\n    tag_2:\n      0x00\n      dup1\n      revert\n        /* \"contracts/Voting.sol\":1802:2030  function balanceAndAmount() view public returns (uint, uint, bool) {\r... */\n    tag_3:\n      tag_11\n      tag_12\n      jump\t// in\n    tag_11:\n      mload(0x40)\n      tag_13\n      swap4\n      swap3\n      swap2\n      swap1\n      tag_14\n      jump\t// in\n    tag_13:\n      mload(0x40)\n      dup1\n      swap2\n      sub\n      swap1\n      return\n        /* \"contracts/Voting.sol\":2038:2257  function totalVotesFor(address proposal) view public returns (uint256) {\r... */\n    tag_4:\n      tag_15\n      0x04\n      dup1\n      calldatasize\n      sub\n      dup2\n      add\n      swap1\n      tag_16\n      swap2\n      swap1\n      tag_17\n      jump\t// in\n    tag_16:\n      tag_18\n      jump\t// in\n    tag_15:\n      mload(0x40)\n      tag_19\n      swap2\n      swap1\n      tag_20\n      jump\t// in\n    tag_19:\n      mload(0x40)\n      dup1\n      swap2\n      sub\n      swap1\n      return\n        /* \"contracts/Voting.sol\":982:1342  function addProposals(address[] memory _proposalsAddr, \r... */\n    tag_5:\n      tag_21\n      0x04\n      dup1\n      calldatasize\n      sub\n      dup2\n      add\n      swap1\n      tag_22\n      swap2\n      swap1\n      tag_23\n      jump\t// in\n    tag_22:\n      tag_24\n      jump\t// in\n    tag_21:\n      stop\n        /* \"contracts/Voting.sol\":1350:1429  function addVote(address voter) public {\r... */\n    tag_6:\n      tag_25\n      0x04\n      dup1\n      calldatasize\n      sub\n      dup2\n      add\n      swap1\n      tag_26\n      swap2\n      swap1\n      tag_17\n      jump\t// in\n    tag_26:\n      tag_27\n      jump\t// in\n    tag_25:\n      stop\n        /* \"contracts/Voting.sol\":1437:1794  function vote(address proposal) public {\r... */\n    tag_7:\n      tag_28\n      0x04\n      dup1\n      calldatasize\n      sub\n      dup2\n      add\n      swap1\n      tag_29\n      swap2\n      swap1\n      tag_17\n      jump\t// in\n    tag_29:\n      tag_30\n      jump\t// in\n    tag_28:\n      stop\n        /* \"contracts/Voting.sol\":560:974  function addVoters(address[] memory _voters) public {\r... */\n    tag_8:\n      tag_31\n      0x04\n      dup1\n      calldatasize\n      sub\n      dup2\n      add\n      swap1\n      tag_32\n      swap2\n      swap1\n      tag_33\n      jump\t// in\n    tag_32:\n      tag_34\n      jump\t// in\n    tag_31:\n      stop\n        /* \"contracts/Voting.sol\":2265:2369  function getTotalSupply() view public returns (uint256) {\r... */\n    tag_9:\n      tag_35\n      tag_36\n      jump\t// in\n    tag_35:\n      mload(0x40)\n      tag_37\n      swap2\n      swap1\n      tag_20\n      jump\t// in\n    tag_37:\n      mload(0x40)\n      dup1\n      swap2\n      sub\n      swap1\n      return\n        /* \"contracts/Voting.sol\":1802:2030  function balanceAndAmount() view public returns (uint, uint, bool) {\r... */\n    tag_12:\n        /* \"contracts/Voting.sol\":1851:1855  uint */\n      0x00\n        /* \"contracts/Voting.sol\":1857:1861  uint */\n      dup1\n        /* \"contracts/Voting.sol\":1863:1867  bool */\n      0x00\n        /* \"contracts/Voting.sol\":1880:1892  uint balance */\n      dup1\n        /* \"contracts/Voting.sol\":1895:1900  token */\n      0x05\n      0x00\n      swap1\n      sload\n      swap1\n      0x0100\n      exp\n      swap1\n      div\n      0xffffffffffffffffffffffffffffffffffffffff\n      and\n        /* \"contracts/Voting.sol\":1895:1910  token.balanceOf */\n      0xffffffffffffffffffffffffffffffffffffffff\n      and\n      0x70a08231\n        /* \"contracts/Voting.sol\":1911:1921  msg.sender */\n      caller\n        /* \"contracts/Voting.sol\":1895:1922  token.balanceOf(msg.sender) */\n      mload(0x40)\n      dup3\n      0xffffffff\n      and\n      0xe0\n      shl\n      dup2\n      mstore\n      0x04\n      add\n      tag_39\n      swap2\n      swap1\n      tag_40\n      jump\t// in\n    tag_39:\n      0x20\n      mload(0x40)\n      dup1\n      dup4\n      sub\n      dup2\n      dup7\n      dup1\n      extcodesize\n      iszero\n      dup1\n      iszero\n      tag_41\n      jumpi\n      0x00\n      dup1\n      revert\n    tag_41:\n      pop\n      gas\n      staticcall\n      iszero\n      dup1\n      iszero\n      tag_43\n      jumpi\n      returndatasize\n      0x00\n      dup1\n      returndatacopy\n      revert(0x00, returndatasize)\n    tag_43:\n      pop\n      pop\n      pop\n      pop\n      mload(0x40)\n      returndatasize\n      not(0x1f)\n      0x1f\n      dup3\n      add\n      and\n      dup3\n      add\n      dup1\n      0x40\n      mstore\n      pop\n      dup2\n      add\n      swap1\n      tag_44\n      swap2\n      swap1\n      tag_45\n      jump\t// in\n    tag_44:\n        /* \"contracts/Voting.sol\":1880:1922  uint balance = token.balanceOf(msg.sender) */\n      swap1\n      pop\n        /* \"contracts/Voting.sol\":1933:1944  uint amount */\n      0x00\n        /* \"contracts/Voting.sol\":1947:1948  1 */\n      0x01\n        /* \"contracts/Voting.sol\":1933:1948  uint amount = 1 */\n      swap1\n      pop\n        /* \"contracts/Voting.sol\":1967:1974  balance */\n      dup2\n        /* \"contracts/Voting.sol\":1976:1982  amount */\n      dup2\n        /* \"contracts/Voting.sol\":2015:2021  amount */\n      dup3\n        /* \"contracts/Voting.sol\":1984:1989  token */\n      0x05\n      0x00\n      swap1\n      sload\n      swap1\n      0x0100\n      exp\n      swap1\n      div\n      0xffffffffffffffffffffffffffffffffffffffff\n      and\n        /* \"contracts/Voting.sol\":1984:1999  token.balanceOf */\n      0xffffffffffffffffffffffffffffffffffffffff\n      and\n      0x70a08231\n        /* \"contracts/Voting.sol\":2000:2010  msg.sender */\n      caller\n        /* \"contracts/Voting.sol\":1984:2011  token.balanceOf(msg.sender) */\n      mload(0x40)\n      dup3\n      0xffffffff\n      and\n      0xe0\n      shl\n      dup2\n      mstore\n      0x04\n      add\n      tag_46\n      swap2\n      swap1\n      tag_40\n      jump\t// in\n    tag_46:\n      0x20\n      mload(0x40)\n      dup1\n      dup4\n      sub\n      dup2\n      dup7\n      dup1\n      extcodesize\n      iszero\n      dup1\n      iszero\n      tag_47\n      jumpi\n      0x00\n      dup1\n      revert\n    tag_47:\n      pop\n      gas\n      staticcall\n      iszero\n      dup1\n      iszero\n      tag_49\n      jumpi\n      returndatasize\n      0x00\n      dup1\n      returndatacopy\n      revert(0x00, returndatasize)\n    tag_49:\n      pop\n      pop\n      pop\n      pop\n      mload(0x40)\n      returndatasize\n      not(0x1f)\n      0x1f\n      dup3\n      add\n      and\n      dup3\n      add\n      dup1\n      0x40\n      mstore\n      pop\n      dup2\n      add\n      swap1\n      tag_50\n      swap2\n      swap1\n      tag_45\n      jump\t// in\n    tag_50:\n        /* \"contracts/Voting.sol\":1984:2021  token.balanceOf(msg.sender) == amount */\n      eq\n        /* \"contracts/Voting.sol\":1959:2022  return (balance, amount, token.balanceOf(msg.sender) == amount) */\n      swap5\n      pop\n      swap5\n      pop\n      swap5\n      pop\n      pop\n      pop\n        /* \"contracts/Voting.sol\":1802:2030  function balanceAndAmount() view public returns (uint, uint, bool) {\r... */\n      swap1\n      swap2\n      swap3\n      jump\t// out\n        /* \"contracts/Voting.sol\":2038:2257  function totalVotesFor(address proposal) view public returns (uint256) {\r... */\n    tag_18:\n        /* \"contracts/Voting.sol\":2100:2107  uint256 */\n      0x00\n        /* \"contracts/Voting.sol\":2224:2229  token */\n      0x05\n      0x00\n      swap1\n      sload\n      swap1\n      0x0100\n      exp\n      swap1\n      div\n      0xffffffffffffffffffffffffffffffffffffffff\n      and\n        /* \"contracts/Voting.sol\":2224:2239  token.balanceOf */\n      0xffffffffffffffffffffffffffffffffffffffff\n      and\n      0x70a08231\n        /* \"contracts/Voting.sol\":2240:2248  proposal */\n      dup4\n        /* \"contracts/Voting.sol\":2224:2249  token.balanceOf(proposal) */\n      mload(0x40)\n      dup3\n      0xffffffff\n      and\n      0xe0\n      shl\n      dup2\n      mstore\n      0x04\n      add\n      tag_52\n      swap2\n      swap1\n      tag_40\n      jump\t// in\n    tag_52:\n      0x20\n      mload(0x40)\n      dup1\n      dup4\n      sub\n      dup2\n      dup7\n      dup1\n      extcodesize\n      iszero\n      dup1\n      iszero\n      tag_53\n      jumpi\n      0x00\n      dup1\n      revert\n    tag_53:\n      pop\n      gas\n      staticcall\n      iszero\n      dup1\n      iszero\n      tag_55\n      jumpi\n      returndatasize\n      0x00\n      dup1\n      returndatacopy\n      revert(0x00, returndatasize)\n    tag_55:\n      pop\n      pop\n      pop\n      pop\n      mload(0x40)\n      returndatasize\n      not(0x1f)\n      0x1f\n      dup3\n      add\n      and\n      dup3\n      add\n      dup1\n      0x40\n      mstore\n      pop\n      dup2\n      add\n      swap1\n      tag_56\n      swap2\n      swap1\n      tag_45\n      jump\t// in\n    tag_56:\n        /* \"contracts/Voting.sol\":2217:2249  return token.balanceOf(proposal) */\n      swap1\n      pop\n        /* \"contracts/Voting.sol\":2038:2257  function totalVotesFor(address proposal) view public returns (uint256) {\r... */\n      swap2\n      swap1\n      pop\n      jump\t// out\n        /* \"contracts/Voting.sol\":982:1342  function addProposals(address[] memory _proposalsAddr, \r... */\n    tag_24:\n        /* \"contracts/Voting.sol\":1150:1165  _proposalsNames */\n      dup1\n        /* \"contracts/Voting.sol\":1150:1172  _proposalsNames.length */\n      mload\n        /* \"contracts/Voting.sol\":1125:1139  _proposalsAddr */\n      dup3\n        /* \"contracts/Voting.sol\":1125:1146  _proposalsAddr.length */\n      mload\n        /* \"contracts/Voting.sol\":1125:1172  _proposalsAddr.length == _proposalsNames.length */\n      eq\n        /* \"contracts/Voting.sol\":1117:1197  require(_proposalsAddr.length == _proposalsNames.length, \"Length is different.\") */\n      tag_58\n      jumpi\n      mload(0x40)\n      0x08c379a000000000000000000000000000000000000000000000000000000000\n      dup2\n      mstore\n      0x04\n      add\n      tag_59\n      swap1\n      tag_60\n      jump\t// in\n    tag_59:\n      mload(0x40)\n      dup1\n      swap2\n      sub\n      swap1\n      revert\n    tag_58:\n        /* \"contracts/Voting.sol\":1215:1221  uint i */\n      0x00\n        /* \"contracts/Voting.sol\":1210:1335  for (uint i = 0; i < _proposalsAddr.length; i++) {\r... */\n    tag_61:\n        /* \"contracts/Voting.sol\":1231:1245  _proposalsAddr */\n      dup3\n        /* \"contracts/Voting.sol\":1231:1252  _proposalsAddr.length */\n      mload\n        /* \"contracts/Voting.sol\":1227:1228  i */\n      dup2\n        /* \"contracts/Voting.sol\":1227:1252  i < _proposalsAddr.length */\n      lt\n        /* \"contracts/Voting.sol\":1210:1335  for (uint i = 0; i < _proposalsAddr.length; i++) {\r... */\n      iszero\n      tag_62\n      jumpi\n        /* \"contracts/Voting.sol\":1305:1320  _proposalsNames */\n      dup2\n        /* \"contracts/Voting.sol\":1321:1322  i */\n      dup2\n        /* \"contracts/Voting.sol\":1305:1323  _proposalsNames[i] */\n      dup2\n      mload\n      dup2\n      lt\n      tag_64\n      jumpi\n      tag_65\n      tag_66\n      jump\t// in\n    tag_65:\n    tag_64:\n      0x20\n      mul\n      0x20\n      add\n      add\n      mload\n        /* \"contracts/Voting.sol\":1274:1283  proposals */\n      0x03\n        /* \"contracts/Voting.sol\":1274:1302  proposals[_proposalsAddr[i]] */\n      0x00\n        /* \"contracts/Voting.sol\":1284:1298  _proposalsAddr */\n      dup6\n        /* \"contracts/Voting.sol\":1299:1300  i */\n      dup5\n        /* \"contracts/Voting.sol\":1284:1301  _proposalsAddr[i] */\n      dup2\n      mload\n      dup2\n      lt\n      tag_67\n      jumpi\n      tag_68\n      tag_66\n      jump\t// in\n    tag_68:\n    tag_67:\n      0x20\n      mul\n      0x20\n      add\n      add\n      mload\n        /* \"contracts/Voting.sol\":1274:1302  proposals[_proposalsAddr[i]] */\n      0xffffffffffffffffffffffffffffffffffffffff\n      and\n      0xffffffffffffffffffffffffffffffffffffffff\n      and\n      dup2\n      mstore\n      0x20\n      add\n      swap1\n      dup2\n      mstore\n      0x20\n      add\n      0x00\n      keccak256\n        /* \"contracts/Voting.sol\":1274:1323  proposals[_proposalsAddr[i]] = _proposalsNames[i] */\n      swap1\n      dup1\n      mload\n      swap1\n      0x20\n      add\n      swap1\n      tag_69\n      swap3\n      swap2\n      swap1\n      tag_70\n      jump\t// in\n    tag_69:\n      pop\n        /* \"contracts/Voting.sol\":1254:1257  i++ */\n      dup1\n      dup1\n      tag_71\n      swap1\n      tag_72\n      jump\t// in\n    tag_71:\n      swap2\n      pop\n      pop\n        /* \"contracts/Voting.sol\":1210:1335  for (uint i = 0; i < _proposalsAddr.length; i++) {\r... */\n      jump(tag_61)\n    tag_62:\n      pop\n        /* \"contracts/Voting.sol\":982:1342  function addProposals(address[] memory _proposalsAddr, \r... */\n      pop\n      pop\n      jump\t// out\n        /* \"contracts/Voting.sol\":1350:1429  function addVote(address voter) public {\r... */\n    tag_27:\n        /* \"contracts/Voting.sol\":1400:1405  token */\n      0x05\n      0x00\n      swap1\n      sload\n      swap1\n      0x0100\n      exp\n      swap1\n      div\n      0xffffffffffffffffffffffffffffffffffffffff\n      and\n        /* \"contracts/Voting.sol\":1400:1410  token.mint */\n      0xffffffffffffffffffffffffffffffffffffffff\n      and\n      0x40c10f19\n        /* \"contracts/Voting.sol\":1411:1416  voter */\n      dup3\n        /* \"contracts/Voting.sol\":1418:1419  1 */\n      0x01\n        /* \"contracts/Voting.sol\":1400:1420  token.mint(voter, 1) */\n      mload(0x40)\n      dup4\n      0xffffffff\n      and\n      0xe0\n      shl\n      dup2\n      mstore\n      0x04\n      add\n      tag_74\n      swap3\n      swap2\n      swap1\n      tag_75\n      jump\t// in\n    tag_74:\n      0x00\n      mload(0x40)\n      dup1\n      dup4\n      sub\n      dup2\n      0x00\n      dup8\n      dup1\n      extcodesize\n      iszero\n      dup1\n      iszero\n      tag_76\n      jumpi\n      0x00\n      dup1\n      revert\n    tag_76:\n      pop\n      gas\n      call\n      iszero\n      dup1\n      iszero\n      tag_78\n      jumpi\n      returndatasize\n      0x00\n      dup1\n      returndatacopy\n      revert(0x00, returndatasize)\n    tag_78:\n      pop\n      pop\n      pop\n      pop\n        /* \"contracts/Voting.sol\":1350:1429  function addVote(address voter) public {\r... */\n      pop\n      jump\t// out\n        /* \"contracts/Voting.sol\":1437:1794  function vote(address proposal) public {\r... */\n    tag_30:\n        /* \"contracts/Voting.sol\":1514:1521  endTime */\n      sload(0x01)\n        /* \"contracts/Voting.sol\":1495:1510  block.timestamp */\n      timestamp\n        /* \"contracts/Voting.sol\":1495:1521  block.timestamp <= endTime */\n      gt\n      iszero\n        /* \"contracts/Voting.sol\":1487:1538  require(block.timestamp <= endTime, \"Time is end.\") */\n      tag_80\n      jumpi\n      mload(0x40)\n      0x08c379a000000000000000000000000000000000000000000000000000000000\n      dup2\n      mstore\n      0x04\n      add\n      tag_81\n      swap1\n      tag_82\n      jump\t// in\n    tag_81:\n      mload(0x40)\n      dup1\n      swap2\n      sub\n      swap1\n      revert\n    tag_80:\n        /* \"contracts/Voting.sol\":1587:1588  0 */\n      0x00\n        /* \"contracts/Voting.sol\":1557:1562  token */\n      0x05\n      0x00\n      swap1\n      sload\n      swap1\n      0x0100\n      exp\n      swap1\n      div\n      0xffffffffffffffffffffffffffffffffffffffff\n      and\n        /* \"contracts/Voting.sol\":1557:1572  token.balanceOf */\n      0xffffffffffffffffffffffffffffffffffffffff\n      and\n      0x70a08231\n        /* \"contracts/Voting.sol\":1573:1583  msg.sender */\n      caller\n        /* \"contracts/Voting.sol\":1557:1584  token.balanceOf(msg.sender) */\n      mload(0x40)\n      dup3\n      0xffffffff\n      and\n      0xe0\n      shl\n      dup2\n      mstore\n      0x04\n      add\n      tag_83\n      swap2\n      swap1\n      tag_40\n      jump\t// in\n    tag_83:\n      0x20\n      mload(0x40)\n      dup1\n      dup4\n      sub\n      dup2\n      dup7\n      dup1\n      extcodesize\n      iszero\n      dup1\n      iszero\n      tag_84\n      jumpi\n      0x00\n      dup1\n      revert\n    tag_84:\n      pop\n      gas\n      staticcall\n      iszero\n      dup1\n      iszero\n      tag_86\n      jumpi\n      returndatasize\n      0x00\n      dup1\n      returndatacopy\n      revert(0x00, returndatasize)\n    tag_86:\n      pop\n      pop\n      pop\n      pop\n      mload(0x40)\n      returndatasize\n      not(0x1f)\n      0x1f\n      dup3\n      add\n      and\n      dup3\n      add\n      dup1\n      0x40\n      mstore\n      pop\n      dup2\n      add\n      swap1\n      tag_87\n      swap2\n      swap1\n      tag_45\n      jump\t// in\n    tag_87:\n        /* \"contracts/Voting.sol\":1557:1588  token.balanceOf(msg.sender) > 0 */\n      gt\n        /* \"contracts/Voting.sol\":1549:1613  require(token.balanceOf(msg.sender) > 0, \"Token doesn't exist.\") */\n      tag_88\n      jumpi\n      mload(0x40)\n      0x08c379a000000000000000000000000000000000000000000000000000000000\n      dup2\n      mstore\n      0x04\n      add\n      tag_89\n      swap1\n      tag_90\n      jump\t// in\n    tag_89:\n      mload(0x40)\n      dup1\n      swap2\n      sub\n      swap1\n      revert\n    tag_88:\n        /* \"contracts/Voting.sol\":1633:1639  voters */\n      0x02\n        /* \"contracts/Voting.sol\":1633:1651  voters[msg.sender] */\n      0x00\n        /* \"contracts/Voting.sol\":1640:1650  msg.sender */\n      caller\n        /* \"contracts/Voting.sol\":1633:1651  voters[msg.sender] */\n      0xffffffffffffffffffffffffffffffffffffffff\n      and\n      0xffffffffffffffffffffffffffffffffffffffff\n      and\n      dup2\n      mstore\n      0x20\n      add\n      swap1\n      dup2\n      mstore\n      0x20\n      add\n      0x00\n      keccak256\n      0x00\n      swap1\n      sload\n      swap1\n      0x0100\n      exp\n      swap1\n      div\n      0xff\n      and\n        /* \"contracts/Voting.sol\":1632:1651  !voters[msg.sender] */\n      iszero\n        /* \"contracts/Voting.sol\":1624:1676  require(!voters[msg.sender], \"Voter already voted.\") */\n      tag_91\n      jumpi\n      mload(0x40)\n      0x08c379a000000000000000000000000000000000000000000000000000000000\n      dup2\n      mstore\n      0x04\n      add\n      tag_92\n      swap1\n      tag_93\n      jump\t// in\n    tag_92:\n      mload(0x40)\n      dup1\n      swap2\n      sub\n      swap1\n      revert\n    tag_91:\n        /* \"contracts/Voting.sol\":1697:1702  token */\n      0x05\n      0x00\n      swap1\n      sload\n      swap1\n      0x0100\n      exp\n      swap1\n      div\n      0xffffffffffffffffffffffffffffffffffffffff\n      and\n        /* \"contracts/Voting.sol\":1697:1711  token.transfer */\n      0xffffffffffffffffffffffffffffffffffffffff\n      and\n      0xa9059cbb\n        /* \"contracts/Voting.sol\":1712:1720  proposal */\n      dup3\n        /* \"contracts/Voting.sol\":1722:1727  token */\n      0x05\n      0x00\n      swap1\n      sload\n      swap1\n      0x0100\n      exp\n      swap1\n      div\n      0xffffffffffffffffffffffffffffffffffffffff\n      and\n        /* \"contracts/Voting.sol\":1722:1737  token.balanceOf */\n      0xffffffffffffffffffffffffffffffffffffffff\n      and\n      0x70a08231\n        /* \"contracts/Voting.sol\":1738:1748  msg.sender */\n      caller\n        /* \"contracts/Voting.sol\":1722:1749  token.balanceOf(msg.sender) */\n      mload(0x40)\n      dup3\n      0xffffffff\n      and\n      0xe0\n      shl\n      dup2\n      mstore\n      0x04\n      add\n      tag_94\n      swap2\n      swap1\n      tag_40\n      jump\t// in\n    tag_94:\n      0x20\n      mload(0x40)\n      dup1\n      dup4\n      sub\n      dup2\n      dup7\n      dup1\n      extcodesize\n      iszero\n      dup1\n      iszero\n      tag_95\n      jumpi\n      0x00\n      dup1\n      revert\n    tag_95:\n      pop\n      gas\n      staticcall\n      iszero\n      dup1\n      iszero\n      tag_97\n      jumpi\n      returndatasize\n      0x00\n      dup1\n      returndatacopy\n      revert(0x00, returndatasize)\n    tag_97:\n      pop\n      pop\n      pop\n      pop\n      mload(0x40)\n      returndatasize\n      not(0x1f)\n      0x1f\n      dup3\n      add\n      and\n      dup3\n      add\n      dup1\n      0x40\n      mstore\n      pop\n      dup2\n      add\n      swap1\n      tag_98\n      swap2\n      swap1\n      tag_45\n      jump\t// in\n    tag_98:\n        /* \"contracts/Voting.sol\":1697:1750  token.transfer(proposal, token.balanceOf(msg.sender)) */\n      mload(0x40)\n      dup4\n      0xffffffff\n      and\n      0xe0\n      shl\n      dup2\n      mstore\n      0x04\n      add\n      tag_99\n      swap3\n      swap2\n      swap1\n      tag_100\n      jump\t// in\n    tag_99:\n      0x00\n      mload(0x40)\n      dup1\n      dup4\n      sub\n      dup2\n      0x00\n      dup8\n      dup1\n      extcodesize\n      iszero\n      dup1\n      iszero\n      tag_101\n      jumpi\n      0x00\n      dup1\n      revert\n    tag_101:\n      pop\n      gas\n      call\n      iszero\n      dup1\n      iszero\n      tag_103\n      jumpi\n      returndatasize\n      0x00\n      dup1\n      returndatacopy\n      revert(0x00, returndatasize)\n    tag_103:\n      pop\n      pop\n      pop\n      pop\n        /* \"contracts/Voting.sol\":1782:1786  true */\n      0x01\n        /* \"contracts/Voting.sol\":1761:1767  voters */\n      0x02\n        /* \"contracts/Voting.sol\":1761:1779  voters[msg.sender] */\n      0x00\n        /* \"contracts/Voting.sol\":1768:1778  msg.sender */\n      caller\n        /* \"contracts/Voting.sol\":1761:1779  voters[msg.sender] */\n      0xffffffffffffffffffffffffffffffffffffffff\n      and\n      0xffffffffffffffffffffffffffffffffffffffff\n      and\n      dup2\n      mstore\n      0x20\n      add\n      swap1\n      dup2\n      mstore\n      0x20\n      add\n      0x00\n      keccak256\n      0x00\n        /* \"contracts/Voting.sol\":1761:1786  voters[msg.sender] = true */\n      0x0100\n      exp\n      dup2\n      sload\n      dup2\n      0xff\n      mul\n      not\n      and\n      swap1\n      dup4\n      iszero\n      iszero\n      mul\n      or\n      swap1\n      sstore\n      pop\n        /* \"contracts/Voting.sol\":1437:1794  function vote(address proposal) public {\r... */\n      pop\n      jump\t// out\n        /* \"contracts/Voting.sol\":560:974  function addVoters(address[] memory _voters) public {\r... */\n    tag_34:\n        /* \"contracts/Voting.sol\":645:656  chairperson */\n      0x04\n      0x00\n      swap1\n      sload\n      swap1\n      0x0100\n      exp\n      swap1\n      div\n      0xffffffffffffffffffffffffffffffffffffffff\n      and\n        /* \"contracts/Voting.sol\":631:656  msg.sender == chairperson */\n      0xffffffffffffffffffffffffffffffffffffffff\n      and\n        /* \"contracts/Voting.sol\":631:641  msg.sender */\n      caller\n        /* \"contracts/Voting.sol\":631:656  msg.sender == chairperson */\n      0xffffffffffffffffffffffffffffffffffffffff\n      and\n      eq\n        /* \"contracts/Voting.sol\":623:688  require(msg.sender == chairperson, \"It is not from chairperson.\") */\n      tag_105\n      jumpi\n      mload(0x40)\n      0x08c379a000000000000000000000000000000000000000000000000000000000\n      dup2\n      mstore\n      0x04\n      add\n      tag_106\n      swap1\n      tag_107\n      jump\t// in\n    tag_106:\n      mload(0x40)\n      dup1\n      swap2\n      sub\n      swap1\n      revert\n    tag_105:\n        /* \"contracts/Voting.sol\":798:804  uint i */\n      0x00\n        /* \"contracts/Voting.sol\":793:929  for (uint i = 0; i < _voters.length; i++) {\r... */\n    tag_108:\n        /* \"contracts/Voting.sol\":814:821  _voters */\n      dup2\n        /* \"contracts/Voting.sol\":814:828  _voters.length */\n      mload\n        /* \"contracts/Voting.sol\":810:811  i */\n      dup2\n        /* \"contracts/Voting.sol\":810:828  i < _voters.length */\n      lt\n        /* \"contracts/Voting.sol\":793:929  for (uint i = 0; i < _voters.length; i++) {\r... */\n      iszero\n      tag_109\n      jumpi\n        /* \"contracts/Voting.sol\":871:876  false */\n      0x00\n        /* \"contracts/Voting.sol\":850:856  voters */\n      0x02\n        /* \"contracts/Voting.sol\":850:868  voters[_voters[i]] */\n      0x00\n        /* \"contracts/Voting.sol\":857:864  _voters */\n      dup5\n        /* \"contracts/Voting.sol\":865:866  i */\n      dup5\n        /* \"contracts/Voting.sol\":857:867  _voters[i] */\n      dup2\n      mload\n      dup2\n      lt\n      tag_111\n      jumpi\n      tag_112\n      tag_66\n      jump\t// in\n    tag_112:\n    tag_111:\n      0x20\n      mul\n      0x20\n      add\n      add\n      mload\n        /* \"contracts/Voting.sol\":850:868  voters[_voters[i]] */\n      0xffffffffffffffffffffffffffffffffffffffff\n      and\n      0xffffffffffffffffffffffffffffffffffffffff\n      and\n      dup2\n      mstore\n      0x20\n      add\n      swap1\n      dup2\n      mstore\n      0x20\n      add\n      0x00\n      keccak256\n      0x00\n        /* \"contracts/Voting.sol\":850:876  voters[_voters[i]] = false */\n      0x0100\n      exp\n      dup2\n      sload\n      dup2\n      0xff\n      mul\n      not\n      and\n      swap1\n      dup4\n      iszero\n      iszero\n      mul\n      or\n      swap1\n      sstore\n      pop\n        /* \"contracts/Voting.sol\":891:896  token */\n      0x05\n      0x00\n      swap1\n      sload\n      swap1\n      0x0100\n      exp\n      swap1\n      div\n      0xffffffffffffffffffffffffffffffffffffffff\n      and\n        /* \"contracts/Voting.sol\":891:901  token.mint */\n      0xffffffffffffffffffffffffffffffffffffffff\n      and\n      0x40c10f19\n        /* \"contracts/Voting.sol\":902:909  _voters */\n      dup4\n        /* \"contracts/Voting.sol\":910:911  i */\n      dup4\n        /* \"contracts/Voting.sol\":902:912  _voters[i] */\n      dup2\n      mload\n      dup2\n      lt\n      tag_113\n      jumpi\n      tag_114\n      tag_66\n      jump\t// in\n    tag_114:\n    tag_113:\n      0x20\n      mul\n      0x20\n      add\n      add\n      mload\n        /* \"contracts/Voting.sol\":914:915  1 */\n      0x01\n        /* \"contracts/Voting.sol\":891:916  token.mint(_voters[i], 1) */\n      mload(0x40)\n      dup4\n      0xffffffff\n      and\n      0xe0\n      shl\n      dup2\n      mstore\n      0x04\n      add\n      tag_115\n      swap3\n      swap2\n      swap1\n      tag_75\n      jump\t// in\n    tag_115:\n      0x00\n      mload(0x40)\n      dup1\n      dup4\n      sub\n      dup2\n      0x00\n      dup8\n      dup1\n      extcodesize\n      iszero\n      dup1\n      iszero\n      tag_116\n      jumpi\n      0x00\n      dup1\n      revert\n    tag_116:\n      pop\n      gas\n      call\n      iszero\n      dup1\n      iszero\n      tag_118\n      jumpi\n      returndatasize\n      0x00\n      dup1\n      returndatacopy\n      revert(0x00, returndatasize)\n    tag_118:\n      pop\n      pop\n      pop\n      pop\n        /* \"contracts/Voting.sol\":830:833  i++ */\n      dup1\n      dup1\n      tag_119\n      swap1\n      tag_72\n      jump\t// in\n    tag_119:\n      swap2\n      pop\n      pop\n        /* \"contracts/Voting.sol\":793:929  for (uint i = 0; i < _voters.length; i++) {\r... */\n      jump(tag_108)\n    tag_109:\n      pop\n        /* \"contracts/Voting.sol\":939:944  token */\n      0x05\n      0x00\n      swap1\n      sload\n      swap1\n      0x0100\n      exp\n      swap1\n      div\n      0xffffffffffffffffffffffffffffffffffffffff\n      and\n        /* \"contracts/Voting.sol\":939:949  token.mint */\n      0xffffffffffffffffffffffffffffffffffffffff\n      and\n      0x40c10f19\n        /* \"contracts/Voting.sol\":950:961  chairperson */\n      0x04\n      0x00\n      swap1\n      sload\n      swap1\n      0x0100\n      exp\n      swap1\n      div\n      0xffffffffffffffffffffffffffffffffffffffff\n      and\n        /* \"contracts/Voting.sol\":963:964  1 */\n      0x01\n        /* \"contracts/Voting.sol\":939:965  token.mint(chairperson, 1) */\n      mload(0x40)\n      dup4\n      0xffffffff\n      and\n      0xe0\n      shl\n      dup2\n      mstore\n      0x04\n      add\n      tag_120\n      swap3\n      swap2\n      swap1\n      tag_75\n      jump\t// in\n    tag_120:\n      0x00\n      mload(0x40)\n      dup1\n      dup4\n      sub\n      dup2\n      0x00\n      dup8\n      dup1\n      extcodesize\n      iszero\n      dup1\n      iszero\n      tag_121\n      jumpi\n      0x00\n      dup1\n      revert\n    tag_121:\n      pop\n      gas\n      call\n      iszero\n      dup1\n      iszero\n      tag_123\n      jumpi\n      returndatasize\n      0x00\n      dup1\n      returndatacopy\n      revert(0x00, returndatasize)\n    tag_123:\n      pop\n      pop\n      pop\n      pop\n        /* \"contracts/Voting.sol\":560:974  function addVoters(address[] memory _voters) public {\r... */\n      pop\n      jump\t// out\n        /* \"contracts/Voting.sol\":2265:2369  function getTotalSupply() view public returns (uint256) {\r... */\n    tag_36:\n        /* \"contracts/Voting.sol\":2312:2319  uint256 */\n      0x00\n        /* \"contracts/Voting.sol\":2339:2344  token */\n      0x05\n      0x00\n      swap1\n      sload\n      swap1\n      0x0100\n      exp\n      swap1\n      div\n      0xffffffffffffffffffffffffffffffffffffffff\n      and\n        /* \"contracts/Voting.sol\":2339:2359  token.getTotalSupply */\n      0xffffffffffffffffffffffffffffffffffffffff\n      and\n      0xc4e41b22\n        /* \"contracts/Voting.sol\":2339:2361  token.getTotalSupply() */\n      mload(0x40)\n      dup2\n      0xffffffff\n      and\n      0xe0\n      shl\n      dup2\n      mstore\n      0x04\n      add\n      0x20\n      mload(0x40)\n      dup1\n      dup4\n      sub\n      dup2\n      dup7\n      dup1\n      extcodesize\n      iszero\n      dup1\n      iszero\n      tag_125\n      jumpi\n      0x00\n      dup1\n      revert\n    tag_125:\n      pop\n      gas\n      staticcall\n      iszero\n      dup1\n      iszero\n      tag_127\n      jumpi\n      returndatasize\n      0x00\n      dup1\n      returndatacopy\n      revert(0x00, returndatasize)\n    tag_127:\n      pop\n      pop\n      pop\n      pop\n      mload(0x40)\n      returndatasize\n      not(0x1f)\n      0x1f\n      dup3\n      add\n      and\n      dup3\n      add\n      dup1\n      0x40\n      mstore\n      pop\n      dup2\n      add\n      swap1\n      tag_128\n      swap2\n      swap1\n      tag_45\n      jump\t// in\n    tag_128:\n        /* \"contracts/Voting.sol\":2332:2361  return token.getTotalSupply() */\n      swap1\n      pop\n        /* \"contracts/Voting.sol\":2265:2369  function getTotalSupply() view public returns (uint256) {\r... */\n      swap1\n      jump\t// out\n    tag_70:\n      dup3\n      dup1\n      sload\n      tag_129\n      swap1\n      tag_130\n      jump\t// in\n    tag_129:\n      swap1\n      0x00\n      mstore\n      keccak256(0x00, 0x20)\n      swap1\n      0x1f\n      add\n      0x20\n      swap1\n      div\n      dup2\n      add\n      swap3\n      dup3\n      tag_132\n      jumpi\n      0x00\n      dup6\n      sstore\n      jump(tag_131)\n    tag_132:\n      dup3\n      0x1f\n      lt\n      tag_133\n      jumpi\n      dup1\n      mload\n      not(0xff)\n      and\n      dup4\n      dup1\n      add\n      or\n      dup6\n      sstore\n      jump(tag_131)\n    tag_133:\n      dup3\n      dup1\n      add\n      0x01\n      add\n      dup6\n      sstore\n      dup3\n      iszero\n      tag_131\n      jumpi\n      swap2\n      dup3\n      add\n    tag_134:\n      dup3\n      dup2\n      gt\n      iszero\n      tag_135\n      jumpi\n      dup3\n      mload\n      dup3\n      sstore\n      swap2\n      0x20\n      add\n      swap2\n      swap1\n      0x01\n      add\n      swap1\n      jump(tag_134)\n    tag_135:\n    tag_131:\n      pop\n      swap1\n      pop\n      tag_136\n      swap2\n      swap1\n      tag_137\n      jump\t// in\n    tag_136:\n      pop\n      swap1\n      jump\t// out\n    tag_137:\n    tag_138:\n      dup1\n      dup3\n      gt\n      iszero\n      tag_139\n      jumpi\n      0x00\n      dup2\n      0x00\n      swap1\n      sstore\n      pop\n      0x01\n      add\n      jump(tag_138)\n    tag_139:\n      pop\n      swap1\n      jump\t// out\n        /* \"#utility.yul\":24:746   */\n    tag_141:\n        /* \"#utility.yul\":120:125   */\n      0x00\n        /* \"#utility.yul\":145:226   */\n      tag_143\n        /* \"#utility.yul\":161:225   */\n      tag_144\n        /* \"#utility.yul\":218:224   */\n      dup5\n        /* \"#utility.yul\":161:225   */\n      tag_145\n      jump\t// in\n    tag_144:\n        /* \"#utility.yul\":145:226   */\n      tag_146\n      jump\t// in\n    tag_143:\n        /* \"#utility.yul\":136:226   */\n      swap1\n      pop\n        /* \"#utility.yul\":246:251   */\n      dup1\n        /* \"#utility.yul\":275:281   */\n      dup4\n        /* \"#utility.yul\":268:273   */\n      dup3\n        /* \"#utility.yul\":261:282   */\n      mstore\n        /* \"#utility.yul\":309:313   */\n      0x20\n        /* \"#utility.yul\":302:307   */\n      dup3\n        /* \"#utility.yul\":298:314   */\n      add\n        /* \"#utility.yul\":291:314   */\n      swap1\n      pop\n        /* \"#utility.yul\":335:341   */\n      dup3\n        /* \"#utility.yul\":385:388   */\n      dup6\n        /* \"#utility.yul\":377:381   */\n      0x20\n        /* \"#utility.yul\":369:375   */\n      dup7\n        /* \"#utility.yul\":365:382   */\n      mul\n        /* \"#utility.yul\":360:363   */\n      dup3\n        /* \"#utility.yul\":356:383   */\n      add\n        /* \"#utility.yul\":353:389   */\n      gt\n        /* \"#utility.yul\":350:493   */\n      iszero\n      tag_147\n      jumpi\n        /* \"#utility.yul\":404:483   */\n      tag_148\n      tag_149\n      jump\t// in\n    tag_148:\n        /* \"#utility.yul\":350:493   */\n    tag_147:\n        /* \"#utility.yul\":517:518   */\n      0x00\n        /* \"#utility.yul\":502:740   */\n    tag_150:\n        /* \"#utility.yul\":527:533   */\n      dup6\n        /* \"#utility.yul\":524:525   */\n      dup2\n        /* \"#utility.yul\":521:534   */\n      lt\n        /* \"#utility.yul\":502:740   */\n      iszero\n      tag_152\n      jumpi\n        /* \"#utility.yul\":595:598   */\n      dup2\n        /* \"#utility.yul\":624:661   */\n      tag_153\n        /* \"#utility.yul\":657:660   */\n      dup9\n        /* \"#utility.yul\":645:655   */\n      dup3\n        /* \"#utility.yul\":624:661   */\n      tag_154\n      jump\t// in\n    tag_153:\n        /* \"#utility.yul\":619:622   */\n      dup5\n        /* \"#utility.yul\":612:662   */\n      mstore\n        /* \"#utility.yul\":691:695   */\n      0x20\n        /* \"#utility.yul\":686:689   */\n      dup5\n        /* \"#utility.yul\":682:696   */\n      add\n        /* \"#utility.yul\":675:696   */\n      swap4\n      pop\n        /* \"#utility.yul\":725:729   */\n      0x20\n        /* \"#utility.yul\":720:723   */\n      dup4\n        /* \"#utility.yul\":716:730   */\n      add\n        /* \"#utility.yul\":709:730   */\n      swap3\n      pop\n        /* \"#utility.yul\":562:740   */\n      pop\n        /* \"#utility.yul\":549:550   */\n      0x01\n        /* \"#utility.yul\":546:547   */\n      dup2\n        /* \"#utility.yul\":542:551   */\n      add\n        /* \"#utility.yul\":537:551   */\n      swap1\n      pop\n        /* \"#utility.yul\":502:740   */\n      jump(tag_150)\n    tag_152:\n        /* \"#utility.yul\":506:520   */\n      pop\n        /* \"#utility.yul\":126:746   */\n      pop\n      pop\n        /* \"#utility.yul\":24:746   */\n      swap4\n      swap3\n      pop\n      pop\n      pop\n      jump\t// out\n        /* \"#utility.yul\":768:1725   */\n    tag_155:\n        /* \"#utility.yul\":874:879   */\n      0x00\n        /* \"#utility.yul\":899:990   */\n      tag_157\n        /* \"#utility.yul\":915:989   */\n      tag_158\n        /* \"#utility.yul\":982:988   */\n      dup5\n        /* \"#utility.yul\":915:989   */\n      tag_159\n      jump\t// in\n    tag_158:\n        /* \"#utility.yul\":899:990   */\n      tag_146\n      jump\t// in\n    tag_157:\n        /* \"#utility.yul\":890:990   */\n      swap1\n      pop\n        /* \"#utility.yul\":1010:1015   */\n      dup1\n        /* \"#utility.yul\":1039:1045   */\n      dup4\n        /* \"#utility.yul\":1032:1037   */\n      dup3\n        /* \"#utility.yul\":1025:1046   */\n      mstore\n        /* \"#utility.yul\":1073:1077   */\n      0x20\n        /* \"#utility.yul\":1066:1071   */\n      dup3\n        /* \"#utility.yul\":1062:1078   */\n      add\n        /* \"#utility.yul\":1055:1078   */\n      swap1\n      pop\n        /* \"#utility.yul\":1099:1105   */\n      dup3\n        /* \"#utility.yul\":1149:1152   */\n      dup6\n        /* \"#utility.yul\":1141:1145   */\n      0x20\n        /* \"#utility.yul\":1133:1139   */\n      dup7\n        /* \"#utility.yul\":1129:1146   */\n      mul\n        /* \"#utility.yul\":1124:1127   */\n      dup3\n        /* \"#utility.yul\":1120:1147   */\n      add\n        /* \"#utility.yul\":1117:1153   */\n      gt\n        /* \"#utility.yul\":1114:1257   */\n      iszero\n      tag_160\n      jumpi\n        /* \"#utility.yul\":1168:1247   */\n      tag_161\n      tag_149\n      jump\t// in\n    tag_161:\n        /* \"#utility.yul\":1114:1257   */\n    tag_160:\n        /* \"#utility.yul\":1281:1282   */\n      0x00\n        /* \"#utility.yul\":1266:1719   */\n    tag_162:\n        /* \"#utility.yul\":1291:1297   */\n      dup6\n        /* \"#utility.yul\":1288:1289   */\n      dup2\n        /* \"#utility.yul\":1285:1298   */\n      lt\n        /* \"#utility.yul\":1266:1719   */\n      iszero\n      tag_164\n      jumpi\n        /* \"#utility.yul\":1373:1376   */\n      dup2\n        /* \"#utility.yul\":1360:1377   */\n      calldataload\n        /* \"#utility.yul\":1409:1427   */\n      0xffffffffffffffff\n        /* \"#utility.yul\":1396:1407   */\n      dup2\n        /* \"#utility.yul\":1393:1428   */\n      gt\n        /* \"#utility.yul\":1390:1512   */\n      iszero\n      tag_165\n      jumpi\n        /* \"#utility.yul\":1431:1510   */\n      tag_166\n      tag_167\n      jump\t// in\n    tag_166:\n        /* \"#utility.yul\":1390:1512   */\n    tag_165:\n        /* \"#utility.yul\":1555:1566   */\n      dup1\n        /* \"#utility.yul\":1547:1553   */\n      dup7\n        /* \"#utility.yul\":1543:1567   */\n      add\n        /* \"#utility.yul\":1593:1640   */\n      tag_168\n        /* \"#utility.yul\":1636:1639   */\n      dup10\n        /* \"#utility.yul\":1624:1634   */\n      dup3\n        /* \"#utility.yul\":1593:1640   */\n      tag_169\n      jump\t// in\n    tag_168:\n        /* \"#utility.yul\":1588:1591   */\n      dup6\n        /* \"#utility.yul\":1581:1641   */\n      mstore\n        /* \"#utility.yul\":1670:1674   */\n      0x20\n        /* \"#utility.yul\":1665:1668   */\n      dup6\n        /* \"#utility.yul\":1661:1675   */\n      add\n        /* \"#utility.yul\":1654:1675   */\n      swap5\n      pop\n        /* \"#utility.yul\":1704:1708   */\n      0x20\n        /* \"#utility.yul\":1699:1702   */\n      dup5\n        /* \"#utility.yul\":1695:1709   */\n      add\n        /* \"#utility.yul\":1688:1709   */\n      swap4\n      pop\n        /* \"#utility.yul\":1326:1719   */\n      pop\n      pop\n        /* \"#utility.yul\":1313:1314   */\n      0x01\n        /* \"#utility.yul\":1310:1311   */\n      dup2\n        /* \"#utility.yul\":1306:1315   */\n      add\n        /* \"#utility.yul\":1301:1315   */\n      swap1\n      pop\n        /* \"#utility.yul\":1266:1719   */\n      jump(tag_162)\n    tag_164:\n        /* \"#utility.yul\":1270:1284   */\n      pop\n        /* \"#utility.yul\":880:1725   */\n      pop\n      pop\n        /* \"#utility.yul\":768:1725   */\n      swap4\n      swap3\n      pop\n      pop\n      pop\n      jump\t// out\n        /* \"#utility.yul\":1731:2143   */\n    tag_170:\n        /* \"#utility.yul\":1809:1814   */\n      0x00\n        /* \"#utility.yul\":1834:1900   */\n      tag_172\n        /* \"#utility.yul\":1850:1899   */\n      tag_173\n        /* \"#utility.yul\":1892:1898   */\n      dup5\n        /* \"#utility.yul\":1850:1899   */\n      tag_174\n      jump\t// in\n    tag_173:\n        /* \"#utility.yul\":1834:1900   */\n      tag_146\n      jump\t// in\n    tag_172:\n        /* \"#utility.yul\":1825:1900   */\n      swap1\n      pop\n        /* \"#utility.yul\":1923:1929   */\n      dup3\n        /* \"#utility.yul\":1916:1921   */\n      dup2\n        /* \"#utility.yul\":1909:1930   */\n      mstore\n        /* \"#utility.yul\":1961:1965   */\n      0x20\n        /* \"#utility.yul\":1954:1959   */\n      dup2\n        /* \"#utility.yul\":1950:1966   */\n      add\n        /* \"#utility.yul\":1999:2002   */\n      dup5\n        /* \"#utility.yul\":1990:1996   */\n      dup5\n        /* \"#utility.yul\":1985:1988   */\n      dup5\n        /* \"#utility.yul\":1981:1997   */\n      add\n        /* \"#utility.yul\":1978:2003   */\n      gt\n        /* \"#utility.yul\":1975:2087   */\n      iszero\n      tag_175\n      jumpi\n        /* \"#utility.yul\":2006:2085   */\n      tag_176\n      tag_177\n      jump\t// in\n    tag_176:\n        /* \"#utility.yul\":1975:2087   */\n    tag_175:\n        /* \"#utility.yul\":2096:2137   */\n      tag_178\n        /* \"#utility.yul\":2130:2136   */\n      dup5\n        /* \"#utility.yul\":2125:2128   */\n      dup3\n        /* \"#utility.yul\":2120:2123   */\n      dup6\n        /* \"#utility.yul\":2096:2137   */\n      tag_179\n      jump\t// in\n    tag_178:\n        /* \"#utility.yul\":1815:2143   */\n      pop\n        /* \"#utility.yul\":1731:2143   */\n      swap4\n      swap3\n      pop\n      pop\n      pop\n      jump\t// out\n        /* \"#utility.yul\":2149:2288   */\n    tag_154:\n        /* \"#utility.yul\":2195:2200   */\n      0x00\n        /* \"#utility.yul\":2233:2239   */\n      dup2\n        /* \"#utility.yul\":2220:2240   */\n      calldataload\n        /* \"#utility.yul\":2211:2240   */\n      swap1\n      pop\n        /* \"#utility.yul\":2249:2282   */\n      tag_181\n        /* \"#utility.yul\":2276:2281   */\n      dup2\n        /* \"#utility.yul\":2249:2282   */\n      tag_182\n      jump\t// in\n    tag_181:\n        /* \"#utility.yul\":2149:2288   */\n      swap3\n      swap2\n      pop\n      pop\n      jump\t// out\n        /* \"#utility.yul\":2311:2681   */\n    tag_183:\n        /* \"#utility.yul\":2382:2387   */\n      0x00\n        /* \"#utility.yul\":2431:2434   */\n      dup3\n        /* \"#utility.yul\":2424:2428   */\n      0x1f\n        /* \"#utility.yul\":2416:2422   */\n      dup4\n        /* \"#utility.yul\":2412:2429   */\n      add\n        /* \"#utility.yul\":2408:2435   */\n      slt\n        /* \"#utility.yul\":2398:2520   */\n      tag_185\n      jumpi\n        /* \"#utility.yul\":2439:2518   */\n      tag_186\n      tag_167\n      jump\t// in\n    tag_186:\n        /* \"#utility.yul\":2398:2520   */\n    tag_185:\n        /* \"#utility.yul\":2556:2562   */\n      dup2\n        /* \"#utility.yul\":2543:2563   */\n      calldataload\n        /* \"#utility.yul\":2581:2675   */\n      tag_187\n        /* \"#utility.yul\":2671:2674   */\n      dup5\n        /* \"#utility.yul\":2663:2669   */\n      dup3\n        /* \"#utility.yul\":2656:2660   */\n      0x20\n        /* \"#utility.yul\":2648:2654   */\n      dup7\n        /* \"#utility.yul\":2644:2661   */\n      add\n        /* \"#utility.yul\":2581:2675   */\n      tag_141\n      jump\t// in\n    tag_187:\n        /* \"#utility.yul\":2572:2675   */\n      swap2\n      pop\n        /* \"#utility.yul\":2388:2681   */\n      pop\n        /* \"#utility.yul\":2311:2681   */\n      swap3\n      swap2\n      pop\n      pop\n      jump\t// out\n        /* \"#utility.yul\":2703:3093   */\n    tag_188:\n        /* \"#utility.yul\":2784:2789   */\n      0x00\n        /* \"#utility.yul\":2833:2836   */\n      dup3\n        /* \"#utility.yul\":2826:2830   */\n      0x1f\n        /* \"#utility.yul\":2818:2824   */\n      dup4\n        /* \"#utility.yul\":2814:2831   */\n      add\n        /* \"#utility.yul\":2810:2837   */\n      slt\n        /* \"#utility.yul\":2800:2922   */\n      tag_190\n      jumpi\n        /* \"#utility.yul\":2841:2920   */\n      tag_191\n      tag_167\n      jump\t// in\n    tag_191:\n        /* \"#utility.yul\":2800:2922   */\n    tag_190:\n        /* \"#utility.yul\":2958:2964   */\n      dup2\n        /* \"#utility.yul\":2945:2965   */\n      calldataload\n        /* \"#utility.yul\":2983:3087   */\n      tag_192\n        /* \"#utility.yul\":3083:3086   */\n      dup5\n        /* \"#utility.yul\":3075:3081   */\n      dup3\n        /* \"#utility.yul\":3068:3072   */\n      0x20\n        /* \"#utility.yul\":3060:3066   */\n      dup7\n        /* \"#utility.yul\":3056:3073   */\n      add\n        /* \"#utility.yul\":2983:3087   */\n      tag_155\n      jump\t// in\n    tag_192:\n        /* \"#utility.yul\":2974:3087   */\n      swap2\n      pop\n        /* \"#utility.yul\":2790:3093   */\n      pop\n        /* \"#utility.yul\":2703:3093   */\n      swap3\n      swap2\n      pop\n      pop\n      jump\t// out\n        /* \"#utility.yul\":3113:3453   */\n    tag_169:\n        /* \"#utility.yul\":3169:3174   */\n      0x00\n        /* \"#utility.yul\":3218:3221   */\n      dup3\n        /* \"#utility.yul\":3211:3215   */\n      0x1f\n        /* \"#utility.yul\":3203:3209   */\n      dup4\n        /* \"#utility.yul\":3199:3216   */\n      add\n        /* \"#utility.yul\":3195:3222   */\n      slt\n        /* \"#utility.yul\":3185:3307   */\n      tag_194\n      jumpi\n        /* \"#utility.yul\":3226:3305   */\n      tag_195\n      tag_167\n      jump\t// in\n    tag_195:\n        /* \"#utility.yul\":3185:3307   */\n    tag_194:\n        /* \"#utility.yul\":3343:3349   */\n      dup2\n        /* \"#utility.yul\":3330:3350   */\n      calldataload\n        /* \"#utility.yul\":3368:3447   */\n      tag_196\n        /* \"#utility.yul\":3443:3446   */\n      dup5\n        /* \"#utility.yul\":3435:3441   */\n      dup3\n        /* \"#utility.yul\":3428:3432   */\n      0x20\n        /* \"#utility.yul\":3420:3426   */\n      dup7\n        /* \"#utility.yul\":3416:3433   */\n      add\n        /* \"#utility.yul\":3368:3447   */\n      tag_170\n      jump\t// in\n    tag_196:\n        /* \"#utility.yul\":3359:3447   */\n      swap2\n      pop\n        /* \"#utility.yul\":3175:3453   */\n      pop\n        /* \"#utility.yul\":3113:3453   */\n      swap3\n      swap2\n      pop\n      pop\n      jump\t// out\n        /* \"#utility.yul\":3459:3602   */\n    tag_197:\n        /* \"#utility.yul\":3516:3521   */\n      0x00\n        /* \"#utility.yul\":3547:3553   */\n      dup2\n        /* \"#utility.yul\":3541:3554   */\n      mload\n        /* \"#utility.yul\":3532:3554   */\n      swap1\n      pop\n        /* \"#utility.yul\":3563:3596   */\n      tag_199\n        /* \"#utility.yul\":3590:3595   */\n      dup2\n        /* \"#utility.yul\":3563:3596   */\n      tag_200\n      jump\t// in\n    tag_199:\n        /* \"#utility.yul\":3459:3602   */\n      swap3\n      swap2\n      pop\n      pop\n      jump\t// out\n        /* \"#utility.yul\":3608:3937   */\n    tag_17:\n        /* \"#utility.yul\":3667:3673   */\n      0x00\n        /* \"#utility.yul\":3716:3718   */\n      0x20\n        /* \"#utility.yul\":3704:3713   */\n      dup3\n        /* \"#utility.yul\":3695:3702   */\n      dup5\n        /* \"#utility.yul\":3691:3714   */\n      sub\n        /* \"#utility.yul\":3687:3719   */\n      slt\n        /* \"#utility.yul\":3684:3803   */\n      iszero\n      tag_202\n      jumpi\n        /* \"#utility.yul\":3722:3801   */\n      tag_203\n      tag_204\n      jump\t// in\n    tag_203:\n        /* \"#utility.yul\":3684:3803   */\n    tag_202:\n        /* \"#utility.yul\":3842:3843   */\n      0x00\n        /* \"#utility.yul\":3867:3920   */\n      tag_205\n        /* \"#utility.yul\":3912:3919   */\n      dup5\n        /* \"#utility.yul\":3903:3909   */\n      dup3\n        /* \"#utility.yul\":3892:3901   */\n      dup6\n        /* \"#utility.yul\":3888:3910   */\n      add\n        /* \"#utility.yul\":3867:3920   */\n      tag_154\n      jump\t// in\n    tag_205:\n        /* \"#utility.yul\":3857:3920   */\n      swap2\n      pop\n        /* \"#utility.yul\":3813:3930   */\n      pop\n        /* \"#utility.yul\":3608:3937   */\n      swap3\n      swap2\n      pop\n      pop\n      jump\t// out\n        /* \"#utility.yul\":3943:4482   */\n    tag_33:\n        /* \"#utility.yul\":4027:4033   */\n      0x00\n        /* \"#utility.yul\":4076:4078   */\n      0x20\n        /* \"#utility.yul\":4064:4073   */\n      dup3\n        /* \"#utility.yul\":4055:4062   */\n      dup5\n        /* \"#utility.yul\":4051:4074   */\n      sub\n        /* \"#utility.yul\":4047:4079   */\n      slt\n        /* \"#utility.yul\":4044:4163   */\n      iszero\n      tag_207\n      jumpi\n        /* \"#utility.yul\":4082:4161   */\n      tag_208\n      tag_204\n      jump\t// in\n    tag_208:\n        /* \"#utility.yul\":4044:4163   */\n    tag_207:\n        /* \"#utility.yul\":4230:4231   */\n      0x00\n        /* \"#utility.yul\":4219:4228   */\n      dup3\n        /* \"#utility.yul\":4215:4232   */\n      add\n        /* \"#utility.yul\":4202:4233   */\n      calldataload\n        /* \"#utility.yul\":4260:4278   */\n      0xffffffffffffffff\n        /* \"#utility.yul\":4252:4258   */\n      dup2\n        /* \"#utility.yul\":4249:4279   */\n      gt\n        /* \"#utility.yul\":4246:4363   */\n      iszero\n      tag_209\n      jumpi\n        /* \"#utility.yul\":4282:4361   */\n      tag_210\n      tag_211\n      jump\t// in\n    tag_210:\n        /* \"#utility.yul\":4246:4363   */\n    tag_209:\n        /* \"#utility.yul\":4387:4465   */\n      tag_212\n        /* \"#utility.yul\":4457:4464   */\n      dup5\n        /* \"#utility.yul\":4448:4454   */\n      dup3\n        /* \"#utility.yul\":4437:4446   */\n      dup6\n        /* \"#utility.yul\":4433:4455   */\n      add\n        /* \"#utility.yul\":4387:4465   */\n      tag_183\n      jump\t// in\n    tag_212:\n        /* \"#utility.yul\":4377:4465   */\n      swap2\n      pop\n        /* \"#utility.yul\":4173:4475   */\n      pop\n        /* \"#utility.yul\":3943:4482   */\n      swap3\n      swap2\n      pop\n      pop\n      jump\t// out\n        /* \"#utility.yul\":4488:5402   */\n    tag_23:\n        /* \"#utility.yul\":4616:4622   */\n      0x00\n        /* \"#utility.yul\":4624:4630   */\n      dup1\n        /* \"#utility.yul\":4673:4675   */\n      0x40\n        /* \"#utility.yul\":4661:4670   */\n      dup4\n        /* \"#utility.yul\":4652:4659   */\n      dup6\n        /* \"#utility.yul\":4648:4671   */\n      sub\n        /* \"#utility.yul\":4644:4676   */\n      slt\n        /* \"#utility.yul\":4641:4760   */\n      iszero\n      tag_214\n      jumpi\n        /* \"#utility.yul\":4679:4758   */\n      tag_215\n      tag_204\n      jump\t// in\n    tag_215:\n        /* \"#utility.yul\":4641:4760   */\n    tag_214:\n        /* \"#utility.yul\":4827:4828   */\n      0x00\n        /* \"#utility.yul\":4816:4825   */\n      dup4\n        /* \"#utility.yul\":4812:4829   */\n      add\n        /* \"#utility.yul\":4799:4830   */\n      calldataload\n        /* \"#utility.yul\":4857:4875   */\n      0xffffffffffffffff\n        /* \"#utility.yul\":4849:4855   */\n      dup2\n        /* \"#utility.yul\":4846:4876   */\n      gt\n        /* \"#utility.yul\":4843:4960   */\n      iszero\n      tag_216\n      jumpi\n        /* \"#utility.yul\":4879:4958   */\n      tag_217\n      tag_211\n      jump\t// in\n    tag_217:\n        /* \"#utility.yul\":4843:4960   */\n    tag_216:\n        /* \"#utility.yul\":4984:5062   */\n      tag_218\n        /* \"#utility.yul\":5054:5061   */\n      dup6\n        /* \"#utility.yul\":5045:5051   */\n      dup3\n        /* \"#utility.yul\":5034:5043   */\n      dup7\n        /* \"#utility.yul\":5030:5052   */\n      add\n        /* \"#utility.yul\":4984:5062   */\n      tag_183\n      jump\t// in\n    tag_218:\n        /* \"#utility.yul\":4974:5062   */\n      swap3\n      pop\n        /* \"#utility.yul\":4770:5072   */\n      pop\n        /* \"#utility.yul\":5139:5141   */\n      0x20\n        /* \"#utility.yul\":5128:5137   */\n      dup4\n        /* \"#utility.yul\":5124:5142   */\n      add\n        /* \"#utility.yul\":5111:5143   */\n      calldataload\n        /* \"#utility.yul\":5170:5188   */\n      0xffffffffffffffff\n        /* \"#utility.yul\":5162:5168   */\n      dup2\n        /* \"#utility.yul\":5159:5189   */\n      gt\n        /* \"#utility.yul\":5156:5273   */\n      iszero\n      tag_219\n      jumpi\n        /* \"#utility.yul\":5192:5271   */\n      tag_220\n      tag_211\n      jump\t// in\n    tag_220:\n        /* \"#utility.yul\":5156:5273   */\n    tag_219:\n        /* \"#utility.yul\":5297:5385   */\n      tag_221\n        /* \"#utility.yul\":5377:5384   */\n      dup6\n        /* \"#utility.yul\":5368:5374   */\n      dup3\n        /* \"#utility.yul\":5357:5366   */\n      dup7\n        /* \"#utility.yul\":5353:5375   */\n      add\n        /* \"#utility.yul\":5297:5385   */\n      tag_188\n      jump\t// in\n    tag_221:\n        /* \"#utility.yul\":5287:5385   */\n      swap2\n      pop\n        /* \"#utility.yul\":5082:5395   */\n      pop\n        /* \"#utility.yul\":4488:5402   */\n      swap3\n      pop\n      swap3\n      swap1\n      pop\n      jump\t// out\n        /* \"#utility.yul\":5408:5759   */\n    tag_45:\n        /* \"#utility.yul\":5478:5484   */\n      0x00\n        /* \"#utility.yul\":5527:5529   */\n      0x20\n        /* \"#utility.yul\":5515:5524   */\n      dup3\n        /* \"#utility.yul\":5506:5513   */\n      dup5\n        /* \"#utility.yul\":5502:5525   */\n      sub\n        /* \"#utility.yul\":5498:5530   */\n      slt\n        /* \"#utility.yul\":5495:5614   */\n      iszero\n      tag_223\n      jumpi\n        /* \"#utility.yul\":5533:5612   */\n      tag_224\n      tag_204\n      jump\t// in\n    tag_224:\n        /* \"#utility.yul\":5495:5614   */\n    tag_223:\n        /* \"#utility.yul\":5653:5654   */\n      0x00\n        /* \"#utility.yul\":5678:5742   */\n      tag_225\n        /* \"#utility.yul\":5734:5741   */\n      dup5\n        /* \"#utility.yul\":5725:5731   */\n      dup3\n        /* \"#utility.yul\":5714:5723   */\n      dup6\n        /* \"#utility.yul\":5710:5732   */\n      add\n        /* \"#utility.yul\":5678:5742   */\n      tag_197\n      jump\t// in\n    tag_225:\n        /* \"#utility.yul\":5668:5742   */\n      swap2\n      pop\n        /* \"#utility.yul\":5624:5752   */\n      pop\n        /* \"#utility.yul\":5408:5759   */\n      swap3\n      swap2\n      pop\n      pop\n      jump\t// out\n        /* \"#utility.yul\":5765:5883   */\n    tag_226:\n        /* \"#utility.yul\":5852:5876   */\n      tag_228\n        /* \"#utility.yul\":5870:5875   */\n      dup2\n        /* \"#utility.yul\":5852:5876   */\n      tag_229\n      jump\t// in\n    tag_228:\n        /* \"#utility.yul\":5847:5850   */\n      dup3\n        /* \"#utility.yul\":5840:5877   */\n      mstore\n        /* \"#utility.yul\":5765:5883   */\n      pop\n      pop\n      jump\t// out\n        /* \"#utility.yul\":5889:5998   */\n    tag_230:\n        /* \"#utility.yul\":5970:5991   */\n      tag_232\n        /* \"#utility.yul\":5985:5990   */\n      dup2\n        /* \"#utility.yul\":5970:5991   */\n      tag_233\n      jump\t// in\n    tag_232:\n        /* \"#utility.yul\":5965:5968   */\n      dup3\n        /* \"#utility.yul\":5958:5992   */\n      mstore\n        /* \"#utility.yul\":5889:5998   */\n      pop\n      pop\n      jump\t// out\n        /* \"#utility.yul\":6004:6151   */\n    tag_234:\n        /* \"#utility.yul\":6099:6144   */\n      tag_236\n        /* \"#utility.yul\":6138:6143   */\n      dup2\n        /* \"#utility.yul\":6099:6144   */\n      tag_237\n      jump\t// in\n    tag_236:\n        /* \"#utility.yul\":6094:6097   */\n      dup3\n        /* \"#utility.yul\":6087:6145   */\n      mstore\n        /* \"#utility.yul\":6004:6151   */\n      pop\n      pop\n      jump\t// out\n        /* \"#utility.yul\":6157:6523   */\n    tag_238:\n        /* \"#utility.yul\":6299:6302   */\n      0x00\n        /* \"#utility.yul\":6320:6387   */\n      tag_240\n        /* \"#utility.yul\":6384:6386   */\n      0x14\n        /* \"#utility.yul\":6379:6382   */\n      dup4\n        /* \"#utility.yul\":6320:6387   */\n      tag_241\n      jump\t// in\n    tag_240:\n        /* \"#utility.yul\":6313:6387   */\n      swap2\n      pop\n        /* \"#utility.yul\":6396:6489   */\n      tag_242\n        /* \"#utility.yul\":6485:6488   */\n      dup3\n        /* \"#utility.yul\":6396:6489   */\n      tag_243\n      jump\t// in\n    tag_242:\n        /* \"#utility.yul\":6514:6516   */\n      0x20\n        /* \"#utility.yul\":6509:6512   */\n      dup3\n        /* \"#utility.yul\":6505:6517   */\n      add\n        /* \"#utility.yul\":6498:6517   */\n      swap1\n      pop\n        /* \"#utility.yul\":6157:6523   */\n      swap2\n      swap1\n      pop\n      jump\t// out\n        /* \"#utility.yul\":6529:6895   */\n    tag_244:\n        /* \"#utility.yul\":6671:6674   */\n      0x00\n        /* \"#utility.yul\":6692:6759   */\n      tag_246\n        /* \"#utility.yul\":6756:6758   */\n      0x0c\n        /* \"#utility.yul\":6751:6754   */\n      dup4\n        /* \"#utility.yul\":6692:6759   */\n      tag_241\n      jump\t// in\n    tag_246:\n        /* \"#utility.yul\":6685:6759   */\n      swap2\n      pop\n        /* \"#utility.yul\":6768:6861   */\n      tag_247\n        /* \"#utility.yul\":6857:6860   */\n      dup3\n        /* \"#utility.yul\":6768:6861   */\n      tag_248\n      jump\t// in\n    tag_247:\n        /* \"#utility.yul\":6886:6888   */\n      0x20\n        /* \"#utility.yul\":6881:6884   */\n      dup3\n        /* \"#utility.yul\":6877:6889   */\n      add\n        /* \"#utility.yul\":6870:6889   */\n      swap1\n      pop\n        /* \"#utility.yul\":6529:6895   */\n      swap2\n      swap1\n      pop\n      jump\t// out\n        /* \"#utility.yul\":6901:7267   */\n    tag_249:\n        /* \"#utility.yul\":7043:7046   */\n      0x00\n        /* \"#utility.yul\":7064:7131   */\n      tag_251\n        /* \"#utility.yul\":7128:7130   */\n      0x1b\n        /* \"#utility.yul\":7123:7126   */\n      dup4\n        /* \"#utility.yul\":7064:7131   */\n      tag_241\n      jump\t// in\n    tag_251:\n        /* \"#utility.yul\":7057:7131   */\n      swap2\n      pop\n        /* \"#utility.yul\":7140:7233   */\n      tag_252\n        /* \"#utility.yul\":7229:7232   */\n      dup3\n        /* \"#utility.yul\":7140:7233   */\n      tag_253\n      jump\t// in\n    tag_252:\n        /* \"#utility.yul\":7258:7260   */\n      0x20\n        /* \"#utility.yul\":7253:7256   */\n      dup3\n        /* \"#utility.yul\":7249:7261   */\n      add\n        /* \"#utility.yul\":7242:7261   */\n      swap1\n      pop\n        /* \"#utility.yul\":6901:7267   */\n      swap2\n      swap1\n      pop\n      jump\t// out\n        /* \"#utility.yul\":7273:7639   */\n    tag_254:\n        /* \"#utility.yul\":7415:7418   */\n      0x00\n        /* \"#utility.yul\":7436:7503   */\n      tag_256\n        /* \"#utility.yul\":7500:7502   */\n      0x14\n        /* \"#utility.yul\":7495:7498   */\n      dup4\n        /* \"#utility.yul\":7436:7503   */\n      tag_241\n      jump\t// in\n    tag_256:\n        /* \"#utility.yul\":7429:7503   */\n      swap2\n      pop\n        /* \"#utility.yul\":7512:7605   */\n      tag_257\n        /* \"#utility.yul\":7601:7604   */\n      dup3\n        /* \"#utility.yul\":7512:7605   */\n      tag_258\n      jump\t// in\n    tag_257:\n        /* \"#utility.yul\":7630:7632   */\n      0x20\n        /* \"#utility.yul\":7625:7628   */\n      dup3\n        /* \"#utility.yul\":7621:7633   */\n      add\n        /* \"#utility.yul\":7614:7633   */\n      swap1\n      pop\n        /* \"#utility.yul\":7273:7639   */\n      swap2\n      swap1\n      pop\n      jump\t// out\n        /* \"#utility.yul\":7645:8011   */\n    tag_259:\n        /* \"#utility.yul\":7787:7790   */\n      0x00\n        /* \"#utility.yul\":7808:7875   */\n      tag_261\n        /* \"#utility.yul\":7872:7874   */\n      0x14\n        /* \"#utility.yul\":7867:7870   */\n      dup4\n        /* \"#utility.yul\":7808:7875   */\n      tag_241\n      jump\t// in\n    tag_261:\n        /* \"#utility.yul\":7801:7875   */\n      swap2\n      pop\n        /* \"#utility.yul\":7884:7977   */\n      tag_262\n        /* \"#utility.yul\":7973:7976   */\n      dup3\n        /* \"#utility.yul\":7884:7977   */\n      tag_263\n      jump\t// in\n    tag_262:\n        /* \"#utility.yul\":8002:8004   */\n      0x20\n        /* \"#utility.yul\":7997:8000   */\n      dup3\n        /* \"#utility.yul\":7993:8005   */\n      add\n        /* \"#utility.yul\":7986:8005   */\n      swap1\n      pop\n        /* \"#utility.yul\":7645:8011   */\n      swap2\n      swap1\n      pop\n      jump\t// out\n        /* \"#utility.yul\":8017:8135   */\n    tag_264:\n        /* \"#utility.yul\":8104:8128   */\n      tag_266\n        /* \"#utility.yul\":8122:8127   */\n      dup2\n        /* \"#utility.yul\":8104:8128   */\n      tag_267\n      jump\t// in\n    tag_266:\n        /* \"#utility.yul\":8099:8102   */\n      dup3\n        /* \"#utility.yul\":8092:8129   */\n      mstore\n        /* \"#utility.yul\":8017:8135   */\n      pop\n      pop\n      jump\t// out\n        /* \"#utility.yul\":8141:8363   */\n    tag_40:\n        /* \"#utility.yul\":8234:8238   */\n      0x00\n        /* \"#utility.yul\":8272:8274   */\n      0x20\n        /* \"#utility.yul\":8261:8270   */\n      dup3\n        /* \"#utility.yul\":8257:8275   */\n      add\n        /* \"#utility.yul\":8249:8275   */\n      swap1\n      pop\n        /* \"#utility.yul\":8285:8356   */\n      tag_269\n        /* \"#utility.yul\":8353:8354   */\n      0x00\n        /* \"#utility.yul\":8342:8351   */\n      dup4\n        /* \"#utility.yul\":8338:8355   */\n      add\n        /* \"#utility.yul\":8329:8335   */\n      dup5\n        /* \"#utility.yul\":8285:8356   */\n      tag_226\n      jump\t// in\n    tag_269:\n        /* \"#utility.yul\":8141:8363   */\n      swap3\n      swap2\n      pop\n      pop\n      jump\t// out\n        /* \"#utility.yul\":8369:8717   */\n    tag_75:\n        /* \"#utility.yul\":8498:8502   */\n      0x00\n        /* \"#utility.yul\":8536:8538   */\n      0x40\n        /* \"#utility.yul\":8525:8534   */\n      dup3\n        /* \"#utility.yul\":8521:8539   */\n      add\n        /* \"#utility.yul\":8513:8539   */\n      swap1\n      pop\n        /* \"#utility.yul\":8549:8620   */\n      tag_271\n        /* \"#utility.yul\":8617:8618   */\n      0x00\n        /* \"#utility.yul\":8606:8615   */\n      dup4\n        /* \"#utility.yul\":8602:8619   */\n      add\n        /* \"#utility.yul\":8593:8599   */\n      dup6\n        /* \"#utility.yul\":8549:8620   */\n      tag_226\n      jump\t// in\n    tag_271:\n        /* \"#utility.yul\":8630:8710   */\n      tag_272\n        /* \"#utility.yul\":8706:8708   */\n      0x20\n        /* \"#utility.yul\":8695:8704   */\n      dup4\n        /* \"#utility.yul\":8691:8709   */\n      add\n        /* \"#utility.yul\":8682:8688   */\n      dup5\n        /* \"#utility.yul\":8630:8710   */\n      tag_234\n      jump\t// in\n    tag_272:\n        /* \"#utility.yul\":8369:8717   */\n      swap4\n      swap3\n      pop\n      pop\n      pop\n      jump\t// out\n        /* \"#utility.yul\":8723:9055   */\n    tag_100:\n        /* \"#utility.yul\":8844:8848   */\n      0x00\n        /* \"#utility.yul\":8882:8884   */\n      0x40\n        /* \"#utility.yul\":8871:8880   */\n      dup3\n        /* \"#utility.yul\":8867:8885   */\n      add\n        /* \"#utility.yul\":8859:8885   */\n      swap1\n      pop\n        /* \"#utility.yul\":8895:8966   */\n      tag_274\n        /* \"#utility.yul\":8963:8964   */\n      0x00\n        /* \"#utility.yul\":8952:8961   */\n      dup4\n        /* \"#utility.yul\":8948:8965   */\n      add\n        /* \"#utility.yul\":8939:8945   */\n      dup6\n        /* \"#utility.yul\":8895:8966   */\n      tag_226\n      jump\t// in\n    tag_274:\n        /* \"#utility.yul\":8976:9048   */\n      tag_275\n        /* \"#utility.yul\":9044:9046   */\n      0x20\n        /* \"#utility.yul\":9033:9042   */\n      dup4\n        /* \"#utility.yul\":9029:9047   */\n      add\n        /* \"#utility.yul\":9020:9026   */\n      dup5\n        /* \"#utility.yul\":8976:9048   */\n      tag_264\n      jump\t// in\n    tag_275:\n        /* \"#utility.yul\":8723:9055   */\n      swap4\n      swap3\n      pop\n      pop\n      pop\n      jump\t// out\n        /* \"#utility.yul\":9061:9480   */\n    tag_60:\n        /* \"#utility.yul\":9227:9231   */\n      0x00\n        /* \"#utility.yul\":9265:9267   */\n      0x20\n        /* \"#utility.yul\":9254:9263   */\n      dup3\n        /* \"#utility.yul\":9250:9268   */\n      add\n        /* \"#utility.yul\":9242:9268   */\n      swap1\n      pop\n        /* \"#utility.yul\":9314:9323   */\n      dup2\n        /* \"#utility.yul\":9308:9312   */\n      dup2\n        /* \"#utility.yul\":9304:9324   */\n      sub\n        /* \"#utility.yul\":9300:9301   */\n      0x00\n        /* \"#utility.yul\":9289:9298   */\n      dup4\n        /* \"#utility.yul\":9285:9302   */\n      add\n        /* \"#utility.yul\":9278:9325   */\n      mstore\n        /* \"#utility.yul\":9342:9473   */\n      tag_277\n        /* \"#utility.yul\":9468:9472   */\n      dup2\n        /* \"#utility.yul\":9342:9473   */\n      tag_238\n      jump\t// in\n    tag_277:\n        /* \"#utility.yul\":9334:9473   */\n      swap1\n      pop\n        /* \"#utility.yul\":9061:9480   */\n      swap2\n      swap1\n      pop\n      jump\t// out\n        /* \"#utility.yul\":9486:9905   */\n    tag_82:\n        /* \"#utility.yul\":9652:9656   */\n      0x00\n        /* \"#utility.yul\":9690:9692   */\n      0x20\n        /* \"#utility.yul\":9679:9688   */\n      dup3\n        /* \"#utility.yul\":9675:9693   */\n      add\n        /* \"#utility.yul\":9667:9693   */\n      swap1\n      pop\n        /* \"#utility.yul\":9739:9748   */\n      dup2\n        /* \"#utility.yul\":9733:9737   */\n      dup2\n        /* \"#utility.yul\":9729:9749   */\n      sub\n        /* \"#utility.yul\":9725:9726   */\n      0x00\n        /* \"#utility.yul\":9714:9723   */\n      dup4\n        /* \"#utility.yul\":9710:9727   */\n      add\n        /* \"#utility.yul\":9703:9750   */\n      mstore\n        /* \"#utility.yul\":9767:9898   */\n      tag_279\n        /* \"#utility.yul\":9893:9897   */\n      dup2\n        /* \"#utility.yul\":9767:9898   */\n      tag_244\n      jump\t// in\n    tag_279:\n        /* \"#utility.yul\":9759:9898   */\n      swap1\n      pop\n        /* \"#utility.yul\":9486:9905   */\n      swap2\n      swap1\n      pop\n      jump\t// out\n        /* \"#utility.yul\":9911:10330   */\n    tag_107:\n        /* \"#utility.yul\":10077:10081   */\n      0x00\n        /* \"#utility.yul\":10115:10117   */\n      0x20\n        /* \"#utility.yul\":10104:10113   */\n      dup3\n        /* \"#utility.yul\":10100:10118   */\n      add\n        /* \"#utility.yul\":10092:10118   */\n      swap1\n      pop\n        /* \"#utility.yul\":10164:10173   */\n      dup2\n        /* \"#utility.yul\":10158:10162   */\n      dup2\n        /* \"#utility.yul\":10154:10174   */\n      sub\n        /* \"#utility.yul\":10150:10151   */\n      0x00\n        /* \"#utility.yul\":10139:10148   */\n      dup4\n        /* \"#utility.yul\":10135:10152   */\n      add\n        /* \"#utility.yul\":10128:10175   */\n      mstore\n        /* \"#utility.yul\":10192:10323   */\n      tag_281\n        /* \"#utility.yul\":10318:10322   */\n      dup2\n        /* \"#utility.yul\":10192:10323   */\n      tag_249\n      jump\t// in\n    tag_281:\n        /* \"#utility.yul\":10184:10323   */\n      swap1\n      pop\n        /* \"#utility.yul\":9911:10330   */\n      swap2\n      swap1\n      pop\n      jump\t// out\n        /* \"#utility.yul\":10336:10755   */\n    tag_93:\n        /* \"#utility.yul\":10502:10506   */\n      0x00\n        /* \"#utility.yul\":10540:10542   */\n      0x20\n        /* \"#utility.yul\":10529:10538   */\n      dup3\n        /* \"#utility.yul\":10525:10543   */\n      add\n        /* \"#utility.yul\":10517:10543   */\n      swap1\n      pop\n        /* \"#utility.yul\":10589:10598   */\n      dup2\n        /* \"#utility.yul\":10583:10587   */\n      dup2\n        /* \"#utility.yul\":10579:10599   */\n      sub\n        /* \"#utility.yul\":10575:10576   */\n      0x00\n        /* \"#utility.yul\":10564:10573   */\n      dup4\n        /* \"#utility.yul\":10560:10577   */\n      add\n        /* \"#utility.yul\":10553:10600   */\n      mstore\n        /* \"#utility.yul\":10617:10748   */\n      tag_283\n        /* \"#utility.yul\":10743:10747   */\n      dup2\n        /* \"#utility.yul\":10617:10748   */\n      tag_254\n      jump\t// in\n    tag_283:\n        /* \"#utility.yul\":10609:10748   */\n      swap1\n      pop\n        /* \"#utility.yul\":10336:10755   */\n      swap2\n      swap1\n      pop\n      jump\t// out\n        /* \"#utility.yul\":10761:11180   */\n    tag_90:\n        /* \"#utility.yul\":10927:10931   */\n      0x00\n        /* \"#utility.yul\":10965:10967   */\n      0x20\n        /* \"#utility.yul\":10954:10963   */\n      dup3\n        /* \"#utility.yul\":10950:10968   */\n      add\n        /* \"#utility.yul\":10942:10968   */\n      swap1\n      pop\n        /* \"#utility.yul\":11014:11023   */\n      dup2\n        /* \"#utility.yul\":11008:11012   */\n      dup2\n        /* \"#utility.yul\":11004:11024   */\n      sub\n        /* \"#utility.yul\":11000:11001   */\n      0x00\n        /* \"#utility.yul\":10989:10998   */\n      dup4\n        /* \"#utility.yul\":10985:11002   */\n      add\n        /* \"#utility.yul\":10978:11025   */\n      mstore\n        /* \"#utility.yul\":11042:11173   */\n      tag_285\n        /* \"#utility.yul\":11168:11172   */\n      dup2\n        /* \"#utility.yul\":11042:11173   */\n      tag_259\n      jump\t// in\n    tag_285:\n        /* \"#utility.yul\":11034:11173   */\n      swap1\n      pop\n        /* \"#utility.yul\":10761:11180   */\n      swap2\n      swap1\n      pop\n      jump\t// out\n        /* \"#utility.yul\":11186:11408   */\n    tag_20:\n        /* \"#utility.yul\":11279:11283   */\n      0x00\n        /* \"#utility.yul\":11317:11319   */\n      0x20\n        /* \"#utility.yul\":11306:11315   */\n      dup3\n        /* \"#utility.yul\":11302:11320   */\n      add\n        /* \"#utility.yul\":11294:11320   */\n      swap1\n      pop\n        /* \"#utility.yul\":11330:11401   */\n      tag_287\n        /* \"#utility.yul\":11398:11399   */\n      0x00\n        /* \"#utility.yul\":11387:11396   */\n      dup4\n        /* \"#utility.yul\":11383:11400   */\n      add\n        /* \"#utility.yul\":11374:11380   */\n      dup5\n        /* \"#utility.yul\":11330:11401   */\n      tag_264\n      jump\t// in\n    tag_287:\n        /* \"#utility.yul\":11186:11408   */\n      swap3\n      swap2\n      pop\n      pop\n      jump\t// out\n        /* \"#utility.yul\":11414:11844   */\n    tag_14:\n        /* \"#utility.yul\":11557:11561   */\n      0x00\n        /* \"#utility.yul\":11595:11597   */\n      0x60\n        /* \"#utility.yul\":11584:11593   */\n      dup3\n        /* \"#utility.yul\":11580:11598   */\n      add\n        /* \"#utility.yul\":11572:11598   */\n      swap1\n      pop\n        /* \"#utility.yul\":11608:11679   */\n      tag_289\n        /* \"#utility.yul\":11676:11677   */\n      0x00\n        /* \"#utility.yul\":11665:11674   */\n      dup4\n        /* \"#utility.yul\":11661:11678   */\n      add\n        /* \"#utility.yul\":11652:11658   */\n      dup7\n        /* \"#utility.yul\":11608:11679   */\n      tag_264\n      jump\t// in\n    tag_289:\n        /* \"#utility.yul\":11689:11761   */\n      tag_290\n        /* \"#utility.yul\":11757:11759   */\n      0x20\n        /* \"#utility.yul\":11746:11755   */\n      dup4\n        /* \"#utility.yul\":11742:11760   */\n      add\n        /* \"#utility.yul\":11733:11739   */\n      dup6\n        /* \"#utility.yul\":11689:11761   */\n      tag_264\n      jump\t// in\n    tag_290:\n        /* \"#utility.yul\":11771:11837   */\n      tag_291\n        /* \"#utility.yul\":11833:11835   */\n      0x40\n        /* \"#utility.yul\":11822:11831   */\n      dup4\n        /* \"#utility.yul\":11818:11836   */\n      add\n        /* \"#utility.yul\":11809:11815   */\n      dup5\n        /* \"#utility.yul\":11771:11837   */\n      tag_230\n      jump\t// in\n    tag_291:\n        /* \"#utility.yul\":11414:11844   */\n      swap5\n      swap4\n      pop\n      pop\n      pop\n      pop\n      jump\t// out\n        /* \"#utility.yul\":11850:11979   */\n    tag_146:\n        /* \"#utility.yul\":11884:11890   */\n      0x00\n        /* \"#utility.yul\":11911:11931   */\n      tag_293\n      tag_294\n      jump\t// in\n    tag_293:\n        /* \"#utility.yul\":11901:11931   */\n      swap1\n      pop\n        /* \"#utility.yul\":11940:11973   */\n      tag_295\n        /* \"#utility.yul\":11968:11972   */\n      dup3\n        /* \"#utility.yul\":11960:11966   */\n      dup3\n        /* \"#utility.yul\":11940:11973   */\n      tag_296\n      jump\t// in\n    tag_295:\n        /* \"#utility.yul\":11850:11979   */\n      swap2\n      swap1\n      pop\n      jump\t// out\n        /* \"#utility.yul\":11985:12060   */\n    tag_294:\n        /* \"#utility.yul\":12018:12024   */\n      0x00\n        /* \"#utility.yul\":12051:12053   */\n      0x40\n        /* \"#utility.yul\":12045:12054   */\n      mload\n        /* \"#utility.yul\":12035:12054   */\n      swap1\n      pop\n        /* \"#utility.yul\":11985:12060   */\n      swap1\n      jump\t// out\n        /* \"#utility.yul\":12066:12377   */\n    tag_145:\n        /* \"#utility.yul\":12143:12147   */\n      0x00\n        /* \"#utility.yul\":12233:12251   */\n      0xffffffffffffffff\n        /* \"#utility.yul\":12225:12231   */\n      dup3\n        /* \"#utility.yul\":12222:12252   */\n      gt\n        /* \"#utility.yul\":12219:12275   */\n      iszero\n      tag_299\n      jumpi\n        /* \"#utility.yul\":12255:12273   */\n      tag_300\n      tag_301\n      jump\t// in\n    tag_300:\n        /* \"#utility.yul\":12219:12275   */\n    tag_299:\n        /* \"#utility.yul\":12305:12309   */\n      0x20\n        /* \"#utility.yul\":12297:12303   */\n      dup3\n        /* \"#utility.yul\":12293:12310   */\n      mul\n        /* \"#utility.yul\":12285:12310   */\n      swap1\n      pop\n        /* \"#utility.yul\":12365:12369   */\n      0x20\n        /* \"#utility.yul\":12359:12363   */\n      dup2\n        /* \"#utility.yul\":12355:12370   */\n      add\n        /* \"#utility.yul\":12347:12370   */\n      swap1\n      pop\n        /* \"#utility.yul\":12066:12377   */\n      swap2\n      swap1\n      pop\n      jump\t// out\n        /* \"#utility.yul\":12383:12704   */\n    tag_159:\n        /* \"#utility.yul\":12470:12474   */\n      0x00\n        /* \"#utility.yul\":12560:12578   */\n      0xffffffffffffffff\n        /* \"#utility.yul\":12552:12558   */\n      dup3\n        /* \"#utility.yul\":12549:12579   */\n      gt\n        /* \"#utility.yul\":12546:12602   */\n      iszero\n      tag_303\n      jumpi\n        /* \"#utility.yul\":12582:12600   */\n      tag_304\n      tag_301\n      jump\t// in\n    tag_304:\n        /* \"#utility.yul\":12546:12602   */\n    tag_303:\n        /* \"#utility.yul\":12632:12636   */\n      0x20\n        /* \"#utility.yul\":12624:12630   */\n      dup3\n        /* \"#utility.yul\":12620:12637   */\n      mul\n        /* \"#utility.yul\":12612:12637   */\n      swap1\n      pop\n        /* \"#utility.yul\":12692:12696   */\n      0x20\n        /* \"#utility.yul\":12686:12690   */\n      dup2\n        /* \"#utility.yul\":12682:12697   */\n      add\n        /* \"#utility.yul\":12674:12697   */\n      swap1\n      pop\n        /* \"#utility.yul\":12383:12704   */\n      swap2\n      swap1\n      pop\n      jump\t// out\n        /* \"#utility.yul\":12710:13018   */\n    tag_174:\n        /* \"#utility.yul\":12772:12776   */\n      0x00\n        /* \"#utility.yul\":12862:12880   */\n      0xffffffffffffffff\n        /* \"#utility.yul\":12854:12860   */\n      dup3\n        /* \"#utility.yul\":12851:12881   */\n      gt\n        /* \"#utility.yul\":12848:12904   */\n      iszero\n      tag_306\n      jumpi\n        /* \"#utility.yul\":12884:12902   */\n      tag_307\n      tag_301\n      jump\t// in\n    tag_307:\n        /* \"#utility.yul\":12848:12904   */\n    tag_306:\n        /* \"#utility.yul\":12922:12951   */\n      tag_308\n        /* \"#utility.yul\":12944:12950   */\n      dup3\n        /* \"#utility.yul\":12922:12951   */\n      tag_309\n      jump\t// in\n    tag_308:\n        /* \"#utility.yul\":12914:12951   */\n      swap1\n      pop\n        /* \"#utility.yul\":13006:13010   */\n      0x20\n        /* \"#utility.yul\":13000:13004   */\n      dup2\n        /* \"#utility.yul\":12996:13011   */\n      add\n        /* \"#utility.yul\":12988:13011   */\n      swap1\n      pop\n        /* \"#utility.yul\":12710:13018   */\n      swap2\n      swap1\n      pop\n      jump\t// out\n        /* \"#utility.yul\":13024:13193   */\n    tag_241:\n        /* \"#utility.yul\":13108:13119   */\n      0x00\n        /* \"#utility.yul\":13142:13148   */\n      dup3\n        /* \"#utility.yul\":13137:13140   */\n      dup3\n        /* \"#utility.yul\":13130:13149   */\n      mstore\n        /* \"#utility.yul\":13182:13186   */\n      0x20\n        /* \"#utility.yul\":13177:13180   */\n      dup3\n        /* \"#utility.yul\":13173:13187   */\n      add\n        /* \"#utility.yul\":13158:13187   */\n      swap1\n      pop\n        /* \"#utility.yul\":13024:13193   */\n      swap3\n      swap2\n      pop\n      pop\n      jump\t// out\n        /* \"#utility.yul\":13199:13295   */\n    tag_229:\n        /* \"#utility.yul\":13236:13243   */\n      0x00\n        /* \"#utility.yul\":13265:13289   */\n      tag_312\n        /* \"#utility.yul\":13283:13288   */\n      dup3\n        /* \"#utility.yul\":13265:13289   */\n      tag_313\n      jump\t// in\n    tag_312:\n        /* \"#utility.yul\":13254:13289   */\n      swap1\n      pop\n        /* \"#utility.yul\":13199:13295   */\n      swap2\n      swap1\n      pop\n      jump\t// out\n        /* \"#utility.yul\":13301:13391   */\n    tag_233:\n        /* \"#utility.yul\":13335:13342   */\n      0x00\n        /* \"#utility.yul\":13378:13383   */\n      dup2\n        /* \"#utility.yul\":13371:13384   */\n      iszero\n        /* \"#utility.yul\":13364:13385   */\n      iszero\n        /* \"#utility.yul\":13353:13385   */\n      swap1\n      pop\n        /* \"#utility.yul\":13301:13391   */\n      swap2\n      swap1\n      pop\n      jump\t// out\n        /* \"#utility.yul\":13397:13523   */\n    tag_313:\n        /* \"#utility.yul\":13434:13441   */\n      0x00\n        /* \"#utility.yul\":13474:13516   */\n      0xffffffffffffffffffffffffffffffffffffffff\n        /* \"#utility.yul\":13467:13472   */\n      dup3\n        /* \"#utility.yul\":13463:13517   */\n      and\n        /* \"#utility.yul\":13452:13517   */\n      swap1\n      pop\n        /* \"#utility.yul\":13397:13523   */\n      swap2\n      swap1\n      pop\n      jump\t// out\n        /* \"#utility.yul\":13529:13606   */\n    tag_267:\n        /* \"#utility.yul\":13566:13573   */\n      0x00\n        /* \"#utility.yul\":13595:13600   */\n      dup2\n        /* \"#utility.yul\":13584:13600   */\n      swap1\n      pop\n        /* \"#utility.yul\":13529:13606   */\n      swap2\n      swap1\n      pop\n      jump\t// out\n        /* \"#utility.yul\":13612:13733   */\n    tag_237:\n        /* \"#utility.yul\":13670:13679   */\n      0x00\n        /* \"#utility.yul\":13703:13727   */\n      tag_318\n        /* \"#utility.yul\":13721:13726   */\n      dup3\n        /* \"#utility.yul\":13703:13727   */\n      tag_267\n      jump\t// in\n    tag_318:\n        /* \"#utility.yul\":13690:13727   */\n      swap1\n      pop\n        /* \"#utility.yul\":13612:13733   */\n      swap2\n      swap1\n      pop\n      jump\t// out\n        /* \"#utility.yul\":13739:13893   */\n    tag_179:\n        /* \"#utility.yul\":13823:13829   */\n      dup3\n        /* \"#utility.yul\":13818:13821   */\n      dup2\n        /* \"#utility.yul\":13813:13816   */\n      dup4\n        /* \"#utility.yul\":13800:13830   */\n      calldatacopy\n        /* \"#utility.yul\":13885:13886   */\n      0x00\n        /* \"#utility.yul\":13876:13882   */\n      dup4\n        /* \"#utility.yul\":13871:13874   */\n      dup4\n        /* \"#utility.yul\":13867:13883   */\n      add\n        /* \"#utility.yul\":13860:13887   */\n      mstore\n        /* \"#utility.yul\":13739:13893   */\n      pop\n      pop\n      pop\n      jump\t// out\n        /* \"#utility.yul\":13899:14219   */\n    tag_130:\n        /* \"#utility.yul\":13943:13949   */\n      0x00\n        /* \"#utility.yul\":13980:13981   */\n      0x02\n        /* \"#utility.yul\":13974:13978   */\n      dup3\n        /* \"#utility.yul\":13970:13982   */\n      div\n        /* \"#utility.yul\":13960:13982   */\n      swap1\n      pop\n        /* \"#utility.yul\":14027:14028   */\n      0x01\n        /* \"#utility.yul\":14021:14025   */\n      dup3\n        /* \"#utility.yul\":14017:14029   */\n      and\n        /* \"#utility.yul\":14048:14066   */\n      dup1\n        /* \"#utility.yul\":14038:14119   */\n      tag_321\n      jumpi\n        /* \"#utility.yul\":14104:14108   */\n      0x7f\n        /* \"#utility.yul\":14096:14102   */\n      dup3\n        /* \"#utility.yul\":14092:14109   */\n      and\n        /* \"#utility.yul\":14082:14109   */\n      swap2\n      pop\n        /* \"#utility.yul\":14038:14119   */\n    tag_321:\n        /* \"#utility.yul\":14166:14168   */\n      0x20\n        /* \"#utility.yul\":14158:14164   */\n      dup3\n        /* \"#utility.yul\":14155:14169   */\n      lt\n        /* \"#utility.yul\":14135:14153   */\n      dup2\n        /* \"#utility.yul\":14132:14170   */\n      eq\n        /* \"#utility.yul\":14129:14213   */\n      iszero\n      tag_322\n      jumpi\n        /* \"#utility.yul\":14185:14203   */\n      tag_323\n      tag_324\n      jump\t// in\n    tag_323:\n        /* \"#utility.yul\":14129:14213   */\n    tag_322:\n        /* \"#utility.yul\":13950:14219   */\n      pop\n        /* \"#utility.yul\":13899:14219   */\n      swap2\n      swap1\n      pop\n      jump\t// out\n        /* \"#utility.yul\":14225:14506   */\n    tag_296:\n        /* \"#utility.yul\":14308:14335   */\n      tag_326\n        /* \"#utility.yul\":14330:14334   */\n      dup3\n        /* \"#utility.yul\":14308:14335   */\n      tag_309\n      jump\t// in\n    tag_326:\n        /* \"#utility.yul\":14300:14306   */\n      dup2\n        /* \"#utility.yul\":14296:14336   */\n      add\n        /* \"#utility.yul\":14438:14444   */\n      dup2\n        /* \"#utility.yul\":14426:14436   */\n      dup2\n        /* \"#utility.yul\":14423:14445   */\n      lt\n        /* \"#utility.yul\":14402:14420   */\n      0xffffffffffffffff\n        /* \"#utility.yul\":14390:14400   */\n      dup3\n        /* \"#utility.yul\":14387:14421   */\n      gt\n        /* \"#utility.yul\":14384:14446   */\n      or\n        /* \"#utility.yul\":14381:14469   */\n      iszero\n      tag_327\n      jumpi\n        /* \"#utility.yul\":14449:14467   */\n      tag_328\n      tag_301\n      jump\t// in\n    tag_328:\n        /* \"#utility.yul\":14381:14469   */\n    tag_327:\n        /* \"#utility.yul\":14489:14499   */\n      dup1\n        /* \"#utility.yul\":14485:14487   */\n      0x40\n        /* \"#utility.yul\":14478:14500   */\n      mstore\n        /* \"#utility.yul\":14268:14506   */\n      pop\n        /* \"#utility.yul\":14225:14506   */\n      pop\n      pop\n      jump\t// out\n        /* \"#utility.yul\":14512:14745   */\n    tag_72:\n        /* \"#utility.yul\":14551:14554   */\n      0x00\n        /* \"#utility.yul\":14574:14598   */\n      tag_330\n        /* \"#utility.yul\":14592:14597   */\n      dup3\n        /* \"#utility.yul\":14574:14598   */\n      tag_267\n      jump\t// in\n    tag_330:\n        /* \"#utility.yul\":14565:14598   */\n      swap2\n      pop\n        /* \"#utility.yul\":14620:14686   */\n      0xffffffffffffffffffffffffffffffffffffffffffffffffffffffffffffffff\n        /* \"#utility.yul\":14613:14618   */\n      dup3\n        /* \"#utility.yul\":14610:14687   */\n      eq\n        /* \"#utility.yul\":14607:14710   */\n      iszero\n      tag_331\n      jumpi\n        /* \"#utility.yul\":14690:14708   */\n      tag_332\n      tag_333\n      jump\t// in\n    tag_332:\n        /* \"#utility.yul\":14607:14710   */\n    tag_331:\n        /* \"#utility.yul\":14737:14738   */\n      0x01\n        /* \"#utility.yul\":14730:14735   */\n      dup3\n        /* \"#utility.yul\":14726:14739   */\n      add\n        /* \"#utility.yul\":14719:14739   */\n      swap1\n      pop\n        /* \"#utility.yul\":14512:14745   */\n      swap2\n      swap1\n      pop\n      jump\t// out\n        /* \"#utility.yul\":14751:14931   */\n    tag_333:\n        /* \"#utility.yul\":14799:14876   */\n      0x4e487b7100000000000000000000000000000000000000000000000000000000\n        /* \"#utility.yul\":14796:14797   */\n      0x00\n        /* \"#utility.yul\":14789:14877   */\n      mstore\n        /* \"#utility.yul\":14896:14900   */\n      0x11\n        /* \"#utility.yul\":14893:14894   */\n      0x04\n        /* \"#utility.yul\":14886:14901   */\n      mstore\n        /* \"#utility.yul\":14920:14924   */\n      0x24\n        /* \"#utility.yul\":14917:14918   */\n      0x00\n        /* \"#utility.yul\":14910:14925   */\n      revert\n        /* \"#utility.yul\":14937:15117   */\n    tag_324:\n        /* \"#utility.yul\":14985:15062   */\n      0x4e487b7100000000000000000000000000000000000000000000000000000000\n        /* \"#utility.yul\":14982:14983   */\n      0x00\n        /* \"#utility.yul\":14975:15063   */\n      mstore\n        /* \"#utility.yul\":15082:15086   */\n      0x22\n        /* \"#utility.yul\":15079:15080   */\n      0x04\n        /* \"#utility.yul\":15072:15087   */\n      mstore\n        /* \"#utility.yul\":15106:15110   */\n      0x24\n        /* \"#utility.yul\":15103:15104   */\n      0x00\n        /* \"#utility.yul\":15096:15111   */\n      revert\n        /* \"#utility.yul\":15123:15303   */\n    tag_66:\n        /* \"#utility.yul\":15171:15248   */\n      0x4e487b7100000000000000000000000000000000000000000000000000000000\n        /* \"#utility.yul\":15168:15169   */\n      0x00\n        /* \"#utility.yul\":15161:15249   */\n      mstore\n        /* \"#utility.yul\":15268:15272   */\n      0x32\n        /* \"#utility.yul\":15265:15266   */\n      0x04\n        /* \"#utility.yul\":15258:15273   */\n      mstore\n        /* \"#utility.yul\":15292:15296   */\n      0x24\n        /* \"#utility.yul\":15289:15290   */\n      0x00\n        /* \"#utility.yul\":15282:15297   */\n      revert\n        /* \"#utility.yul\":15309:15489   */\n    tag_301:\n        /* \"#utility.yul\":15357:15434   */\n      0x4e487b7100000000000000000000000000000000000000000000000000000000\n        /* \"#utility.yul\":15354:15355   */\n      0x00\n        /* \"#utility.yul\":15347:15435   */\n      mstore\n        /* \"#utility.yul\":15454:15458   */\n      0x41\n        /* \"#utility.yul\":15451:15452   */\n      0x04\n        /* \"#utility.yul\":15444:15459   */\n      mstore\n        /* \"#utility.yul\":15478:15482   */\n      0x24\n        /* \"#utility.yul\":15475:15476   */\n      0x00\n        /* \"#utility.yul\":15468:15483   */\n      revert\n        /* \"#utility.yul\":15495:15612   */\n    tag_167:\n        /* \"#utility.yul\":15604:15605   */\n      0x00\n        /* \"#utility.yul\":15601:15602   */\n      dup1\n        /* \"#utility.yul\":15594:15606   */\n      revert\n        /* \"#utility.yul\":15618:15735   */\n    tag_149:\n        /* \"#utility.yul\":15727:15728   */\n      0x00\n        /* \"#utility.yul\":15724:15725   */\n      dup1\n        /* \"#utility.yul\":15717:15729   */\n      revert\n        /* \"#utility.yul\":15741:15858   */\n    tag_177:\n        /* \"#utility.yul\":15850:15851   */\n      0x00\n        /* \"#utility.yul\":15847:15848   */\n      dup1\n        /* \"#utility.yul\":15840:15852   */\n      revert\n        /* \"#utility.yul\":15864:15981   */\n    tag_211:\n        /* \"#utility.yul\":15973:15974   */\n      0x00\n        /* \"#utility.yul\":15970:15971   */\n      dup1\n        /* \"#utility.yul\":15963:15975   */\n      revert\n        /* \"#utility.yul\":15987:16104   */\n    tag_204:\n        /* \"#utility.yul\":16096:16097   */\n      0x00\n        /* \"#utility.yul\":16093:16094   */\n      dup1\n        /* \"#utility.yul\":16086:16098   */\n      revert\n        /* \"#utility.yul\":16110:16212   */\n    tag_309:\n        /* \"#utility.yul\":16151:16157   */\n      0x00\n        /* \"#utility.yul\":16202:16204   */\n      0x1f\n        /* \"#utility.yul\":16198:16205   */\n      not\n        /* \"#utility.yul\":16193:16195   */\n      0x1f\n        /* \"#utility.yul\":16186:16191   */\n      dup4\n        /* \"#utility.yul\":16182:16196   */\n      add\n        /* \"#utility.yul\":16178:16206   */\n      and\n        /* \"#utility.yul\":16168:16206   */\n      swap1\n      pop\n        /* \"#utility.yul\":16110:16212   */\n      swap2\n      swap1\n      pop\n      jump\t// out\n        /* \"#utility.yul\":16218:16388   */\n    tag_243:\n        /* \"#utility.yul\":16358:16380   */\n      0x4c656e67746820697320646966666572656e742e000000000000000000000000\n        /* \"#utility.yul\":16354:16355   */\n      0x00\n        /* \"#utility.yul\":16346:16352   */\n      dup3\n        /* \"#utility.yul\":16342:16356   */\n      add\n        /* \"#utility.yul\":16335:16381   */\n      mstore\n        /* \"#utility.yul\":16218:16388   */\n      pop\n      jump\t// out\n        /* \"#utility.yul\":16394:16556   */\n    tag_248:\n        /* \"#utility.yul\":16534:16548   */\n      0x54696d6520697320656e642e0000000000000000000000000000000000000000\n        /* \"#utility.yul\":16530:16531   */\n      0x00\n        /* \"#utility.yul\":16522:16528   */\n      dup3\n        /* \"#utility.yul\":16518:16532   */\n      add\n        /* \"#utility.yul\":16511:16549   */\n      mstore\n        /* \"#utility.yul\":16394:16556   */\n      pop\n      jump\t// out\n        /* \"#utility.yul\":16562:16739   */\n    tag_253:\n        /* \"#utility.yul\":16702:16731   */\n      0x4974206973206e6f742066726f6d206368616972706572736f6e2e0000000000\n        /* \"#utility.yul\":16698:16699   */\n      0x00\n        /* \"#utility.yul\":16690:16696   */\n      dup3\n        /* \"#utility.yul\":16686:16700   */\n      add\n        /* \"#utility.yul\":16679:16732   */\n      mstore\n        /* \"#utility.yul\":16562:16739   */\n      pop\n      jump\t// out\n        /* \"#utility.yul\":16745:16915   */\n    tag_258:\n        /* \"#utility.yul\":16885:16907   */\n      0x566f74657220616c726561647920766f7465642e000000000000000000000000\n        /* \"#utility.yul\":16881:16882   */\n      0x00\n        /* \"#utility.yul\":16873:16879   */\n      dup3\n        /* \"#utility.yul\":16869:16883   */\n      add\n        /* \"#utility.yul\":16862:16908   */\n      mstore\n        /* \"#utility.yul\":16745:16915   */\n      pop\n      jump\t// out\n        /* \"#utility.yul\":16921:17091   */\n    tag_263:\n        /* \"#utility.yul\":17061:17083   */\n      0x546f6b656e20646f65736e27742065786973742e000000000000000000000000\n        /* \"#utility.yul\":17057:17058   */\n      0x00\n        /* \"#utility.yul\":17049:17055   */\n      dup3\n        /* \"#utility.yul\":17045:17059   */\n      add\n        /* \"#utility.yul\":17038:17084   */\n      mstore\n        /* \"#utility.yul\":16921:17091   */\n      pop\n      jump\t// out\n        /* \"#utility.yul\":17097:17219   */\n    tag_182:\n        /* \"#utility.yul\":17170:17194   */\n      tag_350\n        /* \"#utility.yul\":17188:17193   */\n      dup2\n        /* \"#utility.yul\":17170:17194   */\n      tag_229\n      jump\t// in\n    tag_350:\n        /* \"#utility.yul\":17163:17168   */\n      dup2\n        /* \"#utility.yul\":17160:17195   */\n      eq\n        /* \"#utility.yul\":17150:17213   */\n      tag_351\n      jumpi\n        /* \"#utility.yul\":17209:17210   */\n      0x00\n        /* \"#utility.yul\":17206:17207   */\n      dup1\n        /* \"#utility.yul\":17199:17211   */\n      revert\n        /* \"#utility.yul\":17150:17213   */\n    tag_351:\n        /* \"#utility.yul\":17097:17219   */\n      pop\n      jump\t// out\n        /* \"#utility.yul\":17225:17347   */\n    tag_200:\n        /* \"#utility.yul\":17298:17322   */\n      tag_353\n        /* \"#utility.yul\":17316:17321   */\n      dup2\n        /* \"#utility.yul\":17298:17322   */\n      tag_267\n      jump\t// in\n    tag_353:\n        /* \"#utility.yul\":17291:17296   */\n      dup2\n        /* \"#utility.yul\":17288:17323   */\n      eq\n        /* \"#utility.yul\":17278:17341   */\n      tag_354\n      jumpi\n        /* \"#utility.yul\":17337:17338   */\n      0x00\n        /* \"#utility.yul\":17334:17335   */\n      dup1\n        /* \"#utility.yul\":17327:17339   */\n      revert\n        /* \"#utility.yul\":17278:17341   */\n    tag_354:\n        /* \"#utility.yul\":17225:17347   */\n      pop\n      jump\t// out\n\n    auxdata: 0xa2646970667358221220cf0dc9d666ae06180e037fe08a23ba7628f2680f61d987434845c8fcc06e086a64736f6c63430008070033\n}\n\nsub_1: assembly {\n        /* \"contracts/Token.sol\":99:241  contract Token is ERC20Standard {\r... */\n      mstore(0x40, 0x80)\n        /* \"contracts/Token.sol\":141:238  constructor() {\r... */\n      callvalue\n      dup1\n      iszero\n      tag_1\n      jumpi\n      0x00\n      dup1\n      revert\n    tag_1:\n      pop\n        /* \"contracts/Token.sol\":164:186  name = \"E-Voting coin\" */\n      mload(0x40)\n      dup1\n      0x40\n      add\n      0x40\n      mstore\n      dup1\n      0x0d\n      dup2\n      mstore\n      0x20\n      add\n      0x452d566f74696e6720636f696e00000000000000000000000000000000000000\n      dup2\n      mstore\n      pop\n        /* \"contracts/Token.sol\":164:168  name */\n      0x01\n        /* \"contracts/Token.sol\":164:186  name = \"E-Voting coin\" */\n      swap1\n      dup1\n      mload\n      swap1\n      0x20\n      add\n      swap1\n      tag_4\n      swap3\n      swap2\n      swap1\n      tag_5\n      jump\t// in\n    tag_4:\n      pop\n        /* \"contracts/Token.sol\":206:207  0 */\n      0x00\n        /* \"contracts/Token.sol\":195:203  decimals */\n      0x02\n      0x00\n        /* \"contracts/Token.sol\":195:207  decimals = 0 */\n      0x0100\n      exp\n      dup2\n      sload\n      dup2\n      0xff\n      mul\n      not\n      and\n      swap1\n      dup4\n      0xff\n      and\n      mul\n      or\n      swap1\n      sstore\n      pop\n        /* \"contracts/Token.sol\":216:230  symbol = \"EVC\" */\n      mload(0x40)\n      dup1\n      0x40\n      add\n      0x40\n      mstore\n      dup1\n      0x03\n      dup2\n      mstore\n      0x20\n      add\n      0x4556430000000000000000000000000000000000000000000000000000000000\n      dup2\n      mstore\n      pop\n        /* \"contracts/Token.sol\":216:222  symbol */\n      0x03\n        /* \"contracts/Token.sol\":216:230  symbol = \"EVC\" */\n      swap1\n      dup1\n      mload\n      swap1\n      0x20\n      add\n      swap1\n      tag_6\n      swap3\n      swap2\n      swap1\n      tag_5\n      jump\t// in\n    tag_6:\n      pop\n        /* \"contracts/Token.sol\":99:241  contract Token is ERC20Standard {\r... */\n      jump(tag_7)\n    tag_5:\n      dup3\n      dup1\n      sload\n      tag_8\n      swap1\n      tag_9\n      jump\t// in\n    tag_8:\n      swap1\n      0x00\n      mstore\n      keccak256(0x00, 0x20)\n      swap1\n      0x1f\n      add\n      0x20\n      swap1\n      div\n      dup2\n      add\n      swap3\n      dup3\n      tag_11\n      jumpi\n      0x00\n      dup6\n      sstore\n      jump(tag_10)\n    tag_11:\n      dup3\n      0x1f\n      lt\n      tag_12\n      jumpi\n      dup1\n      mload\n      not(0xff)\n      and\n      dup4\n      dup1\n      add\n      or\n      dup6\n      sstore\n      jump(tag_10)\n    tag_12:\n      dup3\n      dup1\n      add\n      0x01\n      add\n      dup6\n      sstore\n      dup3\n      iszero\n      tag_10\n      jumpi\n      swap2\n      dup3\n      add\n    tag_13:\n      dup3\n      dup2\n      gt\n      iszero\n      tag_14\n      jumpi\n      dup3\n      mload\n      dup3\n      sstore\n      swap2\n      0x20\n      add\n      swap2\n      swap1\n      0x01\n      add\n      swap1\n      jump(tag_13)\n    tag_14:\n    tag_10:\n      pop\n      swap1\n      pop\n      tag_15\n      swap2\n      swap1\n      tag_16\n      jump\t// in\n    tag_15:\n      pop\n      swap1\n      jump\t// out\n    tag_16:\n    tag_17:\n      dup1\n      dup3\n      gt\n      iszero\n      tag_18\n      jumpi\n      0x00\n      dup2\n      0x00\n      swap1\n      sstore\n      pop\n      0x01\n      add\n      jump(tag_17)\n    tag_18:\n      pop\n      swap1\n      jump\t// out\n        /* \"#utility.yul\":7:327   */\n    tag_9:\n        /* \"#utility.yul\":51:57   */\n      0x00\n        /* \"#utility.yul\":88:89   */\n      0x02\n        /* \"#utility.yul\":82:86   */\n      dup3\n        /* \"#utility.yul\":78:90   */\n      div\n        /* \"#utility.yul\":68:90   */\n      swap1\n      pop\n        /* \"#utility.yul\":135:136   */\n      0x01\n        /* \"#utility.yul\":129:133   */\n      dup3\n        /* \"#utility.yul\":125:137   */\n      and\n        /* \"#utility.yul\":156:174   */\n      dup1\n        /* \"#utility.yul\":146:227   */\n      tag_21\n      jumpi\n        /* \"#utility.yul\":212:216   */\n      0x7f\n        /* \"#utility.yul\":204:210   */\n      dup3\n        /* \"#utility.yul\":200:217   */\n      and\n        /* \"#utility.yul\":190:217   */\n      swap2\n      pop\n        /* \"#utility.yul\":146:227   */\n    tag_21:\n        /* \"#utility.yul\":274:276   */\n      0x20\n        /* \"#utility.yul\":266:272   */\n      dup3\n        /* \"#utility.yul\":263:277   */\n      lt\n        /* \"#utility.yul\":243:261   */\n      dup2\n        /* \"#utility.yul\":240:278   */\n      eq\n        /* \"#utility.yul\":237:321   */\n      iszero\n      tag_22\n      jumpi\n        /* \"#utility.yul\":293:311   */\n      tag_23\n      tag_24\n      jump\t// in\n    tag_23:\n        /* \"#utility.yul\":237:321   */\n    tag_22:\n        /* \"#utility.yul\":58:327   */\n      pop\n        /* \"#utility.yul\":7:327   */\n      swap2\n      swap1\n      pop\n      jump\t// out\n        /* \"#utility.yul\":333:513   */\n    tag_24:\n        /* \"#utility.yul\":381:458   */\n      0x4e487b7100000000000000000000000000000000000000000000000000000000\n        /* \"#utility.yul\":378:379   */\n      0x00\n        /* \"#utility.yul\":371:459   */\n      mstore\n        /* \"#utility.yul\":478:482   */\n      0x22\n        /* \"#utility.yul\":475:476   */\n      0x04\n        /* \"#utility.yul\":468:483   */\n      mstore\n        /* \"#utility.yul\":502:506   */\n      0x24\n        /* \"#utility.yul\":499:500   */\n      0x00\n        /* \"#utility.yul\":492:507   */\n      revert\n        /* \"contracts/Token.sol\":99:241  contract Token is ERC20Standard {\r... */\n    tag_7:\n      dataSize(sub_0)\n      dup1\n      dataOffset(sub_0)\n      0x00\n      codecopy\n      0x00\n      return\n    stop\n\n    sub_0: assembly {\n            /* \"contracts/Token.sol\":99:241  contract Token is ERC20Standard {\r... */\n          mstore(0x40, 0x80)\n          callvalue\n          dup1\n          iszero\n          tag_1\n          jumpi\n          0x00\n          dup1\n          revert\n        tag_1:\n          pop\n          jumpi(tag_2, lt(calldatasize, 0x04))\n          shr(0xe0, calldataload(0x00))\n          dup1\n          0x54fd4d50\n          gt\n          tag_15\n          jumpi\n          dup1\n          0x54fd4d50\n          eq\n          tag_9\n          jumpi\n          dup1\n          0x70a08231\n          eq\n          tag_10\n          jumpi\n          dup1\n          0x95d89b41\n          eq\n          tag_11\n          jumpi\n          dup1\n          0xa9059cbb\n          eq\n          tag_12\n          jumpi\n          dup1\n          0xc4e41b22\n          eq\n          tag_13\n          jumpi\n          dup1\n          0xdd62ed3e\n          eq\n          tag_14\n          jumpi\n          jump(tag_2)\n        tag_15:\n          dup1\n          0x06fdde03\n          eq\n          tag_3\n          jumpi\n          dup1\n          0x095ea7b3\n          eq\n          tag_4\n          jumpi\n          dup1\n          0x18160ddd\n          eq\n          tag_5\n          jumpi\n          dup1\n          0x23b872dd\n          eq\n          tag_6\n          jumpi\n          dup1\n          0x313ce567\n          eq\n          tag_7\n          jumpi\n          dup1\n          0x40c10f19\n          eq\n          tag_8\n          jumpi\n        tag_2:\n          0x00\n          dup1\n          revert\n            /* \"contracts/ERC20Standard.sol\":1005:1023  string public name */\n        tag_3:\n          tag_16\n          tag_17\n          jump\t// in\n        tag_16:\n          mload(0x40)\n          tag_18\n          swap2\n          swap1\n          tag_19\n          jump\t// in\n        tag_18:\n          mload(0x40)\n          dup1\n          swap2\n          sub\n          swap1\n          return\n            /* \"contracts/ERC20Standard.sol\":2732:2884  function  approve(address _spender, uint _value) public {\r... */\n        tag_4:\n          tag_20\n          0x04\n          dup1\n          calldatasize\n          sub\n          dup2\n          add\n          swap1\n          tag_21\n          swap2\n          swap1\n          tag_22\n          jump\t// in\n        tag_21:\n          tag_23\n          jump\t// in\n        tag_20:\n          stop\n            /* \"contracts/ERC20Standard.sol\":975:998  uint public totalSupply */\n        tag_5:\n          tag_24\n          tag_25\n          jump\t// in\n        tag_24:\n          mload(0x40)\n          tag_26\n          swap2\n          swap1\n          tag_27\n          jump\t// in\n        tag_26:\n          mload(0x40)\n          dup1\n          swap2\n          sub\n          swap1\n          return\n            /* \"contracts/ERC20Standard.sol\":1879:2336  function transferFrom(address _from, address _to, uint _value) public {\r... */\n        tag_6:\n          tag_28\n          0x04\n          dup1\n          calldatasize\n          sub\n          dup2\n          add\n          swap1\n          tag_29\n          swap2\n          swap1\n          tag_30\n          jump\t// in\n        tag_29:\n          tag_31\n          jump\t// in\n        tag_28:\n          stop\n            /* \"contracts/ERC20Standard.sol\":1027:1048  uint8 public decimals */\n        tag_7:\n          tag_32\n          tag_33\n          jump\t// in\n        tag_32:\n          mload(0x40)\n          tag_34\n          swap2\n          swap1\n          tag_35\n          jump\t// in\n        tag_34:\n          mload(0x40)\n          dup1\n          swap2\n          sub\n          swap1\n          return\n            /* \"contracts/ERC20Standard.sol\":2341:2727  function mint(address account, uint256 amount) public {\r... */\n        tag_8:\n          tag_36\n          0x04\n          dup1\n          calldatasize\n          sub\n          dup2\n          add\n          swap1\n          tag_37\n          swap2\n          swap1\n          tag_22\n          jump\t// in\n        tag_37:\n          tag_38\n          jump\t// in\n        tag_36:\n          stop\n            /* \"contracts/ERC20Standard.sol\":1076:1097  string public version */\n        tag_9:\n          tag_39\n          tag_40\n          jump\t// in\n        tag_39:\n          mload(0x40)\n          tag_41\n          swap2\n          swap1\n          tag_19\n          jump\t// in\n        tag_41:\n          mload(0x40)\n          dup1\n          swap2\n          sub\n          swap1\n          return\n            /* \"contracts/ERC20Standard.sol\":1345:1448  function balanceOf(address _owner) public view returns (uint balance) {\r... */\n        tag_10:\n          tag_42\n          0x04\n          dup1\n          calldatasize\n          sub\n          dup2\n          add\n          swap1\n          tag_43\n          swap2\n          swap1\n          tag_44\n          jump\t// in\n        tag_43:\n          tag_45\n          jump\t// in\n        tag_42:\n          mload(0x40)\n          tag_46\n          swap2\n          swap1\n          tag_27\n          jump\t// in\n        tag_46:\n          mload(0x40)\n          dup1\n          swap2\n          sub\n          swap1\n          return\n            /* \"contracts/ERC20Standard.sol\":1052:1072  string public symbol */\n        tag_11:\n          tag_47\n          tag_48\n          jump\t// in\n        tag_47:\n          mload(0x40)\n          tag_49\n          swap2\n          swap1\n          tag_19\n          jump\t// in\n        tag_49:\n          mload(0x40)\n          dup1\n          swap2\n          sub\n          swap1\n          return\n            /* \"contracts/ERC20Standard.sol\":1539:1874  function transfer(address _recipient, uint _value) public onlyPayloadSize(2*32) {\r... */\n        tag_12:\n          tag_50\n          0x04\n          dup1\n          calldatasize\n          sub\n          dup2\n          add\n          swap1\n          tag_51\n          swap2\n          swap1\n          tag_22\n          jump\t// in\n        tag_51:\n          tag_52\n          jump\t// in\n        tag_50:\n          stop\n            /* \"contracts/ERC20Standard.sol\":1453:1534  function getTotalSupply() public view returns (uint) {\r... */\n        tag_13:\n          tag_53\n          tag_54\n          jump\t// in\n        tag_53:\n          mload(0x40)\n          tag_55\n          swap2\n          swap1\n          tag_27\n          jump\t// in\n        tag_55:\n          mload(0x40)\n          dup1\n          swap2\n          sub\n          swap1\n          return\n            /* \"contracts/ERC20Standard.sol\":2889:3019  function allowance(address _spender, address _owner) public view returns (uint balance) {\r... */\n        tag_14:\n          tag_56\n          0x04\n          dup1\n          calldatasize\n          sub\n          dup2\n          add\n          swap1\n          tag_57\n          swap2\n          swap1\n          tag_58\n          jump\t// in\n        tag_57:\n          tag_59\n          jump\t// in\n        tag_56:\n          mload(0x40)\n          tag_60\n          swap2\n          swap1\n          tag_27\n          jump\t// in\n        tag_60:\n          mload(0x40)\n          dup1\n          swap2\n          sub\n          swap1\n          return\n            /* \"contracts/ERC20Standard.sol\":1005:1023  string public name */\n        tag_17:\n          0x01\n          dup1\n          sload\n          tag_61\n          swap1\n          tag_62\n          jump\t// in\n        tag_61:\n          dup1\n          0x1f\n          add\n          0x20\n          dup1\n          swap2\n          div\n          mul\n          0x20\n          add\n          mload(0x40)\n          swap1\n          dup2\n          add\n          0x40\n          mstore\n          dup1\n          swap3\n          swap2\n          swap1\n          dup2\n          dup2\n          mstore\n          0x20\n          add\n          dup3\n          dup1\n          sload\n          tag_63\n          swap1\n          tag_62\n          jump\t// in\n        tag_63:\n          dup1\n          iszero\n          tag_64\n          jumpi\n          dup1\n          0x1f\n          lt\n          tag_65\n          jumpi\n          0x0100\n          dup1\n          dup4\n          sload\n          div\n          mul\n          dup4\n          mstore\n          swap2\n          0x20\n          add\n          swap2\n          jump(tag_64)\n        tag_65:\n          dup3\n          add\n          swap2\n          swap1\n          0x00\n          mstore\n          keccak256(0x00, 0x20)\n          swap1\n        tag_66:\n          dup2\n          sload\n          dup2\n          mstore\n          swap1\n          0x01\n          add\n          swap1\n          0x20\n          add\n          dup1\n          dup4\n          gt\n          tag_66\n          jumpi\n          dup3\n          swap1\n          sub\n          0x1f\n          and\n          dup3\n          add\n          swap2\n        tag_64:\n          pop\n          pop\n          pop\n          pop\n          pop\n          dup2\n          jump\t// out\n            /* \"contracts/ERC20Standard.sol\":2732:2884  function  approve(address _spender, uint _value) public {\r... */\n        tag_23:\n            /* \"contracts/ERC20Standard.sol\":2825:2831  _value */\n          dup1\n            /* \"contracts/ERC20Standard.sol\":2793:2800  allowed */\n          0x06\n            /* \"contracts/ERC20Standard.sol\":2793:2812  allowed[msg.sender] */\n          0x00\n            /* \"contracts/ERC20Standard.sol\":2801:2811  msg.sender */\n          caller\n            /* \"contracts/ERC20Standard.sol\":2793:2812  allowed[msg.sender] */\n          0xffffffffffffffffffffffffffffffffffffffff\n          and\n          0xffffffffffffffffffffffffffffffffffffffff\n          and\n          dup2\n          mstore\n          0x20\n          add\n          swap1\n          dup2\n          mstore\n          0x20\n          add\n          0x00\n          keccak256\n            /* \"contracts/ERC20Standard.sol\":2793:2822  allowed[msg.sender][_spender] */\n          0x00\n            /* \"contracts/ERC20Standard.sol\":2813:2821  _spender */\n          dup5\n            /* \"contracts/ERC20Standard.sol\":2793:2822  allowed[msg.sender][_spender] */\n          0xffffffffffffffffffffffffffffffffffffffff\n          and\n          0xffffffffffffffffffffffffffffffffffffffff\n          and\n          dup2\n          mstore\n          0x20\n          add\n          swap1\n          dup2\n          mstore\n          0x20\n          add\n          0x00\n          keccak256\n            /* \"contracts/ERC20Standard.sol\":2793:2831  allowed[msg.sender][_spender] = _value */\n          dup2\n          swap1\n          sstore\n          pop\n            /* \"contracts/ERC20Standard.sol\":2862:2870  _spender */\n          dup2\n            /* \"contracts/ERC20Standard.sol\":2841:2879  Approval(msg.sender, _spender, _value) */\n          0xffffffffffffffffffffffffffffffffffffffff\n          and\n            /* \"contracts/ERC20Standard.sol\":2850:2860  msg.sender */\n          caller\n            /* \"contracts/ERC20Standard.sol\":2841:2879  Approval(msg.sender, _spender, _value) */\n          0xffffffffffffffffffffffffffffffffffffffff\n          and\n          0x8c5be1e5ebec7d5bd14f71427d1e84f3dd0314c0f7b2291e5b200ac8c7c3b925\n            /* \"contracts/ERC20Standard.sol\":2872:2878  _value */\n          dup4\n            /* \"contracts/ERC20Standard.sol\":2841:2879  Approval(msg.sender, _spender, _value) */\n          mload(0x40)\n          tag_68\n          swap2\n          swap1\n          tag_27\n          jump\t// in\n        tag_68:\n          mload(0x40)\n          dup1\n          swap2\n          sub\n          swap1\n          log3\n            /* \"contracts/ERC20Standard.sol\":2732:2884  function  approve(address _spender, uint _value) public {\r... */\n          pop\n          pop\n          jump\t// out\n            /* \"contracts/ERC20Standard.sol\":975:998  uint public totalSupply */\n        tag_25:\n          sload(0x00)\n          dup2\n          jump\t// out\n            /* \"contracts/ERC20Standard.sol\":1879:2336  function transferFrom(address _from, address _to, uint _value) public {\r... */\n        tag_31:\n            /* \"contracts/ERC20Standard.sol\":1971:1972  0 */\n          0x00\n            /* \"contracts/ERC20Standard.sol\":1962:1968  _value */\n          dup2\n            /* \"contracts/ERC20Standard.sol\":1962:1972  _value > 0 */\n          gt\n            /* \"contracts/ERC20Standard.sol\":1954:1988  require(_value > 0, \"Amount <= 0\") */\n          tag_70\n          jumpi\n          mload(0x40)\n          0x08c379a000000000000000000000000000000000000000000000000000000000\n          dup2\n          mstore\n          0x04\n          add\n          tag_71\n          swap1\n          tag_72\n          jump\t// in\n        tag_71:\n          mload(0x40)\n          dup1\n          swap2\n          sub\n          swap1\n          revert\n        tag_70:\n            /* \"contracts/ERC20Standard.sol\":2023:2029  _value */\n          dup1\n            /* \"contracts/ERC20Standard.sol\":2004:2012  balances */\n          0x05\n            /* \"contracts/ERC20Standard.sol\":2004:2019  balances[_from] */\n          0x00\n            /* \"contracts/ERC20Standard.sol\":2013:2018  _from */\n          dup6\n            /* \"contracts/ERC20Standard.sol\":2004:2019  balances[_from] */\n          0xffffffffffffffffffffffffffffffffffffffff\n          and\n          0xffffffffffffffffffffffffffffffffffffffff\n          and\n          dup2\n          mstore\n          0x20\n          add\n          swap1\n          dup2\n          mstore\n          0x20\n          add\n          0x00\n          keccak256\n          sload\n            /* \"contracts/ERC20Standard.sol\":2004:2029  balances[_from] >= _value */\n          lt\n          iszero\n            /* \"contracts/ERC20Standard.sol\":1996:2050  require(balances[_from] >= _value, \"Balance < amount\") */\n          tag_73\n          jumpi\n          mload(0x40)\n          0x08c379a000000000000000000000000000000000000000000000000000000000\n          dup2\n          mstore\n          0x04\n          add\n          tag_74\n          swap1\n          tag_75\n          jump\t// in\n        tag_74:\n          mload(0x40)\n          dup1\n          swap2\n          sub\n          swap1\n          revert\n        tag_73:\n            /* \"contracts/ERC20Standard.sol\":2093:2099  _value */\n          dup1\n            /* \"contracts/ERC20Standard.sol\":2063:2070  allowed */\n          0x06\n            /* \"contracts/ERC20Standard.sol\":2063:2077  allowed[_from] */\n          0x00\n            /* \"contracts/ERC20Standard.sol\":2071:2076  _from */\n          dup6\n            /* \"contracts/ERC20Standard.sol\":2063:2077  allowed[_from] */\n          0xffffffffffffffffffffffffffffffffffffffff\n          and\n          0xffffffffffffffffffffffffffffffffffffffff\n          and\n          dup2\n          mstore\n          0x20\n          add\n          swap1\n          dup2\n          mstore\n          0x20\n          add\n          0x00\n          keccak256\n            /* \"contracts/ERC20Standard.sol\":2063:2089  allowed[_from][msg.sender] */\n          0x00\n            /* \"contracts/ERC20Standard.sol\":2078:2088  msg.sender */\n          caller\n            /* \"contracts/ERC20Standard.sol\":2063:2089  allowed[_from][msg.sender] */\n          0xffffffffffffffffffffffffffffffffffffffff\n          and\n          0xffffffffffffffffffffffffffffffffffffffff\n          and\n          dup2\n          mstore\n          0x20\n          add\n          swap1\n          dup2\n          mstore\n          0x20\n          add\n          0x00\n          keccak256\n          sload\n            /* \"contracts/ERC20Standard.sol\":2063:2099  allowed[_from][msg.sender] >= _value */\n          lt\n          iszero\n            /* \"contracts/ERC20Standard.sol\":2055:2118  require(allowed[_from][msg.sender] >= _value, \"Don't allowed.\") */\n          tag_76\n          jumpi\n          mload(0x40)\n          0x08c379a000000000000000000000000000000000000000000000000000000000\n          dup2\n          mstore\n          0x04\n          add\n          tag_77\n          swap1\n          tag_78\n          jump\t// in\n        tag_77:\n          mload(0x40)\n          dup1\n          swap2\n          sub\n          swap1\n          revert\n        tag_76:\n            /* \"contracts/ERC20Standard.sol\":2139:2164  balances[_to].add(_value) */\n          tag_79\n            /* \"contracts/ERC20Standard.sol\":2157:2163  _value */\n          dup2\n            /* \"contracts/ERC20Standard.sol\":2139:2147  balances */\n          0x05\n            /* \"contracts/ERC20Standard.sol\":2139:2152  balances[_to] */\n          0x00\n            /* \"contracts/ERC20Standard.sol\":2148:2151  _to */\n          dup6\n            /* \"contracts/ERC20Standard.sol\":2139:2152  balances[_to] */\n          0xffffffffffffffffffffffffffffffffffffffff\n          and\n          0xffffffffffffffffffffffffffffffffffffffff\n          and\n          dup2\n          mstore\n          0x20\n          add\n          swap1\n          dup2\n          mstore\n          0x20\n          add\n          0x00\n          keccak256\n          sload\n            /* \"contracts/ERC20Standard.sol\":2139:2156  balances[_to].add */\n          tag_80\n          swap1\n            /* \"contracts/ERC20Standard.sol\":2139:2164  balances[_to].add(_value) */\n          swap2\n          swap1\n          0xffffffff\n          and\n          jump\t// in\n        tag_79:\n            /* \"contracts/ERC20Standard.sol\":2123:2131  balances */\n          0x05\n            /* \"contracts/ERC20Standard.sol\":2123:2136  balances[_to] */\n          0x00\n            /* \"contracts/ERC20Standard.sol\":2132:2135  _to */\n          dup5\n            /* \"contracts/ERC20Standard.sol\":2123:2136  balances[_to] */\n          0xffffffffffffffffffffffffffffffffffffffff\n          and\n          0xffffffffffffffffffffffffffffffffffffffff\n          and\n          dup2\n          mstore\n          0x20\n          add\n          swap1\n          dup2\n          mstore\n          0x20\n          add\n          0x00\n          keccak256\n            /* \"contracts/ERC20Standard.sol\":2123:2164  balances[_to] = balances[_to].add(_value) */\n          dup2\n          swap1\n          sstore\n          pop\n            /* \"contracts/ERC20Standard.sol\":2187:2214  balances[_from].sub(_value) */\n          tag_81\n            /* \"contracts/ERC20Standard.sol\":2207:2213  _value */\n          dup2\n            /* \"contracts/ERC20Standard.sol\":2187:2195  balances */\n          0x05\n            /* \"contracts/ERC20Standard.sol\":2187:2202  balances[_from] */\n          0x00\n            /* \"contracts/ERC20Standard.sol\":2196:2201  _from */\n          dup7\n            /* \"contracts/ERC20Standard.sol\":2187:2202  balances[_from] */\n          0xffffffffffffffffffffffffffffffffffffffff\n          and\n          0xffffffffffffffffffffffffffffffffffffffff\n          and\n          dup2\n          mstore\n          0x20\n          add\n          swap1\n          dup2\n          mstore\n          0x20\n          add\n          0x00\n          keccak256\n          sload\n            /* \"contracts/ERC20Standard.sol\":2187:2206  balances[_from].sub */\n          tag_82\n          swap1\n            /* \"contracts/ERC20Standard.sol\":2187:2214  balances[_from].sub(_value) */\n          swap2\n          swap1\n          0xffffffff\n          and\n          jump\t// in\n        tag_81:\n            /* \"contracts/ERC20Standard.sol\":2169:2177  balances */\n          0x05\n            /* \"contracts/ERC20Standard.sol\":2169:2184  balances[_from] */\n          0x00\n            /* \"contracts/ERC20Standard.sol\":2178:2183  _from */\n          dup6\n            /* \"contracts/ERC20Standard.sol\":2169:2184  balances[_from] */\n          0xffffffffffffffffffffffffffffffffffffffff\n          and\n          0xffffffffffffffffffffffffffffffffffffffff\n          and\n          dup2\n          mstore\n          0x20\n          add\n          swap1\n          dup2\n          mstore\n          0x20\n          add\n          0x00\n          keccak256\n            /* \"contracts/ERC20Standard.sol\":2169:2214  balances[_from] = balances[_from].sub(_value) */\n          dup2\n          swap1\n          sstore\n          pop\n            /* \"contracts/ERC20Standard.sol\":2248:2286  allowed[_from][msg.sender].sub(_value) */\n          tag_83\n            /* \"contracts/ERC20Standard.sol\":2279:2285  _value */\n          dup2\n            /* \"contracts/ERC20Standard.sol\":2248:2255  allowed */\n          0x06\n            /* \"contracts/ERC20Standard.sol\":2248:2262  allowed[_from] */\n          0x00\n            /* \"contracts/ERC20Standard.sol\":2256:2261  _from */\n          dup7\n            /* \"contracts/ERC20Standard.sol\":2248:2262  allowed[_from] */\n          0xffffffffffffffffffffffffffffffffffffffff\n          and\n          0xffffffffffffffffffffffffffffffffffffffff\n          and\n          dup2\n          mstore\n          0x20\n          add\n          swap1\n          dup2\n          mstore\n          0x20\n          add\n          0x00\n          keccak256\n            /* \"contracts/ERC20Standard.sol\":2248:2274  allowed[_from][msg.sender] */\n          0x00\n            /* \"contracts/ERC20Standard.sol\":2263:2273  msg.sender */\n          caller\n            /* \"contracts/ERC20Standard.sol\":2248:2274  allowed[_from][msg.sender] */\n          0xffffffffffffffffffffffffffffffffffffffff\n          and\n          0xffffffffffffffffffffffffffffffffffffffff\n          and\n          dup2\n          mstore\n          0x20\n          add\n          swap1\n          dup2\n          mstore\n          0x20\n          add\n          0x00\n          keccak256\n          sload\n            /* \"contracts/ERC20Standard.sol\":2248:2278  allowed[_from][msg.sender].sub */\n          tag_82\n          swap1\n            /* \"contracts/ERC20Standard.sol\":2248:2286  allowed[_from][msg.sender].sub(_value) */\n          swap2\n          swap1\n          0xffffffff\n          and\n          jump\t// in\n        tag_83:\n            /* \"contracts/ERC20Standard.sol\":2219:2226  allowed */\n          0x06\n            /* \"contracts/ERC20Standard.sol\":2219:2233  allowed[_from] */\n          0x00\n            /* \"contracts/ERC20Standard.sol\":2227:2232  _from */\n          dup6\n            /* \"contracts/ERC20Standard.sol\":2219:2233  allowed[_from] */\n          0xffffffffffffffffffffffffffffffffffffffff\n          and\n          0xffffffffffffffffffffffffffffffffffffffff\n          and\n          dup2\n          mstore\n          0x20\n          add\n          swap1\n          dup2\n          mstore\n          0x20\n          add\n          0x00\n          keccak256\n            /* \"contracts/ERC20Standard.sol\":2219:2245  allowed[_from][msg.sender] */\n          0x00\n            /* \"contracts/ERC20Standard.sol\":2234:2244  msg.sender */\n          caller\n            /* \"contracts/ERC20Standard.sol\":2219:2245  allowed[_from][msg.sender] */\n          0xffffffffffffffffffffffffffffffffffffffff\n          and\n          0xffffffffffffffffffffffffffffffffffffffff\n          and\n          dup2\n          mstore\n          0x20\n          add\n          swap1\n          dup2\n          mstore\n          0x20\n          add\n          0x00\n          keccak256\n            /* \"contracts/ERC20Standard.sol\":2219:2286  allowed[_from][msg.sender] = allowed[_from][msg.sender].sub(_value) */\n          dup2\n          swap1\n          sstore\n          pop\n            /* \"contracts/ERC20Standard.sol\":2312:2315  _to */\n          dup2\n            /* \"contracts/ERC20Standard.sol\":2296:2324  Transfer(_from, _to, _value) */\n          0xffffffffffffffffffffffffffffffffffffffff\n          and\n            /* \"contracts/ERC20Standard.sol\":2305:2310  _from */\n          dup4\n            /* \"contracts/ERC20Standard.sol\":2296:2324  Transfer(_from, _to, _value) */\n          0xffffffffffffffffffffffffffffffffffffffff\n          and\n          0xddf252ad1be2c89b69c2b068fc378daa952ba7f163c4a11628f55a4df523b3ef\n            /* \"contracts/ERC20Standard.sol\":2317:2323  _value */\n          dup4\n            /* \"contracts/ERC20Standard.sol\":2296:2324  Transfer(_from, _to, _value) */\n          mload(0x40)\n          tag_84\n          swap2\n          swap1\n          tag_27\n          jump\t// in\n        tag_84:\n          mload(0x40)\n          dup1\n          swap2\n          sub\n          swap1\n          log3\n            /* \"contracts/ERC20Standard.sol\":1879:2336  function transferFrom(address _from, address _to, uint _value) public {\r... */\n          pop\n          pop\n          pop\n          jump\t// out\n            /* \"contracts/ERC20Standard.sol\":1027:1048  uint8 public decimals */\n        tag_33:\n          0x02\n          0x00\n          swap1\n          sload\n          swap1\n          0x0100\n          exp\n          swap1\n          div\n          0xff\n          and\n          dup2\n          jump\t// out\n            /* \"contracts/ERC20Standard.sol\":2341:2727  function mint(address account, uint256 amount) public {\r... */\n        tag_38:\n            /* \"contracts/ERC20Standard.sol\":2433:2434  0 */\n          0x00\n            /* \"contracts/ERC20Standard.sol\":2414:2435  account != address(0) */\n          0xffffffffffffffffffffffffffffffffffffffff\n          and\n            /* \"contracts/ERC20Standard.sol\":2414:2421  account */\n          dup3\n            /* \"contracts/ERC20Standard.sol\":2414:2435  account != address(0) */\n          0xffffffffffffffffffffffffffffffffffffffff\n          and\n          eq\n          iszero\n            /* \"contracts/ERC20Standard.sol\":2406:2471  require(account != address(0), \"ERC20: mint to the zero address\") */\n          tag_86\n          jumpi\n          mload(0x40)\n          0x08c379a000000000000000000000000000000000000000000000000000000000\n          dup2\n          mstore\n          0x04\n          add\n          tag_87\n          swap1\n          tag_88\n          jump\t// in\n        tag_87:\n          mload(0x40)\n          dup1\n          swap2\n          sub\n          swap1\n          revert\n        tag_86:\n            /* \"contracts/ERC20Standard.sol\":2484:2533  _beforeTokenTransfer(address(0), account, amount) */\n          tag_89\n            /* \"contracts/ERC20Standard.sol\":2513:2514  0 */\n          0x00\n            /* \"contracts/ERC20Standard.sol\":2517:2524  account */\n          dup4\n            /* \"contracts/ERC20Standard.sol\":2526:2532  amount */\n          dup4\n            /* \"contracts/ERC20Standard.sol\":2484:2504  _beforeTokenTransfer */\n          tag_90\n            /* \"contracts/ERC20Standard.sol\":2484:2533  _beforeTokenTransfer(address(0), account, amount) */\n          jump\t// in\n        tag_89:\n            /* \"contracts/ERC20Standard.sol\":2561:2567  amount */\n          dup1\n            /* \"contracts/ERC20Standard.sol\":2546:2557  totalSupply */\n          0x00\n          dup1\n            /* \"contracts/ERC20Standard.sol\":2546:2567  totalSupply += amount */\n          dup3\n          dup3\n          sload\n          tag_91\n          swap2\n          swap1\n          tag_92\n          jump\t// in\n        tag_91:\n          swap3\n          pop\n          pop\n          dup2\n          swap1\n          sstore\n          pop\n            /* \"contracts/ERC20Standard.sol\":2599:2605  amount */\n          dup1\n            /* \"contracts/ERC20Standard.sol\":2578:2586  balances */\n          0x05\n            /* \"contracts/ERC20Standard.sol\":2578:2595  balances[account] */\n          0x00\n            /* \"contracts/ERC20Standard.sol\":2587:2594  account */\n          dup5\n            /* \"contracts/ERC20Standard.sol\":2578:2595  balances[account] */\n          0xffffffffffffffffffffffffffffffffffffffff\n          and\n          0xffffffffffffffffffffffffffffffffffffffff\n          and\n          dup2\n          mstore\n          0x20\n          add\n          swap1\n          dup2\n          mstore\n          0x20\n          add\n          0x00\n          keccak256\n          0x00\n            /* \"contracts/ERC20Standard.sol\":2578:2605  balances[account] += amount */\n          dup3\n          dup3\n          sload\n          tag_93\n          swap2\n          swap1\n          tag_92\n          jump\t// in\n        tag_93:\n          swap3\n          pop\n          pop\n          dup2\n          swap1\n          sstore\n          pop\n            /* \"contracts/ERC20Standard.sol\":2642:2649  account */\n          dup2\n            /* \"contracts/ERC20Standard.sol\":2621:2658  Transfer(address(0), account, amount) */\n          0xffffffffffffffffffffffffffffffffffffffff\n          and\n            /* \"contracts/ERC20Standard.sol\":2638:2639  0 */\n          0x00\n            /* \"contracts/ERC20Standard.sol\":2621:2658  Transfer(address(0), account, amount) */\n          0xffffffffffffffffffffffffffffffffffffffff\n          and\n          0xddf252ad1be2c89b69c2b068fc378daa952ba7f163c4a11628f55a4df523b3ef\n            /* \"contracts/ERC20Standard.sol\":2651:2657  amount */\n          dup4\n            /* \"contracts/ERC20Standard.sol\":2621:2658  Transfer(address(0), account, amount) */\n          mload(0x40)\n          tag_94\n          swap2\n          swap1\n          tag_27\n          jump\t// in\n        tag_94:\n          mload(0x40)\n          dup1\n          swap2\n          sub\n          swap1\n          log3\n            /* \"contracts/ERC20Standard.sol\":2671:2719  _afterTokenTransfer(address(0), account, amount) */\n          tag_95\n            /* \"contracts/ERC20Standard.sol\":2699:2700  0 */\n          0x00\n            /* \"contracts/ERC20Standard.sol\":2703:2710  account */\n          dup4\n            /* \"contracts/ERC20Standard.sol\":2712:2718  amount */\n          dup4\n            /* \"contracts/ERC20Standard.sol\":2671:2690  _afterTokenTransfer */\n          tag_96\n            /* \"contracts/ERC20Standard.sol\":2671:2719  _afterTokenTransfer(address(0), account, amount) */\n          jump\t// in\n        tag_95:\n            /* \"contracts/ERC20Standard.sol\":2341:2727  function mint(address account, uint256 amount) public {\r... */\n          pop\n          pop\n          jump\t// out\n            /* \"contracts/ERC20Standard.sol\":1076:1097  string public version */\n        tag_40:\n          0x04\n          dup1\n          sload\n          tag_97\n          swap1\n          tag_62\n          jump\t// in\n        tag_97:\n          dup1\n          0x1f\n          add\n          0x20\n          dup1\n          swap2\n          div\n          mul\n          0x20\n          add\n          mload(0x40)\n          swap1\n          dup2\n          add\n          0x40\n          mstore\n          dup1\n          swap3\n          swap2\n          swap1\n          dup2\n          dup2\n          mstore\n          0x20\n          add\n          dup3\n          dup1\n          sload\n          tag_98\n          swap1\n          tag_62\n          jump\t// in\n        tag_98:\n          dup1\n          iszero\n          tag_99\n          jumpi\n          dup1\n          0x1f\n          lt\n          tag_100\n          jumpi\n          0x0100\n          dup1\n          dup4\n          sload\n          div\n          mul\n          dup4\n          mstore\n          swap2\n          0x20\n          add\n          swap2\n          jump(tag_99)\n        tag_100:\n          dup3\n          add\n          swap2\n          swap1\n          0x00\n          mstore\n          keccak256(0x00, 0x20)\n          swap1\n        tag_101:\n          dup2\n          sload\n          dup2\n          mstore\n          swap1\n          0x01\n          add\n          swap1\n          0x20\n          add\n          dup1\n          dup4\n          gt\n          tag_101\n          jumpi\n          dup3\n          swap1\n          sub\n          0x1f\n          and\n          dup3\n          add\n          swap2\n        tag_99:\n          pop\n          pop\n          pop\n          pop\n          pop\n          dup2\n          jump\t// out\n            /* \"contracts/ERC20Standard.sol\":1345:1448  function balanceOf(address _owner) public view returns (uint balance) {\r... */\n        tag_45:\n            /* \"contracts/ERC20Standard.sol\":1401:1413  uint balance */\n          0x00\n            /* \"contracts/ERC20Standard.sol\":1427:1435  balances */\n          0x05\n            /* \"contracts/ERC20Standard.sol\":1427:1443  balances[_owner] */\n          0x00\n            /* \"contracts/ERC20Standard.sol\":1436:1442  _owner */\n          dup4\n            /* \"contracts/ERC20Standard.sol\":1427:1443  balances[_owner] */\n          0xffffffffffffffffffffffffffffffffffffffff\n          and\n          0xffffffffffffffffffffffffffffffffffffffff\n          and\n          dup2\n          mstore\n          0x20\n          add\n          swap1\n          dup2\n          mstore\n          0x20\n          add\n          0x00\n          keccak256\n          sload\n            /* \"contracts/ERC20Standard.sol\":1420:1443  return balances[_owner] */\n          swap1\n          pop\n            /* \"contracts/ERC20Standard.sol\":1345:1448  function balanceOf(address _owner) public view returns (uint balance) {\r... */\n          swap2\n          swap1\n          pop\n          jump\t// out\n            /* \"contracts/ERC20Standard.sol\":1052:1072  string public symbol */\n        tag_48:\n          0x03\n          dup1\n          sload\n          tag_103\n          swap1\n          tag_62\n          jump\t// in\n        tag_103:\n          dup1\n          0x1f\n          add\n          0x20\n          dup1\n          swap2\n          div\n          mul\n          0x20\n          add\n          mload(0x40)\n          swap1\n          dup2\n          add\n          0x40\n          mstore\n          dup1\n          swap3\n          swap2\n          swap1\n          dup2\n          dup2\n          mstore\n          0x20\n          add\n          dup3\n          dup1\n          sload\n          tag_104\n          swap1\n          tag_62\n          jump\t// in\n        tag_104:\n          dup1\n          iszero\n          tag_105\n          jumpi\n          dup1\n          0x1f\n          lt\n          tag_106\n          jumpi\n          0x0100\n          dup1\n          dup4\n          sload\n          div\n          mul\n          dup4\n          mstore\n          swap2\n          0x20\n          add\n          swap2\n          jump(tag_105)\n        tag_106:\n          dup3\n          add\n          swap2\n          swap1\n          0x00\n          mstore\n          keccak256(0x00, 0x20)\n          swap1\n        tag_107:\n          dup2\n          sload\n          dup2\n          mstore\n          swap1\n          0x01\n          add\n          swap1\n          0x20\n          add\n          dup1\n          dup4\n          gt\n          tag_107\n          jumpi\n          dup3\n          swap1\n          sub\n          0x1f\n          and\n          dup3\n          add\n          swap2\n        tag_105:\n          pop\n          pop\n          pop\n          pop\n          pop\n          dup2\n          jump\t// out\n            /* \"contracts/ERC20Standard.sol\":1539:1874  function transfer(address _recipient, uint _value) public onlyPayloadSize(2*32) {\r... */\n        tag_52:\n            /* \"contracts/ERC20Standard.sol\":1613:1617  2*32 */\n          0x40\n            /* \"contracts/ERC20Standard.sol\":1326:1327  4 */\n          0x04\n            /* \"contracts/ERC20Standard.sol\":1319:1323  size */\n          dup2\n            /* \"contracts/ERC20Standard.sol\":1319:1327  size + 4 */\n          tag_109\n          swap2\n          swap1\n          tag_92\n          jump\t// in\n        tag_109:\n            /* \"contracts/ERC20Standard.sol\":1300:1308  msg.data */\n          0x00\n          calldatasize\n            /* \"contracts/ERC20Standard.sol\":1300:1315  msg.data.length */\n          swap1\n          pop\n            /* \"contracts/ERC20Standard.sol\":1300:1327  msg.data.length == size + 4 */\n          eq\n            /* \"contracts/ERC20Standard.sol\":1293:1328  assert(msg.data.length == size + 4) */\n          tag_110\n          jumpi\n          tag_111\n          tag_112\n          jump\t// in\n        tag_111:\n        tag_110:\n            /* \"contracts/ERC20Standard.sol\":1641:1642  0 */\n          0x00\n            /* \"contracts/ERC20Standard.sol\":1632:1638  _value */\n          dup3\n            /* \"contracts/ERC20Standard.sol\":1632:1642  _value > 0 */\n          gt\n            /* \"contracts/ERC20Standard.sol\":1624:1658  require(_value > 0, \"Amount <= 0\") */\n          tag_114\n          jumpi\n          mload(0x40)\n          0x08c379a000000000000000000000000000000000000000000000000000000000\n          dup2\n          mstore\n          0x04\n          add\n          tag_115\n          swap1\n          tag_72\n          jump\t// in\n        tag_115:\n          mload(0x40)\n          dup1\n          swap2\n          sub\n          swap1\n          revert\n        tag_114:\n            /* \"contracts/ERC20Standard.sol\":1691:1737  balances[msg.sender].sub(balances[msg.sender]) */\n          tag_116\n            /* \"contracts/ERC20Standard.sol\":1716:1724  balances */\n          0x05\n            /* \"contracts/ERC20Standard.sol\":1716:1736  balances[msg.sender] */\n          0x00\n            /* \"contracts/ERC20Standard.sol\":1725:1735  msg.sender */\n          caller\n            /* \"contracts/ERC20Standard.sol\":1716:1736  balances[msg.sender] */\n          0xffffffffffffffffffffffffffffffffffffffff\n          and\n          0xffffffffffffffffffffffffffffffffffffffff\n          and\n          dup2\n          mstore\n          0x20\n          add\n          swap1\n          dup2\n          mstore\n          0x20\n          add\n          0x00\n          keccak256\n          sload\n            /* \"contracts/ERC20Standard.sol\":1691:1699  balances */\n          0x05\n            /* \"contracts/ERC20Standard.sol\":1691:1711  balances[msg.sender] */\n          0x00\n            /* \"contracts/ERC20Standard.sol\":1700:1710  msg.sender */\n          caller\n            /* \"contracts/ERC20Standard.sol\":1691:1711  balances[msg.sender] */\n          0xffffffffffffffffffffffffffffffffffffffff\n          and\n          0xffffffffffffffffffffffffffffffffffffffff\n          and\n          dup2\n          mstore\n          0x20\n          add\n          swap1\n          dup2\n          mstore\n          0x20\n          add\n          0x00\n          keccak256\n          sload\n            /* \"contracts/ERC20Standard.sol\":1691:1715  balances[msg.sender].sub */\n          tag_82\n          swap1\n            /* \"contracts/ERC20Standard.sol\":1691:1737  balances[msg.sender].sub(balances[msg.sender]) */\n          swap2\n          swap1\n          0xffffffff\n          and\n          jump\t// in\n        tag_116:\n            /* \"contracts/ERC20Standard.sol\":1668:1676  balances */\n          0x05\n            /* \"contracts/ERC20Standard.sol\":1668:1688  balances[msg.sender] */\n          0x00\n            /* \"contracts/ERC20Standard.sol\":1677:1687  msg.sender */\n          caller\n            /* \"contracts/ERC20Standard.sol\":1668:1688  balances[msg.sender] */\n          0xffffffffffffffffffffffffffffffffffffffff\n          and\n          0xffffffffffffffffffffffffffffffffffffffff\n          and\n          dup2\n          mstore\n          0x20\n          add\n          swap1\n          dup2\n          mstore\n          0x20\n          add\n          0x00\n          keccak256\n            /* \"contracts/ERC20Standard.sol\":1668:1737  balances[msg.sender] = balances[msg.sender].sub(balances[msg.sender]) */\n          dup2\n          swap1\n          sstore\n          pop\n            /* \"contracts/ERC20Standard.sol\":1769:1801  balances[_recipient].add(_value) */\n          tag_117\n            /* \"contracts/ERC20Standard.sol\":1794:1800  _value */\n          dup3\n            /* \"contracts/ERC20Standard.sol\":1769:1777  balances */\n          0x05\n            /* \"contracts/ERC20Standard.sol\":1769:1789  balances[_recipient] */\n          0x00\n            /* \"contracts/ERC20Standard.sol\":1778:1788  _recipient */\n          dup7\n            /* \"contracts/ERC20Standard.sol\":1769:1789  balances[_recipient] */\n          0xffffffffffffffffffffffffffffffffffffffff\n          and\n          0xffffffffffffffffffffffffffffffffffffffff\n          and\n          dup2\n          mstore\n          0x20\n          add\n          swap1\n          dup2\n          mstore\n          0x20\n          add\n          0x00\n          keccak256\n          sload\n            /* \"contracts/ERC20Standard.sol\":1769:1793  balances[_recipient].add */\n          tag_80\n          swap1\n            /* \"contracts/ERC20Standard.sol\":1769:1801  balances[_recipient].add(_value) */\n          swap2\n          swap1\n          0xffffffff\n          and\n          jump\t// in\n        tag_117:\n            /* \"contracts/ERC20Standard.sol\":1746:1754  balances */\n          0x05\n            /* \"contracts/ERC20Standard.sol\":1746:1766  balances[_recipient] */\n          0x00\n            /* \"contracts/ERC20Standard.sol\":1755:1765  _recipient */\n          dup6\n            /* \"contracts/ERC20Standard.sol\":1746:1766  balances[_recipient] */\n          0xffffffffffffffffffffffffffffffffffffffff\n          and\n          0xffffffffffffffffffffffffffffffffffffffff\n          and\n          dup2\n          mstore\n          0x20\n          add\n          swap1\n          dup2\n          mstore\n          0x20\n          add\n          0x00\n          keccak256\n            /* \"contracts/ERC20Standard.sol\":1746:1801  balances[_recipient] = balances[_recipient].add(_value) */\n          dup2\n          swap1\n          sstore\n          pop\n            /* \"contracts/ERC20Standard.sol\":1835:1845  _recipient */\n          dup3\n            /* \"contracts/ERC20Standard.sol\":1814:1854  Transfer(msg.sender, _recipient, _value) */\n          0xffffffffffffffffffffffffffffffffffffffff\n          and\n            /* \"contracts/ERC20Standard.sol\":1823:1833  msg.sender */\n          caller\n            /* \"contracts/ERC20Standard.sol\":1814:1854  Transfer(msg.sender, _recipient, _value) */\n          0xffffffffffffffffffffffffffffffffffffffff\n          and\n          0xddf252ad1be2c89b69c2b068fc378daa952ba7f163c4a11628f55a4df523b3ef\n            /* \"contracts/ERC20Standard.sol\":1847:1853  _value */\n          dup5\n            /* \"contracts/ERC20Standard.sol\":1814:1854  Transfer(msg.sender, _recipient, _value) */\n          mload(0x40)\n          tag_118\n          swap2\n          swap1\n          tag_27\n          jump\t// in\n        tag_118:\n          mload(0x40)\n          dup1\n          swap2\n          sub\n          swap1\n          log3\n            /* \"contracts/ERC20Standard.sol\":1539:1874  function transfer(address _recipient, uint _value) public onlyPayloadSize(2*32) {\r... */\n          pop\n          pop\n          pop\n          jump\t// out\n            /* \"contracts/ERC20Standard.sol\":1453:1534  function getTotalSupply() public view returns (uint) {\r... */\n        tag_54:\n            /* \"contracts/ERC20Standard.sol\":1500:1504  uint */\n          0x00\n            /* \"contracts/ERC20Standard.sol\":1518:1529  totalSupply */\n          dup1\n          sload\n            /* \"contracts/ERC20Standard.sol\":1511:1529  return totalSupply */\n          swap1\n          pop\n            /* \"contracts/ERC20Standard.sol\":1453:1534  function getTotalSupply() public view returns (uint) {\r... */\n          swap1\n          jump\t// out\n            /* \"contracts/ERC20Standard.sol\":2889:3019  function allowance(address _spender, address _owner) public view returns (uint balance) {\r... */\n        tag_59:\n            /* \"contracts/ERC20Standard.sol\":2963:2975  uint balance */\n          0x00\n            /* \"contracts/ERC20Standard.sol\":2989:2996  allowed */\n          0x06\n            /* \"contracts/ERC20Standard.sol\":2989:3004  allowed[_owner] */\n          0x00\n            /* \"contracts/ERC20Standard.sol\":2997:3003  _owner */\n          dup4\n            /* \"contracts/ERC20Standard.sol\":2989:3004  allowed[_owner] */\n          0xffffffffffffffffffffffffffffffffffffffff\n          and\n          0xffffffffffffffffffffffffffffffffffffffff\n          and\n          dup2\n          mstore\n          0x20\n          add\n          swap1\n          dup2\n          mstore\n          0x20\n          add\n          0x00\n          keccak256\n            /* \"contracts/ERC20Standard.sol\":2989:3014  allowed[_owner][_spender] */\n          0x00\n            /* \"contracts/ERC20Standard.sol\":3005:3013  _spender */\n          dup5\n            /* \"contracts/ERC20Standard.sol\":2989:3014  allowed[_owner][_spender] */\n          0xffffffffffffffffffffffffffffffffffffffff\n          and\n          0xffffffffffffffffffffffffffffffffffffffff\n          and\n          dup2\n          mstore\n          0x20\n          add\n          swap1\n          dup2\n          mstore\n          0x20\n          add\n          0x00\n          keccak256\n          sload\n            /* \"contracts/ERC20Standard.sol\":2982:3014  return allowed[_owner][_spender] */\n          swap1\n          pop\n            /* \"contracts/ERC20Standard.sol\":2889:3019  function allowance(address _spender, address _owner) public view returns (uint balance) {\r... */\n          swap3\n          swap2\n          pop\n          pop\n          jump\t// out\n            /* \"contracts/ERC20Standard.sol\":629:779  function add(uint256 a, uint256 b) internal pure returns (uint256) {\r... */\n        tag_80:\n            /* \"contracts/ERC20Standard.sol\":687:694  uint256 */\n          0x00\n            /* \"contracts/ERC20Standard.sol\":707:716  uint256 c */\n          dup1\n            /* \"contracts/ERC20Standard.sol\":723:724  b */\n          dup3\n            /* \"contracts/ERC20Standard.sol\":719:720  a */\n          dup5\n            /* \"contracts/ERC20Standard.sol\":719:724  a + b */\n          tag_122\n          swap2\n          swap1\n          tag_92\n          jump\t// in\n        tag_122:\n            /* \"contracts/ERC20Standard.sol\":707:724  uint256 c = a + b */\n          swap1\n          pop\n            /* \"contracts/ERC20Standard.sol\":748:749  a */\n          dup4\n            /* \"contracts/ERC20Standard.sol\":743:744  c */\n          dup2\n            /* \"contracts/ERC20Standard.sol\":743:749  c >= a */\n          lt\n          iszero\n            /* \"contracts/ERC20Standard.sol\":735:750  require(c >= a) */\n          tag_123\n          jumpi\n          0x00\n          dup1\n          revert\n        tag_123:\n            /* \"contracts/ERC20Standard.sol\":770:771  c */\n          dup1\n            /* \"contracts/ERC20Standard.sol\":763:771  return c */\n          swap2\n          pop\n          pop\n            /* \"contracts/ERC20Standard.sol\":629:779  function add(uint256 a, uint256 b) internal pure returns (uint256) {\r... */\n          swap3\n          swap2\n          pop\n          pop\n          jump\t// out\n            /* \"contracts/ERC20Standard.sol\":471:621  function sub(uint256 a, uint256 b) internal pure returns (uint256) {\r... */\n        tag_82:\n            /* \"contracts/ERC20Standard.sol\":529:536  uint256 */\n          0x00\n            /* \"contracts/ERC20Standard.sol\":562:563  a */\n          dup3\n            /* \"contracts/ERC20Standard.sol\":557:558  b */\n          dup3\n            /* \"contracts/ERC20Standard.sol\":557:563  b <= a */\n          gt\n          iszero\n            /* \"contracts/ERC20Standard.sol\":549:564  require(b <= a) */\n          tag_125\n          jumpi\n          0x00\n          dup1\n          revert\n        tag_125:\n            /* \"contracts/ERC20Standard.sol\":575:584  uint256 c */\n          0x00\n            /* \"contracts/ERC20Standard.sol\":591:592  b */\n          dup3\n            /* \"contracts/ERC20Standard.sol\":587:588  a */\n          dup5\n            /* \"contracts/ERC20Standard.sol\":587:592  a - b */\n          tag_126\n          swap2\n          swap1\n          tag_127\n          jump\t// in\n        tag_126:\n            /* \"contracts/ERC20Standard.sol\":575:592  uint256 c = a - b */\n          swap1\n          pop\n            /* \"contracts/ERC20Standard.sol\":612:613  c */\n          dup1\n            /* \"contracts/ERC20Standard.sol\":605:613  return c */\n          swap2\n          pop\n          pop\n            /* \"contracts/ERC20Standard.sol\":471:621  function sub(uint256 a, uint256 b) internal pure returns (uint256) {\r... */\n          swap3\n          swap2\n          pop\n          pop\n          jump\t// out\n            /* \"contracts/ERC20Standard.sol\":3383:3508  function _beforeTokenTransfer(\r... */\n        tag_90:\n          pop\n          pop\n          pop\n          jump\t// out\n            /* \"contracts/ERC20Standard.sol\":3517:3641  function _afterTokenTransfer(\r... */\n        tag_96:\n          pop\n          pop\n          pop\n          jump\t// out\n            /* \"#utility.yul\":7:146   */\n        tag_131:\n            /* \"#utility.yul\":53:58   */\n          0x00\n            /* \"#utility.yul\":91:97   */\n          dup2\n            /* \"#utility.yul\":78:98   */\n          calldataload\n            /* \"#utility.yul\":69:98   */\n          swap1\n          pop\n            /* \"#utility.yul\":107:140   */\n          tag_133\n            /* \"#utility.yul\":134:139   */\n          dup2\n            /* \"#utility.yul\":107:140   */\n          tag_134\n          jump\t// in\n        tag_133:\n            /* \"#utility.yul\":7:146   */\n          swap3\n          swap2\n          pop\n          pop\n          jump\t// out\n            /* \"#utility.yul\":152:291   */\n        tag_135:\n            /* \"#utility.yul\":198:203   */\n          0x00\n            /* \"#utility.yul\":236:242   */\n          dup2\n            /* \"#utility.yul\":223:243   */\n          calldataload\n            /* \"#utility.yul\":214:243   */\n          swap1\n          pop\n            /* \"#utility.yul\":252:285   */\n          tag_137\n            /* \"#utility.yul\":279:284   */\n          dup2\n            /* \"#utility.yul\":252:285   */\n          tag_138\n          jump\t// in\n        tag_137:\n            /* \"#utility.yul\":152:291   */\n          swap3\n          swap2\n          pop\n          pop\n          jump\t// out\n            /* \"#utility.yul\":297:626   */\n        tag_44:\n            /* \"#utility.yul\":356:362   */\n          0x00\n            /* \"#utility.yul\":405:407   */\n          0x20\n            /* \"#utility.yul\":393:402   */\n          dup3\n            /* \"#utility.yul\":384:391   */\n          dup5\n            /* \"#utility.yul\":380:403   */\n          sub\n            /* \"#utility.yul\":376:408   */\n          slt\n            /* \"#utility.yul\":373:492   */\n          iszero\n          tag_140\n          jumpi\n            /* \"#utility.yul\":411:490   */\n          tag_141\n          tag_142\n          jump\t// in\n        tag_141:\n            /* \"#utility.yul\":373:492   */\n        tag_140:\n            /* \"#utility.yul\":531:532   */\n          0x00\n            /* \"#utility.yul\":556:609   */\n          tag_143\n            /* \"#utility.yul\":601:608   */\n          dup5\n            /* \"#utility.yul\":592:598   */\n          dup3\n            /* \"#utility.yul\":581:590   */\n          dup6\n            /* \"#utility.yul\":577:599   */\n          add\n            /* \"#utility.yul\":556:609   */\n          tag_131\n          jump\t// in\n        tag_143:\n            /* \"#utility.yul\":546:609   */\n          swap2\n          pop\n            /* \"#utility.yul\":502:619   */\n          pop\n            /* \"#utility.yul\":297:626   */\n          swap3\n          swap2\n          pop\n          pop\n          jump\t// out\n            /* \"#utility.yul\":632:1106   */\n        tag_58:\n            /* \"#utility.yul\":700:706   */\n          0x00\n            /* \"#utility.yul\":708:714   */\n          dup1\n            /* \"#utility.yul\":757:759   */\n          0x40\n            /* \"#utility.yul\":745:754   */\n          dup4\n            /* \"#utility.yul\":736:743   */\n          dup6\n            /* \"#utility.yul\":732:755   */\n          sub\n            /* \"#utility.yul\":728:760   */\n          slt\n            /* \"#utility.yul\":725:844   */\n          iszero\n          tag_145\n          jumpi\n            /* \"#utility.yul\":763:842   */\n          tag_146\n          tag_142\n          jump\t// in\n        tag_146:\n            /* \"#utility.yul\":725:844   */\n        tag_145:\n            /* \"#utility.yul\":883:884   */\n          0x00\n            /* \"#utility.yul\":908:961   */\n          tag_147\n            /* \"#utility.yul\":953:960   */\n          dup6\n            /* \"#utility.yul\":944:950   */\n          dup3\n            /* \"#utility.yul\":933:942   */\n          dup7\n            /* \"#utility.yul\":929:951   */\n          add\n            /* \"#utility.yul\":908:961   */\n          tag_131\n          jump\t// in\n        tag_147:\n            /* \"#utility.yul\":898:961   */\n          swap3\n          pop\n            /* \"#utility.yul\":854:971   */\n          pop\n            /* \"#utility.yul\":1010:1012   */\n          0x20\n            /* \"#utility.yul\":1036:1089   */\n          tag_148\n            /* \"#utility.yul\":1081:1088   */\n          dup6\n            /* \"#utility.yul\":1072:1078   */\n          dup3\n            /* \"#utility.yul\":1061:1070   */\n          dup7\n            /* \"#utility.yul\":1057:1079   */\n          add\n            /* \"#utility.yul\":1036:1089   */\n          tag_131\n          jump\t// in\n        tag_148:\n            /* \"#utility.yul\":1026:1089   */\n          swap2\n          pop\n            /* \"#utility.yul\":981:1099   */\n          pop\n            /* \"#utility.yul\":632:1106   */\n          swap3\n          pop\n          swap3\n          swap1\n          pop\n          jump\t// out\n            /* \"#utility.yul\":1112:1731   */\n        tag_30:\n            /* \"#utility.yul\":1189:1195   */\n          0x00\n            /* \"#utility.yul\":1197:1203   */\n          dup1\n            /* \"#utility.yul\":1205:1211   */\n          0x00\n            /* \"#utility.yul\":1254:1256   */\n          0x60\n            /* \"#utility.yul\":1242:1251   */\n          dup5\n            /* \"#utility.yul\":1233:1240   */\n          dup7\n            /* \"#utility.yul\":1229:1252   */\n          sub\n            /* \"#utility.yul\":1225:1257   */\n          slt\n            /* \"#utility.yul\":1222:1341   */\n          iszero\n          tag_150\n          jumpi\n            /* \"#utility.yul\":1260:1339   */\n          tag_151\n          tag_142\n          jump\t// in\n        tag_151:\n            /* \"#utility.yul\":1222:1341   */\n        tag_150:\n            /* \"#utility.yul\":1380:1381   */\n          0x00\n            /* \"#utility.yul\":1405:1458   */\n          tag_152\n            /* \"#utility.yul\":1450:1457   */\n          dup7\n            /* \"#utility.yul\":1441:1447   */\n          dup3\n            /* \"#utility.yul\":1430:1439   */\n          dup8\n            /* \"#utility.yul\":1426:1448   */\n          add\n            /* \"#utility.yul\":1405:1458   */\n          tag_131\n          jump\t// in\n        tag_152:\n            /* \"#utility.yul\":1395:1458   */\n          swap4\n          pop\n            /* \"#utility.yul\":1351:1468   */\n          pop\n            /* \"#utility.yul\":1507:1509   */\n          0x20\n            /* \"#utility.yul\":1533:1586   */\n          tag_153\n            /* \"#utility.yul\":1578:1585   */\n          dup7\n            /* \"#utility.yul\":1569:1575   */\n          dup3\n            /* \"#utility.yul\":1558:1567   */\n          dup8\n            /* \"#utility.yul\":1554:1576   */\n          add\n            /* \"#utility.yul\":1533:1586   */\n          tag_131\n          jump\t// in\n        tag_153:\n            /* \"#utility.yul\":1523:1586   */\n          swap3\n          pop\n            /* \"#utility.yul\":1478:1596   */\n          pop\n            /* \"#utility.yul\":1635:1637   */\n          0x40\n            /* \"#utility.yul\":1661:1714   */\n          tag_154\n            /* \"#utility.yul\":1706:1713   */\n          dup7\n            /* \"#utility.yul\":1697:1703   */\n          dup3\n            /* \"#utility.yul\":1686:1695   */\n          dup8\n            /* \"#utility.yul\":1682:1704   */\n          add\n            /* \"#utility.yul\":1661:1714   */\n          tag_135\n          jump\t// in\n        tag_154:\n            /* \"#utility.yul\":1651:1714   */\n          swap2\n          pop\n            /* \"#utility.yul\":1606:1724   */\n          pop\n            /* \"#utility.yul\":1112:1731   */\n          swap3\n          pop\n          swap3\n          pop\n          swap3\n          jump\t// out\n            /* \"#utility.yul\":1737:2211   */\n        tag_22:\n            /* \"#utility.yul\":1805:1811   */\n          0x00\n            /* \"#utility.yul\":1813:1819   */\n          dup1\n            /* \"#utility.yul\":1862:1864   */\n          0x40\n            /* \"#utility.yul\":1850:1859   */\n          dup4\n            /* \"#utility.yul\":1841:1848   */\n          dup6\n            /* \"#utility.yul\":1837:1860   */\n          sub\n            /* \"#utility.yul\":1833:1865   */\n          slt\n            /* \"#utility.yul\":1830:1949   */\n          iszero\n          tag_156\n          jumpi\n            /* \"#utility.yul\":1868:1947   */\n          tag_157\n          tag_142\n          jump\t// in\n        tag_157:\n            /* \"#utility.yul\":1830:1949   */\n        tag_156:\n            /* \"#utility.yul\":1988:1989   */\n          0x00\n            /* \"#utility.yul\":2013:2066   */\n          tag_158\n            /* \"#utility.yul\":2058:2065   */\n          dup6\n            /* \"#utility.yul\":2049:2055   */\n          dup3\n            /* \"#utility.yul\":2038:2047   */\n          dup7\n            /* \"#utility.yul\":2034:2056   */\n          add\n            /* \"#utility.yul\":2013:2066   */\n          tag_131\n          jump\t// in\n        tag_158:\n            /* \"#utility.yul\":2003:2066   */\n          swap3\n          pop\n            /* \"#utility.yul\":1959:2076   */\n          pop\n            /* \"#utility.yul\":2115:2117   */\n          0x20\n            /* \"#utility.yul\":2141:2194   */\n          tag_159\n            /* \"#utility.yul\":2186:2193   */\n          dup6\n            /* \"#utility.yul\":2177:2183   */\n          dup3\n            /* \"#utility.yul\":2166:2175   */\n          dup7\n            /* \"#utility.yul\":2162:2184   */\n          add\n            /* \"#utility.yul\":2141:2194   */\n          tag_135\n          jump\t// in\n        tag_159:\n            /* \"#utility.yul\":2131:2194   */\n          swap2\n          pop\n            /* \"#utility.yul\":2086:2204   */\n          pop\n            /* \"#utility.yul\":1737:2211   */\n          swap3\n          pop\n          swap3\n          swap1\n          pop\n          jump\t// out\n            /* \"#utility.yul\":2217:2581   */\n        tag_160:\n            /* \"#utility.yul\":2305:2308   */\n          0x00\n            /* \"#utility.yul\":2333:2372   */\n          tag_162\n            /* \"#utility.yul\":2366:2371   */\n          dup3\n            /* \"#utility.yul\":2333:2372   */\n          tag_163\n          jump\t// in\n        tag_162:\n            /* \"#utility.yul\":2388:2459   */\n          tag_164\n            /* \"#utility.yul\":2452:2458   */\n          dup2\n            /* \"#utility.yul\":2447:2450   */\n          dup6\n            /* \"#utility.yul\":2388:2459   */\n          tag_165\n          jump\t// in\n        tag_164:\n            /* \"#utility.yul\":2381:2459   */\n          swap4\n          pop\n            /* \"#utility.yul\":2468:2520   */\n          tag_166\n            /* \"#utility.yul\":2513:2519   */\n          dup2\n            /* \"#utility.yul\":2508:2511   */\n          dup6\n            /* \"#utility.yul\":2501:2505   */\n          0x20\n            /* \"#utility.yul\":2494:2499   */\n          dup7\n            /* \"#utility.yul\":2490:2506   */\n          add\n            /* \"#utility.yul\":2468:2520   */\n          tag_167\n          jump\t// in\n        tag_166:\n            /* \"#utility.yul\":2545:2574   */\n          tag_168\n            /* \"#utility.yul\":2567:2573   */\n          dup2\n            /* \"#utility.yul\":2545:2574   */\n          tag_169\n          jump\t// in\n        tag_168:\n            /* \"#utility.yul\":2540:2543   */\n          dup5\n            /* \"#utility.yul\":2536:2575   */\n          add\n            /* \"#utility.yul\":2529:2575   */\n          swap2\n          pop\n            /* \"#utility.yul\":2309:2581   */\n          pop\n            /* \"#utility.yul\":2217:2581   */\n          swap3\n          swap2\n          pop\n          pop\n          jump\t// out\n            /* \"#utility.yul\":2587:2953   */\n        tag_170:\n            /* \"#utility.yul\":2729:2732   */\n          0x00\n            /* \"#utility.yul\":2750:2817   */\n          tag_172\n            /* \"#utility.yul\":2814:2816   */\n          0x10\n            /* \"#utility.yul\":2809:2812   */\n          dup4\n            /* \"#utility.yul\":2750:2817   */\n          tag_165\n          jump\t// in\n        tag_172:\n            /* \"#utility.yul\":2743:2817   */\n          swap2\n          pop\n            /* \"#utility.yul\":2826:2919   */\n          tag_173\n            /* \"#utility.yul\":2915:2918   */\n          dup3\n            /* \"#utility.yul\":2826:2919   */\n          tag_174\n          jump\t// in\n        tag_173:\n            /* \"#utility.yul\":2944:2946   */\n          0x20\n            /* \"#utility.yul\":2939:2942   */\n          dup3\n            /* \"#utility.yul\":2935:2947   */\n          add\n            /* \"#utility.yul\":2928:2947   */\n          swap1\n          pop\n            /* \"#utility.yul\":2587:2953   */\n          swap2\n          swap1\n          pop\n          jump\t// out\n            /* \"#utility.yul\":2959:3325   */\n        tag_175:\n            /* \"#utility.yul\":3101:3104   */\n          0x00\n            /* \"#utility.yul\":3122:3189   */\n          tag_177\n            /* \"#utility.yul\":3186:3188   */\n          0x0b\n            /* \"#utility.yul\":3181:3184   */\n          dup4\n            /* \"#utility.yul\":3122:3189   */\n          tag_165\n          jump\t// in\n        tag_177:\n            /* \"#utility.yul\":3115:3189   */\n          swap2\n          pop\n            /* \"#utility.yul\":3198:3291   */\n          tag_178\n            /* \"#utility.yul\":3287:3290   */\n          dup3\n            /* \"#utility.yul\":3198:3291   */\n          tag_179\n          jump\t// in\n        tag_178:\n            /* \"#utility.yul\":3316:3318   */\n          0x20\n            /* \"#utility.yul\":3311:3314   */\n          dup3\n            /* \"#utility.yul\":3307:3319   */\n          add\n            /* \"#utility.yul\":3300:3319   */\n          swap1\n          pop\n            /* \"#utility.yul\":2959:3325   */\n          swap2\n          swap1\n          pop\n          jump\t// out\n            /* \"#utility.yul\":3331:3697   */\n        tag_180:\n            /* \"#utility.yul\":3473:3476   */\n          0x00\n            /* \"#utility.yul\":3494:3561   */\n          tag_182\n            /* \"#utility.yul\":3558:3560   */\n          0x0e\n            /* \"#utility.yul\":3553:3556   */\n          dup4\n            /* \"#utility.yul\":3494:3561   */\n          tag_165\n          jump\t// in\n        tag_182:\n            /* \"#utility.yul\":3487:3561   */\n          swap2\n          pop\n            /* \"#utility.yul\":3570:3663   */\n          tag_183\n            /* \"#utility.yul\":3659:3662   */\n          dup3\n            /* \"#utility.yul\":3570:3663   */\n          tag_184\n          jump\t// in\n        tag_183:\n            /* \"#utility.yul\":3688:3690   */\n          0x20\n            /* \"#utility.yul\":3683:3686   */\n          dup3\n            /* \"#utility.yul\":3679:3691   */\n          add\n            /* \"#utility.yul\":3672:3691   */\n          swap1\n          pop\n            /* \"#utility.yul\":3331:3697   */\n          swap2\n          swap1\n          pop\n          jump\t// out\n            /* \"#utility.yul\":3703:4069   */\n        tag_185:\n            /* \"#utility.yul\":3845:3848   */\n          0x00\n            /* \"#utility.yul\":3866:3933   */\n          tag_187\n            /* \"#utility.yul\":3930:3932   */\n          0x1f\n            /* \"#utility.yul\":3925:3928   */\n          dup4\n            /* \"#utility.yul\":3866:3933   */\n          tag_165\n          jump\t// in\n        tag_187:\n            /* \"#utility.yul\":3859:3933   */\n          swap2\n          pop\n            /* \"#utility.yul\":3942:4035   */\n          tag_188\n            /* \"#utility.yul\":4031:4034   */\n          dup3\n            /* \"#utility.yul\":3942:4035   */\n          tag_189\n          jump\t// in\n        tag_188:\n            /* \"#utility.yul\":4060:4062   */\n          0x20\n            /* \"#utility.yul\":4055:4058   */\n          dup3\n            /* \"#utility.yul\":4051:4063   */\n          add\n            /* \"#utility.yul\":4044:4063   */\n          swap1\n          pop\n            /* \"#utility.yul\":3703:4069   */\n          swap2\n          swap1\n          pop\n          jump\t// out\n            /* \"#utility.yul\":4075:4193   */\n        tag_190:\n            /* \"#utility.yul\":4162:4186   */\n          tag_192\n            /* \"#utility.yul\":4180:4185   */\n          dup2\n            /* \"#utility.yul\":4162:4186   */\n          tag_193\n          jump\t// in\n        tag_192:\n            /* \"#utility.yul\":4157:4160   */\n          dup3\n            /* \"#utility.yul\":4150:4187   */\n          mstore\n            /* \"#utility.yul\":4075:4193   */\n          pop\n          pop\n          jump\t// out\n            /* \"#utility.yul\":4199:4311   */\n        tag_194:\n            /* \"#utility.yul\":4282:4304   */\n          tag_196\n            /* \"#utility.yul\":4298:4303   */\n          dup2\n            /* \"#utility.yul\":4282:4304   */\n          tag_197\n          jump\t// in\n        tag_196:\n            /* \"#utility.yul\":4277:4280   */\n          dup3\n            /* \"#utility.yul\":4270:4305   */\n          mstore\n            /* \"#utility.yul\":4199:4311   */\n          pop\n          pop\n          jump\t// out\n            /* \"#utility.yul\":4317:4630   */\n        tag_19:\n            /* \"#utility.yul\":4430:4434   */\n          0x00\n            /* \"#utility.yul\":4468:4470   */\n          0x20\n            /* \"#utility.yul\":4457:4466   */\n          dup3\n            /* \"#utility.yul\":4453:4471   */\n          add\n            /* \"#utility.yul\":4445:4471   */\n          swap1\n          pop\n            /* \"#utility.yul\":4517:4526   */\n          dup2\n            /* \"#utility.yul\":4511:4515   */\n          dup2\n            /* \"#utility.yul\":4507:4527   */\n          sub\n            /* \"#utility.yul\":4503:4504   */\n          0x00\n            /* \"#utility.yul\":4492:4501   */\n          dup4\n            /* \"#utility.yul\":4488:4505   */\n          add\n            /* \"#utility.yul\":4481:4528   */\n          mstore\n            /* \"#utility.yul\":4545:4623   */\n          tag_199\n            /* \"#utility.yul\":4618:4622   */\n          dup2\n            /* \"#utility.yul\":4609:4615   */\n          dup5\n            /* \"#utility.yul\":4545:4623   */\n          tag_160\n          jump\t// in\n        tag_199:\n            /* \"#utility.yul\":4537:4623   */\n          swap1\n          pop\n            /* \"#utility.yul\":4317:4630   */\n          swap3\n          swap2\n          pop\n          pop\n          jump\t// out\n            /* \"#utility.yul\":4636:5055   */\n        tag_75:\n            /* \"#utility.yul\":4802:4806   */\n          0x00\n            /* \"#utility.yul\":4840:4842   */\n          0x20\n            /* \"#utility.yul\":4829:4838   */\n          dup3\n            /* \"#utility.yul\":4825:4843   */\n          add\n            /* \"#utility.yul\":4817:4843   */\n          swap1\n          pop\n            /* \"#utility.yul\":4889:4898   */\n          dup2\n            /* \"#utility.yul\":4883:4887   */\n          dup2\n            /* \"#utility.yul\":4879:4899   */\n          sub\n            /* \"#utility.yul\":4875:4876   */\n          0x00\n            /* \"#utility.yul\":4864:4873   */\n          dup4\n            /* \"#utility.yul\":4860:4877   */\n          add\n            /* \"#utility.yul\":4853:4900   */\n          mstore\n            /* \"#utility.yul\":4917:5048   */\n          tag_201\n            /* \"#utility.yul\":5043:5047   */\n          dup2\n            /* \"#utility.yul\":4917:5048   */\n          tag_170\n          jump\t// in\n        tag_201:\n            /* \"#utility.yul\":4909:5048   */\n          swap1\n          pop\n            /* \"#utility.yul\":4636:5055   */\n          swap2\n          swap1\n          pop\n          jump\t// out\n            /* \"#utility.yul\":5061:5480   */\n        tag_72:\n            /* \"#utility.yul\":5227:5231   */\n          0x00\n            /* \"#utility.yul\":5265:5267   */\n          0x20\n            /* \"#utility.yul\":5254:5263   */\n          dup3\n            /* \"#utility.yul\":5250:5268   */\n          add\n            /* \"#utility.yul\":5242:5268   */\n          swap1\n          pop\n            /* \"#utility.yul\":5314:5323   */\n          dup2\n            /* \"#utility.yul\":5308:5312   */\n          dup2\n            /* \"#utility.yul\":5304:5324   */\n          sub\n            /* \"#utility.yul\":5300:5301   */\n          0x00\n            /* \"#utility.yul\":5289:5298   */\n          dup4\n            /* \"#utility.yul\":5285:5302   */\n          add\n            /* \"#utility.yul\":5278:5325   */\n          mstore\n            /* \"#utility.yul\":5342:5473   */\n          tag_203\n            /* \"#utility.yul\":5468:5472   */\n          dup2\n            /* \"#utility.yul\":5342:5473   */\n          tag_175\n          jump\t// in\n        tag_203:\n            /* \"#utility.yul\":5334:5473   */\n          swap1\n          pop\n            /* \"#utility.yul\":5061:5480   */\n          swap2\n          swap1\n          pop\n          jump\t// out\n            /* \"#utility.yul\":5486:5905   */\n        tag_78:\n            /* \"#utility.yul\":5652:5656   */\n          0x00\n            /* \"#utility.yul\":5690:5692   */\n          0x20\n            /* \"#utility.yul\":5679:5688   */\n          dup3\n            /* \"#utility.yul\":5675:5693   */\n          add\n            /* \"#utility.yul\":5667:5693   */\n          swap1\n          pop\n            /* \"#utility.yul\":5739:5748   */\n          dup2\n            /* \"#utility.yul\":5733:5737   */\n          dup2\n            /* \"#utility.yul\":5729:5749   */\n          sub\n            /* \"#utility.yul\":5725:5726   */\n          0x00\n            /* \"#utility.yul\":5714:5723   */\n          dup4\n            /* \"#utility.yul\":5710:5727   */\n          add\n            /* \"#utility.yul\":5703:5750   */\n          mstore\n            /* \"#utility.yul\":5767:5898   */\n          tag_205\n            /* \"#utility.yul\":5893:5897   */\n          dup2\n            /* \"#utility.yul\":5767:5898   */\n          tag_180\n          jump\t// in\n        tag_205:\n            /* \"#utility.yul\":5759:5898   */\n          swap1\n          pop\n            /* \"#utility.yul\":5486:5905   */\n          swap2\n          swap1\n          pop\n          jump\t// out\n            /* \"#utility.yul\":5911:6330   */\n        tag_88:\n            /* \"#utility.yul\":6077:6081   */\n          0x00\n            /* \"#utility.yul\":6115:6117   */\n          0x20\n            /* \"#utility.yul\":6104:6113   */\n          dup3\n            /* \"#utility.yul\":6100:6118   */\n          add\n            /* \"#utility.yul\":6092:6118   */\n          swap1\n          pop\n            /* \"#utility.yul\":6164:6173   */\n          dup2\n            /* \"#utility.yul\":6158:6162   */\n          dup2\n            /* \"#utility.yul\":6154:6174   */\n          sub\n            /* \"#utility.yul\":6150:6151   */\n          0x00\n            /* \"#utility.yul\":6139:6148   */\n          dup4\n            /* \"#utility.yul\":6135:6152   */\n          add\n            /* \"#utility.yul\":6128:6175   */\n          mstore\n            /* \"#utility.yul\":6192:6323   */\n          tag_207\n            /* \"#utility.yul\":6318:6322   */\n          dup2\n            /* \"#utility.yul\":6192:6323   */\n          tag_185\n          jump\t// in\n        tag_207:\n            /* \"#utility.yul\":6184:6323   */\n          swap1\n          pop\n            /* \"#utility.yul\":5911:6330   */\n          swap2\n          swap1\n          pop\n          jump\t// out\n            /* \"#utility.yul\":6336:6558   */\n        tag_27:\n            /* \"#utility.yul\":6429:6433   */\n          0x00\n            /* \"#utility.yul\":6467:6469   */\n          0x20\n            /* \"#utility.yul\":6456:6465   */\n          dup3\n            /* \"#utility.yul\":6452:6470   */\n          add\n            /* \"#utility.yul\":6444:6470   */\n          swap1\n          pop\n            /* \"#utility.yul\":6480:6551   */\n          tag_209\n            /* \"#utility.yul\":6548:6549   */\n          0x00\n            /* \"#utility.yul\":6537:6546   */\n          dup4\n            /* \"#utility.yul\":6533:6550   */\n          add\n            /* \"#utility.yul\":6524:6530   */\n          dup5\n            /* \"#utility.yul\":6480:6551   */\n          tag_190\n          jump\t// in\n        tag_209:\n            /* \"#utility.yul\":6336:6558   */\n          swap3\n          swap2\n          pop\n          pop\n          jump\t// out\n            /* \"#utility.yul\":6564:6778   */\n        tag_35:\n            /* \"#utility.yul\":6653:6657   */\n          0x00\n            /* \"#utility.yul\":6691:6693   */\n          0x20\n            /* \"#utility.yul\":6680:6689   */\n          dup3\n            /* \"#utility.yul\":6676:6694   */\n          add\n            /* \"#utility.yul\":6668:6694   */\n          swap1\n          pop\n            /* \"#utility.yul\":6704:6771   */\n          tag_211\n            /* \"#utility.yul\":6768:6769   */\n          0x00\n            /* \"#utility.yul\":6757:6766   */\n          dup4\n            /* \"#utility.yul\":6753:6770   */\n          add\n            /* \"#utility.yul\":6744:6750   */\n          dup5\n            /* \"#utility.yul\":6704:6771   */\n          tag_194\n          jump\t// in\n        tag_211:\n            /* \"#utility.yul\":6564:6778   */\n          swap3\n          swap2\n          pop\n          pop\n          jump\t// out\n            /* \"#utility.yul\":6865:6964   */\n        tag_163:\n            /* \"#utility.yul\":6917:6923   */\n          0x00\n            /* \"#utility.yul\":6951:6956   */\n          dup2\n            /* \"#utility.yul\":6945:6957   */\n          mload\n            /* \"#utility.yul\":6935:6957   */\n          swap1\n          pop\n            /* \"#utility.yul\":6865:6964   */\n          swap2\n          swap1\n          pop\n          jump\t// out\n            /* \"#utility.yul\":6970:7139   */\n        tag_165:\n            /* \"#utility.yul\":7054:7065   */\n          0x00\n            /* \"#utility.yul\":7088:7094   */\n          dup3\n            /* \"#utility.yul\":7083:7086   */\n          dup3\n            /* \"#utility.yul\":7076:7095   */\n          mstore\n            /* \"#utility.yul\":7128:7132   */\n          0x20\n            /* \"#utility.yul\":7123:7126   */\n          dup3\n            /* \"#utility.yul\":7119:7133   */\n          add\n            /* \"#utility.yul\":7104:7133   */\n          swap1\n          pop\n            /* \"#utility.yul\":6970:7139   */\n          swap3\n          swap2\n          pop\n          pop\n          jump\t// out\n            /* \"#utility.yul\":7145:7450   */\n        tag_92:\n            /* \"#utility.yul\":7185:7188   */\n          0x00\n            /* \"#utility.yul\":7204:7224   */\n          tag_217\n            /* \"#utility.yul\":7222:7223   */\n          dup3\n            /* \"#utility.yul\":7204:7224   */\n          tag_193\n          jump\t// in\n        tag_217:\n            /* \"#utility.yul\":7199:7224   */\n          swap2\n          pop\n            /* \"#utility.yul\":7238:7258   */\n          tag_218\n            /* \"#utility.yul\":7256:7257   */\n          dup4\n            /* \"#utility.yul\":7238:7258   */\n          tag_193\n          jump\t// in\n        tag_218:\n            /* \"#utility.yul\":7233:7258   */\n          swap3\n          pop\n            /* \"#utility.yul\":7392:7393   */\n          dup3\n            /* \"#utility.yul\":7324:7390   */\n          0xffffffffffffffffffffffffffffffffffffffffffffffffffffffffffffffff\n            /* \"#utility.yul\":7320:7394   */\n          sub\n            /* \"#utility.yul\":7317:7318   */\n          dup3\n            /* \"#utility.yul\":7314:7395   */\n          gt\n            /* \"#utility.yul\":7311:7418   */\n          iszero\n          tag_219\n          jumpi\n            /* \"#utility.yul\":7398:7416   */\n          tag_220\n          tag_221\n          jump\t// in\n        tag_220:\n            /* \"#utility.yul\":7311:7418   */\n        tag_219:\n            /* \"#utility.yul\":7442:7443   */\n          dup3\n            /* \"#utility.yul\":7439:7440   */\n          dup3\n            /* \"#utility.yul\":7435:7444   */\n          add\n            /* \"#utility.yul\":7428:7444   */\n          swap1\n          pop\n            /* \"#utility.yul\":7145:7450   */\n          swap3\n          swap2\n          pop\n          pop\n          jump\t// out\n            /* \"#utility.yul\":7456:7647   */\n        tag_127:\n            /* \"#utility.yul\":7496:7500   */\n          0x00\n            /* \"#utility.yul\":7516:7536   */\n          tag_223\n            /* \"#utility.yul\":7534:7535   */\n          dup3\n            /* \"#utility.yul\":7516:7536   */\n          tag_193\n          jump\t// in\n        tag_223:\n            /* \"#utility.yul\":7511:7536   */\n          swap2\n          pop\n            /* \"#utility.yul\":7550:7570   */\n          tag_224\n            /* \"#utility.yul\":7568:7569   */\n          dup4\n            /* \"#utility.yul\":7550:7570   */\n          tag_193\n          jump\t// in\n        tag_224:\n            /* \"#utility.yul\":7545:7570   */\n          swap3\n          pop\n            /* \"#utility.yul\":7589:7590   */\n          dup3\n            /* \"#utility.yul\":7586:7587   */\n          dup3\n            /* \"#utility.yul\":7583:7591   */\n          lt\n            /* \"#utility.yul\":7580:7614   */\n          iszero\n          tag_225\n          jumpi\n            /* \"#utility.yul\":7594:7612   */\n          tag_226\n          tag_221\n          jump\t// in\n        tag_226:\n            /* \"#utility.yul\":7580:7614   */\n        tag_225:\n            /* \"#utility.yul\":7639:7640   */\n          dup3\n            /* \"#utility.yul\":7636:7637   */\n          dup3\n            /* \"#utility.yul\":7632:7641   */\n          sub\n            /* \"#utility.yul\":7624:7641   */\n          swap1\n          pop\n            /* \"#utility.yul\":7456:7647   */\n          swap3\n          swap2\n          pop\n          pop\n          jump\t// out\n            /* \"#utility.yul\":7653:7749   */\n        tag_227:\n            /* \"#utility.yul\":7690:7697   */\n          0x00\n            /* \"#utility.yul\":7719:7743   */\n          tag_229\n            /* \"#utility.yul\":7737:7742   */\n          dup3\n            /* \"#utility.yul\":7719:7743   */\n          tag_230\n          jump\t// in\n        tag_229:\n            /* \"#utility.yul\":7708:7743   */\n          swap1\n          pop\n            /* \"#utility.yul\":7653:7749   */\n          swap2\n          swap1\n          pop\n          jump\t// out\n            /* \"#utility.yul\":7755:7881   */\n        tag_230:\n            /* \"#utility.yul\":7792:7799   */\n          0x00\n            /* \"#utility.yul\":7832:7874   */\n          0xffffffffffffffffffffffffffffffffffffffff\n            /* \"#utility.yul\":7825:7830   */\n          dup3\n            /* \"#utility.yul\":7821:7875   */\n          and\n            /* \"#utility.yul\":7810:7875   */\n          swap1\n          pop\n            /* \"#utility.yul\":7755:7881   */\n          swap2\n          swap1\n          pop\n          jump\t// out\n            /* \"#utility.yul\":7887:7964   */\n        tag_193:\n            /* \"#utility.yul\":7924:7931   */\n          0x00\n            /* \"#utility.yul\":7953:7958   */\n          dup2\n            /* \"#utility.yul\":7942:7958   */\n          swap1\n          pop\n            /* \"#utility.yul\":7887:7964   */\n          swap2\n          swap1\n          pop\n          jump\t// out\n            /* \"#utility.yul\":7970:8056   */\n        tag_197:\n            /* \"#utility.yul\":8005:8012   */\n          0x00\n            /* \"#utility.yul\":8045:8049   */\n          0xff\n            /* \"#utility.yul\":8038:8043   */\n          dup3\n            /* \"#utility.yul\":8034:8050   */\n          and\n            /* \"#utility.yul\":8023:8050   */\n          swap1\n          pop\n            /* \"#utility.yul\":7970:8056   */\n          swap2\n          swap1\n          pop\n          jump\t// out\n            /* \"#utility.yul\":8062:8369   */\n        tag_167:\n            /* \"#utility.yul\":8130:8131   */\n          0x00\n            /* \"#utility.yul\":8140:8253   */\n        tag_235:\n            /* \"#utility.yul\":8154:8160   */\n          dup4\n            /* \"#utility.yul\":8151:8152   */\n          dup2\n            /* \"#utility.yul\":8148:8161   */\n          lt\n            /* \"#utility.yul\":8140:8253   */\n          iszero\n          tag_237\n          jumpi\n            /* \"#utility.yul\":8239:8240   */\n          dup1\n            /* \"#utility.yul\":8234:8237   */\n          dup3\n            /* \"#utility.yul\":8230:8241   */\n          add\n            /* \"#utility.yul\":8224:8242   */\n          mload\n            /* \"#utility.yul\":8220:8221   */\n          dup2\n            /* \"#utility.yul\":8215:8218   */\n          dup5\n            /* \"#utility.yul\":8211:8222   */\n          add\n            /* \"#utility.yul\":8204:8243   */\n          mstore\n            /* \"#utility.yul\":8176:8178   */\n          0x20\n            /* \"#utility.yul\":8173:8174   */\n          dup2\n            /* \"#utility.yul\":8169:8179   */\n          add\n            /* \"#utility.yul\":8164:8179   */\n          swap1\n          pop\n            /* \"#utility.yul\":8140:8253   */\n          jump(tag_235)\n        tag_237:\n            /* \"#utility.yul\":8271:8277   */\n          dup4\n            /* \"#utility.yul\":8268:8269   */\n          dup2\n            /* \"#utility.yul\":8265:8278   */\n          gt\n            /* \"#utility.yul\":8262:8363   */\n          iszero\n          tag_238\n          jumpi\n            /* \"#utility.yul\":8351:8352   */\n          0x00\n            /* \"#utility.yul\":8342:8348   */\n          dup5\n            /* \"#utility.yul\":8337:8340   */\n          dup5\n            /* \"#utility.yul\":8333:8349   */\n          add\n            /* \"#utility.yul\":8326:8353   */\n          mstore\n            /* \"#utility.yul\":8262:8363   */\n        tag_238:\n            /* \"#utility.yul\":8111:8369   */\n          pop\n            /* \"#utility.yul\":8062:8369   */\n          pop\n          pop\n          pop\n          jump\t// out\n            /* \"#utility.yul\":8375:8695   */\n        tag_62:\n            /* \"#utility.yul\":8419:8425   */\n          0x00\n            /* \"#utility.yul\":8456:8457   */\n          0x02\n            /* \"#utility.yul\":8450:8454   */\n          dup3\n            /* \"#utility.yul\":8446:8458   */\n          div\n            /* \"#utility.yul\":8436:8458   */\n          swap1\n          pop\n            /* \"#utility.yul\":8503:8504   */\n          0x01\n            /* \"#utility.yul\":8497:8501   */\n          dup3\n            /* \"#utility.yul\":8493:8505   */\n          and\n            /* \"#utility.yul\":8524:8542   */\n          dup1\n            /* \"#utility.yul\":8514:8595   */\n          tag_240\n          jumpi\n            /* \"#utility.yul\":8580:8584   */\n          0x7f\n            /* \"#utility.yul\":8572:8578   */\n          dup3\n            /* \"#utility.yul\":8568:8585   */\n          and\n            /* \"#utility.yul\":8558:8585   */\n          swap2\n          pop\n            /* \"#utility.yul\":8514:8595   */\n        tag_240:\n            /* \"#utility.yul\":8642:8644   */\n          0x20\n            /* \"#utility.yul\":8634:8640   */\n          dup3\n            /* \"#utility.yul\":8631:8645   */\n          lt\n            /* \"#utility.yul\":8611:8629   */\n          dup2\n            /* \"#utility.yul\":8608:8646   */\n          eq\n            /* \"#utility.yul\":8605:8689   */\n          iszero\n          tag_241\n          jumpi\n            /* \"#utility.yul\":8661:8679   */\n          tag_242\n          tag_243\n          jump\t// in\n        tag_242:\n            /* \"#utility.yul\":8605:8689   */\n        tag_241:\n            /* \"#utility.yul\":8426:8695   */\n          pop\n            /* \"#utility.yul\":8375:8695   */\n          swap2\n          swap1\n          pop\n          jump\t// out\n            /* \"#utility.yul\":8701:8881   */\n        tag_112:\n            /* \"#utility.yul\":8749:8826   */\n          0x4e487b7100000000000000000000000000000000000000000000000000000000\n            /* \"#utility.yul\":8746:8747   */\n          0x00\n            /* \"#utility.yul\":8739:8827   */\n          mstore\n            /* \"#utility.yul\":8846:8850   */\n          0x01\n            /* \"#utility.yul\":8843:8844   */\n          0x04\n            /* \"#utility.yul\":8836:8851   */\n          mstore\n            /* \"#utility.yul\":8870:8874   */\n          0x24\n            /* \"#utility.yul\":8867:8868   */\n          0x00\n            /* \"#utility.yul\":8860:8875   */\n          revert\n            /* \"#utility.yul\":8887:9067   */\n        tag_221:\n            /* \"#utility.yul\":8935:9012   */\n          0x4e487b7100000000000000000000000000000000000000000000000000000000\n            /* \"#utility.yul\":8932:8933   */\n          0x00\n            /* \"#utility.yul\":8925:9013   */\n          mstore\n            /* \"#utility.yul\":9032:9036   */\n          0x11\n            /* \"#utility.yul\":9029:9030   */\n          0x04\n            /* \"#utility.yul\":9022:9037   */\n          mstore\n            /* \"#utility.yul\":9056:9060   */\n          0x24\n            /* \"#utility.yul\":9053:9054   */\n          0x00\n            /* \"#utility.yul\":9046:9061   */\n          revert\n            /* \"#utility.yul\":9073:9253   */\n        tag_243:\n            /* \"#utility.yul\":9121:9198   */\n          0x4e487b7100000000000000000000000000000000000000000000000000000000\n            /* \"#utility.yul\":9118:9119   */\n          0x00\n            /* \"#utility.yul\":9111:9199   */\n          mstore\n            /* \"#utility.yul\":9218:9222   */\n          0x22\n            /* \"#utility.yul\":9215:9216   */\n          0x04\n            /* \"#utility.yul\":9208:9223   */\n          mstore\n            /* \"#utility.yul\":9242:9246   */\n          0x24\n            /* \"#utility.yul\":9239:9240   */\n          0x00\n            /* \"#utility.yul\":9232:9247   */\n          revert\n            /* \"#utility.yul\":9382:9499   */\n        tag_142:\n            /* \"#utility.yul\":9491:9492   */\n          0x00\n            /* \"#utility.yul\":9488:9489   */\n          dup1\n            /* \"#utility.yul\":9481:9493   */\n          revert\n            /* \"#utility.yul\":9505:9607   */\n        tag_169:\n            /* \"#utility.yul\":9546:9552   */\n          0x00\n            /* \"#utility.yul\":9597:9599   */\n          0x1f\n            /* \"#utility.yul\":9593:9600   */\n          not\n            /* \"#utility.yul\":9588:9590   */\n          0x1f\n            /* \"#utility.yul\":9581:9586   */\n          dup4\n            /* \"#utility.yul\":9577:9591   */\n          add\n            /* \"#utility.yul\":9573:9601   */\n          and\n            /* \"#utility.yul\":9563:9601   */\n          swap1\n          pop\n            /* \"#utility.yul\":9505:9607   */\n          swap2\n          swap1\n          pop\n          jump\t// out\n            /* \"#utility.yul\":9613:9779   */\n        tag_174:\n            /* \"#utility.yul\":9753:9771   */\n          0x42616c616e6365203c20616d6f756e7400000000000000000000000000000000\n            /* \"#utility.yul\":9749:9750   */\n          0x00\n            /* \"#utility.yul\":9741:9747   */\n          dup3\n            /* \"#utility.yul\":9737:9751   */\n          add\n            /* \"#utility.yul\":9730:9772   */\n          mstore\n            /* \"#utility.yul\":9613:9779   */\n          pop\n          jump\t// out\n            /* \"#utility.yul\":9785:9946   */\n        tag_179:\n            /* \"#utility.yul\":9925:9938   */\n          0x416d6f756e74203c3d2030000000000000000000000000000000000000000000\n            /* \"#utility.yul\":9921:9922   */\n          0x00\n            /* \"#utility.yul\":9913:9919   */\n          dup3\n            /* \"#utility.yul\":9909:9923   */\n          add\n            /* \"#utility.yul\":9902:9939   */\n          mstore\n            /* \"#utility.yul\":9785:9946   */\n          pop\n          jump\t// out\n            /* \"#utility.yul\":9952:10116   */\n        tag_184:\n            /* \"#utility.yul\":10092:10108   */\n          0x446f6e277420616c6c6f7765642e000000000000000000000000000000000000\n            /* \"#utility.yul\":10088:10089   */\n          0x00\n            /* \"#utility.yul\":10080:10086   */\n          dup3\n            /* \"#utility.yul\":10076:10090   */\n          add\n            /* \"#utility.yul\":10069:10109   */\n          mstore\n            /* \"#utility.yul\":9952:10116   */\n          pop\n          jump\t// out\n            /* \"#utility.yul\":10122:10303   */\n        tag_189:\n            /* \"#utility.yul\":10262:10295   */\n          0x45524332303a206d696e7420746f20746865207a65726f206164647265737300\n            /* \"#utility.yul\":10258:10259   */\n          0x00\n            /* \"#utility.yul\":10250:10256   */\n          dup3\n            /* \"#utility.yul\":10246:10260   */\n          add\n            /* \"#utility.yul\":10239:10296   */\n          mstore\n            /* \"#utility.yul\":10122:10303   */\n          pop\n          jump\t// out\n            /* \"#utility.yul\":10309:10431   */\n        tag_134:\n            /* \"#utility.yul\":10382:10406   */\n          tag_256\n            /* \"#utility.yul\":10400:10405   */\n          dup2\n            /* \"#utility.yul\":10382:10406   */\n          tag_227\n          jump\t// in\n        tag_256:\n            /* \"#utility.yul\":10375:10380   */\n          dup2\n            /* \"#utility.yul\":10372:10407   */\n          eq\n            /* \"#utility.yul\":10362:10425   */\n          tag_257\n          jumpi\n            /* \"#utility.yul\":10421:10422   */\n          0x00\n            /* \"#utility.yul\":10418:10419   */\n          dup1\n            /* \"#utility.yul\":10411:10423   */\n          revert\n            /* \"#utility.yul\":10362:10425   */\n        tag_257:\n            /* \"#utility.yul\":10309:10431   */\n          pop\n          jump\t// out\n            /* \"#utility.yul\":10437:10559   */\n        tag_138:\n            /* \"#utility.yul\":10510:10534   */\n          tag_259\n            /* \"#utility.yul\":10528:10533   */\n          dup2\n            /* \"#utility.yul\":10510:10534   */\n          tag_193\n          jump\t// in\n        tag_259:\n            /* \"#utility.yul\":10503:10508   */\n          dup2\n            /* \"#utility.yul\":10500:10535   */\n          eq\n            /* \"#utility.yul\":10490:10553   */\n          tag_260\n          jumpi\n            /* \"#utility.yul\":10549:10550   */\n          0x00\n            /* \"#utility.yul\":10546:10547   */\n          dup1\n            /* \"#utility.yul\":10539:10551   */\n          revert\n            /* \"#utility.yul\":10490:10553   */\n        tag_260:\n            /* \"#utility.yul\":10437:10559   */\n          pop\n          jump\t// out\n\n        auxdata: 0xa264697066735822122082411dbe6f3ae499865557ce42c20ee33a03ccf641e101aacdf51194efe9274364736f6c63430008070033\n    }\n}\n",
				"bytecode": {
					"linkReferences": {},
					"object": "60806040526040516200001290620000e9565b604051809103906000f0801580156200002f573d6000803e3d6000fd5b50600560006101000a81548173ffffffffffffffffffffffffffffffffffffffff021916908373ffffffffffffffffffffffffffffffffffffffff1602179055503480156200007d57600080fd5b5033600460006101000a81548173ffffffffffffffffffffffffffffffffffffffff021916908373ffffffffffffffffffffffffffffffffffffffff16021790555063625f140a60008190555062069780600054620000dd9190620000f7565b6001819055506200018d565b6115b6806200170b83390190565b6000620001048262000154565b9150620001118362000154565b9250827fffffffffffffffffffffffffffffffffffffffffffffffffffffffffffffffff038211156200014957620001486200015e565b5b828201905092915050565b6000819050919050565b7f4e487b7100000000000000000000000000000000000000000000000000000000600052601160045260246000fd5b61156e806200019d6000396000f3fe608060405234801561001057600080fd5b506004361061007d5760003560e01c80636cea0e461161005b5780636cea0e46146100ee5780636dd7d8ea1461010a5780638203373a14610126578063c4e41b22146101425761007d565b806321214986146100825780634041ef54146100a2578063633fff16146100d2575b600080fd5b61008a610160565b6040516100999392919061114c565b60405180910390f35b6100bc60048036038101906100b79190610e1e565b6102d5565b6040516100c99190611131565b60405180910390f35b6100ec60048036038101906100e79190610e94565b610389565b005b61010860048036038101906101039190610e1e565b610479565b005b610124600480360381019061011f9190610e1e565b61050c565b005b610140600480360381019061013b9190610e4b565b61085f565b005b61014a610ae0565b6040516101579190611131565b60405180910390f35b600080600080600560009054906101000a900473ffffffffffffffffffffffffffffffffffffffff1673ffffffffffffffffffffffffffffffffffffffff166370a08231336040518263ffffffff1660e01b81526004016101c19190611024565b60206040518083038186803b1580156101d957600080fd5b505afa1580156101ed573d6000803e3d6000fd5b505050506040513d601f19601f820116820180604052508101906102119190610f0c565b9050600060019050818182600560009054906101000a900473ffffffffffffffffffffffffffffffffffffffff1673ffffffffffffffffffffffffffffffffffffffff166370a08231336040518263ffffffff1660e01b81526004016102779190611024565b60206040518083038186803b15801561028f57600080fd5b505afa1580156102a3573d6000803e3d6000fd5b505050506040513d601f19601f820116820180604052508101906102c79190610f0c565b149450945094505050909192565b6000600560009054906101000a900473ffffffffffffffffffffffffffffffffffffffff1673ffffffffffffffffffffffffffffffffffffffff166370a08231836040518263ffffffff1660e01b81526004016103329190611024565b60206040518083038186803b15801561034a57600080fd5b505afa15801561035e573d6000803e3d6000fd5b505050506040513d601f19601f820116820180604052508101906103829190610f0c565b9050919050565b80518251146103cd576040517f08c379a00000000000000000000000000000000000000000000000000000000081526004016103c490611091565b60405180910390fd5b60005b8251811015610474578181815181106103ec576103eb6113b5565b5b60200260200101516003600085848151811061040b5761040a6113b5565b5b602002602001015173ffffffffffffffffffffffffffffffffffffffff1673ffffffffffffffffffffffffffffffffffffffff1681526020019081526020016000209080519060200190610460929190610b87565b50808061046c9061130e565b9150506103d0565b505050565b600560009054906101000a900473ffffffffffffffffffffffffffffffffffffffff1673ffffffffffffffffffffffffffffffffffffffff166340c10f198260016040518363ffffffff1660e01b81526004016104d792919061103f565b600060405180830381600087803b1580156104f157600080fd5b505af1158015610505573d6000803e3d6000fd5b5050505050565b600154421115610551576040517f08c379a0000000000000000000000000000000000000000000000000000000008152600401610548906110b1565b60405180910390fd5b6000600560009054906101000a900473ffffffffffffffffffffffffffffffffffffffff1673ffffffffffffffffffffffffffffffffffffffff166370a08231336040518263ffffffff1660e01b81526004016105ae9190611024565b60206040518083038186803b1580156105c657600080fd5b505afa1580156105da573d6000803e3d6000fd5b505050506040513d601f19601f820116820180604052508101906105fe9190610f0c565b1161063e576040517f08c379a000000000000000000000000000000000000000000000000000000000815260040161063590611111565b60405180910390fd5b600260003373ffffffffffffffffffffffffffffffffffffffff1673ffffffffffffffffffffffffffffffffffffffff16815260200190815260200160002060009054906101000a900460ff16156106cb576040517f08c379a00000000000000000000000000000000000000000000000000000000081526004016106c2906110f1565b60405180910390fd5b600560009054906101000a900473ffffffffffffffffffffffffffffffffffffffff1673ffffffffffffffffffffffffffffffffffffffff1663a9059cbb82600560009054906101000a900473ffffffffffffffffffffffffffffffffffffffff1673ffffffffffffffffffffffffffffffffffffffff166370a08231336040518263ffffffff1660e01b81526004016107659190611024565b60206040518083038186803b15801561077d57600080fd5b505afa158015610791573d6000803e3d6000fd5b505050506040513d601f19601f820116820180604052508101906107b59190610f0c565b6040518363ffffffff1660e01b81526004016107d2929190611068565b600060405180830381600087803b1580156107ec57600080fd5b505af1158015610800573d6000803e3d6000fd5b505050506001600260003373ffffffffffffffffffffffffffffffffffffffff1673ffffffffffffffffffffffffffffffffffffffff16815260200190815260200160002060006101000a81548160ff02191690831515021790555050565b600460009054906101000a900473ffffffffffffffffffffffffffffffffffffffff1673ffffffffffffffffffffffffffffffffffffffff163373ffffffffffffffffffffffffffffffffffffffff16146108ef576040517f08c379a00000000000000000000000000000000000000000000000000000000081526004016108e6906110d1565b60405180910390fd5b60005b8151811015610a2a57600060026000848481518110610914576109136113b5565b5b602002602001015173ffffffffffffffffffffffffffffffffffffffff1673ffffffffffffffffffffffffffffffffffffffff16815260200190815260200160002060006101000a81548160ff021916908315150217905550600560009054906101000a900473ffffffffffffffffffffffffffffffffffffffff1673ffffffffffffffffffffffffffffffffffffffff166340c10f198383815181106109be576109bd6113b5565b5b602002602001015160016040518363ffffffff1660e01b81526004016109e592919061103f565b600060405180830381600087803b1580156109ff57600080fd5b505af1158015610a13573d6000803e3d6000fd5b505050508080610a229061130e565b9150506108f2565b50600560009054906101000a900473ffffffffffffffffffffffffffffffffffffffff1673ffffffffffffffffffffffffffffffffffffffff166340c10f19600460009054906101000a900473ffffffffffffffffffffffffffffffffffffffff1660016040518363ffffffff1660e01b8152600401610aab92919061103f565b600060405180830381600087803b158015610ac557600080fd5b505af1158015610ad9573d6000803e3d6000fd5b5050505050565b6000600560009054906101000a900473ffffffffffffffffffffffffffffffffffffffff1673ffffffffffffffffffffffffffffffffffffffff1663c4e41b226040518163ffffffff1660e01b815260040160206040518083038186803b158015610b4a57600080fd5b505afa158015610b5e573d6000803e3d6000fd5b505050506040513d601f19601f82011682018060405250810190610b829190610f0c565b905090565b828054610b93906112ab565b90600052602060002090601f016020900481019282610bb55760008555610bfc565b82601f10610bce57805160ff1916838001178555610bfc565b82800160010185558215610bfc579182015b82811115610bfb578251825591602001919060010190610be0565b5b509050610c099190610c0d565b5090565b5b80821115610c26576000816000905550600101610c0e565b5090565b6000610c3d610c38846111a8565b611183565b90508083825260208201905082856020860282011115610c6057610c5f611418565b5b60005b85811015610c905781610c768882610d6a565b845260208401935060208301925050600181019050610c63565b5050509392505050565b6000610cad610ca8846111d4565b611183565b90508083825260208201905082856020860282011115610cd057610ccf611418565b5b60005b85811015610d1e57813567ffffffffffffffff811115610cf657610cf5611413565b5b808601610d038982610ddb565b85526020850194506020840193505050600181019050610cd3565b5050509392505050565b6000610d3b610d3684611200565b611183565b905082815260208101848484011115610d5757610d5661141d565b5b610d6284828561129c565b509392505050565b600081359050610d798161150a565b92915050565b600082601f830112610d9457610d93611413565b5b8135610da4848260208601610c2a565b91505092915050565b600082601f830112610dc257610dc1611413565b5b8135610dd2848260208601610c9a565b91505092915050565b600082601f830112610df057610def611413565b5b8135610e00848260208601610d28565b91505092915050565b600081519050610e1881611521565b92915050565b600060208284031215610e3457610e33611427565b5b6000610e4284828501610d6a565b91505092915050565b600060208284031215610e6157610e60611427565b5b600082013567ffffffffffffffff811115610e7f57610e7e611422565b5b610e8b84828501610d7f565b91505092915050565b60008060408385031215610eab57610eaa611427565b5b600083013567ffffffffffffffff811115610ec957610ec8611422565b5b610ed585828601610d7f565b925050602083013567ffffffffffffffff811115610ef657610ef5611422565b5b610f0285828601610dad565b9150509250929050565b600060208284031215610f2257610f21611427565b5b6000610f3084828501610e09565b91505092915050565b610f4281611242565b82525050565b610f5181611254565b82525050565b610f608161128a565b82525050565b6000610f73601483611231565b9150610f7e8261143d565b602082019050919050565b6000610f96600c83611231565b9150610fa182611466565b602082019050919050565b6000610fb9601b83611231565b9150610fc48261148f565b602082019050919050565b6000610fdc601483611231565b9150610fe7826114b8565b602082019050919050565b6000610fff601483611231565b915061100a826114e1565b602082019050919050565b61101e81611280565b82525050565b60006020820190506110396000830184610f39565b92915050565b60006040820190506110546000830185610f39565b6110616020830184610f57565b9392505050565b600060408201905061107d6000830185610f39565b61108a6020830184611015565b9392505050565b600060208201905081810360008301526110aa81610f66565b9050919050565b600060208201905081810360008301526110ca81610f89565b9050919050565b600060208201905081810360008301526110ea81610fac565b9050919050565b6000602082019050818103600083015261110a81610fcf565b9050919050565b6000602082019050818103600083015261112a81610ff2565b9050919050565b60006020820190506111466000830184611015565b92915050565b60006060820190506111616000830186611015565b61116e6020830185611015565b61117b6040830184610f48565b949350505050565b600061118d61119e565b905061119982826112dd565b919050565b6000604051905090565b600067ffffffffffffffff8211156111c3576111c26113e4565b5b602082029050602081019050919050565b600067ffffffffffffffff8211156111ef576111ee6113e4565b5b602082029050602081019050919050565b600067ffffffffffffffff82111561121b5761121a6113e4565b5b6112248261142c565b9050602081019050919050565b600082825260208201905092915050565b600061124d82611260565b9050919050565b60008115159050919050565b600073ffffffffffffffffffffffffffffffffffffffff82169050919050565b6000819050919050565b600061129582611280565b9050919050565b82818337600083830152505050565b600060028204905060018216806112c357607f821691505b602082108114156112d7576112d6611386565b5b50919050565b6112e68261142c565b810181811067ffffffffffffffff82111715611305576113046113e4565b5b80604052505050565b600061131982611280565b91507fffffffffffffffffffffffffffffffffffffffffffffffffffffffffffffffff82141561134c5761134b611357565b5b600182019050919050565b7f4e487b7100000000000000000000000000000000000000000000000000000000600052601160045260246000fd5b7f4e487b7100000000000000000000000000000000000000000000000000000000600052602260045260246000fd5b7f4e487b7100000000000000000000000000000000000000000000000000000000600052603260045260246000fd5b7f4e487b7100000000000000000000000000000000000000000000000000000000600052604160045260246000fd5b600080fd5b600080fd5b600080fd5b600080fd5b600080fd5b6000601f19601f8301169050919050565b7f4c656e67746820697320646966666572656e742e000000000000000000000000600082015250565b7f54696d6520697320656e642e0000000000000000000000000000000000000000600082015250565b7f4974206973206e6f742066726f6d206368616972706572736f6e2e0000000000600082015250565b7f566f74657220616c726561647920766f7465642e000000000000000000000000600082015250565b7f546f6b656e20646f65736e27742065786973742e000000000000000000000000600082015250565b61151381611242565b811461151e57600080fd5b50565b61152a81611280565b811461153557600080fd5b5056fea2646970667358221220cf0dc9d666ae06180e037fe08a23ba7628f2680f61d987434845c8fcc06e086a64736f6c6343000807003360806040523480156200001157600080fd5b506040518060400160405280600d81526020017f452d566f74696e6720636f696e00000000000000000000000000000000000000815250600190805190602001906200005f929190620000d0565b506000600260006101000a81548160ff021916908360ff1602179055506040518060400160405280600381526020017f455643000000000000000000000000000000000000000000000000000000000081525060039080519060200190620000c9929190620000d0565b50620001e5565b828054620000de9062000180565b90600052602060002090601f0160209004810192826200010257600085556200014e565b82601f106200011d57805160ff19168380011785556200014e565b828001600101855582156200014e579182015b828111156200014d57825182559160200191906001019062000130565b5b5090506200015d919062000161565b5090565b5b808211156200017c57600081600090555060010162000162565b5090565b600060028204905060018216806200019957607f821691505b60208210811415620001b057620001af620001b6565b5b50919050565b7f4e487b7100000000000000000000000000000000000000000000000000000000600052602260045260246000fd5b6113c180620001f56000396000f3fe608060405234801561001057600080fd5b50600436106100b45760003560e01c806354fd4d501161007157806354fd4d501461016757806370a082311461018557806395d89b41146101b5578063a9059cbb146101d3578063c4e41b22146101ef578063dd62ed3e1461020d576100b4565b806306fdde03146100b9578063095ea7b3146100d757806318160ddd146100f357806323b872dd14610111578063313ce5671461012d57806340c10f191461014b575b600080fd5b6100c161023d565b6040516100ce9190610fea565b60405180910390f35b6100f160048036038101906100ec9190610ec7565b6102cb565b005b6100fb6103b5565b604051610108919061108c565b60405180910390f35b61012b60048036038101906101269190610e74565b6103bb565b005b6101356107e2565b60405161014291906110a7565b60405180910390f35b61016560048036038101906101609190610ec7565b6107f5565b005b61016f610955565b60405161017c9190610fea565b60405180910390f35b61019f600480360381019061019a9190610e07565b6109e3565b6040516101ac919061108c565b60405180910390f35b6101bd610a2c565b6040516101ca9190610fea565b60405180910390f35b6101ed60048036038101906101e89190610ec7565b610aba565b005b6101f7610cf2565b604051610204919061108c565b60405180910390f35b61022760048036038101906102229190610e34565b610cfb565b604051610234919061108c565b60405180910390f35b6001805461024a906111e4565b80601f0160208091040260200160405190810160405280929190818152602001828054610276906111e4565b80156102c35780601f10610298576101008083540402835291602001916102c3565b820191906000526020600020905b8154815290600101906020018083116102a657829003601f168201915b505050505081565b80600660003373ffffffffffffffffffffffffffffffffffffffff1673ffffffffffffffffffffffffffffffffffffffff16815260200190815260200160002060008473ffffffffffffffffffffffffffffffffffffffff1673ffffffffffffffffffffffffffffffffffffffff168152602001908152602001600020819055508173ffffffffffffffffffffffffffffffffffffffff163373ffffffffffffffffffffffffffffffffffffffff167f8c5be1e5ebec7d5bd14f71427d1e84f3dd0314c0f7b2291e5b200ac8c7c3b925836040516103a9919061108c565b60405180910390a35050565b60005481565b600081116103fe576040517f08c379a00000000000000000000000000000000000000000000000000000000081526004016103f59061102c565b60405180910390fd5b80600560008573ffffffffffffffffffffffffffffffffffffffff1673ffffffffffffffffffffffffffffffffffffffff168152602001908152602001600020541015610480576040517f08c379a00000000000000000000000000000000000000000000000000000000081526004016104779061100c565b60405180910390fd5b80600660008573ffffffffffffffffffffffffffffffffffffffff1673ffffffffffffffffffffffffffffffffffffffff16815260200190815260200160002060003373ffffffffffffffffffffffffffffffffffffffff1673ffffffffffffffffffffffffffffffffffffffff16815260200190815260200160002054101561053f576040517f08c379a00000000000000000000000000000000000000000000000000000000081526004016105369061104c565b60405180910390fd5b61059181600560008573ffffffffffffffffffffffffffffffffffffffff1673ffffffffffffffffffffffffffffffffffffffff16815260200190815260200160002054610d8290919063ffffffff16565b600560008473ffffffffffffffffffffffffffffffffffffffff1673ffffffffffffffffffffffffffffffffffffffff1681526020019081526020016000208190555061062681600560008673ffffffffffffffffffffffffffffffffffffffff1673ffffffffffffffffffffffffffffffffffffffff16815260200190815260200160002054610daa90919063ffffffff16565b600560008573ffffffffffffffffffffffffffffffffffffffff1673ffffffffffffffffffffffffffffffffffffffff168152602001908152602001600020819055506106f881600660008673ffffffffffffffffffffffffffffffffffffffff1673ffffffffffffffffffffffffffffffffffffffff16815260200190815260200160002060003373ffffffffffffffffffffffffffffffffffffffff1673ffffffffffffffffffffffffffffffffffffffff16815260200190815260200160002054610daa90919063ffffffff16565b600660008573ffffffffffffffffffffffffffffffffffffffff1673ffffffffffffffffffffffffffffffffffffffff16815260200190815260200160002060003373ffffffffffffffffffffffffffffffffffffffff1673ffffffffffffffffffffffffffffffffffffffff168152602001908152602001600020819055508173ffffffffffffffffffffffffffffffffffffffff168373ffffffffffffffffffffffffffffffffffffffff167fddf252ad1be2c89b69c2b068fc378daa952ba7f163c4a11628f55a4df523b3ef836040516107d5919061108c565b60405180910390a3505050565b600260009054906101000a900460ff1681565b600073ffffffffffffffffffffffffffffffffffffffff168273ffffffffffffffffffffffffffffffffffffffff161415610865576040517f08c379a000000000000000000000000000000000000000000000000000000000815260040161085c9061106c565b60405180910390fd5b61087160008383610dd3565b8060008082825461088291906110de565b9250508190555080600560008473ffffffffffffffffffffffffffffffffffffffff1673ffffffffffffffffffffffffffffffffffffffff16815260200190815260200160002060008282546108d891906110de565b925050819055508173ffffffffffffffffffffffffffffffffffffffff16600073ffffffffffffffffffffffffffffffffffffffff167fddf252ad1be2c89b69c2b068fc378daa952ba7f163c4a11628f55a4df523b3ef8360405161093d919061108c565b60405180910390a361095160008383610dd8565b5050565b60048054610962906111e4565b80601f016020809104026020016040519081016040528092919081815260200182805461098e906111e4565b80156109db5780601f106109b0576101008083540402835291602001916109db565b820191906000526020600020905b8154815290600101906020018083116109be57829003601f168201915b505050505081565b6000600560008373ffffffffffffffffffffffffffffffffffffffff1673ffffffffffffffffffffffffffffffffffffffff168152602001908152602001600020549050919050565b60038054610a39906111e4565b80601f0160208091040260200160405190810160405280929190818152602001828054610a65906111e4565b8015610ab25780601f10610a8757610100808354040283529160200191610ab2565b820191906000526020600020905b815481529060010190602001808311610a9557829003601f168201915b505050505081565b6040600481610ac991906110de565b600036905014610adc57610adb611216565b5b60008211610b1f576040517f08c379a0000000000000000000000000000000000000000000000000000000008152600401610b169061102c565b60405180910390fd5b610bb0600560003373ffffffffffffffffffffffffffffffffffffffff1673ffffffffffffffffffffffffffffffffffffffff16815260200190815260200160002054600560003373ffffffffffffffffffffffffffffffffffffffff1673ffffffffffffffffffffffffffffffffffffffff16815260200190815260200160002054610daa90919063ffffffff16565b600560003373ffffffffffffffffffffffffffffffffffffffff1673ffffffffffffffffffffffffffffffffffffffff16815260200190815260200160002081905550610c4582600560008673ffffffffffffffffffffffffffffffffffffffff1673ffffffffffffffffffffffffffffffffffffffff16815260200190815260200160002054610d8290919063ffffffff16565b600560008573ffffffffffffffffffffffffffffffffffffffff1673ffffffffffffffffffffffffffffffffffffffff168152602001908152602001600020819055508273ffffffffffffffffffffffffffffffffffffffff163373ffffffffffffffffffffffffffffffffffffffff167fddf252ad1be2c89b69c2b068fc378daa952ba7f163c4a11628f55a4df523b3ef84604051610ce5919061108c565b60405180910390a3505050565b60008054905090565b6000600660008373ffffffffffffffffffffffffffffffffffffffff1673ffffffffffffffffffffffffffffffffffffffff16815260200190815260200160002060008473ffffffffffffffffffffffffffffffffffffffff1673ffffffffffffffffffffffffffffffffffffffff16815260200190815260200160002054905092915050565b6000808284610d9191906110de565b905083811015610da057600080fd5b8091505092915050565b600082821115610db957600080fd5b60008284610dc79190611134565b90508091505092915050565b505050565b505050565b600081359050610dec8161135d565b92915050565b600081359050610e0181611374565b92915050565b600060208284031215610e1d57610e1c6112a3565b5b6000610e2b84828501610ddd565b91505092915050565b60008060408385031215610e4b57610e4a6112a3565b5b6000610e5985828601610ddd565b9250506020610e6a85828601610ddd565b9150509250929050565b600080600060608486031215610e8d57610e8c6112a3565b5b6000610e9b86828701610ddd565b9350506020610eac86828701610ddd565b9250506040610ebd86828701610df2565b9150509250925092565b60008060408385031215610ede57610edd6112a3565b5b6000610eec85828601610ddd565b9250506020610efd85828601610df2565b9150509250929050565b6000610f12826110c2565b610f1c81856110cd565b9350610f2c8185602086016111b1565b610f35816112a8565b840191505092915050565b6000610f4d6010836110cd565b9150610f58826112b9565b602082019050919050565b6000610f70600b836110cd565b9150610f7b826112e2565b602082019050919050565b6000610f93600e836110cd565b9150610f9e8261130b565b602082019050919050565b6000610fb6601f836110cd565b9150610fc182611334565b602082019050919050565b610fd58161119a565b82525050565b610fe4816111a4565b82525050565b600060208201905081810360008301526110048184610f07565b905092915050565b6000602082019050818103600083015261102581610f40565b9050919050565b6000602082019050818103600083015261104581610f63565b9050919050565b6000602082019050818103600083015261106581610f86565b9050919050565b6000602082019050818103600083015261108581610fa9565b9050919050565b60006020820190506110a16000830184610fcc565b92915050565b60006020820190506110bc6000830184610fdb565b92915050565b600081519050919050565b600082825260208201905092915050565b60006110e98261119a565b91506110f48361119a565b9250827fffffffffffffffffffffffffffffffffffffffffffffffffffffffffffffffff0382111561112957611128611245565b5b828201905092915050565b600061113f8261119a565b915061114a8361119a565b92508282101561115d5761115c611245565b5b828203905092915050565b60006111738261117a565b9050919050565b600073ffffffffffffffffffffffffffffffffffffffff82169050919050565b6000819050919050565b600060ff82169050919050565b60005b838110156111cf5780820151818401526020810190506111b4565b838111156111de576000848401525b50505050565b600060028204905060018216806111fc57607f821691505b602082108114156112105761120f611274565b5b50919050565b7f4e487b7100000000000000000000000000000000000000000000000000000000600052600160045260246000fd5b7f4e487b7100000000000000000000000000000000000000000000000000000000600052601160045260246000fd5b7f4e487b7100000000000000000000000000000000000000000000000000000000600052602260045260246000fd5b600080fd5b6000601f19601f8301169050919050565b7f42616c616e6365203c20616d6f756e7400000000000000000000000000000000600082015250565b7f416d6f756e74203c3d2030000000000000000000000000000000000000000000600082015250565b7f446f6e277420616c6c6f7765642e000000000000000000000000000000000000600082015250565b7f45524332303a206d696e7420746f20746865207a65726f206164647265737300600082015250565b61136681611168565b811461137157600080fd5b50565b61137d8161119a565b811461138857600080fd5b5056fea264697066735822122082411dbe6f3ae499865557ce42c20ee33a03ccf641e101aacdf51194efe9274364736f6c63430008070033",
					"opcodes": "PUSH1 0x80 PUSH1 0x40 MSTORE PUSH1 0x40 MLOAD PUSH3 0x12 SWAP1 PUSH3 0xE9 JUMP JUMPDEST PUSH1 0x40 MLOAD DUP1 SWAP2 SUB SWAP1 PUSH1 0x0 CREATE DUP1 ISZERO DUP1 ISZERO PUSH3 0x2F JUMPI RETURNDATASIZE PUSH1 0x0 DUP1 RETURNDATACOPY RETURNDATASIZE PUSH1 0x0 REVERT JUMPDEST POP PUSH1 0x5 PUSH1 0x0 PUSH2 0x100 EXP DUP2 SLOAD DUP2 PUSH20 0xFFFFFFFFFFFFFFFFFFFFFFFFFFFFFFFFFFFFFFFF MUL NOT AND SWAP1 DUP4 PUSH20 0xFFFFFFFFFFFFFFFFFFFFFFFFFFFFFFFFFFFFFFFF AND MUL OR SWAP1 SSTORE POP CALLVALUE DUP1 ISZERO PUSH3 0x7D JUMPI PUSH1 0x0 DUP1 REVERT JUMPDEST POP CALLER PUSH1 0x4 PUSH1 0x0 PUSH2 0x100 EXP DUP2 SLOAD DUP2 PUSH20 0xFFFFFFFFFFFFFFFFFFFFFFFFFFFFFFFFFFFFFFFF MUL NOT AND SWAP1 DUP4 PUSH20 0xFFFFFFFFFFFFFFFFFFFFFFFFFFFFFFFFFFFFFFFF AND MUL OR SWAP1 SSTORE POP PUSH4 0x625F140A PUSH1 0x0 DUP2 SWAP1 SSTORE POP PUSH3 0x69780 PUSH1 0x0 SLOAD PUSH3 0xDD SWAP2 SWAP1 PUSH3 0xF7 JUMP JUMPDEST PUSH1 0x1 DUP2 SWAP1 SSTORE POP PUSH3 0x18D JUMP JUMPDEST PUSH2 0x15B6 DUP1 PUSH3 0x170B DUP4 CODECOPY ADD SWAP1 JUMP JUMPDEST PUSH1 0x0 PUSH3 0x104 DUP3 PUSH3 0x154 JUMP JUMPDEST SWAP2 POP PUSH3 0x111 DUP4 PUSH3 0x154 JUMP JUMPDEST SWAP3 POP DUP3 PUSH32 0xFFFFFFFFFFFFFFFFFFFFFFFFFFFFFFFFFFFFFFFFFFFFFFFFFFFFFFFFFFFFFFFF SUB DUP3 GT ISZERO PUSH3 0x149 JUMPI PUSH3 0x148 PUSH3 0x15E JUMP JUMPDEST JUMPDEST DUP3 DUP3 ADD SWAP1 POP SWAP3 SWAP2 POP POP JUMP JUMPDEST PUSH1 0x0 DUP2 SWAP1 POP SWAP2 SWAP1 POP JUMP JUMPDEST PUSH32 0x4E487B7100000000000000000000000000000000000000000000000000000000 PUSH1 0x0 MSTORE PUSH1 0x11 PUSH1 0x4 MSTORE PUSH1 0x24 PUSH1 0x0 REVERT JUMPDEST PUSH2 0x156E DUP1 PUSH3 0x19D PUSH1 0x0 CODECOPY PUSH1 0x0 RETURN INVALID PUSH1 0x80 PUSH1 0x40 MSTORE CALLVALUE DUP1 ISZERO PUSH2 0x10 JUMPI PUSH1 0x0 DUP1 REVERT JUMPDEST POP PUSH1 0x4 CALLDATASIZE LT PUSH2 0x7D JUMPI PUSH1 0x0 CALLDATALOAD PUSH1 0xE0 SHR DUP1 PUSH4 0x6CEA0E46 GT PUSH2 0x5B JUMPI DUP1 PUSH4 0x6CEA0E46 EQ PUSH2 0xEE JUMPI DUP1 PUSH4 0x6DD7D8EA EQ PUSH2 0x10A JUMPI DUP1 PUSH4 0x8203373A EQ PUSH2 0x126 JUMPI DUP1 PUSH4 0xC4E41B22 EQ PUSH2 0x142 JUMPI PUSH2 0x7D JUMP JUMPDEST DUP1 PUSH4 0x21214986 EQ PUSH2 0x82 JUMPI DUP1 PUSH4 0x4041EF54 EQ PUSH2 0xA2 JUMPI DUP1 PUSH4 0x633FFF16 EQ PUSH2 0xD2 JUMPI JUMPDEST PUSH1 0x0 DUP1 REVERT JUMPDEST PUSH2 0x8A PUSH2 0x160 JUMP JUMPDEST PUSH1 0x40 MLOAD PUSH2 0x99 SWAP4 SWAP3 SWAP2 SWAP1 PUSH2 0x114C JUMP JUMPDEST PUSH1 0x40 MLOAD DUP1 SWAP2 SUB SWAP1 RETURN JUMPDEST PUSH2 0xBC PUSH1 0x4 DUP1 CALLDATASIZE SUB DUP2 ADD SWAP1 PUSH2 0xB7 SWAP2 SWAP1 PUSH2 0xE1E JUMP JUMPDEST PUSH2 0x2D5 JUMP JUMPDEST PUSH1 0x40 MLOAD PUSH2 0xC9 SWAP2 SWAP1 PUSH2 0x1131 JUMP JUMPDEST PUSH1 0x40 MLOAD DUP1 SWAP2 SUB SWAP1 RETURN JUMPDEST PUSH2 0xEC PUSH1 0x4 DUP1 CALLDATASIZE SUB DUP2 ADD SWAP1 PUSH2 0xE7 SWAP2 SWAP1 PUSH2 0xE94 JUMP JUMPDEST PUSH2 0x389 JUMP JUMPDEST STOP JUMPDEST PUSH2 0x108 PUSH1 0x4 DUP1 CALLDATASIZE SUB DUP2 ADD SWAP1 PUSH2 0x103 SWAP2 SWAP1 PUSH2 0xE1E JUMP JUMPDEST PUSH2 0x479 JUMP JUMPDEST STOP JUMPDEST PUSH2 0x124 PUSH1 0x4 DUP1 CALLDATASIZE SUB DUP2 ADD SWAP1 PUSH2 0x11F SWAP2 SWAP1 PUSH2 0xE1E JUMP JUMPDEST PUSH2 0x50C JUMP JUMPDEST STOP JUMPDEST PUSH2 0x140 PUSH1 0x4 DUP1 CALLDATASIZE SUB DUP2 ADD SWAP1 PUSH2 0x13B SWAP2 SWAP1 PUSH2 0xE4B JUMP JUMPDEST PUSH2 0x85F JUMP JUMPDEST STOP JUMPDEST PUSH2 0x14A PUSH2 0xAE0 JUMP JUMPDEST PUSH1 0x40 MLOAD PUSH2 0x157 SWAP2 SWAP1 PUSH2 0x1131 JUMP JUMPDEST PUSH1 0x40 MLOAD DUP1 SWAP2 SUB SWAP1 RETURN JUMPDEST PUSH1 0x0 DUP1 PUSH1 0x0 DUP1 PUSH1 0x5 PUSH1 0x0 SWAP1 SLOAD SWAP1 PUSH2 0x100 EXP SWAP1 DIV PUSH20 0xFFFFFFFFFFFFFFFFFFFFFFFFFFFFFFFFFFFFFFFF AND PUSH20 0xFFFFFFFFFFFFFFFFFFFFFFFFFFFFFFFFFFFFFFFF AND PUSH4 0x70A08231 CALLER PUSH1 0x40 MLOAD DUP3 PUSH4 0xFFFFFFFF AND PUSH1 0xE0 SHL DUP2 MSTORE PUSH1 0x4 ADD PUSH2 0x1C1 SWAP2 SWAP1 PUSH2 0x1024 JUMP JUMPDEST PUSH1 0x20 PUSH1 0x40 MLOAD DUP1 DUP4 SUB DUP2 DUP7 DUP1 EXTCODESIZE ISZERO DUP1 ISZERO PUSH2 0x1D9 JUMPI PUSH1 0x0 DUP1 REVERT JUMPDEST POP GAS STATICCALL ISZERO DUP1 ISZERO PUSH2 0x1ED JUMPI RETURNDATASIZE PUSH1 0x0 DUP1 RETURNDATACOPY RETURNDATASIZE PUSH1 0x0 REVERT JUMPDEST POP POP POP POP PUSH1 0x40 MLOAD RETURNDATASIZE PUSH1 0x1F NOT PUSH1 0x1F DUP3 ADD AND DUP3 ADD DUP1 PUSH1 0x40 MSTORE POP DUP2 ADD SWAP1 PUSH2 0x211 SWAP2 SWAP1 PUSH2 0xF0C JUMP JUMPDEST SWAP1 POP PUSH1 0x0 PUSH1 0x1 SWAP1 POP DUP2 DUP2 DUP3 PUSH1 0x5 PUSH1 0x0 SWAP1 SLOAD SWAP1 PUSH2 0x100 EXP SWAP1 DIV PUSH20 0xFFFFFFFFFFFFFFFFFFFFFFFFFFFFFFFFFFFFFFFF AND PUSH20 0xFFFFFFFFFFFFFFFFFFFFFFFFFFFFFFFFFFFFFFFF AND PUSH4 0x70A08231 CALLER PUSH1 0x40 MLOAD DUP3 PUSH4 0xFFFFFFFF AND PUSH1 0xE0 SHL DUP2 MSTORE PUSH1 0x4 ADD PUSH2 0x277 SWAP2 SWAP1 PUSH2 0x1024 JUMP JUMPDEST PUSH1 0x20 PUSH1 0x40 MLOAD DUP1 DUP4 SUB DUP2 DUP7 DUP1 EXTCODESIZE ISZERO DUP1 ISZERO PUSH2 0x28F JUMPI PUSH1 0x0 DUP1 REVERT JUMPDEST POP GAS STATICCALL ISZERO DUP1 ISZERO PUSH2 0x2A3 JUMPI RETURNDATASIZE PUSH1 0x0 DUP1 RETURNDATACOPY RETURNDATASIZE PUSH1 0x0 REVERT JUMPDEST POP POP POP POP PUSH1 0x40 MLOAD RETURNDATASIZE PUSH1 0x1F NOT PUSH1 0x1F DUP3 ADD AND DUP3 ADD DUP1 PUSH1 0x40 MSTORE POP DUP2 ADD SWAP1 PUSH2 0x2C7 SWAP2 SWAP1 PUSH2 0xF0C JUMP JUMPDEST EQ SWAP5 POP SWAP5 POP SWAP5 POP POP POP SWAP1 SWAP2 SWAP3 JUMP JUMPDEST PUSH1 0x0 PUSH1 0x5 PUSH1 0x0 SWAP1 SLOAD SWAP1 PUSH2 0x100 EXP SWAP1 DIV PUSH20 0xFFFFFFFFFFFFFFFFFFFFFFFFFFFFFFFFFFFFFFFF AND PUSH20 0xFFFFFFFFFFFFFFFFFFFFFFFFFFFFFFFFFFFFFFFF AND PUSH4 0x70A08231 DUP4 PUSH1 0x40 MLOAD DUP3 PUSH4 0xFFFFFFFF AND PUSH1 0xE0 SHL DUP2 MSTORE PUSH1 0x4 ADD PUSH2 0x332 SWAP2 SWAP1 PUSH2 0x1024 JUMP JUMPDEST PUSH1 0x20 PUSH1 0x40 MLOAD DUP1 DUP4 SUB DUP2 DUP7 DUP1 EXTCODESIZE ISZERO DUP1 ISZERO PUSH2 0x34A JUMPI PUSH1 0x0 DUP1 REVERT JUMPDEST POP GAS STATICCALL ISZERO DUP1 ISZERO PUSH2 0x35E JUMPI RETURNDATASIZE PUSH1 0x0 DUP1 RETURNDATACOPY RETURNDATASIZE PUSH1 0x0 REVERT JUMPDEST POP POP POP POP PUSH1 0x40 MLOAD RETURNDATASIZE PUSH1 0x1F NOT PUSH1 0x1F DUP3 ADD AND DUP3 ADD DUP1 PUSH1 0x40 MSTORE POP DUP2 ADD SWAP1 PUSH2 0x382 SWAP2 SWAP1 PUSH2 0xF0C JUMP JUMPDEST SWAP1 POP SWAP2 SWAP1 POP JUMP JUMPDEST DUP1 MLOAD DUP3 MLOAD EQ PUSH2 0x3CD JUMPI PUSH1 0x40 MLOAD PUSH32 0x8C379A000000000000000000000000000000000000000000000000000000000 DUP2 MSTORE PUSH1 0x4 ADD PUSH2 0x3C4 SWAP1 PUSH2 0x1091 JUMP JUMPDEST PUSH1 0x40 MLOAD DUP1 SWAP2 SUB SWAP1 REVERT JUMPDEST PUSH1 0x0 JUMPDEST DUP3 MLOAD DUP2 LT ISZERO PUSH2 0x474 JUMPI DUP2 DUP2 DUP2 MLOAD DUP2 LT PUSH2 0x3EC JUMPI PUSH2 0x3EB PUSH2 0x13B5 JUMP JUMPDEST JUMPDEST PUSH1 0x20 MUL PUSH1 0x20 ADD ADD MLOAD PUSH1 0x3 PUSH1 0x0 DUP6 DUP5 DUP2 MLOAD DUP2 LT PUSH2 0x40B JUMPI PUSH2 0x40A PUSH2 0x13B5 JUMP JUMPDEST JUMPDEST PUSH1 0x20 MUL PUSH1 0x20 ADD ADD MLOAD PUSH20 0xFFFFFFFFFFFFFFFFFFFFFFFFFFFFFFFFFFFFFFFF AND PUSH20 0xFFFFFFFFFFFFFFFFFFFFFFFFFFFFFFFFFFFFFFFF AND DUP2 MSTORE PUSH1 0x20 ADD SWAP1 DUP2 MSTORE PUSH1 0x20 ADD PUSH1 0x0 KECCAK256 SWAP1 DUP1 MLOAD SWAP1 PUSH1 0x20 ADD SWAP1 PUSH2 0x460 SWAP3 SWAP2 SWAP1 PUSH2 0xB87 JUMP JUMPDEST POP DUP1 DUP1 PUSH2 0x46C SWAP1 PUSH2 0x130E JUMP JUMPDEST SWAP2 POP POP PUSH2 0x3D0 JUMP JUMPDEST POP POP POP JUMP JUMPDEST PUSH1 0x5 PUSH1 0x0 SWAP1 SLOAD SWAP1 PUSH2 0x100 EXP SWAP1 DIV PUSH20 0xFFFFFFFFFFFFFFFFFFFFFFFFFFFFFFFFFFFFFFFF AND PUSH20 0xFFFFFFFFFFFFFFFFFFFFFFFFFFFFFFFFFFFFFFFF AND PUSH4 0x40C10F19 DUP3 PUSH1 0x1 PUSH1 0x40 MLOAD DUP4 PUSH4 0xFFFFFFFF AND PUSH1 0xE0 SHL DUP2 MSTORE PUSH1 0x4 ADD PUSH2 0x4D7 SWAP3 SWAP2 SWAP1 PUSH2 0x103F JUMP JUMPDEST PUSH1 0x0 PUSH1 0x40 MLOAD DUP1 DUP4 SUB DUP2 PUSH1 0x0 DUP8 DUP1 EXTCODESIZE ISZERO DUP1 ISZERO PUSH2 0x4F1 JUMPI PUSH1 0x0 DUP1 REVERT JUMPDEST POP GAS CALL ISZERO DUP1 ISZERO PUSH2 0x505 JUMPI RETURNDATASIZE PUSH1 0x0 DUP1 RETURNDATACOPY RETURNDATASIZE PUSH1 0x0 REVERT JUMPDEST POP POP POP POP POP JUMP JUMPDEST PUSH1 0x1 SLOAD TIMESTAMP GT ISZERO PUSH2 0x551 JUMPI PUSH1 0x40 MLOAD PUSH32 0x8C379A000000000000000000000000000000000000000000000000000000000 DUP2 MSTORE PUSH1 0x4 ADD PUSH2 0x548 SWAP1 PUSH2 0x10B1 JUMP JUMPDEST PUSH1 0x40 MLOAD DUP1 SWAP2 SUB SWAP1 REVERT JUMPDEST PUSH1 0x0 PUSH1 0x5 PUSH1 0x0 SWAP1 SLOAD SWAP1 PUSH2 0x100 EXP SWAP1 DIV PUSH20 0xFFFFFFFFFFFFFFFFFFFFFFFFFFFFFFFFFFFFFFFF AND PUSH20 0xFFFFFFFFFFFFFFFFFFFFFFFFFFFFFFFFFFFFFFFF AND PUSH4 0x70A08231 CALLER PUSH1 0x40 MLOAD DUP3 PUSH4 0xFFFFFFFF AND PUSH1 0xE0 SHL DUP2 MSTORE PUSH1 0x4 ADD PUSH2 0x5AE SWAP2 SWAP1 PUSH2 0x1024 JUMP JUMPDEST PUSH1 0x20 PUSH1 0x40 MLOAD DUP1 DUP4 SUB DUP2 DUP7 DUP1 EXTCODESIZE ISZERO DUP1 ISZERO PUSH2 0x5C6 JUMPI PUSH1 0x0 DUP1 REVERT JUMPDEST POP GAS STATICCALL ISZERO DUP1 ISZERO PUSH2 0x5DA JUMPI RETURNDATASIZE PUSH1 0x0 DUP1 RETURNDATACOPY RETURNDATASIZE PUSH1 0x0 REVERT JUMPDEST POP POP POP POP PUSH1 0x40 MLOAD RETURNDATASIZE PUSH1 0x1F NOT PUSH1 0x1F DUP3 ADD AND DUP3 ADD DUP1 PUSH1 0x40 MSTORE POP DUP2 ADD SWAP1 PUSH2 0x5FE SWAP2 SWAP1 PUSH2 0xF0C JUMP JUMPDEST GT PUSH2 0x63E JUMPI PUSH1 0x40 MLOAD PUSH32 0x8C379A000000000000000000000000000000000000000000000000000000000 DUP2 MSTORE PUSH1 0x4 ADD PUSH2 0x635 SWAP1 PUSH2 0x1111 JUMP JUMPDEST PUSH1 0x40 MLOAD DUP1 SWAP2 SUB SWAP1 REVERT JUMPDEST PUSH1 0x2 PUSH1 0x0 CALLER PUSH20 0xFFFFFFFFFFFFFFFFFFFFFFFFFFFFFFFFFFFFFFFF AND PUSH20 0xFFFFFFFFFFFFFFFFFFFFFFFFFFFFFFFFFFFFFFFF AND DUP2 MSTORE PUSH1 0x20 ADD SWAP1 DUP2 MSTORE PUSH1 0x20 ADD PUSH1 0x0 KECCAK256 PUSH1 0x0 SWAP1 SLOAD SWAP1 PUSH2 0x100 EXP SWAP1 DIV PUSH1 0xFF AND ISZERO PUSH2 0x6CB JUMPI PUSH1 0x40 MLOAD PUSH32 0x8C379A000000000000000000000000000000000000000000000000000000000 DUP2 MSTORE PUSH1 0x4 ADD PUSH2 0x6C2 SWAP1 PUSH2 0x10F1 JUMP JUMPDEST PUSH1 0x40 MLOAD DUP1 SWAP2 SUB SWAP1 REVERT JUMPDEST PUSH1 0x5 PUSH1 0x0 SWAP1 SLOAD SWAP1 PUSH2 0x100 EXP SWAP1 DIV PUSH20 0xFFFFFFFFFFFFFFFFFFFFFFFFFFFFFFFFFFFFFFFF AND PUSH20 0xFFFFFFFFFFFFFFFFFFFFFFFFFFFFFFFFFFFFFFFF AND PUSH4 0xA9059CBB DUP3 PUSH1 0x5 PUSH1 0x0 SWAP1 SLOAD SWAP1 PUSH2 0x100 EXP SWAP1 DIV PUSH20 0xFFFFFFFFFFFFFFFFFFFFFFFFFFFFFFFFFFFFFFFF AND PUSH20 0xFFFFFFFFFFFFFFFFFFFFFFFFFFFFFFFFFFFFFFFF AND PUSH4 0x70A08231 CALLER PUSH1 0x40 MLOAD DUP3 PUSH4 0xFFFFFFFF AND PUSH1 0xE0 SHL DUP2 MSTORE PUSH1 0x4 ADD PUSH2 0x765 SWAP2 SWAP1 PUSH2 0x1024 JUMP JUMPDEST PUSH1 0x20 PUSH1 0x40 MLOAD DUP1 DUP4 SUB DUP2 DUP7 DUP1 EXTCODESIZE ISZERO DUP1 ISZERO PUSH2 0x77D JUMPI PUSH1 0x0 DUP1 REVERT JUMPDEST POP GAS STATICCALL ISZERO DUP1 ISZERO PUSH2 0x791 JUMPI RETURNDATASIZE PUSH1 0x0 DUP1 RETURNDATACOPY RETURNDATASIZE PUSH1 0x0 REVERT JUMPDEST POP POP POP POP PUSH1 0x40 MLOAD RETURNDATASIZE PUSH1 0x1F NOT PUSH1 0x1F DUP3 ADD AND DUP3 ADD DUP1 PUSH1 0x40 MSTORE POP DUP2 ADD SWAP1 PUSH2 0x7B5 SWAP2 SWAP1 PUSH2 0xF0C JUMP JUMPDEST PUSH1 0x40 MLOAD DUP4 PUSH4 0xFFFFFFFF AND PUSH1 0xE0 SHL DUP2 MSTORE PUSH1 0x4 ADD PUSH2 0x7D2 SWAP3 SWAP2 SWAP1 PUSH2 0x1068 JUMP JUMPDEST PUSH1 0x0 PUSH1 0x40 MLOAD DUP1 DUP4 SUB DUP2 PUSH1 0x0 DUP8 DUP1 EXTCODESIZE ISZERO DUP1 ISZERO PUSH2 0x7EC JUMPI PUSH1 0x0 DUP1 REVERT JUMPDEST POP GAS CALL ISZERO DUP1 ISZERO PUSH2 0x800 JUMPI RETURNDATASIZE PUSH1 0x0 DUP1 RETURNDATACOPY RETURNDATASIZE PUSH1 0x0 REVERT JUMPDEST POP POP POP POP PUSH1 0x1 PUSH1 0x2 PUSH1 0x0 CALLER PUSH20 0xFFFFFFFFFFFFFFFFFFFFFFFFFFFFFFFFFFFFFFFF AND PUSH20 0xFFFFFFFFFFFFFFFFFFFFFFFFFFFFFFFFFFFFFFFF AND DUP2 MSTORE PUSH1 0x20 ADD SWAP1 DUP2 MSTORE PUSH1 0x20 ADD PUSH1 0x0 KECCAK256 PUSH1 0x0 PUSH2 0x100 EXP DUP2 SLOAD DUP2 PUSH1 0xFF MUL NOT AND SWAP1 DUP4 ISZERO ISZERO MUL OR SWAP1 SSTORE POP POP JUMP JUMPDEST PUSH1 0x4 PUSH1 0x0 SWAP1 SLOAD SWAP1 PUSH2 0x100 EXP SWAP1 DIV PUSH20 0xFFFFFFFFFFFFFFFFFFFFFFFFFFFFFFFFFFFFFFFF AND PUSH20 0xFFFFFFFFFFFFFFFFFFFFFFFFFFFFFFFFFFFFFFFF AND CALLER PUSH20 0xFFFFFFFFFFFFFFFFFFFFFFFFFFFFFFFFFFFFFFFF AND EQ PUSH2 0x8EF JUMPI PUSH1 0x40 MLOAD PUSH32 0x8C379A000000000000000000000000000000000000000000000000000000000 DUP2 MSTORE PUSH1 0x4 ADD PUSH2 0x8E6 SWAP1 PUSH2 0x10D1 JUMP JUMPDEST PUSH1 0x40 MLOAD DUP1 SWAP2 SUB SWAP1 REVERT JUMPDEST PUSH1 0x0 JUMPDEST DUP2 MLOAD DUP2 LT ISZERO PUSH2 0xA2A JUMPI PUSH1 0x0 PUSH1 0x2 PUSH1 0x0 DUP5 DUP5 DUP2 MLOAD DUP2 LT PUSH2 0x914 JUMPI PUSH2 0x913 PUSH2 0x13B5 JUMP JUMPDEST JUMPDEST PUSH1 0x20 MUL PUSH1 0x20 ADD ADD MLOAD PUSH20 0xFFFFFFFFFFFFFFFFFFFFFFFFFFFFFFFFFFFFFFFF AND PUSH20 0xFFFFFFFFFFFFFFFFFFFFFFFFFFFFFFFFFFFFFFFF AND DUP2 MSTORE PUSH1 0x20 ADD SWAP1 DUP2 MSTORE PUSH1 0x20 ADD PUSH1 0x0 KECCAK256 PUSH1 0x0 PUSH2 0x100 EXP DUP2 SLOAD DUP2 PUSH1 0xFF MUL NOT AND SWAP1 DUP4 ISZERO ISZERO MUL OR SWAP1 SSTORE POP PUSH1 0x5 PUSH1 0x0 SWAP1 SLOAD SWAP1 PUSH2 0x100 EXP SWAP1 DIV PUSH20 0xFFFFFFFFFFFFFFFFFFFFFFFFFFFFFFFFFFFFFFFF AND PUSH20 0xFFFFFFFFFFFFFFFFFFFFFFFFFFFFFFFFFFFFFFFF AND PUSH4 0x40C10F19 DUP4 DUP4 DUP2 MLOAD DUP2 LT PUSH2 0x9BE JUMPI PUSH2 0x9BD PUSH2 0x13B5 JUMP JUMPDEST JUMPDEST PUSH1 0x20 MUL PUSH1 0x20 ADD ADD MLOAD PUSH1 0x1 PUSH1 0x40 MLOAD DUP4 PUSH4 0xFFFFFFFF AND PUSH1 0xE0 SHL DUP2 MSTORE PUSH1 0x4 ADD PUSH2 0x9E5 SWAP3 SWAP2 SWAP1 PUSH2 0x103F JUMP JUMPDEST PUSH1 0x0 PUSH1 0x40 MLOAD DUP1 DUP4 SUB DUP2 PUSH1 0x0 DUP8 DUP1 EXTCODESIZE ISZERO DUP1 ISZERO PUSH2 0x9FF JUMPI PUSH1 0x0 DUP1 REVERT JUMPDEST POP GAS CALL ISZERO DUP1 ISZERO PUSH2 0xA13 JUMPI RETURNDATASIZE PUSH1 0x0 DUP1 RETURNDATACOPY RETURNDATASIZE PUSH1 0x0 REVERT JUMPDEST POP POP POP POP DUP1 DUP1 PUSH2 0xA22 SWAP1 PUSH2 0x130E JUMP JUMPDEST SWAP2 POP POP PUSH2 0x8F2 JUMP JUMPDEST POP PUSH1 0x5 PUSH1 0x0 SWAP1 SLOAD SWAP1 PUSH2 0x100 EXP SWAP1 DIV PUSH20 0xFFFFFFFFFFFFFFFFFFFFFFFFFFFFFFFFFFFFFFFF AND PUSH20 0xFFFFFFFFFFFFFFFFFFFFFFFFFFFFFFFFFFFFFFFF AND PUSH4 0x40C10F19 PUSH1 0x4 PUSH1 0x0 SWAP1 SLOAD SWAP1 PUSH2 0x100 EXP SWAP1 DIV PUSH20 0xFFFFFFFFFFFFFFFFFFFFFFFFFFFFFFFFFFFFFFFF AND PUSH1 0x1 PUSH1 0x40 MLOAD DUP4 PUSH4 0xFFFFFFFF AND PUSH1 0xE0 SHL DUP2 MSTORE PUSH1 0x4 ADD PUSH2 0xAAB SWAP3 SWAP2 SWAP1 PUSH2 0x103F JUMP JUMPDEST PUSH1 0x0 PUSH1 0x40 MLOAD DUP1 DUP4 SUB DUP2 PUSH1 0x0 DUP8 DUP1 EXTCODESIZE ISZERO DUP1 ISZERO PUSH2 0xAC5 JUMPI PUSH1 0x0 DUP1 REVERT JUMPDEST POP GAS CALL ISZERO DUP1 ISZERO PUSH2 0xAD9 JUMPI RETURNDATASIZE PUSH1 0x0 DUP1 RETURNDATACOPY RETURNDATASIZE PUSH1 0x0 REVERT JUMPDEST POP POP POP POP POP JUMP JUMPDEST PUSH1 0x0 PUSH1 0x5 PUSH1 0x0 SWAP1 SLOAD SWAP1 PUSH2 0x100 EXP SWAP1 DIV PUSH20 0xFFFFFFFFFFFFFFFFFFFFFFFFFFFFFFFFFFFFFFFF AND PUSH20 0xFFFFFFFFFFFFFFFFFFFFFFFFFFFFFFFFFFFFFFFF AND PUSH4 0xC4E41B22 PUSH1 0x40 MLOAD DUP2 PUSH4 0xFFFFFFFF AND PUSH1 0xE0 SHL DUP2 MSTORE PUSH1 0x4 ADD PUSH1 0x20 PUSH1 0x40 MLOAD DUP1 DUP4 SUB DUP2 DUP7 DUP1 EXTCODESIZE ISZERO DUP1 ISZERO PUSH2 0xB4A JUMPI PUSH1 0x0 DUP1 REVERT JUMPDEST POP GAS STATICCALL ISZERO DUP1 ISZERO PUSH2 0xB5E JUMPI RETURNDATASIZE PUSH1 0x0 DUP1 RETURNDATACOPY RETURNDATASIZE PUSH1 0x0 REVERT JUMPDEST POP POP POP POP PUSH1 0x40 MLOAD RETURNDATASIZE PUSH1 0x1F NOT PUSH1 0x1F DUP3 ADD AND DUP3 ADD DUP1 PUSH1 0x40 MSTORE POP DUP2 ADD SWAP1 PUSH2 0xB82 SWAP2 SWAP1 PUSH2 0xF0C JUMP JUMPDEST SWAP1 POP SWAP1 JUMP JUMPDEST DUP3 DUP1 SLOAD PUSH2 0xB93 SWAP1 PUSH2 0x12AB JUMP JUMPDEST SWAP1 PUSH1 0x0 MSTORE PUSH1 0x20 PUSH1 0x0 KECCAK256 SWAP1 PUSH1 0x1F ADD PUSH1 0x20 SWAP1 DIV DUP2 ADD SWAP3 DUP3 PUSH2 0xBB5 JUMPI PUSH1 0x0 DUP6 SSTORE PUSH2 0xBFC JUMP JUMPDEST DUP3 PUSH1 0x1F LT PUSH2 0xBCE JUMPI DUP1 MLOAD PUSH1 0xFF NOT AND DUP4 DUP1 ADD OR DUP6 SSTORE PUSH2 0xBFC JUMP JUMPDEST DUP3 DUP1 ADD PUSH1 0x1 ADD DUP6 SSTORE DUP3 ISZERO PUSH2 0xBFC JUMPI SWAP2 DUP3 ADD JUMPDEST DUP3 DUP2 GT ISZERO PUSH2 0xBFB JUMPI DUP3 MLOAD DUP3 SSTORE SWAP2 PUSH1 0x20 ADD SWAP2 SWAP1 PUSH1 0x1 ADD SWAP1 PUSH2 0xBE0 JUMP JUMPDEST JUMPDEST POP SWAP1 POP PUSH2 0xC09 SWAP2 SWAP1 PUSH2 0xC0D JUMP JUMPDEST POP SWAP1 JUMP JUMPDEST JUMPDEST DUP1 DUP3 GT ISZERO PUSH2 0xC26 JUMPI PUSH1 0x0 DUP2 PUSH1 0x0 SWAP1 SSTORE POP PUSH1 0x1 ADD PUSH2 0xC0E JUMP JUMPDEST POP SWAP1 JUMP JUMPDEST PUSH1 0x0 PUSH2 0xC3D PUSH2 0xC38 DUP5 PUSH2 0x11A8 JUMP JUMPDEST PUSH2 0x1183 JUMP JUMPDEST SWAP1 POP DUP1 DUP4 DUP3 MSTORE PUSH1 0x20 DUP3 ADD SWAP1 POP DUP3 DUP6 PUSH1 0x20 DUP7 MUL DUP3 ADD GT ISZERO PUSH2 0xC60 JUMPI PUSH2 0xC5F PUSH2 0x1418 JUMP JUMPDEST JUMPDEST PUSH1 0x0 JUMPDEST DUP6 DUP2 LT ISZERO PUSH2 0xC90 JUMPI DUP2 PUSH2 0xC76 DUP9 DUP3 PUSH2 0xD6A JUMP JUMPDEST DUP5 MSTORE PUSH1 0x20 DUP5 ADD SWAP4 POP PUSH1 0x20 DUP4 ADD SWAP3 POP POP PUSH1 0x1 DUP2 ADD SWAP1 POP PUSH2 0xC63 JUMP JUMPDEST POP POP POP SWAP4 SWAP3 POP POP POP JUMP JUMPDEST PUSH1 0x0 PUSH2 0xCAD PUSH2 0xCA8 DUP5 PUSH2 0x11D4 JUMP JUMPDEST PUSH2 0x1183 JUMP JUMPDEST SWAP1 POP DUP1 DUP4 DUP3 MSTORE PUSH1 0x20 DUP3 ADD SWAP1 POP DUP3 DUP6 PUSH1 0x20 DUP7 MUL DUP3 ADD GT ISZERO PUSH2 0xCD0 JUMPI PUSH2 0xCCF PUSH2 0x1418 JUMP JUMPDEST JUMPDEST PUSH1 0x0 JUMPDEST DUP6 DUP2 LT ISZERO PUSH2 0xD1E JUMPI DUP2 CALLDATALOAD PUSH8 0xFFFFFFFFFFFFFFFF DUP2 GT ISZERO PUSH2 0xCF6 JUMPI PUSH2 0xCF5 PUSH2 0x1413 JUMP JUMPDEST JUMPDEST DUP1 DUP7 ADD PUSH2 0xD03 DUP10 DUP3 PUSH2 0xDDB JUMP JUMPDEST DUP6 MSTORE PUSH1 0x20 DUP6 ADD SWAP5 POP PUSH1 0x20 DUP5 ADD SWAP4 POP POP POP PUSH1 0x1 DUP2 ADD SWAP1 POP PUSH2 0xCD3 JUMP JUMPDEST POP POP POP SWAP4 SWAP3 POP POP POP JUMP JUMPDEST PUSH1 0x0 PUSH2 0xD3B PUSH2 0xD36 DUP5 PUSH2 0x1200 JUMP JUMPDEST PUSH2 0x1183 JUMP JUMPDEST SWAP1 POP DUP3 DUP2 MSTORE PUSH1 0x20 DUP2 ADD DUP5 DUP5 DUP5 ADD GT ISZERO PUSH2 0xD57 JUMPI PUSH2 0xD56 PUSH2 0x141D JUMP JUMPDEST JUMPDEST PUSH2 0xD62 DUP5 DUP3 DUP6 PUSH2 0x129C JUMP JUMPDEST POP SWAP4 SWAP3 POP POP POP JUMP JUMPDEST PUSH1 0x0 DUP2 CALLDATALOAD SWAP1 POP PUSH2 0xD79 DUP2 PUSH2 0x150A JUMP JUMPDEST SWAP3 SWAP2 POP POP JUMP JUMPDEST PUSH1 0x0 DUP3 PUSH1 0x1F DUP4 ADD SLT PUSH2 0xD94 JUMPI PUSH2 0xD93 PUSH2 0x1413 JUMP JUMPDEST JUMPDEST DUP2 CALLDATALOAD PUSH2 0xDA4 DUP5 DUP3 PUSH1 0x20 DUP7 ADD PUSH2 0xC2A JUMP JUMPDEST SWAP2 POP POP SWAP3 SWAP2 POP POP JUMP JUMPDEST PUSH1 0x0 DUP3 PUSH1 0x1F DUP4 ADD SLT PUSH2 0xDC2 JUMPI PUSH2 0xDC1 PUSH2 0x1413 JUMP JUMPDEST JUMPDEST DUP2 CALLDATALOAD PUSH2 0xDD2 DUP5 DUP3 PUSH1 0x20 DUP7 ADD PUSH2 0xC9A JUMP JUMPDEST SWAP2 POP POP SWAP3 SWAP2 POP POP JUMP JUMPDEST PUSH1 0x0 DUP3 PUSH1 0x1F DUP4 ADD SLT PUSH2 0xDF0 JUMPI PUSH2 0xDEF PUSH2 0x1413 JUMP JUMPDEST JUMPDEST DUP2 CALLDATALOAD PUSH2 0xE00 DUP5 DUP3 PUSH1 0x20 DUP7 ADD PUSH2 0xD28 JUMP JUMPDEST SWAP2 POP POP SWAP3 SWAP2 POP POP JUMP JUMPDEST PUSH1 0x0 DUP2 MLOAD SWAP1 POP PUSH2 0xE18 DUP2 PUSH2 0x1521 JUMP JUMPDEST SWAP3 SWAP2 POP POP JUMP JUMPDEST PUSH1 0x0 PUSH1 0x20 DUP3 DUP5 SUB SLT ISZERO PUSH2 0xE34 JUMPI PUSH2 0xE33 PUSH2 0x1427 JUMP JUMPDEST JUMPDEST PUSH1 0x0 PUSH2 0xE42 DUP5 DUP3 DUP6 ADD PUSH2 0xD6A JUMP JUMPDEST SWAP2 POP POP SWAP3 SWAP2 POP POP JUMP JUMPDEST PUSH1 0x0 PUSH1 0x20 DUP3 DUP5 SUB SLT ISZERO PUSH2 0xE61 JUMPI PUSH2 0xE60 PUSH2 0x1427 JUMP JUMPDEST JUMPDEST PUSH1 0x0 DUP3 ADD CALLDATALOAD PUSH8 0xFFFFFFFFFFFFFFFF DUP2 GT ISZERO PUSH2 0xE7F JUMPI PUSH2 0xE7E PUSH2 0x1422 JUMP JUMPDEST JUMPDEST PUSH2 0xE8B DUP5 DUP3 DUP6 ADD PUSH2 0xD7F JUMP JUMPDEST SWAP2 POP POP SWAP3 SWAP2 POP POP JUMP JUMPDEST PUSH1 0x0 DUP1 PUSH1 0x40 DUP4 DUP6 SUB SLT ISZERO PUSH2 0xEAB JUMPI PUSH2 0xEAA PUSH2 0x1427 JUMP JUMPDEST JUMPDEST PUSH1 0x0 DUP4 ADD CALLDATALOAD PUSH8 0xFFFFFFFFFFFFFFFF DUP2 GT ISZERO PUSH2 0xEC9 JUMPI PUSH2 0xEC8 PUSH2 0x1422 JUMP JUMPDEST JUMPDEST PUSH2 0xED5 DUP6 DUP3 DUP7 ADD PUSH2 0xD7F JUMP JUMPDEST SWAP3 POP POP PUSH1 0x20 DUP4 ADD CALLDATALOAD PUSH8 0xFFFFFFFFFFFFFFFF DUP2 GT ISZERO PUSH2 0xEF6 JUMPI PUSH2 0xEF5 PUSH2 0x1422 JUMP JUMPDEST JUMPDEST PUSH2 0xF02 DUP6 DUP3 DUP7 ADD PUSH2 0xDAD JUMP JUMPDEST SWAP2 POP POP SWAP3 POP SWAP3 SWAP1 POP JUMP JUMPDEST PUSH1 0x0 PUSH1 0x20 DUP3 DUP5 SUB SLT ISZERO PUSH2 0xF22 JUMPI PUSH2 0xF21 PUSH2 0x1427 JUMP JUMPDEST JUMPDEST PUSH1 0x0 PUSH2 0xF30 DUP5 DUP3 DUP6 ADD PUSH2 0xE09 JUMP JUMPDEST SWAP2 POP POP SWAP3 SWAP2 POP POP JUMP JUMPDEST PUSH2 0xF42 DUP2 PUSH2 0x1242 JUMP JUMPDEST DUP3 MSTORE POP POP JUMP JUMPDEST PUSH2 0xF51 DUP2 PUSH2 0x1254 JUMP JUMPDEST DUP3 MSTORE POP POP JUMP JUMPDEST PUSH2 0xF60 DUP2 PUSH2 0x128A JUMP JUMPDEST DUP3 MSTORE POP POP JUMP JUMPDEST PUSH1 0x0 PUSH2 0xF73 PUSH1 0x14 DUP4 PUSH2 0x1231 JUMP JUMPDEST SWAP2 POP PUSH2 0xF7E DUP3 PUSH2 0x143D JUMP JUMPDEST PUSH1 0x20 DUP3 ADD SWAP1 POP SWAP2 SWAP1 POP JUMP JUMPDEST PUSH1 0x0 PUSH2 0xF96 PUSH1 0xC DUP4 PUSH2 0x1231 JUMP JUMPDEST SWAP2 POP PUSH2 0xFA1 DUP3 PUSH2 0x1466 JUMP JUMPDEST PUSH1 0x20 DUP3 ADD SWAP1 POP SWAP2 SWAP1 POP JUMP JUMPDEST PUSH1 0x0 PUSH2 0xFB9 PUSH1 0x1B DUP4 PUSH2 0x1231 JUMP JUMPDEST SWAP2 POP PUSH2 0xFC4 DUP3 PUSH2 0x148F JUMP JUMPDEST PUSH1 0x20 DUP3 ADD SWAP1 POP SWAP2 SWAP1 POP JUMP JUMPDEST PUSH1 0x0 PUSH2 0xFDC PUSH1 0x14 DUP4 PUSH2 0x1231 JUMP JUMPDEST SWAP2 POP PUSH2 0xFE7 DUP3 PUSH2 0x14B8 JUMP JUMPDEST PUSH1 0x20 DUP3 ADD SWAP1 POP SWAP2 SWAP1 POP JUMP JUMPDEST PUSH1 0x0 PUSH2 0xFFF PUSH1 0x14 DUP4 PUSH2 0x1231 JUMP JUMPDEST SWAP2 POP PUSH2 0x100A DUP3 PUSH2 0x14E1 JUMP JUMPDEST PUSH1 0x20 DUP3 ADD SWAP1 POP SWAP2 SWAP1 POP JUMP JUMPDEST PUSH2 0x101E DUP2 PUSH2 0x1280 JUMP JUMPDEST DUP3 MSTORE POP POP JUMP JUMPDEST PUSH1 0x0 PUSH1 0x20 DUP3 ADD SWAP1 POP PUSH2 0x1039 PUSH1 0x0 DUP4 ADD DUP5 PUSH2 0xF39 JUMP JUMPDEST SWAP3 SWAP2 POP POP JUMP JUMPDEST PUSH1 0x0 PUSH1 0x40 DUP3 ADD SWAP1 POP PUSH2 0x1054 PUSH1 0x0 DUP4 ADD DUP6 PUSH2 0xF39 JUMP JUMPDEST PUSH2 0x1061 PUSH1 0x20 DUP4 ADD DUP5 PUSH2 0xF57 JUMP JUMPDEST SWAP4 SWAP3 POP POP POP JUMP JUMPDEST PUSH1 0x0 PUSH1 0x40 DUP3 ADD SWAP1 POP PUSH2 0x107D PUSH1 0x0 DUP4 ADD DUP6 PUSH2 0xF39 JUMP JUMPDEST PUSH2 0x108A PUSH1 0x20 DUP4 ADD DUP5 PUSH2 0x1015 JUMP JUMPDEST SWAP4 SWAP3 POP POP POP JUMP JUMPDEST PUSH1 0x0 PUSH1 0x20 DUP3 ADD SWAP1 POP DUP2 DUP2 SUB PUSH1 0x0 DUP4 ADD MSTORE PUSH2 0x10AA DUP2 PUSH2 0xF66 JUMP JUMPDEST SWAP1 POP SWAP2 SWAP1 POP JUMP JUMPDEST PUSH1 0x0 PUSH1 0x20 DUP3 ADD SWAP1 POP DUP2 DUP2 SUB PUSH1 0x0 DUP4 ADD MSTORE PUSH2 0x10CA DUP2 PUSH2 0xF89 JUMP JUMPDEST SWAP1 POP SWAP2 SWAP1 POP JUMP JUMPDEST PUSH1 0x0 PUSH1 0x20 DUP3 ADD SWAP1 POP DUP2 DUP2 SUB PUSH1 0x0 DUP4 ADD MSTORE PUSH2 0x10EA DUP2 PUSH2 0xFAC JUMP JUMPDEST SWAP1 POP SWAP2 SWAP1 POP JUMP JUMPDEST PUSH1 0x0 PUSH1 0x20 DUP3 ADD SWAP1 POP DUP2 DUP2 SUB PUSH1 0x0 DUP4 ADD MSTORE PUSH2 0x110A DUP2 PUSH2 0xFCF JUMP JUMPDEST SWAP1 POP SWAP2 SWAP1 POP JUMP JUMPDEST PUSH1 0x0 PUSH1 0x20 DUP3 ADD SWAP1 POP DUP2 DUP2 SUB PUSH1 0x0 DUP4 ADD MSTORE PUSH2 0x112A DUP2 PUSH2 0xFF2 JUMP JUMPDEST SWAP1 POP SWAP2 SWAP1 POP JUMP JUMPDEST PUSH1 0x0 PUSH1 0x20 DUP3 ADD SWAP1 POP PUSH2 0x1146 PUSH1 0x0 DUP4 ADD DUP5 PUSH2 0x1015 JUMP JUMPDEST SWAP3 SWAP2 POP POP JUMP JUMPDEST PUSH1 0x0 PUSH1 0x60 DUP3 ADD SWAP1 POP PUSH2 0x1161 PUSH1 0x0 DUP4 ADD DUP7 PUSH2 0x1015 JUMP JUMPDEST PUSH2 0x116E PUSH1 0x20 DUP4 ADD DUP6 PUSH2 0x1015 JUMP JUMPDEST PUSH2 0x117B PUSH1 0x40 DUP4 ADD DUP5 PUSH2 0xF48 JUMP JUMPDEST SWAP5 SWAP4 POP POP POP POP JUMP JUMPDEST PUSH1 0x0 PUSH2 0x118D PUSH2 0x119E JUMP JUMPDEST SWAP1 POP PUSH2 0x1199 DUP3 DUP3 PUSH2 0x12DD JUMP JUMPDEST SWAP2 SWAP1 POP JUMP JUMPDEST PUSH1 0x0 PUSH1 0x40 MLOAD SWAP1 POP SWAP1 JUMP JUMPDEST PUSH1 0x0 PUSH8 0xFFFFFFFFFFFFFFFF DUP3 GT ISZERO PUSH2 0x11C3 JUMPI PUSH2 0x11C2 PUSH2 0x13E4 JUMP JUMPDEST JUMPDEST PUSH1 0x20 DUP3 MUL SWAP1 POP PUSH1 0x20 DUP2 ADD SWAP1 POP SWAP2 SWAP1 POP JUMP JUMPDEST PUSH1 0x0 PUSH8 0xFFFFFFFFFFFFFFFF DUP3 GT ISZERO PUSH2 0x11EF JUMPI PUSH2 0x11EE PUSH2 0x13E4 JUMP JUMPDEST JUMPDEST PUSH1 0x20 DUP3 MUL SWAP1 POP PUSH1 0x20 DUP2 ADD SWAP1 POP SWAP2 SWAP1 POP JUMP JUMPDEST PUSH1 0x0 PUSH8 0xFFFFFFFFFFFFFFFF DUP3 GT ISZERO PUSH2 0x121B JUMPI PUSH2 0x121A PUSH2 0x13E4 JUMP JUMPDEST JUMPDEST PUSH2 0x1224 DUP3 PUSH2 0x142C JUMP JUMPDEST SWAP1 POP PUSH1 0x20 DUP2 ADD SWAP1 POP SWAP2 SWAP1 POP JUMP JUMPDEST PUSH1 0x0 DUP3 DUP3 MSTORE PUSH1 0x20 DUP3 ADD SWAP1 POP SWAP3 SWAP2 POP POP JUMP JUMPDEST PUSH1 0x0 PUSH2 0x124D DUP3 PUSH2 0x1260 JUMP JUMPDEST SWAP1 POP SWAP2 SWAP1 POP JUMP JUMPDEST PUSH1 0x0 DUP2 ISZERO ISZERO SWAP1 POP SWAP2 SWAP1 POP JUMP JUMPDEST PUSH1 0x0 PUSH20 0xFFFFFFFFFFFFFFFFFFFFFFFFFFFFFFFFFFFFFFFF DUP3 AND SWAP1 POP SWAP2 SWAP1 POP JUMP JUMPDEST PUSH1 0x0 DUP2 SWAP1 POP SWAP2 SWAP1 POP JUMP JUMPDEST PUSH1 0x0 PUSH2 0x1295 DUP3 PUSH2 0x1280 JUMP JUMPDEST SWAP1 POP SWAP2 SWAP1 POP JUMP JUMPDEST DUP3 DUP2 DUP4 CALLDATACOPY PUSH1 0x0 DUP4 DUP4 ADD MSTORE POP POP POP JUMP JUMPDEST PUSH1 0x0 PUSH1 0x2 DUP3 DIV SWAP1 POP PUSH1 0x1 DUP3 AND DUP1 PUSH2 0x12C3 JUMPI PUSH1 0x7F DUP3 AND SWAP2 POP JUMPDEST PUSH1 0x20 DUP3 LT DUP2 EQ ISZERO PUSH2 0x12D7 JUMPI PUSH2 0x12D6 PUSH2 0x1386 JUMP JUMPDEST JUMPDEST POP SWAP2 SWAP1 POP JUMP JUMPDEST PUSH2 0x12E6 DUP3 PUSH2 0x142C JUMP JUMPDEST DUP2 ADD DUP2 DUP2 LT PUSH8 0xFFFFFFFFFFFFFFFF DUP3 GT OR ISZERO PUSH2 0x1305 JUMPI PUSH2 0x1304 PUSH2 0x13E4 JUMP JUMPDEST JUMPDEST DUP1 PUSH1 0x40 MSTORE POP POP POP JUMP JUMPDEST PUSH1 0x0 PUSH2 0x1319 DUP3 PUSH2 0x1280 JUMP JUMPDEST SWAP2 POP PUSH32 0xFFFFFFFFFFFFFFFFFFFFFFFFFFFFFFFFFFFFFFFFFFFFFFFFFFFFFFFFFFFFFFFF DUP3 EQ ISZERO PUSH2 0x134C JUMPI PUSH2 0x134B PUSH2 0x1357 JUMP JUMPDEST JUMPDEST PUSH1 0x1 DUP3 ADD SWAP1 POP SWAP2 SWAP1 POP JUMP JUMPDEST PUSH32 0x4E487B7100000000000000000000000000000000000000000000000000000000 PUSH1 0x0 MSTORE PUSH1 0x11 PUSH1 0x4 MSTORE PUSH1 0x24 PUSH1 0x0 REVERT JUMPDEST PUSH32 0x4E487B7100000000000000000000000000000000000000000000000000000000 PUSH1 0x0 MSTORE PUSH1 0x22 PUSH1 0x4 MSTORE PUSH1 0x24 PUSH1 0x0 REVERT JUMPDEST PUSH32 0x4E487B7100000000000000000000000000000000000000000000000000000000 PUSH1 0x0 MSTORE PUSH1 0x32 PUSH1 0x4 MSTORE PUSH1 0x24 PUSH1 0x0 REVERT JUMPDEST PUSH32 0x4E487B7100000000000000000000000000000000000000000000000000000000 PUSH1 0x0 MSTORE PUSH1 0x41 PUSH1 0x4 MSTORE PUSH1 0x24 PUSH1 0x0 REVERT JUMPDEST PUSH1 0x0 DUP1 REVERT JUMPDEST PUSH1 0x0 DUP1 REVERT JUMPDEST PUSH1 0x0 DUP1 REVERT JUMPDEST PUSH1 0x0 DUP1 REVERT JUMPDEST PUSH1 0x0 DUP1 REVERT JUMPDEST PUSH1 0x0 PUSH1 0x1F NOT PUSH1 0x1F DUP4 ADD AND SWAP1 POP SWAP2 SWAP1 POP JUMP JUMPDEST PUSH32 0x4C656E67746820697320646966666572656E742E000000000000000000000000 PUSH1 0x0 DUP3 ADD MSTORE POP JUMP JUMPDEST PUSH32 0x54696D6520697320656E642E0000000000000000000000000000000000000000 PUSH1 0x0 DUP3 ADD MSTORE POP JUMP JUMPDEST PUSH32 0x4974206973206E6F742066726F6D206368616972706572736F6E2E0000000000 PUSH1 0x0 DUP3 ADD MSTORE POP JUMP JUMPDEST PUSH32 0x566F74657220616C726561647920766F7465642E000000000000000000000000 PUSH1 0x0 DUP3 ADD MSTORE POP JUMP JUMPDEST PUSH32 0x546F6B656E20646F65736E27742065786973742E000000000000000000000000 PUSH1 0x0 DUP3 ADD MSTORE POP JUMP JUMPDEST PUSH2 0x1513 DUP2 PUSH2 0x1242 JUMP JUMPDEST DUP2 EQ PUSH2 0x151E JUMPI PUSH1 0x0 DUP1 REVERT JUMPDEST POP JUMP JUMPDEST PUSH2 0x152A DUP2 PUSH2 0x1280 JUMP JUMPDEST DUP2 EQ PUSH2 0x1535 JUMPI PUSH1 0x0 DUP1 REVERT JUMPDEST POP JUMP INVALID LOG2 PUSH5 0x6970667358 0x22 SLT KECCAK256 0xCF 0xD 0xC9 0xD6 PUSH7 0xAE06180E037FE0 DUP11 0x23 0xBA PUSH23 0x28F2680F61D987434845C8FCC06E086A64736F6C634300 ADDMOD SMOD STOP CALLER PUSH1 0x80 PUSH1 0x40 MSTORE CALLVALUE DUP1 ISZERO PUSH3 0x11 JUMPI PUSH1 0x0 DUP1 REVERT JUMPDEST POP PUSH1 0x40 MLOAD DUP1 PUSH1 0x40 ADD PUSH1 0x40 MSTORE DUP1 PUSH1 0xD DUP2 MSTORE PUSH1 0x20 ADD PUSH32 0x452D566F74696E6720636F696E00000000000000000000000000000000000000 DUP2 MSTORE POP PUSH1 0x1 SWAP1 DUP1 MLOAD SWAP1 PUSH1 0x20 ADD SWAP1 PUSH3 0x5F SWAP3 SWAP2 SWAP1 PUSH3 0xD0 JUMP JUMPDEST POP PUSH1 0x0 PUSH1 0x2 PUSH1 0x0 PUSH2 0x100 EXP DUP2 SLOAD DUP2 PUSH1 0xFF MUL NOT AND SWAP1 DUP4 PUSH1 0xFF AND MUL OR SWAP1 SSTORE POP PUSH1 0x40 MLOAD DUP1 PUSH1 0x40 ADD PUSH1 0x40 MSTORE DUP1 PUSH1 0x3 DUP2 MSTORE PUSH1 0x20 ADD PUSH32 0x4556430000000000000000000000000000000000000000000000000000000000 DUP2 MSTORE POP PUSH1 0x3 SWAP1 DUP1 MLOAD SWAP1 PUSH1 0x20 ADD SWAP1 PUSH3 0xC9 SWAP3 SWAP2 SWAP1 PUSH3 0xD0 JUMP JUMPDEST POP PUSH3 0x1E5 JUMP JUMPDEST DUP3 DUP1 SLOAD PUSH3 0xDE SWAP1 PUSH3 0x180 JUMP JUMPDEST SWAP1 PUSH1 0x0 MSTORE PUSH1 0x20 PUSH1 0x0 KECCAK256 SWAP1 PUSH1 0x1F ADD PUSH1 0x20 SWAP1 DIV DUP2 ADD SWAP3 DUP3 PUSH3 0x102 JUMPI PUSH1 0x0 DUP6 SSTORE PUSH3 0x14E JUMP JUMPDEST DUP3 PUSH1 0x1F LT PUSH3 0x11D JUMPI DUP1 MLOAD PUSH1 0xFF NOT AND DUP4 DUP1 ADD OR DUP6 SSTORE PUSH3 0x14E JUMP JUMPDEST DUP3 DUP1 ADD PUSH1 0x1 ADD DUP6 SSTORE DUP3 ISZERO PUSH3 0x14E JUMPI SWAP2 DUP3 ADD JUMPDEST DUP3 DUP2 GT ISZERO PUSH3 0x14D JUMPI DUP3 MLOAD DUP3 SSTORE SWAP2 PUSH1 0x20 ADD SWAP2 SWAP1 PUSH1 0x1 ADD SWAP1 PUSH3 0x130 JUMP JUMPDEST JUMPDEST POP SWAP1 POP PUSH3 0x15D SWAP2 SWAP1 PUSH3 0x161 JUMP JUMPDEST POP SWAP1 JUMP JUMPDEST JUMPDEST DUP1 DUP3 GT ISZERO PUSH3 0x17C JUMPI PUSH1 0x0 DUP2 PUSH1 0x0 SWAP1 SSTORE POP PUSH1 0x1 ADD PUSH3 0x162 JUMP JUMPDEST POP SWAP1 JUMP JUMPDEST PUSH1 0x0 PUSH1 0x2 DUP3 DIV SWAP1 POP PUSH1 0x1 DUP3 AND DUP1 PUSH3 0x199 JUMPI PUSH1 0x7F DUP3 AND SWAP2 POP JUMPDEST PUSH1 0x20 DUP3 LT DUP2 EQ ISZERO PUSH3 0x1B0 JUMPI PUSH3 0x1AF PUSH3 0x1B6 JUMP JUMPDEST JUMPDEST POP SWAP2 SWAP1 POP JUMP JUMPDEST PUSH32 0x4E487B7100000000000000000000000000000000000000000000000000000000 PUSH1 0x0 MSTORE PUSH1 0x22 PUSH1 0x4 MSTORE PUSH1 0x24 PUSH1 0x0 REVERT JUMPDEST PUSH2 0x13C1 DUP1 PUSH3 0x1F5 PUSH1 0x0 CODECOPY PUSH1 0x0 RETURN INVALID PUSH1 0x80 PUSH1 0x40 MSTORE CALLVALUE DUP1 ISZERO PUSH2 0x10 JUMPI PUSH1 0x0 DUP1 REVERT JUMPDEST POP PUSH1 0x4 CALLDATASIZE LT PUSH2 0xB4 JUMPI PUSH1 0x0 CALLDATALOAD PUSH1 0xE0 SHR DUP1 PUSH4 0x54FD4D50 GT PUSH2 0x71 JUMPI DUP1 PUSH4 0x54FD4D50 EQ PUSH2 0x167 JUMPI DUP1 PUSH4 0x70A08231 EQ PUSH2 0x185 JUMPI DUP1 PUSH4 0x95D89B41 EQ PUSH2 0x1B5 JUMPI DUP1 PUSH4 0xA9059CBB EQ PUSH2 0x1D3 JUMPI DUP1 PUSH4 0xC4E41B22 EQ PUSH2 0x1EF JUMPI DUP1 PUSH4 0xDD62ED3E EQ PUSH2 0x20D JUMPI PUSH2 0xB4 JUMP JUMPDEST DUP1 PUSH4 0x6FDDE03 EQ PUSH2 0xB9 JUMPI DUP1 PUSH4 0x95EA7B3 EQ PUSH2 0xD7 JUMPI DUP1 PUSH4 0x18160DDD EQ PUSH2 0xF3 JUMPI DUP1 PUSH4 0x23B872DD EQ PUSH2 0x111 JUMPI DUP1 PUSH4 0x313CE567 EQ PUSH2 0x12D JUMPI DUP1 PUSH4 0x40C10F19 EQ PUSH2 0x14B JUMPI JUMPDEST PUSH1 0x0 DUP1 REVERT JUMPDEST PUSH2 0xC1 PUSH2 0x23D JUMP JUMPDEST PUSH1 0x40 MLOAD PUSH2 0xCE SWAP2 SWAP1 PUSH2 0xFEA JUMP JUMPDEST PUSH1 0x40 MLOAD DUP1 SWAP2 SUB SWAP1 RETURN JUMPDEST PUSH2 0xF1 PUSH1 0x4 DUP1 CALLDATASIZE SUB DUP2 ADD SWAP1 PUSH2 0xEC SWAP2 SWAP1 PUSH2 0xEC7 JUMP JUMPDEST PUSH2 0x2CB JUMP JUMPDEST STOP JUMPDEST PUSH2 0xFB PUSH2 0x3B5 JUMP JUMPDEST PUSH1 0x40 MLOAD PUSH2 0x108 SWAP2 SWAP1 PUSH2 0x108C JUMP JUMPDEST PUSH1 0x40 MLOAD DUP1 SWAP2 SUB SWAP1 RETURN JUMPDEST PUSH2 0x12B PUSH1 0x4 DUP1 CALLDATASIZE SUB DUP2 ADD SWAP1 PUSH2 0x126 SWAP2 SWAP1 PUSH2 0xE74 JUMP JUMPDEST PUSH2 0x3BB JUMP JUMPDEST STOP JUMPDEST PUSH2 0x135 PUSH2 0x7E2 JUMP JUMPDEST PUSH1 0x40 MLOAD PUSH2 0x142 SWAP2 SWAP1 PUSH2 0x10A7 JUMP JUMPDEST PUSH1 0x40 MLOAD DUP1 SWAP2 SUB SWAP1 RETURN JUMPDEST PUSH2 0x165 PUSH1 0x4 DUP1 CALLDATASIZE SUB DUP2 ADD SWAP1 PUSH2 0x160 SWAP2 SWAP1 PUSH2 0xEC7 JUMP JUMPDEST PUSH2 0x7F5 JUMP JUMPDEST STOP JUMPDEST PUSH2 0x16F PUSH2 0x955 JUMP JUMPDEST PUSH1 0x40 MLOAD PUSH2 0x17C SWAP2 SWAP1 PUSH2 0xFEA JUMP JUMPDEST PUSH1 0x40 MLOAD DUP1 SWAP2 SUB SWAP1 RETURN JUMPDEST PUSH2 0x19F PUSH1 0x4 DUP1 CALLDATASIZE SUB DUP2 ADD SWAP1 PUSH2 0x19A SWAP2 SWAP1 PUSH2 0xE07 JUMP JUMPDEST PUSH2 0x9E3 JUMP JUMPDEST PUSH1 0x40 MLOAD PUSH2 0x1AC SWAP2 SWAP1 PUSH2 0x108C JUMP JUMPDEST PUSH1 0x40 MLOAD DUP1 SWAP2 SUB SWAP1 RETURN JUMPDEST PUSH2 0x1BD PUSH2 0xA2C JUMP JUMPDEST PUSH1 0x40 MLOAD PUSH2 0x1CA SWAP2 SWAP1 PUSH2 0xFEA JUMP JUMPDEST PUSH1 0x40 MLOAD DUP1 SWAP2 SUB SWAP1 RETURN JUMPDEST PUSH2 0x1ED PUSH1 0x4 DUP1 CALLDATASIZE SUB DUP2 ADD SWAP1 PUSH2 0x1E8 SWAP2 SWAP1 PUSH2 0xEC7 JUMP JUMPDEST PUSH2 0xABA JUMP JUMPDEST STOP JUMPDEST PUSH2 0x1F7 PUSH2 0xCF2 JUMP JUMPDEST PUSH1 0x40 MLOAD PUSH2 0x204 SWAP2 SWAP1 PUSH2 0x108C JUMP JUMPDEST PUSH1 0x40 MLOAD DUP1 SWAP2 SUB SWAP1 RETURN JUMPDEST PUSH2 0x227 PUSH1 0x4 DUP1 CALLDATASIZE SUB DUP2 ADD SWAP1 PUSH2 0x222 SWAP2 SWAP1 PUSH2 0xE34 JUMP JUMPDEST PUSH2 0xCFB JUMP JUMPDEST PUSH1 0x40 MLOAD PUSH2 0x234 SWAP2 SWAP1 PUSH2 0x108C JUMP JUMPDEST PUSH1 0x40 MLOAD DUP1 SWAP2 SUB SWAP1 RETURN JUMPDEST PUSH1 0x1 DUP1 SLOAD PUSH2 0x24A SWAP1 PUSH2 0x11E4 JUMP JUMPDEST DUP1 PUSH1 0x1F ADD PUSH1 0x20 DUP1 SWAP2 DIV MUL PUSH1 0x20 ADD PUSH1 0x40 MLOAD SWAP1 DUP2 ADD PUSH1 0x40 MSTORE DUP1 SWAP3 SWAP2 SWAP1 DUP2 DUP2 MSTORE PUSH1 0x20 ADD DUP3 DUP1 SLOAD PUSH2 0x276 SWAP1 PUSH2 0x11E4 JUMP JUMPDEST DUP1 ISZERO PUSH2 0x2C3 JUMPI DUP1 PUSH1 0x1F LT PUSH2 0x298 JUMPI PUSH2 0x100 DUP1 DUP4 SLOAD DIV MUL DUP4 MSTORE SWAP2 PUSH1 0x20 ADD SWAP2 PUSH2 0x2C3 JUMP JUMPDEST DUP3 ADD SWAP2 SWAP1 PUSH1 0x0 MSTORE PUSH1 0x20 PUSH1 0x0 KECCAK256 SWAP1 JUMPDEST DUP2 SLOAD DUP2 MSTORE SWAP1 PUSH1 0x1 ADD SWAP1 PUSH1 0x20 ADD DUP1 DUP4 GT PUSH2 0x2A6 JUMPI DUP3 SWAP1 SUB PUSH1 0x1F AND DUP3 ADD SWAP2 JUMPDEST POP POP POP POP POP DUP2 JUMP JUMPDEST DUP1 PUSH1 0x6 PUSH1 0x0 CALLER PUSH20 0xFFFFFFFFFFFFFFFFFFFFFFFFFFFFFFFFFFFFFFFF AND PUSH20 0xFFFFFFFFFFFFFFFFFFFFFFFFFFFFFFFFFFFFFFFF AND DUP2 MSTORE PUSH1 0x20 ADD SWAP1 DUP2 MSTORE PUSH1 0x20 ADD PUSH1 0x0 KECCAK256 PUSH1 0x0 DUP5 PUSH20 0xFFFFFFFFFFFFFFFFFFFFFFFFFFFFFFFFFFFFFFFF AND PUSH20 0xFFFFFFFFFFFFFFFFFFFFFFFFFFFFFFFFFFFFFFFF AND DUP2 MSTORE PUSH1 0x20 ADD SWAP1 DUP2 MSTORE PUSH1 0x20 ADD PUSH1 0x0 KECCAK256 DUP2 SWAP1 SSTORE POP DUP2 PUSH20 0xFFFFFFFFFFFFFFFFFFFFFFFFFFFFFFFFFFFFFFFF AND CALLER PUSH20 0xFFFFFFFFFFFFFFFFFFFFFFFFFFFFFFFFFFFFFFFF AND PUSH32 0x8C5BE1E5EBEC7D5BD14F71427D1E84F3DD0314C0F7B2291E5B200AC8C7C3B925 DUP4 PUSH1 0x40 MLOAD PUSH2 0x3A9 SWAP2 SWAP1 PUSH2 0x108C JUMP JUMPDEST PUSH1 0x40 MLOAD DUP1 SWAP2 SUB SWAP1 LOG3 POP POP JUMP JUMPDEST PUSH1 0x0 SLOAD DUP2 JUMP JUMPDEST PUSH1 0x0 DUP2 GT PUSH2 0x3FE JUMPI PUSH1 0x40 MLOAD PUSH32 0x8C379A000000000000000000000000000000000000000000000000000000000 DUP2 MSTORE PUSH1 0x4 ADD PUSH2 0x3F5 SWAP1 PUSH2 0x102C JUMP JUMPDEST PUSH1 0x40 MLOAD DUP1 SWAP2 SUB SWAP1 REVERT JUMPDEST DUP1 PUSH1 0x5 PUSH1 0x0 DUP6 PUSH20 0xFFFFFFFFFFFFFFFFFFFFFFFFFFFFFFFFFFFFFFFF AND PUSH20 0xFFFFFFFFFFFFFFFFFFFFFFFFFFFFFFFFFFFFFFFF AND DUP2 MSTORE PUSH1 0x20 ADD SWAP1 DUP2 MSTORE PUSH1 0x20 ADD PUSH1 0x0 KECCAK256 SLOAD LT ISZERO PUSH2 0x480 JUMPI PUSH1 0x40 MLOAD PUSH32 0x8C379A000000000000000000000000000000000000000000000000000000000 DUP2 MSTORE PUSH1 0x4 ADD PUSH2 0x477 SWAP1 PUSH2 0x100C JUMP JUMPDEST PUSH1 0x40 MLOAD DUP1 SWAP2 SUB SWAP1 REVERT JUMPDEST DUP1 PUSH1 0x6 PUSH1 0x0 DUP6 PUSH20 0xFFFFFFFFFFFFFFFFFFFFFFFFFFFFFFFFFFFFFFFF AND PUSH20 0xFFFFFFFFFFFFFFFFFFFFFFFFFFFFFFFFFFFFFFFF AND DUP2 MSTORE PUSH1 0x20 ADD SWAP1 DUP2 MSTORE PUSH1 0x20 ADD PUSH1 0x0 KECCAK256 PUSH1 0x0 CALLER PUSH20 0xFFFFFFFFFFFFFFFFFFFFFFFFFFFFFFFFFFFFFFFF AND PUSH20 0xFFFFFFFFFFFFFFFFFFFFFFFFFFFFFFFFFFFFFFFF AND DUP2 MSTORE PUSH1 0x20 ADD SWAP1 DUP2 MSTORE PUSH1 0x20 ADD PUSH1 0x0 KECCAK256 SLOAD LT ISZERO PUSH2 0x53F JUMPI PUSH1 0x40 MLOAD PUSH32 0x8C379A000000000000000000000000000000000000000000000000000000000 DUP2 MSTORE PUSH1 0x4 ADD PUSH2 0x536 SWAP1 PUSH2 0x104C JUMP JUMPDEST PUSH1 0x40 MLOAD DUP1 SWAP2 SUB SWAP1 REVERT JUMPDEST PUSH2 0x591 DUP2 PUSH1 0x5 PUSH1 0x0 DUP6 PUSH20 0xFFFFFFFFFFFFFFFFFFFFFFFFFFFFFFFFFFFFFFFF AND PUSH20 0xFFFFFFFFFFFFFFFFFFFFFFFFFFFFFFFFFFFFFFFF AND DUP2 MSTORE PUSH1 0x20 ADD SWAP1 DUP2 MSTORE PUSH1 0x20 ADD PUSH1 0x0 KECCAK256 SLOAD PUSH2 0xD82 SWAP1 SWAP2 SWAP1 PUSH4 0xFFFFFFFF AND JUMP JUMPDEST PUSH1 0x5 PUSH1 0x0 DUP5 PUSH20 0xFFFFFFFFFFFFFFFFFFFFFFFFFFFFFFFFFFFFFFFF AND PUSH20 0xFFFFFFFFFFFFFFFFFFFFFFFFFFFFFFFFFFFFFFFF AND DUP2 MSTORE PUSH1 0x20 ADD SWAP1 DUP2 MSTORE PUSH1 0x20 ADD PUSH1 0x0 KECCAK256 DUP2 SWAP1 SSTORE POP PUSH2 0x626 DUP2 PUSH1 0x5 PUSH1 0x0 DUP7 PUSH20 0xFFFFFFFFFFFFFFFFFFFFFFFFFFFFFFFFFFFFFFFF AND PUSH20 0xFFFFFFFFFFFFFFFFFFFFFFFFFFFFFFFFFFFFFFFF AND DUP2 MSTORE PUSH1 0x20 ADD SWAP1 DUP2 MSTORE PUSH1 0x20 ADD PUSH1 0x0 KECCAK256 SLOAD PUSH2 0xDAA SWAP1 SWAP2 SWAP1 PUSH4 0xFFFFFFFF AND JUMP JUMPDEST PUSH1 0x5 PUSH1 0x0 DUP6 PUSH20 0xFFFFFFFFFFFFFFFFFFFFFFFFFFFFFFFFFFFFFFFF AND PUSH20 0xFFFFFFFFFFFFFFFFFFFFFFFFFFFFFFFFFFFFFFFF AND DUP2 MSTORE PUSH1 0x20 ADD SWAP1 DUP2 MSTORE PUSH1 0x20 ADD PUSH1 0x0 KECCAK256 DUP2 SWAP1 SSTORE POP PUSH2 0x6F8 DUP2 PUSH1 0x6 PUSH1 0x0 DUP7 PUSH20 0xFFFFFFFFFFFFFFFFFFFFFFFFFFFFFFFFFFFFFFFF AND PUSH20 0xFFFFFFFFFFFFFFFFFFFFFFFFFFFFFFFFFFFFFFFF AND DUP2 MSTORE PUSH1 0x20 ADD SWAP1 DUP2 MSTORE PUSH1 0x20 ADD PUSH1 0x0 KECCAK256 PUSH1 0x0 CALLER PUSH20 0xFFFFFFFFFFFFFFFFFFFFFFFFFFFFFFFFFFFFFFFF AND PUSH20 0xFFFFFFFFFFFFFFFFFFFFFFFFFFFFFFFFFFFFFFFF AND DUP2 MSTORE PUSH1 0x20 ADD SWAP1 DUP2 MSTORE PUSH1 0x20 ADD PUSH1 0x0 KECCAK256 SLOAD PUSH2 0xDAA SWAP1 SWAP2 SWAP1 PUSH4 0xFFFFFFFF AND JUMP JUMPDEST PUSH1 0x6 PUSH1 0x0 DUP6 PUSH20 0xFFFFFFFFFFFFFFFFFFFFFFFFFFFFFFFFFFFFFFFF AND PUSH20 0xFFFFFFFFFFFFFFFFFFFFFFFFFFFFFFFFFFFFFFFF AND DUP2 MSTORE PUSH1 0x20 ADD SWAP1 DUP2 MSTORE PUSH1 0x20 ADD PUSH1 0x0 KECCAK256 PUSH1 0x0 CALLER PUSH20 0xFFFFFFFFFFFFFFFFFFFFFFFFFFFFFFFFFFFFFFFF AND PUSH20 0xFFFFFFFFFFFFFFFFFFFFFFFFFFFFFFFFFFFFFFFF AND DUP2 MSTORE PUSH1 0x20 ADD SWAP1 DUP2 MSTORE PUSH1 0x20 ADD PUSH1 0x0 KECCAK256 DUP2 SWAP1 SSTORE POP DUP2 PUSH20 0xFFFFFFFFFFFFFFFFFFFFFFFFFFFFFFFFFFFFFFFF AND DUP4 PUSH20 0xFFFFFFFFFFFFFFFFFFFFFFFFFFFFFFFFFFFFFFFF AND PUSH32 0xDDF252AD1BE2C89B69C2B068FC378DAA952BA7F163C4A11628F55A4DF523B3EF DUP4 PUSH1 0x40 MLOAD PUSH2 0x7D5 SWAP2 SWAP1 PUSH2 0x108C JUMP JUMPDEST PUSH1 0x40 MLOAD DUP1 SWAP2 SUB SWAP1 LOG3 POP POP POP JUMP JUMPDEST PUSH1 0x2 PUSH1 0x0 SWAP1 SLOAD SWAP1 PUSH2 0x100 EXP SWAP1 DIV PUSH1 0xFF AND DUP2 JUMP JUMPDEST PUSH1 0x0 PUSH20 0xFFFFFFFFFFFFFFFFFFFFFFFFFFFFFFFFFFFFFFFF AND DUP3 PUSH20 0xFFFFFFFFFFFFFFFFFFFFFFFFFFFFFFFFFFFFFFFF AND EQ ISZERO PUSH2 0x865 JUMPI PUSH1 0x40 MLOAD PUSH32 0x8C379A000000000000000000000000000000000000000000000000000000000 DUP2 MSTORE PUSH1 0x4 ADD PUSH2 0x85C SWAP1 PUSH2 0x106C JUMP JUMPDEST PUSH1 0x40 MLOAD DUP1 SWAP2 SUB SWAP1 REVERT JUMPDEST PUSH2 0x871 PUSH1 0x0 DUP4 DUP4 PUSH2 0xDD3 JUMP JUMPDEST DUP1 PUSH1 0x0 DUP1 DUP3 DUP3 SLOAD PUSH2 0x882 SWAP2 SWAP1 PUSH2 0x10DE JUMP JUMPDEST SWAP3 POP POP DUP2 SWAP1 SSTORE POP DUP1 PUSH1 0x5 PUSH1 0x0 DUP5 PUSH20 0xFFFFFFFFFFFFFFFFFFFFFFFFFFFFFFFFFFFFFFFF AND PUSH20 0xFFFFFFFFFFFFFFFFFFFFFFFFFFFFFFFFFFFFFFFF AND DUP2 MSTORE PUSH1 0x20 ADD SWAP1 DUP2 MSTORE PUSH1 0x20 ADD PUSH1 0x0 KECCAK256 PUSH1 0x0 DUP3 DUP3 SLOAD PUSH2 0x8D8 SWAP2 SWAP1 PUSH2 0x10DE JUMP JUMPDEST SWAP3 POP POP DUP2 SWAP1 SSTORE POP DUP2 PUSH20 0xFFFFFFFFFFFFFFFFFFFFFFFFFFFFFFFFFFFFFFFF AND PUSH1 0x0 PUSH20 0xFFFFFFFFFFFFFFFFFFFFFFFFFFFFFFFFFFFFFFFF AND PUSH32 0xDDF252AD1BE2C89B69C2B068FC378DAA952BA7F163C4A11628F55A4DF523B3EF DUP4 PUSH1 0x40 MLOAD PUSH2 0x93D SWAP2 SWAP1 PUSH2 0x108C JUMP JUMPDEST PUSH1 0x40 MLOAD DUP1 SWAP2 SUB SWAP1 LOG3 PUSH2 0x951 PUSH1 0x0 DUP4 DUP4 PUSH2 0xDD8 JUMP JUMPDEST POP POP JUMP JUMPDEST PUSH1 0x4 DUP1 SLOAD PUSH2 0x962 SWAP1 PUSH2 0x11E4 JUMP JUMPDEST DUP1 PUSH1 0x1F ADD PUSH1 0x20 DUP1 SWAP2 DIV MUL PUSH1 0x20 ADD PUSH1 0x40 MLOAD SWAP1 DUP2 ADD PUSH1 0x40 MSTORE DUP1 SWAP3 SWAP2 SWAP1 DUP2 DUP2 MSTORE PUSH1 0x20 ADD DUP3 DUP1 SLOAD PUSH2 0x98E SWAP1 PUSH2 0x11E4 JUMP JUMPDEST DUP1 ISZERO PUSH2 0x9DB JUMPI DUP1 PUSH1 0x1F LT PUSH2 0x9B0 JUMPI PUSH2 0x100 DUP1 DUP4 SLOAD DIV MUL DUP4 MSTORE SWAP2 PUSH1 0x20 ADD SWAP2 PUSH2 0x9DB JUMP JUMPDEST DUP3 ADD SWAP2 SWAP1 PUSH1 0x0 MSTORE PUSH1 0x20 PUSH1 0x0 KECCAK256 SWAP1 JUMPDEST DUP2 SLOAD DUP2 MSTORE SWAP1 PUSH1 0x1 ADD SWAP1 PUSH1 0x20 ADD DUP1 DUP4 GT PUSH2 0x9BE JUMPI DUP3 SWAP1 SUB PUSH1 0x1F AND DUP3 ADD SWAP2 JUMPDEST POP POP POP POP POP DUP2 JUMP JUMPDEST PUSH1 0x0 PUSH1 0x5 PUSH1 0x0 DUP4 PUSH20 0xFFFFFFFFFFFFFFFFFFFFFFFFFFFFFFFFFFFFFFFF AND PUSH20 0xFFFFFFFFFFFFFFFFFFFFFFFFFFFFFFFFFFFFFFFF AND DUP2 MSTORE PUSH1 0x20 ADD SWAP1 DUP2 MSTORE PUSH1 0x20 ADD PUSH1 0x0 KECCAK256 SLOAD SWAP1 POP SWAP2 SWAP1 POP JUMP JUMPDEST PUSH1 0x3 DUP1 SLOAD PUSH2 0xA39 SWAP1 PUSH2 0x11E4 JUMP JUMPDEST DUP1 PUSH1 0x1F ADD PUSH1 0x20 DUP1 SWAP2 DIV MUL PUSH1 0x20 ADD PUSH1 0x40 MLOAD SWAP1 DUP2 ADD PUSH1 0x40 MSTORE DUP1 SWAP3 SWAP2 SWAP1 DUP2 DUP2 MSTORE PUSH1 0x20 ADD DUP3 DUP1 SLOAD PUSH2 0xA65 SWAP1 PUSH2 0x11E4 JUMP JUMPDEST DUP1 ISZERO PUSH2 0xAB2 JUMPI DUP1 PUSH1 0x1F LT PUSH2 0xA87 JUMPI PUSH2 0x100 DUP1 DUP4 SLOAD DIV MUL DUP4 MSTORE SWAP2 PUSH1 0x20 ADD SWAP2 PUSH2 0xAB2 JUMP JUMPDEST DUP3 ADD SWAP2 SWAP1 PUSH1 0x0 MSTORE PUSH1 0x20 PUSH1 0x0 KECCAK256 SWAP1 JUMPDEST DUP2 SLOAD DUP2 MSTORE SWAP1 PUSH1 0x1 ADD SWAP1 PUSH1 0x20 ADD DUP1 DUP4 GT PUSH2 0xA95 JUMPI DUP3 SWAP1 SUB PUSH1 0x1F AND DUP3 ADD SWAP2 JUMPDEST POP POP POP POP POP DUP2 JUMP JUMPDEST PUSH1 0x40 PUSH1 0x4 DUP2 PUSH2 0xAC9 SWAP2 SWAP1 PUSH2 0x10DE JUMP JUMPDEST PUSH1 0x0 CALLDATASIZE SWAP1 POP EQ PUSH2 0xADC JUMPI PUSH2 0xADB PUSH2 0x1216 JUMP JUMPDEST JUMPDEST PUSH1 0x0 DUP3 GT PUSH2 0xB1F JUMPI PUSH1 0x40 MLOAD PUSH32 0x8C379A000000000000000000000000000000000000000000000000000000000 DUP2 MSTORE PUSH1 0x4 ADD PUSH2 0xB16 SWAP1 PUSH2 0x102C JUMP JUMPDEST PUSH1 0x40 MLOAD DUP1 SWAP2 SUB SWAP1 REVERT JUMPDEST PUSH2 0xBB0 PUSH1 0x5 PUSH1 0x0 CALLER PUSH20 0xFFFFFFFFFFFFFFFFFFFFFFFFFFFFFFFFFFFFFFFF AND PUSH20 0xFFFFFFFFFFFFFFFFFFFFFFFFFFFFFFFFFFFFFFFF AND DUP2 MSTORE PUSH1 0x20 ADD SWAP1 DUP2 MSTORE PUSH1 0x20 ADD PUSH1 0x0 KECCAK256 SLOAD PUSH1 0x5 PUSH1 0x0 CALLER PUSH20 0xFFFFFFFFFFFFFFFFFFFFFFFFFFFFFFFFFFFFFFFF AND PUSH20 0xFFFFFFFFFFFFFFFFFFFFFFFFFFFFFFFFFFFFFFFF AND DUP2 MSTORE PUSH1 0x20 ADD SWAP1 DUP2 MSTORE PUSH1 0x20 ADD PUSH1 0x0 KECCAK256 SLOAD PUSH2 0xDAA SWAP1 SWAP2 SWAP1 PUSH4 0xFFFFFFFF AND JUMP JUMPDEST PUSH1 0x5 PUSH1 0x0 CALLER PUSH20 0xFFFFFFFFFFFFFFFFFFFFFFFFFFFFFFFFFFFFFFFF AND PUSH20 0xFFFFFFFFFFFFFFFFFFFFFFFFFFFFFFFFFFFFFFFF AND DUP2 MSTORE PUSH1 0x20 ADD SWAP1 DUP2 MSTORE PUSH1 0x20 ADD PUSH1 0x0 KECCAK256 DUP2 SWAP1 SSTORE POP PUSH2 0xC45 DUP3 PUSH1 0x5 PUSH1 0x0 DUP7 PUSH20 0xFFFFFFFFFFFFFFFFFFFFFFFFFFFFFFFFFFFFFFFF AND PUSH20 0xFFFFFFFFFFFFFFFFFFFFFFFFFFFFFFFFFFFFFFFF AND DUP2 MSTORE PUSH1 0x20 ADD SWAP1 DUP2 MSTORE PUSH1 0x20 ADD PUSH1 0x0 KECCAK256 SLOAD PUSH2 0xD82 SWAP1 SWAP2 SWAP1 PUSH4 0xFFFFFFFF AND JUMP JUMPDEST PUSH1 0x5 PUSH1 0x0 DUP6 PUSH20 0xFFFFFFFFFFFFFFFFFFFFFFFFFFFFFFFFFFFFFFFF AND PUSH20 0xFFFFFFFFFFFFFFFFFFFFFFFFFFFFFFFFFFFFFFFF AND DUP2 MSTORE PUSH1 0x20 ADD SWAP1 DUP2 MSTORE PUSH1 0x20 ADD PUSH1 0x0 KECCAK256 DUP2 SWAP1 SSTORE POP DUP3 PUSH20 0xFFFFFFFFFFFFFFFFFFFFFFFFFFFFFFFFFFFFFFFF AND CALLER PUSH20 0xFFFFFFFFFFFFFFFFFFFFFFFFFFFFFFFFFFFFFFFF AND PUSH32 0xDDF252AD1BE2C89B69C2B068FC378DAA952BA7F163C4A11628F55A4DF523B3EF DUP5 PUSH1 0x40 MLOAD PUSH2 0xCE5 SWAP2 SWAP1 PUSH2 0x108C JUMP JUMPDEST PUSH1 0x40 MLOAD DUP1 SWAP2 SUB SWAP1 LOG3 POP POP POP JUMP JUMPDEST PUSH1 0x0 DUP1 SLOAD SWAP1 POP SWAP1 JUMP JUMPDEST PUSH1 0x0 PUSH1 0x6 PUSH1 0x0 DUP4 PUSH20 0xFFFFFFFFFFFFFFFFFFFFFFFFFFFFFFFFFFFFFFFF AND PUSH20 0xFFFFFFFFFFFFFFFFFFFFFFFFFFFFFFFFFFFFFFFF AND DUP2 MSTORE PUSH1 0x20 ADD SWAP1 DUP2 MSTORE PUSH1 0x20 ADD PUSH1 0x0 KECCAK256 PUSH1 0x0 DUP5 PUSH20 0xFFFFFFFFFFFFFFFFFFFFFFFFFFFFFFFFFFFFFFFF AND PUSH20 0xFFFFFFFFFFFFFFFFFFFFFFFFFFFFFFFFFFFFFFFF AND DUP2 MSTORE PUSH1 0x20 ADD SWAP1 DUP2 MSTORE PUSH1 0x20 ADD PUSH1 0x0 KECCAK256 SLOAD SWAP1 POP SWAP3 SWAP2 POP POP JUMP JUMPDEST PUSH1 0x0 DUP1 DUP3 DUP5 PUSH2 0xD91 SWAP2 SWAP1 PUSH2 0x10DE JUMP JUMPDEST SWAP1 POP DUP4 DUP2 LT ISZERO PUSH2 0xDA0 JUMPI PUSH1 0x0 DUP1 REVERT JUMPDEST DUP1 SWAP2 POP POP SWAP3 SWAP2 POP POP JUMP JUMPDEST PUSH1 0x0 DUP3 DUP3 GT ISZERO PUSH2 0xDB9 JUMPI PUSH1 0x0 DUP1 REVERT JUMPDEST PUSH1 0x0 DUP3 DUP5 PUSH2 0xDC7 SWAP2 SWAP1 PUSH2 0x1134 JUMP JUMPDEST SWAP1 POP DUP1 SWAP2 POP POP SWAP3 SWAP2 POP POP JUMP JUMPDEST POP POP POP JUMP JUMPDEST POP POP POP JUMP JUMPDEST PUSH1 0x0 DUP2 CALLDATALOAD SWAP1 POP PUSH2 0xDEC DUP2 PUSH2 0x135D JUMP JUMPDEST SWAP3 SWAP2 POP POP JUMP JUMPDEST PUSH1 0x0 DUP2 CALLDATALOAD SWAP1 POP PUSH2 0xE01 DUP2 PUSH2 0x1374 JUMP JUMPDEST SWAP3 SWAP2 POP POP JUMP JUMPDEST PUSH1 0x0 PUSH1 0x20 DUP3 DUP5 SUB SLT ISZERO PUSH2 0xE1D JUMPI PUSH2 0xE1C PUSH2 0x12A3 JUMP JUMPDEST JUMPDEST PUSH1 0x0 PUSH2 0xE2B DUP5 DUP3 DUP6 ADD PUSH2 0xDDD JUMP JUMPDEST SWAP2 POP POP SWAP3 SWAP2 POP POP JUMP JUMPDEST PUSH1 0x0 DUP1 PUSH1 0x40 DUP4 DUP6 SUB SLT ISZERO PUSH2 0xE4B JUMPI PUSH2 0xE4A PUSH2 0x12A3 JUMP JUMPDEST JUMPDEST PUSH1 0x0 PUSH2 0xE59 DUP6 DUP3 DUP7 ADD PUSH2 0xDDD JUMP JUMPDEST SWAP3 POP POP PUSH1 0x20 PUSH2 0xE6A DUP6 DUP3 DUP7 ADD PUSH2 0xDDD JUMP JUMPDEST SWAP2 POP POP SWAP3 POP SWAP3 SWAP1 POP JUMP JUMPDEST PUSH1 0x0 DUP1 PUSH1 0x0 PUSH1 0x60 DUP5 DUP7 SUB SLT ISZERO PUSH2 0xE8D JUMPI PUSH2 0xE8C PUSH2 0x12A3 JUMP JUMPDEST JUMPDEST PUSH1 0x0 PUSH2 0xE9B DUP7 DUP3 DUP8 ADD PUSH2 0xDDD JUMP JUMPDEST SWAP4 POP POP PUSH1 0x20 PUSH2 0xEAC DUP7 DUP3 DUP8 ADD PUSH2 0xDDD JUMP JUMPDEST SWAP3 POP POP PUSH1 0x40 PUSH2 0xEBD DUP7 DUP3 DUP8 ADD PUSH2 0xDF2 JUMP JUMPDEST SWAP2 POP POP SWAP3 POP SWAP3 POP SWAP3 JUMP JUMPDEST PUSH1 0x0 DUP1 PUSH1 0x40 DUP4 DUP6 SUB SLT ISZERO PUSH2 0xEDE JUMPI PUSH2 0xEDD PUSH2 0x12A3 JUMP JUMPDEST JUMPDEST PUSH1 0x0 PUSH2 0xEEC DUP6 DUP3 DUP7 ADD PUSH2 0xDDD JUMP JUMPDEST SWAP3 POP POP PUSH1 0x20 PUSH2 0xEFD DUP6 DUP3 DUP7 ADD PUSH2 0xDF2 JUMP JUMPDEST SWAP2 POP POP SWAP3 POP SWAP3 SWAP1 POP JUMP JUMPDEST PUSH1 0x0 PUSH2 0xF12 DUP3 PUSH2 0x10C2 JUMP JUMPDEST PUSH2 0xF1C DUP2 DUP6 PUSH2 0x10CD JUMP JUMPDEST SWAP4 POP PUSH2 0xF2C DUP2 DUP6 PUSH1 0x20 DUP7 ADD PUSH2 0x11B1 JUMP JUMPDEST PUSH2 0xF35 DUP2 PUSH2 0x12A8 JUMP JUMPDEST DUP5 ADD SWAP2 POP POP SWAP3 SWAP2 POP POP JUMP JUMPDEST PUSH1 0x0 PUSH2 0xF4D PUSH1 0x10 DUP4 PUSH2 0x10CD JUMP JUMPDEST SWAP2 POP PUSH2 0xF58 DUP3 PUSH2 0x12B9 JUMP JUMPDEST PUSH1 0x20 DUP3 ADD SWAP1 POP SWAP2 SWAP1 POP JUMP JUMPDEST PUSH1 0x0 PUSH2 0xF70 PUSH1 0xB DUP4 PUSH2 0x10CD JUMP JUMPDEST SWAP2 POP PUSH2 0xF7B DUP3 PUSH2 0x12E2 JUMP JUMPDEST PUSH1 0x20 DUP3 ADD SWAP1 POP SWAP2 SWAP1 POP JUMP JUMPDEST PUSH1 0x0 PUSH2 0xF93 PUSH1 0xE DUP4 PUSH2 0x10CD JUMP JUMPDEST SWAP2 POP PUSH2 0xF9E DUP3 PUSH2 0x130B JUMP JUMPDEST PUSH1 0x20 DUP3 ADD SWAP1 POP SWAP2 SWAP1 POP JUMP JUMPDEST PUSH1 0x0 PUSH2 0xFB6 PUSH1 0x1F DUP4 PUSH2 0x10CD JUMP JUMPDEST SWAP2 POP PUSH2 0xFC1 DUP3 PUSH2 0x1334 JUMP JUMPDEST PUSH1 0x20 DUP3 ADD SWAP1 POP SWAP2 SWAP1 POP JUMP JUMPDEST PUSH2 0xFD5 DUP2 PUSH2 0x119A JUMP JUMPDEST DUP3 MSTORE POP POP JUMP JUMPDEST PUSH2 0xFE4 DUP2 PUSH2 0x11A4 JUMP JUMPDEST DUP3 MSTORE POP POP JUMP JUMPDEST PUSH1 0x0 PUSH1 0x20 DUP3 ADD SWAP1 POP DUP2 DUP2 SUB PUSH1 0x0 DUP4 ADD MSTORE PUSH2 0x1004 DUP2 DUP5 PUSH2 0xF07 JUMP JUMPDEST SWAP1 POP SWAP3 SWAP2 POP POP JUMP JUMPDEST PUSH1 0x0 PUSH1 0x20 DUP3 ADD SWAP1 POP DUP2 DUP2 SUB PUSH1 0x0 DUP4 ADD MSTORE PUSH2 0x1025 DUP2 PUSH2 0xF40 JUMP JUMPDEST SWAP1 POP SWAP2 SWAP1 POP JUMP JUMPDEST PUSH1 0x0 PUSH1 0x20 DUP3 ADD SWAP1 POP DUP2 DUP2 SUB PUSH1 0x0 DUP4 ADD MSTORE PUSH2 0x1045 DUP2 PUSH2 0xF63 JUMP JUMPDEST SWAP1 POP SWAP2 SWAP1 POP JUMP JUMPDEST PUSH1 0x0 PUSH1 0x20 DUP3 ADD SWAP1 POP DUP2 DUP2 SUB PUSH1 0x0 DUP4 ADD MSTORE PUSH2 0x1065 DUP2 PUSH2 0xF86 JUMP JUMPDEST SWAP1 POP SWAP2 SWAP1 POP JUMP JUMPDEST PUSH1 0x0 PUSH1 0x20 DUP3 ADD SWAP1 POP DUP2 DUP2 SUB PUSH1 0x0 DUP4 ADD MSTORE PUSH2 0x1085 DUP2 PUSH2 0xFA9 JUMP JUMPDEST SWAP1 POP SWAP2 SWAP1 POP JUMP JUMPDEST PUSH1 0x0 PUSH1 0x20 DUP3 ADD SWAP1 POP PUSH2 0x10A1 PUSH1 0x0 DUP4 ADD DUP5 PUSH2 0xFCC JUMP JUMPDEST SWAP3 SWAP2 POP POP JUMP JUMPDEST PUSH1 0x0 PUSH1 0x20 DUP3 ADD SWAP1 POP PUSH2 0x10BC PUSH1 0x0 DUP4 ADD DUP5 PUSH2 0xFDB JUMP JUMPDEST SWAP3 SWAP2 POP POP JUMP JUMPDEST PUSH1 0x0 DUP2 MLOAD SWAP1 POP SWAP2 SWAP1 POP JUMP JUMPDEST PUSH1 0x0 DUP3 DUP3 MSTORE PUSH1 0x20 DUP3 ADD SWAP1 POP SWAP3 SWAP2 POP POP JUMP JUMPDEST PUSH1 0x0 PUSH2 0x10E9 DUP3 PUSH2 0x119A JUMP JUMPDEST SWAP2 POP PUSH2 0x10F4 DUP4 PUSH2 0x119A JUMP JUMPDEST SWAP3 POP DUP3 PUSH32 0xFFFFFFFFFFFFFFFFFFFFFFFFFFFFFFFFFFFFFFFFFFFFFFFFFFFFFFFFFFFFFFFF SUB DUP3 GT ISZERO PUSH2 0x1129 JUMPI PUSH2 0x1128 PUSH2 0x1245 JUMP JUMPDEST JUMPDEST DUP3 DUP3 ADD SWAP1 POP SWAP3 SWAP2 POP POP JUMP JUMPDEST PUSH1 0x0 PUSH2 0x113F DUP3 PUSH2 0x119A JUMP JUMPDEST SWAP2 POP PUSH2 0x114A DUP4 PUSH2 0x119A JUMP JUMPDEST SWAP3 POP DUP3 DUP3 LT ISZERO PUSH2 0x115D JUMPI PUSH2 0x115C PUSH2 0x1245 JUMP JUMPDEST JUMPDEST DUP3 DUP3 SUB SWAP1 POP SWAP3 SWAP2 POP POP JUMP JUMPDEST PUSH1 0x0 PUSH2 0x1173 DUP3 PUSH2 0x117A JUMP JUMPDEST SWAP1 POP SWAP2 SWAP1 POP JUMP JUMPDEST PUSH1 0x0 PUSH20 0xFFFFFFFFFFFFFFFFFFFFFFFFFFFFFFFFFFFFFFFF DUP3 AND SWAP1 POP SWAP2 SWAP1 POP JUMP JUMPDEST PUSH1 0x0 DUP2 SWAP1 POP SWAP2 SWAP1 POP JUMP JUMPDEST PUSH1 0x0 PUSH1 0xFF DUP3 AND SWAP1 POP SWAP2 SWAP1 POP JUMP JUMPDEST PUSH1 0x0 JUMPDEST DUP4 DUP2 LT ISZERO PUSH2 0x11CF JUMPI DUP1 DUP3 ADD MLOAD DUP2 DUP5 ADD MSTORE PUSH1 0x20 DUP2 ADD SWAP1 POP PUSH2 0x11B4 JUMP JUMPDEST DUP4 DUP2 GT ISZERO PUSH2 0x11DE JUMPI PUSH1 0x0 DUP5 DUP5 ADD MSTORE JUMPDEST POP POP POP POP JUMP JUMPDEST PUSH1 0x0 PUSH1 0x2 DUP3 DIV SWAP1 POP PUSH1 0x1 DUP3 AND DUP1 PUSH2 0x11FC JUMPI PUSH1 0x7F DUP3 AND SWAP2 POP JUMPDEST PUSH1 0x20 DUP3 LT DUP2 EQ ISZERO PUSH2 0x1210 JUMPI PUSH2 0x120F PUSH2 0x1274 JUMP JUMPDEST JUMPDEST POP SWAP2 SWAP1 POP JUMP JUMPDEST PUSH32 0x4E487B7100000000000000000000000000000000000000000000000000000000 PUSH1 0x0 MSTORE PUSH1 0x1 PUSH1 0x4 MSTORE PUSH1 0x24 PUSH1 0x0 REVERT JUMPDEST PUSH32 0x4E487B7100000000000000000000000000000000000000000000000000000000 PUSH1 0x0 MSTORE PUSH1 0x11 PUSH1 0x4 MSTORE PUSH1 0x24 PUSH1 0x0 REVERT JUMPDEST PUSH32 0x4E487B7100000000000000000000000000000000000000000000000000000000 PUSH1 0x0 MSTORE PUSH1 0x22 PUSH1 0x4 MSTORE PUSH1 0x24 PUSH1 0x0 REVERT JUMPDEST PUSH1 0x0 DUP1 REVERT JUMPDEST PUSH1 0x0 PUSH1 0x1F NOT PUSH1 0x1F DUP4 ADD AND SWAP1 POP SWAP2 SWAP1 POP JUMP JUMPDEST PUSH32 0x42616C616E6365203C20616D6F756E7400000000000000000000000000000000 PUSH1 0x0 DUP3 ADD MSTORE POP JUMP JUMPDEST PUSH32 0x416D6F756E74203C3D2030000000000000000000000000000000000000000000 PUSH1 0x0 DUP3 ADD MSTORE POP JUMP JUMPDEST PUSH32 0x446F6E277420616C6C6F7765642E000000000000000000000000000000000000 PUSH1 0x0 DUP3 ADD MSTORE POP JUMP JUMPDEST PUSH32 0x45524332303A206D696E7420746F20746865207A65726F206164647265737300 PUSH1 0x0 DUP3 ADD MSTORE POP JUMP JUMPDEST PUSH2 0x1366 DUP2 PUSH2 0x1168 JUMP JUMPDEST DUP2 EQ PUSH2 0x1371 JUMPI PUSH1 0x0 DUP1 REVERT JUMPDEST POP JUMP JUMPDEST PUSH2 0x137D DUP2 PUSH2 0x119A JUMP JUMPDEST DUP2 EQ PUSH2 0x1388 JUMPI PUSH1 0x0 DUP1 REVERT JUMPDEST POP JUMP INVALID LOG2 PUSH5 0x6970667358 0x22 SLT KECCAK256 DUP3 COINBASE SAR 0xBE PUSH16 0x3AE499865557CE42C20EE33A03CCF641 0xE1 ADD 0xAA 0xCD CREATE2 GT SWAP5 0xEF 0xE9 0x27 NUMBER PUSH5 0x736F6C6343 STOP ADDMOD SMOD STOP CALLER "
				},
				"gasEstimates": {
					"creation": {
						"codeDepositCost": "1097200",
						"executionCost": "infinite",
						"totalCost": "infinite"
					},
					"external": {
						"addProposals(address[],string[])": "infinite",
						"addVote(address)": "infinite",
						"addVoters(address[])": "infinite",
						"balanceAndAmount()": "infinite",
						"getTotalSupply()": "infinite",
						"totalVotesFor(address)": "infinite",
						"vote(address)": "infinite"
					}
				},
				"methodIdentifiers": {
					"addProposals(address[],string[])": "633fff16",
					"addVote(address)": "6cea0e46",
					"addVoters(address[])": "8203373a",
					"balanceAndAmount()": "21214986",
					"getTotalSupply()": "c4e41b22",
					"totalVotesFor(address)": "4041ef54",
					"vote(address)": "6dd7d8ea"
				}
			},
			"storageLayout": {
				"storage": [
					{
						"astId": 482,
						"contract": "contracts/Voting.sol:Voting",
						"label": "startTime",
						"offset": 0,
						"slot": "0",
						"type": "t_uint256"
					},
					{
						"astId": 484,
						"contract": "contracts/Voting.sol:Voting",
						"label": "endTime",
						"offset": 0,
						"slot": "1",
						"type": "t_uint256"
					},
					{
						"astId": 488,
						"contract": "contracts/Voting.sol:Voting",
						"label": "voters",
						"offset": 0,
						"slot": "2",
						"type": "t_mapping(t_address,t_bool)"
					},
					{
						"astId": 492,
						"contract": "contracts/Voting.sol:Voting",
						"label": "proposals",
						"offset": 0,
						"slot": "3",
						"type": "t_mapping(t_address,t_string_storage)"
					},
					{
						"astId": 494,
						"contract": "contracts/Voting.sol:Voting",
						"label": "chairperson",
						"offset": 0,
						"slot": "4",
						"type": "t_address"
					},
					{
						"astId": 501,
						"contract": "contracts/Voting.sol:Voting",
						"label": "token",
						"offset": 0,
						"slot": "5",
						"type": "t_contract(Token)477"
					}
				],
				"types": {
					"t_address": {
						"encoding": "inplace",
						"label": "address",
						"numberOfBytes": "20"
					},
					"t_bool": {
						"encoding": "inplace",
						"label": "bool",
						"numberOfBytes": "1"
					},
					"t_contract(Token)477": {
						"encoding": "inplace",
						"label": "contract Token",
						"numberOfBytes": "20"
					},
					"t_mapping(t_address,t_bool)": {
						"encoding": "mapping",
						"key": "t_address",
						"label": "mapping(address => bool)",
						"numberOfBytes": "32",
						"value": "t_bool"
					},
					"t_mapping(t_address,t_string_storage)": {
						"encoding": "mapping",
						"key": "t_address",
						"label": "mapping(address => string)",
						"numberOfBytes": "32",
						"value": "t_string_storage"
					},
					"t_string_storage": {
						"encoding": "bytes",
						"label": "string",
						"numberOfBytes": "32"
					},
					"t_uint256": {
						"encoding": "inplace",
						"label": "uint256",
						"numberOfBytes": "32"
					}
				}
			},
			"userdoc": {
				"kind": "user",
				"methods": {},
				"version": 1
			}
		}
	}
}