{
	"contracts/ERC20Standard.sol": {
		"ERC20Standard": {
			"abi": [
				{
					"anonymous": false,
					"inputs": [
						{
							"indexed": true,
							"internalType": "address",
							"name": "_owner",
							"type": "address"
						},
						{
							"indexed": true,
							"internalType": "address",
							"name": "_spender",
							"type": "address"
						},
						{
							"indexed": false,
							"internalType": "uint256",
							"name": "_value",
							"type": "uint256"
						}
					],
					"name": "Approval",
					"type": "event"
				},
				{
					"anonymous": false,
					"inputs": [
						{
							"indexed": true,
							"internalType": "address",
							"name": "_from",
							"type": "address"
						},
						{
							"indexed": true,
							"internalType": "address",
							"name": "_to",
							"type": "address"
						},
						{
							"indexed": false,
							"internalType": "uint256",
							"name": "_value",
							"type": "uint256"
						}
					],
					"name": "Transfer",
					"type": "event"
				},
				{
					"inputs": [
						{
							"internalType": "address",
							"name": "_spender",
							"type": "address"
						},
						{
							"internalType": "address",
							"name": "_owner",
							"type": "address"
						}
					],
					"name": "allowance",
					"outputs": [
						{
							"internalType": "uint256",
							"name": "balance",
							"type": "uint256"
						}
					],
					"stateMutability": "view",
					"type": "function"
				},
				{
					"inputs": [
						{
							"internalType": "address",
							"name": "_spender",
							"type": "address"
						},
						{
							"internalType": "uint256",
							"name": "_value",
							"type": "uint256"
						}
					],
					"name": "approve",
					"outputs": [],
					"stateMutability": "nonpayable",
					"type": "function"
				},
				{
					"inputs": [
						{
							"internalType": "address",
							"name": "_owner",
							"type": "address"
						}
					],
					"name": "balanceOf",
					"outputs": [
						{
							"internalType": "uint256",
							"name": "balance",
							"type": "uint256"
						}
					],
					"stateMutability": "view",
					"type": "function"
				},
				{
					"inputs": [],
					"name": "decimals",
					"outputs": [
						{
							"internalType": "uint8",
							"name": "",
							"type": "uint8"
						}
					],
					"stateMutability": "view",
					"type": "function"
				},
				{
					"inputs": [],
					"name": "getTotalSupply",
					"outputs": [
						{
							"internalType": "uint256",
							"name": "",
							"type": "uint256"
						}
					],
					"stateMutability": "view",
					"type": "function"
				},
				{
					"inputs": [
						{
							"internalType": "address",
							"name": "account",
							"type": "address"
						},
						{
							"internalType": "uint256",
							"name": "amount",
							"type": "uint256"
						}
					],
					"name": "mint",
					"outputs": [],
					"stateMutability": "nonpayable",
					"type": "function"
				},
				{
					"inputs": [],
					"name": "name",
					"outputs": [
						{
							"internalType": "string",
							"name": "",
							"type": "string"
						}
					],
					"stateMutability": "view",
					"type": "function"
				},
				{
					"inputs": [],
					"name": "symbol",
					"outputs": [
						{
							"internalType": "string",
							"name": "",
							"type": "string"
						}
					],
					"stateMutability": "view",
					"type": "function"
				},
				{
					"inputs": [],
					"name": "totalSupply",
					"outputs": [
						{
							"internalType": "uint256",
							"name": "",
							"type": "uint256"
						}
					],
					"stateMutability": "view",
					"type": "function"
				},
				{
					"inputs": [
						{
							"internalType": "address",
							"name": "_recipient",
							"type": "address"
						},
						{
							"internalType": "uint256",
							"name": "_value",
							"type": "uint256"
						}
					],
					"name": "transfer",
					"outputs": [],
					"stateMutability": "nonpayable",
					"type": "function"
				},
				{
					"inputs": [
						{
							"internalType": "address",
							"name": "_from",
							"type": "address"
						},
						{
							"internalType": "address",
							"name": "_to",
							"type": "address"
						},
						{
							"internalType": "uint256",
							"name": "_value",
							"type": "uint256"
						}
					],
					"name": "transferFrom",
					"outputs": [],
					"stateMutability": "nonpayable",
					"type": "function"
				},
				{
					"inputs": [],
					"name": "version",
					"outputs": [
						{
							"internalType": "string",
							"name": "",
							"type": "string"
						}
					],
					"stateMutability": "view",
					"type": "function"
				}
			],
			"devdoc": {
				"kind": "dev",
				"methods": {},
				"version": 1
			},
			"evm": {
				"assembly": "    /* \"contracts/ERC20Standard.sol\":918:3643  contract ERC20Standard {\r... */\n  mstore(0x40, 0x80)\n  callvalue\n  dup1\n  iszero\n  tag_1\n  jumpi\n  0x00\n  dup1\n  revert\ntag_1:\n  pop\n  dataSize(sub_0)\n  dup1\n  dataOffset(sub_0)\n  0x00\n  codecopy\n  0x00\n  return\nstop\n\nsub_0: assembly {\n        /* \"contracts/ERC20Standard.sol\":918:3643  contract ERC20Standard {\r... */\n      mstore(0x40, 0x80)\n      callvalue\n      dup1\n      iszero\n      tag_1\n      jumpi\n      0x00\n      dup1\n      revert\n    tag_1:\n      pop\n      jumpi(tag_2, lt(calldatasize, 0x04))\n      shr(0xe0, calldataload(0x00))\n      dup1\n      0x54fd4d50\n      gt\n      tag_15\n      jumpi\n      dup1\n      0x54fd4d50\n      eq\n      tag_9\n      jumpi\n      dup1\n      0x70a08231\n      eq\n      tag_10\n      jumpi\n      dup1\n      0x95d89b41\n      eq\n      tag_11\n      jumpi\n      dup1\n      0xa9059cbb\n      eq\n      tag_12\n      jumpi\n      dup1\n      0xc4e41b22\n      eq\n      tag_13\n      jumpi\n      dup1\n      0xdd62ed3e\n      eq\n      tag_14\n      jumpi\n      jump(tag_2)\n    tag_15:\n      dup1\n      0x06fdde03\n      eq\n      tag_3\n      jumpi\n      dup1\n      0x095ea7b3\n      eq\n      tag_4\n      jumpi\n      dup1\n      0x18160ddd\n      eq\n      tag_5\n      jumpi\n      dup1\n      0x23b872dd\n      eq\n      tag_6\n      jumpi\n      dup1\n      0x313ce567\n      eq\n      tag_7\n      jumpi\n      dup1\n      0x40c10f19\n      eq\n      tag_8\n      jumpi\n    tag_2:\n      0x00\n      dup1\n      revert\n        /* \"contracts/ERC20Standard.sol\":1005:1023  string public name */\n    tag_3:\n      tag_16\n      tag_17\n      jump\t// in\n    tag_16:\n      mload(0x40)\n      tag_18\n      swap2\n      swap1\n      tag_19\n      jump\t// in\n    tag_18:\n      mload(0x40)\n      dup1\n      swap2\n      sub\n      swap1\n      return\n        /* \"contracts/ERC20Standard.sol\":2732:2883  function approve(address _spender, uint _value) public {\r... */\n    tag_4:\n      tag_20\n      0x04\n      dup1\n      calldatasize\n      sub\n      dup2\n      add\n      swap1\n      tag_21\n      swap2\n      swap1\n      tag_22\n      jump\t// in\n    tag_21:\n      tag_23\n      jump\t// in\n    tag_20:\n      stop\n        /* \"contracts/ERC20Standard.sol\":975:998  uint public totalSupply */\n    tag_5:\n      tag_24\n      tag_25\n      jump\t// in\n    tag_24:\n      mload(0x40)\n      tag_26\n      swap2\n      swap1\n      tag_27\n      jump\t// in\n    tag_26:\n      mload(0x40)\n      dup1\n      swap2\n      sub\n      swap1\n      return\n        /* \"contracts/ERC20Standard.sol\":1879:2336  function transferFrom(address _from, address _to, uint _value) public {\r... */\n    tag_6:\n      tag_28\n      0x04\n      dup1\n      calldatasize\n      sub\n      dup2\n      add\n      swap1\n      tag_29\n      swap2\n      swap1\n      tag_30\n      jump\t// in\n    tag_29:\n      tag_31\n      jump\t// in\n    tag_28:\n      stop\n        /* \"contracts/ERC20Standard.sol\":1027:1048  uint8 public decimals */\n    tag_7:\n      tag_32\n      tag_33\n      jump\t// in\n    tag_32:\n      mload(0x40)\n      tag_34\n      swap2\n      swap1\n      tag_35\n      jump\t// in\n    tag_34:\n      mload(0x40)\n      dup1\n      swap2\n      sub\n      swap1\n      return\n        /* \"contracts/ERC20Standard.sol\":2341:2727  function mint(address account, uint256 amount) public {\r... */\n    tag_8:\n      tag_36\n      0x04\n      dup1\n      calldatasize\n      sub\n      dup2\n      add\n      swap1\n      tag_37\n      swap2\n      swap1\n      tag_22\n      jump\t// in\n    tag_37:\n      tag_38\n      jump\t// in\n    tag_36:\n      stop\n        /* \"contracts/ERC20Standard.sol\":1076:1097  string public version */\n    tag_9:\n      tag_39\n      tag_40\n      jump\t// in\n    tag_39:\n      mload(0x40)\n      tag_41\n      swap2\n      swap1\n      tag_19\n      jump\t// in\n    tag_41:\n      mload(0x40)\n      dup1\n      swap2\n      sub\n      swap1\n      return\n        /* \"contracts/ERC20Standard.sol\":1345:1448  function balanceOf(address _owner) public view returns (uint balance) {\r... */\n    tag_10:\n      tag_42\n      0x04\n      dup1\n      calldatasize\n      sub\n      dup2\n      add\n      swap1\n      tag_43\n      swap2\n      swap1\n      tag_44\n      jump\t// in\n    tag_43:\n      tag_45\n      jump\t// in\n    tag_42:\n      mload(0x40)\n      tag_46\n      swap2\n      swap1\n      tag_27\n      jump\t// in\n    tag_46:\n      mload(0x40)\n      dup1\n      swap2\n      sub\n      swap1\n      return\n        /* \"contracts/ERC20Standard.sol\":1052:1072  string public symbol */\n    tag_11:\n      tag_47\n      tag_48\n      jump\t// in\n    tag_47:\n      mload(0x40)\n      tag_49\n      swap2\n      swap1\n      tag_19\n      jump\t// in\n    tag_49:\n      mload(0x40)\n      dup1\n      swap2\n      sub\n      swap1\n      return\n        /* \"contracts/ERC20Standard.sol\":1539:1874  function transfer(address _recipient, uint _value) public onlyPayloadSize(2*32) {\r... */\n    tag_12:\n      tag_50\n      0x04\n      dup1\n      calldatasize\n      sub\n      dup2\n      add\n      swap1\n      tag_51\n      swap2\n      swap1\n      tag_22\n      jump\t// in\n    tag_51:\n      tag_52\n      jump\t// in\n    tag_50:\n      stop\n        /* \"contracts/ERC20Standard.sol\":1453:1534  function getTotalSupply() public view returns (uint) {\r... */\n    tag_13:\n      tag_53\n      tag_54\n      jump\t// in\n    tag_53:\n      mload(0x40)\n      tag_55\n      swap2\n      swap1\n      tag_27\n      jump\t// in\n    tag_55:\n      mload(0x40)\n      dup1\n      swap2\n      sub\n      swap1\n      return\n        /* \"contracts/ERC20Standard.sol\":2888:3018  function allowance(address _spender, address _owner) public view returns (uint balance) {\r... */\n    tag_14:\n      tag_56\n      0x04\n      dup1\n      calldatasize\n      sub\n      dup2\n      add\n      swap1\n      tag_57\n      swap2\n      swap1\n      tag_58\n      jump\t// in\n    tag_57:\n      tag_59\n      jump\t// in\n    tag_56:\n      mload(0x40)\n      tag_60\n      swap2\n      swap1\n      tag_27\n      jump\t// in\n    tag_60:\n      mload(0x40)\n      dup1\n      swap2\n      sub\n      swap1\n      return\n        /* \"contracts/ERC20Standard.sol\":1005:1023  string public name */\n    tag_17:\n      0x01\n      dup1\n      sload\n      tag_61\n      swap1\n      tag_62\n      jump\t// in\n    tag_61:\n      dup1\n      0x1f\n      add\n      0x20\n      dup1\n      swap2\n      div\n      mul\n      0x20\n      add\n      mload(0x40)\n      swap1\n      dup2\n      add\n      0x40\n      mstore\n      dup1\n      swap3\n      swap2\n      swap1\n      dup2\n      dup2\n      mstore\n      0x20\n      add\n      dup3\n      dup1\n      sload\n      tag_63\n      swap1\n      tag_62\n      jump\t// in\n    tag_63:\n      dup1\n      iszero\n      tag_64\n      jumpi\n      dup1\n      0x1f\n      lt\n      tag_65\n      jumpi\n      0x0100\n      dup1\n      dup4\n      sload\n      div\n      mul\n      dup4\n      mstore\n      swap2\n      0x20\n      add\n      swap2\n      jump(tag_64)\n    tag_65:\n      dup3\n      add\n      swap2\n      swap1\n      0x00\n      mstore\n      keccak256(0x00, 0x20)\n      swap1\n    tag_66:\n      dup2\n      sload\n      dup2\n      mstore\n      swap1\n      0x01\n      add\n      swap1\n      0x20\n      add\n      dup1\n      dup4\n      gt\n      tag_66\n      jumpi\n      dup3\n      swap1\n      sub\n      0x1f\n      and\n      dup3\n      add\n      swap2\n    tag_64:\n      pop\n      pop\n      pop\n      pop\n      pop\n      dup2\n      jump\t// out\n        /* \"contracts/ERC20Standard.sol\":2732:2883  function approve(address _spender, uint _value) public {\r... */\n    tag_23:\n        /* \"contracts/ERC20Standard.sol\":2824:2830  _value */\n      dup1\n        /* \"contracts/ERC20Standard.sol\":2792:2799  allowed */\n      0x06\n        /* \"contracts/ERC20Standard.sol\":2792:2811  allowed[msg.sender] */\n      0x00\n        /* \"contracts/ERC20Standard.sol\":2800:2810  msg.sender */\n      caller\n        /* \"contracts/ERC20Standard.sol\":2792:2811  allowed[msg.sender] */\n      0xffffffffffffffffffffffffffffffffffffffff\n      and\n      0xffffffffffffffffffffffffffffffffffffffff\n      and\n      dup2\n      mstore\n      0x20\n      add\n      swap1\n      dup2\n      mstore\n      0x20\n      add\n      0x00\n      keccak256\n        /* \"contracts/ERC20Standard.sol\":2792:2821  allowed[msg.sender][_spender] */\n      0x00\n        /* \"contracts/ERC20Standard.sol\":2812:2820  _spender */\n      dup5\n        /* \"contracts/ERC20Standard.sol\":2792:2821  allowed[msg.sender][_spender] */\n      0xffffffffffffffffffffffffffffffffffffffff\n      and\n      0xffffffffffffffffffffffffffffffffffffffff\n      and\n      dup2\n      mstore\n      0x20\n      add\n      swap1\n      dup2\n      mstore\n      0x20\n      add\n      0x00\n      keccak256\n        /* \"contracts/ERC20Standard.sol\":2792:2830  allowed[msg.sender][_spender] = _value */\n      dup2\n      swap1\n      sstore\n      pop\n        /* \"contracts/ERC20Standard.sol\":2861:2869  _spender */\n      dup2\n        /* \"contracts/ERC20Standard.sol\":2840:2878  Approval(msg.sender, _spender, _value) */\n      0xffffffffffffffffffffffffffffffffffffffff\n      and\n        /* \"contracts/ERC20Standard.sol\":2849:2859  msg.sender */\n      caller\n        /* \"contracts/ERC20Standard.sol\":2840:2878  Approval(msg.sender, _spender, _value) */\n      0xffffffffffffffffffffffffffffffffffffffff\n      and\n      0x8c5be1e5ebec7d5bd14f71427d1e84f3dd0314c0f7b2291e5b200ac8c7c3b925\n        /* \"contracts/ERC20Standard.sol\":2871:2877  _value */\n      dup4\n        /* \"contracts/ERC20Standard.sol\":2840:2878  Approval(msg.sender, _spender, _value) */\n      mload(0x40)\n      tag_68\n      swap2\n      swap1\n      tag_27\n      jump\t// in\n    tag_68:\n      mload(0x40)\n      dup1\n      swap2\n      sub\n      swap1\n      log3\n        /* \"contracts/ERC20Standard.sol\":2732:2883  function approve(address _spender, uint _value) public {\r... */\n      pop\n      pop\n      jump\t// out\n        /* \"contracts/ERC20Standard.sol\":975:998  uint public totalSupply */\n    tag_25:\n      sload(0x00)\n      dup2\n      jump\t// out\n        /* \"contracts/ERC20Standard.sol\":1879:2336  function transferFrom(address _from, address _to, uint _value) public {\r... */\n    tag_31:\n        /* \"contracts/ERC20Standard.sol\":1971:1972  0 */\n      0x00\n        /* \"contracts/ERC20Standard.sol\":1962:1968  _value */\n      dup2\n        /* \"contracts/ERC20Standard.sol\":1962:1972  _value > 0 */\n      gt\n        /* \"contracts/ERC20Standard.sol\":1954:1988  require(_value > 0, \"Amount <= 0\") */\n      tag_70\n      jumpi\n      mload(0x40)\n      0x08c379a000000000000000000000000000000000000000000000000000000000\n      dup2\n      mstore\n      0x04\n      add\n      tag_71\n      swap1\n      tag_72\n      jump\t// in\n    tag_71:\n      mload(0x40)\n      dup1\n      swap2\n      sub\n      swap1\n      revert\n    tag_70:\n        /* \"contracts/ERC20Standard.sol\":2023:2029  _value */\n      dup1\n        /* \"contracts/ERC20Standard.sol\":2004:2012  balances */\n      0x05\n        /* \"contracts/ERC20Standard.sol\":2004:2019  balances[_from] */\n      0x00\n        /* \"contracts/ERC20Standard.sol\":2013:2018  _from */\n      dup6\n        /* \"contracts/ERC20Standard.sol\":2004:2019  balances[_from] */\n      0xffffffffffffffffffffffffffffffffffffffff\n      and\n      0xffffffffffffffffffffffffffffffffffffffff\n      and\n      dup2\n      mstore\n      0x20\n      add\n      swap1\n      dup2\n      mstore\n      0x20\n      add\n      0x00\n      keccak256\n      sload\n        /* \"contracts/ERC20Standard.sol\":2004:2029  balances[_from] >= _value */\n      lt\n      iszero\n        /* \"contracts/ERC20Standard.sol\":1996:2050  require(balances[_from] >= _value, \"Balance < amount\") */\n      tag_73\n      jumpi\n      mload(0x40)\n      0x08c379a000000000000000000000000000000000000000000000000000000000\n      dup2\n      mstore\n      0x04\n      add\n      tag_74\n      swap1\n      tag_75\n      jump\t// in\n    tag_74:\n      mload(0x40)\n      dup1\n      swap2\n      sub\n      swap1\n      revert\n    tag_73:\n        /* \"contracts/ERC20Standard.sol\":2093:2099  _value */\n      dup1\n        /* \"contracts/ERC20Standard.sol\":2063:2070  allowed */\n      0x06\n        /* \"contracts/ERC20Standard.sol\":2063:2077  allowed[_from] */\n      0x00\n        /* \"contracts/ERC20Standard.sol\":2071:2076  _from */\n      dup6\n        /* \"contracts/ERC20Standard.sol\":2063:2077  allowed[_from] */\n      0xffffffffffffffffffffffffffffffffffffffff\n      and\n      0xffffffffffffffffffffffffffffffffffffffff\n      and\n      dup2\n      mstore\n      0x20\n      add\n      swap1\n      dup2\n      mstore\n      0x20\n      add\n      0x00\n      keccak256\n        /* \"contracts/ERC20Standard.sol\":2063:2089  allowed[_from][msg.sender] */\n      0x00\n        /* \"contracts/ERC20Standard.sol\":2078:2088  msg.sender */\n      caller\n        /* \"contracts/ERC20Standard.sol\":2063:2089  allowed[_from][msg.sender] */\n      0xffffffffffffffffffffffffffffffffffffffff\n      and\n      0xffffffffffffffffffffffffffffffffffffffff\n      and\n      dup2\n      mstore\n      0x20\n      add\n      swap1\n      dup2\n      mstore\n      0x20\n      add\n      0x00\n      keccak256\n      sload\n        /* \"contracts/ERC20Standard.sol\":2063:2099  allowed[_from][msg.sender] >= _value */\n      lt\n      iszero\n        /* \"contracts/ERC20Standard.sol\":2055:2118  require(allowed[_from][msg.sender] >= _value, \"Don't allowed.\") */\n      tag_76\n      jumpi\n      mload(0x40)\n      0x08c379a000000000000000000000000000000000000000000000000000000000\n      dup2\n      mstore\n      0x04\n      add\n      tag_77\n      swap1\n      tag_78\n      jump\t// in\n    tag_77:\n      mload(0x40)\n      dup1\n      swap2\n      sub\n      swap1\n      revert\n    tag_76:\n        /* \"contracts/ERC20Standard.sol\":2139:2164  balances[_to].add(_value) */\n      tag_79\n        /* \"contracts/ERC20Standard.sol\":2157:2163  _value */\n      dup2\n        /* \"contracts/ERC20Standard.sol\":2139:2147  balances */\n      0x05\n        /* \"contracts/ERC20Standard.sol\":2139:2152  balances[_to] */\n      0x00\n        /* \"contracts/ERC20Standard.sol\":2148:2151  _to */\n      dup6\n        /* \"contracts/ERC20Standard.sol\":2139:2152  balances[_to] */\n      0xffffffffffffffffffffffffffffffffffffffff\n      and\n      0xffffffffffffffffffffffffffffffffffffffff\n      and\n      dup2\n      mstore\n      0x20\n      add\n      swap1\n      dup2\n      mstore\n      0x20\n      add\n      0x00\n      keccak256\n      sload\n        /* \"contracts/ERC20Standard.sol\":2139:2156  balances[_to].add */\n      tag_80\n      swap1\n        /* \"contracts/ERC20Standard.sol\":2139:2164  balances[_to].add(_value) */\n      swap2\n      swap1\n      0xffffffff\n      and\n      jump\t// in\n    tag_79:\n        /* \"contracts/ERC20Standard.sol\":2123:2131  balances */\n      0x05\n        /* \"contracts/ERC20Standard.sol\":2123:2136  balances[_to] */\n      0x00\n        /* \"contracts/ERC20Standard.sol\":2132:2135  _to */\n      dup5\n        /* \"contracts/ERC20Standard.sol\":2123:2136  balances[_to] */\n      0xffffffffffffffffffffffffffffffffffffffff\n      and\n      0xffffffffffffffffffffffffffffffffffffffff\n      and\n      dup2\n      mstore\n      0x20\n      add\n      swap1\n      dup2\n      mstore\n      0x20\n      add\n      0x00\n      keccak256\n        /* \"contracts/ERC20Standard.sol\":2123:2164  balances[_to] = balances[_to].add(_value) */\n      dup2\n      swap1\n      sstore\n      pop\n        /* \"contracts/ERC20Standard.sol\":2187:2214  balances[_from].sub(_value) */\n      tag_81\n        /* \"contracts/ERC20Standard.sol\":2207:2213  _value */\n      dup2\n        /* \"contracts/ERC20Standard.sol\":2187:2195  balances */\n      0x05\n        /* \"contracts/ERC20Standard.sol\":2187:2202  balances[_from] */\n      0x00\n        /* \"contracts/ERC20Standard.sol\":2196:2201  _from */\n      dup7\n        /* \"contracts/ERC20Standard.sol\":2187:2202  balances[_from] */\n      0xffffffffffffffffffffffffffffffffffffffff\n      and\n      0xffffffffffffffffffffffffffffffffffffffff\n      and\n      dup2\n      mstore\n      0x20\n      add\n      swap1\n      dup2\n      mstore\n      0x20\n      add\n      0x00\n      keccak256\n      sload\n        /* \"contracts/ERC20Standard.sol\":2187:2206  balances[_from].sub */\n      tag_82\n      swap1\n        /* \"contracts/ERC20Standard.sol\":2187:2214  balances[_from].sub(_value) */\n      swap2\n      swap1\n      0xffffffff\n      and\n      jump\t// in\n    tag_81:\n        /* \"contracts/ERC20Standard.sol\":2169:2177  balances */\n      0x05\n        /* \"contracts/ERC20Standard.sol\":2169:2184  balances[_from] */\n      0x00\n        /* \"contracts/ERC20Standard.sol\":2178:2183  _from */\n      dup6\n        /* \"contracts/ERC20Standard.sol\":2169:2184  balances[_from] */\n      0xffffffffffffffffffffffffffffffffffffffff\n      and\n      0xffffffffffffffffffffffffffffffffffffffff\n      and\n      dup2\n      mstore\n      0x20\n      add\n      swap1\n      dup2\n      mstore\n      0x20\n      add\n      0x00\n      keccak256\n        /* \"contracts/ERC20Standard.sol\":2169:2214  balances[_from] = balances[_from].sub(_value) */\n      dup2\n      swap1\n      sstore\n      pop\n        /* \"contracts/ERC20Standard.sol\":2248:2286  allowed[_from][msg.sender].sub(_value) */\n      tag_83\n        /* \"contracts/ERC20Standard.sol\":2279:2285  _value */\n      dup2\n        /* \"contracts/ERC20Standard.sol\":2248:2255  allowed */\n      0x06\n        /* \"contracts/ERC20Standard.sol\":2248:2262  allowed[_from] */\n      0x00\n        /* \"contracts/ERC20Standard.sol\":2256:2261  _from */\n      dup7\n        /* \"contracts/ERC20Standard.sol\":2248:2262  allowed[_from] */\n      0xffffffffffffffffffffffffffffffffffffffff\n      and\n      0xffffffffffffffffffffffffffffffffffffffff\n      and\n      dup2\n      mstore\n      0x20\n      add\n      swap1\n      dup2\n      mstore\n      0x20\n      add\n      0x00\n      keccak256\n        /* \"contracts/ERC20Standard.sol\":2248:2274  allowed[_from][msg.sender] */\n      0x00\n        /* \"contracts/ERC20Standard.sol\":2263:2273  msg.sender */\n      caller\n        /* \"contracts/ERC20Standard.sol\":2248:2274  allowed[_from][msg.sender] */\n      0xffffffffffffffffffffffffffffffffffffffff\n      and\n      0xffffffffffffffffffffffffffffffffffffffff\n      and\n      dup2\n      mstore\n      0x20\n      add\n      swap1\n      dup2\n      mstore\n      0x20\n      add\n      0x00\n      keccak256\n      sload\n        /* \"contracts/ERC20Standard.sol\":2248:2278  allowed[_from][msg.sender].sub */\n      tag_82\n      swap1\n        /* \"contracts/ERC20Standard.sol\":2248:2286  allowed[_from][msg.sender].sub(_value) */\n      swap2\n      swap1\n      0xffffffff\n      and\n      jump\t// in\n    tag_83:\n        /* \"contracts/ERC20Standard.sol\":2219:2226  allowed */\n      0x06\n        /* \"contracts/ERC20Standard.sol\":2219:2233  allowed[_from] */\n      0x00\n        /* \"contracts/ERC20Standard.sol\":2227:2232  _from */\n      dup6\n        /* \"contracts/ERC20Standard.sol\":2219:2233  allowed[_from] */\n      0xffffffffffffffffffffffffffffffffffffffff\n      and\n      0xffffffffffffffffffffffffffffffffffffffff\n      and\n      dup2\n      mstore\n      0x20\n      add\n      swap1\n      dup2\n      mstore\n      0x20\n      add\n      0x00\n      keccak256\n        /* \"contracts/ERC20Standard.sol\":2219:2245  allowed[_from][msg.sender] */\n      0x00\n        /* \"contracts/ERC20Standard.sol\":2234:2244  msg.sender */\n      caller\n        /* \"contracts/ERC20Standard.sol\":2219:2245  allowed[_from][msg.sender] */\n      0xffffffffffffffffffffffffffffffffffffffff\n      and\n      0xffffffffffffffffffffffffffffffffffffffff\n      and\n      dup2\n      mstore\n      0x20\n      add\n      swap1\n      dup2\n      mstore\n      0x20\n      add\n      0x00\n      keccak256\n        /* \"contracts/ERC20Standard.sol\":2219:2286  allowed[_from][msg.sender] = allowed[_from][msg.sender].sub(_value) */\n      dup2\n      swap1\n      sstore\n      pop\n        /* \"contracts/ERC20Standard.sol\":2312:2315  _to */\n      dup2\n        /* \"contracts/ERC20Standard.sol\":2296:2324  Transfer(_from, _to, _value) */\n      0xffffffffffffffffffffffffffffffffffffffff\n      and\n        /* \"contracts/ERC20Standard.sol\":2305:2310  _from */\n      dup4\n        /* \"contracts/ERC20Standard.sol\":2296:2324  Transfer(_from, _to, _value) */\n      0xffffffffffffffffffffffffffffffffffffffff\n      and\n      0xddf252ad1be2c89b69c2b068fc378daa952ba7f163c4a11628f55a4df523b3ef\n        /* \"contracts/ERC20Standard.sol\":2317:2323  _value */\n      dup4\n        /* \"contracts/ERC20Standard.sol\":2296:2324  Transfer(_from, _to, _value) */\n      mload(0x40)\n      tag_84\n      swap2\n      swap1\n      tag_27\n      jump\t// in\n    tag_84:\n      mload(0x40)\n      dup1\n      swap2\n      sub\n      swap1\n      log3\n        /* \"contracts/ERC20Standard.sol\":1879:2336  function transferFrom(address _from, address _to, uint _value) public {\r... */\n      pop\n      pop\n      pop\n      jump\t// out\n        /* \"contracts/ERC20Standard.sol\":1027:1048  uint8 public decimals */\n    tag_33:\n      0x02\n      0x00\n      swap1\n      sload\n      swap1\n      0x0100\n      exp\n      swap1\n      div\n      0xff\n      and\n      dup2\n      jump\t// out\n        /* \"contracts/ERC20Standard.sol\":2341:2727  function mint(address account, uint256 amount) public {\r... */\n    tag_38:\n        /* \"contracts/ERC20Standard.sol\":2433:2434  0 */\n      0x00\n        /* \"contracts/ERC20Standard.sol\":2414:2435  account != address(0) */\n      0xffffffffffffffffffffffffffffffffffffffff\n      and\n        /* \"contracts/ERC20Standard.sol\":2414:2421  account */\n      dup3\n        /* \"contracts/ERC20Standard.sol\":2414:2435  account != address(0) */\n      0xffffffffffffffffffffffffffffffffffffffff\n      and\n      eq\n      iszero\n        /* \"contracts/ERC20Standard.sol\":2406:2471  require(account != address(0), \"ERC20: mint to the zero address\") */\n      tag_86\n      jumpi\n      mload(0x40)\n      0x08c379a000000000000000000000000000000000000000000000000000000000\n      dup2\n      mstore\n      0x04\n      add\n      tag_87\n      swap1\n      tag_88\n      jump\t// in\n    tag_87:\n      mload(0x40)\n      dup1\n      swap2\n      sub\n      swap1\n      revert\n    tag_86:\n        /* \"contracts/ERC20Standard.sol\":2484:2533  _beforeTokenTransfer(address(0), account, amount) */\n      tag_89\n        /* \"contracts/ERC20Standard.sol\":2513:2514  0 */\n      0x00\n        /* \"contracts/ERC20Standard.sol\":2517:2524  account */\n      dup4\n        /* \"contracts/ERC20Standard.sol\":2526:2532  amount */\n      dup4\n        /* \"contracts/ERC20Standard.sol\":2484:2504  _beforeTokenTransfer */\n      tag_90\n        /* \"contracts/ERC20Standard.sol\":2484:2533  _beforeTokenTransfer(address(0), account, amount) */\n      jump\t// in\n    tag_89:\n        /* \"contracts/ERC20Standard.sol\":2561:2567  amount */\n      dup1\n        /* \"contracts/ERC20Standard.sol\":2546:2557  totalSupply */\n      0x00\n      dup1\n        /* \"contracts/ERC20Standard.sol\":2546:2567  totalSupply += amount */\n      dup3\n      dup3\n      sload\n      tag_91\n      swap2\n      swap1\n      tag_92\n      jump\t// in\n    tag_91:\n      swap3\n      pop\n      pop\n      dup2\n      swap1\n      sstore\n      pop\n        /* \"contracts/ERC20Standard.sol\":2599:2605  amount */\n      dup1\n        /* \"contracts/ERC20Standard.sol\":2578:2586  balances */\n      0x05\n        /* \"contracts/ERC20Standard.sol\":2578:2595  balances[account] */\n      0x00\n        /* \"contracts/ERC20Standard.sol\":2587:2594  account */\n      dup5\n        /* \"contracts/ERC20Standard.sol\":2578:2595  balances[account] */\n      0xffffffffffffffffffffffffffffffffffffffff\n      and\n      0xffffffffffffffffffffffffffffffffffffffff\n      and\n      dup2\n      mstore\n      0x20\n      add\n      swap1\n      dup2\n      mstore\n      0x20\n      add\n      0x00\n      keccak256\n      0x00\n        /* \"contracts/ERC20Standard.sol\":2578:2605  balances[account] += amount */\n      dup3\n      dup3\n      sload\n      tag_93\n      swap2\n      swap1\n      tag_92\n      jump\t// in\n    tag_93:\n      swap3\n      pop\n      pop\n      dup2\n      swap1\n      sstore\n      pop\n        /* \"contracts/ERC20Standard.sol\":2642:2649  account */\n      dup2\n        /* \"contracts/ERC20Standard.sol\":2621:2658  Transfer(address(0), account, amount) */\n      0xffffffffffffffffffffffffffffffffffffffff\n      and\n        /* \"contracts/ERC20Standard.sol\":2638:2639  0 */\n      0x00\n        /* \"contracts/ERC20Standard.sol\":2621:2658  Transfer(address(0), account, amount) */\n      0xffffffffffffffffffffffffffffffffffffffff\n      and\n      0xddf252ad1be2c89b69c2b068fc378daa952ba7f163c4a11628f55a4df523b3ef\n        /* \"contracts/ERC20Standard.sol\":2651:2657  amount */\n      dup4\n        /* \"contracts/ERC20Standard.sol\":2621:2658  Transfer(address(0), account, amount) */\n      mload(0x40)\n      tag_94\n      swap2\n      swap1\n      tag_27\n      jump\t// in\n    tag_94:\n      mload(0x40)\n      dup1\n      swap2\n      sub\n      swap1\n      log3\n        /* \"contracts/ERC20Standard.sol\":2671:2719  _afterTokenTransfer(address(0), account, amount) */\n      tag_95\n        /* \"contracts/ERC20Standard.sol\":2699:2700  0 */\n      0x00\n        /* \"contracts/ERC20Standard.sol\":2703:2710  account */\n      dup4\n        /* \"contracts/ERC20Standard.sol\":2712:2718  amount */\n      dup4\n        /* \"contracts/ERC20Standard.sol\":2671:2690  _afterTokenTransfer */\n      tag_96\n        /* \"contracts/ERC20Standard.sol\":2671:2719  _afterTokenTransfer(address(0), account, amount) */\n      jump\t// in\n    tag_95:\n        /* \"contracts/ERC20Standard.sol\":2341:2727  function mint(address account, uint256 amount) public {\r... */\n      pop\n      pop\n      jump\t// out\n        /* \"contracts/ERC20Standard.sol\":1076:1097  string public version */\n    tag_40:\n      0x04\n      dup1\n      sload\n      tag_97\n      swap1\n      tag_62\n      jump\t// in\n    tag_97:\n      dup1\n      0x1f\n      add\n      0x20\n      dup1\n      swap2\n      div\n      mul\n      0x20\n      add\n      mload(0x40)\n      swap1\n      dup2\n      add\n      0x40\n      mstore\n      dup1\n      swap3\n      swap2\n      swap1\n      dup2\n      dup2\n      mstore\n      0x20\n      add\n      dup3\n      dup1\n      sload\n      tag_98\n      swap1\n      tag_62\n      jump\t// in\n    tag_98:\n      dup1\n      iszero\n      tag_99\n      jumpi\n      dup1\n      0x1f\n      lt\n      tag_100\n      jumpi\n      0x0100\n      dup1\n      dup4\n      sload\n      div\n      mul\n      dup4\n      mstore\n      swap2\n      0x20\n      add\n      swap2\n      jump(tag_99)\n    tag_100:\n      dup3\n      add\n      swap2\n      swap1\n      0x00\n      mstore\n      keccak256(0x00, 0x20)\n      swap1\n    tag_101:\n      dup2\n      sload\n      dup2\n      mstore\n      swap1\n      0x01\n      add\n      swap1\n      0x20\n      add\n      dup1\n      dup4\n      gt\n      tag_101\n      jumpi\n      dup3\n      swap1\n      sub\n      0x1f\n      and\n      dup3\n      add\n      swap2\n    tag_99:\n      pop\n      pop\n      pop\n      pop\n      pop\n      dup2\n      jump\t// out\n        /* \"contracts/ERC20Standard.sol\":1345:1448  function balanceOf(address _owner) public view returns (uint balance) {\r... */\n    tag_45:\n        /* \"contracts/ERC20Standard.sol\":1401:1413  uint balance */\n      0x00\n        /* \"contracts/ERC20Standard.sol\":1427:1435  balances */\n      0x05\n        /* \"contracts/ERC20Standard.sol\":1427:1443  balances[_owner] */\n      0x00\n        /* \"contracts/ERC20Standard.sol\":1436:1442  _owner */\n      dup4\n        /* \"contracts/ERC20Standard.sol\":1427:1443  balances[_owner] */\n      0xffffffffffffffffffffffffffffffffffffffff\n      and\n      0xffffffffffffffffffffffffffffffffffffffff\n      and\n      dup2\n      mstore\n      0x20\n      add\n      swap1\n      dup2\n      mstore\n      0x20\n      add\n      0x00\n      keccak256\n      sload\n        /* \"contracts/ERC20Standard.sol\":1420:1443  return balances[_owner] */\n      swap1\n      pop\n        /* \"contracts/ERC20Standard.sol\":1345:1448  function balanceOf(address _owner) public view returns (uint balance) {\r... */\n      swap2\n      swap1\n      pop\n      jump\t// out\n        /* \"contracts/ERC20Standard.sol\":1052:1072  string public symbol */\n    tag_48:\n      0x03\n      dup1\n      sload\n      tag_103\n      swap1\n      tag_62\n      jump\t// in\n    tag_103:\n      dup1\n      0x1f\n      add\n      0x20\n      dup1\n      swap2\n      div\n      mul\n      0x20\n      add\n      mload(0x40)\n      swap1\n      dup2\n      add\n      0x40\n      mstore\n      dup1\n      swap3\n      swap2\n      swap1\n      dup2\n      dup2\n      mstore\n      0x20\n      add\n      dup3\n      dup1\n      sload\n      tag_104\n      swap1\n      tag_62\n      jump\t// in\n    tag_104:\n      dup1\n      iszero\n      tag_105\n      jumpi\n      dup1\n      0x1f\n      lt\n      tag_106\n      jumpi\n      0x0100\n      dup1\n      dup4\n      sload\n      div\n      mul\n      dup4\n      mstore\n      swap2\n      0x20\n      add\n      swap2\n      jump(tag_105)\n    tag_106:\n      dup3\n      add\n      swap2\n      swap1\n      0x00\n      mstore\n      keccak256(0x00, 0x20)\n      swap1\n    tag_107:\n      dup2\n      sload\n      dup2\n      mstore\n      swap1\n      0x01\n      add\n      swap1\n      0x20\n      add\n      dup1\n      dup4\n      gt\n      tag_107\n      jumpi\n      dup3\n      swap1\n      sub\n      0x1f\n      and\n      dup3\n      add\n      swap2\n    tag_105:\n      pop\n      pop\n      pop\n      pop\n      pop\n      dup2\n      jump\t// out\n        /* \"contracts/ERC20Standard.sol\":1539:1874  function transfer(address _recipient, uint _value) public onlyPayloadSize(2*32) {\r... */\n    tag_52:\n        /* \"contracts/ERC20Standard.sol\":1613:1617  2*32 */\n      0x40\n        /* \"contracts/ERC20Standard.sol\":1326:1327  4 */\n      0x04\n        /* \"contracts/ERC20Standard.sol\":1319:1323  size */\n      dup2\n        /* \"contracts/ERC20Standard.sol\":1319:1327  size + 4 */\n      tag_109\n      swap2\n      swap1\n      tag_92\n      jump\t// in\n    tag_109:\n        /* \"contracts/ERC20Standard.sol\":1300:1308  msg.data */\n      0x00\n      calldatasize\n        /* \"contracts/ERC20Standard.sol\":1300:1315  msg.data.length */\n      swap1\n      pop\n        /* \"contracts/ERC20Standard.sol\":1300:1327  msg.data.length == size + 4 */\n      eq\n        /* \"contracts/ERC20Standard.sol\":1293:1328  assert(msg.data.length == size + 4) */\n      tag_110\n      jumpi\n      tag_111\n      tag_112\n      jump\t// in\n    tag_111:\n    tag_110:\n        /* \"contracts/ERC20Standard.sol\":1641:1642  0 */\n      0x00\n        /* \"contracts/ERC20Standard.sol\":1632:1638  _value */\n      dup3\n        /* \"contracts/ERC20Standard.sol\":1632:1642  _value > 0 */\n      gt\n        /* \"contracts/ERC20Standard.sol\":1624:1658  require(_value > 0, \"Amount <= 0\") */\n      tag_114\n      jumpi\n      mload(0x40)\n      0x08c379a000000000000000000000000000000000000000000000000000000000\n      dup2\n      mstore\n      0x04\n      add\n      tag_115\n      swap1\n      tag_72\n      jump\t// in\n    tag_115:\n      mload(0x40)\n      dup1\n      swap2\n      sub\n      swap1\n      revert\n    tag_114:\n        /* \"contracts/ERC20Standard.sol\":1691:1737  balances[msg.sender].sub(balances[msg.sender]) */\n      tag_116\n        /* \"contracts/ERC20Standard.sol\":1716:1724  balances */\n      0x05\n        /* \"contracts/ERC20Standard.sol\":1716:1736  balances[msg.sender] */\n      0x00\n        /* \"contracts/ERC20Standard.sol\":1725:1735  msg.sender */\n      caller\n        /* \"contracts/ERC20Standard.sol\":1716:1736  balances[msg.sender] */\n      0xffffffffffffffffffffffffffffffffffffffff\n      and\n      0xffffffffffffffffffffffffffffffffffffffff\n      and\n      dup2\n      mstore\n      0x20\n      add\n      swap1\n      dup2\n      mstore\n      0x20\n      add\n      0x00\n      keccak256\n      sload\n        /* \"contracts/ERC20Standard.sol\":1691:1699  balances */\n      0x05\n        /* \"contracts/ERC20Standard.sol\":1691:1711  balances[msg.sender] */\n      0x00\n        /* \"contracts/ERC20Standard.sol\":1700:1710  msg.sender */\n      caller\n        /* \"contracts/ERC20Standard.sol\":1691:1711  balances[msg.sender] */\n      0xffffffffffffffffffffffffffffffffffffffff\n      and\n      0xffffffffffffffffffffffffffffffffffffffff\n      and\n      dup2\n      mstore\n      0x20\n      add\n      swap1\n      dup2\n      mstore\n      0x20\n      add\n      0x00\n      keccak256\n      sload\n        /* \"contracts/ERC20Standard.sol\":1691:1715  balances[msg.sender].sub */\n      tag_82\n      swap1\n        /* \"contracts/ERC20Standard.sol\":1691:1737  balances[msg.sender].sub(balances[msg.sender]) */\n      swap2\n      swap1\n      0xffffffff\n      and\n      jump\t// in\n    tag_116:\n        /* \"contracts/ERC20Standard.sol\":1668:1676  balances */\n      0x05\n        /* \"contracts/ERC20Standard.sol\":1668:1688  balances[msg.sender] */\n      0x00\n        /* \"contracts/ERC20Standard.sol\":1677:1687  msg.sender */\n      caller\n        /* \"contracts/ERC20Standard.sol\":1668:1688  balances[msg.sender] */\n      0xffffffffffffffffffffffffffffffffffffffff\n      and\n      0xffffffffffffffffffffffffffffffffffffffff\n      and\n      dup2\n      mstore\n      0x20\n      add\n      swap1\n      dup2\n      mstore\n      0x20\n      add\n      0x00\n      keccak256\n        /* \"contracts/ERC20Standard.sol\":1668:1737  balances[msg.sender] = balances[msg.sender].sub(balances[msg.sender]) */\n      dup2\n      swap1\n      sstore\n      pop\n        /* \"contracts/ERC20Standard.sol\":1769:1801  balances[_recipient].add(_value) */\n      tag_117\n        /* \"contracts/ERC20Standard.sol\":1794:1800  _value */\n      dup3\n        /* \"contracts/ERC20Standard.sol\":1769:1777  balances */\n      0x05\n        /* \"contracts/ERC20Standard.sol\":1769:1789  balances[_recipient] */\n      0x00\n        /* \"contracts/ERC20Standard.sol\":1778:1788  _recipient */\n      dup7\n        /* \"contracts/ERC20Standard.sol\":1769:1789  balances[_recipient] */\n      0xffffffffffffffffffffffffffffffffffffffff\n      and\n      0xffffffffffffffffffffffffffffffffffffffff\n      and\n      dup2\n      mstore\n      0x20\n      add\n      swap1\n      dup2\n      mstore\n      0x20\n      add\n      0x00\n      keccak256\n      sload\n        /* \"contracts/ERC20Standard.sol\":1769:1793  balances[_recipient].add */\n      tag_80\n      swap1\n        /* \"contracts/ERC20Standard.sol\":1769:1801  balances[_recipient].add(_value) */\n      swap2\n      swap1\n      0xffffffff\n      and\n      jump\t// in\n    tag_117:\n        /* \"contracts/ERC20Standard.sol\":1746:1754  balances */\n      0x05\n        /* \"contracts/ERC20Standard.sol\":1746:1766  balances[_recipient] */\n      0x00\n        /* \"contracts/ERC20Standard.sol\":1755:1765  _recipient */\n      dup6\n        /* \"contracts/ERC20Standard.sol\":1746:1766  balances[_recipient] */\n      0xffffffffffffffffffffffffffffffffffffffff\n      and\n      0xffffffffffffffffffffffffffffffffffffffff\n      and\n      dup2\n      mstore\n      0x20\n      add\n      swap1\n      dup2\n      mstore\n      0x20\n      add\n      0x00\n      keccak256\n        /* \"contracts/ERC20Standard.sol\":1746:1801  balances[_recipient] = balances[_recipient].add(_value) */\n      dup2\n      swap1\n      sstore\n      pop\n        /* \"contracts/ERC20Standard.sol\":1835:1845  _recipient */\n      dup3\n        /* \"contracts/ERC20Standard.sol\":1814:1854  Transfer(msg.sender, _recipient, _value) */\n      0xffffffffffffffffffffffffffffffffffffffff\n      and\n        /* \"contracts/ERC20Standard.sol\":1823:1833  msg.sender */\n      caller\n        /* \"contracts/ERC20Standard.sol\":1814:1854  Transfer(msg.sender, _recipient, _value) */\n      0xffffffffffffffffffffffffffffffffffffffff\n      and\n      0xddf252ad1be2c89b69c2b068fc378daa952ba7f163c4a11628f55a4df523b3ef\n        /* \"contracts/ERC20Standard.sol\":1847:1853  _value */\n      dup5\n        /* \"contracts/ERC20Standard.sol\":1814:1854  Transfer(msg.sender, _recipient, _value) */\n      mload(0x40)\n      tag_118\n      swap2\n      swap1\n      tag_27\n      jump\t// in\n    tag_118:\n      mload(0x40)\n      dup1\n      swap2\n      sub\n      swap1\n      log3\n        /* \"contracts/ERC20Standard.sol\":1539:1874  function transfer(address _recipient, uint _value) public onlyPayloadSize(2*32) {\r... */\n      pop\n      pop\n      pop\n      jump\t// out\n        /* \"contracts/ERC20Standard.sol\":1453:1534  function getTotalSupply() public view returns (uint) {\r... */\n    tag_54:\n        /* \"contracts/ERC20Standard.sol\":1500:1504  uint */\n      0x00\n        /* \"contracts/ERC20Standard.sol\":1518:1529  totalSupply */\n      dup1\n      sload\n        /* \"contracts/ERC20Standard.sol\":1511:1529  return totalSupply */\n      swap1\n      pop\n        /* \"contracts/ERC20Standard.sol\":1453:1534  function getTotalSupply() public view returns (uint) {\r... */\n      swap1\n      jump\t// out\n        /* \"contracts/ERC20Standard.sol\":2888:3018  function allowance(address _spender, address _owner) public view returns (uint balance) {\r... */\n    tag_59:\n        /* \"contracts/ERC20Standard.sol\":2962:2974  uint balance */\n      0x00\n        /* \"contracts/ERC20Standard.sol\":2988:2995  allowed */\n      0x06\n        /* \"contracts/ERC20Standard.sol\":2988:3003  allowed[_owner] */\n      0x00\n        /* \"contracts/ERC20Standard.sol\":2996:3002  _owner */\n      dup4\n        /* \"contracts/ERC20Standard.sol\":2988:3003  allowed[_owner] */\n      0xffffffffffffffffffffffffffffffffffffffff\n      and\n      0xffffffffffffffffffffffffffffffffffffffff\n      and\n      dup2\n      mstore\n      0x20\n      add\n      swap1\n      dup2\n      mstore\n      0x20\n      add\n      0x00\n      keccak256\n        /* \"contracts/ERC20Standard.sol\":2988:3013  allowed[_owner][_spender] */\n      0x00\n        /* \"contracts/ERC20Standard.sol\":3004:3012  _spender */\n      dup5\n        /* \"contracts/ERC20Standard.sol\":2988:3013  allowed[_owner][_spender] */\n      0xffffffffffffffffffffffffffffffffffffffff\n      and\n      0xffffffffffffffffffffffffffffffffffffffff\n      and\n      dup2\n      mstore\n      0x20\n      add\n      swap1\n      dup2\n      mstore\n      0x20\n      add\n      0x00\n      keccak256\n      sload\n        /* \"contracts/ERC20Standard.sol\":2981:3013  return allowed[_owner][_spender] */\n      swap1\n      pop\n        /* \"contracts/ERC20Standard.sol\":2888:3018  function allowance(address _spender, address _owner) public view returns (uint balance) {\r... */\n      swap3\n      swap2\n      pop\n      pop\n      jump\t// out\n        /* \"contracts/ERC20Standard.sol\":629:779  function add(uint256 a, uint256 b) internal pure returns (uint256) {\r... */\n    tag_80:\n        /* \"contracts/ERC20Standard.sol\":687:694  uint256 */\n      0x00\n        /* \"contracts/ERC20Standard.sol\":707:716  uint256 c */\n      dup1\n        /* \"contracts/ERC20Standard.sol\":723:724  b */\n      dup3\n        /* \"contracts/ERC20Standard.sol\":719:720  a */\n      dup5\n        /* \"contracts/ERC20Standard.sol\":719:724  a + b */\n      tag_122\n      swap2\n      swap1\n      tag_92\n      jump\t// in\n    tag_122:\n        /* \"contracts/ERC20Standard.sol\":707:724  uint256 c = a + b */\n      swap1\n      pop\n        /* \"contracts/ERC20Standard.sol\":748:749  a */\n      dup4\n        /* \"contracts/ERC20Standard.sol\":743:744  c */\n      dup2\n        /* \"contracts/ERC20Standard.sol\":743:749  c >= a */\n      lt\n      iszero\n        /* \"contracts/ERC20Standard.sol\":735:750  require(c >= a) */\n      tag_123\n      jumpi\n      0x00\n      dup1\n      revert\n    tag_123:\n        /* \"contracts/ERC20Standard.sol\":770:771  c */\n      dup1\n        /* \"contracts/ERC20Standard.sol\":763:771  return c */\n      swap2\n      pop\n      pop\n        /* \"contracts/ERC20Standard.sol\":629:779  function add(uint256 a, uint256 b) internal pure returns (uint256) {\r... */\n      swap3\n      swap2\n      pop\n      pop\n      jump\t// out\n        /* \"contracts/ERC20Standard.sol\":471:621  function sub(uint256 a, uint256 b) internal pure returns (uint256) {\r... */\n    tag_82:\n        /* \"contracts/ERC20Standard.sol\":529:536  uint256 */\n      0x00\n        /* \"contracts/ERC20Standard.sol\":562:563  a */\n      dup3\n        /* \"contracts/ERC20Standard.sol\":557:558  b */\n      dup3\n        /* \"contracts/ERC20Standard.sol\":557:563  b <= a */\n      gt\n      iszero\n        /* \"contracts/ERC20Standard.sol\":549:564  require(b <= a) */\n      tag_125\n      jumpi\n      0x00\n      dup1\n      revert\n    tag_125:\n        /* \"contracts/ERC20Standard.sol\":575:584  uint256 c */\n      0x00\n        /* \"contracts/ERC20Standard.sol\":591:592  b */\n      dup3\n        /* \"contracts/ERC20Standard.sol\":587:588  a */\n      dup5\n        /* \"contracts/ERC20Standard.sol\":587:592  a - b */\n      tag_126\n      swap2\n      swap1\n      tag_127\n      jump\t// in\n    tag_126:\n        /* \"contracts/ERC20Standard.sol\":575:592  uint256 c = a - b */\n      swap1\n      pop\n        /* \"contracts/ERC20Standard.sol\":612:613  c */\n      dup1\n        /* \"contracts/ERC20Standard.sol\":605:613  return c */\n      swap2\n      pop\n      pop\n        /* \"contracts/ERC20Standard.sol\":471:621  function sub(uint256 a, uint256 b) internal pure returns (uint256) {\r... */\n      swap3\n      swap2\n      pop\n      pop\n      jump\t// out\n        /* \"contracts/ERC20Standard.sol\":3382:3507  function _beforeTokenTransfer(\r... */\n    tag_90:\n      pop\n      pop\n      pop\n      jump\t// out\n        /* \"contracts/ERC20Standard.sol\":3516:3640  function _afterTokenTransfer(\r... */\n    tag_96:\n      pop\n      pop\n      pop\n      jump\t// out\n        /* \"#utility.yul\":7:146   */\n    tag_131:\n        /* \"#utility.yul\":53:58   */\n      0x00\n        /* \"#utility.yul\":91:97   */\n      dup2\n        /* \"#utility.yul\":78:98   */\n      calldataload\n        /* \"#utility.yul\":69:98   */\n      swap1\n      pop\n        /* \"#utility.yul\":107:140   */\n      tag_133\n        /* \"#utility.yul\":134:139   */\n      dup2\n        /* \"#utility.yul\":107:140   */\n      tag_134\n      jump\t// in\n    tag_133:\n        /* \"#utility.yul\":7:146   */\n      swap3\n      swap2\n      pop\n      pop\n      jump\t// out\n        /* \"#utility.yul\":152:291   */\n    tag_135:\n        /* \"#utility.yul\":198:203   */\n      0x00\n        /* \"#utility.yul\":236:242   */\n      dup2\n        /* \"#utility.yul\":223:243   */\n      calldataload\n        /* \"#utility.yul\":214:243   */\n      swap1\n      pop\n        /* \"#utility.yul\":252:285   */\n      tag_137\n        /* \"#utility.yul\":279:284   */\n      dup2\n        /* \"#utility.yul\":252:285   */\n      tag_138\n      jump\t// in\n    tag_137:\n        /* \"#utility.yul\":152:291   */\n      swap3\n      swap2\n      pop\n      pop\n      jump\t// out\n        /* \"#utility.yul\":297:626   */\n    tag_44:\n        /* \"#utility.yul\":356:362   */\n      0x00\n        /* \"#utility.yul\":405:407   */\n      0x20\n        /* \"#utility.yul\":393:402   */\n      dup3\n        /* \"#utility.yul\":384:391   */\n      dup5\n        /* \"#utility.yul\":380:403   */\n      sub\n        /* \"#utility.yul\":376:408   */\n      slt\n        /* \"#utility.yul\":373:492   */\n      iszero\n      tag_140\n      jumpi\n        /* \"#utility.yul\":411:490   */\n      tag_141\n      tag_142\n      jump\t// in\n    tag_141:\n        /* \"#utility.yul\":373:492   */\n    tag_140:\n        /* \"#utility.yul\":531:532   */\n      0x00\n        /* \"#utility.yul\":556:609   */\n      tag_143\n        /* \"#utility.yul\":601:608   */\n      dup5\n        /* \"#utility.yul\":592:598   */\n      dup3\n        /* \"#utility.yul\":581:590   */\n      dup6\n        /* \"#utility.yul\":577:599   */\n      add\n        /* \"#utility.yul\":556:609   */\n      tag_131\n      jump\t// in\n    tag_143:\n        /* \"#utility.yul\":546:609   */\n      swap2\n      pop\n        /* \"#utility.yul\":502:619   */\n      pop\n        /* \"#utility.yul\":297:626   */\n      swap3\n      swap2\n      pop\n      pop\n      jump\t// out\n        /* \"#utility.yul\":632:1106   */\n    tag_58:\n        /* \"#utility.yul\":700:706   */\n      0x00\n        /* \"#utility.yul\":708:714   */\n      dup1\n        /* \"#utility.yul\":757:759   */\n      0x40\n        /* \"#utility.yul\":745:754   */\n      dup4\n        /* \"#utility.yul\":736:743   */\n      dup6\n        /* \"#utility.yul\":732:755   */\n      sub\n        /* \"#utility.yul\":728:760   */\n      slt\n        /* \"#utility.yul\":725:844   */\n      iszero\n      tag_145\n      jumpi\n        /* \"#utility.yul\":763:842   */\n      tag_146\n      tag_142\n      jump\t// in\n    tag_146:\n        /* \"#utility.yul\":725:844   */\n    tag_145:\n        /* \"#utility.yul\":883:884   */\n      0x00\n        /* \"#utility.yul\":908:961   */\n      tag_147\n        /* \"#utility.yul\":953:960   */\n      dup6\n        /* \"#utility.yul\":944:950   */\n      dup3\n        /* \"#utility.yul\":933:942   */\n      dup7\n        /* \"#utility.yul\":929:951   */\n      add\n        /* \"#utility.yul\":908:961   */\n      tag_131\n      jump\t// in\n    tag_147:\n        /* \"#utility.yul\":898:961   */\n      swap3\n      pop\n        /* \"#utility.yul\":854:971   */\n      pop\n        /* \"#utility.yul\":1010:1012   */\n      0x20\n        /* \"#utility.yul\":1036:1089   */\n      tag_148\n        /* \"#utility.yul\":1081:1088   */\n      dup6\n        /* \"#utility.yul\":1072:1078   */\n      dup3\n        /* \"#utility.yul\":1061:1070   */\n      dup7\n        /* \"#utility.yul\":1057:1079   */\n      add\n        /* \"#utility.yul\":1036:1089   */\n      tag_131\n      jump\t// in\n    tag_148:\n        /* \"#utility.yul\":1026:1089   */\n      swap2\n      pop\n        /* \"#utility.yul\":981:1099   */\n      pop\n        /* \"#utility.yul\":632:1106   */\n      swap3\n      pop\n      swap3\n      swap1\n      pop\n      jump\t// out\n        /* \"#utility.yul\":1112:1731   */\n    tag_30:\n        /* \"#utility.yul\":1189:1195   */\n      0x00\n        /* \"#utility.yul\":1197:1203   */\n      dup1\n        /* \"#utility.yul\":1205:1211   */\n      0x00\n        /* \"#utility.yul\":1254:1256   */\n      0x60\n        /* \"#utility.yul\":1242:1251   */\n      dup5\n        /* \"#utility.yul\":1233:1240   */\n      dup7\n        /* \"#utility.yul\":1229:1252   */\n      sub\n        /* \"#utility.yul\":1225:1257   */\n      slt\n        /* \"#utility.yul\":1222:1341   */\n      iszero\n      tag_150\n      jumpi\n        /* \"#utility.yul\":1260:1339   */\n      tag_151\n      tag_142\n      jump\t// in\n    tag_151:\n        /* \"#utility.yul\":1222:1341   */\n    tag_150:\n        /* \"#utility.yul\":1380:1381   */\n      0x00\n        /* \"#utility.yul\":1405:1458   */\n      tag_152\n        /* \"#utility.yul\":1450:1457   */\n      dup7\n        /* \"#utility.yul\":1441:1447   */\n      dup3\n        /* \"#utility.yul\":1430:1439   */\n      dup8\n        /* \"#utility.yul\":1426:1448   */\n      add\n        /* \"#utility.yul\":1405:1458   */\n      tag_131\n      jump\t// in\n    tag_152:\n        /* \"#utility.yul\":1395:1458   */\n      swap4\n      pop\n        /* \"#utility.yul\":1351:1468   */\n      pop\n        /* \"#utility.yul\":1507:1509   */\n      0x20\n        /* \"#utility.yul\":1533:1586   */\n      tag_153\n        /* \"#utility.yul\":1578:1585   */\n      dup7\n        /* \"#utility.yul\":1569:1575   */\n      dup3\n        /* \"#utility.yul\":1558:1567   */\n      dup8\n        /* \"#utility.yul\":1554:1576   */\n      add\n        /* \"#utility.yul\":1533:1586   */\n      tag_131\n      jump\t// in\n    tag_153:\n        /* \"#utility.yul\":1523:1586   */\n      swap3\n      pop\n        /* \"#utility.yul\":1478:1596   */\n      pop\n        /* \"#utility.yul\":1635:1637   */\n      0x40\n        /* \"#utility.yul\":1661:1714   */\n      tag_154\n        /* \"#utility.yul\":1706:1713   */\n      dup7\n        /* \"#utility.yul\":1697:1703   */\n      dup3\n        /* \"#utility.yul\":1686:1695   */\n      dup8\n        /* \"#utility.yul\":1682:1704   */\n      add\n        /* \"#utility.yul\":1661:1714   */\n      tag_135\n      jump\t// in\n    tag_154:\n        /* \"#utility.yul\":1651:1714   */\n      swap2\n      pop\n        /* \"#utility.yul\":1606:1724   */\n      pop\n        /* \"#utility.yul\":1112:1731   */\n      swap3\n      pop\n      swap3\n      pop\n      swap3\n      jump\t// out\n        /* \"#utility.yul\":1737:2211   */\n    tag_22:\n        /* \"#utility.yul\":1805:1811   */\n      0x00\n        /* \"#utility.yul\":1813:1819   */\n      dup1\n        /* \"#utility.yul\":1862:1864   */\n      0x40\n        /* \"#utility.yul\":1850:1859   */\n      dup4\n        /* \"#utility.yul\":1841:1848   */\n      dup6\n        /* \"#utility.yul\":1837:1860   */\n      sub\n        /* \"#utility.yul\":1833:1865   */\n      slt\n        /* \"#utility.yul\":1830:1949   */\n      iszero\n      tag_156\n      jumpi\n        /* \"#utility.yul\":1868:1947   */\n      tag_157\n      tag_142\n      jump\t// in\n    tag_157:\n        /* \"#utility.yul\":1830:1949   */\n    tag_156:\n        /* \"#utility.yul\":1988:1989   */\n      0x00\n        /* \"#utility.yul\":2013:2066   */\n      tag_158\n        /* \"#utility.yul\":2058:2065   */\n      dup6\n        /* \"#utility.yul\":2049:2055   */\n      dup3\n        /* \"#utility.yul\":2038:2047   */\n      dup7\n        /* \"#utility.yul\":2034:2056   */\n      add\n        /* \"#utility.yul\":2013:2066   */\n      tag_131\n      jump\t// in\n    tag_158:\n        /* \"#utility.yul\":2003:2066   */\n      swap3\n      pop\n        /* \"#utility.yul\":1959:2076   */\n      pop\n        /* \"#utility.yul\":2115:2117   */\n      0x20\n        /* \"#utility.yul\":2141:2194   */\n      tag_159\n        /* \"#utility.yul\":2186:2193   */\n      dup6\n        /* \"#utility.yul\":2177:2183   */\n      dup3\n        /* \"#utility.yul\":2166:2175   */\n      dup7\n        /* \"#utility.yul\":2162:2184   */\n      add\n        /* \"#utility.yul\":2141:2194   */\n      tag_135\n      jump\t// in\n    tag_159:\n        /* \"#utility.yul\":2131:2194   */\n      swap2\n      pop\n        /* \"#utility.yul\":2086:2204   */\n      pop\n        /* \"#utility.yul\":1737:2211   */\n      swap3\n      pop\n      swap3\n      swap1\n      pop\n      jump\t// out\n        /* \"#utility.yul\":2217:2581   */\n    tag_160:\n        /* \"#utility.yul\":2305:2308   */\n      0x00\n        /* \"#utility.yul\":2333:2372   */\n      tag_162\n        /* \"#utility.yul\":2366:2371   */\n      dup3\n        /* \"#utility.yul\":2333:2372   */\n      tag_163\n      jump\t// in\n    tag_162:\n        /* \"#utility.yul\":2388:2459   */\n      tag_164\n        /* \"#utility.yul\":2452:2458   */\n      dup2\n        /* \"#utility.yul\":2447:2450   */\n      dup6\n        /* \"#utility.yul\":2388:2459   */\n      tag_165\n      jump\t// in\n    tag_164:\n        /* \"#utility.yul\":2381:2459   */\n      swap4\n      pop\n        /* \"#utility.yul\":2468:2520   */\n      tag_166\n        /* \"#utility.yul\":2513:2519   */\n      dup2\n        /* \"#utility.yul\":2508:2511   */\n      dup6\n        /* \"#utility.yul\":2501:2505   */\n      0x20\n        /* \"#utility.yul\":2494:2499   */\n      dup7\n        /* \"#utility.yul\":2490:2506   */\n      add\n        /* \"#utility.yul\":2468:2520   */\n      tag_167\n      jump\t// in\n    tag_166:\n        /* \"#utility.yul\":2545:2574   */\n      tag_168\n        /* \"#utility.yul\":2567:2573   */\n      dup2\n        /* \"#utility.yul\":2545:2574   */\n      tag_169\n      jump\t// in\n    tag_168:\n        /* \"#utility.yul\":2540:2543   */\n      dup5\n        /* \"#utility.yul\":2536:2575   */\n      add\n        /* \"#utility.yul\":2529:2575   */\n      swap2\n      pop\n        /* \"#utility.yul\":2309:2581   */\n      pop\n        /* \"#utility.yul\":2217:2581   */\n      swap3\n      swap2\n      pop\n      pop\n      jump\t// out\n        /* \"#utility.yul\":2587:2953   */\n    tag_170:\n        /* \"#utility.yul\":2729:2732   */\n      0x00\n        /* \"#utility.yul\":2750:2817   */\n      tag_172\n        /* \"#utility.yul\":2814:2816   */\n      0x10\n        /* \"#utility.yul\":2809:2812   */\n      dup4\n        /* \"#utility.yul\":2750:2817   */\n      tag_165\n      jump\t// in\n    tag_172:\n        /* \"#utility.yul\":2743:2817   */\n      swap2\n      pop\n        /* \"#utility.yul\":2826:2919   */\n      tag_173\n        /* \"#utility.yul\":2915:2918   */\n      dup3\n        /* \"#utility.yul\":2826:2919   */\n      tag_174\n      jump\t// in\n    tag_173:\n        /* \"#utility.yul\":2944:2946   */\n      0x20\n        /* \"#utility.yul\":2939:2942   */\n      dup3\n        /* \"#utility.yul\":2935:2947   */\n      add\n        /* \"#utility.yul\":2928:2947   */\n      swap1\n      pop\n        /* \"#utility.yul\":2587:2953   */\n      swap2\n      swap1\n      pop\n      jump\t// out\n        /* \"#utility.yul\":2959:3325   */\n    tag_175:\n        /* \"#utility.yul\":3101:3104   */\n      0x00\n        /* \"#utility.yul\":3122:3189   */\n      tag_177\n        /* \"#utility.yul\":3186:3188   */\n      0x0b\n        /* \"#utility.yul\":3181:3184   */\n      dup4\n        /* \"#utility.yul\":3122:3189   */\n      tag_165\n      jump\t// in\n    tag_177:\n        /* \"#utility.yul\":3115:3189   */\n      swap2\n      pop\n        /* \"#utility.yul\":3198:3291   */\n      tag_178\n        /* \"#utility.yul\":3287:3290   */\n      dup3\n        /* \"#utility.yul\":3198:3291   */\n      tag_179\n      jump\t// in\n    tag_178:\n        /* \"#utility.yul\":3316:3318   */\n      0x20\n        /* \"#utility.yul\":3311:3314   */\n      dup3\n        /* \"#utility.yul\":3307:3319   */\n      add\n        /* \"#utility.yul\":3300:3319   */\n      swap1\n      pop\n        /* \"#utility.yul\":2959:3325   */\n      swap2\n      swap1\n      pop\n      jump\t// out\n        /* \"#utility.yul\":3331:3697   */\n    tag_180:\n        /* \"#utility.yul\":3473:3476   */\n      0x00\n        /* \"#utility.yul\":3494:3561   */\n      tag_182\n        /* \"#utility.yul\":3558:3560   */\n      0x0e\n        /* \"#utility.yul\":3553:3556   */\n      dup4\n        /* \"#utility.yul\":3494:3561   */\n      tag_165\n      jump\t// in\n    tag_182:\n        /* \"#utility.yul\":3487:3561   */\n      swap2\n      pop\n        /* \"#utility.yul\":3570:3663   */\n      tag_183\n        /* \"#utility.yul\":3659:3662   */\n      dup3\n        /* \"#utility.yul\":3570:3663   */\n      tag_184\n      jump\t// in\n    tag_183:\n        /* \"#utility.yul\":3688:3690   */\n      0x20\n        /* \"#utility.yul\":3683:3686   */\n      dup3\n        /* \"#utility.yul\":3679:3691   */\n      add\n        /* \"#utility.yul\":3672:3691   */\n      swap1\n      pop\n        /* \"#utility.yul\":3331:3697   */\n      swap2\n      swap1\n      pop\n      jump\t// out\n        /* \"#utility.yul\":3703:4069   */\n    tag_185:\n        /* \"#utility.yul\":3845:3848   */\n      0x00\n        /* \"#utility.yul\":3866:3933   */\n      tag_187\n        /* \"#utility.yul\":3930:3932   */\n      0x1f\n        /* \"#utility.yul\":3925:3928   */\n      dup4\n        /* \"#utility.yul\":3866:3933   */\n      tag_165\n      jump\t// in\n    tag_187:\n        /* \"#utility.yul\":3859:3933   */\n      swap2\n      pop\n        /* \"#utility.yul\":3942:4035   */\n      tag_188\n        /* \"#utility.yul\":4031:4034   */\n      dup3\n        /* \"#utility.yul\":3942:4035   */\n      tag_189\n      jump\t// in\n    tag_188:\n        /* \"#utility.yul\":4060:4062   */\n      0x20\n        /* \"#utility.yul\":4055:4058   */\n      dup3\n        /* \"#utility.yul\":4051:4063   */\n      add\n        /* \"#utility.yul\":4044:4063   */\n      swap1\n      pop\n        /* \"#utility.yul\":3703:4069   */\n      swap2\n      swap1\n      pop\n      jump\t// out\n        /* \"#utility.yul\":4075:4193   */\n    tag_190:\n        /* \"#utility.yul\":4162:4186   */\n      tag_192\n        /* \"#utility.yul\":4180:4185   */\n      dup2\n        /* \"#utility.yul\":4162:4186   */\n      tag_193\n      jump\t// in\n    tag_192:\n        /* \"#utility.yul\":4157:4160   */\n      dup3\n        /* \"#utility.yul\":4150:4187   */\n      mstore\n        /* \"#utility.yul\":4075:4193   */\n      pop\n      pop\n      jump\t// out\n        /* \"#utility.yul\":4199:4311   */\n    tag_194:\n        /* \"#utility.yul\":4282:4304   */\n      tag_196\n        /* \"#utility.yul\":4298:4303   */\n      dup2\n        /* \"#utility.yul\":4282:4304   */\n      tag_197\n      jump\t// in\n    tag_196:\n        /* \"#utility.yul\":4277:4280   */\n      dup3\n        /* \"#utility.yul\":4270:4305   */\n      mstore\n        /* \"#utility.yul\":4199:4311   */\n      pop\n      pop\n      jump\t// out\n        /* \"#utility.yul\":4317:4630   */\n    tag_19:\n        /* \"#utility.yul\":4430:4434   */\n      0x00\n        /* \"#utility.yul\":4468:4470   */\n      0x20\n        /* \"#utility.yul\":4457:4466   */\n      dup3\n        /* \"#utility.yul\":4453:4471   */\n      add\n        /* \"#utility.yul\":4445:4471   */\n      swap1\n      pop\n        /* \"#utility.yul\":4517:4526   */\n      dup2\n        /* \"#utility.yul\":4511:4515   */\n      dup2\n        /* \"#utility.yul\":4507:4527   */\n      sub\n        /* \"#utility.yul\":4503:4504   */\n      0x00\n        /* \"#utility.yul\":4492:4501   */\n      dup4\n        /* \"#utility.yul\":4488:4505   */\n      add\n        /* \"#utility.yul\":4481:4528   */\n      mstore\n        /* \"#utility.yul\":4545:4623   */\n      tag_199\n        /* \"#utility.yul\":4618:4622   */\n      dup2\n        /* \"#utility.yul\":4609:4615   */\n      dup5\n        /* \"#utility.yul\":4545:4623   */\n      tag_160\n      jump\t// in\n    tag_199:\n        /* \"#utility.yul\":4537:4623   */\n      swap1\n      pop\n        /* \"#utility.yul\":4317:4630   */\n      swap3\n      swap2\n      pop\n      pop\n      jump\t// out\n        /* \"#utility.yul\":4636:5055   */\n    tag_75:\n        /* \"#utility.yul\":4802:4806   */\n      0x00\n        /* \"#utility.yul\":4840:4842   */\n      0x20\n        /* \"#utility.yul\":4829:4838   */\n      dup3\n        /* \"#utility.yul\":4825:4843   */\n      add\n        /* \"#utility.yul\":4817:4843   */\n      swap1\n      pop\n        /* \"#utility.yul\":4889:4898   */\n      dup2\n        /* \"#utility.yul\":4883:4887   */\n      dup2\n        /* \"#utility.yul\":4879:4899   */\n      sub\n        /* \"#utility.yul\":4875:4876   */\n      0x00\n        /* \"#utility.yul\":4864:4873   */\n      dup4\n        /* \"#utility.yul\":4860:4877   */\n      add\n        /* \"#utility.yul\":4853:4900   */\n      mstore\n        /* \"#utility.yul\":4917:5048   */\n      tag_201\n        /* \"#utility.yul\":5043:5047   */\n      dup2\n        /* \"#utility.yul\":4917:5048   */\n      tag_170\n      jump\t// in\n    tag_201:\n        /* \"#utility.yul\":4909:5048   */\n      swap1\n      pop\n        /* \"#utility.yul\":4636:5055   */\n      swap2\n      swap1\n      pop\n      jump\t// out\n        /* \"#utility.yul\":5061:5480   */\n    tag_72:\n        /* \"#utility.yul\":5227:5231   */\n      0x00\n        /* \"#utility.yul\":5265:5267   */\n      0x20\n        /* \"#utility.yul\":5254:5263   */\n      dup3\n        /* \"#utility.yul\":5250:5268   */\n      add\n        /* \"#utility.yul\":5242:5268   */\n      swap1\n      pop\n        /* \"#utility.yul\":5314:5323   */\n      dup2\n        /* \"#utility.yul\":5308:5312   */\n      dup2\n        /* \"#utility.yul\":5304:5324   */\n      sub\n        /* \"#utility.yul\":5300:5301   */\n      0x00\n        /* \"#utility.yul\":5289:5298   */\n      dup4\n        /* \"#utility.yul\":5285:5302   */\n      add\n        /* \"#utility.yul\":5278:5325   */\n      mstore\n        /* \"#utility.yul\":5342:5473   */\n      tag_203\n        /* \"#utility.yul\":5468:5472   */\n      dup2\n        /* \"#utility.yul\":5342:5473   */\n      tag_175\n      jump\t// in\n    tag_203:\n        /* \"#utility.yul\":5334:5473   */\n      swap1\n      pop\n        /* \"#utility.yul\":5061:5480   */\n      swap2\n      swap1\n      pop\n      jump\t// out\n        /* \"#utility.yul\":5486:5905   */\n    tag_78:\n        /* \"#utility.yul\":5652:5656   */\n      0x00\n        /* \"#utility.yul\":5690:5692   */\n      0x20\n        /* \"#utility.yul\":5679:5688   */\n      dup3\n        /* \"#utility.yul\":5675:5693   */\n      add\n        /* \"#utility.yul\":5667:5693   */\n      swap1\n      pop\n        /* \"#utility.yul\":5739:5748   */\n      dup2\n        /* \"#utility.yul\":5733:5737   */\n      dup2\n        /* \"#utility.yul\":5729:5749   */\n      sub\n        /* \"#utility.yul\":5725:5726   */\n      0x00\n        /* \"#utility.yul\":5714:5723   */\n      dup4\n        /* \"#utility.yul\":5710:5727   */\n      add\n        /* \"#utility.yul\":5703:5750   */\n      mstore\n        /* \"#utility.yul\":5767:5898   */\n      tag_205\n        /* \"#utility.yul\":5893:5897   */\n      dup2\n        /* \"#utility.yul\":5767:5898   */\n      tag_180\n      jump\t// in\n    tag_205:\n        /* \"#utility.yul\":5759:5898   */\n      swap1\n      pop\n        /* \"#utility.yul\":5486:5905   */\n      swap2\n      swap1\n      pop\n      jump\t// out\n        /* \"#utility.yul\":5911:6330   */\n    tag_88:\n        /* \"#utility.yul\":6077:6081   */\n      0x00\n        /* \"#utility.yul\":6115:6117   */\n      0x20\n        /* \"#utility.yul\":6104:6113   */\n      dup3\n        /* \"#utility.yul\":6100:6118   */\n      add\n        /* \"#utility.yul\":6092:6118   */\n      swap1\n      pop\n        /* \"#utility.yul\":6164:6173   */\n      dup2\n        /* \"#utility.yul\":6158:6162   */\n      dup2\n        /* \"#utility.yul\":6154:6174   */\n      sub\n        /* \"#utility.yul\":6150:6151   */\n      0x00\n        /* \"#utility.yul\":6139:6148   */\n      dup4\n        /* \"#utility.yul\":6135:6152   */\n      add\n        /* \"#utility.yul\":6128:6175   */\n      mstore\n        /* \"#utility.yul\":6192:6323   */\n      tag_207\n        /* \"#utility.yul\":6318:6322   */\n      dup2\n        /* \"#utility.yul\":6192:6323   */\n      tag_185\n      jump\t// in\n    tag_207:\n        /* \"#utility.yul\":6184:6323   */\n      swap1\n      pop\n        /* \"#utility.yul\":5911:6330   */\n      swap2\n      swap1\n      pop\n      jump\t// out\n        /* \"#utility.yul\":6336:6558   */\n    tag_27:\n        /* \"#utility.yul\":6429:6433   */\n      0x00\n        /* \"#utility.yul\":6467:6469   */\n      0x20\n        /* \"#utility.yul\":6456:6465   */\n      dup3\n        /* \"#utility.yul\":6452:6470   */\n      add\n        /* \"#utility.yul\":6444:6470   */\n      swap1\n      pop\n        /* \"#utility.yul\":6480:6551   */\n      tag_209\n        /* \"#utility.yul\":6548:6549   */\n      0x00\n        /* \"#utility.yul\":6537:6546   */\n      dup4\n        /* \"#utility.yul\":6533:6550   */\n      add\n        /* \"#utility.yul\":6524:6530   */\n      dup5\n        /* \"#utility.yul\":6480:6551   */\n      tag_190\n      jump\t// in\n    tag_209:\n        /* \"#utility.yul\":6336:6558   */\n      swap3\n      swap2\n      pop\n      pop\n      jump\t// out\n        /* \"#utility.yul\":6564:6778   */\n    tag_35:\n        /* \"#utility.yul\":6653:6657   */\n      0x00\n        /* \"#utility.yul\":6691:6693   */\n      0x20\n        /* \"#utility.yul\":6680:6689   */\n      dup3\n        /* \"#utility.yul\":6676:6694   */\n      add\n        /* \"#utility.yul\":6668:6694   */\n      swap1\n      pop\n        /* \"#utility.yul\":6704:6771   */\n      tag_211\n        /* \"#utility.yul\":6768:6769   */\n      0x00\n        /* \"#utility.yul\":6757:6766   */\n      dup4\n        /* \"#utility.yul\":6753:6770   */\n      add\n        /* \"#utility.yul\":6744:6750   */\n      dup5\n        /* \"#utility.yul\":6704:6771   */\n      tag_194\n      jump\t// in\n    tag_211:\n        /* \"#utility.yul\":6564:6778   */\n      swap3\n      swap2\n      pop\n      pop\n      jump\t// out\n        /* \"#utility.yul\":6865:6964   */\n    tag_163:\n        /* \"#utility.yul\":6917:6923   */\n      0x00\n        /* \"#utility.yul\":6951:6956   */\n      dup2\n        /* \"#utility.yul\":6945:6957   */\n      mload\n        /* \"#utility.yul\":6935:6957   */\n      swap1\n      pop\n        /* \"#utility.yul\":6865:6964   */\n      swap2\n      swap1\n      pop\n      jump\t// out\n        /* \"#utility.yul\":6970:7139   */\n    tag_165:\n        /* \"#utility.yul\":7054:7065   */\n      0x00\n        /* \"#utility.yul\":7088:7094   */\n      dup3\n        /* \"#utility.yul\":7083:7086   */\n      dup3\n        /* \"#utility.yul\":7076:7095   */\n      mstore\n        /* \"#utility.yul\":7128:7132   */\n      0x20\n        /* \"#utility.yul\":7123:7126   */\n      dup3\n        /* \"#utility.yul\":7119:7133   */\n      add\n        /* \"#utility.yul\":7104:7133   */\n      swap1\n      pop\n        /* \"#utility.yul\":6970:7139   */\n      swap3\n      swap2\n      pop\n      pop\n      jump\t// out\n        /* \"#utility.yul\":7145:7450   */\n    tag_92:\n        /* \"#utility.yul\":7185:7188   */\n      0x00\n        /* \"#utility.yul\":7204:7224   */\n      tag_217\n        /* \"#utility.yul\":7222:7223   */\n      dup3\n        /* \"#utility.yul\":7204:7224   */\n      tag_193\n      jump\t// in\n    tag_217:\n        /* \"#utility.yul\":7199:7224   */\n      swap2\n      pop\n        /* \"#utility.yul\":7238:7258   */\n      tag_218\n        /* \"#utility.yul\":7256:7257   */\n      dup4\n        /* \"#utility.yul\":7238:7258   */\n      tag_193\n      jump\t// in\n    tag_218:\n        /* \"#utility.yul\":7233:7258   */\n      swap3\n      pop\n        /* \"#utility.yul\":7392:7393   */\n      dup3\n        /* \"#utility.yul\":7324:7390   */\n      0xffffffffffffffffffffffffffffffffffffffffffffffffffffffffffffffff\n        /* \"#utility.yul\":7320:7394   */\n      sub\n        /* \"#utility.yul\":7317:7318   */\n      dup3\n        /* \"#utility.yul\":7314:7395   */\n      gt\n        /* \"#utility.yul\":7311:7418   */\n      iszero\n      tag_219\n      jumpi\n        /* \"#utility.yul\":7398:7416   */\n      tag_220\n      tag_221\n      jump\t// in\n    tag_220:\n        /* \"#utility.yul\":7311:7418   */\n    tag_219:\n        /* \"#utility.yul\":7442:7443   */\n      dup3\n        /* \"#utility.yul\":7439:7440   */\n      dup3\n        /* \"#utility.yul\":7435:7444   */\n      add\n        /* \"#utility.yul\":7428:7444   */\n      swap1\n      pop\n        /* \"#utility.yul\":7145:7450   */\n      swap3\n      swap2\n      pop\n      pop\n      jump\t// out\n        /* \"#utility.yul\":7456:7647   */\n    tag_127:\n        /* \"#utility.yul\":7496:7500   */\n      0x00\n        /* \"#utility.yul\":7516:7536   */\n      tag_223\n        /* \"#utility.yul\":7534:7535   */\n      dup3\n        /* \"#utility.yul\":7516:7536   */\n      tag_193\n      jump\t// in\n    tag_223:\n        /* \"#utility.yul\":7511:7536   */\n      swap2\n      pop\n        /* \"#utility.yul\":7550:7570   */\n      tag_224\n        /* \"#utility.yul\":7568:7569   */\n      dup4\n        /* \"#utility.yul\":7550:7570   */\n      tag_193\n      jump\t// in\n    tag_224:\n        /* \"#utility.yul\":7545:7570   */\n      swap3\n      pop\n        /* \"#utility.yul\":7589:7590   */\n      dup3\n        /* \"#utility.yul\":7586:7587   */\n      dup3\n        /* \"#utility.yul\":7583:7591   */\n      lt\n        /* \"#utility.yul\":7580:7614   */\n      iszero\n      tag_225\n      jumpi\n        /* \"#utility.yul\":7594:7612   */\n      tag_226\n      tag_221\n      jump\t// in\n    tag_226:\n        /* \"#utility.yul\":7580:7614   */\n    tag_225:\n        /* \"#utility.yul\":7639:7640   */\n      dup3\n        /* \"#utility.yul\":7636:7637   */\n      dup3\n        /* \"#utility.yul\":7632:7641   */\n      sub\n        /* \"#utility.yul\":7624:7641   */\n      swap1\n      pop\n        /* \"#utility.yul\":7456:7647   */\n      swap3\n      swap2\n      pop\n      pop\n      jump\t// out\n        /* \"#utility.yul\":7653:7749   */\n    tag_227:\n        /* \"#utility.yul\":7690:7697   */\n      0x00\n        /* \"#utility.yul\":7719:7743   */\n      tag_229\n        /* \"#utility.yul\":7737:7742   */\n      dup3\n        /* \"#utility.yul\":7719:7743   */\n      tag_230\n      jump\t// in\n    tag_229:\n        /* \"#utility.yul\":7708:7743   */\n      swap1\n      pop\n        /* \"#utility.yul\":7653:7749   */\n      swap2\n      swap1\n      pop\n      jump\t// out\n        /* \"#utility.yul\":7755:7881   */\n    tag_230:\n        /* \"#utility.yul\":7792:7799   */\n      0x00\n        /* \"#utility.yul\":7832:7874   */\n      0xffffffffffffffffffffffffffffffffffffffff\n        /* \"#utility.yul\":7825:7830   */\n      dup3\n        /* \"#utility.yul\":7821:7875   */\n      and\n        /* \"#utility.yul\":7810:7875   */\n      swap1\n      pop\n        /* \"#utility.yul\":7755:7881   */\n      swap2\n      swap1\n      pop\n      jump\t// out\n        /* \"#utility.yul\":7887:7964   */\n    tag_193:\n        /* \"#utility.yul\":7924:7931   */\n      0x00\n        /* \"#utility.yul\":7953:7958   */\n      dup2\n        /* \"#utility.yul\":7942:7958   */\n      swap1\n      pop\n        /* \"#utility.yul\":7887:7964   */\n      swap2\n      swap1\n      pop\n      jump\t// out\n        /* \"#utility.yul\":7970:8056   */\n    tag_197:\n        /* \"#utility.yul\":8005:8012   */\n      0x00\n        /* \"#utility.yul\":8045:8049   */\n      0xff\n        /* \"#utility.yul\":8038:8043   */\n      dup3\n        /* \"#utility.yul\":8034:8050   */\n      and\n        /* \"#utility.yul\":8023:8050   */\n      swap1\n      pop\n        /* \"#utility.yul\":7970:8056   */\n      swap2\n      swap1\n      pop\n      jump\t// out\n        /* \"#utility.yul\":8062:8369   */\n    tag_167:\n        /* \"#utility.yul\":8130:8131   */\n      0x00\n        /* \"#utility.yul\":8140:8253   */\n    tag_235:\n        /* \"#utility.yul\":8154:8160   */\n      dup4\n        /* \"#utility.yul\":8151:8152   */\n      dup2\n        /* \"#utility.yul\":8148:8161   */\n      lt\n        /* \"#utility.yul\":8140:8253   */\n      iszero\n      tag_237\n      jumpi\n        /* \"#utility.yul\":8239:8240   */\n      dup1\n        /* \"#utility.yul\":8234:8237   */\n      dup3\n        /* \"#utility.yul\":8230:8241   */\n      add\n        /* \"#utility.yul\":8224:8242   */\n      mload\n        /* \"#utility.yul\":8220:8221   */\n      dup2\n        /* \"#utility.yul\":8215:8218   */\n      dup5\n        /* \"#utility.yul\":8211:8222   */\n      add\n        /* \"#utility.yul\":8204:8243   */\n      mstore\n        /* \"#utility.yul\":8176:8178   */\n      0x20\n        /* \"#utility.yul\":8173:8174   */\n      dup2\n        /* \"#utility.yul\":8169:8179   */\n      add\n        /* \"#utility.yul\":8164:8179   */\n      swap1\n      pop\n        /* \"#utility.yul\":8140:8253   */\n      jump(tag_235)\n    tag_237:\n        /* \"#utility.yul\":8271:8277   */\n      dup4\n        /* \"#utility.yul\":8268:8269   */\n      dup2\n        /* \"#utility.yul\":8265:8278   */\n      gt\n        /* \"#utility.yul\":8262:8363   */\n      iszero\n      tag_238\n      jumpi\n        /* \"#utility.yul\":8351:8352   */\n      0x00\n        /* \"#utility.yul\":8342:8348   */\n      dup5\n        /* \"#utility.yul\":8337:8340   */\n      dup5\n        /* \"#utility.yul\":8333:8349   */\n      add\n        /* \"#utility.yul\":8326:8353   */\n      mstore\n        /* \"#utility.yul\":8262:8363   */\n    tag_238:\n        /* \"#utility.yul\":8111:8369   */\n      pop\n        /* \"#utility.yul\":8062:8369   */\n      pop\n      pop\n      pop\n      jump\t// out\n        /* \"#utility.yul\":8375:8695   */\n    tag_62:\n        /* \"#utility.yul\":8419:8425   */\n      0x00\n        /* \"#utility.yul\":8456:8457   */\n      0x02\n        /* \"#utility.yul\":8450:8454   */\n      dup3\n        /* \"#utility.yul\":8446:8458   */\n      div\n        /* \"#utility.yul\":8436:8458   */\n      swap1\n      pop\n        /* \"#utility.yul\":8503:8504   */\n      0x01\n        /* \"#utility.yul\":8497:8501   */\n      dup3\n        /* \"#utility.yul\":8493:8505   */\n      and\n        /* \"#utility.yul\":8524:8542   */\n      dup1\n        /* \"#utility.yul\":8514:8595   */\n      tag_240\n      jumpi\n        /* \"#utility.yul\":8580:8584   */\n      0x7f\n        /* \"#utility.yul\":8572:8578   */\n      dup3\n        /* \"#utility.yul\":8568:8585   */\n      and\n        /* \"#utility.yul\":8558:8585   */\n      swap2\n      pop\n        /* \"#utility.yul\":8514:8595   */\n    tag_240:\n        /* \"#utility.yul\":8642:8644   */\n      0x20\n        /* \"#utility.yul\":8634:8640   */\n      dup3\n        /* \"#utility.yul\":8631:8645   */\n      lt\n        /* \"#utility.yul\":8611:8629   */\n      dup2\n        /* \"#utility.yul\":8608:8646   */\n      eq\n        /* \"#utility.yul\":8605:8689   */\n      iszero\n      tag_241\n      jumpi\n        /* \"#utility.yul\":8661:8679   */\n      tag_242\n      tag_243\n      jump\t// in\n    tag_242:\n        /* \"#utility.yul\":8605:8689   */\n    tag_241:\n        /* \"#utility.yul\":8426:8695   */\n      pop\n        /* \"#utility.yul\":8375:8695   */\n      swap2\n      swap1\n      pop\n      jump\t// out\n        /* \"#utility.yul\":8701:8881   */\n    tag_112:\n        /* \"#utility.yul\":8749:8826   */\n      0x4e487b7100000000000000000000000000000000000000000000000000000000\n        /* \"#utility.yul\":8746:8747   */\n      0x00\n        /* \"#utility.yul\":8739:8827   */\n      mstore\n        /* \"#utility.yul\":8846:8850   */\n      0x01\n        /* \"#utility.yul\":8843:8844   */\n      0x04\n        /* \"#utility.yul\":8836:8851   */\n      mstore\n        /* \"#utility.yul\":8870:8874   */\n      0x24\n        /* \"#utility.yul\":8867:8868   */\n      0x00\n        /* \"#utility.yul\":8860:8875   */\n      revert\n        /* \"#utility.yul\":8887:9067   */\n    tag_221:\n        /* \"#utility.yul\":8935:9012   */\n      0x4e487b7100000000000000000000000000000000000000000000000000000000\n        /* \"#utility.yul\":8932:8933   */\n      0x00\n        /* \"#utility.yul\":8925:9013   */\n      mstore\n        /* \"#utility.yul\":9032:9036   */\n      0x11\n        /* \"#utility.yul\":9029:9030   */\n      0x04\n        /* \"#utility.yul\":9022:9037   */\n      mstore\n        /* \"#utility.yul\":9056:9060   */\n      0x24\n        /* \"#utility.yul\":9053:9054   */\n      0x00\n        /* \"#utility.yul\":9046:9061   */\n      revert\n        /* \"#utility.yul\":9073:9253   */\n    tag_243:\n        /* \"#utility.yul\":9121:9198   */\n      0x4e487b7100000000000000000000000000000000000000000000000000000000\n        /* \"#utility.yul\":9118:9119   */\n      0x00\n        /* \"#utility.yul\":9111:9199   */\n      mstore\n        /* \"#utility.yul\":9218:9222   */\n      0x22\n        /* \"#utility.yul\":9215:9216   */\n      0x04\n        /* \"#utility.yul\":9208:9223   */\n      mstore\n        /* \"#utility.yul\":9242:9246   */\n      0x24\n        /* \"#utility.yul\":9239:9240   */\n      0x00\n        /* \"#utility.yul\":9232:9247   */\n      revert\n        /* \"#utility.yul\":9382:9499   */\n    tag_142:\n        /* \"#utility.yul\":9491:9492   */\n      0x00\n        /* \"#utility.yul\":9488:9489   */\n      dup1\n        /* \"#utility.yul\":9481:9493   */\n      revert\n        /* \"#utility.yul\":9505:9607   */\n    tag_169:\n        /* \"#utility.yul\":9546:9552   */\n      0x00\n        /* \"#utility.yul\":9597:9599   */\n      0x1f\n        /* \"#utility.yul\":9593:9600   */\n      not\n        /* \"#utility.yul\":9588:9590   */\n      0x1f\n        /* \"#utility.yul\":9581:9586   */\n      dup4\n        /* \"#utility.yul\":9577:9591   */\n      add\n        /* \"#utility.yul\":9573:9601   */\n      and\n        /* \"#utility.yul\":9563:9601   */\n      swap1\n      pop\n        /* \"#utility.yul\":9505:9607   */\n      swap2\n      swap1\n      pop\n      jump\t// out\n        /* \"#utility.yul\":9613:9779   */\n    tag_174:\n        /* \"#utility.yul\":9753:9771   */\n      0x42616c616e6365203c20616d6f756e7400000000000000000000000000000000\n        /* \"#utility.yul\":9749:9750   */\n      0x00\n        /* \"#utility.yul\":9741:9747   */\n      dup3\n        /* \"#utility.yul\":9737:9751   */\n      add\n        /* \"#utility.yul\":9730:9772   */\n      mstore\n        /* \"#utility.yul\":9613:9779   */\n      pop\n      jump\t// out\n        /* \"#utility.yul\":9785:9946   */\n    tag_179:\n        /* \"#utility.yul\":9925:9938   */\n      0x416d6f756e74203c3d2030000000000000000000000000000000000000000000\n        /* \"#utility.yul\":9921:9922   */\n      0x00\n        /* \"#utility.yul\":9913:9919   */\n      dup3\n        /* \"#utility.yul\":9909:9923   */\n      add\n        /* \"#utility.yul\":9902:9939   */\n      mstore\n        /* \"#utility.yul\":9785:9946   */\n      pop\n      jump\t// out\n        /* \"#utility.yul\":9952:10116   */\n    tag_184:\n        /* \"#utility.yul\":10092:10108   */\n      0x446f6e277420616c6c6f7765642e000000000000000000000000000000000000\n        /* \"#utility.yul\":10088:10089   */\n      0x00\n        /* \"#utility.yul\":10080:10086   */\n      dup3\n        /* \"#utility.yul\":10076:10090   */\n      add\n        /* \"#utility.yul\":10069:10109   */\n      mstore\n        /* \"#utility.yul\":9952:10116   */\n      pop\n      jump\t// out\n        /* \"#utility.yul\":10122:10303   */\n    tag_189:\n        /* \"#utility.yul\":10262:10295   */\n      0x45524332303a206d696e7420746f20746865207a65726f206164647265737300\n        /* \"#utility.yul\":10258:10259   */\n      0x00\n        /* \"#utility.yul\":10250:10256   */\n      dup3\n        /* \"#utility.yul\":10246:10260   */\n      add\n        /* \"#utility.yul\":10239:10296   */\n      mstore\n        /* \"#utility.yul\":10122:10303   */\n      pop\n      jump\t// out\n        /* \"#utility.yul\":10309:10431   */\n    tag_134:\n        /* \"#utility.yul\":10382:10406   */\n      tag_256\n        /* \"#utility.yul\":10400:10405   */\n      dup2\n        /* \"#utility.yul\":10382:10406   */\n      tag_227\n      jump\t// in\n    tag_256:\n        /* \"#utility.yul\":10375:10380   */\n      dup2\n        /* \"#utility.yul\":10372:10407   */\n      eq\n        /* \"#utility.yul\":10362:10425   */\n      tag_257\n      jumpi\n        /* \"#utility.yul\":10421:10422   */\n      0x00\n        /* \"#utility.yul\":10418:10419   */\n      dup1\n        /* \"#utility.yul\":10411:10423   */\n      revert\n        /* \"#utility.yul\":10362:10425   */\n    tag_257:\n        /* \"#utility.yul\":10309:10431   */\n      pop\n      jump\t// out\n        /* \"#utility.yul\":10437:10559   */\n    tag_138:\n        /* \"#utility.yul\":10510:10534   */\n      tag_259\n        /* \"#utility.yul\":10528:10533   */\n      dup2\n        /* \"#utility.yul\":10510:10534   */\n      tag_193\n      jump\t// in\n    tag_259:\n        /* \"#utility.yul\":10503:10508   */\n      dup2\n        /* \"#utility.yul\":10500:10535   */\n      eq\n        /* \"#utility.yul\":10490:10553   */\n      tag_260\n      jumpi\n        /* \"#utility.yul\":10549:10550   */\n      0x00\n        /* \"#utility.yul\":10546:10547   */\n      dup1\n        /* \"#utility.yul\":10539:10551   */\n      revert\n        /* \"#utility.yul\":10490:10553   */\n    tag_260:\n        /* \"#utility.yul\":10437:10559   */\n      pop\n      jump\t// out\n\n    auxdata: 0xa2646970667358221220afb29e7a694a69317d3e2a65dbe33a3dbfd21a371eb1ea59707e204a7cfba9b164736f6c63430008070033\n}\n",
				"bytecode": {
					"linkReferences": {},
					"object": "608060405234801561001057600080fd5b506113c1806100206000396000f3fe608060405234801561001057600080fd5b50600436106100b45760003560e01c806354fd4d501161007157806354fd4d501461016757806370a082311461018557806395d89b41146101b5578063a9059cbb146101d3578063c4e41b22146101ef578063dd62ed3e1461020d576100b4565b806306fdde03146100b9578063095ea7b3146100d757806318160ddd146100f357806323b872dd14610111578063313ce5671461012d57806340c10f191461014b575b600080fd5b6100c161023d565b6040516100ce9190610fea565b60405180910390f35b6100f160048036038101906100ec9190610ec7565b6102cb565b005b6100fb6103b5565b604051610108919061108c565b60405180910390f35b61012b60048036038101906101269190610e74565b6103bb565b005b6101356107e2565b60405161014291906110a7565b60405180910390f35b61016560048036038101906101609190610ec7565b6107f5565b005b61016f610955565b60405161017c9190610fea565b60405180910390f35b61019f600480360381019061019a9190610e07565b6109e3565b6040516101ac919061108c565b60405180910390f35b6101bd610a2c565b6040516101ca9190610fea565b60405180910390f35b6101ed60048036038101906101e89190610ec7565b610aba565b005b6101f7610cf2565b604051610204919061108c565b60405180910390f35b61022760048036038101906102229190610e34565b610cfb565b604051610234919061108c565b60405180910390f35b6001805461024a906111e4565b80601f0160208091040260200160405190810160405280929190818152602001828054610276906111e4565b80156102c35780601f10610298576101008083540402835291602001916102c3565b820191906000526020600020905b8154815290600101906020018083116102a657829003601f168201915b505050505081565b80600660003373ffffffffffffffffffffffffffffffffffffffff1673ffffffffffffffffffffffffffffffffffffffff16815260200190815260200160002060008473ffffffffffffffffffffffffffffffffffffffff1673ffffffffffffffffffffffffffffffffffffffff168152602001908152602001600020819055508173ffffffffffffffffffffffffffffffffffffffff163373ffffffffffffffffffffffffffffffffffffffff167f8c5be1e5ebec7d5bd14f71427d1e84f3dd0314c0f7b2291e5b200ac8c7c3b925836040516103a9919061108c565b60405180910390a35050565b60005481565b600081116103fe576040517f08c379a00000000000000000000000000000000000000000000000000000000081526004016103f59061102c565b60405180910390fd5b80600560008573ffffffffffffffffffffffffffffffffffffffff1673ffffffffffffffffffffffffffffffffffffffff168152602001908152602001600020541015610480576040517f08c379a00000000000000000000000000000000000000000000000000000000081526004016104779061100c565b60405180910390fd5b80600660008573ffffffffffffffffffffffffffffffffffffffff1673ffffffffffffffffffffffffffffffffffffffff16815260200190815260200160002060003373ffffffffffffffffffffffffffffffffffffffff1673ffffffffffffffffffffffffffffffffffffffff16815260200190815260200160002054101561053f576040517f08c379a00000000000000000000000000000000000000000000000000000000081526004016105369061104c565b60405180910390fd5b61059181600560008573ffffffffffffffffffffffffffffffffffffffff1673ffffffffffffffffffffffffffffffffffffffff16815260200190815260200160002054610d8290919063ffffffff16565b600560008473ffffffffffffffffffffffffffffffffffffffff1673ffffffffffffffffffffffffffffffffffffffff1681526020019081526020016000208190555061062681600560008673ffffffffffffffffffffffffffffffffffffffff1673ffffffffffffffffffffffffffffffffffffffff16815260200190815260200160002054610daa90919063ffffffff16565b600560008573ffffffffffffffffffffffffffffffffffffffff1673ffffffffffffffffffffffffffffffffffffffff168152602001908152602001600020819055506106f881600660008673ffffffffffffffffffffffffffffffffffffffff1673ffffffffffffffffffffffffffffffffffffffff16815260200190815260200160002060003373ffffffffffffffffffffffffffffffffffffffff1673ffffffffffffffffffffffffffffffffffffffff16815260200190815260200160002054610daa90919063ffffffff16565b600660008573ffffffffffffffffffffffffffffffffffffffff1673ffffffffffffffffffffffffffffffffffffffff16815260200190815260200160002060003373ffffffffffffffffffffffffffffffffffffffff1673ffffffffffffffffffffffffffffffffffffffff168152602001908152602001600020819055508173ffffffffffffffffffffffffffffffffffffffff168373ffffffffffffffffffffffffffffffffffffffff167fddf252ad1be2c89b69c2b068fc378daa952ba7f163c4a11628f55a4df523b3ef836040516107d5919061108c565b60405180910390a3505050565b600260009054906101000a900460ff1681565b600073ffffffffffffffffffffffffffffffffffffffff168273ffffffffffffffffffffffffffffffffffffffff161415610865576040517f08c379a000000000000000000000000000000000000000000000000000000000815260040161085c9061106c565b60405180910390fd5b61087160008383610dd3565b8060008082825461088291906110de565b9250508190555080600560008473ffffffffffffffffffffffffffffffffffffffff1673ffffffffffffffffffffffffffffffffffffffff16815260200190815260200160002060008282546108d891906110de565b925050819055508173ffffffffffffffffffffffffffffffffffffffff16600073ffffffffffffffffffffffffffffffffffffffff167fddf252ad1be2c89b69c2b068fc378daa952ba7f163c4a11628f55a4df523b3ef8360405161093d919061108c565b60405180910390a361095160008383610dd8565b5050565b60048054610962906111e4565b80601f016020809104026020016040519081016040528092919081815260200182805461098e906111e4565b80156109db5780601f106109b0576101008083540402835291602001916109db565b820191906000526020600020905b8154815290600101906020018083116109be57829003601f168201915b505050505081565b6000600560008373ffffffffffffffffffffffffffffffffffffffff1673ffffffffffffffffffffffffffffffffffffffff168152602001908152602001600020549050919050565b60038054610a39906111e4565b80601f0160208091040260200160405190810160405280929190818152602001828054610a65906111e4565b8015610ab25780601f10610a8757610100808354040283529160200191610ab2565b820191906000526020600020905b815481529060010190602001808311610a9557829003601f168201915b505050505081565b6040600481610ac991906110de565b600036905014610adc57610adb611216565b5b60008211610b1f576040517f08c379a0000000000000000000000000000000000000000000000000000000008152600401610b169061102c565b60405180910390fd5b610bb0600560003373ffffffffffffffffffffffffffffffffffffffff1673ffffffffffffffffffffffffffffffffffffffff16815260200190815260200160002054600560003373ffffffffffffffffffffffffffffffffffffffff1673ffffffffffffffffffffffffffffffffffffffff16815260200190815260200160002054610daa90919063ffffffff16565b600560003373ffffffffffffffffffffffffffffffffffffffff1673ffffffffffffffffffffffffffffffffffffffff16815260200190815260200160002081905550610c4582600560008673ffffffffffffffffffffffffffffffffffffffff1673ffffffffffffffffffffffffffffffffffffffff16815260200190815260200160002054610d8290919063ffffffff16565b600560008573ffffffffffffffffffffffffffffffffffffffff1673ffffffffffffffffffffffffffffffffffffffff168152602001908152602001600020819055508273ffffffffffffffffffffffffffffffffffffffff163373ffffffffffffffffffffffffffffffffffffffff167fddf252ad1be2c89b69c2b068fc378daa952ba7f163c4a11628f55a4df523b3ef84604051610ce5919061108c565b60405180910390a3505050565b60008054905090565b6000600660008373ffffffffffffffffffffffffffffffffffffffff1673ffffffffffffffffffffffffffffffffffffffff16815260200190815260200160002060008473ffffffffffffffffffffffffffffffffffffffff1673ffffffffffffffffffffffffffffffffffffffff16815260200190815260200160002054905092915050565b6000808284610d9191906110de565b905083811015610da057600080fd5b8091505092915050565b600082821115610db957600080fd5b60008284610dc79190611134565b90508091505092915050565b505050565b505050565b600081359050610dec8161135d565b92915050565b600081359050610e0181611374565b92915050565b600060208284031215610e1d57610e1c6112a3565b5b6000610e2b84828501610ddd565b91505092915050565b60008060408385031215610e4b57610e4a6112a3565b5b6000610e5985828601610ddd565b9250506020610e6a85828601610ddd565b9150509250929050565b600080600060608486031215610e8d57610e8c6112a3565b5b6000610e9b86828701610ddd565b9350506020610eac86828701610ddd565b9250506040610ebd86828701610df2565b9150509250925092565b60008060408385031215610ede57610edd6112a3565b5b6000610eec85828601610ddd565b9250506020610efd85828601610df2565b9150509250929050565b6000610f12826110c2565b610f1c81856110cd565b9350610f2c8185602086016111b1565b610f35816112a8565b840191505092915050565b6000610f4d6010836110cd565b9150610f58826112b9565b602082019050919050565b6000610f70600b836110cd565b9150610f7b826112e2565b602082019050919050565b6000610f93600e836110cd565b9150610f9e8261130b565b602082019050919050565b6000610fb6601f836110cd565b9150610fc182611334565b602082019050919050565b610fd58161119a565b82525050565b610fe4816111a4565b82525050565b600060208201905081810360008301526110048184610f07565b905092915050565b6000602082019050818103600083015261102581610f40565b9050919050565b6000602082019050818103600083015261104581610f63565b9050919050565b6000602082019050818103600083015261106581610f86565b9050919050565b6000602082019050818103600083015261108581610fa9565b9050919050565b60006020820190506110a16000830184610fcc565b92915050565b60006020820190506110bc6000830184610fdb565b92915050565b600081519050919050565b600082825260208201905092915050565b60006110e98261119a565b91506110f48361119a565b9250827fffffffffffffffffffffffffffffffffffffffffffffffffffffffffffffffff0382111561112957611128611245565b5b828201905092915050565b600061113f8261119a565b915061114a8361119a565b92508282101561115d5761115c611245565b5b828203905092915050565b60006111738261117a565b9050919050565b600073ffffffffffffffffffffffffffffffffffffffff82169050919050565b6000819050919050565b600060ff82169050919050565b60005b838110156111cf5780820151818401526020810190506111b4565b838111156111de576000848401525b50505050565b600060028204905060018216806111fc57607f821691505b602082108114156112105761120f611274565b5b50919050565b7f4e487b7100000000000000000000000000000000000000000000000000000000600052600160045260246000fd5b7f4e487b7100000000000000000000000000000000000000000000000000000000600052601160045260246000fd5b7f4e487b7100000000000000000000000000000000000000000000000000000000600052602260045260246000fd5b600080fd5b6000601f19601f8301169050919050565b7f42616c616e6365203c20616d6f756e7400000000000000000000000000000000600082015250565b7f416d6f756e74203c3d2030000000000000000000000000000000000000000000600082015250565b7f446f6e277420616c6c6f7765642e000000000000000000000000000000000000600082015250565b7f45524332303a206d696e7420746f20746865207a65726f206164647265737300600082015250565b61136681611168565b811461137157600080fd5b50565b61137d8161119a565b811461138857600080fd5b5056fea2646970667358221220afb29e7a694a69317d3e2a65dbe33a3dbfd21a371eb1ea59707e204a7cfba9b164736f6c63430008070033",
					"opcodes": "PUSH1 0x80 PUSH1 0x40 MSTORE CALLVALUE DUP1 ISZERO PUSH2 0x10 JUMPI PUSH1 0x0 DUP1 REVERT JUMPDEST POP PUSH2 0x13C1 DUP1 PUSH2 0x20 PUSH1 0x0 CODECOPY PUSH1 0x0 RETURN INVALID PUSH1 0x80 PUSH1 0x40 MSTORE CALLVALUE DUP1 ISZERO PUSH2 0x10 JUMPI PUSH1 0x0 DUP1 REVERT JUMPDEST POP PUSH1 0x4 CALLDATASIZE LT PUSH2 0xB4 JUMPI PUSH1 0x0 CALLDATALOAD PUSH1 0xE0 SHR DUP1 PUSH4 0x54FD4D50 GT PUSH2 0x71 JUMPI DUP1 PUSH4 0x54FD4D50 EQ PUSH2 0x167 JUMPI DUP1 PUSH4 0x70A08231 EQ PUSH2 0x185 JUMPI DUP1 PUSH4 0x95D89B41 EQ PUSH2 0x1B5 JUMPI DUP1 PUSH4 0xA9059CBB EQ PUSH2 0x1D3 JUMPI DUP1 PUSH4 0xC4E41B22 EQ PUSH2 0x1EF JUMPI DUP1 PUSH4 0xDD62ED3E EQ PUSH2 0x20D JUMPI PUSH2 0xB4 JUMP JUMPDEST DUP1 PUSH4 0x6FDDE03 EQ PUSH2 0xB9 JUMPI DUP1 PUSH4 0x95EA7B3 EQ PUSH2 0xD7 JUMPI DUP1 PUSH4 0x18160DDD EQ PUSH2 0xF3 JUMPI DUP1 PUSH4 0x23B872DD EQ PUSH2 0x111 JUMPI DUP1 PUSH4 0x313CE567 EQ PUSH2 0x12D JUMPI DUP1 PUSH4 0x40C10F19 EQ PUSH2 0x14B JUMPI JUMPDEST PUSH1 0x0 DUP1 REVERT JUMPDEST PUSH2 0xC1 PUSH2 0x23D JUMP JUMPDEST PUSH1 0x40 MLOAD PUSH2 0xCE SWAP2 SWAP1 PUSH2 0xFEA JUMP JUMPDEST PUSH1 0x40 MLOAD DUP1 SWAP2 SUB SWAP1 RETURN JUMPDEST PUSH2 0xF1 PUSH1 0x4 DUP1 CALLDATASIZE SUB DUP2 ADD SWAP1 PUSH2 0xEC SWAP2 SWAP1 PUSH2 0xEC7 JUMP JUMPDEST PUSH2 0x2CB JUMP JUMPDEST STOP JUMPDEST PUSH2 0xFB PUSH2 0x3B5 JUMP JUMPDEST PUSH1 0x40 MLOAD PUSH2 0x108 SWAP2 SWAP1 PUSH2 0x108C JUMP JUMPDEST PUSH1 0x40 MLOAD DUP1 SWAP2 SUB SWAP1 RETURN JUMPDEST PUSH2 0x12B PUSH1 0x4 DUP1 CALLDATASIZE SUB DUP2 ADD SWAP1 PUSH2 0x126 SWAP2 SWAP1 PUSH2 0xE74 JUMP JUMPDEST PUSH2 0x3BB JUMP JUMPDEST STOP JUMPDEST PUSH2 0x135 PUSH2 0x7E2 JUMP JUMPDEST PUSH1 0x40 MLOAD PUSH2 0x142 SWAP2 SWAP1 PUSH2 0x10A7 JUMP JUMPDEST PUSH1 0x40 MLOAD DUP1 SWAP2 SUB SWAP1 RETURN JUMPDEST PUSH2 0x165 PUSH1 0x4 DUP1 CALLDATASIZE SUB DUP2 ADD SWAP1 PUSH2 0x160 SWAP2 SWAP1 PUSH2 0xEC7 JUMP JUMPDEST PUSH2 0x7F5 JUMP JUMPDEST STOP JUMPDEST PUSH2 0x16F PUSH2 0x955 JUMP JUMPDEST PUSH1 0x40 MLOAD PUSH2 0x17C SWAP2 SWAP1 PUSH2 0xFEA JUMP JUMPDEST PUSH1 0x40 MLOAD DUP1 SWAP2 SUB SWAP1 RETURN JUMPDEST PUSH2 0x19F PUSH1 0x4 DUP1 CALLDATASIZE SUB DUP2 ADD SWAP1 PUSH2 0x19A SWAP2 SWAP1 PUSH2 0xE07 JUMP JUMPDEST PUSH2 0x9E3 JUMP JUMPDEST PUSH1 0x40 MLOAD PUSH2 0x1AC SWAP2 SWAP1 PUSH2 0x108C JUMP JUMPDEST PUSH1 0x40 MLOAD DUP1 SWAP2 SUB SWAP1 RETURN JUMPDEST PUSH2 0x1BD PUSH2 0xA2C JUMP JUMPDEST PUSH1 0x40 MLOAD PUSH2 0x1CA SWAP2 SWAP1 PUSH2 0xFEA JUMP JUMPDEST PUSH1 0x40 MLOAD DUP1 SWAP2 SUB SWAP1 RETURN JUMPDEST PUSH2 0x1ED PUSH1 0x4 DUP1 CALLDATASIZE SUB DUP2 ADD SWAP1 PUSH2 0x1E8 SWAP2 SWAP1 PUSH2 0xEC7 JUMP JUMPDEST PUSH2 0xABA JUMP JUMPDEST STOP JUMPDEST PUSH2 0x1F7 PUSH2 0xCF2 JUMP JUMPDEST PUSH1 0x40 MLOAD PUSH2 0x204 SWAP2 SWAP1 PUSH2 0x108C JUMP JUMPDEST PUSH1 0x40 MLOAD DUP1 SWAP2 SUB SWAP1 RETURN JUMPDEST PUSH2 0x227 PUSH1 0x4 DUP1 CALLDATASIZE SUB DUP2 ADD SWAP1 PUSH2 0x222 SWAP2 SWAP1 PUSH2 0xE34 JUMP JUMPDEST PUSH2 0xCFB JUMP JUMPDEST PUSH1 0x40 MLOAD PUSH2 0x234 SWAP2 SWAP1 PUSH2 0x108C JUMP JUMPDEST PUSH1 0x40 MLOAD DUP1 SWAP2 SUB SWAP1 RETURN JUMPDEST PUSH1 0x1 DUP1 SLOAD PUSH2 0x24A SWAP1 PUSH2 0x11E4 JUMP JUMPDEST DUP1 PUSH1 0x1F ADD PUSH1 0x20 DUP1 SWAP2 DIV MUL PUSH1 0x20 ADD PUSH1 0x40 MLOAD SWAP1 DUP2 ADD PUSH1 0x40 MSTORE DUP1 SWAP3 SWAP2 SWAP1 DUP2 DUP2 MSTORE PUSH1 0x20 ADD DUP3 DUP1 SLOAD PUSH2 0x276 SWAP1 PUSH2 0x11E4 JUMP JUMPDEST DUP1 ISZERO PUSH2 0x2C3 JUMPI DUP1 PUSH1 0x1F LT PUSH2 0x298 JUMPI PUSH2 0x100 DUP1 DUP4 SLOAD DIV MUL DUP4 MSTORE SWAP2 PUSH1 0x20 ADD SWAP2 PUSH2 0x2C3 JUMP JUMPDEST DUP3 ADD SWAP2 SWAP1 PUSH1 0x0 MSTORE PUSH1 0x20 PUSH1 0x0 KECCAK256 SWAP1 JUMPDEST DUP2 SLOAD DUP2 MSTORE SWAP1 PUSH1 0x1 ADD SWAP1 PUSH1 0x20 ADD DUP1 DUP4 GT PUSH2 0x2A6 JUMPI DUP3 SWAP1 SUB PUSH1 0x1F AND DUP3 ADD SWAP2 JUMPDEST POP POP POP POP POP DUP2 JUMP JUMPDEST DUP1 PUSH1 0x6 PUSH1 0x0 CALLER PUSH20 0xFFFFFFFFFFFFFFFFFFFFFFFFFFFFFFFFFFFFFFFF AND PUSH20 0xFFFFFFFFFFFFFFFFFFFFFFFFFFFFFFFFFFFFFFFF AND DUP2 MSTORE PUSH1 0x20 ADD SWAP1 DUP2 MSTORE PUSH1 0x20 ADD PUSH1 0x0 KECCAK256 PUSH1 0x0 DUP5 PUSH20 0xFFFFFFFFFFFFFFFFFFFFFFFFFFFFFFFFFFFFFFFF AND PUSH20 0xFFFFFFFFFFFFFFFFFFFFFFFFFFFFFFFFFFFFFFFF AND DUP2 MSTORE PUSH1 0x20 ADD SWAP1 DUP2 MSTORE PUSH1 0x20 ADD PUSH1 0x0 KECCAK256 DUP2 SWAP1 SSTORE POP DUP2 PUSH20 0xFFFFFFFFFFFFFFFFFFFFFFFFFFFFFFFFFFFFFFFF AND CALLER PUSH20 0xFFFFFFFFFFFFFFFFFFFFFFFFFFFFFFFFFFFFFFFF AND PUSH32 0x8C5BE1E5EBEC7D5BD14F71427D1E84F3DD0314C0F7B2291E5B200AC8C7C3B925 DUP4 PUSH1 0x40 MLOAD PUSH2 0x3A9 SWAP2 SWAP1 PUSH2 0x108C JUMP JUMPDEST PUSH1 0x40 MLOAD DUP1 SWAP2 SUB SWAP1 LOG3 POP POP JUMP JUMPDEST PUSH1 0x0 SLOAD DUP2 JUMP JUMPDEST PUSH1 0x0 DUP2 GT PUSH2 0x3FE JUMPI PUSH1 0x40 MLOAD PUSH32 0x8C379A000000000000000000000000000000000000000000000000000000000 DUP2 MSTORE PUSH1 0x4 ADD PUSH2 0x3F5 SWAP1 PUSH2 0x102C JUMP JUMPDEST PUSH1 0x40 MLOAD DUP1 SWAP2 SUB SWAP1 REVERT JUMPDEST DUP1 PUSH1 0x5 PUSH1 0x0 DUP6 PUSH20 0xFFFFFFFFFFFFFFFFFFFFFFFFFFFFFFFFFFFFFFFF AND PUSH20 0xFFFFFFFFFFFFFFFFFFFFFFFFFFFFFFFFFFFFFFFF AND DUP2 MSTORE PUSH1 0x20 ADD SWAP1 DUP2 MSTORE PUSH1 0x20 ADD PUSH1 0x0 KECCAK256 SLOAD LT ISZERO PUSH2 0x480 JUMPI PUSH1 0x40 MLOAD PUSH32 0x8C379A000000000000000000000000000000000000000000000000000000000 DUP2 MSTORE PUSH1 0x4 ADD PUSH2 0x477 SWAP1 PUSH2 0x100C JUMP JUMPDEST PUSH1 0x40 MLOAD DUP1 SWAP2 SUB SWAP1 REVERT JUMPDEST DUP1 PUSH1 0x6 PUSH1 0x0 DUP6 PUSH20 0xFFFFFFFFFFFFFFFFFFFFFFFFFFFFFFFFFFFFFFFF AND PUSH20 0xFFFFFFFFFFFFFFFFFFFFFFFFFFFFFFFFFFFFFFFF AND DUP2 MSTORE PUSH1 0x20 ADD SWAP1 DUP2 MSTORE PUSH1 0x20 ADD PUSH1 0x0 KECCAK256 PUSH1 0x0 CALLER PUSH20 0xFFFFFFFFFFFFFFFFFFFFFFFFFFFFFFFFFFFFFFFF AND PUSH20 0xFFFFFFFFFFFFFFFFFFFFFFFFFFFFFFFFFFFFFFFF AND DUP2 MSTORE PUSH1 0x20 ADD SWAP1 DUP2 MSTORE PUSH1 0x20 ADD PUSH1 0x0 KECCAK256 SLOAD LT ISZERO PUSH2 0x53F JUMPI PUSH1 0x40 MLOAD PUSH32 0x8C379A000000000000000000000000000000000000000000000000000000000 DUP2 MSTORE PUSH1 0x4 ADD PUSH2 0x536 SWAP1 PUSH2 0x104C JUMP JUMPDEST PUSH1 0x40 MLOAD DUP1 SWAP2 SUB SWAP1 REVERT JUMPDEST PUSH2 0x591 DUP2 PUSH1 0x5 PUSH1 0x0 DUP6 PUSH20 0xFFFFFFFFFFFFFFFFFFFFFFFFFFFFFFFFFFFFFFFF AND PUSH20 0xFFFFFFFFFFFFFFFFFFFFFFFFFFFFFFFFFFFFFFFF AND DUP2 MSTORE PUSH1 0x20 ADD SWAP1 DUP2 MSTORE PUSH1 0x20 ADD PUSH1 0x0 KECCAK256 SLOAD PUSH2 0xD82 SWAP1 SWAP2 SWAP1 PUSH4 0xFFFFFFFF AND JUMP JUMPDEST PUSH1 0x5 PUSH1 0x0 DUP5 PUSH20 0xFFFFFFFFFFFFFFFFFFFFFFFFFFFFFFFFFFFFFFFF AND PUSH20 0xFFFFFFFFFFFFFFFFFFFFFFFFFFFFFFFFFFFFFFFF AND DUP2 MSTORE PUSH1 0x20 ADD SWAP1 DUP2 MSTORE PUSH1 0x20 ADD PUSH1 0x0 KECCAK256 DUP2 SWAP1 SSTORE POP PUSH2 0x626 DUP2 PUSH1 0x5 PUSH1 0x0 DUP7 PUSH20 0xFFFFFFFFFFFFFFFFFFFFFFFFFFFFFFFFFFFFFFFF AND PUSH20 0xFFFFFFFFFFFFFFFFFFFFFFFFFFFFFFFFFFFFFFFF AND DUP2 MSTORE PUSH1 0x20 ADD SWAP1 DUP2 MSTORE PUSH1 0x20 ADD PUSH1 0x0 KECCAK256 SLOAD PUSH2 0xDAA SWAP1 SWAP2 SWAP1 PUSH4 0xFFFFFFFF AND JUMP JUMPDEST PUSH1 0x5 PUSH1 0x0 DUP6 PUSH20 0xFFFFFFFFFFFFFFFFFFFFFFFFFFFFFFFFFFFFFFFF AND PUSH20 0xFFFFFFFFFFFFFFFFFFFFFFFFFFFFFFFFFFFFFFFF AND DUP2 MSTORE PUSH1 0x20 ADD SWAP1 DUP2 MSTORE PUSH1 0x20 ADD PUSH1 0x0 KECCAK256 DUP2 SWAP1 SSTORE POP PUSH2 0x6F8 DUP2 PUSH1 0x6 PUSH1 0x0 DUP7 PUSH20 0xFFFFFFFFFFFFFFFFFFFFFFFFFFFFFFFFFFFFFFFF AND PUSH20 0xFFFFFFFFFFFFFFFFFFFFFFFFFFFFFFFFFFFFFFFF AND DUP2 MSTORE PUSH1 0x20 ADD SWAP1 DUP2 MSTORE PUSH1 0x20 ADD PUSH1 0x0 KECCAK256 PUSH1 0x0 CALLER PUSH20 0xFFFFFFFFFFFFFFFFFFFFFFFFFFFFFFFFFFFFFFFF AND PUSH20 0xFFFFFFFFFFFFFFFFFFFFFFFFFFFFFFFFFFFFFFFF AND DUP2 MSTORE PUSH1 0x20 ADD SWAP1 DUP2 MSTORE PUSH1 0x20 ADD PUSH1 0x0 KECCAK256 SLOAD PUSH2 0xDAA SWAP1 SWAP2 SWAP1 PUSH4 0xFFFFFFFF AND JUMP JUMPDEST PUSH1 0x6 PUSH1 0x0 DUP6 PUSH20 0xFFFFFFFFFFFFFFFFFFFFFFFFFFFFFFFFFFFFFFFF AND PUSH20 0xFFFFFFFFFFFFFFFFFFFFFFFFFFFFFFFFFFFFFFFF AND DUP2 MSTORE PUSH1 0x20 ADD SWAP1 DUP2 MSTORE PUSH1 0x20 ADD PUSH1 0x0 KECCAK256 PUSH1 0x0 CALLER PUSH20 0xFFFFFFFFFFFFFFFFFFFFFFFFFFFFFFFFFFFFFFFF AND PUSH20 0xFFFFFFFFFFFFFFFFFFFFFFFFFFFFFFFFFFFFFFFF AND DUP2 MSTORE PUSH1 0x20 ADD SWAP1 DUP2 MSTORE PUSH1 0x20 ADD PUSH1 0x0 KECCAK256 DUP2 SWAP1 SSTORE POP DUP2 PUSH20 0xFFFFFFFFFFFFFFFFFFFFFFFFFFFFFFFFFFFFFFFF AND DUP4 PUSH20 0xFFFFFFFFFFFFFFFFFFFFFFFFFFFFFFFFFFFFFFFF AND PUSH32 0xDDF252AD1BE2C89B69C2B068FC378DAA952BA7F163C4A11628F55A4DF523B3EF DUP4 PUSH1 0x40 MLOAD PUSH2 0x7D5 SWAP2 SWAP1 PUSH2 0x108C JUMP JUMPDEST PUSH1 0x40 MLOAD DUP1 SWAP2 SUB SWAP1 LOG3 POP POP POP JUMP JUMPDEST PUSH1 0x2 PUSH1 0x0 SWAP1 SLOAD SWAP1 PUSH2 0x100 EXP SWAP1 DIV PUSH1 0xFF AND DUP2 JUMP JUMPDEST PUSH1 0x0 PUSH20 0xFFFFFFFFFFFFFFFFFFFFFFFFFFFFFFFFFFFFFFFF AND DUP3 PUSH20 0xFFFFFFFFFFFFFFFFFFFFFFFFFFFFFFFFFFFFFFFF AND EQ ISZERO PUSH2 0x865 JUMPI PUSH1 0x40 MLOAD PUSH32 0x8C379A000000000000000000000000000000000000000000000000000000000 DUP2 MSTORE PUSH1 0x4 ADD PUSH2 0x85C SWAP1 PUSH2 0x106C JUMP JUMPDEST PUSH1 0x40 MLOAD DUP1 SWAP2 SUB SWAP1 REVERT JUMPDEST PUSH2 0x871 PUSH1 0x0 DUP4 DUP4 PUSH2 0xDD3 JUMP JUMPDEST DUP1 PUSH1 0x0 DUP1 DUP3 DUP3 SLOAD PUSH2 0x882 SWAP2 SWAP1 PUSH2 0x10DE JUMP JUMPDEST SWAP3 POP POP DUP2 SWAP1 SSTORE POP DUP1 PUSH1 0x5 PUSH1 0x0 DUP5 PUSH20 0xFFFFFFFFFFFFFFFFFFFFFFFFFFFFFFFFFFFFFFFF AND PUSH20 0xFFFFFFFFFFFFFFFFFFFFFFFFFFFFFFFFFFFFFFFF AND DUP2 MSTORE PUSH1 0x20 ADD SWAP1 DUP2 MSTORE PUSH1 0x20 ADD PUSH1 0x0 KECCAK256 PUSH1 0x0 DUP3 DUP3 SLOAD PUSH2 0x8D8 SWAP2 SWAP1 PUSH2 0x10DE JUMP JUMPDEST SWAP3 POP POP DUP2 SWAP1 SSTORE POP DUP2 PUSH20 0xFFFFFFFFFFFFFFFFFFFFFFFFFFFFFFFFFFFFFFFF AND PUSH1 0x0 PUSH20 0xFFFFFFFFFFFFFFFFFFFFFFFFFFFFFFFFFFFFFFFF AND PUSH32 0xDDF252AD1BE2C89B69C2B068FC378DAA952BA7F163C4A11628F55A4DF523B3EF DUP4 PUSH1 0x40 MLOAD PUSH2 0x93D SWAP2 SWAP1 PUSH2 0x108C JUMP JUMPDEST PUSH1 0x40 MLOAD DUP1 SWAP2 SUB SWAP1 LOG3 PUSH2 0x951 PUSH1 0x0 DUP4 DUP4 PUSH2 0xDD8 JUMP JUMPDEST POP POP JUMP JUMPDEST PUSH1 0x4 DUP1 SLOAD PUSH2 0x962 SWAP1 PUSH2 0x11E4 JUMP JUMPDEST DUP1 PUSH1 0x1F ADD PUSH1 0x20 DUP1 SWAP2 DIV MUL PUSH1 0x20 ADD PUSH1 0x40 MLOAD SWAP1 DUP2 ADD PUSH1 0x40 MSTORE DUP1 SWAP3 SWAP2 SWAP1 DUP2 DUP2 MSTORE PUSH1 0x20 ADD DUP3 DUP1 SLOAD PUSH2 0x98E SWAP1 PUSH2 0x11E4 JUMP JUMPDEST DUP1 ISZERO PUSH2 0x9DB JUMPI DUP1 PUSH1 0x1F LT PUSH2 0x9B0 JUMPI PUSH2 0x100 DUP1 DUP4 SLOAD DIV MUL DUP4 MSTORE SWAP2 PUSH1 0x20 ADD SWAP2 PUSH2 0x9DB JUMP JUMPDEST DUP3 ADD SWAP2 SWAP1 PUSH1 0x0 MSTORE PUSH1 0x20 PUSH1 0x0 KECCAK256 SWAP1 JUMPDEST DUP2 SLOAD DUP2 MSTORE SWAP1 PUSH1 0x1 ADD SWAP1 PUSH1 0x20 ADD DUP1 DUP4 GT PUSH2 0x9BE JUMPI DUP3 SWAP1 SUB PUSH1 0x1F AND DUP3 ADD SWAP2 JUMPDEST POP POP POP POP POP DUP2 JUMP JUMPDEST PUSH1 0x0 PUSH1 0x5 PUSH1 0x0 DUP4 PUSH20 0xFFFFFFFFFFFFFFFFFFFFFFFFFFFFFFFFFFFFFFFF AND PUSH20 0xFFFFFFFFFFFFFFFFFFFFFFFFFFFFFFFFFFFFFFFF AND DUP2 MSTORE PUSH1 0x20 ADD SWAP1 DUP2 MSTORE PUSH1 0x20 ADD PUSH1 0x0 KECCAK256 SLOAD SWAP1 POP SWAP2 SWAP1 POP JUMP JUMPDEST PUSH1 0x3 DUP1 SLOAD PUSH2 0xA39 SWAP1 PUSH2 0x11E4 JUMP JUMPDEST DUP1 PUSH1 0x1F ADD PUSH1 0x20 DUP1 SWAP2 DIV MUL PUSH1 0x20 ADD PUSH1 0x40 MLOAD SWAP1 DUP2 ADD PUSH1 0x40 MSTORE DUP1 SWAP3 SWAP2 SWAP1 DUP2 DUP2 MSTORE PUSH1 0x20 ADD DUP3 DUP1 SLOAD PUSH2 0xA65 SWAP1 PUSH2 0x11E4 JUMP JUMPDEST DUP1 ISZERO PUSH2 0xAB2 JUMPI DUP1 PUSH1 0x1F LT PUSH2 0xA87 JUMPI PUSH2 0x100 DUP1 DUP4 SLOAD DIV MUL DUP4 MSTORE SWAP2 PUSH1 0x20 ADD SWAP2 PUSH2 0xAB2 JUMP JUMPDEST DUP3 ADD SWAP2 SWAP1 PUSH1 0x0 MSTORE PUSH1 0x20 PUSH1 0x0 KECCAK256 SWAP1 JUMPDEST DUP2 SLOAD DUP2 MSTORE SWAP1 PUSH1 0x1 ADD SWAP1 PUSH1 0x20 ADD DUP1 DUP4 GT PUSH2 0xA95 JUMPI DUP3 SWAP1 SUB PUSH1 0x1F AND DUP3 ADD SWAP2 JUMPDEST POP POP POP POP POP DUP2 JUMP JUMPDEST PUSH1 0x40 PUSH1 0x4 DUP2 PUSH2 0xAC9 SWAP2 SWAP1 PUSH2 0x10DE JUMP JUMPDEST PUSH1 0x0 CALLDATASIZE SWAP1 POP EQ PUSH2 0xADC JUMPI PUSH2 0xADB PUSH2 0x1216 JUMP JUMPDEST JUMPDEST PUSH1 0x0 DUP3 GT PUSH2 0xB1F JUMPI PUSH1 0x40 MLOAD PUSH32 0x8C379A000000000000000000000000000000000000000000000000000000000 DUP2 MSTORE PUSH1 0x4 ADD PUSH2 0xB16 SWAP1 PUSH2 0x102C JUMP JUMPDEST PUSH1 0x40 MLOAD DUP1 SWAP2 SUB SWAP1 REVERT JUMPDEST PUSH2 0xBB0 PUSH1 0x5 PUSH1 0x0 CALLER PUSH20 0xFFFFFFFFFFFFFFFFFFFFFFFFFFFFFFFFFFFFFFFF AND PUSH20 0xFFFFFFFFFFFFFFFFFFFFFFFFFFFFFFFFFFFFFFFF AND DUP2 MSTORE PUSH1 0x20 ADD SWAP1 DUP2 MSTORE PUSH1 0x20 ADD PUSH1 0x0 KECCAK256 SLOAD PUSH1 0x5 PUSH1 0x0 CALLER PUSH20 0xFFFFFFFFFFFFFFFFFFFFFFFFFFFFFFFFFFFFFFFF AND PUSH20 0xFFFFFFFFFFFFFFFFFFFFFFFFFFFFFFFFFFFFFFFF AND DUP2 MSTORE PUSH1 0x20 ADD SWAP1 DUP2 MSTORE PUSH1 0x20 ADD PUSH1 0x0 KECCAK256 SLOAD PUSH2 0xDAA SWAP1 SWAP2 SWAP1 PUSH4 0xFFFFFFFF AND JUMP JUMPDEST PUSH1 0x5 PUSH1 0x0 CALLER PUSH20 0xFFFFFFFFFFFFFFFFFFFFFFFFFFFFFFFFFFFFFFFF AND PUSH20 0xFFFFFFFFFFFFFFFFFFFFFFFFFFFFFFFFFFFFFFFF AND DUP2 MSTORE PUSH1 0x20 ADD SWAP1 DUP2 MSTORE PUSH1 0x20 ADD PUSH1 0x0 KECCAK256 DUP2 SWAP1 SSTORE POP PUSH2 0xC45 DUP3 PUSH1 0x5 PUSH1 0x0 DUP7 PUSH20 0xFFFFFFFFFFFFFFFFFFFFFFFFFFFFFFFFFFFFFFFF AND PUSH20 0xFFFFFFFFFFFFFFFFFFFFFFFFFFFFFFFFFFFFFFFF AND DUP2 MSTORE PUSH1 0x20 ADD SWAP1 DUP2 MSTORE PUSH1 0x20 ADD PUSH1 0x0 KECCAK256 SLOAD PUSH2 0xD82 SWAP1 SWAP2 SWAP1 PUSH4 0xFFFFFFFF AND JUMP JUMPDEST PUSH1 0x5 PUSH1 0x0 DUP6 PUSH20 0xFFFFFFFFFFFFFFFFFFFFFFFFFFFFFFFFFFFFFFFF AND PUSH20 0xFFFFFFFFFFFFFFFFFFFFFFFFFFFFFFFFFFFFFFFF AND DUP2 MSTORE PUSH1 0x20 ADD SWAP1 DUP2 MSTORE PUSH1 0x20 ADD PUSH1 0x0 KECCAK256 DUP2 SWAP1 SSTORE POP DUP3 PUSH20 0xFFFFFFFFFFFFFFFFFFFFFFFFFFFFFFFFFFFFFFFF AND CALLER PUSH20 0xFFFFFFFFFFFFFFFFFFFFFFFFFFFFFFFFFFFFFFFF AND PUSH32 0xDDF252AD1BE2C89B69C2B068FC378DAA952BA7F163C4A11628F55A4DF523B3EF DUP5 PUSH1 0x40 MLOAD PUSH2 0xCE5 SWAP2 SWAP1 PUSH2 0x108C JUMP JUMPDEST PUSH1 0x40 MLOAD DUP1 SWAP2 SUB SWAP1 LOG3 POP POP POP JUMP JUMPDEST PUSH1 0x0 DUP1 SLOAD SWAP1 POP SWAP1 JUMP JUMPDEST PUSH1 0x0 PUSH1 0x6 PUSH1 0x0 DUP4 PUSH20 0xFFFFFFFFFFFFFFFFFFFFFFFFFFFFFFFFFFFFFFFF AND PUSH20 0xFFFFFFFFFFFFFFFFFFFFFFFFFFFFFFFFFFFFFFFF AND DUP2 MSTORE PUSH1 0x20 ADD SWAP1 DUP2 MSTORE PUSH1 0x20 ADD PUSH1 0x0 KECCAK256 PUSH1 0x0 DUP5 PUSH20 0xFFFFFFFFFFFFFFFFFFFFFFFFFFFFFFFFFFFFFFFF AND PUSH20 0xFFFFFFFFFFFFFFFFFFFFFFFFFFFFFFFFFFFFFFFF AND DUP2 MSTORE PUSH1 0x20 ADD SWAP1 DUP2 MSTORE PUSH1 0x20 ADD PUSH1 0x0 KECCAK256 SLOAD SWAP1 POP SWAP3 SWAP2 POP POP JUMP JUMPDEST PUSH1 0x0 DUP1 DUP3 DUP5 PUSH2 0xD91 SWAP2 SWAP1 PUSH2 0x10DE JUMP JUMPDEST SWAP1 POP DUP4 DUP2 LT ISZERO PUSH2 0xDA0 JUMPI PUSH1 0x0 DUP1 REVERT JUMPDEST DUP1 SWAP2 POP POP SWAP3 SWAP2 POP POP JUMP JUMPDEST PUSH1 0x0 DUP3 DUP3 GT ISZERO PUSH2 0xDB9 JUMPI PUSH1 0x0 DUP1 REVERT JUMPDEST PUSH1 0x0 DUP3 DUP5 PUSH2 0xDC7 SWAP2 SWAP1 PUSH2 0x1134 JUMP JUMPDEST SWAP1 POP DUP1 SWAP2 POP POP SWAP3 SWAP2 POP POP JUMP JUMPDEST POP POP POP JUMP JUMPDEST POP POP POP JUMP JUMPDEST PUSH1 0x0 DUP2 CALLDATALOAD SWAP1 POP PUSH2 0xDEC DUP2 PUSH2 0x135D JUMP JUMPDEST SWAP3 SWAP2 POP POP JUMP JUMPDEST PUSH1 0x0 DUP2 CALLDATALOAD SWAP1 POP PUSH2 0xE01 DUP2 PUSH2 0x1374 JUMP JUMPDEST SWAP3 SWAP2 POP POP JUMP JUMPDEST PUSH1 0x0 PUSH1 0x20 DUP3 DUP5 SUB SLT ISZERO PUSH2 0xE1D JUMPI PUSH2 0xE1C PUSH2 0x12A3 JUMP JUMPDEST JUMPDEST PUSH1 0x0 PUSH2 0xE2B DUP5 DUP3 DUP6 ADD PUSH2 0xDDD JUMP JUMPDEST SWAP2 POP POP SWAP3 SWAP2 POP POP JUMP JUMPDEST PUSH1 0x0 DUP1 PUSH1 0x40 DUP4 DUP6 SUB SLT ISZERO PUSH2 0xE4B JUMPI PUSH2 0xE4A PUSH2 0x12A3 JUMP JUMPDEST JUMPDEST PUSH1 0x0 PUSH2 0xE59 DUP6 DUP3 DUP7 ADD PUSH2 0xDDD JUMP JUMPDEST SWAP3 POP POP PUSH1 0x20 PUSH2 0xE6A DUP6 DUP3 DUP7 ADD PUSH2 0xDDD JUMP JUMPDEST SWAP2 POP POP SWAP3 POP SWAP3 SWAP1 POP JUMP JUMPDEST PUSH1 0x0 DUP1 PUSH1 0x0 PUSH1 0x60 DUP5 DUP7 SUB SLT ISZERO PUSH2 0xE8D JUMPI PUSH2 0xE8C PUSH2 0x12A3 JUMP JUMPDEST JUMPDEST PUSH1 0x0 PUSH2 0xE9B DUP7 DUP3 DUP8 ADD PUSH2 0xDDD JUMP JUMPDEST SWAP4 POP POP PUSH1 0x20 PUSH2 0xEAC DUP7 DUP3 DUP8 ADD PUSH2 0xDDD JUMP JUMPDEST SWAP3 POP POP PUSH1 0x40 PUSH2 0xEBD DUP7 DUP3 DUP8 ADD PUSH2 0xDF2 JUMP JUMPDEST SWAP2 POP POP SWAP3 POP SWAP3 POP SWAP3 JUMP JUMPDEST PUSH1 0x0 DUP1 PUSH1 0x40 DUP4 DUP6 SUB SLT ISZERO PUSH2 0xEDE JUMPI PUSH2 0xEDD PUSH2 0x12A3 JUMP JUMPDEST JUMPDEST PUSH1 0x0 PUSH2 0xEEC DUP6 DUP3 DUP7 ADD PUSH2 0xDDD JUMP JUMPDEST SWAP3 POP POP PUSH1 0x20 PUSH2 0xEFD DUP6 DUP3 DUP7 ADD PUSH2 0xDF2 JUMP JUMPDEST SWAP2 POP POP SWAP3 POP SWAP3 SWAP1 POP JUMP JUMPDEST PUSH1 0x0 PUSH2 0xF12 DUP3 PUSH2 0x10C2 JUMP JUMPDEST PUSH2 0xF1C DUP2 DUP6 PUSH2 0x10CD JUMP JUMPDEST SWAP4 POP PUSH2 0xF2C DUP2 DUP6 PUSH1 0x20 DUP7 ADD PUSH2 0x11B1 JUMP JUMPDEST PUSH2 0xF35 DUP2 PUSH2 0x12A8 JUMP JUMPDEST DUP5 ADD SWAP2 POP POP SWAP3 SWAP2 POP POP JUMP JUMPDEST PUSH1 0x0 PUSH2 0xF4D PUSH1 0x10 DUP4 PUSH2 0x10CD JUMP JUMPDEST SWAP2 POP PUSH2 0xF58 DUP3 PUSH2 0x12B9 JUMP JUMPDEST PUSH1 0x20 DUP3 ADD SWAP1 POP SWAP2 SWAP1 POP JUMP JUMPDEST PUSH1 0x0 PUSH2 0xF70 PUSH1 0xB DUP4 PUSH2 0x10CD JUMP JUMPDEST SWAP2 POP PUSH2 0xF7B DUP3 PUSH2 0x12E2 JUMP JUMPDEST PUSH1 0x20 DUP3 ADD SWAP1 POP SWAP2 SWAP1 POP JUMP JUMPDEST PUSH1 0x0 PUSH2 0xF93 PUSH1 0xE DUP4 PUSH2 0x10CD JUMP JUMPDEST SWAP2 POP PUSH2 0xF9E DUP3 PUSH2 0x130B JUMP JUMPDEST PUSH1 0x20 DUP3 ADD SWAP1 POP SWAP2 SWAP1 POP JUMP JUMPDEST PUSH1 0x0 PUSH2 0xFB6 PUSH1 0x1F DUP4 PUSH2 0x10CD JUMP JUMPDEST SWAP2 POP PUSH2 0xFC1 DUP3 PUSH2 0x1334 JUMP JUMPDEST PUSH1 0x20 DUP3 ADD SWAP1 POP SWAP2 SWAP1 POP JUMP JUMPDEST PUSH2 0xFD5 DUP2 PUSH2 0x119A JUMP JUMPDEST DUP3 MSTORE POP POP JUMP JUMPDEST PUSH2 0xFE4 DUP2 PUSH2 0x11A4 JUMP JUMPDEST DUP3 MSTORE POP POP JUMP JUMPDEST PUSH1 0x0 PUSH1 0x20 DUP3 ADD SWAP1 POP DUP2 DUP2 SUB PUSH1 0x0 DUP4 ADD MSTORE PUSH2 0x1004 DUP2 DUP5 PUSH2 0xF07 JUMP JUMPDEST SWAP1 POP SWAP3 SWAP2 POP POP JUMP JUMPDEST PUSH1 0x0 PUSH1 0x20 DUP3 ADD SWAP1 POP DUP2 DUP2 SUB PUSH1 0x0 DUP4 ADD MSTORE PUSH2 0x1025 DUP2 PUSH2 0xF40 JUMP JUMPDEST SWAP1 POP SWAP2 SWAP1 POP JUMP JUMPDEST PUSH1 0x0 PUSH1 0x20 DUP3 ADD SWAP1 POP DUP2 DUP2 SUB PUSH1 0x0 DUP4 ADD MSTORE PUSH2 0x1045 DUP2 PUSH2 0xF63 JUMP JUMPDEST SWAP1 POP SWAP2 SWAP1 POP JUMP JUMPDEST PUSH1 0x0 PUSH1 0x20 DUP3 ADD SWAP1 POP DUP2 DUP2 SUB PUSH1 0x0 DUP4 ADD MSTORE PUSH2 0x1065 DUP2 PUSH2 0xF86 JUMP JUMPDEST SWAP1 POP SWAP2 SWAP1 POP JUMP JUMPDEST PUSH1 0x0 PUSH1 0x20 DUP3 ADD SWAP1 POP DUP2 DUP2 SUB PUSH1 0x0 DUP4 ADD MSTORE PUSH2 0x1085 DUP2 PUSH2 0xFA9 JUMP JUMPDEST SWAP1 POP SWAP2 SWAP1 POP JUMP JUMPDEST PUSH1 0x0 PUSH1 0x20 DUP3 ADD SWAP1 POP PUSH2 0x10A1 PUSH1 0x0 DUP4 ADD DUP5 PUSH2 0xFCC JUMP JUMPDEST SWAP3 SWAP2 POP POP JUMP JUMPDEST PUSH1 0x0 PUSH1 0x20 DUP3 ADD SWAP1 POP PUSH2 0x10BC PUSH1 0x0 DUP4 ADD DUP5 PUSH2 0xFDB JUMP JUMPDEST SWAP3 SWAP2 POP POP JUMP JUMPDEST PUSH1 0x0 DUP2 MLOAD SWAP1 POP SWAP2 SWAP1 POP JUMP JUMPDEST PUSH1 0x0 DUP3 DUP3 MSTORE PUSH1 0x20 DUP3 ADD SWAP1 POP SWAP3 SWAP2 POP POP JUMP JUMPDEST PUSH1 0x0 PUSH2 0x10E9 DUP3 PUSH2 0x119A JUMP JUMPDEST SWAP2 POP PUSH2 0x10F4 DUP4 PUSH2 0x119A JUMP JUMPDEST SWAP3 POP DUP3 PUSH32 0xFFFFFFFFFFFFFFFFFFFFFFFFFFFFFFFFFFFFFFFFFFFFFFFFFFFFFFFFFFFFFFFF SUB DUP3 GT ISZERO PUSH2 0x1129 JUMPI PUSH2 0x1128 PUSH2 0x1245 JUMP JUMPDEST JUMPDEST DUP3 DUP3 ADD SWAP1 POP SWAP3 SWAP2 POP POP JUMP JUMPDEST PUSH1 0x0 PUSH2 0x113F DUP3 PUSH2 0x119A JUMP JUMPDEST SWAP2 POP PUSH2 0x114A DUP4 PUSH2 0x119A JUMP JUMPDEST SWAP3 POP DUP3 DUP3 LT ISZERO PUSH2 0x115D JUMPI PUSH2 0x115C PUSH2 0x1245 JUMP JUMPDEST JUMPDEST DUP3 DUP3 SUB SWAP1 POP SWAP3 SWAP2 POP POP JUMP JUMPDEST PUSH1 0x0 PUSH2 0x1173 DUP3 PUSH2 0x117A JUMP JUMPDEST SWAP1 POP SWAP2 SWAP1 POP JUMP JUMPDEST PUSH1 0x0 PUSH20 0xFFFFFFFFFFFFFFFFFFFFFFFFFFFFFFFFFFFFFFFF DUP3 AND SWAP1 POP SWAP2 SWAP1 POP JUMP JUMPDEST PUSH1 0x0 DUP2 SWAP1 POP SWAP2 SWAP1 POP JUMP JUMPDEST PUSH1 0x0 PUSH1 0xFF DUP3 AND SWAP1 POP SWAP2 SWAP1 POP JUMP JUMPDEST PUSH1 0x0 JUMPDEST DUP4 DUP2 LT ISZERO PUSH2 0x11CF JUMPI DUP1 DUP3 ADD MLOAD DUP2 DUP5 ADD MSTORE PUSH1 0x20 DUP2 ADD SWAP1 POP PUSH2 0x11B4 JUMP JUMPDEST DUP4 DUP2 GT ISZERO PUSH2 0x11DE JUMPI PUSH1 0x0 DUP5 DUP5 ADD MSTORE JUMPDEST POP POP POP POP JUMP JUMPDEST PUSH1 0x0 PUSH1 0x2 DUP3 DIV SWAP1 POP PUSH1 0x1 DUP3 AND DUP1 PUSH2 0x11FC JUMPI PUSH1 0x7F DUP3 AND SWAP2 POP JUMPDEST PUSH1 0x20 DUP3 LT DUP2 EQ ISZERO PUSH2 0x1210 JUMPI PUSH2 0x120F PUSH2 0x1274 JUMP JUMPDEST JUMPDEST POP SWAP2 SWAP1 POP JUMP JUMPDEST PUSH32 0x4E487B7100000000000000000000000000000000000000000000000000000000 PUSH1 0x0 MSTORE PUSH1 0x1 PUSH1 0x4 MSTORE PUSH1 0x24 PUSH1 0x0 REVERT JUMPDEST PUSH32 0x4E487B7100000000000000000000000000000000000000000000000000000000 PUSH1 0x0 MSTORE PUSH1 0x11 PUSH1 0x4 MSTORE PUSH1 0x24 PUSH1 0x0 REVERT JUMPDEST PUSH32 0x4E487B7100000000000000000000000000000000000000000000000000000000 PUSH1 0x0 MSTORE PUSH1 0x22 PUSH1 0x4 MSTORE PUSH1 0x24 PUSH1 0x0 REVERT JUMPDEST PUSH1 0x0 DUP1 REVERT JUMPDEST PUSH1 0x0 PUSH1 0x1F NOT PUSH1 0x1F DUP4 ADD AND SWAP1 POP SWAP2 SWAP1 POP JUMP JUMPDEST PUSH32 0x42616C616E6365203C20616D6F756E7400000000000000000000000000000000 PUSH1 0x0 DUP3 ADD MSTORE POP JUMP JUMPDEST PUSH32 0x416D6F756E74203C3D2030000000000000000000000000000000000000000000 PUSH1 0x0 DUP3 ADD MSTORE POP JUMP JUMPDEST PUSH32 0x446F6E277420616C6C6F7765642E000000000000000000000000000000000000 PUSH1 0x0 DUP3 ADD MSTORE POP JUMP JUMPDEST PUSH32 0x45524332303A206D696E7420746F20746865207A65726F206164647265737300 PUSH1 0x0 DUP3 ADD MSTORE POP JUMP JUMPDEST PUSH2 0x1366 DUP2 PUSH2 0x1168 JUMP JUMPDEST DUP2 EQ PUSH2 0x1371 JUMPI PUSH1 0x0 DUP1 REVERT JUMPDEST POP JUMP JUMPDEST PUSH2 0x137D DUP2 PUSH2 0x119A JUMP JUMPDEST DUP2 EQ PUSH2 0x1388 JUMPI PUSH1 0x0 DUP1 REVERT JUMPDEST POP JUMP INVALID LOG2 PUSH5 0x6970667358 0x22 SLT KECCAK256 0xAF 0xB2 SWAP15 PUSH27 0x694A69317D3E2A65DBE33A3DBFD21A371EB1EA59707E204A7CFBA9 0xB1 PUSH5 0x736F6C6343 STOP ADDMOD SMOD STOP CALLER "
				},
				"gasEstimates": {
					"creation": {
						"codeDepositCost": "1011400",
						"executionCost": "1054",
						"totalCost": "1012454"
					},
					"external": {
						"allowance(address,address)": "infinite",
						"approve(address,uint256)": "infinite",
						"balanceOf(address)": "2863",
						"decimals()": "2560",
						"getTotalSupply()": "2525",
						"mint(address,uint256)": "infinite",
						"name()": "infinite",
						"symbol()": "infinite",
						"totalSupply()": "2474",
						"transfer(address,uint256)": "infinite",
						"transferFrom(address,address,uint256)": "infinite",
						"version()": "infinite"
					},
					"internal": {
						"_afterTokenTransfer(address,address,uint256)": "15",
						"_beforeTokenTransfer(address,address,uint256)": "15"
					}
				},
				"methodIdentifiers": {
					"allowance(address,address)": "dd62ed3e",
					"approve(address,uint256)": "095ea7b3",
					"balanceOf(address)": "70a08231",
					"decimals()": "313ce567",
					"getTotalSupply()": "c4e41b22",
					"mint(address,uint256)": "40c10f19",
					"name()": "06fdde03",
					"symbol()": "95d89b41",
					"totalSupply()": "18160ddd",
					"transfer(address,uint256)": "a9059cbb",
					"transferFrom(address,address,uint256)": "23b872dd",
					"version()": "54fd4d50"
				}
			},
			"storageLayout": {
				"storage": [
					{
						"astId": 132,
						"contract": "contracts/ERC20Standard.sol:ERC20Standard",
						"label": "totalSupply",
						"offset": 0,
						"slot": "0",
						"type": "t_uint256"
					},
					{
						"astId": 134,
						"contract": "contracts/ERC20Standard.sol:ERC20Standard",
						"label": "name",
						"offset": 0,
						"slot": "1",
						"type": "t_string_storage"
					},
					{
						"astId": 136,
						"contract": "contracts/ERC20Standard.sol:ERC20Standard",
						"label": "decimals",
						"offset": 0,
						"slot": "2",
						"type": "t_uint8"
					},
					{
						"astId": 138,
						"contract": "contracts/ERC20Standard.sol:ERC20Standard",
						"label": "symbol",
						"offset": 0,
						"slot": "3",
						"type": "t_string_storage"
					},
					{
						"astId": 140,
						"contract": "contracts/ERC20Standard.sol:ERC20Standard",
						"label": "version",
						"offset": 0,
						"slot": "4",
						"type": "t_string_storage"
					},
					{
						"astId": 144,
						"contract": "contracts/ERC20Standard.sol:ERC20Standard",
						"label": "balances",
						"offset": 0,
						"slot": "5",
						"type": "t_mapping(t_address,t_uint256)"
					},
					{
						"astId": 150,
						"contract": "contracts/ERC20Standard.sol:ERC20Standard",
						"label": "allowed",
						"offset": 0,
						"slot": "6",
						"type": "t_mapping(t_address,t_mapping(t_address,t_uint256))"
					}
				],
				"types": {
					"t_address": {
						"encoding": "inplace",
						"label": "address",
						"numberOfBytes": "20"
					},
					"t_mapping(t_address,t_mapping(t_address,t_uint256))": {
						"encoding": "mapping",
						"key": "t_address",
						"label": "mapping(address => mapping(address => uint256))",
						"numberOfBytes": "32",
						"value": "t_mapping(t_address,t_uint256)"
					},
					"t_mapping(t_address,t_uint256)": {
						"encoding": "mapping",
						"key": "t_address",
						"label": "mapping(address => uint256)",
						"numberOfBytes": "32",
						"value": "t_uint256"
					},
					"t_string_storage": {
						"encoding": "bytes",
						"label": "string",
						"numberOfBytes": "32"
					},
					"t_uint256": {
						"encoding": "inplace",
						"label": "uint256",
						"numberOfBytes": "32"
					},
					"t_uint8": {
						"encoding": "inplace",
						"label": "uint8",
						"numberOfBytes": "1"
					}
				}
			},
			"userdoc": {
				"kind": "user",
				"methods": {},
				"version": 1
			}
		}
	}
}