{
	"contracts/ERC20Standard.sol": {
		"ERC20Standard": {
			"abi": [
				{
					"anonymous": false,
					"inputs": [
						{
							"indexed": true,
							"internalType": "address",
							"name": "_owner",
							"type": "address"
						},
						{
							"indexed": true,
							"internalType": "address",
							"name": "_spender",
							"type": "address"
						},
						{
							"indexed": false,
							"internalType": "uint256",
							"name": "_value",
							"type": "uint256"
						}
					],
					"name": "Approval",
					"type": "event"
				},
				{
					"anonymous": false,
					"inputs": [
						{
							"indexed": true,
							"internalType": "address",
							"name": "_from",
							"type": "address"
						},
						{
							"indexed": true,
							"internalType": "address",
							"name": "_to",
							"type": "address"
						},
						{
							"indexed": false,
							"internalType": "uint256",
							"name": "_value",
							"type": "uint256"
						}
					],
					"name": "Transfer",
					"type": "event"
				},
				{
					"inputs": [
						{
							"internalType": "address",
							"name": "_spender",
							"type": "address"
						},
						{
							"internalType": "address",
							"name": "_owner",
							"type": "address"
						}
					],
					"name": "allowance",
					"outputs": [
						{
							"internalType": "uint256",
							"name": "balance",
							"type": "uint256"
						}
					],
					"stateMutability": "view",
					"type": "function"
				},
				{
					"inputs": [
						{
							"internalType": "address",
							"name": "_spender",
							"type": "address"
						},
						{
							"internalType": "uint256",
							"name": "_value",
							"type": "uint256"
						}
					],
					"name": "approve",
					"outputs": [],
					"stateMutability": "nonpayable",
					"type": "function"
				},
				{
					"inputs": [
						{
							"internalType": "address",
							"name": "_owner",
							"type": "address"
						}
					],
					"name": "balanceOf",
					"outputs": [
						{
							"internalType": "uint256",
							"name": "balance",
							"type": "uint256"
						}
					],
					"stateMutability": "view",
					"type": "function"
				},
				{
					"inputs": [],
					"name": "decimals",
					"outputs": [
						{
							"internalType": "uint8",
							"name": "",
							"type": "uint8"
						}
					],
					"stateMutability": "view",
					"type": "function"
				},
				{
					"inputs": [],
					"name": "getTotalSupply",
					"outputs": [
						{
							"internalType": "uint256",
							"name": "",
							"type": "uint256"
						}
					],
					"stateMutability": "view",
					"type": "function"
				},
				{
					"inputs": [
						{
							"internalType": "address",
							"name": "account",
							"type": "address"
						},
						{
							"internalType": "uint256",
							"name": "amount",
							"type": "uint256"
						}
					],
					"name": "mint",
					"outputs": [],
					"stateMutability": "nonpayable",
					"type": "function"
				},
				{
					"inputs": [],
					"name": "name",
					"outputs": [
						{
							"internalType": "string",
							"name": "",
							"type": "string"
						}
					],
					"stateMutability": "view",
					"type": "function"
				},
				{
					"inputs": [],
					"name": "symbol",
					"outputs": [
						{
							"internalType": "string",
							"name": "",
							"type": "string"
						}
					],
					"stateMutability": "view",
					"type": "function"
				},
				{
					"inputs": [],
					"name": "totalSupply",
					"outputs": [
						{
							"internalType": "uint256",
							"name": "",
							"type": "uint256"
						}
					],
					"stateMutability": "view",
					"type": "function"
				},
				{
					"inputs": [
						{
							"internalType": "address",
							"name": "_recipient",
							"type": "address"
						},
						{
							"internalType": "uint256",
							"name": "_balance",
							"type": "uint256"
						},
						{
							"internalType": "uint256",
							"name": "_value",
							"type": "uint256"
						}
					],
					"name": "transfer",
					"outputs": [],
					"stateMutability": "nonpayable",
					"type": "function"
				},
				{
					"inputs": [
						{
							"internalType": "address",
							"name": "_from",
							"type": "address"
						},
						{
							"internalType": "address",
							"name": "_to",
							"type": "address"
						},
						{
							"internalType": "uint256",
							"name": "_value",
							"type": "uint256"
						}
					],
					"name": "transferFrom",
					"outputs": [],
					"stateMutability": "nonpayable",
					"type": "function"
				},
				{
					"inputs": [],
					"name": "version",
					"outputs": [
						{
							"internalType": "string",
							"name": "",
							"type": "string"
						}
					],
					"stateMutability": "view",
					"type": "function"
				}
			],
			"devdoc": {
				"kind": "dev",
				"methods": {},
				"version": 1
			},
			"evm": {
				"assembly": "    /* \"contracts/ERC20Standard.sol\":918:3746  contract ERC20Standard {\r... */\n  mstore(0x40, 0x80)\n  callvalue\n  dup1\n  iszero\n  tag_1\n  jumpi\n  0x00\n  dup1\n  revert\ntag_1:\n  pop\n  dataSize(sub_0)\n  dup1\n  dataOffset(sub_0)\n  0x00\n  codecopy\n  0x00\n  return\nstop\n\nsub_0: assembly {\n        /* \"contracts/ERC20Standard.sol\":918:3746  contract ERC20Standard {\r... */\n      mstore(0x40, 0x80)\n      callvalue\n      dup1\n      iszero\n      tag_1\n      jumpi\n      0x00\n      dup1\n      revert\n    tag_1:\n      pop\n      jumpi(tag_2, lt(calldatasize, 0x04))\n      shr(0xe0, calldataload(0x00))\n      dup1\n      0x40c10f19\n      gt\n      tag_15\n      jumpi\n      dup1\n      0x40c10f19\n      eq\n      tag_9\n      jumpi\n      dup1\n      0x54fd4d50\n      eq\n      tag_10\n      jumpi\n      dup1\n      0x70a08231\n      eq\n      tag_11\n      jumpi\n      dup1\n      0x95d89b41\n      eq\n      tag_12\n      jumpi\n      dup1\n      0xc4e41b22\n      eq\n      tag_13\n      jumpi\n      dup1\n      0xdd62ed3e\n      eq\n      tag_14\n      jumpi\n      jump(tag_2)\n    tag_15:\n      dup1\n      0x06fdde03\n      eq\n      tag_3\n      jumpi\n      dup1\n      0x095bcdb6\n      eq\n      tag_4\n      jumpi\n      dup1\n      0x095ea7b3\n      eq\n      tag_5\n      jumpi\n      dup1\n      0x18160ddd\n      eq\n      tag_6\n      jumpi\n      dup1\n      0x23b872dd\n      eq\n      tag_7\n      jumpi\n      dup1\n      0x313ce567\n      eq\n      tag_8\n      jumpi\n    tag_2:\n      0x00\n      dup1\n      revert\n        /* \"contracts/ERC20Standard.sol\":1005:1023  string public name */\n    tag_3:\n      tag_16\n      tag_17\n      jump\t// in\n    tag_16:\n      mload(0x40)\n      tag_18\n      swap2\n      swap1\n      tag_19\n      jump\t// in\n    tag_18:\n      mload(0x40)\n      dup1\n      swap2\n      sub\n      swap1\n      return\n        /* \"contracts/ERC20Standard.sol\":1539:1976  function transfer(address _recipient, uint _balance, uint _value) public onlyPayloadSize(2*32) {\r... */\n    tag_4:\n      tag_20\n      0x04\n      dup1\n      calldatasize\n      sub\n      dup2\n      add\n      swap1\n      tag_21\n      swap2\n      swap1\n      tag_22\n      jump\t// in\n    tag_21:\n      tag_23\n      jump\t// in\n    tag_20:\n      stop\n        /* \"contracts/ERC20Standard.sol\":2834:2986  function  approve(address _spender, uint _value) public {\r... */\n    tag_5:\n      tag_24\n      0x04\n      dup1\n      calldatasize\n      sub\n      dup2\n      add\n      swap1\n      tag_25\n      swap2\n      swap1\n      tag_26\n      jump\t// in\n    tag_25:\n      tag_27\n      jump\t// in\n    tag_24:\n      stop\n        /* \"contracts/ERC20Standard.sol\":975:998  uint public totalSupply */\n    tag_6:\n      tag_28\n      tag_29\n      jump\t// in\n    tag_28:\n      mload(0x40)\n      tag_30\n      swap2\n      swap1\n      tag_31\n      jump\t// in\n    tag_30:\n      mload(0x40)\n      dup1\n      swap2\n      sub\n      swap1\n      return\n        /* \"contracts/ERC20Standard.sol\":1981:2438  function transferFrom(address _from, address _to, uint _value) public {\r... */\n    tag_7:\n      tag_32\n      0x04\n      dup1\n      calldatasize\n      sub\n      dup2\n      add\n      swap1\n      tag_33\n      swap2\n      swap1\n      tag_34\n      jump\t// in\n    tag_33:\n      tag_35\n      jump\t// in\n    tag_32:\n      stop\n        /* \"contracts/ERC20Standard.sol\":1027:1048  uint8 public decimals */\n    tag_8:\n      tag_36\n      tag_37\n      jump\t// in\n    tag_36:\n      mload(0x40)\n      tag_38\n      swap2\n      swap1\n      tag_39\n      jump\t// in\n    tag_38:\n      mload(0x40)\n      dup1\n      swap2\n      sub\n      swap1\n      return\n        /* \"contracts/ERC20Standard.sol\":2443:2829  function mint(address account, uint256 amount) public {\r... */\n    tag_9:\n      tag_40\n      0x04\n      dup1\n      calldatasize\n      sub\n      dup2\n      add\n      swap1\n      tag_41\n      swap2\n      swap1\n      tag_26\n      jump\t// in\n    tag_41:\n      tag_42\n      jump\t// in\n    tag_40:\n      stop\n        /* \"contracts/ERC20Standard.sol\":1076:1097  string public version */\n    tag_10:\n      tag_43\n      tag_44\n      jump\t// in\n    tag_43:\n      mload(0x40)\n      tag_45\n      swap2\n      swap1\n      tag_19\n      jump\t// in\n    tag_45:\n      mload(0x40)\n      dup1\n      swap2\n      sub\n      swap1\n      return\n        /* \"contracts/ERC20Standard.sol\":1345:1448  function balanceOf(address _owner) public view returns (uint balance) {\r... */\n    tag_11:\n      tag_46\n      0x04\n      dup1\n      calldatasize\n      sub\n      dup2\n      add\n      swap1\n      tag_47\n      swap2\n      swap1\n      tag_48\n      jump\t// in\n    tag_47:\n      tag_49\n      jump\t// in\n    tag_46:\n      mload(0x40)\n      tag_50\n      swap2\n      swap1\n      tag_31\n      jump\t// in\n    tag_50:\n      mload(0x40)\n      dup1\n      swap2\n      sub\n      swap1\n      return\n        /* \"contracts/ERC20Standard.sol\":1052:1072  string public symbol */\n    tag_12:\n      tag_51\n      tag_52\n      jump\t// in\n    tag_51:\n      mload(0x40)\n      tag_53\n      swap2\n      swap1\n      tag_19\n      jump\t// in\n    tag_53:\n      mload(0x40)\n      dup1\n      swap2\n      sub\n      swap1\n      return\n        /* \"contracts/ERC20Standard.sol\":1453:1534  function getTotalSupply() public view returns (uint) {\r... */\n    tag_13:\n      tag_54\n      tag_55\n      jump\t// in\n    tag_54:\n      mload(0x40)\n      tag_56\n      swap2\n      swap1\n      tag_31\n      jump\t// in\n    tag_56:\n      mload(0x40)\n      dup1\n      swap2\n      sub\n      swap1\n      return\n        /* \"contracts/ERC20Standard.sol\":2991:3121  function allowance(address _spender, address _owner) public view returns (uint balance) {\r... */\n    tag_14:\n      tag_57\n      0x04\n      dup1\n      calldatasize\n      sub\n      dup2\n      add\n      swap1\n      tag_58\n      swap2\n      swap1\n      tag_59\n      jump\t// in\n    tag_58:\n      tag_60\n      jump\t// in\n    tag_57:\n      mload(0x40)\n      tag_61\n      swap2\n      swap1\n      tag_31\n      jump\t// in\n    tag_61:\n      mload(0x40)\n      dup1\n      swap2\n      sub\n      swap1\n      return\n        /* \"contracts/ERC20Standard.sol\":1005:1023  string public name */\n    tag_17:\n      0x01\n      dup1\n      sload\n      tag_62\n      swap1\n      tag_63\n      jump\t// in\n    tag_62:\n      dup1\n      0x1f\n      add\n      0x20\n      dup1\n      swap2\n      div\n      mul\n      0x20\n      add\n      mload(0x40)\n      swap1\n      dup2\n      add\n      0x40\n      mstore\n      dup1\n      swap3\n      swap2\n      swap1\n      dup2\n      dup2\n      mstore\n      0x20\n      add\n      dup3\n      dup1\n      sload\n      tag_64\n      swap1\n      tag_63\n      jump\t// in\n    tag_64:\n      dup1\n      iszero\n      tag_65\n      jumpi\n      dup1\n      0x1f\n      lt\n      tag_66\n      jumpi\n      0x0100\n      dup1\n      dup4\n      sload\n      div\n      mul\n      dup4\n      mstore\n      swap2\n      0x20\n      add\n      swap2\n      jump(tag_65)\n    tag_66:\n      dup3\n      add\n      swap2\n      swap1\n      0x00\n      mstore\n      keccak256(0x00, 0x20)\n      swap1\n    tag_67:\n      dup2\n      sload\n      dup2\n      mstore\n      swap1\n      0x01\n      add\n      swap1\n      0x20\n      add\n      dup1\n      dup4\n      gt\n      tag_67\n      jumpi\n      dup3\n      swap1\n      sub\n      0x1f\n      and\n      dup3\n      add\n      swap2\n    tag_65:\n      pop\n      pop\n      pop\n      pop\n      pop\n      dup2\n      jump\t// out\n        /* \"contracts/ERC20Standard.sol\":1539:1976  function transfer(address _recipient, uint _balance, uint _value) public onlyPayloadSize(2*32) {\r... */\n    tag_23:\n        /* \"contracts/ERC20Standard.sol\":1628:1632  2*32 */\n      0x40\n        /* \"contracts/ERC20Standard.sol\":1326:1327  4 */\n      0x04\n        /* \"contracts/ERC20Standard.sol\":1319:1323  size */\n      dup2\n        /* \"contracts/ERC20Standard.sol\":1319:1327  size + 4 */\n      tag_69\n      swap2\n      swap1\n      tag_70\n      jump\t// in\n    tag_69:\n        /* \"contracts/ERC20Standard.sol\":1300:1308  msg.data */\n      0x00\n      calldatasize\n        /* \"contracts/ERC20Standard.sol\":1300:1315  msg.data.length */\n      swap1\n      pop\n        /* \"contracts/ERC20Standard.sol\":1300:1327  msg.data.length == size + 4 */\n      eq\n        /* \"contracts/ERC20Standard.sol\":1293:1328  assert(msg.data.length == size + 4) */\n      tag_71\n      jumpi\n      tag_72\n      tag_73\n      jump\t// in\n    tag_72:\n    tag_71:\n        /* \"contracts/ERC20Standard.sol\":1656:1657  0 */\n      0x00\n        /* \"contracts/ERC20Standard.sol\":1647:1653  _value */\n      dup3\n        /* \"contracts/ERC20Standard.sol\":1647:1657  _value > 0 */\n      gt\n        /* \"contracts/ERC20Standard.sol\":1639:1673  require(_value > 0, \"Amount <= 0\") */\n      tag_75\n      jumpi\n      mload(0x40)\n      0x08c379a000000000000000000000000000000000000000000000000000000000\n      dup2\n      mstore\n      0x04\n      add\n      tag_76\n      swap1\n      tag_77\n      jump\t// in\n    tag_76:\n      mload(0x40)\n      dup1\n      swap2\n      sub\n      swap1\n      revert\n    tag_75:\n        /* \"contracts/ERC20Standard.sol\":1701:1707  _value */\n      dup2\n        /* \"contracts/ERC20Standard.sol\":1689:1697  _balance */\n      dup4\n        /* \"contracts/ERC20Standard.sol\":1689:1707  _balance >= _value */\n      lt\n      iszero\n        /* \"contracts/ERC20Standard.sol\":1681:1728  require(_balance >= _value, \"Balance < amount\") */\n      tag_78\n      jumpi\n      mload(0x40)\n      0x08c379a000000000000000000000000000000000000000000000000000000000\n      dup2\n      mstore\n      0x04\n      add\n      tag_79\n      swap1\n      tag_80\n      jump\t// in\n    tag_79:\n      mload(0x40)\n      dup1\n      swap2\n      sub\n      swap1\n      revert\n    tag_78:\n        /* \"contracts/ERC20Standard.sol\":1834:1840  _value */\n      dup2\n        /* \"contracts/ERC20Standard.sol\":1823:1831  _balance */\n      dup4\n        /* \"contracts/ERC20Standard.sol\":1823:1840  _balance - _value */\n      tag_81\n      swap2\n      swap1\n      tag_82\n      jump\t// in\n    tag_81:\n        /* \"contracts/ERC20Standard.sol\":1800:1808  balances */\n      0x05\n        /* \"contracts/ERC20Standard.sol\":1800:1820  balances[msg.sender] */\n      0x00\n        /* \"contracts/ERC20Standard.sol\":1809:1819  msg.sender */\n      caller\n        /* \"contracts/ERC20Standard.sol\":1800:1820  balances[msg.sender] */\n      0xffffffffffffffffffffffffffffffffffffffff\n      and\n      0xffffffffffffffffffffffffffffffffffffffff\n      and\n      dup2\n      mstore\n      0x20\n      add\n      swap1\n      dup2\n      mstore\n      0x20\n      add\n      0x00\n      keccak256\n        /* \"contracts/ERC20Standard.sol\":1800:1840  balances[msg.sender] = _balance - _value */\n      dup2\n      swap1\n      sstore\n      pop\n        /* \"contracts/ERC20Standard.sol\":1871:1903  balances[_recipient].add(_value) */\n      tag_83\n        /* \"contracts/ERC20Standard.sol\":1896:1902  _value */\n      dup3\n        /* \"contracts/ERC20Standard.sol\":1871:1879  balances */\n      0x05\n        /* \"contracts/ERC20Standard.sol\":1871:1891  balances[_recipient] */\n      0x00\n        /* \"contracts/ERC20Standard.sol\":1880:1890  _recipient */\n      dup8\n        /* \"contracts/ERC20Standard.sol\":1871:1891  balances[_recipient] */\n      0xffffffffffffffffffffffffffffffffffffffff\n      and\n      0xffffffffffffffffffffffffffffffffffffffff\n      and\n      dup2\n      mstore\n      0x20\n      add\n      swap1\n      dup2\n      mstore\n      0x20\n      add\n      0x00\n      keccak256\n      sload\n        /* \"contracts/ERC20Standard.sol\":1871:1895  balances[_recipient].add */\n      tag_84\n      swap1\n        /* \"contracts/ERC20Standard.sol\":1871:1903  balances[_recipient].add(_value) */\n      swap2\n      swap1\n      0xffffffff\n      and\n      jump\t// in\n    tag_83:\n        /* \"contracts/ERC20Standard.sol\":1848:1856  balances */\n      0x05\n        /* \"contracts/ERC20Standard.sol\":1848:1868  balances[_recipient] */\n      0x00\n        /* \"contracts/ERC20Standard.sol\":1857:1867  _recipient */\n      dup7\n        /* \"contracts/ERC20Standard.sol\":1848:1868  balances[_recipient] */\n      0xffffffffffffffffffffffffffffffffffffffff\n      and\n      0xffffffffffffffffffffffffffffffffffffffff\n      and\n      dup2\n      mstore\n      0x20\n      add\n      swap1\n      dup2\n      mstore\n      0x20\n      add\n      0x00\n      keccak256\n        /* \"contracts/ERC20Standard.sol\":1848:1903  balances[_recipient] = balances[_recipient].add(_value) */\n      dup2\n      swap1\n      sstore\n      pop\n        /* \"contracts/ERC20Standard.sol\":1937:1947  _recipient */\n      dup4\n        /* \"contracts/ERC20Standard.sol\":1916:1956  Transfer(msg.sender, _recipient, _value) */\n      0xffffffffffffffffffffffffffffffffffffffff\n      and\n        /* \"contracts/ERC20Standard.sol\":1925:1935  msg.sender */\n      caller\n        /* \"contracts/ERC20Standard.sol\":1916:1956  Transfer(msg.sender, _recipient, _value) */\n      0xffffffffffffffffffffffffffffffffffffffff\n      and\n      0xddf252ad1be2c89b69c2b068fc378daa952ba7f163c4a11628f55a4df523b3ef\n        /* \"contracts/ERC20Standard.sol\":1949:1955  _value */\n      dup5\n        /* \"contracts/ERC20Standard.sol\":1916:1956  Transfer(msg.sender, _recipient, _value) */\n      mload(0x40)\n      tag_85\n      swap2\n      swap1\n      tag_31\n      jump\t// in\n    tag_85:\n      mload(0x40)\n      dup1\n      swap2\n      sub\n      swap1\n      log3\n        /* \"contracts/ERC20Standard.sol\":1539:1976  function transfer(address _recipient, uint _balance, uint _value) public onlyPayloadSize(2*32) {\r... */\n      pop\n      pop\n      pop\n      pop\n      jump\t// out\n        /* \"contracts/ERC20Standard.sol\":2834:2986  function  approve(address _spender, uint _value) public {\r... */\n    tag_27:\n        /* \"contracts/ERC20Standard.sol\":2927:2933  _value */\n      dup1\n        /* \"contracts/ERC20Standard.sol\":2895:2902  allowed */\n      0x06\n        /* \"contracts/ERC20Standard.sol\":2895:2914  allowed[msg.sender] */\n      0x00\n        /* \"contracts/ERC20Standard.sol\":2903:2913  msg.sender */\n      caller\n        /* \"contracts/ERC20Standard.sol\":2895:2914  allowed[msg.sender] */\n      0xffffffffffffffffffffffffffffffffffffffff\n      and\n      0xffffffffffffffffffffffffffffffffffffffff\n      and\n      dup2\n      mstore\n      0x20\n      add\n      swap1\n      dup2\n      mstore\n      0x20\n      add\n      0x00\n      keccak256\n        /* \"contracts/ERC20Standard.sol\":2895:2924  allowed[msg.sender][_spender] */\n      0x00\n        /* \"contracts/ERC20Standard.sol\":2915:2923  _spender */\n      dup5\n        /* \"contracts/ERC20Standard.sol\":2895:2924  allowed[msg.sender][_spender] */\n      0xffffffffffffffffffffffffffffffffffffffff\n      and\n      0xffffffffffffffffffffffffffffffffffffffff\n      and\n      dup2\n      mstore\n      0x20\n      add\n      swap1\n      dup2\n      mstore\n      0x20\n      add\n      0x00\n      keccak256\n        /* \"contracts/ERC20Standard.sol\":2895:2933  allowed[msg.sender][_spender] = _value */\n      dup2\n      swap1\n      sstore\n      pop\n        /* \"contracts/ERC20Standard.sol\":2964:2972  _spender */\n      dup2\n        /* \"contracts/ERC20Standard.sol\":2943:2981  Approval(msg.sender, _spender, _value) */\n      0xffffffffffffffffffffffffffffffffffffffff\n      and\n        /* \"contracts/ERC20Standard.sol\":2952:2962  msg.sender */\n      caller\n        /* \"contracts/ERC20Standard.sol\":2943:2981  Approval(msg.sender, _spender, _value) */\n      0xffffffffffffffffffffffffffffffffffffffff\n      and\n      0x8c5be1e5ebec7d5bd14f71427d1e84f3dd0314c0f7b2291e5b200ac8c7c3b925\n        /* \"contracts/ERC20Standard.sol\":2974:2980  _value */\n      dup4\n        /* \"contracts/ERC20Standard.sol\":2943:2981  Approval(msg.sender, _spender, _value) */\n      mload(0x40)\n      tag_87\n      swap2\n      swap1\n      tag_31\n      jump\t// in\n    tag_87:\n      mload(0x40)\n      dup1\n      swap2\n      sub\n      swap1\n      log3\n        /* \"contracts/ERC20Standard.sol\":2834:2986  function  approve(address _spender, uint _value) public {\r... */\n      pop\n      pop\n      jump\t// out\n        /* \"contracts/ERC20Standard.sol\":975:998  uint public totalSupply */\n    tag_29:\n      sload(0x00)\n      dup2\n      jump\t// out\n        /* \"contracts/ERC20Standard.sol\":1981:2438  function transferFrom(address _from, address _to, uint _value) public {\r... */\n    tag_35:\n        /* \"contracts/ERC20Standard.sol\":2073:2074  0 */\n      0x00\n        /* \"contracts/ERC20Standard.sol\":2064:2070  _value */\n      dup2\n        /* \"contracts/ERC20Standard.sol\":2064:2074  _value > 0 */\n      gt\n        /* \"contracts/ERC20Standard.sol\":2056:2090  require(_value > 0, \"Amount <= 0\") */\n      tag_89\n      jumpi\n      mload(0x40)\n      0x08c379a000000000000000000000000000000000000000000000000000000000\n      dup2\n      mstore\n      0x04\n      add\n      tag_90\n      swap1\n      tag_77\n      jump\t// in\n    tag_90:\n      mload(0x40)\n      dup1\n      swap2\n      sub\n      swap1\n      revert\n    tag_89:\n        /* \"contracts/ERC20Standard.sol\":2125:2131  _value */\n      dup1\n        /* \"contracts/ERC20Standard.sol\":2106:2114  balances */\n      0x05\n        /* \"contracts/ERC20Standard.sol\":2106:2121  balances[_from] */\n      0x00\n        /* \"contracts/ERC20Standard.sol\":2115:2120  _from */\n      dup6\n        /* \"contracts/ERC20Standard.sol\":2106:2121  balances[_from] */\n      0xffffffffffffffffffffffffffffffffffffffff\n      and\n      0xffffffffffffffffffffffffffffffffffffffff\n      and\n      dup2\n      mstore\n      0x20\n      add\n      swap1\n      dup2\n      mstore\n      0x20\n      add\n      0x00\n      keccak256\n      sload\n        /* \"contracts/ERC20Standard.sol\":2106:2131  balances[_from] >= _value */\n      lt\n      iszero\n        /* \"contracts/ERC20Standard.sol\":2098:2152  require(balances[_from] >= _value, \"Balance < amount\") */\n      tag_91\n      jumpi\n      mload(0x40)\n      0x08c379a000000000000000000000000000000000000000000000000000000000\n      dup2\n      mstore\n      0x04\n      add\n      tag_92\n      swap1\n      tag_80\n      jump\t// in\n    tag_92:\n      mload(0x40)\n      dup1\n      swap2\n      sub\n      swap1\n      revert\n    tag_91:\n        /* \"contracts/ERC20Standard.sol\":2195:2201  _value */\n      dup1\n        /* \"contracts/ERC20Standard.sol\":2165:2172  allowed */\n      0x06\n        /* \"contracts/ERC20Standard.sol\":2165:2179  allowed[_from] */\n      0x00\n        /* \"contracts/ERC20Standard.sol\":2173:2178  _from */\n      dup6\n        /* \"contracts/ERC20Standard.sol\":2165:2179  allowed[_from] */\n      0xffffffffffffffffffffffffffffffffffffffff\n      and\n      0xffffffffffffffffffffffffffffffffffffffff\n      and\n      dup2\n      mstore\n      0x20\n      add\n      swap1\n      dup2\n      mstore\n      0x20\n      add\n      0x00\n      keccak256\n        /* \"contracts/ERC20Standard.sol\":2165:2191  allowed[_from][msg.sender] */\n      0x00\n        /* \"contracts/ERC20Standard.sol\":2180:2190  msg.sender */\n      caller\n        /* \"contracts/ERC20Standard.sol\":2165:2191  allowed[_from][msg.sender] */\n      0xffffffffffffffffffffffffffffffffffffffff\n      and\n      0xffffffffffffffffffffffffffffffffffffffff\n      and\n      dup2\n      mstore\n      0x20\n      add\n      swap1\n      dup2\n      mstore\n      0x20\n      add\n      0x00\n      keccak256\n      sload\n        /* \"contracts/ERC20Standard.sol\":2165:2201  allowed[_from][msg.sender] >= _value */\n      lt\n      iszero\n        /* \"contracts/ERC20Standard.sol\":2157:2220  require(allowed[_from][msg.sender] >= _value, \"Don't allowed.\") */\n      tag_93\n      jumpi\n      mload(0x40)\n      0x08c379a000000000000000000000000000000000000000000000000000000000\n      dup2\n      mstore\n      0x04\n      add\n      tag_94\n      swap1\n      tag_95\n      jump\t// in\n    tag_94:\n      mload(0x40)\n      dup1\n      swap2\n      sub\n      swap1\n      revert\n    tag_93:\n        /* \"contracts/ERC20Standard.sol\":2241:2266  balances[_to].add(_value) */\n      tag_96\n        /* \"contracts/ERC20Standard.sol\":2259:2265  _value */\n      dup2\n        /* \"contracts/ERC20Standard.sol\":2241:2249  balances */\n      0x05\n        /* \"contracts/ERC20Standard.sol\":2241:2254  balances[_to] */\n      0x00\n        /* \"contracts/ERC20Standard.sol\":2250:2253  _to */\n      dup6\n        /* \"contracts/ERC20Standard.sol\":2241:2254  balances[_to] */\n      0xffffffffffffffffffffffffffffffffffffffff\n      and\n      0xffffffffffffffffffffffffffffffffffffffff\n      and\n      dup2\n      mstore\n      0x20\n      add\n      swap1\n      dup2\n      mstore\n      0x20\n      add\n      0x00\n      keccak256\n      sload\n        /* \"contracts/ERC20Standard.sol\":2241:2258  balances[_to].add */\n      tag_84\n      swap1\n        /* \"contracts/ERC20Standard.sol\":2241:2266  balances[_to].add(_value) */\n      swap2\n      swap1\n      0xffffffff\n      and\n      jump\t// in\n    tag_96:\n        /* \"contracts/ERC20Standard.sol\":2225:2233  balances */\n      0x05\n        /* \"contracts/ERC20Standard.sol\":2225:2238  balances[_to] */\n      0x00\n        /* \"contracts/ERC20Standard.sol\":2234:2237  _to */\n      dup5\n        /* \"contracts/ERC20Standard.sol\":2225:2238  balances[_to] */\n      0xffffffffffffffffffffffffffffffffffffffff\n      and\n      0xffffffffffffffffffffffffffffffffffffffff\n      and\n      dup2\n      mstore\n      0x20\n      add\n      swap1\n      dup2\n      mstore\n      0x20\n      add\n      0x00\n      keccak256\n        /* \"contracts/ERC20Standard.sol\":2225:2266  balances[_to] = balances[_to].add(_value) */\n      dup2\n      swap1\n      sstore\n      pop\n        /* \"contracts/ERC20Standard.sol\":2289:2316  balances[_from].sub(_value) */\n      tag_97\n        /* \"contracts/ERC20Standard.sol\":2309:2315  _value */\n      dup2\n        /* \"contracts/ERC20Standard.sol\":2289:2297  balances */\n      0x05\n        /* \"contracts/ERC20Standard.sol\":2289:2304  balances[_from] */\n      0x00\n        /* \"contracts/ERC20Standard.sol\":2298:2303  _from */\n      dup7\n        /* \"contracts/ERC20Standard.sol\":2289:2304  balances[_from] */\n      0xffffffffffffffffffffffffffffffffffffffff\n      and\n      0xffffffffffffffffffffffffffffffffffffffff\n      and\n      dup2\n      mstore\n      0x20\n      add\n      swap1\n      dup2\n      mstore\n      0x20\n      add\n      0x00\n      keccak256\n      sload\n        /* \"contracts/ERC20Standard.sol\":2289:2308  balances[_from].sub */\n      tag_98\n      swap1\n        /* \"contracts/ERC20Standard.sol\":2289:2316  balances[_from].sub(_value) */\n      swap2\n      swap1\n      0xffffffff\n      and\n      jump\t// in\n    tag_97:\n        /* \"contracts/ERC20Standard.sol\":2271:2279  balances */\n      0x05\n        /* \"contracts/ERC20Standard.sol\":2271:2286  balances[_from] */\n      0x00\n        /* \"contracts/ERC20Standard.sol\":2280:2285  _from */\n      dup6\n        /* \"contracts/ERC20Standard.sol\":2271:2286  balances[_from] */\n      0xffffffffffffffffffffffffffffffffffffffff\n      and\n      0xffffffffffffffffffffffffffffffffffffffff\n      and\n      dup2\n      mstore\n      0x20\n      add\n      swap1\n      dup2\n      mstore\n      0x20\n      add\n      0x00\n      keccak256\n        /* \"contracts/ERC20Standard.sol\":2271:2316  balances[_from] = balances[_from].sub(_value) */\n      dup2\n      swap1\n      sstore\n      pop\n        /* \"contracts/ERC20Standard.sol\":2350:2388  allowed[_from][msg.sender].sub(_value) */\n      tag_99\n        /* \"contracts/ERC20Standard.sol\":2381:2387  _value */\n      dup2\n        /* \"contracts/ERC20Standard.sol\":2350:2357  allowed */\n      0x06\n        /* \"contracts/ERC20Standard.sol\":2350:2364  allowed[_from] */\n      0x00\n        /* \"contracts/ERC20Standard.sol\":2358:2363  _from */\n      dup7\n        /* \"contracts/ERC20Standard.sol\":2350:2364  allowed[_from] */\n      0xffffffffffffffffffffffffffffffffffffffff\n      and\n      0xffffffffffffffffffffffffffffffffffffffff\n      and\n      dup2\n      mstore\n      0x20\n      add\n      swap1\n      dup2\n      mstore\n      0x20\n      add\n      0x00\n      keccak256\n        /* \"contracts/ERC20Standard.sol\":2350:2376  allowed[_from][msg.sender] */\n      0x00\n        /* \"contracts/ERC20Standard.sol\":2365:2375  msg.sender */\n      caller\n        /* \"contracts/ERC20Standard.sol\":2350:2376  allowed[_from][msg.sender] */\n      0xffffffffffffffffffffffffffffffffffffffff\n      and\n      0xffffffffffffffffffffffffffffffffffffffff\n      and\n      dup2\n      mstore\n      0x20\n      add\n      swap1\n      dup2\n      mstore\n      0x20\n      add\n      0x00\n      keccak256\n      sload\n        /* \"contracts/ERC20Standard.sol\":2350:2380  allowed[_from][msg.sender].sub */\n      tag_98\n      swap1\n        /* \"contracts/ERC20Standard.sol\":2350:2388  allowed[_from][msg.sender].sub(_value) */\n      swap2\n      swap1\n      0xffffffff\n      and\n      jump\t// in\n    tag_99:\n        /* \"contracts/ERC20Standard.sol\":2321:2328  allowed */\n      0x06\n        /* \"contracts/ERC20Standard.sol\":2321:2335  allowed[_from] */\n      0x00\n        /* \"contracts/ERC20Standard.sol\":2329:2334  _from */\n      dup6\n        /* \"contracts/ERC20Standard.sol\":2321:2335  allowed[_from] */\n      0xffffffffffffffffffffffffffffffffffffffff\n      and\n      0xffffffffffffffffffffffffffffffffffffffff\n      and\n      dup2\n      mstore\n      0x20\n      add\n      swap1\n      dup2\n      mstore\n      0x20\n      add\n      0x00\n      keccak256\n        /* \"contracts/ERC20Standard.sol\":2321:2347  allowed[_from][msg.sender] */\n      0x00\n        /* \"contracts/ERC20Standard.sol\":2336:2346  msg.sender */\n      caller\n        /* \"contracts/ERC20Standard.sol\":2321:2347  allowed[_from][msg.sender] */\n      0xffffffffffffffffffffffffffffffffffffffff\n      and\n      0xffffffffffffffffffffffffffffffffffffffff\n      and\n      dup2\n      mstore\n      0x20\n      add\n      swap1\n      dup2\n      mstore\n      0x20\n      add\n      0x00\n      keccak256\n        /* \"contracts/ERC20Standard.sol\":2321:2388  allowed[_from][msg.sender] = allowed[_from][msg.sender].sub(_value) */\n      dup2\n      swap1\n      sstore\n      pop\n        /* \"contracts/ERC20Standard.sol\":2414:2417  _to */\n      dup2\n        /* \"contracts/ERC20Standard.sol\":2398:2426  Transfer(_from, _to, _value) */\n      0xffffffffffffffffffffffffffffffffffffffff\n      and\n        /* \"contracts/ERC20Standard.sol\":2407:2412  _from */\n      dup4\n        /* \"contracts/ERC20Standard.sol\":2398:2426  Transfer(_from, _to, _value) */\n      0xffffffffffffffffffffffffffffffffffffffff\n      and\n      0xddf252ad1be2c89b69c2b068fc378daa952ba7f163c4a11628f55a4df523b3ef\n        /* \"contracts/ERC20Standard.sol\":2419:2425  _value */\n      dup4\n        /* \"contracts/ERC20Standard.sol\":2398:2426  Transfer(_from, _to, _value) */\n      mload(0x40)\n      tag_100\n      swap2\n      swap1\n      tag_31\n      jump\t// in\n    tag_100:\n      mload(0x40)\n      dup1\n      swap2\n      sub\n      swap1\n      log3\n        /* \"contracts/ERC20Standard.sol\":1981:2438  function transferFrom(address _from, address _to, uint _value) public {\r... */\n      pop\n      pop\n      pop\n      jump\t// out\n        /* \"contracts/ERC20Standard.sol\":1027:1048  uint8 public decimals */\n    tag_37:\n      0x02\n      0x00\n      swap1\n      sload\n      swap1\n      0x0100\n      exp\n      swap1\n      div\n      0xff\n      and\n      dup2\n      jump\t// out\n        /* \"contracts/ERC20Standard.sol\":2443:2829  function mint(address account, uint256 amount) public {\r... */\n    tag_42:\n        /* \"contracts/ERC20Standard.sol\":2535:2536  0 */\n      0x00\n        /* \"contracts/ERC20Standard.sol\":2516:2537  account != address(0) */\n      0xffffffffffffffffffffffffffffffffffffffff\n      and\n        /* \"contracts/ERC20Standard.sol\":2516:2523  account */\n      dup3\n        /* \"contracts/ERC20Standard.sol\":2516:2537  account != address(0) */\n      0xffffffffffffffffffffffffffffffffffffffff\n      and\n      eq\n      iszero\n        /* \"contracts/ERC20Standard.sol\":2508:2573  require(account != address(0), \"ERC20: mint to the zero address\") */\n      tag_102\n      jumpi\n      mload(0x40)\n      0x08c379a000000000000000000000000000000000000000000000000000000000\n      dup2\n      mstore\n      0x04\n      add\n      tag_103\n      swap1\n      tag_104\n      jump\t// in\n    tag_103:\n      mload(0x40)\n      dup1\n      swap2\n      sub\n      swap1\n      revert\n    tag_102:\n        /* \"contracts/ERC20Standard.sol\":2586:2635  _beforeTokenTransfer(address(0), account, amount) */\n      tag_105\n        /* \"contracts/ERC20Standard.sol\":2615:2616  0 */\n      0x00\n        /* \"contracts/ERC20Standard.sol\":2619:2626  account */\n      dup4\n        /* \"contracts/ERC20Standard.sol\":2628:2634  amount */\n      dup4\n        /* \"contracts/ERC20Standard.sol\":2586:2606  _beforeTokenTransfer */\n      tag_106\n        /* \"contracts/ERC20Standard.sol\":2586:2635  _beforeTokenTransfer(address(0), account, amount) */\n      jump\t// in\n    tag_105:\n        /* \"contracts/ERC20Standard.sol\":2663:2669  amount */\n      dup1\n        /* \"contracts/ERC20Standard.sol\":2648:2659  totalSupply */\n      0x00\n      dup1\n        /* \"contracts/ERC20Standard.sol\":2648:2669  totalSupply += amount */\n      dup3\n      dup3\n      sload\n      tag_107\n      swap2\n      swap1\n      tag_70\n      jump\t// in\n    tag_107:\n      swap3\n      pop\n      pop\n      dup2\n      swap1\n      sstore\n      pop\n        /* \"contracts/ERC20Standard.sol\":2701:2707  amount */\n      dup1\n        /* \"contracts/ERC20Standard.sol\":2680:2688  balances */\n      0x05\n        /* \"contracts/ERC20Standard.sol\":2680:2697  balances[account] */\n      0x00\n        /* \"contracts/ERC20Standard.sol\":2689:2696  account */\n      dup5\n        /* \"contracts/ERC20Standard.sol\":2680:2697  balances[account] */\n      0xffffffffffffffffffffffffffffffffffffffff\n      and\n      0xffffffffffffffffffffffffffffffffffffffff\n      and\n      dup2\n      mstore\n      0x20\n      add\n      swap1\n      dup2\n      mstore\n      0x20\n      add\n      0x00\n      keccak256\n      0x00\n        /* \"contracts/ERC20Standard.sol\":2680:2707  balances[account] += amount */\n      dup3\n      dup3\n      sload\n      tag_108\n      swap2\n      swap1\n      tag_70\n      jump\t// in\n    tag_108:\n      swap3\n      pop\n      pop\n      dup2\n      swap1\n      sstore\n      pop\n        /* \"contracts/ERC20Standard.sol\":2744:2751  account */\n      dup2\n        /* \"contracts/ERC20Standard.sol\":2723:2760  Transfer(address(0), account, amount) */\n      0xffffffffffffffffffffffffffffffffffffffff\n      and\n        /* \"contracts/ERC20Standard.sol\":2740:2741  0 */\n      0x00\n        /* \"contracts/ERC20Standard.sol\":2723:2760  Transfer(address(0), account, amount) */\n      0xffffffffffffffffffffffffffffffffffffffff\n      and\n      0xddf252ad1be2c89b69c2b068fc378daa952ba7f163c4a11628f55a4df523b3ef\n        /* \"contracts/ERC20Standard.sol\":2753:2759  amount */\n      dup4\n        /* \"contracts/ERC20Standard.sol\":2723:2760  Transfer(address(0), account, amount) */\n      mload(0x40)\n      tag_109\n      swap2\n      swap1\n      tag_31\n      jump\t// in\n    tag_109:\n      mload(0x40)\n      dup1\n      swap2\n      sub\n      swap1\n      log3\n        /* \"contracts/ERC20Standard.sol\":2773:2821  _afterTokenTransfer(address(0), account, amount) */\n      tag_110\n        /* \"contracts/ERC20Standard.sol\":2801:2802  0 */\n      0x00\n        /* \"contracts/ERC20Standard.sol\":2805:2812  account */\n      dup4\n        /* \"contracts/ERC20Standard.sol\":2814:2820  amount */\n      dup4\n        /* \"contracts/ERC20Standard.sol\":2773:2792  _afterTokenTransfer */\n      tag_111\n        /* \"contracts/ERC20Standard.sol\":2773:2821  _afterTokenTransfer(address(0), account, amount) */\n      jump\t// in\n    tag_110:\n        /* \"contracts/ERC20Standard.sol\":2443:2829  function mint(address account, uint256 amount) public {\r... */\n      pop\n      pop\n      jump\t// out\n        /* \"contracts/ERC20Standard.sol\":1076:1097  string public version */\n    tag_44:\n      0x04\n      dup1\n      sload\n      tag_112\n      swap1\n      tag_63\n      jump\t// in\n    tag_112:\n      dup1\n      0x1f\n      add\n      0x20\n      dup1\n      swap2\n      div\n      mul\n      0x20\n      add\n      mload(0x40)\n      swap1\n      dup2\n      add\n      0x40\n      mstore\n      dup1\n      swap3\n      swap2\n      swap1\n      dup2\n      dup2\n      mstore\n      0x20\n      add\n      dup3\n      dup1\n      sload\n      tag_113\n      swap1\n      tag_63\n      jump\t// in\n    tag_113:\n      dup1\n      iszero\n      tag_114\n      jumpi\n      dup1\n      0x1f\n      lt\n      tag_115\n      jumpi\n      0x0100\n      dup1\n      dup4\n      sload\n      div\n      mul\n      dup4\n      mstore\n      swap2\n      0x20\n      add\n      swap2\n      jump(tag_114)\n    tag_115:\n      dup3\n      add\n      swap2\n      swap1\n      0x00\n      mstore\n      keccak256(0x00, 0x20)\n      swap1\n    tag_116:\n      dup2\n      sload\n      dup2\n      mstore\n      swap1\n      0x01\n      add\n      swap1\n      0x20\n      add\n      dup1\n      dup4\n      gt\n      tag_116\n      jumpi\n      dup3\n      swap1\n      sub\n      0x1f\n      and\n      dup3\n      add\n      swap2\n    tag_114:\n      pop\n      pop\n      pop\n      pop\n      pop\n      dup2\n      jump\t// out\n        /* \"contracts/ERC20Standard.sol\":1345:1448  function balanceOf(address _owner) public view returns (uint balance) {\r... */\n    tag_49:\n        /* \"contracts/ERC20Standard.sol\":1401:1413  uint balance */\n      0x00\n        /* \"contracts/ERC20Standard.sol\":1427:1435  balances */\n      0x05\n        /* \"contracts/ERC20Standard.sol\":1427:1443  balances[_owner] */\n      0x00\n        /* \"contracts/ERC20Standard.sol\":1436:1442  _owner */\n      dup4\n        /* \"contracts/ERC20Standard.sol\":1427:1443  balances[_owner] */\n      0xffffffffffffffffffffffffffffffffffffffff\n      and\n      0xffffffffffffffffffffffffffffffffffffffff\n      and\n      dup2\n      mstore\n      0x20\n      add\n      swap1\n      dup2\n      mstore\n      0x20\n      add\n      0x00\n      keccak256\n      sload\n        /* \"contracts/ERC20Standard.sol\":1420:1443  return balances[_owner] */\n      swap1\n      pop\n        /* \"contracts/ERC20Standard.sol\":1345:1448  function balanceOf(address _owner) public view returns (uint balance) {\r... */\n      swap2\n      swap1\n      pop\n      jump\t// out\n        /* \"contracts/ERC20Standard.sol\":1052:1072  string public symbol */\n    tag_52:\n      0x03\n      dup1\n      sload\n      tag_118\n      swap1\n      tag_63\n      jump\t// in\n    tag_118:\n      dup1\n      0x1f\n      add\n      0x20\n      dup1\n      swap2\n      div\n      mul\n      0x20\n      add\n      mload(0x40)\n      swap1\n      dup2\n      add\n      0x40\n      mstore\n      dup1\n      swap3\n      swap2\n      swap1\n      dup2\n      dup2\n      mstore\n      0x20\n      add\n      dup3\n      dup1\n      sload\n      tag_119\n      swap1\n      tag_63\n      jump\t// in\n    tag_119:\n      dup1\n      iszero\n      tag_120\n      jumpi\n      dup1\n      0x1f\n      lt\n      tag_121\n      jumpi\n      0x0100\n      dup1\n      dup4\n      sload\n      div\n      mul\n      dup4\n      mstore\n      swap2\n      0x20\n      add\n      swap2\n      jump(tag_120)\n    tag_121:\n      dup3\n      add\n      swap2\n      swap1\n      0x00\n      mstore\n      keccak256(0x00, 0x20)\n      swap1\n    tag_122:\n      dup2\n      sload\n      dup2\n      mstore\n      swap1\n      0x01\n      add\n      swap1\n      0x20\n      add\n      dup1\n      dup4\n      gt\n      tag_122\n      jumpi\n      dup3\n      swap1\n      sub\n      0x1f\n      and\n      dup3\n      add\n      swap2\n    tag_120:\n      pop\n      pop\n      pop\n      pop\n      pop\n      dup2\n      jump\t// out\n        /* \"contracts/ERC20Standard.sol\":1453:1534  function getTotalSupply() public view returns (uint) {\r... */\n    tag_55:\n        /* \"contracts/ERC20Standard.sol\":1500:1504  uint */\n      0x00\n        /* \"contracts/ERC20Standard.sol\":1518:1529  totalSupply */\n      dup1\n      sload\n        /* \"contracts/ERC20Standard.sol\":1511:1529  return totalSupply */\n      swap1\n      pop\n        /* \"contracts/ERC20Standard.sol\":1453:1534  function getTotalSupply() public view returns (uint) {\r... */\n      swap1\n      jump\t// out\n        /* \"contracts/ERC20Standard.sol\":2991:3121  function allowance(address _spender, address _owner) public view returns (uint balance) {\r... */\n    tag_60:\n        /* \"contracts/ERC20Standard.sol\":3065:3077  uint balance */\n      0x00\n        /* \"contracts/ERC20Standard.sol\":3091:3098  allowed */\n      0x06\n        /* \"contracts/ERC20Standard.sol\":3091:3106  allowed[_owner] */\n      0x00\n        /* \"contracts/ERC20Standard.sol\":3099:3105  _owner */\n      dup4\n        /* \"contracts/ERC20Standard.sol\":3091:3106  allowed[_owner] */\n      0xffffffffffffffffffffffffffffffffffffffff\n      and\n      0xffffffffffffffffffffffffffffffffffffffff\n      and\n      dup2\n      mstore\n      0x20\n      add\n      swap1\n      dup2\n      mstore\n      0x20\n      add\n      0x00\n      keccak256\n        /* \"contracts/ERC20Standard.sol\":3091:3116  allowed[_owner][_spender] */\n      0x00\n        /* \"contracts/ERC20Standard.sol\":3107:3115  _spender */\n      dup5\n        /* \"contracts/ERC20Standard.sol\":3091:3116  allowed[_owner][_spender] */\n      0xffffffffffffffffffffffffffffffffffffffff\n      and\n      0xffffffffffffffffffffffffffffffffffffffff\n      and\n      dup2\n      mstore\n      0x20\n      add\n      swap1\n      dup2\n      mstore\n      0x20\n      add\n      0x00\n      keccak256\n      sload\n        /* \"contracts/ERC20Standard.sol\":3084:3116  return allowed[_owner][_spender] */\n      swap1\n      pop\n        /* \"contracts/ERC20Standard.sol\":2991:3121  function allowance(address _spender, address _owner) public view returns (uint balance) {\r... */\n      swap3\n      swap2\n      pop\n      pop\n      jump\t// out\n        /* \"contracts/ERC20Standard.sol\":629:779  function add(uint256 a, uint256 b) internal pure returns (uint256) {\r... */\n    tag_84:\n        /* \"contracts/ERC20Standard.sol\":687:694  uint256 */\n      0x00\n        /* \"contracts/ERC20Standard.sol\":707:716  uint256 c */\n      dup1\n        /* \"contracts/ERC20Standard.sol\":723:724  b */\n      dup3\n        /* \"contracts/ERC20Standard.sol\":719:720  a */\n      dup5\n        /* \"contracts/ERC20Standard.sol\":719:724  a + b */\n      tag_126\n      swap2\n      swap1\n      tag_70\n      jump\t// in\n    tag_126:\n        /* \"contracts/ERC20Standard.sol\":707:724  uint256 c = a + b */\n      swap1\n      pop\n        /* \"contracts/ERC20Standard.sol\":748:749  a */\n      dup4\n        /* \"contracts/ERC20Standard.sol\":743:744  c */\n      dup2\n        /* \"contracts/ERC20Standard.sol\":743:749  c >= a */\n      lt\n      iszero\n        /* \"contracts/ERC20Standard.sol\":735:750  require(c >= a) */\n      tag_127\n      jumpi\n      0x00\n      dup1\n      revert\n    tag_127:\n        /* \"contracts/ERC20Standard.sol\":770:771  c */\n      dup1\n        /* \"contracts/ERC20Standard.sol\":763:771  return c */\n      swap2\n      pop\n      pop\n        /* \"contracts/ERC20Standard.sol\":629:779  function add(uint256 a, uint256 b) internal pure returns (uint256) {\r... */\n      swap3\n      swap2\n      pop\n      pop\n      jump\t// out\n        /* \"contracts/ERC20Standard.sol\":471:621  function sub(uint256 a, uint256 b) internal pure returns (uint256) {\r... */\n    tag_98:\n        /* \"contracts/ERC20Standard.sol\":529:536  uint256 */\n      0x00\n        /* \"contracts/ERC20Standard.sol\":562:563  a */\n      dup3\n        /* \"contracts/ERC20Standard.sol\":557:558  b */\n      dup3\n        /* \"contracts/ERC20Standard.sol\":557:563  b <= a */\n      gt\n      iszero\n        /* \"contracts/ERC20Standard.sol\":549:564  require(b <= a) */\n      tag_129\n      jumpi\n      0x00\n      dup1\n      revert\n    tag_129:\n        /* \"contracts/ERC20Standard.sol\":575:584  uint256 c */\n      0x00\n        /* \"contracts/ERC20Standard.sol\":591:592  b */\n      dup3\n        /* \"contracts/ERC20Standard.sol\":587:588  a */\n      dup5\n        /* \"contracts/ERC20Standard.sol\":587:592  a - b */\n      tag_130\n      swap2\n      swap1\n      tag_82\n      jump\t// in\n    tag_130:\n        /* \"contracts/ERC20Standard.sol\":575:592  uint256 c = a - b */\n      swap1\n      pop\n        /* \"contracts/ERC20Standard.sol\":612:613  c */\n      dup1\n        /* \"contracts/ERC20Standard.sol\":605:613  return c */\n      swap2\n      pop\n      pop\n        /* \"contracts/ERC20Standard.sol\":471:621  function sub(uint256 a, uint256 b) internal pure returns (uint256) {\r... */\n      swap3\n      swap2\n      pop\n      pop\n      jump\t// out\n        /* \"contracts/ERC20Standard.sol\":3485:3610  function _beforeTokenTransfer(\r... */\n    tag_106:\n      pop\n      pop\n      pop\n      jump\t// out\n        /* \"contracts/ERC20Standard.sol\":3619:3743  function _afterTokenTransfer(\r... */\n    tag_111:\n      pop\n      pop\n      pop\n      jump\t// out\n        /* \"#utility.yul\":7:146   */\n    tag_134:\n        /* \"#utility.yul\":53:58   */\n      0x00\n        /* \"#utility.yul\":91:97   */\n      dup2\n        /* \"#utility.yul\":78:98   */\n      calldataload\n        /* \"#utility.yul\":69:98   */\n      swap1\n      pop\n        /* \"#utility.yul\":107:140   */\n      tag_136\n        /* \"#utility.yul\":134:139   */\n      dup2\n        /* \"#utility.yul\":107:140   */\n      tag_137\n      jump\t// in\n    tag_136:\n        /* \"#utility.yul\":7:146   */\n      swap3\n      swap2\n      pop\n      pop\n      jump\t// out\n        /* \"#utility.yul\":152:291   */\n    tag_138:\n        /* \"#utility.yul\":198:203   */\n      0x00\n        /* \"#utility.yul\":236:242   */\n      dup2\n        /* \"#utility.yul\":223:243   */\n      calldataload\n        /* \"#utility.yul\":214:243   */\n      swap1\n      pop\n        /* \"#utility.yul\":252:285   */\n      tag_140\n        /* \"#utility.yul\":279:284   */\n      dup2\n        /* \"#utility.yul\":252:285   */\n      tag_141\n      jump\t// in\n    tag_140:\n        /* \"#utility.yul\":152:291   */\n      swap3\n      swap2\n      pop\n      pop\n      jump\t// out\n        /* \"#utility.yul\":297:626   */\n    tag_48:\n        /* \"#utility.yul\":356:362   */\n      0x00\n        /* \"#utility.yul\":405:407   */\n      0x20\n        /* \"#utility.yul\":393:402   */\n      dup3\n        /* \"#utility.yul\":384:391   */\n      dup5\n        /* \"#utility.yul\":380:403   */\n      sub\n        /* \"#utility.yul\":376:408   */\n      slt\n        /* \"#utility.yul\":373:492   */\n      iszero\n      tag_143\n      jumpi\n        /* \"#utility.yul\":411:490   */\n      tag_144\n      tag_145\n      jump\t// in\n    tag_144:\n        /* \"#utility.yul\":373:492   */\n    tag_143:\n        /* \"#utility.yul\":531:532   */\n      0x00\n        /* \"#utility.yul\":556:609   */\n      tag_146\n        /* \"#utility.yul\":601:608   */\n      dup5\n        /* \"#utility.yul\":592:598   */\n      dup3\n        /* \"#utility.yul\":581:590   */\n      dup6\n        /* \"#utility.yul\":577:599   */\n      add\n        /* \"#utility.yul\":556:609   */\n      tag_134\n      jump\t// in\n    tag_146:\n        /* \"#utility.yul\":546:609   */\n      swap2\n      pop\n        /* \"#utility.yul\":502:619   */\n      pop\n        /* \"#utility.yul\":297:626   */\n      swap3\n      swap2\n      pop\n      pop\n      jump\t// out\n        /* \"#utility.yul\":632:1106   */\n    tag_59:\n        /* \"#utility.yul\":700:706   */\n      0x00\n        /* \"#utility.yul\":708:714   */\n      dup1\n        /* \"#utility.yul\":757:759   */\n      0x40\n        /* \"#utility.yul\":745:754   */\n      dup4\n        /* \"#utility.yul\":736:743   */\n      dup6\n        /* \"#utility.yul\":732:755   */\n      sub\n        /* \"#utility.yul\":728:760   */\n      slt\n        /* \"#utility.yul\":725:844   */\n      iszero\n      tag_148\n      jumpi\n        /* \"#utility.yul\":763:842   */\n      tag_149\n      tag_145\n      jump\t// in\n    tag_149:\n        /* \"#utility.yul\":725:844   */\n    tag_148:\n        /* \"#utility.yul\":883:884   */\n      0x00\n        /* \"#utility.yul\":908:961   */\n      tag_150\n        /* \"#utility.yul\":953:960   */\n      dup6\n        /* \"#utility.yul\":944:950   */\n      dup3\n        /* \"#utility.yul\":933:942   */\n      dup7\n        /* \"#utility.yul\":929:951   */\n      add\n        /* \"#utility.yul\":908:961   */\n      tag_134\n      jump\t// in\n    tag_150:\n        /* \"#utility.yul\":898:961   */\n      swap3\n      pop\n        /* \"#utility.yul\":854:971   */\n      pop\n        /* \"#utility.yul\":1010:1012   */\n      0x20\n        /* \"#utility.yul\":1036:1089   */\n      tag_151\n        /* \"#utility.yul\":1081:1088   */\n      dup6\n        /* \"#utility.yul\":1072:1078   */\n      dup3\n        /* \"#utility.yul\":1061:1070   */\n      dup7\n        /* \"#utility.yul\":1057:1079   */\n      add\n        /* \"#utility.yul\":1036:1089   */\n      tag_134\n      jump\t// in\n    tag_151:\n        /* \"#utility.yul\":1026:1089   */\n      swap2\n      pop\n        /* \"#utility.yul\":981:1099   */\n      pop\n        /* \"#utility.yul\":632:1106   */\n      swap3\n      pop\n      swap3\n      swap1\n      pop\n      jump\t// out\n        /* \"#utility.yul\":1112:1731   */\n    tag_34:\n        /* \"#utility.yul\":1189:1195   */\n      0x00\n        /* \"#utility.yul\":1197:1203   */\n      dup1\n        /* \"#utility.yul\":1205:1211   */\n      0x00\n        /* \"#utility.yul\":1254:1256   */\n      0x60\n        /* \"#utility.yul\":1242:1251   */\n      dup5\n        /* \"#utility.yul\":1233:1240   */\n      dup7\n        /* \"#utility.yul\":1229:1252   */\n      sub\n        /* \"#utility.yul\":1225:1257   */\n      slt\n        /* \"#utility.yul\":1222:1341   */\n      iszero\n      tag_153\n      jumpi\n        /* \"#utility.yul\":1260:1339   */\n      tag_154\n      tag_145\n      jump\t// in\n    tag_154:\n        /* \"#utility.yul\":1222:1341   */\n    tag_153:\n        /* \"#utility.yul\":1380:1381   */\n      0x00\n        /* \"#utility.yul\":1405:1458   */\n      tag_155\n        /* \"#utility.yul\":1450:1457   */\n      dup7\n        /* \"#utility.yul\":1441:1447   */\n      dup3\n        /* \"#utility.yul\":1430:1439   */\n      dup8\n        /* \"#utility.yul\":1426:1448   */\n      add\n        /* \"#utility.yul\":1405:1458   */\n      tag_134\n      jump\t// in\n    tag_155:\n        /* \"#utility.yul\":1395:1458   */\n      swap4\n      pop\n        /* \"#utility.yul\":1351:1468   */\n      pop\n        /* \"#utility.yul\":1507:1509   */\n      0x20\n        /* \"#utility.yul\":1533:1586   */\n      tag_156\n        /* \"#utility.yul\":1578:1585   */\n      dup7\n        /* \"#utility.yul\":1569:1575   */\n      dup3\n        /* \"#utility.yul\":1558:1567   */\n      dup8\n        /* \"#utility.yul\":1554:1576   */\n      add\n        /* \"#utility.yul\":1533:1586   */\n      tag_134\n      jump\t// in\n    tag_156:\n        /* \"#utility.yul\":1523:1586   */\n      swap3\n      pop\n        /* \"#utility.yul\":1478:1596   */\n      pop\n        /* \"#utility.yul\":1635:1637   */\n      0x40\n        /* \"#utility.yul\":1661:1714   */\n      tag_157\n        /* \"#utility.yul\":1706:1713   */\n      dup7\n        /* \"#utility.yul\":1697:1703   */\n      dup3\n        /* \"#utility.yul\":1686:1695   */\n      dup8\n        /* \"#utility.yul\":1682:1704   */\n      add\n        /* \"#utility.yul\":1661:1714   */\n      tag_138\n      jump\t// in\n    tag_157:\n        /* \"#utility.yul\":1651:1714   */\n      swap2\n      pop\n        /* \"#utility.yul\":1606:1724   */\n      pop\n        /* \"#utility.yul\":1112:1731   */\n      swap3\n      pop\n      swap3\n      pop\n      swap3\n      jump\t// out\n        /* \"#utility.yul\":1737:2211   */\n    tag_26:\n        /* \"#utility.yul\":1805:1811   */\n      0x00\n        /* \"#utility.yul\":1813:1819   */\n      dup1\n        /* \"#utility.yul\":1862:1864   */\n      0x40\n        /* \"#utility.yul\":1850:1859   */\n      dup4\n        /* \"#utility.yul\":1841:1848   */\n      dup6\n        /* \"#utility.yul\":1837:1860   */\n      sub\n        /* \"#utility.yul\":1833:1865   */\n      slt\n        /* \"#utility.yul\":1830:1949   */\n      iszero\n      tag_159\n      jumpi\n        /* \"#utility.yul\":1868:1947   */\n      tag_160\n      tag_145\n      jump\t// in\n    tag_160:\n        /* \"#utility.yul\":1830:1949   */\n    tag_159:\n        /* \"#utility.yul\":1988:1989   */\n      0x00\n        /* \"#utility.yul\":2013:2066   */\n      tag_161\n        /* \"#utility.yul\":2058:2065   */\n      dup6\n        /* \"#utility.yul\":2049:2055   */\n      dup3\n        /* \"#utility.yul\":2038:2047   */\n      dup7\n        /* \"#utility.yul\":2034:2056   */\n      add\n        /* \"#utility.yul\":2013:2066   */\n      tag_134\n      jump\t// in\n    tag_161:\n        /* \"#utility.yul\":2003:2066   */\n      swap3\n      pop\n        /* \"#utility.yul\":1959:2076   */\n      pop\n        /* \"#utility.yul\":2115:2117   */\n      0x20\n        /* \"#utility.yul\":2141:2194   */\n      tag_162\n        /* \"#utility.yul\":2186:2193   */\n      dup6\n        /* \"#utility.yul\":2177:2183   */\n      dup3\n        /* \"#utility.yul\":2166:2175   */\n      dup7\n        /* \"#utility.yul\":2162:2184   */\n      add\n        /* \"#utility.yul\":2141:2194   */\n      tag_138\n      jump\t// in\n    tag_162:\n        /* \"#utility.yul\":2131:2194   */\n      swap2\n      pop\n        /* \"#utility.yul\":2086:2204   */\n      pop\n        /* \"#utility.yul\":1737:2211   */\n      swap3\n      pop\n      swap3\n      swap1\n      pop\n      jump\t// out\n        /* \"#utility.yul\":2217:2836   */\n    tag_22:\n        /* \"#utility.yul\":2294:2300   */\n      0x00\n        /* \"#utility.yul\":2302:2308   */\n      dup1\n        /* \"#utility.yul\":2310:2316   */\n      0x00\n        /* \"#utility.yul\":2359:2361   */\n      0x60\n        /* \"#utility.yul\":2347:2356   */\n      dup5\n        /* \"#utility.yul\":2338:2345   */\n      dup7\n        /* \"#utility.yul\":2334:2357   */\n      sub\n        /* \"#utility.yul\":2330:2362   */\n      slt\n        /* \"#utility.yul\":2327:2446   */\n      iszero\n      tag_164\n      jumpi\n        /* \"#utility.yul\":2365:2444   */\n      tag_165\n      tag_145\n      jump\t// in\n    tag_165:\n        /* \"#utility.yul\":2327:2446   */\n    tag_164:\n        /* \"#utility.yul\":2485:2486   */\n      0x00\n        /* \"#utility.yul\":2510:2563   */\n      tag_166\n        /* \"#utility.yul\":2555:2562   */\n      dup7\n        /* \"#utility.yul\":2546:2552   */\n      dup3\n        /* \"#utility.yul\":2535:2544   */\n      dup8\n        /* \"#utility.yul\":2531:2553   */\n      add\n        /* \"#utility.yul\":2510:2563   */\n      tag_134\n      jump\t// in\n    tag_166:\n        /* \"#utility.yul\":2500:2563   */\n      swap4\n      pop\n        /* \"#utility.yul\":2456:2573   */\n      pop\n        /* \"#utility.yul\":2612:2614   */\n      0x20\n        /* \"#utility.yul\":2638:2691   */\n      tag_167\n        /* \"#utility.yul\":2683:2690   */\n      dup7\n        /* \"#utility.yul\":2674:2680   */\n      dup3\n        /* \"#utility.yul\":2663:2672   */\n      dup8\n        /* \"#utility.yul\":2659:2681   */\n      add\n        /* \"#utility.yul\":2638:2691   */\n      tag_138\n      jump\t// in\n    tag_167:\n        /* \"#utility.yul\":2628:2691   */\n      swap3\n      pop\n        /* \"#utility.yul\":2583:2701   */\n      pop\n        /* \"#utility.yul\":2740:2742   */\n      0x40\n        /* \"#utility.yul\":2766:2819   */\n      tag_168\n        /* \"#utility.yul\":2811:2818   */\n      dup7\n        /* \"#utility.yul\":2802:2808   */\n      dup3\n        /* \"#utility.yul\":2791:2800   */\n      dup8\n        /* \"#utility.yul\":2787:2809   */\n      add\n        /* \"#utility.yul\":2766:2819   */\n      tag_138\n      jump\t// in\n    tag_168:\n        /* \"#utility.yul\":2756:2819   */\n      swap2\n      pop\n        /* \"#utility.yul\":2711:2829   */\n      pop\n        /* \"#utility.yul\":2217:2836   */\n      swap3\n      pop\n      swap3\n      pop\n      swap3\n      jump\t// out\n        /* \"#utility.yul\":2842:3206   */\n    tag_169:\n        /* \"#utility.yul\":2930:2933   */\n      0x00\n        /* \"#utility.yul\":2958:2997   */\n      tag_171\n        /* \"#utility.yul\":2991:2996   */\n      dup3\n        /* \"#utility.yul\":2958:2997   */\n      tag_172\n      jump\t// in\n    tag_171:\n        /* \"#utility.yul\":3013:3084   */\n      tag_173\n        /* \"#utility.yul\":3077:3083   */\n      dup2\n        /* \"#utility.yul\":3072:3075   */\n      dup6\n        /* \"#utility.yul\":3013:3084   */\n      tag_174\n      jump\t// in\n    tag_173:\n        /* \"#utility.yul\":3006:3084   */\n      swap4\n      pop\n        /* \"#utility.yul\":3093:3145   */\n      tag_175\n        /* \"#utility.yul\":3138:3144   */\n      dup2\n        /* \"#utility.yul\":3133:3136   */\n      dup6\n        /* \"#utility.yul\":3126:3130   */\n      0x20\n        /* \"#utility.yul\":3119:3124   */\n      dup7\n        /* \"#utility.yul\":3115:3131   */\n      add\n        /* \"#utility.yul\":3093:3145   */\n      tag_176\n      jump\t// in\n    tag_175:\n        /* \"#utility.yul\":3170:3199   */\n      tag_177\n        /* \"#utility.yul\":3192:3198   */\n      dup2\n        /* \"#utility.yul\":3170:3199   */\n      tag_178\n      jump\t// in\n    tag_177:\n        /* \"#utility.yul\":3165:3168   */\n      dup5\n        /* \"#utility.yul\":3161:3200   */\n      add\n        /* \"#utility.yul\":3154:3200   */\n      swap2\n      pop\n        /* \"#utility.yul\":2934:3206   */\n      pop\n        /* \"#utility.yul\":2842:3206   */\n      swap3\n      swap2\n      pop\n      pop\n      jump\t// out\n        /* \"#utility.yul\":3212:3578   */\n    tag_179:\n        /* \"#utility.yul\":3354:3357   */\n      0x00\n        /* \"#utility.yul\":3375:3442   */\n      tag_181\n        /* \"#utility.yul\":3439:3441   */\n      0x10\n        /* \"#utility.yul\":3434:3437   */\n      dup4\n        /* \"#utility.yul\":3375:3442   */\n      tag_174\n      jump\t// in\n    tag_181:\n        /* \"#utility.yul\":3368:3442   */\n      swap2\n      pop\n        /* \"#utility.yul\":3451:3544   */\n      tag_182\n        /* \"#utility.yul\":3540:3543   */\n      dup3\n        /* \"#utility.yul\":3451:3544   */\n      tag_183\n      jump\t// in\n    tag_182:\n        /* \"#utility.yul\":3569:3571   */\n      0x20\n        /* \"#utility.yul\":3564:3567   */\n      dup3\n        /* \"#utility.yul\":3560:3572   */\n      add\n        /* \"#utility.yul\":3553:3572   */\n      swap1\n      pop\n        /* \"#utility.yul\":3212:3578   */\n      swap2\n      swap1\n      pop\n      jump\t// out\n        /* \"#utility.yul\":3584:3950   */\n    tag_184:\n        /* \"#utility.yul\":3726:3729   */\n      0x00\n        /* \"#utility.yul\":3747:3814   */\n      tag_186\n        /* \"#utility.yul\":3811:3813   */\n      0x0b\n        /* \"#utility.yul\":3806:3809   */\n      dup4\n        /* \"#utility.yul\":3747:3814   */\n      tag_174\n      jump\t// in\n    tag_186:\n        /* \"#utility.yul\":3740:3814   */\n      swap2\n      pop\n        /* \"#utility.yul\":3823:3916   */\n      tag_187\n        /* \"#utility.yul\":3912:3915   */\n      dup3\n        /* \"#utility.yul\":3823:3916   */\n      tag_188\n      jump\t// in\n    tag_187:\n        /* \"#utility.yul\":3941:3943   */\n      0x20\n        /* \"#utility.yul\":3936:3939   */\n      dup3\n        /* \"#utility.yul\":3932:3944   */\n      add\n        /* \"#utility.yul\":3925:3944   */\n      swap1\n      pop\n        /* \"#utility.yul\":3584:3950   */\n      swap2\n      swap1\n      pop\n      jump\t// out\n        /* \"#utility.yul\":3956:4322   */\n    tag_189:\n        /* \"#utility.yul\":4098:4101   */\n      0x00\n        /* \"#utility.yul\":4119:4186   */\n      tag_191\n        /* \"#utility.yul\":4183:4185   */\n      0x0e\n        /* \"#utility.yul\":4178:4181   */\n      dup4\n        /* \"#utility.yul\":4119:4186   */\n      tag_174\n      jump\t// in\n    tag_191:\n        /* \"#utility.yul\":4112:4186   */\n      swap2\n      pop\n        /* \"#utility.yul\":4195:4288   */\n      tag_192\n        /* \"#utility.yul\":4284:4287   */\n      dup3\n        /* \"#utility.yul\":4195:4288   */\n      tag_193\n      jump\t// in\n    tag_192:\n        /* \"#utility.yul\":4313:4315   */\n      0x20\n        /* \"#utility.yul\":4308:4311   */\n      dup3\n        /* \"#utility.yul\":4304:4316   */\n      add\n        /* \"#utility.yul\":4297:4316   */\n      swap1\n      pop\n        /* \"#utility.yul\":3956:4322   */\n      swap2\n      swap1\n      pop\n      jump\t// out\n        /* \"#utility.yul\":4328:4694   */\n    tag_194:\n        /* \"#utility.yul\":4470:4473   */\n      0x00\n        /* \"#utility.yul\":4491:4558   */\n      tag_196\n        /* \"#utility.yul\":4555:4557   */\n      0x1f\n        /* \"#utility.yul\":4550:4553   */\n      dup4\n        /* \"#utility.yul\":4491:4558   */\n      tag_174\n      jump\t// in\n    tag_196:\n        /* \"#utility.yul\":4484:4558   */\n      swap2\n      pop\n        /* \"#utility.yul\":4567:4660   */\n      tag_197\n        /* \"#utility.yul\":4656:4659   */\n      dup3\n        /* \"#utility.yul\":4567:4660   */\n      tag_198\n      jump\t// in\n    tag_197:\n        /* \"#utility.yul\":4685:4687   */\n      0x20\n        /* \"#utility.yul\":4680:4683   */\n      dup3\n        /* \"#utility.yul\":4676:4688   */\n      add\n        /* \"#utility.yul\":4669:4688   */\n      swap1\n      pop\n        /* \"#utility.yul\":4328:4694   */\n      swap2\n      swap1\n      pop\n      jump\t// out\n        /* \"#utility.yul\":4700:4818   */\n    tag_199:\n        /* \"#utility.yul\":4787:4811   */\n      tag_201\n        /* \"#utility.yul\":4805:4810   */\n      dup2\n        /* \"#utility.yul\":4787:4811   */\n      tag_202\n      jump\t// in\n    tag_201:\n        /* \"#utility.yul\":4782:4785   */\n      dup3\n        /* \"#utility.yul\":4775:4812   */\n      mstore\n        /* \"#utility.yul\":4700:4818   */\n      pop\n      pop\n      jump\t// out\n        /* \"#utility.yul\":4824:4936   */\n    tag_203:\n        /* \"#utility.yul\":4907:4929   */\n      tag_205\n        /* \"#utility.yul\":4923:4928   */\n      dup2\n        /* \"#utility.yul\":4907:4929   */\n      tag_206\n      jump\t// in\n    tag_205:\n        /* \"#utility.yul\":4902:4905   */\n      dup3\n        /* \"#utility.yul\":4895:4930   */\n      mstore\n        /* \"#utility.yul\":4824:4936   */\n      pop\n      pop\n      jump\t// out\n        /* \"#utility.yul\":4942:5255   */\n    tag_19:\n        /* \"#utility.yul\":5055:5059   */\n      0x00\n        /* \"#utility.yul\":5093:5095   */\n      0x20\n        /* \"#utility.yul\":5082:5091   */\n      dup3\n        /* \"#utility.yul\":5078:5096   */\n      add\n        /* \"#utility.yul\":5070:5096   */\n      swap1\n      pop\n        /* \"#utility.yul\":5142:5151   */\n      dup2\n        /* \"#utility.yul\":5136:5140   */\n      dup2\n        /* \"#utility.yul\":5132:5152   */\n      sub\n        /* \"#utility.yul\":5128:5129   */\n      0x00\n        /* \"#utility.yul\":5117:5126   */\n      dup4\n        /* \"#utility.yul\":5113:5130   */\n      add\n        /* \"#utility.yul\":5106:5153   */\n      mstore\n        /* \"#utility.yul\":5170:5248   */\n      tag_208\n        /* \"#utility.yul\":5243:5247   */\n      dup2\n        /* \"#utility.yul\":5234:5240   */\n      dup5\n        /* \"#utility.yul\":5170:5248   */\n      tag_169\n      jump\t// in\n    tag_208:\n        /* \"#utility.yul\":5162:5248   */\n      swap1\n      pop\n        /* \"#utility.yul\":4942:5255   */\n      swap3\n      swap2\n      pop\n      pop\n      jump\t// out\n        /* \"#utility.yul\":5261:5680   */\n    tag_80:\n        /* \"#utility.yul\":5427:5431   */\n      0x00\n        /* \"#utility.yul\":5465:5467   */\n      0x20\n        /* \"#utility.yul\":5454:5463   */\n      dup3\n        /* \"#utility.yul\":5450:5468   */\n      add\n        /* \"#utility.yul\":5442:5468   */\n      swap1\n      pop\n        /* \"#utility.yul\":5514:5523   */\n      dup2\n        /* \"#utility.yul\":5508:5512   */\n      dup2\n        /* \"#utility.yul\":5504:5524   */\n      sub\n        /* \"#utility.yul\":5500:5501   */\n      0x00\n        /* \"#utility.yul\":5489:5498   */\n      dup4\n        /* \"#utility.yul\":5485:5502   */\n      add\n        /* \"#utility.yul\":5478:5525   */\n      mstore\n        /* \"#utility.yul\":5542:5673   */\n      tag_210\n        /* \"#utility.yul\":5668:5672   */\n      dup2\n        /* \"#utility.yul\":5542:5673   */\n      tag_179\n      jump\t// in\n    tag_210:\n        /* \"#utility.yul\":5534:5673   */\n      swap1\n      pop\n        /* \"#utility.yul\":5261:5680   */\n      swap2\n      swap1\n      pop\n      jump\t// out\n        /* \"#utility.yul\":5686:6105   */\n    tag_77:\n        /* \"#utility.yul\":5852:5856   */\n      0x00\n        /* \"#utility.yul\":5890:5892   */\n      0x20\n        /* \"#utility.yul\":5879:5888   */\n      dup3\n        /* \"#utility.yul\":5875:5893   */\n      add\n        /* \"#utility.yul\":5867:5893   */\n      swap1\n      pop\n        /* \"#utility.yul\":5939:5948   */\n      dup2\n        /* \"#utility.yul\":5933:5937   */\n      dup2\n        /* \"#utility.yul\":5929:5949   */\n      sub\n        /* \"#utility.yul\":5925:5926   */\n      0x00\n        /* \"#utility.yul\":5914:5923   */\n      dup4\n        /* \"#utility.yul\":5910:5927   */\n      add\n        /* \"#utility.yul\":5903:5950   */\n      mstore\n        /* \"#utility.yul\":5967:6098   */\n      tag_212\n        /* \"#utility.yul\":6093:6097   */\n      dup2\n        /* \"#utility.yul\":5967:6098   */\n      tag_184\n      jump\t// in\n    tag_212:\n        /* \"#utility.yul\":5959:6098   */\n      swap1\n      pop\n        /* \"#utility.yul\":5686:6105   */\n      swap2\n      swap1\n      pop\n      jump\t// out\n        /* \"#utility.yul\":6111:6530   */\n    tag_95:\n        /* \"#utility.yul\":6277:6281   */\n      0x00\n        /* \"#utility.yul\":6315:6317   */\n      0x20\n        /* \"#utility.yul\":6304:6313   */\n      dup3\n        /* \"#utility.yul\":6300:6318   */\n      add\n        /* \"#utility.yul\":6292:6318   */\n      swap1\n      pop\n        /* \"#utility.yul\":6364:6373   */\n      dup2\n        /* \"#utility.yul\":6358:6362   */\n      dup2\n        /* \"#utility.yul\":6354:6374   */\n      sub\n        /* \"#utility.yul\":6350:6351   */\n      0x00\n        /* \"#utility.yul\":6339:6348   */\n      dup4\n        /* \"#utility.yul\":6335:6352   */\n      add\n        /* \"#utility.yul\":6328:6375   */\n      mstore\n        /* \"#utility.yul\":6392:6523   */\n      tag_214\n        /* \"#utility.yul\":6518:6522   */\n      dup2\n        /* \"#utility.yul\":6392:6523   */\n      tag_189\n      jump\t// in\n    tag_214:\n        /* \"#utility.yul\":6384:6523   */\n      swap1\n      pop\n        /* \"#utility.yul\":6111:6530   */\n      swap2\n      swap1\n      pop\n      jump\t// out\n        /* \"#utility.yul\":6536:6955   */\n    tag_104:\n        /* \"#utility.yul\":6702:6706   */\n      0x00\n        /* \"#utility.yul\":6740:6742   */\n      0x20\n        /* \"#utility.yul\":6729:6738   */\n      dup3\n        /* \"#utility.yul\":6725:6743   */\n      add\n        /* \"#utility.yul\":6717:6743   */\n      swap1\n      pop\n        /* \"#utility.yul\":6789:6798   */\n      dup2\n        /* \"#utility.yul\":6783:6787   */\n      dup2\n        /* \"#utility.yul\":6779:6799   */\n      sub\n        /* \"#utility.yul\":6775:6776   */\n      0x00\n        /* \"#utility.yul\":6764:6773   */\n      dup4\n        /* \"#utility.yul\":6760:6777   */\n      add\n        /* \"#utility.yul\":6753:6800   */\n      mstore\n        /* \"#utility.yul\":6817:6948   */\n      tag_216\n        /* \"#utility.yul\":6943:6947   */\n      dup2\n        /* \"#utility.yul\":6817:6948   */\n      tag_194\n      jump\t// in\n    tag_216:\n        /* \"#utility.yul\":6809:6948   */\n      swap1\n      pop\n        /* \"#utility.yul\":6536:6955   */\n      swap2\n      swap1\n      pop\n      jump\t// out\n        /* \"#utility.yul\":6961:7183   */\n    tag_31:\n        /* \"#utility.yul\":7054:7058   */\n      0x00\n        /* \"#utility.yul\":7092:7094   */\n      0x20\n        /* \"#utility.yul\":7081:7090   */\n      dup3\n        /* \"#utility.yul\":7077:7095   */\n      add\n        /* \"#utility.yul\":7069:7095   */\n      swap1\n      pop\n        /* \"#utility.yul\":7105:7176   */\n      tag_218\n        /* \"#utility.yul\":7173:7174   */\n      0x00\n        /* \"#utility.yul\":7162:7171   */\n      dup4\n        /* \"#utility.yul\":7158:7175   */\n      add\n        /* \"#utility.yul\":7149:7155   */\n      dup5\n        /* \"#utility.yul\":7105:7176   */\n      tag_199\n      jump\t// in\n    tag_218:\n        /* \"#utility.yul\":6961:7183   */\n      swap3\n      swap2\n      pop\n      pop\n      jump\t// out\n        /* \"#utility.yul\":7189:7403   */\n    tag_39:\n        /* \"#utility.yul\":7278:7282   */\n      0x00\n        /* \"#utility.yul\":7316:7318   */\n      0x20\n        /* \"#utility.yul\":7305:7314   */\n      dup3\n        /* \"#utility.yul\":7301:7319   */\n      add\n        /* \"#utility.yul\":7293:7319   */\n      swap1\n      pop\n        /* \"#utility.yul\":7329:7396   */\n      tag_220\n        /* \"#utility.yul\":7393:7394   */\n      0x00\n        /* \"#utility.yul\":7382:7391   */\n      dup4\n        /* \"#utility.yul\":7378:7395   */\n      add\n        /* \"#utility.yul\":7369:7375   */\n      dup5\n        /* \"#utility.yul\":7329:7396   */\n      tag_203\n      jump\t// in\n    tag_220:\n        /* \"#utility.yul\":7189:7403   */\n      swap3\n      swap2\n      pop\n      pop\n      jump\t// out\n        /* \"#utility.yul\":7490:7589   */\n    tag_172:\n        /* \"#utility.yul\":7542:7548   */\n      0x00\n        /* \"#utility.yul\":7576:7581   */\n      dup2\n        /* \"#utility.yul\":7570:7582   */\n      mload\n        /* \"#utility.yul\":7560:7582   */\n      swap1\n      pop\n        /* \"#utility.yul\":7490:7589   */\n      swap2\n      swap1\n      pop\n      jump\t// out\n        /* \"#utility.yul\":7595:7764   */\n    tag_174:\n        /* \"#utility.yul\":7679:7690   */\n      0x00\n        /* \"#utility.yul\":7713:7719   */\n      dup3\n        /* \"#utility.yul\":7708:7711   */\n      dup3\n        /* \"#utility.yul\":7701:7720   */\n      mstore\n        /* \"#utility.yul\":7753:7757   */\n      0x20\n        /* \"#utility.yul\":7748:7751   */\n      dup3\n        /* \"#utility.yul\":7744:7758   */\n      add\n        /* \"#utility.yul\":7729:7758   */\n      swap1\n      pop\n        /* \"#utility.yul\":7595:7764   */\n      swap3\n      swap2\n      pop\n      pop\n      jump\t// out\n        /* \"#utility.yul\":7770:8075   */\n    tag_70:\n        /* \"#utility.yul\":7810:7813   */\n      0x00\n        /* \"#utility.yul\":7829:7849   */\n      tag_226\n        /* \"#utility.yul\":7847:7848   */\n      dup3\n        /* \"#utility.yul\":7829:7849   */\n      tag_202\n      jump\t// in\n    tag_226:\n        /* \"#utility.yul\":7824:7849   */\n      swap2\n      pop\n        /* \"#utility.yul\":7863:7883   */\n      tag_227\n        /* \"#utility.yul\":7881:7882   */\n      dup4\n        /* \"#utility.yul\":7863:7883   */\n      tag_202\n      jump\t// in\n    tag_227:\n        /* \"#utility.yul\":7858:7883   */\n      swap3\n      pop\n        /* \"#utility.yul\":8017:8018   */\n      dup3\n        /* \"#utility.yul\":7949:8015   */\n      0xffffffffffffffffffffffffffffffffffffffffffffffffffffffffffffffff\n        /* \"#utility.yul\":7945:8019   */\n      sub\n        /* \"#utility.yul\":7942:7943   */\n      dup3\n        /* \"#utility.yul\":7939:8020   */\n      gt\n        /* \"#utility.yul\":7936:8043   */\n      iszero\n      tag_228\n      jumpi\n        /* \"#utility.yul\":8023:8041   */\n      tag_229\n      tag_230\n      jump\t// in\n    tag_229:\n        /* \"#utility.yul\":7936:8043   */\n    tag_228:\n        /* \"#utility.yul\":8067:8068   */\n      dup3\n        /* \"#utility.yul\":8064:8065   */\n      dup3\n        /* \"#utility.yul\":8060:8069   */\n      add\n        /* \"#utility.yul\":8053:8069   */\n      swap1\n      pop\n        /* \"#utility.yul\":7770:8075   */\n      swap3\n      swap2\n      pop\n      pop\n      jump\t// out\n        /* \"#utility.yul\":8081:8272   */\n    tag_82:\n        /* \"#utility.yul\":8121:8125   */\n      0x00\n        /* \"#utility.yul\":8141:8161   */\n      tag_232\n        /* \"#utility.yul\":8159:8160   */\n      dup3\n        /* \"#utility.yul\":8141:8161   */\n      tag_202\n      jump\t// in\n    tag_232:\n        /* \"#utility.yul\":8136:8161   */\n      swap2\n      pop\n        /* \"#utility.yul\":8175:8195   */\n      tag_233\n        /* \"#utility.yul\":8193:8194   */\n      dup4\n        /* \"#utility.yul\":8175:8195   */\n      tag_202\n      jump\t// in\n    tag_233:\n        /* \"#utility.yul\":8170:8195   */\n      swap3\n      pop\n        /* \"#utility.yul\":8214:8215   */\n      dup3\n        /* \"#utility.yul\":8211:8212   */\n      dup3\n        /* \"#utility.yul\":8208:8216   */\n      lt\n        /* \"#utility.yul\":8205:8239   */\n      iszero\n      tag_234\n      jumpi\n        /* \"#utility.yul\":8219:8237   */\n      tag_235\n      tag_230\n      jump\t// in\n    tag_235:\n        /* \"#utility.yul\":8205:8239   */\n    tag_234:\n        /* \"#utility.yul\":8264:8265   */\n      dup3\n        /* \"#utility.yul\":8261:8262   */\n      dup3\n        /* \"#utility.yul\":8257:8266   */\n      sub\n        /* \"#utility.yul\":8249:8266   */\n      swap1\n      pop\n        /* \"#utility.yul\":8081:8272   */\n      swap3\n      swap2\n      pop\n      pop\n      jump\t// out\n        /* \"#utility.yul\":8278:8374   */\n    tag_236:\n        /* \"#utility.yul\":8315:8322   */\n      0x00\n        /* \"#utility.yul\":8344:8368   */\n      tag_238\n        /* \"#utility.yul\":8362:8367   */\n      dup3\n        /* \"#utility.yul\":8344:8368   */\n      tag_239\n      jump\t// in\n    tag_238:\n        /* \"#utility.yul\":8333:8368   */\n      swap1\n      pop\n        /* \"#utility.yul\":8278:8374   */\n      swap2\n      swap1\n      pop\n      jump\t// out\n        /* \"#utility.yul\":8380:8506   */\n    tag_239:\n        /* \"#utility.yul\":8417:8424   */\n      0x00\n        /* \"#utility.yul\":8457:8499   */\n      0xffffffffffffffffffffffffffffffffffffffff\n        /* \"#utility.yul\":8450:8455   */\n      dup3\n        /* \"#utility.yul\":8446:8500   */\n      and\n        /* \"#utility.yul\":8435:8500   */\n      swap1\n      pop\n        /* \"#utility.yul\":8380:8506   */\n      swap2\n      swap1\n      pop\n      jump\t// out\n        /* \"#utility.yul\":8512:8589   */\n    tag_202:\n        /* \"#utility.yul\":8549:8556   */\n      0x00\n        /* \"#utility.yul\":8578:8583   */\n      dup2\n        /* \"#utility.yul\":8567:8583   */\n      swap1\n      pop\n        /* \"#utility.yul\":8512:8589   */\n      swap2\n      swap1\n      pop\n      jump\t// out\n        /* \"#utility.yul\":8595:8681   */\n    tag_206:\n        /* \"#utility.yul\":8630:8637   */\n      0x00\n        /* \"#utility.yul\":8670:8674   */\n      0xff\n        /* \"#utility.yul\":8663:8668   */\n      dup3\n        /* \"#utility.yul\":8659:8675   */\n      and\n        /* \"#utility.yul\":8648:8675   */\n      swap1\n      pop\n        /* \"#utility.yul\":8595:8681   */\n      swap2\n      swap1\n      pop\n      jump\t// out\n        /* \"#utility.yul\":8687:8994   */\n    tag_176:\n        /* \"#utility.yul\":8755:8756   */\n      0x00\n        /* \"#utility.yul\":8765:8878   */\n    tag_244:\n        /* \"#utility.yul\":8779:8785   */\n      dup4\n        /* \"#utility.yul\":8776:8777   */\n      dup2\n        /* \"#utility.yul\":8773:8786   */\n      lt\n        /* \"#utility.yul\":8765:8878   */\n      iszero\n      tag_246\n      jumpi\n        /* \"#utility.yul\":8864:8865   */\n      dup1\n        /* \"#utility.yul\":8859:8862   */\n      dup3\n        /* \"#utility.yul\":8855:8866   */\n      add\n        /* \"#utility.yul\":8849:8867   */\n      mload\n        /* \"#utility.yul\":8845:8846   */\n      dup2\n        /* \"#utility.yul\":8840:8843   */\n      dup5\n        /* \"#utility.yul\":8836:8847   */\n      add\n        /* \"#utility.yul\":8829:8868   */\n      mstore\n        /* \"#utility.yul\":8801:8803   */\n      0x20\n        /* \"#utility.yul\":8798:8799   */\n      dup2\n        /* \"#utility.yul\":8794:8804   */\n      add\n        /* \"#utility.yul\":8789:8804   */\n      swap1\n      pop\n        /* \"#utility.yul\":8765:8878   */\n      jump(tag_244)\n    tag_246:\n        /* \"#utility.yul\":8896:8902   */\n      dup4\n        /* \"#utility.yul\":8893:8894   */\n      dup2\n        /* \"#utility.yul\":8890:8903   */\n      gt\n        /* \"#utility.yul\":8887:8988   */\n      iszero\n      tag_247\n      jumpi\n        /* \"#utility.yul\":8976:8977   */\n      0x00\n        /* \"#utility.yul\":8967:8973   */\n      dup5\n        /* \"#utility.yul\":8962:8965   */\n      dup5\n        /* \"#utility.yul\":8958:8974   */\n      add\n        /* \"#utility.yul\":8951:8978   */\n      mstore\n        /* \"#utility.yul\":8887:8988   */\n    tag_247:\n        /* \"#utility.yul\":8736:8994   */\n      pop\n        /* \"#utility.yul\":8687:8994   */\n      pop\n      pop\n      pop\n      jump\t// out\n        /* \"#utility.yul\":9000:9320   */\n    tag_63:\n        /* \"#utility.yul\":9044:9050   */\n      0x00\n        /* \"#utility.yul\":9081:9082   */\n      0x02\n        /* \"#utility.yul\":9075:9079   */\n      dup3\n        /* \"#utility.yul\":9071:9083   */\n      div\n        /* \"#utility.yul\":9061:9083   */\n      swap1\n      pop\n        /* \"#utility.yul\":9128:9129   */\n      0x01\n        /* \"#utility.yul\":9122:9126   */\n      dup3\n        /* \"#utility.yul\":9118:9130   */\n      and\n        /* \"#utility.yul\":9149:9167   */\n      dup1\n        /* \"#utility.yul\":9139:9220   */\n      tag_249\n      jumpi\n        /* \"#utility.yul\":9205:9209   */\n      0x7f\n        /* \"#utility.yul\":9197:9203   */\n      dup3\n        /* \"#utility.yul\":9193:9210   */\n      and\n        /* \"#utility.yul\":9183:9210   */\n      swap2\n      pop\n        /* \"#utility.yul\":9139:9220   */\n    tag_249:\n        /* \"#utility.yul\":9267:9269   */\n      0x20\n        /* \"#utility.yul\":9259:9265   */\n      dup3\n        /* \"#utility.yul\":9256:9270   */\n      lt\n        /* \"#utility.yul\":9236:9254   */\n      dup2\n        /* \"#utility.yul\":9233:9271   */\n      eq\n        /* \"#utility.yul\":9230:9314   */\n      iszero\n      tag_250\n      jumpi\n        /* \"#utility.yul\":9286:9304   */\n      tag_251\n      tag_252\n      jump\t// in\n    tag_251:\n        /* \"#utility.yul\":9230:9314   */\n    tag_250:\n        /* \"#utility.yul\":9051:9320   */\n      pop\n        /* \"#utility.yul\":9000:9320   */\n      swap2\n      swap1\n      pop\n      jump\t// out\n        /* \"#utility.yul\":9326:9506   */\n    tag_73:\n        /* \"#utility.yul\":9374:9451   */\n      0x4e487b7100000000000000000000000000000000000000000000000000000000\n        /* \"#utility.yul\":9371:9372   */\n      0x00\n        /* \"#utility.yul\":9364:9452   */\n      mstore\n        /* \"#utility.yul\":9471:9475   */\n      0x01\n        /* \"#utility.yul\":9468:9469   */\n      0x04\n        /* \"#utility.yul\":9461:9476   */\n      mstore\n        /* \"#utility.yul\":9495:9499   */\n      0x24\n        /* \"#utility.yul\":9492:9493   */\n      0x00\n        /* \"#utility.yul\":9485:9500   */\n      revert\n        /* \"#utility.yul\":9512:9692   */\n    tag_230:\n        /* \"#utility.yul\":9560:9637   */\n      0x4e487b7100000000000000000000000000000000000000000000000000000000\n        /* \"#utility.yul\":9557:9558   */\n      0x00\n        /* \"#utility.yul\":9550:9638   */\n      mstore\n        /* \"#utility.yul\":9657:9661   */\n      0x11\n        /* \"#utility.yul\":9654:9655   */\n      0x04\n        /* \"#utility.yul\":9647:9662   */\n      mstore\n        /* \"#utility.yul\":9681:9685   */\n      0x24\n        /* \"#utility.yul\":9678:9679   */\n      0x00\n        /* \"#utility.yul\":9671:9686   */\n      revert\n        /* \"#utility.yul\":9698:9878   */\n    tag_252:\n        /* \"#utility.yul\":9746:9823   */\n      0x4e487b7100000000000000000000000000000000000000000000000000000000\n        /* \"#utility.yul\":9743:9744   */\n      0x00\n        /* \"#utility.yul\":9736:9824   */\n      mstore\n        /* \"#utility.yul\":9843:9847   */\n      0x22\n        /* \"#utility.yul\":9840:9841   */\n      0x04\n        /* \"#utility.yul\":9833:9848   */\n      mstore\n        /* \"#utility.yul\":9867:9871   */\n      0x24\n        /* \"#utility.yul\":9864:9865   */\n      0x00\n        /* \"#utility.yul\":9857:9872   */\n      revert\n        /* \"#utility.yul\":10007:10124   */\n    tag_145:\n        /* \"#utility.yul\":10116:10117   */\n      0x00\n        /* \"#utility.yul\":10113:10114   */\n      dup1\n        /* \"#utility.yul\":10106:10118   */\n      revert\n        /* \"#utility.yul\":10130:10232   */\n    tag_178:\n        /* \"#utility.yul\":10171:10177   */\n      0x00\n        /* \"#utility.yul\":10222:10224   */\n      0x1f\n        /* \"#utility.yul\":10218:10225   */\n      not\n        /* \"#utility.yul\":10213:10215   */\n      0x1f\n        /* \"#utility.yul\":10206:10211   */\n      dup4\n        /* \"#utility.yul\":10202:10216   */\n      add\n        /* \"#utility.yul\":10198:10226   */\n      and\n        /* \"#utility.yul\":10188:10226   */\n      swap1\n      pop\n        /* \"#utility.yul\":10130:10232   */\n      swap2\n      swap1\n      pop\n      jump\t// out\n        /* \"#utility.yul\":10238:10404   */\n    tag_183:\n        /* \"#utility.yul\":10378:10396   */\n      0x42616c616e6365203c20616d6f756e7400000000000000000000000000000000\n        /* \"#utility.yul\":10374:10375   */\n      0x00\n        /* \"#utility.yul\":10366:10372   */\n      dup3\n        /* \"#utility.yul\":10362:10376   */\n      add\n        /* \"#utility.yul\":10355:10397   */\n      mstore\n        /* \"#utility.yul\":10238:10404   */\n      pop\n      jump\t// out\n        /* \"#utility.yul\":10410:10571   */\n    tag_188:\n        /* \"#utility.yul\":10550:10563   */\n      0x416d6f756e74203c3d2030000000000000000000000000000000000000000000\n        /* \"#utility.yul\":10546:10547   */\n      0x00\n        /* \"#utility.yul\":10538:10544   */\n      dup3\n        /* \"#utility.yul\":10534:10548   */\n      add\n        /* \"#utility.yul\":10527:10564   */\n      mstore\n        /* \"#utility.yul\":10410:10571   */\n      pop\n      jump\t// out\n        /* \"#utility.yul\":10577:10741   */\n    tag_193:\n        /* \"#utility.yul\":10717:10733   */\n      0x446f6e277420616c6c6f7765642e000000000000000000000000000000000000\n        /* \"#utility.yul\":10713:10714   */\n      0x00\n        /* \"#utility.yul\":10705:10711   */\n      dup3\n        /* \"#utility.yul\":10701:10715   */\n      add\n        /* \"#utility.yul\":10694:10734   */\n      mstore\n        /* \"#utility.yul\":10577:10741   */\n      pop\n      jump\t// out\n        /* \"#utility.yul\":10747:10928   */\n    tag_198:\n        /* \"#utility.yul\":10887:10920   */\n      0x45524332303a206d696e7420746f20746865207a65726f206164647265737300\n        /* \"#utility.yul\":10883:10884   */\n      0x00\n        /* \"#utility.yul\":10875:10881   */\n      dup3\n        /* \"#utility.yul\":10871:10885   */\n      add\n        /* \"#utility.yul\":10864:10921   */\n      mstore\n        /* \"#utility.yul\":10747:10928   */\n      pop\n      jump\t// out\n        /* \"#utility.yul\":10934:11056   */\n    tag_137:\n        /* \"#utility.yul\":11007:11031   */\n      tag_265\n        /* \"#utility.yul\":11025:11030   */\n      dup2\n        /* \"#utility.yul\":11007:11031   */\n      tag_236\n      jump\t// in\n    tag_265:\n        /* \"#utility.yul\":11000:11005   */\n      dup2\n        /* \"#utility.yul\":10997:11032   */\n      eq\n        /* \"#utility.yul\":10987:11050   */\n      tag_266\n      jumpi\n        /* \"#utility.yul\":11046:11047   */\n      0x00\n        /* \"#utility.yul\":11043:11044   */\n      dup1\n        /* \"#utility.yul\":11036:11048   */\n      revert\n        /* \"#utility.yul\":10987:11050   */\n    tag_266:\n        /* \"#utility.yul\":10934:11056   */\n      pop\n      jump\t// out\n        /* \"#utility.yul\":11062:11184   */\n    tag_141:\n        /* \"#utility.yul\":11135:11159   */\n      tag_268\n        /* \"#utility.yul\":11153:11158   */\n      dup2\n        /* \"#utility.yul\":11135:11159   */\n      tag_202\n      jump\t// in\n    tag_268:\n        /* \"#utility.yul\":11128:11133   */\n      dup2\n        /* \"#utility.yul\":11125:11160   */\n      eq\n        /* \"#utility.yul\":11115:11178   */\n      tag_269\n      jumpi\n        /* \"#utility.yul\":11174:11175   */\n      0x00\n        /* \"#utility.yul\":11171:11172   */\n      dup1\n        /* \"#utility.yul\":11164:11176   */\n      revert\n        /* \"#utility.yul\":11115:11178   */\n    tag_269:\n        /* \"#utility.yul\":11062:11184   */\n      pop\n      jump\t// out\n\n    auxdata: 0xa2646970667358221220bc20cf95afbfa2f876d9771f726b84b960e6d2f24a48a0e171ef3f94b02433ef64736f6c63430008070033\n}\n",
				"bytecode": {
					"linkReferences": {},
					"object": "608060405234801561001057600080fd5b506113d3806100206000396000f3fe608060405234801561001057600080fd5b50600436106100b45760003560e01c806340c10f191161007157806340c10f191461016757806354fd4d501461018357806370a08231146101a157806395d89b41146101d1578063c4e41b22146101ef578063dd62ed3e1461020d576100b4565b806306fdde03146100b9578063095bcdb6146100d7578063095ea7b3146100f357806318160ddd1461010f57806323b872dd1461012d578063313ce56714610149575b600080fd5b6100c161023d565b6040516100ce9190610ffc565b60405180910390f35b6100f160048036038101906100ec9190610ec6565b6102cb565b005b61010d60048036038101906101089190610e86565b6104c2565b005b6101176105ac565b604051610124919061109e565b60405180910390f35b61014760048036038101906101429190610e33565b6105b2565b005b6101516109d9565b60405161015e91906110b9565b60405180910390f35b610181600480360381019061017c9190610e86565b6109ec565b005b61018b610b4c565b6040516101989190610ffc565b60405180910390f35b6101bb60048036038101906101b69190610dc6565b610bda565b6040516101c8919061109e565b60405180910390f35b6101d9610c23565b6040516101e69190610ffc565b60405180910390f35b6101f7610cb1565b604051610204919061109e565b60405180910390f35b61022760048036038101906102229190610df3565b610cba565b604051610234919061109e565b60405180910390f35b6001805461024a906111f6565b80601f0160208091040260200160405190810160405280929190818152602001828054610276906111f6565b80156102c35780601f10610298576101008083540402835291602001916102c3565b820191906000526020600020905b8154815290600101906020018083116102a657829003601f168201915b505050505081565b60406004816102da91906110f0565b6000369050146102ed576102ec611228565b5b60008211610330576040517f08c379a00000000000000000000000000000000000000000000000000000000081526004016103279061103e565b60405180910390fd5b81831015610373576040517f08c379a000000000000000000000000000000000000000000000000000000000815260040161036a9061101e565b60405180910390fd5b818361037f9190611146565b600560003373ffffffffffffffffffffffffffffffffffffffff1673ffffffffffffffffffffffffffffffffffffffff1681526020019081526020016000208190555061041482600560008773ffffffffffffffffffffffffffffffffffffffff1673ffffffffffffffffffffffffffffffffffffffff16815260200190815260200160002054610d4190919063ffffffff16565b600560008673ffffffffffffffffffffffffffffffffffffffff1673ffffffffffffffffffffffffffffffffffffffff168152602001908152602001600020819055508373ffffffffffffffffffffffffffffffffffffffff163373ffffffffffffffffffffffffffffffffffffffff167fddf252ad1be2c89b69c2b068fc378daa952ba7f163c4a11628f55a4df523b3ef846040516104b4919061109e565b60405180910390a350505050565b80600660003373ffffffffffffffffffffffffffffffffffffffff1673ffffffffffffffffffffffffffffffffffffffff16815260200190815260200160002060008473ffffffffffffffffffffffffffffffffffffffff1673ffffffffffffffffffffffffffffffffffffffff168152602001908152602001600020819055508173ffffffffffffffffffffffffffffffffffffffff163373ffffffffffffffffffffffffffffffffffffffff167f8c5be1e5ebec7d5bd14f71427d1e84f3dd0314c0f7b2291e5b200ac8c7c3b925836040516105a0919061109e565b60405180910390a35050565b60005481565b600081116105f5576040517f08c379a00000000000000000000000000000000000000000000000000000000081526004016105ec9061103e565b60405180910390fd5b80600560008573ffffffffffffffffffffffffffffffffffffffff1673ffffffffffffffffffffffffffffffffffffffff168152602001908152602001600020541015610677576040517f08c379a000000000000000000000000000000000000000000000000000000000815260040161066e9061101e565b60405180910390fd5b80600660008573ffffffffffffffffffffffffffffffffffffffff1673ffffffffffffffffffffffffffffffffffffffff16815260200190815260200160002060003373ffffffffffffffffffffffffffffffffffffffff1673ffffffffffffffffffffffffffffffffffffffff168152602001908152602001600020541015610736576040517f08c379a000000000000000000000000000000000000000000000000000000000815260040161072d9061105e565b60405180910390fd5b61078881600560008573ffffffffffffffffffffffffffffffffffffffff1673ffffffffffffffffffffffffffffffffffffffff16815260200190815260200160002054610d4190919063ffffffff16565b600560008473ffffffffffffffffffffffffffffffffffffffff1673ffffffffffffffffffffffffffffffffffffffff1681526020019081526020016000208190555061081d81600560008673ffffffffffffffffffffffffffffffffffffffff1673ffffffffffffffffffffffffffffffffffffffff16815260200190815260200160002054610d6990919063ffffffff16565b600560008573ffffffffffffffffffffffffffffffffffffffff1673ffffffffffffffffffffffffffffffffffffffff168152602001908152602001600020819055506108ef81600660008673ffffffffffffffffffffffffffffffffffffffff1673ffffffffffffffffffffffffffffffffffffffff16815260200190815260200160002060003373ffffffffffffffffffffffffffffffffffffffff1673ffffffffffffffffffffffffffffffffffffffff16815260200190815260200160002054610d6990919063ffffffff16565b600660008573ffffffffffffffffffffffffffffffffffffffff1673ffffffffffffffffffffffffffffffffffffffff16815260200190815260200160002060003373ffffffffffffffffffffffffffffffffffffffff1673ffffffffffffffffffffffffffffffffffffffff168152602001908152602001600020819055508173ffffffffffffffffffffffffffffffffffffffff168373ffffffffffffffffffffffffffffffffffffffff167fddf252ad1be2c89b69c2b068fc378daa952ba7f163c4a11628f55a4df523b3ef836040516109cc919061109e565b60405180910390a3505050565b600260009054906101000a900460ff1681565b600073ffffffffffffffffffffffffffffffffffffffff168273ffffffffffffffffffffffffffffffffffffffff161415610a5c576040517f08c379a0000000000000000000000000000000000000000000000000000000008152600401610a539061107e565b60405180910390fd5b610a6860008383610d92565b80600080828254610a7991906110f0565b9250508190555080600560008473ffffffffffffffffffffffffffffffffffffffff1673ffffffffffffffffffffffffffffffffffffffff1681526020019081526020016000206000828254610acf91906110f0565b925050819055508173ffffffffffffffffffffffffffffffffffffffff16600073ffffffffffffffffffffffffffffffffffffffff167fddf252ad1be2c89b69c2b068fc378daa952ba7f163c4a11628f55a4df523b3ef83604051610b34919061109e565b60405180910390a3610b4860008383610d97565b5050565b60048054610b59906111f6565b80601f0160208091040260200160405190810160405280929190818152602001828054610b85906111f6565b8015610bd25780601f10610ba757610100808354040283529160200191610bd2565b820191906000526020600020905b815481529060010190602001808311610bb557829003601f168201915b505050505081565b6000600560008373ffffffffffffffffffffffffffffffffffffffff1673ffffffffffffffffffffffffffffffffffffffff168152602001908152602001600020549050919050565b60038054610c30906111f6565b80601f0160208091040260200160405190810160405280929190818152602001828054610c5c906111f6565b8015610ca95780601f10610c7e57610100808354040283529160200191610ca9565b820191906000526020600020905b815481529060010190602001808311610c8c57829003601f168201915b505050505081565b60008054905090565b6000600660008373ffffffffffffffffffffffffffffffffffffffff1673ffffffffffffffffffffffffffffffffffffffff16815260200190815260200160002060008473ffffffffffffffffffffffffffffffffffffffff1673ffffffffffffffffffffffffffffffffffffffff16815260200190815260200160002054905092915050565b6000808284610d5091906110f0565b905083811015610d5f57600080fd5b8091505092915050565b600082821115610d7857600080fd5b60008284610d869190611146565b90508091505092915050565b505050565b505050565b600081359050610dab8161136f565b92915050565b600081359050610dc081611386565b92915050565b600060208284031215610ddc57610ddb6112b5565b5b6000610dea84828501610d9c565b91505092915050565b60008060408385031215610e0a57610e096112b5565b5b6000610e1885828601610d9c565b9250506020610e2985828601610d9c565b9150509250929050565b600080600060608486031215610e4c57610e4b6112b5565b5b6000610e5a86828701610d9c565b9350506020610e6b86828701610d9c565b9250506040610e7c86828701610db1565b9150509250925092565b60008060408385031215610e9d57610e9c6112b5565b5b6000610eab85828601610d9c565b9250506020610ebc85828601610db1565b9150509250929050565b600080600060608486031215610edf57610ede6112b5565b5b6000610eed86828701610d9c565b9350506020610efe86828701610db1565b9250506040610f0f86828701610db1565b9150509250925092565b6000610f24826110d4565b610f2e81856110df565b9350610f3e8185602086016111c3565b610f47816112ba565b840191505092915050565b6000610f5f6010836110df565b9150610f6a826112cb565b602082019050919050565b6000610f82600b836110df565b9150610f8d826112f4565b602082019050919050565b6000610fa5600e836110df565b9150610fb08261131d565b602082019050919050565b6000610fc8601f836110df565b9150610fd382611346565b602082019050919050565b610fe7816111ac565b82525050565b610ff6816111b6565b82525050565b600060208201905081810360008301526110168184610f19565b905092915050565b6000602082019050818103600083015261103781610f52565b9050919050565b6000602082019050818103600083015261105781610f75565b9050919050565b6000602082019050818103600083015261107781610f98565b9050919050565b6000602082019050818103600083015261109781610fbb565b9050919050565b60006020820190506110b36000830184610fde565b92915050565b60006020820190506110ce6000830184610fed565b92915050565b600081519050919050565b600082825260208201905092915050565b60006110fb826111ac565b9150611106836111ac565b9250827fffffffffffffffffffffffffffffffffffffffffffffffffffffffffffffffff0382111561113b5761113a611257565b5b828201905092915050565b6000611151826111ac565b915061115c836111ac565b92508282101561116f5761116e611257565b5b828203905092915050565b60006111858261118c565b9050919050565b600073ffffffffffffffffffffffffffffffffffffffff82169050919050565b6000819050919050565b600060ff82169050919050565b60005b838110156111e15780820151818401526020810190506111c6565b838111156111f0576000848401525b50505050565b6000600282049050600182168061120e57607f821691505b6020821081141561122257611221611286565b5b50919050565b7f4e487b7100000000000000000000000000000000000000000000000000000000600052600160045260246000fd5b7f4e487b7100000000000000000000000000000000000000000000000000000000600052601160045260246000fd5b7f4e487b7100000000000000000000000000000000000000000000000000000000600052602260045260246000fd5b600080fd5b6000601f19601f8301169050919050565b7f42616c616e6365203c20616d6f756e7400000000000000000000000000000000600082015250565b7f416d6f756e74203c3d2030000000000000000000000000000000000000000000600082015250565b7f446f6e277420616c6c6f7765642e000000000000000000000000000000000000600082015250565b7f45524332303a206d696e7420746f20746865207a65726f206164647265737300600082015250565b6113788161117a565b811461138357600080fd5b50565b61138f816111ac565b811461139a57600080fd5b5056fea2646970667358221220bc20cf95afbfa2f876d9771f726b84b960e6d2f24a48a0e171ef3f94b02433ef64736f6c63430008070033",
					"opcodes": "PUSH1 0x80 PUSH1 0x40 MSTORE CALLVALUE DUP1 ISZERO PUSH2 0x10 JUMPI PUSH1 0x0 DUP1 REVERT JUMPDEST POP PUSH2 0x13D3 DUP1 PUSH2 0x20 PUSH1 0x0 CODECOPY PUSH1 0x0 RETURN INVALID PUSH1 0x80 PUSH1 0x40 MSTORE CALLVALUE DUP1 ISZERO PUSH2 0x10 JUMPI PUSH1 0x0 DUP1 REVERT JUMPDEST POP PUSH1 0x4 CALLDATASIZE LT PUSH2 0xB4 JUMPI PUSH1 0x0 CALLDATALOAD PUSH1 0xE0 SHR DUP1 PUSH4 0x40C10F19 GT PUSH2 0x71 JUMPI DUP1 PUSH4 0x40C10F19 EQ PUSH2 0x167 JUMPI DUP1 PUSH4 0x54FD4D50 EQ PUSH2 0x183 JUMPI DUP1 PUSH4 0x70A08231 EQ PUSH2 0x1A1 JUMPI DUP1 PUSH4 0x95D89B41 EQ PUSH2 0x1D1 JUMPI DUP1 PUSH4 0xC4E41B22 EQ PUSH2 0x1EF JUMPI DUP1 PUSH4 0xDD62ED3E EQ PUSH2 0x20D JUMPI PUSH2 0xB4 JUMP JUMPDEST DUP1 PUSH4 0x6FDDE03 EQ PUSH2 0xB9 JUMPI DUP1 PUSH4 0x95BCDB6 EQ PUSH2 0xD7 JUMPI DUP1 PUSH4 0x95EA7B3 EQ PUSH2 0xF3 JUMPI DUP1 PUSH4 0x18160DDD EQ PUSH2 0x10F JUMPI DUP1 PUSH4 0x23B872DD EQ PUSH2 0x12D JUMPI DUP1 PUSH4 0x313CE567 EQ PUSH2 0x149 JUMPI JUMPDEST PUSH1 0x0 DUP1 REVERT JUMPDEST PUSH2 0xC1 PUSH2 0x23D JUMP JUMPDEST PUSH1 0x40 MLOAD PUSH2 0xCE SWAP2 SWAP1 PUSH2 0xFFC JUMP JUMPDEST PUSH1 0x40 MLOAD DUP1 SWAP2 SUB SWAP1 RETURN JUMPDEST PUSH2 0xF1 PUSH1 0x4 DUP1 CALLDATASIZE SUB DUP2 ADD SWAP1 PUSH2 0xEC SWAP2 SWAP1 PUSH2 0xEC6 JUMP JUMPDEST PUSH2 0x2CB JUMP JUMPDEST STOP JUMPDEST PUSH2 0x10D PUSH1 0x4 DUP1 CALLDATASIZE SUB DUP2 ADD SWAP1 PUSH2 0x108 SWAP2 SWAP1 PUSH2 0xE86 JUMP JUMPDEST PUSH2 0x4C2 JUMP JUMPDEST STOP JUMPDEST PUSH2 0x117 PUSH2 0x5AC JUMP JUMPDEST PUSH1 0x40 MLOAD PUSH2 0x124 SWAP2 SWAP1 PUSH2 0x109E JUMP JUMPDEST PUSH1 0x40 MLOAD DUP1 SWAP2 SUB SWAP1 RETURN JUMPDEST PUSH2 0x147 PUSH1 0x4 DUP1 CALLDATASIZE SUB DUP2 ADD SWAP1 PUSH2 0x142 SWAP2 SWAP1 PUSH2 0xE33 JUMP JUMPDEST PUSH2 0x5B2 JUMP JUMPDEST STOP JUMPDEST PUSH2 0x151 PUSH2 0x9D9 JUMP JUMPDEST PUSH1 0x40 MLOAD PUSH2 0x15E SWAP2 SWAP1 PUSH2 0x10B9 JUMP JUMPDEST PUSH1 0x40 MLOAD DUP1 SWAP2 SUB SWAP1 RETURN JUMPDEST PUSH2 0x181 PUSH1 0x4 DUP1 CALLDATASIZE SUB DUP2 ADD SWAP1 PUSH2 0x17C SWAP2 SWAP1 PUSH2 0xE86 JUMP JUMPDEST PUSH2 0x9EC JUMP JUMPDEST STOP JUMPDEST PUSH2 0x18B PUSH2 0xB4C JUMP JUMPDEST PUSH1 0x40 MLOAD PUSH2 0x198 SWAP2 SWAP1 PUSH2 0xFFC JUMP JUMPDEST PUSH1 0x40 MLOAD DUP1 SWAP2 SUB SWAP1 RETURN JUMPDEST PUSH2 0x1BB PUSH1 0x4 DUP1 CALLDATASIZE SUB DUP2 ADD SWAP1 PUSH2 0x1B6 SWAP2 SWAP1 PUSH2 0xDC6 JUMP JUMPDEST PUSH2 0xBDA JUMP JUMPDEST PUSH1 0x40 MLOAD PUSH2 0x1C8 SWAP2 SWAP1 PUSH2 0x109E JUMP JUMPDEST PUSH1 0x40 MLOAD DUP1 SWAP2 SUB SWAP1 RETURN JUMPDEST PUSH2 0x1D9 PUSH2 0xC23 JUMP JUMPDEST PUSH1 0x40 MLOAD PUSH2 0x1E6 SWAP2 SWAP1 PUSH2 0xFFC JUMP JUMPDEST PUSH1 0x40 MLOAD DUP1 SWAP2 SUB SWAP1 RETURN JUMPDEST PUSH2 0x1F7 PUSH2 0xCB1 JUMP JUMPDEST PUSH1 0x40 MLOAD PUSH2 0x204 SWAP2 SWAP1 PUSH2 0x109E JUMP JUMPDEST PUSH1 0x40 MLOAD DUP1 SWAP2 SUB SWAP1 RETURN JUMPDEST PUSH2 0x227 PUSH1 0x4 DUP1 CALLDATASIZE SUB DUP2 ADD SWAP1 PUSH2 0x222 SWAP2 SWAP1 PUSH2 0xDF3 JUMP JUMPDEST PUSH2 0xCBA JUMP JUMPDEST PUSH1 0x40 MLOAD PUSH2 0x234 SWAP2 SWAP1 PUSH2 0x109E JUMP JUMPDEST PUSH1 0x40 MLOAD DUP1 SWAP2 SUB SWAP1 RETURN JUMPDEST PUSH1 0x1 DUP1 SLOAD PUSH2 0x24A SWAP1 PUSH2 0x11F6 JUMP JUMPDEST DUP1 PUSH1 0x1F ADD PUSH1 0x20 DUP1 SWAP2 DIV MUL PUSH1 0x20 ADD PUSH1 0x40 MLOAD SWAP1 DUP2 ADD PUSH1 0x40 MSTORE DUP1 SWAP3 SWAP2 SWAP1 DUP2 DUP2 MSTORE PUSH1 0x20 ADD DUP3 DUP1 SLOAD PUSH2 0x276 SWAP1 PUSH2 0x11F6 JUMP JUMPDEST DUP1 ISZERO PUSH2 0x2C3 JUMPI DUP1 PUSH1 0x1F LT PUSH2 0x298 JUMPI PUSH2 0x100 DUP1 DUP4 SLOAD DIV MUL DUP4 MSTORE SWAP2 PUSH1 0x20 ADD SWAP2 PUSH2 0x2C3 JUMP JUMPDEST DUP3 ADD SWAP2 SWAP1 PUSH1 0x0 MSTORE PUSH1 0x20 PUSH1 0x0 KECCAK256 SWAP1 JUMPDEST DUP2 SLOAD DUP2 MSTORE SWAP1 PUSH1 0x1 ADD SWAP1 PUSH1 0x20 ADD DUP1 DUP4 GT PUSH2 0x2A6 JUMPI DUP3 SWAP1 SUB PUSH1 0x1F AND DUP3 ADD SWAP2 JUMPDEST POP POP POP POP POP DUP2 JUMP JUMPDEST PUSH1 0x40 PUSH1 0x4 DUP2 PUSH2 0x2DA SWAP2 SWAP1 PUSH2 0x10F0 JUMP JUMPDEST PUSH1 0x0 CALLDATASIZE SWAP1 POP EQ PUSH2 0x2ED JUMPI PUSH2 0x2EC PUSH2 0x1228 JUMP JUMPDEST JUMPDEST PUSH1 0x0 DUP3 GT PUSH2 0x330 JUMPI PUSH1 0x40 MLOAD PUSH32 0x8C379A000000000000000000000000000000000000000000000000000000000 DUP2 MSTORE PUSH1 0x4 ADD PUSH2 0x327 SWAP1 PUSH2 0x103E JUMP JUMPDEST PUSH1 0x40 MLOAD DUP1 SWAP2 SUB SWAP1 REVERT JUMPDEST DUP2 DUP4 LT ISZERO PUSH2 0x373 JUMPI PUSH1 0x40 MLOAD PUSH32 0x8C379A000000000000000000000000000000000000000000000000000000000 DUP2 MSTORE PUSH1 0x4 ADD PUSH2 0x36A SWAP1 PUSH2 0x101E JUMP JUMPDEST PUSH1 0x40 MLOAD DUP1 SWAP2 SUB SWAP1 REVERT JUMPDEST DUP2 DUP4 PUSH2 0x37F SWAP2 SWAP1 PUSH2 0x1146 JUMP JUMPDEST PUSH1 0x5 PUSH1 0x0 CALLER PUSH20 0xFFFFFFFFFFFFFFFFFFFFFFFFFFFFFFFFFFFFFFFF AND PUSH20 0xFFFFFFFFFFFFFFFFFFFFFFFFFFFFFFFFFFFFFFFF AND DUP2 MSTORE PUSH1 0x20 ADD SWAP1 DUP2 MSTORE PUSH1 0x20 ADD PUSH1 0x0 KECCAK256 DUP2 SWAP1 SSTORE POP PUSH2 0x414 DUP3 PUSH1 0x5 PUSH1 0x0 DUP8 PUSH20 0xFFFFFFFFFFFFFFFFFFFFFFFFFFFFFFFFFFFFFFFF AND PUSH20 0xFFFFFFFFFFFFFFFFFFFFFFFFFFFFFFFFFFFFFFFF AND DUP2 MSTORE PUSH1 0x20 ADD SWAP1 DUP2 MSTORE PUSH1 0x20 ADD PUSH1 0x0 KECCAK256 SLOAD PUSH2 0xD41 SWAP1 SWAP2 SWAP1 PUSH4 0xFFFFFFFF AND JUMP JUMPDEST PUSH1 0x5 PUSH1 0x0 DUP7 PUSH20 0xFFFFFFFFFFFFFFFFFFFFFFFFFFFFFFFFFFFFFFFF AND PUSH20 0xFFFFFFFFFFFFFFFFFFFFFFFFFFFFFFFFFFFFFFFF AND DUP2 MSTORE PUSH1 0x20 ADD SWAP1 DUP2 MSTORE PUSH1 0x20 ADD PUSH1 0x0 KECCAK256 DUP2 SWAP1 SSTORE POP DUP4 PUSH20 0xFFFFFFFFFFFFFFFFFFFFFFFFFFFFFFFFFFFFFFFF AND CALLER PUSH20 0xFFFFFFFFFFFFFFFFFFFFFFFFFFFFFFFFFFFFFFFF AND PUSH32 0xDDF252AD1BE2C89B69C2B068FC378DAA952BA7F163C4A11628F55A4DF523B3EF DUP5 PUSH1 0x40 MLOAD PUSH2 0x4B4 SWAP2 SWAP1 PUSH2 0x109E JUMP JUMPDEST PUSH1 0x40 MLOAD DUP1 SWAP2 SUB SWAP1 LOG3 POP POP POP POP JUMP JUMPDEST DUP1 PUSH1 0x6 PUSH1 0x0 CALLER PUSH20 0xFFFFFFFFFFFFFFFFFFFFFFFFFFFFFFFFFFFFFFFF AND PUSH20 0xFFFFFFFFFFFFFFFFFFFFFFFFFFFFFFFFFFFFFFFF AND DUP2 MSTORE PUSH1 0x20 ADD SWAP1 DUP2 MSTORE PUSH1 0x20 ADD PUSH1 0x0 KECCAK256 PUSH1 0x0 DUP5 PUSH20 0xFFFFFFFFFFFFFFFFFFFFFFFFFFFFFFFFFFFFFFFF AND PUSH20 0xFFFFFFFFFFFFFFFFFFFFFFFFFFFFFFFFFFFFFFFF AND DUP2 MSTORE PUSH1 0x20 ADD SWAP1 DUP2 MSTORE PUSH1 0x20 ADD PUSH1 0x0 KECCAK256 DUP2 SWAP1 SSTORE POP DUP2 PUSH20 0xFFFFFFFFFFFFFFFFFFFFFFFFFFFFFFFFFFFFFFFF AND CALLER PUSH20 0xFFFFFFFFFFFFFFFFFFFFFFFFFFFFFFFFFFFFFFFF AND PUSH32 0x8C5BE1E5EBEC7D5BD14F71427D1E84F3DD0314C0F7B2291E5B200AC8C7C3B925 DUP4 PUSH1 0x40 MLOAD PUSH2 0x5A0 SWAP2 SWAP1 PUSH2 0x109E JUMP JUMPDEST PUSH1 0x40 MLOAD DUP1 SWAP2 SUB SWAP1 LOG3 POP POP JUMP JUMPDEST PUSH1 0x0 SLOAD DUP2 JUMP JUMPDEST PUSH1 0x0 DUP2 GT PUSH2 0x5F5 JUMPI PUSH1 0x40 MLOAD PUSH32 0x8C379A000000000000000000000000000000000000000000000000000000000 DUP2 MSTORE PUSH1 0x4 ADD PUSH2 0x5EC SWAP1 PUSH2 0x103E JUMP JUMPDEST PUSH1 0x40 MLOAD DUP1 SWAP2 SUB SWAP1 REVERT JUMPDEST DUP1 PUSH1 0x5 PUSH1 0x0 DUP6 PUSH20 0xFFFFFFFFFFFFFFFFFFFFFFFFFFFFFFFFFFFFFFFF AND PUSH20 0xFFFFFFFFFFFFFFFFFFFFFFFFFFFFFFFFFFFFFFFF AND DUP2 MSTORE PUSH1 0x20 ADD SWAP1 DUP2 MSTORE PUSH1 0x20 ADD PUSH1 0x0 KECCAK256 SLOAD LT ISZERO PUSH2 0x677 JUMPI PUSH1 0x40 MLOAD PUSH32 0x8C379A000000000000000000000000000000000000000000000000000000000 DUP2 MSTORE PUSH1 0x4 ADD PUSH2 0x66E SWAP1 PUSH2 0x101E JUMP JUMPDEST PUSH1 0x40 MLOAD DUP1 SWAP2 SUB SWAP1 REVERT JUMPDEST DUP1 PUSH1 0x6 PUSH1 0x0 DUP6 PUSH20 0xFFFFFFFFFFFFFFFFFFFFFFFFFFFFFFFFFFFFFFFF AND PUSH20 0xFFFFFFFFFFFFFFFFFFFFFFFFFFFFFFFFFFFFFFFF AND DUP2 MSTORE PUSH1 0x20 ADD SWAP1 DUP2 MSTORE PUSH1 0x20 ADD PUSH1 0x0 KECCAK256 PUSH1 0x0 CALLER PUSH20 0xFFFFFFFFFFFFFFFFFFFFFFFFFFFFFFFFFFFFFFFF AND PUSH20 0xFFFFFFFFFFFFFFFFFFFFFFFFFFFFFFFFFFFFFFFF AND DUP2 MSTORE PUSH1 0x20 ADD SWAP1 DUP2 MSTORE PUSH1 0x20 ADD PUSH1 0x0 KECCAK256 SLOAD LT ISZERO PUSH2 0x736 JUMPI PUSH1 0x40 MLOAD PUSH32 0x8C379A000000000000000000000000000000000000000000000000000000000 DUP2 MSTORE PUSH1 0x4 ADD PUSH2 0x72D SWAP1 PUSH2 0x105E JUMP JUMPDEST PUSH1 0x40 MLOAD DUP1 SWAP2 SUB SWAP1 REVERT JUMPDEST PUSH2 0x788 DUP2 PUSH1 0x5 PUSH1 0x0 DUP6 PUSH20 0xFFFFFFFFFFFFFFFFFFFFFFFFFFFFFFFFFFFFFFFF AND PUSH20 0xFFFFFFFFFFFFFFFFFFFFFFFFFFFFFFFFFFFFFFFF AND DUP2 MSTORE PUSH1 0x20 ADD SWAP1 DUP2 MSTORE PUSH1 0x20 ADD PUSH1 0x0 KECCAK256 SLOAD PUSH2 0xD41 SWAP1 SWAP2 SWAP1 PUSH4 0xFFFFFFFF AND JUMP JUMPDEST PUSH1 0x5 PUSH1 0x0 DUP5 PUSH20 0xFFFFFFFFFFFFFFFFFFFFFFFFFFFFFFFFFFFFFFFF AND PUSH20 0xFFFFFFFFFFFFFFFFFFFFFFFFFFFFFFFFFFFFFFFF AND DUP2 MSTORE PUSH1 0x20 ADD SWAP1 DUP2 MSTORE PUSH1 0x20 ADD PUSH1 0x0 KECCAK256 DUP2 SWAP1 SSTORE POP PUSH2 0x81D DUP2 PUSH1 0x5 PUSH1 0x0 DUP7 PUSH20 0xFFFFFFFFFFFFFFFFFFFFFFFFFFFFFFFFFFFFFFFF AND PUSH20 0xFFFFFFFFFFFFFFFFFFFFFFFFFFFFFFFFFFFFFFFF AND DUP2 MSTORE PUSH1 0x20 ADD SWAP1 DUP2 MSTORE PUSH1 0x20 ADD PUSH1 0x0 KECCAK256 SLOAD PUSH2 0xD69 SWAP1 SWAP2 SWAP1 PUSH4 0xFFFFFFFF AND JUMP JUMPDEST PUSH1 0x5 PUSH1 0x0 DUP6 PUSH20 0xFFFFFFFFFFFFFFFFFFFFFFFFFFFFFFFFFFFFFFFF AND PUSH20 0xFFFFFFFFFFFFFFFFFFFFFFFFFFFFFFFFFFFFFFFF AND DUP2 MSTORE PUSH1 0x20 ADD SWAP1 DUP2 MSTORE PUSH1 0x20 ADD PUSH1 0x0 KECCAK256 DUP2 SWAP1 SSTORE POP PUSH2 0x8EF DUP2 PUSH1 0x6 PUSH1 0x0 DUP7 PUSH20 0xFFFFFFFFFFFFFFFFFFFFFFFFFFFFFFFFFFFFFFFF AND PUSH20 0xFFFFFFFFFFFFFFFFFFFFFFFFFFFFFFFFFFFFFFFF AND DUP2 MSTORE PUSH1 0x20 ADD SWAP1 DUP2 MSTORE PUSH1 0x20 ADD PUSH1 0x0 KECCAK256 PUSH1 0x0 CALLER PUSH20 0xFFFFFFFFFFFFFFFFFFFFFFFFFFFFFFFFFFFFFFFF AND PUSH20 0xFFFFFFFFFFFFFFFFFFFFFFFFFFFFFFFFFFFFFFFF AND DUP2 MSTORE PUSH1 0x20 ADD SWAP1 DUP2 MSTORE PUSH1 0x20 ADD PUSH1 0x0 KECCAK256 SLOAD PUSH2 0xD69 SWAP1 SWAP2 SWAP1 PUSH4 0xFFFFFFFF AND JUMP JUMPDEST PUSH1 0x6 PUSH1 0x0 DUP6 PUSH20 0xFFFFFFFFFFFFFFFFFFFFFFFFFFFFFFFFFFFFFFFF AND PUSH20 0xFFFFFFFFFFFFFFFFFFFFFFFFFFFFFFFFFFFFFFFF AND DUP2 MSTORE PUSH1 0x20 ADD SWAP1 DUP2 MSTORE PUSH1 0x20 ADD PUSH1 0x0 KECCAK256 PUSH1 0x0 CALLER PUSH20 0xFFFFFFFFFFFFFFFFFFFFFFFFFFFFFFFFFFFFFFFF AND PUSH20 0xFFFFFFFFFFFFFFFFFFFFFFFFFFFFFFFFFFFFFFFF AND DUP2 MSTORE PUSH1 0x20 ADD SWAP1 DUP2 MSTORE PUSH1 0x20 ADD PUSH1 0x0 KECCAK256 DUP2 SWAP1 SSTORE POP DUP2 PUSH20 0xFFFFFFFFFFFFFFFFFFFFFFFFFFFFFFFFFFFFFFFF AND DUP4 PUSH20 0xFFFFFFFFFFFFFFFFFFFFFFFFFFFFFFFFFFFFFFFF AND PUSH32 0xDDF252AD1BE2C89B69C2B068FC378DAA952BA7F163C4A11628F55A4DF523B3EF DUP4 PUSH1 0x40 MLOAD PUSH2 0x9CC SWAP2 SWAP1 PUSH2 0x109E JUMP JUMPDEST PUSH1 0x40 MLOAD DUP1 SWAP2 SUB SWAP1 LOG3 POP POP POP JUMP JUMPDEST PUSH1 0x2 PUSH1 0x0 SWAP1 SLOAD SWAP1 PUSH2 0x100 EXP SWAP1 DIV PUSH1 0xFF AND DUP2 JUMP JUMPDEST PUSH1 0x0 PUSH20 0xFFFFFFFFFFFFFFFFFFFFFFFFFFFFFFFFFFFFFFFF AND DUP3 PUSH20 0xFFFFFFFFFFFFFFFFFFFFFFFFFFFFFFFFFFFFFFFF AND EQ ISZERO PUSH2 0xA5C JUMPI PUSH1 0x40 MLOAD PUSH32 0x8C379A000000000000000000000000000000000000000000000000000000000 DUP2 MSTORE PUSH1 0x4 ADD PUSH2 0xA53 SWAP1 PUSH2 0x107E JUMP JUMPDEST PUSH1 0x40 MLOAD DUP1 SWAP2 SUB SWAP1 REVERT JUMPDEST PUSH2 0xA68 PUSH1 0x0 DUP4 DUP4 PUSH2 0xD92 JUMP JUMPDEST DUP1 PUSH1 0x0 DUP1 DUP3 DUP3 SLOAD PUSH2 0xA79 SWAP2 SWAP1 PUSH2 0x10F0 JUMP JUMPDEST SWAP3 POP POP DUP2 SWAP1 SSTORE POP DUP1 PUSH1 0x5 PUSH1 0x0 DUP5 PUSH20 0xFFFFFFFFFFFFFFFFFFFFFFFFFFFFFFFFFFFFFFFF AND PUSH20 0xFFFFFFFFFFFFFFFFFFFFFFFFFFFFFFFFFFFFFFFF AND DUP2 MSTORE PUSH1 0x20 ADD SWAP1 DUP2 MSTORE PUSH1 0x20 ADD PUSH1 0x0 KECCAK256 PUSH1 0x0 DUP3 DUP3 SLOAD PUSH2 0xACF SWAP2 SWAP1 PUSH2 0x10F0 JUMP JUMPDEST SWAP3 POP POP DUP2 SWAP1 SSTORE POP DUP2 PUSH20 0xFFFFFFFFFFFFFFFFFFFFFFFFFFFFFFFFFFFFFFFF AND PUSH1 0x0 PUSH20 0xFFFFFFFFFFFFFFFFFFFFFFFFFFFFFFFFFFFFFFFF AND PUSH32 0xDDF252AD1BE2C89B69C2B068FC378DAA952BA7F163C4A11628F55A4DF523B3EF DUP4 PUSH1 0x40 MLOAD PUSH2 0xB34 SWAP2 SWAP1 PUSH2 0x109E JUMP JUMPDEST PUSH1 0x40 MLOAD DUP1 SWAP2 SUB SWAP1 LOG3 PUSH2 0xB48 PUSH1 0x0 DUP4 DUP4 PUSH2 0xD97 JUMP JUMPDEST POP POP JUMP JUMPDEST PUSH1 0x4 DUP1 SLOAD PUSH2 0xB59 SWAP1 PUSH2 0x11F6 JUMP JUMPDEST DUP1 PUSH1 0x1F ADD PUSH1 0x20 DUP1 SWAP2 DIV MUL PUSH1 0x20 ADD PUSH1 0x40 MLOAD SWAP1 DUP2 ADD PUSH1 0x40 MSTORE DUP1 SWAP3 SWAP2 SWAP1 DUP2 DUP2 MSTORE PUSH1 0x20 ADD DUP3 DUP1 SLOAD PUSH2 0xB85 SWAP1 PUSH2 0x11F6 JUMP JUMPDEST DUP1 ISZERO PUSH2 0xBD2 JUMPI DUP1 PUSH1 0x1F LT PUSH2 0xBA7 JUMPI PUSH2 0x100 DUP1 DUP4 SLOAD DIV MUL DUP4 MSTORE SWAP2 PUSH1 0x20 ADD SWAP2 PUSH2 0xBD2 JUMP JUMPDEST DUP3 ADD SWAP2 SWAP1 PUSH1 0x0 MSTORE PUSH1 0x20 PUSH1 0x0 KECCAK256 SWAP1 JUMPDEST DUP2 SLOAD DUP2 MSTORE SWAP1 PUSH1 0x1 ADD SWAP1 PUSH1 0x20 ADD DUP1 DUP4 GT PUSH2 0xBB5 JUMPI DUP3 SWAP1 SUB PUSH1 0x1F AND DUP3 ADD SWAP2 JUMPDEST POP POP POP POP POP DUP2 JUMP JUMPDEST PUSH1 0x0 PUSH1 0x5 PUSH1 0x0 DUP4 PUSH20 0xFFFFFFFFFFFFFFFFFFFFFFFFFFFFFFFFFFFFFFFF AND PUSH20 0xFFFFFFFFFFFFFFFFFFFFFFFFFFFFFFFFFFFFFFFF AND DUP2 MSTORE PUSH1 0x20 ADD SWAP1 DUP2 MSTORE PUSH1 0x20 ADD PUSH1 0x0 KECCAK256 SLOAD SWAP1 POP SWAP2 SWAP1 POP JUMP JUMPDEST PUSH1 0x3 DUP1 SLOAD PUSH2 0xC30 SWAP1 PUSH2 0x11F6 JUMP JUMPDEST DUP1 PUSH1 0x1F ADD PUSH1 0x20 DUP1 SWAP2 DIV MUL PUSH1 0x20 ADD PUSH1 0x40 MLOAD SWAP1 DUP2 ADD PUSH1 0x40 MSTORE DUP1 SWAP3 SWAP2 SWAP1 DUP2 DUP2 MSTORE PUSH1 0x20 ADD DUP3 DUP1 SLOAD PUSH2 0xC5C SWAP1 PUSH2 0x11F6 JUMP JUMPDEST DUP1 ISZERO PUSH2 0xCA9 JUMPI DUP1 PUSH1 0x1F LT PUSH2 0xC7E JUMPI PUSH2 0x100 DUP1 DUP4 SLOAD DIV MUL DUP4 MSTORE SWAP2 PUSH1 0x20 ADD SWAP2 PUSH2 0xCA9 JUMP JUMPDEST DUP3 ADD SWAP2 SWAP1 PUSH1 0x0 MSTORE PUSH1 0x20 PUSH1 0x0 KECCAK256 SWAP1 JUMPDEST DUP2 SLOAD DUP2 MSTORE SWAP1 PUSH1 0x1 ADD SWAP1 PUSH1 0x20 ADD DUP1 DUP4 GT PUSH2 0xC8C JUMPI DUP3 SWAP1 SUB PUSH1 0x1F AND DUP3 ADD SWAP2 JUMPDEST POP POP POP POP POP DUP2 JUMP JUMPDEST PUSH1 0x0 DUP1 SLOAD SWAP1 POP SWAP1 JUMP JUMPDEST PUSH1 0x0 PUSH1 0x6 PUSH1 0x0 DUP4 PUSH20 0xFFFFFFFFFFFFFFFFFFFFFFFFFFFFFFFFFFFFFFFF AND PUSH20 0xFFFFFFFFFFFFFFFFFFFFFFFFFFFFFFFFFFFFFFFF AND DUP2 MSTORE PUSH1 0x20 ADD SWAP1 DUP2 MSTORE PUSH1 0x20 ADD PUSH1 0x0 KECCAK256 PUSH1 0x0 DUP5 PUSH20 0xFFFFFFFFFFFFFFFFFFFFFFFFFFFFFFFFFFFFFFFF AND PUSH20 0xFFFFFFFFFFFFFFFFFFFFFFFFFFFFFFFFFFFFFFFF AND DUP2 MSTORE PUSH1 0x20 ADD SWAP1 DUP2 MSTORE PUSH1 0x20 ADD PUSH1 0x0 KECCAK256 SLOAD SWAP1 POP SWAP3 SWAP2 POP POP JUMP JUMPDEST PUSH1 0x0 DUP1 DUP3 DUP5 PUSH2 0xD50 SWAP2 SWAP1 PUSH2 0x10F0 JUMP JUMPDEST SWAP1 POP DUP4 DUP2 LT ISZERO PUSH2 0xD5F JUMPI PUSH1 0x0 DUP1 REVERT JUMPDEST DUP1 SWAP2 POP POP SWAP3 SWAP2 POP POP JUMP JUMPDEST PUSH1 0x0 DUP3 DUP3 GT ISZERO PUSH2 0xD78 JUMPI PUSH1 0x0 DUP1 REVERT JUMPDEST PUSH1 0x0 DUP3 DUP5 PUSH2 0xD86 SWAP2 SWAP1 PUSH2 0x1146 JUMP JUMPDEST SWAP1 POP DUP1 SWAP2 POP POP SWAP3 SWAP2 POP POP JUMP JUMPDEST POP POP POP JUMP JUMPDEST POP POP POP JUMP JUMPDEST PUSH1 0x0 DUP2 CALLDATALOAD SWAP1 POP PUSH2 0xDAB DUP2 PUSH2 0x136F JUMP JUMPDEST SWAP3 SWAP2 POP POP JUMP JUMPDEST PUSH1 0x0 DUP2 CALLDATALOAD SWAP1 POP PUSH2 0xDC0 DUP2 PUSH2 0x1386 JUMP JUMPDEST SWAP3 SWAP2 POP POP JUMP JUMPDEST PUSH1 0x0 PUSH1 0x20 DUP3 DUP5 SUB SLT ISZERO PUSH2 0xDDC JUMPI PUSH2 0xDDB PUSH2 0x12B5 JUMP JUMPDEST JUMPDEST PUSH1 0x0 PUSH2 0xDEA DUP5 DUP3 DUP6 ADD PUSH2 0xD9C JUMP JUMPDEST SWAP2 POP POP SWAP3 SWAP2 POP POP JUMP JUMPDEST PUSH1 0x0 DUP1 PUSH1 0x40 DUP4 DUP6 SUB SLT ISZERO PUSH2 0xE0A JUMPI PUSH2 0xE09 PUSH2 0x12B5 JUMP JUMPDEST JUMPDEST PUSH1 0x0 PUSH2 0xE18 DUP6 DUP3 DUP7 ADD PUSH2 0xD9C JUMP JUMPDEST SWAP3 POP POP PUSH1 0x20 PUSH2 0xE29 DUP6 DUP3 DUP7 ADD PUSH2 0xD9C JUMP JUMPDEST SWAP2 POP POP SWAP3 POP SWAP3 SWAP1 POP JUMP JUMPDEST PUSH1 0x0 DUP1 PUSH1 0x0 PUSH1 0x60 DUP5 DUP7 SUB SLT ISZERO PUSH2 0xE4C JUMPI PUSH2 0xE4B PUSH2 0x12B5 JUMP JUMPDEST JUMPDEST PUSH1 0x0 PUSH2 0xE5A DUP7 DUP3 DUP8 ADD PUSH2 0xD9C JUMP JUMPDEST SWAP4 POP POP PUSH1 0x20 PUSH2 0xE6B DUP7 DUP3 DUP8 ADD PUSH2 0xD9C JUMP JUMPDEST SWAP3 POP POP PUSH1 0x40 PUSH2 0xE7C DUP7 DUP3 DUP8 ADD PUSH2 0xDB1 JUMP JUMPDEST SWAP2 POP POP SWAP3 POP SWAP3 POP SWAP3 JUMP JUMPDEST PUSH1 0x0 DUP1 PUSH1 0x40 DUP4 DUP6 SUB SLT ISZERO PUSH2 0xE9D JUMPI PUSH2 0xE9C PUSH2 0x12B5 JUMP JUMPDEST JUMPDEST PUSH1 0x0 PUSH2 0xEAB DUP6 DUP3 DUP7 ADD PUSH2 0xD9C JUMP JUMPDEST SWAP3 POP POP PUSH1 0x20 PUSH2 0xEBC DUP6 DUP3 DUP7 ADD PUSH2 0xDB1 JUMP JUMPDEST SWAP2 POP POP SWAP3 POP SWAP3 SWAP1 POP JUMP JUMPDEST PUSH1 0x0 DUP1 PUSH1 0x0 PUSH1 0x60 DUP5 DUP7 SUB SLT ISZERO PUSH2 0xEDF JUMPI PUSH2 0xEDE PUSH2 0x12B5 JUMP JUMPDEST JUMPDEST PUSH1 0x0 PUSH2 0xEED DUP7 DUP3 DUP8 ADD PUSH2 0xD9C JUMP JUMPDEST SWAP4 POP POP PUSH1 0x20 PUSH2 0xEFE DUP7 DUP3 DUP8 ADD PUSH2 0xDB1 JUMP JUMPDEST SWAP3 POP POP PUSH1 0x40 PUSH2 0xF0F DUP7 DUP3 DUP8 ADD PUSH2 0xDB1 JUMP JUMPDEST SWAP2 POP POP SWAP3 POP SWAP3 POP SWAP3 JUMP JUMPDEST PUSH1 0x0 PUSH2 0xF24 DUP3 PUSH2 0x10D4 JUMP JUMPDEST PUSH2 0xF2E DUP2 DUP6 PUSH2 0x10DF JUMP JUMPDEST SWAP4 POP PUSH2 0xF3E DUP2 DUP6 PUSH1 0x20 DUP7 ADD PUSH2 0x11C3 JUMP JUMPDEST PUSH2 0xF47 DUP2 PUSH2 0x12BA JUMP JUMPDEST DUP5 ADD SWAP2 POP POP SWAP3 SWAP2 POP POP JUMP JUMPDEST PUSH1 0x0 PUSH2 0xF5F PUSH1 0x10 DUP4 PUSH2 0x10DF JUMP JUMPDEST SWAP2 POP PUSH2 0xF6A DUP3 PUSH2 0x12CB JUMP JUMPDEST PUSH1 0x20 DUP3 ADD SWAP1 POP SWAP2 SWAP1 POP JUMP JUMPDEST PUSH1 0x0 PUSH2 0xF82 PUSH1 0xB DUP4 PUSH2 0x10DF JUMP JUMPDEST SWAP2 POP PUSH2 0xF8D DUP3 PUSH2 0x12F4 JUMP JUMPDEST PUSH1 0x20 DUP3 ADD SWAP1 POP SWAP2 SWAP1 POP JUMP JUMPDEST PUSH1 0x0 PUSH2 0xFA5 PUSH1 0xE DUP4 PUSH2 0x10DF JUMP JUMPDEST SWAP2 POP PUSH2 0xFB0 DUP3 PUSH2 0x131D JUMP JUMPDEST PUSH1 0x20 DUP3 ADD SWAP1 POP SWAP2 SWAP1 POP JUMP JUMPDEST PUSH1 0x0 PUSH2 0xFC8 PUSH1 0x1F DUP4 PUSH2 0x10DF JUMP JUMPDEST SWAP2 POP PUSH2 0xFD3 DUP3 PUSH2 0x1346 JUMP JUMPDEST PUSH1 0x20 DUP3 ADD SWAP1 POP SWAP2 SWAP1 POP JUMP JUMPDEST PUSH2 0xFE7 DUP2 PUSH2 0x11AC JUMP JUMPDEST DUP3 MSTORE POP POP JUMP JUMPDEST PUSH2 0xFF6 DUP2 PUSH2 0x11B6 JUMP JUMPDEST DUP3 MSTORE POP POP JUMP JUMPDEST PUSH1 0x0 PUSH1 0x20 DUP3 ADD SWAP1 POP DUP2 DUP2 SUB PUSH1 0x0 DUP4 ADD MSTORE PUSH2 0x1016 DUP2 DUP5 PUSH2 0xF19 JUMP JUMPDEST SWAP1 POP SWAP3 SWAP2 POP POP JUMP JUMPDEST PUSH1 0x0 PUSH1 0x20 DUP3 ADD SWAP1 POP DUP2 DUP2 SUB PUSH1 0x0 DUP4 ADD MSTORE PUSH2 0x1037 DUP2 PUSH2 0xF52 JUMP JUMPDEST SWAP1 POP SWAP2 SWAP1 POP JUMP JUMPDEST PUSH1 0x0 PUSH1 0x20 DUP3 ADD SWAP1 POP DUP2 DUP2 SUB PUSH1 0x0 DUP4 ADD MSTORE PUSH2 0x1057 DUP2 PUSH2 0xF75 JUMP JUMPDEST SWAP1 POP SWAP2 SWAP1 POP JUMP JUMPDEST PUSH1 0x0 PUSH1 0x20 DUP3 ADD SWAP1 POP DUP2 DUP2 SUB PUSH1 0x0 DUP4 ADD MSTORE PUSH2 0x1077 DUP2 PUSH2 0xF98 JUMP JUMPDEST SWAP1 POP SWAP2 SWAP1 POP JUMP JUMPDEST PUSH1 0x0 PUSH1 0x20 DUP3 ADD SWAP1 POP DUP2 DUP2 SUB PUSH1 0x0 DUP4 ADD MSTORE PUSH2 0x1097 DUP2 PUSH2 0xFBB JUMP JUMPDEST SWAP1 POP SWAP2 SWAP1 POP JUMP JUMPDEST PUSH1 0x0 PUSH1 0x20 DUP3 ADD SWAP1 POP PUSH2 0x10B3 PUSH1 0x0 DUP4 ADD DUP5 PUSH2 0xFDE JUMP JUMPDEST SWAP3 SWAP2 POP POP JUMP JUMPDEST PUSH1 0x0 PUSH1 0x20 DUP3 ADD SWAP1 POP PUSH2 0x10CE PUSH1 0x0 DUP4 ADD DUP5 PUSH2 0xFED JUMP JUMPDEST SWAP3 SWAP2 POP POP JUMP JUMPDEST PUSH1 0x0 DUP2 MLOAD SWAP1 POP SWAP2 SWAP1 POP JUMP JUMPDEST PUSH1 0x0 DUP3 DUP3 MSTORE PUSH1 0x20 DUP3 ADD SWAP1 POP SWAP3 SWAP2 POP POP JUMP JUMPDEST PUSH1 0x0 PUSH2 0x10FB DUP3 PUSH2 0x11AC JUMP JUMPDEST SWAP2 POP PUSH2 0x1106 DUP4 PUSH2 0x11AC JUMP JUMPDEST SWAP3 POP DUP3 PUSH32 0xFFFFFFFFFFFFFFFFFFFFFFFFFFFFFFFFFFFFFFFFFFFFFFFFFFFFFFFFFFFFFFFF SUB DUP3 GT ISZERO PUSH2 0x113B JUMPI PUSH2 0x113A PUSH2 0x1257 JUMP JUMPDEST JUMPDEST DUP3 DUP3 ADD SWAP1 POP SWAP3 SWAP2 POP POP JUMP JUMPDEST PUSH1 0x0 PUSH2 0x1151 DUP3 PUSH2 0x11AC JUMP JUMPDEST SWAP2 POP PUSH2 0x115C DUP4 PUSH2 0x11AC JUMP JUMPDEST SWAP3 POP DUP3 DUP3 LT ISZERO PUSH2 0x116F JUMPI PUSH2 0x116E PUSH2 0x1257 JUMP JUMPDEST JUMPDEST DUP3 DUP3 SUB SWAP1 POP SWAP3 SWAP2 POP POP JUMP JUMPDEST PUSH1 0x0 PUSH2 0x1185 DUP3 PUSH2 0x118C JUMP JUMPDEST SWAP1 POP SWAP2 SWAP1 POP JUMP JUMPDEST PUSH1 0x0 PUSH20 0xFFFFFFFFFFFFFFFFFFFFFFFFFFFFFFFFFFFFFFFF DUP3 AND SWAP1 POP SWAP2 SWAP1 POP JUMP JUMPDEST PUSH1 0x0 DUP2 SWAP1 POP SWAP2 SWAP1 POP JUMP JUMPDEST PUSH1 0x0 PUSH1 0xFF DUP3 AND SWAP1 POP SWAP2 SWAP1 POP JUMP JUMPDEST PUSH1 0x0 JUMPDEST DUP4 DUP2 LT ISZERO PUSH2 0x11E1 JUMPI DUP1 DUP3 ADD MLOAD DUP2 DUP5 ADD MSTORE PUSH1 0x20 DUP2 ADD SWAP1 POP PUSH2 0x11C6 JUMP JUMPDEST DUP4 DUP2 GT ISZERO PUSH2 0x11F0 JUMPI PUSH1 0x0 DUP5 DUP5 ADD MSTORE JUMPDEST POP POP POP POP JUMP JUMPDEST PUSH1 0x0 PUSH1 0x2 DUP3 DIV SWAP1 POP PUSH1 0x1 DUP3 AND DUP1 PUSH2 0x120E JUMPI PUSH1 0x7F DUP3 AND SWAP2 POP JUMPDEST PUSH1 0x20 DUP3 LT DUP2 EQ ISZERO PUSH2 0x1222 JUMPI PUSH2 0x1221 PUSH2 0x1286 JUMP JUMPDEST JUMPDEST POP SWAP2 SWAP1 POP JUMP JUMPDEST PUSH32 0x4E487B7100000000000000000000000000000000000000000000000000000000 PUSH1 0x0 MSTORE PUSH1 0x1 PUSH1 0x4 MSTORE PUSH1 0x24 PUSH1 0x0 REVERT JUMPDEST PUSH32 0x4E487B7100000000000000000000000000000000000000000000000000000000 PUSH1 0x0 MSTORE PUSH1 0x11 PUSH1 0x4 MSTORE PUSH1 0x24 PUSH1 0x0 REVERT JUMPDEST PUSH32 0x4E487B7100000000000000000000000000000000000000000000000000000000 PUSH1 0x0 MSTORE PUSH1 0x22 PUSH1 0x4 MSTORE PUSH1 0x24 PUSH1 0x0 REVERT JUMPDEST PUSH1 0x0 DUP1 REVERT JUMPDEST PUSH1 0x0 PUSH1 0x1F NOT PUSH1 0x1F DUP4 ADD AND SWAP1 POP SWAP2 SWAP1 POP JUMP JUMPDEST PUSH32 0x42616C616E6365203C20616D6F756E7400000000000000000000000000000000 PUSH1 0x0 DUP3 ADD MSTORE POP JUMP JUMPDEST PUSH32 0x416D6F756E74203C3D2030000000000000000000000000000000000000000000 PUSH1 0x0 DUP3 ADD MSTORE POP JUMP JUMPDEST PUSH32 0x446F6E277420616C6C6F7765642E000000000000000000000000000000000000 PUSH1 0x0 DUP3 ADD MSTORE POP JUMP JUMPDEST PUSH32 0x45524332303A206D696E7420746F20746865207A65726F206164647265737300 PUSH1 0x0 DUP3 ADD MSTORE POP JUMP JUMPDEST PUSH2 0x1378 DUP2 PUSH2 0x117A JUMP JUMPDEST DUP2 EQ PUSH2 0x1383 JUMPI PUSH1 0x0 DUP1 REVERT JUMPDEST POP JUMP JUMPDEST PUSH2 0x138F DUP2 PUSH2 0x11AC JUMP JUMPDEST DUP2 EQ PUSH2 0x139A JUMPI PUSH1 0x0 DUP1 REVERT JUMPDEST POP JUMP INVALID LOG2 PUSH5 0x6970667358 0x22 SLT KECCAK256 0xBC KECCAK256 0xCF SWAP6 0xAF 0xBF LOG2 0xF8 PUSH23 0xD9771F726B84B960E6D2F24A48A0E171EF3F94B02433EF PUSH5 0x736F6C6343 STOP ADDMOD SMOD STOP CALLER "
				},
				"gasEstimates": {
					"creation": {
						"codeDepositCost": "1015000",
						"executionCost": "1054",
						"totalCost": "1016054"
					},
					"external": {
						"allowance(address,address)": "infinite",
						"approve(address,uint256)": "infinite",
						"balanceOf(address)": "2885",
						"decimals()": "2582",
						"getTotalSupply()": "2525",
						"mint(address,uint256)": "infinite",
						"name()": "infinite",
						"symbol()": "infinite",
						"totalSupply()": "2496",
						"transfer(address,uint256,uint256)": "infinite",
						"transferFrom(address,address,uint256)": "infinite",
						"version()": "infinite"
					},
					"internal": {
						"_afterTokenTransfer(address,address,uint256)": "15",
						"_beforeTokenTransfer(address,address,uint256)": "15"
					}
				},
				"methodIdentifiers": {
					"allowance(address,address)": "dd62ed3e",
					"approve(address,uint256)": "095ea7b3",
					"balanceOf(address)": "70a08231",
					"decimals()": "313ce567",
					"getTotalSupply()": "c4e41b22",
					"mint(address,uint256)": "40c10f19",
					"name()": "06fdde03",
					"symbol()": "95d89b41",
					"totalSupply()": "18160ddd",
					"transfer(address,uint256,uint256)": "095bcdb6",
					"transferFrom(address,address,uint256)": "23b872dd",
					"version()": "54fd4d50"
				}
			},
			"storageLayout": {
				"storage": [
					{
						"astId": 132,
						"contract": "contracts/ERC20Standard.sol:ERC20Standard",
						"label": "totalSupply",
						"offset": 0,
						"slot": "0",
						"type": "t_uint256"
					},
					{
						"astId": 134,
						"contract": "contracts/ERC20Standard.sol:ERC20Standard",
						"label": "name",
						"offset": 0,
						"slot": "1",
						"type": "t_string_storage"
					},
					{
						"astId": 136,
						"contract": "contracts/ERC20Standard.sol:ERC20Standard",
						"label": "decimals",
						"offset": 0,
						"slot": "2",
						"type": "t_uint8"
					},
					{
						"astId": 138,
						"contract": "contracts/ERC20Standard.sol:ERC20Standard",
						"label": "symbol",
						"offset": 0,
						"slot": "3",
						"type": "t_string_storage"
					},
					{
						"astId": 140,
						"contract": "contracts/ERC20Standard.sol:ERC20Standard",
						"label": "version",
						"offset": 0,
						"slot": "4",
						"type": "t_string_storage"
					},
					{
						"astId": 144,
						"contract": "contracts/ERC20Standard.sol:ERC20Standard",
						"label": "balances",
						"offset": 0,
						"slot": "5",
						"type": "t_mapping(t_address,t_uint256)"
					},
					{
						"astId": 150,
						"contract": "contracts/ERC20Standard.sol:ERC20Standard",
						"label": "allowed",
						"offset": 0,
						"slot": "6",
						"type": "t_mapping(t_address,t_mapping(t_address,t_uint256))"
					}
				],
				"types": {
					"t_address": {
						"encoding": "inplace",
						"label": "address",
						"numberOfBytes": "20"
					},
					"t_mapping(t_address,t_mapping(t_address,t_uint256))": {
						"encoding": "mapping",
						"key": "t_address",
						"label": "mapping(address => mapping(address => uint256))",
						"numberOfBytes": "32",
						"value": "t_mapping(t_address,t_uint256)"
					},
					"t_mapping(t_address,t_uint256)": {
						"encoding": "mapping",
						"key": "t_address",
						"label": "mapping(address => uint256)",
						"numberOfBytes": "32",
						"value": "t_uint256"
					},
					"t_string_storage": {
						"encoding": "bytes",
						"label": "string",
						"numberOfBytes": "32"
					},
					"t_uint256": {
						"encoding": "inplace",
						"label": "uint256",
						"numberOfBytes": "32"
					},
					"t_uint8": {
						"encoding": "inplace",
						"label": "uint8",
						"numberOfBytes": "1"
					}
				}
			},
			"userdoc": {
				"kind": "user",
				"methods": {},
				"version": 1
			}
		}
	}
}