{
	"contracts/Voting.sol": {
		"Voting": {
			"abi": [
				{
					"inputs": [
						{
							"internalType": "string",
							"name": "_name",
							"type": "string"
						},
						{
							"internalType": "uint256",
							"name": "_startTime",
							"type": "uint256"
						},
						{
							"internalType": "uint256",
							"name": "_endTime",
							"type": "uint256"
						}
					],
					"stateMutability": "nonpayable",
					"type": "constructor"
				},
				{
					"inputs": [
						{
							"internalType": "address[]",
							"name": "_proposalsAddr",
							"type": "address[]"
						},
						{
							"internalType": "string[]",
							"name": "_proposalsNames",
							"type": "string[]"
						}
					],
					"name": "addProposals",
					"outputs": [],
					"stateMutability": "nonpayable",
					"type": "function"
				},
				{
					"inputs": [
						{
							"internalType": "address",
							"name": "voter",
							"type": "address"
						}
					],
					"name": "addVote",
					"outputs": [],
					"stateMutability": "nonpayable",
					"type": "function"
				},
				{
					"inputs": [
						{
							"internalType": "address[]",
							"name": "_voters",
							"type": "address[]"
						}
					],
					"name": "addVoters",
					"outputs": [],
					"stateMutability": "nonpayable",
					"type": "function"
				},
				{
					"inputs": [],
					"name": "getTotalSupply",
					"outputs": [
						{
							"internalType": "uint256",
							"name": "",
							"type": "uint256"
						}
					],
					"stateMutability": "view",
					"type": "function"
				},
				{
					"inputs": [
						{
							"internalType": "address",
							"name": "proposal",
							"type": "address"
						}
					],
					"name": "totalVotesFor",
					"outputs": [
						{
							"internalType": "uint256",
							"name": "",
							"type": "uint256"
						}
					],
					"stateMutability": "view",
					"type": "function"
				},
				{
					"inputs": [
						{
							"internalType": "address",
							"name": "proposal",
							"type": "address"
						}
					],
					"name": "vote",
					"outputs": [],
					"stateMutability": "nonpayable",
					"type": "function"
				}
			],
			"devdoc": {
				"kind": "dev",
				"methods": {},
				"version": 1
			},
			"evm": {
				"assembly": "    /* \"contracts/Voting.sol\":91:2299  contract Voting {\r... */\n  mstore(0x40, 0x80)\n    /* \"contracts/Voting.sol\":385:396  new Token() */\n  mload(0x40)\n  tag_1\n  swap1\n  tag_2\n  jump\t// in\ntag_1:\n  mload(0x40)\n  dup1\n  swap2\n  sub\n  swap1\n  0x00\n  create\n  dup1\n  iszero\n  dup1\n  iszero\n  tag_3\n  jumpi\n  returndatasize\n  0x00\n  dup1\n  returndatacopy\n  revert(0x00, returndatasize)\ntag_3:\n  pop\n    /* \"contracts/Voting.sol\":371:396  Token token = new Token() */\n  0x06\n  exp(0x0100, 0x00)\n  dup2\n  sload\n  dup2\n  0xffffffffffffffffffffffffffffffffffffffff\n  mul\n  not\n  and\n  swap1\n  dup4\n  0xffffffffffffffffffffffffffffffffffffffff\n  and\n  mul\n  or\n  swap1\n  sstore\n  pop\n    /* \"contracts/Voting.sol\":405:609  constructor (string memory _name, uint _startTime, uint _endTime) {\r... */\n  callvalue\n  dup1\n  iszero\n  tag_4\n  jumpi\n  0x00\n  dup1\n  revert\ntag_4:\n  pop\n  mload(0x40)\n  sub(codesize, bytecodeSize)\n  dup1\n  bytecodeSize\n  dup4\n  codecopy\n  dup2\n  dup2\n  add\n  0x40\n  mstore\n  dup2\n  add\n  swap1\n  tag_5\n  swap2\n  swap1\n  tag_6\n  jump\t// in\ntag_5:\n    /* \"contracts/Voting.sol\":489:494  _name */\n  dup3\n    /* \"contracts/Voting.sol\":482:486  name */\n  0x00\n    /* \"contracts/Voting.sol\":482:494  name = _name */\n  swap1\n  dup1\n  mload\n  swap1\n  0x20\n  add\n  swap1\n  tag_9\n  swap3\n  swap2\n  swap1\n  tag_10\n  jump\t// in\ntag_9:\n  pop\n    /* \"contracts/Voting.sol\":519:529  msg.sender */\n  caller\n    /* \"contracts/Voting.sol\":505:516  chairperson */\n  0x05\n  0x00\n    /* \"contracts/Voting.sol\":505:529  chairperson = msg.sender */\n  0x0100\n  exp\n  dup2\n  sload\n  dup2\n  0xffffffffffffffffffffffffffffffffffffffff\n  mul\n  not\n  and\n  swap1\n  dup4\n  0xffffffffffffffffffffffffffffffffffffffff\n  and\n  mul\n  or\n  swap1\n  sstore\n  pop\n    /* \"contracts/Voting.sol\":561:571  _startTime */\n  dup2\n    /* \"contracts/Voting.sol\":549:558  startTime */\n  0x01\n    /* \"contracts/Voting.sol\":549:571  startTime = _startTime */\n  dup2\n  swap1\n  sstore\n  pop\n    /* \"contracts/Voting.sol\":592:600  _endTime */\n  dup1\n    /* \"contracts/Voting.sol\":582:589  endTime */\n  0x02\n    /* \"contracts/Voting.sol\":582:600  endTime = _endTime */\n  dup2\n  swap1\n  sstore\n  pop\n    /* \"contracts/Voting.sol\":405:609  constructor (string memory _name, uint _startTime, uint _endTime) {\r... */\n  pop\n  pop\n  pop\n    /* \"contracts/Voting.sol\":91:2299  contract Voting {\r... */\n  jump(tag_11)\ntag_2:\n  dataSize(sub_1)\n  dup1\n  dataOffset(sub_1)\n  dup4\n  codecopy\n  add\n  swap1\n  jump\t// out\ntag_10:\n  dup3\n  dup1\n  sload\n  tag_12\n  swap1\n  tag_13\n  jump\t// in\ntag_12:\n  swap1\n  0x00\n  mstore\n  keccak256(0x00, 0x20)\n  swap1\n  0x1f\n  add\n  0x20\n  swap1\n  div\n  dup2\n  add\n  swap3\n  dup3\n  tag_15\n  jumpi\n  0x00\n  dup6\n  sstore\n  jump(tag_14)\ntag_15:\n  dup3\n  0x1f\n  lt\n  tag_16\n  jumpi\n  dup1\n  mload\n  not(0xff)\n  and\n  dup4\n  dup1\n  add\n  or\n  dup6\n  sstore\n  jump(tag_14)\ntag_16:\n  dup3\n  dup1\n  add\n  0x01\n  add\n  dup6\n  sstore\n  dup3\n  iszero\n  tag_14\n  jumpi\n  swap2\n  dup3\n  add\ntag_17:\n  dup3\n  dup2\n  gt\n  iszero\n  tag_18\n  jumpi\n  dup3\n  mload\n  dup3\n  sstore\n  swap2\n  0x20\n  add\n  swap2\n  swap1\n  0x01\n  add\n  swap1\n  jump(tag_17)\ntag_18:\ntag_14:\n  pop\n  swap1\n  pop\n  tag_19\n  swap2\n  swap1\n  tag_20\n  jump\t// in\ntag_19:\n  pop\n  swap1\n  jump\t// out\ntag_20:\ntag_21:\n  dup1\n  dup3\n  gt\n  iszero\n  tag_22\n  jumpi\n  0x00\n  dup2\n  0x00\n  swap1\n  sstore\n  pop\n  0x01\n  add\n  jump(tag_21)\ntag_22:\n  pop\n  swap1\n  jump\t// out\n    /* \"#utility.yul\":7:428   */\ntag_24:\n    /* \"#utility.yul\":96:101   */\n  0x00\n    /* \"#utility.yul\":121:187   */\n  tag_26\n    /* \"#utility.yul\":137:186   */\n  tag_27\n    /* \"#utility.yul\":179:185   */\n  dup5\n    /* \"#utility.yul\":137:186   */\n  tag_28\n  jump\t// in\ntag_27:\n    /* \"#utility.yul\":121:187   */\n  tag_29\n  jump\t// in\ntag_26:\n    /* \"#utility.yul\":112:187   */\n  swap1\n  pop\n    /* \"#utility.yul\":210:216   */\n  dup3\n    /* \"#utility.yul\":203:208   */\n  dup2\n    /* \"#utility.yul\":196:217   */\n  mstore\n    /* \"#utility.yul\":248:252   */\n  0x20\n    /* \"#utility.yul\":241:246   */\n  dup2\n    /* \"#utility.yul\":237:253   */\n  add\n    /* \"#utility.yul\":286:289   */\n  dup5\n    /* \"#utility.yul\":277:283   */\n  dup5\n    /* \"#utility.yul\":272:275   */\n  dup5\n    /* \"#utility.yul\":268:284   */\n  add\n    /* \"#utility.yul\":265:290   */\n  gt\n    /* \"#utility.yul\":262:374   */\n  iszero\n  tag_30\n  jumpi\n    /* \"#utility.yul\":293:372   */\n  tag_31\n  tag_32\n  jump\t// in\ntag_31:\n    /* \"#utility.yul\":262:374   */\ntag_30:\n    /* \"#utility.yul\":383:422   */\n  tag_33\n    /* \"#utility.yul\":415:421   */\n  dup5\n    /* \"#utility.yul\":410:413   */\n  dup3\n    /* \"#utility.yul\":405:408   */\n  dup6\n    /* \"#utility.yul\":383:422   */\n  tag_34\n  jump\t// in\ntag_33:\n    /* \"#utility.yul\":102:428   */\n  pop\n    /* \"#utility.yul\":7:428   */\n  swap4\n  swap3\n  pop\n  pop\n  pop\n  jump\t// out\n    /* \"#utility.yul\":448:803   */\ntag_35:\n    /* \"#utility.yul\":515:520   */\n  0x00\n    /* \"#utility.yul\":564:567   */\n  dup3\n    /* \"#utility.yul\":557:561   */\n  0x1f\n    /* \"#utility.yul\":549:555   */\n  dup4\n    /* \"#utility.yul\":545:562   */\n  add\n    /* \"#utility.yul\":541:568   */\n  slt\n    /* \"#utility.yul\":531:653   */\n  tag_37\n  jumpi\n    /* \"#utility.yul\":572:651   */\n  tag_38\n  tag_39\n  jump\t// in\ntag_38:\n    /* \"#utility.yul\":531:653   */\ntag_37:\n    /* \"#utility.yul\":682:688   */\n  dup2\n    /* \"#utility.yul\":676:689   */\n  mload\n    /* \"#utility.yul\":707:797   */\n  tag_40\n    /* \"#utility.yul\":793:796   */\n  dup5\n    /* \"#utility.yul\":785:791   */\n  dup3\n    /* \"#utility.yul\":778:782   */\n  0x20\n    /* \"#utility.yul\":770:776   */\n  dup7\n    /* \"#utility.yul\":766:783   */\n  add\n    /* \"#utility.yul\":707:797   */\n  tag_24\n  jump\t// in\ntag_40:\n    /* \"#utility.yul\":698:797   */\n  swap2\n  pop\n    /* \"#utility.yul\":521:803   */\n  pop\n    /* \"#utility.yul\":448:803   */\n  swap3\n  swap2\n  pop\n  pop\n  jump\t// out\n    /* \"#utility.yul\":809:952   */\ntag_41:\n    /* \"#utility.yul\":866:871   */\n  0x00\n    /* \"#utility.yul\":897:903   */\n  dup2\n    /* \"#utility.yul\":891:904   */\n  mload\n    /* \"#utility.yul\":882:904   */\n  swap1\n  pop\n    /* \"#utility.yul\":913:946   */\n  tag_43\n    /* \"#utility.yul\":940:945   */\n  dup2\n    /* \"#utility.yul\":913:946   */\n  tag_44\n  jump\t// in\ntag_43:\n    /* \"#utility.yul\":809:952   */\n  swap3\n  swap2\n  pop\n  pop\n  jump\t// out\n    /* \"#utility.yul\":958:1794   */\ntag_6:\n    /* \"#utility.yul\":1056:1062   */\n  0x00\n    /* \"#utility.yul\":1064:1070   */\n  dup1\n    /* \"#utility.yul\":1072:1078   */\n  0x00\n    /* \"#utility.yul\":1121:1123   */\n  0x60\n    /* \"#utility.yul\":1109:1118   */\n  dup5\n    /* \"#utility.yul\":1100:1107   */\n  dup7\n    /* \"#utility.yul\":1096:1119   */\n  sub\n    /* \"#utility.yul\":1092:1124   */\n  slt\n    /* \"#utility.yul\":1089:1208   */\n  iszero\n  tag_46\n  jumpi\n    /* \"#utility.yul\":1127:1206   */\n  tag_47\n  tag_48\n  jump\t// in\ntag_47:\n    /* \"#utility.yul\":1089:1208   */\ntag_46:\n    /* \"#utility.yul\":1268:1269   */\n  0x00\n    /* \"#utility.yul\":1257:1266   */\n  dup5\n    /* \"#utility.yul\":1253:1270   */\n  add\n    /* \"#utility.yul\":1247:1271   */\n  mload\n    /* \"#utility.yul\":1298:1316   */\n  0xffffffffffffffff\n    /* \"#utility.yul\":1290:1296   */\n  dup2\n    /* \"#utility.yul\":1287:1317   */\n  gt\n    /* \"#utility.yul\":1284:1401   */\n  iszero\n  tag_49\n  jumpi\n    /* \"#utility.yul\":1320:1399   */\n  tag_50\n  tag_51\n  jump\t// in\ntag_50:\n    /* \"#utility.yul\":1284:1401   */\ntag_49:\n    /* \"#utility.yul\":1425:1499   */\n  tag_52\n    /* \"#utility.yul\":1491:1498   */\n  dup7\n    /* \"#utility.yul\":1482:1488   */\n  dup3\n    /* \"#utility.yul\":1471:1480   */\n  dup8\n    /* \"#utility.yul\":1467:1489   */\n  add\n    /* \"#utility.yul\":1425:1499   */\n  tag_35\n  jump\t// in\ntag_52:\n    /* \"#utility.yul\":1415:1499   */\n  swap4\n  pop\n    /* \"#utility.yul\":1218:1509   */\n  pop\n    /* \"#utility.yul\":1548:1550   */\n  0x20\n    /* \"#utility.yul\":1574:1638   */\n  tag_53\n    /* \"#utility.yul\":1630:1637   */\n  dup7\n    /* \"#utility.yul\":1621:1627   */\n  dup3\n    /* \"#utility.yul\":1610:1619   */\n  dup8\n    /* \"#utility.yul\":1606:1628   */\n  add\n    /* \"#utility.yul\":1574:1638   */\n  tag_41\n  jump\t// in\ntag_53:\n    /* \"#utility.yul\":1564:1638   */\n  swap3\n  pop\n    /* \"#utility.yul\":1519:1648   */\n  pop\n    /* \"#utility.yul\":1687:1689   */\n  0x40\n    /* \"#utility.yul\":1713:1777   */\n  tag_54\n    /* \"#utility.yul\":1769:1776   */\n  dup7\n    /* \"#utility.yul\":1760:1766   */\n  dup3\n    /* \"#utility.yul\":1749:1758   */\n  dup8\n    /* \"#utility.yul\":1745:1767   */\n  add\n    /* \"#utility.yul\":1713:1777   */\n  tag_41\n  jump\t// in\ntag_54:\n    /* \"#utility.yul\":1703:1777   */\n  swap2\n  pop\n    /* \"#utility.yul\":1658:1787   */\n  pop\n    /* \"#utility.yul\":958:1794   */\n  swap3\n  pop\n  swap3\n  pop\n  swap3\n  jump\t// out\n    /* \"#utility.yul\":1800:1929   */\ntag_29:\n    /* \"#utility.yul\":1834:1840   */\n  0x00\n    /* \"#utility.yul\":1861:1881   */\n  tag_56\n  tag_57\n  jump\t// in\ntag_56:\n    /* \"#utility.yul\":1851:1881   */\n  swap1\n  pop\n    /* \"#utility.yul\":1890:1923   */\n  tag_58\n    /* \"#utility.yul\":1918:1922   */\n  dup3\n    /* \"#utility.yul\":1910:1916   */\n  dup3\n    /* \"#utility.yul\":1890:1923   */\n  tag_59\n  jump\t// in\ntag_58:\n    /* \"#utility.yul\":1800:1929   */\n  swap2\n  swap1\n  pop\n  jump\t// out\n    /* \"#utility.yul\":1935:2010   */\ntag_57:\n    /* \"#utility.yul\":1968:1974   */\n  0x00\n    /* \"#utility.yul\":2001:2003   */\n  0x40\n    /* \"#utility.yul\":1995:2004   */\n  mload\n    /* \"#utility.yul\":1985:2004   */\n  swap1\n  pop\n    /* \"#utility.yul\":1935:2010   */\n  swap1\n  jump\t// out\n    /* \"#utility.yul\":2016:2324   */\ntag_28:\n    /* \"#utility.yul\":2078:2082   */\n  0x00\n    /* \"#utility.yul\":2168:2186   */\n  0xffffffffffffffff\n    /* \"#utility.yul\":2160:2166   */\n  dup3\n    /* \"#utility.yul\":2157:2187   */\n  gt\n    /* \"#utility.yul\":2154:2210   */\n  iszero\n  tag_62\n  jumpi\n    /* \"#utility.yul\":2190:2208   */\n  tag_63\n  tag_64\n  jump\t// in\ntag_63:\n    /* \"#utility.yul\":2154:2210   */\ntag_62:\n    /* \"#utility.yul\":2228:2257   */\n  tag_65\n    /* \"#utility.yul\":2250:2256   */\n  dup3\n    /* \"#utility.yul\":2228:2257   */\n  tag_66\n  jump\t// in\ntag_65:\n    /* \"#utility.yul\":2220:2257   */\n  swap1\n  pop\n    /* \"#utility.yul\":2312:2316   */\n  0x20\n    /* \"#utility.yul\":2306:2310   */\n  dup2\n    /* \"#utility.yul\":2302:2317   */\n  add\n    /* \"#utility.yul\":2294:2317   */\n  swap1\n  pop\n    /* \"#utility.yul\":2016:2324   */\n  swap2\n  swap1\n  pop\n  jump\t// out\n    /* \"#utility.yul\":2330:2407   */\ntag_67:\n    /* \"#utility.yul\":2367:2374   */\n  0x00\n    /* \"#utility.yul\":2396:2401   */\n  dup2\n    /* \"#utility.yul\":2385:2401   */\n  swap1\n  pop\n    /* \"#utility.yul\":2330:2407   */\n  swap2\n  swap1\n  pop\n  jump\t// out\n    /* \"#utility.yul\":2413:2720   */\ntag_34:\n    /* \"#utility.yul\":2481:2482   */\n  0x00\n    /* \"#utility.yul\":2491:2604   */\ntag_70:\n    /* \"#utility.yul\":2505:2511   */\n  dup4\n    /* \"#utility.yul\":2502:2503   */\n  dup2\n    /* \"#utility.yul\":2499:2512   */\n  lt\n    /* \"#utility.yul\":2491:2604   */\n  iszero\n  tag_72\n  jumpi\n    /* \"#utility.yul\":2590:2591   */\n  dup1\n    /* \"#utility.yul\":2585:2588   */\n  dup3\n    /* \"#utility.yul\":2581:2592   */\n  add\n    /* \"#utility.yul\":2575:2593   */\n  mload\n    /* \"#utility.yul\":2571:2572   */\n  dup2\n    /* \"#utility.yul\":2566:2569   */\n  dup5\n    /* \"#utility.yul\":2562:2573   */\n  add\n    /* \"#utility.yul\":2555:2594   */\n  mstore\n    /* \"#utility.yul\":2527:2529   */\n  0x20\n    /* \"#utility.yul\":2524:2525   */\n  dup2\n    /* \"#utility.yul\":2520:2530   */\n  add\n    /* \"#utility.yul\":2515:2530   */\n  swap1\n  pop\n    /* \"#utility.yul\":2491:2604   */\n  jump(tag_70)\ntag_72:\n    /* \"#utility.yul\":2622:2628   */\n  dup4\n    /* \"#utility.yul\":2619:2620   */\n  dup2\n    /* \"#utility.yul\":2616:2629   */\n  gt\n    /* \"#utility.yul\":2613:2714   */\n  iszero\n  tag_73\n  jumpi\n    /* \"#utility.yul\":2702:2703   */\n  0x00\n    /* \"#utility.yul\":2693:2699   */\n  dup5\n    /* \"#utility.yul\":2688:2691   */\n  dup5\n    /* \"#utility.yul\":2684:2700   */\n  add\n    /* \"#utility.yul\":2677:2704   */\n  mstore\n    /* \"#utility.yul\":2613:2714   */\ntag_73:\n    /* \"#utility.yul\":2462:2720   */\n  pop\n    /* \"#utility.yul\":2413:2720   */\n  pop\n  pop\n  pop\n  jump\t// out\n    /* \"#utility.yul\":2726:3046   */\ntag_13:\n    /* \"#utility.yul\":2770:2776   */\n  0x00\n    /* \"#utility.yul\":2807:2808   */\n  0x02\n    /* \"#utility.yul\":2801:2805   */\n  dup3\n    /* \"#utility.yul\":2797:2809   */\n  div\n    /* \"#utility.yul\":2787:2809   */\n  swap1\n  pop\n    /* \"#utility.yul\":2854:2855   */\n  0x01\n    /* \"#utility.yul\":2848:2852   */\n  dup3\n    /* \"#utility.yul\":2844:2856   */\n  and\n    /* \"#utility.yul\":2875:2893   */\n  dup1\n    /* \"#utility.yul\":2865:2946   */\n  tag_75\n  jumpi\n    /* \"#utility.yul\":2931:2935   */\n  0x7f\n    /* \"#utility.yul\":2923:2929   */\n  dup3\n    /* \"#utility.yul\":2919:2936   */\n  and\n    /* \"#utility.yul\":2909:2936   */\n  swap2\n  pop\n    /* \"#utility.yul\":2865:2946   */\ntag_75:\n    /* \"#utility.yul\":2993:2995   */\n  0x20\n    /* \"#utility.yul\":2985:2991   */\n  dup3\n    /* \"#utility.yul\":2982:2996   */\n  lt\n    /* \"#utility.yul\":2962:2980   */\n  dup2\n    /* \"#utility.yul\":2959:2997   */\n  eq\n    /* \"#utility.yul\":2956:3040   */\n  iszero\n  tag_76\n  jumpi\n    /* \"#utility.yul\":3012:3030   */\n  tag_77\n  tag_78\n  jump\t// in\ntag_77:\n    /* \"#utility.yul\":2956:3040   */\ntag_76:\n    /* \"#utility.yul\":2777:3046   */\n  pop\n    /* \"#utility.yul\":2726:3046   */\n  swap2\n  swap1\n  pop\n  jump\t// out\n    /* \"#utility.yul\":3052:3333   */\ntag_59:\n    /* \"#utility.yul\":3135:3162   */\n  tag_80\n    /* \"#utility.yul\":3157:3161   */\n  dup3\n    /* \"#utility.yul\":3135:3162   */\n  tag_66\n  jump\t// in\ntag_80:\n    /* \"#utility.yul\":3127:3133   */\n  dup2\n    /* \"#utility.yul\":3123:3163   */\n  add\n    /* \"#utility.yul\":3265:3271   */\n  dup2\n    /* \"#utility.yul\":3253:3263   */\n  dup2\n    /* \"#utility.yul\":3250:3272   */\n  lt\n    /* \"#utility.yul\":3229:3247   */\n  0xffffffffffffffff\n    /* \"#utility.yul\":3217:3227   */\n  dup3\n    /* \"#utility.yul\":3214:3248   */\n  gt\n    /* \"#utility.yul\":3211:3273   */\n  or\n    /* \"#utility.yul\":3208:3296   */\n  iszero\n  tag_81\n  jumpi\n    /* \"#utility.yul\":3276:3294   */\n  tag_82\n  tag_64\n  jump\t// in\ntag_82:\n    /* \"#utility.yul\":3208:3296   */\ntag_81:\n    /* \"#utility.yul\":3316:3326   */\n  dup1\n    /* \"#utility.yul\":3312:3314   */\n  0x40\n    /* \"#utility.yul\":3305:3327   */\n  mstore\n    /* \"#utility.yul\":3095:3333   */\n  pop\n    /* \"#utility.yul\":3052:3333   */\n  pop\n  pop\n  jump\t// out\n    /* \"#utility.yul\":3339:3519   */\ntag_78:\n    /* \"#utility.yul\":3387:3464   */\n  0x4e487b7100000000000000000000000000000000000000000000000000000000\n    /* \"#utility.yul\":3384:3385   */\n  0x00\n    /* \"#utility.yul\":3377:3465   */\n  mstore\n    /* \"#utility.yul\":3484:3488   */\n  0x22\n    /* \"#utility.yul\":3481:3482   */\n  0x04\n    /* \"#utility.yul\":3474:3489   */\n  mstore\n    /* \"#utility.yul\":3508:3512   */\n  0x24\n    /* \"#utility.yul\":3505:3506   */\n  0x00\n    /* \"#utility.yul\":3498:3513   */\n  revert\n    /* \"#utility.yul\":3525:3705   */\ntag_64:\n    /* \"#utility.yul\":3573:3650   */\n  0x4e487b7100000000000000000000000000000000000000000000000000000000\n    /* \"#utility.yul\":3570:3571   */\n  0x00\n    /* \"#utility.yul\":3563:3651   */\n  mstore\n    /* \"#utility.yul\":3670:3674   */\n  0x41\n    /* \"#utility.yul\":3667:3668   */\n  0x04\n    /* \"#utility.yul\":3660:3675   */\n  mstore\n    /* \"#utility.yul\":3694:3698   */\n  0x24\n    /* \"#utility.yul\":3691:3692   */\n  0x00\n    /* \"#utility.yul\":3684:3699   */\n  revert\n    /* \"#utility.yul\":3711:3828   */\ntag_39:\n    /* \"#utility.yul\":3820:3821   */\n  0x00\n    /* \"#utility.yul\":3817:3818   */\n  dup1\n    /* \"#utility.yul\":3810:3822   */\n  revert\n    /* \"#utility.yul\":3834:3951   */\ntag_32:\n    /* \"#utility.yul\":3943:3944   */\n  0x00\n    /* \"#utility.yul\":3940:3941   */\n  dup1\n    /* \"#utility.yul\":3933:3945   */\n  revert\n    /* \"#utility.yul\":3957:4074   */\ntag_51:\n    /* \"#utility.yul\":4066:4067   */\n  0x00\n    /* \"#utility.yul\":4063:4064   */\n  dup1\n    /* \"#utility.yul\":4056:4068   */\n  revert\n    /* \"#utility.yul\":4080:4197   */\ntag_48:\n    /* \"#utility.yul\":4189:4190   */\n  0x00\n    /* \"#utility.yul\":4186:4187   */\n  dup1\n    /* \"#utility.yul\":4179:4191   */\n  revert\n    /* \"#utility.yul\":4203:4305   */\ntag_66:\n    /* \"#utility.yul\":4244:4250   */\n  0x00\n    /* \"#utility.yul\":4295:4297   */\n  0x1f\n    /* \"#utility.yul\":4291:4298   */\n  not\n    /* \"#utility.yul\":4286:4288   */\n  0x1f\n    /* \"#utility.yul\":4279:4284   */\n  dup4\n    /* \"#utility.yul\":4275:4289   */\n  add\n    /* \"#utility.yul\":4271:4299   */\n  and\n    /* \"#utility.yul\":4261:4299   */\n  swap1\n  pop\n    /* \"#utility.yul\":4203:4305   */\n  swap2\n  swap1\n  pop\n  jump\t// out\n    /* \"#utility.yul\":4311:4433   */\ntag_44:\n    /* \"#utility.yul\":4384:4408   */\n  tag_91\n    /* \"#utility.yul\":4402:4407   */\n  dup2\n    /* \"#utility.yul\":4384:4408   */\n  tag_67\n  jump\t// in\ntag_91:\n    /* \"#utility.yul\":4377:4382   */\n  dup2\n    /* \"#utility.yul\":4374:4409   */\n  eq\n    /* \"#utility.yul\":4364:4427   */\n  tag_92\n  jumpi\n    /* \"#utility.yul\":4423:4424   */\n  0x00\n    /* \"#utility.yul\":4420:4421   */\n  dup1\n    /* \"#utility.yul\":4413:4425   */\n  revert\n    /* \"#utility.yul\":4364:4427   */\ntag_92:\n    /* \"#utility.yul\":4311:4433   */\n  pop\n  jump\t// out\n    /* \"contracts/Voting.sol\":91:2299  contract Voting {\r... */\ntag_11:\n  dataSize(sub_0)\n  dup1\n  dataOffset(sub_0)\n  0x00\n  codecopy\n  0x00\n  return\nstop\n\nsub_0: assembly {\n        /* \"contracts/Voting.sol\":91:2299  contract Voting {\r... */\n      mstore(0x40, 0x80)\n      callvalue\n      dup1\n      iszero\n      tag_1\n      jumpi\n      0x00\n      dup1\n      revert\n    tag_1:\n      pop\n      jumpi(tag_2, lt(calldatasize, 0x04))\n      shr(0xe0, calldataload(0x00))\n      dup1\n      0x4041ef54\n      eq\n      tag_3\n      jumpi\n      dup1\n      0x633fff16\n      eq\n      tag_4\n      jumpi\n      dup1\n      0x6cea0e46\n      eq\n      tag_5\n      jumpi\n      dup1\n      0x6dd7d8ea\n      eq\n      tag_6\n      jumpi\n      dup1\n      0x8203373a\n      eq\n      tag_7\n      jumpi\n      dup1\n      0xc4e41b22\n      eq\n      tag_8\n      jumpi\n    tag_2:\n      0x00\n      dup1\n      revert\n        /* \"contracts/Voting.sol\":1994:2180  function totalVotesFor(address proposal) view public onlyChairperson returns (uint256) {\r... */\n    tag_3:\n      tag_9\n      0x04\n      dup1\n      calldatasize\n      sub\n      dup2\n      add\n      swap1\n      tag_10\n      swap2\n      swap1\n      tag_11\n      jump\t// in\n    tag_10:\n      tag_12\n      jump\t// in\n    tag_9:\n      mload(0x40)\n      tag_13\n      swap2\n      swap1\n      tag_14\n      jump\t// in\n    tag_13:\n      mload(0x40)\n      dup1\n      swap2\n      sub\n      swap1\n      return\n        /* \"contracts/Voting.sol\":1195:1571  function addProposals(address[] memory _proposalsAddr, \r... */\n    tag_4:\n      tag_15\n      0x04\n      dup1\n      calldatasize\n      sub\n      dup2\n      add\n      swap1\n      tag_16\n      swap2\n      swap1\n      tag_17\n      jump\t// in\n    tag_16:\n      tag_18\n      jump\t// in\n    tag_15:\n      stop\n        /* \"contracts/Voting.sol\":1579:1674  function addVote(address voter) public onlyChairperson {\r... */\n    tag_5:\n      tag_19\n      0x04\n      dup1\n      calldatasize\n      sub\n      dup2\n      add\n      swap1\n      tag_20\n      swap2\n      swap1\n      tag_11\n      jump\t// in\n    tag_20:\n      tag_21\n      jump\t// in\n    tag_19:\n      stop\n        /* \"contracts/Voting.sol\":1682:1986  function vote(address proposal) public voteIsOn {\r... */\n    tag_6:\n      tag_22\n      0x04\n      dup1\n      calldatasize\n      sub\n      dup2\n      add\n      swap1\n      tag_23\n      swap2\n      swap1\n      tag_11\n      jump\t// in\n    tag_23:\n      tag_24\n      jump\t// in\n    tag_22:\n      stop\n        /* \"contracts/Voting.sol\":927:1187  function addVoters(address[] memory _voters) public onlyChairperson {\r... */\n    tag_7:\n      tag_25\n      0x04\n      dup1\n      calldatasize\n      sub\n      dup2\n      add\n      swap1\n      tag_26\n      swap2\n      swap1\n      tag_27\n      jump\t// in\n    tag_26:\n      tag_28\n      jump\t// in\n    tag_25:\n      stop\n        /* \"contracts/Voting.sol\":2188:2292  function getTotalSupply() view public returns (uint256) {\r... */\n    tag_8:\n      tag_29\n      tag_30\n      jump\t// in\n    tag_29:\n      mload(0x40)\n      tag_31\n      swap2\n      swap1\n      tag_14\n      jump\t// in\n    tag_31:\n      mload(0x40)\n      dup1\n      swap2\n      sub\n      swap1\n      return\n        /* \"contracts/Voting.sol\":1994:2180  function totalVotesFor(address proposal) view public onlyChairperson returns (uint256) {\r... */\n    tag_12:\n        /* \"contracts/Voting.sol\":2072:2079  uint256 */\n      0x00\n        /* \"contracts/Voting.sol\":677:688  chairperson */\n      0x05\n      0x00\n      swap1\n      sload\n      swap1\n      0x0100\n      exp\n      swap1\n      div\n      0xffffffffffffffffffffffffffffffffffffffff\n      and\n        /* \"contracts/Voting.sol\":663:688  msg.sender == chairperson */\n      0xffffffffffffffffffffffffffffffffffffffff\n      and\n        /* \"contracts/Voting.sol\":663:673  msg.sender */\n      caller\n        /* \"contracts/Voting.sol\":663:688  msg.sender == chairperson */\n      0xffffffffffffffffffffffffffffffffffffffff\n      and\n      eq\n        /* \"contracts/Voting.sol\":655:734  require(msg.sender == chairperson, \r... */\n      tag_33\n      jumpi\n      mload(0x40)\n      0x08c379a000000000000000000000000000000000000000000000000000000000\n      dup2\n      mstore\n      0x04\n      add\n      tag_34\n      swap1\n      tag_35\n      jump\t// in\n    tag_34:\n      mload(0x40)\n      dup1\n      swap2\n      sub\n      swap1\n      revert\n    tag_33:\n        /* \"contracts/Voting.sol\":2119:2126  endTime */\n      sload(0x02)\n        /* \"contracts/Voting.sol\":2100:2115  block.timestamp */\n      timestamp\n        /* \"contracts/Voting.sol\":2100:2126  block.timestamp >= endTime */\n      lt\n      iszero\n        /* \"contracts/Voting.sol\":2092:2127  require(block.timestamp >= endTime) */\n      tag_37\n      jumpi\n      0x00\n      dup1\n      revert\n    tag_37:\n        /* \"contracts/Voting.sol\":2147:2152  token */\n      0x06\n      0x00\n      swap1\n      sload\n      swap1\n      0x0100\n      exp\n      swap1\n      div\n      0xffffffffffffffffffffffffffffffffffffffff\n      and\n        /* \"contracts/Voting.sol\":2147:2162  token.balanceOf */\n      0xffffffffffffffffffffffffffffffffffffffff\n      and\n      0x70a08231\n        /* \"contracts/Voting.sol\":2163:2171  proposal */\n      dup4\n        /* \"contracts/Voting.sol\":2147:2172  token.balanceOf(proposal) */\n      mload(0x40)\n      dup3\n      0xffffffff\n      and\n      0xe0\n      shl\n      dup2\n      mstore\n      0x04\n      add\n      tag_38\n      swap2\n      swap1\n      tag_39\n      jump\t// in\n    tag_38:\n      0x20\n      mload(0x40)\n      dup1\n      dup4\n      sub\n      dup2\n      dup7\n      dup1\n      extcodesize\n      iszero\n      dup1\n      iszero\n      tag_40\n      jumpi\n      0x00\n      dup1\n      revert\n    tag_40:\n      pop\n      gas\n      staticcall\n      iszero\n      dup1\n      iszero\n      tag_42\n      jumpi\n      returndatasize\n      0x00\n      dup1\n      returndatacopy\n      revert(0x00, returndatasize)\n    tag_42:\n      pop\n      pop\n      pop\n      pop\n      mload(0x40)\n      returndatasize\n      not(0x1f)\n      0x1f\n      dup3\n      add\n      and\n      dup3\n      add\n      dup1\n      0x40\n      mstore\n      pop\n      dup2\n      add\n      swap1\n      tag_43\n      swap2\n      swap1\n      tag_44\n      jump\t// in\n    tag_43:\n        /* \"contracts/Voting.sol\":2140:2172  return token.balanceOf(proposal) */\n      swap1\n      pop\n        /* \"contracts/Voting.sol\":1994:2180  function totalVotesFor(address proposal) view public onlyChairperson returns (uint256) {\r... */\n      swap2\n      swap1\n      pop\n      jump\t// out\n        /* \"contracts/Voting.sol\":1195:1571  function addProposals(address[] memory _proposalsAddr, \r... */\n    tag_18:\n        /* \"contracts/Voting.sol\":677:688  chairperson */\n      0x05\n      0x00\n      swap1\n      sload\n      swap1\n      0x0100\n      exp\n      swap1\n      div\n      0xffffffffffffffffffffffffffffffffffffffff\n      and\n        /* \"contracts/Voting.sol\":663:688  msg.sender == chairperson */\n      0xffffffffffffffffffffffffffffffffffffffff\n      and\n        /* \"contracts/Voting.sol\":663:673  msg.sender */\n      caller\n        /* \"contracts/Voting.sol\":663:688  msg.sender == chairperson */\n      0xffffffffffffffffffffffffffffffffffffffff\n      and\n      eq\n        /* \"contracts/Voting.sol\":655:734  require(msg.sender == chairperson, \r... */\n      tag_46\n      jumpi\n      mload(0x40)\n      0x08c379a000000000000000000000000000000000000000000000000000000000\n      dup2\n      mstore\n      0x04\n      add\n      tag_47\n      swap1\n      tag_35\n      jump\t// in\n    tag_47:\n      mload(0x40)\n      dup1\n      swap2\n      sub\n      swap1\n      revert\n    tag_46:\n        /* \"contracts/Voting.sol\":1379:1394  _proposalsNames */\n      dup1\n        /* \"contracts/Voting.sol\":1379:1401  _proposalsNames.length */\n      mload\n        /* \"contracts/Voting.sol\":1354:1368  _proposalsAddr */\n      dup3\n        /* \"contracts/Voting.sol\":1354:1375  _proposalsAddr.length */\n      mload\n        /* \"contracts/Voting.sol\":1354:1401  _proposalsAddr.length == _proposalsNames.length */\n      eq\n        /* \"contracts/Voting.sol\":1346:1426  require(_proposalsAddr.length == _proposalsNames.length, \"Length is different.\") */\n      tag_49\n      jumpi\n      mload(0x40)\n      0x08c379a000000000000000000000000000000000000000000000000000000000\n      dup2\n      mstore\n      0x04\n      add\n      tag_50\n      swap1\n      tag_51\n      jump\t// in\n    tag_50:\n      mload(0x40)\n      dup1\n      swap2\n      sub\n      swap1\n      revert\n    tag_49:\n        /* \"contracts/Voting.sol\":1444:1450  uint i */\n      0x00\n        /* \"contracts/Voting.sol\":1439:1564  for (uint i = 0; i < _proposalsAddr.length; i++) {\r... */\n    tag_52:\n        /* \"contracts/Voting.sol\":1460:1474  _proposalsAddr */\n      dup3\n        /* \"contracts/Voting.sol\":1460:1481  _proposalsAddr.length */\n      mload\n        /* \"contracts/Voting.sol\":1456:1457  i */\n      dup2\n        /* \"contracts/Voting.sol\":1456:1481  i < _proposalsAddr.length */\n      lt\n        /* \"contracts/Voting.sol\":1439:1564  for (uint i = 0; i < _proposalsAddr.length; i++) {\r... */\n      iszero\n      tag_53\n      jumpi\n        /* \"contracts/Voting.sol\":1534:1549  _proposalsNames */\n      dup2\n        /* \"contracts/Voting.sol\":1550:1551  i */\n      dup2\n        /* \"contracts/Voting.sol\":1534:1552  _proposalsNames[i] */\n      dup2\n      mload\n      dup2\n      lt\n      tag_55\n      jumpi\n      tag_56\n      tag_57\n      jump\t// in\n    tag_56:\n    tag_55:\n      0x20\n      mul\n      0x20\n      add\n      add\n      mload\n        /* \"contracts/Voting.sol\":1503:1512  proposals */\n      0x04\n        /* \"contracts/Voting.sol\":1503:1531  proposals[_proposalsAddr[i]] */\n      0x00\n        /* \"contracts/Voting.sol\":1513:1527  _proposalsAddr */\n      dup6\n        /* \"contracts/Voting.sol\":1528:1529  i */\n      dup5\n        /* \"contracts/Voting.sol\":1513:1530  _proposalsAddr[i] */\n      dup2\n      mload\n      dup2\n      lt\n      tag_58\n      jumpi\n      tag_59\n      tag_57\n      jump\t// in\n    tag_59:\n    tag_58:\n      0x20\n      mul\n      0x20\n      add\n      add\n      mload\n        /* \"contracts/Voting.sol\":1503:1531  proposals[_proposalsAddr[i]] */\n      0xffffffffffffffffffffffffffffffffffffffff\n      and\n      0xffffffffffffffffffffffffffffffffffffffff\n      and\n      dup2\n      mstore\n      0x20\n      add\n      swap1\n      dup2\n      mstore\n      0x20\n      add\n      0x00\n      keccak256\n        /* \"contracts/Voting.sol\":1503:1552  proposals[_proposalsAddr[i]] = _proposalsNames[i] */\n      swap1\n      dup1\n      mload\n      swap1\n      0x20\n      add\n      swap1\n      tag_60\n      swap3\n      swap2\n      swap1\n      tag_61\n      jump\t// in\n    tag_60:\n      pop\n        /* \"contracts/Voting.sol\":1483:1486  i++ */\n      dup1\n      dup1\n      tag_62\n      swap1\n      tag_63\n      jump\t// in\n    tag_62:\n      swap2\n      pop\n      pop\n        /* \"contracts/Voting.sol\":1439:1564  for (uint i = 0; i < _proposalsAddr.length; i++) {\r... */\n      jump(tag_52)\n    tag_53:\n      pop\n        /* \"contracts/Voting.sol\":1195:1571  function addProposals(address[] memory _proposalsAddr, \r... */\n      pop\n      pop\n      jump\t// out\n        /* \"contracts/Voting.sol\":1579:1674  function addVote(address voter) public onlyChairperson {\r... */\n    tag_21:\n        /* \"contracts/Voting.sol\":677:688  chairperson */\n      0x05\n      0x00\n      swap1\n      sload\n      swap1\n      0x0100\n      exp\n      swap1\n      div\n      0xffffffffffffffffffffffffffffffffffffffff\n      and\n        /* \"contracts/Voting.sol\":663:688  msg.sender == chairperson */\n      0xffffffffffffffffffffffffffffffffffffffff\n      and\n        /* \"contracts/Voting.sol\":663:673  msg.sender */\n      caller\n        /* \"contracts/Voting.sol\":663:688  msg.sender == chairperson */\n      0xffffffffffffffffffffffffffffffffffffffff\n      and\n      eq\n        /* \"contracts/Voting.sol\":655:734  require(msg.sender == chairperson, \r... */\n      tag_65\n      jumpi\n      mload(0x40)\n      0x08c379a000000000000000000000000000000000000000000000000000000000\n      dup2\n      mstore\n      0x04\n      add\n      tag_66\n      swap1\n      tag_35\n      jump\t// in\n    tag_66:\n      mload(0x40)\n      dup1\n      swap2\n      sub\n      swap1\n      revert\n    tag_65:\n        /* \"contracts/Voting.sol\":1645:1650  token */\n      0x06\n      0x00\n      swap1\n      sload\n      swap1\n      0x0100\n      exp\n      swap1\n      div\n      0xffffffffffffffffffffffffffffffffffffffff\n      and\n        /* \"contracts/Voting.sol\":1645:1655  token.mint */\n      0xffffffffffffffffffffffffffffffffffffffff\n      and\n      0x40c10f19\n        /* \"contracts/Voting.sol\":1656:1661  voter */\n      dup3\n        /* \"contracts/Voting.sol\":1663:1664  1 */\n      0x01\n        /* \"contracts/Voting.sol\":1645:1665  token.mint(voter, 1) */\n      mload(0x40)\n      dup4\n      0xffffffff\n      and\n      0xe0\n      shl\n      dup2\n      mstore\n      0x04\n      add\n      tag_68\n      swap3\n      swap2\n      swap1\n      tag_69\n      jump\t// in\n    tag_68:\n      0x00\n      mload(0x40)\n      dup1\n      dup4\n      sub\n      dup2\n      0x00\n      dup8\n      dup1\n      extcodesize\n      iszero\n      dup1\n      iszero\n      tag_70\n      jumpi\n      0x00\n      dup1\n      revert\n    tag_70:\n      pop\n      gas\n      call\n      iszero\n      dup1\n      iszero\n      tag_72\n      jumpi\n      returndatasize\n      0x00\n      dup1\n      returndatacopy\n      revert(0x00, returndatasize)\n    tag_72:\n      pop\n      pop\n      pop\n      pop\n        /* \"contracts/Voting.sol\":1579:1674  function addVote(address voter) public onlyChairperson {\r... */\n      pop\n      jump\t// out\n        /* \"contracts/Voting.sol\":1682:1986  function vote(address proposal) public voteIsOn {\r... */\n    tag_24:\n        /* \"contracts/Voting.sol\":820:829  startTime */\n      sload(0x01)\n        /* \"contracts/Voting.sol\":801:816  block.timestamp */\n      timestamp\n        /* \"contracts/Voting.sol\":801:829  block.timestamp >= startTime */\n      lt\n      iszero\n        /* \"contracts/Voting.sol\":801:859  block.timestamp >= startTime && block.timestamp <= endTime */\n      dup1\n      iszero\n      tag_74\n      jumpi\n      pop\n        /* \"contracts/Voting.sol\":852:859  endTime */\n      sload(0x02)\n        /* \"contracts/Voting.sol\":833:848  block.timestamp */\n      timestamp\n        /* \"contracts/Voting.sol\":833:859  block.timestamp <= endTime */\n      gt\n      iszero\n        /* \"contracts/Voting.sol\":801:859  block.timestamp >= startTime && block.timestamp <= endTime */\n    tag_74:\n        /* \"contracts/Voting.sol\":793:899  require(block.timestamp >= startTime && block.timestamp <= endTime, \r... */\n      tag_75\n      jumpi\n      mload(0x40)\n      0x08c379a000000000000000000000000000000000000000000000000000000000\n      dup2\n      mstore\n      0x04\n      add\n      tag_76\n      swap1\n      tag_77\n      jump\t// in\n    tag_76:\n      mload(0x40)\n      dup1\n      swap2\n      sub\n      swap1\n      revert\n    tag_75:\n        /* \"contracts/Voting.sol\":1779:1780  0 */\n      0x00\n        /* \"contracts/Voting.sol\":1749:1754  token */\n      0x06\n      0x00\n      swap1\n      sload\n      swap1\n      0x0100\n      exp\n      swap1\n      div\n      0xffffffffffffffffffffffffffffffffffffffff\n      and\n        /* \"contracts/Voting.sol\":1749:1764  token.balanceOf */\n      0xffffffffffffffffffffffffffffffffffffffff\n      and\n      0x70a08231\n        /* \"contracts/Voting.sol\":1765:1775  msg.sender */\n      caller\n        /* \"contracts/Voting.sol\":1749:1776  token.balanceOf(msg.sender) */\n      mload(0x40)\n      dup3\n      0xffffffff\n      and\n      0xe0\n      shl\n      dup2\n      mstore\n      0x04\n      add\n      tag_79\n      swap2\n      swap1\n      tag_39\n      jump\t// in\n    tag_79:\n      0x20\n      mload(0x40)\n      dup1\n      dup4\n      sub\n      dup2\n      dup7\n      dup1\n      extcodesize\n      iszero\n      dup1\n      iszero\n      tag_80\n      jumpi\n      0x00\n      dup1\n      revert\n    tag_80:\n      pop\n      gas\n      staticcall\n      iszero\n      dup1\n      iszero\n      tag_82\n      jumpi\n      returndatasize\n      0x00\n      dup1\n      returndatacopy\n      revert(0x00, returndatasize)\n    tag_82:\n      pop\n      pop\n      pop\n      pop\n      mload(0x40)\n      returndatasize\n      not(0x1f)\n      0x1f\n      dup3\n      add\n      and\n      dup3\n      add\n      dup1\n      0x40\n      mstore\n      pop\n      dup2\n      add\n      swap1\n      tag_83\n      swap2\n      swap1\n      tag_44\n      jump\t// in\n    tag_83:\n        /* \"contracts/Voting.sol\":1749:1780  token.balanceOf(msg.sender) > 0 */\n      gt\n        /* \"contracts/Voting.sol\":1741:1805  require(token.balanceOf(msg.sender) > 0, \"Token doesn't exist.\") */\n      tag_84\n      jumpi\n      mload(0x40)\n      0x08c379a000000000000000000000000000000000000000000000000000000000\n      dup2\n      mstore\n      0x04\n      add\n      tag_85\n      swap1\n      tag_86\n      jump\t// in\n    tag_85:\n      mload(0x40)\n      dup1\n      swap2\n      sub\n      swap1\n      revert\n    tag_84:\n        /* \"contracts/Voting.sol\":1825:1831  voters */\n      0x03\n        /* \"contracts/Voting.sol\":1825:1843  voters[msg.sender] */\n      0x00\n        /* \"contracts/Voting.sol\":1832:1842  msg.sender */\n      caller\n        /* \"contracts/Voting.sol\":1825:1843  voters[msg.sender] */\n      0xffffffffffffffffffffffffffffffffffffffff\n      and\n      0xffffffffffffffffffffffffffffffffffffffff\n      and\n      dup2\n      mstore\n      0x20\n      add\n      swap1\n      dup2\n      mstore\n      0x20\n      add\n      0x00\n      keccak256\n      0x00\n      swap1\n      sload\n      swap1\n      0x0100\n      exp\n      swap1\n      div\n      0xff\n      and\n        /* \"contracts/Voting.sol\":1824:1843  !voters[msg.sender] */\n      iszero\n        /* \"contracts/Voting.sol\":1816:1868  require(!voters[msg.sender], \"Voter already voted.\") */\n      tag_87\n      jumpi\n      mload(0x40)\n      0x08c379a000000000000000000000000000000000000000000000000000000000\n      dup2\n      mstore\n      0x04\n      add\n      tag_88\n      swap1\n      tag_89\n      jump\t// in\n    tag_88:\n      mload(0x40)\n      dup1\n      swap2\n      sub\n      swap1\n      revert\n    tag_87:\n        /* \"contracts/Voting.sol\":1889:1894  token */\n      0x06\n      0x00\n      swap1\n      sload\n      swap1\n      0x0100\n      exp\n      swap1\n      div\n      0xffffffffffffffffffffffffffffffffffffffff\n      and\n        /* \"contracts/Voting.sol\":1889:1903  token.transfer */\n      0xffffffffffffffffffffffffffffffffffffffff\n      and\n      0xa9059cbb\n        /* \"contracts/Voting.sol\":1904:1912  proposal */\n      dup3\n        /* \"contracts/Voting.sol\":1914:1919  token */\n      0x06\n      0x00\n      swap1\n      sload\n      swap1\n      0x0100\n      exp\n      swap1\n      div\n      0xffffffffffffffffffffffffffffffffffffffff\n      and\n        /* \"contracts/Voting.sol\":1914:1929  token.balanceOf */\n      0xffffffffffffffffffffffffffffffffffffffff\n      and\n      0x70a08231\n        /* \"contracts/Voting.sol\":1930:1940  msg.sender */\n      caller\n        /* \"contracts/Voting.sol\":1914:1941  token.balanceOf(msg.sender) */\n      mload(0x40)\n      dup3\n      0xffffffff\n      and\n      0xe0\n      shl\n      dup2\n      mstore\n      0x04\n      add\n      tag_90\n      swap2\n      swap1\n      tag_39\n      jump\t// in\n    tag_90:\n      0x20\n      mload(0x40)\n      dup1\n      dup4\n      sub\n      dup2\n      dup7\n      dup1\n      extcodesize\n      iszero\n      dup1\n      iszero\n      tag_91\n      jumpi\n      0x00\n      dup1\n      revert\n    tag_91:\n      pop\n      gas\n      staticcall\n      iszero\n      dup1\n      iszero\n      tag_93\n      jumpi\n      returndatasize\n      0x00\n      dup1\n      returndatacopy\n      revert(0x00, returndatasize)\n    tag_93:\n      pop\n      pop\n      pop\n      pop\n      mload(0x40)\n      returndatasize\n      not(0x1f)\n      0x1f\n      dup3\n      add\n      and\n      dup3\n      add\n      dup1\n      0x40\n      mstore\n      pop\n      dup2\n      add\n      swap1\n      tag_94\n      swap2\n      swap1\n      tag_44\n      jump\t// in\n    tag_94:\n        /* \"contracts/Voting.sol\":1889:1942  token.transfer(proposal, token.balanceOf(msg.sender)) */\n      mload(0x40)\n      dup4\n      0xffffffff\n      and\n      0xe0\n      shl\n      dup2\n      mstore\n      0x04\n      add\n      tag_95\n      swap3\n      swap2\n      swap1\n      tag_96\n      jump\t// in\n    tag_95:\n      0x00\n      mload(0x40)\n      dup1\n      dup4\n      sub\n      dup2\n      0x00\n      dup8\n      dup1\n      extcodesize\n      iszero\n      dup1\n      iszero\n      tag_97\n      jumpi\n      0x00\n      dup1\n      revert\n    tag_97:\n      pop\n      gas\n      call\n      iszero\n      dup1\n      iszero\n      tag_99\n      jumpi\n      returndatasize\n      0x00\n      dup1\n      returndatacopy\n      revert(0x00, returndatasize)\n    tag_99:\n      pop\n      pop\n      pop\n      pop\n        /* \"contracts/Voting.sol\":1974:1978  true */\n      0x01\n        /* \"contracts/Voting.sol\":1953:1959  voters */\n      0x03\n        /* \"contracts/Voting.sol\":1953:1971  voters[msg.sender] */\n      0x00\n        /* \"contracts/Voting.sol\":1960:1970  msg.sender */\n      caller\n        /* \"contracts/Voting.sol\":1953:1971  voters[msg.sender] */\n      0xffffffffffffffffffffffffffffffffffffffff\n      and\n      0xffffffffffffffffffffffffffffffffffffffff\n      and\n      dup2\n      mstore\n      0x20\n      add\n      swap1\n      dup2\n      mstore\n      0x20\n      add\n      0x00\n      keccak256\n      0x00\n        /* \"contracts/Voting.sol\":1953:1978  voters[msg.sender] = true */\n      0x0100\n      exp\n      dup2\n      sload\n      dup2\n      0xff\n      mul\n      not\n      and\n      swap1\n      dup4\n      iszero\n      iszero\n      mul\n      or\n      swap1\n      sstore\n      pop\n        /* \"contracts/Voting.sol\":1682:1986  function vote(address proposal) public voteIsOn {\r... */\n      pop\n      jump\t// out\n        /* \"contracts/Voting.sol\":927:1187  function addVoters(address[] memory _voters) public onlyChairperson {\r... */\n    tag_28:\n        /* \"contracts/Voting.sol\":677:688  chairperson */\n      0x05\n      0x00\n      swap1\n      sload\n      swap1\n      0x0100\n      exp\n      swap1\n      div\n      0xffffffffffffffffffffffffffffffffffffffff\n      and\n        /* \"contracts/Voting.sol\":663:688  msg.sender == chairperson */\n      0xffffffffffffffffffffffffffffffffffffffff\n      and\n        /* \"contracts/Voting.sol\":663:673  msg.sender */\n      caller\n        /* \"contracts/Voting.sol\":663:688  msg.sender == chairperson */\n      0xffffffffffffffffffffffffffffffffffffffff\n      and\n      eq\n        /* \"contracts/Voting.sol\":655:734  require(msg.sender == chairperson, \r... */\n      tag_101\n      jumpi\n      mload(0x40)\n      0x08c379a000000000000000000000000000000000000000000000000000000000\n      dup2\n      mstore\n      0x04\n      add\n      tag_102\n      swap1\n      tag_35\n      jump\t// in\n    tag_102:\n      mload(0x40)\n      dup1\n      swap2\n      sub\n      swap1\n      revert\n    tag_101:\n        /* \"contracts/Voting.sol\":1011:1017  uint i */\n      0x00\n        /* \"contracts/Voting.sol\":1006:1142  for (uint i = 0; i < _voters.length; i++) {\r... */\n    tag_104:\n        /* \"contracts/Voting.sol\":1027:1034  _voters */\n      dup2\n        /* \"contracts/Voting.sol\":1027:1041  _voters.length */\n      mload\n        /* \"contracts/Voting.sol\":1023:1024  i */\n      dup2\n        /* \"contracts/Voting.sol\":1023:1041  i < _voters.length */\n      lt\n        /* \"contracts/Voting.sol\":1006:1142  for (uint i = 0; i < _voters.length; i++) {\r... */\n      iszero\n      tag_105\n      jumpi\n        /* \"contracts/Voting.sol\":1084:1089  false */\n      0x00\n        /* \"contracts/Voting.sol\":1063:1069  voters */\n      0x03\n        /* \"contracts/Voting.sol\":1063:1081  voters[_voters[i]] */\n      0x00\n        /* \"contracts/Voting.sol\":1070:1077  _voters */\n      dup5\n        /* \"contracts/Voting.sol\":1078:1079  i */\n      dup5\n        /* \"contracts/Voting.sol\":1070:1080  _voters[i] */\n      dup2\n      mload\n      dup2\n      lt\n      tag_107\n      jumpi\n      tag_108\n      tag_57\n      jump\t// in\n    tag_108:\n    tag_107:\n      0x20\n      mul\n      0x20\n      add\n      add\n      mload\n        /* \"contracts/Voting.sol\":1063:1081  voters[_voters[i]] */\n      0xffffffffffffffffffffffffffffffffffffffff\n      and\n      0xffffffffffffffffffffffffffffffffffffffff\n      and\n      dup2\n      mstore\n      0x20\n      add\n      swap1\n      dup2\n      mstore\n      0x20\n      add\n      0x00\n      keccak256\n      0x00\n        /* \"contracts/Voting.sol\":1063:1089  voters[_voters[i]] = false */\n      0x0100\n      exp\n      dup2\n      sload\n      dup2\n      0xff\n      mul\n      not\n      and\n      swap1\n      dup4\n      iszero\n      iszero\n      mul\n      or\n      swap1\n      sstore\n      pop\n        /* \"contracts/Voting.sol\":1104:1109  token */\n      0x06\n      0x00\n      swap1\n      sload\n      swap1\n      0x0100\n      exp\n      swap1\n      div\n      0xffffffffffffffffffffffffffffffffffffffff\n      and\n        /* \"contracts/Voting.sol\":1104:1114  token.mint */\n      0xffffffffffffffffffffffffffffffffffffffff\n      and\n      0x40c10f19\n        /* \"contracts/Voting.sol\":1115:1122  _voters */\n      dup4\n        /* \"contracts/Voting.sol\":1123:1124  i */\n      dup4\n        /* \"contracts/Voting.sol\":1115:1125  _voters[i] */\n      dup2\n      mload\n      dup2\n      lt\n      tag_109\n      jumpi\n      tag_110\n      tag_57\n      jump\t// in\n    tag_110:\n    tag_109:\n      0x20\n      mul\n      0x20\n      add\n      add\n      mload\n        /* \"contracts/Voting.sol\":1127:1128  1 */\n      0x01\n        /* \"contracts/Voting.sol\":1104:1129  token.mint(_voters[i], 1) */\n      mload(0x40)\n      dup4\n      0xffffffff\n      and\n      0xe0\n      shl\n      dup2\n      mstore\n      0x04\n      add\n      tag_111\n      swap3\n      swap2\n      swap1\n      tag_69\n      jump\t// in\n    tag_111:\n      0x00\n      mload(0x40)\n      dup1\n      dup4\n      sub\n      dup2\n      0x00\n      dup8\n      dup1\n      extcodesize\n      iszero\n      dup1\n      iszero\n      tag_112\n      jumpi\n      0x00\n      dup1\n      revert\n    tag_112:\n      pop\n      gas\n      call\n      iszero\n      dup1\n      iszero\n      tag_114\n      jumpi\n      returndatasize\n      0x00\n      dup1\n      returndatacopy\n      revert(0x00, returndatasize)\n    tag_114:\n      pop\n      pop\n      pop\n      pop\n        /* \"contracts/Voting.sol\":1043:1046  i++ */\n      dup1\n      dup1\n      tag_115\n      swap1\n      tag_63\n      jump\t// in\n    tag_115:\n      swap2\n      pop\n      pop\n        /* \"contracts/Voting.sol\":1006:1142  for (uint i = 0; i < _voters.length; i++) {\r... */\n      jump(tag_104)\n    tag_105:\n      pop\n        /* \"contracts/Voting.sol\":1152:1157  token */\n      0x06\n      0x00\n      swap1\n      sload\n      swap1\n      0x0100\n      exp\n      swap1\n      div\n      0xffffffffffffffffffffffffffffffffffffffff\n      and\n        /* \"contracts/Voting.sol\":1152:1162  token.mint */\n      0xffffffffffffffffffffffffffffffffffffffff\n      and\n      0x40c10f19\n        /* \"contracts/Voting.sol\":1163:1174  chairperson */\n      0x05\n      0x00\n      swap1\n      sload\n      swap1\n      0x0100\n      exp\n      swap1\n      div\n      0xffffffffffffffffffffffffffffffffffffffff\n      and\n        /* \"contracts/Voting.sol\":1176:1177  1 */\n      0x01\n        /* \"contracts/Voting.sol\":1152:1178  token.mint(chairperson, 1) */\n      mload(0x40)\n      dup4\n      0xffffffff\n      and\n      0xe0\n      shl\n      dup2\n      mstore\n      0x04\n      add\n      tag_116\n      swap3\n      swap2\n      swap1\n      tag_69\n      jump\t// in\n    tag_116:\n      0x00\n      mload(0x40)\n      dup1\n      dup4\n      sub\n      dup2\n      0x00\n      dup8\n      dup1\n      extcodesize\n      iszero\n      dup1\n      iszero\n      tag_117\n      jumpi\n      0x00\n      dup1\n      revert\n    tag_117:\n      pop\n      gas\n      call\n      iszero\n      dup1\n      iszero\n      tag_119\n      jumpi\n      returndatasize\n      0x00\n      dup1\n      returndatacopy\n      revert(0x00, returndatasize)\n    tag_119:\n      pop\n      pop\n      pop\n      pop\n        /* \"contracts/Voting.sol\":927:1187  function addVoters(address[] memory _voters) public onlyChairperson {\r... */\n      pop\n      jump\t// out\n        /* \"contracts/Voting.sol\":2188:2292  function getTotalSupply() view public returns (uint256) {\r... */\n    tag_30:\n        /* \"contracts/Voting.sol\":2235:2242  uint256 */\n      0x00\n        /* \"contracts/Voting.sol\":2262:2267  token */\n      0x06\n      0x00\n      swap1\n      sload\n      swap1\n      0x0100\n      exp\n      swap1\n      div\n      0xffffffffffffffffffffffffffffffffffffffff\n      and\n        /* \"contracts/Voting.sol\":2262:2282  token.getTotalSupply */\n      0xffffffffffffffffffffffffffffffffffffffff\n      and\n      0xc4e41b22\n        /* \"contracts/Voting.sol\":2262:2284  token.getTotalSupply() */\n      mload(0x40)\n      dup2\n      0xffffffff\n      and\n      0xe0\n      shl\n      dup2\n      mstore\n      0x04\n      add\n      0x20\n      mload(0x40)\n      dup1\n      dup4\n      sub\n      dup2\n      dup7\n      dup1\n      extcodesize\n      iszero\n      dup1\n      iszero\n      tag_121\n      jumpi\n      0x00\n      dup1\n      revert\n    tag_121:\n      pop\n      gas\n      staticcall\n      iszero\n      dup1\n      iszero\n      tag_123\n      jumpi\n      returndatasize\n      0x00\n      dup1\n      returndatacopy\n      revert(0x00, returndatasize)\n    tag_123:\n      pop\n      pop\n      pop\n      pop\n      mload(0x40)\n      returndatasize\n      not(0x1f)\n      0x1f\n      dup3\n      add\n      and\n      dup3\n      add\n      dup1\n      0x40\n      mstore\n      pop\n      dup2\n      add\n      swap1\n      tag_124\n      swap2\n      swap1\n      tag_44\n      jump\t// in\n    tag_124:\n        /* \"contracts/Voting.sol\":2255:2284  return token.getTotalSupply() */\n      swap1\n      pop\n        /* \"contracts/Voting.sol\":2188:2292  function getTotalSupply() view public returns (uint256) {\r... */\n      swap1\n      jump\t// out\n    tag_61:\n      dup3\n      dup1\n      sload\n      tag_125\n      swap1\n      tag_126\n      jump\t// in\n    tag_125:\n      swap1\n      0x00\n      mstore\n      keccak256(0x00, 0x20)\n      swap1\n      0x1f\n      add\n      0x20\n      swap1\n      div\n      dup2\n      add\n      swap3\n      dup3\n      tag_128\n      jumpi\n      0x00\n      dup6\n      sstore\n      jump(tag_127)\n    tag_128:\n      dup3\n      0x1f\n      lt\n      tag_129\n      jumpi\n      dup1\n      mload\n      not(0xff)\n      and\n      dup4\n      dup1\n      add\n      or\n      dup6\n      sstore\n      jump(tag_127)\n    tag_129:\n      dup3\n      dup1\n      add\n      0x01\n      add\n      dup6\n      sstore\n      dup3\n      iszero\n      tag_127\n      jumpi\n      swap2\n      dup3\n      add\n    tag_130:\n      dup3\n      dup2\n      gt\n      iszero\n      tag_131\n      jumpi\n      dup3\n      mload\n      dup3\n      sstore\n      swap2\n      0x20\n      add\n      swap2\n      swap1\n      0x01\n      add\n      swap1\n      jump(tag_130)\n    tag_131:\n    tag_127:\n      pop\n      swap1\n      pop\n      tag_132\n      swap2\n      swap1\n      tag_133\n      jump\t// in\n    tag_132:\n      pop\n      swap1\n      jump\t// out\n    tag_133:\n    tag_134:\n      dup1\n      dup3\n      gt\n      iszero\n      tag_135\n      jumpi\n      0x00\n      dup2\n      0x00\n      swap1\n      sstore\n      pop\n      0x01\n      add\n      jump(tag_134)\n    tag_135:\n      pop\n      swap1\n      jump\t// out\n        /* \"#utility.yul\":24:746   */\n    tag_137:\n        /* \"#utility.yul\":120:125   */\n      0x00\n        /* \"#utility.yul\":145:226   */\n      tag_139\n        /* \"#utility.yul\":161:225   */\n      tag_140\n        /* \"#utility.yul\":218:224   */\n      dup5\n        /* \"#utility.yul\":161:225   */\n      tag_141\n      jump\t// in\n    tag_140:\n        /* \"#utility.yul\":145:226   */\n      tag_142\n      jump\t// in\n    tag_139:\n        /* \"#utility.yul\":136:226   */\n      swap1\n      pop\n        /* \"#utility.yul\":246:251   */\n      dup1\n        /* \"#utility.yul\":275:281   */\n      dup4\n        /* \"#utility.yul\":268:273   */\n      dup3\n        /* \"#utility.yul\":261:282   */\n      mstore\n        /* \"#utility.yul\":309:313   */\n      0x20\n        /* \"#utility.yul\":302:307   */\n      dup3\n        /* \"#utility.yul\":298:314   */\n      add\n        /* \"#utility.yul\":291:314   */\n      swap1\n      pop\n        /* \"#utility.yul\":335:341   */\n      dup3\n        /* \"#utility.yul\":385:388   */\n      dup6\n        /* \"#utility.yul\":377:381   */\n      0x20\n        /* \"#utility.yul\":369:375   */\n      dup7\n        /* \"#utility.yul\":365:382   */\n      mul\n        /* \"#utility.yul\":360:363   */\n      dup3\n        /* \"#utility.yul\":356:383   */\n      add\n        /* \"#utility.yul\":353:389   */\n      gt\n        /* \"#utility.yul\":350:493   */\n      iszero\n      tag_143\n      jumpi\n        /* \"#utility.yul\":404:483   */\n      tag_144\n      tag_145\n      jump\t// in\n    tag_144:\n        /* \"#utility.yul\":350:493   */\n    tag_143:\n        /* \"#utility.yul\":517:518   */\n      0x00\n        /* \"#utility.yul\":502:740   */\n    tag_146:\n        /* \"#utility.yul\":527:533   */\n      dup6\n        /* \"#utility.yul\":524:525   */\n      dup2\n        /* \"#utility.yul\":521:534   */\n      lt\n        /* \"#utility.yul\":502:740   */\n      iszero\n      tag_148\n      jumpi\n        /* \"#utility.yul\":595:598   */\n      dup2\n        /* \"#utility.yul\":624:661   */\n      tag_149\n        /* \"#utility.yul\":657:660   */\n      dup9\n        /* \"#utility.yul\":645:655   */\n      dup3\n        /* \"#utility.yul\":624:661   */\n      tag_150\n      jump\t// in\n    tag_149:\n        /* \"#utility.yul\":619:622   */\n      dup5\n        /* \"#utility.yul\":612:662   */\n      mstore\n        /* \"#utility.yul\":691:695   */\n      0x20\n        /* \"#utility.yul\":686:689   */\n      dup5\n        /* \"#utility.yul\":682:696   */\n      add\n        /* \"#utility.yul\":675:696   */\n      swap4\n      pop\n        /* \"#utility.yul\":725:729   */\n      0x20\n        /* \"#utility.yul\":720:723   */\n      dup4\n        /* \"#utility.yul\":716:730   */\n      add\n        /* \"#utility.yul\":709:730   */\n      swap3\n      pop\n        /* \"#utility.yul\":562:740   */\n      pop\n        /* \"#utility.yul\":549:550   */\n      0x01\n        /* \"#utility.yul\":546:547   */\n      dup2\n        /* \"#utility.yul\":542:551   */\n      add\n        /* \"#utility.yul\":537:551   */\n      swap1\n      pop\n        /* \"#utility.yul\":502:740   */\n      jump(tag_146)\n    tag_148:\n        /* \"#utility.yul\":506:520   */\n      pop\n        /* \"#utility.yul\":126:746   */\n      pop\n      pop\n        /* \"#utility.yul\":24:746   */\n      swap4\n      swap3\n      pop\n      pop\n      pop\n      jump\t// out\n        /* \"#utility.yul\":768:1725   */\n    tag_151:\n        /* \"#utility.yul\":874:879   */\n      0x00\n        /* \"#utility.yul\":899:990   */\n      tag_153\n        /* \"#utility.yul\":915:989   */\n      tag_154\n        /* \"#utility.yul\":982:988   */\n      dup5\n        /* \"#utility.yul\":915:989   */\n      tag_155\n      jump\t// in\n    tag_154:\n        /* \"#utility.yul\":899:990   */\n      tag_142\n      jump\t// in\n    tag_153:\n        /* \"#utility.yul\":890:990   */\n      swap1\n      pop\n        /* \"#utility.yul\":1010:1015   */\n      dup1\n        /* \"#utility.yul\":1039:1045   */\n      dup4\n        /* \"#utility.yul\":1032:1037   */\n      dup3\n        /* \"#utility.yul\":1025:1046   */\n      mstore\n        /* \"#utility.yul\":1073:1077   */\n      0x20\n        /* \"#utility.yul\":1066:1071   */\n      dup3\n        /* \"#utility.yul\":1062:1078   */\n      add\n        /* \"#utility.yul\":1055:1078   */\n      swap1\n      pop\n        /* \"#utility.yul\":1099:1105   */\n      dup3\n        /* \"#utility.yul\":1149:1152   */\n      dup6\n        /* \"#utility.yul\":1141:1145   */\n      0x20\n        /* \"#utility.yul\":1133:1139   */\n      dup7\n        /* \"#utility.yul\":1129:1146   */\n      mul\n        /* \"#utility.yul\":1124:1127   */\n      dup3\n        /* \"#utility.yul\":1120:1147   */\n      add\n        /* \"#utility.yul\":1117:1153   */\n      gt\n        /* \"#utility.yul\":1114:1257   */\n      iszero\n      tag_156\n      jumpi\n        /* \"#utility.yul\":1168:1247   */\n      tag_157\n      tag_145\n      jump\t// in\n    tag_157:\n        /* \"#utility.yul\":1114:1257   */\n    tag_156:\n        /* \"#utility.yul\":1281:1282   */\n      0x00\n        /* \"#utility.yul\":1266:1719   */\n    tag_158:\n        /* \"#utility.yul\":1291:1297   */\n      dup6\n        /* \"#utility.yul\":1288:1289   */\n      dup2\n        /* \"#utility.yul\":1285:1298   */\n      lt\n        /* \"#utility.yul\":1266:1719   */\n      iszero\n      tag_160\n      jumpi\n        /* \"#utility.yul\":1373:1376   */\n      dup2\n        /* \"#utility.yul\":1360:1377   */\n      calldataload\n        /* \"#utility.yul\":1409:1427   */\n      0xffffffffffffffff\n        /* \"#utility.yul\":1396:1407   */\n      dup2\n        /* \"#utility.yul\":1393:1428   */\n      gt\n        /* \"#utility.yul\":1390:1512   */\n      iszero\n      tag_161\n      jumpi\n        /* \"#utility.yul\":1431:1510   */\n      tag_162\n      tag_163\n      jump\t// in\n    tag_162:\n        /* \"#utility.yul\":1390:1512   */\n    tag_161:\n        /* \"#utility.yul\":1555:1566   */\n      dup1\n        /* \"#utility.yul\":1547:1553   */\n      dup7\n        /* \"#utility.yul\":1543:1567   */\n      add\n        /* \"#utility.yul\":1593:1640   */\n      tag_164\n        /* \"#utility.yul\":1636:1639   */\n      dup10\n        /* \"#utility.yul\":1624:1634   */\n      dup3\n        /* \"#utility.yul\":1593:1640   */\n      tag_165\n      jump\t// in\n    tag_164:\n        /* \"#utility.yul\":1588:1591   */\n      dup6\n        /* \"#utility.yul\":1581:1641   */\n      mstore\n        /* \"#utility.yul\":1670:1674   */\n      0x20\n        /* \"#utility.yul\":1665:1668   */\n      dup6\n        /* \"#utility.yul\":1661:1675   */\n      add\n        /* \"#utility.yul\":1654:1675   */\n      swap5\n      pop\n        /* \"#utility.yul\":1704:1708   */\n      0x20\n        /* \"#utility.yul\":1699:1702   */\n      dup5\n        /* \"#utility.yul\":1695:1709   */\n      add\n        /* \"#utility.yul\":1688:1709   */\n      swap4\n      pop\n        /* \"#utility.yul\":1326:1719   */\n      pop\n      pop\n        /* \"#utility.yul\":1313:1314   */\n      0x01\n        /* \"#utility.yul\":1310:1311   */\n      dup2\n        /* \"#utility.yul\":1306:1315   */\n      add\n        /* \"#utility.yul\":1301:1315   */\n      swap1\n      pop\n        /* \"#utility.yul\":1266:1719   */\n      jump(tag_158)\n    tag_160:\n        /* \"#utility.yul\":1270:1284   */\n      pop\n        /* \"#utility.yul\":880:1725   */\n      pop\n      pop\n        /* \"#utility.yul\":768:1725   */\n      swap4\n      swap3\n      pop\n      pop\n      pop\n      jump\t// out\n        /* \"#utility.yul\":1731:2143   */\n    tag_166:\n        /* \"#utility.yul\":1809:1814   */\n      0x00\n        /* \"#utility.yul\":1834:1900   */\n      tag_168\n        /* \"#utility.yul\":1850:1899   */\n      tag_169\n        /* \"#utility.yul\":1892:1898   */\n      dup5\n        /* \"#utility.yul\":1850:1899   */\n      tag_170\n      jump\t// in\n    tag_169:\n        /* \"#utility.yul\":1834:1900   */\n      tag_142\n      jump\t// in\n    tag_168:\n        /* \"#utility.yul\":1825:1900   */\n      swap1\n      pop\n        /* \"#utility.yul\":1923:1929   */\n      dup3\n        /* \"#utility.yul\":1916:1921   */\n      dup2\n        /* \"#utility.yul\":1909:1930   */\n      mstore\n        /* \"#utility.yul\":1961:1965   */\n      0x20\n        /* \"#utility.yul\":1954:1959   */\n      dup2\n        /* \"#utility.yul\":1950:1966   */\n      add\n        /* \"#utility.yul\":1999:2002   */\n      dup5\n        /* \"#utility.yul\":1990:1996   */\n      dup5\n        /* \"#utility.yul\":1985:1988   */\n      dup5\n        /* \"#utility.yul\":1981:1997   */\n      add\n        /* \"#utility.yul\":1978:2003   */\n      gt\n        /* \"#utility.yul\":1975:2087   */\n      iszero\n      tag_171\n      jumpi\n        /* \"#utility.yul\":2006:2085   */\n      tag_172\n      tag_173\n      jump\t// in\n    tag_172:\n        /* \"#utility.yul\":1975:2087   */\n    tag_171:\n        /* \"#utility.yul\":2096:2137   */\n      tag_174\n        /* \"#utility.yul\":2130:2136   */\n      dup5\n        /* \"#utility.yul\":2125:2128   */\n      dup3\n        /* \"#utility.yul\":2120:2123   */\n      dup6\n        /* \"#utility.yul\":2096:2137   */\n      tag_175\n      jump\t// in\n    tag_174:\n        /* \"#utility.yul\":1815:2143   */\n      pop\n        /* \"#utility.yul\":1731:2143   */\n      swap4\n      swap3\n      pop\n      pop\n      pop\n      jump\t// out\n        /* \"#utility.yul\":2149:2288   */\n    tag_150:\n        /* \"#utility.yul\":2195:2200   */\n      0x00\n        /* \"#utility.yul\":2233:2239   */\n      dup2\n        /* \"#utility.yul\":2220:2240   */\n      calldataload\n        /* \"#utility.yul\":2211:2240   */\n      swap1\n      pop\n        /* \"#utility.yul\":2249:2282   */\n      tag_177\n        /* \"#utility.yul\":2276:2281   */\n      dup2\n        /* \"#utility.yul\":2249:2282   */\n      tag_178\n      jump\t// in\n    tag_177:\n        /* \"#utility.yul\":2149:2288   */\n      swap3\n      swap2\n      pop\n      pop\n      jump\t// out\n        /* \"#utility.yul\":2311:2681   */\n    tag_179:\n        /* \"#utility.yul\":2382:2387   */\n      0x00\n        /* \"#utility.yul\":2431:2434   */\n      dup3\n        /* \"#utility.yul\":2424:2428   */\n      0x1f\n        /* \"#utility.yul\":2416:2422   */\n      dup4\n        /* \"#utility.yul\":2412:2429   */\n      add\n        /* \"#utility.yul\":2408:2435   */\n      slt\n        /* \"#utility.yul\":2398:2520   */\n      tag_181\n      jumpi\n        /* \"#utility.yul\":2439:2518   */\n      tag_182\n      tag_163\n      jump\t// in\n    tag_182:\n        /* \"#utility.yul\":2398:2520   */\n    tag_181:\n        /* \"#utility.yul\":2556:2562   */\n      dup2\n        /* \"#utility.yul\":2543:2563   */\n      calldataload\n        /* \"#utility.yul\":2581:2675   */\n      tag_183\n        /* \"#utility.yul\":2671:2674   */\n      dup5\n        /* \"#utility.yul\":2663:2669   */\n      dup3\n        /* \"#utility.yul\":2656:2660   */\n      0x20\n        /* \"#utility.yul\":2648:2654   */\n      dup7\n        /* \"#utility.yul\":2644:2661   */\n      add\n        /* \"#utility.yul\":2581:2675   */\n      tag_137\n      jump\t// in\n    tag_183:\n        /* \"#utility.yul\":2572:2675   */\n      swap2\n      pop\n        /* \"#utility.yul\":2388:2681   */\n      pop\n        /* \"#utility.yul\":2311:2681   */\n      swap3\n      swap2\n      pop\n      pop\n      jump\t// out\n        /* \"#utility.yul\":2703:3093   */\n    tag_184:\n        /* \"#utility.yul\":2784:2789   */\n      0x00\n        /* \"#utility.yul\":2833:2836   */\n      dup3\n        /* \"#utility.yul\":2826:2830   */\n      0x1f\n        /* \"#utility.yul\":2818:2824   */\n      dup4\n        /* \"#utility.yul\":2814:2831   */\n      add\n        /* \"#utility.yul\":2810:2837   */\n      slt\n        /* \"#utility.yul\":2800:2922   */\n      tag_186\n      jumpi\n        /* \"#utility.yul\":2841:2920   */\n      tag_187\n      tag_163\n      jump\t// in\n    tag_187:\n        /* \"#utility.yul\":2800:2922   */\n    tag_186:\n        /* \"#utility.yul\":2958:2964   */\n      dup2\n        /* \"#utility.yul\":2945:2965   */\n      calldataload\n        /* \"#utility.yul\":2983:3087   */\n      tag_188\n        /* \"#utility.yul\":3083:3086   */\n      dup5\n        /* \"#utility.yul\":3075:3081   */\n      dup3\n        /* \"#utility.yul\":3068:3072   */\n      0x20\n        /* \"#utility.yul\":3060:3066   */\n      dup7\n        /* \"#utility.yul\":3056:3073   */\n      add\n        /* \"#utility.yul\":2983:3087   */\n      tag_151\n      jump\t// in\n    tag_188:\n        /* \"#utility.yul\":2974:3087   */\n      swap2\n      pop\n        /* \"#utility.yul\":2790:3093   */\n      pop\n        /* \"#utility.yul\":2703:3093   */\n      swap3\n      swap2\n      pop\n      pop\n      jump\t// out\n        /* \"#utility.yul\":3113:3453   */\n    tag_165:\n        /* \"#utility.yul\":3169:3174   */\n      0x00\n        /* \"#utility.yul\":3218:3221   */\n      dup3\n        /* \"#utility.yul\":3211:3215   */\n      0x1f\n        /* \"#utility.yul\":3203:3209   */\n      dup4\n        /* \"#utility.yul\":3199:3216   */\n      add\n        /* \"#utility.yul\":3195:3222   */\n      slt\n        /* \"#utility.yul\":3185:3307   */\n      tag_190\n      jumpi\n        /* \"#utility.yul\":3226:3305   */\n      tag_191\n      tag_163\n      jump\t// in\n    tag_191:\n        /* \"#utility.yul\":3185:3307   */\n    tag_190:\n        /* \"#utility.yul\":3343:3349   */\n      dup2\n        /* \"#utility.yul\":3330:3350   */\n      calldataload\n        /* \"#utility.yul\":3368:3447   */\n      tag_192\n        /* \"#utility.yul\":3443:3446   */\n      dup5\n        /* \"#utility.yul\":3435:3441   */\n      dup3\n        /* \"#utility.yul\":3428:3432   */\n      0x20\n        /* \"#utility.yul\":3420:3426   */\n      dup7\n        /* \"#utility.yul\":3416:3433   */\n      add\n        /* \"#utility.yul\":3368:3447   */\n      tag_166\n      jump\t// in\n    tag_192:\n        /* \"#utility.yul\":3359:3447   */\n      swap2\n      pop\n        /* \"#utility.yul\":3175:3453   */\n      pop\n        /* \"#utility.yul\":3113:3453   */\n      swap3\n      swap2\n      pop\n      pop\n      jump\t// out\n        /* \"#utility.yul\":3459:3602   */\n    tag_193:\n        /* \"#utility.yul\":3516:3521   */\n      0x00\n        /* \"#utility.yul\":3547:3553   */\n      dup2\n        /* \"#utility.yul\":3541:3554   */\n      mload\n        /* \"#utility.yul\":3532:3554   */\n      swap1\n      pop\n        /* \"#utility.yul\":3563:3596   */\n      tag_195\n        /* \"#utility.yul\":3590:3595   */\n      dup2\n        /* \"#utility.yul\":3563:3596   */\n      tag_196\n      jump\t// in\n    tag_195:\n        /* \"#utility.yul\":3459:3602   */\n      swap3\n      swap2\n      pop\n      pop\n      jump\t// out\n        /* \"#utility.yul\":3608:3937   */\n    tag_11:\n        /* \"#utility.yul\":3667:3673   */\n      0x00\n        /* \"#utility.yul\":3716:3718   */\n      0x20\n        /* \"#utility.yul\":3704:3713   */\n      dup3\n        /* \"#utility.yul\":3695:3702   */\n      dup5\n        /* \"#utility.yul\":3691:3714   */\n      sub\n        /* \"#utility.yul\":3687:3719   */\n      slt\n        /* \"#utility.yul\":3684:3803   */\n      iszero\n      tag_198\n      jumpi\n        /* \"#utility.yul\":3722:3801   */\n      tag_199\n      tag_200\n      jump\t// in\n    tag_199:\n        /* \"#utility.yul\":3684:3803   */\n    tag_198:\n        /* \"#utility.yul\":3842:3843   */\n      0x00\n        /* \"#utility.yul\":3867:3920   */\n      tag_201\n        /* \"#utility.yul\":3912:3919   */\n      dup5\n        /* \"#utility.yul\":3903:3909   */\n      dup3\n        /* \"#utility.yul\":3892:3901   */\n      dup6\n        /* \"#utility.yul\":3888:3910   */\n      add\n        /* \"#utility.yul\":3867:3920   */\n      tag_150\n      jump\t// in\n    tag_201:\n        /* \"#utility.yul\":3857:3920   */\n      swap2\n      pop\n        /* \"#utility.yul\":3813:3930   */\n      pop\n        /* \"#utility.yul\":3608:3937   */\n      swap3\n      swap2\n      pop\n      pop\n      jump\t// out\n        /* \"#utility.yul\":3943:4482   */\n    tag_27:\n        /* \"#utility.yul\":4027:4033   */\n      0x00\n        /* \"#utility.yul\":4076:4078   */\n      0x20\n        /* \"#utility.yul\":4064:4073   */\n      dup3\n        /* \"#utility.yul\":4055:4062   */\n      dup5\n        /* \"#utility.yul\":4051:4074   */\n      sub\n        /* \"#utility.yul\":4047:4079   */\n      slt\n        /* \"#utility.yul\":4044:4163   */\n      iszero\n      tag_203\n      jumpi\n        /* \"#utility.yul\":4082:4161   */\n      tag_204\n      tag_200\n      jump\t// in\n    tag_204:\n        /* \"#utility.yul\":4044:4163   */\n    tag_203:\n        /* \"#utility.yul\":4230:4231   */\n      0x00\n        /* \"#utility.yul\":4219:4228   */\n      dup3\n        /* \"#utility.yul\":4215:4232   */\n      add\n        /* \"#utility.yul\":4202:4233   */\n      calldataload\n        /* \"#utility.yul\":4260:4278   */\n      0xffffffffffffffff\n        /* \"#utility.yul\":4252:4258   */\n      dup2\n        /* \"#utility.yul\":4249:4279   */\n      gt\n        /* \"#utility.yul\":4246:4363   */\n      iszero\n      tag_205\n      jumpi\n        /* \"#utility.yul\":4282:4361   */\n      tag_206\n      tag_207\n      jump\t// in\n    tag_206:\n        /* \"#utility.yul\":4246:4363   */\n    tag_205:\n        /* \"#utility.yul\":4387:4465   */\n      tag_208\n        /* \"#utility.yul\":4457:4464   */\n      dup5\n        /* \"#utility.yul\":4448:4454   */\n      dup3\n        /* \"#utility.yul\":4437:4446   */\n      dup6\n        /* \"#utility.yul\":4433:4455   */\n      add\n        /* \"#utility.yul\":4387:4465   */\n      tag_179\n      jump\t// in\n    tag_208:\n        /* \"#utility.yul\":4377:4465   */\n      swap2\n      pop\n        /* \"#utility.yul\":4173:4475   */\n      pop\n        /* \"#utility.yul\":3943:4482   */\n      swap3\n      swap2\n      pop\n      pop\n      jump\t// out\n        /* \"#utility.yul\":4488:5402   */\n    tag_17:\n        /* \"#utility.yul\":4616:4622   */\n      0x00\n        /* \"#utility.yul\":4624:4630   */\n      dup1\n        /* \"#utility.yul\":4673:4675   */\n      0x40\n        /* \"#utility.yul\":4661:4670   */\n      dup4\n        /* \"#utility.yul\":4652:4659   */\n      dup6\n        /* \"#utility.yul\":4648:4671   */\n      sub\n        /* \"#utility.yul\":4644:4676   */\n      slt\n        /* \"#utility.yul\":4641:4760   */\n      iszero\n      tag_210\n      jumpi\n        /* \"#utility.yul\":4679:4758   */\n      tag_211\n      tag_200\n      jump\t// in\n    tag_211:\n        /* \"#utility.yul\":4641:4760   */\n    tag_210:\n        /* \"#utility.yul\":4827:4828   */\n      0x00\n        /* \"#utility.yul\":4816:4825   */\n      dup4\n        /* \"#utility.yul\":4812:4829   */\n      add\n        /* \"#utility.yul\":4799:4830   */\n      calldataload\n        /* \"#utility.yul\":4857:4875   */\n      0xffffffffffffffff\n        /* \"#utility.yul\":4849:4855   */\n      dup2\n        /* \"#utility.yul\":4846:4876   */\n      gt\n        /* \"#utility.yul\":4843:4960   */\n      iszero\n      tag_212\n      jumpi\n        /* \"#utility.yul\":4879:4958   */\n      tag_213\n      tag_207\n      jump\t// in\n    tag_213:\n        /* \"#utility.yul\":4843:4960   */\n    tag_212:\n        /* \"#utility.yul\":4984:5062   */\n      tag_214\n        /* \"#utility.yul\":5054:5061   */\n      dup6\n        /* \"#utility.yul\":5045:5051   */\n      dup3\n        /* \"#utility.yul\":5034:5043   */\n      dup7\n        /* \"#utility.yul\":5030:5052   */\n      add\n        /* \"#utility.yul\":4984:5062   */\n      tag_179\n      jump\t// in\n    tag_214:\n        /* \"#utility.yul\":4974:5062   */\n      swap3\n      pop\n        /* \"#utility.yul\":4770:5072   */\n      pop\n        /* \"#utility.yul\":5139:5141   */\n      0x20\n        /* \"#utility.yul\":5128:5137   */\n      dup4\n        /* \"#utility.yul\":5124:5142   */\n      add\n        /* \"#utility.yul\":5111:5143   */\n      calldataload\n        /* \"#utility.yul\":5170:5188   */\n      0xffffffffffffffff\n        /* \"#utility.yul\":5162:5168   */\n      dup2\n        /* \"#utility.yul\":5159:5189   */\n      gt\n        /* \"#utility.yul\":5156:5273   */\n      iszero\n      tag_215\n      jumpi\n        /* \"#utility.yul\":5192:5271   */\n      tag_216\n      tag_207\n      jump\t// in\n    tag_216:\n        /* \"#utility.yul\":5156:5273   */\n    tag_215:\n        /* \"#utility.yul\":5297:5385   */\n      tag_217\n        /* \"#utility.yul\":5377:5384   */\n      dup6\n        /* \"#utility.yul\":5368:5374   */\n      dup3\n        /* \"#utility.yul\":5357:5366   */\n      dup7\n        /* \"#utility.yul\":5353:5375   */\n      add\n        /* \"#utility.yul\":5297:5385   */\n      tag_184\n      jump\t// in\n    tag_217:\n        /* \"#utility.yul\":5287:5385   */\n      swap2\n      pop\n        /* \"#utility.yul\":5082:5395   */\n      pop\n        /* \"#utility.yul\":4488:5402   */\n      swap3\n      pop\n      swap3\n      swap1\n      pop\n      jump\t// out\n        /* \"#utility.yul\":5408:5759   */\n    tag_44:\n        /* \"#utility.yul\":5478:5484   */\n      0x00\n        /* \"#utility.yul\":5527:5529   */\n      0x20\n        /* \"#utility.yul\":5515:5524   */\n      dup3\n        /* \"#utility.yul\":5506:5513   */\n      dup5\n        /* \"#utility.yul\":5502:5525   */\n      sub\n        /* \"#utility.yul\":5498:5530   */\n      slt\n        /* \"#utility.yul\":5495:5614   */\n      iszero\n      tag_219\n      jumpi\n        /* \"#utility.yul\":5533:5612   */\n      tag_220\n      tag_200\n      jump\t// in\n    tag_220:\n        /* \"#utility.yul\":5495:5614   */\n    tag_219:\n        /* \"#utility.yul\":5653:5654   */\n      0x00\n        /* \"#utility.yul\":5678:5742   */\n      tag_221\n        /* \"#utility.yul\":5734:5741   */\n      dup5\n        /* \"#utility.yul\":5725:5731   */\n      dup3\n        /* \"#utility.yul\":5714:5723   */\n      dup6\n        /* \"#utility.yul\":5710:5732   */\n      add\n        /* \"#utility.yul\":5678:5742   */\n      tag_193\n      jump\t// in\n    tag_221:\n        /* \"#utility.yul\":5668:5742   */\n      swap2\n      pop\n        /* \"#utility.yul\":5624:5752   */\n      pop\n        /* \"#utility.yul\":5408:5759   */\n      swap3\n      swap2\n      pop\n      pop\n      jump\t// out\n        /* \"#utility.yul\":5765:5883   */\n    tag_222:\n        /* \"#utility.yul\":5852:5876   */\n      tag_224\n        /* \"#utility.yul\":5870:5875   */\n      dup2\n        /* \"#utility.yul\":5852:5876   */\n      tag_225\n      jump\t// in\n    tag_224:\n        /* \"#utility.yul\":5847:5850   */\n      dup3\n        /* \"#utility.yul\":5840:5877   */\n      mstore\n        /* \"#utility.yul\":5765:5883   */\n      pop\n      pop\n      jump\t// out\n        /* \"#utility.yul\":5889:6036   */\n    tag_226:\n        /* \"#utility.yul\":5984:6029   */\n      tag_228\n        /* \"#utility.yul\":6023:6028   */\n      dup2\n        /* \"#utility.yul\":5984:6029   */\n      tag_229\n      jump\t// in\n    tag_228:\n        /* \"#utility.yul\":5979:5982   */\n      dup3\n        /* \"#utility.yul\":5972:6030   */\n      mstore\n        /* \"#utility.yul\":5889:6036   */\n      pop\n      pop\n      jump\t// out\n        /* \"#utility.yul\":6042:6408   */\n    tag_230:\n        /* \"#utility.yul\":6184:6187   */\n      0x00\n        /* \"#utility.yul\":6205:6272   */\n      tag_232\n        /* \"#utility.yul\":6269:6271   */\n      0x14\n        /* \"#utility.yul\":6264:6267   */\n      dup4\n        /* \"#utility.yul\":6205:6272   */\n      tag_233\n      jump\t// in\n    tag_232:\n        /* \"#utility.yul\":6198:6272   */\n      swap2\n      pop\n        /* \"#utility.yul\":6281:6374   */\n      tag_234\n        /* \"#utility.yul\":6370:6373   */\n      dup3\n        /* \"#utility.yul\":6281:6374   */\n      tag_235\n      jump\t// in\n    tag_234:\n        /* \"#utility.yul\":6399:6401   */\n      0x20\n        /* \"#utility.yul\":6394:6397   */\n      dup3\n        /* \"#utility.yul\":6390:6402   */\n      add\n        /* \"#utility.yul\":6383:6402   */\n      swap1\n      pop\n        /* \"#utility.yul\":6042:6408   */\n      swap2\n      swap1\n      pop\n      jump\t// out\n        /* \"#utility.yul\":6414:6780   */\n    tag_236:\n        /* \"#utility.yul\":6556:6559   */\n      0x00\n        /* \"#utility.yul\":6577:6644   */\n      tag_238\n        /* \"#utility.yul\":6641:6643   */\n      0x11\n        /* \"#utility.yul\":6636:6639   */\n      dup4\n        /* \"#utility.yul\":6577:6644   */\n      tag_233\n      jump\t// in\n    tag_238:\n        /* \"#utility.yul\":6570:6644   */\n      swap2\n      pop\n        /* \"#utility.yul\":6653:6746   */\n      tag_239\n        /* \"#utility.yul\":6742:6745   */\n      dup3\n        /* \"#utility.yul\":6653:6746   */\n      tag_240\n      jump\t// in\n    tag_239:\n        /* \"#utility.yul\":6771:6773   */\n      0x20\n        /* \"#utility.yul\":6766:6769   */\n      dup3\n        /* \"#utility.yul\":6762:6774   */\n      add\n        /* \"#utility.yul\":6755:6774   */\n      swap1\n      pop\n        /* \"#utility.yul\":6414:6780   */\n      swap2\n      swap1\n      pop\n      jump\t// out\n        /* \"#utility.yul\":6786:7152   */\n    tag_241:\n        /* \"#utility.yul\":6928:6931   */\n      0x00\n        /* \"#utility.yul\":6949:7016   */\n      tag_243\n        /* \"#utility.yul\":7013:7015   */\n      0x14\n        /* \"#utility.yul\":7008:7011   */\n      dup4\n        /* \"#utility.yul\":6949:7016   */\n      tag_233\n      jump\t// in\n    tag_243:\n        /* \"#utility.yul\":6942:7016   */\n      swap2\n      pop\n        /* \"#utility.yul\":7025:7118   */\n      tag_244\n        /* \"#utility.yul\":7114:7117   */\n      dup3\n        /* \"#utility.yul\":7025:7118   */\n      tag_245\n      jump\t// in\n    tag_244:\n        /* \"#utility.yul\":7143:7145   */\n      0x20\n        /* \"#utility.yul\":7138:7141   */\n      dup3\n        /* \"#utility.yul\":7134:7146   */\n      add\n        /* \"#utility.yul\":7127:7146   */\n      swap1\n      pop\n        /* \"#utility.yul\":6786:7152   */\n      swap2\n      swap1\n      pop\n      jump\t// out\n        /* \"#utility.yul\":7158:7524   */\n    tag_246:\n        /* \"#utility.yul\":7300:7303   */\n      0x00\n        /* \"#utility.yul\":7321:7388   */\n      tag_248\n        /* \"#utility.yul\":7385:7387   */\n      0x14\n        /* \"#utility.yul\":7380:7383   */\n      dup4\n        /* \"#utility.yul\":7321:7388   */\n      tag_233\n      jump\t// in\n    tag_248:\n        /* \"#utility.yul\":7314:7388   */\n      swap2\n      pop\n        /* \"#utility.yul\":7397:7490   */\n      tag_249\n        /* \"#utility.yul\":7486:7489   */\n      dup3\n        /* \"#utility.yul\":7397:7490   */\n      tag_250\n      jump\t// in\n    tag_249:\n        /* \"#utility.yul\":7515:7517   */\n      0x20\n        /* \"#utility.yul\":7510:7513   */\n      dup3\n        /* \"#utility.yul\":7506:7518   */\n      add\n        /* \"#utility.yul\":7499:7518   */\n      swap1\n      pop\n        /* \"#utility.yul\":7158:7524   */\n      swap2\n      swap1\n      pop\n      jump\t// out\n        /* \"#utility.yul\":7530:7896   */\n    tag_251:\n        /* \"#utility.yul\":7672:7675   */\n      0x00\n        /* \"#utility.yul\":7693:7760   */\n      tag_253\n        /* \"#utility.yul\":7757:7759   */\n      0x17\n        /* \"#utility.yul\":7752:7755   */\n      dup4\n        /* \"#utility.yul\":7693:7760   */\n      tag_233\n      jump\t// in\n    tag_253:\n        /* \"#utility.yul\":7686:7760   */\n      swap2\n      pop\n        /* \"#utility.yul\":7769:7862   */\n      tag_254\n        /* \"#utility.yul\":7858:7861   */\n      dup3\n        /* \"#utility.yul\":7769:7862   */\n      tag_255\n      jump\t// in\n    tag_254:\n        /* \"#utility.yul\":7887:7889   */\n      0x20\n        /* \"#utility.yul\":7882:7885   */\n      dup3\n        /* \"#utility.yul\":7878:7890   */\n      add\n        /* \"#utility.yul\":7871:7890   */\n      swap1\n      pop\n        /* \"#utility.yul\":7530:7896   */\n      swap2\n      swap1\n      pop\n      jump\t// out\n        /* \"#utility.yul\":7902:8020   */\n    tag_256:\n        /* \"#utility.yul\":7989:8013   */\n      tag_258\n        /* \"#utility.yul\":8007:8012   */\n      dup2\n        /* \"#utility.yul\":7989:8013   */\n      tag_259\n      jump\t// in\n    tag_258:\n        /* \"#utility.yul\":7984:7987   */\n      dup3\n        /* \"#utility.yul\":7977:8014   */\n      mstore\n        /* \"#utility.yul\":7902:8020   */\n      pop\n      pop\n      jump\t// out\n        /* \"#utility.yul\":8026:8248   */\n    tag_39:\n        /* \"#utility.yul\":8119:8123   */\n      0x00\n        /* \"#utility.yul\":8157:8159   */\n      0x20\n        /* \"#utility.yul\":8146:8155   */\n      dup3\n        /* \"#utility.yul\":8142:8160   */\n      add\n        /* \"#utility.yul\":8134:8160   */\n      swap1\n      pop\n        /* \"#utility.yul\":8170:8241   */\n      tag_261\n        /* \"#utility.yul\":8238:8239   */\n      0x00\n        /* \"#utility.yul\":8227:8236   */\n      dup4\n        /* \"#utility.yul\":8223:8240   */\n      add\n        /* \"#utility.yul\":8214:8220   */\n      dup5\n        /* \"#utility.yul\":8170:8241   */\n      tag_222\n      jump\t// in\n    tag_261:\n        /* \"#utility.yul\":8026:8248   */\n      swap3\n      swap2\n      pop\n      pop\n      jump\t// out\n        /* \"#utility.yul\":8254:8602   */\n    tag_69:\n        /* \"#utility.yul\":8383:8387   */\n      0x00\n        /* \"#utility.yul\":8421:8423   */\n      0x40\n        /* \"#utility.yul\":8410:8419   */\n      dup3\n        /* \"#utility.yul\":8406:8424   */\n      add\n        /* \"#utility.yul\":8398:8424   */\n      swap1\n      pop\n        /* \"#utility.yul\":8434:8505   */\n      tag_263\n        /* \"#utility.yul\":8502:8503   */\n      0x00\n        /* \"#utility.yul\":8491:8500   */\n      dup4\n        /* \"#utility.yul\":8487:8504   */\n      add\n        /* \"#utility.yul\":8478:8484   */\n      dup6\n        /* \"#utility.yul\":8434:8505   */\n      tag_222\n      jump\t// in\n    tag_263:\n        /* \"#utility.yul\":8515:8595   */\n      tag_264\n        /* \"#utility.yul\":8591:8593   */\n      0x20\n        /* \"#utility.yul\":8580:8589   */\n      dup4\n        /* \"#utility.yul\":8576:8594   */\n      add\n        /* \"#utility.yul\":8567:8573   */\n      dup5\n        /* \"#utility.yul\":8515:8595   */\n      tag_226\n      jump\t// in\n    tag_264:\n        /* \"#utility.yul\":8254:8602   */\n      swap4\n      swap3\n      pop\n      pop\n      pop\n      jump\t// out\n        /* \"#utility.yul\":8608:8940   */\n    tag_96:\n        /* \"#utility.yul\":8729:8733   */\n      0x00\n        /* \"#utility.yul\":8767:8769   */\n      0x40\n        /* \"#utility.yul\":8756:8765   */\n      dup3\n        /* \"#utility.yul\":8752:8770   */\n      add\n        /* \"#utility.yul\":8744:8770   */\n      swap1\n      pop\n        /* \"#utility.yul\":8780:8851   */\n      tag_266\n        /* \"#utility.yul\":8848:8849   */\n      0x00\n        /* \"#utility.yul\":8837:8846   */\n      dup4\n        /* \"#utility.yul\":8833:8850   */\n      add\n        /* \"#utility.yul\":8824:8830   */\n      dup6\n        /* \"#utility.yul\":8780:8851   */\n      tag_222\n      jump\t// in\n    tag_266:\n        /* \"#utility.yul\":8861:8933   */\n      tag_267\n        /* \"#utility.yul\":8929:8931   */\n      0x20\n        /* \"#utility.yul\":8918:8927   */\n      dup4\n        /* \"#utility.yul\":8914:8932   */\n      add\n        /* \"#utility.yul\":8905:8911   */\n      dup5\n        /* \"#utility.yul\":8861:8933   */\n      tag_256\n      jump\t// in\n    tag_267:\n        /* \"#utility.yul\":8608:8940   */\n      swap4\n      swap3\n      pop\n      pop\n      pop\n      jump\t// out\n        /* \"#utility.yul\":8946:9365   */\n    tag_51:\n        /* \"#utility.yul\":9112:9116   */\n      0x00\n        /* \"#utility.yul\":9150:9152   */\n      0x20\n        /* \"#utility.yul\":9139:9148   */\n      dup3\n        /* \"#utility.yul\":9135:9153   */\n      add\n        /* \"#utility.yul\":9127:9153   */\n      swap1\n      pop\n        /* \"#utility.yul\":9199:9208   */\n      dup2\n        /* \"#utility.yul\":9193:9197   */\n      dup2\n        /* \"#utility.yul\":9189:9209   */\n      sub\n        /* \"#utility.yul\":9185:9186   */\n      0x00\n        /* \"#utility.yul\":9174:9183   */\n      dup4\n        /* \"#utility.yul\":9170:9187   */\n      add\n        /* \"#utility.yul\":9163:9210   */\n      mstore\n        /* \"#utility.yul\":9227:9358   */\n      tag_269\n        /* \"#utility.yul\":9353:9357   */\n      dup2\n        /* \"#utility.yul\":9227:9358   */\n      tag_230\n      jump\t// in\n    tag_269:\n        /* \"#utility.yul\":9219:9358   */\n      swap1\n      pop\n        /* \"#utility.yul\":8946:9365   */\n      swap2\n      swap1\n      pop\n      jump\t// out\n        /* \"#utility.yul\":9371:9790   */\n    tag_77:\n        /* \"#utility.yul\":9537:9541   */\n      0x00\n        /* \"#utility.yul\":9575:9577   */\n      0x20\n        /* \"#utility.yul\":9564:9573   */\n      dup3\n        /* \"#utility.yul\":9560:9578   */\n      add\n        /* \"#utility.yul\":9552:9578   */\n      swap1\n      pop\n        /* \"#utility.yul\":9624:9633   */\n      dup2\n        /* \"#utility.yul\":9618:9622   */\n      dup2\n        /* \"#utility.yul\":9614:9634   */\n      sub\n        /* \"#utility.yul\":9610:9611   */\n      0x00\n        /* \"#utility.yul\":9599:9608   */\n      dup4\n        /* \"#utility.yul\":9595:9612   */\n      add\n        /* \"#utility.yul\":9588:9635   */\n      mstore\n        /* \"#utility.yul\":9652:9783   */\n      tag_271\n        /* \"#utility.yul\":9778:9782   */\n      dup2\n        /* \"#utility.yul\":9652:9783   */\n      tag_236\n      jump\t// in\n    tag_271:\n        /* \"#utility.yul\":9644:9783   */\n      swap1\n      pop\n        /* \"#utility.yul\":9371:9790   */\n      swap2\n      swap1\n      pop\n      jump\t// out\n        /* \"#utility.yul\":9796:10215   */\n    tag_89:\n        /* \"#utility.yul\":9962:9966   */\n      0x00\n        /* \"#utility.yul\":10000:10002   */\n      0x20\n        /* \"#utility.yul\":9989:9998   */\n      dup3\n        /* \"#utility.yul\":9985:10003   */\n      add\n        /* \"#utility.yul\":9977:10003   */\n      swap1\n      pop\n        /* \"#utility.yul\":10049:10058   */\n      dup2\n        /* \"#utility.yul\":10043:10047   */\n      dup2\n        /* \"#utility.yul\":10039:10059   */\n      sub\n        /* \"#utility.yul\":10035:10036   */\n      0x00\n        /* \"#utility.yul\":10024:10033   */\n      dup4\n        /* \"#utility.yul\":10020:10037   */\n      add\n        /* \"#utility.yul\":10013:10060   */\n      mstore\n        /* \"#utility.yul\":10077:10208   */\n      tag_273\n        /* \"#utility.yul\":10203:10207   */\n      dup2\n        /* \"#utility.yul\":10077:10208   */\n      tag_241\n      jump\t// in\n    tag_273:\n        /* \"#utility.yul\":10069:10208   */\n      swap1\n      pop\n        /* \"#utility.yul\":9796:10215   */\n      swap2\n      swap1\n      pop\n      jump\t// out\n        /* \"#utility.yul\":10221:10640   */\n    tag_86:\n        /* \"#utility.yul\":10387:10391   */\n      0x00\n        /* \"#utility.yul\":10425:10427   */\n      0x20\n        /* \"#utility.yul\":10414:10423   */\n      dup3\n        /* \"#utility.yul\":10410:10428   */\n      add\n        /* \"#utility.yul\":10402:10428   */\n      swap1\n      pop\n        /* \"#utility.yul\":10474:10483   */\n      dup2\n        /* \"#utility.yul\":10468:10472   */\n      dup2\n        /* \"#utility.yul\":10464:10484   */\n      sub\n        /* \"#utility.yul\":10460:10461   */\n      0x00\n        /* \"#utility.yul\":10449:10458   */\n      dup4\n        /* \"#utility.yul\":10445:10462   */\n      add\n        /* \"#utility.yul\":10438:10485   */\n      mstore\n        /* \"#utility.yul\":10502:10633   */\n      tag_275\n        /* \"#utility.yul\":10628:10632   */\n      dup2\n        /* \"#utility.yul\":10502:10633   */\n      tag_246\n      jump\t// in\n    tag_275:\n        /* \"#utility.yul\":10494:10633   */\n      swap1\n      pop\n        /* \"#utility.yul\":10221:10640   */\n      swap2\n      swap1\n      pop\n      jump\t// out\n        /* \"#utility.yul\":10646:11065   */\n    tag_35:\n        /* \"#utility.yul\":10812:10816   */\n      0x00\n        /* \"#utility.yul\":10850:10852   */\n      0x20\n        /* \"#utility.yul\":10839:10848   */\n      dup3\n        /* \"#utility.yul\":10835:10853   */\n      add\n        /* \"#utility.yul\":10827:10853   */\n      swap1\n      pop\n        /* \"#utility.yul\":10899:10908   */\n      dup2\n        /* \"#utility.yul\":10893:10897   */\n      dup2\n        /* \"#utility.yul\":10889:10909   */\n      sub\n        /* \"#utility.yul\":10885:10886   */\n      0x00\n        /* \"#utility.yul\":10874:10883   */\n      dup4\n        /* \"#utility.yul\":10870:10887   */\n      add\n        /* \"#utility.yul\":10863:10910   */\n      mstore\n        /* \"#utility.yul\":10927:11058   */\n      tag_277\n        /* \"#utility.yul\":11053:11057   */\n      dup2\n        /* \"#utility.yul\":10927:11058   */\n      tag_251\n      jump\t// in\n    tag_277:\n        /* \"#utility.yul\":10919:11058   */\n      swap1\n      pop\n        /* \"#utility.yul\":10646:11065   */\n      swap2\n      swap1\n      pop\n      jump\t// out\n        /* \"#utility.yul\":11071:11293   */\n    tag_14:\n        /* \"#utility.yul\":11164:11168   */\n      0x00\n        /* \"#utility.yul\":11202:11204   */\n      0x20\n        /* \"#utility.yul\":11191:11200   */\n      dup3\n        /* \"#utility.yul\":11187:11205   */\n      add\n        /* \"#utility.yul\":11179:11205   */\n      swap1\n      pop\n        /* \"#utility.yul\":11215:11286   */\n      tag_279\n        /* \"#utility.yul\":11283:11284   */\n      0x00\n        /* \"#utility.yul\":11272:11281   */\n      dup4\n        /* \"#utility.yul\":11268:11285   */\n      add\n        /* \"#utility.yul\":11259:11265   */\n      dup5\n        /* \"#utility.yul\":11215:11286   */\n      tag_256\n      jump\t// in\n    tag_279:\n        /* \"#utility.yul\":11071:11293   */\n      swap3\n      swap2\n      pop\n      pop\n      jump\t// out\n        /* \"#utility.yul\":11299:11428   */\n    tag_142:\n        /* \"#utility.yul\":11333:11339   */\n      0x00\n        /* \"#utility.yul\":11360:11380   */\n      tag_281\n      tag_282\n      jump\t// in\n    tag_281:\n        /* \"#utility.yul\":11350:11380   */\n      swap1\n      pop\n        /* \"#utility.yul\":11389:11422   */\n      tag_283\n        /* \"#utility.yul\":11417:11421   */\n      dup3\n        /* \"#utility.yul\":11409:11415   */\n      dup3\n        /* \"#utility.yul\":11389:11422   */\n      tag_284\n      jump\t// in\n    tag_283:\n        /* \"#utility.yul\":11299:11428   */\n      swap2\n      swap1\n      pop\n      jump\t// out\n        /* \"#utility.yul\":11434:11509   */\n    tag_282:\n        /* \"#utility.yul\":11467:11473   */\n      0x00\n        /* \"#utility.yul\":11500:11502   */\n      0x40\n        /* \"#utility.yul\":11494:11503   */\n      mload\n        /* \"#utility.yul\":11484:11503   */\n      swap1\n      pop\n        /* \"#utility.yul\":11434:11509   */\n      swap1\n      jump\t// out\n        /* \"#utility.yul\":11515:11826   */\n    tag_141:\n        /* \"#utility.yul\":11592:11596   */\n      0x00\n        /* \"#utility.yul\":11682:11700   */\n      0xffffffffffffffff\n        /* \"#utility.yul\":11674:11680   */\n      dup3\n        /* \"#utility.yul\":11671:11701   */\n      gt\n        /* \"#utility.yul\":11668:11724   */\n      iszero\n      tag_287\n      jumpi\n        /* \"#utility.yul\":11704:11722   */\n      tag_288\n      tag_289\n      jump\t// in\n    tag_288:\n        /* \"#utility.yul\":11668:11724   */\n    tag_287:\n        /* \"#utility.yul\":11754:11758   */\n      0x20\n        /* \"#utility.yul\":11746:11752   */\n      dup3\n        /* \"#utility.yul\":11742:11759   */\n      mul\n        /* \"#utility.yul\":11734:11759   */\n      swap1\n      pop\n        /* \"#utility.yul\":11814:11818   */\n      0x20\n        /* \"#utility.yul\":11808:11812   */\n      dup2\n        /* \"#utility.yul\":11804:11819   */\n      add\n        /* \"#utility.yul\":11796:11819   */\n      swap1\n      pop\n        /* \"#utility.yul\":11515:11826   */\n      swap2\n      swap1\n      pop\n      jump\t// out\n        /* \"#utility.yul\":11832:12153   */\n    tag_155:\n        /* \"#utility.yul\":11919:11923   */\n      0x00\n        /* \"#utility.yul\":12009:12027   */\n      0xffffffffffffffff\n        /* \"#utility.yul\":12001:12007   */\n      dup3\n        /* \"#utility.yul\":11998:12028   */\n      gt\n        /* \"#utility.yul\":11995:12051   */\n      iszero\n      tag_291\n      jumpi\n        /* \"#utility.yul\":12031:12049   */\n      tag_292\n      tag_289\n      jump\t// in\n    tag_292:\n        /* \"#utility.yul\":11995:12051   */\n    tag_291:\n        /* \"#utility.yul\":12081:12085   */\n      0x20\n        /* \"#utility.yul\":12073:12079   */\n      dup3\n        /* \"#utility.yul\":12069:12086   */\n      mul\n        /* \"#utility.yul\":12061:12086   */\n      swap1\n      pop\n        /* \"#utility.yul\":12141:12145   */\n      0x20\n        /* \"#utility.yul\":12135:12139   */\n      dup2\n        /* \"#utility.yul\":12131:12146   */\n      add\n        /* \"#utility.yul\":12123:12146   */\n      swap1\n      pop\n        /* \"#utility.yul\":11832:12153   */\n      swap2\n      swap1\n      pop\n      jump\t// out\n        /* \"#utility.yul\":12159:12467   */\n    tag_170:\n        /* \"#utility.yul\":12221:12225   */\n      0x00\n        /* \"#utility.yul\":12311:12329   */\n      0xffffffffffffffff\n        /* \"#utility.yul\":12303:12309   */\n      dup3\n        /* \"#utility.yul\":12300:12330   */\n      gt\n        /* \"#utility.yul\":12297:12353   */\n      iszero\n      tag_294\n      jumpi\n        /* \"#utility.yul\":12333:12351   */\n      tag_295\n      tag_289\n      jump\t// in\n    tag_295:\n        /* \"#utility.yul\":12297:12353   */\n    tag_294:\n        /* \"#utility.yul\":12371:12400   */\n      tag_296\n        /* \"#utility.yul\":12393:12399   */\n      dup3\n        /* \"#utility.yul\":12371:12400   */\n      tag_297\n      jump\t// in\n    tag_296:\n        /* \"#utility.yul\":12363:12400   */\n      swap1\n      pop\n        /* \"#utility.yul\":12455:12459   */\n      0x20\n        /* \"#utility.yul\":12449:12453   */\n      dup2\n        /* \"#utility.yul\":12445:12460   */\n      add\n        /* \"#utility.yul\":12437:12460   */\n      swap1\n      pop\n        /* \"#utility.yul\":12159:12467   */\n      swap2\n      swap1\n      pop\n      jump\t// out\n        /* \"#utility.yul\":12473:12642   */\n    tag_233:\n        /* \"#utility.yul\":12557:12568   */\n      0x00\n        /* \"#utility.yul\":12591:12597   */\n      dup3\n        /* \"#utility.yul\":12586:12589   */\n      dup3\n        /* \"#utility.yul\":12579:12598   */\n      mstore\n        /* \"#utility.yul\":12631:12635   */\n      0x20\n        /* \"#utility.yul\":12626:12629   */\n      dup3\n        /* \"#utility.yul\":12622:12636   */\n      add\n        /* \"#utility.yul\":12607:12636   */\n      swap1\n      pop\n        /* \"#utility.yul\":12473:12642   */\n      swap3\n      swap2\n      pop\n      pop\n      jump\t// out\n        /* \"#utility.yul\":12648:12744   */\n    tag_225:\n        /* \"#utility.yul\":12685:12692   */\n      0x00\n        /* \"#utility.yul\":12714:12738   */\n      tag_300\n        /* \"#utility.yul\":12732:12737   */\n      dup3\n        /* \"#utility.yul\":12714:12738   */\n      tag_301\n      jump\t// in\n    tag_300:\n        /* \"#utility.yul\":12703:12738   */\n      swap1\n      pop\n        /* \"#utility.yul\":12648:12744   */\n      swap2\n      swap1\n      pop\n      jump\t// out\n        /* \"#utility.yul\":12750:12876   */\n    tag_301:\n        /* \"#utility.yul\":12787:12794   */\n      0x00\n        /* \"#utility.yul\":12827:12869   */\n      0xffffffffffffffffffffffffffffffffffffffff\n        /* \"#utility.yul\":12820:12825   */\n      dup3\n        /* \"#utility.yul\":12816:12870   */\n      and\n        /* \"#utility.yul\":12805:12870   */\n      swap1\n      pop\n        /* \"#utility.yul\":12750:12876   */\n      swap2\n      swap1\n      pop\n      jump\t// out\n        /* \"#utility.yul\":12882:12959   */\n    tag_259:\n        /* \"#utility.yul\":12919:12926   */\n      0x00\n        /* \"#utility.yul\":12948:12953   */\n      dup2\n        /* \"#utility.yul\":12937:12953   */\n      swap1\n      pop\n        /* \"#utility.yul\":12882:12959   */\n      swap2\n      swap1\n      pop\n      jump\t// out\n        /* \"#utility.yul\":12965:13086   */\n    tag_229:\n        /* \"#utility.yul\":13023:13032   */\n      0x00\n        /* \"#utility.yul\":13056:13080   */\n      tag_305\n        /* \"#utility.yul\":13074:13079   */\n      dup3\n        /* \"#utility.yul\":13056:13080   */\n      tag_259\n      jump\t// in\n    tag_305:\n        /* \"#utility.yul\":13043:13080   */\n      swap1\n      pop\n        /* \"#utility.yul\":12965:13086   */\n      swap2\n      swap1\n      pop\n      jump\t// out\n        /* \"#utility.yul\":13092:13246   */\n    tag_175:\n        /* \"#utility.yul\":13176:13182   */\n      dup3\n        /* \"#utility.yul\":13171:13174   */\n      dup2\n        /* \"#utility.yul\":13166:13169   */\n      dup4\n        /* \"#utility.yul\":13153:13183   */\n      calldatacopy\n        /* \"#utility.yul\":13238:13239   */\n      0x00\n        /* \"#utility.yul\":13229:13235   */\n      dup4\n        /* \"#utility.yul\":13224:13227   */\n      dup4\n        /* \"#utility.yul\":13220:13236   */\n      add\n        /* \"#utility.yul\":13213:13240   */\n      mstore\n        /* \"#utility.yul\":13092:13246   */\n      pop\n      pop\n      pop\n      jump\t// out\n        /* \"#utility.yul\":13252:13572   */\n    tag_126:\n        /* \"#utility.yul\":13296:13302   */\n      0x00\n        /* \"#utility.yul\":13333:13334   */\n      0x02\n        /* \"#utility.yul\":13327:13331   */\n      dup3\n        /* \"#utility.yul\":13323:13335   */\n      div\n        /* \"#utility.yul\":13313:13335   */\n      swap1\n      pop\n        /* \"#utility.yul\":13380:13381   */\n      0x01\n        /* \"#utility.yul\":13374:13378   */\n      dup3\n        /* \"#utility.yul\":13370:13382   */\n      and\n        /* \"#utility.yul\":13401:13419   */\n      dup1\n        /* \"#utility.yul\":13391:13472   */\n      tag_308\n      jumpi\n        /* \"#utility.yul\":13457:13461   */\n      0x7f\n        /* \"#utility.yul\":13449:13455   */\n      dup3\n        /* \"#utility.yul\":13445:13462   */\n      and\n        /* \"#utility.yul\":13435:13462   */\n      swap2\n      pop\n        /* \"#utility.yul\":13391:13472   */\n    tag_308:\n        /* \"#utility.yul\":13519:13521   */\n      0x20\n        /* \"#utility.yul\":13511:13517   */\n      dup3\n        /* \"#utility.yul\":13508:13522   */\n      lt\n        /* \"#utility.yul\":13488:13506   */\n      dup2\n        /* \"#utility.yul\":13485:13523   */\n      eq\n        /* \"#utility.yul\":13482:13566   */\n      iszero\n      tag_309\n      jumpi\n        /* \"#utility.yul\":13538:13556   */\n      tag_310\n      tag_311\n      jump\t// in\n    tag_310:\n        /* \"#utility.yul\":13482:13566   */\n    tag_309:\n        /* \"#utility.yul\":13303:13572   */\n      pop\n        /* \"#utility.yul\":13252:13572   */\n      swap2\n      swap1\n      pop\n      jump\t// out\n        /* \"#utility.yul\":13578:13859   */\n    tag_284:\n        /* \"#utility.yul\":13661:13688   */\n      tag_313\n        /* \"#utility.yul\":13683:13687   */\n      dup3\n        /* \"#utility.yul\":13661:13688   */\n      tag_297\n      jump\t// in\n    tag_313:\n        /* \"#utility.yul\":13653:13659   */\n      dup2\n        /* \"#utility.yul\":13649:13689   */\n      add\n        /* \"#utility.yul\":13791:13797   */\n      dup2\n        /* \"#utility.yul\":13779:13789   */\n      dup2\n        /* \"#utility.yul\":13776:13798   */\n      lt\n        /* \"#utility.yul\":13755:13773   */\n      0xffffffffffffffff\n        /* \"#utility.yul\":13743:13753   */\n      dup3\n        /* \"#utility.yul\":13740:13774   */\n      gt\n        /* \"#utility.yul\":13737:13799   */\n      or\n        /* \"#utility.yul\":13734:13822   */\n      iszero\n      tag_314\n      jumpi\n        /* \"#utility.yul\":13802:13820   */\n      tag_315\n      tag_289\n      jump\t// in\n    tag_315:\n        /* \"#utility.yul\":13734:13822   */\n    tag_314:\n        /* \"#utility.yul\":13842:13852   */\n      dup1\n        /* \"#utility.yul\":13838:13840   */\n      0x40\n        /* \"#utility.yul\":13831:13853   */\n      mstore\n        /* \"#utility.yul\":13621:13859   */\n      pop\n        /* \"#utility.yul\":13578:13859   */\n      pop\n      pop\n      jump\t// out\n        /* \"#utility.yul\":13865:14098   */\n    tag_63:\n        /* \"#utility.yul\":13904:13907   */\n      0x00\n        /* \"#utility.yul\":13927:13951   */\n      tag_317\n        /* \"#utility.yul\":13945:13950   */\n      dup3\n        /* \"#utility.yul\":13927:13951   */\n      tag_259\n      jump\t// in\n    tag_317:\n        /* \"#utility.yul\":13918:13951   */\n      swap2\n      pop\n        /* \"#utility.yul\":13973:14039   */\n      0xffffffffffffffffffffffffffffffffffffffffffffffffffffffffffffffff\n        /* \"#utility.yul\":13966:13971   */\n      dup3\n        /* \"#utility.yul\":13963:14040   */\n      eq\n        /* \"#utility.yul\":13960:14063   */\n      iszero\n      tag_318\n      jumpi\n        /* \"#utility.yul\":14043:14061   */\n      tag_319\n      tag_320\n      jump\t// in\n    tag_319:\n        /* \"#utility.yul\":13960:14063   */\n    tag_318:\n        /* \"#utility.yul\":14090:14091   */\n      0x01\n        /* \"#utility.yul\":14083:14088   */\n      dup3\n        /* \"#utility.yul\":14079:14092   */\n      add\n        /* \"#utility.yul\":14072:14092   */\n      swap1\n      pop\n        /* \"#utility.yul\":13865:14098   */\n      swap2\n      swap1\n      pop\n      jump\t// out\n        /* \"#utility.yul\":14104:14284   */\n    tag_320:\n        /* \"#utility.yul\":14152:14229   */\n      0x4e487b7100000000000000000000000000000000000000000000000000000000\n        /* \"#utility.yul\":14149:14150   */\n      0x00\n        /* \"#utility.yul\":14142:14230   */\n      mstore\n        /* \"#utility.yul\":14249:14253   */\n      0x11\n        /* \"#utility.yul\":14246:14247   */\n      0x04\n        /* \"#utility.yul\":14239:14254   */\n      mstore\n        /* \"#utility.yul\":14273:14277   */\n      0x24\n        /* \"#utility.yul\":14270:14271   */\n      0x00\n        /* \"#utility.yul\":14263:14278   */\n      revert\n        /* \"#utility.yul\":14290:14470   */\n    tag_311:\n        /* \"#utility.yul\":14338:14415   */\n      0x4e487b7100000000000000000000000000000000000000000000000000000000\n        /* \"#utility.yul\":14335:14336   */\n      0x00\n        /* \"#utility.yul\":14328:14416   */\n      mstore\n        /* \"#utility.yul\":14435:14439   */\n      0x22\n        /* \"#utility.yul\":14432:14433   */\n      0x04\n        /* \"#utility.yul\":14425:14440   */\n      mstore\n        /* \"#utility.yul\":14459:14463   */\n      0x24\n        /* \"#utility.yul\":14456:14457   */\n      0x00\n        /* \"#utility.yul\":14449:14464   */\n      revert\n        /* \"#utility.yul\":14476:14656   */\n    tag_57:\n        /* \"#utility.yul\":14524:14601   */\n      0x4e487b7100000000000000000000000000000000000000000000000000000000\n        /* \"#utility.yul\":14521:14522   */\n      0x00\n        /* \"#utility.yul\":14514:14602   */\n      mstore\n        /* \"#utility.yul\":14621:14625   */\n      0x32\n        /* \"#utility.yul\":14618:14619   */\n      0x04\n        /* \"#utility.yul\":14611:14626   */\n      mstore\n        /* \"#utility.yul\":14645:14649   */\n      0x24\n        /* \"#utility.yul\":14642:14643   */\n      0x00\n        /* \"#utility.yul\":14635:14650   */\n      revert\n        /* \"#utility.yul\":14662:14842   */\n    tag_289:\n        /* \"#utility.yul\":14710:14787   */\n      0x4e487b7100000000000000000000000000000000000000000000000000000000\n        /* \"#utility.yul\":14707:14708   */\n      0x00\n        /* \"#utility.yul\":14700:14788   */\n      mstore\n        /* \"#utility.yul\":14807:14811   */\n      0x41\n        /* \"#utility.yul\":14804:14805   */\n      0x04\n        /* \"#utility.yul\":14797:14812   */\n      mstore\n        /* \"#utility.yul\":14831:14835   */\n      0x24\n        /* \"#utility.yul\":14828:14829   */\n      0x00\n        /* \"#utility.yul\":14821:14836   */\n      revert\n        /* \"#utility.yul\":14848:14965   */\n    tag_163:\n        /* \"#utility.yul\":14957:14958   */\n      0x00\n        /* \"#utility.yul\":14954:14955   */\n      dup1\n        /* \"#utility.yul\":14947:14959   */\n      revert\n        /* \"#utility.yul\":14971:15088   */\n    tag_145:\n        /* \"#utility.yul\":15080:15081   */\n      0x00\n        /* \"#utility.yul\":15077:15078   */\n      dup1\n        /* \"#utility.yul\":15070:15082   */\n      revert\n        /* \"#utility.yul\":15094:15211   */\n    tag_173:\n        /* \"#utility.yul\":15203:15204   */\n      0x00\n        /* \"#utility.yul\":15200:15201   */\n      dup1\n        /* \"#utility.yul\":15193:15205   */\n      revert\n        /* \"#utility.yul\":15217:15334   */\n    tag_207:\n        /* \"#utility.yul\":15326:15327   */\n      0x00\n        /* \"#utility.yul\":15323:15324   */\n      dup1\n        /* \"#utility.yul\":15316:15328   */\n      revert\n        /* \"#utility.yul\":15340:15457   */\n    tag_200:\n        /* \"#utility.yul\":15449:15450   */\n      0x00\n        /* \"#utility.yul\":15446:15447   */\n      dup1\n        /* \"#utility.yul\":15439:15451   */\n      revert\n        /* \"#utility.yul\":15463:15565   */\n    tag_297:\n        /* \"#utility.yul\":15504:15510   */\n      0x00\n        /* \"#utility.yul\":15555:15557   */\n      0x1f\n        /* \"#utility.yul\":15551:15558   */\n      not\n        /* \"#utility.yul\":15546:15548   */\n      0x1f\n        /* \"#utility.yul\":15539:15544   */\n      dup4\n        /* \"#utility.yul\":15535:15549   */\n      add\n        /* \"#utility.yul\":15531:15559   */\n      and\n        /* \"#utility.yul\":15521:15559   */\n      swap1\n      pop\n        /* \"#utility.yul\":15463:15565   */\n      swap2\n      swap1\n      pop\n      jump\t// out\n        /* \"#utility.yul\":15571:15741   */\n    tag_235:\n        /* \"#utility.yul\":15711:15733   */\n      0x4c656e67746820697320646966666572656e742e000000000000000000000000\n        /* \"#utility.yul\":15707:15708   */\n      0x00\n        /* \"#utility.yul\":15699:15705   */\n      dup3\n        /* \"#utility.yul\":15695:15709   */\n      add\n        /* \"#utility.yul\":15688:15734   */\n      mstore\n        /* \"#utility.yul\":15571:15741   */\n      pop\n      jump\t// out\n        /* \"#utility.yul\":15747:15914   */\n    tag_240:\n        /* \"#utility.yul\":15887:15906   */\n      0x566f74696e6720636f6d706c657465642e000000000000000000000000000000\n        /* \"#utility.yul\":15883:15884   */\n      0x00\n        /* \"#utility.yul\":15875:15881   */\n      dup3\n        /* \"#utility.yul\":15871:15885   */\n      add\n        /* \"#utility.yul\":15864:15907   */\n      mstore\n        /* \"#utility.yul\":15747:15914   */\n      pop\n      jump\t// out\n        /* \"#utility.yul\":15920:16090   */\n    tag_245:\n        /* \"#utility.yul\":16060:16082   */\n      0x566f74657220616c726561647920766f7465642e000000000000000000000000\n        /* \"#utility.yul\":16056:16057   */\n      0x00\n        /* \"#utility.yul\":16048:16054   */\n      dup3\n        /* \"#utility.yul\":16044:16058   */\n      add\n        /* \"#utility.yul\":16037:16083   */\n      mstore\n        /* \"#utility.yul\":15920:16090   */\n      pop\n      jump\t// out\n        /* \"#utility.yul\":16096:16266   */\n    tag_250:\n        /* \"#utility.yul\":16236:16258   */\n      0x546f6b656e20646f65736e27742065786973742e000000000000000000000000\n        /* \"#utility.yul\":16232:16233   */\n      0x00\n        /* \"#utility.yul\":16224:16230   */\n      dup3\n        /* \"#utility.yul\":16220:16234   */\n      add\n        /* \"#utility.yul\":16213:16259   */\n      mstore\n        /* \"#utility.yul\":16096:16266   */\n      pop\n      jump\t// out\n        /* \"#utility.yul\":16272:16445   */\n    tag_255:\n        /* \"#utility.yul\":16412:16437   */\n      0x546869732069736e2774206368616972706572736f6e2e000000000000000000\n        /* \"#utility.yul\":16408:16409   */\n      0x00\n        /* \"#utility.yul\":16400:16406   */\n      dup3\n        /* \"#utility.yul\":16396:16410   */\n      add\n        /* \"#utility.yul\":16389:16438   */\n      mstore\n        /* \"#utility.yul\":16272:16445   */\n      pop\n      jump\t// out\n        /* \"#utility.yul\":16451:16573   */\n    tag_178:\n        /* \"#utility.yul\":16524:16548   */\n      tag_337\n        /* \"#utility.yul\":16542:16547   */\n      dup2\n        /* \"#utility.yul\":16524:16548   */\n      tag_225\n      jump\t// in\n    tag_337:\n        /* \"#utility.yul\":16517:16522   */\n      dup2\n        /* \"#utility.yul\":16514:16549   */\n      eq\n        /* \"#utility.yul\":16504:16567   */\n      tag_338\n      jumpi\n        /* \"#utility.yul\":16563:16564   */\n      0x00\n        /* \"#utility.yul\":16560:16561   */\n      dup1\n        /* \"#utility.yul\":16553:16565   */\n      revert\n        /* \"#utility.yul\":16504:16567   */\n    tag_338:\n        /* \"#utility.yul\":16451:16573   */\n      pop\n      jump\t// out\n        /* \"#utility.yul\":16579:16701   */\n    tag_196:\n        /* \"#utility.yul\":16652:16676   */\n      tag_340\n        /* \"#utility.yul\":16670:16675   */\n      dup2\n        /* \"#utility.yul\":16652:16676   */\n      tag_259\n      jump\t// in\n    tag_340:\n        /* \"#utility.yul\":16645:16650   */\n      dup2\n        /* \"#utility.yul\":16642:16677   */\n      eq\n        /* \"#utility.yul\":16632:16695   */\n      tag_341\n      jumpi\n        /* \"#utility.yul\":16691:16692   */\n      0x00\n        /* \"#utility.yul\":16688:16689   */\n      dup1\n        /* \"#utility.yul\":16681:16693   */\n      revert\n        /* \"#utility.yul\":16632:16695   */\n    tag_341:\n        /* \"#utility.yul\":16579:16701   */\n      pop\n      jump\t// out\n\n    auxdata: 0xa2646970667358221220d9b256474cee69d1e1780111c4972b7883bf14e830703eee947c2546dbc8fd2864736f6c63430008070033\n}\n\nsub_1: assembly {\n        /* \"contracts/Token.sol\":99:241  contract Token is ERC20Standard {\r... */\n      mstore(0x40, 0x80)\n        /* \"contracts/Token.sol\":141:238  constructor() {\r... */\n      callvalue\n      dup1\n      iszero\n      tag_1\n      jumpi\n      0x00\n      dup1\n      revert\n    tag_1:\n      pop\n        /* \"contracts/Token.sol\":164:186  name = \"E-Voting coin\" */\n      mload(0x40)\n      dup1\n      0x40\n      add\n      0x40\n      mstore\n      dup1\n      0x0d\n      dup2\n      mstore\n      0x20\n      add\n      0x452d566f74696e6720636f696e00000000000000000000000000000000000000\n      dup2\n      mstore\n      pop\n        /* \"contracts/Token.sol\":164:168  name */\n      0x01\n        /* \"contracts/Token.sol\":164:186  name = \"E-Voting coin\" */\n      swap1\n      dup1\n      mload\n      swap1\n      0x20\n      add\n      swap1\n      tag_4\n      swap3\n      swap2\n      swap1\n      tag_5\n      jump\t// in\n    tag_4:\n      pop\n        /* \"contracts/Token.sol\":206:207  0 */\n      0x00\n        /* \"contracts/Token.sol\":195:203  decimals */\n      0x02\n      0x00\n        /* \"contracts/Token.sol\":195:207  decimals = 0 */\n      0x0100\n      exp\n      dup2\n      sload\n      dup2\n      0xff\n      mul\n      not\n      and\n      swap1\n      dup4\n      0xff\n      and\n      mul\n      or\n      swap1\n      sstore\n      pop\n        /* \"contracts/Token.sol\":216:230  symbol = \"EVC\" */\n      mload(0x40)\n      dup1\n      0x40\n      add\n      0x40\n      mstore\n      dup1\n      0x03\n      dup2\n      mstore\n      0x20\n      add\n      0x4556430000000000000000000000000000000000000000000000000000000000\n      dup2\n      mstore\n      pop\n        /* \"contracts/Token.sol\":216:222  symbol */\n      0x03\n        /* \"contracts/Token.sol\":216:230  symbol = \"EVC\" */\n      swap1\n      dup1\n      mload\n      swap1\n      0x20\n      add\n      swap1\n      tag_6\n      swap3\n      swap2\n      swap1\n      tag_5\n      jump\t// in\n    tag_6:\n      pop\n        /* \"contracts/Token.sol\":99:241  contract Token is ERC20Standard {\r... */\n      jump(tag_7)\n    tag_5:\n      dup3\n      dup1\n      sload\n      tag_8\n      swap1\n      tag_9\n      jump\t// in\n    tag_8:\n      swap1\n      0x00\n      mstore\n      keccak256(0x00, 0x20)\n      swap1\n      0x1f\n      add\n      0x20\n      swap1\n      div\n      dup2\n      add\n      swap3\n      dup3\n      tag_11\n      jumpi\n      0x00\n      dup6\n      sstore\n      jump(tag_10)\n    tag_11:\n      dup3\n      0x1f\n      lt\n      tag_12\n      jumpi\n      dup1\n      mload\n      not(0xff)\n      and\n      dup4\n      dup1\n      add\n      or\n      dup6\n      sstore\n      jump(tag_10)\n    tag_12:\n      dup3\n      dup1\n      add\n      0x01\n      add\n      dup6\n      sstore\n      dup3\n      iszero\n      tag_10\n      jumpi\n      swap2\n      dup3\n      add\n    tag_13:\n      dup3\n      dup2\n      gt\n      iszero\n      tag_14\n      jumpi\n      dup3\n      mload\n      dup3\n      sstore\n      swap2\n      0x20\n      add\n      swap2\n      swap1\n      0x01\n      add\n      swap1\n      jump(tag_13)\n    tag_14:\n    tag_10:\n      pop\n      swap1\n      pop\n      tag_15\n      swap2\n      swap1\n      tag_16\n      jump\t// in\n    tag_15:\n      pop\n      swap1\n      jump\t// out\n    tag_16:\n    tag_17:\n      dup1\n      dup3\n      gt\n      iszero\n      tag_18\n      jumpi\n      0x00\n      dup2\n      0x00\n      swap1\n      sstore\n      pop\n      0x01\n      add\n      jump(tag_17)\n    tag_18:\n      pop\n      swap1\n      jump\t// out\n        /* \"#utility.yul\":7:327   */\n    tag_9:\n        /* \"#utility.yul\":51:57   */\n      0x00\n        /* \"#utility.yul\":88:89   */\n      0x02\n        /* \"#utility.yul\":82:86   */\n      dup3\n        /* \"#utility.yul\":78:90   */\n      div\n        /* \"#utility.yul\":68:90   */\n      swap1\n      pop\n        /* \"#utility.yul\":135:136   */\n      0x01\n        /* \"#utility.yul\":129:133   */\n      dup3\n        /* \"#utility.yul\":125:137   */\n      and\n        /* \"#utility.yul\":156:174   */\n      dup1\n        /* \"#utility.yul\":146:227   */\n      tag_21\n      jumpi\n        /* \"#utility.yul\":212:216   */\n      0x7f\n        /* \"#utility.yul\":204:210   */\n      dup3\n        /* \"#utility.yul\":200:217   */\n      and\n        /* \"#utility.yul\":190:217   */\n      swap2\n      pop\n        /* \"#utility.yul\":146:227   */\n    tag_21:\n        /* \"#utility.yul\":274:276   */\n      0x20\n        /* \"#utility.yul\":266:272   */\n      dup3\n        /* \"#utility.yul\":263:277   */\n      lt\n        /* \"#utility.yul\":243:261   */\n      dup2\n        /* \"#utility.yul\":240:278   */\n      eq\n        /* \"#utility.yul\":237:321   */\n      iszero\n      tag_22\n      jumpi\n        /* \"#utility.yul\":293:311   */\n      tag_23\n      tag_24\n      jump\t// in\n    tag_23:\n        /* \"#utility.yul\":237:321   */\n    tag_22:\n        /* \"#utility.yul\":58:327   */\n      pop\n        /* \"#utility.yul\":7:327   */\n      swap2\n      swap1\n      pop\n      jump\t// out\n        /* \"#utility.yul\":333:513   */\n    tag_24:\n        /* \"#utility.yul\":381:458   */\n      0x4e487b7100000000000000000000000000000000000000000000000000000000\n        /* \"#utility.yul\":378:379   */\n      0x00\n        /* \"#utility.yul\":371:459   */\n      mstore\n        /* \"#utility.yul\":478:482   */\n      0x22\n        /* \"#utility.yul\":475:476   */\n      0x04\n        /* \"#utility.yul\":468:483   */\n      mstore\n        /* \"#utility.yul\":502:506   */\n      0x24\n        /* \"#utility.yul\":499:500   */\n      0x00\n        /* \"#utility.yul\":492:507   */\n      revert\n        /* \"contracts/Token.sol\":99:241  contract Token is ERC20Standard {\r... */\n    tag_7:\n      dataSize(sub_0)\n      dup1\n      dataOffset(sub_0)\n      0x00\n      codecopy\n      0x00\n      return\n    stop\n\n    sub_0: assembly {\n            /* \"contracts/Token.sol\":99:241  contract Token is ERC20Standard {\r... */\n          mstore(0x40, 0x80)\n          callvalue\n          dup1\n          iszero\n          tag_1\n          jumpi\n          0x00\n          dup1\n          revert\n        tag_1:\n          pop\n          jumpi(tag_2, lt(calldatasize, 0x04))\n          shr(0xe0, calldataload(0x00))\n          dup1\n          0x54fd4d50\n          gt\n          tag_15\n          jumpi\n          dup1\n          0x54fd4d50\n          eq\n          tag_9\n          jumpi\n          dup1\n          0x70a08231\n          eq\n          tag_10\n          jumpi\n          dup1\n          0x95d89b41\n          eq\n          tag_11\n          jumpi\n          dup1\n          0xa9059cbb\n          eq\n          tag_12\n          jumpi\n          dup1\n          0xc4e41b22\n          eq\n          tag_13\n          jumpi\n          dup1\n          0xdd62ed3e\n          eq\n          tag_14\n          jumpi\n          jump(tag_2)\n        tag_15:\n          dup1\n          0x06fdde03\n          eq\n          tag_3\n          jumpi\n          dup1\n          0x095ea7b3\n          eq\n          tag_4\n          jumpi\n          dup1\n          0x18160ddd\n          eq\n          tag_5\n          jumpi\n          dup1\n          0x23b872dd\n          eq\n          tag_6\n          jumpi\n          dup1\n          0x313ce567\n          eq\n          tag_7\n          jumpi\n          dup1\n          0x40c10f19\n          eq\n          tag_8\n          jumpi\n        tag_2:\n          0x00\n          dup1\n          revert\n            /* \"contracts/ERC20Standard.sol\":1005:1023  string public name */\n        tag_3:\n          tag_16\n          tag_17\n          jump\t// in\n        tag_16:\n          mload(0x40)\n          tag_18\n          swap2\n          swap1\n          tag_19\n          jump\t// in\n        tag_18:\n          mload(0x40)\n          dup1\n          swap2\n          sub\n          swap1\n          return\n            /* \"contracts/ERC20Standard.sol\":2732:2884  function  approve(address _spender, uint _value) public {\r... */\n        tag_4:\n          tag_20\n          0x04\n          dup1\n          calldatasize\n          sub\n          dup2\n          add\n          swap1\n          tag_21\n          swap2\n          swap1\n          tag_22\n          jump\t// in\n        tag_21:\n          tag_23\n          jump\t// in\n        tag_20:\n          stop\n            /* \"contracts/ERC20Standard.sol\":975:998  uint public totalSupply */\n        tag_5:\n          tag_24\n          tag_25\n          jump\t// in\n        tag_24:\n          mload(0x40)\n          tag_26\n          swap2\n          swap1\n          tag_27\n          jump\t// in\n        tag_26:\n          mload(0x40)\n          dup1\n          swap2\n          sub\n          swap1\n          return\n            /* \"contracts/ERC20Standard.sol\":1879:2336  function transferFrom(address _from, address _to, uint _value) public {\r... */\n        tag_6:\n          tag_28\n          0x04\n          dup1\n          calldatasize\n          sub\n          dup2\n          add\n          swap1\n          tag_29\n          swap2\n          swap1\n          tag_30\n          jump\t// in\n        tag_29:\n          tag_31\n          jump\t// in\n        tag_28:\n          stop\n            /* \"contracts/ERC20Standard.sol\":1027:1048  uint8 public decimals */\n        tag_7:\n          tag_32\n          tag_33\n          jump\t// in\n        tag_32:\n          mload(0x40)\n          tag_34\n          swap2\n          swap1\n          tag_35\n          jump\t// in\n        tag_34:\n          mload(0x40)\n          dup1\n          swap2\n          sub\n          swap1\n          return\n            /* \"contracts/ERC20Standard.sol\":2341:2727  function mint(address account, uint256 amount) public {\r... */\n        tag_8:\n          tag_36\n          0x04\n          dup1\n          calldatasize\n          sub\n          dup2\n          add\n          swap1\n          tag_37\n          swap2\n          swap1\n          tag_22\n          jump\t// in\n        tag_37:\n          tag_38\n          jump\t// in\n        tag_36:\n          stop\n            /* \"contracts/ERC20Standard.sol\":1076:1097  string public version */\n        tag_9:\n          tag_39\n          tag_40\n          jump\t// in\n        tag_39:\n          mload(0x40)\n          tag_41\n          swap2\n          swap1\n          tag_19\n          jump\t// in\n        tag_41:\n          mload(0x40)\n          dup1\n          swap2\n          sub\n          swap1\n          return\n            /* \"contracts/ERC20Standard.sol\":1345:1448  function balanceOf(address _owner) public view returns (uint balance) {\r... */\n        tag_10:\n          tag_42\n          0x04\n          dup1\n          calldatasize\n          sub\n          dup2\n          add\n          swap1\n          tag_43\n          swap2\n          swap1\n          tag_44\n          jump\t// in\n        tag_43:\n          tag_45\n          jump\t// in\n        tag_42:\n          mload(0x40)\n          tag_46\n          swap2\n          swap1\n          tag_27\n          jump\t// in\n        tag_46:\n          mload(0x40)\n          dup1\n          swap2\n          sub\n          swap1\n          return\n            /* \"contracts/ERC20Standard.sol\":1052:1072  string public symbol */\n        tag_11:\n          tag_47\n          tag_48\n          jump\t// in\n        tag_47:\n          mload(0x40)\n          tag_49\n          swap2\n          swap1\n          tag_19\n          jump\t// in\n        tag_49:\n          mload(0x40)\n          dup1\n          swap2\n          sub\n          swap1\n          return\n            /* \"contracts/ERC20Standard.sol\":1539:1874  function transfer(address _recipient, uint _value) public onlyPayloadSize(2*32) {\r... */\n        tag_12:\n          tag_50\n          0x04\n          dup1\n          calldatasize\n          sub\n          dup2\n          add\n          swap1\n          tag_51\n          swap2\n          swap1\n          tag_22\n          jump\t// in\n        tag_51:\n          tag_52\n          jump\t// in\n        tag_50:\n          stop\n            /* \"contracts/ERC20Standard.sol\":1453:1534  function getTotalSupply() public view returns (uint) {\r... */\n        tag_13:\n          tag_53\n          tag_54\n          jump\t// in\n        tag_53:\n          mload(0x40)\n          tag_55\n          swap2\n          swap1\n          tag_27\n          jump\t// in\n        tag_55:\n          mload(0x40)\n          dup1\n          swap2\n          sub\n          swap1\n          return\n            /* \"contracts/ERC20Standard.sol\":2889:3019  function allowance(address _spender, address _owner) public view returns (uint balance) {\r... */\n        tag_14:\n          tag_56\n          0x04\n          dup1\n          calldatasize\n          sub\n          dup2\n          add\n          swap1\n          tag_57\n          swap2\n          swap1\n          tag_58\n          jump\t// in\n        tag_57:\n          tag_59\n          jump\t// in\n        tag_56:\n          mload(0x40)\n          tag_60\n          swap2\n          swap1\n          tag_27\n          jump\t// in\n        tag_60:\n          mload(0x40)\n          dup1\n          swap2\n          sub\n          swap1\n          return\n            /* \"contracts/ERC20Standard.sol\":1005:1023  string public name */\n        tag_17:\n          0x01\n          dup1\n          sload\n          tag_61\n          swap1\n          tag_62\n          jump\t// in\n        tag_61:\n          dup1\n          0x1f\n          add\n          0x20\n          dup1\n          swap2\n          div\n          mul\n          0x20\n          add\n          mload(0x40)\n          swap1\n          dup2\n          add\n          0x40\n          mstore\n          dup1\n          swap3\n          swap2\n          swap1\n          dup2\n          dup2\n          mstore\n          0x20\n          add\n          dup3\n          dup1\n          sload\n          tag_63\n          swap1\n          tag_62\n          jump\t// in\n        tag_63:\n          dup1\n          iszero\n          tag_64\n          jumpi\n          dup1\n          0x1f\n          lt\n          tag_65\n          jumpi\n          0x0100\n          dup1\n          dup4\n          sload\n          div\n          mul\n          dup4\n          mstore\n          swap2\n          0x20\n          add\n          swap2\n          jump(tag_64)\n        tag_65:\n          dup3\n          add\n          swap2\n          swap1\n          0x00\n          mstore\n          keccak256(0x00, 0x20)\n          swap1\n        tag_66:\n          dup2\n          sload\n          dup2\n          mstore\n          swap1\n          0x01\n          add\n          swap1\n          0x20\n          add\n          dup1\n          dup4\n          gt\n          tag_66\n          jumpi\n          dup3\n          swap1\n          sub\n          0x1f\n          and\n          dup3\n          add\n          swap2\n        tag_64:\n          pop\n          pop\n          pop\n          pop\n          pop\n          dup2\n          jump\t// out\n            /* \"contracts/ERC20Standard.sol\":2732:2884  function  approve(address _spender, uint _value) public {\r... */\n        tag_23:\n            /* \"contracts/ERC20Standard.sol\":2825:2831  _value */\n          dup1\n            /* \"contracts/ERC20Standard.sol\":2793:2800  allowed */\n          0x06\n            /* \"contracts/ERC20Standard.sol\":2793:2812  allowed[msg.sender] */\n          0x00\n            /* \"contracts/ERC20Standard.sol\":2801:2811  msg.sender */\n          caller\n            /* \"contracts/ERC20Standard.sol\":2793:2812  allowed[msg.sender] */\n          0xffffffffffffffffffffffffffffffffffffffff\n          and\n          0xffffffffffffffffffffffffffffffffffffffff\n          and\n          dup2\n          mstore\n          0x20\n          add\n          swap1\n          dup2\n          mstore\n          0x20\n          add\n          0x00\n          keccak256\n            /* \"contracts/ERC20Standard.sol\":2793:2822  allowed[msg.sender][_spender] */\n          0x00\n            /* \"contracts/ERC20Standard.sol\":2813:2821  _spender */\n          dup5\n            /* \"contracts/ERC20Standard.sol\":2793:2822  allowed[msg.sender][_spender] */\n          0xffffffffffffffffffffffffffffffffffffffff\n          and\n          0xffffffffffffffffffffffffffffffffffffffff\n          and\n          dup2\n          mstore\n          0x20\n          add\n          swap1\n          dup2\n          mstore\n          0x20\n          add\n          0x00\n          keccak256\n            /* \"contracts/ERC20Standard.sol\":2793:2831  allowed[msg.sender][_spender] = _value */\n          dup2\n          swap1\n          sstore\n          pop\n            /* \"contracts/ERC20Standard.sol\":2862:2870  _spender */\n          dup2\n            /* \"contracts/ERC20Standard.sol\":2841:2879  Approval(msg.sender, _spender, _value) */\n          0xffffffffffffffffffffffffffffffffffffffff\n          and\n            /* \"contracts/ERC20Standard.sol\":2850:2860  msg.sender */\n          caller\n            /* \"contracts/ERC20Standard.sol\":2841:2879  Approval(msg.sender, _spender, _value) */\n          0xffffffffffffffffffffffffffffffffffffffff\n          and\n          0x8c5be1e5ebec7d5bd14f71427d1e84f3dd0314c0f7b2291e5b200ac8c7c3b925\n            /* \"contracts/ERC20Standard.sol\":2872:2878  _value */\n          dup4\n            /* \"contracts/ERC20Standard.sol\":2841:2879  Approval(msg.sender, _spender, _value) */\n          mload(0x40)\n          tag_68\n          swap2\n          swap1\n          tag_27\n          jump\t// in\n        tag_68:\n          mload(0x40)\n          dup1\n          swap2\n          sub\n          swap1\n          log3\n            /* \"contracts/ERC20Standard.sol\":2732:2884  function  approve(address _spender, uint _value) public {\r... */\n          pop\n          pop\n          jump\t// out\n            /* \"contracts/ERC20Standard.sol\":975:998  uint public totalSupply */\n        tag_25:\n          sload(0x00)\n          dup2\n          jump\t// out\n            /* \"contracts/ERC20Standard.sol\":1879:2336  function transferFrom(address _from, address _to, uint _value) public {\r... */\n        tag_31:\n            /* \"contracts/ERC20Standard.sol\":1971:1972  0 */\n          0x00\n            /* \"contracts/ERC20Standard.sol\":1962:1968  _value */\n          dup2\n            /* \"contracts/ERC20Standard.sol\":1962:1972  _value > 0 */\n          gt\n            /* \"contracts/ERC20Standard.sol\":1954:1988  require(_value > 0, \"Amount <= 0\") */\n          tag_70\n          jumpi\n          mload(0x40)\n          0x08c379a000000000000000000000000000000000000000000000000000000000\n          dup2\n          mstore\n          0x04\n          add\n          tag_71\n          swap1\n          tag_72\n          jump\t// in\n        tag_71:\n          mload(0x40)\n          dup1\n          swap2\n          sub\n          swap1\n          revert\n        tag_70:\n            /* \"contracts/ERC20Standard.sol\":2023:2029  _value */\n          dup1\n            /* \"contracts/ERC20Standard.sol\":2004:2012  balances */\n          0x05\n            /* \"contracts/ERC20Standard.sol\":2004:2019  balances[_from] */\n          0x00\n            /* \"contracts/ERC20Standard.sol\":2013:2018  _from */\n          dup6\n            /* \"contracts/ERC20Standard.sol\":2004:2019  balances[_from] */\n          0xffffffffffffffffffffffffffffffffffffffff\n          and\n          0xffffffffffffffffffffffffffffffffffffffff\n          and\n          dup2\n          mstore\n          0x20\n          add\n          swap1\n          dup2\n          mstore\n          0x20\n          add\n          0x00\n          keccak256\n          sload\n            /* \"contracts/ERC20Standard.sol\":2004:2029  balances[_from] >= _value */\n          lt\n          iszero\n            /* \"contracts/ERC20Standard.sol\":1996:2050  require(balances[_from] >= _value, \"Balance < amount\") */\n          tag_73\n          jumpi\n          mload(0x40)\n          0x08c379a000000000000000000000000000000000000000000000000000000000\n          dup2\n          mstore\n          0x04\n          add\n          tag_74\n          swap1\n          tag_75\n          jump\t// in\n        tag_74:\n          mload(0x40)\n          dup1\n          swap2\n          sub\n          swap1\n          revert\n        tag_73:\n            /* \"contracts/ERC20Standard.sol\":2093:2099  _value */\n          dup1\n            /* \"contracts/ERC20Standard.sol\":2063:2070  allowed */\n          0x06\n            /* \"contracts/ERC20Standard.sol\":2063:2077  allowed[_from] */\n          0x00\n            /* \"contracts/ERC20Standard.sol\":2071:2076  _from */\n          dup6\n            /* \"contracts/ERC20Standard.sol\":2063:2077  allowed[_from] */\n          0xffffffffffffffffffffffffffffffffffffffff\n          and\n          0xffffffffffffffffffffffffffffffffffffffff\n          and\n          dup2\n          mstore\n          0x20\n          add\n          swap1\n          dup2\n          mstore\n          0x20\n          add\n          0x00\n          keccak256\n            /* \"contracts/ERC20Standard.sol\":2063:2089  allowed[_from][msg.sender] */\n          0x00\n            /* \"contracts/ERC20Standard.sol\":2078:2088  msg.sender */\n          caller\n            /* \"contracts/ERC20Standard.sol\":2063:2089  allowed[_from][msg.sender] */\n          0xffffffffffffffffffffffffffffffffffffffff\n          and\n          0xffffffffffffffffffffffffffffffffffffffff\n          and\n          dup2\n          mstore\n          0x20\n          add\n          swap1\n          dup2\n          mstore\n          0x20\n          add\n          0x00\n          keccak256\n          sload\n            /* \"contracts/ERC20Standard.sol\":2063:2099  allowed[_from][msg.sender] >= _value */\n          lt\n          iszero\n            /* \"contracts/ERC20Standard.sol\":2055:2118  require(allowed[_from][msg.sender] >= _value, \"Don't allowed.\") */\n          tag_76\n          jumpi\n          mload(0x40)\n          0x08c379a000000000000000000000000000000000000000000000000000000000\n          dup2\n          mstore\n          0x04\n          add\n          tag_77\n          swap1\n          tag_78\n          jump\t// in\n        tag_77:\n          mload(0x40)\n          dup1\n          swap2\n          sub\n          swap1\n          revert\n        tag_76:\n            /* \"contracts/ERC20Standard.sol\":2139:2164  balances[_to].add(_value) */\n          tag_79\n            /* \"contracts/ERC20Standard.sol\":2157:2163  _value */\n          dup2\n            /* \"contracts/ERC20Standard.sol\":2139:2147  balances */\n          0x05\n            /* \"contracts/ERC20Standard.sol\":2139:2152  balances[_to] */\n          0x00\n            /* \"contracts/ERC20Standard.sol\":2148:2151  _to */\n          dup6\n            /* \"contracts/ERC20Standard.sol\":2139:2152  balances[_to] */\n          0xffffffffffffffffffffffffffffffffffffffff\n          and\n          0xffffffffffffffffffffffffffffffffffffffff\n          and\n          dup2\n          mstore\n          0x20\n          add\n          swap1\n          dup2\n          mstore\n          0x20\n          add\n          0x00\n          keccak256\n          sload\n            /* \"contracts/ERC20Standard.sol\":2139:2156  balances[_to].add */\n          tag_80\n          swap1\n            /* \"contracts/ERC20Standard.sol\":2139:2164  balances[_to].add(_value) */\n          swap2\n          swap1\n          0xffffffff\n          and\n          jump\t// in\n        tag_79:\n            /* \"contracts/ERC20Standard.sol\":2123:2131  balances */\n          0x05\n            /* \"contracts/ERC20Standard.sol\":2123:2136  balances[_to] */\n          0x00\n            /* \"contracts/ERC20Standard.sol\":2132:2135  _to */\n          dup5\n            /* \"contracts/ERC20Standard.sol\":2123:2136  balances[_to] */\n          0xffffffffffffffffffffffffffffffffffffffff\n          and\n          0xffffffffffffffffffffffffffffffffffffffff\n          and\n          dup2\n          mstore\n          0x20\n          add\n          swap1\n          dup2\n          mstore\n          0x20\n          add\n          0x00\n          keccak256\n            /* \"contracts/ERC20Standard.sol\":2123:2164  balances[_to] = balances[_to].add(_value) */\n          dup2\n          swap1\n          sstore\n          pop\n            /* \"contracts/ERC20Standard.sol\":2187:2214  balances[_from].sub(_value) */\n          tag_81\n            /* \"contracts/ERC20Standard.sol\":2207:2213  _value */\n          dup2\n            /* \"contracts/ERC20Standard.sol\":2187:2195  balances */\n          0x05\n            /* \"contracts/ERC20Standard.sol\":2187:2202  balances[_from] */\n          0x00\n            /* \"contracts/ERC20Standard.sol\":2196:2201  _from */\n          dup7\n            /* \"contracts/ERC20Standard.sol\":2187:2202  balances[_from] */\n          0xffffffffffffffffffffffffffffffffffffffff\n          and\n          0xffffffffffffffffffffffffffffffffffffffff\n          and\n          dup2\n          mstore\n          0x20\n          add\n          swap1\n          dup2\n          mstore\n          0x20\n          add\n          0x00\n          keccak256\n          sload\n            /* \"contracts/ERC20Standard.sol\":2187:2206  balances[_from].sub */\n          tag_82\n          swap1\n            /* \"contracts/ERC20Standard.sol\":2187:2214  balances[_from].sub(_value) */\n          swap2\n          swap1\n          0xffffffff\n          and\n          jump\t// in\n        tag_81:\n            /* \"contracts/ERC20Standard.sol\":2169:2177  balances */\n          0x05\n            /* \"contracts/ERC20Standard.sol\":2169:2184  balances[_from] */\n          0x00\n            /* \"contracts/ERC20Standard.sol\":2178:2183  _from */\n          dup6\n            /* \"contracts/ERC20Standard.sol\":2169:2184  balances[_from] */\n          0xffffffffffffffffffffffffffffffffffffffff\n          and\n          0xffffffffffffffffffffffffffffffffffffffff\n          and\n          dup2\n          mstore\n          0x20\n          add\n          swap1\n          dup2\n          mstore\n          0x20\n          add\n          0x00\n          keccak256\n            /* \"contracts/ERC20Standard.sol\":2169:2214  balances[_from] = balances[_from].sub(_value) */\n          dup2\n          swap1\n          sstore\n          pop\n            /* \"contracts/ERC20Standard.sol\":2248:2286  allowed[_from][msg.sender].sub(_value) */\n          tag_83\n            /* \"contracts/ERC20Standard.sol\":2279:2285  _value */\n          dup2\n            /* \"contracts/ERC20Standard.sol\":2248:2255  allowed */\n          0x06\n            /* \"contracts/ERC20Standard.sol\":2248:2262  allowed[_from] */\n          0x00\n            /* \"contracts/ERC20Standard.sol\":2256:2261  _from */\n          dup7\n            /* \"contracts/ERC20Standard.sol\":2248:2262  allowed[_from] */\n          0xffffffffffffffffffffffffffffffffffffffff\n          and\n          0xffffffffffffffffffffffffffffffffffffffff\n          and\n          dup2\n          mstore\n          0x20\n          add\n          swap1\n          dup2\n          mstore\n          0x20\n          add\n          0x00\n          keccak256\n            /* \"contracts/ERC20Standard.sol\":2248:2274  allowed[_from][msg.sender] */\n          0x00\n            /* \"contracts/ERC20Standard.sol\":2263:2273  msg.sender */\n          caller\n            /* \"contracts/ERC20Standard.sol\":2248:2274  allowed[_from][msg.sender] */\n          0xffffffffffffffffffffffffffffffffffffffff\n          and\n          0xffffffffffffffffffffffffffffffffffffffff\n          and\n          dup2\n          mstore\n          0x20\n          add\n          swap1\n          dup2\n          mstore\n          0x20\n          add\n          0x00\n          keccak256\n          sload\n            /* \"contracts/ERC20Standard.sol\":2248:2278  allowed[_from][msg.sender].sub */\n          tag_82\n          swap1\n            /* \"contracts/ERC20Standard.sol\":2248:2286  allowed[_from][msg.sender].sub(_value) */\n          swap2\n          swap1\n          0xffffffff\n          and\n          jump\t// in\n        tag_83:\n            /* \"contracts/ERC20Standard.sol\":2219:2226  allowed */\n          0x06\n            /* \"contracts/ERC20Standard.sol\":2219:2233  allowed[_from] */\n          0x00\n            /* \"contracts/ERC20Standard.sol\":2227:2232  _from */\n          dup6\n            /* \"contracts/ERC20Standard.sol\":2219:2233  allowed[_from] */\n          0xffffffffffffffffffffffffffffffffffffffff\n          and\n          0xffffffffffffffffffffffffffffffffffffffff\n          and\n          dup2\n          mstore\n          0x20\n          add\n          swap1\n          dup2\n          mstore\n          0x20\n          add\n          0x00\n          keccak256\n            /* \"contracts/ERC20Standard.sol\":2219:2245  allowed[_from][msg.sender] */\n          0x00\n            /* \"contracts/ERC20Standard.sol\":2234:2244  msg.sender */\n          caller\n            /* \"contracts/ERC20Standard.sol\":2219:2245  allowed[_from][msg.sender] */\n          0xffffffffffffffffffffffffffffffffffffffff\n          and\n          0xffffffffffffffffffffffffffffffffffffffff\n          and\n          dup2\n          mstore\n          0x20\n          add\n          swap1\n          dup2\n          mstore\n          0x20\n          add\n          0x00\n          keccak256\n            /* \"contracts/ERC20Standard.sol\":2219:2286  allowed[_from][msg.sender] = allowed[_from][msg.sender].sub(_value) */\n          dup2\n          swap1\n          sstore\n          pop\n            /* \"contracts/ERC20Standard.sol\":2312:2315  _to */\n          dup2\n            /* \"contracts/ERC20Standard.sol\":2296:2324  Transfer(_from, _to, _value) */\n          0xffffffffffffffffffffffffffffffffffffffff\n          and\n            /* \"contracts/ERC20Standard.sol\":2305:2310  _from */\n          dup4\n            /* \"contracts/ERC20Standard.sol\":2296:2324  Transfer(_from, _to, _value) */\n          0xffffffffffffffffffffffffffffffffffffffff\n          and\n          0xddf252ad1be2c89b69c2b068fc378daa952ba7f163c4a11628f55a4df523b3ef\n            /* \"contracts/ERC20Standard.sol\":2317:2323  _value */\n          dup4\n            /* \"contracts/ERC20Standard.sol\":2296:2324  Transfer(_from, _to, _value) */\n          mload(0x40)\n          tag_84\n          swap2\n          swap1\n          tag_27\n          jump\t// in\n        tag_84:\n          mload(0x40)\n          dup1\n          swap2\n          sub\n          swap1\n          log3\n            /* \"contracts/ERC20Standard.sol\":1879:2336  function transferFrom(address _from, address _to, uint _value) public {\r... */\n          pop\n          pop\n          pop\n          jump\t// out\n            /* \"contracts/ERC20Standard.sol\":1027:1048  uint8 public decimals */\n        tag_33:\n          0x02\n          0x00\n          swap1\n          sload\n          swap1\n          0x0100\n          exp\n          swap1\n          div\n          0xff\n          and\n          dup2\n          jump\t// out\n            /* \"contracts/ERC20Standard.sol\":2341:2727  function mint(address account, uint256 amount) public {\r... */\n        tag_38:\n            /* \"contracts/ERC20Standard.sol\":2433:2434  0 */\n          0x00\n            /* \"contracts/ERC20Standard.sol\":2414:2435  account != address(0) */\n          0xffffffffffffffffffffffffffffffffffffffff\n          and\n            /* \"contracts/ERC20Standard.sol\":2414:2421  account */\n          dup3\n            /* \"contracts/ERC20Standard.sol\":2414:2435  account != address(0) */\n          0xffffffffffffffffffffffffffffffffffffffff\n          and\n          eq\n          iszero\n            /* \"contracts/ERC20Standard.sol\":2406:2471  require(account != address(0), \"ERC20: mint to the zero address\") */\n          tag_86\n          jumpi\n          mload(0x40)\n          0x08c379a000000000000000000000000000000000000000000000000000000000\n          dup2\n          mstore\n          0x04\n          add\n          tag_87\n          swap1\n          tag_88\n          jump\t// in\n        tag_87:\n          mload(0x40)\n          dup1\n          swap2\n          sub\n          swap1\n          revert\n        tag_86:\n            /* \"contracts/ERC20Standard.sol\":2484:2533  _beforeTokenTransfer(address(0), account, amount) */\n          tag_89\n            /* \"contracts/ERC20Standard.sol\":2513:2514  0 */\n          0x00\n            /* \"contracts/ERC20Standard.sol\":2517:2524  account */\n          dup4\n            /* \"contracts/ERC20Standard.sol\":2526:2532  amount */\n          dup4\n            /* \"contracts/ERC20Standard.sol\":2484:2504  _beforeTokenTransfer */\n          tag_90\n            /* \"contracts/ERC20Standard.sol\":2484:2533  _beforeTokenTransfer(address(0), account, amount) */\n          jump\t// in\n        tag_89:\n            /* \"contracts/ERC20Standard.sol\":2561:2567  amount */\n          dup1\n            /* \"contracts/ERC20Standard.sol\":2546:2557  totalSupply */\n          0x00\n          dup1\n            /* \"contracts/ERC20Standard.sol\":2546:2567  totalSupply += amount */\n          dup3\n          dup3\n          sload\n          tag_91\n          swap2\n          swap1\n          tag_92\n          jump\t// in\n        tag_91:\n          swap3\n          pop\n          pop\n          dup2\n          swap1\n          sstore\n          pop\n            /* \"contracts/ERC20Standard.sol\":2599:2605  amount */\n          dup1\n            /* \"contracts/ERC20Standard.sol\":2578:2586  balances */\n          0x05\n            /* \"contracts/ERC20Standard.sol\":2578:2595  balances[account] */\n          0x00\n            /* \"contracts/ERC20Standard.sol\":2587:2594  account */\n          dup5\n            /* \"contracts/ERC20Standard.sol\":2578:2595  balances[account] */\n          0xffffffffffffffffffffffffffffffffffffffff\n          and\n          0xffffffffffffffffffffffffffffffffffffffff\n          and\n          dup2\n          mstore\n          0x20\n          add\n          swap1\n          dup2\n          mstore\n          0x20\n          add\n          0x00\n          keccak256\n          0x00\n            /* \"contracts/ERC20Standard.sol\":2578:2605  balances[account] += amount */\n          dup3\n          dup3\n          sload\n          tag_93\n          swap2\n          swap1\n          tag_92\n          jump\t// in\n        tag_93:\n          swap3\n          pop\n          pop\n          dup2\n          swap1\n          sstore\n          pop\n            /* \"contracts/ERC20Standard.sol\":2642:2649  account */\n          dup2\n            /* \"contracts/ERC20Standard.sol\":2621:2658  Transfer(address(0), account, amount) */\n          0xffffffffffffffffffffffffffffffffffffffff\n          and\n            /* \"contracts/ERC20Standard.sol\":2638:2639  0 */\n          0x00\n            /* \"contracts/ERC20Standard.sol\":2621:2658  Transfer(address(0), account, amount) */\n          0xffffffffffffffffffffffffffffffffffffffff\n          and\n          0xddf252ad1be2c89b69c2b068fc378daa952ba7f163c4a11628f55a4df523b3ef\n            /* \"contracts/ERC20Standard.sol\":2651:2657  amount */\n          dup4\n            /* \"contracts/ERC20Standard.sol\":2621:2658  Transfer(address(0), account, amount) */\n          mload(0x40)\n          tag_94\n          swap2\n          swap1\n          tag_27\n          jump\t// in\n        tag_94:\n          mload(0x40)\n          dup1\n          swap2\n          sub\n          swap1\n          log3\n            /* \"contracts/ERC20Standard.sol\":2671:2719  _afterTokenTransfer(address(0), account, amount) */\n          tag_95\n            /* \"contracts/ERC20Standard.sol\":2699:2700  0 */\n          0x00\n            /* \"contracts/ERC20Standard.sol\":2703:2710  account */\n          dup4\n            /* \"contracts/ERC20Standard.sol\":2712:2718  amount */\n          dup4\n            /* \"contracts/ERC20Standard.sol\":2671:2690  _afterTokenTransfer */\n          tag_96\n            /* \"contracts/ERC20Standard.sol\":2671:2719  _afterTokenTransfer(address(0), account, amount) */\n          jump\t// in\n        tag_95:\n            /* \"contracts/ERC20Standard.sol\":2341:2727  function mint(address account, uint256 amount) public {\r... */\n          pop\n          pop\n          jump\t// out\n            /* \"contracts/ERC20Standard.sol\":1076:1097  string public version */\n        tag_40:\n          0x04\n          dup1\n          sload\n          tag_97\n          swap1\n          tag_62\n          jump\t// in\n        tag_97:\n          dup1\n          0x1f\n          add\n          0x20\n          dup1\n          swap2\n          div\n          mul\n          0x20\n          add\n          mload(0x40)\n          swap1\n          dup2\n          add\n          0x40\n          mstore\n          dup1\n          swap3\n          swap2\n          swap1\n          dup2\n          dup2\n          mstore\n          0x20\n          add\n          dup3\n          dup1\n          sload\n          tag_98\n          swap1\n          tag_62\n          jump\t// in\n        tag_98:\n          dup1\n          iszero\n          tag_99\n          jumpi\n          dup1\n          0x1f\n          lt\n          tag_100\n          jumpi\n          0x0100\n          dup1\n          dup4\n          sload\n          div\n          mul\n          dup4\n          mstore\n          swap2\n          0x20\n          add\n          swap2\n          jump(tag_99)\n        tag_100:\n          dup3\n          add\n          swap2\n          swap1\n          0x00\n          mstore\n          keccak256(0x00, 0x20)\n          swap1\n        tag_101:\n          dup2\n          sload\n          dup2\n          mstore\n          swap1\n          0x01\n          add\n          swap1\n          0x20\n          add\n          dup1\n          dup4\n          gt\n          tag_101\n          jumpi\n          dup3\n          swap1\n          sub\n          0x1f\n          and\n          dup3\n          add\n          swap2\n        tag_99:\n          pop\n          pop\n          pop\n          pop\n          pop\n          dup2\n          jump\t// out\n            /* \"contracts/ERC20Standard.sol\":1345:1448  function balanceOf(address _owner) public view returns (uint balance) {\r... */\n        tag_45:\n            /* \"contracts/ERC20Standard.sol\":1401:1413  uint balance */\n          0x00\n            /* \"contracts/ERC20Standard.sol\":1427:1435  balances */\n          0x05\n            /* \"contracts/ERC20Standard.sol\":1427:1443  balances[_owner] */\n          0x00\n            /* \"contracts/ERC20Standard.sol\":1436:1442  _owner */\n          dup4\n            /* \"contracts/ERC20Standard.sol\":1427:1443  balances[_owner] */\n          0xffffffffffffffffffffffffffffffffffffffff\n          and\n          0xffffffffffffffffffffffffffffffffffffffff\n          and\n          dup2\n          mstore\n          0x20\n          add\n          swap1\n          dup2\n          mstore\n          0x20\n          add\n          0x00\n          keccak256\n          sload\n            /* \"contracts/ERC20Standard.sol\":1420:1443  return balances[_owner] */\n          swap1\n          pop\n            /* \"contracts/ERC20Standard.sol\":1345:1448  function balanceOf(address _owner) public view returns (uint balance) {\r... */\n          swap2\n          swap1\n          pop\n          jump\t// out\n            /* \"contracts/ERC20Standard.sol\":1052:1072  string public symbol */\n        tag_48:\n          0x03\n          dup1\n          sload\n          tag_103\n          swap1\n          tag_62\n          jump\t// in\n        tag_103:\n          dup1\n          0x1f\n          add\n          0x20\n          dup1\n          swap2\n          div\n          mul\n          0x20\n          add\n          mload(0x40)\n          swap1\n          dup2\n          add\n          0x40\n          mstore\n          dup1\n          swap3\n          swap2\n          swap1\n          dup2\n          dup2\n          mstore\n          0x20\n          add\n          dup3\n          dup1\n          sload\n          tag_104\n          swap1\n          tag_62\n          jump\t// in\n        tag_104:\n          dup1\n          iszero\n          tag_105\n          jumpi\n          dup1\n          0x1f\n          lt\n          tag_106\n          jumpi\n          0x0100\n          dup1\n          dup4\n          sload\n          div\n          mul\n          dup4\n          mstore\n          swap2\n          0x20\n          add\n          swap2\n          jump(tag_105)\n        tag_106:\n          dup3\n          add\n          swap2\n          swap1\n          0x00\n          mstore\n          keccak256(0x00, 0x20)\n          swap1\n        tag_107:\n          dup2\n          sload\n          dup2\n          mstore\n          swap1\n          0x01\n          add\n          swap1\n          0x20\n          add\n          dup1\n          dup4\n          gt\n          tag_107\n          jumpi\n          dup3\n          swap1\n          sub\n          0x1f\n          and\n          dup3\n          add\n          swap2\n        tag_105:\n          pop\n          pop\n          pop\n          pop\n          pop\n          dup2\n          jump\t// out\n            /* \"contracts/ERC20Standard.sol\":1539:1874  function transfer(address _recipient, uint _value) public onlyPayloadSize(2*32) {\r... */\n        tag_52:\n            /* \"contracts/ERC20Standard.sol\":1613:1617  2*32 */\n          0x40\n            /* \"contracts/ERC20Standard.sol\":1326:1327  4 */\n          0x04\n            /* \"contracts/ERC20Standard.sol\":1319:1323  size */\n          dup2\n            /* \"contracts/ERC20Standard.sol\":1319:1327  size + 4 */\n          tag_109\n          swap2\n          swap1\n          tag_92\n          jump\t// in\n        tag_109:\n            /* \"contracts/ERC20Standard.sol\":1300:1308  msg.data */\n          0x00\n          calldatasize\n            /* \"contracts/ERC20Standard.sol\":1300:1315  msg.data.length */\n          swap1\n          pop\n            /* \"contracts/ERC20Standard.sol\":1300:1327  msg.data.length == size + 4 */\n          eq\n            /* \"contracts/ERC20Standard.sol\":1293:1328  assert(msg.data.length == size + 4) */\n          tag_110\n          jumpi\n          tag_111\n          tag_112\n          jump\t// in\n        tag_111:\n        tag_110:\n            /* \"contracts/ERC20Standard.sol\":1641:1642  0 */\n          0x00\n            /* \"contracts/ERC20Standard.sol\":1632:1638  _value */\n          dup3\n            /* \"contracts/ERC20Standard.sol\":1632:1642  _value > 0 */\n          gt\n            /* \"contracts/ERC20Standard.sol\":1624:1658  require(_value > 0, \"Amount <= 0\") */\n          tag_114\n          jumpi\n          mload(0x40)\n          0x08c379a000000000000000000000000000000000000000000000000000000000\n          dup2\n          mstore\n          0x04\n          add\n          tag_115\n          swap1\n          tag_72\n          jump\t// in\n        tag_115:\n          mload(0x40)\n          dup1\n          swap2\n          sub\n          swap1\n          revert\n        tag_114:\n            /* \"contracts/ERC20Standard.sol\":1691:1737  balances[msg.sender].sub(balances[msg.sender]) */\n          tag_116\n            /* \"contracts/ERC20Standard.sol\":1716:1724  balances */\n          0x05\n            /* \"contracts/ERC20Standard.sol\":1716:1736  balances[msg.sender] */\n          0x00\n            /* \"contracts/ERC20Standard.sol\":1725:1735  msg.sender */\n          caller\n            /* \"contracts/ERC20Standard.sol\":1716:1736  balances[msg.sender] */\n          0xffffffffffffffffffffffffffffffffffffffff\n          and\n          0xffffffffffffffffffffffffffffffffffffffff\n          and\n          dup2\n          mstore\n          0x20\n          add\n          swap1\n          dup2\n          mstore\n          0x20\n          add\n          0x00\n          keccak256\n          sload\n            /* \"contracts/ERC20Standard.sol\":1691:1699  balances */\n          0x05\n            /* \"contracts/ERC20Standard.sol\":1691:1711  balances[msg.sender] */\n          0x00\n            /* \"contracts/ERC20Standard.sol\":1700:1710  msg.sender */\n          caller\n            /* \"contracts/ERC20Standard.sol\":1691:1711  balances[msg.sender] */\n          0xffffffffffffffffffffffffffffffffffffffff\n          and\n          0xffffffffffffffffffffffffffffffffffffffff\n          and\n          dup2\n          mstore\n          0x20\n          add\n          swap1\n          dup2\n          mstore\n          0x20\n          add\n          0x00\n          keccak256\n          sload\n            /* \"contracts/ERC20Standard.sol\":1691:1715  balances[msg.sender].sub */\n          tag_82\n          swap1\n            /* \"contracts/ERC20Standard.sol\":1691:1737  balances[msg.sender].sub(balances[msg.sender]) */\n          swap2\n          swap1\n          0xffffffff\n          and\n          jump\t// in\n        tag_116:\n            /* \"contracts/ERC20Standard.sol\":1668:1676  balances */\n          0x05\n            /* \"contracts/ERC20Standard.sol\":1668:1688  balances[msg.sender] */\n          0x00\n            /* \"contracts/ERC20Standard.sol\":1677:1687  msg.sender */\n          caller\n            /* \"contracts/ERC20Standard.sol\":1668:1688  balances[msg.sender] */\n          0xffffffffffffffffffffffffffffffffffffffff\n          and\n          0xffffffffffffffffffffffffffffffffffffffff\n          and\n          dup2\n          mstore\n          0x20\n          add\n          swap1\n          dup2\n          mstore\n          0x20\n          add\n          0x00\n          keccak256\n            /* \"contracts/ERC20Standard.sol\":1668:1737  balances[msg.sender] = balances[msg.sender].sub(balances[msg.sender]) */\n          dup2\n          swap1\n          sstore\n          pop\n            /* \"contracts/ERC20Standard.sol\":1769:1801  balances[_recipient].add(_value) */\n          tag_117\n            /* \"contracts/ERC20Standard.sol\":1794:1800  _value */\n          dup3\n            /* \"contracts/ERC20Standard.sol\":1769:1777  balances */\n          0x05\n            /* \"contracts/ERC20Standard.sol\":1769:1789  balances[_recipient] */\n          0x00\n            /* \"contracts/ERC20Standard.sol\":1778:1788  _recipient */\n          dup7\n            /* \"contracts/ERC20Standard.sol\":1769:1789  balances[_recipient] */\n          0xffffffffffffffffffffffffffffffffffffffff\n          and\n          0xffffffffffffffffffffffffffffffffffffffff\n          and\n          dup2\n          mstore\n          0x20\n          add\n          swap1\n          dup2\n          mstore\n          0x20\n          add\n          0x00\n          keccak256\n          sload\n            /* \"contracts/ERC20Standard.sol\":1769:1793  balances[_recipient].add */\n          tag_80\n          swap1\n            /* \"contracts/ERC20Standard.sol\":1769:1801  balances[_recipient].add(_value) */\n          swap2\n          swap1\n          0xffffffff\n          and\n          jump\t// in\n        tag_117:\n            /* \"contracts/ERC20Standard.sol\":1746:1754  balances */\n          0x05\n            /* \"contracts/ERC20Standard.sol\":1746:1766  balances[_recipient] */\n          0x00\n            /* \"contracts/ERC20Standard.sol\":1755:1765  _recipient */\n          dup6\n            /* \"contracts/ERC20Standard.sol\":1746:1766  balances[_recipient] */\n          0xffffffffffffffffffffffffffffffffffffffff\n          and\n          0xffffffffffffffffffffffffffffffffffffffff\n          and\n          dup2\n          mstore\n          0x20\n          add\n          swap1\n          dup2\n          mstore\n          0x20\n          add\n          0x00\n          keccak256\n            /* \"contracts/ERC20Standard.sol\":1746:1801  balances[_recipient] = balances[_recipient].add(_value) */\n          dup2\n          swap1\n          sstore\n          pop\n            /* \"contracts/ERC20Standard.sol\":1835:1845  _recipient */\n          dup3\n            /* \"contracts/ERC20Standard.sol\":1814:1854  Transfer(msg.sender, _recipient, _value) */\n          0xffffffffffffffffffffffffffffffffffffffff\n          and\n            /* \"contracts/ERC20Standard.sol\":1823:1833  msg.sender */\n          caller\n            /* \"contracts/ERC20Standard.sol\":1814:1854  Transfer(msg.sender, _recipient, _value) */\n          0xffffffffffffffffffffffffffffffffffffffff\n          and\n          0xddf252ad1be2c89b69c2b068fc378daa952ba7f163c4a11628f55a4df523b3ef\n            /* \"contracts/ERC20Standard.sol\":1847:1853  _value */\n          dup5\n            /* \"contracts/ERC20Standard.sol\":1814:1854  Transfer(msg.sender, _recipient, _value) */\n          mload(0x40)\n          tag_118\n          swap2\n          swap1\n          tag_27\n          jump\t// in\n        tag_118:\n          mload(0x40)\n          dup1\n          swap2\n          sub\n          swap1\n          log3\n            /* \"contracts/ERC20Standard.sol\":1539:1874  function transfer(address _recipient, uint _value) public onlyPayloadSize(2*32) {\r... */\n          pop\n          pop\n          pop\n          jump\t// out\n            /* \"contracts/ERC20Standard.sol\":1453:1534  function getTotalSupply() public view returns (uint) {\r... */\n        tag_54:\n            /* \"contracts/ERC20Standard.sol\":1500:1504  uint */\n          0x00\n            /* \"contracts/ERC20Standard.sol\":1518:1529  totalSupply */\n          dup1\n          sload\n            /* \"contracts/ERC20Standard.sol\":1511:1529  return totalSupply */\n          swap1\n          pop\n            /* \"contracts/ERC20Standard.sol\":1453:1534  function getTotalSupply() public view returns (uint) {\r... */\n          swap1\n          jump\t// out\n            /* \"contracts/ERC20Standard.sol\":2889:3019  function allowance(address _spender, address _owner) public view returns (uint balance) {\r... */\n        tag_59:\n            /* \"contracts/ERC20Standard.sol\":2963:2975  uint balance */\n          0x00\n            /* \"contracts/ERC20Standard.sol\":2989:2996  allowed */\n          0x06\n            /* \"contracts/ERC20Standard.sol\":2989:3004  allowed[_owner] */\n          0x00\n            /* \"contracts/ERC20Standard.sol\":2997:3003  _owner */\n          dup4\n            /* \"contracts/ERC20Standard.sol\":2989:3004  allowed[_owner] */\n          0xffffffffffffffffffffffffffffffffffffffff\n          and\n          0xffffffffffffffffffffffffffffffffffffffff\n          and\n          dup2\n          mstore\n          0x20\n          add\n          swap1\n          dup2\n          mstore\n          0x20\n          add\n          0x00\n          keccak256\n            /* \"contracts/ERC20Standard.sol\":2989:3014  allowed[_owner][_spender] */\n          0x00\n            /* \"contracts/ERC20Standard.sol\":3005:3013  _spender */\n          dup5\n            /* \"contracts/ERC20Standard.sol\":2989:3014  allowed[_owner][_spender] */\n          0xffffffffffffffffffffffffffffffffffffffff\n          and\n          0xffffffffffffffffffffffffffffffffffffffff\n          and\n          dup2\n          mstore\n          0x20\n          add\n          swap1\n          dup2\n          mstore\n          0x20\n          add\n          0x00\n          keccak256\n          sload\n            /* \"contracts/ERC20Standard.sol\":2982:3014  return allowed[_owner][_spender] */\n          swap1\n          pop\n            /* \"contracts/ERC20Standard.sol\":2889:3019  function allowance(address _spender, address _owner) public view returns (uint balance) {\r... */\n          swap3\n          swap2\n          pop\n          pop\n          jump\t// out\n            /* \"contracts/ERC20Standard.sol\":629:779  function add(uint256 a, uint256 b) internal pure returns (uint256) {\r... */\n        tag_80:\n            /* \"contracts/ERC20Standard.sol\":687:694  uint256 */\n          0x00\n            /* \"contracts/ERC20Standard.sol\":707:716  uint256 c */\n          dup1\n            /* \"contracts/ERC20Standard.sol\":723:724  b */\n          dup3\n            /* \"contracts/ERC20Standard.sol\":719:720  a */\n          dup5\n            /* \"contracts/ERC20Standard.sol\":719:724  a + b */\n          tag_122\n          swap2\n          swap1\n          tag_92\n          jump\t// in\n        tag_122:\n            /* \"contracts/ERC20Standard.sol\":707:724  uint256 c = a + b */\n          swap1\n          pop\n            /* \"contracts/ERC20Standard.sol\":748:749  a */\n          dup4\n            /* \"contracts/ERC20Standard.sol\":743:744  c */\n          dup2\n            /* \"contracts/ERC20Standard.sol\":743:749  c >= a */\n          lt\n          iszero\n            /* \"contracts/ERC20Standard.sol\":735:750  require(c >= a) */\n          tag_123\n          jumpi\n          0x00\n          dup1\n          revert\n        tag_123:\n            /* \"contracts/ERC20Standard.sol\":770:771  c */\n          dup1\n            /* \"contracts/ERC20Standard.sol\":763:771  return c */\n          swap2\n          pop\n          pop\n            /* \"contracts/ERC20Standard.sol\":629:779  function add(uint256 a, uint256 b) internal pure returns (uint256) {\r... */\n          swap3\n          swap2\n          pop\n          pop\n          jump\t// out\n            /* \"contracts/ERC20Standard.sol\":471:621  function sub(uint256 a, uint256 b) internal pure returns (uint256) {\r... */\n        tag_82:\n            /* \"contracts/ERC20Standard.sol\":529:536  uint256 */\n          0x00\n            /* \"contracts/ERC20Standard.sol\":562:563  a */\n          dup3\n            /* \"contracts/ERC20Standard.sol\":557:558  b */\n          dup3\n            /* \"contracts/ERC20Standard.sol\":557:563  b <= a */\n          gt\n          iszero\n            /* \"contracts/ERC20Standard.sol\":549:564  require(b <= a) */\n          tag_125\n          jumpi\n          0x00\n          dup1\n          revert\n        tag_125:\n            /* \"contracts/ERC20Standard.sol\":575:584  uint256 c */\n          0x00\n            /* \"contracts/ERC20Standard.sol\":591:592  b */\n          dup3\n            /* \"contracts/ERC20Standard.sol\":587:588  a */\n          dup5\n            /* \"contracts/ERC20Standard.sol\":587:592  a - b */\n          tag_126\n          swap2\n          swap1\n          tag_127\n          jump\t// in\n        tag_126:\n            /* \"contracts/ERC20Standard.sol\":575:592  uint256 c = a - b */\n          swap1\n          pop\n            /* \"contracts/ERC20Standard.sol\":612:613  c */\n          dup1\n            /* \"contracts/ERC20Standard.sol\":605:613  return c */\n          swap2\n          pop\n          pop\n            /* \"contracts/ERC20Standard.sol\":471:621  function sub(uint256 a, uint256 b) internal pure returns (uint256) {\r... */\n          swap3\n          swap2\n          pop\n          pop\n          jump\t// out\n            /* \"contracts/ERC20Standard.sol\":3383:3508  function _beforeTokenTransfer(\r... */\n        tag_90:\n          pop\n          pop\n          pop\n          jump\t// out\n            /* \"contracts/ERC20Standard.sol\":3517:3641  function _afterTokenTransfer(\r... */\n        tag_96:\n          pop\n          pop\n          pop\n          jump\t// out\n            /* \"#utility.yul\":7:146   */\n        tag_131:\n            /* \"#utility.yul\":53:58   */\n          0x00\n            /* \"#utility.yul\":91:97   */\n          dup2\n            /* \"#utility.yul\":78:98   */\n          calldataload\n            /* \"#utility.yul\":69:98   */\n          swap1\n          pop\n            /* \"#utility.yul\":107:140   */\n          tag_133\n            /* \"#utility.yul\":134:139   */\n          dup2\n            /* \"#utility.yul\":107:140   */\n          tag_134\n          jump\t// in\n        tag_133:\n            /* \"#utility.yul\":7:146   */\n          swap3\n          swap2\n          pop\n          pop\n          jump\t// out\n            /* \"#utility.yul\":152:291   */\n        tag_135:\n            /* \"#utility.yul\":198:203   */\n          0x00\n            /* \"#utility.yul\":236:242   */\n          dup2\n            /* \"#utility.yul\":223:243   */\n          calldataload\n            /* \"#utility.yul\":214:243   */\n          swap1\n          pop\n            /* \"#utility.yul\":252:285   */\n          tag_137\n            /* \"#utility.yul\":279:284   */\n          dup2\n            /* \"#utility.yul\":252:285   */\n          tag_138\n          jump\t// in\n        tag_137:\n            /* \"#utility.yul\":152:291   */\n          swap3\n          swap2\n          pop\n          pop\n          jump\t// out\n            /* \"#utility.yul\":297:626   */\n        tag_44:\n            /* \"#utility.yul\":356:362   */\n          0x00\n            /* \"#utility.yul\":405:407   */\n          0x20\n            /* \"#utility.yul\":393:402   */\n          dup3\n            /* \"#utility.yul\":384:391   */\n          dup5\n            /* \"#utility.yul\":380:403   */\n          sub\n            /* \"#utility.yul\":376:408   */\n          slt\n            /* \"#utility.yul\":373:492   */\n          iszero\n          tag_140\n          jumpi\n            /* \"#utility.yul\":411:490   */\n          tag_141\n          tag_142\n          jump\t// in\n        tag_141:\n            /* \"#utility.yul\":373:492   */\n        tag_140:\n            /* \"#utility.yul\":531:532   */\n          0x00\n            /* \"#utility.yul\":556:609   */\n          tag_143\n            /* \"#utility.yul\":601:608   */\n          dup5\n            /* \"#utility.yul\":592:598   */\n          dup3\n            /* \"#utility.yul\":581:590   */\n          dup6\n            /* \"#utility.yul\":577:599   */\n          add\n            /* \"#utility.yul\":556:609   */\n          tag_131\n          jump\t// in\n        tag_143:\n            /* \"#utility.yul\":546:609   */\n          swap2\n          pop\n            /* \"#utility.yul\":502:619   */\n          pop\n            /* \"#utility.yul\":297:626   */\n          swap3\n          swap2\n          pop\n          pop\n          jump\t// out\n            /* \"#utility.yul\":632:1106   */\n        tag_58:\n            /* \"#utility.yul\":700:706   */\n          0x00\n            /* \"#utility.yul\":708:714   */\n          dup1\n            /* \"#utility.yul\":757:759   */\n          0x40\n            /* \"#utility.yul\":745:754   */\n          dup4\n            /* \"#utility.yul\":736:743   */\n          dup6\n            /* \"#utility.yul\":732:755   */\n          sub\n            /* \"#utility.yul\":728:760   */\n          slt\n            /* \"#utility.yul\":725:844   */\n          iszero\n          tag_145\n          jumpi\n            /* \"#utility.yul\":763:842   */\n          tag_146\n          tag_142\n          jump\t// in\n        tag_146:\n            /* \"#utility.yul\":725:844   */\n        tag_145:\n            /* \"#utility.yul\":883:884   */\n          0x00\n            /* \"#utility.yul\":908:961   */\n          tag_147\n            /* \"#utility.yul\":953:960   */\n          dup6\n            /* \"#utility.yul\":944:950   */\n          dup3\n            /* \"#utility.yul\":933:942   */\n          dup7\n            /* \"#utility.yul\":929:951   */\n          add\n            /* \"#utility.yul\":908:961   */\n          tag_131\n          jump\t// in\n        tag_147:\n            /* \"#utility.yul\":898:961   */\n          swap3\n          pop\n            /* \"#utility.yul\":854:971   */\n          pop\n            /* \"#utility.yul\":1010:1012   */\n          0x20\n            /* \"#utility.yul\":1036:1089   */\n          tag_148\n            /* \"#utility.yul\":1081:1088   */\n          dup6\n            /* \"#utility.yul\":1072:1078   */\n          dup3\n            /* \"#utility.yul\":1061:1070   */\n          dup7\n            /* \"#utility.yul\":1057:1079   */\n          add\n            /* \"#utility.yul\":1036:1089   */\n          tag_131\n          jump\t// in\n        tag_148:\n            /* \"#utility.yul\":1026:1089   */\n          swap2\n          pop\n            /* \"#utility.yul\":981:1099   */\n          pop\n            /* \"#utility.yul\":632:1106   */\n          swap3\n          pop\n          swap3\n          swap1\n          pop\n          jump\t// out\n            /* \"#utility.yul\":1112:1731   */\n        tag_30:\n            /* \"#utility.yul\":1189:1195   */\n          0x00\n            /* \"#utility.yul\":1197:1203   */\n          dup1\n            /* \"#utility.yul\":1205:1211   */\n          0x00\n            /* \"#utility.yul\":1254:1256   */\n          0x60\n            /* \"#utility.yul\":1242:1251   */\n          dup5\n            /* \"#utility.yul\":1233:1240   */\n          dup7\n            /* \"#utility.yul\":1229:1252   */\n          sub\n            /* \"#utility.yul\":1225:1257   */\n          slt\n            /* \"#utility.yul\":1222:1341   */\n          iszero\n          tag_150\n          jumpi\n            /* \"#utility.yul\":1260:1339   */\n          tag_151\n          tag_142\n          jump\t// in\n        tag_151:\n            /* \"#utility.yul\":1222:1341   */\n        tag_150:\n            /* \"#utility.yul\":1380:1381   */\n          0x00\n            /* \"#utility.yul\":1405:1458   */\n          tag_152\n            /* \"#utility.yul\":1450:1457   */\n          dup7\n            /* \"#utility.yul\":1441:1447   */\n          dup3\n            /* \"#utility.yul\":1430:1439   */\n          dup8\n            /* \"#utility.yul\":1426:1448   */\n          add\n            /* \"#utility.yul\":1405:1458   */\n          tag_131\n          jump\t// in\n        tag_152:\n            /* \"#utility.yul\":1395:1458   */\n          swap4\n          pop\n            /* \"#utility.yul\":1351:1468   */\n          pop\n            /* \"#utility.yul\":1507:1509   */\n          0x20\n            /* \"#utility.yul\":1533:1586   */\n          tag_153\n            /* \"#utility.yul\":1578:1585   */\n          dup7\n            /* \"#utility.yul\":1569:1575   */\n          dup3\n            /* \"#utility.yul\":1558:1567   */\n          dup8\n            /* \"#utility.yul\":1554:1576   */\n          add\n            /* \"#utility.yul\":1533:1586   */\n          tag_131\n          jump\t// in\n        tag_153:\n            /* \"#utility.yul\":1523:1586   */\n          swap3\n          pop\n            /* \"#utility.yul\":1478:1596   */\n          pop\n            /* \"#utility.yul\":1635:1637   */\n          0x40\n            /* \"#utility.yul\":1661:1714   */\n          tag_154\n            /* \"#utility.yul\":1706:1713   */\n          dup7\n            /* \"#utility.yul\":1697:1703   */\n          dup3\n            /* \"#utility.yul\":1686:1695   */\n          dup8\n            /* \"#utility.yul\":1682:1704   */\n          add\n            /* \"#utility.yul\":1661:1714   */\n          tag_135\n          jump\t// in\n        tag_154:\n            /* \"#utility.yul\":1651:1714   */\n          swap2\n          pop\n            /* \"#utility.yul\":1606:1724   */\n          pop\n            /* \"#utility.yul\":1112:1731   */\n          swap3\n          pop\n          swap3\n          pop\n          swap3\n          jump\t// out\n            /* \"#utility.yul\":1737:2211   */\n        tag_22:\n            /* \"#utility.yul\":1805:1811   */\n          0x00\n            /* \"#utility.yul\":1813:1819   */\n          dup1\n            /* \"#utility.yul\":1862:1864   */\n          0x40\n            /* \"#utility.yul\":1850:1859   */\n          dup4\n            /* \"#utility.yul\":1841:1848   */\n          dup6\n            /* \"#utility.yul\":1837:1860   */\n          sub\n            /* \"#utility.yul\":1833:1865   */\n          slt\n            /* \"#utility.yul\":1830:1949   */\n          iszero\n          tag_156\n          jumpi\n            /* \"#utility.yul\":1868:1947   */\n          tag_157\n          tag_142\n          jump\t// in\n        tag_157:\n            /* \"#utility.yul\":1830:1949   */\n        tag_156:\n            /* \"#utility.yul\":1988:1989   */\n          0x00\n            /* \"#utility.yul\":2013:2066   */\n          tag_158\n            /* \"#utility.yul\":2058:2065   */\n          dup6\n            /* \"#utility.yul\":2049:2055   */\n          dup3\n            /* \"#utility.yul\":2038:2047   */\n          dup7\n            /* \"#utility.yul\":2034:2056   */\n          add\n            /* \"#utility.yul\":2013:2066   */\n          tag_131\n          jump\t// in\n        tag_158:\n            /* \"#utility.yul\":2003:2066   */\n          swap3\n          pop\n            /* \"#utility.yul\":1959:2076   */\n          pop\n            /* \"#utility.yul\":2115:2117   */\n          0x20\n            /* \"#utility.yul\":2141:2194   */\n          tag_159\n            /* \"#utility.yul\":2186:2193   */\n          dup6\n            /* \"#utility.yul\":2177:2183   */\n          dup3\n            /* \"#utility.yul\":2166:2175   */\n          dup7\n            /* \"#utility.yul\":2162:2184   */\n          add\n            /* \"#utility.yul\":2141:2194   */\n          tag_135\n          jump\t// in\n        tag_159:\n            /* \"#utility.yul\":2131:2194   */\n          swap2\n          pop\n            /* \"#utility.yul\":2086:2204   */\n          pop\n            /* \"#utility.yul\":1737:2211   */\n          swap3\n          pop\n          swap3\n          swap1\n          pop\n          jump\t// out\n            /* \"#utility.yul\":2217:2581   */\n        tag_160:\n            /* \"#utility.yul\":2305:2308   */\n          0x00\n            /* \"#utility.yul\":2333:2372   */\n          tag_162\n            /* \"#utility.yul\":2366:2371   */\n          dup3\n            /* \"#utility.yul\":2333:2372   */\n          tag_163\n          jump\t// in\n        tag_162:\n            /* \"#utility.yul\":2388:2459   */\n          tag_164\n            /* \"#utility.yul\":2452:2458   */\n          dup2\n            /* \"#utility.yul\":2447:2450   */\n          dup6\n            /* \"#utility.yul\":2388:2459   */\n          tag_165\n          jump\t// in\n        tag_164:\n            /* \"#utility.yul\":2381:2459   */\n          swap4\n          pop\n            /* \"#utility.yul\":2468:2520   */\n          tag_166\n            /* \"#utility.yul\":2513:2519   */\n          dup2\n            /* \"#utility.yul\":2508:2511   */\n          dup6\n            /* \"#utility.yul\":2501:2505   */\n          0x20\n            /* \"#utility.yul\":2494:2499   */\n          dup7\n            /* \"#utility.yul\":2490:2506   */\n          add\n            /* \"#utility.yul\":2468:2520   */\n          tag_167\n          jump\t// in\n        tag_166:\n            /* \"#utility.yul\":2545:2574   */\n          tag_168\n            /* \"#utility.yul\":2567:2573   */\n          dup2\n            /* \"#utility.yul\":2545:2574   */\n          tag_169\n          jump\t// in\n        tag_168:\n            /* \"#utility.yul\":2540:2543   */\n          dup5\n            /* \"#utility.yul\":2536:2575   */\n          add\n            /* \"#utility.yul\":2529:2575   */\n          swap2\n          pop\n            /* \"#utility.yul\":2309:2581   */\n          pop\n            /* \"#utility.yul\":2217:2581   */\n          swap3\n          swap2\n          pop\n          pop\n          jump\t// out\n            /* \"#utility.yul\":2587:2953   */\n        tag_170:\n            /* \"#utility.yul\":2729:2732   */\n          0x00\n            /* \"#utility.yul\":2750:2817   */\n          tag_172\n            /* \"#utility.yul\":2814:2816   */\n          0x10\n            /* \"#utility.yul\":2809:2812   */\n          dup4\n            /* \"#utility.yul\":2750:2817   */\n          tag_165\n          jump\t// in\n        tag_172:\n            /* \"#utility.yul\":2743:2817   */\n          swap2\n          pop\n            /* \"#utility.yul\":2826:2919   */\n          tag_173\n            /* \"#utility.yul\":2915:2918   */\n          dup3\n            /* \"#utility.yul\":2826:2919   */\n          tag_174\n          jump\t// in\n        tag_173:\n            /* \"#utility.yul\":2944:2946   */\n          0x20\n            /* \"#utility.yul\":2939:2942   */\n          dup3\n            /* \"#utility.yul\":2935:2947   */\n          add\n            /* \"#utility.yul\":2928:2947   */\n          swap1\n          pop\n            /* \"#utility.yul\":2587:2953   */\n          swap2\n          swap1\n          pop\n          jump\t// out\n            /* \"#utility.yul\":2959:3325   */\n        tag_175:\n            /* \"#utility.yul\":3101:3104   */\n          0x00\n            /* \"#utility.yul\":3122:3189   */\n          tag_177\n            /* \"#utility.yul\":3186:3188   */\n          0x0b\n            /* \"#utility.yul\":3181:3184   */\n          dup4\n            /* \"#utility.yul\":3122:3189   */\n          tag_165\n          jump\t// in\n        tag_177:\n            /* \"#utility.yul\":3115:3189   */\n          swap2\n          pop\n            /* \"#utility.yul\":3198:3291   */\n          tag_178\n            /* \"#utility.yul\":3287:3290   */\n          dup3\n            /* \"#utility.yul\":3198:3291   */\n          tag_179\n          jump\t// in\n        tag_178:\n            /* \"#utility.yul\":3316:3318   */\n          0x20\n            /* \"#utility.yul\":3311:3314   */\n          dup3\n            /* \"#utility.yul\":3307:3319   */\n          add\n            /* \"#utility.yul\":3300:3319   */\n          swap1\n          pop\n            /* \"#utility.yul\":2959:3325   */\n          swap2\n          swap1\n          pop\n          jump\t// out\n            /* \"#utility.yul\":3331:3697   */\n        tag_180:\n            /* \"#utility.yul\":3473:3476   */\n          0x00\n            /* \"#utility.yul\":3494:3561   */\n          tag_182\n            /* \"#utility.yul\":3558:3560   */\n          0x0e\n            /* \"#utility.yul\":3553:3556   */\n          dup4\n            /* \"#utility.yul\":3494:3561   */\n          tag_165\n          jump\t// in\n        tag_182:\n            /* \"#utility.yul\":3487:3561   */\n          swap2\n          pop\n            /* \"#utility.yul\":3570:3663   */\n          tag_183\n            /* \"#utility.yul\":3659:3662   */\n          dup3\n            /* \"#utility.yul\":3570:3663   */\n          tag_184\n          jump\t// in\n        tag_183:\n            /* \"#utility.yul\":3688:3690   */\n          0x20\n            /* \"#utility.yul\":3683:3686   */\n          dup3\n            /* \"#utility.yul\":3679:3691   */\n          add\n            /* \"#utility.yul\":3672:3691   */\n          swap1\n          pop\n            /* \"#utility.yul\":3331:3697   */\n          swap2\n          swap1\n          pop\n          jump\t// out\n            /* \"#utility.yul\":3703:4069   */\n        tag_185:\n            /* \"#utility.yul\":3845:3848   */\n          0x00\n            /* \"#utility.yul\":3866:3933   */\n          tag_187\n            /* \"#utility.yul\":3930:3932   */\n          0x1f\n            /* \"#utility.yul\":3925:3928   */\n          dup4\n            /* \"#utility.yul\":3866:3933   */\n          tag_165\n          jump\t// in\n        tag_187:\n            /* \"#utility.yul\":3859:3933   */\n          swap2\n          pop\n            /* \"#utility.yul\":3942:4035   */\n          tag_188\n            /* \"#utility.yul\":4031:4034   */\n          dup3\n            /* \"#utility.yul\":3942:4035   */\n          tag_189\n          jump\t// in\n        tag_188:\n            /* \"#utility.yul\":4060:4062   */\n          0x20\n            /* \"#utility.yul\":4055:4058   */\n          dup3\n            /* \"#utility.yul\":4051:4063   */\n          add\n            /* \"#utility.yul\":4044:4063   */\n          swap1\n          pop\n            /* \"#utility.yul\":3703:4069   */\n          swap2\n          swap1\n          pop\n          jump\t// out\n            /* \"#utility.yul\":4075:4193   */\n        tag_190:\n            /* \"#utility.yul\":4162:4186   */\n          tag_192\n            /* \"#utility.yul\":4180:4185   */\n          dup2\n            /* \"#utility.yul\":4162:4186   */\n          tag_193\n          jump\t// in\n        tag_192:\n            /* \"#utility.yul\":4157:4160   */\n          dup3\n            /* \"#utility.yul\":4150:4187   */\n          mstore\n            /* \"#utility.yul\":4075:4193   */\n          pop\n          pop\n          jump\t// out\n            /* \"#utility.yul\":4199:4311   */\n        tag_194:\n            /* \"#utility.yul\":4282:4304   */\n          tag_196\n            /* \"#utility.yul\":4298:4303   */\n          dup2\n            /* \"#utility.yul\":4282:4304   */\n          tag_197\n          jump\t// in\n        tag_196:\n            /* \"#utility.yul\":4277:4280   */\n          dup3\n            /* \"#utility.yul\":4270:4305   */\n          mstore\n            /* \"#utility.yul\":4199:4311   */\n          pop\n          pop\n          jump\t// out\n            /* \"#utility.yul\":4317:4630   */\n        tag_19:\n            /* \"#utility.yul\":4430:4434   */\n          0x00\n            /* \"#utility.yul\":4468:4470   */\n          0x20\n            /* \"#utility.yul\":4457:4466   */\n          dup3\n            /* \"#utility.yul\":4453:4471   */\n          add\n            /* \"#utility.yul\":4445:4471   */\n          swap1\n          pop\n            /* \"#utility.yul\":4517:4526   */\n          dup2\n            /* \"#utility.yul\":4511:4515   */\n          dup2\n            /* \"#utility.yul\":4507:4527   */\n          sub\n            /* \"#utility.yul\":4503:4504   */\n          0x00\n            /* \"#utility.yul\":4492:4501   */\n          dup4\n            /* \"#utility.yul\":4488:4505   */\n          add\n            /* \"#utility.yul\":4481:4528   */\n          mstore\n            /* \"#utility.yul\":4545:4623   */\n          tag_199\n            /* \"#utility.yul\":4618:4622   */\n          dup2\n            /* \"#utility.yul\":4609:4615   */\n          dup5\n            /* \"#utility.yul\":4545:4623   */\n          tag_160\n          jump\t// in\n        tag_199:\n            /* \"#utility.yul\":4537:4623   */\n          swap1\n          pop\n            /* \"#utility.yul\":4317:4630   */\n          swap3\n          swap2\n          pop\n          pop\n          jump\t// out\n            /* \"#utility.yul\":4636:5055   */\n        tag_75:\n            /* \"#utility.yul\":4802:4806   */\n          0x00\n            /* \"#utility.yul\":4840:4842   */\n          0x20\n            /* \"#utility.yul\":4829:4838   */\n          dup3\n            /* \"#utility.yul\":4825:4843   */\n          add\n            /* \"#utility.yul\":4817:4843   */\n          swap1\n          pop\n            /* \"#utility.yul\":4889:4898   */\n          dup2\n            /* \"#utility.yul\":4883:4887   */\n          dup2\n            /* \"#utility.yul\":4879:4899   */\n          sub\n            /* \"#utility.yul\":4875:4876   */\n          0x00\n            /* \"#utility.yul\":4864:4873   */\n          dup4\n            /* \"#utility.yul\":4860:4877   */\n          add\n            /* \"#utility.yul\":4853:4900   */\n          mstore\n            /* \"#utility.yul\":4917:5048   */\n          tag_201\n            /* \"#utility.yul\":5043:5047   */\n          dup2\n            /* \"#utility.yul\":4917:5048   */\n          tag_170\n          jump\t// in\n        tag_201:\n            /* \"#utility.yul\":4909:5048   */\n          swap1\n          pop\n            /* \"#utility.yul\":4636:5055   */\n          swap2\n          swap1\n          pop\n          jump\t// out\n            /* \"#utility.yul\":5061:5480   */\n        tag_72:\n            /* \"#utility.yul\":5227:5231   */\n          0x00\n            /* \"#utility.yul\":5265:5267   */\n          0x20\n            /* \"#utility.yul\":5254:5263   */\n          dup3\n            /* \"#utility.yul\":5250:5268   */\n          add\n            /* \"#utility.yul\":5242:5268   */\n          swap1\n          pop\n            /* \"#utility.yul\":5314:5323   */\n          dup2\n            /* \"#utility.yul\":5308:5312   */\n          dup2\n            /* \"#utility.yul\":5304:5324   */\n          sub\n            /* \"#utility.yul\":5300:5301   */\n          0x00\n            /* \"#utility.yul\":5289:5298   */\n          dup4\n            /* \"#utility.yul\":5285:5302   */\n          add\n            /* \"#utility.yul\":5278:5325   */\n          mstore\n            /* \"#utility.yul\":5342:5473   */\n          tag_203\n            /* \"#utility.yul\":5468:5472   */\n          dup2\n            /* \"#utility.yul\":5342:5473   */\n          tag_175\n          jump\t// in\n        tag_203:\n            /* \"#utility.yul\":5334:5473   */\n          swap1\n          pop\n            /* \"#utility.yul\":5061:5480   */\n          swap2\n          swap1\n          pop\n          jump\t// out\n            /* \"#utility.yul\":5486:5905   */\n        tag_78:\n            /* \"#utility.yul\":5652:5656   */\n          0x00\n            /* \"#utility.yul\":5690:5692   */\n          0x20\n            /* \"#utility.yul\":5679:5688   */\n          dup3\n            /* \"#utility.yul\":5675:5693   */\n          add\n            /* \"#utility.yul\":5667:5693   */\n          swap1\n          pop\n            /* \"#utility.yul\":5739:5748   */\n          dup2\n            /* \"#utility.yul\":5733:5737   */\n          dup2\n            /* \"#utility.yul\":5729:5749   */\n          sub\n            /* \"#utility.yul\":5725:5726   */\n          0x00\n            /* \"#utility.yul\":5714:5723   */\n          dup4\n            /* \"#utility.yul\":5710:5727   */\n          add\n            /* \"#utility.yul\":5703:5750   */\n          mstore\n            /* \"#utility.yul\":5767:5898   */\n          tag_205\n            /* \"#utility.yul\":5893:5897   */\n          dup2\n            /* \"#utility.yul\":5767:5898   */\n          tag_180\n          jump\t// in\n        tag_205:\n            /* \"#utility.yul\":5759:5898   */\n          swap1\n          pop\n            /* \"#utility.yul\":5486:5905   */\n          swap2\n          swap1\n          pop\n          jump\t// out\n            /* \"#utility.yul\":5911:6330   */\n        tag_88:\n            /* \"#utility.yul\":6077:6081   */\n          0x00\n            /* \"#utility.yul\":6115:6117   */\n          0x20\n            /* \"#utility.yul\":6104:6113   */\n          dup3\n            /* \"#utility.yul\":6100:6118   */\n          add\n            /* \"#utility.yul\":6092:6118   */\n          swap1\n          pop\n            /* \"#utility.yul\":6164:6173   */\n          dup2\n            /* \"#utility.yul\":6158:6162   */\n          dup2\n            /* \"#utility.yul\":6154:6174   */\n          sub\n            /* \"#utility.yul\":6150:6151   */\n          0x00\n            /* \"#utility.yul\":6139:6148   */\n          dup4\n            /* \"#utility.yul\":6135:6152   */\n          add\n            /* \"#utility.yul\":6128:6175   */\n          mstore\n            /* \"#utility.yul\":6192:6323   */\n          tag_207\n            /* \"#utility.yul\":6318:6322   */\n          dup2\n            /* \"#utility.yul\":6192:6323   */\n          tag_185\n          jump\t// in\n        tag_207:\n            /* \"#utility.yul\":6184:6323   */\n          swap1\n          pop\n            /* \"#utility.yul\":5911:6330   */\n          swap2\n          swap1\n          pop\n          jump\t// out\n            /* \"#utility.yul\":6336:6558   */\n        tag_27:\n            /* \"#utility.yul\":6429:6433   */\n          0x00\n            /* \"#utility.yul\":6467:6469   */\n          0x20\n            /* \"#utility.yul\":6456:6465   */\n          dup3\n            /* \"#utility.yul\":6452:6470   */\n          add\n            /* \"#utility.yul\":6444:6470   */\n          swap1\n          pop\n            /* \"#utility.yul\":6480:6551   */\n          tag_209\n            /* \"#utility.yul\":6548:6549   */\n          0x00\n            /* \"#utility.yul\":6537:6546   */\n          dup4\n            /* \"#utility.yul\":6533:6550   */\n          add\n            /* \"#utility.yul\":6524:6530   */\n          dup5\n            /* \"#utility.yul\":6480:6551   */\n          tag_190\n          jump\t// in\n        tag_209:\n            /* \"#utility.yul\":6336:6558   */\n          swap3\n          swap2\n          pop\n          pop\n          jump\t// out\n            /* \"#utility.yul\":6564:6778   */\n        tag_35:\n            /* \"#utility.yul\":6653:6657   */\n          0x00\n            /* \"#utility.yul\":6691:6693   */\n          0x20\n            /* \"#utility.yul\":6680:6689   */\n          dup3\n            /* \"#utility.yul\":6676:6694   */\n          add\n            /* \"#utility.yul\":6668:6694   */\n          swap1\n          pop\n            /* \"#utility.yul\":6704:6771   */\n          tag_211\n            /* \"#utility.yul\":6768:6769   */\n          0x00\n            /* \"#utility.yul\":6757:6766   */\n          dup4\n            /* \"#utility.yul\":6753:6770   */\n          add\n            /* \"#utility.yul\":6744:6750   */\n          dup5\n            /* \"#utility.yul\":6704:6771   */\n          tag_194\n          jump\t// in\n        tag_211:\n            /* \"#utility.yul\":6564:6778   */\n          swap3\n          swap2\n          pop\n          pop\n          jump\t// out\n            /* \"#utility.yul\":6865:6964   */\n        tag_163:\n            /* \"#utility.yul\":6917:6923   */\n          0x00\n            /* \"#utility.yul\":6951:6956   */\n          dup2\n            /* \"#utility.yul\":6945:6957   */\n          mload\n            /* \"#utility.yul\":6935:6957   */\n          swap1\n          pop\n            /* \"#utility.yul\":6865:6964   */\n          swap2\n          swap1\n          pop\n          jump\t// out\n            /* \"#utility.yul\":6970:7139   */\n        tag_165:\n            /* \"#utility.yul\":7054:7065   */\n          0x00\n            /* \"#utility.yul\":7088:7094   */\n          dup3\n            /* \"#utility.yul\":7083:7086   */\n          dup3\n            /* \"#utility.yul\":7076:7095   */\n          mstore\n            /* \"#utility.yul\":7128:7132   */\n          0x20\n            /* \"#utility.yul\":7123:7126   */\n          dup3\n            /* \"#utility.yul\":7119:7133   */\n          add\n            /* \"#utility.yul\":7104:7133   */\n          swap1\n          pop\n            /* \"#utility.yul\":6970:7139   */\n          swap3\n          swap2\n          pop\n          pop\n          jump\t// out\n            /* \"#utility.yul\":7145:7450   */\n        tag_92:\n            /* \"#utility.yul\":7185:7188   */\n          0x00\n            /* \"#utility.yul\":7204:7224   */\n          tag_217\n            /* \"#utility.yul\":7222:7223   */\n          dup3\n            /* \"#utility.yul\":7204:7224   */\n          tag_193\n          jump\t// in\n        tag_217:\n            /* \"#utility.yul\":7199:7224   */\n          swap2\n          pop\n            /* \"#utility.yul\":7238:7258   */\n          tag_218\n            /* \"#utility.yul\":7256:7257   */\n          dup4\n            /* \"#utility.yul\":7238:7258   */\n          tag_193\n          jump\t// in\n        tag_218:\n            /* \"#utility.yul\":7233:7258   */\n          swap3\n          pop\n            /* \"#utility.yul\":7392:7393   */\n          dup3\n            /* \"#utility.yul\":7324:7390   */\n          0xffffffffffffffffffffffffffffffffffffffffffffffffffffffffffffffff\n            /* \"#utility.yul\":7320:7394   */\n          sub\n            /* \"#utility.yul\":7317:7318   */\n          dup3\n            /* \"#utility.yul\":7314:7395   */\n          gt\n            /* \"#utility.yul\":7311:7418   */\n          iszero\n          tag_219\n          jumpi\n            /* \"#utility.yul\":7398:7416   */\n          tag_220\n          tag_221\n          jump\t// in\n        tag_220:\n            /* \"#utility.yul\":7311:7418   */\n        tag_219:\n            /* \"#utility.yul\":7442:7443   */\n          dup3\n            /* \"#utility.yul\":7439:7440   */\n          dup3\n            /* \"#utility.yul\":7435:7444   */\n          add\n            /* \"#utility.yul\":7428:7444   */\n          swap1\n          pop\n            /* \"#utility.yul\":7145:7450   */\n          swap3\n          swap2\n          pop\n          pop\n          jump\t// out\n            /* \"#utility.yul\":7456:7647   */\n        tag_127:\n            /* \"#utility.yul\":7496:7500   */\n          0x00\n            /* \"#utility.yul\":7516:7536   */\n          tag_223\n            /* \"#utility.yul\":7534:7535   */\n          dup3\n            /* \"#utility.yul\":7516:7536   */\n          tag_193\n          jump\t// in\n        tag_223:\n            /* \"#utility.yul\":7511:7536   */\n          swap2\n          pop\n            /* \"#utility.yul\":7550:7570   */\n          tag_224\n            /* \"#utility.yul\":7568:7569   */\n          dup4\n            /* \"#utility.yul\":7550:7570   */\n          tag_193\n          jump\t// in\n        tag_224:\n            /* \"#utility.yul\":7545:7570   */\n          swap3\n          pop\n            /* \"#utility.yul\":7589:7590   */\n          dup3\n            /* \"#utility.yul\":7586:7587   */\n          dup3\n            /* \"#utility.yul\":7583:7591   */\n          lt\n            /* \"#utility.yul\":7580:7614   */\n          iszero\n          tag_225\n          jumpi\n            /* \"#utility.yul\":7594:7612   */\n          tag_226\n          tag_221\n          jump\t// in\n        tag_226:\n            /* \"#utility.yul\":7580:7614   */\n        tag_225:\n            /* \"#utility.yul\":7639:7640   */\n          dup3\n            /* \"#utility.yul\":7636:7637   */\n          dup3\n            /* \"#utility.yul\":7632:7641   */\n          sub\n            /* \"#utility.yul\":7624:7641   */\n          swap1\n          pop\n            /* \"#utility.yul\":7456:7647   */\n          swap3\n          swap2\n          pop\n          pop\n          jump\t// out\n            /* \"#utility.yul\":7653:7749   */\n        tag_227:\n            /* \"#utility.yul\":7690:7697   */\n          0x00\n            /* \"#utility.yul\":7719:7743   */\n          tag_229\n            /* \"#utility.yul\":7737:7742   */\n          dup3\n            /* \"#utility.yul\":7719:7743   */\n          tag_230\n          jump\t// in\n        tag_229:\n            /* \"#utility.yul\":7708:7743   */\n          swap1\n          pop\n            /* \"#utility.yul\":7653:7749   */\n          swap2\n          swap1\n          pop\n          jump\t// out\n            /* \"#utility.yul\":7755:7881   */\n        tag_230:\n            /* \"#utility.yul\":7792:7799   */\n          0x00\n            /* \"#utility.yul\":7832:7874   */\n          0xffffffffffffffffffffffffffffffffffffffff\n            /* \"#utility.yul\":7825:7830   */\n          dup3\n            /* \"#utility.yul\":7821:7875   */\n          and\n            /* \"#utility.yul\":7810:7875   */\n          swap1\n          pop\n            /* \"#utility.yul\":7755:7881   */\n          swap2\n          swap1\n          pop\n          jump\t// out\n            /* \"#utility.yul\":7887:7964   */\n        tag_193:\n            /* \"#utility.yul\":7924:7931   */\n          0x00\n            /* \"#utility.yul\":7953:7958   */\n          dup2\n            /* \"#utility.yul\":7942:7958   */\n          swap1\n          pop\n            /* \"#utility.yul\":7887:7964   */\n          swap2\n          swap1\n          pop\n          jump\t// out\n            /* \"#utility.yul\":7970:8056   */\n        tag_197:\n            /* \"#utility.yul\":8005:8012   */\n          0x00\n            /* \"#utility.yul\":8045:8049   */\n          0xff\n            /* \"#utility.yul\":8038:8043   */\n          dup3\n            /* \"#utility.yul\":8034:8050   */\n          and\n            /* \"#utility.yul\":8023:8050   */\n          swap1\n          pop\n            /* \"#utility.yul\":7970:8056   */\n          swap2\n          swap1\n          pop\n          jump\t// out\n            /* \"#utility.yul\":8062:8369   */\n        tag_167:\n            /* \"#utility.yul\":8130:8131   */\n          0x00\n            /* \"#utility.yul\":8140:8253   */\n        tag_235:\n            /* \"#utility.yul\":8154:8160   */\n          dup4\n            /* \"#utility.yul\":8151:8152   */\n          dup2\n            /* \"#utility.yul\":8148:8161   */\n          lt\n            /* \"#utility.yul\":8140:8253   */\n          iszero\n          tag_237\n          jumpi\n            /* \"#utility.yul\":8239:8240   */\n          dup1\n            /* \"#utility.yul\":8234:8237   */\n          dup3\n            /* \"#utility.yul\":8230:8241   */\n          add\n            /* \"#utility.yul\":8224:8242   */\n          mload\n            /* \"#utility.yul\":8220:8221   */\n          dup2\n            /* \"#utility.yul\":8215:8218   */\n          dup5\n            /* \"#utility.yul\":8211:8222   */\n          add\n            /* \"#utility.yul\":8204:8243   */\n          mstore\n            /* \"#utility.yul\":8176:8178   */\n          0x20\n            /* \"#utility.yul\":8173:8174   */\n          dup2\n            /* \"#utility.yul\":8169:8179   */\n          add\n            /* \"#utility.yul\":8164:8179   */\n          swap1\n          pop\n            /* \"#utility.yul\":8140:8253   */\n          jump(tag_235)\n        tag_237:\n            /* \"#utility.yul\":8271:8277   */\n          dup4\n            /* \"#utility.yul\":8268:8269   */\n          dup2\n            /* \"#utility.yul\":8265:8278   */\n          gt\n            /* \"#utility.yul\":8262:8363   */\n          iszero\n          tag_238\n          jumpi\n            /* \"#utility.yul\":8351:8352   */\n          0x00\n            /* \"#utility.yul\":8342:8348   */\n          dup5\n            /* \"#utility.yul\":8337:8340   */\n          dup5\n            /* \"#utility.yul\":8333:8349   */\n          add\n            /* \"#utility.yul\":8326:8353   */\n          mstore\n            /* \"#utility.yul\":8262:8363   */\n        tag_238:\n            /* \"#utility.yul\":8111:8369   */\n          pop\n            /* \"#utility.yul\":8062:8369   */\n          pop\n          pop\n          pop\n          jump\t// out\n            /* \"#utility.yul\":8375:8695   */\n        tag_62:\n            /* \"#utility.yul\":8419:8425   */\n          0x00\n            /* \"#utility.yul\":8456:8457   */\n          0x02\n            /* \"#utility.yul\":8450:8454   */\n          dup3\n            /* \"#utility.yul\":8446:8458   */\n          div\n            /* \"#utility.yul\":8436:8458   */\n          swap1\n          pop\n            /* \"#utility.yul\":8503:8504   */\n          0x01\n            /* \"#utility.yul\":8497:8501   */\n          dup3\n            /* \"#utility.yul\":8493:8505   */\n          and\n            /* \"#utility.yul\":8524:8542   */\n          dup1\n            /* \"#utility.yul\":8514:8595   */\n          tag_240\n          jumpi\n            /* \"#utility.yul\":8580:8584   */\n          0x7f\n            /* \"#utility.yul\":8572:8578   */\n          dup3\n            /* \"#utility.yul\":8568:8585   */\n          and\n            /* \"#utility.yul\":8558:8585   */\n          swap2\n          pop\n            /* \"#utility.yul\":8514:8595   */\n        tag_240:\n            /* \"#utility.yul\":8642:8644   */\n          0x20\n            /* \"#utility.yul\":8634:8640   */\n          dup3\n            /* \"#utility.yul\":8631:8645   */\n          lt\n            /* \"#utility.yul\":8611:8629   */\n          dup2\n            /* \"#utility.yul\":8608:8646   */\n          eq\n            /* \"#utility.yul\":8605:8689   */\n          iszero\n          tag_241\n          jumpi\n            /* \"#utility.yul\":8661:8679   */\n          tag_242\n          tag_243\n          jump\t// in\n        tag_242:\n            /* \"#utility.yul\":8605:8689   */\n        tag_241:\n            /* \"#utility.yul\":8426:8695   */\n          pop\n            /* \"#utility.yul\":8375:8695   */\n          swap2\n          swap1\n          pop\n          jump\t// out\n            /* \"#utility.yul\":8701:8881   */\n        tag_112:\n            /* \"#utility.yul\":8749:8826   */\n          0x4e487b7100000000000000000000000000000000000000000000000000000000\n            /* \"#utility.yul\":8746:8747   */\n          0x00\n            /* \"#utility.yul\":8739:8827   */\n          mstore\n            /* \"#utility.yul\":8846:8850   */\n          0x01\n            /* \"#utility.yul\":8843:8844   */\n          0x04\n            /* \"#utility.yul\":8836:8851   */\n          mstore\n            /* \"#utility.yul\":8870:8874   */\n          0x24\n            /* \"#utility.yul\":8867:8868   */\n          0x00\n            /* \"#utility.yul\":8860:8875   */\n          revert\n            /* \"#utility.yul\":8887:9067   */\n        tag_221:\n            /* \"#utility.yul\":8935:9012   */\n          0x4e487b7100000000000000000000000000000000000000000000000000000000\n            /* \"#utility.yul\":8932:8933   */\n          0x00\n            /* \"#utility.yul\":8925:9013   */\n          mstore\n            /* \"#utility.yul\":9032:9036   */\n          0x11\n            /* \"#utility.yul\":9029:9030   */\n          0x04\n            /* \"#utility.yul\":9022:9037   */\n          mstore\n            /* \"#utility.yul\":9056:9060   */\n          0x24\n            /* \"#utility.yul\":9053:9054   */\n          0x00\n            /* \"#utility.yul\":9046:9061   */\n          revert\n            /* \"#utility.yul\":9073:9253   */\n        tag_243:\n            /* \"#utility.yul\":9121:9198   */\n          0x4e487b7100000000000000000000000000000000000000000000000000000000\n            /* \"#utility.yul\":9118:9119   */\n          0x00\n            /* \"#utility.yul\":9111:9199   */\n          mstore\n            /* \"#utility.yul\":9218:9222   */\n          0x22\n            /* \"#utility.yul\":9215:9216   */\n          0x04\n            /* \"#utility.yul\":9208:9223   */\n          mstore\n            /* \"#utility.yul\":9242:9246   */\n          0x24\n            /* \"#utility.yul\":9239:9240   */\n          0x00\n            /* \"#utility.yul\":9232:9247   */\n          revert\n            /* \"#utility.yul\":9382:9499   */\n        tag_142:\n            /* \"#utility.yul\":9491:9492   */\n          0x00\n            /* \"#utility.yul\":9488:9489   */\n          dup1\n            /* \"#utility.yul\":9481:9493   */\n          revert\n            /* \"#utility.yul\":9505:9607   */\n        tag_169:\n            /* \"#utility.yul\":9546:9552   */\n          0x00\n            /* \"#utility.yul\":9597:9599   */\n          0x1f\n            /* \"#utility.yul\":9593:9600   */\n          not\n            /* \"#utility.yul\":9588:9590   */\n          0x1f\n            /* \"#utility.yul\":9581:9586   */\n          dup4\n            /* \"#utility.yul\":9577:9591   */\n          add\n            /* \"#utility.yul\":9573:9601   */\n          and\n            /* \"#utility.yul\":9563:9601   */\n          swap1\n          pop\n            /* \"#utility.yul\":9505:9607   */\n          swap2\n          swap1\n          pop\n          jump\t// out\n            /* \"#utility.yul\":9613:9779   */\n        tag_174:\n            /* \"#utility.yul\":9753:9771   */\n          0x42616c616e6365203c20616d6f756e7400000000000000000000000000000000\n            /* \"#utility.yul\":9749:9750   */\n          0x00\n            /* \"#utility.yul\":9741:9747   */\n          dup3\n            /* \"#utility.yul\":9737:9751   */\n          add\n            /* \"#utility.yul\":9730:9772   */\n          mstore\n            /* \"#utility.yul\":9613:9779   */\n          pop\n          jump\t// out\n            /* \"#utility.yul\":9785:9946   */\n        tag_179:\n            /* \"#utility.yul\":9925:9938   */\n          0x416d6f756e74203c3d2030000000000000000000000000000000000000000000\n            /* \"#utility.yul\":9921:9922   */\n          0x00\n            /* \"#utility.yul\":9913:9919   */\n          dup3\n            /* \"#utility.yul\":9909:9923   */\n          add\n            /* \"#utility.yul\":9902:9939   */\n          mstore\n            /* \"#utility.yul\":9785:9946   */\n          pop\n          jump\t// out\n            /* \"#utility.yul\":9952:10116   */\n        tag_184:\n            /* \"#utility.yul\":10092:10108   */\n          0x446f6e277420616c6c6f7765642e000000000000000000000000000000000000\n            /* \"#utility.yul\":10088:10089   */\n          0x00\n            /* \"#utility.yul\":10080:10086   */\n          dup3\n            /* \"#utility.yul\":10076:10090   */\n          add\n            /* \"#utility.yul\":10069:10109   */\n          mstore\n            /* \"#utility.yul\":9952:10116   */\n          pop\n          jump\t// out\n            /* \"#utility.yul\":10122:10303   */\n        tag_189:\n            /* \"#utility.yul\":10262:10295   */\n          0x45524332303a206d696e7420746f20746865207a65726f206164647265737300\n            /* \"#utility.yul\":10258:10259   */\n          0x00\n            /* \"#utility.yul\":10250:10256   */\n          dup3\n            /* \"#utility.yul\":10246:10260   */\n          add\n            /* \"#utility.yul\":10239:10296   */\n          mstore\n            /* \"#utility.yul\":10122:10303   */\n          pop\n          jump\t// out\n            /* \"#utility.yul\":10309:10431   */\n        tag_134:\n            /* \"#utility.yul\":10382:10406   */\n          tag_256\n            /* \"#utility.yul\":10400:10405   */\n          dup2\n            /* \"#utility.yul\":10382:10406   */\n          tag_227\n          jump\t// in\n        tag_256:\n            /* \"#utility.yul\":10375:10380   */\n          dup2\n            /* \"#utility.yul\":10372:10407   */\n          eq\n            /* \"#utility.yul\":10362:10425   */\n          tag_257\n          jumpi\n            /* \"#utility.yul\":10421:10422   */\n          0x00\n            /* \"#utility.yul\":10418:10419   */\n          dup1\n            /* \"#utility.yul\":10411:10423   */\n          revert\n            /* \"#utility.yul\":10362:10425   */\n        tag_257:\n            /* \"#utility.yul\":10309:10431   */\n          pop\n          jump\t// out\n            /* \"#utility.yul\":10437:10559   */\n        tag_138:\n            /* \"#utility.yul\":10510:10534   */\n          tag_259\n            /* \"#utility.yul\":10528:10533   */\n          dup2\n            /* \"#utility.yul\":10510:10534   */\n          tag_193\n          jump\t// in\n        tag_259:\n            /* \"#utility.yul\":10503:10508   */\n          dup2\n            /* \"#utility.yul\":10500:10535   */\n          eq\n            /* \"#utility.yul\":10490:10553   */\n          tag_260\n          jumpi\n            /* \"#utility.yul\":10549:10550   */\n          0x00\n            /* \"#utility.yul\":10546:10547   */\n          dup1\n            /* \"#utility.yul\":10539:10551   */\n          revert\n            /* \"#utility.yul\":10490:10553   */\n        tag_260:\n            /* \"#utility.yul\":10437:10559   */\n          pop\n          jump\t// out\n\n        auxdata: 0xa264697066735822122082411dbe6f3ae499865557ce42c20ee33a03ccf641e101aacdf51194efe9274364736f6c63430008070033\n    }\n}\n",
				"bytecode": {
					"linkReferences": {},
					"object": "6080604052604051620000129062000114565b604051809103906000f0801580156200002f573d6000803e3d6000fd5b50600660006101000a81548173ffffffffffffffffffffffffffffffffffffffff021916908373ffffffffffffffffffffffffffffffffffffffff1602179055503480156200007d57600080fd5b5060405162002f8938038062002f898339818101604052810190620000a3919062000267565b8260009080519060200190620000bb92919062000122565b5033600560006101000a81548173ffffffffffffffffffffffffffffffffffffffff021916908373ffffffffffffffffffffffffffffffffffffffff16021790555081600181905550806002819055505050506200048a565b6115b680620019d383390190565b828054620001309062000381565b90600052602060002090601f016020900481019282620001545760008555620001a0565b82601f106200016f57805160ff1916838001178555620001a0565b82800160010185558215620001a0579182015b828111156200019f57825182559160200191906001019062000182565b5b509050620001af9190620001b3565b5090565b5b80821115620001ce576000816000905550600101620001b4565b5090565b6000620001e9620001e3846200030b565b620002e2565b90508281526020810184848401111562000208576200020762000450565b5b620002158482856200034b565b509392505050565b600082601f8301126200023557620002346200044b565b5b815162000247848260208601620001d2565b91505092915050565b600081519050620002618162000470565b92915050565b6000806000606084860312156200028357620002826200045a565b5b600084015167ffffffffffffffff811115620002a457620002a362000455565b5b620002b2868287016200021d565b9350506020620002c58682870162000250565b9250506040620002d88682870162000250565b9150509250925092565b6000620002ee62000301565b9050620002fc8282620003b7565b919050565b6000604051905090565b600067ffffffffffffffff8211156200032957620003286200041c565b5b62000334826200045f565b9050602081019050919050565b6000819050919050565b60005b838110156200036b5780820151818401526020810190506200034e565b838111156200037b576000848401525b50505050565b600060028204905060018216806200039a57607f821691505b60208210811415620003b157620003b0620003ed565b5b50919050565b620003c2826200045f565b810181811067ffffffffffffffff82111715620003e457620003e36200041c565b5b80604052505050565b7f4e487b7100000000000000000000000000000000000000000000000000000000600052602260045260246000fd5b7f4e487b7100000000000000000000000000000000000000000000000000000000600052604160045260246000fd5b600080fd5b600080fd5b600080fd5b600080fd5b6000601f19601f8301169050919050565b6200047b8162000341565b81146200048757600080fd5b50565b611539806200049a6000396000f3fe608060405234801561001057600080fd5b50600436106100625760003560e01c80634041ef5414610067578063633fff16146100975780636cea0e46146100b35780636dd7d8ea146100cf5780638203373a146100eb578063c4e41b2214610107575b600080fd5b610081600480360381019061007c9190610e3b565b610125565b60405161008e919061113f565b60405180910390f35b6100b160048036038101906100ac9190610eb1565b610278565b005b6100cd60048036038101906100c89190610e3b565b6103f8565b005b6100e960048036038101906100e49190610e3b565b61051b565b005b61010560048036038101906101009190610e68565b61087c565b005b61010f610afd565b60405161011c919061113f565b60405180910390f35b6000600560009054906101000a900473ffffffffffffffffffffffffffffffffffffffff1673ffffffffffffffffffffffffffffffffffffffff163373ffffffffffffffffffffffffffffffffffffffff16146101b7576040517f08c379a00000000000000000000000000000000000000000000000000000000081526004016101ae9061111f565b60405180910390fd5b6002544210156101c657600080fd5b600660009054906101000a900473ffffffffffffffffffffffffffffffffffffffff1673ffffffffffffffffffffffffffffffffffffffff166370a08231836040518263ffffffff1660e01b81526004016102219190611032565b60206040518083038186803b15801561023957600080fd5b505afa15801561024d573d6000803e3d6000fd5b505050506040513d601f19601f820116820180604052508101906102719190610f29565b9050919050565b600560009054906101000a900473ffffffffffffffffffffffffffffffffffffffff1673ffffffffffffffffffffffffffffffffffffffff163373ffffffffffffffffffffffffffffffffffffffff1614610308576040517f08c379a00000000000000000000000000000000000000000000000000000000081526004016102ff9061111f565b60405180910390fd5b805182511461034c576040517f08c379a00000000000000000000000000000000000000000000000000000000081526004016103439061109f565b60405180910390fd5b60005b82518110156103f35781818151811061036b5761036a611380565b5b60200260200101516004600085848151811061038a57610389611380565b5b602002602001015173ffffffffffffffffffffffffffffffffffffffff1673ffffffffffffffffffffffffffffffffffffffff16815260200190815260200160002090805190602001906103df929190610ba4565b5080806103eb906112d9565b91505061034f565b505050565b600560009054906101000a900473ffffffffffffffffffffffffffffffffffffffff1673ffffffffffffffffffffffffffffffffffffffff163373ffffffffffffffffffffffffffffffffffffffff1614610488576040517f08c379a000000000000000000000000000000000000000000000000000000000815260040161047f9061111f565b60405180910390fd5b600660009054906101000a900473ffffffffffffffffffffffffffffffffffffffff1673ffffffffffffffffffffffffffffffffffffffff166340c10f198260016040518363ffffffff1660e01b81526004016104e692919061104d565b600060405180830381600087803b15801561050057600080fd5b505af1158015610514573d6000803e3d6000fd5b5050505050565b600154421015801561052f57506002544211155b61056e576040517f08c379a0000000000000000000000000000000000000000000000000000000008152600401610565906110bf565b60405180910390fd5b6000600660009054906101000a900473ffffffffffffffffffffffffffffffffffffffff1673ffffffffffffffffffffffffffffffffffffffff166370a08231336040518263ffffffff1660e01b81526004016105cb9190611032565b60206040518083038186803b1580156105e357600080fd5b505afa1580156105f7573d6000803e3d6000fd5b505050506040513d601f19601f8201168201806040525081019061061b9190610f29565b1161065b576040517f08c379a0000000000000000000000000000000000000000000000000000000008152600401610652906110ff565b60405180910390fd5b600360003373ffffffffffffffffffffffffffffffffffffffff1673ffffffffffffffffffffffffffffffffffffffff16815260200190815260200160002060009054906101000a900460ff16156106e8576040517f08c379a00000000000000000000000000000000000000000000000000000000081526004016106df906110df565b60405180910390fd5b600660009054906101000a900473ffffffffffffffffffffffffffffffffffffffff1673ffffffffffffffffffffffffffffffffffffffff1663a9059cbb82600660009054906101000a900473ffffffffffffffffffffffffffffffffffffffff1673ffffffffffffffffffffffffffffffffffffffff166370a08231336040518263ffffffff1660e01b81526004016107829190611032565b60206040518083038186803b15801561079a57600080fd5b505afa1580156107ae573d6000803e3d6000fd5b505050506040513d601f19601f820116820180604052508101906107d29190610f29565b6040518363ffffffff1660e01b81526004016107ef929190611076565b600060405180830381600087803b15801561080957600080fd5b505af115801561081d573d6000803e3d6000fd5b505050506001600360003373ffffffffffffffffffffffffffffffffffffffff1673ffffffffffffffffffffffffffffffffffffffff16815260200190815260200160002060006101000a81548160ff02191690831515021790555050565b600560009054906101000a900473ffffffffffffffffffffffffffffffffffffffff1673ffffffffffffffffffffffffffffffffffffffff163373ffffffffffffffffffffffffffffffffffffffff161461090c576040517f08c379a00000000000000000000000000000000000000000000000000000000081526004016109039061111f565b60405180910390fd5b60005b8151811015610a475760006003600084848151811061093157610930611380565b5b602002602001015173ffffffffffffffffffffffffffffffffffffffff1673ffffffffffffffffffffffffffffffffffffffff16815260200190815260200160002060006101000a81548160ff021916908315150217905550600660009054906101000a900473ffffffffffffffffffffffffffffffffffffffff1673ffffffffffffffffffffffffffffffffffffffff166340c10f198383815181106109db576109da611380565b5b602002602001015160016040518363ffffffff1660e01b8152600401610a0292919061104d565b600060405180830381600087803b158015610a1c57600080fd5b505af1158015610a30573d6000803e3d6000fd5b505050508080610a3f906112d9565b91505061090f565b50600660009054906101000a900473ffffffffffffffffffffffffffffffffffffffff1673ffffffffffffffffffffffffffffffffffffffff166340c10f19600560009054906101000a900473ffffffffffffffffffffffffffffffffffffffff1660016040518363ffffffff1660e01b8152600401610ac892919061104d565b600060405180830381600087803b158015610ae257600080fd5b505af1158015610af6573d6000803e3d6000fd5b5050505050565b6000600660009054906101000a900473ffffffffffffffffffffffffffffffffffffffff1673ffffffffffffffffffffffffffffffffffffffff1663c4e41b226040518163ffffffff1660e01b815260040160206040518083038186803b158015610b6757600080fd5b505afa158015610b7b573d6000803e3d6000fd5b505050506040513d601f19601f82011682018060405250810190610b9f9190610f29565b905090565b828054610bb090611276565b90600052602060002090601f016020900481019282610bd25760008555610c19565b82601f10610beb57805160ff1916838001178555610c19565b82800160010185558215610c19579182015b82811115610c18578251825591602001919060010190610bfd565b5b509050610c269190610c2a565b5090565b5b80821115610c43576000816000905550600101610c2b565b5090565b6000610c5a610c558461117f565b61115a565b90508083825260208201905082856020860282011115610c7d57610c7c6113e3565b5b60005b85811015610cad5781610c938882610d87565b845260208401935060208301925050600181019050610c80565b5050509392505050565b6000610cca610cc5846111ab565b61115a565b90508083825260208201905082856020860282011115610ced57610cec6113e3565b5b60005b85811015610d3b57813567ffffffffffffffff811115610d1357610d126113de565b5b808601610d208982610df8565b85526020850194506020840193505050600181019050610cf0565b5050509392505050565b6000610d58610d53846111d7565b61115a565b905082815260208101848484011115610d7457610d736113e8565b5b610d7f848285611267565b509392505050565b600081359050610d96816114d5565b92915050565b600082601f830112610db157610db06113de565b5b8135610dc1848260208601610c47565b91505092915050565b600082601f830112610ddf57610dde6113de565b5b8135610def848260208601610cb7565b91505092915050565b600082601f830112610e0d57610e0c6113de565b5b8135610e1d848260208601610d45565b91505092915050565b600081519050610e35816114ec565b92915050565b600060208284031215610e5157610e506113f2565b5b6000610e5f84828501610d87565b91505092915050565b600060208284031215610e7e57610e7d6113f2565b5b600082013567ffffffffffffffff811115610e9c57610e9b6113ed565b5b610ea884828501610d9c565b91505092915050565b60008060408385031215610ec857610ec76113f2565b5b600083013567ffffffffffffffff811115610ee657610ee56113ed565b5b610ef285828601610d9c565b925050602083013567ffffffffffffffff811115610f1357610f126113ed565b5b610f1f85828601610dca565b9150509250929050565b600060208284031215610f3f57610f3e6113f2565b5b6000610f4d84828501610e26565b91505092915050565b610f5f81611219565b82525050565b610f6e81611255565b82525050565b6000610f81601483611208565b9150610f8c82611408565b602082019050919050565b6000610fa4601183611208565b9150610faf82611431565b602082019050919050565b6000610fc7601483611208565b9150610fd28261145a565b602082019050919050565b6000610fea601483611208565b9150610ff582611483565b602082019050919050565b600061100d601783611208565b9150611018826114ac565b602082019050919050565b61102c8161124b565b82525050565b60006020820190506110476000830184610f56565b92915050565b60006040820190506110626000830185610f56565b61106f6020830184610f65565b9392505050565b600060408201905061108b6000830185610f56565b6110986020830184611023565b9392505050565b600060208201905081810360008301526110b881610f74565b9050919050565b600060208201905081810360008301526110d881610f97565b9050919050565b600060208201905081810360008301526110f881610fba565b9050919050565b6000602082019050818103600083015261111881610fdd565b9050919050565b6000602082019050818103600083015261113881611000565b9050919050565b60006020820190506111546000830184611023565b92915050565b6000611164611175565b905061117082826112a8565b919050565b6000604051905090565b600067ffffffffffffffff82111561119a576111996113af565b5b602082029050602081019050919050565b600067ffffffffffffffff8211156111c6576111c56113af565b5b602082029050602081019050919050565b600067ffffffffffffffff8211156111f2576111f16113af565b5b6111fb826113f7565b9050602081019050919050565b600082825260208201905092915050565b60006112248261122b565b9050919050565b600073ffffffffffffffffffffffffffffffffffffffff82169050919050565b6000819050919050565b60006112608261124b565b9050919050565b82818337600083830152505050565b6000600282049050600182168061128e57607f821691505b602082108114156112a2576112a1611351565b5b50919050565b6112b1826113f7565b810181811067ffffffffffffffff821117156112d0576112cf6113af565b5b80604052505050565b60006112e48261124b565b91507fffffffffffffffffffffffffffffffffffffffffffffffffffffffffffffffff82141561131757611316611322565b5b600182019050919050565b7f4e487b7100000000000000000000000000000000000000000000000000000000600052601160045260246000fd5b7f4e487b7100000000000000000000000000000000000000000000000000000000600052602260045260246000fd5b7f4e487b7100000000000000000000000000000000000000000000000000000000600052603260045260246000fd5b7f4e487b7100000000000000000000000000000000000000000000000000000000600052604160045260246000fd5b600080fd5b600080fd5b600080fd5b600080fd5b600080fd5b6000601f19601f8301169050919050565b7f4c656e67746820697320646966666572656e742e000000000000000000000000600082015250565b7f566f74696e6720636f6d706c657465642e000000000000000000000000000000600082015250565b7f566f74657220616c726561647920766f7465642e000000000000000000000000600082015250565b7f546f6b656e20646f65736e27742065786973742e000000000000000000000000600082015250565b7f546869732069736e2774206368616972706572736f6e2e000000000000000000600082015250565b6114de81611219565b81146114e957600080fd5b50565b6114f58161124b565b811461150057600080fd5b5056fea2646970667358221220d9b256474cee69d1e1780111c4972b7883bf14e830703eee947c2546dbc8fd2864736f6c6343000807003360806040523480156200001157600080fd5b506040518060400160405280600d81526020017f452d566f74696e6720636f696e00000000000000000000000000000000000000815250600190805190602001906200005f929190620000d0565b506000600260006101000a81548160ff021916908360ff1602179055506040518060400160405280600381526020017f455643000000000000000000000000000000000000000000000000000000000081525060039080519060200190620000c9929190620000d0565b50620001e5565b828054620000de9062000180565b90600052602060002090601f0160209004810192826200010257600085556200014e565b82601f106200011d57805160ff19168380011785556200014e565b828001600101855582156200014e579182015b828111156200014d57825182559160200191906001019062000130565b5b5090506200015d919062000161565b5090565b5b808211156200017c57600081600090555060010162000162565b5090565b600060028204905060018216806200019957607f821691505b60208210811415620001b057620001af620001b6565b5b50919050565b7f4e487b7100000000000000000000000000000000000000000000000000000000600052602260045260246000fd5b6113c180620001f56000396000f3fe608060405234801561001057600080fd5b50600436106100b45760003560e01c806354fd4d501161007157806354fd4d501461016757806370a082311461018557806395d89b41146101b5578063a9059cbb146101d3578063c4e41b22146101ef578063dd62ed3e1461020d576100b4565b806306fdde03146100b9578063095ea7b3146100d757806318160ddd146100f357806323b872dd14610111578063313ce5671461012d57806340c10f191461014b575b600080fd5b6100c161023d565b6040516100ce9190610fea565b60405180910390f35b6100f160048036038101906100ec9190610ec7565b6102cb565b005b6100fb6103b5565b604051610108919061108c565b60405180910390f35b61012b60048036038101906101269190610e74565b6103bb565b005b6101356107e2565b60405161014291906110a7565b60405180910390f35b61016560048036038101906101609190610ec7565b6107f5565b005b61016f610955565b60405161017c9190610fea565b60405180910390f35b61019f600480360381019061019a9190610e07565b6109e3565b6040516101ac919061108c565b60405180910390f35b6101bd610a2c565b6040516101ca9190610fea565b60405180910390f35b6101ed60048036038101906101e89190610ec7565b610aba565b005b6101f7610cf2565b604051610204919061108c565b60405180910390f35b61022760048036038101906102229190610e34565b610cfb565b604051610234919061108c565b60405180910390f35b6001805461024a906111e4565b80601f0160208091040260200160405190810160405280929190818152602001828054610276906111e4565b80156102c35780601f10610298576101008083540402835291602001916102c3565b820191906000526020600020905b8154815290600101906020018083116102a657829003601f168201915b505050505081565b80600660003373ffffffffffffffffffffffffffffffffffffffff1673ffffffffffffffffffffffffffffffffffffffff16815260200190815260200160002060008473ffffffffffffffffffffffffffffffffffffffff1673ffffffffffffffffffffffffffffffffffffffff168152602001908152602001600020819055508173ffffffffffffffffffffffffffffffffffffffff163373ffffffffffffffffffffffffffffffffffffffff167f8c5be1e5ebec7d5bd14f71427d1e84f3dd0314c0f7b2291e5b200ac8c7c3b925836040516103a9919061108c565b60405180910390a35050565b60005481565b600081116103fe576040517f08c379a00000000000000000000000000000000000000000000000000000000081526004016103f59061102c565b60405180910390fd5b80600560008573ffffffffffffffffffffffffffffffffffffffff1673ffffffffffffffffffffffffffffffffffffffff168152602001908152602001600020541015610480576040517f08c379a00000000000000000000000000000000000000000000000000000000081526004016104779061100c565b60405180910390fd5b80600660008573ffffffffffffffffffffffffffffffffffffffff1673ffffffffffffffffffffffffffffffffffffffff16815260200190815260200160002060003373ffffffffffffffffffffffffffffffffffffffff1673ffffffffffffffffffffffffffffffffffffffff16815260200190815260200160002054101561053f576040517f08c379a00000000000000000000000000000000000000000000000000000000081526004016105369061104c565b60405180910390fd5b61059181600560008573ffffffffffffffffffffffffffffffffffffffff1673ffffffffffffffffffffffffffffffffffffffff16815260200190815260200160002054610d8290919063ffffffff16565b600560008473ffffffffffffffffffffffffffffffffffffffff1673ffffffffffffffffffffffffffffffffffffffff1681526020019081526020016000208190555061062681600560008673ffffffffffffffffffffffffffffffffffffffff1673ffffffffffffffffffffffffffffffffffffffff16815260200190815260200160002054610daa90919063ffffffff16565b600560008573ffffffffffffffffffffffffffffffffffffffff1673ffffffffffffffffffffffffffffffffffffffff168152602001908152602001600020819055506106f881600660008673ffffffffffffffffffffffffffffffffffffffff1673ffffffffffffffffffffffffffffffffffffffff16815260200190815260200160002060003373ffffffffffffffffffffffffffffffffffffffff1673ffffffffffffffffffffffffffffffffffffffff16815260200190815260200160002054610daa90919063ffffffff16565b600660008573ffffffffffffffffffffffffffffffffffffffff1673ffffffffffffffffffffffffffffffffffffffff16815260200190815260200160002060003373ffffffffffffffffffffffffffffffffffffffff1673ffffffffffffffffffffffffffffffffffffffff168152602001908152602001600020819055508173ffffffffffffffffffffffffffffffffffffffff168373ffffffffffffffffffffffffffffffffffffffff167fddf252ad1be2c89b69c2b068fc378daa952ba7f163c4a11628f55a4df523b3ef836040516107d5919061108c565b60405180910390a3505050565b600260009054906101000a900460ff1681565b600073ffffffffffffffffffffffffffffffffffffffff168273ffffffffffffffffffffffffffffffffffffffff161415610865576040517f08c379a000000000000000000000000000000000000000000000000000000000815260040161085c9061106c565b60405180910390fd5b61087160008383610dd3565b8060008082825461088291906110de565b9250508190555080600560008473ffffffffffffffffffffffffffffffffffffffff1673ffffffffffffffffffffffffffffffffffffffff16815260200190815260200160002060008282546108d891906110de565b925050819055508173ffffffffffffffffffffffffffffffffffffffff16600073ffffffffffffffffffffffffffffffffffffffff167fddf252ad1be2c89b69c2b068fc378daa952ba7f163c4a11628f55a4df523b3ef8360405161093d919061108c565b60405180910390a361095160008383610dd8565b5050565b60048054610962906111e4565b80601f016020809104026020016040519081016040528092919081815260200182805461098e906111e4565b80156109db5780601f106109b0576101008083540402835291602001916109db565b820191906000526020600020905b8154815290600101906020018083116109be57829003601f168201915b505050505081565b6000600560008373ffffffffffffffffffffffffffffffffffffffff1673ffffffffffffffffffffffffffffffffffffffff168152602001908152602001600020549050919050565b60038054610a39906111e4565b80601f0160208091040260200160405190810160405280929190818152602001828054610a65906111e4565b8015610ab25780601f10610a8757610100808354040283529160200191610ab2565b820191906000526020600020905b815481529060010190602001808311610a9557829003601f168201915b505050505081565b6040600481610ac991906110de565b600036905014610adc57610adb611216565b5b60008211610b1f576040517f08c379a0000000000000000000000000000000000000000000000000000000008152600401610b169061102c565b60405180910390fd5b610bb0600560003373ffffffffffffffffffffffffffffffffffffffff1673ffffffffffffffffffffffffffffffffffffffff16815260200190815260200160002054600560003373ffffffffffffffffffffffffffffffffffffffff1673ffffffffffffffffffffffffffffffffffffffff16815260200190815260200160002054610daa90919063ffffffff16565b600560003373ffffffffffffffffffffffffffffffffffffffff1673ffffffffffffffffffffffffffffffffffffffff16815260200190815260200160002081905550610c4582600560008673ffffffffffffffffffffffffffffffffffffffff1673ffffffffffffffffffffffffffffffffffffffff16815260200190815260200160002054610d8290919063ffffffff16565b600560008573ffffffffffffffffffffffffffffffffffffffff1673ffffffffffffffffffffffffffffffffffffffff168152602001908152602001600020819055508273ffffffffffffffffffffffffffffffffffffffff163373ffffffffffffffffffffffffffffffffffffffff167fddf252ad1be2c89b69c2b068fc378daa952ba7f163c4a11628f55a4df523b3ef84604051610ce5919061108c565b60405180910390a3505050565b60008054905090565b6000600660008373ffffffffffffffffffffffffffffffffffffffff1673ffffffffffffffffffffffffffffffffffffffff16815260200190815260200160002060008473ffffffffffffffffffffffffffffffffffffffff1673ffffffffffffffffffffffffffffffffffffffff16815260200190815260200160002054905092915050565b6000808284610d9191906110de565b905083811015610da057600080fd5b8091505092915050565b600082821115610db957600080fd5b60008284610dc79190611134565b90508091505092915050565b505050565b505050565b600081359050610dec8161135d565b92915050565b600081359050610e0181611374565b92915050565b600060208284031215610e1d57610e1c6112a3565b5b6000610e2b84828501610ddd565b91505092915050565b60008060408385031215610e4b57610e4a6112a3565b5b6000610e5985828601610ddd565b9250506020610e6a85828601610ddd565b9150509250929050565b600080600060608486031215610e8d57610e8c6112a3565b5b6000610e9b86828701610ddd565b9350506020610eac86828701610ddd565b9250506040610ebd86828701610df2565b9150509250925092565b60008060408385031215610ede57610edd6112a3565b5b6000610eec85828601610ddd565b9250506020610efd85828601610df2565b9150509250929050565b6000610f12826110c2565b610f1c81856110cd565b9350610f2c8185602086016111b1565b610f35816112a8565b840191505092915050565b6000610f4d6010836110cd565b9150610f58826112b9565b602082019050919050565b6000610f70600b836110cd565b9150610f7b826112e2565b602082019050919050565b6000610f93600e836110cd565b9150610f9e8261130b565b602082019050919050565b6000610fb6601f836110cd565b9150610fc182611334565b602082019050919050565b610fd58161119a565b82525050565b610fe4816111a4565b82525050565b600060208201905081810360008301526110048184610f07565b905092915050565b6000602082019050818103600083015261102581610f40565b9050919050565b6000602082019050818103600083015261104581610f63565b9050919050565b6000602082019050818103600083015261106581610f86565b9050919050565b6000602082019050818103600083015261108581610fa9565b9050919050565b60006020820190506110a16000830184610fcc565b92915050565b60006020820190506110bc6000830184610fdb565b92915050565b600081519050919050565b600082825260208201905092915050565b60006110e98261119a565b91506110f48361119a565b9250827fffffffffffffffffffffffffffffffffffffffffffffffffffffffffffffffff0382111561112957611128611245565b5b828201905092915050565b600061113f8261119a565b915061114a8361119a565b92508282101561115d5761115c611245565b5b828203905092915050565b60006111738261117a565b9050919050565b600073ffffffffffffffffffffffffffffffffffffffff82169050919050565b6000819050919050565b600060ff82169050919050565b60005b838110156111cf5780820151818401526020810190506111b4565b838111156111de576000848401525b50505050565b600060028204905060018216806111fc57607f821691505b602082108114156112105761120f611274565b5b50919050565b7f4e487b7100000000000000000000000000000000000000000000000000000000600052600160045260246000fd5b7f4e487b7100000000000000000000000000000000000000000000000000000000600052601160045260246000fd5b7f4e487b7100000000000000000000000000000000000000000000000000000000600052602260045260246000fd5b600080fd5b6000601f19601f8301169050919050565b7f42616c616e6365203c20616d6f756e7400000000000000000000000000000000600082015250565b7f416d6f756e74203c3d2030000000000000000000000000000000000000000000600082015250565b7f446f6e277420616c6c6f7765642e000000000000000000000000000000000000600082015250565b7f45524332303a206d696e7420746f20746865207a65726f206164647265737300600082015250565b61136681611168565b811461137157600080fd5b50565b61137d8161119a565b811461138857600080fd5b5056fea264697066735822122082411dbe6f3ae499865557ce42c20ee33a03ccf641e101aacdf51194efe9274364736f6c63430008070033",
					"opcodes": "PUSH1 0x80 PUSH1 0x40 MSTORE PUSH1 0x40 MLOAD PUSH3 0x12 SWAP1 PUSH3 0x114 JUMP JUMPDEST PUSH1 0x40 MLOAD DUP1 SWAP2 SUB SWAP1 PUSH1 0x0 CREATE DUP1 ISZERO DUP1 ISZERO PUSH3 0x2F JUMPI RETURNDATASIZE PUSH1 0x0 DUP1 RETURNDATACOPY RETURNDATASIZE PUSH1 0x0 REVERT JUMPDEST POP PUSH1 0x6 PUSH1 0x0 PUSH2 0x100 EXP DUP2 SLOAD DUP2 PUSH20 0xFFFFFFFFFFFFFFFFFFFFFFFFFFFFFFFFFFFFFFFF MUL NOT AND SWAP1 DUP4 PUSH20 0xFFFFFFFFFFFFFFFFFFFFFFFFFFFFFFFFFFFFFFFF AND MUL OR SWAP1 SSTORE POP CALLVALUE DUP1 ISZERO PUSH3 0x7D JUMPI PUSH1 0x0 DUP1 REVERT JUMPDEST POP PUSH1 0x40 MLOAD PUSH3 0x2F89 CODESIZE SUB DUP1 PUSH3 0x2F89 DUP4 CODECOPY DUP2 DUP2 ADD PUSH1 0x40 MSTORE DUP2 ADD SWAP1 PUSH3 0xA3 SWAP2 SWAP1 PUSH3 0x267 JUMP JUMPDEST DUP3 PUSH1 0x0 SWAP1 DUP1 MLOAD SWAP1 PUSH1 0x20 ADD SWAP1 PUSH3 0xBB SWAP3 SWAP2 SWAP1 PUSH3 0x122 JUMP JUMPDEST POP CALLER PUSH1 0x5 PUSH1 0x0 PUSH2 0x100 EXP DUP2 SLOAD DUP2 PUSH20 0xFFFFFFFFFFFFFFFFFFFFFFFFFFFFFFFFFFFFFFFF MUL NOT AND SWAP1 DUP4 PUSH20 0xFFFFFFFFFFFFFFFFFFFFFFFFFFFFFFFFFFFFFFFF AND MUL OR SWAP1 SSTORE POP DUP2 PUSH1 0x1 DUP2 SWAP1 SSTORE POP DUP1 PUSH1 0x2 DUP2 SWAP1 SSTORE POP POP POP POP PUSH3 0x48A JUMP JUMPDEST PUSH2 0x15B6 DUP1 PUSH3 0x19D3 DUP4 CODECOPY ADD SWAP1 JUMP JUMPDEST DUP3 DUP1 SLOAD PUSH3 0x130 SWAP1 PUSH3 0x381 JUMP JUMPDEST SWAP1 PUSH1 0x0 MSTORE PUSH1 0x20 PUSH1 0x0 KECCAK256 SWAP1 PUSH1 0x1F ADD PUSH1 0x20 SWAP1 DIV DUP2 ADD SWAP3 DUP3 PUSH3 0x154 JUMPI PUSH1 0x0 DUP6 SSTORE PUSH3 0x1A0 JUMP JUMPDEST DUP3 PUSH1 0x1F LT PUSH3 0x16F JUMPI DUP1 MLOAD PUSH1 0xFF NOT AND DUP4 DUP1 ADD OR DUP6 SSTORE PUSH3 0x1A0 JUMP JUMPDEST DUP3 DUP1 ADD PUSH1 0x1 ADD DUP6 SSTORE DUP3 ISZERO PUSH3 0x1A0 JUMPI SWAP2 DUP3 ADD JUMPDEST DUP3 DUP2 GT ISZERO PUSH3 0x19F JUMPI DUP3 MLOAD DUP3 SSTORE SWAP2 PUSH1 0x20 ADD SWAP2 SWAP1 PUSH1 0x1 ADD SWAP1 PUSH3 0x182 JUMP JUMPDEST JUMPDEST POP SWAP1 POP PUSH3 0x1AF SWAP2 SWAP1 PUSH3 0x1B3 JUMP JUMPDEST POP SWAP1 JUMP JUMPDEST JUMPDEST DUP1 DUP3 GT ISZERO PUSH3 0x1CE JUMPI PUSH1 0x0 DUP2 PUSH1 0x0 SWAP1 SSTORE POP PUSH1 0x1 ADD PUSH3 0x1B4 JUMP JUMPDEST POP SWAP1 JUMP JUMPDEST PUSH1 0x0 PUSH3 0x1E9 PUSH3 0x1E3 DUP5 PUSH3 0x30B JUMP JUMPDEST PUSH3 0x2E2 JUMP JUMPDEST SWAP1 POP DUP3 DUP2 MSTORE PUSH1 0x20 DUP2 ADD DUP5 DUP5 DUP5 ADD GT ISZERO PUSH3 0x208 JUMPI PUSH3 0x207 PUSH3 0x450 JUMP JUMPDEST JUMPDEST PUSH3 0x215 DUP5 DUP3 DUP6 PUSH3 0x34B JUMP JUMPDEST POP SWAP4 SWAP3 POP POP POP JUMP JUMPDEST PUSH1 0x0 DUP3 PUSH1 0x1F DUP4 ADD SLT PUSH3 0x235 JUMPI PUSH3 0x234 PUSH3 0x44B JUMP JUMPDEST JUMPDEST DUP2 MLOAD PUSH3 0x247 DUP5 DUP3 PUSH1 0x20 DUP7 ADD PUSH3 0x1D2 JUMP JUMPDEST SWAP2 POP POP SWAP3 SWAP2 POP POP JUMP JUMPDEST PUSH1 0x0 DUP2 MLOAD SWAP1 POP PUSH3 0x261 DUP2 PUSH3 0x470 JUMP JUMPDEST SWAP3 SWAP2 POP POP JUMP JUMPDEST PUSH1 0x0 DUP1 PUSH1 0x0 PUSH1 0x60 DUP5 DUP7 SUB SLT ISZERO PUSH3 0x283 JUMPI PUSH3 0x282 PUSH3 0x45A JUMP JUMPDEST JUMPDEST PUSH1 0x0 DUP5 ADD MLOAD PUSH8 0xFFFFFFFFFFFFFFFF DUP2 GT ISZERO PUSH3 0x2A4 JUMPI PUSH3 0x2A3 PUSH3 0x455 JUMP JUMPDEST JUMPDEST PUSH3 0x2B2 DUP7 DUP3 DUP8 ADD PUSH3 0x21D JUMP JUMPDEST SWAP4 POP POP PUSH1 0x20 PUSH3 0x2C5 DUP7 DUP3 DUP8 ADD PUSH3 0x250 JUMP JUMPDEST SWAP3 POP POP PUSH1 0x40 PUSH3 0x2D8 DUP7 DUP3 DUP8 ADD PUSH3 0x250 JUMP JUMPDEST SWAP2 POP POP SWAP3 POP SWAP3 POP SWAP3 JUMP JUMPDEST PUSH1 0x0 PUSH3 0x2EE PUSH3 0x301 JUMP JUMPDEST SWAP1 POP PUSH3 0x2FC DUP3 DUP3 PUSH3 0x3B7 JUMP JUMPDEST SWAP2 SWAP1 POP JUMP JUMPDEST PUSH1 0x0 PUSH1 0x40 MLOAD SWAP1 POP SWAP1 JUMP JUMPDEST PUSH1 0x0 PUSH8 0xFFFFFFFFFFFFFFFF DUP3 GT ISZERO PUSH3 0x329 JUMPI PUSH3 0x328 PUSH3 0x41C JUMP JUMPDEST JUMPDEST PUSH3 0x334 DUP3 PUSH3 0x45F JUMP JUMPDEST SWAP1 POP PUSH1 0x20 DUP2 ADD SWAP1 POP SWAP2 SWAP1 POP JUMP JUMPDEST PUSH1 0x0 DUP2 SWAP1 POP SWAP2 SWAP1 POP JUMP JUMPDEST PUSH1 0x0 JUMPDEST DUP4 DUP2 LT ISZERO PUSH3 0x36B JUMPI DUP1 DUP3 ADD MLOAD DUP2 DUP5 ADD MSTORE PUSH1 0x20 DUP2 ADD SWAP1 POP PUSH3 0x34E JUMP JUMPDEST DUP4 DUP2 GT ISZERO PUSH3 0x37B JUMPI PUSH1 0x0 DUP5 DUP5 ADD MSTORE JUMPDEST POP POP POP POP JUMP JUMPDEST PUSH1 0x0 PUSH1 0x2 DUP3 DIV SWAP1 POP PUSH1 0x1 DUP3 AND DUP1 PUSH3 0x39A JUMPI PUSH1 0x7F DUP3 AND SWAP2 POP JUMPDEST PUSH1 0x20 DUP3 LT DUP2 EQ ISZERO PUSH3 0x3B1 JUMPI PUSH3 0x3B0 PUSH3 0x3ED JUMP JUMPDEST JUMPDEST POP SWAP2 SWAP1 POP JUMP JUMPDEST PUSH3 0x3C2 DUP3 PUSH3 0x45F JUMP JUMPDEST DUP2 ADD DUP2 DUP2 LT PUSH8 0xFFFFFFFFFFFFFFFF DUP3 GT OR ISZERO PUSH3 0x3E4 JUMPI PUSH3 0x3E3 PUSH3 0x41C JUMP JUMPDEST JUMPDEST DUP1 PUSH1 0x40 MSTORE POP POP POP JUMP JUMPDEST PUSH32 0x4E487B7100000000000000000000000000000000000000000000000000000000 PUSH1 0x0 MSTORE PUSH1 0x22 PUSH1 0x4 MSTORE PUSH1 0x24 PUSH1 0x0 REVERT JUMPDEST PUSH32 0x4E487B7100000000000000000000000000000000000000000000000000000000 PUSH1 0x0 MSTORE PUSH1 0x41 PUSH1 0x4 MSTORE PUSH1 0x24 PUSH1 0x0 REVERT JUMPDEST PUSH1 0x0 DUP1 REVERT JUMPDEST PUSH1 0x0 DUP1 REVERT JUMPDEST PUSH1 0x0 DUP1 REVERT JUMPDEST PUSH1 0x0 DUP1 REVERT JUMPDEST PUSH1 0x0 PUSH1 0x1F NOT PUSH1 0x1F DUP4 ADD AND SWAP1 POP SWAP2 SWAP1 POP JUMP JUMPDEST PUSH3 0x47B DUP2 PUSH3 0x341 JUMP JUMPDEST DUP2 EQ PUSH3 0x487 JUMPI PUSH1 0x0 DUP1 REVERT JUMPDEST POP JUMP JUMPDEST PUSH2 0x1539 DUP1 PUSH3 0x49A PUSH1 0x0 CODECOPY PUSH1 0x0 RETURN INVALID PUSH1 0x80 PUSH1 0x40 MSTORE CALLVALUE DUP1 ISZERO PUSH2 0x10 JUMPI PUSH1 0x0 DUP1 REVERT JUMPDEST POP PUSH1 0x4 CALLDATASIZE LT PUSH2 0x62 JUMPI PUSH1 0x0 CALLDATALOAD PUSH1 0xE0 SHR DUP1 PUSH4 0x4041EF54 EQ PUSH2 0x67 JUMPI DUP1 PUSH4 0x633FFF16 EQ PUSH2 0x97 JUMPI DUP1 PUSH4 0x6CEA0E46 EQ PUSH2 0xB3 JUMPI DUP1 PUSH4 0x6DD7D8EA EQ PUSH2 0xCF JUMPI DUP1 PUSH4 0x8203373A EQ PUSH2 0xEB JUMPI DUP1 PUSH4 0xC4E41B22 EQ PUSH2 0x107 JUMPI JUMPDEST PUSH1 0x0 DUP1 REVERT JUMPDEST PUSH2 0x81 PUSH1 0x4 DUP1 CALLDATASIZE SUB DUP2 ADD SWAP1 PUSH2 0x7C SWAP2 SWAP1 PUSH2 0xE3B JUMP JUMPDEST PUSH2 0x125 JUMP JUMPDEST PUSH1 0x40 MLOAD PUSH2 0x8E SWAP2 SWAP1 PUSH2 0x113F JUMP JUMPDEST PUSH1 0x40 MLOAD DUP1 SWAP2 SUB SWAP1 RETURN JUMPDEST PUSH2 0xB1 PUSH1 0x4 DUP1 CALLDATASIZE SUB DUP2 ADD SWAP1 PUSH2 0xAC SWAP2 SWAP1 PUSH2 0xEB1 JUMP JUMPDEST PUSH2 0x278 JUMP JUMPDEST STOP JUMPDEST PUSH2 0xCD PUSH1 0x4 DUP1 CALLDATASIZE SUB DUP2 ADD SWAP1 PUSH2 0xC8 SWAP2 SWAP1 PUSH2 0xE3B JUMP JUMPDEST PUSH2 0x3F8 JUMP JUMPDEST STOP JUMPDEST PUSH2 0xE9 PUSH1 0x4 DUP1 CALLDATASIZE SUB DUP2 ADD SWAP1 PUSH2 0xE4 SWAP2 SWAP1 PUSH2 0xE3B JUMP JUMPDEST PUSH2 0x51B JUMP JUMPDEST STOP JUMPDEST PUSH2 0x105 PUSH1 0x4 DUP1 CALLDATASIZE SUB DUP2 ADD SWAP1 PUSH2 0x100 SWAP2 SWAP1 PUSH2 0xE68 JUMP JUMPDEST PUSH2 0x87C JUMP JUMPDEST STOP JUMPDEST PUSH2 0x10F PUSH2 0xAFD JUMP JUMPDEST PUSH1 0x40 MLOAD PUSH2 0x11C SWAP2 SWAP1 PUSH2 0x113F JUMP JUMPDEST PUSH1 0x40 MLOAD DUP1 SWAP2 SUB SWAP1 RETURN JUMPDEST PUSH1 0x0 PUSH1 0x5 PUSH1 0x0 SWAP1 SLOAD SWAP1 PUSH2 0x100 EXP SWAP1 DIV PUSH20 0xFFFFFFFFFFFFFFFFFFFFFFFFFFFFFFFFFFFFFFFF AND PUSH20 0xFFFFFFFFFFFFFFFFFFFFFFFFFFFFFFFFFFFFFFFF AND CALLER PUSH20 0xFFFFFFFFFFFFFFFFFFFFFFFFFFFFFFFFFFFFFFFF AND EQ PUSH2 0x1B7 JUMPI PUSH1 0x40 MLOAD PUSH32 0x8C379A000000000000000000000000000000000000000000000000000000000 DUP2 MSTORE PUSH1 0x4 ADD PUSH2 0x1AE SWAP1 PUSH2 0x111F JUMP JUMPDEST PUSH1 0x40 MLOAD DUP1 SWAP2 SUB SWAP1 REVERT JUMPDEST PUSH1 0x2 SLOAD TIMESTAMP LT ISZERO PUSH2 0x1C6 JUMPI PUSH1 0x0 DUP1 REVERT JUMPDEST PUSH1 0x6 PUSH1 0x0 SWAP1 SLOAD SWAP1 PUSH2 0x100 EXP SWAP1 DIV PUSH20 0xFFFFFFFFFFFFFFFFFFFFFFFFFFFFFFFFFFFFFFFF AND PUSH20 0xFFFFFFFFFFFFFFFFFFFFFFFFFFFFFFFFFFFFFFFF AND PUSH4 0x70A08231 DUP4 PUSH1 0x40 MLOAD DUP3 PUSH4 0xFFFFFFFF AND PUSH1 0xE0 SHL DUP2 MSTORE PUSH1 0x4 ADD PUSH2 0x221 SWAP2 SWAP1 PUSH2 0x1032 JUMP JUMPDEST PUSH1 0x20 PUSH1 0x40 MLOAD DUP1 DUP4 SUB DUP2 DUP7 DUP1 EXTCODESIZE ISZERO DUP1 ISZERO PUSH2 0x239 JUMPI PUSH1 0x0 DUP1 REVERT JUMPDEST POP GAS STATICCALL ISZERO DUP1 ISZERO PUSH2 0x24D JUMPI RETURNDATASIZE PUSH1 0x0 DUP1 RETURNDATACOPY RETURNDATASIZE PUSH1 0x0 REVERT JUMPDEST POP POP POP POP PUSH1 0x40 MLOAD RETURNDATASIZE PUSH1 0x1F NOT PUSH1 0x1F DUP3 ADD AND DUP3 ADD DUP1 PUSH1 0x40 MSTORE POP DUP2 ADD SWAP1 PUSH2 0x271 SWAP2 SWAP1 PUSH2 0xF29 JUMP JUMPDEST SWAP1 POP SWAP2 SWAP1 POP JUMP JUMPDEST PUSH1 0x5 PUSH1 0x0 SWAP1 SLOAD SWAP1 PUSH2 0x100 EXP SWAP1 DIV PUSH20 0xFFFFFFFFFFFFFFFFFFFFFFFFFFFFFFFFFFFFFFFF AND PUSH20 0xFFFFFFFFFFFFFFFFFFFFFFFFFFFFFFFFFFFFFFFF AND CALLER PUSH20 0xFFFFFFFFFFFFFFFFFFFFFFFFFFFFFFFFFFFFFFFF AND EQ PUSH2 0x308 JUMPI PUSH1 0x40 MLOAD PUSH32 0x8C379A000000000000000000000000000000000000000000000000000000000 DUP2 MSTORE PUSH1 0x4 ADD PUSH2 0x2FF SWAP1 PUSH2 0x111F JUMP JUMPDEST PUSH1 0x40 MLOAD DUP1 SWAP2 SUB SWAP1 REVERT JUMPDEST DUP1 MLOAD DUP3 MLOAD EQ PUSH2 0x34C JUMPI PUSH1 0x40 MLOAD PUSH32 0x8C379A000000000000000000000000000000000000000000000000000000000 DUP2 MSTORE PUSH1 0x4 ADD PUSH2 0x343 SWAP1 PUSH2 0x109F JUMP JUMPDEST PUSH1 0x40 MLOAD DUP1 SWAP2 SUB SWAP1 REVERT JUMPDEST PUSH1 0x0 JUMPDEST DUP3 MLOAD DUP2 LT ISZERO PUSH2 0x3F3 JUMPI DUP2 DUP2 DUP2 MLOAD DUP2 LT PUSH2 0x36B JUMPI PUSH2 0x36A PUSH2 0x1380 JUMP JUMPDEST JUMPDEST PUSH1 0x20 MUL PUSH1 0x20 ADD ADD MLOAD PUSH1 0x4 PUSH1 0x0 DUP6 DUP5 DUP2 MLOAD DUP2 LT PUSH2 0x38A JUMPI PUSH2 0x389 PUSH2 0x1380 JUMP JUMPDEST JUMPDEST PUSH1 0x20 MUL PUSH1 0x20 ADD ADD MLOAD PUSH20 0xFFFFFFFFFFFFFFFFFFFFFFFFFFFFFFFFFFFFFFFF AND PUSH20 0xFFFFFFFFFFFFFFFFFFFFFFFFFFFFFFFFFFFFFFFF AND DUP2 MSTORE PUSH1 0x20 ADD SWAP1 DUP2 MSTORE PUSH1 0x20 ADD PUSH1 0x0 KECCAK256 SWAP1 DUP1 MLOAD SWAP1 PUSH1 0x20 ADD SWAP1 PUSH2 0x3DF SWAP3 SWAP2 SWAP1 PUSH2 0xBA4 JUMP JUMPDEST POP DUP1 DUP1 PUSH2 0x3EB SWAP1 PUSH2 0x12D9 JUMP JUMPDEST SWAP2 POP POP PUSH2 0x34F JUMP JUMPDEST POP POP POP JUMP JUMPDEST PUSH1 0x5 PUSH1 0x0 SWAP1 SLOAD SWAP1 PUSH2 0x100 EXP SWAP1 DIV PUSH20 0xFFFFFFFFFFFFFFFFFFFFFFFFFFFFFFFFFFFFFFFF AND PUSH20 0xFFFFFFFFFFFFFFFFFFFFFFFFFFFFFFFFFFFFFFFF AND CALLER PUSH20 0xFFFFFFFFFFFFFFFFFFFFFFFFFFFFFFFFFFFFFFFF AND EQ PUSH2 0x488 JUMPI PUSH1 0x40 MLOAD PUSH32 0x8C379A000000000000000000000000000000000000000000000000000000000 DUP2 MSTORE PUSH1 0x4 ADD PUSH2 0x47F SWAP1 PUSH2 0x111F JUMP JUMPDEST PUSH1 0x40 MLOAD DUP1 SWAP2 SUB SWAP1 REVERT JUMPDEST PUSH1 0x6 PUSH1 0x0 SWAP1 SLOAD SWAP1 PUSH2 0x100 EXP SWAP1 DIV PUSH20 0xFFFFFFFFFFFFFFFFFFFFFFFFFFFFFFFFFFFFFFFF AND PUSH20 0xFFFFFFFFFFFFFFFFFFFFFFFFFFFFFFFFFFFFFFFF AND PUSH4 0x40C10F19 DUP3 PUSH1 0x1 PUSH1 0x40 MLOAD DUP4 PUSH4 0xFFFFFFFF AND PUSH1 0xE0 SHL DUP2 MSTORE PUSH1 0x4 ADD PUSH2 0x4E6 SWAP3 SWAP2 SWAP1 PUSH2 0x104D JUMP JUMPDEST PUSH1 0x0 PUSH1 0x40 MLOAD DUP1 DUP4 SUB DUP2 PUSH1 0x0 DUP8 DUP1 EXTCODESIZE ISZERO DUP1 ISZERO PUSH2 0x500 JUMPI PUSH1 0x0 DUP1 REVERT JUMPDEST POP GAS CALL ISZERO DUP1 ISZERO PUSH2 0x514 JUMPI RETURNDATASIZE PUSH1 0x0 DUP1 RETURNDATACOPY RETURNDATASIZE PUSH1 0x0 REVERT JUMPDEST POP POP POP POP POP JUMP JUMPDEST PUSH1 0x1 SLOAD TIMESTAMP LT ISZERO DUP1 ISZERO PUSH2 0x52F JUMPI POP PUSH1 0x2 SLOAD TIMESTAMP GT ISZERO JUMPDEST PUSH2 0x56E JUMPI PUSH1 0x40 MLOAD PUSH32 0x8C379A000000000000000000000000000000000000000000000000000000000 DUP2 MSTORE PUSH1 0x4 ADD PUSH2 0x565 SWAP1 PUSH2 0x10BF JUMP JUMPDEST PUSH1 0x40 MLOAD DUP1 SWAP2 SUB SWAP1 REVERT JUMPDEST PUSH1 0x0 PUSH1 0x6 PUSH1 0x0 SWAP1 SLOAD SWAP1 PUSH2 0x100 EXP SWAP1 DIV PUSH20 0xFFFFFFFFFFFFFFFFFFFFFFFFFFFFFFFFFFFFFFFF AND PUSH20 0xFFFFFFFFFFFFFFFFFFFFFFFFFFFFFFFFFFFFFFFF AND PUSH4 0x70A08231 CALLER PUSH1 0x40 MLOAD DUP3 PUSH4 0xFFFFFFFF AND PUSH1 0xE0 SHL DUP2 MSTORE PUSH1 0x4 ADD PUSH2 0x5CB SWAP2 SWAP1 PUSH2 0x1032 JUMP JUMPDEST PUSH1 0x20 PUSH1 0x40 MLOAD DUP1 DUP4 SUB DUP2 DUP7 DUP1 EXTCODESIZE ISZERO DUP1 ISZERO PUSH2 0x5E3 JUMPI PUSH1 0x0 DUP1 REVERT JUMPDEST POP GAS STATICCALL ISZERO DUP1 ISZERO PUSH2 0x5F7 JUMPI RETURNDATASIZE PUSH1 0x0 DUP1 RETURNDATACOPY RETURNDATASIZE PUSH1 0x0 REVERT JUMPDEST POP POP POP POP PUSH1 0x40 MLOAD RETURNDATASIZE PUSH1 0x1F NOT PUSH1 0x1F DUP3 ADD AND DUP3 ADD DUP1 PUSH1 0x40 MSTORE POP DUP2 ADD SWAP1 PUSH2 0x61B SWAP2 SWAP1 PUSH2 0xF29 JUMP JUMPDEST GT PUSH2 0x65B JUMPI PUSH1 0x40 MLOAD PUSH32 0x8C379A000000000000000000000000000000000000000000000000000000000 DUP2 MSTORE PUSH1 0x4 ADD PUSH2 0x652 SWAP1 PUSH2 0x10FF JUMP JUMPDEST PUSH1 0x40 MLOAD DUP1 SWAP2 SUB SWAP1 REVERT JUMPDEST PUSH1 0x3 PUSH1 0x0 CALLER PUSH20 0xFFFFFFFFFFFFFFFFFFFFFFFFFFFFFFFFFFFFFFFF AND PUSH20 0xFFFFFFFFFFFFFFFFFFFFFFFFFFFFFFFFFFFFFFFF AND DUP2 MSTORE PUSH1 0x20 ADD SWAP1 DUP2 MSTORE PUSH1 0x20 ADD PUSH1 0x0 KECCAK256 PUSH1 0x0 SWAP1 SLOAD SWAP1 PUSH2 0x100 EXP SWAP1 DIV PUSH1 0xFF AND ISZERO PUSH2 0x6E8 JUMPI PUSH1 0x40 MLOAD PUSH32 0x8C379A000000000000000000000000000000000000000000000000000000000 DUP2 MSTORE PUSH1 0x4 ADD PUSH2 0x6DF SWAP1 PUSH2 0x10DF JUMP JUMPDEST PUSH1 0x40 MLOAD DUP1 SWAP2 SUB SWAP1 REVERT JUMPDEST PUSH1 0x6 PUSH1 0x0 SWAP1 SLOAD SWAP1 PUSH2 0x100 EXP SWAP1 DIV PUSH20 0xFFFFFFFFFFFFFFFFFFFFFFFFFFFFFFFFFFFFFFFF AND PUSH20 0xFFFFFFFFFFFFFFFFFFFFFFFFFFFFFFFFFFFFFFFF AND PUSH4 0xA9059CBB DUP3 PUSH1 0x6 PUSH1 0x0 SWAP1 SLOAD SWAP1 PUSH2 0x100 EXP SWAP1 DIV PUSH20 0xFFFFFFFFFFFFFFFFFFFFFFFFFFFFFFFFFFFFFFFF AND PUSH20 0xFFFFFFFFFFFFFFFFFFFFFFFFFFFFFFFFFFFFFFFF AND PUSH4 0x70A08231 CALLER PUSH1 0x40 MLOAD DUP3 PUSH4 0xFFFFFFFF AND PUSH1 0xE0 SHL DUP2 MSTORE PUSH1 0x4 ADD PUSH2 0x782 SWAP2 SWAP1 PUSH2 0x1032 JUMP JUMPDEST PUSH1 0x20 PUSH1 0x40 MLOAD DUP1 DUP4 SUB DUP2 DUP7 DUP1 EXTCODESIZE ISZERO DUP1 ISZERO PUSH2 0x79A JUMPI PUSH1 0x0 DUP1 REVERT JUMPDEST POP GAS STATICCALL ISZERO DUP1 ISZERO PUSH2 0x7AE JUMPI RETURNDATASIZE PUSH1 0x0 DUP1 RETURNDATACOPY RETURNDATASIZE PUSH1 0x0 REVERT JUMPDEST POP POP POP POP PUSH1 0x40 MLOAD RETURNDATASIZE PUSH1 0x1F NOT PUSH1 0x1F DUP3 ADD AND DUP3 ADD DUP1 PUSH1 0x40 MSTORE POP DUP2 ADD SWAP1 PUSH2 0x7D2 SWAP2 SWAP1 PUSH2 0xF29 JUMP JUMPDEST PUSH1 0x40 MLOAD DUP4 PUSH4 0xFFFFFFFF AND PUSH1 0xE0 SHL DUP2 MSTORE PUSH1 0x4 ADD PUSH2 0x7EF SWAP3 SWAP2 SWAP1 PUSH2 0x1076 JUMP JUMPDEST PUSH1 0x0 PUSH1 0x40 MLOAD DUP1 DUP4 SUB DUP2 PUSH1 0x0 DUP8 DUP1 EXTCODESIZE ISZERO DUP1 ISZERO PUSH2 0x809 JUMPI PUSH1 0x0 DUP1 REVERT JUMPDEST POP GAS CALL ISZERO DUP1 ISZERO PUSH2 0x81D JUMPI RETURNDATASIZE PUSH1 0x0 DUP1 RETURNDATACOPY RETURNDATASIZE PUSH1 0x0 REVERT JUMPDEST POP POP POP POP PUSH1 0x1 PUSH1 0x3 PUSH1 0x0 CALLER PUSH20 0xFFFFFFFFFFFFFFFFFFFFFFFFFFFFFFFFFFFFFFFF AND PUSH20 0xFFFFFFFFFFFFFFFFFFFFFFFFFFFFFFFFFFFFFFFF AND DUP2 MSTORE PUSH1 0x20 ADD SWAP1 DUP2 MSTORE PUSH1 0x20 ADD PUSH1 0x0 KECCAK256 PUSH1 0x0 PUSH2 0x100 EXP DUP2 SLOAD DUP2 PUSH1 0xFF MUL NOT AND SWAP1 DUP4 ISZERO ISZERO MUL OR SWAP1 SSTORE POP POP JUMP JUMPDEST PUSH1 0x5 PUSH1 0x0 SWAP1 SLOAD SWAP1 PUSH2 0x100 EXP SWAP1 DIV PUSH20 0xFFFFFFFFFFFFFFFFFFFFFFFFFFFFFFFFFFFFFFFF AND PUSH20 0xFFFFFFFFFFFFFFFFFFFFFFFFFFFFFFFFFFFFFFFF AND CALLER PUSH20 0xFFFFFFFFFFFFFFFFFFFFFFFFFFFFFFFFFFFFFFFF AND EQ PUSH2 0x90C JUMPI PUSH1 0x40 MLOAD PUSH32 0x8C379A000000000000000000000000000000000000000000000000000000000 DUP2 MSTORE PUSH1 0x4 ADD PUSH2 0x903 SWAP1 PUSH2 0x111F JUMP JUMPDEST PUSH1 0x40 MLOAD DUP1 SWAP2 SUB SWAP1 REVERT JUMPDEST PUSH1 0x0 JUMPDEST DUP2 MLOAD DUP2 LT ISZERO PUSH2 0xA47 JUMPI PUSH1 0x0 PUSH1 0x3 PUSH1 0x0 DUP5 DUP5 DUP2 MLOAD DUP2 LT PUSH2 0x931 JUMPI PUSH2 0x930 PUSH2 0x1380 JUMP JUMPDEST JUMPDEST PUSH1 0x20 MUL PUSH1 0x20 ADD ADD MLOAD PUSH20 0xFFFFFFFFFFFFFFFFFFFFFFFFFFFFFFFFFFFFFFFF AND PUSH20 0xFFFFFFFFFFFFFFFFFFFFFFFFFFFFFFFFFFFFFFFF AND DUP2 MSTORE PUSH1 0x20 ADD SWAP1 DUP2 MSTORE PUSH1 0x20 ADD PUSH1 0x0 KECCAK256 PUSH1 0x0 PUSH2 0x100 EXP DUP2 SLOAD DUP2 PUSH1 0xFF MUL NOT AND SWAP1 DUP4 ISZERO ISZERO MUL OR SWAP1 SSTORE POP PUSH1 0x6 PUSH1 0x0 SWAP1 SLOAD SWAP1 PUSH2 0x100 EXP SWAP1 DIV PUSH20 0xFFFFFFFFFFFFFFFFFFFFFFFFFFFFFFFFFFFFFFFF AND PUSH20 0xFFFFFFFFFFFFFFFFFFFFFFFFFFFFFFFFFFFFFFFF AND PUSH4 0x40C10F19 DUP4 DUP4 DUP2 MLOAD DUP2 LT PUSH2 0x9DB JUMPI PUSH2 0x9DA PUSH2 0x1380 JUMP JUMPDEST JUMPDEST PUSH1 0x20 MUL PUSH1 0x20 ADD ADD MLOAD PUSH1 0x1 PUSH1 0x40 MLOAD DUP4 PUSH4 0xFFFFFFFF AND PUSH1 0xE0 SHL DUP2 MSTORE PUSH1 0x4 ADD PUSH2 0xA02 SWAP3 SWAP2 SWAP1 PUSH2 0x104D JUMP JUMPDEST PUSH1 0x0 PUSH1 0x40 MLOAD DUP1 DUP4 SUB DUP2 PUSH1 0x0 DUP8 DUP1 EXTCODESIZE ISZERO DUP1 ISZERO PUSH2 0xA1C JUMPI PUSH1 0x0 DUP1 REVERT JUMPDEST POP GAS CALL ISZERO DUP1 ISZERO PUSH2 0xA30 JUMPI RETURNDATASIZE PUSH1 0x0 DUP1 RETURNDATACOPY RETURNDATASIZE PUSH1 0x0 REVERT JUMPDEST POP POP POP POP DUP1 DUP1 PUSH2 0xA3F SWAP1 PUSH2 0x12D9 JUMP JUMPDEST SWAP2 POP POP PUSH2 0x90F JUMP JUMPDEST POP PUSH1 0x6 PUSH1 0x0 SWAP1 SLOAD SWAP1 PUSH2 0x100 EXP SWAP1 DIV PUSH20 0xFFFFFFFFFFFFFFFFFFFFFFFFFFFFFFFFFFFFFFFF AND PUSH20 0xFFFFFFFFFFFFFFFFFFFFFFFFFFFFFFFFFFFFFFFF AND PUSH4 0x40C10F19 PUSH1 0x5 PUSH1 0x0 SWAP1 SLOAD SWAP1 PUSH2 0x100 EXP SWAP1 DIV PUSH20 0xFFFFFFFFFFFFFFFFFFFFFFFFFFFFFFFFFFFFFFFF AND PUSH1 0x1 PUSH1 0x40 MLOAD DUP4 PUSH4 0xFFFFFFFF AND PUSH1 0xE0 SHL DUP2 MSTORE PUSH1 0x4 ADD PUSH2 0xAC8 SWAP3 SWAP2 SWAP1 PUSH2 0x104D JUMP JUMPDEST PUSH1 0x0 PUSH1 0x40 MLOAD DUP1 DUP4 SUB DUP2 PUSH1 0x0 DUP8 DUP1 EXTCODESIZE ISZERO DUP1 ISZERO PUSH2 0xAE2 JUMPI PUSH1 0x0 DUP1 REVERT JUMPDEST POP GAS CALL ISZERO DUP1 ISZERO PUSH2 0xAF6 JUMPI RETURNDATASIZE PUSH1 0x0 DUP1 RETURNDATACOPY RETURNDATASIZE PUSH1 0x0 REVERT JUMPDEST POP POP POP POP POP JUMP JUMPDEST PUSH1 0x0 PUSH1 0x6 PUSH1 0x0 SWAP1 SLOAD SWAP1 PUSH2 0x100 EXP SWAP1 DIV PUSH20 0xFFFFFFFFFFFFFFFFFFFFFFFFFFFFFFFFFFFFFFFF AND PUSH20 0xFFFFFFFFFFFFFFFFFFFFFFFFFFFFFFFFFFFFFFFF AND PUSH4 0xC4E41B22 PUSH1 0x40 MLOAD DUP2 PUSH4 0xFFFFFFFF AND PUSH1 0xE0 SHL DUP2 MSTORE PUSH1 0x4 ADD PUSH1 0x20 PUSH1 0x40 MLOAD DUP1 DUP4 SUB DUP2 DUP7 DUP1 EXTCODESIZE ISZERO DUP1 ISZERO PUSH2 0xB67 JUMPI PUSH1 0x0 DUP1 REVERT JUMPDEST POP GAS STATICCALL ISZERO DUP1 ISZERO PUSH2 0xB7B JUMPI RETURNDATASIZE PUSH1 0x0 DUP1 RETURNDATACOPY RETURNDATASIZE PUSH1 0x0 REVERT JUMPDEST POP POP POP POP PUSH1 0x40 MLOAD RETURNDATASIZE PUSH1 0x1F NOT PUSH1 0x1F DUP3 ADD AND DUP3 ADD DUP1 PUSH1 0x40 MSTORE POP DUP2 ADD SWAP1 PUSH2 0xB9F SWAP2 SWAP1 PUSH2 0xF29 JUMP JUMPDEST SWAP1 POP SWAP1 JUMP JUMPDEST DUP3 DUP1 SLOAD PUSH2 0xBB0 SWAP1 PUSH2 0x1276 JUMP JUMPDEST SWAP1 PUSH1 0x0 MSTORE PUSH1 0x20 PUSH1 0x0 KECCAK256 SWAP1 PUSH1 0x1F ADD PUSH1 0x20 SWAP1 DIV DUP2 ADD SWAP3 DUP3 PUSH2 0xBD2 JUMPI PUSH1 0x0 DUP6 SSTORE PUSH2 0xC19 JUMP JUMPDEST DUP3 PUSH1 0x1F LT PUSH2 0xBEB JUMPI DUP1 MLOAD PUSH1 0xFF NOT AND DUP4 DUP1 ADD OR DUP6 SSTORE PUSH2 0xC19 JUMP JUMPDEST DUP3 DUP1 ADD PUSH1 0x1 ADD DUP6 SSTORE DUP3 ISZERO PUSH2 0xC19 JUMPI SWAP2 DUP3 ADD JUMPDEST DUP3 DUP2 GT ISZERO PUSH2 0xC18 JUMPI DUP3 MLOAD DUP3 SSTORE SWAP2 PUSH1 0x20 ADD SWAP2 SWAP1 PUSH1 0x1 ADD SWAP1 PUSH2 0xBFD JUMP JUMPDEST JUMPDEST POP SWAP1 POP PUSH2 0xC26 SWAP2 SWAP1 PUSH2 0xC2A JUMP JUMPDEST POP SWAP1 JUMP JUMPDEST JUMPDEST DUP1 DUP3 GT ISZERO PUSH2 0xC43 JUMPI PUSH1 0x0 DUP2 PUSH1 0x0 SWAP1 SSTORE POP PUSH1 0x1 ADD PUSH2 0xC2B JUMP JUMPDEST POP SWAP1 JUMP JUMPDEST PUSH1 0x0 PUSH2 0xC5A PUSH2 0xC55 DUP5 PUSH2 0x117F JUMP JUMPDEST PUSH2 0x115A JUMP JUMPDEST SWAP1 POP DUP1 DUP4 DUP3 MSTORE PUSH1 0x20 DUP3 ADD SWAP1 POP DUP3 DUP6 PUSH1 0x20 DUP7 MUL DUP3 ADD GT ISZERO PUSH2 0xC7D JUMPI PUSH2 0xC7C PUSH2 0x13E3 JUMP JUMPDEST JUMPDEST PUSH1 0x0 JUMPDEST DUP6 DUP2 LT ISZERO PUSH2 0xCAD JUMPI DUP2 PUSH2 0xC93 DUP9 DUP3 PUSH2 0xD87 JUMP JUMPDEST DUP5 MSTORE PUSH1 0x20 DUP5 ADD SWAP4 POP PUSH1 0x20 DUP4 ADD SWAP3 POP POP PUSH1 0x1 DUP2 ADD SWAP1 POP PUSH2 0xC80 JUMP JUMPDEST POP POP POP SWAP4 SWAP3 POP POP POP JUMP JUMPDEST PUSH1 0x0 PUSH2 0xCCA PUSH2 0xCC5 DUP5 PUSH2 0x11AB JUMP JUMPDEST PUSH2 0x115A JUMP JUMPDEST SWAP1 POP DUP1 DUP4 DUP3 MSTORE PUSH1 0x20 DUP3 ADD SWAP1 POP DUP3 DUP6 PUSH1 0x20 DUP7 MUL DUP3 ADD GT ISZERO PUSH2 0xCED JUMPI PUSH2 0xCEC PUSH2 0x13E3 JUMP JUMPDEST JUMPDEST PUSH1 0x0 JUMPDEST DUP6 DUP2 LT ISZERO PUSH2 0xD3B JUMPI DUP2 CALLDATALOAD PUSH8 0xFFFFFFFFFFFFFFFF DUP2 GT ISZERO PUSH2 0xD13 JUMPI PUSH2 0xD12 PUSH2 0x13DE JUMP JUMPDEST JUMPDEST DUP1 DUP7 ADD PUSH2 0xD20 DUP10 DUP3 PUSH2 0xDF8 JUMP JUMPDEST DUP6 MSTORE PUSH1 0x20 DUP6 ADD SWAP5 POP PUSH1 0x20 DUP5 ADD SWAP4 POP POP POP PUSH1 0x1 DUP2 ADD SWAP1 POP PUSH2 0xCF0 JUMP JUMPDEST POP POP POP SWAP4 SWAP3 POP POP POP JUMP JUMPDEST PUSH1 0x0 PUSH2 0xD58 PUSH2 0xD53 DUP5 PUSH2 0x11D7 JUMP JUMPDEST PUSH2 0x115A JUMP JUMPDEST SWAP1 POP DUP3 DUP2 MSTORE PUSH1 0x20 DUP2 ADD DUP5 DUP5 DUP5 ADD GT ISZERO PUSH2 0xD74 JUMPI PUSH2 0xD73 PUSH2 0x13E8 JUMP JUMPDEST JUMPDEST PUSH2 0xD7F DUP5 DUP3 DUP6 PUSH2 0x1267 JUMP JUMPDEST POP SWAP4 SWAP3 POP POP POP JUMP JUMPDEST PUSH1 0x0 DUP2 CALLDATALOAD SWAP1 POP PUSH2 0xD96 DUP2 PUSH2 0x14D5 JUMP JUMPDEST SWAP3 SWAP2 POP POP JUMP JUMPDEST PUSH1 0x0 DUP3 PUSH1 0x1F DUP4 ADD SLT PUSH2 0xDB1 JUMPI PUSH2 0xDB0 PUSH2 0x13DE JUMP JUMPDEST JUMPDEST DUP2 CALLDATALOAD PUSH2 0xDC1 DUP5 DUP3 PUSH1 0x20 DUP7 ADD PUSH2 0xC47 JUMP JUMPDEST SWAP2 POP POP SWAP3 SWAP2 POP POP JUMP JUMPDEST PUSH1 0x0 DUP3 PUSH1 0x1F DUP4 ADD SLT PUSH2 0xDDF JUMPI PUSH2 0xDDE PUSH2 0x13DE JUMP JUMPDEST JUMPDEST DUP2 CALLDATALOAD PUSH2 0xDEF DUP5 DUP3 PUSH1 0x20 DUP7 ADD PUSH2 0xCB7 JUMP JUMPDEST SWAP2 POP POP SWAP3 SWAP2 POP POP JUMP JUMPDEST PUSH1 0x0 DUP3 PUSH1 0x1F DUP4 ADD SLT PUSH2 0xE0D JUMPI PUSH2 0xE0C PUSH2 0x13DE JUMP JUMPDEST JUMPDEST DUP2 CALLDATALOAD PUSH2 0xE1D DUP5 DUP3 PUSH1 0x20 DUP7 ADD PUSH2 0xD45 JUMP JUMPDEST SWAP2 POP POP SWAP3 SWAP2 POP POP JUMP JUMPDEST PUSH1 0x0 DUP2 MLOAD SWAP1 POP PUSH2 0xE35 DUP2 PUSH2 0x14EC JUMP JUMPDEST SWAP3 SWAP2 POP POP JUMP JUMPDEST PUSH1 0x0 PUSH1 0x20 DUP3 DUP5 SUB SLT ISZERO PUSH2 0xE51 JUMPI PUSH2 0xE50 PUSH2 0x13F2 JUMP JUMPDEST JUMPDEST PUSH1 0x0 PUSH2 0xE5F DUP5 DUP3 DUP6 ADD PUSH2 0xD87 JUMP JUMPDEST SWAP2 POP POP SWAP3 SWAP2 POP POP JUMP JUMPDEST PUSH1 0x0 PUSH1 0x20 DUP3 DUP5 SUB SLT ISZERO PUSH2 0xE7E JUMPI PUSH2 0xE7D PUSH2 0x13F2 JUMP JUMPDEST JUMPDEST PUSH1 0x0 DUP3 ADD CALLDATALOAD PUSH8 0xFFFFFFFFFFFFFFFF DUP2 GT ISZERO PUSH2 0xE9C JUMPI PUSH2 0xE9B PUSH2 0x13ED JUMP JUMPDEST JUMPDEST PUSH2 0xEA8 DUP5 DUP3 DUP6 ADD PUSH2 0xD9C JUMP JUMPDEST SWAP2 POP POP SWAP3 SWAP2 POP POP JUMP JUMPDEST PUSH1 0x0 DUP1 PUSH1 0x40 DUP4 DUP6 SUB SLT ISZERO PUSH2 0xEC8 JUMPI PUSH2 0xEC7 PUSH2 0x13F2 JUMP JUMPDEST JUMPDEST PUSH1 0x0 DUP4 ADD CALLDATALOAD PUSH8 0xFFFFFFFFFFFFFFFF DUP2 GT ISZERO PUSH2 0xEE6 JUMPI PUSH2 0xEE5 PUSH2 0x13ED JUMP JUMPDEST JUMPDEST PUSH2 0xEF2 DUP6 DUP3 DUP7 ADD PUSH2 0xD9C JUMP JUMPDEST SWAP3 POP POP PUSH1 0x20 DUP4 ADD CALLDATALOAD PUSH8 0xFFFFFFFFFFFFFFFF DUP2 GT ISZERO PUSH2 0xF13 JUMPI PUSH2 0xF12 PUSH2 0x13ED JUMP JUMPDEST JUMPDEST PUSH2 0xF1F DUP6 DUP3 DUP7 ADD PUSH2 0xDCA JUMP JUMPDEST SWAP2 POP POP SWAP3 POP SWAP3 SWAP1 POP JUMP JUMPDEST PUSH1 0x0 PUSH1 0x20 DUP3 DUP5 SUB SLT ISZERO PUSH2 0xF3F JUMPI PUSH2 0xF3E PUSH2 0x13F2 JUMP JUMPDEST JUMPDEST PUSH1 0x0 PUSH2 0xF4D DUP5 DUP3 DUP6 ADD PUSH2 0xE26 JUMP JUMPDEST SWAP2 POP POP SWAP3 SWAP2 POP POP JUMP JUMPDEST PUSH2 0xF5F DUP2 PUSH2 0x1219 JUMP JUMPDEST DUP3 MSTORE POP POP JUMP JUMPDEST PUSH2 0xF6E DUP2 PUSH2 0x1255 JUMP JUMPDEST DUP3 MSTORE POP POP JUMP JUMPDEST PUSH1 0x0 PUSH2 0xF81 PUSH1 0x14 DUP4 PUSH2 0x1208 JUMP JUMPDEST SWAP2 POP PUSH2 0xF8C DUP3 PUSH2 0x1408 JUMP JUMPDEST PUSH1 0x20 DUP3 ADD SWAP1 POP SWAP2 SWAP1 POP JUMP JUMPDEST PUSH1 0x0 PUSH2 0xFA4 PUSH1 0x11 DUP4 PUSH2 0x1208 JUMP JUMPDEST SWAP2 POP PUSH2 0xFAF DUP3 PUSH2 0x1431 JUMP JUMPDEST PUSH1 0x20 DUP3 ADD SWAP1 POP SWAP2 SWAP1 POP JUMP JUMPDEST PUSH1 0x0 PUSH2 0xFC7 PUSH1 0x14 DUP4 PUSH2 0x1208 JUMP JUMPDEST SWAP2 POP PUSH2 0xFD2 DUP3 PUSH2 0x145A JUMP JUMPDEST PUSH1 0x20 DUP3 ADD SWAP1 POP SWAP2 SWAP1 POP JUMP JUMPDEST PUSH1 0x0 PUSH2 0xFEA PUSH1 0x14 DUP4 PUSH2 0x1208 JUMP JUMPDEST SWAP2 POP PUSH2 0xFF5 DUP3 PUSH2 0x1483 JUMP JUMPDEST PUSH1 0x20 DUP3 ADD SWAP1 POP SWAP2 SWAP1 POP JUMP JUMPDEST PUSH1 0x0 PUSH2 0x100D PUSH1 0x17 DUP4 PUSH2 0x1208 JUMP JUMPDEST SWAP2 POP PUSH2 0x1018 DUP3 PUSH2 0x14AC JUMP JUMPDEST PUSH1 0x20 DUP3 ADD SWAP1 POP SWAP2 SWAP1 POP JUMP JUMPDEST PUSH2 0x102C DUP2 PUSH2 0x124B JUMP JUMPDEST DUP3 MSTORE POP POP JUMP JUMPDEST PUSH1 0x0 PUSH1 0x20 DUP3 ADD SWAP1 POP PUSH2 0x1047 PUSH1 0x0 DUP4 ADD DUP5 PUSH2 0xF56 JUMP JUMPDEST SWAP3 SWAP2 POP POP JUMP JUMPDEST PUSH1 0x0 PUSH1 0x40 DUP3 ADD SWAP1 POP PUSH2 0x1062 PUSH1 0x0 DUP4 ADD DUP6 PUSH2 0xF56 JUMP JUMPDEST PUSH2 0x106F PUSH1 0x20 DUP4 ADD DUP5 PUSH2 0xF65 JUMP JUMPDEST SWAP4 SWAP3 POP POP POP JUMP JUMPDEST PUSH1 0x0 PUSH1 0x40 DUP3 ADD SWAP1 POP PUSH2 0x108B PUSH1 0x0 DUP4 ADD DUP6 PUSH2 0xF56 JUMP JUMPDEST PUSH2 0x1098 PUSH1 0x20 DUP4 ADD DUP5 PUSH2 0x1023 JUMP JUMPDEST SWAP4 SWAP3 POP POP POP JUMP JUMPDEST PUSH1 0x0 PUSH1 0x20 DUP3 ADD SWAP1 POP DUP2 DUP2 SUB PUSH1 0x0 DUP4 ADD MSTORE PUSH2 0x10B8 DUP2 PUSH2 0xF74 JUMP JUMPDEST SWAP1 POP SWAP2 SWAP1 POP JUMP JUMPDEST PUSH1 0x0 PUSH1 0x20 DUP3 ADD SWAP1 POP DUP2 DUP2 SUB PUSH1 0x0 DUP4 ADD MSTORE PUSH2 0x10D8 DUP2 PUSH2 0xF97 JUMP JUMPDEST SWAP1 POP SWAP2 SWAP1 POP JUMP JUMPDEST PUSH1 0x0 PUSH1 0x20 DUP3 ADD SWAP1 POP DUP2 DUP2 SUB PUSH1 0x0 DUP4 ADD MSTORE PUSH2 0x10F8 DUP2 PUSH2 0xFBA JUMP JUMPDEST SWAP1 POP SWAP2 SWAP1 POP JUMP JUMPDEST PUSH1 0x0 PUSH1 0x20 DUP3 ADD SWAP1 POP DUP2 DUP2 SUB PUSH1 0x0 DUP4 ADD MSTORE PUSH2 0x1118 DUP2 PUSH2 0xFDD JUMP JUMPDEST SWAP1 POP SWAP2 SWAP1 POP JUMP JUMPDEST PUSH1 0x0 PUSH1 0x20 DUP3 ADD SWAP1 POP DUP2 DUP2 SUB PUSH1 0x0 DUP4 ADD MSTORE PUSH2 0x1138 DUP2 PUSH2 0x1000 JUMP JUMPDEST SWAP1 POP SWAP2 SWAP1 POP JUMP JUMPDEST PUSH1 0x0 PUSH1 0x20 DUP3 ADD SWAP1 POP PUSH2 0x1154 PUSH1 0x0 DUP4 ADD DUP5 PUSH2 0x1023 JUMP JUMPDEST SWAP3 SWAP2 POP POP JUMP JUMPDEST PUSH1 0x0 PUSH2 0x1164 PUSH2 0x1175 JUMP JUMPDEST SWAP1 POP PUSH2 0x1170 DUP3 DUP3 PUSH2 0x12A8 JUMP JUMPDEST SWAP2 SWAP1 POP JUMP JUMPDEST PUSH1 0x0 PUSH1 0x40 MLOAD SWAP1 POP SWAP1 JUMP JUMPDEST PUSH1 0x0 PUSH8 0xFFFFFFFFFFFFFFFF DUP3 GT ISZERO PUSH2 0x119A JUMPI PUSH2 0x1199 PUSH2 0x13AF JUMP JUMPDEST JUMPDEST PUSH1 0x20 DUP3 MUL SWAP1 POP PUSH1 0x20 DUP2 ADD SWAP1 POP SWAP2 SWAP1 POP JUMP JUMPDEST PUSH1 0x0 PUSH8 0xFFFFFFFFFFFFFFFF DUP3 GT ISZERO PUSH2 0x11C6 JUMPI PUSH2 0x11C5 PUSH2 0x13AF JUMP JUMPDEST JUMPDEST PUSH1 0x20 DUP3 MUL SWAP1 POP PUSH1 0x20 DUP2 ADD SWAP1 POP SWAP2 SWAP1 POP JUMP JUMPDEST PUSH1 0x0 PUSH8 0xFFFFFFFFFFFFFFFF DUP3 GT ISZERO PUSH2 0x11F2 JUMPI PUSH2 0x11F1 PUSH2 0x13AF JUMP JUMPDEST JUMPDEST PUSH2 0x11FB DUP3 PUSH2 0x13F7 JUMP JUMPDEST SWAP1 POP PUSH1 0x20 DUP2 ADD SWAP1 POP SWAP2 SWAP1 POP JUMP JUMPDEST PUSH1 0x0 DUP3 DUP3 MSTORE PUSH1 0x20 DUP3 ADD SWAP1 POP SWAP3 SWAP2 POP POP JUMP JUMPDEST PUSH1 0x0 PUSH2 0x1224 DUP3 PUSH2 0x122B JUMP JUMPDEST SWAP1 POP SWAP2 SWAP1 POP JUMP JUMPDEST PUSH1 0x0 PUSH20 0xFFFFFFFFFFFFFFFFFFFFFFFFFFFFFFFFFFFFFFFF DUP3 AND SWAP1 POP SWAP2 SWAP1 POP JUMP JUMPDEST PUSH1 0x0 DUP2 SWAP1 POP SWAP2 SWAP1 POP JUMP JUMPDEST PUSH1 0x0 PUSH2 0x1260 DUP3 PUSH2 0x124B JUMP JUMPDEST SWAP1 POP SWAP2 SWAP1 POP JUMP JUMPDEST DUP3 DUP2 DUP4 CALLDATACOPY PUSH1 0x0 DUP4 DUP4 ADD MSTORE POP POP POP JUMP JUMPDEST PUSH1 0x0 PUSH1 0x2 DUP3 DIV SWAP1 POP PUSH1 0x1 DUP3 AND DUP1 PUSH2 0x128E JUMPI PUSH1 0x7F DUP3 AND SWAP2 POP JUMPDEST PUSH1 0x20 DUP3 LT DUP2 EQ ISZERO PUSH2 0x12A2 JUMPI PUSH2 0x12A1 PUSH2 0x1351 JUMP JUMPDEST JUMPDEST POP SWAP2 SWAP1 POP JUMP JUMPDEST PUSH2 0x12B1 DUP3 PUSH2 0x13F7 JUMP JUMPDEST DUP2 ADD DUP2 DUP2 LT PUSH8 0xFFFFFFFFFFFFFFFF DUP3 GT OR ISZERO PUSH2 0x12D0 JUMPI PUSH2 0x12CF PUSH2 0x13AF JUMP JUMPDEST JUMPDEST DUP1 PUSH1 0x40 MSTORE POP POP POP JUMP JUMPDEST PUSH1 0x0 PUSH2 0x12E4 DUP3 PUSH2 0x124B JUMP JUMPDEST SWAP2 POP PUSH32 0xFFFFFFFFFFFFFFFFFFFFFFFFFFFFFFFFFFFFFFFFFFFFFFFFFFFFFFFFFFFFFFFF DUP3 EQ ISZERO PUSH2 0x1317 JUMPI PUSH2 0x1316 PUSH2 0x1322 JUMP JUMPDEST JUMPDEST PUSH1 0x1 DUP3 ADD SWAP1 POP SWAP2 SWAP1 POP JUMP JUMPDEST PUSH32 0x4E487B7100000000000000000000000000000000000000000000000000000000 PUSH1 0x0 MSTORE PUSH1 0x11 PUSH1 0x4 MSTORE PUSH1 0x24 PUSH1 0x0 REVERT JUMPDEST PUSH32 0x4E487B7100000000000000000000000000000000000000000000000000000000 PUSH1 0x0 MSTORE PUSH1 0x22 PUSH1 0x4 MSTORE PUSH1 0x24 PUSH1 0x0 REVERT JUMPDEST PUSH32 0x4E487B7100000000000000000000000000000000000000000000000000000000 PUSH1 0x0 MSTORE PUSH1 0x32 PUSH1 0x4 MSTORE PUSH1 0x24 PUSH1 0x0 REVERT JUMPDEST PUSH32 0x4E487B7100000000000000000000000000000000000000000000000000000000 PUSH1 0x0 MSTORE PUSH1 0x41 PUSH1 0x4 MSTORE PUSH1 0x24 PUSH1 0x0 REVERT JUMPDEST PUSH1 0x0 DUP1 REVERT JUMPDEST PUSH1 0x0 DUP1 REVERT JUMPDEST PUSH1 0x0 DUP1 REVERT JUMPDEST PUSH1 0x0 DUP1 REVERT JUMPDEST PUSH1 0x0 DUP1 REVERT JUMPDEST PUSH1 0x0 PUSH1 0x1F NOT PUSH1 0x1F DUP4 ADD AND SWAP1 POP SWAP2 SWAP1 POP JUMP JUMPDEST PUSH32 0x4C656E67746820697320646966666572656E742E000000000000000000000000 PUSH1 0x0 DUP3 ADD MSTORE POP JUMP JUMPDEST PUSH32 0x566F74696E6720636F6D706C657465642E000000000000000000000000000000 PUSH1 0x0 DUP3 ADD MSTORE POP JUMP JUMPDEST PUSH32 0x566F74657220616C726561647920766F7465642E000000000000000000000000 PUSH1 0x0 DUP3 ADD MSTORE POP JUMP JUMPDEST PUSH32 0x546F6B656E20646F65736E27742065786973742E000000000000000000000000 PUSH1 0x0 DUP3 ADD MSTORE POP JUMP JUMPDEST PUSH32 0x546869732069736E2774206368616972706572736F6E2E000000000000000000 PUSH1 0x0 DUP3 ADD MSTORE POP JUMP JUMPDEST PUSH2 0x14DE DUP2 PUSH2 0x1219 JUMP JUMPDEST DUP2 EQ PUSH2 0x14E9 JUMPI PUSH1 0x0 DUP1 REVERT JUMPDEST POP JUMP JUMPDEST PUSH2 0x14F5 DUP2 PUSH2 0x124B JUMP JUMPDEST DUP2 EQ PUSH2 0x1500 JUMPI PUSH1 0x0 DUP1 REVERT JUMPDEST POP JUMP INVALID LOG2 PUSH5 0x6970667358 0x22 SLT KECCAK256 0xD9 0xB2 JUMP SELFBALANCE 0x4C 0xEE PUSH10 0xD1E1780111C4972B7883 0xBF EQ 0xE8 ADDRESS PUSH17 0x3EEE947C2546DBC8FD2864736F6C634300 ADDMOD SMOD STOP CALLER PUSH1 0x80 PUSH1 0x40 MSTORE CALLVALUE DUP1 ISZERO PUSH3 0x11 JUMPI PUSH1 0x0 DUP1 REVERT JUMPDEST POP PUSH1 0x40 MLOAD DUP1 PUSH1 0x40 ADD PUSH1 0x40 MSTORE DUP1 PUSH1 0xD DUP2 MSTORE PUSH1 0x20 ADD PUSH32 0x452D566F74696E6720636F696E00000000000000000000000000000000000000 DUP2 MSTORE POP PUSH1 0x1 SWAP1 DUP1 MLOAD SWAP1 PUSH1 0x20 ADD SWAP1 PUSH3 0x5F SWAP3 SWAP2 SWAP1 PUSH3 0xD0 JUMP JUMPDEST POP PUSH1 0x0 PUSH1 0x2 PUSH1 0x0 PUSH2 0x100 EXP DUP2 SLOAD DUP2 PUSH1 0xFF MUL NOT AND SWAP1 DUP4 PUSH1 0xFF AND MUL OR SWAP1 SSTORE POP PUSH1 0x40 MLOAD DUP1 PUSH1 0x40 ADD PUSH1 0x40 MSTORE DUP1 PUSH1 0x3 DUP2 MSTORE PUSH1 0x20 ADD PUSH32 0x4556430000000000000000000000000000000000000000000000000000000000 DUP2 MSTORE POP PUSH1 0x3 SWAP1 DUP1 MLOAD SWAP1 PUSH1 0x20 ADD SWAP1 PUSH3 0xC9 SWAP3 SWAP2 SWAP1 PUSH3 0xD0 JUMP JUMPDEST POP PUSH3 0x1E5 JUMP JUMPDEST DUP3 DUP1 SLOAD PUSH3 0xDE SWAP1 PUSH3 0x180 JUMP JUMPDEST SWAP1 PUSH1 0x0 MSTORE PUSH1 0x20 PUSH1 0x0 KECCAK256 SWAP1 PUSH1 0x1F ADD PUSH1 0x20 SWAP1 DIV DUP2 ADD SWAP3 DUP3 PUSH3 0x102 JUMPI PUSH1 0x0 DUP6 SSTORE PUSH3 0x14E JUMP JUMPDEST DUP3 PUSH1 0x1F LT PUSH3 0x11D JUMPI DUP1 MLOAD PUSH1 0xFF NOT AND DUP4 DUP1 ADD OR DUP6 SSTORE PUSH3 0x14E JUMP JUMPDEST DUP3 DUP1 ADD PUSH1 0x1 ADD DUP6 SSTORE DUP3 ISZERO PUSH3 0x14E JUMPI SWAP2 DUP3 ADD JUMPDEST DUP3 DUP2 GT ISZERO PUSH3 0x14D JUMPI DUP3 MLOAD DUP3 SSTORE SWAP2 PUSH1 0x20 ADD SWAP2 SWAP1 PUSH1 0x1 ADD SWAP1 PUSH3 0x130 JUMP JUMPDEST JUMPDEST POP SWAP1 POP PUSH3 0x15D SWAP2 SWAP1 PUSH3 0x161 JUMP JUMPDEST POP SWAP1 JUMP JUMPDEST JUMPDEST DUP1 DUP3 GT ISZERO PUSH3 0x17C JUMPI PUSH1 0x0 DUP2 PUSH1 0x0 SWAP1 SSTORE POP PUSH1 0x1 ADD PUSH3 0x162 JUMP JUMPDEST POP SWAP1 JUMP JUMPDEST PUSH1 0x0 PUSH1 0x2 DUP3 DIV SWAP1 POP PUSH1 0x1 DUP3 AND DUP1 PUSH3 0x199 JUMPI PUSH1 0x7F DUP3 AND SWAP2 POP JUMPDEST PUSH1 0x20 DUP3 LT DUP2 EQ ISZERO PUSH3 0x1B0 JUMPI PUSH3 0x1AF PUSH3 0x1B6 JUMP JUMPDEST JUMPDEST POP SWAP2 SWAP1 POP JUMP JUMPDEST PUSH32 0x4E487B7100000000000000000000000000000000000000000000000000000000 PUSH1 0x0 MSTORE PUSH1 0x22 PUSH1 0x4 MSTORE PUSH1 0x24 PUSH1 0x0 REVERT JUMPDEST PUSH2 0x13C1 DUP1 PUSH3 0x1F5 PUSH1 0x0 CODECOPY PUSH1 0x0 RETURN INVALID PUSH1 0x80 PUSH1 0x40 MSTORE CALLVALUE DUP1 ISZERO PUSH2 0x10 JUMPI PUSH1 0x0 DUP1 REVERT JUMPDEST POP PUSH1 0x4 CALLDATASIZE LT PUSH2 0xB4 JUMPI PUSH1 0x0 CALLDATALOAD PUSH1 0xE0 SHR DUP1 PUSH4 0x54FD4D50 GT PUSH2 0x71 JUMPI DUP1 PUSH4 0x54FD4D50 EQ PUSH2 0x167 JUMPI DUP1 PUSH4 0x70A08231 EQ PUSH2 0x185 JUMPI DUP1 PUSH4 0x95D89B41 EQ PUSH2 0x1B5 JUMPI DUP1 PUSH4 0xA9059CBB EQ PUSH2 0x1D3 JUMPI DUP1 PUSH4 0xC4E41B22 EQ PUSH2 0x1EF JUMPI DUP1 PUSH4 0xDD62ED3E EQ PUSH2 0x20D JUMPI PUSH2 0xB4 JUMP JUMPDEST DUP1 PUSH4 0x6FDDE03 EQ PUSH2 0xB9 JUMPI DUP1 PUSH4 0x95EA7B3 EQ PUSH2 0xD7 JUMPI DUP1 PUSH4 0x18160DDD EQ PUSH2 0xF3 JUMPI DUP1 PUSH4 0x23B872DD EQ PUSH2 0x111 JUMPI DUP1 PUSH4 0x313CE567 EQ PUSH2 0x12D JUMPI DUP1 PUSH4 0x40C10F19 EQ PUSH2 0x14B JUMPI JUMPDEST PUSH1 0x0 DUP1 REVERT JUMPDEST PUSH2 0xC1 PUSH2 0x23D JUMP JUMPDEST PUSH1 0x40 MLOAD PUSH2 0xCE SWAP2 SWAP1 PUSH2 0xFEA JUMP JUMPDEST PUSH1 0x40 MLOAD DUP1 SWAP2 SUB SWAP1 RETURN JUMPDEST PUSH2 0xF1 PUSH1 0x4 DUP1 CALLDATASIZE SUB DUP2 ADD SWAP1 PUSH2 0xEC SWAP2 SWAP1 PUSH2 0xEC7 JUMP JUMPDEST PUSH2 0x2CB JUMP JUMPDEST STOP JUMPDEST PUSH2 0xFB PUSH2 0x3B5 JUMP JUMPDEST PUSH1 0x40 MLOAD PUSH2 0x108 SWAP2 SWAP1 PUSH2 0x108C JUMP JUMPDEST PUSH1 0x40 MLOAD DUP1 SWAP2 SUB SWAP1 RETURN JUMPDEST PUSH2 0x12B PUSH1 0x4 DUP1 CALLDATASIZE SUB DUP2 ADD SWAP1 PUSH2 0x126 SWAP2 SWAP1 PUSH2 0xE74 JUMP JUMPDEST PUSH2 0x3BB JUMP JUMPDEST STOP JUMPDEST PUSH2 0x135 PUSH2 0x7E2 JUMP JUMPDEST PUSH1 0x40 MLOAD PUSH2 0x142 SWAP2 SWAP1 PUSH2 0x10A7 JUMP JUMPDEST PUSH1 0x40 MLOAD DUP1 SWAP2 SUB SWAP1 RETURN JUMPDEST PUSH2 0x165 PUSH1 0x4 DUP1 CALLDATASIZE SUB DUP2 ADD SWAP1 PUSH2 0x160 SWAP2 SWAP1 PUSH2 0xEC7 JUMP JUMPDEST PUSH2 0x7F5 JUMP JUMPDEST STOP JUMPDEST PUSH2 0x16F PUSH2 0x955 JUMP JUMPDEST PUSH1 0x40 MLOAD PUSH2 0x17C SWAP2 SWAP1 PUSH2 0xFEA JUMP JUMPDEST PUSH1 0x40 MLOAD DUP1 SWAP2 SUB SWAP1 RETURN JUMPDEST PUSH2 0x19F PUSH1 0x4 DUP1 CALLDATASIZE SUB DUP2 ADD SWAP1 PUSH2 0x19A SWAP2 SWAP1 PUSH2 0xE07 JUMP JUMPDEST PUSH2 0x9E3 JUMP JUMPDEST PUSH1 0x40 MLOAD PUSH2 0x1AC SWAP2 SWAP1 PUSH2 0x108C JUMP JUMPDEST PUSH1 0x40 MLOAD DUP1 SWAP2 SUB SWAP1 RETURN JUMPDEST PUSH2 0x1BD PUSH2 0xA2C JUMP JUMPDEST PUSH1 0x40 MLOAD PUSH2 0x1CA SWAP2 SWAP1 PUSH2 0xFEA JUMP JUMPDEST PUSH1 0x40 MLOAD DUP1 SWAP2 SUB SWAP1 RETURN JUMPDEST PUSH2 0x1ED PUSH1 0x4 DUP1 CALLDATASIZE SUB DUP2 ADD SWAP1 PUSH2 0x1E8 SWAP2 SWAP1 PUSH2 0xEC7 JUMP JUMPDEST PUSH2 0xABA JUMP JUMPDEST STOP JUMPDEST PUSH2 0x1F7 PUSH2 0xCF2 JUMP JUMPDEST PUSH1 0x40 MLOAD PUSH2 0x204 SWAP2 SWAP1 PUSH2 0x108C JUMP JUMPDEST PUSH1 0x40 MLOAD DUP1 SWAP2 SUB SWAP1 RETURN JUMPDEST PUSH2 0x227 PUSH1 0x4 DUP1 CALLDATASIZE SUB DUP2 ADD SWAP1 PUSH2 0x222 SWAP2 SWAP1 PUSH2 0xE34 JUMP JUMPDEST PUSH2 0xCFB JUMP JUMPDEST PUSH1 0x40 MLOAD PUSH2 0x234 SWAP2 SWAP1 PUSH2 0x108C JUMP JUMPDEST PUSH1 0x40 MLOAD DUP1 SWAP2 SUB SWAP1 RETURN JUMPDEST PUSH1 0x1 DUP1 SLOAD PUSH2 0x24A SWAP1 PUSH2 0x11E4 JUMP JUMPDEST DUP1 PUSH1 0x1F ADD PUSH1 0x20 DUP1 SWAP2 DIV MUL PUSH1 0x20 ADD PUSH1 0x40 MLOAD SWAP1 DUP2 ADD PUSH1 0x40 MSTORE DUP1 SWAP3 SWAP2 SWAP1 DUP2 DUP2 MSTORE PUSH1 0x20 ADD DUP3 DUP1 SLOAD PUSH2 0x276 SWAP1 PUSH2 0x11E4 JUMP JUMPDEST DUP1 ISZERO PUSH2 0x2C3 JUMPI DUP1 PUSH1 0x1F LT PUSH2 0x298 JUMPI PUSH2 0x100 DUP1 DUP4 SLOAD DIV MUL DUP4 MSTORE SWAP2 PUSH1 0x20 ADD SWAP2 PUSH2 0x2C3 JUMP JUMPDEST DUP3 ADD SWAP2 SWAP1 PUSH1 0x0 MSTORE PUSH1 0x20 PUSH1 0x0 KECCAK256 SWAP1 JUMPDEST DUP2 SLOAD DUP2 MSTORE SWAP1 PUSH1 0x1 ADD SWAP1 PUSH1 0x20 ADD DUP1 DUP4 GT PUSH2 0x2A6 JUMPI DUP3 SWAP1 SUB PUSH1 0x1F AND DUP3 ADD SWAP2 JUMPDEST POP POP POP POP POP DUP2 JUMP JUMPDEST DUP1 PUSH1 0x6 PUSH1 0x0 CALLER PUSH20 0xFFFFFFFFFFFFFFFFFFFFFFFFFFFFFFFFFFFFFFFF AND PUSH20 0xFFFFFFFFFFFFFFFFFFFFFFFFFFFFFFFFFFFFFFFF AND DUP2 MSTORE PUSH1 0x20 ADD SWAP1 DUP2 MSTORE PUSH1 0x20 ADD PUSH1 0x0 KECCAK256 PUSH1 0x0 DUP5 PUSH20 0xFFFFFFFFFFFFFFFFFFFFFFFFFFFFFFFFFFFFFFFF AND PUSH20 0xFFFFFFFFFFFFFFFFFFFFFFFFFFFFFFFFFFFFFFFF AND DUP2 MSTORE PUSH1 0x20 ADD SWAP1 DUP2 MSTORE PUSH1 0x20 ADD PUSH1 0x0 KECCAK256 DUP2 SWAP1 SSTORE POP DUP2 PUSH20 0xFFFFFFFFFFFFFFFFFFFFFFFFFFFFFFFFFFFFFFFF AND CALLER PUSH20 0xFFFFFFFFFFFFFFFFFFFFFFFFFFFFFFFFFFFFFFFF AND PUSH32 0x8C5BE1E5EBEC7D5BD14F71427D1E84F3DD0314C0F7B2291E5B200AC8C7C3B925 DUP4 PUSH1 0x40 MLOAD PUSH2 0x3A9 SWAP2 SWAP1 PUSH2 0x108C JUMP JUMPDEST PUSH1 0x40 MLOAD DUP1 SWAP2 SUB SWAP1 LOG3 POP POP JUMP JUMPDEST PUSH1 0x0 SLOAD DUP2 JUMP JUMPDEST PUSH1 0x0 DUP2 GT PUSH2 0x3FE JUMPI PUSH1 0x40 MLOAD PUSH32 0x8C379A000000000000000000000000000000000000000000000000000000000 DUP2 MSTORE PUSH1 0x4 ADD PUSH2 0x3F5 SWAP1 PUSH2 0x102C JUMP JUMPDEST PUSH1 0x40 MLOAD DUP1 SWAP2 SUB SWAP1 REVERT JUMPDEST DUP1 PUSH1 0x5 PUSH1 0x0 DUP6 PUSH20 0xFFFFFFFFFFFFFFFFFFFFFFFFFFFFFFFFFFFFFFFF AND PUSH20 0xFFFFFFFFFFFFFFFFFFFFFFFFFFFFFFFFFFFFFFFF AND DUP2 MSTORE PUSH1 0x20 ADD SWAP1 DUP2 MSTORE PUSH1 0x20 ADD PUSH1 0x0 KECCAK256 SLOAD LT ISZERO PUSH2 0x480 JUMPI PUSH1 0x40 MLOAD PUSH32 0x8C379A000000000000000000000000000000000000000000000000000000000 DUP2 MSTORE PUSH1 0x4 ADD PUSH2 0x477 SWAP1 PUSH2 0x100C JUMP JUMPDEST PUSH1 0x40 MLOAD DUP1 SWAP2 SUB SWAP1 REVERT JUMPDEST DUP1 PUSH1 0x6 PUSH1 0x0 DUP6 PUSH20 0xFFFFFFFFFFFFFFFFFFFFFFFFFFFFFFFFFFFFFFFF AND PUSH20 0xFFFFFFFFFFFFFFFFFFFFFFFFFFFFFFFFFFFFFFFF AND DUP2 MSTORE PUSH1 0x20 ADD SWAP1 DUP2 MSTORE PUSH1 0x20 ADD PUSH1 0x0 KECCAK256 PUSH1 0x0 CALLER PUSH20 0xFFFFFFFFFFFFFFFFFFFFFFFFFFFFFFFFFFFFFFFF AND PUSH20 0xFFFFFFFFFFFFFFFFFFFFFFFFFFFFFFFFFFFFFFFF AND DUP2 MSTORE PUSH1 0x20 ADD SWAP1 DUP2 MSTORE PUSH1 0x20 ADD PUSH1 0x0 KECCAK256 SLOAD LT ISZERO PUSH2 0x53F JUMPI PUSH1 0x40 MLOAD PUSH32 0x8C379A000000000000000000000000000000000000000000000000000000000 DUP2 MSTORE PUSH1 0x4 ADD PUSH2 0x536 SWAP1 PUSH2 0x104C JUMP JUMPDEST PUSH1 0x40 MLOAD DUP1 SWAP2 SUB SWAP1 REVERT JUMPDEST PUSH2 0x591 DUP2 PUSH1 0x5 PUSH1 0x0 DUP6 PUSH20 0xFFFFFFFFFFFFFFFFFFFFFFFFFFFFFFFFFFFFFFFF AND PUSH20 0xFFFFFFFFFFFFFFFFFFFFFFFFFFFFFFFFFFFFFFFF AND DUP2 MSTORE PUSH1 0x20 ADD SWAP1 DUP2 MSTORE PUSH1 0x20 ADD PUSH1 0x0 KECCAK256 SLOAD PUSH2 0xD82 SWAP1 SWAP2 SWAP1 PUSH4 0xFFFFFFFF AND JUMP JUMPDEST PUSH1 0x5 PUSH1 0x0 DUP5 PUSH20 0xFFFFFFFFFFFFFFFFFFFFFFFFFFFFFFFFFFFFFFFF AND PUSH20 0xFFFFFFFFFFFFFFFFFFFFFFFFFFFFFFFFFFFFFFFF AND DUP2 MSTORE PUSH1 0x20 ADD SWAP1 DUP2 MSTORE PUSH1 0x20 ADD PUSH1 0x0 KECCAK256 DUP2 SWAP1 SSTORE POP PUSH2 0x626 DUP2 PUSH1 0x5 PUSH1 0x0 DUP7 PUSH20 0xFFFFFFFFFFFFFFFFFFFFFFFFFFFFFFFFFFFFFFFF AND PUSH20 0xFFFFFFFFFFFFFFFFFFFFFFFFFFFFFFFFFFFFFFFF AND DUP2 MSTORE PUSH1 0x20 ADD SWAP1 DUP2 MSTORE PUSH1 0x20 ADD PUSH1 0x0 KECCAK256 SLOAD PUSH2 0xDAA SWAP1 SWAP2 SWAP1 PUSH4 0xFFFFFFFF AND JUMP JUMPDEST PUSH1 0x5 PUSH1 0x0 DUP6 PUSH20 0xFFFFFFFFFFFFFFFFFFFFFFFFFFFFFFFFFFFFFFFF AND PUSH20 0xFFFFFFFFFFFFFFFFFFFFFFFFFFFFFFFFFFFFFFFF AND DUP2 MSTORE PUSH1 0x20 ADD SWAP1 DUP2 MSTORE PUSH1 0x20 ADD PUSH1 0x0 KECCAK256 DUP2 SWAP1 SSTORE POP PUSH2 0x6F8 DUP2 PUSH1 0x6 PUSH1 0x0 DUP7 PUSH20 0xFFFFFFFFFFFFFFFFFFFFFFFFFFFFFFFFFFFFFFFF AND PUSH20 0xFFFFFFFFFFFFFFFFFFFFFFFFFFFFFFFFFFFFFFFF AND DUP2 MSTORE PUSH1 0x20 ADD SWAP1 DUP2 MSTORE PUSH1 0x20 ADD PUSH1 0x0 KECCAK256 PUSH1 0x0 CALLER PUSH20 0xFFFFFFFFFFFFFFFFFFFFFFFFFFFFFFFFFFFFFFFF AND PUSH20 0xFFFFFFFFFFFFFFFFFFFFFFFFFFFFFFFFFFFFFFFF AND DUP2 MSTORE PUSH1 0x20 ADD SWAP1 DUP2 MSTORE PUSH1 0x20 ADD PUSH1 0x0 KECCAK256 SLOAD PUSH2 0xDAA SWAP1 SWAP2 SWAP1 PUSH4 0xFFFFFFFF AND JUMP JUMPDEST PUSH1 0x6 PUSH1 0x0 DUP6 PUSH20 0xFFFFFFFFFFFFFFFFFFFFFFFFFFFFFFFFFFFFFFFF AND PUSH20 0xFFFFFFFFFFFFFFFFFFFFFFFFFFFFFFFFFFFFFFFF AND DUP2 MSTORE PUSH1 0x20 ADD SWAP1 DUP2 MSTORE PUSH1 0x20 ADD PUSH1 0x0 KECCAK256 PUSH1 0x0 CALLER PUSH20 0xFFFFFFFFFFFFFFFFFFFFFFFFFFFFFFFFFFFFFFFF AND PUSH20 0xFFFFFFFFFFFFFFFFFFFFFFFFFFFFFFFFFFFFFFFF AND DUP2 MSTORE PUSH1 0x20 ADD SWAP1 DUP2 MSTORE PUSH1 0x20 ADD PUSH1 0x0 KECCAK256 DUP2 SWAP1 SSTORE POP DUP2 PUSH20 0xFFFFFFFFFFFFFFFFFFFFFFFFFFFFFFFFFFFFFFFF AND DUP4 PUSH20 0xFFFFFFFFFFFFFFFFFFFFFFFFFFFFFFFFFFFFFFFF AND PUSH32 0xDDF252AD1BE2C89B69C2B068FC378DAA952BA7F163C4A11628F55A4DF523B3EF DUP4 PUSH1 0x40 MLOAD PUSH2 0x7D5 SWAP2 SWAP1 PUSH2 0x108C JUMP JUMPDEST PUSH1 0x40 MLOAD DUP1 SWAP2 SUB SWAP1 LOG3 POP POP POP JUMP JUMPDEST PUSH1 0x2 PUSH1 0x0 SWAP1 SLOAD SWAP1 PUSH2 0x100 EXP SWAP1 DIV PUSH1 0xFF AND DUP2 JUMP JUMPDEST PUSH1 0x0 PUSH20 0xFFFFFFFFFFFFFFFFFFFFFFFFFFFFFFFFFFFFFFFF AND DUP3 PUSH20 0xFFFFFFFFFFFFFFFFFFFFFFFFFFFFFFFFFFFFFFFF AND EQ ISZERO PUSH2 0x865 JUMPI PUSH1 0x40 MLOAD PUSH32 0x8C379A000000000000000000000000000000000000000000000000000000000 DUP2 MSTORE PUSH1 0x4 ADD PUSH2 0x85C SWAP1 PUSH2 0x106C JUMP JUMPDEST PUSH1 0x40 MLOAD DUP1 SWAP2 SUB SWAP1 REVERT JUMPDEST PUSH2 0x871 PUSH1 0x0 DUP4 DUP4 PUSH2 0xDD3 JUMP JUMPDEST DUP1 PUSH1 0x0 DUP1 DUP3 DUP3 SLOAD PUSH2 0x882 SWAP2 SWAP1 PUSH2 0x10DE JUMP JUMPDEST SWAP3 POP POP DUP2 SWAP1 SSTORE POP DUP1 PUSH1 0x5 PUSH1 0x0 DUP5 PUSH20 0xFFFFFFFFFFFFFFFFFFFFFFFFFFFFFFFFFFFFFFFF AND PUSH20 0xFFFFFFFFFFFFFFFFFFFFFFFFFFFFFFFFFFFFFFFF AND DUP2 MSTORE PUSH1 0x20 ADD SWAP1 DUP2 MSTORE PUSH1 0x20 ADD PUSH1 0x0 KECCAK256 PUSH1 0x0 DUP3 DUP3 SLOAD PUSH2 0x8D8 SWAP2 SWAP1 PUSH2 0x10DE JUMP JUMPDEST SWAP3 POP POP DUP2 SWAP1 SSTORE POP DUP2 PUSH20 0xFFFFFFFFFFFFFFFFFFFFFFFFFFFFFFFFFFFFFFFF AND PUSH1 0x0 PUSH20 0xFFFFFFFFFFFFFFFFFFFFFFFFFFFFFFFFFFFFFFFF AND PUSH32 0xDDF252AD1BE2C89B69C2B068FC378DAA952BA7F163C4A11628F55A4DF523B3EF DUP4 PUSH1 0x40 MLOAD PUSH2 0x93D SWAP2 SWAP1 PUSH2 0x108C JUMP JUMPDEST PUSH1 0x40 MLOAD DUP1 SWAP2 SUB SWAP1 LOG3 PUSH2 0x951 PUSH1 0x0 DUP4 DUP4 PUSH2 0xDD8 JUMP JUMPDEST POP POP JUMP JUMPDEST PUSH1 0x4 DUP1 SLOAD PUSH2 0x962 SWAP1 PUSH2 0x11E4 JUMP JUMPDEST DUP1 PUSH1 0x1F ADD PUSH1 0x20 DUP1 SWAP2 DIV MUL PUSH1 0x20 ADD PUSH1 0x40 MLOAD SWAP1 DUP2 ADD PUSH1 0x40 MSTORE DUP1 SWAP3 SWAP2 SWAP1 DUP2 DUP2 MSTORE PUSH1 0x20 ADD DUP3 DUP1 SLOAD PUSH2 0x98E SWAP1 PUSH2 0x11E4 JUMP JUMPDEST DUP1 ISZERO PUSH2 0x9DB JUMPI DUP1 PUSH1 0x1F LT PUSH2 0x9B0 JUMPI PUSH2 0x100 DUP1 DUP4 SLOAD DIV MUL DUP4 MSTORE SWAP2 PUSH1 0x20 ADD SWAP2 PUSH2 0x9DB JUMP JUMPDEST DUP3 ADD SWAP2 SWAP1 PUSH1 0x0 MSTORE PUSH1 0x20 PUSH1 0x0 KECCAK256 SWAP1 JUMPDEST DUP2 SLOAD DUP2 MSTORE SWAP1 PUSH1 0x1 ADD SWAP1 PUSH1 0x20 ADD DUP1 DUP4 GT PUSH2 0x9BE JUMPI DUP3 SWAP1 SUB PUSH1 0x1F AND DUP3 ADD SWAP2 JUMPDEST POP POP POP POP POP DUP2 JUMP JUMPDEST PUSH1 0x0 PUSH1 0x5 PUSH1 0x0 DUP4 PUSH20 0xFFFFFFFFFFFFFFFFFFFFFFFFFFFFFFFFFFFFFFFF AND PUSH20 0xFFFFFFFFFFFFFFFFFFFFFFFFFFFFFFFFFFFFFFFF AND DUP2 MSTORE PUSH1 0x20 ADD SWAP1 DUP2 MSTORE PUSH1 0x20 ADD PUSH1 0x0 KECCAK256 SLOAD SWAP1 POP SWAP2 SWAP1 POP JUMP JUMPDEST PUSH1 0x3 DUP1 SLOAD PUSH2 0xA39 SWAP1 PUSH2 0x11E4 JUMP JUMPDEST DUP1 PUSH1 0x1F ADD PUSH1 0x20 DUP1 SWAP2 DIV MUL PUSH1 0x20 ADD PUSH1 0x40 MLOAD SWAP1 DUP2 ADD PUSH1 0x40 MSTORE DUP1 SWAP3 SWAP2 SWAP1 DUP2 DUP2 MSTORE PUSH1 0x20 ADD DUP3 DUP1 SLOAD PUSH2 0xA65 SWAP1 PUSH2 0x11E4 JUMP JUMPDEST DUP1 ISZERO PUSH2 0xAB2 JUMPI DUP1 PUSH1 0x1F LT PUSH2 0xA87 JUMPI PUSH2 0x100 DUP1 DUP4 SLOAD DIV MUL DUP4 MSTORE SWAP2 PUSH1 0x20 ADD SWAP2 PUSH2 0xAB2 JUMP JUMPDEST DUP3 ADD SWAP2 SWAP1 PUSH1 0x0 MSTORE PUSH1 0x20 PUSH1 0x0 KECCAK256 SWAP1 JUMPDEST DUP2 SLOAD DUP2 MSTORE SWAP1 PUSH1 0x1 ADD SWAP1 PUSH1 0x20 ADD DUP1 DUP4 GT PUSH2 0xA95 JUMPI DUP3 SWAP1 SUB PUSH1 0x1F AND DUP3 ADD SWAP2 JUMPDEST POP POP POP POP POP DUP2 JUMP JUMPDEST PUSH1 0x40 PUSH1 0x4 DUP2 PUSH2 0xAC9 SWAP2 SWAP1 PUSH2 0x10DE JUMP JUMPDEST PUSH1 0x0 CALLDATASIZE SWAP1 POP EQ PUSH2 0xADC JUMPI PUSH2 0xADB PUSH2 0x1216 JUMP JUMPDEST JUMPDEST PUSH1 0x0 DUP3 GT PUSH2 0xB1F JUMPI PUSH1 0x40 MLOAD PUSH32 0x8C379A000000000000000000000000000000000000000000000000000000000 DUP2 MSTORE PUSH1 0x4 ADD PUSH2 0xB16 SWAP1 PUSH2 0x102C JUMP JUMPDEST PUSH1 0x40 MLOAD DUP1 SWAP2 SUB SWAP1 REVERT JUMPDEST PUSH2 0xBB0 PUSH1 0x5 PUSH1 0x0 CALLER PUSH20 0xFFFFFFFFFFFFFFFFFFFFFFFFFFFFFFFFFFFFFFFF AND PUSH20 0xFFFFFFFFFFFFFFFFFFFFFFFFFFFFFFFFFFFFFFFF AND DUP2 MSTORE PUSH1 0x20 ADD SWAP1 DUP2 MSTORE PUSH1 0x20 ADD PUSH1 0x0 KECCAK256 SLOAD PUSH1 0x5 PUSH1 0x0 CALLER PUSH20 0xFFFFFFFFFFFFFFFFFFFFFFFFFFFFFFFFFFFFFFFF AND PUSH20 0xFFFFFFFFFFFFFFFFFFFFFFFFFFFFFFFFFFFFFFFF AND DUP2 MSTORE PUSH1 0x20 ADD SWAP1 DUP2 MSTORE PUSH1 0x20 ADD PUSH1 0x0 KECCAK256 SLOAD PUSH2 0xDAA SWAP1 SWAP2 SWAP1 PUSH4 0xFFFFFFFF AND JUMP JUMPDEST PUSH1 0x5 PUSH1 0x0 CALLER PUSH20 0xFFFFFFFFFFFFFFFFFFFFFFFFFFFFFFFFFFFFFFFF AND PUSH20 0xFFFFFFFFFFFFFFFFFFFFFFFFFFFFFFFFFFFFFFFF AND DUP2 MSTORE PUSH1 0x20 ADD SWAP1 DUP2 MSTORE PUSH1 0x20 ADD PUSH1 0x0 KECCAK256 DUP2 SWAP1 SSTORE POP PUSH2 0xC45 DUP3 PUSH1 0x5 PUSH1 0x0 DUP7 PUSH20 0xFFFFFFFFFFFFFFFFFFFFFFFFFFFFFFFFFFFFFFFF AND PUSH20 0xFFFFFFFFFFFFFFFFFFFFFFFFFFFFFFFFFFFFFFFF AND DUP2 MSTORE PUSH1 0x20 ADD SWAP1 DUP2 MSTORE PUSH1 0x20 ADD PUSH1 0x0 KECCAK256 SLOAD PUSH2 0xD82 SWAP1 SWAP2 SWAP1 PUSH4 0xFFFFFFFF AND JUMP JUMPDEST PUSH1 0x5 PUSH1 0x0 DUP6 PUSH20 0xFFFFFFFFFFFFFFFFFFFFFFFFFFFFFFFFFFFFFFFF AND PUSH20 0xFFFFFFFFFFFFFFFFFFFFFFFFFFFFFFFFFFFFFFFF AND DUP2 MSTORE PUSH1 0x20 ADD SWAP1 DUP2 MSTORE PUSH1 0x20 ADD PUSH1 0x0 KECCAK256 DUP2 SWAP1 SSTORE POP DUP3 PUSH20 0xFFFFFFFFFFFFFFFFFFFFFFFFFFFFFFFFFFFFFFFF AND CALLER PUSH20 0xFFFFFFFFFFFFFFFFFFFFFFFFFFFFFFFFFFFFFFFF AND PUSH32 0xDDF252AD1BE2C89B69C2B068FC378DAA952BA7F163C4A11628F55A4DF523B3EF DUP5 PUSH1 0x40 MLOAD PUSH2 0xCE5 SWAP2 SWAP1 PUSH2 0x108C JUMP JUMPDEST PUSH1 0x40 MLOAD DUP1 SWAP2 SUB SWAP1 LOG3 POP POP POP JUMP JUMPDEST PUSH1 0x0 DUP1 SLOAD SWAP1 POP SWAP1 JUMP JUMPDEST PUSH1 0x0 PUSH1 0x6 PUSH1 0x0 DUP4 PUSH20 0xFFFFFFFFFFFFFFFFFFFFFFFFFFFFFFFFFFFFFFFF AND PUSH20 0xFFFFFFFFFFFFFFFFFFFFFFFFFFFFFFFFFFFFFFFF AND DUP2 MSTORE PUSH1 0x20 ADD SWAP1 DUP2 MSTORE PUSH1 0x20 ADD PUSH1 0x0 KECCAK256 PUSH1 0x0 DUP5 PUSH20 0xFFFFFFFFFFFFFFFFFFFFFFFFFFFFFFFFFFFFFFFF AND PUSH20 0xFFFFFFFFFFFFFFFFFFFFFFFFFFFFFFFFFFFFFFFF AND DUP2 MSTORE PUSH1 0x20 ADD SWAP1 DUP2 MSTORE PUSH1 0x20 ADD PUSH1 0x0 KECCAK256 SLOAD SWAP1 POP SWAP3 SWAP2 POP POP JUMP JUMPDEST PUSH1 0x0 DUP1 DUP3 DUP5 PUSH2 0xD91 SWAP2 SWAP1 PUSH2 0x10DE JUMP JUMPDEST SWAP1 POP DUP4 DUP2 LT ISZERO PUSH2 0xDA0 JUMPI PUSH1 0x0 DUP1 REVERT JUMPDEST DUP1 SWAP2 POP POP SWAP3 SWAP2 POP POP JUMP JUMPDEST PUSH1 0x0 DUP3 DUP3 GT ISZERO PUSH2 0xDB9 JUMPI PUSH1 0x0 DUP1 REVERT JUMPDEST PUSH1 0x0 DUP3 DUP5 PUSH2 0xDC7 SWAP2 SWAP1 PUSH2 0x1134 JUMP JUMPDEST SWAP1 POP DUP1 SWAP2 POP POP SWAP3 SWAP2 POP POP JUMP JUMPDEST POP POP POP JUMP JUMPDEST POP POP POP JUMP JUMPDEST PUSH1 0x0 DUP2 CALLDATALOAD SWAP1 POP PUSH2 0xDEC DUP2 PUSH2 0x135D JUMP JUMPDEST SWAP3 SWAP2 POP POP JUMP JUMPDEST PUSH1 0x0 DUP2 CALLDATALOAD SWAP1 POP PUSH2 0xE01 DUP2 PUSH2 0x1374 JUMP JUMPDEST SWAP3 SWAP2 POP POP JUMP JUMPDEST PUSH1 0x0 PUSH1 0x20 DUP3 DUP5 SUB SLT ISZERO PUSH2 0xE1D JUMPI PUSH2 0xE1C PUSH2 0x12A3 JUMP JUMPDEST JUMPDEST PUSH1 0x0 PUSH2 0xE2B DUP5 DUP3 DUP6 ADD PUSH2 0xDDD JUMP JUMPDEST SWAP2 POP POP SWAP3 SWAP2 POP POP JUMP JUMPDEST PUSH1 0x0 DUP1 PUSH1 0x40 DUP4 DUP6 SUB SLT ISZERO PUSH2 0xE4B JUMPI PUSH2 0xE4A PUSH2 0x12A3 JUMP JUMPDEST JUMPDEST PUSH1 0x0 PUSH2 0xE59 DUP6 DUP3 DUP7 ADD PUSH2 0xDDD JUMP JUMPDEST SWAP3 POP POP PUSH1 0x20 PUSH2 0xE6A DUP6 DUP3 DUP7 ADD PUSH2 0xDDD JUMP JUMPDEST SWAP2 POP POP SWAP3 POP SWAP3 SWAP1 POP JUMP JUMPDEST PUSH1 0x0 DUP1 PUSH1 0x0 PUSH1 0x60 DUP5 DUP7 SUB SLT ISZERO PUSH2 0xE8D JUMPI PUSH2 0xE8C PUSH2 0x12A3 JUMP JUMPDEST JUMPDEST PUSH1 0x0 PUSH2 0xE9B DUP7 DUP3 DUP8 ADD PUSH2 0xDDD JUMP JUMPDEST SWAP4 POP POP PUSH1 0x20 PUSH2 0xEAC DUP7 DUP3 DUP8 ADD PUSH2 0xDDD JUMP JUMPDEST SWAP3 POP POP PUSH1 0x40 PUSH2 0xEBD DUP7 DUP3 DUP8 ADD PUSH2 0xDF2 JUMP JUMPDEST SWAP2 POP POP SWAP3 POP SWAP3 POP SWAP3 JUMP JUMPDEST PUSH1 0x0 DUP1 PUSH1 0x40 DUP4 DUP6 SUB SLT ISZERO PUSH2 0xEDE JUMPI PUSH2 0xEDD PUSH2 0x12A3 JUMP JUMPDEST JUMPDEST PUSH1 0x0 PUSH2 0xEEC DUP6 DUP3 DUP7 ADD PUSH2 0xDDD JUMP JUMPDEST SWAP3 POP POP PUSH1 0x20 PUSH2 0xEFD DUP6 DUP3 DUP7 ADD PUSH2 0xDF2 JUMP JUMPDEST SWAP2 POP POP SWAP3 POP SWAP3 SWAP1 POP JUMP JUMPDEST PUSH1 0x0 PUSH2 0xF12 DUP3 PUSH2 0x10C2 JUMP JUMPDEST PUSH2 0xF1C DUP2 DUP6 PUSH2 0x10CD JUMP JUMPDEST SWAP4 POP PUSH2 0xF2C DUP2 DUP6 PUSH1 0x20 DUP7 ADD PUSH2 0x11B1 JUMP JUMPDEST PUSH2 0xF35 DUP2 PUSH2 0x12A8 JUMP JUMPDEST DUP5 ADD SWAP2 POP POP SWAP3 SWAP2 POP POP JUMP JUMPDEST PUSH1 0x0 PUSH2 0xF4D PUSH1 0x10 DUP4 PUSH2 0x10CD JUMP JUMPDEST SWAP2 POP PUSH2 0xF58 DUP3 PUSH2 0x12B9 JUMP JUMPDEST PUSH1 0x20 DUP3 ADD SWAP1 POP SWAP2 SWAP1 POP JUMP JUMPDEST PUSH1 0x0 PUSH2 0xF70 PUSH1 0xB DUP4 PUSH2 0x10CD JUMP JUMPDEST SWAP2 POP PUSH2 0xF7B DUP3 PUSH2 0x12E2 JUMP JUMPDEST PUSH1 0x20 DUP3 ADD SWAP1 POP SWAP2 SWAP1 POP JUMP JUMPDEST PUSH1 0x0 PUSH2 0xF93 PUSH1 0xE DUP4 PUSH2 0x10CD JUMP JUMPDEST SWAP2 POP PUSH2 0xF9E DUP3 PUSH2 0x130B JUMP JUMPDEST PUSH1 0x20 DUP3 ADD SWAP1 POP SWAP2 SWAP1 POP JUMP JUMPDEST PUSH1 0x0 PUSH2 0xFB6 PUSH1 0x1F DUP4 PUSH2 0x10CD JUMP JUMPDEST SWAP2 POP PUSH2 0xFC1 DUP3 PUSH2 0x1334 JUMP JUMPDEST PUSH1 0x20 DUP3 ADD SWAP1 POP SWAP2 SWAP1 POP JUMP JUMPDEST PUSH2 0xFD5 DUP2 PUSH2 0x119A JUMP JUMPDEST DUP3 MSTORE POP POP JUMP JUMPDEST PUSH2 0xFE4 DUP2 PUSH2 0x11A4 JUMP JUMPDEST DUP3 MSTORE POP POP JUMP JUMPDEST PUSH1 0x0 PUSH1 0x20 DUP3 ADD SWAP1 POP DUP2 DUP2 SUB PUSH1 0x0 DUP4 ADD MSTORE PUSH2 0x1004 DUP2 DUP5 PUSH2 0xF07 JUMP JUMPDEST SWAP1 POP SWAP3 SWAP2 POP POP JUMP JUMPDEST PUSH1 0x0 PUSH1 0x20 DUP3 ADD SWAP1 POP DUP2 DUP2 SUB PUSH1 0x0 DUP4 ADD MSTORE PUSH2 0x1025 DUP2 PUSH2 0xF40 JUMP JUMPDEST SWAP1 POP SWAP2 SWAP1 POP JUMP JUMPDEST PUSH1 0x0 PUSH1 0x20 DUP3 ADD SWAP1 POP DUP2 DUP2 SUB PUSH1 0x0 DUP4 ADD MSTORE PUSH2 0x1045 DUP2 PUSH2 0xF63 JUMP JUMPDEST SWAP1 POP SWAP2 SWAP1 POP JUMP JUMPDEST PUSH1 0x0 PUSH1 0x20 DUP3 ADD SWAP1 POP DUP2 DUP2 SUB PUSH1 0x0 DUP4 ADD MSTORE PUSH2 0x1065 DUP2 PUSH2 0xF86 JUMP JUMPDEST SWAP1 POP SWAP2 SWAP1 POP JUMP JUMPDEST PUSH1 0x0 PUSH1 0x20 DUP3 ADD SWAP1 POP DUP2 DUP2 SUB PUSH1 0x0 DUP4 ADD MSTORE PUSH2 0x1085 DUP2 PUSH2 0xFA9 JUMP JUMPDEST SWAP1 POP SWAP2 SWAP1 POP JUMP JUMPDEST PUSH1 0x0 PUSH1 0x20 DUP3 ADD SWAP1 POP PUSH2 0x10A1 PUSH1 0x0 DUP4 ADD DUP5 PUSH2 0xFCC JUMP JUMPDEST SWAP3 SWAP2 POP POP JUMP JUMPDEST PUSH1 0x0 PUSH1 0x20 DUP3 ADD SWAP1 POP PUSH2 0x10BC PUSH1 0x0 DUP4 ADD DUP5 PUSH2 0xFDB JUMP JUMPDEST SWAP3 SWAP2 POP POP JUMP JUMPDEST PUSH1 0x0 DUP2 MLOAD SWAP1 POP SWAP2 SWAP1 POP JUMP JUMPDEST PUSH1 0x0 DUP3 DUP3 MSTORE PUSH1 0x20 DUP3 ADD SWAP1 POP SWAP3 SWAP2 POP POP JUMP JUMPDEST PUSH1 0x0 PUSH2 0x10E9 DUP3 PUSH2 0x119A JUMP JUMPDEST SWAP2 POP PUSH2 0x10F4 DUP4 PUSH2 0x119A JUMP JUMPDEST SWAP3 POP DUP3 PUSH32 0xFFFFFFFFFFFFFFFFFFFFFFFFFFFFFFFFFFFFFFFFFFFFFFFFFFFFFFFFFFFFFFFF SUB DUP3 GT ISZERO PUSH2 0x1129 JUMPI PUSH2 0x1128 PUSH2 0x1245 JUMP JUMPDEST JUMPDEST DUP3 DUP3 ADD SWAP1 POP SWAP3 SWAP2 POP POP JUMP JUMPDEST PUSH1 0x0 PUSH2 0x113F DUP3 PUSH2 0x119A JUMP JUMPDEST SWAP2 POP PUSH2 0x114A DUP4 PUSH2 0x119A JUMP JUMPDEST SWAP3 POP DUP3 DUP3 LT ISZERO PUSH2 0x115D JUMPI PUSH2 0x115C PUSH2 0x1245 JUMP JUMPDEST JUMPDEST DUP3 DUP3 SUB SWAP1 POP SWAP3 SWAP2 POP POP JUMP JUMPDEST PUSH1 0x0 PUSH2 0x1173 DUP3 PUSH2 0x117A JUMP JUMPDEST SWAP1 POP SWAP2 SWAP1 POP JUMP JUMPDEST PUSH1 0x0 PUSH20 0xFFFFFFFFFFFFFFFFFFFFFFFFFFFFFFFFFFFFFFFF DUP3 AND SWAP1 POP SWAP2 SWAP1 POP JUMP JUMPDEST PUSH1 0x0 DUP2 SWAP1 POP SWAP2 SWAP1 POP JUMP JUMPDEST PUSH1 0x0 PUSH1 0xFF DUP3 AND SWAP1 POP SWAP2 SWAP1 POP JUMP JUMPDEST PUSH1 0x0 JUMPDEST DUP4 DUP2 LT ISZERO PUSH2 0x11CF JUMPI DUP1 DUP3 ADD MLOAD DUP2 DUP5 ADD MSTORE PUSH1 0x20 DUP2 ADD SWAP1 POP PUSH2 0x11B4 JUMP JUMPDEST DUP4 DUP2 GT ISZERO PUSH2 0x11DE JUMPI PUSH1 0x0 DUP5 DUP5 ADD MSTORE JUMPDEST POP POP POP POP JUMP JUMPDEST PUSH1 0x0 PUSH1 0x2 DUP3 DIV SWAP1 POP PUSH1 0x1 DUP3 AND DUP1 PUSH2 0x11FC JUMPI PUSH1 0x7F DUP3 AND SWAP2 POP JUMPDEST PUSH1 0x20 DUP3 LT DUP2 EQ ISZERO PUSH2 0x1210 JUMPI PUSH2 0x120F PUSH2 0x1274 JUMP JUMPDEST JUMPDEST POP SWAP2 SWAP1 POP JUMP JUMPDEST PUSH32 0x4E487B7100000000000000000000000000000000000000000000000000000000 PUSH1 0x0 MSTORE PUSH1 0x1 PUSH1 0x4 MSTORE PUSH1 0x24 PUSH1 0x0 REVERT JUMPDEST PUSH32 0x4E487B7100000000000000000000000000000000000000000000000000000000 PUSH1 0x0 MSTORE PUSH1 0x11 PUSH1 0x4 MSTORE PUSH1 0x24 PUSH1 0x0 REVERT JUMPDEST PUSH32 0x4E487B7100000000000000000000000000000000000000000000000000000000 PUSH1 0x0 MSTORE PUSH1 0x22 PUSH1 0x4 MSTORE PUSH1 0x24 PUSH1 0x0 REVERT JUMPDEST PUSH1 0x0 DUP1 REVERT JUMPDEST PUSH1 0x0 PUSH1 0x1F NOT PUSH1 0x1F DUP4 ADD AND SWAP1 POP SWAP2 SWAP1 POP JUMP JUMPDEST PUSH32 0x42616C616E6365203C20616D6F756E7400000000000000000000000000000000 PUSH1 0x0 DUP3 ADD MSTORE POP JUMP JUMPDEST PUSH32 0x416D6F756E74203C3D2030000000000000000000000000000000000000000000 PUSH1 0x0 DUP3 ADD MSTORE POP JUMP JUMPDEST PUSH32 0x446F6E277420616C6C6F7765642E000000000000000000000000000000000000 PUSH1 0x0 DUP3 ADD MSTORE POP JUMP JUMPDEST PUSH32 0x45524332303A206D696E7420746F20746865207A65726F206164647265737300 PUSH1 0x0 DUP3 ADD MSTORE POP JUMP JUMPDEST PUSH2 0x1366 DUP2 PUSH2 0x1168 JUMP JUMPDEST DUP2 EQ PUSH2 0x1371 JUMPI PUSH1 0x0 DUP1 REVERT JUMPDEST POP JUMP JUMPDEST PUSH2 0x137D DUP2 PUSH2 0x119A JUMP JUMPDEST DUP2 EQ PUSH2 0x1388 JUMPI PUSH1 0x0 DUP1 REVERT JUMPDEST POP JUMP INVALID LOG2 PUSH5 0x6970667358 0x22 SLT KECCAK256 DUP3 COINBASE SAR 0xBE PUSH16 0x3AE499865557CE42C20EE33A03CCF641 0xE1 ADD 0xAA 0xCD CREATE2 GT SWAP5 0xEF 0xE9 0x27 NUMBER PUSH5 0x736F6C6343 STOP ADDMOD SMOD STOP CALLER "
				},
				"gasEstimates": {
					"creation": {
						"codeDepositCost": "1086600",
						"executionCost": "infinite",
						"totalCost": "infinite"
					},
					"external": {
						"addProposals(address[],string[])": "infinite",
						"addVote(address)": "infinite",
						"addVoters(address[])": "infinite",
						"getTotalSupply()": "infinite",
						"totalVotesFor(address)": "infinite",
						"vote(address)": "infinite"
					}
				},
				"methodIdentifiers": {
					"addProposals(address[],string[])": "633fff16",
					"addVote(address)": "6cea0e46",
					"addVoters(address[])": "8203373a",
					"getTotalSupply()": "c4e41b22",
					"totalVotesFor(address)": "4041ef54",
					"vote(address)": "6dd7d8ea"
				}
			},
			"storageLayout": {
				"storage": [
					{
						"astId": 482,
						"contract": "contracts/Voting.sol:Voting",
						"label": "name",
						"offset": 0,
						"slot": "0",
						"type": "t_string_storage"
					},
					{
						"astId": 484,
						"contract": "contracts/Voting.sol:Voting",
						"label": "startTime",
						"offset": 0,
						"slot": "1",
						"type": "t_uint256"
					},
					{
						"astId": 486,
						"contract": "contracts/Voting.sol:Voting",
						"label": "endTime",
						"offset": 0,
						"slot": "2",
						"type": "t_uint256"
					},
					{
						"astId": 490,
						"contract": "contracts/Voting.sol:Voting",
						"label": "voters",
						"offset": 0,
						"slot": "3",
						"type": "t_mapping(t_address,t_bool)"
					},
					{
						"astId": 494,
						"contract": "contracts/Voting.sol:Voting",
						"label": "proposals",
						"offset": 0,
						"slot": "4",
						"type": "t_mapping(t_address,t_string_storage)"
					},
					{
						"astId": 496,
						"contract": "contracts/Voting.sol:Voting",
						"label": "chairperson",
						"offset": 0,
						"slot": "5",
						"type": "t_address"
					},
					{
						"astId": 503,
						"contract": "contracts/Voting.sol:Voting",
						"label": "token",
						"offset": 0,
						"slot": "6",
						"type": "t_contract(Token)477"
					}
				],
				"types": {
					"t_address": {
						"encoding": "inplace",
						"label": "address",
						"numberOfBytes": "20"
					},
					"t_bool": {
						"encoding": "inplace",
						"label": "bool",
						"numberOfBytes": "1"
					},
					"t_contract(Token)477": {
						"encoding": "inplace",
						"label": "contract Token",
						"numberOfBytes": "20"
					},
					"t_mapping(t_address,t_bool)": {
						"encoding": "mapping",
						"key": "t_address",
						"label": "mapping(address => bool)",
						"numberOfBytes": "32",
						"value": "t_bool"
					},
					"t_mapping(t_address,t_string_storage)": {
						"encoding": "mapping",
						"key": "t_address",
						"label": "mapping(address => string)",
						"numberOfBytes": "32",
						"value": "t_string_storage"
					},
					"t_string_storage": {
						"encoding": "bytes",
						"label": "string",
						"numberOfBytes": "32"
					},
					"t_uint256": {
						"encoding": "inplace",
						"label": "uint256",
						"numberOfBytes": "32"
					}
				}
			},
			"userdoc": {
				"kind": "user",
				"methods": {},
				"version": 1
			}
		}
	}
}